{
  "_format": "hh-sol-artifact-1",
  "contractName": "BlockManager",
  "sourceName": "contracts/Core/BlockManager.sol",
  "abi": [
    {
      "anonymous": false,
      "inputs": [
        {
          "indexed": false,
          "internalType": "uint256",
          "name": "epoch",
          "type": "uint256"
        },
        {
          "indexed": false,
          "internalType": "uint256",
          "name": "stakerId",
          "type": "uint256"
        },
        {
          "indexed": false,
          "internalType": "uint256[]",
          "name": "medians",
          "type": "uint256[]"
        },
        {
          "indexed": false,
          "internalType": "uint256[]",
          "name": "lowerCutoffs",
          "type": "uint256[]"
        },
        {
          "indexed": false,
          "internalType": "uint256[]",
          "name": "higherCutoffs",
          "type": "uint256[]"
        },
        {
          "indexed": false,
          "internalType": "uint256[]",
          "name": "jobIds",
          "type": "uint256[]"
        },
        {
          "indexed": false,
          "internalType": "uint256",
          "name": "timestamp",
          "type": "uint256"
        }
      ],
      "name": "BlockConfirmed",
      "type": "event"
    },
    {
      "anonymous": false,
      "inputs": [
        {
          "indexed": false,
          "internalType": "uint256",
          "name": "epoch",
          "type": "uint256"
        },
        {
          "indexed": false,
          "internalType": "uint256",
          "name": "stakerId",
          "type": "uint256"
        },
        {
          "indexed": false,
          "internalType": "uint256[]",
          "name": "jobIds",
          "type": "uint256[]"
        },
        {
          "indexed": false,
          "internalType": "uint256[]",
          "name": "medians",
          "type": "uint256[]"
        },
        {
          "indexed": false,
          "internalType": "uint256[]",
          "name": "lowerCutoffs",
          "type": "uint256[]"
        },
        {
          "indexed": false,
          "internalType": "uint256[]",
          "name": "higherCutoffs",
          "type": "uint256[]"
        },
        {
          "indexed": false,
          "internalType": "uint256",
          "name": "iteration",
          "type": "uint256"
        },
        {
          "indexed": false,
          "internalType": "uint256",
          "name": "biggestStakerId",
          "type": "uint256"
        },
        {
          "indexed": false,
          "internalType": "uint256",
          "name": "timestamp",
          "type": "uint256"
        }
      ],
      "name": "Proposed",
      "type": "event"
    },
    {
      "anonymous": false,
      "inputs": [
        {
          "indexed": true,
          "internalType": "bytes32",
          "name": "role",
          "type": "bytes32"
        },
        {
          "indexed": true,
          "internalType": "bytes32",
          "name": "previousAdminRole",
          "type": "bytes32"
        },
        {
          "indexed": true,
          "internalType": "bytes32",
          "name": "newAdminRole",
          "type": "bytes32"
        }
      ],
      "name": "RoleAdminChanged",
      "type": "event"
    },
    {
      "anonymous": false,
      "inputs": [
        {
          "indexed": true,
          "internalType": "bytes32",
          "name": "role",
          "type": "bytes32"
        },
        {
          "indexed": true,
          "internalType": "address",
          "name": "account",
          "type": "address"
        },
        {
          "indexed": true,
          "internalType": "address",
          "name": "sender",
          "type": "address"
        }
      ],
      "name": "RoleGranted",
      "type": "event"
    },
    {
      "anonymous": false,
      "inputs": [
        {
          "indexed": true,
          "internalType": "bytes32",
          "name": "role",
          "type": "bytes32"
        },
        {
          "indexed": true,
          "internalType": "address",
          "name": "account",
          "type": "address"
        },
        {
          "indexed": true,
          "internalType": "address",
          "name": "sender",
          "type": "address"
        }
      ],
      "name": "RoleRevoked",
      "type": "event"
    },
    {
      "inputs": [],
      "name": "DEFAULT_ADMIN_ROLE",
      "outputs": [
        {
          "internalType": "bytes32",
          "name": "",
          "type": "bytes32"
        }
      ],
      "stateMutability": "view",
      "type": "function"
    },
    {
      "inputs": [
        {
          "internalType": "uint256",
          "name": "",
          "type": "uint256"
        }
      ],
      "name": "blocks",
      "outputs": [
        {
          "internalType": "uint256",
          "name": "proposerId",
          "type": "uint256"
        },
        {
          "internalType": "uint256",
          "name": "iteration",
          "type": "uint256"
        },
        {
          "internalType": "uint256",
          "name": "biggestStake",
          "type": "uint256"
        },
        {
          "internalType": "bool",
          "name": "valid",
          "type": "bool"
        }
      ],
      "stateMutability": "view",
      "type": "function"
    },
    {
      "inputs": [],
      "name": "confirmBlock",
      "outputs": [],
      "stateMutability": "nonpayable",
      "type": "function"
    },
    {
      "inputs": [
        {
          "internalType": "uint256",
          "name": "",
          "type": "uint256"
        },
        {
          "internalType": "address",
          "name": "",
          "type": "address"
        }
      ],
      "name": "disputes",
      "outputs": [
        {
          "internalType": "uint256",
          "name": "accWeight",
          "type": "uint256"
        },
        {
          "internalType": "uint256",
          "name": "median",
          "type": "uint256"
        },
        {
          "internalType": "uint256",
          "name": "lowerCutoff",
          "type": "uint256"
        },
        {
          "internalType": "uint256",
          "name": "higherCutoff",
          "type": "uint256"
        },
        {
          "internalType": "uint256",
          "name": "lastVisited",
          "type": "uint256"
        },
        {
          "internalType": "uint256",
          "name": "assetId",
          "type": "uint256"
        }
      ],
      "stateMutability": "view",
      "type": "function"
    },
    {
      "inputs": [
        {
          "internalType": "uint256",
          "name": "epoch",
          "type": "uint256"
        },
        {
          "internalType": "uint256",
          "name": "blockId",
          "type": "uint256"
        }
      ],
      "name": "finalizeDispute",
      "outputs": [],
      "stateMutability": "nonpayable",
      "type": "function"
    },
    {
      "inputs": [
        {
          "internalType": "uint256",
          "name": "epoch",
          "type": "uint256"
        }
      ],
      "name": "getBlock",
      "outputs": [
        {
          "components": [
            {
              "internalType": "uint256",
              "name": "proposerId",
              "type": "uint256"
            },
            {
              "internalType": "uint256[]",
              "name": "jobIds",
              "type": "uint256[]"
            },
            {
              "internalType": "uint256[]",
              "name": "medians",
              "type": "uint256[]"
            },
            {
              "internalType": "uint256[]",
              "name": "lowerCutoffs",
              "type": "uint256[]"
            },
            {
              "internalType": "uint256[]",
              "name": "higherCutoffs",
              "type": "uint256[]"
            },
            {
              "internalType": "uint256",
              "name": "iteration",
              "type": "uint256"
            },
            {
              "internalType": "uint256",
              "name": "biggestStake",
              "type": "uint256"
            },
            {
              "internalType": "bool",
              "name": "valid",
              "type": "bool"
            }
          ],
          "internalType": "struct Structs.Block",
          "name": "_block",
          "type": "tuple"
        }
      ],
      "stateMutability": "view",
      "type": "function"
    },
    {
      "inputs": [
        {
          "internalType": "uint256",
          "name": "epoch",
          "type": "uint256"
        }
      ],
      "name": "getBlockMedians",
      "outputs": [
        {
          "internalType": "uint256[]",
          "name": "_blockMedians",
          "type": "uint256[]"
        }
      ],
      "stateMutability": "view",
      "type": "function"
    },
    {
      "inputs": [
        {
          "internalType": "uint256",
          "name": "epoch",
          "type": "uint256"
        }
      ],
      "name": "getHigherCutoffs",
      "outputs": [
        {
          "internalType": "uint256[]",
          "name": "_higherCutoffs",
          "type": "uint256[]"
        }
      ],
      "stateMutability": "view",
      "type": "function"
    },
    {
      "inputs": [
        {
          "internalType": "uint256",
          "name": "epoch",
          "type": "uint256"
        }
      ],
      "name": "getLowerCutoffs",
      "outputs": [
        {
          "internalType": "uint256[]",
          "name": "_lowerCutoffs",
          "type": "uint256[]"
        }
      ],
      "stateMutability": "view",
      "type": "function"
    },
    {
      "inputs": [
        {
          "internalType": "uint256",
          "name": "epoch",
          "type": "uint256"
        }
      ],
      "name": "getNumProposedBlocks",
      "outputs": [
        {
          "internalType": "uint256",
          "name": "",
          "type": "uint256"
        }
      ],
      "stateMutability": "view",
      "type": "function"
    },
    {
      "inputs": [
        {
          "internalType": "uint256",
          "name": "epoch",
          "type": "uint256"
        },
        {
          "internalType": "uint256",
          "name": "proposedBlock",
          "type": "uint256"
        }
      ],
      "name": "getProposedBlock",
      "outputs": [
        {
          "components": [
            {
              "internalType": "uint256",
              "name": "proposerId",
              "type": "uint256"
            },
            {
              "internalType": "uint256[]",
              "name": "jobIds",
              "type": "uint256[]"
            },
            {
              "internalType": "uint256[]",
              "name": "medians",
              "type": "uint256[]"
            },
            {
              "internalType": "uint256[]",
              "name": "lowerCutoffs",
              "type": "uint256[]"
            },
            {
              "internalType": "uint256[]",
              "name": "higherCutoffs",
              "type": "uint256[]"
            },
            {
              "internalType": "uint256",
              "name": "iteration",
              "type": "uint256"
            },
            {
              "internalType": "uint256",
              "name": "biggestStake",
              "type": "uint256"
            },
            {
              "internalType": "bool",
              "name": "valid",
              "type": "bool"
            }
          ],
          "internalType": "struct Structs.Block",
          "name": "_block",
          "type": "tuple"
        },
        {
          "internalType": "uint256[]",
          "name": "_blockMedians",
          "type": "uint256[]"
        },
        {
          "internalType": "uint256[]",
          "name": "_lowerCutoffs",
          "type": "uint256[]"
        },
        {
          "internalType": "uint256[]",
          "name": "_higherCutoffs",
          "type": "uint256[]"
        }
      ],
      "stateMutability": "view",
      "type": "function"
    },
    {
      "inputs": [
        {
          "internalType": "uint256",
          "name": "epoch",
          "type": "uint256"
        },
        {
          "internalType": "uint256",
          "name": "proposedBlock",
          "type": "uint256"
        }
      ],
      "name": "getProposedBlockMedians",
      "outputs": [
        {
          "internalType": "uint256[]",
          "name": "_blockMedians",
          "type": "uint256[]"
        }
      ],
      "stateMutability": "view",
      "type": "function"
    },
    {
      "inputs": [
        {
          "internalType": "bytes32",
          "name": "role",
          "type": "bytes32"
        }
      ],
      "name": "getRoleAdmin",
      "outputs": [
        {
          "internalType": "bytes32",
          "name": "",
          "type": "bytes32"
        }
      ],
      "stateMutability": "view",
      "type": "function"
    },
    {
      "inputs": [
        {
          "internalType": "uint256",
          "name": "epoch",
          "type": "uint256"
        },
        {
          "internalType": "uint256",
          "name": "assetId",
          "type": "uint256"
        },
        {
          "internalType": "uint256[]",
          "name": "sorted",
          "type": "uint256[]"
        }
      ],
      "name": "giveSorted",
      "outputs": [],
      "stateMutability": "nonpayable",
      "type": "function"
    },
    {
      "inputs": [
        {
          "internalType": "bytes32",
          "name": "role",
          "type": "bytes32"
        },
        {
          "internalType": "address",
          "name": "account",
          "type": "address"
        }
      ],
      "name": "grantRole",
      "outputs": [],
      "stateMutability": "nonpayable",
      "type": "function"
    },
    {
      "inputs": [
        {
          "internalType": "bytes32",
          "name": "role",
          "type": "bytes32"
        },
        {
          "internalType": "address",
          "name": "account",
          "type": "address"
        }
      ],
      "name": "hasRole",
      "outputs": [
        {
          "internalType": "bool",
          "name": "",
          "type": "bool"
        }
      ],
      "stateMutability": "view",
      "type": "function"
    },
    {
      "inputs": [
        {
          "internalType": "address",
          "name": "_stakeManagerAddress",
          "type": "address"
        },
        {
          "internalType": "address",
          "name": "_stateManagerAddress",
          "type": "address"
        },
        {
          "internalType": "address",
          "name": "_voteManagerAddress",
          "type": "address"
        },
        {
          "internalType": "address",
          "name": "_jobManagerAddress",
          "type": "address"
        }
      ],
      "name": "init",
      "outputs": [],
      "stateMutability": "nonpayable",
      "type": "function"
    },
    {
      "inputs": [
        {
          "internalType": "uint256",
          "name": "iteration",
          "type": "uint256"
        },
        {
          "internalType": "uint256",
          "name": "biggestStakerId",
          "type": "uint256"
        },
        {
          "internalType": "uint256",
          "name": "stakerId",
          "type": "uint256"
        }
      ],
      "name": "isElectedProposer",
      "outputs": [
        {
          "internalType": "bool",
          "name": "",
          "type": "bool"
        }
      ],
      "stateMutability": "view",
      "type": "function"
    },
    {
      "inputs": [],
      "name": "jobManager",
      "outputs": [
        {
          "internalType": "contract IJobManager",
          "name": "",
          "type": "address"
        }
      ],
      "stateMutability": "view",
      "type": "function"
    },
    {
      "inputs": [
        {
          "internalType": "uint256",
          "name": "epoch",
          "type": "uint256"
        },
        {
          "internalType": "uint256[]",
          "name": "jobIds",
          "type": "uint256[]"
        },
        {
          "internalType": "uint256[]",
          "name": "medians",
          "type": "uint256[]"
        },
        {
          "internalType": "uint256[]",
          "name": "lowerCutoffs",
          "type": "uint256[]"
        },
        {
          "internalType": "uint256[]",
          "name": "higherCutoffs",
          "type": "uint256[]"
        },
        {
          "internalType": "uint256",
          "name": "iteration",
          "type": "uint256"
        },
        {
          "internalType": "uint256",
          "name": "biggestStakerId",
          "type": "uint256"
        }
      ],
      "name": "propose",
      "outputs": [],
      "stateMutability": "nonpayable",
      "type": "function"
    },
    {
      "inputs": [
        {
          "internalType": "uint256",
          "name": "",
          "type": "uint256"
        },
        {
          "internalType": "uint256",
          "name": "",
          "type": "uint256"
        }
      ],
      "name": "proposedBlocks",
      "outputs": [
        {
          "internalType": "uint256",
          "name": "proposerId",
          "type": "uint256"
        },
        {
          "internalType": "uint256",
          "name": "iteration",
          "type": "uint256"
        },
        {
          "internalType": "uint256",
          "name": "biggestStake",
          "type": "uint256"
        },
        {
          "internalType": "bool",
          "name": "valid",
          "type": "bool"
        }
      ],
      "stateMutability": "view",
      "type": "function"
    },
    {
      "inputs": [
        {
          "internalType": "bytes32",
          "name": "role",
          "type": "bytes32"
        },
        {
          "internalType": "address",
          "name": "account",
          "type": "address"
        }
      ],
      "name": "renounceRole",
      "outputs": [],
      "stateMutability": "nonpayable",
      "type": "function"
    },
    {
      "inputs": [
        {
          "internalType": "uint256",
          "name": "epoch",
          "type": "uint256"
        }
      ],
      "name": "resetDispute",
      "outputs": [],
      "stateMutability": "nonpayable",
      "type": "function"
    },
    {
      "inputs": [
        {
          "internalType": "bytes32",
          "name": "role",
          "type": "bytes32"
        },
        {
          "internalType": "address",
          "name": "account",
          "type": "address"
        }
      ],
      "name": "revokeRole",
      "outputs": [],
      "stateMutability": "nonpayable",
      "type": "function"
    },
    {
      "inputs": [],
      "name": "stakeManager",
      "outputs": [
        {
          "internalType": "contract IStakeManager",
          "name": "",
          "type": "address"
        }
      ],
      "stateMutability": "view",
      "type": "function"
    },
    {
      "inputs": [],
      "name": "stateManager",
      "outputs": [
        {
          "internalType": "contract IStateManager",
          "name": "",
          "type": "address"
        }
      ],
      "stateMutability": "view",
      "type": "function"
    },
    {
      "inputs": [
        {
          "internalType": "bytes4",
          "name": "interfaceId",
          "type": "bytes4"
        }
      ],
      "name": "supportsInterface",
      "outputs": [
        {
          "internalType": "bool",
          "name": "",
          "type": "bool"
        }
      ],
      "stateMutability": "view",
      "type": "function"
    },
    {
      "inputs": [],
      "name": "voteManager",
      "outputs": [
        {
          "internalType": "contract IVoteManager",
          "name": "",
          "type": "address"
        }
      ],
      "stateMutability": "view",
      "type": "function"
    }
  ],
  "bytecode": "0x60806040523480156200001157600080fd5b506200001f60003362000025565b620000ec565b62000031828262000035565b5050565b620000418282620000bf565b62000031576000828152602081815260408083206001600160a01b03851684529091529020805460ff191660011790556200007b620000e8565b6001600160a01b0316816001600160a01b0316837f2f8788117e7eff1d82e926ec794901d17c78024a50270940304540a733656f0d60405160405180910390a45050565b6000918252602082815260408084206001600160a01b0393909316845291905290205460ff1690565b3390565b613e6380620000fc6000396000f3fe608060405234801561001057600080fd5b50600436106101c45760003560e01c80635ce8772f116100f9578063a27ce1ef11610097578063d547741f11610071578063d547741f146103cd578063e38c7c42146103e0578063f25b3f99146103f3578063fae4425d14610406576101c4565b8063a27ce1ef14610384578063d1a4a43d146103a7578063d2a4669a146103ba576101c4565b806391d14854116100d357806391d148541461033e57806392b48411146103515780639b87f64414610374578063a217fddf1461037c576101c4565b80635ce8772f146102fe5780637542ff9514610311578063828496d614610319576101c4565b80632f2ff15d116101665780633cd32fd4116101405780633cd32fd4146102c85780633df395a3146102db57806342c1e587146102e35780634e6753b7146102eb576101c4565b80632f2ff15d1461028257806336568abe14610295578063378ab9a9146102a8576101c4565b806317d99c04116101a257806317d99c04146102275780631d69ff9b1461023a578063248a9ca31461024d5780632e716fb11461026d576101c4565b806301ffc9a7146101c957806304c07569146101f257806306552ff314610212575b600080fd5b6101dc6101d73660046133af565b610419565b6040516101e9919061373d565b60405180910390f35b610205610200366004613350565b610477565b6040516101e99190613b2e565b6102256102203660046132f5565b610627565b005b610225610235366004613485565b61068f565b6101dc6102483660046135b9565b610b63565b61026061025b366004613350565b610ec8565b6040516101e99190613748565b610275610edd565b6040516101e99190613716565b610225610290366004613380565b610eec565b6102256102a3366004613380565b610f2a565b6102bb6102b6366004613350565b610f6c565b6040516101e9919061372a565b6102256102d636600461354a565b610fd1565b610275611540565b61027561154f565b6102256102f936600461356b565b61155e565b61022561030c366004613350565b611c5f565b610275611e8f565b61032c610327366004613380565b611e9e565b6040516101e996959493929190613ce6565b6101dc61034c366004613380565b611edc565b61036461035f36600461354a565b611f05565b6040516101e99493929190613cc9565b610225611f4e565b61026061263b565b61039761039236600461354a565b612640565b6040516101e99493929190613b41565b6102bb6103b536600461354a565b612848565b6102bb6103c8366004613350565b6128e2565b6102256103db366004613380565b612945565b6102606103ee366004613350565b61296d565b610364610401366004613350565b61297f565b6102bb610414366004613350565b6129a9565b60007fffffffff0000000000000000000000000000000000000000000000000000000082167f7965db0b00000000000000000000000000000000000000000000000000000000148061046f575061046f82612a0c565b90505b919050565b61047f613151565b60008281526003602090815260409182902082516101008101845281548152600182018054855181860281018601909652808652919492938581019392908301828280156104ec57602002820191906000526020600020905b8154815260200190600101908083116104d8575b505050505081526020016002820180548060200260200160405190810160405280929190818152602001828054801561054457602002820191906000526020600020905b815481526020019060010190808311610530575b505050505081526020016003820180548060200260200160405190810160405280929190818152602001828054801561059c57602002820191906000526020600020905b815481526020019060010190808311610588575b50505050508152602001600482018054806020026020016040519081016040528092919081815260200182805480156105f457602002820191906000526020600020905b8154815260200190600101908083116105e0575b5050509183525050600582015460208201526006820154604082015260079091015460ff16151560609091015292915050565b600480546001600160a01b039586167fffffffffffffffffffffffff0000000000000000000000000000000000000000918216179091556005805494861694821694909417909355600680549285169284169290921790915560078054919093169116179055565b60055460408051630eaf323560e31b8152905189926001600160a01b03169163757991a8916004808301926020929190829003018186803b1580156106d357600080fd5b505afa1580156106e7573d6000803e3d6000fd5b505050506040513d601f19601f8201168201806040525081019061070b9190613368565b81146107325760405162461bcd60e51b8152600401610729906138cd565b60405180910390fd5b73__$cb76aa8097a3c0beaf107a478aa049bae7$__63c198f8ba6040518163ffffffff1660e01b815260040160206040518083038186803b15801561077657600080fd5b505af415801561078a573d6000803e3d6000fd5b505050506040513d601f19601f820116820180604052508101906107ae91906135e4565b60ff16600560009054906101000a90046001600160a01b03166001600160a01b0316631865c57d6040518163ffffffff1660e01b815260040160206040518083038186803b1580156107ff57600080fd5b505afa158015610813573d6000803e3d6000fd5b505050506040513d601f19601f820116820180604052508101906108379190613368565b81146108555760405162461bcd60e51b815260040161072990613a9a565b600480546040517f6022a4850000000000000000000000000000000000000000000000000000000081526000926001600160a01b0390921691636022a485916108a091339101613716565b60206040518083038186803b1580156108b857600080fd5b505afa1580156108cc573d6000803e3d6000fd5b505050506040513d601f19601f820116820180604052508101906108f09190613368565b90506108fd858583610b63565b6109195760405162461bcd60e51b815260040161072990613839565b73__$cb76aa8097a3c0beaf107a478aa049bae7$__63375b3c0a6040518163ffffffff1660e01b815260040160206040518083038186803b15801561095d57600080fd5b505af4158015610971573d6000803e3d6000fd5b505050506040513d601f19601f820116820180604052508101906109959190613368565b600480546040516371e4cc7f60e11b81526001600160a01b039091169163e3c998fe916109c491869101613748565b6101006040518083038186803b1580156109dd57600080fd5b505afa1580156109f1573d6000803e3d6000fd5b505050506040513d601f19601f82011682018060405250810190610a1591906133ef565b604001511015610a375760405162461bcd60e51b815260040161072990613a06565b610b108a6040518061010001604052808481526020018c81526020018b81526020018a8152602001898152602001888152602001600460009054906101000a90046001600160a01b03166001600160a01b031663e3c998fe896040518263ffffffff1660e01b8152600401610aac9190613748565b6101006040518083038186803b158015610ac557600080fd5b505afa158015610ad9573d6000803e3d6000fd5b505050506040513d601f19601f82011682018060405250810190610afd91906133ef565b6040015181526001602090910152612a56565b7fee036cc96c88163f353feaa4d497e88baaebeb631f40ad9b8a6d51bb6fad40768a828b8b8b8b8b8b42604051610b4f99989796959493929190613bc6565b60405180910390a150505050505050505050565b60008173__$3b76b38140ea5d8f6a5a565441556589de$__635075dbfb600a600460009054906101000a90046001600160a01b03166001600160a01b031663bc788d466040518163ffffffff1660e01b815260040160206040518083038186803b158015610bd057600080fd5b505afa158015610be4573d6000803e3d6000fd5b505050506040513d601f19601f82011682018060405250810190610c089190613368565b88604051602001610c199190613748565b604051602081830303815290604052805190602001206040518463ffffffff1660e01b8152600401610c4d93929190613764565b60206040518083038186803b158015610c6557600080fd5b505af4158015610c79573d6000803e3d6000fd5b505050506040513d601f19601f82011682018060405250810190610c9d9190613368565b610ca8906001613d0e565b14610cb557506000610ec1565b600073__$3b76b38140ea5d8f6a5a565441556589de$__63b07ceab8600a8588604051602001610ce6929190613bb8565b604051602081830303815290604052805190602001206040518363ffffffff1660e01b8152600401610d19929190613751565b60206040518083038186803b158015610d3157600080fd5b505af4158015610d45573d6000803e3d6000fd5b505050506040513d601f19601f82011682018060405250810190610d699190613368565b90506000610d7c64010000000083613dc2565b600480546040516371e4cc7f60e11b81529293506000926001600160a01b039091169163e3c998fe91610db1918a9101613748565b6101006040518083038186803b158015610dca57600080fd5b505afa158015610dde573d6000803e3d6000fd5b505050506040513d601f19601f82011682018060405250810190610e0291906133ef565b6040908101516004805492516371e4cc7f60e11b81529193506001600160a01b039092169163e3c998fe91610e3991899101613748565b6101006040518083038186803b158015610e5257600080fd5b505afa158015610e66573d6000803e3d6000fd5b505050506040513d601f19601f82011682018060405250810190610e8a91906133ef565b60400151610e9d90640100000000613d3a565b610ea78284613d3a565b1115610eb95760009350505050610ec1565b600193505050505b9392505050565b60009081526020819052604090206001015490565b6005546001600160a01b031681565b610f00610ef883610ec8565b61034c613045565b610f1c5760405162461bcd60e51b81526004016107299061377f565b610f268282613049565b5050565b610f32613045565b6001600160a01b0316816001600160a01b031614610f625760405162461bcd60e51b815260040161072990613ad1565b610f2682826130ce565b600081815260036020908152604091829020600201805483518184028101840190945280845260609392830182828015610fc557602002820191906000526020600020905b815481526020019060010190808311610fb1575b50505050509050919050565b60055460408051630eaf323560e31b8152905184926001600160a01b03169163757991a8916004808301926020929190829003018186803b15801561101557600080fd5b505afa158015611029573d6000803e3d6000fd5b505050506040513d601f19601f8201168201806040525081019061104d9190613368565b811461106b5760405162461bcd60e51b8152600401610729906138cd565b73__$cb76aa8097a3c0beaf107a478aa049bae7$__63f240f7c36040518163ffffffff1660e01b815260040160206040518083038186803b1580156110af57600080fd5b505af41580156110c3573d6000803e3d6000fd5b505050506040513d601f19601f820116820180604052508101906110e791906135e4565b60ff16600560009054906101000a90046001600160a01b03166001600160a01b0316631865c57d6040518163ffffffff1660e01b815260040160206040518083038186803b15801561113857600080fd5b505afa15801561114c573d6000803e3d6000fd5b505050506040513d601f19601f820116820180604052508101906111709190613368565b811461118e5760405162461bcd60e51b815260040161072990613a9a565b60008481526001602090815260408083203384529091529081902060050154600654915163a6a145d960e01b815290916001600160a01b03169063a6a145d9906111de9088908590600401613bb8565b60206040518083038186803b1580156111f657600080fd5b505afa15801561120a573d6000803e3d6000fd5b505050506040513d601f19601f8201168201806040525081019061122e9190613368565b6000868152600160209081526040808320338452909152902054146112655760405162461bcd60e51b815260040161072990613a3d565b60008581526001602081815260408084203385528252808420928301546002808501546003909501548b875293529084208054919491899081106112b957634e487b7160e01b600052603260045260246000fd5b9060005260206000209060080201600001549050600084116112ed5760405162461bcd60e51b81526004016107299061393b565b600089815260026020526040902080548591908a90811061131e57634e487b7160e01b600052603260045260246000fd5b9060005260206000209060080201600201868154811061134e57634e487b7160e01b600052603260045260246000fd5b90600052602060002001541415806113d05750600089815260026020526040902080548491908a90811061139257634e487b7160e01b600052603260045260246000fd5b906000526020600020906008020160030186815481106113c257634e487b7160e01b600052603260045260246000fd5b906000526020600020015414155b806114455750600089815260026020526040902080548391908a90811061140757634e487b7160e01b600052603260045260246000fd5b9060005260206000209060080201600401868154811061143757634e487b7160e01b600052603260045260246000fd5b906000526020600020015414155b1561151d57600089815260026020526040812080548a90811061147857634e487b7160e01b600052603260045260246000fd5b60009182526020909120600890910201600701805460ff1916911515919091179055600480546040517f0f91ce190000000000000000000000000000000000000000000000000000000081526001600160a01b0390911691630f91ce19916114e691859133918f9101613b99565b600060405180830381600087803b15801561150057600080fd5b505af1158015611514573d6000803e3d6000fd5b50505050611535565b60405162461bcd60e51b8152600401610729906139a9565b505050505050505050565b6007546001600160a01b031681565b6006546001600160a01b031681565b60055460408051630eaf323560e31b8152905185926001600160a01b03169163757991a8916004808301926020929190829003018186803b1580156115a257600080fd5b505afa1580156115b6573d6000803e3d6000fd5b505050506040513d601f19601f820116820180604052508101906115da9190613368565b81146115f85760405162461bcd60e51b8152600401610729906138cd565b73__$cb76aa8097a3c0beaf107a478aa049bae7$__63f240f7c36040518163ffffffff1660e01b815260040160206040518083038186803b15801561163c57600080fd5b505af4158015611650573d6000803e3d6000fd5b505050506040513d601f19601f8201168201806040525081019061167491906135e4565b60ff16600560009054906101000a90046001600160a01b03166001600160a01b0316631865c57d6040518163ffffffff1660e01b815260040160206040518083038186803b1580156116c557600080fd5b505afa1580156116d9573d6000803e3d6000fd5b505050506040513d601f19601f820116820180604052508101906116fd9190613368565b811461171b5760405162461bcd60e51b815260040161072990613a9a565b60065460405163a6a145d960e01b81526000916002916001600160a01b039091169063a6a145d990611753908a908a90600401613bb8565b60206040518083038186803b15801561176b57600080fd5b505afa15801561177f573d6000803e3d6000fd5b505050506040513d601f19601f820116820180604052508101906117a39190613368565b6117ad9190613d26565b60065460405163a6a145d960e01b81529192506000916004916001600160a01b03169063a6a145d9906117e5908b908b908601613bb8565b60206040518083038186803b1580156117fd57600080fd5b505afa158015611811573d6000803e3d6000fd5b505050506040513d601f19601f820116820180604052508101906118359190613368565b61183f9190613d26565b60065460405163a6a145d960e01b81529192506000916004916001600160a01b03169063a6a145d990611877908c908c908601613bb8565b60206040518083038186803b15801561188f57600080fd5b505afa1580156118a3573d6000803e3d6000fd5b505050506040513d601f19601f820116820180604052508101906118c79190613368565b6118d2906003613d3a565b6118dc9190613d26565b600089815260016020908152604080832033845290915290208054600490910154919250908161192a5760008a81526001602090815260408083203384529091529020600501899055611965565b60008a815260016020908152604080832033845290915290206005015489146119655760405162461bcd60e51b815260040161072990613972565b60005b8851811015611c30578189828151811061199257634e487b7160e01b600052603260045260246000fd5b6020026020010151116119b75760405162461bcd60e51b8152600401610729906137dc565b8881815181106119d757634e487b7160e01b600052603260045260246000fd5b60200260200101519150600660009054906101000a90046001600160a01b03166001600160a01b0316639c66556f8c8c8c8581518110611a2757634e487b7160e01b600052603260045260246000fd5b60200260200101516040518463ffffffff1660e01b8152600401611a4d93929190613cb3565b60206040518083038186803b158015611a6557600080fd5b505afa158015611a79573d6000803e3d6000fd5b505050506040513d601f19601f82011682018060405250810190611a9d9190613368565b611aa79084613d0e565b60008c8152600160209081526040808320338452909152902060020154909350158015611ad45750848310155b15611b2257888181518110611af957634e487b7160e01b600052603260045260246000fd5b60209081029190910181015160008d815260018352604080822033835290935291909120600201555b60008b81526001602081815260408084203385529091529091200154158015611b4a57508583115b15611b9857888181518110611b6f57634e487b7160e01b600052603260045260246000fd5b60209081029190910181015160008d815260018084526040808320338452909452929020909101555b60008b8152600160209081526040808320338452909152902060030154158015611bc157508383115b15611c0f57888181518110611be657634e487b7160e01b600052603260045260246000fd5b60209081029190910181015160008d815260018352604080822033835290935291909120600301555b6127105a1015611c1e57611c30565b80611c2881613d87565b915050611968565b506000998a52600160209081526040808c20338d52909152909920600481019990995590975550505050505050565b60055460408051630eaf323560e31b8152905183926001600160a01b03169163757991a8916004808301926020929190829003018186803b158015611ca357600080fd5b505afa158015611cb7573d6000803e3d6000fd5b505050506040513d601f19601f82011682018060405250810190611cdb9190613368565b8114611cf95760405162461bcd60e51b8152600401610729906138cd565b73__$cb76aa8097a3c0beaf107a478aa049bae7$__63f240f7c36040518163ffffffff1660e01b815260040160206040518083038186803b158015611d3d57600080fd5b505af4158015611d51573d6000803e3d6000fd5b505050506040513d601f19601f82011682018060405250810190611d7591906135e4565b60ff16600560009054906101000a90046001600160a01b03166001600160a01b0316631865c57d6040518163ffffffff1660e01b815260040160206040518083038186803b158015611dc657600080fd5b505afa158015611dda573d6000803e3d6000fd5b505050506040513d601f19601f82011682018060405250810190611dfe9190613368565b8114611e1c5760405162461bcd60e51b815260040161072990613a9a565b50506040805160c08101825260008082526020808301828152838501838152606085018481526080860185815260a0870186815298865260018086528887203388529095529690942094518555905191840191909155516002830155516003820155905160048201559051600590910155565b6004546001600160a01b031681565b600160208181526000938452604080852090915291835291208054918101546002820154600383015460048401546005909401549293919290919086565b6000918252602082815260408084206001600160a01b0393909316845291905290205460ff1690565b60026020528160005260406000208181548110611f2157600080fd5b60009182526020909120600890910201805460058201546006830154600790930154919450925060ff1684565b73__$cb76aa8097a3c0beaf107a478aa049bae7$__63d98b3ced6040518163ffffffff1660e01b815260040160206040518083038186803b158015611f9257600080fd5b505af4158015611fa6573d6000803e3d6000fd5b505050506040513d601f19601f82011682018060405250810190611fca9190613368565b611fd48133611edc565b611ff05760405162461bcd60e51b815260040161072990613904565b60055460408051630eaf323560e31b815290516000926001600160a01b03169163757991a8916004808301926020929190829003018186803b15801561203557600080fd5b505afa158015612049573d6000803e3d6000fd5b505050506040513d601f19601f8201168201806040525081019061206d9190613368565b905060005b60026000612081600185613d59565b815260208101919091526040016000205460ff8216101561263557600260006120ab600185613d59565b81526020019081526020016000208160ff16815481106120db57634e487b7160e01b600052603260045260246000fd5b600091825260209091206007600890920201015460ff16156126235760026000612106600185613d59565b81526020019081526020016000208160ff168154811061213657634e487b7160e01b600052603260045260246000fd5b9060005260206000209060080201600360006001856121559190613d59565b81526020810191909152604001600020815481556001808301805461217d9284019190613198565b50600282810180546121929284019190613198565b50600382810180546121a79284019190613198565b50600482810180546121bc9284019190613198565b5060058281015490820155600680830154908201556007918201549101805460ff191660ff909216151591909117905560006002816121fc600186613d59565b81526020019081526020016000208260ff168154811061222c57634e487b7160e01b600052603260045260246000fd5b600091825260209091206008909102015490507f5ef264ae9101b91bd7117350c5e85901297fa0569e7a3e07eb7ec0a6281529f061226b600185613d59565b826002600061227b600189613d59565b81526020019081526020016000208560ff16815481106122ab57634e487b7160e01b600052603260045260246000fd5b9060005260206000209060080201600201600260006001896122cd9190613d59565b81526020019081526020016000208660ff16815481106122fd57634e487b7160e01b600052603260045260246000fd5b90600052602060002090600802016003016002600060018a61231f9190613d59565b81526020019081526020016000208760ff168154811061234f57634e487b7160e01b600052603260045260246000fd5b90600052602060002090600802016004016002600060018b6123719190613d59565b81526020019081526020016000208860ff16815481106123a157634e487b7160e01b600052603260045260246000fd5b9060005260206000209060080201600101426040516123c69796959493929190613c45565b60405180910390a160005b600260006123e0600187613d59565b81526020019081526020016000208360ff168154811061241057634e487b7160e01b600052603260045260246000fd5b9060005260206000209060080201600101805490508160ff16101561259e576007546001600160a01b03166356350bdf6002600061244f600189613d59565b81526020019081526020016000208560ff168154811061247f57634e487b7160e01b600052603260045260246000fd5b90600052602060002090600802016001018360ff16815481106124b257634e487b7160e01b600052603260045260246000fd5b9060005260206000200154600260006001896124ce9190613d59565b81526020019081526020016000208660ff16815481106124fe57634e487b7160e01b600052603260045260246000fd5b90600052602060002090600802016002018460ff168154811061253157634e487b7160e01b600052603260045260246000fd5b90600052602060002001546040518363ffffffff1660e01b8152600401612559929190613bb8565b600060405180830381600087803b15801561257357600080fd5b505af1158015612587573d6000803e3d6000fd5b50505050808061259690613da2565b9150506123d1565b50600480546040517f746c8b650000000000000000000000000000000000000000000000000000000081526001600160a01b039091169163746c8b65916125e9918591889101613bb8565b600060405180830381600087803b15801561260357600080fd5b505af1158015612617573d6000803e3d6000fd5b50505050505050612638565b8061262d81613da2565b915050612072565b50505b50565b600081565b612648613151565b606080606060026000878152602001908152602001600020858154811061267f57634e487b7160e01b600052603260045260246000fd5b90600052602060002090600802016040518061010001604052908160008201548152602001600182018054806020026020016040519081016040528092919081815260200182805480156126f257602002820191906000526020600020905b8154815260200190600101908083116126de575b505050505081526020016002820180548060200260200160405190810160405280929190818152602001828054801561274a57602002820191906000526020600020905b815481526020019060010190808311612736575b50505050508152602001600382018054806020026020016040519081016040528092919081815260200182805480156127a257602002820191906000526020600020905b81548152602001906001019080831161278e575b50505050508152602001600482018054806020026020016040519081016040528092919081815260200182805480156127fa57602002820191906000526020600020905b8154815260200190600101908083116127e6575b505050918352505060058201546020820152600682015460408083019190915260079092015460ff161515606091820152908201519082015160808301519299919850965090945092505050565b60008281526002602052604090208054606091908390811061287a57634e487b7160e01b600052603260045260246000fd5b90600052602060002090600802016002018054806020026020016040519081016040528092919081815260200182805480156128d557602002820191906000526020600020905b8154815260200190600101908083116128c1575b5050505050905092915050565b600081815260036020818152604092839020909101805483518184028101840190945280845260609392830182828015610fc55760200282019190600052602060002090815481526020019060010190808311610fb15750505050509050919050565b612951610ef883610ec8565b610f625760405162461bcd60e51b815260040161072990613870565b60009081526002602052604090205490565b60036020526000908152604090208054600582015460068301546007909301549192909160ff1684565b600081815260036020908152604091829020600401805483518184028101840190945280845260609392830182828015610fc55760200282019190600052602060002090815481526020019060010190808311610fb15750505050509050919050565b7fffffffff0000000000000000000000000000000000000000000000000000000081167f01ffc9a70000000000000000000000000000000000000000000000000000000014919050565b600082815260026020526040902054612b335760008281526002602090815260408220805460018181018355918452928290208451600890940201928355838201518051859493612aab9385019201906131e8565b5060408201518051612ac79160028401916020909101906131e8565b5060608201518051612ae39160038401916020909101906131e8565b5060808201518051612aff9160048401916020909101906131e8565b5060a0820151600582015560c0820151600682015560e0909101516007909101805460ff1916911515919091179055610f26565b600082815260026020526040812054905b600084815260026020526040902054811015612c125760c08301516000858152600260205260409020805483908110612b8d57634e487b7160e01b600052603260045260246000fd5b9060005260206000209060080201600601541015612bad57809150612c12565b60a08301516000858152600260205260409020805483908110612be057634e487b7160e01b600052603260045260246000fd5b9060005260206000209060080201600501541115612c0057809150612c12565b80612c0a81613d87565b915050612b44565b5060008381526002602090815260408220805460018181018355918452928290208551600890940201928355848201518051869493612c559385019201906131e8565b5060408201518051612c719160028401916020909101906131e8565b5060608201518051612c8d9160038401916020909101906131e8565b5060808201518051612ca99160048401916020909101906131e8565b5060a0820151600582015560c0820151600682015560e0909101516007909101805460ff1916911515919091179055600083815260026020526040812054612cf390600190613d59565b90505b81811115612e1f576000848152600260205260409020612d17600183613d59565b81548110612d3557634e487b7160e01b600052603260045260246000fd5b9060005260206000209060080201600260008681526020019081526020016000208281548110612d7557634e487b7160e01b600052603260045260246000fd5b60009182526020909120825460089092020190815560018083018054612d9e9284019190613198565b5060028281018054612db39284019190613198565b5060038281018054612dc89284019190613198565b5060048281018054612ddd9284019190613198565b5060058281015490820155600680830154908201556007918201549101805460ff191660ff909216151591909117905580612e1781613d70565b915050612cf6565b506000838152600260205260409020805483919083908110612e5157634e487b7160e01b600052603260045260246000fd5b9060005260206000209060080201600082015181600001556020820151816001019080519060200190612e859291906131e8565b5060408201518051612ea19160028401916020909101906131e8565b5060608201518051612ebd9160038401916020909101906131e8565b5060808201518051612ed99160048401916020909101906131e8565b5060a0820151816005015560c0820151816006015560e08201518160070160006101000a81548160ff02191690831515021790555090505073__$cb76aa8097a3c0beaf107a478aa049bae7$__63379597e06040518163ffffffff1660e01b815260040160206040518083038186803b158015612f5557600080fd5b505af4158015612f69573d6000803e3d6000fd5b505050506040513d601f19601f82011682018060405250810190612f8d9190613368565b60008481526002602052604090205411156126355760008381526002602052604090208054612fbe90600190613d59565b81548110612fdc57634e487b7160e01b600052603260045260246000fd5b60009182526020822060089091020181815590612ffc6001830182613223565b61300a600283016000613223565b613018600383016000613223565b613026600483016000613223565b506000600582018190556006820155600701805460ff19169055505050565b3390565b6130538282611edc565b610f26576000828152602081815260408083206001600160a01b03851684529091529020805460ff1916600117905561308a613045565b6001600160a01b0316816001600160a01b0316837f2f8788117e7eff1d82e926ec794901d17c78024a50270940304540a733656f0d60405160405180910390a45050565b6130d88282611edc565b15610f26576000828152602081815260408083206001600160a01b03851684529091529020805460ff1916905561310d613045565b6001600160a01b0316816001600160a01b0316837ff6391f5c32d9c69d2a47ea670b442974b53935d1edc7fd64eb21e047a839171b60405160405180910390a45050565b604051806101000160405280600081526020016060815260200160608152602001606081526020016060815260200160008152602001600081526020016000151581525090565b8280548282559060005260206000209081019282156131d85760005260206000209182015b828111156131d85782548255916001019190600101906131bd565b506131e492915061323d565b5090565b8280548282559060005260206000209081019282156131d8579160200282015b828111156131d8578251825591602001919060010190613208565b508054600082559060005260206000209081019061263891905b5b808211156131e4576000815560010161323e565b805161047281613e18565b600082601f83011261326d578081fd5b8135602067ffffffffffffffff8083111561328a5761328a613e02565b818302604051838282010181811084821117156132a9576132a9613e02565b604052848152838101925086840182880185018910156132c7578687fd5b8692505b858310156132e95780358452928401926001929092019184016132cb565b50979650505050505050565b6000806000806080858703121561330a578384fd5b843561331581613e18565b9350602085013561332581613e18565b9250604085013561333581613e18565b9150606085013561334581613e18565b939692955090935050565b600060208284031215613361578081fd5b5035919050565b600060208284031215613379578081fd5b5051919050565b60008060408385031215613392578182fd5b8235915060208301356133a481613e18565b809150509250929050565b6000602082840312156133c0578081fd5b81357fffffffff0000000000000000000000000000000000000000000000000000000081168114610ec1578182fd5b6000610100808385031215613402578182fd5b6040519081019067ffffffffffffffff8211818310171561342557613425613e02565b816040528351815261343960208501613252565b602082015260408401516040820152606084015160608201526080840151608082015260a084015160a082015260c084015160c082015260e084015160e0820152809250505092915050565b600080600080600080600060e0888a03121561349f578283fd5b87359650602088013567ffffffffffffffff808211156134bd578485fd5b6134c98b838c0161325d565b975060408a01359150808211156134de578485fd5b6134ea8b838c0161325d565b965060608a01359150808211156134ff578485fd5b61350b8b838c0161325d565b955060808a0135915080821115613520578485fd5b5061352d8a828b0161325d565b93505060a0880135915060c0880135905092959891949750929550565b6000806040838503121561355c578182fd5b50508035926020909101359150565b60008060006060848603121561357f578081fd5b8335925060208401359150604084013567ffffffffffffffff8111156135a3578182fd5b6135af8682870161325d565b9150509250925092565b6000806000606084860312156135cd578081fd5b505081359360208301359350604090920135919050565b6000602082840312156135f5578081fd5b815160ff81168114610ec1578182fd5b6000815180845260208085019450808401835b8381101561363457815187529582019590820190600101613618565b509495945050505050565b6000815480845260208085019450838352808320835b8381101561363457815487529582019560019182019101613655565b15159052565b600061010082518452602083015181602086015261369782860182613605565b915050604083015184820360408601526136b18282613605565b915050606083015184820360608601526136cb8282613605565b915050608083015184820360808601526136e58282613605565b91505060a083015160a085015260c083015160c085015260e083015161370e60e0860182613671565b509392505050565b6001600160a01b0391909116815260200190565b600060208252610ec16020830184613605565b901515815260200190565b90815260200190565b60ff929092168252602082015260400190565b60ff9390931683526020830191909152604082015260600190565b6020808252602f908201527f416363657373436f6e74726f6c3a2073656e646572206d75737420626520616e60408201527f2061646d696e20746f206772616e740000000000000000000000000000000000606082015260800190565b60208082526029908201527f736f727465645b695d206973206e6f742067726561746572207468616e206c6160408201527f7374566973697465640000000000000000000000000000000000000000000000606082015260800190565b6020808252600b908201527f6e6f7420656c6563746564000000000000000000000000000000000000000000604082015260600190565b60208082526030908201527f416363657373436f6e74726f6c3a2073656e646572206d75737420626520616e60408201527f2061646d696e20746f207265766f6b6500000000000000000000000000000000606082015260800190565b6020808252600f908201527f696e636f72726563742065706f63680000000000000000000000000000000000604082015260600190565b6020808252601a908201527f41434c3a2073656e646572206e6f7420617574686f72697a6564000000000000604082015260600190565b60208082526014908201527f4d656469616e2063616e2774206265207a65726f000000000000000000000000604082015260600190565b60208082526014908201527f41737365744964206e6f74206d61746368696e67000000000000000000000000604082015260600190565b60208082526037908201527f50726f706f73656420416c7465726e61746520626c6f636b206973206964656e60408201527f746963616c20746f2070726f706f73656420626c6f636b000000000000000000606082015260800190565b60208082526019908201527f7374616b652062656c6f77206d696e696d756d207374616b6500000000000000604082015260600190565b60208082526021908201527f546f74616c207374616b652072657665616c656420646f65736e74206d61746360408201527f6800000000000000000000000000000000000000000000000000000000000000606082015260800190565b6020808252600f908201527f696e636f72726563742073746174650000000000000000000000000000000000604082015260600190565b6020808252602f908201527f416363657373436f6e74726f6c3a2063616e206f6e6c792072656e6f756e636560408201527f20726f6c657320666f722073656c660000000000000000000000000000000000606082015260800190565b600060208252610ec16020830184613677565b600060808252613b546080830187613677565b8281036020840152613b668187613605565b90508281036040840152613b7a8186613605565b90508281036060840152613b8e8185613605565b979650505050505050565b9283526001600160a01b03919091166020830152604082015260600190565b918252602082015260400190565b60006101208b83528a6020840152806040840152613be68184018b613605565b90508281036060840152613bfa818a613605565b90508281036080840152613c0e8189613605565b905082810360a0840152613c228188613605565b60c0840196909652505060e0810192909252610100909101529695505050505050565b600088825287602083015260e06040830152613c6460e083018861363f565b8281036060840152613c76818861363f565b90508281036080840152613c8a818761363f565b905082810360a0840152613c9e818661363f565b9150508260c083015298975050505050505050565b9283526020830191909152604082015260600190565b938452602084019290925260408301521515606082015260800190565b958652602086019490945260408501929092526060840152608083015260a082015260c00190565b60008219821115613d2157613d21613dd6565b500190565b600082613d3557613d35613dec565b500490565b6000816000190483118215151615613d5457613d54613dd6565b500290565b600082821015613d6b57613d6b613dd6565b500390565b600081613d7f57613d7f613dd6565b506000190190565b6000600019821415613d9b57613d9b613dd6565b5060010190565b600060ff821660ff811415613db957613db9613dd6565b60010192915050565b600082613dd157613dd1613dec565b500690565b634e487b7160e01b600052601160045260246000fd5b634e487b7160e01b600052601260045260246000fd5b634e487b7160e01b600052604160045260246000fd5b6001600160a01b038116811461263857600080fdfea2646970667358221220e91e23bd1379a0e480dc3dea072e45dd8b056c215e85337523323db38cc253bb64736f6c63430008000033",
  "linkReferences": {
    "contracts/lib/Constants.sol": {
      "Constants": [
        {
          "length": 20,
          "start": 2096
        },
        {
          "length": 20,
          "start": 2583
        },
        {
          "length": 20,
          "start": 4457
        },
        {
          "length": 20,
          "start": 5878
        },
        {
          "length": 20,
          "start": 7671
        },
        {
          "length": 20,
          "start": 8268
        },
        {
          "length": 20,
          "start": 12303
        }
      ]
    },
    "contracts/lib/Random.sol": {
      "Random": [
        {
          "length": 20,
          "start": 3172
        },
        {
          "length": 20,
          "start": 3509
        }
      ]
    }
  },
  "deployedLinkReferences": {
    "contracts/lib/Constants.sol": {
      "Constants": [
        {
          "length": 20,
          "start": 1844
        },
        {
          "length": 20,
          "start": 2331
        },
        {
          "length": 20,
          "start": 4205
        },
        {
          "length": 20,
          "start": 5626
        },
        {
          "length": 20,
          "start": 7419
        },
        {
          "length": 20,
          "start": 8016
        },
        {
          "length": 20,
          "start": 12051
        }
      ]
    },
    "contracts/lib/Random.sol": {
      "Random": [
        {
          "length": 20,
          "start": 2920
        },
        {
          "length": 20,
          "start": 3257
        }
      ]
    }
  }
}