{
  "_format": "hh-sol-artifact-1",
  "contractName": "BlockManager",
  "sourceName": "contracts/Core/BlockManager.sol",
  "abi": [
    {
      "anonymous": false,
      "inputs": [
        {
          "indexed": false,
          "internalType": "uint256",
          "name": "epoch",
          "type": "uint256"
        },
        {
          "indexed": false,
          "internalType": "uint256",
          "name": "stakerId",
          "type": "uint256"
        },
        {
          "indexed": false,
          "internalType": "uint256[]",
          "name": "medians",
          "type": "uint256[]"
        },
        {
          "indexed": false,
          "internalType": "uint256[]",
          "name": "lowerCutoffs",
          "type": "uint256[]"
        },
        {
          "indexed": false,
          "internalType": "uint256[]",
          "name": "higherCutoffs",
          "type": "uint256[]"
        },
        {
          "indexed": false,
          "internalType": "uint256[]",
          "name": "jobIds",
          "type": "uint256[]"
        },
        {
          "indexed": false,
          "internalType": "uint256",
          "name": "timestamp",
          "type": "uint256"
        }
      ],
      "name": "BlockConfirmed",
      "type": "event"
    },
    {
      "anonymous": false,
      "inputs": [
        {
          "indexed": false,
          "internalType": "uint256",
          "name": "a",
          "type": "uint256"
        }
      ],
      "name": "DebugUint256",
      "type": "event"
    },
    {
      "anonymous": false,
      "inputs": [
        {
          "indexed": false,
          "internalType": "uint256",
          "name": "epoch",
          "type": "uint256"
        },
        {
          "indexed": false,
          "internalType": "uint256",
          "name": "stakerId",
          "type": "uint256"
        },
        {
          "indexed": false,
          "internalType": "uint256[]",
          "name": "jobIds",
          "type": "uint256[]"
        },
        {
          "indexed": false,
          "internalType": "uint256[]",
          "name": "medians",
          "type": "uint256[]"
        },
        {
          "indexed": false,
          "internalType": "uint256[]",
          "name": "lowerCutoffs",
          "type": "uint256[]"
        },
        {
          "indexed": false,
          "internalType": "uint256[]",
          "name": "higherCutoffs",
          "type": "uint256[]"
        },
        {
          "indexed": false,
          "internalType": "uint256",
          "name": "iteration",
          "type": "uint256"
        },
        {
          "indexed": false,
          "internalType": "uint256",
          "name": "biggestStakerId",
          "type": "uint256"
        },
        {
          "indexed": false,
          "internalType": "uint256",
          "name": "timestamp",
          "type": "uint256"
        }
      ],
      "name": "Proposed",
      "type": "event"
    },
    {
      "anonymous": false,
      "inputs": [
        {
          "indexed": true,
          "internalType": "bytes32",
          "name": "role",
          "type": "bytes32"
        },
        {
          "indexed": true,
          "internalType": "bytes32",
          "name": "previousAdminRole",
          "type": "bytes32"
        },
        {
          "indexed": true,
          "internalType": "bytes32",
          "name": "newAdminRole",
          "type": "bytes32"
        }
      ],
      "name": "RoleAdminChanged",
      "type": "event"
    },
    {
      "anonymous": false,
      "inputs": [
        {
          "indexed": true,
          "internalType": "bytes32",
          "name": "role",
          "type": "bytes32"
        },
        {
          "indexed": true,
          "internalType": "address",
          "name": "account",
          "type": "address"
        },
        {
          "indexed": true,
          "internalType": "address",
          "name": "sender",
          "type": "address"
        }
      ],
      "name": "RoleGranted",
      "type": "event"
    },
    {
      "anonymous": false,
      "inputs": [
        {
          "indexed": true,
          "internalType": "bytes32",
          "name": "role",
          "type": "bytes32"
        },
        {
          "indexed": true,
          "internalType": "address",
          "name": "account",
          "type": "address"
        },
        {
          "indexed": true,
          "internalType": "address",
          "name": "sender",
          "type": "address"
        }
      ],
      "name": "RoleRevoked",
      "type": "event"
    },
    {
      "inputs": [],
      "name": "DEFAULT_ADMIN_ROLE",
      "outputs": [
        {
          "internalType": "bytes32",
          "name": "",
          "type": "bytes32"
        }
      ],
      "stateMutability": "view",
      "type": "function"
    },
    {
      "inputs": [
        {
          "internalType": "uint256",
          "name": "",
          "type": "uint256"
        }
      ],
      "name": "blocks",
      "outputs": [
        {
          "internalType": "uint256",
          "name": "proposerId",
          "type": "uint256"
        },
        {
          "internalType": "uint256",
          "name": "iteration",
          "type": "uint256"
        },
        {
          "internalType": "uint256",
          "name": "biggestStake",
          "type": "uint256"
        },
        {
          "internalType": "bool",
          "name": "valid",
          "type": "bool"
        }
      ],
      "stateMutability": "view",
      "type": "function"
    },
    {
      "inputs": [],
      "name": "confirmBlock",
      "outputs": [],
      "stateMutability": "nonpayable",
      "type": "function"
    },
    {
      "inputs": [
        {
          "internalType": "uint256",
          "name": "",
          "type": "uint256"
        },
        {
          "internalType": "address",
          "name": "",
          "type": "address"
        }
      ],
      "name": "disputes",
      "outputs": [
        {
          "internalType": "uint256",
          "name": "accWeight",
          "type": "uint256"
        },
        {
          "internalType": "uint256",
          "name": "median",
          "type": "uint256"
        },
        {
          "internalType": "uint256",
          "name": "lowerCutoff",
          "type": "uint256"
        },
        {
          "internalType": "uint256",
          "name": "higherCutoff",
          "type": "uint256"
        },
        {
          "internalType": "uint256",
          "name": "lastVisited",
          "type": "uint256"
        },
        {
          "internalType": "uint256",
          "name": "assetId",
          "type": "uint256"
        }
      ],
      "stateMutability": "view",
      "type": "function"
    },
    {
      "inputs": [
        {
          "internalType": "uint256",
          "name": "epoch",
          "type": "uint256"
        },
        {
          "internalType": "uint256",
          "name": "blockId",
          "type": "uint256"
        }
      ],
      "name": "finalizeDispute",
      "outputs": [],
      "stateMutability": "nonpayable",
      "type": "function"
    },
    {
      "inputs": [
        {
          "internalType": "uint256",
          "name": "epoch",
          "type": "uint256"
        }
      ],
      "name": "getBlock",
      "outputs": [
        {
          "components": [
            {
              "internalType": "uint256",
              "name": "proposerId",
              "type": "uint256"
            },
            {
              "internalType": "uint256[]",
              "name": "jobIds",
              "type": "uint256[]"
            },
            {
              "internalType": "uint256[]",
              "name": "medians",
              "type": "uint256[]"
            },
            {
              "internalType": "uint256[]",
              "name": "lowerCutoffs",
              "type": "uint256[]"
            },
            {
              "internalType": "uint256[]",
              "name": "higherCutoffs",
              "type": "uint256[]"
            },
            {
              "internalType": "uint256",
              "name": "iteration",
              "type": "uint256"
            },
            {
              "internalType": "uint256",
              "name": "biggestStake",
              "type": "uint256"
            },
            {
              "internalType": "bool",
              "name": "valid",
              "type": "bool"
            }
          ],
          "internalType": "struct Structs.Block",
          "name": "_block",
          "type": "tuple"
        }
      ],
      "stateMutability": "view",
      "type": "function"
    },
    {
      "inputs": [
        {
          "internalType": "uint256",
          "name": "epoch",
          "type": "uint256"
        }
      ],
      "name": "getBlockMedians",
      "outputs": [
        {
          "internalType": "uint256[]",
          "name": "_blockMedians",
          "type": "uint256[]"
        }
      ],
      "stateMutability": "view",
      "type": "function"
    },
    {
      "inputs": [
        {
          "internalType": "uint256",
          "name": "epoch",
          "type": "uint256"
        }
      ],
      "name": "getHigherCutoffs",
      "outputs": [
        {
          "internalType": "uint256[]",
          "name": "_higherCutoffs",
          "type": "uint256[]"
        }
      ],
      "stateMutability": "view",
      "type": "function"
    },
    {
      "inputs": [
        {
          "internalType": "uint256",
          "name": "epoch",
          "type": "uint256"
        }
      ],
      "name": "getLowerCutoffs",
      "outputs": [
        {
          "internalType": "uint256[]",
          "name": "_lowerCutoffs",
          "type": "uint256[]"
        }
      ],
      "stateMutability": "view",
      "type": "function"
    },
    {
      "inputs": [
        {
          "internalType": "uint256",
          "name": "epoch",
          "type": "uint256"
        }
      ],
      "name": "getNumProposedBlocks",
      "outputs": [
        {
          "internalType": "uint256",
          "name": "",
          "type": "uint256"
        }
      ],
      "stateMutability": "view",
      "type": "function"
    },
    {
      "inputs": [
        {
          "internalType": "uint256",
          "name": "epoch",
          "type": "uint256"
        },
        {
          "internalType": "uint256",
          "name": "proposedBlock",
          "type": "uint256"
        }
      ],
      "name": "getProposedBlock",
      "outputs": [
        {
          "components": [
            {
              "internalType": "uint256",
              "name": "proposerId",
              "type": "uint256"
            },
            {
              "internalType": "uint256[]",
              "name": "jobIds",
              "type": "uint256[]"
            },
            {
              "internalType": "uint256[]",
              "name": "medians",
              "type": "uint256[]"
            },
            {
              "internalType": "uint256[]",
              "name": "lowerCutoffs",
              "type": "uint256[]"
            },
            {
              "internalType": "uint256[]",
              "name": "higherCutoffs",
              "type": "uint256[]"
            },
            {
              "internalType": "uint256",
              "name": "iteration",
              "type": "uint256"
            },
            {
              "internalType": "uint256",
              "name": "biggestStake",
              "type": "uint256"
            },
            {
              "internalType": "bool",
              "name": "valid",
              "type": "bool"
            }
          ],
          "internalType": "struct Structs.Block",
          "name": "_block",
          "type": "tuple"
        },
        {
          "internalType": "uint256[]",
          "name": "_blockMedians",
          "type": "uint256[]"
        },
        {
          "internalType": "uint256[]",
          "name": "_lowerCutoffs",
          "type": "uint256[]"
        },
        {
          "internalType": "uint256[]",
          "name": "_higherCutoffs",
          "type": "uint256[]"
        }
      ],
      "stateMutability": "view",
      "type": "function"
    },
    {
      "inputs": [
        {
          "internalType": "uint256",
          "name": "epoch",
          "type": "uint256"
        },
        {
          "internalType": "uint256",
          "name": "proposedBlock",
          "type": "uint256"
        }
      ],
      "name": "getProposedBlockMedians",
      "outputs": [
        {
          "internalType": "uint256[]",
          "name": "_blockMedians",
          "type": "uint256[]"
        }
      ],
      "stateMutability": "view",
      "type": "function"
    },
    {
      "inputs": [
        {
          "internalType": "bytes32",
          "name": "role",
          "type": "bytes32"
        }
      ],
      "name": "getRoleAdmin",
      "outputs": [
        {
          "internalType": "bytes32",
          "name": "",
          "type": "bytes32"
        }
      ],
      "stateMutability": "view",
      "type": "function"
    },
    {
      "inputs": [
        {
          "internalType": "uint256",
          "name": "epoch",
          "type": "uint256"
        },
        {
          "internalType": "uint256",
          "name": "assetId",
          "type": "uint256"
        },
        {
          "internalType": "uint256[]",
          "name": "sorted",
          "type": "uint256[]"
        }
      ],
      "name": "giveSorted",
      "outputs": [],
      "stateMutability": "nonpayable",
      "type": "function"
    },
    {
      "inputs": [
        {
          "internalType": "bytes32",
          "name": "role",
          "type": "bytes32"
        },
        {
          "internalType": "address",
          "name": "account",
          "type": "address"
        }
      ],
      "name": "grantRole",
      "outputs": [],
      "stateMutability": "nonpayable",
      "type": "function"
    },
    {
      "inputs": [
        {
          "internalType": "bytes32",
          "name": "role",
          "type": "bytes32"
        },
        {
          "internalType": "address",
          "name": "account",
          "type": "address"
        }
      ],
      "name": "hasRole",
      "outputs": [
        {
          "internalType": "bool",
          "name": "",
          "type": "bool"
        }
      ],
      "stateMutability": "view",
      "type": "function"
    },
    {
      "inputs": [
        {
          "internalType": "address",
          "name": "_stakeManagerAddress",
          "type": "address"
        },
        {
          "internalType": "address",
          "name": "_stateManagerAddress",
          "type": "address"
        },
        {
          "internalType": "address",
          "name": "_voteManagerAddress",
          "type": "address"
        },
        {
          "internalType": "address",
          "name": "_jobManagerAddress",
          "type": "address"
        }
      ],
      "name": "init",
      "outputs": [],
      "stateMutability": "nonpayable",
      "type": "function"
    },
    {
      "inputs": [
        {
          "internalType": "uint256",
          "name": "iteration",
          "type": "uint256"
        },
        {
          "internalType": "uint256",
          "name": "biggestStakerId",
          "type": "uint256"
        },
        {
          "internalType": "uint256",
          "name": "stakerId",
          "type": "uint256"
        }
      ],
      "name": "isElectedProposer",
      "outputs": [
        {
          "internalType": "bool",
          "name": "",
          "type": "bool"
        }
      ],
      "stateMutability": "view",
      "type": "function"
    },
    {
      "inputs": [],
      "name": "jobManager",
      "outputs": [
        {
          "internalType": "contract IJobManager",
          "name": "",
          "type": "address"
        }
      ],
      "stateMutability": "view",
      "type": "function"
    },
    {
      "inputs": [
        {
          "internalType": "uint256",
          "name": "epoch",
          "type": "uint256"
        },
        {
          "internalType": "uint256[]",
          "name": "jobIds",
          "type": "uint256[]"
        },
        {
          "internalType": "uint256[]",
          "name": "medians",
          "type": "uint256[]"
        },
        {
          "internalType": "uint256[]",
          "name": "lowerCutoffs",
          "type": "uint256[]"
        },
        {
          "internalType": "uint256[]",
          "name": "higherCutoffs",
          "type": "uint256[]"
        },
        {
          "internalType": "uint256",
          "name": "iteration",
          "type": "uint256"
        },
        {
          "internalType": "uint256",
          "name": "biggestStakerId",
          "type": "uint256"
        }
      ],
      "name": "propose",
      "outputs": [],
      "stateMutability": "nonpayable",
      "type": "function"
    },
    {
      "inputs": [
        {
          "internalType": "uint256",
          "name": "",
          "type": "uint256"
        },
        {
          "internalType": "uint256",
          "name": "",
          "type": "uint256"
        }
      ],
      "name": "proposedBlocks",
      "outputs": [
        {
          "internalType": "uint256",
          "name": "proposerId",
          "type": "uint256"
        },
        {
          "internalType": "uint256",
          "name": "iteration",
          "type": "uint256"
        },
        {
          "internalType": "uint256",
          "name": "biggestStake",
          "type": "uint256"
        },
        {
          "internalType": "bool",
          "name": "valid",
          "type": "bool"
        }
      ],
      "stateMutability": "view",
      "type": "function"
    },
    {
      "inputs": [
        {
          "internalType": "bytes32",
          "name": "role",
          "type": "bytes32"
        },
        {
          "internalType": "address",
          "name": "account",
          "type": "address"
        }
      ],
      "name": "renounceRole",
      "outputs": [],
      "stateMutability": "nonpayable",
      "type": "function"
    },
    {
      "inputs": [
        {
          "internalType": "uint256",
          "name": "epoch",
          "type": "uint256"
        }
      ],
      "name": "resetDispute",
      "outputs": [],
      "stateMutability": "nonpayable",
      "type": "function"
    },
    {
      "inputs": [
        {
          "internalType": "bytes32",
          "name": "role",
          "type": "bytes32"
        },
        {
          "internalType": "address",
          "name": "account",
          "type": "address"
        }
      ],
      "name": "revokeRole",
      "outputs": [],
      "stateMutability": "nonpayable",
      "type": "function"
    },
    {
      "inputs": [],
      "name": "stakeManager",
      "outputs": [
        {
          "internalType": "contract IStakeManager",
          "name": "",
          "type": "address"
        }
      ],
      "stateMutability": "view",
      "type": "function"
    },
    {
      "inputs": [],
      "name": "stateManager",
      "outputs": [
        {
          "internalType": "contract IStateManager",
          "name": "",
          "type": "address"
        }
      ],
      "stateMutability": "view",
      "type": "function"
    },
    {
      "inputs": [
        {
          "internalType": "bytes4",
          "name": "interfaceId",
          "type": "bytes4"
        }
      ],
      "name": "supportsInterface",
      "outputs": [
        {
          "internalType": "bool",
          "name": "",
          "type": "bool"
        }
      ],
      "stateMutability": "view",
      "type": "function"
    },
    {
      "inputs": [],
      "name": "voteManager",
      "outputs": [
        {
          "internalType": "contract IVoteManager",
          "name": "",
          "type": "address"
        }
      ],
      "stateMutability": "view",
      "type": "function"
    }
  ],
  "bytecode": "0x60806040523480156200001157600080fd5b506200001f60003362000025565b620000ec565b62000031828262000035565b5050565b620000418282620000bf565b62000031576000828152602081815260408083206001600160a01b03851684529091529020805460ff191660011790556200007b620000e8565b6001600160a01b0316816001600160a01b0316837f2f8788117e7eff1d82e926ec794901d17c78024a50270940304540a733656f0d60405160405180910390a45050565b6000918252602082815260408084206001600160a01b0393909316845291905290205460ff1690565b3390565b613e3f80620000fc6000396000f3fe608060405234801561001057600080fd5b50600436106101c45760003560e01c80635ce8772f116100f9578063a27ce1ef11610097578063d547741f11610071578063d547741f146103cd578063e38c7c42146103e0578063f25b3f99146103f3578063fae4425d14610406576101c4565b8063a27ce1ef14610384578063d1a4a43d146103a7578063d2a4669a146103ba576101c4565b806391d14854116100d357806391d148541461033e57806392b48411146103515780639b87f64414610374578063a217fddf1461037c576101c4565b80635ce8772f146102fe5780637542ff9514610311578063828496d614610319576101c4565b80632f2ff15d116101665780633cd32fd4116101405780633cd32fd4146102c85780633df395a3146102db57806342c1e587146102e35780634e6753b7146102eb576101c4565b80632f2ff15d1461028257806336568abe14610295578063378ab9a9146102a8576101c4565b806317d99c04116101a257806317d99c04146102275780631d69ff9b1461023a578063248a9ca31461024d5780632e716fb11461026d576101c4565b806301ffc9a7146101c957806304c07569146101f257806306552ff314610212575b600080fd5b6101dc6101d736600461339c565b610419565b6040516101e9919061372a565b60405180910390f35b61020561020036600461333d565b610477565b6040516101e99190613b0a565b6102256102203660046132e2565b610627565b005b610225610235366004613472565b61068f565b6101dc6102483660046135a6565b610b63565b61026061025b36600461333d565b610ec8565b6040516101e99190613735565b610275610edd565b6040516101e99190613703565b61022561029036600461336d565b610eec565b6102256102a336600461336d565b610f2a565b6102bb6102b636600461333d565b610f6c565b6040516101e99190613717565b6102256102d6366004613537565b610fd1565b61027561152d565b61027561153c565b6102256102f9366004613558565b61154b565b61022561030c36600461333d565b611c4c565b610275611e7c565b61032c61032736600461336d565b611e8b565b6040516101e996959493929190613cc2565b6101dc61034c36600461336d565b611ec9565b61036461035f366004613537565b611ef2565b6040516101e99493929190613ca5565b610225611f3b565b610260612628565b610397610392366004613537565b61262d565b6040516101e99493929190613b1d565b6102bb6103b5366004613537565b612835565b6102bb6103c836600461333d565b6128cf565b6102256103db36600461336d565b612932565b6102606103ee36600461333d565b61295a565b61036461040136600461333d565b61296c565b6102bb61041436600461333d565b612996565b60007fffffffff0000000000000000000000000000000000000000000000000000000082167f7965db0b00000000000000000000000000000000000000000000000000000000148061046f575061046f826129f9565b90505b919050565b61047f61313e565b60008281526003602090815260409182902082516101008101845281548152600182018054855181860281018601909652808652919492938581019392908301828280156104ec57602002820191906000526020600020905b8154815260200190600101908083116104d8575b505050505081526020016002820180548060200260200160405190810160405280929190818152602001828054801561054457602002820191906000526020600020905b815481526020019060010190808311610530575b505050505081526020016003820180548060200260200160405190810160405280929190818152602001828054801561059c57602002820191906000526020600020905b815481526020019060010190808311610588575b50505050508152602001600482018054806020026020016040519081016040528092919081815260200182805480156105f457602002820191906000526020600020905b8154815260200190600101908083116105e0575b5050509183525050600582015460208201526006820154604082015260079091015460ff16151560609091015292915050565b600480546001600160a01b039586167fffffffffffffffffffffffff0000000000000000000000000000000000000000918216179091556005805494861694821694909417909355600680549285169284169290921790915560078054919093169116179055565b60055460408051630eaf323560e31b8152905189926001600160a01b03169163757991a8916004808301926020929190829003018186803b1580156106d357600080fd5b505afa1580156106e7573d6000803e3d6000fd5b505050506040513d601f19601f8201168201806040525081019061070b9190613355565b81146107325760405162461bcd60e51b815260040161072990613917565b60405180910390fd5b73__$cb76aa8097a3c0beaf107a478aa049bae7$__63c198f8ba6040518163ffffffff1660e01b815260040160206040518083038186803b15801561077657600080fd5b505af415801561078a573d6000803e3d6000fd5b505050506040513d601f19601f820116820180604052508101906107ae91906135d1565b60ff16600560009054906101000a90046001600160a01b03166001600160a01b0316631865c57d6040518163ffffffff1660e01b815260040160206040518083038186803b1580156107ff57600080fd5b505afa158015610813573d6000803e3d6000fd5b505050506040513d601f19601f820116820180604052508101906108379190613355565b81146108555760405162461bcd60e51b815260040161072990613a76565b600480546040517f6022a4850000000000000000000000000000000000000000000000000000000081526000926001600160a01b0390921691636022a485916108a091339101613703565b60206040518083038186803b1580156108b857600080fd5b505afa1580156108cc573d6000803e3d6000fd5b505050506040513d601f19601f820116820180604052508101906108f09190613355565b90506108fd858583610b63565b6109195760405162461bcd60e51b815260040161072990613883565b73__$cb76aa8097a3c0beaf107a478aa049bae7$__63375b3c0a6040518163ffffffff1660e01b815260040160206040518083038186803b15801561095d57600080fd5b505af4158015610971573d6000803e3d6000fd5b505050506040513d601f19601f820116820180604052508101906109959190613355565b600480546040516371e4cc7f60e11b81526001600160a01b039091169163e3c998fe916109c491869101613735565b6101006040518083038186803b1580156109dd57600080fd5b505afa1580156109f1573d6000803e3d6000fd5b505050506040513d601f19601f82011682018060405250810190610a1591906133dc565b604001511015610a375760405162461bcd60e51b8152600401610729906139e2565b610b108a6040518061010001604052808481526020018c81526020018b81526020018a8152602001898152602001888152602001600460009054906101000a90046001600160a01b03166001600160a01b031663e3c998fe896040518263ffffffff1660e01b8152600401610aac9190613735565b6101006040518083038186803b158015610ac557600080fd5b505afa158015610ad9573d6000803e3d6000fd5b505050506040513d601f19601f82011682018060405250810190610afd91906133dc565b6040015181526001602090910152612a43565b7fee036cc96c88163f353feaa4d497e88baaebeb631f40ad9b8a6d51bb6fad40768a828b8b8b8b8b8b42604051610b4f99989796959493929190613ba2565b60405180910390a150505050505050505050565b60008173__$3b76b38140ea5d8f6a5a565441556589de$__635075dbfb600a600460009054906101000a90046001600160a01b03166001600160a01b031663bc788d466040518163ffffffff1660e01b815260040160206040518083038186803b158015610bd057600080fd5b505afa158015610be4573d6000803e3d6000fd5b505050506040513d601f19601f82011682018060405250810190610c089190613355565b88604051602001610c199190613735565b604051602081830303815290604052805190602001206040518463ffffffff1660e01b8152600401610c4d93929190613751565b60206040518083038186803b158015610c6557600080fd5b505af4158015610c79573d6000803e3d6000fd5b505050506040513d601f19601f82011682018060405250810190610c9d9190613355565b610ca8906001613cea565b14610cb557506000610ec1565b600073__$3b76b38140ea5d8f6a5a565441556589de$__63b07ceab8600a8588604051602001610ce6929190613b94565b604051602081830303815290604052805190602001206040518363ffffffff1660e01b8152600401610d1992919061373e565b60206040518083038186803b158015610d3157600080fd5b505af4158015610d45573d6000803e3d6000fd5b505050506040513d601f19601f82011682018060405250810190610d699190613355565b90506000610d7c64010000000083613d9e565b600480546040516371e4cc7f60e11b81529293506000926001600160a01b039091169163e3c998fe91610db1918a9101613735565b6101006040518083038186803b158015610dca57600080fd5b505afa158015610dde573d6000803e3d6000fd5b505050506040513d601f19601f82011682018060405250810190610e0291906133dc565b6040908101516004805492516371e4cc7f60e11b81529193506001600160a01b039092169163e3c998fe91610e3991899101613735565b6101006040518083038186803b158015610e5257600080fd5b505afa158015610e66573d6000803e3d6000fd5b505050506040513d601f19601f82011682018060405250810190610e8a91906133dc565b60400151610e9d90640100000000613d16565b610ea78284613d16565b1115610eb95760009350505050610ec1565b600193505050505b9392505050565b60009081526020819052604090206001015490565b6005546001600160a01b031681565b610f00610ef883610ec8565b61034c613032565b610f1c5760405162461bcd60e51b81526004016107299061376c565b610f268282613036565b5050565b610f32613032565b6001600160a01b0316816001600160a01b031614610f625760405162461bcd60e51b815260040161072990613aad565b610f2682826130bb565b600081815260036020908152604091829020600201805483518184028101840190945280845260609392830182828015610fc557602002820191906000526020600020905b815481526020019060010190808311610fb1575b50505050509050919050565b60055460408051630eaf323560e31b8152905184926001600160a01b03169163757991a8916004808301926020929190829003018186803b15801561101557600080fd5b505afa158015611029573d6000803e3d6000fd5b505050506040513d601f19601f8201168201806040525081019061104d9190613355565b811461106b5760405162461bcd60e51b815260040161072990613917565b73__$cb76aa8097a3c0beaf107a478aa049bae7$__63f240f7c36040518163ffffffff1660e01b815260040160206040518083038186803b1580156110af57600080fd5b505af41580156110c3573d6000803e3d6000fd5b505050506040513d601f19601f820116820180604052508101906110e791906135d1565b60ff16600560009054906101000a90046001600160a01b03166001600160a01b0316631865c57d6040518163ffffffff1660e01b815260040160206040518083038186803b15801561113857600080fd5b505afa15801561114c573d6000803e3d6000fd5b505050506040513d601f19601f820116820180604052508101906111709190613355565b811461118e5760405162461bcd60e51b815260040161072990613a76565b60008481526001602090815260408083203384529091529081902060050154600654915163a6a145d960e01b815290916001600160a01b03169063a6a145d9906111de9088908590600401613b94565b60206040518083038186803b1580156111f657600080fd5b505afa15801561120a573d6000803e3d6000fd5b505050506040513d601f19601f8201168201806040525081019061122e9190613355565b6000868152600160209081526040808320338452909152902054146112655760405162461bcd60e51b815260040161072990613a19565b60008581526001602081815260408084203385528252808420928301546002808501546003909501548b875293529084208054919491899081106112b957634e487b7160e01b600052603260045260246000fd5b9060005260206000209060080201600001549050600084116112da57600080fd5b600089815260026020526040902080548591908a90811061130b57634e487b7160e01b600052603260045260246000fd5b9060005260206000209060080201600201868154811061133b57634e487b7160e01b600052603260045260246000fd5b90600052602060002001541415806113bd5750600089815260026020526040902080548491908a90811061137f57634e487b7160e01b600052603260045260246000fd5b906000526020600020906008020160030186815481106113af57634e487b7160e01b600052603260045260246000fd5b906000526020600020015414155b806114325750600089815260026020526040902080548391908a9081106113f457634e487b7160e01b600052603260045260246000fd5b9060005260206000209060080201600401868154811061142457634e487b7160e01b600052603260045260246000fd5b906000526020600020015414155b1561150a57600089815260026020526040812080548a90811061146557634e487b7160e01b600052603260045260246000fd5b60009182526020909120600890910201600701805460ff1916911515919091179055600480546040517f0f91ce190000000000000000000000000000000000000000000000000000000081526001600160a01b0390911691630f91ce19916114d391859133918f9101613b75565b600060405180830381600087803b1580156114ed57600080fd5b505af1158015611501573d6000803e3d6000fd5b50505050611522565b60405162461bcd60e51b815260040161072990613985565b505050505050505050565b6007546001600160a01b031681565b6006546001600160a01b031681565b60055460408051630eaf323560e31b8152905185926001600160a01b03169163757991a8916004808301926020929190829003018186803b15801561158f57600080fd5b505afa1580156115a3573d6000803e3d6000fd5b505050506040513d601f19601f820116820180604052508101906115c79190613355565b81146115e55760405162461bcd60e51b815260040161072990613917565b73__$cb76aa8097a3c0beaf107a478aa049bae7$__63f240f7c36040518163ffffffff1660e01b815260040160206040518083038186803b15801561162957600080fd5b505af415801561163d573d6000803e3d6000fd5b505050506040513d601f19601f8201168201806040525081019061166191906135d1565b60ff16600560009054906101000a90046001600160a01b03166001600160a01b0316631865c57d6040518163ffffffff1660e01b815260040160206040518083038186803b1580156116b257600080fd5b505afa1580156116c6573d6000803e3d6000fd5b505050506040513d601f19601f820116820180604052508101906116ea9190613355565b81146117085760405162461bcd60e51b815260040161072990613a76565b60065460405163a6a145d960e01b81526000916002916001600160a01b039091169063a6a145d990611740908a908a90600401613b94565b60206040518083038186803b15801561175857600080fd5b505afa15801561176c573d6000803e3d6000fd5b505050506040513d601f19601f820116820180604052508101906117909190613355565b61179a9190613d02565b60065460405163a6a145d960e01b81529192506000916004916001600160a01b03169063a6a145d9906117d2908b908b908601613b94565b60206040518083038186803b1580156117ea57600080fd5b505afa1580156117fe573d6000803e3d6000fd5b505050506040513d601f19601f820116820180604052508101906118229190613355565b61182c9190613d02565b60065460405163a6a145d960e01b81529192506000916004916001600160a01b03169063a6a145d990611864908c908c908601613b94565b60206040518083038186803b15801561187c57600080fd5b505afa158015611890573d6000803e3d6000fd5b505050506040513d601f19601f820116820180604052508101906118b49190613355565b6118bf906003613d16565b6118c99190613d02565b60008981526001602090815260408083203384529091529020805460049091015491925090816119175760008a81526001602090815260408083203384529091529020600501899055611952565b60008a815260016020908152604080832033845290915290206005015489146119525760405162461bcd60e51b81526004016107299061394e565b60005b8851811015611c1d578189828151811061197f57634e487b7160e01b600052603260045260246000fd5b6020026020010151116119a45760405162461bcd60e51b8152600401610729906137c9565b8881815181106119c457634e487b7160e01b600052603260045260246000fd5b60200260200101519150600660009054906101000a90046001600160a01b03166001600160a01b0316639c66556f8c8c8c8581518110611a1457634e487b7160e01b600052603260045260246000fd5b60200260200101516040518463ffffffff1660e01b8152600401611a3a93929190613c8f565b60206040518083038186803b158015611a5257600080fd5b505afa158015611a66573d6000803e3d6000fd5b505050506040513d601f19601f82011682018060405250810190611a8a9190613355565b611a949084613cea565b60008c8152600160209081526040808320338452909152902060020154909350158015611ac15750848310155b15611b0f57888181518110611ae657634e487b7160e01b600052603260045260246000fd5b60209081029190910181015160008d815260018352604080822033835290935291909120600201555b60008b81526001602081815260408084203385529091529091200154158015611b3757508583115b15611b8557888181518110611b5c57634e487b7160e01b600052603260045260246000fd5b60209081029190910181015160008d815260018084526040808320338452909452929020909101555b60008b8152600160209081526040808320338452909152902060030154158015611bae57508383115b15611bfc57888181518110611bd357634e487b7160e01b600052603260045260246000fd5b60209081029190910181015160008d815260018352604080822033835290935291909120600301555b6127105a1015611c0b57611c1d565b80611c1581613d63565b915050611955565b506000998a52600160209081526040808c20338d52909152909920600481019990995590975550505050505050565b60055460408051630eaf323560e31b8152905183926001600160a01b03169163757991a8916004808301926020929190829003018186803b158015611c9057600080fd5b505afa158015611ca4573d6000803e3d6000fd5b505050506040513d601f19601f82011682018060405250810190611cc89190613355565b8114611ce65760405162461bcd60e51b815260040161072990613917565b73__$cb76aa8097a3c0beaf107a478aa049bae7$__63f240f7c36040518163ffffffff1660e01b815260040160206040518083038186803b158015611d2a57600080fd5b505af4158015611d3e573d6000803e3d6000fd5b505050506040513d601f19601f82011682018060405250810190611d6291906135d1565b60ff16600560009054906101000a90046001600160a01b03166001600160a01b0316631865c57d6040518163ffffffff1660e01b815260040160206040518083038186803b158015611db357600080fd5b505afa158015611dc7573d6000803e3d6000fd5b505050506040513d601f19601f82011682018060405250810190611deb9190613355565b8114611e095760405162461bcd60e51b815260040161072990613a76565b50506040805160c08101825260008082526020808301828152838501838152606085018481526080860185815260a0870186815298865260018086528887203388529095529690942094518555905191840191909155516002830155516003820155905160048201559051600590910155565b6004546001600160a01b031681565b600160208181526000938452604080852090915291835291208054918101546002820154600383015460048401546005909401549293919290919086565b6000918252602082815260408084206001600160a01b0393909316845291905290205460ff1690565b60026020528160005260406000208181548110611f0e57600080fd5b60009182526020909120600890910201805460058201546006830154600790930154919450925060ff1684565b73__$cb76aa8097a3c0beaf107a478aa049bae7$__63d98b3ced6040518163ffffffff1660e01b815260040160206040518083038186803b158015611f7f57600080fd5b505af4158015611f93573d6000803e3d6000fd5b505050506040513d601f19601f82011682018060405250810190611fb79190613355565b611fc18133611ec9565b611fdd5760405162461bcd60e51b815260040161072990613826565b60055460408051630eaf323560e31b815290516000926001600160a01b03169163757991a8916004808301926020929190829003018186803b15801561202257600080fd5b505afa158015612036573d6000803e3d6000fd5b505050506040513d601f19601f8201168201806040525081019061205a9190613355565b905060005b6002600061206e600185613d35565b815260208101919091526040016000205460ff821610156126225760026000612098600185613d35565b81526020019081526020016000208160ff16815481106120c857634e487b7160e01b600052603260045260246000fd5b600091825260209091206007600890920201015460ff161561261057600260006120f3600185613d35565b81526020019081526020016000208160ff168154811061212357634e487b7160e01b600052603260045260246000fd5b9060005260206000209060080201600360006001856121429190613d35565b81526020810191909152604001600020815481556001808301805461216a9284019190613185565b506002828101805461217f9284019190613185565b50600382810180546121949284019190613185565b50600482810180546121a99284019190613185565b5060058281015490820155600680830154908201556007918201549101805460ff191660ff909216151591909117905560006002816121e9600186613d35565b81526020019081526020016000208260ff168154811061221957634e487b7160e01b600052603260045260246000fd5b600091825260209091206008909102015490507f5ef264ae9101b91bd7117350c5e85901297fa0569e7a3e07eb7ec0a6281529f0612258600185613d35565b8260026000612268600189613d35565b81526020019081526020016000208560ff168154811061229857634e487b7160e01b600052603260045260246000fd5b9060005260206000209060080201600201600260006001896122ba9190613d35565b81526020019081526020016000208660ff16815481106122ea57634e487b7160e01b600052603260045260246000fd5b90600052602060002090600802016003016002600060018a61230c9190613d35565b81526020019081526020016000208760ff168154811061233c57634e487b7160e01b600052603260045260246000fd5b90600052602060002090600802016004016002600060018b61235e9190613d35565b81526020019081526020016000208860ff168154811061238e57634e487b7160e01b600052603260045260246000fd5b9060005260206000209060080201600101426040516123b39796959493929190613c21565b60405180910390a160005b600260006123cd600187613d35565b81526020019081526020016000208360ff16815481106123fd57634e487b7160e01b600052603260045260246000fd5b9060005260206000209060080201600101805490508160ff16101561258b576007546001600160a01b03166356350bdf6002600061243c600189613d35565b81526020019081526020016000208560ff168154811061246c57634e487b7160e01b600052603260045260246000fd5b90600052602060002090600802016001018360ff168154811061249f57634e487b7160e01b600052603260045260246000fd5b9060005260206000200154600260006001896124bb9190613d35565b81526020019081526020016000208660ff16815481106124eb57634e487b7160e01b600052603260045260246000fd5b90600052602060002090600802016002018460ff168154811061251e57634e487b7160e01b600052603260045260246000fd5b90600052602060002001546040518363ffffffff1660e01b8152600401612546929190613b94565b600060405180830381600087803b15801561256057600080fd5b505af1158015612574573d6000803e3d6000fd5b50505050808061258390613d7e565b9150506123be565b50600480546040517f746c8b650000000000000000000000000000000000000000000000000000000081526001600160a01b039091169163746c8b65916125d6918591889101613b94565b600060405180830381600087803b1580156125f057600080fd5b505af1158015612604573d6000803e3d6000fd5b50505050505050612625565b8061261a81613d7e565b91505061205f565b50505b50565b600081565b61263561313e565b606080606060026000878152602001908152602001600020858154811061266c57634e487b7160e01b600052603260045260246000fd5b90600052602060002090600802016040518061010001604052908160008201548152602001600182018054806020026020016040519081016040528092919081815260200182805480156126df57602002820191906000526020600020905b8154815260200190600101908083116126cb575b505050505081526020016002820180548060200260200160405190810160405280929190818152602001828054801561273757602002820191906000526020600020905b815481526020019060010190808311612723575b505050505081526020016003820180548060200260200160405190810160405280929190818152602001828054801561278f57602002820191906000526020600020905b81548152602001906001019080831161277b575b50505050508152602001600482018054806020026020016040519081016040528092919081815260200182805480156127e757602002820191906000526020600020905b8154815260200190600101908083116127d3575b505050918352505060058201546020820152600682015460408083019190915260079092015460ff161515606091820152908201519082015160808301519299919850965090945092505050565b60008281526002602052604090208054606091908390811061286757634e487b7160e01b600052603260045260246000fd5b90600052602060002090600802016002018054806020026020016040519081016040528092919081815260200182805480156128c257602002820191906000526020600020905b8154815260200190600101908083116128ae575b5050505050905092915050565b600081815260036020818152604092839020909101805483518184028101840190945280845260609392830182828015610fc55760200282019190600052602060002090815481526020019060010190808311610fb15750505050509050919050565b61293e610ef883610ec8565b610f625760405162461bcd60e51b8152600401610729906138ba565b60009081526002602052604090205490565b60036020526000908152604090208054600582015460068301546007909301549192909160ff1684565b600081815260036020908152604091829020600401805483518184028101840190945280845260609392830182828015610fc55760200282019190600052602060002090815481526020019060010190808311610fb15750505050509050919050565b7fffffffff0000000000000000000000000000000000000000000000000000000081167f01ffc9a70000000000000000000000000000000000000000000000000000000014919050565b600082815260026020526040902054612b205760008281526002602090815260408220805460018181018355918452928290208451600890940201928355838201518051859493612a989385019201906131d5565b5060408201518051612ab49160028401916020909101906131d5565b5060608201518051612ad09160038401916020909101906131d5565b5060808201518051612aec9160048401916020909101906131d5565b5060a0820151600582015560c0820151600682015560e0909101516007909101805460ff1916911515919091179055610f26565b600082815260026020526040812054905b600084815260026020526040902054811015612bff5760c08301516000858152600260205260409020805483908110612b7a57634e487b7160e01b600052603260045260246000fd5b9060005260206000209060080201600601541015612b9a57809150612bff565b60a08301516000858152600260205260409020805483908110612bcd57634e487b7160e01b600052603260045260246000fd5b9060005260206000209060080201600501541115612bed57809150612bff565b80612bf781613d63565b915050612b31565b5060008381526002602090815260408220805460018181018355918452928290208551600890940201928355848201518051869493612c429385019201906131d5565b5060408201518051612c5e9160028401916020909101906131d5565b5060608201518051612c7a9160038401916020909101906131d5565b5060808201518051612c969160048401916020909101906131d5565b5060a0820151600582015560c0820151600682015560e0909101516007909101805460ff1916911515919091179055600083815260026020526040812054612ce090600190613d35565b90505b81811115612e0c576000848152600260205260409020612d04600183613d35565b81548110612d2257634e487b7160e01b600052603260045260246000fd5b9060005260206000209060080201600260008681526020019081526020016000208281548110612d6257634e487b7160e01b600052603260045260246000fd5b60009182526020909120825460089092020190815560018083018054612d8b9284019190613185565b5060028281018054612da09284019190613185565b5060038281018054612db59284019190613185565b5060048281018054612dca9284019190613185565b5060058281015490820155600680830154908201556007918201549101805460ff191660ff909216151591909117905580612e0481613d4c565b915050612ce3565b506000838152600260205260409020805483919083908110612e3e57634e487b7160e01b600052603260045260246000fd5b9060005260206000209060080201600082015181600001556020820151816001019080519060200190612e729291906131d5565b5060408201518051612e8e9160028401916020909101906131d5565b5060608201518051612eaa9160038401916020909101906131d5565b5060808201518051612ec69160048401916020909101906131d5565b5060a0820151816005015560c0820151816006015560e08201518160070160006101000a81548160ff02191690831515021790555090505073__$cb76aa8097a3c0beaf107a478aa049bae7$__63379597e06040518163ffffffff1660e01b815260040160206040518083038186803b158015612f4257600080fd5b505af4158015612f56573d6000803e3d6000fd5b505050506040513d601f19601f82011682018060405250810190612f7a9190613355565b60008481526002602052604090205411156126225760008381526002602052604090208054612fab90600190613d35565b81548110612fc957634e487b7160e01b600052603260045260246000fd5b60009182526020822060089091020181815590612fe96001830182613210565b612ff7600283016000613210565b613005600383016000613210565b613013600483016000613210565b506000600582018190556006820155600701805460ff19169055505050565b3390565b6130408282611ec9565b610f26576000828152602081815260408083206001600160a01b03851684529091529020805460ff19166001179055613077613032565b6001600160a01b0316816001600160a01b0316837f2f8788117e7eff1d82e926ec794901d17c78024a50270940304540a733656f0d60405160405180910390a45050565b6130c58282611ec9565b15610f26576000828152602081815260408083206001600160a01b03851684529091529020805460ff191690556130fa613032565b6001600160a01b0316816001600160a01b0316837ff6391f5c32d9c69d2a47ea670b442974b53935d1edc7fd64eb21e047a839171b60405160405180910390a45050565b604051806101000160405280600081526020016060815260200160608152602001606081526020016060815260200160008152602001600081526020016000151581525090565b8280548282559060005260206000209081019282156131c55760005260206000209182015b828111156131c55782548255916001019190600101906131aa565b506131d192915061322a565b5090565b8280548282559060005260206000209081019282156131c5579160200282015b828111156131c55782518255916020019190600101906131f5565b508054600082559060005260206000209081019061262591905b5b808211156131d1576000815560010161322b565b805161047281613df4565b600082601f83011261325a578081fd5b8135602067ffffffffffffffff8083111561327757613277613dde565b8183026040518382820101818110848211171561329657613296613dde565b604052848152838101925086840182880185018910156132b4578687fd5b8692505b858310156132d65780358452928401926001929092019184016132b8565b50979650505050505050565b600080600080608085870312156132f7578384fd5b843561330281613df4565b9350602085013561331281613df4565b9250604085013561332281613df4565b9150606085013561333281613df4565b939692955090935050565b60006020828403121561334e578081fd5b5035919050565b600060208284031215613366578081fd5b5051919050565b6000806040838503121561337f578182fd5b82359150602083013561339181613df4565b809150509250929050565b6000602082840312156133ad578081fd5b81357fffffffff0000000000000000000000000000000000000000000000000000000081168114610ec1578182fd5b60006101008083850312156133ef578182fd5b6040519081019067ffffffffffffffff8211818310171561341257613412613dde565b81604052835181526134266020850161323f565b602082015260408401516040820152606084015160608201526080840151608082015260a084015160a082015260c084015160c082015260e084015160e0820152809250505092915050565b600080600080600080600060e0888a03121561348c578283fd5b87359650602088013567ffffffffffffffff808211156134aa578485fd5b6134b68b838c0161324a565b975060408a01359150808211156134cb578485fd5b6134d78b838c0161324a565b965060608a01359150808211156134ec578485fd5b6134f88b838c0161324a565b955060808a013591508082111561350d578485fd5b5061351a8a828b0161324a565b93505060a0880135915060c0880135905092959891949750929550565b60008060408385031215613549578182fd5b50508035926020909101359150565b60008060006060848603121561356c578081fd5b8335925060208401359150604084013567ffffffffffffffff811115613590578182fd5b61359c8682870161324a565b9150509250925092565b6000806000606084860312156135ba578081fd5b505081359360208301359350604090920135919050565b6000602082840312156135e2578081fd5b815160ff81168114610ec1578182fd5b6000815180845260208085019450808401835b8381101561362157815187529582019590820190600101613605565b509495945050505050565b6000815480845260208085019450838352808320835b8381101561362157815487529582019560019182019101613642565b15159052565b6000610100825184526020830151816020860152613684828601826135f2565b9150506040830151848203604086015261369e82826135f2565b915050606083015184820360608601526136b882826135f2565b915050608083015184820360808601526136d282826135f2565b91505060a083015160a085015260c083015160c085015260e08301516136fb60e086018261365e565b509392505050565b6001600160a01b0391909116815260200190565b600060208252610ec160208301846135f2565b901515815260200190565b90815260200190565b60ff929092168252602082015260400190565b60ff9390931683526020830191909152604082015260600190565b6020808252602f908201527f416363657373436f6e74726f6c3a2073656e646572206d75737420626520616e60408201527f2061646d696e20746f206772616e740000000000000000000000000000000000606082015260800190565b60208082526029908201527f736f727465645b695d206973206e6f742067726561746572207468616e206c6160408201527f7374566973697465640000000000000000000000000000000000000000000000606082015260800190565b60208082526032908201527f416363657373436f6e74726f6c3a2073656e64657220646f65736e742068617660408201527f6520617070726f70726961746520726f6c650000000000000000000000000000606082015260800190565b6020808252600b908201527f6e6f7420656c6563746564000000000000000000000000000000000000000000604082015260600190565b60208082526030908201527f416363657373436f6e74726f6c3a2073656e646572206d75737420626520616e60408201527f2061646d696e20746f207265766f6b6500000000000000000000000000000000606082015260800190565b6020808252600f908201527f696e636f72726563742065706f63680000000000000000000000000000000000604082015260600190565b60208082526014908201527f41737365744964206e6f74206d61746368696e67000000000000000000000000604082015260600190565b60208082526037908201527f50726f706f73656420416c7465726e61746520626c6f636b206973206964656e60408201527f746963616c20746f2070726f706f73656420626c6f636b000000000000000000606082015260800190565b60208082526019908201527f7374616b652062656c6f77206d696e696d756d207374616b6500000000000000604082015260600190565b60208082526021908201527f546f74616c207374616b652072657665616c656420646f65736e74206d61746360408201527f6800000000000000000000000000000000000000000000000000000000000000606082015260800190565b6020808252600f908201527f696e636f72726563742073746174650000000000000000000000000000000000604082015260600190565b6020808252602f908201527f416363657373436f6e74726f6c3a2063616e206f6e6c792072656e6f756e636560408201527f20726f6c657320666f722073656c660000000000000000000000000000000000606082015260800190565b600060208252610ec16020830184613664565b600060808252613b306080830187613664565b8281036020840152613b4281876135f2565b90508281036040840152613b5681866135f2565b90508281036060840152613b6a81856135f2565b979650505050505050565b9283526001600160a01b03919091166020830152604082015260600190565b918252602082015260400190565b60006101208b83528a6020840152806040840152613bc28184018b6135f2565b90508281036060840152613bd6818a6135f2565b90508281036080840152613bea81896135f2565b905082810360a0840152613bfe81886135f2565b60c0840196909652505060e0810192909252610100909101529695505050505050565b600088825287602083015260e06040830152613c4060e083018861362c565b8281036060840152613c52818861362c565b90508281036080840152613c66818761362c565b905082810360a0840152613c7a818661362c565b9150508260c083015298975050505050505050565b9283526020830191909152604082015260600190565b938452602084019290925260408301521515606082015260800190565b958652602086019490945260408501929092526060840152608083015260a082015260c00190565b60008219821115613cfd57613cfd613db2565b500190565b600082613d1157613d11613dc8565b500490565b6000816000190483118215151615613d3057613d30613db2565b500290565b600082821015613d4757613d47613db2565b500390565b600081613d5b57613d5b613db2565b506000190190565b6000600019821415613d7757613d77613db2565b5060010190565b600060ff821660ff811415613d9557613d95613db2565b60010192915050565b600082613dad57613dad613dc8565b500690565b634e487b7160e01b600052601160045260246000fd5b634e487b7160e01b600052601260045260246000fd5b634e487b7160e01b600052604160045260246000fd5b6001600160a01b038116811461262557600080fdfea264697066735822122043050bb397fae4dd7bf18f07e232db16af4f46041f4cdd4993ea59ee2f2aeb4964736f6c63430008000033",
  "linkReferences": {
    "contracts/lib/Constants.sol": {
      "Constants": [
        {
          "length": 20,
          "start": 2096
        },
        {
          "length": 20,
          "start": 2583
        },
        {
          "length": 20,
          "start": 4457
        },
        {
          "length": 20,
          "start": 5859
        },
        {
          "length": 20,
          "start": 7652
        },
        {
          "length": 20,
          "start": 8249
        },
        {
          "length": 20,
          "start": 12284
        }
      ]
    },
    "contracts/lib/Random.sol": {
      "Random": [
        {
          "length": 20,
          "start": 3172
        },
        {
          "length": 20,
          "start": 3509
        }
      ]
    }
  },
  "deployedLinkReferences": {
    "contracts/lib/Constants.sol": {
      "Constants": [
        {
          "length": 20,
          "start": 1844
        },
        {
          "length": 20,
          "start": 2331
        },
        {
          "length": 20,
          "start": 4205
        },
        {
          "length": 20,
          "start": 5607
        },
        {
          "length": 20,
          "start": 7400
        },
        {
          "length": 20,
          "start": 7997
        },
        {
          "length": 20,
          "start": 12032
        }
      ]
    },
    "contracts/lib/Random.sol": {
      "Random": [
        {
          "length": 20,
          "start": 2920
        },
        {
          "length": 20,
          "start": 3257
        }
      ]
    }
  }
}