{
  "_format": "hh-sol-artifact-1",
  "contractName": "SchellingCoin",
  "sourceName": "contracts/SchellingCoin.sol",
  "abi": [
    {
      "inputs": [],
      "stateMutability": "nonpayable",
      "type": "constructor"
    },
    {
      "anonymous": false,
      "inputs": [
        {
          "indexed": true,
          "internalType": "address",
          "name": "owner",
          "type": "address"
        },
        {
          "indexed": true,
          "internalType": "address",
          "name": "spender",
          "type": "address"
        },
        {
          "indexed": false,
          "internalType": "uint256",
          "name": "value",
          "type": "uint256"
        }
      ],
      "name": "Approval",
      "type": "event"
    },
    {
      "anonymous": false,
      "inputs": [
        {
          "indexed": true,
          "internalType": "bytes32",
          "name": "role",
          "type": "bytes32"
        },
        {
          "indexed": true,
          "internalType": "bytes32",
          "name": "previousAdminRole",
          "type": "bytes32"
        },
        {
          "indexed": true,
          "internalType": "bytes32",
          "name": "newAdminRole",
          "type": "bytes32"
        }
      ],
      "name": "RoleAdminChanged",
      "type": "event"
    },
    {
      "anonymous": false,
      "inputs": [
        {
          "indexed": true,
          "internalType": "bytes32",
          "name": "role",
          "type": "bytes32"
        },
        {
          "indexed": true,
          "internalType": "address",
          "name": "account",
          "type": "address"
        },
        {
          "indexed": true,
          "internalType": "address",
          "name": "sender",
          "type": "address"
        }
      ],
      "name": "RoleGranted",
      "type": "event"
    },
    {
      "anonymous": false,
      "inputs": [
        {
          "indexed": true,
          "internalType": "bytes32",
          "name": "role",
          "type": "bytes32"
        },
        {
          "indexed": true,
          "internalType": "address",
          "name": "account",
          "type": "address"
        },
        {
          "indexed": true,
          "internalType": "address",
          "name": "sender",
          "type": "address"
        }
      ],
      "name": "RoleRevoked",
      "type": "event"
    },
    {
      "anonymous": false,
      "inputs": [
        {
          "indexed": true,
          "internalType": "address",
          "name": "from",
          "type": "address"
        },
        {
          "indexed": true,
          "internalType": "address",
          "name": "to",
          "type": "address"
        },
        {
          "indexed": false,
          "internalType": "uint256",
          "name": "value",
          "type": "uint256"
        }
      ],
      "name": "Transfer",
      "type": "event"
    },
    {
      "inputs": [],
      "name": "DECIMALS",
      "outputs": [
        {
          "internalType": "uint256",
          "name": "",
          "type": "uint256"
        }
      ],
      "stateMutability": "view",
      "type": "function"
    },
    {
      "inputs": [],
      "name": "DEFAULT_ADMIN_ROLE",
      "outputs": [
        {
          "internalType": "bytes32",
          "name": "",
          "type": "bytes32"
        }
      ],
      "stateMutability": "view",
      "type": "function"
    },
    {
      "inputs": [],
      "name": "INITIAL_SUPPLY",
      "outputs": [
        {
          "internalType": "uint256",
          "name": "",
          "type": "uint256"
        }
      ],
      "stateMutability": "view",
      "type": "function"
    },
    {
      "inputs": [],
      "name": "MINTER_ROLE",
      "outputs": [
        {
          "internalType": "bytes32",
          "name": "",
          "type": "bytes32"
        }
      ],
      "stateMutability": "view",
      "type": "function"
    },
    {
      "inputs": [
        {
          "internalType": "address",
          "name": "account",
          "type": "address"
        }
      ],
      "name": "addMinter",
      "outputs": [],
      "stateMutability": "nonpayable",
      "type": "function"
    },
    {
      "inputs": [
        {
          "internalType": "address",
          "name": "owner",
          "type": "address"
        },
        {
          "internalType": "address",
          "name": "spender",
          "type": "address"
        }
      ],
      "name": "allowance",
      "outputs": [
        {
          "internalType": "uint256",
          "name": "",
          "type": "uint256"
        }
      ],
      "stateMutability": "view",
      "type": "function"
    },
    {
      "inputs": [
        {
          "internalType": "address",
          "name": "spender",
          "type": "address"
        },
        {
          "internalType": "uint256",
          "name": "amount",
          "type": "uint256"
        }
      ],
      "name": "approve",
      "outputs": [
        {
          "internalType": "bool",
          "name": "",
          "type": "bool"
        }
      ],
      "stateMutability": "nonpayable",
      "type": "function"
    },
    {
      "inputs": [
        {
          "internalType": "address",
          "name": "account",
          "type": "address"
        }
      ],
      "name": "balanceOf",
      "outputs": [
        {
          "internalType": "uint256",
          "name": "",
          "type": "uint256"
        }
      ],
      "stateMutability": "view",
      "type": "function"
    },
    {
      "inputs": [],
      "name": "decimals",
      "outputs": [
        {
          "internalType": "uint8",
          "name": "",
          "type": "uint8"
        }
      ],
      "stateMutability": "view",
      "type": "function"
    },
    {
      "inputs": [
        {
          "internalType": "address",
          "name": "spender",
          "type": "address"
        },
        {
          "internalType": "uint256",
          "name": "subtractedValue",
          "type": "uint256"
        }
      ],
      "name": "decreaseAllowance",
      "outputs": [
        {
          "internalType": "bool",
          "name": "",
          "type": "bool"
        }
      ],
      "stateMutability": "nonpayable",
      "type": "function"
    },
    {
      "inputs": [
        {
          "internalType": "bytes32",
          "name": "role",
          "type": "bytes32"
        }
      ],
      "name": "getRoleAdmin",
      "outputs": [
        {
          "internalType": "bytes32",
          "name": "",
          "type": "bytes32"
        }
      ],
      "stateMutability": "view",
      "type": "function"
    },
    {
      "inputs": [
        {
          "internalType": "bytes32",
          "name": "role",
          "type": "bytes32"
        },
        {
          "internalType": "address",
          "name": "account",
          "type": "address"
        }
      ],
      "name": "grantRole",
      "outputs": [],
      "stateMutability": "nonpayable",
      "type": "function"
    },
    {
      "inputs": [
        {
          "internalType": "bytes32",
          "name": "role",
          "type": "bytes32"
        },
        {
          "internalType": "address",
          "name": "account",
          "type": "address"
        }
      ],
      "name": "hasRole",
      "outputs": [
        {
          "internalType": "bool",
          "name": "",
          "type": "bool"
        }
      ],
      "stateMutability": "view",
      "type": "function"
    },
    {
      "inputs": [
        {
          "internalType": "address",
          "name": "spender",
          "type": "address"
        },
        {
          "internalType": "uint256",
          "name": "addedValue",
          "type": "uint256"
        }
      ],
      "name": "increaseAllowance",
      "outputs": [
        {
          "internalType": "bool",
          "name": "",
          "type": "bool"
        }
      ],
      "stateMutability": "nonpayable",
      "type": "function"
    },
    {
      "inputs": [
        {
          "internalType": "address",
          "name": "account",
          "type": "address"
        },
        {
          "internalType": "uint256",
          "name": "amount",
          "type": "uint256"
        }
      ],
      "name": "mint",
      "outputs": [
        {
          "internalType": "bool",
          "name": "",
          "type": "bool"
        }
      ],
      "stateMutability": "nonpayable",
      "type": "function"
    },
    {
      "inputs": [],
      "name": "name",
      "outputs": [
        {
          "internalType": "string",
          "name": "",
          "type": "string"
        }
      ],
      "stateMutability": "view",
      "type": "function"
    },
    {
      "inputs": [
        {
          "internalType": "address",
          "name": "account",
          "type": "address"
        }
      ],
      "name": "removeMinter",
      "outputs": [],
      "stateMutability": "nonpayable",
      "type": "function"
    },
    {
      "inputs": [
        {
          "internalType": "bytes32",
          "name": "role",
          "type": "bytes32"
        },
        {
          "internalType": "address",
          "name": "account",
          "type": "address"
        }
      ],
      "name": "renounceRole",
      "outputs": [],
      "stateMutability": "nonpayable",
      "type": "function"
    },
    {
      "inputs": [
        {
          "internalType": "bytes32",
          "name": "role",
          "type": "bytes32"
        },
        {
          "internalType": "address",
          "name": "account",
          "type": "address"
        }
      ],
      "name": "revokeRole",
      "outputs": [],
      "stateMutability": "nonpayable",
      "type": "function"
    },
    {
      "inputs": [
        {
          "internalType": "bytes4",
          "name": "interfaceId",
          "type": "bytes4"
        }
      ],
      "name": "supportsInterface",
      "outputs": [
        {
          "internalType": "bool",
          "name": "",
          "type": "bool"
        }
      ],
      "stateMutability": "view",
      "type": "function"
    },
    {
      "inputs": [],
      "name": "symbol",
      "outputs": [
        {
          "internalType": "string",
          "name": "",
          "type": "string"
        }
      ],
      "stateMutability": "view",
      "type": "function"
    },
    {
      "inputs": [],
      "name": "totalSupply",
      "outputs": [
        {
          "internalType": "uint256",
          "name": "",
          "type": "uint256"
        }
      ],
      "stateMutability": "view",
      "type": "function"
    },
    {
      "inputs": [
        {
          "internalType": "address",
          "name": "recipient",
          "type": "address"
        },
        {
          "internalType": "uint256",
          "name": "amount",
          "type": "uint256"
        }
      ],
      "name": "transfer",
      "outputs": [
        {
          "internalType": "bool",
          "name": "",
          "type": "bool"
        }
      ],
      "stateMutability": "nonpayable",
      "type": "function"
    },
    {
      "inputs": [
        {
          "internalType": "address",
          "name": "sender",
          "type": "address"
        },
        {
          "internalType": "address",
          "name": "recipient",
          "type": "address"
        },
        {
          "internalType": "uint256",
          "name": "amount",
          "type": "uint256"
        }
      ],
      "name": "transferFrom",
      "outputs": [
        {
          "internalType": "bool",
          "name": "",
          "type": "bool"
        }
      ],
      "stateMutability": "nonpayable",
      "type": "function"
    }
  ],
  "bytecode": "0x60806040523480156200001157600080fd5b506040518060400160405280600d81526020016c29b1b432b63634b733a1b7b4b760991b815250604051806040016040528060038152602001620a686960eb1b81525081600390805190602001906200006c92919062000267565b5080516200008290600490602084019062000267565b506200009491506000905033620000c3565b620000bd33620000a76012600a620003b5565b620000b790633b9aca00620004aa565b620000d3565b6200051f565b620000cf8282620001a7565b5050565b6001600160a01b038216620001055760405162461bcd60e51b8152600401620000fc906200030d565b60405180910390fd5b620001136000838362000233565b80600260008282546200012791906200034d565b90915550506001600160a01b03821660009081526020819052604081208054839290620001569084906200034d565b90915550506040516001600160a01b038316906000907fddf252ad1be2c89b69c2b068fc378daa952ba7f163c4a11628f55a4df523b3ef906200019b90859062000344565b60405180910390a35050565b620001b3828262000238565b620000cf5760008281526005602090815260408083206001600160a01b03851684529091529020805460ff19166001179055620001ef62000263565b6001600160a01b0316816001600160a01b0316837f2f8788117e7eff1d82e926ec794901d17c78024a50270940304540a733656f0d60405160405180910390a45050565b505050565b60009182526005602090815260408084206001600160a01b0393909316845291905290205460ff1690565b3390565b8280546200027590620004cc565b90600052602060002090601f016020900481019282620002995760008555620002e4565b82601f10620002b457805160ff1916838001178555620002e4565b82800160010185558215620002e4579182015b82811115620002e4578251825591602001919060010190620002c7565b50620002f2929150620002f6565b5090565b5b80821115620002f25760008155600101620002f7565b6020808252601f908201527f45524332303a206d696e7420746f20746865207a65726f206164647265737300604082015260600190565b90815260200190565b6000821982111562000363576200036362000509565b500190565b80825b60018086116200037c5750620003ac565b81870482111562000391576200039162000509565b808616156200039f57918102915b9490941c9380026200036b565b94509492505050565b6000620003c66000198484620003cd565b9392505050565b600082620003de57506001620003c6565b81620003ed57506000620003c6565b8160018114620004065760028114620004115762000445565b6001915050620003c6565b60ff84111562000425576200042562000509565b6001841b9150848211156200043e576200043e62000509565b50620003c6565b5060208310610133831016604e8410600b84101617156200047d575081810a8381111562000477576200047762000509565b620003c6565b6200048c848484600162000368565b808604821115620004a157620004a162000509565b02949350505050565b6000816000190483118215151615620004c757620004c762000509565b500290565b600281046001821680620004e157607f821691505b602082108114156200050357634e487b7160e01b600052602260045260246000fd5b50919050565b634e487b7160e01b600052601160045260246000fd5b6113bf806200052f6000396000f3fe608060405234801561001057600080fd5b50600436106101985760003560e01c806339509351116100e3578063a217fddf1161008c578063d539139311610066578063d53913931461031e578063d547741f14610326578063dd62ed3e1461033957610198565b8063a217fddf146102f0578063a457c2d7146102f8578063a9059cbb1461030b57610198565b806391d14854116100bd57806391d14854146102c257806395d89b41146102d5578063983b2d56146102dd57610198565b8063395093511461028957806340c10f191461029c57806370a08231146102af57610198565b80632e0f2625116101455780633092afd51161011f5780633092afd51461024e578063313ce5671461026157806336568abe1461027657610198565b80632e0f2625146102295780632f2ff15d146102315780632ff2e9dc1461024657610198565b806318160ddd1161017657806318160ddd146101ee57806323b872dd14610203578063248a9ca31461021657610198565b806301ffc9a71461019d57806306fdde03146101c6578063095ea7b3146101db575b600080fd5b6101b06101ab366004610d11565b61034c565b6040516101bd9190610d51565b60405180910390f35b6101ce6103aa565b6040516101bd9190610d65565b6101b06101e9366004610cae565b61043c565b6101f6610459565b6040516101bd9190610d5c565b6101b0610211366004610c73565b61045f565b6101f6610224366004610cd7565b610501565b6101f6610516565b61024461023f366004610cef565b61051b565b005b6101f6610559565b61024461025c366004610c27565b610576565b6102696105a3565b6040516101bd91906111c8565b610244610284366004610cef565b6105a8565b6101b0610297366004610cae565b6105ea565b6101b06102aa366004610cae565b610639565b6101f66102bd366004610c27565b61068b565b6101b06102d0366004610cef565b6106a6565b6101ce6106d1565b6102446102eb366004610c27565b6106e0565b6101f661070a565b6101b0610306366004610cae565b61070f565b6101b0610319366004610cae565b61078a565b6101f661079e565b610244610334366004610cef565b6107c2565b6101f6610347366004610c41565b6107ea565b60007fffffffff0000000000000000000000000000000000000000000000000000000082167f7965db0b0000000000000000000000000000000000000000000000000000000014806103a257506103a282610815565b90505b919050565b6060600380546103b990611338565b80601f01602080910402602001604051908101604052809291908181526020018280546103e590611338565b80156104325780601f1061040757610100808354040283529160200191610432565b820191906000526020600020905b81548152906001019060200180831161041557829003601f168201915b5050505050905090565b600061045061044961085f565b8484610863565b50600192915050565b60025490565b600061046c848484610917565b6001600160a01b03841660009081526001602052604081208161048d61085f565b6001600160a01b03166001600160a01b03168152602001908152602001600020549050828110156104d95760405162461bcd60e51b81526004016104d090610fc0565b60405180910390fd5b6104f4856104e561085f565b6104ef8685611321565b610863565b60019150505b9392505050565b60009081526005602052604090206001015490565b601281565b61052f61052783610501565b6102d061085f565b61054b5760405162461bcd60e51b81526004016104d090610e15565b6105558282610a3f565b5050565b6105656012600a611234565b61057390633b9aca00611302565b81565b6105a07f9f2df0fed2c77648de5860a4cc508cd0818c85b8b8a1ab4ceeef8d981c8956a6826107c2565b50565b601290565b6105b061085f565b6001600160a01b0316816001600160a01b0316146105e05760405162461bcd60e51b81526004016104d090611134565b6105558282610ac6565b60006104506105f761085f565b84846001600061060561085f565b6001600160a01b03908116825260208083019390935260409182016000908120918b16815292529020546104ef91906111d6565b60006106657f9f2df0fed2c77648de5860a4cc508cd0818c85b8b8a1ab4ceeef8d981c8956a6336106a6565b6106815760405162461bcd60e51b81526004016104d090610f89565b6104508383610b4b565b6001600160a01b031660009081526020819052604090205490565b60009182526005602090815260408084206001600160a01b0393909316845291905290205460ff1690565b6060600480546103b990611338565b6105a07f9f2df0fed2c77648de5860a4cc508cd0818c85b8b8a1ab4ceeef8d981c8956a68261051b565b600081565b6000806001600061071e61085f565b6001600160a01b039081168252602080830193909352604091820160009081209188168152925290205490508281101561076a5760405162461bcd60e51b81526004016104d0906110d7565b61078061077561085f565b856104ef8685611321565b5060019392505050565b600061045061079761085f565b8484610917565b7f9f2df0fed2c77648de5860a4cc508cd0818c85b8b8a1ab4ceeef8d981c8956a681565b6107ce61052783610501565b6105e05760405162461bcd60e51b81526004016104d090610f2c565b6001600160a01b03918216600090815260016020908152604080832093909416825291909152205490565b7fffffffff0000000000000000000000000000000000000000000000000000000081167f01ffc9a70000000000000000000000000000000000000000000000000000000014919050565b3390565b6001600160a01b0383166108895760405162461bcd60e51b81526004016104d09061107a565b6001600160a01b0382166108af5760405162461bcd60e51b81526004016104d090610e72565b6001600160a01b0380841660008181526001602090815260408083209487168084529490915290819020849055517f8c5be1e5ebec7d5bd14f71427d1e84f3dd0314c0f7b2291e5b200ac8c7c3b9259061090a908590610d5c565b60405180910390a3505050565b6001600160a01b03831661093d5760405162461bcd60e51b81526004016104d09061101d565b6001600160a01b0382166109635760405162461bcd60e51b81526004016104d090610db8565b61096e838383610c0b565b6001600160a01b038316600090815260208190526040902054818110156109a75760405162461bcd60e51b81526004016104d090610ecf565b6109b18282611321565b6001600160a01b0380861660009081526020819052604080822093909355908516815290812080548492906109e79084906111d6565b92505081905550826001600160a01b0316846001600160a01b03167fddf252ad1be2c89b69c2b068fc378daa952ba7f163c4a11628f55a4df523b3ef84604051610a319190610d5c565b60405180910390a350505050565b610a4982826106a6565b6105555760008281526005602090815260408083206001600160a01b03851684529091529020805460ff19166001179055610a8261085f565b6001600160a01b0316816001600160a01b0316837f2f8788117e7eff1d82e926ec794901d17c78024a50270940304540a733656f0d60405160405180910390a45050565b610ad082826106a6565b156105555760008281526005602090815260408083206001600160a01b03851684529091529020805460ff19169055610b0761085f565b6001600160a01b0316816001600160a01b0316837ff6391f5c32d9c69d2a47ea670b442974b53935d1edc7fd64eb21e047a839171b60405160405180910390a45050565b6001600160a01b038216610b715760405162461bcd60e51b81526004016104d090611191565b610b7d60008383610c0b565b8060026000828254610b8f91906111d6565b90915550506001600160a01b03821660009081526020819052604081208054839290610bbc9084906111d6565b90915550506040516001600160a01b038316906000907fddf252ad1be2c89b69c2b068fc378daa952ba7f163c4a11628f55a4df523b3ef90610bff908590610d5c565b60405180910390a35050565b505050565b80356001600160a01b03811681146103a557600080fd5b600060208284031215610c38578081fd5b6104fa82610c10565b60008060408385031215610c53578081fd5b610c5c83610c10565b9150610c6a60208401610c10565b90509250929050565b600080600060608486031215610c87578081fd5b610c9084610c10565b9250610c9e60208501610c10565b9150604084013590509250925092565b60008060408385031215610cc0578182fd5b610cc983610c10565b946020939093013593505050565b600060208284031215610ce8578081fd5b5035919050565b60008060408385031215610d01578182fd5b82359150610c6a60208401610c10565b600060208284031215610d22578081fd5b81357fffffffff00000000000000000000000000000000000000000000000000000000811681146104fa578182fd5b901515815260200190565b90815260200190565b6000602080835283518082850152825b81811015610d9157858101830151858201604001528201610d75565b81811115610da25783604083870101525b50601f01601f1916929092016040019392505050565b60208082526023908201527f45524332303a207472616e7366657220746f20746865207a65726f206164647260408201527f6573730000000000000000000000000000000000000000000000000000000000606082015260800190565b6020808252602f908201527f416363657373436f6e74726f6c3a2073656e646572206d75737420626520616e60408201527f2061646d696e20746f206772616e740000000000000000000000000000000000606082015260800190565b60208082526022908201527f45524332303a20617070726f766520746f20746865207a65726f20616464726560408201527f7373000000000000000000000000000000000000000000000000000000000000606082015260800190565b60208082526026908201527f45524332303a207472616e7366657220616d6f756e742065786365656473206260408201527f616c616e63650000000000000000000000000000000000000000000000000000606082015260800190565b60208082526030908201527f416363657373436f6e74726f6c3a2073656e646572206d75737420626520616e60408201527f2061646d696e20746f207265766f6b6500000000000000000000000000000000606082015260800190565b60208082526016908201527f43616c6c6572206973206e6f742061206d696e74657200000000000000000000604082015260600190565b60208082526028908201527f45524332303a207472616e7366657220616d6f756e742065786365656473206160408201527f6c6c6f77616e6365000000000000000000000000000000000000000000000000606082015260800190565b60208082526025908201527f45524332303a207472616e736665722066726f6d20746865207a65726f20616460408201527f6472657373000000000000000000000000000000000000000000000000000000606082015260800190565b60208082526024908201527f45524332303a20617070726f76652066726f6d20746865207a65726f2061646460408201527f7265737300000000000000000000000000000000000000000000000000000000606082015260800190565b60208082526025908201527f45524332303a2064656372656173656420616c6c6f77616e63652062656c6f7760408201527f207a65726f000000000000000000000000000000000000000000000000000000606082015260800190565b6020808252602f908201527f416363657373436f6e74726f6c3a2063616e206f6e6c792072656e6f756e636560408201527f20726f6c657320666f722073656c660000000000000000000000000000000000606082015260800190565b6020808252601f908201527f45524332303a206d696e7420746f20746865207a65726f206164647265737300604082015260600190565b60ff91909116815260200190565b600082198211156111e9576111e9611373565b500190565b80825b6001808611611200575061122b565b81870482111561121257611212611373565b8086161561121f57918102915b9490941c9380026111f1565b94509492505050565b60006104fa600019848460008261124d575060016104fa565b8161125a575060006104fa565b8160018114611270576002811461127a576112a7565b60019150506104fa565b60ff84111561128b5761128b611373565b6001841b9150848211156112a1576112a1611373565b506104fa565b5060208310610133831016604e8410600b84101617156112da575081810a838111156112d5576112d5611373565b6104fa565b6112e784848460016111ee565b8086048211156112f9576112f9611373565b02949350505050565b600081600019048311821515161561131c5761131c611373565b500290565b60008282101561133357611333611373565b500390565b60028104600182168061134c57607f821691505b6020821081141561136d57634e487b7160e01b600052602260045260246000fd5b50919050565b634e487b7160e01b600052601160045260246000fdfea2646970667358221220de4d14037a98f876b7b08bb2b7d3d05b37719e395af849ca4eece8bfc1e70fc064736f6c63430008000033",
  "linkReferences": {},
  "deployedLinkReferences": {}
}