{
  "_format": "hh-sol-artifact-1",
  "contractName": "SchellingCoin",
  "sourceName": "contracts/SchellingCoin.sol",
  "abi": [
    {
      "inputs": [
        {
          "internalType": "address",
          "name": "minter",
          "type": "address"
        }
      ],
      "stateMutability": "nonpayable",
      "type": "constructor"
    },
    {
      "anonymous": false,
      "inputs": [
        {
          "indexed": true,
          "internalType": "address",
          "name": "owner",
          "type": "address"
        },
        {
          "indexed": true,
          "internalType": "address",
          "name": "spender",
          "type": "address"
        },
        {
          "indexed": false,
          "internalType": "uint256",
          "name": "value",
          "type": "uint256"
        }
      ],
      "name": "Approval",
      "type": "event"
    },
    {
      "anonymous": false,
      "inputs": [
        {
          "indexed": true,
          "internalType": "bytes32",
          "name": "role",
          "type": "bytes32"
        },
        {
          "indexed": true,
          "internalType": "bytes32",
          "name": "previousAdminRole",
          "type": "bytes32"
        },
        {
          "indexed": true,
          "internalType": "bytes32",
          "name": "newAdminRole",
          "type": "bytes32"
        }
      ],
      "name": "RoleAdminChanged",
      "type": "event"
    },
    {
      "anonymous": false,
      "inputs": [
        {
          "indexed": true,
          "internalType": "bytes32",
          "name": "role",
          "type": "bytes32"
        },
        {
          "indexed": true,
          "internalType": "address",
          "name": "account",
          "type": "address"
        },
        {
          "indexed": true,
          "internalType": "address",
          "name": "sender",
          "type": "address"
        }
      ],
      "name": "RoleGranted",
      "type": "event"
    },
    {
      "anonymous": false,
      "inputs": [
        {
          "indexed": true,
          "internalType": "bytes32",
          "name": "role",
          "type": "bytes32"
        },
        {
          "indexed": true,
          "internalType": "address",
          "name": "account",
          "type": "address"
        },
        {
          "indexed": true,
          "internalType": "address",
          "name": "sender",
          "type": "address"
        }
      ],
      "name": "RoleRevoked",
      "type": "event"
    },
    {
      "anonymous": false,
      "inputs": [
        {
          "indexed": true,
          "internalType": "address",
          "name": "from",
          "type": "address"
        },
        {
          "indexed": true,
          "internalType": "address",
          "name": "to",
          "type": "address"
        },
        {
          "indexed": false,
          "internalType": "uint256",
          "name": "value",
          "type": "uint256"
        }
      ],
      "name": "Transfer",
      "type": "event"
    },
    {
      "inputs": [],
      "name": "DECIMALS",
      "outputs": [
        {
          "internalType": "uint8",
          "name": "",
          "type": "uint8"
        }
      ],
      "stateMutability": "view",
      "type": "function"
    },
    {
      "inputs": [],
      "name": "DEFAULT_ADMIN_ROLE",
      "outputs": [
        {
          "internalType": "bytes32",
          "name": "",
          "type": "bytes32"
        }
      ],
      "stateMutability": "view",
      "type": "function"
    },
    {
      "inputs": [],
      "name": "INITIAL_SUPPLY",
      "outputs": [
        {
          "internalType": "uint256",
          "name": "",
          "type": "uint256"
        }
      ],
      "stateMutability": "view",
      "type": "function"
    },
    {
      "inputs": [],
      "name": "MINTER_ROLE",
      "outputs": [
        {
          "internalType": "bytes32",
          "name": "",
          "type": "bytes32"
        }
      ],
      "stateMutability": "view",
      "type": "function"
    },
    {
      "inputs": [
        {
          "internalType": "address",
          "name": "owner",
          "type": "address"
        },
        {
          "internalType": "address",
          "name": "spender",
          "type": "address"
        }
      ],
      "name": "allowance",
      "outputs": [
        {
          "internalType": "uint256",
          "name": "",
          "type": "uint256"
        }
      ],
      "stateMutability": "view",
      "type": "function"
    },
    {
      "inputs": [
        {
          "internalType": "address",
          "name": "spender",
          "type": "address"
        },
        {
          "internalType": "uint256",
          "name": "amount",
          "type": "uint256"
        }
      ],
      "name": "approve",
      "outputs": [
        {
          "internalType": "bool",
          "name": "",
          "type": "bool"
        }
      ],
      "stateMutability": "nonpayable",
      "type": "function"
    },
    {
      "inputs": [
        {
          "internalType": "address",
          "name": "account",
          "type": "address"
        }
      ],
      "name": "balanceOf",
      "outputs": [
        {
          "internalType": "uint256",
          "name": "",
          "type": "uint256"
        }
      ],
      "stateMutability": "view",
      "type": "function"
    },
    {
      "inputs": [],
      "name": "decimals",
      "outputs": [
        {
          "internalType": "uint8",
          "name": "",
          "type": "uint8"
        }
      ],
      "stateMutability": "view",
      "type": "function"
    },
    {
      "inputs": [
        {
          "internalType": "address",
          "name": "spender",
          "type": "address"
        },
        {
          "internalType": "uint256",
          "name": "subtractedValue",
          "type": "uint256"
        }
      ],
      "name": "decreaseAllowance",
      "outputs": [
        {
          "internalType": "bool",
          "name": "",
          "type": "bool"
        }
      ],
      "stateMutability": "nonpayable",
      "type": "function"
    },
    {
      "inputs": [
        {
          "internalType": "bytes32",
          "name": "role",
          "type": "bytes32"
        }
      ],
      "name": "getRoleAdmin",
      "outputs": [
        {
          "internalType": "bytes32",
          "name": "",
          "type": "bytes32"
        }
      ],
      "stateMutability": "view",
      "type": "function"
    },
    {
      "inputs": [
        {
          "internalType": "bytes32",
          "name": "role",
          "type": "bytes32"
        },
        {
          "internalType": "uint256",
          "name": "index",
          "type": "uint256"
        }
      ],
      "name": "getRoleMember",
      "outputs": [
        {
          "internalType": "address",
          "name": "",
          "type": "address"
        }
      ],
      "stateMutability": "view",
      "type": "function"
    },
    {
      "inputs": [
        {
          "internalType": "bytes32",
          "name": "role",
          "type": "bytes32"
        }
      ],
      "name": "getRoleMemberCount",
      "outputs": [
        {
          "internalType": "uint256",
          "name": "",
          "type": "uint256"
        }
      ],
      "stateMutability": "view",
      "type": "function"
    },
    {
      "inputs": [
        {
          "internalType": "bytes32",
          "name": "role",
          "type": "bytes32"
        },
        {
          "internalType": "address",
          "name": "account",
          "type": "address"
        }
      ],
      "name": "grantRole",
      "outputs": [],
      "stateMutability": "nonpayable",
      "type": "function"
    },
    {
      "inputs": [
        {
          "internalType": "bytes32",
          "name": "role",
          "type": "bytes32"
        },
        {
          "internalType": "address",
          "name": "account",
          "type": "address"
        }
      ],
      "name": "hasRole",
      "outputs": [
        {
          "internalType": "bool",
          "name": "",
          "type": "bool"
        }
      ],
      "stateMutability": "view",
      "type": "function"
    },
    {
      "inputs": [
        {
          "internalType": "address",
          "name": "spender",
          "type": "address"
        },
        {
          "internalType": "uint256",
          "name": "addedValue",
          "type": "uint256"
        }
      ],
      "name": "increaseAllowance",
      "outputs": [
        {
          "internalType": "bool",
          "name": "",
          "type": "bool"
        }
      ],
      "stateMutability": "nonpayable",
      "type": "function"
    },
    {
      "inputs": [
        {
          "internalType": "address",
          "name": "account",
          "type": "address"
        },
        {
          "internalType": "uint256",
          "name": "amount",
          "type": "uint256"
        }
      ],
      "name": "mint",
      "outputs": [
        {
          "internalType": "bool",
          "name": "",
          "type": "bool"
        }
      ],
      "stateMutability": "nonpayable",
      "type": "function"
    },
    {
      "inputs": [],
      "name": "name",
      "outputs": [
        {
          "internalType": "string",
          "name": "",
          "type": "string"
        }
      ],
      "stateMutability": "view",
      "type": "function"
    },
    {
      "inputs": [
        {
          "internalType": "bytes32",
          "name": "role",
          "type": "bytes32"
        },
        {
          "internalType": "address",
          "name": "account",
          "type": "address"
        }
      ],
      "name": "renounceRole",
      "outputs": [],
      "stateMutability": "nonpayable",
      "type": "function"
    },
    {
      "inputs": [
        {
          "internalType": "bytes32",
          "name": "role",
          "type": "bytes32"
        },
        {
          "internalType": "address",
          "name": "account",
          "type": "address"
        }
      ],
      "name": "revokeRole",
      "outputs": [],
      "stateMutability": "nonpayable",
      "type": "function"
    },
    {
      "inputs": [],
      "name": "symbol",
      "outputs": [
        {
          "internalType": "string",
          "name": "",
          "type": "string"
        }
      ],
      "stateMutability": "view",
      "type": "function"
    },
    {
      "inputs": [],
      "name": "totalSupply",
      "outputs": [
        {
          "internalType": "uint256",
          "name": "",
          "type": "uint256"
        }
      ],
      "stateMutability": "view",
      "type": "function"
    },
    {
      "inputs": [
        {
          "internalType": "address",
          "name": "recipient",
          "type": "address"
        },
        {
          "internalType": "uint256",
          "name": "amount",
          "type": "uint256"
        }
      ],
      "name": "transfer",
      "outputs": [
        {
          "internalType": "bool",
          "name": "",
          "type": "bool"
        }
      ],
      "stateMutability": "nonpayable",
      "type": "function"
    },
    {
      "inputs": [
        {
          "internalType": "address",
          "name": "sender",
          "type": "address"
        },
        {
          "internalType": "address",
          "name": "recipient",
          "type": "address"
        },
        {
          "internalType": "uint256",
          "name": "amount",
          "type": "uint256"
        }
      ],
      "name": "transferFrom",
      "outputs": [
        {
          "internalType": "bool",
          "name": "",
          "type": "bool"
        }
      ],
      "stateMutability": "nonpayable",
      "type": "function"
    }
  ],
  "bytecode": "0x60806040523480156200001157600080fd5b50604051620017c6380380620017c6833981810160405260208110156200003757600080fd5b5051604080518082018252600d81526c29b1b432b63634b733a1b7b4b760991b602082810191825283518085019094526003808552620a686960eb1b9185019190915282519293926200008b9290620003c1565b508051620000a1906004906020840190620003c1565b50506005805460ff1916601217905550620000d2336b033b2e3c9fd0803ce80000006001600160e01b036200010e16565b604080516a4d494e5445525f524f4c4560a81b8152905190819003600b0190206200010790826001600160e01b036200022616565b5062000463565b6001600160a01b0382166200016a576040805162461bcd60e51b815260206004820152601f60248201527f45524332303a206d696e7420746f20746865207a65726f206164647265737300604482015290519081900360640190fd5b62000181600083836001600160e01b036200023f16565b6200019d816002546200024460201b62000a5f1790919060201c565b6002556001600160a01b03821660009081526020818152604090912054620001d091839062000a5f62000244821b17901c565b6001600160a01b0383166000818152602081815260408083209490945583518581529351929391927fddf252ad1be2c89b69c2b068fc378daa952ba7f163c4a11628f55a4df523b3ef9281900390910190a35050565b6200023b82826001600160e01b03620002a816565b5050565b505050565b6000828201838110156200029f576040805162461bcd60e51b815260206004820152601b60248201527f536166654d6174683a206164646974696f6e206f766572666c6f770000000000604482015290519081900360640190fd5b90505b92915050565b6000828152600660209081526040909120620002cf91839062000ab96200032c821b17901c565b156200023b57620002e86001600160e01b036200034c16565b6001600160a01b0316816001600160a01b0316837f2f8788117e7eff1d82e926ec794901d17c78024a50270940304540a733656f0d60405160405180910390a45050565b60006200029f836001600160a01b0384166001600160e01b036200035116565b335b90565b60006200036883836001600160e01b03620003a916565b620003a057508154600181810184556000848152602080822090930184905584548482528286019093526040902091909155620002a2565b506000620002a2565b60009081526001919091016020526040902054151590565b828054600181600116156101000203166002900490600052602060002090601f016020900481019282601f106200040457805160ff191683800117855562000434565b8280016001018555821562000434579182015b828111156200043457825182559160200191906001019062000417565b506200044292915062000446565b5090565b6200034e91905b808211156200044257600081556001016200044d565b61135380620004736000396000f3fe608060405234801561001057600080fd5b506004361061018d5760003560e01c806340c10f19116100e3578063a457c2d71161008c578063d539139311610066578063d5391393146104b2578063d547741f146104ba578063dd62ed3e146104e65761018d565b8063a457c2d71461043d578063a9059cbb14610469578063ca15c873146104955761018d565b806391d14854116100bd57806391d148541461040157806395d89b411461042d578063a217fddf146104355761018d565b806340c10f191461037057806370a082311461039c5780639010d07c146103c25761018d565b80632e0f262511610145578063313ce5671161011f578063313ce5671461031057806336568abe1461031857806339509351146103445761018d565b80632e0f2625146102bc5780632f2ff15d146102da5780632ff2e9dc146103085761018d565b806318160ddd1161017657806318160ddd1461024f57806323b872dd14610269578063248a9ca31461029f5761018d565b806306fdde0314610192578063095ea7b31461020f575b600080fd5b61019a610514565b6040805160208082528351818301528351919283929083019185019080838360005b838110156101d45781810151838201526020016101bc565b50505050905090810190601f1680156102015780820380516001836020036101000a031916815260200191505b509250505060405180910390f35b61023b6004803603604081101561022557600080fd5b506001600160a01b0381351690602001356105aa565b604080519115158252519081900360200190f35b6102576105c8565b60408051918252519081900360200190f35b61023b6004803603606081101561027f57600080fd5b506001600160a01b038135811691602081013590911690604001356105ce565b610257600480360360208110156102b557600080fd5b503561065b565b6102c4610670565b6040805160ff9092168252519081900360200190f35b610306600480360360408110156102f057600080fd5b50803590602001356001600160a01b0316610675565b005b6102576106e1565b6102c46106f1565b6103066004803603604081101561032e57600080fd5b50803590602001356001600160a01b03166106fa565b61023b6004803603604081101561035a57600080fd5b506001600160a01b03813516906020013561075b565b61023b6004803603604081101561038657600080fd5b506001600160a01b0381351690602001356107af565b610257600480360360208110156103b257600080fd5b50356001600160a01b0316610849565b6103e5600480360360408110156103d857600080fd5b5080359060200135610864565b604080516001600160a01b039092168252519081900360200190f35b61023b6004803603604081101561041757600080fd5b50803590602001356001600160a01b0316610889565b61019a6108a7565b610257610908565b61023b6004803603604081101561045357600080fd5b506001600160a01b03813516906020013561090d565b61023b6004803603604081101561047f57600080fd5b506001600160a01b03813516906020013561097b565b610257600480360360208110156104ab57600080fd5b503561098f565b6102576109a6565b610306600480360360408110156104d057600080fd5b50803590602001356001600160a01b03166109db565b610257600480360360408110156104fc57600080fd5b506001600160a01b0381358116916020013516610a34565b60038054604080516020601f60026000196101006001881615020190951694909404938401819004810282018101909252828152606093909290918301828280156105a05780601f10610575576101008083540402835291602001916105a0565b820191906000526020600020905b81548152906001019060200180831161058357829003601f168201915b5050505050905090565b60006105be6105b7610ace565b8484610ad2565b5060015b92915050565b60025490565b60006105db848484610bbe565b610651846105e7610ace565b61064c85604051806060016040528060288152602001611259602891396001600160a01b038a16600090815260016020526040812090610625610ace565b6001600160a01b03168152602081019190915260400160002054919063ffffffff610d2516565b610ad2565b5060019392505050565b60009081526006602052604090206002015490565b601281565b60008281526006602052604090206002015461069890610693610ace565b610889565b6106d35760405162461bcd60e51b815260040180806020018281038252602f8152602001806111b2602f913960400191505060405180910390fd5b6106dd8282610dbc565b5050565b6b033b2e3c9fd0803ce800000081565b60055460ff1690565b610702610ace565b6001600160a01b0316816001600160a01b0316146107515760405162461bcd60e51b815260040180806020018281038252602f8152602001806112ef602f913960400191505060405180910390fd5b6106dd8282610e2b565b60006105be610768610ace565b8461064c8560016000610779610ace565b6001600160a01b03908116825260208083019390935260409182016000908120918c16815292529020549063ffffffff610a5f16565b604080517f4d494e5445525f524f4c450000000000000000000000000000000000000000008152905190819003600b0190206000906107ee9033610889565b61083f576040805162461bcd60e51b815260206004820152601660248201527f43616c6c6572206973206e6f742061206d696e74657200000000000000000000604482015290519081900360640190fd5b6105be8383610e9a565b6001600160a01b031660009081526020819052604090205490565b6000828152600660205260408120610882908363ffffffff610f9616565b9392505050565b6000828152600660205260408120610882908363ffffffff610fa216565b60048054604080516020601f60026000196101006001881615020190951694909404938401819004810282018101909252828152606093909290918301828280156105a05780601f10610575576101008083540402835291602001916105a0565b600081565b60006105be61091a610ace565b8461064c856040518060600160405280602581526020016112ca6025913960016000610944610ace565b6001600160a01b03908116825260208083019390935260409182016000908120918d1681529252902054919063ffffffff610d2516565b60006105be610988610ace565b8484610bbe565b60008181526006602052604081206105c290610fb7565b604080517f4d494e5445525f524f4c450000000000000000000000000000000000000000008152905190819003600b01902081565b6000828152600660205260409020600201546109f990610693610ace565b6107515760405162461bcd60e51b81526004018080602001828103825260308152602001806112296030913960400191505060405180910390fd5b6001600160a01b03918216600090815260016020908152604080832093909416825291909152205490565b600082820183811015610882576040805162461bcd60e51b815260206004820152601b60248201527f536166654d6174683a206164646974696f6e206f766572666c6f770000000000604482015290519081900360640190fd5b6000610882836001600160a01b038416610fc2565b3390565b6001600160a01b038316610b175760405162461bcd60e51b81526004018080602001828103825260248152602001806112a66024913960400191505060405180910390fd5b6001600160a01b038216610b5c5760405162461bcd60e51b81526004018080602001828103825260228152602001806111e16022913960400191505060405180910390fd5b6001600160a01b03808416600081815260016020908152604080832094871680845294825291829020859055815185815291517f8c5be1e5ebec7d5bd14f71427d1e84f3dd0314c0f7b2291e5b200ac8c7c3b9259281900390910190a3505050565b6001600160a01b038316610c035760405162461bcd60e51b81526004018080602001828103825260258152602001806112816025913960400191505060405180910390fd5b6001600160a01b038216610c485760405162461bcd60e51b815260040180806020018281038252602381526020018061118f6023913960400191505060405180910390fd5b610c5383838361100c565b610c9681604051806060016040528060268152602001611203602691396001600160a01b038616600090815260208190526040902054919063ffffffff610d2516565b6001600160a01b038085166000908152602081905260408082209390935590841681522054610ccb908263ffffffff610a5f16565b6001600160a01b038084166000818152602081815260409182902094909455805185815290519193928716927fddf252ad1be2c89b69c2b068fc378daa952ba7f163c4a11628f55a4df523b3ef92918290030190a3505050565b60008184841115610db45760405162461bcd60e51b81526004018080602001828103825283818151815260200191508051906020019080838360005b83811015610d79578181015183820152602001610d61565b50505050905090810190601f168015610da65780820380516001836020036101000a031916815260200191505b509250505060405180910390fd5b505050900390565b6000828152600660205260409020610dda908263ffffffff610ab916565b156106dd57610de7610ace565b6001600160a01b0316816001600160a01b0316837f2f8788117e7eff1d82e926ec794901d17c78024a50270940304540a733656f0d60405160405180910390a45050565b6000828152600660205260409020610e49908263ffffffff61101116565b156106dd57610e56610ace565b6001600160a01b0316816001600160a01b0316837ff6391f5c32d9c69d2a47ea670b442974b53935d1edc7fd64eb21e047a839171b60405160405180910390a45050565b6001600160a01b038216610ef5576040805162461bcd60e51b815260206004820152601f60248201527f45524332303a206d696e7420746f20746865207a65726f206164647265737300604482015290519081900360640190fd5b610f016000838361100c565b600254610f14908263ffffffff610a5f16565b6002556001600160a01b038216600090815260208190526040902054610f40908263ffffffff610a5f16565b6001600160a01b0383166000818152602081815260408083209490945583518581529351929391927fddf252ad1be2c89b69c2b068fc378daa952ba7f163c4a11628f55a4df523b3ef9281900390910190a35050565b60006108828383611026565b6000610882836001600160a01b03841661108a565b60006105c2826110a2565b6000610fce838361108a565b611004575081546001818101845560008481526020808220909301849055845484825282860190935260409020919091556105c2565b5060006105c2565b505050565b6000610882836001600160a01b0384166110a6565b815460009082106110685760405162461bcd60e51b815260040180806020018281038252602281526020018061116d6022913960400191505060405180910390fd5b82600001828154811061107757fe5b9060005260206000200154905092915050565b60009081526001919091016020526040902054151590565b5490565b6000818152600183016020526040812054801561116257835460001980830191908101906000908790839081106110d957fe5b90600052602060002001549050808760000184815481106110f657fe5b60009182526020808320909101929092558281526001898101909252604090209084019055865487908061112657fe5b600190038181906000526020600020016000905590558660010160008781526020019081526020016000206000905560019450505050506105c2565b60009150506105c256fe456e756d657261626c655365743a20696e646578206f7574206f6620626f756e647345524332303a207472616e7366657220746f20746865207a65726f2061646472657373416363657373436f6e74726f6c3a2073656e646572206d75737420626520616e2061646d696e20746f206772616e7445524332303a20617070726f766520746f20746865207a65726f206164647265737345524332303a207472616e7366657220616d6f756e7420657863656564732062616c616e6365416363657373436f6e74726f6c3a2073656e646572206d75737420626520616e2061646d696e20746f207265766f6b6545524332303a207472616e7366657220616d6f756e74206578636565647320616c6c6f77616e636545524332303a207472616e736665722066726f6d20746865207a65726f206164647265737345524332303a20617070726f76652066726f6d20746865207a65726f206164647265737345524332303a2064656372656173656420616c6c6f77616e63652062656c6f77207a65726f416363657373436f6e74726f6c3a2063616e206f6e6c792072656e6f756e636520726f6c657320666f722073656c66a2646970667358221220bc6cdb22e258583ac535c8f271b487daab5f69cee8059feee8087e0ef5276e3364736f6c634300060b0033",
  "linkReferences": {},
  "deployedLinkReferences": {}
}