{
  "_format": "hh-sol-artifact-1",
  "contractName": "SchellingCoin",
  "sourceName": "contracts/SchellingCoin.sol",
  "abi": [
    {
      "inputs": [
        {
          "internalType": "address",
          "name": "minter",
          "type": "address"
        }
      ],
      "stateMutability": "nonpayable",
      "type": "constructor"
    },
    {
      "anonymous": false,
      "inputs": [
        {
          "indexed": true,
          "internalType": "address",
          "name": "owner",
          "type": "address"
        },
        {
          "indexed": true,
          "internalType": "address",
          "name": "spender",
          "type": "address"
        },
        {
          "indexed": false,
          "internalType": "uint256",
          "name": "value",
          "type": "uint256"
        }
      ],
      "name": "Approval",
      "type": "event"
    },
    {
      "anonymous": false,
      "inputs": [
        {
          "indexed": true,
          "internalType": "bytes32",
          "name": "role",
          "type": "bytes32"
        },
        {
          "indexed": true,
          "internalType": "bytes32",
          "name": "previousAdminRole",
          "type": "bytes32"
        },
        {
          "indexed": true,
          "internalType": "bytes32",
          "name": "newAdminRole",
          "type": "bytes32"
        }
      ],
      "name": "RoleAdminChanged",
      "type": "event"
    },
    {
      "anonymous": false,
      "inputs": [
        {
          "indexed": true,
          "internalType": "bytes32",
          "name": "role",
          "type": "bytes32"
        },
        {
          "indexed": true,
          "internalType": "address",
          "name": "account",
          "type": "address"
        },
        {
          "indexed": true,
          "internalType": "address",
          "name": "sender",
          "type": "address"
        }
      ],
      "name": "RoleGranted",
      "type": "event"
    },
    {
      "anonymous": false,
      "inputs": [
        {
          "indexed": true,
          "internalType": "bytes32",
          "name": "role",
          "type": "bytes32"
        },
        {
          "indexed": true,
          "internalType": "address",
          "name": "account",
          "type": "address"
        },
        {
          "indexed": true,
          "internalType": "address",
          "name": "sender",
          "type": "address"
        }
      ],
      "name": "RoleRevoked",
      "type": "event"
    },
    {
      "anonymous": false,
      "inputs": [
        {
          "indexed": true,
          "internalType": "address",
          "name": "from",
          "type": "address"
        },
        {
          "indexed": true,
          "internalType": "address",
          "name": "to",
          "type": "address"
        },
        {
          "indexed": false,
          "internalType": "uint256",
          "name": "value",
          "type": "uint256"
        }
      ],
      "name": "Transfer",
      "type": "event"
    },
    {
      "inputs": [],
      "name": "DECIMALS",
      "outputs": [
        {
          "internalType": "uint8",
          "name": "",
          "type": "uint8"
        }
      ],
      "stateMutability": "view",
      "type": "function"
    },
    {
      "inputs": [],
      "name": "DEFAULT_ADMIN_ROLE",
      "outputs": [
        {
          "internalType": "bytes32",
          "name": "",
          "type": "bytes32"
        }
      ],
      "stateMutability": "view",
      "type": "function"
    },
    {
      "inputs": [],
      "name": "INITIAL_SUPPLY",
      "outputs": [
        {
          "internalType": "uint256",
          "name": "",
          "type": "uint256"
        }
      ],
      "stateMutability": "view",
      "type": "function"
    },
    {
      "inputs": [],
      "name": "MINTER_ROLE",
      "outputs": [
        {
          "internalType": "bytes32",
          "name": "",
          "type": "bytes32"
        }
      ],
      "stateMutability": "view",
      "type": "function"
    },
    {
      "inputs": [
        {
          "internalType": "address",
          "name": "owner",
          "type": "address"
        },
        {
          "internalType": "address",
          "name": "spender",
          "type": "address"
        }
      ],
      "name": "allowance",
      "outputs": [
        {
          "internalType": "uint256",
          "name": "",
          "type": "uint256"
        }
      ],
      "stateMutability": "view",
      "type": "function"
    },
    {
      "inputs": [
        {
          "internalType": "address",
          "name": "spender",
          "type": "address"
        },
        {
          "internalType": "uint256",
          "name": "amount",
          "type": "uint256"
        }
      ],
      "name": "approve",
      "outputs": [
        {
          "internalType": "bool",
          "name": "",
          "type": "bool"
        }
      ],
      "stateMutability": "nonpayable",
      "type": "function"
    },
    {
      "inputs": [
        {
          "internalType": "address",
          "name": "account",
          "type": "address"
        }
      ],
      "name": "balanceOf",
      "outputs": [
        {
          "internalType": "uint256",
          "name": "",
          "type": "uint256"
        }
      ],
      "stateMutability": "view",
      "type": "function"
    },
    {
      "inputs": [],
      "name": "decimals",
      "outputs": [
        {
          "internalType": "uint8",
          "name": "",
          "type": "uint8"
        }
      ],
      "stateMutability": "view",
      "type": "function"
    },
    {
      "inputs": [
        {
          "internalType": "address",
          "name": "spender",
          "type": "address"
        },
        {
          "internalType": "uint256",
          "name": "subtractedValue",
          "type": "uint256"
        }
      ],
      "name": "decreaseAllowance",
      "outputs": [
        {
          "internalType": "bool",
          "name": "",
          "type": "bool"
        }
      ],
      "stateMutability": "nonpayable",
      "type": "function"
    },
    {
      "inputs": [
        {
          "internalType": "bytes32",
          "name": "role",
          "type": "bytes32"
        }
      ],
      "name": "getRoleAdmin",
      "outputs": [
        {
          "internalType": "bytes32",
          "name": "",
          "type": "bytes32"
        }
      ],
      "stateMutability": "view",
      "type": "function"
    },
    {
      "inputs": [
        {
          "internalType": "bytes32",
          "name": "role",
          "type": "bytes32"
        },
        {
          "internalType": "address",
          "name": "account",
          "type": "address"
        }
      ],
      "name": "grantRole",
      "outputs": [],
      "stateMutability": "nonpayable",
      "type": "function"
    },
    {
      "inputs": [
        {
          "internalType": "bytes32",
          "name": "role",
          "type": "bytes32"
        },
        {
          "internalType": "address",
          "name": "account",
          "type": "address"
        }
      ],
      "name": "hasRole",
      "outputs": [
        {
          "internalType": "bool",
          "name": "",
          "type": "bool"
        }
      ],
      "stateMutability": "view",
      "type": "function"
    },
    {
      "inputs": [
        {
          "internalType": "address",
          "name": "spender",
          "type": "address"
        },
        {
          "internalType": "uint256",
          "name": "addedValue",
          "type": "uint256"
        }
      ],
      "name": "increaseAllowance",
      "outputs": [
        {
          "internalType": "bool",
          "name": "",
          "type": "bool"
        }
      ],
      "stateMutability": "nonpayable",
      "type": "function"
    },
    {
      "inputs": [
        {
          "internalType": "address",
          "name": "account",
          "type": "address"
        },
        {
          "internalType": "uint256",
          "name": "amount",
          "type": "uint256"
        }
      ],
      "name": "mint",
      "outputs": [
        {
          "internalType": "bool",
          "name": "",
          "type": "bool"
        }
      ],
      "stateMutability": "nonpayable",
      "type": "function"
    },
    {
      "inputs": [],
      "name": "name",
      "outputs": [
        {
          "internalType": "string",
          "name": "",
          "type": "string"
        }
      ],
      "stateMutability": "view",
      "type": "function"
    },
    {
      "inputs": [
        {
          "internalType": "bytes32",
          "name": "role",
          "type": "bytes32"
        },
        {
          "internalType": "address",
          "name": "account",
          "type": "address"
        }
      ],
      "name": "renounceRole",
      "outputs": [],
      "stateMutability": "nonpayable",
      "type": "function"
    },
    {
      "inputs": [
        {
          "internalType": "bytes32",
          "name": "role",
          "type": "bytes32"
        },
        {
          "internalType": "address",
          "name": "account",
          "type": "address"
        }
      ],
      "name": "revokeRole",
      "outputs": [],
      "stateMutability": "nonpayable",
      "type": "function"
    },
    {
      "inputs": [
        {
          "internalType": "bytes4",
          "name": "interfaceId",
          "type": "bytes4"
        }
      ],
      "name": "supportsInterface",
      "outputs": [
        {
          "internalType": "bool",
          "name": "",
          "type": "bool"
        }
      ],
      "stateMutability": "view",
      "type": "function"
    },
    {
      "inputs": [],
      "name": "symbol",
      "outputs": [
        {
          "internalType": "string",
          "name": "",
          "type": "string"
        }
      ],
      "stateMutability": "view",
      "type": "function"
    },
    {
      "inputs": [],
      "name": "totalSupply",
      "outputs": [
        {
          "internalType": "uint256",
          "name": "",
          "type": "uint256"
        }
      ],
      "stateMutability": "view",
      "type": "function"
    },
    {
      "inputs": [
        {
          "internalType": "address",
          "name": "recipient",
          "type": "address"
        },
        {
          "internalType": "uint256",
          "name": "amount",
          "type": "uint256"
        }
      ],
      "name": "transfer",
      "outputs": [
        {
          "internalType": "bool",
          "name": "",
          "type": "bool"
        }
      ],
      "stateMutability": "nonpayable",
      "type": "function"
    },
    {
      "inputs": [
        {
          "internalType": "address",
          "name": "sender",
          "type": "address"
        },
        {
          "internalType": "address",
          "name": "recipient",
          "type": "address"
        },
        {
          "internalType": "uint256",
          "name": "amount",
          "type": "uint256"
        }
      ],
      "name": "transferFrom",
      "outputs": [
        {
          "internalType": "bool",
          "name": "",
          "type": "bool"
        }
      ],
      "stateMutability": "nonpayable",
      "type": "function"
    }
  ],
  "bytecode": "0x60806040523480156200001157600080fd5b50604051620018c0380380620018c083398101604081905262000034916200034f565b6040518060400160405280600d81526020016c29b1b432b63634b733a1b7b4b760991b815250604051806040016040528060038152602001620a686960eb1b81525081600390805190602001906200008e929190620002a9565b508051620000a4906004906020840190620002a9565b50620000d29150339050620000bc6012600a62000427565b620000cc90633b9aca006200050f565b62000105565b620000fe7f9f2df0fed2c77648de5860a4cc508cd0818c85b8b8a1ab4ceeef8d981c8956a682620001d9565b5062000584565b6001600160a01b038216620001375760405162461bcd60e51b81526004016200012e906200037f565b60405180910390fd5b6200014560008383620001e9565b8060026000828254620001599190620003bf565b90915550506001600160a01b0382166000908152602081905260408120805483929062000188908490620003bf565b90915550506040516001600160a01b038316906000907fddf252ad1be2c89b69c2b068fc378daa952ba7f163c4a11628f55a4df523b3ef90620001cd908590620003b6565b60405180910390a35050565b620001e58282620001ee565b5050565b505050565b620001fa82826200027a565b620001e55760008281526005602090815260408083206001600160a01b03851684529091529020805460ff1916600117905562000236620002a5565b6001600160a01b0316816001600160a01b0316837f2f8788117e7eff1d82e926ec794901d17c78024a50270940304540a733656f0d60405160405180910390a45050565b60009182526005602090815260408084206001600160a01b0393909316845291905290205460ff1690565b3390565b828054620002b79062000531565b90600052602060002090601f016020900481019282620002db576000855562000326565b82601f10620002f657805160ff191683800117855562000326565b8280016001018555821562000326579182015b828111156200032657825182559160200191906001019062000309565b506200033492915062000338565b5090565b5b8082111562000334576000815560010162000339565b60006020828403121562000361578081fd5b81516001600160a01b038116811462000378578182fd5b9392505050565b6020808252601f908201527f45524332303a206d696e7420746f20746865207a65726f206164647265737300604082015260600190565b90815260200190565b60008219821115620003d557620003d56200056e565b500190565b80825b6001808611620003ee57506200041e565b8187048211156200040357620004036200056e565b808616156200041157918102915b9490941c938002620003dd565b94509492505050565b6000620003786000198484600082620004435750600162000378565b81620004525750600062000378565b81600181146200046b57600281146200047657620004aa565b600191505062000378565b60ff8411156200048a576200048a6200056e565b6001841b915084821115620004a357620004a36200056e565b5062000378565b5060208310610133831016604e8410600b8410161715620004e2575081810a83811115620004dc57620004dc6200056e565b62000378565b620004f18484846001620003da565b8086048211156200050657620005066200056e565b02949350505050565b60008160001904831182151516156200052c576200052c6200056e565b500290565b6002810460018216806200054657607f821691505b602082108114156200056857634e487b7160e01b600052602260045260246000fd5b50919050565b634e487b7160e01b600052601160045260246000fd5b61132c80620005946000396000f3fe608060405234801561001057600080fd5b50600436106101825760003560e01c806339509351116100d8578063a217fddf1161008c578063d539139311610066578063d5391393146102e2578063d547741f146102ea578063dd62ed3e146102fd57610182565b8063a217fddf146102b4578063a457c2d7146102bc578063a9059cbb146102cf57610182565b806370a08231116100bd57806370a082311461028657806391d148541461029957806395d89b41146102ac57610182565b8063395093511461026057806340c10f191461027357610182565b8063248a9ca31161013a5780632ff2e9dc116101145780632ff2e9dc1461023d578063313ce5671461024557806336568abe1461024d57610182565b8063248a9ca3146102005780632e0f2625146102135780632f2ff15d1461022857610182565b8063095ea7b31161016b578063095ea7b3146101c557806318160ddd146101d857806323b872dd146101ed57610182565b806301ffc9a71461018757806306fdde03146101b0575b600080fd5b61019a610195366004610c7e565b610310565b6040516101a79190610cbe565b60405180910390f35b6101b861036e565b6040516101a79190610cd2565b61019a6101d3366004610c1b565b610400565b6101e061041d565b6040516101a79190610cc9565b61019a6101fb366004610be0565b610423565b6101e061020e366004610c44565b6104c5565b61021b6104da565b6040516101a79190611135565b61023b610236366004610c5c565b6104df565b005b6101e061051d565b61021b61053a565b61023b61025b366004610c5c565b61053f565b61019a61026e366004610c1b565b610581565b61019a610281366004610c1b565b6105d0565b6101e0610294366004610b94565b610622565b61019a6102a7366004610c5c565b61063d565b6101b8610668565b6101e0610677565b61019a6102ca366004610c1b565b61067c565b61019a6102dd366004610c1b565b6106f7565b6101e061070b565b61023b6102f8366004610c5c565b61072f565b6101e061030b366004610bae565b610757565b60007fffffffff0000000000000000000000000000000000000000000000000000000082167f7965db0b000000000000000000000000000000000000000000000000000000001480610366575061036682610782565b90505b919050565b60606003805461037d906112a5565b80601f01602080910402602001604051908101604052809291908181526020018280546103a9906112a5565b80156103f65780601f106103cb576101008083540402835291602001916103f6565b820191906000526020600020905b8154815290600101906020018083116103d957829003601f168201915b5050505050905090565b600061041461040d6107cc565b84846107d0565b50600192915050565b60025490565b6000610430848484610884565b6001600160a01b0384166000908152600160205260408120816104516107cc565b6001600160a01b03166001600160a01b031681526020019081526020016000205490508281101561049d5760405162461bcd60e51b815260040161049490610f2d565b60405180910390fd5b6104b8856104a96107cc565b6104b3868561128e565b6107d0565b60019150505b9392505050565b60009081526005602052604090206001015490565b601281565b6104f36104eb836104c5565b6102a76107cc565b61050f5760405162461bcd60e51b815260040161049490610d82565b61051982826109ac565b5050565b6105296012600a6111a1565b61053790633b9aca0061126f565b81565b601290565b6105476107cc565b6001600160a01b0316816001600160a01b0316146105775760405162461bcd60e51b8152600401610494906110a1565b6105198282610a33565b600061041461058e6107cc565b84846001600061059c6107cc565b6001600160a01b03908116825260208083019390935260409182016000908120918b16815292529020546104b39190611143565b60006105fc7f9f2df0fed2c77648de5860a4cc508cd0818c85b8b8a1ab4ceeef8d981c8956a63361063d565b6106185760405162461bcd60e51b815260040161049490610ef6565b6104148383610ab8565b6001600160a01b031660009081526020819052604090205490565b60009182526005602090815260408084206001600160a01b0393909316845291905290205460ff1690565b60606004805461037d906112a5565b600081565b6000806001600061068b6107cc565b6001600160a01b03908116825260208083019390935260409182016000908120918816815292529020549050828110156106d75760405162461bcd60e51b815260040161049490611044565b6106ed6106e26107cc565b856104b3868561128e565b5060019392505050565b60006104146107046107cc565b8484610884565b7f9f2df0fed2c77648de5860a4cc508cd0818c85b8b8a1ab4ceeef8d981c8956a681565b61073b6104eb836104c5565b6105775760405162461bcd60e51b815260040161049490610e99565b6001600160a01b03918216600090815260016020908152604080832093909416825291909152205490565b7fffffffff0000000000000000000000000000000000000000000000000000000081167f01ffc9a70000000000000000000000000000000000000000000000000000000014919050565b3390565b6001600160a01b0383166107f65760405162461bcd60e51b815260040161049490610fe7565b6001600160a01b03821661081c5760405162461bcd60e51b815260040161049490610ddf565b6001600160a01b0380841660008181526001602090815260408083209487168084529490915290819020849055517f8c5be1e5ebec7d5bd14f71427d1e84f3dd0314c0f7b2291e5b200ac8c7c3b92590610877908590610cc9565b60405180910390a3505050565b6001600160a01b0383166108aa5760405162461bcd60e51b815260040161049490610f8a565b6001600160a01b0382166108d05760405162461bcd60e51b815260040161049490610d25565b6108db838383610b78565b6001600160a01b038316600090815260208190526040902054818110156109145760405162461bcd60e51b815260040161049490610e3c565b61091e828261128e565b6001600160a01b038086166000908152602081905260408082209390935590851681529081208054849290610954908490611143565b92505081905550826001600160a01b0316846001600160a01b03167fddf252ad1be2c89b69c2b068fc378daa952ba7f163c4a11628f55a4df523b3ef8460405161099e9190610cc9565b60405180910390a350505050565b6109b6828261063d565b6105195760008281526005602090815260408083206001600160a01b03851684529091529020805460ff191660011790556109ef6107cc565b6001600160a01b0316816001600160a01b0316837f2f8788117e7eff1d82e926ec794901d17c78024a50270940304540a733656f0d60405160405180910390a45050565b610a3d828261063d565b156105195760008281526005602090815260408083206001600160a01b03851684529091529020805460ff19169055610a746107cc565b6001600160a01b0316816001600160a01b0316837ff6391f5c32d9c69d2a47ea670b442974b53935d1edc7fd64eb21e047a839171b60405160405180910390a45050565b6001600160a01b038216610ade5760405162461bcd60e51b8152600401610494906110fe565b610aea60008383610b78565b8060026000828254610afc9190611143565b90915550506001600160a01b03821660009081526020819052604081208054839290610b29908490611143565b90915550506040516001600160a01b038316906000907fddf252ad1be2c89b69c2b068fc378daa952ba7f163c4a11628f55a4df523b3ef90610b6c908590610cc9565b60405180910390a35050565b505050565b80356001600160a01b038116811461036957600080fd5b600060208284031215610ba5578081fd5b6104be82610b7d565b60008060408385031215610bc0578081fd5b610bc983610b7d565b9150610bd760208401610b7d565b90509250929050565b600080600060608486031215610bf4578081fd5b610bfd84610b7d565b9250610c0b60208501610b7d565b9150604084013590509250925092565b60008060408385031215610c2d578182fd5b610c3683610b7d565b946020939093013593505050565b600060208284031215610c55578081fd5b5035919050565b60008060408385031215610c6e578182fd5b82359150610bd760208401610b7d565b600060208284031215610c8f578081fd5b81357fffffffff00000000000000000000000000000000000000000000000000000000811681146104be578182fd5b901515815260200190565b90815260200190565b6000602080835283518082850152825b81811015610cfe57858101830151858201604001528201610ce2565b81811115610d0f5783604083870101525b50601f01601f1916929092016040019392505050565b60208082526023908201527f45524332303a207472616e7366657220746f20746865207a65726f206164647260408201527f6573730000000000000000000000000000000000000000000000000000000000606082015260800190565b6020808252602f908201527f416363657373436f6e74726f6c3a2073656e646572206d75737420626520616e60408201527f2061646d696e20746f206772616e740000000000000000000000000000000000606082015260800190565b60208082526022908201527f45524332303a20617070726f766520746f20746865207a65726f20616464726560408201527f7373000000000000000000000000000000000000000000000000000000000000606082015260800190565b60208082526026908201527f45524332303a207472616e7366657220616d6f756e742065786365656473206260408201527f616c616e63650000000000000000000000000000000000000000000000000000606082015260800190565b60208082526030908201527f416363657373436f6e74726f6c3a2073656e646572206d75737420626520616e60408201527f2061646d696e20746f207265766f6b6500000000000000000000000000000000606082015260800190565b60208082526016908201527f43616c6c6572206973206e6f742061206d696e74657200000000000000000000604082015260600190565b60208082526028908201527f45524332303a207472616e7366657220616d6f756e742065786365656473206160408201527f6c6c6f77616e6365000000000000000000000000000000000000000000000000606082015260800190565b60208082526025908201527f45524332303a207472616e736665722066726f6d20746865207a65726f20616460408201527f6472657373000000000000000000000000000000000000000000000000000000606082015260800190565b60208082526024908201527f45524332303a20617070726f76652066726f6d20746865207a65726f2061646460408201527f7265737300000000000000000000000000000000000000000000000000000000606082015260800190565b60208082526025908201527f45524332303a2064656372656173656420616c6c6f77616e63652062656c6f7760408201527f207a65726f000000000000000000000000000000000000000000000000000000606082015260800190565b6020808252602f908201527f416363657373436f6e74726f6c3a2063616e206f6e6c792072656e6f756e636560408201527f20726f6c657320666f722073656c660000000000000000000000000000000000606082015260800190565b6020808252601f908201527f45524332303a206d696e7420746f20746865207a65726f206164647265737300604082015260600190565b60ff91909116815260200190565b60008219821115611156576111566112e0565b500190565b80825b600180861161116d5750611198565b81870482111561117f5761117f6112e0565b8086161561118c57918102915b9490941c93800261115e565b94509492505050565b60006104be60001984846000826111ba575060016104be565b816111c7575060006104be565b81600181146111dd57600281146111e757611214565b60019150506104be565b60ff8411156111f8576111f86112e0565b6001841b91508482111561120e5761120e6112e0565b506104be565b5060208310610133831016604e8410600b8410161715611247575081810a83811115611242576112426112e0565b6104be565b611254848484600161115b565b808604821115611266576112666112e0565b02949350505050565b6000816000190483118215151615611289576112896112e0565b500290565b6000828210156112a0576112a06112e0565b500390565b6002810460018216806112b957607f821691505b602082108114156112da57634e487b7160e01b600052602260045260246000fd5b50919050565b634e487b7160e01b600052601160045260246000fdfea264697066735822122020e64282704c9bd5b0f3a72fdf42084c3a6c0e446b2c7936ff2e6976502f49e864736f6c63430008000033",
  "linkReferences": {},
  "deployedLinkReferences": {}
}