{
  "_format": "hh-sol-artifact-1",
  "contractName": "Faucet",
  "sourceName": "contracts/Faucet.sol",
  "abi": [
    {
      "inputs": [
        {
          "internalType": "address",
          "name": "tokenAddress",
          "type": "address"
        }
      ],
      "stateMutability": "nonpayable",
      "type": "constructor"
    },
    {
      "anonymous": false,
      "inputs": [
        {
          "indexed": false,
          "internalType": "address",
          "name": "_address",
          "type": "address"
        },
        {
          "indexed": false,
          "internalType": "uint256",
          "name": "value",
          "type": "uint256"
        }
      ],
      "name": "Donate",
      "type": "event"
    },
    {
      "inputs": [
        {
          "internalType": "address",
          "name": "_address",
          "type": "address"
        }
      ],
      "name": "faucet",
      "outputs": [],
      "stateMutability": "nonpayable",
      "type": "function"
    },
    {
      "inputs": [
        {
          "internalType": "address",
          "name": "",
          "type": "address"
        }
      ],
      "name": "requested",
      "outputs": [
        {
          "internalType": "bool",
          "name": "",
          "type": "bool"
        }
      ],
      "stateMutability": "view",
      "type": "function"
    },
    {
      "inputs": [],
      "name": "token",
      "outputs": [
        {
          "internalType": "contract ERC20",
          "name": "",
          "type": "address"
        }
      ],
      "stateMutability": "view",
      "type": "function"
    }
  ],
  "bytecode": "0x608060405234801561001057600080fd5b5060405161038438038061038483398101604081905261002f91610054565b600080546001600160a01b0319166001600160a01b0392909216919091179055610082565b600060208284031215610065578081fd5b81516001600160a01b038116811461007b578182fd5b9392505050565b6102f3806100916000396000f3fe608060405234801561001057600080fd5b50600436106100415760003560e01c8063b86d1d6314610046578063eecf0b4f1461005b578063fc0c546a14610084575b600080fd5b610059610054366004610210565b610099565b005b61006e610069366004610210565b6101df565b60405161007b9190610291565b60405180910390f35b61008c6101f4565b60405161007b919061029c565b73ffffffffffffffffffffffffffffffffffffffff811660009081526001602052604090205460ff166101dc5773ffffffffffffffffffffffffffffffffffffffff8082166000908152600160208190526040808320805460ff1916909217909155905490517fa9059cbb00000000000000000000000000000000000000000000000000000000815291169063a9059cbb9061014590849069021e19e0c9bab24000009060040161026b565b602060405180830381600087803b15801561015f57600080fd5b505af1158015610173573d6000803e3d6000fd5b505050506040513d601f19601f82011682018060405250810190610197919061024b565b507f0553260a2e46b0577270d8992db02d30856ca880144c72d6e9503760946aef138169021e19e0c9bab24000006040516101d392919061026b565b60405180910390a15b50565b60016020526000908152604090205460ff1681565b60005473ffffffffffffffffffffffffffffffffffffffff1681565b600060208284031215610221578081fd5b813573ffffffffffffffffffffffffffffffffffffffff81168114610244578182fd5b9392505050565b60006020828403121561025c578081fd5b81518015158114610244578182fd5b73ffffffffffffffffffffffffffffffffffffffff929092168252602082015260400190565b901515815260200190565b73ffffffffffffffffffffffffffffffffffffffff9190911681526020019056fea2646970667358221220eff413b08102076b0713cd723920d8a01712787a9be92867dbf97674b269a51864736f6c63430008000033",
  "linkReferences": {},
  "deployedLinkReferences": {}
}