{
  "_format": "hh-sol-artifact-1",
  "contractName": "StakeStorage",
  "sourceName": "contracts/Core/StakeStorage.sol",
  "abi": [
    {
      "inputs": [],
      "name": "genesisBlock",
      "outputs": [
        {
          "internalType": "uint256",
          "name": "",
          "type": "uint256"
        }
      ],
      "stateMutability": "view",
      "type": "function"
    },
    {
      "inputs": [],
      "name": "lastBlockRewards",
      "outputs": [
        {
          "internalType": "uint256",
          "name": "",
          "type": "uint256"
        }
      ],
      "stateMutability": "view",
      "type": "function"
    },
    {
      "inputs": [],
      "name": "lastHalvings",
      "outputs": [
        {
          "internalType": "uint256",
          "name": "",
          "type": "uint256"
        }
      ],
      "stateMutability": "view",
      "type": "function"
    },
    {
      "inputs": [],
      "name": "numStakers",
      "outputs": [
        {
          "internalType": "uint256",
          "name": "",
          "type": "uint256"
        }
      ],
      "stateMutability": "view",
      "type": "function"
    },
    {
      "inputs": [],
      "name": "rewardPool",
      "outputs": [
        {
          "internalType": "uint256",
          "name": "",
          "type": "uint256"
        }
      ],
      "stateMutability": "view",
      "type": "function"
    },
    {
      "inputs": [],
      "name": "stakeGettingReward",
      "outputs": [
        {
          "internalType": "uint256",
          "name": "",
          "type": "uint256"
        }
      ],
      "stateMutability": "view",
      "type": "function"
    },
    {
      "inputs": [
        {
          "internalType": "address",
          "name": "",
          "type": "address"
        }
      ],
      "name": "stakerIds",
      "outputs": [
        {
          "internalType": "uint256",
          "name": "",
          "type": "uint256"
        }
      ],
      "stateMutability": "view",
      "type": "function"
    },
    {
      "inputs": [
        {
          "internalType": "uint256",
          "name": "",
          "type": "uint256"
        }
      ],
      "name": "stakers",
      "outputs": [
        {
          "internalType": "uint256",
          "name": "id",
          "type": "uint256"
        },
        {
          "internalType": "address",
          "name": "_address",
          "type": "address"
        },
        {
          "internalType": "uint256",
          "name": "stake",
          "type": "uint256"
        },
        {
          "internalType": "uint256",
          "name": "epochStaked",
          "type": "uint256"
        },
        {
          "internalType": "uint256",
          "name": "epochLastCommitted",
          "type": "uint256"
        },
        {
          "internalType": "uint256",
          "name": "epochLastRevealed",
          "type": "uint256"
        },
        {
          "internalType": "uint256",
          "name": "unstakeAfter",
          "type": "uint256"
        },
        {
          "internalType": "uint256",
          "name": "withdrawAfter",
          "type": "uint256"
        }
      ],
      "stateMutability": "view",
      "type": "function"
    }
  ],
  "bytecode": "0x608060405260006005556000600655600060075534801561001f57600080fd5b5061027b8061002f6000396000f3fe608060405234801561001057600080fd5b50600436106100885760003560e01c80636c8b052a1161005b5780636c8b052a146100c3578063a8264f99146100cb578063c8ae0d7d146100d3578063fd5e6dd1146100e657610088565b80630ec88d3f1461008d5780632f594949146100ab5780634cdc9c63146100b357806366666aa9146100bb575b600080fd5b61009561010d565b6040516100a291906101f0565b60405180910390f35b610095610113565b610095610119565b61009561011f565b610095610125565b61009561012b565b6100956100e136600461019d565b610131565b6100f96100f43660046101d8565b610143565b6040516100a29897969594939291906101f9565b60075481565b60025481565b60005481565b60065481565b60055481565b60015481565b60036020526000908152604090205481565b600460208190526000918252604090912080546001820154600283015460038401549484015460058501546006860154600790960154949673ffffffffffffffffffffffffffffffffffffffff9094169592949192909188565b6000602082840312156101ae578081fd5b813573ffffffffffffffffffffffffffffffffffffffff811681146101d1578182fd5b9392505050565b6000602082840312156101e9578081fd5b5035919050565b90815260200190565b97885273ffffffffffffffffffffffffffffffffffffffff96909616602088015260408701949094526060860192909252608085015260a084015260c083015260e0820152610100019056fea2646970667358221220f611b10c258ca6c4c59ac5d24a68b87e05f9f74f5503a343e8d269d2aa563e0164736f6c63430008000033",
  "linkReferences": {},
  "deployedLinkReferences": {}
}