{
  "_format": "hh-sol-artifact-1",
  "contractName": "JobManager",
  "sourceName": "contracts/Core/JobManager.sol",
  "abi": [
    {
      "anonymous": false,
      "inputs": [
        {
          "indexed": false,
          "internalType": "uint256",
          "name": "id",
          "type": "uint256"
        },
        {
          "indexed": false,
          "internalType": "uint256",
          "name": "epoch",
          "type": "uint256"
        },
        {
          "indexed": false,
          "internalType": "string",
          "name": "url",
          "type": "string"
        },
        {
          "indexed": false,
          "internalType": "string",
          "name": "selector",
          "type": "string"
        },
        {
          "indexed": false,
          "internalType": "string",
          "name": "name",
          "type": "string"
        },
        {
          "indexed": false,
          "internalType": "bool",
          "name": "repeat",
          "type": "bool"
        },
        {
          "indexed": false,
          "internalType": "address",
          "name": "creator",
          "type": "address"
        },
        {
          "indexed": false,
          "internalType": "uint256",
          "name": "credit",
          "type": "uint256"
        },
        {
          "indexed": false,
          "internalType": "uint256",
          "name": "timestamp",
          "type": "uint256"
        }
      ],
      "name": "JobCreated",
      "type": "event"
    },
    {
      "anonymous": false,
      "inputs": [
        {
          "indexed": false,
          "internalType": "uint256",
          "name": "id",
          "type": "uint256"
        },
        {
          "indexed": false,
          "internalType": "uint256",
          "name": "value",
          "type": "uint256"
        },
        {
          "indexed": false,
          "internalType": "uint256",
          "name": "epoch",
          "type": "uint256"
        },
        {
          "indexed": false,
          "internalType": "string",
          "name": "url",
          "type": "string"
        },
        {
          "indexed": false,
          "internalType": "string",
          "name": "selector",
          "type": "string"
        },
        {
          "indexed": false,
          "internalType": "string",
          "name": "name",
          "type": "string"
        },
        {
          "indexed": false,
          "internalType": "bool",
          "name": "repeat",
          "type": "bool"
        },
        {
          "indexed": false,
          "internalType": "address",
          "name": "creator",
          "type": "address"
        },
        {
          "indexed": false,
          "internalType": "uint256",
          "name": "credit",
          "type": "uint256"
        },
        {
          "indexed": false,
          "internalType": "bool",
          "name": "fulfilled",
          "type": "bool"
        },
        {
          "indexed": false,
          "internalType": "uint256",
          "name": "timestamp",
          "type": "uint256"
        }
      ],
      "name": "JobReported",
      "type": "event"
    },
    {
      "anonymous": false,
      "inputs": [
        {
          "indexed": true,
          "internalType": "bytes32",
          "name": "role",
          "type": "bytes32"
        },
        {
          "indexed": true,
          "internalType": "bytes32",
          "name": "previousAdminRole",
          "type": "bytes32"
        },
        {
          "indexed": true,
          "internalType": "bytes32",
          "name": "newAdminRole",
          "type": "bytes32"
        }
      ],
      "name": "RoleAdminChanged",
      "type": "event"
    },
    {
      "anonymous": false,
      "inputs": [
        {
          "indexed": true,
          "internalType": "bytes32",
          "name": "role",
          "type": "bytes32"
        },
        {
          "indexed": true,
          "internalType": "address",
          "name": "account",
          "type": "address"
        },
        {
          "indexed": true,
          "internalType": "address",
          "name": "sender",
          "type": "address"
        }
      ],
      "name": "RoleGranted",
      "type": "event"
    },
    {
      "anonymous": false,
      "inputs": [
        {
          "indexed": true,
          "internalType": "bytes32",
          "name": "role",
          "type": "bytes32"
        },
        {
          "indexed": true,
          "internalType": "address",
          "name": "account",
          "type": "address"
        },
        {
          "indexed": true,
          "internalType": "address",
          "name": "sender",
          "type": "address"
        }
      ],
      "name": "RoleRevoked",
      "type": "event"
    },
    {
      "inputs": [],
      "name": "DEFAULT_ADMIN_ROLE",
      "outputs": [
        {
          "internalType": "bytes32",
          "name": "",
          "type": "bytes32"
        }
      ],
      "stateMutability": "view",
      "type": "function"
    },
    {
      "inputs": [
        {
          "internalType": "string",
          "name": "url",
          "type": "string"
        },
        {
          "internalType": "string",
          "name": "selector",
          "type": "string"
        },
        {
          "internalType": "string",
          "name": "name",
          "type": "string"
        },
        {
          "internalType": "bool",
          "name": "repeat",
          "type": "bool"
        }
      ],
      "name": "createJob",
      "outputs": [],
      "stateMutability": "payable",
      "type": "function"
    },
    {
      "inputs": [
        {
          "internalType": "uint256",
          "name": "jobId",
          "type": "uint256"
        },
        {
          "internalType": "uint256",
          "name": "value",
          "type": "uint256"
        }
      ],
      "name": "fulfillJob",
      "outputs": [],
      "stateMutability": "nonpayable",
      "type": "function"
    },
    {
      "inputs": [
        {
          "internalType": "uint256",
          "name": "id",
          "type": "uint256"
        }
      ],
      "name": "getJob",
      "outputs": [
        {
          "internalType": "string",
          "name": "url",
          "type": "string"
        },
        {
          "internalType": "string",
          "name": "selector",
          "type": "string"
        },
        {
          "internalType": "string",
          "name": "name",
          "type": "string"
        },
        {
          "internalType": "bool",
          "name": "repeat",
          "type": "bool"
        },
        {
          "internalType": "uint256",
          "name": "result",
          "type": "uint256"
        }
      ],
      "stateMutability": "view",
      "type": "function"
    },
    {
      "inputs": [],
      "name": "getNumJobs",
      "outputs": [
        {
          "internalType": "uint256",
          "name": "",
          "type": "uint256"
        }
      ],
      "stateMutability": "view",
      "type": "function"
    },
    {
      "inputs": [
        {
          "internalType": "uint256",
          "name": "id",
          "type": "uint256"
        }
      ],
      "name": "getResult",
      "outputs": [
        {
          "internalType": "uint256",
          "name": "",
          "type": "uint256"
        }
      ],
      "stateMutability": "view",
      "type": "function"
    },
    {
      "inputs": [
        {
          "internalType": "bytes32",
          "name": "role",
          "type": "bytes32"
        }
      ],
      "name": "getRoleAdmin",
      "outputs": [
        {
          "internalType": "bytes32",
          "name": "",
          "type": "bytes32"
        }
      ],
      "stateMutability": "view",
      "type": "function"
    },
    {
      "inputs": [
        {
          "internalType": "bytes32",
          "name": "role",
          "type": "bytes32"
        },
        {
          "internalType": "uint256",
          "name": "index",
          "type": "uint256"
        }
      ],
      "name": "getRoleMember",
      "outputs": [
        {
          "internalType": "address",
          "name": "",
          "type": "address"
        }
      ],
      "stateMutability": "view",
      "type": "function"
    },
    {
      "inputs": [
        {
          "internalType": "bytes32",
          "name": "role",
          "type": "bytes32"
        }
      ],
      "name": "getRoleMemberCount",
      "outputs": [
        {
          "internalType": "uint256",
          "name": "",
          "type": "uint256"
        }
      ],
      "stateMutability": "view",
      "type": "function"
    },
    {
      "inputs": [
        {
          "internalType": "bytes32",
          "name": "role",
          "type": "bytes32"
        },
        {
          "internalType": "address",
          "name": "account",
          "type": "address"
        }
      ],
      "name": "grantRole",
      "outputs": [],
      "stateMutability": "nonpayable",
      "type": "function"
    },
    {
      "inputs": [
        {
          "internalType": "bytes32",
          "name": "role",
          "type": "bytes32"
        },
        {
          "internalType": "address",
          "name": "account",
          "type": "address"
        }
      ],
      "name": "hasRole",
      "outputs": [
        {
          "internalType": "bool",
          "name": "",
          "type": "bool"
        }
      ],
      "stateMutability": "view",
      "type": "function"
    },
    {
      "inputs": [
        {
          "internalType": "address",
          "name": "_stateManagerAddress",
          "type": "address"
        }
      ],
      "name": "init",
      "outputs": [],
      "stateMutability": "nonpayable",
      "type": "function"
    },
    {
      "inputs": [
        {
          "internalType": "uint256",
          "name": "",
          "type": "uint256"
        }
      ],
      "name": "jobs",
      "outputs": [
        {
          "internalType": "uint256",
          "name": "id",
          "type": "uint256"
        },
        {
          "internalType": "uint256",
          "name": "epoch",
          "type": "uint256"
        },
        {
          "internalType": "string",
          "name": "url",
          "type": "string"
        },
        {
          "internalType": "string",
          "name": "selector",
          "type": "string"
        },
        {
          "internalType": "string",
          "name": "name",
          "type": "string"
        },
        {
          "internalType": "bool",
          "name": "repeat",
          "type": "bool"
        },
        {
          "internalType": "address",
          "name": "creator",
          "type": "address"
        },
        {
          "internalType": "uint256",
          "name": "credit",
          "type": "uint256"
        },
        {
          "internalType": "bool",
          "name": "fulfilled",
          "type": "bool"
        },
        {
          "internalType": "uint256",
          "name": "result",
          "type": "uint256"
        }
      ],
      "stateMutability": "view",
      "type": "function"
    },
    {
      "inputs": [],
      "name": "numJobs",
      "outputs": [
        {
          "internalType": "uint256",
          "name": "",
          "type": "uint256"
        }
      ],
      "stateMutability": "view",
      "type": "function"
    },
    {
      "inputs": [
        {
          "internalType": "bytes32",
          "name": "role",
          "type": "bytes32"
        },
        {
          "internalType": "address",
          "name": "account",
          "type": "address"
        }
      ],
      "name": "renounceRole",
      "outputs": [],
      "stateMutability": "nonpayable",
      "type": "function"
    },
    {
      "inputs": [
        {
          "internalType": "bytes32",
          "name": "role",
          "type": "bytes32"
        },
        {
          "internalType": "address",
          "name": "account",
          "type": "address"
        }
      ],
      "name": "revokeRole",
      "outputs": [],
      "stateMutability": "nonpayable",
      "type": "function"
    },
    {
      "inputs": [],
      "name": "stateManager",
      "outputs": [
        {
          "internalType": "contract IStateManager",
          "name": "",
          "type": "address"
        }
      ],
      "stateMutability": "view",
      "type": "function"
    }
  ],
  "bytecode": "0x60806040523480156200001157600080fd5b50620000286000336001600160e01b036200002e16565b62000166565b6200004382826001600160e01b036200004716565b5050565b6000828152602081815260409091206200006c91839062000e20620000c9821b17901c565b156200004357620000856001600160e01b03620000f216565b6001600160a01b0316816001600160a01b0316837f2f8788117e7eff1d82e926ec794901d17c78024a50270940304540a733656f0d60405160405180910390a45050565b6000620000e9836001600160a01b0384166001600160e01b03620000f616565b90505b92915050565b3390565b60006200010d83836001600160e01b036200014e16565b6200014557508154600181810184556000848152602080822090930184905584548482528286019093526040902091909155620000ec565b506000620000ec565b60009081526001919091016020526040902054151590565b61187b80620001766000396000f3fe60806040526004361061010e5760003560e01c80637e0c00ed116100a5578063995e433911610074578063bf22c45711610059578063bf22c457146102e2578063ca15c87314610313578063d547741f146103335761010e565b8063995e4339146102ad578063a217fddf146102cd5761010e565b80637e0c00ed146102365780639010d07c1461024b57806391d148541461026b5780639212051c146102985761010e565b80632f2ff15d116100e15780632f2ff15d146101c357806336568abe146101e357806356350bdf14610203578063628aff1d146102235761010e565b8063180aedf31461011357806319ab453c14610152578063248a9ca3146101745780632e716fb1146101a1575b600080fd5b34801561011f57600080fd5b5061013361012e366004611236565b610353565b6040516101499a9998979695949392919061172d565b60405180910390f35b34801561015e57600080fd5b5061017261016d366004611208565b610565565b005b34801561018057600080fd5b5061019461018f366004611236565b61059f565b6040516101499190611486565b3480156101ad57600080fd5b506101b66105b4565b6040516101499190611467565b3480156101cf57600080fd5b506101726101de366004611266565b6105c3565b3480156101ef57600080fd5b506101726101fe366004611266565b610614565b34801561020f57600080fd5b5061017261021e3660046112a0565b610656565b6101726102313660046112c1565b610824565b34801561024257600080fd5b50610194610af4565b34801561025757600080fd5b506101b66102663660046112a0565b610afb565b34801561027757600080fd5b5061028b610286366004611266565b610b22565b604051610149919061147b565b3480156102a457600080fd5b50610194610b40565b3480156102b957600080fd5b506101946102c8366004611236565b610b46565b3480156102d957600080fd5b50610194610b5b565b3480156102ee57600080fd5b506103026102fd366004611236565b610b60565b60405161014995949392919061148f565b34801561031f57600080fd5b5061019461032e366004611236565b610dcf565b34801561033f57600080fd5b5061017261034e366004611266565b610de6565b6001602052806000526040600020600091509050806000015490806001015490806002018054600181600116156101000203166002900480601f01602080910402602001604051908101604052809291908181526020018280546001816001161561010002031660029004801561040b5780601f106103e05761010080835404028352916020019161040b565b820191906000526020600020905b8154815290600101906020018083116103ee57829003601f168201915b5050505060038301805460408051602060026001851615610100026000190190941693909304601f810184900484028201840190925281815294959493509083018282801561049b5780601f106104705761010080835404028352916020019161049b565b820191906000526020600020905b81548152906001019060200180831161047e57829003601f168201915b5050505060048301805460408051602060026001851615610100026000190190941693909304601f810184900484028201840190925281815294959493509083018282801561052b5780601f106105005761010080835404028352916020019161052b565b820191906000526020600020905b81548152906001019060200180831161050e57829003601f168201915b50505050600583015460068401546007850154600890950154939460ff808416956101009094046001600160a01b0316945091929116908a565b600380547fffffffffffffffffffffffff0000000000000000000000000000000000000000166001600160a01b0392909216919091179055565b60009081526020819052604090206002015490565b6003546001600160a01b031681565b6000828152602081905260409020600201546105e190610286610e35565b6106065760405162461bcd60e51b81526004016105fd90611539565b60405180910390fd5b6106108282610e39565b5050565b61061c610e35565b6001600160a01b0316816001600160a01b03161461064c5760405162461bcd60e51b81526004016105fd90611650565b6106108282610ea8565b73__$cb76aa8097a3c0beaf107a478aa049bae7$__637f890b116040518163ffffffff1660e01b815260040160206040518083038186803b15801561069a57600080fd5b505af41580156106ae573d6000803e3d6000fd5b505050506040513d601f19601f820116820180604052508101906106d2919061124e565b6106dc8133610b22565b6106f85760405162461bcd60e51b81526004016105fd90611596565b60008381526001602090815260408083206003548251630eaf323560e31b815292519194936001600160a01b039091169263757991a89260048083019392829003018186803b15801561074a57600080fd5b505afa15801561075e573d6000803e3d6000fd5b505050506040513d601f19601f82011682018060405250810190610782919061124e565b600583015490915060ff166107a15760078201805460ff191660011790555b81546005830154600684015460078501546040517f9028bea5bfa7ed26c48df402d89085a995447dc8c1fb167cb92a3c7411b54480946108109490938a93889360028b019360038c019360048d019360ff808416946101009094046001600160a01b03169391169042906117af565b60405180910390a150600801919091555050565b60028054600101905560035460408051630eaf323560e31b815290516000926001600160a01b03169163757991a8916004808301926020929190829003018186803b15801561087257600080fd5b505afa158015610886573d6000803e3d6000fd5b505050506040513d601f19601f820116820180604052508101906108aa919061124e565b90506108b46110c9565b60405180610140016040528060025481526020018381526020018a8a8080601f016020809104026020016040519081016040528093929190818152602001838380828437600092019190915250505090825250604080516020601f8b0181900481028201810190925289815291810191908a908a9081908401838280828437600092019190915250505090825250604080516020601f8901819004810282018101909252878152918101919088908890819084018382808284376000920182905250938552505050851515602080840191909152336040808501919091523460608501526080840183905260a0909301829052600280548352600180835292849020855181558583015193810193909355928401518051949550859492936109e493908501929190910190611129565b5060608201518051610a00916003840191602090910190611129565b5060808201518051610a1c916004840191602090910190611129565b5060a082015160058201805460c085015160ff19918216931515939093177fffffffffffffffffffffff0000000000000000000000000000000000000000ff166101006001600160a01b0390941684021790915560e0840151600684015590830151600783018054909216901515179055610120909101516008909101556002546040517fd4ae17fdeb78e69409330361e8f8475f8027928c6f28eae2195e5ae56570aba091610ae19185908d908d908d908d908d908d908d903390349042906116ad565b60405180910390a1505050505050505050565b6002545b90565b6000828152602081905260408120610b19908363ffffffff610f1716565b90505b92915050565b6000828152602081905260408120610b19908363ffffffff610f2316565b60025481565b60009081526001602052604090206008015490565b600081565b6060806060600080610b706110c9565b6000878152600160208181526040928390208351610140810185528154815281840154818401526002808301805487519681161561010002600019011691909104601f810185900485028601850187528086529195929492860193909190830182828015610c1f5780601f10610bf457610100808354040283529160200191610c1f565b820191906000526020600020905b815481529060010190602001808311610c0257829003601f168201915b505050918352505060038201805460408051602060026001851615610100026000190190941693909304601f8101849004840282018401909252818152938201939291830182828015610cb35780601f10610c8857610100808354040283529160200191610cb3565b820191906000526020600020905b815481529060010190602001808311610c9657829003601f168201915b505050918352505060048201805460408051602060026001851615610100026000190190941693909304601f8101849004840282018401909252818152938201939291830182828015610d475780601f10610d1c57610100808354040283529160200191610d47565b820191906000526020600020905b815481529060010190602001808311610d2a57829003601f168201915b5050509183525050600582015460ff808216151560208401526101009091046001600160a01b031660408084019190915260068401546060808501919091526007850154909216151560808085019190915260089094015460a09384015284015190840151928401519184015161012090940151909b929a5090985091965090945092505050565b6000818152602081905260408120610b1c90610f38565b600082815260208190526040902060020154610e0490610286610e35565b61064c5760405162461bcd60e51b81526004016105fd906115f3565b6000610b19836001600160a01b038416610f43565b3390565b6000828152602081905260409020610e57908263ffffffff610e2016565b1561061057610e64610e35565b6001600160a01b0316816001600160a01b0316837f2f8788117e7eff1d82e926ec794901d17c78024a50270940304540a733656f0d60405160405180910390a45050565b6000828152602081905260409020610ec6908263ffffffff610f8d16565b1561061057610ed3610e35565b6001600160a01b0316816001600160a01b0316837ff6391f5c32d9c69d2a47ea670b442974b53935d1edc7fd64eb21e047a839171b60405160405180910390a45050565b6000610b198383610fa2565b6000610b19836001600160a01b038416610fe7565b6000610b1c82610fff565b6000610f4f8383610fe7565b610f8557508154600181810184556000848152602080822090930184905584548482528286019093526040902091909155610b1c565b506000610b1c565b6000610b19836001600160a01b038416611003565b81546000908210610fc55760405162461bcd60e51b81526004016105fd906114dc565b826000018281548110610fd457fe5b9060005260206000200154905092915050565b60009081526001919091016020526040902054151590565b5490565b600081815260018301602052604081205480156110bf578354600019808301919081019060009087908390811061103657fe5b906000526020600020015490508087600001848154811061105357fe5b60009182526020808320909101929092558281526001898101909252604090209084019055865487908061108357fe5b60019003818190600052602060002001600090559055866001016000878152602001908152602001600020600090556001945050505050610b1c565b6000915050610b1c565b604051806101400160405280600081526020016000815260200160608152602001606081526020016060815260200160001515815260200160006001600160a01b0316815260200160008152602001600015158152602001600081525090565b828054600181600116156101000203166002900490600052602060002090601f016020900481019282601f1061116a57805160ff1916838001178555611197565b82800160010185558215611197579182015b8281111561119757825182559160200191906001019061117c565b506111a39291506111a7565b5090565b610af891905b808211156111a357600081556001016111ad565b60008083601f8401126111d2578182fd5b50813567ffffffffffffffff8111156111e9578182fd5b60208301915083602082850101111561120157600080fd5b9250929050565b600060208284031215611219578081fd5b81356001600160a01b038116811461122f578182fd5b9392505050565b600060208284031215611247578081fd5b5035919050565b60006020828403121561125f578081fd5b5051919050565b60008060408385031215611278578081fd5b8235915060208301356001600160a01b0381168114611295578182fd5b809150509250929050565b600080604083850312156112b2578182fd5b50508035926020909101359150565b60008060008060008060006080888a0312156112db578283fd5b873567ffffffffffffffff808211156112f2578485fd5b6112fe8b838c016111c1565b909950975060208a0135915080821115611316578485fd5b6113228b838c016111c1565b909750955060408a013591508082111561133a578485fd5b506113478a828b016111c1565b9094509250506060880135801515811461135f578182fd5b8091505092959891949750929550565b60008284528282602086013780602084860101526020601f19601f85011685010190509392505050565b60008151808452815b818110156113be576020818501810151868301820152016113a2565b818111156113cf5782602083870101525b50601f01601f19169290920160200192915050565b6000815460018082166000811461140257600181146114205761145e565b60028304607f16865260ff198316602087015260408601935061145e565b6002830480875261143086611839565b60005b828110156114545781546020828b0101528482019150602081019050611433565b8801602001955050505b50505092915050565b6001600160a01b0391909116815260200190565b901515815260200190565b90815260200190565b600060a082526114a260a0830188611399565b82810360208401526114b48188611399565b83810360408501526114c68188611399565b9515156060850152505050608001529392505050565b60208082526022908201527f456e756d657261626c655365743a20696e646578206f7574206f6620626f756e60408201527f6473000000000000000000000000000000000000000000000000000000000000606082015260800190565b6020808252602f908201527f416363657373436f6e74726f6c3a2073656e646572206d75737420626520616e60408201527f2061646d696e20746f206772616e740000000000000000000000000000000000606082015260800190565b60208082526032908201527f416363657373436f6e74726f6c3a2073656e64657220646f65736e742068617660408201527f6520617070726f70726961746520726f6c650000000000000000000000000000606082015260800190565b60208082526030908201527f416363657373436f6e74726f6c3a2073656e646572206d75737420626520616e60408201527f2061646d696e20746f207265766f6b6500000000000000000000000000000000606082015260800190565b6020808252602f908201527f416363657373436f6e74726f6c3a2063616e206f6e6c792072656e6f756e636560408201527f20726f6c657320666f722073656c660000000000000000000000000000000000606082015260800190565b60006101208e83528d60208401528060408401526116ce8184018d8f61136f565b83810360608501526116e1818c8e61136f565b91505082810360808401526116f781898b61136f565b96151560a084015250506001600160a01b039390931660c084015260e08301919091526101009091015298975050505050505050565b60006101408c83528b602084015280604084015261174d8184018c611399565b838103606085015261175f818c611399565b9150508281036080840152611774818a611399565b97151560a084015250506001600160a01b039490941660c085015260e084019290925215156101008301526101209091015295945050505050565b60006101608d83528c60208401528b60408401528060608401526117d58184018c6113e4565b83810360808501526117e7818c6113e4565b91505082810360a08401526117fc818a6113e4565b97151560c084015250506001600160a01b039490941660e08501526101008401929092521515610120830152610140909101529695505050505050565b6000908152602090209056fea2646970667358221220e598ea2395a19e981c0b05b1afd866ed7fcba0d3e8742088c74a9445df116d3764736f6c634300060b0033",
  "linkReferences": {
    "contracts/lib/Constants.sol": {
      "Constants": [
        {
          "length": 20,
          "start": 1998
        }
      ]
    }
  },
  "deployedLinkReferences": {
    "contracts/lib/Constants.sol": {
      "Constants": [
        {
          "length": 20,
          "start": 1624
        }
      ]
    }
  }
}