{
  "_format": "hh-sol-artifact-1",
  "contractName": "JobManager",
  "sourceName": "contracts/Core/JobManager.sol",
  "abi": [
    {
      "anonymous": false,
      "inputs": [
        {
          "indexed": false,
          "internalType": "uint256",
          "name": "id",
          "type": "uint256"
        },
        {
          "indexed": false,
          "internalType": "uint256",
          "name": "epoch",
          "type": "uint256"
        },
        {
          "indexed": false,
          "internalType": "string",
          "name": "url",
          "type": "string"
        },
        {
          "indexed": false,
          "internalType": "string",
          "name": "selector",
          "type": "string"
        },
        {
          "indexed": false,
          "internalType": "string",
          "name": "name",
          "type": "string"
        },
        {
          "indexed": false,
          "internalType": "bool",
          "name": "repeat",
          "type": "bool"
        },
        {
          "indexed": false,
          "internalType": "address",
          "name": "creator",
          "type": "address"
        },
        {
          "indexed": false,
          "internalType": "uint256",
          "name": "credit",
          "type": "uint256"
        },
        {
          "indexed": false,
          "internalType": "uint256",
          "name": "timestamp",
          "type": "uint256"
        }
      ],
      "name": "JobCreated",
      "type": "event"
    },
    {
      "anonymous": false,
      "inputs": [
        {
          "indexed": false,
          "internalType": "uint256",
          "name": "id",
          "type": "uint256"
        },
        {
          "indexed": false,
          "internalType": "uint256",
          "name": "value",
          "type": "uint256"
        },
        {
          "indexed": false,
          "internalType": "uint256",
          "name": "epoch",
          "type": "uint256"
        },
        {
          "indexed": false,
          "internalType": "string",
          "name": "url",
          "type": "string"
        },
        {
          "indexed": false,
          "internalType": "string",
          "name": "selector",
          "type": "string"
        },
        {
          "indexed": false,
          "internalType": "string",
          "name": "name",
          "type": "string"
        },
        {
          "indexed": false,
          "internalType": "bool",
          "name": "repeat",
          "type": "bool"
        },
        {
          "indexed": false,
          "internalType": "address",
          "name": "creator",
          "type": "address"
        },
        {
          "indexed": false,
          "internalType": "uint256",
          "name": "credit",
          "type": "uint256"
        },
        {
          "indexed": false,
          "internalType": "bool",
          "name": "fulfilled",
          "type": "bool"
        },
        {
          "indexed": false,
          "internalType": "uint256",
          "name": "timestamp",
          "type": "uint256"
        }
      ],
      "name": "JobReported",
      "type": "event"
    },
    {
      "anonymous": false,
      "inputs": [
        {
          "indexed": true,
          "internalType": "bytes32",
          "name": "role",
          "type": "bytes32"
        },
        {
          "indexed": true,
          "internalType": "bytes32",
          "name": "previousAdminRole",
          "type": "bytes32"
        },
        {
          "indexed": true,
          "internalType": "bytes32",
          "name": "newAdminRole",
          "type": "bytes32"
        }
      ],
      "name": "RoleAdminChanged",
      "type": "event"
    },
    {
      "anonymous": false,
      "inputs": [
        {
          "indexed": true,
          "internalType": "bytes32",
          "name": "role",
          "type": "bytes32"
        },
        {
          "indexed": true,
          "internalType": "address",
          "name": "account",
          "type": "address"
        },
        {
          "indexed": true,
          "internalType": "address",
          "name": "sender",
          "type": "address"
        }
      ],
      "name": "RoleGranted",
      "type": "event"
    },
    {
      "anonymous": false,
      "inputs": [
        {
          "indexed": true,
          "internalType": "bytes32",
          "name": "role",
          "type": "bytes32"
        },
        {
          "indexed": true,
          "internalType": "address",
          "name": "account",
          "type": "address"
        },
        {
          "indexed": true,
          "internalType": "address",
          "name": "sender",
          "type": "address"
        }
      ],
      "name": "RoleRevoked",
      "type": "event"
    },
    {
      "inputs": [],
      "name": "DEFAULT_ADMIN_ROLE",
      "outputs": [
        {
          "internalType": "bytes32",
          "name": "",
          "type": "bytes32"
        }
      ],
      "stateMutability": "view",
      "type": "function"
    },
    {
      "inputs": [
        {
          "internalType": "string",
          "name": "url",
          "type": "string"
        },
        {
          "internalType": "string",
          "name": "selector",
          "type": "string"
        },
        {
          "internalType": "string",
          "name": "name",
          "type": "string"
        },
        {
          "internalType": "bool",
          "name": "repeat",
          "type": "bool"
        }
      ],
      "name": "createJob",
      "outputs": [],
      "stateMutability": "payable",
      "type": "function"
    },
    {
      "inputs": [
        {
          "internalType": "uint256",
          "name": "jobId",
          "type": "uint256"
        },
        {
          "internalType": "uint256",
          "name": "value",
          "type": "uint256"
        }
      ],
      "name": "fulfillJob",
      "outputs": [],
      "stateMutability": "nonpayable",
      "type": "function"
    },
    {
      "inputs": [
        {
          "internalType": "uint256",
          "name": "id",
          "type": "uint256"
        }
      ],
      "name": "getJob",
      "outputs": [
        {
          "internalType": "string",
          "name": "url",
          "type": "string"
        },
        {
          "internalType": "string",
          "name": "selector",
          "type": "string"
        },
        {
          "internalType": "string",
          "name": "name",
          "type": "string"
        },
        {
          "internalType": "bool",
          "name": "repeat",
          "type": "bool"
        },
        {
          "internalType": "uint256",
          "name": "result",
          "type": "uint256"
        }
      ],
      "stateMutability": "view",
      "type": "function"
    },
    {
      "inputs": [],
      "name": "getNumJobs",
      "outputs": [
        {
          "internalType": "uint256",
          "name": "",
          "type": "uint256"
        }
      ],
      "stateMutability": "view",
      "type": "function"
    },
    {
      "inputs": [
        {
          "internalType": "uint256",
          "name": "id",
          "type": "uint256"
        }
      ],
      "name": "getResult",
      "outputs": [
        {
          "internalType": "uint256",
          "name": "",
          "type": "uint256"
        }
      ],
      "stateMutability": "view",
      "type": "function"
    },
    {
      "inputs": [
        {
          "internalType": "bytes32",
          "name": "role",
          "type": "bytes32"
        }
      ],
      "name": "getRoleAdmin",
      "outputs": [
        {
          "internalType": "bytes32",
          "name": "",
          "type": "bytes32"
        }
      ],
      "stateMutability": "view",
      "type": "function"
    },
    {
      "inputs": [
        {
          "internalType": "bytes32",
          "name": "role",
          "type": "bytes32"
        },
        {
          "internalType": "address",
          "name": "account",
          "type": "address"
        }
      ],
      "name": "grantRole",
      "outputs": [],
      "stateMutability": "nonpayable",
      "type": "function"
    },
    {
      "inputs": [
        {
          "internalType": "bytes32",
          "name": "role",
          "type": "bytes32"
        },
        {
          "internalType": "address",
          "name": "account",
          "type": "address"
        }
      ],
      "name": "hasRole",
      "outputs": [
        {
          "internalType": "bool",
          "name": "",
          "type": "bool"
        }
      ],
      "stateMutability": "view",
      "type": "function"
    },
    {
      "inputs": [
        {
          "internalType": "address",
          "name": "_stateManagerAddress",
          "type": "address"
        }
      ],
      "name": "init",
      "outputs": [],
      "stateMutability": "nonpayable",
      "type": "function"
    },
    {
      "inputs": [
        {
          "internalType": "uint256",
          "name": "",
          "type": "uint256"
        }
      ],
      "name": "jobs",
      "outputs": [
        {
          "internalType": "uint256",
          "name": "id",
          "type": "uint256"
        },
        {
          "internalType": "uint256",
          "name": "epoch",
          "type": "uint256"
        },
        {
          "internalType": "string",
          "name": "url",
          "type": "string"
        },
        {
          "internalType": "string",
          "name": "selector",
          "type": "string"
        },
        {
          "internalType": "string",
          "name": "name",
          "type": "string"
        },
        {
          "internalType": "bool",
          "name": "repeat",
          "type": "bool"
        },
        {
          "internalType": "address",
          "name": "creator",
          "type": "address"
        },
        {
          "internalType": "uint256",
          "name": "credit",
          "type": "uint256"
        },
        {
          "internalType": "bool",
          "name": "fulfilled",
          "type": "bool"
        },
        {
          "internalType": "uint256",
          "name": "result",
          "type": "uint256"
        }
      ],
      "stateMutability": "view",
      "type": "function"
    },
    {
      "inputs": [],
      "name": "numJobs",
      "outputs": [
        {
          "internalType": "uint256",
          "name": "",
          "type": "uint256"
        }
      ],
      "stateMutability": "view",
      "type": "function"
    },
    {
      "inputs": [
        {
          "internalType": "bytes32",
          "name": "role",
          "type": "bytes32"
        },
        {
          "internalType": "address",
          "name": "account",
          "type": "address"
        }
      ],
      "name": "renounceRole",
      "outputs": [],
      "stateMutability": "nonpayable",
      "type": "function"
    },
    {
      "inputs": [
        {
          "internalType": "bytes32",
          "name": "role",
          "type": "bytes32"
        },
        {
          "internalType": "address",
          "name": "account",
          "type": "address"
        }
      ],
      "name": "revokeRole",
      "outputs": [],
      "stateMutability": "nonpayable",
      "type": "function"
    },
    {
      "inputs": [],
      "name": "stateManager",
      "outputs": [
        {
          "internalType": "contract IStateManager",
          "name": "",
          "type": "address"
        }
      ],
      "stateMutability": "view",
      "type": "function"
    },
    {
      "inputs": [
        {
          "internalType": "bytes4",
          "name": "interfaceId",
          "type": "bytes4"
        }
      ],
      "name": "supportsInterface",
      "outputs": [
        {
          "internalType": "bool",
          "name": "",
          "type": "bool"
        }
      ],
      "stateMutability": "view",
      "type": "function"
    }
  ],
  "bytecode": "0x60806040523480156200001157600080fd5b506200001f60003362000025565b620000ec565b62000031828262000035565b5050565b620000418282620000bf565b62000031576000828152602081815260408083206001600160a01b03851684529091529020805460ff191660011790556200007b620000e8565b6001600160a01b0316816001600160a01b0316837f2f8788117e7eff1d82e926ec794901d17c78024a50270940304540a733656f0d60405160405180910390a45050565b6000918252602082815260408084206001600160a01b0393909316845291905290205460ff1690565b3390565b6116e680620000fc6000396000f3fe6080604052600436106100f35760003560e01c8063628aff1d1161008a578063995e433911610059578063995e433914610292578063a217fddf146102b2578063bf22c457146102c7578063d547741f146102f8576100f3565b8063628aff1d146102355780637e0c00ed1461024857806391d148541461025d5780639212051c1461027d576100f3565b80632e716fb1116100c65780632e716fb1146101b35780632f2ff15d146101d557806336568abe146101f557806356350bdf14610215576100f3565b806301ffc9a7146100f8578063180aedf31461012e57806319ab453c14610164578063248a9ca314610186575b600080fd5b34801561010457600080fd5b506101186101133660046110a7565b610318565b60405161012591906112cc565b60405180910390f35b34801561013a57600080fd5b5061014e61014936600461104c565b610376565b6040516101259a99989796959493929190611537565b34801561017057600080fd5b5061018461017f36600461102b565b61056e565b005b34801561019257600080fd5b506101a66101a136600461104c565b6105a8565b60405161012591906112d7565b3480156101bf57600080fd5b506101c86105bd565b60405161012591906112e0565b3480156101e157600080fd5b506101846101f036600461107c565b6105cc565b34801561020157600080fd5b5061018461021036600461107c565b610613565b34801561022157600080fd5b50610184610230366004611195565b610655565b6101846102433660046110e7565b610823565b34801561025457600080fd5b506101a6610af5565b34801561026957600080fd5b5061011861027836600461107c565b610afb565b34801561028957600080fd5b506101a6610b24565b34801561029e57600080fd5b506101a66102ad36600461104c565b610b2a565b3480156102be57600080fd5b506101a6610b3f565b3480156102d357600080fd5b506102e76102e236600461104c565b610b44565b6040516101259594939291906112f4565b34801561030457600080fd5b5061018461031336600461107c565b610db6565b60007fffffffff0000000000000000000000000000000000000000000000000000000082167f7965db0b00000000000000000000000000000000000000000000000000000000148061036e575061036e82610dde565b90505b919050565b600160208190526000918252604090912080549181015460028201805491929161039f90611675565b80601f01602080910402602001604051908101604052809291908181526020018280546103cb90611675565b80156104185780601f106103ed57610100808354040283529160200191610418565b820191906000526020600020905b8154815290600101906020018083116103fb57829003601f168201915b50505050509080600301805461042d90611675565b80601f016020809104026020016040519081016040528092919081815260200182805461045990611675565b80156104a65780601f1061047b576101008083540402835291602001916104a6565b820191906000526020600020905b81548152906001019060200180831161048957829003601f168201915b5050505050908060040180546104bb90611675565b80601f01602080910402602001604051908101604052809291908181526020018280546104e790611675565b80156105345780601f1061050957610100808354040283529160200191610534565b820191906000526020600020905b81548152906001019060200180831161051757829003601f168201915b50505050600583015460068401546007850154600890950154939460ff808416956101009094046001600160a01b0316945091929116908a565b600380547fffffffffffffffffffffffff0000000000000000000000000000000000000000166001600160a01b0392909216919091179055565b60009081526020819052604090206001015490565b6003546001600160a01b031681565b6105e06105d8836105a8565b610278610e28565b6106055760405162461bcd60e51b81526004016105fc90611342565b60405180910390fd5b61060f8282610e2c565b5050565b61061b610e28565b6001600160a01b0316816001600160a01b03161461064b5760405162461bcd60e51b81526004016105fc90611459565b61060f8282610eb1565b73__$cb76aa8097a3c0beaf107a478aa049bae7$__637f890b116040518163ffffffff1660e01b815260040160206040518083038186803b15801561069957600080fd5b505af41580156106ad573d6000803e3d6000fd5b505050506040513d601f19601f820116820180604052508101906106d19190611064565b6106db8133610afb565b6106f75760405162461bcd60e51b81526004016105fc9061139f565b60008381526001602090815260408083206003548251630eaf323560e31b815292519194936001600160a01b039091169263757991a89260048083019392829003018186803b15801561074957600080fd5b505afa15801561075d573d6000803e3d6000fd5b505050506040513d601f19601f820116820180604052508101906107819190611064565b600583015490915060ff166107a05760078201805460ff191660011790555b81546005830154600684015460078501546040517f9028bea5bfa7ed26c48df402d89085a995447dc8c1fb167cb92a3c7411b544809461080f9490938a93889360028b019360038c019360048d019360ff808416946101009094046001600160a01b03169391169042906115ba565b60405180910390a150600801919091555050565b600254610831906001611651565b60025560035460408051630eaf323560e31b815290516000926001600160a01b03169163757991a8916004808301926020929190829003018186803b15801561087957600080fd5b505afa15801561088d573d6000803e3d6000fd5b505050506040513d601f19601f820116820180604052508101906108b19190611064565b9050600060405180610140016040528060025481526020018381526020018a8a8080601f016020809104026020016040519081016040528093929190818152602001838380828437600092019190915250505090825250604080516020601f8b0181900481028201810190925289815291810191908a908a9081908401838280828437600092019190915250505090825250604080516020601f8901819004810282018101909252878152918101919088908890819084018382808284376000920182905250938552505050851515602080840191909152336040808501919091523460608501526080840183905260a0909301829052600280548352600180835292849020855181558583015193810193909355928401518051949550859492936109e593908501929190910190610f34565b5060608201518051610a01916003840191602090910190610f34565b5060808201518051610a1d916004840191602090910190610f34565b5060a082015160058201805460c085015160ff19918216931515939093177fffffffffffffffffffffff0000000000000000000000000000000000000000ff166101006001600160a01b0390941684021790915560e0840151600684015590830151600783018054909216901515179055610120909101516008909101556002546040517fd4ae17fdeb78e69409330361e8f8475f8027928c6f28eae2195e5ae56570aba091610ae29185908d908d908d908d908d908d908d903390349042906114b6565b60405180910390a1505050505050505050565b60025490565b6000918252602082815260408084206001600160a01b0393909316845291905290205460ff1690565b60025481565b60009081526001602052604090206008015490565b600081565b6060806060600080600060016000888152602001908152602001600020604051806101400160405290816000820154815260200160018201548152602001600282018054610b9190611675565b80601f0160208091040260200160405190810160405280929190818152602001828054610bbd90611675565b8015610c0a5780601f10610bdf57610100808354040283529160200191610c0a565b820191906000526020600020905b815481529060010190602001808311610bed57829003601f168201915b50505050508152602001600382018054610c2390611675565b80601f0160208091040260200160405190810160405280929190818152602001828054610c4f90611675565b8015610c9c5780601f10610c7157610100808354040283529160200191610c9c565b820191906000526020600020905b815481529060010190602001808311610c7f57829003601f168201915b50505050508152602001600482018054610cb590611675565b80601f0160208091040260200160405190810160405280929190818152602001828054610ce190611675565b8015610d2e5780601f10610d0357610100808354040283529160200191610d2e565b820191906000526020600020905b815481529060010190602001808311610d1157829003601f168201915b5050509183525050600582015460ff808216151560208401526101009091046001600160a01b031660408084019190915260068401546060808501919091526007850154909216151560808085019190915260089094015460a09384015284015190840151928401519184015161012090940151909b929a5090985091965090945092505050565b610dc26105d8836105a8565b61064b5760405162461bcd60e51b81526004016105fc906113fc565b7fffffffff0000000000000000000000000000000000000000000000000000000081167f01ffc9a70000000000000000000000000000000000000000000000000000000014919050565b3390565b610e368282610afb565b61060f576000828152602081815260408083206001600160a01b03851684529091529020805460ff19166001179055610e6d610e28565b6001600160a01b0316816001600160a01b0316837f2f8788117e7eff1d82e926ec794901d17c78024a50270940304540a733656f0d60405160405180910390a45050565b610ebb8282610afb565b1561060f576000828152602081815260408083206001600160a01b03851684529091529020805460ff19169055610ef0610e28565b6001600160a01b0316816001600160a01b0316837ff6391f5c32d9c69d2a47ea670b442974b53935d1edc7fd64eb21e047a839171b60405160405180910390a45050565b828054610f4090611675565b90600052602060002090601f016020900481019282610f625760008555610fa8565b82601f10610f7b57805160ff1916838001178555610fa8565b82800160010185558215610fa8579182015b82811115610fa8578251825591602001919060010190610f8d565b50610fb4929150610fb8565b5090565b5b80821115610fb45760008155600101610fb9565b80356001600160a01b038116811461037157600080fd5b60008083601f840112610ff5578182fd5b50813567ffffffffffffffff81111561100c578182fd5b60208301915083602082850101111561102457600080fd5b9250929050565b60006020828403121561103c578081fd5b61104582610fcd565b9392505050565b60006020828403121561105d578081fd5b5035919050565b600060208284031215611075578081fd5b5051919050565b6000806040838503121561108e578081fd5b8235915061109e60208401610fcd565b90509250929050565b6000602082840312156110b8578081fd5b81357fffffffff0000000000000000000000000000000000000000000000000000000081168114611045578182fd5b60008060008060008060006080888a031215611101578283fd5b873567ffffffffffffffff80821115611118578485fd5b6111248b838c01610fe4565b909950975060208a013591508082111561113c578485fd5b6111488b838c01610fe4565b909750955060408a0135915080821115611160578485fd5b5061116d8a828b01610fe4565b90945092505060608801358015158114611185578182fd5b8091505092959891949750929550565b600080604083850312156111a7578182fd5b50508035926020909101359150565b60008284528282602086013780602084860101526020601f19601f85011685010190509392505050565b60008151808452815b81811015611205576020818501810151868301820152016111e9565b818111156112165782602083870101525b50601f01601f19169290920160200192915050565b80546000906002810460018083168061124557607f831692505b602080841082141561126557634e487b7160e01b86526022600452602486fd5b61126f84896112d7565b8280156112835760018114611294576112bf565b60ff198716825282820197506112bf565b61129d89611645565b60005b878110156112b9578154848201529086019084016112a0565b83019850505b5050505050505092915050565b901515815260200190565b90815260200190565b6001600160a01b0391909116815260200190565b600060a0825261130760a08301886111e0565b828103602084015261131981886111e0565b9050828103604084015261132d81876111e0565b94151560608401525050608001529392505050565b6020808252602f908201527f416363657373436f6e74726f6c3a2073656e646572206d75737420626520616e60408201527f2061646d696e20746f206772616e740000000000000000000000000000000000606082015260800190565b60208082526032908201527f416363657373436f6e74726f6c3a2073656e64657220646f65736e742068617660408201527f6520617070726f70726961746520726f6c650000000000000000000000000000606082015260800190565b60208082526030908201527f416363657373436f6e74726f6c3a2073656e646572206d75737420626520616e60408201527f2061646d696e20746f207265766f6b6500000000000000000000000000000000606082015260800190565b6020808252602f908201527f416363657373436f6e74726f6c3a2063616e206f6e6c792072656e6f756e636560408201527f20726f6c657320666f722073656c660000000000000000000000000000000000606082015260800190565b60006101208e83528d60208401528060408401526114d78184018d8f6111b6565b905082810360608401526114ec818b8d6111b6565b9050828103608084015261150181898b6111b6565b96151560a084015250506001600160a01b039390931660c084015260e08301919091526101009091015298975050505050505050565b60006101408c83528b60208401528060408401526115578184018c6111e0565b9050828103606084015261156b818b6111e0565b9050828103608084015261157f818a6111e0565b97151560a084015250506001600160a01b039490941660c085015260e084019290925215156101008301526101209091015295945050505050565b60006101608d83528c60208401528b60408401528060608401526115e08184018c61122b565b905082810360808401526115f4818b61122b565b905082810360a0840152611608818a61122b565b97151560c084015250506001600160a01b039490941660e08501526101008401929092521515610120830152610140909101529695505050505050565b60009081526020902090565b6000821982111561167057634e487b7160e01b81526011600452602481fd5b500190565b60028104600182168061168957607f821691505b602082108114156116aa57634e487b7160e01b600052602260045260246000fd5b5091905056fea26469706673582212203e45bdb89b5702ada7f1e7113e1addefeab7f50f92e814f6d2eea11ce5afca5764736f6c63430008000033",
  "linkReferences": {
    "contracts/lib/Constants.sol": {
      "Constants": [
        {
          "length": 20,
          "start": 1875
        }
      ]
    }
  },
  "deployedLinkReferences": {
    "contracts/lib/Constants.sol": {
      "Constants": [
        {
          "length": 20,
          "start": 1623
        }
      ]
    }
  }
}