{
  "_format": "hh-sol-artifact-1",
  "contractName": "StakeManager",
  "sourceName": "contracts/Core/StakeManager.sol",
  "abi": [
    {
      "inputs": [
        {
          "internalType": "uint256",
          "name": "_blockReward",
          "type": "uint256"
        }
      ],
      "stateMutability": "nonpayable",
      "type": "constructor"
    },
    {
      "anonymous": false,
      "inputs": [
        {
          "indexed": false,
          "internalType": "uint256",
          "name": "epoch",
          "type": "uint256"
        },
        {
          "indexed": false,
          "internalType": "uint256",
          "name": "prevRewardPool",
          "type": "uint256"
        },
        {
          "indexed": false,
          "internalType": "uint256",
          "name": "rewardPool",
          "type": "uint256"
        },
        {
          "indexed": false,
          "internalType": "uint256",
          "name": "timestamp",
          "type": "uint256"
        }
      ],
      "name": "RewardPoolChange",
      "type": "event"
    },
    {
      "anonymous": false,
      "inputs": [
        {
          "indexed": true,
          "internalType": "bytes32",
          "name": "role",
          "type": "bytes32"
        },
        {
          "indexed": true,
          "internalType": "bytes32",
          "name": "previousAdminRole",
          "type": "bytes32"
        },
        {
          "indexed": true,
          "internalType": "bytes32",
          "name": "newAdminRole",
          "type": "bytes32"
        }
      ],
      "name": "RoleAdminChanged",
      "type": "event"
    },
    {
      "anonymous": false,
      "inputs": [
        {
          "indexed": true,
          "internalType": "bytes32",
          "name": "role",
          "type": "bytes32"
        },
        {
          "indexed": true,
          "internalType": "address",
          "name": "account",
          "type": "address"
        },
        {
          "indexed": true,
          "internalType": "address",
          "name": "sender",
          "type": "address"
        }
      ],
      "name": "RoleGranted",
      "type": "event"
    },
    {
      "anonymous": false,
      "inputs": [
        {
          "indexed": true,
          "internalType": "bytes32",
          "name": "role",
          "type": "bytes32"
        },
        {
          "indexed": true,
          "internalType": "address",
          "name": "account",
          "type": "address"
        },
        {
          "indexed": true,
          "internalType": "address",
          "name": "sender",
          "type": "address"
        }
      ],
      "name": "RoleRevoked",
      "type": "event"
    },
    {
      "anonymous": false,
      "inputs": [
        {
          "indexed": true,
          "internalType": "uint256",
          "name": "stakerId",
          "type": "uint256"
        },
        {
          "indexed": false,
          "internalType": "uint256",
          "name": "previousStake",
          "type": "uint256"
        },
        {
          "indexed": false,
          "internalType": "uint256",
          "name": "newStake",
          "type": "uint256"
        },
        {
          "indexed": false,
          "internalType": "string",
          "name": "reason",
          "type": "string"
        },
        {
          "indexed": false,
          "internalType": "uint256",
          "name": "epoch",
          "type": "uint256"
        },
        {
          "indexed": false,
          "internalType": "uint256",
          "name": "timestamp",
          "type": "uint256"
        }
      ],
      "name": "StakeChange",
      "type": "event"
    },
    {
      "anonymous": false,
      "inputs": [
        {
          "indexed": false,
          "internalType": "uint256",
          "name": "epoch",
          "type": "uint256"
        },
        {
          "indexed": false,
          "internalType": "uint256",
          "name": "prevStakeGettingReward",
          "type": "uint256"
        },
        {
          "indexed": false,
          "internalType": "uint256",
          "name": "stakeGettingReward",
          "type": "uint256"
        },
        {
          "indexed": false,
          "internalType": "uint256",
          "name": "timestamp",
          "type": "uint256"
        }
      ],
      "name": "StakeGettingRewardChange",
      "type": "event"
    },
    {
      "anonymous": false,
      "inputs": [
        {
          "indexed": false,
          "internalType": "uint256",
          "name": "epoch",
          "type": "uint256"
        },
        {
          "indexed": true,
          "internalType": "uint256",
          "name": "stakerId",
          "type": "uint256"
        },
        {
          "indexed": false,
          "internalType": "uint256",
          "name": "previousStake",
          "type": "uint256"
        },
        {
          "indexed": false,
          "internalType": "uint256",
          "name": "newStake",
          "type": "uint256"
        },
        {
          "indexed": false,
          "internalType": "uint256",
          "name": "timestamp",
          "type": "uint256"
        }
      ],
      "name": "Staked",
      "type": "event"
    },
    {
      "anonymous": false,
      "inputs": [
        {
          "indexed": false,
          "internalType": "uint256",
          "name": "epoch",
          "type": "uint256"
        },
        {
          "indexed": true,
          "internalType": "uint256",
          "name": "stakerId",
          "type": "uint256"
        },
        {
          "indexed": false,
          "internalType": "uint256",
          "name": "amount",
          "type": "uint256"
        },
        {
          "indexed": false,
          "internalType": "uint256",
          "name": "newStake",
          "type": "uint256"
        },
        {
          "indexed": false,
          "internalType": "uint256",
          "name": "timestamp",
          "type": "uint256"
        }
      ],
      "name": "Unstaked",
      "type": "event"
    },
    {
      "anonymous": false,
      "inputs": [
        {
          "indexed": false,
          "internalType": "uint256",
          "name": "epoch",
          "type": "uint256"
        },
        {
          "indexed": true,
          "internalType": "uint256",
          "name": "stakerId",
          "type": "uint256"
        },
        {
          "indexed": false,
          "internalType": "uint256",
          "name": "amount",
          "type": "uint256"
        },
        {
          "indexed": false,
          "internalType": "uint256",
          "name": "newStake",
          "type": "uint256"
        },
        {
          "indexed": false,
          "internalType": "uint256",
          "name": "timestamp",
          "type": "uint256"
        }
      ],
      "name": "Withdrew",
      "type": "event"
    },
    {
      "inputs": [],
      "name": "DEFAULT_ADMIN_ROLE",
      "outputs": [
        {
          "internalType": "bytes32",
          "name": "",
          "type": "bytes32"
        }
      ],
      "stateMutability": "view",
      "type": "function"
    },
    {
      "inputs": [],
      "name": "blockManager",
      "outputs": [
        {
          "internalType": "contract IBlockManager",
          "name": "",
          "type": "address"
        }
      ],
      "stateMutability": "view",
      "type": "function"
    },
    {
      "inputs": [],
      "name": "blockReward",
      "outputs": [
        {
          "internalType": "uint256",
          "name": "",
          "type": "uint256"
        }
      ],
      "stateMutability": "view",
      "type": "function"
    },
    {
      "inputs": [
        {
          "internalType": "uint256",
          "name": "epochs",
          "type": "uint256"
        },
        {
          "internalType": "uint256",
          "name": "stakeValue",
          "type": "uint256"
        }
      ],
      "name": "calculateInactivityPenalties",
      "outputs": [
        {
          "internalType": "uint256",
          "name": "",
          "type": "uint256"
        }
      ],
      "stateMutability": "pure",
      "type": "function"
    },
    {
      "inputs": [],
      "name": "getNumStakers",
      "outputs": [
        {
          "internalType": "uint256",
          "name": "",
          "type": "uint256"
        }
      ],
      "stateMutability": "view",
      "type": "function"
    },
    {
      "inputs": [],
      "name": "getRewardPool",
      "outputs": [
        {
          "internalType": "uint256",
          "name": "",
          "type": "uint256"
        }
      ],
      "stateMutability": "view",
      "type": "function"
    },
    {
      "inputs": [
        {
          "internalType": "bytes32",
          "name": "role",
          "type": "bytes32"
        }
      ],
      "name": "getRoleAdmin",
      "outputs": [
        {
          "internalType": "bytes32",
          "name": "",
          "type": "bytes32"
        }
      ],
      "stateMutability": "view",
      "type": "function"
    },
    {
      "inputs": [],
      "name": "getStakeGettingReward",
      "outputs": [
        {
          "internalType": "uint256",
          "name": "",
          "type": "uint256"
        }
      ],
      "stateMutability": "view",
      "type": "function"
    },
    {
      "inputs": [
        {
          "internalType": "uint256",
          "name": "_id",
          "type": "uint256"
        }
      ],
      "name": "getStaker",
      "outputs": [
        {
          "components": [
            {
              "internalType": "uint256",
              "name": "id",
              "type": "uint256"
            },
            {
              "internalType": "address",
              "name": "_address",
              "type": "address"
            },
            {
              "internalType": "uint256",
              "name": "stake",
              "type": "uint256"
            },
            {
              "internalType": "uint256",
              "name": "epochStaked",
              "type": "uint256"
            },
            {
              "internalType": "uint256",
              "name": "epochLastCommitted",
              "type": "uint256"
            },
            {
              "internalType": "uint256",
              "name": "epochLastRevealed",
              "type": "uint256"
            },
            {
              "internalType": "uint256",
              "name": "unstakeAfter",
              "type": "uint256"
            },
            {
              "internalType": "uint256",
              "name": "withdrawAfter",
              "type": "uint256"
            }
          ],
          "internalType": "struct Structs.Staker",
          "name": "staker",
          "type": "tuple"
        }
      ],
      "stateMutability": "view",
      "type": "function"
    },
    {
      "inputs": [
        {
          "internalType": "address",
          "name": "_address",
          "type": "address"
        }
      ],
      "name": "getStakerId",
      "outputs": [
        {
          "internalType": "uint256",
          "name": "",
          "type": "uint256"
        }
      ],
      "stateMutability": "view",
      "type": "function"
    },
    {
      "inputs": [
        {
          "internalType": "uint256",
          "name": "stakerId",
          "type": "uint256"
        },
        {
          "internalType": "uint256",
          "name": "epoch",
          "type": "uint256"
        }
      ],
      "name": "giveBlockReward",
      "outputs": [],
      "stateMutability": "nonpayable",
      "type": "function"
    },
    {
      "inputs": [
        {
          "internalType": "uint256",
          "name": "stakerId",
          "type": "uint256"
        },
        {
          "internalType": "uint256",
          "name": "epoch",
          "type": "uint256"
        }
      ],
      "name": "givePenalties",
      "outputs": [],
      "stateMutability": "nonpayable",
      "type": "function"
    },
    {
      "inputs": [
        {
          "internalType": "uint256",
          "name": "stakerId",
          "type": "uint256"
        },
        {
          "internalType": "uint256",
          "name": "epoch",
          "type": "uint256"
        }
      ],
      "name": "giveRewards",
      "outputs": [],
      "stateMutability": "nonpayable",
      "type": "function"
    },
    {
      "inputs": [
        {
          "internalType": "bytes32",
          "name": "role",
          "type": "bytes32"
        },
        {
          "internalType": "address",
          "name": "account",
          "type": "address"
        }
      ],
      "name": "grantRole",
      "outputs": [],
      "stateMutability": "nonpayable",
      "type": "function"
    },
    {
      "inputs": [
        {
          "internalType": "bytes32",
          "name": "role",
          "type": "bytes32"
        },
        {
          "internalType": "address",
          "name": "account",
          "type": "address"
        }
      ],
      "name": "hasRole",
      "outputs": [
        {
          "internalType": "bool",
          "name": "",
          "type": "bool"
        }
      ],
      "stateMutability": "view",
      "type": "function"
    },
    {
      "inputs": [
        {
          "internalType": "address",
          "name": "schAddress",
          "type": "address"
        },
        {
          "internalType": "address",
          "name": "voteManagersAddress",
          "type": "address"
        },
        {
          "internalType": "address",
          "name": "blockManagerAddress",
          "type": "address"
        },
        {
          "internalType": "address",
          "name": "stateManagerAddress",
          "type": "address"
        }
      ],
      "name": "initialize",
      "outputs": [],
      "stateMutability": "nonpayable",
      "type": "function"
    },
    {
      "inputs": [],
      "name": "numStakers",
      "outputs": [
        {
          "internalType": "uint256",
          "name": "",
          "type": "uint256"
        }
      ],
      "stateMutability": "view",
      "type": "function"
    },
    {
      "inputs": [
        {
          "internalType": "bytes32",
          "name": "role",
          "type": "bytes32"
        },
        {
          "internalType": "address",
          "name": "account",
          "type": "address"
        }
      ],
      "name": "renounceRole",
      "outputs": [],
      "stateMutability": "nonpayable",
      "type": "function"
    },
    {
      "inputs": [
        {
          "internalType": "bytes32",
          "name": "role",
          "type": "bytes32"
        },
        {
          "internalType": "address",
          "name": "account",
          "type": "address"
        }
      ],
      "name": "revokeRole",
      "outputs": [],
      "stateMutability": "nonpayable",
      "type": "function"
    },
    {
      "inputs": [],
      "name": "rewardPool",
      "outputs": [
        {
          "internalType": "uint256",
          "name": "",
          "type": "uint256"
        }
      ],
      "stateMutability": "view",
      "type": "function"
    },
    {
      "inputs": [],
      "name": "sch",
      "outputs": [
        {
          "internalType": "contract SchellingCoin",
          "name": "",
          "type": "address"
        }
      ],
      "stateMutability": "view",
      "type": "function"
    },
    {
      "inputs": [
        {
          "internalType": "uint256",
          "name": "_id",
          "type": "uint256"
        },
        {
          "internalType": "uint256",
          "name": "_epochLastRevealed",
          "type": "uint256"
        }
      ],
      "name": "setStakerEpochLastRevealed",
      "outputs": [],
      "stateMutability": "nonpayable",
      "type": "function"
    },
    {
      "inputs": [
        {
          "internalType": "uint256",
          "name": "id",
          "type": "uint256"
        },
        {
          "internalType": "address",
          "name": "bountyHunter",
          "type": "address"
        },
        {
          "internalType": "uint256",
          "name": "epoch",
          "type": "uint256"
        }
      ],
      "name": "slash",
      "outputs": [],
      "stateMutability": "nonpayable",
      "type": "function"
    },
    {
      "inputs": [
        {
          "internalType": "uint256",
          "name": "epoch",
          "type": "uint256"
        },
        {
          "internalType": "uint256",
          "name": "amount",
          "type": "uint256"
        }
      ],
      "name": "stake",
      "outputs": [],
      "stateMutability": "nonpayable",
      "type": "function"
    },
    {
      "inputs": [],
      "name": "stakeGettingReward",
      "outputs": [
        {
          "internalType": "uint256",
          "name": "",
          "type": "uint256"
        }
      ],
      "stateMutability": "view",
      "type": "function"
    },
    {
      "inputs": [
        {
          "internalType": "address",
          "name": "",
          "type": "address"
        }
      ],
      "name": "stakerIds",
      "outputs": [
        {
          "internalType": "uint256",
          "name": "",
          "type": "uint256"
        }
      ],
      "stateMutability": "view",
      "type": "function"
    },
    {
      "inputs": [
        {
          "internalType": "uint256",
          "name": "",
          "type": "uint256"
        }
      ],
      "name": "stakers",
      "outputs": [
        {
          "internalType": "uint256",
          "name": "id",
          "type": "uint256"
        },
        {
          "internalType": "address",
          "name": "_address",
          "type": "address"
        },
        {
          "internalType": "uint256",
          "name": "stake",
          "type": "uint256"
        },
        {
          "internalType": "uint256",
          "name": "epochStaked",
          "type": "uint256"
        },
        {
          "internalType": "uint256",
          "name": "epochLastCommitted",
          "type": "uint256"
        },
        {
          "internalType": "uint256",
          "name": "epochLastRevealed",
          "type": "uint256"
        },
        {
          "internalType": "uint256",
          "name": "unstakeAfter",
          "type": "uint256"
        },
        {
          "internalType": "uint256",
          "name": "withdrawAfter",
          "type": "uint256"
        }
      ],
      "stateMutability": "view",
      "type": "function"
    },
    {
      "inputs": [],
      "name": "stateManager",
      "outputs": [
        {
          "internalType": "contract IStateManager",
          "name": "",
          "type": "address"
        }
      ],
      "stateMutability": "view",
      "type": "function"
    },
    {
      "inputs": [
        {
          "internalType": "bytes4",
          "name": "interfaceId",
          "type": "bytes4"
        }
      ],
      "name": "supportsInterface",
      "outputs": [
        {
          "internalType": "bool",
          "name": "",
          "type": "bool"
        }
      ],
      "stateMutability": "view",
      "type": "function"
    },
    {
      "inputs": [
        {
          "internalType": "uint256",
          "name": "epoch",
          "type": "uint256"
        }
      ],
      "name": "unstake",
      "outputs": [],
      "stateMutability": "nonpayable",
      "type": "function"
    },
    {
      "inputs": [
        {
          "internalType": "uint256",
          "name": "_blockReward",
          "type": "uint256"
        }
      ],
      "name": "updateBlockReward",
      "outputs": [],
      "stateMutability": "nonpayable",
      "type": "function"
    },
    {
      "inputs": [
        {
          "internalType": "uint256",
          "name": "stakerId",
          "type": "uint256"
        }
      ],
      "name": "updateCommitmentEpoch",
      "outputs": [],
      "stateMutability": "nonpayable",
      "type": "function"
    },
    {
      "inputs": [],
      "name": "voteManager",
      "outputs": [
        {
          "internalType": "contract IVoteManager",
          "name": "",
          "type": "address"
        }
      ],
      "stateMutability": "view",
      "type": "function"
    },
    {
      "inputs": [
        {
          "internalType": "uint256",
          "name": "epoch",
          "type": "uint256"
        }
      ],
      "name": "withdraw",
      "outputs": [],
      "stateMutability": "nonpayable",
      "type": "function"
    }
  ],
  "bytecode": "0x60806040523480156200001157600080fd5b5060405162003a8d38038062003a8d833981016040819052620000349162000116565b620000416000336200004a565b6002556200012f565b6200005682826200005a565b5050565b620000668282620000e7565b620000565760008281526001602081815260408084206001600160a01b0386168552909152909120805460ff19169091179055620000a362000112565b6001600160a01b0316816001600160a01b0316837f2f8788117e7eff1d82e926ec794901d17c78024a50270940304540a733656f0d60405160405180910390a45050565b60009182526001602090815260408084206001600160a01b0393909316845291905290205460ff1690565b3390565b60006020828403121562000128578081fd5b5051919050565b61394e806200013f6000396000f3fe608060405234801561001057600080fd5b50600436106102265760003560e01c806366666aa91161012a578063c584bb9f116100bd578063e3c998fe1161008c578063f8c8765e11610071578063f8c8765e14610433578063fabb989014610446578063fd5e6dd11461045957610226565b8063e3c998fe14610400578063f580ffcb1461042057610226565b8063c584bb9f146103ca578063c8ae0d7d146103d2578063d547741f146103e5578063d9169b32146103f857610226565b806391d14854116100f957806391d14854146103945780639864f70a146103a7578063a217fddf146103ba578063bc788d46146103c257610226565b806366666aa91461035e5780636c8b052a14610366578063746c8b651461036e5780637b0472f01461038157610226565b8063248a9ca3116101bd5780632f2ff15d1161018c57806342c1e5871161017157806342c1e5871461033057806354eae15e146103385780636022a4851461034b57610226565b80632f2ff15d1461030a57806336568abe1461031d57610226565b8063248a9ca3146102bc5780632e17de78146102cf5780632e1a7d4d146102e25780632e716fb1146102f557610226565b8063188dc83b116101f9578063188dc83b146102865780631a69f008146102995780631ad54991146102ac5780631b8b13a7146102b457610226565b806301ffc9a71461022b5780630ac168a1146102545780630ec88d3f146102695780630f91ce1914610271575b600080fd5b61023e610239366004612eb4565b610480565b60405161024b91906130fc565b60405180910390f35b61025c6104de565b60405161024b9190613107565b61025c6104e4565b61028461027f366004613049565b6104ea565b005b610284610294366004612e59565b6106a7565b61025c6102a736600461307d565b61080a565b61025c610967565b61025c61096d565b61025c6102ca366004612e59565b610973565b6102846102dd366004612e59565b610989565b6102846102f0366004612e59565b610cda565b6102fd6111d4565b60405161024b9190613110565b610284610318366004612e89565b6111e3565b61028461032b366004612e89565b611221565b6102fd611263565b61028461034636600461307d565b611272565b61025c610359366004612d90565b611345565b61025c611360565b61025c611366565b61028461037c36600461307d565b61136c565b61028461038f36600461307d565b6114ca565b61023e6103a2366004612e89565b611c08565b6102846103b536600461307d565b611c33565b61025c611d0d565b61025c611d12565b6102fd611d18565b61025c6103e0366004612d90565b611d27565b6102846103f3366004612e89565b611d39565b6102fd611d61565b61041361040e366004612e59565b611d70565b60405161024b91906136e8565b61028461042e366004612e59565b611dec565b610284610441366004612db1565b611e94565b61028461045436600461307d565b611f97565b61046c610467366004612e59565b6125a0565b60405161024b98979695949392919061374a565b60007fffffffff0000000000000000000000000000000000000000000000000000000082167f7965db0b0000000000000000000000000000000000000000000000000000000014806104d657506104d6826125ef565b90505b919050565b60025481565b60055481565b73__$cb76aa8097a3c0beaf107a478aa049bae7$__6380638d426040518163ffffffff1660e01b815260040160206040518083038186803b15801561052e57600080fd5b505af4158015610542573d6000803e3d6000fd5b505050506040513d601f19601f820116820180604052508101906105669190612e71565b6105708133611c08565b6105955760405162461bcd60e51b815260040161058c90613487565b60405180910390fd5b60008481526007602052604081206002908101546105b3919061387b565b90506105f78560006040518060400160405280600781526020017f536c61736865640000000000000000000000000000000000000000000000000081525086612639565b60018111156106a05760085460405163a9059cbb60e01b81526001600160a01b039091169063a9059cbb9061063290879085906004016130e3565b602060405180830381600087803b15801561064c57600080fd5b505af1158015610660573d6000803e3d6000fd5b505050506040513d601f19601f820116820180604052508101906106849190612e3f565b6106a05760405162461bcd60e51b815260040161058c906131b8565b5050505050565b60005460ff166106c95760405162461bcd60e51b815260040161058c90613317565b73__$cb76aa8097a3c0beaf107a478aa049bae7$__639cec6f8a6040518163ffffffff1660e01b815260040160206040518083038186803b15801561070d57600080fd5b505af4158015610721573d6000803e3d6000fd5b505050506040513d601f19601f820116820180604052508101906107459190612e71565b61074f8133611c08565b61076b5760405162461bcd60e51b815260040161058c90613487565b600b60009054906101000a90046001600160a01b03166001600160a01b031663757991a86040518163ffffffff1660e01b815260040160206040518083038186803b1580156107b957600080fd5b505afa1580156107cd573d6000803e3d6000fd5b505050506040513d601f19601f820116820180604052508101906107f19190612e71565b6000928352600760205260409092206004019190915550565b6000600a83101561081c575080610961565b600073__$cb76aa8097a3c0beaf107a478aa049bae7$__63b1cc45006040518163ffffffff1660e01b815260040160206040518083038186803b15801561086257600080fd5b505af4158015610876573d6000803e3d6000fd5b505050506040513d601f19601f8201168201806040525081019061089a9190612e71565b73__$cb76aa8097a3c0beaf107a478aa049bae7$__63a86f5a3f6040518163ffffffff1660e01b815260040160206040518083038186803b1580156108de57600080fd5b505af41580156108f2573d6000803e3d6000fd5b505050506040513d601f19601f820116820180604052508101906109169190612e71565b610920908561389b565b61092b6001876138ba565b610935919061389b565b61093f919061387b565b90508281101561095b5761095381846138ba565b915050610961565b60009150505b92915050565b60055490565b60045490565b6000908152600160208190526040909120015490565b60005460ff166109ab5760405162461bcd60e51b815260040161058c90613317565b600b5460408051630eaf323560e31b8152905183926001600160a01b03169163757991a8916004808301926020929190829003018186803b1580156109ef57600080fd5b505afa158015610a03573d6000803e3d6000fd5b505050506040513d601f19601f82011682018060405250810190610a279190612e71565b8114610a455760405162461bcd60e51b815260040161058c906133e2565b73__$cb76aa8097a3c0beaf107a478aa049bae7$__633c7a3aff6040518163ffffffff1660e01b815260040160206040518083038186803b158015610a8957600080fd5b505af4158015610a9d573d6000803e3d6000fd5b505050506040513d601f19601f82011682018060405250810190610ac1919061309e565b60ff16600b60009054906101000a90046001600160a01b03166001600160a01b0316631865c57d6040518163ffffffff1660e01b815260040160206040518083038186803b158015610b1257600080fd5b505afa158015610b26573d6000803e3d6000fd5b505050506040513d601f19601f82011682018060405250810190610b4a9190612e71565b8114610b685760405162461bcd60e51b815260040161058c906135c0565b3360009081526006602090815260408083205480845260079092529091208054610ba45760405162461bcd60e51b815260040161058c906134be565b6000816002015411610bc85760405162461bcd60e51b815260040161058c9061324c565b84816006015411158015610bdf5750600681015415155b610bfb5760405162461bcd60e51b815260040161058c90613450565b6000816006018190555073__$cb76aa8097a3c0beaf107a478aa049bae7$__632628490f6040518163ffffffff1660e01b815260040160206040518083038186803b158015610c4957600080fd5b505af4158015610c5d573d6000803e3d6000fd5b505050506040513d601f19601f82011682018060405250810190610c819190612e71565b610c8b9086613863565b6007820155600281015460405183917f0cfbc484edc798d2584502ca0d64e7e9514b8dd091d96a2a5b4deb58478da19e91610ccb91899181904290613797565b60405180910390a25050505050565b60005460ff16610cfc5760405162461bcd60e51b815260040161058c90613317565b600b5460408051630eaf323560e31b8152905183926001600160a01b03169163757991a8916004808301926020929190829003018186803b158015610d4057600080fd5b505afa158015610d54573d6000803e3d6000fd5b505050506040513d601f19601f82011682018060405250810190610d789190612e71565b8114610d965760405162461bcd60e51b815260040161058c906133e2565b73__$cb76aa8097a3c0beaf107a478aa049bae7$__633c7a3aff6040518163ffffffff1660e01b815260040160206040518083038186803b158015610dda57600080fd5b505af4158015610dee573d6000803e3d6000fd5b505050506040513d601f19601f82011682018060405250810190610e12919061309e565b60ff16600b60009054906101000a90046001600160a01b03166001600160a01b0316631865c57d6040518163ffffffff1660e01b815260040160206040518083038186803b158015610e6357600080fd5b505afa158015610e77573d6000803e3d6000fd5b505050506040513d601f19601f82011682018060405250810190610e9b9190612e71565b8114610eb95760405162461bcd60e51b815260040161058c906135c0565b3360009081526006602090815260408083205480845260079092529091208054610ef55760405162461bcd60e51b815260040161058c90613419565b600681015415610f175760405162461bcd60e51b815260040161058c90613589565b84816007015411158015610f2e5750600781015415155b610f4a5760405162461bcd60e51b815260040161058c90613181565b806005015473__$cb76aa8097a3c0beaf107a478aa049bae7$__632628490f6040518163ffffffff1660e01b815260040160206040518083038186803b158015610f9357600080fd5b505af4158015610fa7573d6000803e3d6000fd5b505050506040513d601f19601f82011682018060405250810190610fcb9190612e71565b8260070154610fda91906138ba565b1015610ff85760405162461bcd60e51b815260040161058c90613385565b6009546040517f7164f0d60000000000000000000000000000000000000000000000000000000081526001600160a01b0390911690637164f0d6906110439088908690600401613789565b60206040518083038186803b15801561105b57600080fd5b505afa15801561106f573d6000803e3d6000fd5b505050506040513d601f19601f820116820180604052508101906110939190612e71565b156110b05760405162461bcd60e51b815260040161058c9061352c565b60008160020154116110d45760405162461bcd60e51b815260040161058c906135f7565b6000828152600760205260408082206002018054908390559051909184917f0a6fecee2c95fc6b4c7f291e3435a3a832bcd700c2a7ffdedd8c909d56dfa49f91611124918a919081904290613797565b60405180910390a260085460405163a9059cbb60e01b81526001600160a01b039091169063a9059cbb9061115e90339085906004016130e3565b602060405180830381600087803b15801561117857600080fd5b505af115801561118c573d6000803e3d6000fd5b505050506040513d601f19601f820116820180604052508101906111b09190612e3f565b6111cc5760405162461bcd60e51b815260040161058c9061334e565b505050505050565b600b546001600160a01b031681565b6111f76111ef83610973565b6103a261268b565b6112135760405162461bcd60e51b815260040161058c90613124565b61121d828261268f565b5050565b61122961268b565b6001600160a01b0316816001600160a01b0316146112595760405162461bcd60e51b815260040161058c9061362e565b61121d8282612717565b6009546001600160a01b031681565b60005460ff166112945760405162461bcd60e51b815260040161058c90613317565b73__$cb76aa8097a3c0beaf107a478aa049bae7$__6380638d426040518163ffffffff1660e01b815260040160206040518083038186803b1580156112d857600080fd5b505af41580156112ec573d6000803e3d6000fd5b505050506040513d601f19601f820116820180604052508101906113109190612e71565b61131a8133611c08565b6113365760405162461bcd60e51b815260040161058c90613487565b611340838361279c565b505050565b6001600160a01b031660009081526006602052604090205490565b60045481565b60035481565b73__$cb76aa8097a3c0beaf107a478aa049bae7$__6380638d426040518163ffffffff1660e01b815260040160206040518083038186803b1580156113b057600080fd5b505af41580156113c4573d6000803e3d6000fd5b505050506040513d601f19601f820116820180604052508101906113e89190612e71565b6113f28133611c08565b61140e5760405162461bcd60e51b815260040161058c90613487565b6002541561147b57600280546000858152600760205260408120909201546114369190613863565b905061147984826040518060400160405280600c81526020017f426c6f636b20526577617264000000000000000000000000000000000000000081525086612639565b505b6005805460009182905560405190917feee26d3c1e406e24904d3748e49da85096c92ac1a6ad38f3fe8a404f85212dd1916114bc9186918591904290613797565b60405180910390a150505050565b60005460ff166114ec5760405162461bcd60e51b815260040161058c90613317565b600b5460408051630eaf323560e31b8152905184926001600160a01b03169163757991a8916004808301926020929190829003018186803b15801561153057600080fd5b505afa158015611544573d6000803e3d6000fd5b505050506040513d601f19601f820116820180604052508101906115689190612e71565b81146115865760405162461bcd60e51b815260040161058c906133e2565b73__$cb76aa8097a3c0beaf107a478aa049bae7$__633c7a3aff6040518163ffffffff1660e01b815260040160206040518083038186803b1580156115ca57600080fd5b505af41580156115de573d6000803e3d6000fd5b505050506040513d601f19601f82011682018060405250810190611602919061309e565b60ff16600b60009054906101000a90046001600160a01b03166001600160a01b0316631865c57d6040518163ffffffff1660e01b815260040160206040518083038186803b15801561165357600080fd5b505afa158015611667573d6000803e3d6000fd5b505050506040513d601f19601f8201168201806040525081019061168b9190612e71565b81146116a95760405162461bcd60e51b815260040161058c906135c0565b73__$cb76aa8097a3c0beaf107a478aa049bae7$__63a475b5dd6040518163ffffffff1660e01b815260040160206040518083038186803b1580156116ed57600080fd5b505af4158015611701573d6000803e3d6000fd5b505050506040513d601f19601f82011682018060405250810190611725919061309e565b60ff16600b60009054906101000a90046001600160a01b03166001600160a01b0316631865c57d6040518163ffffffff1660e01b815260040160206040518083038186803b15801561177657600080fd5b505afa15801561178a573d6000803e3d6000fd5b505050506040513d601f19601f820116820180604052508101906117ae9190612e71565b14156117cc5760405162461bcd60e51b815260040161058c906134f5565b73__$cb76aa8097a3c0beaf107a478aa049bae7$__63375b3c0a6040518163ffffffff1660e01b815260040160206040518083038186803b15801561181057600080fd5b505af4158015611824573d6000803e3d6000fd5b505050506040513d601f19601f820116820180604052508101906118489190612e71565b8310156118675760405162461bcd60e51b815260040161058c9061368b565b6008546040517f23b872dd0000000000000000000000000000000000000000000000000000000081526001600160a01b03909116906323b872dd906118b4903390309088906004016130bf565b602060405180830381600087803b1580156118ce57600080fd5b505af11580156118e2573d6000803e3d6000fd5b505050506040513d601f19601f820116820180604052508101906119069190612e3f565b6119225760405162461bcd60e51b815260040161058c906132e0565b3360009081526006602090815260408083205480845260079092529091206002015481611ad157600354611957906001613863565b6003819055506040518061010001604052806003548152602001336001600160a01b03168152602001868152602001878152602001600081526020016000815260200173__$cb76aa8097a3c0beaf107a478aa049bae7$__6326bf1c036040518163ffffffff1660e01b815260040160206040518083038186803b1580156119de57600080fd5b505af41580156119f2573d6000803e3d6000fd5b505050506040513d601f19601f82011682018060405250810190611a169190612e71565b611a209089613863565b8152600060209182018190526003805482526007808452604080842086518155868601516001820180547fffffffffffffffffffffffff0000000000000000000000000000000000000000166001600160a01b039092169190911790558682015160028201556060870151818501556080870151600482015560a0870151600582015560c087015160068083019190915560e090970151920191909155905433835293909252208190559150611bac565b600082815260076020526040902060020154611aee908690613863565b600760008481526020019081526020016000206002018190555073__$cb76aa8097a3c0beaf107a478aa049bae7$__6326bf1c036040518163ffffffff1660e01b815260040160206040518083038186803b158015611b4c57600080fd5b505af4158015611b60573d6000803e3d6000fd5b505050506040513d601f19601f82011682018060405250810190611b849190612e71565b611b8e9087613863565b60008381526007602081905260408220600681019390935591909101555b817f52d3b6bf695a499d39fcdb47e3b450c09f2f6aa091ca8809cc51c00e705996cc8783600760008781526020019081526020016000206002015442604051611bf89493929190613797565b60405180910390a2505050505050565b60009182526001602090815260408084206001600160a01b0393909316845291905290205460ff1690565b60005460ff16611c555760405162461bcd60e51b815260040161058c90613317565b73__$cb76aa8097a3c0beaf107a478aa049bae7$__639cec6f8a6040518163ffffffff1660e01b815260040160206040518083038186803b158015611c9957600080fd5b505af4158015611cad573d6000803e3d6000fd5b505050506040513d601f19601f82011682018060405250810190611cd19190612e71565b611cdb8133611c08565b611cf75760405162461bcd60e51b815260040161058c90613487565b5060009182526007602052604090912060050155565b600081565b60035490565b6008546001600160a01b031681565b60066020526000908152604090205481565b611d456111ef83610973565b6112595760405162461bcd60e51b815260040161058c906131ef565b600a546001600160a01b031681565b611d78612c99565b506000908152600760208181526040928390208351610100810185528154815260018201546001600160a01b0316928101929092526002810154938201939093526003830154606082015260048301546080820152600583015460a0820152600683015460c082015291015460e082015290565b73__$cb76aa8097a3c0beaf107a478aa049bae7$__63b1a627816040518163ffffffff1660e01b815260040160206040518083038186803b158015611e3057600080fd5b505af4158015611e44573d6000803e3d6000fd5b505050506040513d601f19601f82011682018060405250810190611e689190612e71565b611e728133611c08565b611e8e5760405162461bcd60e51b815260040161058c90613487565b50600255565b600054610100900460ff1680611ead575060005460ff16155b611ec95760405162461bcd60e51b815260040161058c90613283565b600054610100900460ff16158015611ef4576000805460ff1961ff0019909116610100171660011790555b6000611f008133611c08565b611f1c5760405162461bcd60e51b815260040161058c90613487565b50600880546001600160a01b038088167fffffffffffffffffffffffff00000000000000000000000000000000000000009283161790925560098054878416908316179055600a8054868416908316179055600b80549285169290911691909117905580156106a0576000805461ff00191690555050505050565b60005460ff16611fb95760405162461bcd60e51b815260040161058c90613317565b73__$cb76aa8097a3c0beaf107a478aa049bae7$__6380638d426040518163ffffffff1660e01b815260040160206040518083038186803b158015611ffd57600080fd5b505af4158015612011573d6000803e3d6000fd5b505050506040513d601f19601f820116820180604052508101906120359190612e71565b61203f8133611c08565b61205b5760405162461bcd60e51b815260040161058c90613487565b60055461206757611340565b6000838152600760208181526040928390208351610100810185528154815260018201546001600160a01b0316928101929092526002810154938201939093526003830154606082015260048301546080820152600583015460a08201819052600684015460c0830152929091015460e0820152906120e681856138ba565b6001146120f4575050611340565b600a546040517f378ab9a90000000000000000000000000000000000000000000000000000000081526000916001600160a01b03169063378ab9a99061213e908590600401613107565b60006040518083038186803b15801561215657600080fd5b505afa15801561216a573d6000803e3d6000fd5b505050506040513d6000823e601f3d908101601f191682016040526121929190810190612e04565b600a546040517fd2a4669a0000000000000000000000000000000000000000000000000000000081529192506000916001600160a01b039091169063d2a4669a906121e1908690600401613107565b60006040518083038186803b1580156121f957600080fd5b505afa15801561220d573d6000803e3d6000fd5b505050506040513d6000823e601f3d908101601f191682016040526122359190810190612e04565b600a546040517ffae4425d0000000000000000000000000000000000000000000000000000000081529192506000916001600160a01b039091169063fae4425d90612284908790600401613107565b60006040518083038186803b15801561229c57600080fd5b505afa1580156122b0573d6000803e3d6000fd5b505050506040513d6000823e601f3d908101601f191682016040526122d89190810190612e04565b825190915015612596576000805b835181101561243d576009548751604051634673ffa560e11b81526000926001600160a01b031691638ce7ff4a91612324918b918790600401613823565b604080518083038186803b15801561233b57600080fd5b505afa15801561234f573d6000803e3d6000fd5b505050506040513d601f19601f820116820180604052508101906123739190612ffb565b600001519050600086838151811061239b57634e487b7160e01b600052603260045260246000fd5b6020026020010151905060008684815181106123c757634e487b7160e01b600052603260045260246000fd5b6020026020010151905060008685815181106123f357634e487b7160e01b600052603260045260246000fd5b602002602001015190508284148061241357508184118061241357508084105b1561242657612423866001613863565b95505b505050508080612435906138d1565b9150506122e6565b506000835160055461244f919061389b565b826004548960400151612462919061389b565b61246c919061389b565b612476919061387b565b905080156125935760055460408801518110156124945760006124a6565b87604001516005546124a691906138ba565b60058190556040517feee26d3c1e406e24904d3748e49da85096c92ac1a6ad38f3fe8a404f85212dd1916124df918d9185914290613797565b60405180910390a160008289604001516124f99190613863565b60045490915061250984826138ba565b60048190556040517ff7157643fd549e213a0105625da6b3bf58c86068ccb954a4449e18bf9427bff491612542918f9185914290613797565b60405180910390a161258f8a60000151836040518060400160405280600e81526020017f566f74696e6720526577617264730000000000000000000000000000000000008152508f612639565b5050505b50505b5050505050505050565b60076020819052600091825260409091208054600182015460028301546003840154600485015460058601546006870154969097015494966001600160a01b0390941695929491939092909188565b7fffffffff0000000000000000000000000000000000000000000000000000000081167f01ffc9a70000000000000000000000000000000000000000000000000000000014919050565b60008481526007602052604090819020600201805490859055905185907fab9982d99de79485b3cd6d1e72c881fd0342f42f1cbc7d220d4f373b97c4f36390610ccb90849088908890889042906137b2565b3390565b6126998282611c08565b61121d5760008281526001602081815260408084206001600160a01b0386168552909152909120805460ff191690911790556126d361268b565b6001600160a01b0316816001600160a01b0316837f2f8788117e7eff1d82e926ec794901d17c78024a50270940304540a733656f0d60405160405180910390a45050565b6127218282611c08565b1561121d5760008281526001602090815260408083206001600160a01b03851684529091529020805460ff1916905561275861268b565b6001600160a01b0316816001600160a01b0316837ff6391f5c32d9c69d2a47ea670b442974b53935d1edc7fd64eb21e047a839171b60405160405180910390a45050565b6127a68282612b35565b60008281526007602052604080822060028101546005820154600a5493517f04c075690000000000000000000000000000000000000000000000000000000081529294919390926001600160a01b03909116906304c075699061280d908590600401613107565b60006040518083038186803b15801561282557600080fd5b505afa158015612839573d6000803e3d6000fd5b505050506040513d6000823e601f3d908101601f191682016040526128619190810190612ef4565b606081015160808201518151929350909115612596576000805b8351811015612a21576009548854604051634673ffa560e11b81526000926001600160a01b031691638ce7ff4a916128b9918b918790600401613823565b604080518083038186803b1580156128d057600080fd5b505afa1580156128e4573d6000803e3d6000fd5b505050506040513d601f19601f820116820180604052508101906129089190612ffb565b600001519050600085838151811061293057634e487b7160e01b600052603260045260246000fd5b60200260200101519050600085848151811061295c57634e487b7160e01b600052603260045260246000fd5b602002602001015190508183108061297357508083115b15612a0b5773__$cb76aa8097a3c0beaf107a478aa049bae7$__633002c9ac6040518163ffffffff1660e01b815260040160206040518083038186803b1580156129bc57600080fd5b505af41580156129d0573d6000803e3d6000fd5b505050506040513d601f19601f820116820180604052508101906129f49190612e71565b6129fe908b61387b565b612a089086613863565b94505b5050508080612a19906138d1565b91505061287b565b508015612ada57858111612a355780612a37565b855b8754909150612a8690612a4a83896138ba565b6040518060400160405280600e81526020017f566f74696e672050656e616c74790000000000000000000000000000000000008152508b612639565b600454612a938282613863565b60048190556040517ff7157643fd549e213a0105625da6b3bf58c86068ccb954a4449e18bf9427bff491612acc918c9185914290613797565b60405180910390a150612b2a565b600554612ae78782613863565b60058190556040517feee26d3c1e406e24904d3748e49da85096c92ac1a6ad38f3fe8a404f85212dd191612b20918c9185914290613797565b60405180910390a1505b505050505050505050565b60008281526007602081815260408084208151610100810183528154815260018201546001600160a01b03169381019390935260028101549183019190915260038101546060830181905260048201546080840152600582015460a08401819052600683015460c0850152919093015460e083015290929110612bbc578160600151612bc2565b8160a001515b90506000612bd082856138ba565b60408401519091506000612be4838361080a565b905081811015612c9057612c338560000151826040518060400160405280601281526020017f496e61637469766974792050656e616c7479000000000000000000000000000081525089612639565b600454612c4082846138ba565b600454612c4d9190613863565b60048190556040517ff7157643fd549e213a0105625da6b3bf58c86068ccb954a4449e18bf9427bff491612c86918a9185914290613797565b60405180910390a1505b50505050505050565b6040518061010001604052806000815260200160006001600160a01b031681526020016000815260200160008152602001600081526020016000815260200160008152602001600081525090565b80356001600160a01b03811681146104d957600080fd5b600082601f830112612d0e578081fd5b8151602067ffffffffffffffff821115612d2a57612d2a613902565b808202612d38828201613839565b838152828101908684018388018501891015612d52578687fd5b8693505b85841015612d74578051835260019390930192918401918401612d56565b50979650505050505050565b805180151581146104d957600080fd5b600060208284031215612da1578081fd5b612daa82612ce7565b9392505050565b60008060008060808587031215612dc6578283fd5b612dcf85612ce7565b9350612ddd60208601612ce7565b9250612deb60408601612ce7565b9150612df960608601612ce7565b905092959194509250565b600060208284031215612e15578081fd5b815167ffffffffffffffff811115612e2b578182fd5b612e3784828501612cfe565b949350505050565b600060208284031215612e50578081fd5b612daa82612d80565b600060208284031215612e6a578081fd5b5035919050565b600060208284031215612e82578081fd5b5051919050565b60008060408385031215612e9b578182fd5b82359150612eab60208401612ce7565b90509250929050565b600060208284031215612ec5578081fd5b81357fffffffff0000000000000000000000000000000000000000000000000000000081168114612daa578182fd5b600060208284031215612f05578081fd5b815167ffffffffffffffff80821115612f1c578283fd5b8184019150610100808387031215612f32578384fd5b612f3b81613839565b905082518152602083015182811115612f52578485fd5b612f5e87828601612cfe565b602083015250604083015182811115612f75578485fd5b612f8187828601612cfe565b604083015250606083015182811115612f98578485fd5b612fa487828601612cfe565b606083015250608083015182811115612fbb578485fd5b612fc787828601612cfe565b60808301525060a083015160a082015260c083015160c0820152612fed60e08401612d80565b60e082015295945050505050565b60006040828403121561300c578081fd5b6040516040810181811067ffffffffffffffff8211171561302f5761302f613902565b604052825181526020928301519281019290925250919050565b60008060006060848603121561305d578283fd5b8335925061306d60208501612ce7565b9150604084013590509250925092565b6000806040838503121561308f578182fd5b50508035926020909101359150565b6000602082840312156130af578081fd5b815160ff81168114612daa578182fd5b6001600160a01b039384168152919092166020820152604081019190915260600190565b6001600160a01b03929092168252602082015260400190565b901515815260200190565b90815260200190565b6001600160a01b0391909116815260200190565b6020808252602f908201527f416363657373436f6e74726f6c3a2073656e646572206d75737420626520616e60408201527f2061646d696e20746f206772616e740000000000000000000000000000000000606082015260800190565b6020808252601a908201527f57697468647261772065706f6368206e6f742072656163686564000000000000604082015260600190565b60208082526019908201527f6661696c656420746f207472616e7366657220626f756e747900000000000000604082015260600190565b60208082526030908201527f416363657373436f6e74726f6c3a2073656e646572206d75737420626520616e60408201527f2061646d696e20746f207265766f6b6500000000000000000000000000000000606082015260800190565b60208082526011908201527f4e6f6e706f736974697665207374616b65000000000000000000000000000000604082015260600190565b6020808252602e908201527f496e697469616c697a61626c653a20636f6e747261637420697320616c72656160408201527f647920696e697469616c697a6564000000000000000000000000000000000000606082015260800190565b60208082526013908201527f736368207472616e73666572206661696c656400000000000000000000000000604082015260600190565b6020808252601e908201527f436f6e74726163742073686f756c6420626520696e697469616c697a65640000604082015260600190565b60208082526010908201527f636f756c646e74207472616e7366657200000000000000000000000000000000604082015260600190565b60208082526033908201527f50617274696369706174656420696e205769746864726177206c6f636b20706560408201527f72696f642c2043616e7420776974686472617700000000000000000000000000606082015260800190565b6020808252600f908201527f696e636f72726563742065706f63680000000000000000000000000000000000604082015260600190565b60208082526013908201527f7374616b657220646f65736e7420657869737400000000000000000000000000604082015260600190565b60208082526006908201527f6c6f636b65640000000000000000000000000000000000000000000000000000604082015260600190565b6020808252601a908201527f41434c3a2073656e646572206e6f7420617574686f72697a6564000000000000604082015260600190565b6020808252600d908201527f7374616b65722e6964203d203000000000000000000000000000000000000000604082015260600190565b6020808252600f908201527f496e636f72726563742073746174650000000000000000000000000000000000604082015260600190565b6020808252602a908201527f616c726561647920636f6d6d6974656420746869732065706f63682e2043616e60408201527f7420776974686472617700000000000000000000000000000000000000000000606082015260800190565b6020808252600f908201527f446964206e6f7420756e7374616b650000000000000000000000000000000000604082015260600190565b6020808252600f908201527f696e636f72726563742073746174650000000000000000000000000000000000604082015260600190565b60208082526011908201527f4e6f6e706f736974697665205374616b65000000000000000000000000000000604082015260600190565b6020808252602f908201527f416363657373436f6e74726f6c3a2063616e206f6e6c792072656e6f756e636560408201527f20726f6c657320666f722073656c660000000000000000000000000000000000606082015260800190565b60208082526031908201527f7374616b656420616d6f756e74206973206c657373207468616e206d696e696d60408201527f756d207374616b65207265717569726564000000000000000000000000000000606082015260800190565b600061010082019050825182526001600160a01b03602084015116602083015260408301516040830152606083015160608301526080830151608083015260a083015160a083015260c083015160c083015260e083015160e083015292915050565b9788526001600160a01b0396909616602088015260408701949094526060860192909252608085015260a084015260c083015260e08201526101000190565b918252602082015260400190565b93845260208401929092526040830152606082015260800190565b60008682526020868184015260a0604084015285518060a0850152825b818110156137eb5787810183015185820160c0015282016137cf565b818111156137fc578360c083870101525b5060608401959095525050608081019190915260c0601f909201601f191601019392505050565b9283526020830191909152604082015260600190565b60405181810167ffffffffffffffff8111828210171561385b5761385b613902565b604052919050565b60008219821115613876576138766138ec565b500190565b60008261389657634e487b7160e01b81526012600452602481fd5b500490565b60008160001904831182151516156138b5576138b56138ec565b500290565b6000828210156138cc576138cc6138ec565b500390565b60006000198214156138e5576138e56138ec565b5060010190565b634e487b7160e01b600052601160045260246000fd5b634e487b7160e01b600052604160045260246000fdfea26469706673582212209779da24218b4aa51a652f10c3a909fbea6a3f7519c92af4f83f059efebadb0d64736f6c63430008000033",
  "linkReferences": {
    "contracts/lib/Constants.sol": {
      "Constants": [
        {
          "length": 20,
          "start": 1579
        },
        {
          "length": 20,
          "start": 2058
        },
        {
          "length": 20,
          "start": 2399
        },
        {
          "length": 20,
          "start": 2523
        },
        {
          "length": 20,
          "start": 2950
        },
        {
          "length": 20,
          "start": 3398
        },
        {
          "length": 20,
          "start": 3799
        },
        {
          "length": 20,
          "start": 4240
        },
        {
          "length": 20,
          "start": 5077
        },
        {
          "length": 20,
          "start": 5293
        },
        {
          "length": 20,
          "start": 5831
        },
        {
          "length": 20,
          "start": 6122
        },
        {
          "length": 20,
          "start": 6413
        },
        {
          "length": 20,
          "start": 6875
        },
        {
          "length": 20,
          "start": 7241
        },
        {
          "length": 20,
          "start": 7574
        },
        {
          "length": 20,
          "start": 7981
        },
        {
          "length": 20,
          "start": 8442
        },
        {
          "length": 20,
          "start": 10937
        }
      ]
    }
  },
  "deployedLinkReferences": {
    "contracts/lib/Constants.sol": {
      "Constants": [
        {
          "length": 20,
          "start": 1260
        },
        {
          "length": 20,
          "start": 1739
        },
        {
          "length": 20,
          "start": 2080
        },
        {
          "length": 20,
          "start": 2204
        },
        {
          "length": 20,
          "start": 2631
        },
        {
          "length": 20,
          "start": 3079
        },
        {
          "length": 20,
          "start": 3480
        },
        {
          "length": 20,
          "start": 3921
        },
        {
          "length": 20,
          "start": 4758
        },
        {
          "length": 20,
          "start": 4974
        },
        {
          "length": 20,
          "start": 5512
        },
        {
          "length": 20,
          "start": 5803
        },
        {
          "length": 20,
          "start": 6094
        },
        {
          "length": 20,
          "start": 6556
        },
        {
          "length": 20,
          "start": 6922
        },
        {
          "length": 20,
          "start": 7255
        },
        {
          "length": 20,
          "start": 7662
        },
        {
          "length": 20,
          "start": 8123
        },
        {
          "length": 20,
          "start": 10618
        }
      ]
    }
  }
}