{
  "_format": "hh-sol-artifact-1",
  "contractName": "StakeManager",
  "sourceName": "contracts/Core/StakeManager.sol",
  "abi": [
    {
      "inputs": [
        {
          "internalType": "uint256",
          "name": "_blockReward",
          "type": "uint256"
        }
      ],
      "stateMutability": "nonpayable",
      "type": "constructor"
    },
    {
      "anonymous": false,
      "inputs": [
        {
          "indexed": false,
          "internalType": "uint256",
          "name": "epoch",
          "type": "uint256"
        },
        {
          "indexed": false,
          "internalType": "uint256",
          "name": "prevRewardPool",
          "type": "uint256"
        },
        {
          "indexed": false,
          "internalType": "uint256",
          "name": "rewardPool",
          "type": "uint256"
        },
        {
          "indexed": false,
          "internalType": "uint256",
          "name": "timestamp",
          "type": "uint256"
        }
      ],
      "name": "RewardPoolChange",
      "type": "event"
    },
    {
      "anonymous": false,
      "inputs": [
        {
          "indexed": true,
          "internalType": "bytes32",
          "name": "role",
          "type": "bytes32"
        },
        {
          "indexed": true,
          "internalType": "bytes32",
          "name": "previousAdminRole",
          "type": "bytes32"
        },
        {
          "indexed": true,
          "internalType": "bytes32",
          "name": "newAdminRole",
          "type": "bytes32"
        }
      ],
      "name": "RoleAdminChanged",
      "type": "event"
    },
    {
      "anonymous": false,
      "inputs": [
        {
          "indexed": true,
          "internalType": "bytes32",
          "name": "role",
          "type": "bytes32"
        },
        {
          "indexed": true,
          "internalType": "address",
          "name": "account",
          "type": "address"
        },
        {
          "indexed": true,
          "internalType": "address",
          "name": "sender",
          "type": "address"
        }
      ],
      "name": "RoleGranted",
      "type": "event"
    },
    {
      "anonymous": false,
      "inputs": [
        {
          "indexed": true,
          "internalType": "bytes32",
          "name": "role",
          "type": "bytes32"
        },
        {
          "indexed": true,
          "internalType": "address",
          "name": "account",
          "type": "address"
        },
        {
          "indexed": true,
          "internalType": "address",
          "name": "sender",
          "type": "address"
        }
      ],
      "name": "RoleRevoked",
      "type": "event"
    },
    {
      "anonymous": false,
      "inputs": [
        {
          "indexed": true,
          "internalType": "uint256",
          "name": "stakerId",
          "type": "uint256"
        },
        {
          "indexed": false,
          "internalType": "uint256",
          "name": "previousStake",
          "type": "uint256"
        },
        {
          "indexed": false,
          "internalType": "uint256",
          "name": "newStake",
          "type": "uint256"
        },
        {
          "indexed": false,
          "internalType": "string",
          "name": "reason",
          "type": "string"
        },
        {
          "indexed": false,
          "internalType": "uint256",
          "name": "epoch",
          "type": "uint256"
        },
        {
          "indexed": false,
          "internalType": "uint256",
          "name": "timestamp",
          "type": "uint256"
        }
      ],
      "name": "StakeChange",
      "type": "event"
    },
    {
      "anonymous": false,
      "inputs": [
        {
          "indexed": false,
          "internalType": "uint256",
          "name": "epoch",
          "type": "uint256"
        },
        {
          "indexed": false,
          "internalType": "uint256",
          "name": "prevStakeGettingReward",
          "type": "uint256"
        },
        {
          "indexed": false,
          "internalType": "uint256",
          "name": "stakeGettingReward",
          "type": "uint256"
        },
        {
          "indexed": false,
          "internalType": "uint256",
          "name": "timestamp",
          "type": "uint256"
        }
      ],
      "name": "StakeGettingRewardChange",
      "type": "event"
    },
    {
      "anonymous": false,
      "inputs": [
        {
          "indexed": false,
          "internalType": "uint256",
          "name": "epoch",
          "type": "uint256"
        },
        {
          "indexed": true,
          "internalType": "uint256",
          "name": "stakerId",
          "type": "uint256"
        },
        {
          "indexed": false,
          "internalType": "uint256",
          "name": "previousStake",
          "type": "uint256"
        },
        {
          "indexed": false,
          "internalType": "uint256",
          "name": "newStake",
          "type": "uint256"
        },
        {
          "indexed": false,
          "internalType": "uint256",
          "name": "timestamp",
          "type": "uint256"
        }
      ],
      "name": "Staked",
      "type": "event"
    },
    {
      "anonymous": false,
      "inputs": [
        {
          "indexed": false,
          "internalType": "uint256",
          "name": "epoch",
          "type": "uint256"
        },
        {
          "indexed": true,
          "internalType": "uint256",
          "name": "stakerId",
          "type": "uint256"
        },
        {
          "indexed": false,
          "internalType": "uint256",
          "name": "amount",
          "type": "uint256"
        },
        {
          "indexed": false,
          "internalType": "uint256",
          "name": "newStake",
          "type": "uint256"
        },
        {
          "indexed": false,
          "internalType": "uint256",
          "name": "timestamp",
          "type": "uint256"
        }
      ],
      "name": "Unstaked",
      "type": "event"
    },
    {
      "anonymous": false,
      "inputs": [
        {
          "indexed": false,
          "internalType": "uint256",
          "name": "epoch",
          "type": "uint256"
        },
        {
          "indexed": true,
          "internalType": "uint256",
          "name": "stakerId",
          "type": "uint256"
        },
        {
          "indexed": false,
          "internalType": "uint256",
          "name": "amount",
          "type": "uint256"
        },
        {
          "indexed": false,
          "internalType": "uint256",
          "name": "newStake",
          "type": "uint256"
        },
        {
          "indexed": false,
          "internalType": "uint256",
          "name": "timestamp",
          "type": "uint256"
        }
      ],
      "name": "Withdrew",
      "type": "event"
    },
    {
      "inputs": [],
      "name": "DEFAULT_ADMIN_ROLE",
      "outputs": [
        {
          "internalType": "bytes32",
          "name": "",
          "type": "bytes32"
        }
      ],
      "stateMutability": "view",
      "type": "function"
    },
    {
      "inputs": [],
      "name": "blockManager",
      "outputs": [
        {
          "internalType": "contract IBlockManager",
          "name": "",
          "type": "address"
        }
      ],
      "stateMutability": "view",
      "type": "function"
    },
    {
      "inputs": [],
      "name": "blockReward",
      "outputs": [
        {
          "internalType": "uint256",
          "name": "",
          "type": "uint256"
        }
      ],
      "stateMutability": "view",
      "type": "function"
    },
    {
      "inputs": [
        {
          "internalType": "uint256",
          "name": "epochs",
          "type": "uint256"
        },
        {
          "internalType": "uint256",
          "name": "stakeValue",
          "type": "uint256"
        }
      ],
      "name": "calculateInactivityPenalties",
      "outputs": [
        {
          "internalType": "uint256",
          "name": "",
          "type": "uint256"
        }
      ],
      "stateMutability": "pure",
      "type": "function"
    },
    {
      "inputs": [],
      "name": "getNumStakers",
      "outputs": [
        {
          "internalType": "uint256",
          "name": "",
          "type": "uint256"
        }
      ],
      "stateMutability": "view",
      "type": "function"
    },
    {
      "inputs": [],
      "name": "getRewardPool",
      "outputs": [
        {
          "internalType": "uint256",
          "name": "",
          "type": "uint256"
        }
      ],
      "stateMutability": "view",
      "type": "function"
    },
    {
      "inputs": [
        {
          "internalType": "bytes32",
          "name": "role",
          "type": "bytes32"
        }
      ],
      "name": "getRoleAdmin",
      "outputs": [
        {
          "internalType": "bytes32",
          "name": "",
          "type": "bytes32"
        }
      ],
      "stateMutability": "view",
      "type": "function"
    },
    {
      "inputs": [],
      "name": "getStakeGettingReward",
      "outputs": [
        {
          "internalType": "uint256",
          "name": "",
          "type": "uint256"
        }
      ],
      "stateMutability": "view",
      "type": "function"
    },
    {
      "inputs": [
        {
          "internalType": "uint256",
          "name": "_id",
          "type": "uint256"
        }
      ],
      "name": "getStaker",
      "outputs": [
        {
          "components": [
            {
              "internalType": "uint256",
              "name": "id",
              "type": "uint256"
            },
            {
              "internalType": "address",
              "name": "_address",
              "type": "address"
            },
            {
              "internalType": "uint256",
              "name": "stake",
              "type": "uint256"
            },
            {
              "internalType": "uint256",
              "name": "epochStaked",
              "type": "uint256"
            },
            {
              "internalType": "uint256",
              "name": "epochLastCommitted",
              "type": "uint256"
            },
            {
              "internalType": "uint256",
              "name": "epochLastRevealed",
              "type": "uint256"
            },
            {
              "internalType": "uint256",
              "name": "unstakeAfter",
              "type": "uint256"
            },
            {
              "internalType": "uint256",
              "name": "withdrawAfter",
              "type": "uint256"
            }
          ],
          "internalType": "struct Structs.Staker",
          "name": "staker",
          "type": "tuple"
        }
      ],
      "stateMutability": "view",
      "type": "function"
    },
    {
      "inputs": [
        {
          "internalType": "address",
          "name": "_address",
          "type": "address"
        }
      ],
      "name": "getStakerId",
      "outputs": [
        {
          "internalType": "uint256",
          "name": "",
          "type": "uint256"
        }
      ],
      "stateMutability": "view",
      "type": "function"
    },
    {
      "inputs": [
        {
          "internalType": "uint256",
          "name": "stakerId",
          "type": "uint256"
        },
        {
          "internalType": "uint256",
          "name": "epoch",
          "type": "uint256"
        }
      ],
      "name": "giveBlockReward",
      "outputs": [],
      "stateMutability": "nonpayable",
      "type": "function"
    },
    {
      "inputs": [
        {
          "internalType": "uint256",
          "name": "stakerId",
          "type": "uint256"
        },
        {
          "internalType": "uint256",
          "name": "epoch",
          "type": "uint256"
        }
      ],
      "name": "givePenalties",
      "outputs": [],
      "stateMutability": "nonpayable",
      "type": "function"
    },
    {
      "inputs": [
        {
          "internalType": "uint256",
          "name": "stakerId",
          "type": "uint256"
        },
        {
          "internalType": "uint256",
          "name": "epoch",
          "type": "uint256"
        }
      ],
      "name": "giveRewards",
      "outputs": [],
      "stateMutability": "nonpayable",
      "type": "function"
    },
    {
      "inputs": [
        {
          "internalType": "bytes32",
          "name": "role",
          "type": "bytes32"
        },
        {
          "internalType": "address",
          "name": "account",
          "type": "address"
        }
      ],
      "name": "grantRole",
      "outputs": [],
      "stateMutability": "nonpayable",
      "type": "function"
    },
    {
      "inputs": [
        {
          "internalType": "bytes32",
          "name": "role",
          "type": "bytes32"
        },
        {
          "internalType": "address",
          "name": "account",
          "type": "address"
        }
      ],
      "name": "hasRole",
      "outputs": [
        {
          "internalType": "bool",
          "name": "",
          "type": "bool"
        }
      ],
      "stateMutability": "view",
      "type": "function"
    },
    {
      "inputs": [
        {
          "internalType": "address",
          "name": "_schAddress",
          "type": "address"
        },
        {
          "internalType": "address",
          "name": "_voteManagerAddress",
          "type": "address"
        },
        {
          "internalType": "address",
          "name": "_blockManagerAddress",
          "type": "address"
        },
        {
          "internalType": "address",
          "name": "_stateManagerAddress",
          "type": "address"
        }
      ],
      "name": "init",
      "outputs": [],
      "stateMutability": "nonpayable",
      "type": "function"
    },
    {
      "inputs": [],
      "name": "numStakers",
      "outputs": [
        {
          "internalType": "uint256",
          "name": "",
          "type": "uint256"
        }
      ],
      "stateMutability": "view",
      "type": "function"
    },
    {
      "inputs": [
        {
          "internalType": "bytes32",
          "name": "role",
          "type": "bytes32"
        },
        {
          "internalType": "address",
          "name": "account",
          "type": "address"
        }
      ],
      "name": "renounceRole",
      "outputs": [],
      "stateMutability": "nonpayable",
      "type": "function"
    },
    {
      "inputs": [
        {
          "internalType": "bytes32",
          "name": "role",
          "type": "bytes32"
        },
        {
          "internalType": "address",
          "name": "account",
          "type": "address"
        }
      ],
      "name": "revokeRole",
      "outputs": [],
      "stateMutability": "nonpayable",
      "type": "function"
    },
    {
      "inputs": [],
      "name": "rewardPool",
      "outputs": [
        {
          "internalType": "uint256",
          "name": "",
          "type": "uint256"
        }
      ],
      "stateMutability": "view",
      "type": "function"
    },
    {
      "inputs": [],
      "name": "sch",
      "outputs": [
        {
          "internalType": "contract SchellingCoin",
          "name": "",
          "type": "address"
        }
      ],
      "stateMutability": "view",
      "type": "function"
    },
    {
      "inputs": [
        {
          "internalType": "uint256",
          "name": "_id",
          "type": "uint256"
        },
        {
          "internalType": "uint256",
          "name": "_epochLastRevealed",
          "type": "uint256"
        }
      ],
      "name": "setStakerEpochLastRevealed",
      "outputs": [],
      "stateMutability": "nonpayable",
      "type": "function"
    },
    {
      "inputs": [
        {
          "internalType": "uint256",
          "name": "id",
          "type": "uint256"
        },
        {
          "internalType": "address",
          "name": "bountyHunter",
          "type": "address"
        },
        {
          "internalType": "uint256",
          "name": "epoch",
          "type": "uint256"
        }
      ],
      "name": "slash",
      "outputs": [],
      "stateMutability": "nonpayable",
      "type": "function"
    },
    {
      "inputs": [
        {
          "internalType": "uint256",
          "name": "epoch",
          "type": "uint256"
        },
        {
          "internalType": "uint256",
          "name": "amount",
          "type": "uint256"
        }
      ],
      "name": "stake",
      "outputs": [],
      "stateMutability": "nonpayable",
      "type": "function"
    },
    {
      "inputs": [],
      "name": "stakeGettingReward",
      "outputs": [
        {
          "internalType": "uint256",
          "name": "",
          "type": "uint256"
        }
      ],
      "stateMutability": "view",
      "type": "function"
    },
    {
      "inputs": [
        {
          "internalType": "address",
          "name": "",
          "type": "address"
        }
      ],
      "name": "stakerIds",
      "outputs": [
        {
          "internalType": "uint256",
          "name": "",
          "type": "uint256"
        }
      ],
      "stateMutability": "view",
      "type": "function"
    },
    {
      "inputs": [
        {
          "internalType": "uint256",
          "name": "",
          "type": "uint256"
        }
      ],
      "name": "stakers",
      "outputs": [
        {
          "internalType": "uint256",
          "name": "id",
          "type": "uint256"
        },
        {
          "internalType": "address",
          "name": "_address",
          "type": "address"
        },
        {
          "internalType": "uint256",
          "name": "stake",
          "type": "uint256"
        },
        {
          "internalType": "uint256",
          "name": "epochStaked",
          "type": "uint256"
        },
        {
          "internalType": "uint256",
          "name": "epochLastCommitted",
          "type": "uint256"
        },
        {
          "internalType": "uint256",
          "name": "epochLastRevealed",
          "type": "uint256"
        },
        {
          "internalType": "uint256",
          "name": "unstakeAfter",
          "type": "uint256"
        },
        {
          "internalType": "uint256",
          "name": "withdrawAfter",
          "type": "uint256"
        }
      ],
      "stateMutability": "view",
      "type": "function"
    },
    {
      "inputs": [],
      "name": "stateManager",
      "outputs": [
        {
          "internalType": "contract IStateManager",
          "name": "",
          "type": "address"
        }
      ],
      "stateMutability": "view",
      "type": "function"
    },
    {
      "inputs": [
        {
          "internalType": "bytes4",
          "name": "interfaceId",
          "type": "bytes4"
        }
      ],
      "name": "supportsInterface",
      "outputs": [
        {
          "internalType": "bool",
          "name": "",
          "type": "bool"
        }
      ],
      "stateMutability": "view",
      "type": "function"
    },
    {
      "inputs": [
        {
          "internalType": "uint256",
          "name": "epoch",
          "type": "uint256"
        }
      ],
      "name": "unstake",
      "outputs": [],
      "stateMutability": "nonpayable",
      "type": "function"
    },
    {
      "inputs": [
        {
          "internalType": "uint256",
          "name": "_blockReward",
          "type": "uint256"
        }
      ],
      "name": "updateBlockReward",
      "outputs": [],
      "stateMutability": "nonpayable",
      "type": "function"
    },
    {
      "inputs": [
        {
          "internalType": "uint256",
          "name": "stakerId",
          "type": "uint256"
        }
      ],
      "name": "updateCommitmentEpoch",
      "outputs": [],
      "stateMutability": "nonpayable",
      "type": "function"
    },
    {
      "inputs": [],
      "name": "voteManager",
      "outputs": [
        {
          "internalType": "contract IVoteManager",
          "name": "",
          "type": "address"
        }
      ],
      "stateMutability": "view",
      "type": "function"
    },
    {
      "inputs": [
        {
          "internalType": "uint256",
          "name": "epoch",
          "type": "uint256"
        }
      ],
      "name": "withdraw",
      "outputs": [],
      "stateMutability": "nonpayable",
      "type": "function"
    }
  ],
  "bytecode": "0x60806040523480156200001157600080fd5b506040516200391238038062003912833981016040819052620000349162000111565b620000416000336200004a565b6001556200012a565b6200005682826200005a565b5050565b620000668282620000e4565b62000056576000828152602081815260408083206001600160a01b03851684529091529020805460ff19166001179055620000a06200010d565b6001600160a01b0316816001600160a01b0316837f2f8788117e7eff1d82e926ec794901d17c78024a50270940304540a733656f0d60405160405180910390a45050565b6000918252602082815260408084206001600160a01b0393909316845291905290205460ff1690565b3390565b60006020828403121562000123578081fd5b5051919050565b6137d8806200013a6000396000f3fe608060405234801561001057600080fd5b50600436106102265760003560e01c80636022a4851161012a578063bc788d46116100bd578063d9169b321161008c578063f580ffcb11610071578063f580ffcb14610433578063fabb989014610446578063fd5e6dd11461045957610226565b8063d9169b321461040b578063e3c998fe1461041357610226565b8063bc788d46146103d5578063c584bb9f146103dd578063c8ae0d7d146103e5578063d547741f146103f857610226565b80637b0472f0116100f95780637b0472f01461039457806391d14854146103a75780639864f70a146103ba578063a217fddf146103cd57610226565b80636022a4851461035e57806366666aa9146103715780636c8b052a14610379578063746c8b651461038157610226565b80631b8b13a7116101bd5780632e716fb11161018c57806336568abe1161017157806336568abe1461033057806342c1e5871461034357806354eae15e1461034b57610226565b80632e716fb1146103085780632f2ff15d1461031d57610226565b80631b8b13a7146102c7578063248a9ca3146102cf5780632e17de78146102e25780632e1a7d4d146102f557610226565b80630f91ce19116101f95780630f91ce1914610286578063188dc83b146102995780631a69f008146102ac5780631ad54991146102bf57610226565b806301ffc9a71461022b57806306552ff3146102545780630ac168a1146102695780630ec88d3f1461027e575b600080fd5b61023e610239366004612dd2565b610480565b60405161024b919061301a565b60405180910390f35b610267610262366004612ccf565b6104de565b005b610271610546565b60405161024b9190613025565b61027161054c565b610267610294366004612f67565b610552565b6102676102a7366004612d77565b61070f565b6102716102ba366004612f9b565b610850565b6102716109ad565b6102716109b3565b6102716102dd366004612d77565b6109b9565b6102676102f0366004612d77565b6109ce565b610267610303366004612d77565b610cfd565b6103106111d5565b60405161024b919061302e565b61026761032b366004612da7565b6111e4565b61026761033e366004612da7565b611222565b610310611264565b610267610359366004612f9b565b611273565b61027161036c366004612cae565b611324565b61027161133f565b610271611345565b61026761038f366004612f9b565b61134b565b6102676103a2366004612f9b565b611551565b61023e6103b5366004612da7565b611c73565b6102676103c8366004612f9b565b611c9c565b610271611d54565b610271611d59565b610310611d5f565b6102716103f3366004612cae565b611d6e565b610267610406366004612da7565b611d80565b610310611da8565b610426610421366004612d77565b611db7565b60405161024b9190613572565b610267610441366004612d77565b611e35565b610267610454366004612f9b565b611edd565b61046c610467366004612d77565b6124c3565b60405161024b9897969594939291906135d4565b60007fffffffff0000000000000000000000000000000000000000000000000000000082167f7965db0b0000000000000000000000000000000000000000000000000000000014806104d657506104d682612512565b90505b919050565b600780546001600160a01b039586167fffffffffffffffffffffffff00000000000000000000000000000000000000009182161790915560088054948616948216949094179093556009805492851692841692909217909155600a8054919093169116179055565b60015481565b60045481565b73__$cb76aa8097a3c0beaf107a478aa049bae7$__6380638d426040518163ffffffff1660e01b815260040160206040518083038186803b15801561059657600080fd5b505af41580156105aa573d6000803e3d6000fd5b505050506040513d601f19601f820116820180604052508101906105ce9190612d8f565b6105d88133611c73565b6105fd5760405162461bcd60e51b81526004016105f490613311565b60405180910390fd5b600084815260066020526040812060029081015461061b9190613705565b905061065f8560006040518060400160405280600781526020017f536c6173686564000000000000000000000000000000000000000000000000008152508661255c565b60018111156107085760075460405163a9059cbb60e01b81526001600160a01b039091169063a9059cbb9061069a9087908590600401613001565b602060405180830381600087803b1580156106b457600080fd5b505af11580156106c8573d6000803e3d6000fd5b505050506040513d601f19601f820116820180604052508101906106ec9190612d5d565b6107085760405162461bcd60e51b81526004016105f4906130d6565b5050505050565b73__$cb76aa8097a3c0beaf107a478aa049bae7$__639cec6f8a6040518163ffffffff1660e01b815260040160206040518083038186803b15801561075357600080fd5b505af4158015610767573d6000803e3d6000fd5b505050506040513d601f19601f8201168201806040525081019061078b9190612d8f565b6107958133611c73565b6107b15760405162461bcd60e51b81526004016105f490613311565b600a60009054906101000a90046001600160a01b03166001600160a01b031663757991a86040518163ffffffff1660e01b815260040160206040518083038186803b1580156107ff57600080fd5b505afa158015610813573d6000803e3d6000fd5b505050506040513d601f19601f820116820180604052508101906108379190612d8f565b6000928352600660205260409092206004019190915550565b6000600a8310156108625750806109a7565b600073__$cb76aa8097a3c0beaf107a478aa049bae7$__63b1cc45006040518163ffffffff1660e01b815260040160206040518083038186803b1580156108a857600080fd5b505af41580156108bc573d6000803e3d6000fd5b505050506040513d601f19601f820116820180604052508101906108e09190612d8f565b73__$cb76aa8097a3c0beaf107a478aa049bae7$__63a86f5a3f6040518163ffffffff1660e01b815260040160206040518083038186803b15801561092457600080fd5b505af4158015610938573d6000803e3d6000fd5b505050506040513d601f19601f8201168201806040525081019061095c9190612d8f565b6109669085613725565b610971600187613744565b61097b9190613725565b6109859190613705565b9050828110156109a1576109998184613744565b9150506109a7565b60009150505b92915050565b60045490565b60035490565b60009081526020819052604090206001015490565b600a5460408051630eaf323560e31b8152905183926001600160a01b03169163757991a8916004808301926020929190829003018186803b158015610a1257600080fd5b505afa158015610a26573d6000803e3d6000fd5b505050506040513d601f19601f82011682018060405250810190610a4a9190612d8f565b8114610a685760405162461bcd60e51b81526004016105f49061326c565b73__$cb76aa8097a3c0beaf107a478aa049bae7$__633c7a3aff6040518163ffffffff1660e01b815260040160206040518083038186803b158015610aac57600080fd5b505af4158015610ac0573d6000803e3d6000fd5b505050506040513d601f19601f82011682018060405250810190610ae49190612fbc565b60ff16600a60009054906101000a90046001600160a01b03166001600160a01b0316631865c57d6040518163ffffffff1660e01b815260040160206040518083038186803b158015610b3557600080fd5b505afa158015610b49573d6000803e3d6000fd5b505050506040513d601f19601f82011682018060405250810190610b6d9190612d8f565b8114610b8b5760405162461bcd60e51b81526004016105f49061344a565b3360009081526005602090815260408083205480845260069092529091208054610bc75760405162461bcd60e51b81526004016105f490613348565b6000816002015411610beb5760405162461bcd60e51b81526004016105f49061316a565b84816006015411158015610c025750600681015415155b610c1e5760405162461bcd60e51b81526004016105f4906132da565b6000816006018190555073__$cb76aa8097a3c0beaf107a478aa049bae7$__632628490f6040518163ffffffff1660e01b815260040160206040518083038186803b158015610c6c57600080fd5b505af4158015610c80573d6000803e3d6000fd5b505050506040513d601f19601f82011682018060405250810190610ca49190612d8f565b610cae90866136ed565b6007820155600281015460405183917f0cfbc484edc798d2584502ca0d64e7e9514b8dd091d96a2a5b4deb58478da19e91610cee91899181904290613621565b60405180910390a25050505050565b600a5460408051630eaf323560e31b8152905183926001600160a01b03169163757991a8916004808301926020929190829003018186803b158015610d4157600080fd5b505afa158015610d55573d6000803e3d6000fd5b505050506040513d601f19601f82011682018060405250810190610d799190612d8f565b8114610d975760405162461bcd60e51b81526004016105f49061326c565b73__$cb76aa8097a3c0beaf107a478aa049bae7$__633c7a3aff6040518163ffffffff1660e01b815260040160206040518083038186803b158015610ddb57600080fd5b505af4158015610def573d6000803e3d6000fd5b505050506040513d601f19601f82011682018060405250810190610e139190612fbc565b60ff16600a60009054906101000a90046001600160a01b03166001600160a01b0316631865c57d6040518163ffffffff1660e01b815260040160206040518083038186803b158015610e6457600080fd5b505afa158015610e78573d6000803e3d6000fd5b505050506040513d601f19601f82011682018060405250810190610e9c9190612d8f565b8114610eba5760405162461bcd60e51b81526004016105f49061344a565b3360009081526005602090815260408083205480845260069092529091208054610ef65760405162461bcd60e51b81526004016105f4906132a3565b600681015415610f185760405162461bcd60e51b81526004016105f490613413565b84816007015411158015610f2f5750600781015415155b610f4b5760405162461bcd60e51b81526004016105f49061309f565b806005015473__$cb76aa8097a3c0beaf107a478aa049bae7$__632628490f6040518163ffffffff1660e01b815260040160206040518083038186803b158015610f9457600080fd5b505af4158015610fa8573d6000803e3d6000fd5b505050506040513d601f19601f82011682018060405250810190610fcc9190612d8f565b8260070154610fdb9190613744565b1015610ff95760405162461bcd60e51b81526004016105f49061320f565b6008546040517f7164f0d60000000000000000000000000000000000000000000000000000000081526001600160a01b0390911690637164f0d6906110449088908690600401613613565b60206040518083038186803b15801561105c57600080fd5b505afa158015611070573d6000803e3d6000fd5b505050506040513d601f19601f820116820180604052508101906110949190612d8f565b156110b15760405162461bcd60e51b81526004016105f4906133b6565b60008160020154116110d55760405162461bcd60e51b81526004016105f490613481565b6000828152600660205260408082206002018054908390559051909184917f0a6fecee2c95fc6b4c7f291e3435a3a832bcd700c2a7ffdedd8c909d56dfa49f91611125918a919081904290613621565b60405180910390a260075460405163a9059cbb60e01b81526001600160a01b039091169063a9059cbb9061115f9033908590600401613001565b602060405180830381600087803b15801561117957600080fd5b505af115801561118d573d6000803e3d6000fd5b505050506040513d601f19601f820116820180604052508101906111b19190612d5d565b6111cd5760405162461bcd60e51b81526004016105f4906131d8565b505050505050565b600a546001600160a01b031681565b6111f86111f0836109b9565b6103b56125ae565b6112145760405162461bcd60e51b81526004016105f490613042565b61121e82826125b2565b5050565b61122a6125ae565b6001600160a01b0316816001600160a01b03161461125a5760405162461bcd60e51b81526004016105f4906134b8565b61121e8282612637565b6008546001600160a01b031681565b73__$cb76aa8097a3c0beaf107a478aa049bae7$__6380638d426040518163ffffffff1660e01b815260040160206040518083038186803b1580156112b757600080fd5b505af41580156112cb573d6000803e3d6000fd5b505050506040513d601f19601f820116820180604052508101906112ef9190612d8f565b6112f98133611c73565b6113155760405162461bcd60e51b81526004016105f490613311565b61131f83836126ba565b505050565b6001600160a01b031660009081526005602052604090205490565b60035481565b60025481565b73__$cb76aa8097a3c0beaf107a478aa049bae7$__6380638d426040518163ffffffff1660e01b815260040160206040518083038186803b15801561138f57600080fd5b505af41580156113a3573d6000803e3d6000fd5b505050506040513d601f19601f820116820180604052508101906113c79190612d8f565b6113d18133611c73565b6113ed5760405162461bcd60e51b81526004016105f490613311565b60015415611502576001546000848152600660205260408120600201549091611415916136ed565b905061145884826040518060400160405280600c81526020017f426c6f636b2052657761726400000000000000000000000000000000000000008152508661255c565b6007546001546040517f40c10f190000000000000000000000000000000000000000000000000000000081526001600160a01b03909216916340c10f19916114a591309190600401613001565b602060405180830381600087803b1580156114bf57600080fd5b505af11580156114d3573d6000803e3d6000fd5b505050506040513d601f19601f820116820180604052508101906114f79190612d5d565b61150057600080fd5b505b6004805460009182905560405190917feee26d3c1e406e24904d3748e49da85096c92ac1a6ad38f3fe8a404f85212dd1916115439186918591904290613621565b60405180910390a150505050565b600a5460408051630eaf323560e31b8152905184926001600160a01b03169163757991a8916004808301926020929190829003018186803b15801561159557600080fd5b505afa1580156115a9573d6000803e3d6000fd5b505050506040513d601f19601f820116820180604052508101906115cd9190612d8f565b81146115eb5760405162461bcd60e51b81526004016105f49061326c565b73__$cb76aa8097a3c0beaf107a478aa049bae7$__633c7a3aff6040518163ffffffff1660e01b815260040160206040518083038186803b15801561162f57600080fd5b505af4158015611643573d6000803e3d6000fd5b505050506040513d601f19601f820116820180604052508101906116679190612fbc565b60ff16600a60009054906101000a90046001600160a01b03166001600160a01b0316631865c57d6040518163ffffffff1660e01b815260040160206040518083038186803b1580156116b857600080fd5b505afa1580156116cc573d6000803e3d6000fd5b505050506040513d601f19601f820116820180604052508101906116f09190612d8f565b811461170e5760405162461bcd60e51b81526004016105f49061344a565b73__$cb76aa8097a3c0beaf107a478aa049bae7$__63a475b5dd6040518163ffffffff1660e01b815260040160206040518083038186803b15801561175257600080fd5b505af4158015611766573d6000803e3d6000fd5b505050506040513d601f19601f8201168201806040525081019061178a9190612fbc565b60ff16600a60009054906101000a90046001600160a01b03166001600160a01b0316631865c57d6040518163ffffffff1660e01b815260040160206040518083038186803b1580156117db57600080fd5b505afa1580156117ef573d6000803e3d6000fd5b505050506040513d601f19601f820116820180604052508101906118139190612d8f565b14156118315760405162461bcd60e51b81526004016105f49061337f565b73__$cb76aa8097a3c0beaf107a478aa049bae7$__63375b3c0a6040518163ffffffff1660e01b815260040160206040518083038186803b15801561187557600080fd5b505af4158015611889573d6000803e3d6000fd5b505050506040513d601f19601f820116820180604052508101906118ad9190612d8f565b8310156118cc5760405162461bcd60e51b81526004016105f490613515565b6007546040517f23b872dd0000000000000000000000000000000000000000000000000000000081526001600160a01b03909116906323b872dd9061191990339030908890600401612fdd565b602060405180830381600087803b15801561193357600080fd5b505af1158015611947573d6000803e3d6000fd5b505050506040513d601f19601f8201168201806040525081019061196b9190612d5d565b6119875760405162461bcd60e51b81526004016105f4906131a1565b3360009081526005602090815260408083205480845260069092529091206002015481611b3c576002546119bc9060016136ed565b6002819055506040518061010001604052806002548152602001336001600160a01b03168152602001868152602001878152602001600081526020016000815260200173__$cb76aa8097a3c0beaf107a478aa049bae7$__6326bf1c036040518163ffffffff1660e01b815260040160206040518083038186803b158015611a4357600080fd5b505af4158015611a57573d6000803e3d6000fd5b505050506040513d601f19601f82011682018060405250810190611a7b9190612d8f565b611a8590896136ed565b8152600060209182018190526002805482526006808452604080842086518155868601516001820180547fffffffffffffffffffffffff0000000000000000000000000000000000000000166001600160a01b039092169190911790558682015181850155606087015160038201556080870151600482015560a087015160058083019190915560c08801519382019390935560e09096015160079096019590955590543383529252919091208190559150611c17565b600082815260066020526040902060020154611b599086906136ed565b600660008481526020019081526020016000206002018190555073__$cb76aa8097a3c0beaf107a478aa049bae7$__6326bf1c036040518163ffffffff1660e01b815260040160206040518083038186803b158015611bb757600080fd5b505af4158015611bcb573d6000803e3d6000fd5b505050506040513d601f19601f82011682018060405250810190611bef9190612d8f565b611bf990876136ed565b60008381526006602081905260408220908101929092556007909101555b817f52d3b6bf695a499d39fcdb47e3b450c09f2f6aa091ca8809cc51c00e705996cc8783600660008781526020019081526020016000206002015442604051611c639493929190613621565b60405180910390a2505050505050565b6000918252602082815260408084206001600160a01b0393909316845291905290205460ff1690565b73__$cb76aa8097a3c0beaf107a478aa049bae7$__639cec6f8a6040518163ffffffff1660e01b815260040160206040518083038186803b158015611ce057600080fd5b505af4158015611cf4573d6000803e3d6000fd5b505050506040513d601f19601f82011682018060405250810190611d189190612d8f565b611d228133611c73565b611d3e5760405162461bcd60e51b81526004016105f490613311565b5060009182526006602052604090912060050155565b600081565b60025490565b6007546001600160a01b031681565b60056020526000908152604090205481565b611d8c6111f0836109b9565b61125a5760405162461bcd60e51b81526004016105f49061310d565b6009546001600160a01b031681565b611dbf612bb7565b506000908152600660208181526040928390208351610100810185528154815260018201546001600160a01b0316928101929092526002810154938201939093526003830154606082015260048301546080820152600583015460a08201529082015460c082015260079091015460e082015290565b73__$cb76aa8097a3c0beaf107a478aa049bae7$__63b1a627816040518163ffffffff1660e01b815260040160206040518083038186803b158015611e7957600080fd5b505af4158015611e8d573d6000803e3d6000fd5b505050506040513d601f19601f82011682018060405250810190611eb19190612d8f565b611ebb8133611c73565b611ed75760405162461bcd60e51b81526004016105f490613311565b50600155565b73__$cb76aa8097a3c0beaf107a478aa049bae7$__6380638d426040518163ffffffff1660e01b815260040160206040518083038186803b158015611f2157600080fd5b505af4158015611f35573d6000803e3d6000fd5b505050506040513d601f19601f82011682018060405250810190611f599190612d8f565b611f638133611c73565b611f7f5760405162461bcd60e51b81526004016105f490613311565b600454611f8b5761131f565b6000838152600660208181526040928390208351610100810185528154815260018201546001600160a01b0316928101929092526002810154938201939093526003830154606082015260048301546080820152600583015460a082018190529183015460c082015260079092015460e08301526120098185613744565b60011461201757505061131f565b6009546040517f378ab9a90000000000000000000000000000000000000000000000000000000081526000916001600160a01b03169063378ab9a990612061908590600401613025565b60006040518083038186803b15801561207957600080fd5b505afa15801561208d573d6000803e3d6000fd5b505050506040513d6000823e601f3d908101601f191682016040526120b59190810190612d22565b6009546040517fd2a4669a0000000000000000000000000000000000000000000000000000000081529192506000916001600160a01b039091169063d2a4669a90612104908690600401613025565b60006040518083038186803b15801561211c57600080fd5b505afa158015612130573d6000803e3d6000fd5b505050506040513d6000823e601f3d908101601f191682016040526121589190810190612d22565b6009546040517ffae4425d0000000000000000000000000000000000000000000000000000000081529192506000916001600160a01b039091169063fae4425d906121a7908790600401613025565b60006040518083038186803b1580156121bf57600080fd5b505afa1580156121d3573d6000803e3d6000fd5b505050506040513d6000823e601f3d908101601f191682016040526121fb9190810190612d22565b8251909150156124b9576000805b8351811015612360576008548751604051634673ffa560e11b81526000926001600160a01b031691638ce7ff4a91612247918b9187906004016136ad565b604080518083038186803b15801561225e57600080fd5b505afa158015612272573d6000803e3d6000fd5b505050506040513d601f19601f820116820180604052508101906122969190612f19565b60000151905060008683815181106122be57634e487b7160e01b600052603260045260246000fd5b6020026020010151905060008684815181106122ea57634e487b7160e01b600052603260045260246000fd5b60200260200101519050600086858151811061231657634e487b7160e01b600052603260045260246000fd5b602002602001015190508284148061233657508184118061233657508084105b15612349576123468660016136ed565b95505b5050505080806123589061375b565b915050612209565b50600083516004546123729190613725565b8260035489604001516123859190613725565b61238f9190613725565b6123999190613705565b905080156124b65760045460408801518110156123b75760006123c9565b87604001516004546123c99190613744565b60048190556040517feee26d3c1e406e24904d3748e49da85096c92ac1a6ad38f3fe8a404f85212dd191612402918d9185914290613621565b60405180910390a1600082896040015161241c91906136ed565b60035490915061242c8482613744565b60038190556040517ff7157643fd549e213a0105625da6b3bf58c86068ccb954a4449e18bf9427bff491612465918f9185914290613621565b60405180910390a16124b28a60000151836040518060400160405280600e81526020017f566f74696e6720526577617264730000000000000000000000000000000000008152508f61255c565b5050505b50505b5050505050505050565b60066020819052600091825260409091208054600182015460028301546003840154600485015460058601549686015460079096015494966001600160a01b0390941695929491939092909188565b7fffffffff0000000000000000000000000000000000000000000000000000000081167f01ffc9a70000000000000000000000000000000000000000000000000000000014919050565b60008481526006602052604090819020600201805490859055905185907fab9982d99de79485b3cd6d1e72c881fd0342f42f1cbc7d220d4f373b97c4f36390610cee908490889088908890429061363c565b3390565b6125bc8282611c73565b61121e576000828152602081815260408083206001600160a01b03851684529091529020805460ff191660011790556125f36125ae565b6001600160a01b0316816001600160a01b0316837f2f8788117e7eff1d82e926ec794901d17c78024a50270940304540a733656f0d60405160405180910390a45050565b6126418282611c73565b1561121e576000828152602081815260408083206001600160a01b03851684529091529020805460ff191690556126766125ae565b6001600160a01b0316816001600160a01b0316837ff6391f5c32d9c69d2a47ea670b442974b53935d1edc7fd64eb21e047a839171b60405160405180910390a45050565b6126c48282612a53565b6000828152600660205260408082206002810154600582015460095493517f04c075690000000000000000000000000000000000000000000000000000000081529294919390926001600160a01b03909116906304c075699061272b908590600401613025565b60006040518083038186803b15801561274357600080fd5b505afa158015612757573d6000803e3d6000fd5b505050506040513d6000823e601f3d908101601f1916820160405261277f9190810190612e12565b6060810151608082015181519293509091156124b9576000805b835181101561293f576008548854604051634673ffa560e11b81526000926001600160a01b031691638ce7ff4a916127d7918b9187906004016136ad565b604080518083038186803b1580156127ee57600080fd5b505afa158015612802573d6000803e3d6000fd5b505050506040513d601f19601f820116820180604052508101906128269190612f19565b600001519050600085838151811061284e57634e487b7160e01b600052603260045260246000fd5b60200260200101519050600085848151811061287a57634e487b7160e01b600052603260045260246000fd5b602002602001015190508183108061289157508083115b156129295773__$cb76aa8097a3c0beaf107a478aa049bae7$__633002c9ac6040518163ffffffff1660e01b815260040160206040518083038186803b1580156128da57600080fd5b505af41580156128ee573d6000803e3d6000fd5b505050506040513d601f19601f820116820180604052508101906129129190612d8f565b61291c908b613705565b61292690866136ed565b94505b50505080806129379061375b565b915050612799565b5080156129f8578581116129535780612955565b855b87549091506129a4906129688389613744565b6040518060400160405280600e81526020017f566f74696e672050656e616c74790000000000000000000000000000000000008152508b61255c565b6003546129b182826136ed565b60038190556040517ff7157643fd549e213a0105625da6b3bf58c86068ccb954a4449e18bf9427bff4916129ea918c9185914290613621565b60405180910390a150612a48565b600454612a0587826136ed565b60048190556040517feee26d3c1e406e24904d3748e49da85096c92ac1a6ad38f3fe8a404f85212dd191612a3e918c9185914290613621565b60405180910390a1505b505050505050505050565b60008281526006602081815260408084208151610100810183528154815260018201546001600160a01b03169381019390935260028101549183019190915260038101546060830181905260048201546080840152600582015460a084018190529382015460c084015260079091015460e083015290929111612ada578160600151612ae0565b8160a001515b90506000612aee8285613744565b60408401519091506000612b028383610850565b905081811015612bae57612b518560000151826040518060400160405280601281526020017f496e61637469766974792050656e616c747900000000000000000000000000008152508961255c565b600354612b5e8284613744565b600354612b6b91906136ed565b60038190556040517ff7157643fd549e213a0105625da6b3bf58c86068ccb954a4449e18bf9427bff491612ba4918a9185914290613621565b60405180910390a1505b50505050505050565b6040518061010001604052806000815260200160006001600160a01b031681526020016000815260200160008152602001600081526020016000815260200160008152602001600081525090565b80356001600160a01b03811681146104d957600080fd5b600082601f830112612c2c578081fd5b8151602067ffffffffffffffff821115612c4857612c4861378c565b808202612c568282016136c3565b838152828101908684018388018501891015612c70578687fd5b8693505b85841015612c92578051835260019390930192918401918401612c74565b50979650505050505050565b805180151581146104d957600080fd5b600060208284031215612cbf578081fd5b612cc882612c05565b9392505050565b60008060008060808587031215612ce4578283fd5b612ced85612c05565b9350612cfb60208601612c05565b9250612d0960408601612c05565b9150612d1760608601612c05565b905092959194509250565b600060208284031215612d33578081fd5b815167ffffffffffffffff811115612d49578182fd5b612d5584828501612c1c565b949350505050565b600060208284031215612d6e578081fd5b612cc882612c9e565b600060208284031215612d88578081fd5b5035919050565b600060208284031215612da0578081fd5b5051919050565b60008060408385031215612db9578182fd5b82359150612dc960208401612c05565b90509250929050565b600060208284031215612de3578081fd5b81357fffffffff0000000000000000000000000000000000000000000000000000000081168114612cc8578182fd5b600060208284031215612e23578081fd5b815167ffffffffffffffff80821115612e3a578283fd5b8184019150610100808387031215612e50578384fd5b612e59816136c3565b905082518152602083015182811115612e70578485fd5b612e7c87828601612c1c565b602083015250604083015182811115612e93578485fd5b612e9f87828601612c1c565b604083015250606083015182811115612eb6578485fd5b612ec287828601612c1c565b606083015250608083015182811115612ed9578485fd5b612ee587828601612c1c565b60808301525060a083015160a082015260c083015160c0820152612f0b60e08401612c9e565b60e082015295945050505050565b600060408284031215612f2a578081fd5b6040516040810181811067ffffffffffffffff82111715612f4d57612f4d61378c565b604052825181526020928301519281019290925250919050565b600080600060608486031215612f7b578283fd5b83359250612f8b60208501612c05565b9150604084013590509250925092565b60008060408385031215612fad578182fd5b50508035926020909101359150565b600060208284031215612fcd578081fd5b815160ff81168114612cc8578182fd5b6001600160a01b039384168152919092166020820152604081019190915260600190565b6001600160a01b03929092168252602082015260400190565b901515815260200190565b90815260200190565b6001600160a01b0391909116815260200190565b6020808252602f908201527f416363657373436f6e74726f6c3a2073656e646572206d75737420626520616e60408201527f2061646d696e20746f206772616e740000000000000000000000000000000000606082015260800190565b6020808252601a908201527f57697468647261772065706f6368206e6f742072656163686564000000000000604082015260600190565b60208082526019908201527f6661696c656420746f207472616e7366657220626f756e747900000000000000604082015260600190565b60208082526030908201527f416363657373436f6e74726f6c3a2073656e646572206d75737420626520616e60408201527f2061646d696e20746f207265766f6b6500000000000000000000000000000000606082015260800190565b60208082526011908201527f4e6f6e706f736974697665207374616b65000000000000000000000000000000604082015260600190565b60208082526013908201527f736368207472616e73666572206661696c656400000000000000000000000000604082015260600190565b60208082526010908201527f636f756c646e74207472616e7366657200000000000000000000000000000000604082015260600190565b60208082526033908201527f50617274696369706174656420696e205769746864726177206c6f636b20706560408201527f72696f642c2043616e7420776974686472617700000000000000000000000000606082015260800190565b6020808252600f908201527f696e636f72726563742065706f63680000000000000000000000000000000000604082015260600190565b60208082526013908201527f7374616b657220646f65736e7420657869737400000000000000000000000000604082015260600190565b60208082526006908201527f6c6f636b65640000000000000000000000000000000000000000000000000000604082015260600190565b6020808252601a908201527f41434c3a2073656e646572206e6f7420617574686f72697a6564000000000000604082015260600190565b6020808252600d908201527f7374616b65722e6964203d203000000000000000000000000000000000000000604082015260600190565b6020808252600f908201527f496e636f72726563742073746174650000000000000000000000000000000000604082015260600190565b6020808252602a908201527f616c726561647920636f6d6d6974656420746869732065706f63682e2043616e60408201527f7420776974686472617700000000000000000000000000000000000000000000606082015260800190565b6020808252600f908201527f446964206e6f7420756e7374616b650000000000000000000000000000000000604082015260600190565b6020808252600f908201527f696e636f72726563742073746174650000000000000000000000000000000000604082015260600190565b60208082526011908201527f4e6f6e706f736974697665205374616b65000000000000000000000000000000604082015260600190565b6020808252602f908201527f416363657373436f6e74726f6c3a2063616e206f6e6c792072656e6f756e636560408201527f20726f6c657320666f722073656c660000000000000000000000000000000000606082015260800190565b60208082526031908201527f7374616b656420616d6f756e74206973206c657373207468616e206d696e696d60408201527f756d207374616b65207265717569726564000000000000000000000000000000606082015260800190565b600061010082019050825182526001600160a01b03602084015116602083015260408301516040830152606083015160608301526080830151608083015260a083015160a083015260c083015160c083015260e083015160e083015292915050565b9788526001600160a01b0396909616602088015260408701949094526060860192909252608085015260a084015260c083015260e08201526101000190565b918252602082015260400190565b93845260208401929092526040830152606082015260800190565b60008682526020868184015260a0604084015285518060a0850152825b818110156136755787810183015185820160c001528201613659565b81811115613686578360c083870101525b5060608401959095525050608081019190915260c0601f909201601f191601019392505050565b9283526020830191909152604082015260600190565b60405181810167ffffffffffffffff811182821017156136e5576136e561378c565b604052919050565b6000821982111561370057613700613776565b500190565b60008261372057634e487b7160e01b81526012600452602481fd5b500490565b600081600019048311821515161561373f5761373f613776565b500290565b60008282101561375657613756613776565b500390565b600060001982141561376f5761376f613776565b5060010190565b634e487b7160e01b600052601160045260246000fd5b634e487b7160e01b600052604160045260246000fdfea2646970667358221220e7cde3e4d6df897c9eaad9fbcce1a900b28c97db37cf10eb29ae619639b0f9a164736f6c63430008000033",
  "linkReferences": {
    "contracts/lib/Constants.sol": {
      "Constants": [
        {
          "length": 20,
          "start": 1678
        },
        {
          "length": 20,
          "start": 2123
        },
        {
          "length": 20,
          "start": 2464
        },
        {
          "length": 20,
          "start": 2588
        },
        {
          "length": 20,
          "start": 2980
        },
        {
          "length": 20,
          "start": 3428
        },
        {
          "length": 20,
          "start": 3795
        },
        {
          "length": 20,
          "start": 4236
        },
        {
          "length": 20,
          "start": 5039
        },
        {
          "length": 20,
          "start": 5255
        },
        {
          "length": 20,
          "start": 5927
        },
        {
          "length": 20,
          "start": 6218
        },
        {
          "length": 20,
          "start": 6509
        },
        {
          "length": 20,
          "start": 6971
        },
        {
          "length": 20,
          "start": 7343
        },
        {
          "length": 20,
          "start": 7640
        },
        {
          "length": 20,
          "start": 8049
        },
        {
          "length": 20,
          "start": 8217
        },
        {
          "length": 20,
          "start": 10706
        }
      ]
    }
  },
  "deployedLinkReferences": {
    "contracts/lib/Constants.sol": {
      "Constants": [
        {
          "length": 20,
          "start": 1364
        },
        {
          "length": 20,
          "start": 1809
        },
        {
          "length": 20,
          "start": 2150
        },
        {
          "length": 20,
          "start": 2274
        },
        {
          "length": 20,
          "start": 2666
        },
        {
          "length": 20,
          "start": 3114
        },
        {
          "length": 20,
          "start": 3481
        },
        {
          "length": 20,
          "start": 3922
        },
        {
          "length": 20,
          "start": 4725
        },
        {
          "length": 20,
          "start": 4941
        },
        {
          "length": 20,
          "start": 5613
        },
        {
          "length": 20,
          "start": 5904
        },
        {
          "length": 20,
          "start": 6195
        },
        {
          "length": 20,
          "start": 6657
        },
        {
          "length": 20,
          "start": 7029
        },
        {
          "length": 20,
          "start": 7326
        },
        {
          "length": 20,
          "start": 7735
        },
        {
          "length": 20,
          "start": 7903
        },
        {
          "length": 20,
          "start": 10392
        }
      ]
    }
  }
}