{
  "_format": "hh-sol-artifact-1",
  "contractName": "StakeManager",
  "sourceName": "contracts/Core/StakeManager.sol",
  "abi": [
    {
      "anonymous": false,
      "inputs": [
        {
          "indexed": false,
          "internalType": "uint256",
          "name": "a",
          "type": "uint256"
        }
      ],
      "name": "DebugUint256",
      "type": "event"
    },
    {
      "anonymous": false,
      "inputs": [
        {
          "indexed": false,
          "internalType": "uint256",
          "name": "epoch",
          "type": "uint256"
        },
        {
          "indexed": false,
          "internalType": "uint256",
          "name": "prevRewardPool",
          "type": "uint256"
        },
        {
          "indexed": false,
          "internalType": "uint256",
          "name": "rewardPool",
          "type": "uint256"
        },
        {
          "indexed": false,
          "internalType": "uint256",
          "name": "timestamp",
          "type": "uint256"
        }
      ],
      "name": "RewardPoolChange",
      "type": "event"
    },
    {
      "anonymous": false,
      "inputs": [
        {
          "indexed": true,
          "internalType": "bytes32",
          "name": "role",
          "type": "bytes32"
        },
        {
          "indexed": true,
          "internalType": "bytes32",
          "name": "previousAdminRole",
          "type": "bytes32"
        },
        {
          "indexed": true,
          "internalType": "bytes32",
          "name": "newAdminRole",
          "type": "bytes32"
        }
      ],
      "name": "RoleAdminChanged",
      "type": "event"
    },
    {
      "anonymous": false,
      "inputs": [
        {
          "indexed": true,
          "internalType": "bytes32",
          "name": "role",
          "type": "bytes32"
        },
        {
          "indexed": true,
          "internalType": "address",
          "name": "account",
          "type": "address"
        },
        {
          "indexed": true,
          "internalType": "address",
          "name": "sender",
          "type": "address"
        }
      ],
      "name": "RoleGranted",
      "type": "event"
    },
    {
      "anonymous": false,
      "inputs": [
        {
          "indexed": true,
          "internalType": "bytes32",
          "name": "role",
          "type": "bytes32"
        },
        {
          "indexed": true,
          "internalType": "address",
          "name": "account",
          "type": "address"
        },
        {
          "indexed": true,
          "internalType": "address",
          "name": "sender",
          "type": "address"
        }
      ],
      "name": "RoleRevoked",
      "type": "event"
    },
    {
      "anonymous": false,
      "inputs": [
        {
          "indexed": true,
          "internalType": "uint256",
          "name": "stakerId",
          "type": "uint256"
        },
        {
          "indexed": false,
          "internalType": "uint256",
          "name": "previousStake",
          "type": "uint256"
        },
        {
          "indexed": false,
          "internalType": "uint256",
          "name": "newStake",
          "type": "uint256"
        },
        {
          "indexed": false,
          "internalType": "string",
          "name": "reason",
          "type": "string"
        },
        {
          "indexed": false,
          "internalType": "uint256",
          "name": "epoch",
          "type": "uint256"
        },
        {
          "indexed": false,
          "internalType": "uint256",
          "name": "timestamp",
          "type": "uint256"
        }
      ],
      "name": "StakeChange",
      "type": "event"
    },
    {
      "anonymous": false,
      "inputs": [
        {
          "indexed": false,
          "internalType": "uint256",
          "name": "epoch",
          "type": "uint256"
        },
        {
          "indexed": false,
          "internalType": "uint256",
          "name": "prevStakeGettingReward",
          "type": "uint256"
        },
        {
          "indexed": false,
          "internalType": "uint256",
          "name": "stakeGettingReward",
          "type": "uint256"
        },
        {
          "indexed": false,
          "internalType": "uint256",
          "name": "timestamp",
          "type": "uint256"
        }
      ],
      "name": "StakeGettingRewardChange",
      "type": "event"
    },
    {
      "anonymous": false,
      "inputs": [
        {
          "indexed": false,
          "internalType": "uint256",
          "name": "epoch",
          "type": "uint256"
        },
        {
          "indexed": true,
          "internalType": "uint256",
          "name": "stakerId",
          "type": "uint256"
        },
        {
          "indexed": false,
          "internalType": "uint256",
          "name": "previousStake",
          "type": "uint256"
        },
        {
          "indexed": false,
          "internalType": "uint256",
          "name": "newStake",
          "type": "uint256"
        },
        {
          "indexed": false,
          "internalType": "uint256",
          "name": "timestamp",
          "type": "uint256"
        }
      ],
      "name": "Staked",
      "type": "event"
    },
    {
      "anonymous": false,
      "inputs": [
        {
          "indexed": false,
          "internalType": "uint256",
          "name": "epoch",
          "type": "uint256"
        },
        {
          "indexed": true,
          "internalType": "uint256",
          "name": "stakerId",
          "type": "uint256"
        },
        {
          "indexed": false,
          "internalType": "uint256",
          "name": "amount",
          "type": "uint256"
        },
        {
          "indexed": false,
          "internalType": "uint256",
          "name": "newStake",
          "type": "uint256"
        },
        {
          "indexed": false,
          "internalType": "uint256",
          "name": "timestamp",
          "type": "uint256"
        }
      ],
      "name": "Unstaked",
      "type": "event"
    },
    {
      "anonymous": false,
      "inputs": [
        {
          "indexed": false,
          "internalType": "uint256",
          "name": "epoch",
          "type": "uint256"
        },
        {
          "indexed": true,
          "internalType": "uint256",
          "name": "stakerId",
          "type": "uint256"
        },
        {
          "indexed": false,
          "internalType": "uint256",
          "name": "amount",
          "type": "uint256"
        },
        {
          "indexed": false,
          "internalType": "uint256",
          "name": "newStake",
          "type": "uint256"
        },
        {
          "indexed": false,
          "internalType": "uint256",
          "name": "timestamp",
          "type": "uint256"
        }
      ],
      "name": "Withdrew",
      "type": "event"
    },
    {
      "inputs": [],
      "name": "DEFAULT_ADMIN_ROLE",
      "outputs": [
        {
          "internalType": "bytes32",
          "name": "",
          "type": "bytes32"
        }
      ],
      "stateMutability": "view",
      "type": "function"
    },
    {
      "inputs": [],
      "name": "blockManager",
      "outputs": [
        {
          "internalType": "contract IBlockManager",
          "name": "",
          "type": "address"
        }
      ],
      "stateMutability": "view",
      "type": "function"
    },
    {
      "inputs": [
        {
          "internalType": "uint256",
          "name": "epochs",
          "type": "uint256"
        },
        {
          "internalType": "uint256",
          "name": "stakeValue",
          "type": "uint256"
        }
      ],
      "name": "calculateInactivityPenalties",
      "outputs": [
        {
          "internalType": "uint256",
          "name": "",
          "type": "uint256"
        }
      ],
      "stateMutability": "pure",
      "type": "function"
    },
    {
      "inputs": [],
      "name": "genesisBlock",
      "outputs": [
        {
          "internalType": "uint256",
          "name": "",
          "type": "uint256"
        }
      ],
      "stateMutability": "view",
      "type": "function"
    },
    {
      "inputs": [],
      "name": "getNumStakers",
      "outputs": [
        {
          "internalType": "uint256",
          "name": "",
          "type": "uint256"
        }
      ],
      "stateMutability": "view",
      "type": "function"
    },
    {
      "inputs": [],
      "name": "getRewardPool",
      "outputs": [
        {
          "internalType": "uint256",
          "name": "",
          "type": "uint256"
        }
      ],
      "stateMutability": "view",
      "type": "function"
    },
    {
      "inputs": [
        {
          "internalType": "bytes32",
          "name": "role",
          "type": "bytes32"
        }
      ],
      "name": "getRoleAdmin",
      "outputs": [
        {
          "internalType": "bytes32",
          "name": "",
          "type": "bytes32"
        }
      ],
      "stateMutability": "view",
      "type": "function"
    },
    {
      "inputs": [
        {
          "internalType": "bytes32",
          "name": "role",
          "type": "bytes32"
        },
        {
          "internalType": "uint256",
          "name": "index",
          "type": "uint256"
        }
      ],
      "name": "getRoleMember",
      "outputs": [
        {
          "internalType": "address",
          "name": "",
          "type": "address"
        }
      ],
      "stateMutability": "view",
      "type": "function"
    },
    {
      "inputs": [
        {
          "internalType": "bytes32",
          "name": "role",
          "type": "bytes32"
        }
      ],
      "name": "getRoleMemberCount",
      "outputs": [
        {
          "internalType": "uint256",
          "name": "",
          "type": "uint256"
        }
      ],
      "stateMutability": "view",
      "type": "function"
    },
    {
      "inputs": [],
      "name": "getStakeGettingReward",
      "outputs": [
        {
          "internalType": "uint256",
          "name": "",
          "type": "uint256"
        }
      ],
      "stateMutability": "view",
      "type": "function"
    },
    {
      "inputs": [
        {
          "internalType": "uint256",
          "name": "_id",
          "type": "uint256"
        }
      ],
      "name": "getStaker",
      "outputs": [
        {
          "components": [
            {
              "internalType": "uint256",
              "name": "id",
              "type": "uint256"
            },
            {
              "internalType": "address",
              "name": "_address",
              "type": "address"
            },
            {
              "internalType": "uint256",
              "name": "stake",
              "type": "uint256"
            },
            {
              "internalType": "uint256",
              "name": "epochStaked",
              "type": "uint256"
            },
            {
              "internalType": "uint256",
              "name": "epochLastCommitted",
              "type": "uint256"
            },
            {
              "internalType": "uint256",
              "name": "epochLastRevealed",
              "type": "uint256"
            },
            {
              "internalType": "uint256",
              "name": "unstakeAfter",
              "type": "uint256"
            },
            {
              "internalType": "uint256",
              "name": "withdrawAfter",
              "type": "uint256"
            }
          ],
          "internalType": "struct Structs.Staker",
          "name": "staker",
          "type": "tuple"
        }
      ],
      "stateMutability": "view",
      "type": "function"
    },
    {
      "inputs": [
        {
          "internalType": "address",
          "name": "_address",
          "type": "address"
        }
      ],
      "name": "getStakerId",
      "outputs": [
        {
          "internalType": "uint256",
          "name": "",
          "type": "uint256"
        }
      ],
      "stateMutability": "view",
      "type": "function"
    },
    {
      "inputs": [
        {
          "internalType": "uint256",
          "name": "stakerId",
          "type": "uint256"
        },
        {
          "internalType": "uint256",
          "name": "epoch",
          "type": "uint256"
        }
      ],
      "name": "giveBlockReward",
      "outputs": [],
      "stateMutability": "nonpayable",
      "type": "function"
    },
    {
      "inputs": [
        {
          "internalType": "uint256",
          "name": "stakerId",
          "type": "uint256"
        },
        {
          "internalType": "uint256",
          "name": "epoch",
          "type": "uint256"
        }
      ],
      "name": "givePenalties",
      "outputs": [],
      "stateMutability": "nonpayable",
      "type": "function"
    },
    {
      "inputs": [
        {
          "internalType": "uint256",
          "name": "stakerId",
          "type": "uint256"
        },
        {
          "internalType": "uint256",
          "name": "epoch",
          "type": "uint256"
        }
      ],
      "name": "giveRewards",
      "outputs": [],
      "stateMutability": "nonpayable",
      "type": "function"
    },
    {
      "inputs": [
        {
          "internalType": "bytes32",
          "name": "role",
          "type": "bytes32"
        },
        {
          "internalType": "address",
          "name": "account",
          "type": "address"
        }
      ],
      "name": "grantRole",
      "outputs": [],
      "stateMutability": "nonpayable",
      "type": "function"
    },
    {
      "inputs": [
        {
          "internalType": "bytes32",
          "name": "role",
          "type": "bytes32"
        },
        {
          "internalType": "address",
          "name": "account",
          "type": "address"
        }
      ],
      "name": "hasRole",
      "outputs": [
        {
          "internalType": "bool",
          "name": "",
          "type": "bool"
        }
      ],
      "stateMutability": "view",
      "type": "function"
    },
    {
      "inputs": [
        {
          "internalType": "address",
          "name": "_schAddress",
          "type": "address"
        },
        {
          "internalType": "address",
          "name": "_voteManagerAddress",
          "type": "address"
        },
        {
          "internalType": "address",
          "name": "_blockManagerAddress",
          "type": "address"
        },
        {
          "internalType": "address",
          "name": "_stateManagerAddress",
          "type": "address"
        }
      ],
      "name": "init",
      "outputs": [],
      "stateMutability": "nonpayable",
      "type": "function"
    },
    {
      "inputs": [],
      "name": "lastBlockRewards",
      "outputs": [
        {
          "internalType": "uint256",
          "name": "",
          "type": "uint256"
        }
      ],
      "stateMutability": "view",
      "type": "function"
    },
    {
      "inputs": [],
      "name": "lastHalvings",
      "outputs": [
        {
          "internalType": "uint256",
          "name": "",
          "type": "uint256"
        }
      ],
      "stateMutability": "view",
      "type": "function"
    },
    {
      "inputs": [],
      "name": "numStakers",
      "outputs": [
        {
          "internalType": "uint256",
          "name": "",
          "type": "uint256"
        }
      ],
      "stateMutability": "view",
      "type": "function"
    },
    {
      "inputs": [
        {
          "internalType": "bytes32",
          "name": "role",
          "type": "bytes32"
        },
        {
          "internalType": "address",
          "name": "account",
          "type": "address"
        }
      ],
      "name": "renounceRole",
      "outputs": [],
      "stateMutability": "nonpayable",
      "type": "function"
    },
    {
      "inputs": [
        {
          "internalType": "bytes32",
          "name": "role",
          "type": "bytes32"
        },
        {
          "internalType": "address",
          "name": "account",
          "type": "address"
        }
      ],
      "name": "revokeRole",
      "outputs": [],
      "stateMutability": "nonpayable",
      "type": "function"
    },
    {
      "inputs": [],
      "name": "rewardPool",
      "outputs": [
        {
          "internalType": "uint256",
          "name": "",
          "type": "uint256"
        }
      ],
      "stateMutability": "view",
      "type": "function"
    },
    {
      "inputs": [],
      "name": "sch",
      "outputs": [
        {
          "internalType": "contract SchellingCoin",
          "name": "",
          "type": "address"
        }
      ],
      "stateMutability": "view",
      "type": "function"
    },
    {
      "inputs": [
        {
          "internalType": "uint256",
          "name": "_id",
          "type": "uint256"
        },
        {
          "internalType": "uint256",
          "name": "_epochLastRevealed",
          "type": "uint256"
        }
      ],
      "name": "setStakerEpochLastRevealed",
      "outputs": [],
      "stateMutability": "nonpayable",
      "type": "function"
    },
    {
      "inputs": [
        {
          "internalType": "uint256",
          "name": "id",
          "type": "uint256"
        },
        {
          "internalType": "address",
          "name": "bountyHunter",
          "type": "address"
        },
        {
          "internalType": "uint256",
          "name": "epoch",
          "type": "uint256"
        }
      ],
      "name": "slash",
      "outputs": [],
      "stateMutability": "nonpayable",
      "type": "function"
    },
    {
      "inputs": [
        {
          "internalType": "uint256",
          "name": "epoch",
          "type": "uint256"
        },
        {
          "internalType": "uint256",
          "name": "amount",
          "type": "uint256"
        }
      ],
      "name": "stake",
      "outputs": [],
      "stateMutability": "nonpayable",
      "type": "function"
    },
    {
      "inputs": [],
      "name": "stakeGettingReward",
      "outputs": [
        {
          "internalType": "uint256",
          "name": "",
          "type": "uint256"
        }
      ],
      "stateMutability": "view",
      "type": "function"
    },
    {
      "inputs": [
        {
          "internalType": "address",
          "name": "",
          "type": "address"
        }
      ],
      "name": "stakerIds",
      "outputs": [
        {
          "internalType": "uint256",
          "name": "",
          "type": "uint256"
        }
      ],
      "stateMutability": "view",
      "type": "function"
    },
    {
      "inputs": [
        {
          "internalType": "uint256",
          "name": "",
          "type": "uint256"
        }
      ],
      "name": "stakers",
      "outputs": [
        {
          "internalType": "uint256",
          "name": "id",
          "type": "uint256"
        },
        {
          "internalType": "address",
          "name": "_address",
          "type": "address"
        },
        {
          "internalType": "uint256",
          "name": "stake",
          "type": "uint256"
        },
        {
          "internalType": "uint256",
          "name": "epochStaked",
          "type": "uint256"
        },
        {
          "internalType": "uint256",
          "name": "epochLastCommitted",
          "type": "uint256"
        },
        {
          "internalType": "uint256",
          "name": "epochLastRevealed",
          "type": "uint256"
        },
        {
          "internalType": "uint256",
          "name": "unstakeAfter",
          "type": "uint256"
        },
        {
          "internalType": "uint256",
          "name": "withdrawAfter",
          "type": "uint256"
        }
      ],
      "stateMutability": "view",
      "type": "function"
    },
    {
      "inputs": [],
      "name": "stateManager",
      "outputs": [
        {
          "internalType": "contract IStateManager",
          "name": "",
          "type": "address"
        }
      ],
      "stateMutability": "view",
      "type": "function"
    },
    {
      "inputs": [
        {
          "internalType": "uint256",
          "name": "epoch",
          "type": "uint256"
        }
      ],
      "name": "unstake",
      "outputs": [],
      "stateMutability": "nonpayable",
      "type": "function"
    },
    {
      "inputs": [
        {
          "internalType": "uint256",
          "name": "stakerId",
          "type": "uint256"
        }
      ],
      "name": "updateCommitmentEpoch",
      "outputs": [],
      "stateMutability": "nonpayable",
      "type": "function"
    },
    {
      "inputs": [],
      "name": "voteManager",
      "outputs": [
        {
          "internalType": "contract IVoteManager",
          "name": "",
          "type": "address"
        }
      ],
      "stateMutability": "view",
      "type": "function"
    },
    {
      "inputs": [
        {
          "internalType": "uint256",
          "name": "epoch",
          "type": "uint256"
        }
      ],
      "name": "withdraw",
      "outputs": [],
      "stateMutability": "nonpayable",
      "type": "function"
    }
  ],
  "bytecode": "0x60806040526000600655600060075560006008553480156200002057600080fd5b50620000376000336001600160e01b036200003d16565b62000175565b6200005282826001600160e01b036200005616565b5050565b6000828152602081815260409091206200007b918390620024c1620000d8821b17901c565b156200005257620000946001600160e01b036200010116565b6001600160a01b0316816001600160a01b0316837f2f8788117e7eff1d82e926ec794901d17c78024a50270940304540a733656f0d60405160405180910390a45050565b6000620000f8836001600160a01b0384166001600160e01b036200010516565b90505b92915050565b3390565b60006200011c83836001600160e01b036200015d16565b6200015457508154600181810184556000848152602080822090930184905584548482528286019093526040902091909155620000fb565b506000620000fb565b60009081526001919091016020526040902054151590565b613b8780620001856000396000f3fe608060405234801561001057600080fd5b506004361061025c5760003560e01c806366666aa911610145578063bc788d46116100bd578063d547741f1161008c578063e3c998fe11610071578063e3c998fe1461046c578063fabb98901461048c578063fd5e6dd11461049f5761025c565b8063d547741f14610451578063d9169b32146104645761025c565b8063bc788d461461041b578063c584bb9f14610423578063c8ae0d7d1461042b578063ca15c8731461043e5761025c565b80639010d07c116101145780639864f70a116100f95780639864f70a146103f8578063a217fddf1461040b578063a8264f99146104135761025c565b80639010d07c146103c557806391d14854146103d85761025c565b806366666aa91461038f5780636c8b052a14610397578063746c8b651461039f5780637b0472f0146103b25761025c565b80632e1a7d4d116101d857806336568abe116101a75780634cdc9c631161018c5780634cdc9c631461036157806354eae15e146103695780636022a4851461037c5761025c565b806336568abe1461034657806342c1e587146103595761025c565b80632e1a7d4d146103035780632e716fb1146103165780632f2ff15d1461032b5780632f5949491461033e5761025c565b80631a69f0081161022f5780631b8b13a7116102145780631b8b13a7146102d5578063248a9ca3146102dd5780632e17de78146102f05761025c565b80631a69f008146102ba5780631ad54991146102cd5761025c565b806306552ff3146102615780630ec88d3f146102765780630f91ce1914610294578063188dc83b146102a7575b600080fd5b61027461026f366004613004565b6104c6565b005b61027e6105d1565b60405161028b9190613341565b60405180910390f35b6102746102a236600461327d565b6105d7565b6102746102b53660046130b6565b610799565b61027e6102c83660046132b2565b6108da565b61027e610a53565b61027e610a59565b61027e6102eb3660046130b6565b610a5f565b6102746102fe3660046130b6565b610a74565b6102746103113660046130b6565b610da9565b61031e611212565b60405161028b91906132e5565b6102746103393660046130e6565b611221565b61027e611269565b6102746103543660046130e6565b61126f565b61031e6112b1565b61027e6112c0565b6102746103773660046132b2565b6112c6565b61027e61038a366004612fe9565b611377565b61027e611392565b61027e611398565b6102746103ad3660046132b2565b61139e565b6102746103c03660046132b2565b6115af565b61031e6103d3366004613120565b611ce7565b6103eb6103e63660046130e6565b611d0c565b60405161028b9190613336565b6102746104063660046132b2565b611d2a565b61027e611de4565b61027e611de9565b61027e611def565b61031e611df5565b61027e610439366004612fe9565b611e04565b61027e61044c3660046130b6565b611e16565b61027461045f3660046130e6565b611e2d565b61031e611e67565b61047f61047a3660046130b6565b611e76565b60405161028b91906139d9565b61027461049a3660046132b2565b611ef4565b6104b26104ad3660046130b6565b612473565b60405161028b989796959493929190613a3b565b600980546001600160a01b038087167fffffffffffffffffffffffff000000000000000000000000000000000000000092831617909255600a8054868416908316179055600b8054858416908316179055600c80549284169290911691909117905543600155604080517fe388a69e000000000000000000000000000000000000000000000000000000008152905173__$cb76aa8097a3c0beaf107a478aa049bae7$__9163e388a69e916004808301926020929190829003018186803b15801561059057600080fd5b505af41580156105a4573d6000803e3d6000fd5b505050506040513d601f19601f820116820180604052508101906105c891906130ce565b60035550505050565b60085481565b73__$cb76aa8097a3c0beaf107a478aa049bae7$__6380638d426040518163ffffffff1660e01b815260040160206040518083038186803b15801561061b57600080fd5b505af415801561062f573d6000803e3d6000fd5b505050506040513d601f19601f8201168201806040525081019061065391906130ce565b61065d8133611d0c565b6106825760405162461bcd60e51b815260040161067990613472565b60405180910390fd5b60008481526005602052604081206002908101546106a59163ffffffff6124d616565b90506106e98560006040518060400160405280600781526020017f536c61736865640000000000000000000000000000000000000000000000000081525086612508565b60018111156107925760095460405163a9059cbb60e01b81526001600160a01b039091169063a9059cbb90610724908790859060040161331d565b602060405180830381600087803b15801561073e57600080fd5b505af1158015610752573d6000803e3d6000fd5b505050506040513d601f19601f820116820180604052508101906107769190613096565b6107925760405162461bcd60e51b8152600401610679906134cf565b5050505050565b73__$cb76aa8097a3c0beaf107a478aa049bae7$__639cec6f8a6040518163ffffffff1660e01b815260040160206040518083038186803b1580156107dd57600080fd5b505af41580156107f1573d6000803e3d6000fd5b505050506040513d601f19601f8201168201806040525081019061081591906130ce565b61081f8133611d0c565b61083b5760405162461bcd60e51b815260040161067990613472565b600c60009054906101000a90046001600160a01b03166001600160a01b031663757991a86040518163ffffffff1660e01b815260040160206040518083038186803b15801561088957600080fd5b505afa15801561089d573d6000803e3d6000fd5b505050506040513d601f19601f820116820180604052508101906108c191906130ce565b6000928352600560205260409092206004019190915550565b6000600a8310156108ec575080610a4d565b6000610a25610a0873__$cb76aa8097a3c0beaf107a478aa049bae7$__63b1cc45006040518163ffffffff1660e01b815260040160206040518083038186803b15801561093857600080fd5b505af415801561094c573d6000803e3d6000fd5b505050506040513d601f19601f8201168201806040525081019061097091906130ce565b6109fc73__$cb76aa8097a3c0beaf107a478aa049bae7$__63a86f5a3f6040518163ffffffff1660e01b815260040160206040518083038186803b1580156109b757600080fd5b505af41580156109cb573d6000803e3d6000fd5b505050506040513d601f19601f820116820180604052508101906109ef91906130ce565b879063ffffffff61255a16565b9063ffffffff6124d616565b610a1986600163ffffffff61259416565b9063ffffffff61255a16565b905082811015610a4757610a3f838263ffffffff61259416565b915050610a4d565b60009150505b92915050565b60085490565b60075490565b60009081526020819052604090206002015490565b600c5460408051630eaf323560e31b8152905183926001600160a01b03169163757991a8916004808301926020929190829003018186803b158015610ab857600080fd5b505afa158015610acc573d6000803e3d6000fd5b505050506040513d601f19601f82011682018060405250810190610af091906130ce565b8114610b0e5760405162461bcd60e51b8152600401610679906136d3565b73__$cb76aa8097a3c0beaf107a478aa049bae7$__633c7a3aff6040518163ffffffff1660e01b815260040160206040518083038186803b158015610b5257600080fd5b505af4158015610b66573d6000803e3d6000fd5b505050506040513d601f19601f82011682018060405250810190610b8a91906132c4565b60ff16600c60009054906101000a90046001600160a01b03166001600160a01b0316631865c57d6040518163ffffffff1660e01b815260040160206040518083038186803b158015610bdb57600080fd5b505afa158015610bef573d6000803e3d6000fd5b505050506040513d601f19601f82011682018060405250810190610c1391906130ce565b8114610c315760405162461bcd60e51b8152600401610679906138b1565b3360009081526004602090815260408083205480845260059092529091208054610c6d5760405162461bcd60e51b8152600401610679906137af565b6000816002015411610c915760405162461bcd60e51b8152600401610679906135d1565b84816006015411158015610ca85750600681015415155b610cc45760405162461bcd60e51b815260040161067990613778565b60008160060181905550610d5a73__$cb76aa8097a3c0beaf107a478aa049bae7$__632628490f6040518163ffffffff1660e01b815260040160206040518083038186803b158015610d1557600080fd5b505af4158015610d29573d6000803e3d6000fd5b505050506040513d601f19601f82011682018060405250810190610d4d91906130ce565b869063ffffffff6125bc16565b6007820155600281015460405183917f0cfbc484edc798d2584502ca0d64e7e9514b8dd091d96a2a5b4deb58478da19e91610d9a91899181904290613a88565b60405180910390a25050505050565b600c5460408051630eaf323560e31b8152905183926001600160a01b03169163757991a8916004808301926020929190829003018186803b158015610ded57600080fd5b505afa158015610e01573d6000803e3d6000fd5b505050506040513d601f19601f82011682018060405250810190610e2591906130ce565b8114610e435760405162461bcd60e51b8152600401610679906136d3565b73__$cb76aa8097a3c0beaf107a478aa049bae7$__633c7a3aff6040518163ffffffff1660e01b815260040160206040518083038186803b158015610e8757600080fd5b505af4158015610e9b573d6000803e3d6000fd5b505050506040513d601f19601f82011682018060405250810190610ebf91906132c4565b60ff16600c60009054906101000a90046001600160a01b03166001600160a01b0316631865c57d6040518163ffffffff1660e01b815260040160206040518083038186803b158015610f1057600080fd5b505afa158015610f24573d6000803e3d6000fd5b505050506040513d601f19601f82011682018060405250810190610f4891906130ce565b8114610f665760405162461bcd60e51b8152600401610679906138b1565b3360009081526004602090815260408083205480845260059092529091208054610fa25760405162461bcd60e51b815260040161067990613741565b610fb385600163ffffffff61259416565b816005015414610fd55760405162461bcd60e51b81526004016106799061370a565b600681015415610ff75760405162461bcd60e51b81526004016106799061387a565b8481600701541115801561100e5750600781015415155b61102a5760405162461bcd60e51b815260040161067990613404565b600a546040517f7164f0d60000000000000000000000000000000000000000000000000000000081526001600160a01b0390911690637164f0d6906110759088908690600401613a7a565b60206040518083038186803b15801561108d57600080fd5b505afa1580156110a1573d6000803e3d6000fd5b505050506040513d601f19601f820116820180604052508101906110c591906130ce565b156110e25760405162461bcd60e51b81526004016106799061381d565b80546110ee90866125e1565b60008160020154116111125760405162461bcd60e51b8152600401610679906138e8565b6000828152600560205260408082206002018054908390559051909184917f0a6fecee2c95fc6b4c7f291e3435a3a832bcd700c2a7ffdedd8c909d56dfa49f91611162918a919081904290613a88565b60405180910390a260095460405163a9059cbb60e01b81526001600160a01b039091169063a9059cbb9061119c903390859060040161331d565b602060405180830381600087803b1580156111b657600080fd5b505af11580156111ca573d6000803e3d6000fd5b505050506040513d601f19601f820116820180604052508101906111ee9190613096565b61120a5760405162461bcd60e51b81526004016106799061363f565b505050505050565b600c546001600160a01b031681565b60008281526020819052604090206002015461123f906103e661297d565b61125b5760405162461bcd60e51b8152600401610679906133a7565b6112658282612981565b5050565b60035481565b61127761297d565b6001600160a01b0316816001600160a01b0316146112a75760405162461bcd60e51b81526004016106799061391f565b61126582826129f0565b600a546001600160a01b031681565b60015481565b73__$cb76aa8097a3c0beaf107a478aa049bae7$__6380638d426040518163ffffffff1660e01b815260040160206040518083038186803b15801561130a57600080fd5b505af415801561131e573d6000803e3d6000fd5b505050506040513d601f19601f8201168201806040525081019061134291906130ce565b61134c8133611d0c565b6113685760405162461bcd60e51b815260040161067990613472565b61137283836125e1565b505050565b6001600160a01b031660009081526004602052604090205490565b60075481565b60065481565b73__$cb76aa8097a3c0beaf107a478aa049bae7$__6380638d426040518163ffffffff1660e01b815260040160206040518083038186803b1580156113e257600080fd5b505af41580156113f6573d6000803e3d6000fd5b505050506040513d601f19601f8201168201806040525081019061141a91906130ce565b6114248133611d0c565b6114405760405162461bcd60e51b815260040161067990613472565b600061144a612a5f565b9050801561155f57600084815260056020526040812060020154611474908363ffffffff6125bc16565b90506114b785826040518060400160405280600c81526020017f426c6f636b20526577617264000000000000000000000000000000000000000081525087612508565b6009546040517f40c10f190000000000000000000000000000000000000000000000000000000081526001600160a01b03909116906340c10f1990611502903090869060040161331d565b602060405180830381600087803b15801561151c57600080fd5b505af1158015611530573d6000803e3d6000fd5b505050506040513d601f19601f820116820180604052508101906115549190613096565b61155d57600080fd5b505b6008805460009182905560405190917feee26d3c1e406e24904d3748e49da85096c92ac1a6ad38f3fe8a404f85212dd1916115a09187918591904290613a88565b60405180910390a15050505050565b600c5460408051630eaf323560e31b8152905184926001600160a01b03169163757991a8916004808301926020929190829003018186803b1580156115f357600080fd5b505afa158015611607573d6000803e3d6000fd5b505050506040513d601f19601f8201168201806040525081019061162b91906130ce565b81146116495760405162461bcd60e51b8152600401610679906136d3565b73__$cb76aa8097a3c0beaf107a478aa049bae7$__633c7a3aff6040518163ffffffff1660e01b815260040160206040518083038186803b15801561168d57600080fd5b505af41580156116a1573d6000803e3d6000fd5b505050506040513d601f19601f820116820180604052508101906116c591906132c4565b60ff16600c60009054906101000a90046001600160a01b03166001600160a01b0316631865c57d6040518163ffffffff1660e01b815260040160206040518083038186803b15801561171657600080fd5b505afa15801561172a573d6000803e3d6000fd5b505050506040513d601f19601f8201168201806040525081019061174e91906130ce565b811461176c5760405162461bcd60e51b8152600401610679906138b1565b73__$cb76aa8097a3c0beaf107a478aa049bae7$__63a475b5dd6040518163ffffffff1660e01b815260040160206040518083038186803b1580156117b057600080fd5b505af41580156117c4573d6000803e3d6000fd5b505050506040513d601f19601f820116820180604052508101906117e891906132c4565b60ff16600c60009054906101000a90046001600160a01b03166001600160a01b0316631865c57d6040518163ffffffff1660e01b815260040160206040518083038186803b15801561183957600080fd5b505afa15801561184d573d6000803e3d6000fd5b505050506040513d601f19601f8201168201806040525081019061187191906130ce565b141561188f5760405162461bcd60e51b8152600401610679906137e6565b73__$cb76aa8097a3c0beaf107a478aa049bae7$__63375b3c0a6040518163ffffffff1660e01b815260040160206040518083038186803b1580156118d357600080fd5b505af41580156118e7573d6000803e3d6000fd5b505050506040513d601f19601f8201168201806040525081019061190b91906130ce565b83101561192a5760405162461bcd60e51b81526004016106799061397c565b6009546040517f23b872dd0000000000000000000000000000000000000000000000000000000081526001600160a01b03909116906323b872dd90611977903390309088906004016132f9565b602060405180830381600087803b15801561199157600080fd5b505af11580156119a5573d6000803e3d6000fd5b505050506040513d601f19601f820116820180604052508101906119c99190613096565b6119e55760405162461bcd60e51b815260040161067990613608565b3360009081526004602090815260408083205480845260059092529091206002015481611ba657600654611a2090600163ffffffff6125bc16565b6006819055506040518061010001604052806006548152602001336001600160a01b031681526020018681526020018781526020016000815260200160008152602001611aef73__$cb76aa8097a3c0beaf107a478aa049bae7$__6326bf1c036040518163ffffffff1660e01b815260040160206040518083038186803b158015611aaa57600080fd5b505af4158015611abe573d6000803e3d6000fd5b505050506040513d601f19601f82011682018060405250810190611ae291906130ce565b899063ffffffff6125bc16565b8152600060209182018190526006805482526005808452604080842086518155868601516001820180547fffffffffffffffffffffffff0000000000000000000000000000000000000000166001600160a01b0390921691909117905586820151600282015560608701516003820155608087015160048083019190915560a08801519382019390935560c08701518185015560e09096015160079096019590955590543383529252919091208190559150611c8b565b600082815260056020526040902060020154611bc8908663ffffffff6125bc16565b6005600084815260200190815260200160002060020181905550611c6e73__$cb76aa8097a3c0beaf107a478aa049bae7$__6326bf1c036040518163ffffffff1660e01b815260040160206040518083038186803b158015611c2957600080fd5b505af4158015611c3d573d6000803e3d6000fd5b505050506040513d601f19601f82011682018060405250810190611c6191906130ce565b879063ffffffff6125bc16565b600083815260056020526040812060068101929092556007909101555b817f52d3b6bf695a499d39fcdb47e3b450c09f2f6aa091ca8809cc51c00e705996cc8783600560008781526020019081526020016000206002015442604051611cd79493929190613a88565b60405180910390a2505050505050565b6000828152602081905260408120611d05908363ffffffff612b8716565b9392505050565b6000828152602081905260408120611d05908363ffffffff612b9316565b73__$cb76aa8097a3c0beaf107a478aa049bae7$__639cec6f8a6040518163ffffffff1660e01b815260040160206040518083038186803b158015611d6e57600080fd5b505af4158015611d82573d6000803e3d6000fd5b505050506040513d601f19601f82011682018060405250810190611da691906130ce565b611db08133611d0c565b611dcc5760405162461bcd60e51b815260040161067990613472565b50600091825260056020819052604090922090910155565b600081565b60025481565b60065490565b6009546001600160a01b031681565b60046020526000908152604090205481565b6000818152602081905260408120610a4d90612ba8565b600082815260208190526040902060020154611e4b906103e661297d565b6112a75760405162461bcd60e51b815260040161067990613574565b600b546001600160a01b031681565b611e7e612ead565b506000908152600560208181526040928390208351610100810185528154815260018201546001600160a01b03169281019290925260028101549382019390935260038301546060820152600483015460808201529082015460a0820152600682015460c082015260079091015460e082015290565b73__$cb76aa8097a3c0beaf107a478aa049bae7$__6380638d426040518163ffffffff1660e01b815260040160206040518083038186803b158015611f3857600080fd5b505af4158015611f4c573d6000803e3d6000fd5b505050506040513d601f19601f82011682018060405250810190611f7091906130ce565b611f7a8133611d0c565b611f965760405162461bcd60e51b815260040161067990613472565b600854611fa257611372565b611faa612ead565b50600083815260056020818152604092839020835161010081018552815481526001808301546001600160a01b03169382019390935260028201549481019490945260038101546060850152600481015460808501529182015460a08401819052600683015460c085015260079092015460e08401528185031461202f575050611372565b600b546040517f378ab9a90000000000000000000000000000000000000000000000000000000081526060916001600160a01b03169063378ab9a990612079908590600401613341565b60006040518083038186803b15801561209157600080fd5b505afa1580156120a5573d6000803e3d6000fd5b505050506040513d6000823e601f3d908101601f191682016040526120cd919081019061305b565b600b546040517fd2a4669a0000000000000000000000000000000000000000000000000000000081529192506060916001600160a01b039091169063d2a4669a9061211c908690600401613341565b60006040518083038186803b15801561213457600080fd5b505afa158015612148573d6000803e3d6000fd5b505050506040513d6000823e601f3d908101601f19168201604052612170919081019061305b565b600b546040517ffae4425d0000000000000000000000000000000000000000000000000000000081529192506060916001600160a01b039091169063fae4425d906121bf908790600401613341565b60006040518083038186803b1580156121d757600080fd5b505afa1580156121eb573d6000803e3d6000fd5b505050506040513d6000823e601f3d908101601f19168201604052612213919081019061305b565b825190915015612469576000805b835181101561232e57600a548751604051634673ffa560e11b81526000926001600160a01b031691638ce7ff4a9161225f918b918790600401613b14565b604080518083038186803b15801561227657600080fd5b505afa15801561228a573d6000803e3d6000fd5b505050506040513d601f19601f820116820180604052508101906122ae919061324a565b60000151905060008683815181106122c257fe5b6020026020010151905060008684815181106122da57fe5b6020026020010151905060008685815181106122f257fe5b602002602001015190508284148061231257508184118061231257508084105b1561231e578560010195505b5050600190920191506122219050565b50600083516008540282600754896040015102028161234957fe5b049050801561246657600854604088015181101561236857600061237f565b604088015160085461237f9163ffffffff61259416565b60088190556040517feee26d3c1e406e24904d3748e49da85096c92ac1a6ad38f3fe8a404f85212dd1916123b8918d9185914290613a88565b60405180910390a16040880151600754908301906123dc818563ffffffff61259416565b60078190556040517ff7157643fd549e213a0105625da6b3bf58c86068ccb954a4449e18bf9427bff491612415918f9185914290613a88565b60405180910390a16124628a60000151836040518060400160405280600e81526020017f566f74696e6720526577617264730000000000000000000000000000000000008152508f612508565b5050505b50505b5050505050505050565b60056020819052600091825260409091208054600182015460028301546003840154600485015495850154600686015460079096015494966001600160a01b03909416959294919392909188565b6000611d05836001600160a01b038416612bb3565b60008082116124f75760405162461bcd60e51b81526004016106799061353d565b81838161250057fe5b049392505050565b60008481526005602052604090819020600201805490859055905185907fab9982d99de79485b3cd6d1e72c881fd0342f42f1cbc7d220d4f373b97c4f36390610d9a9084908890889088904290613aa3565b60008261256957506000610a4d565b8282028284828161257657fe5b0414611d055760405162461bcd60e51b815260040161067990613676565b6000828211156125b65760405162461bcd60e51b815260040161067990613506565b50900390565b600082820183811015611d055760405162461bcd60e51b81526004016106799061343b565b6125eb8282612bfd565b6000828152600560208190526040909120600281015491810154909190612610612efb565b600b546040517f04c075690000000000000000000000000000000000000000000000000000000081526001600160a01b03909116906304c0756990612659908590600401613341565b60006040518083038186803b15801561267157600080fd5b505afa158015612685573d6000803e3d6000fd5b505050506040513d6000823e601f3d908101601f191682016040526126ad9190810190613141565b6060810151608082015160408301518251939450919290919015612972576000805b845181101561285657600a548954604051634673ffa560e11b81526000926001600160a01b031691638ce7ff4a9161270d918c918790600401613b14565b604080518083038186803b15801561272457600080fd5b505afa158015612738573d6000803e3d6000fd5b505050506040513d601f19601f8201168201806040525081019061275c919061324a565b600001519050600086838151811061277057fe5b60200260200101519050600086848151811061278857fe5b6020026020010151905060008685815181106127a057fe5b60200260200101519050828410806127b757508184115b156128465773__$cb76aa8097a3c0beaf107a478aa049bae7$__633002c9ac6040518163ffffffff1660e01b815260040160206040518083038186803b15801561280057600080fd5b505af4158015612814573d6000803e3d6000fd5b505050506040513d601f19601f8201168201806040525081019061283891906130ce565b8c8161284057fe5b04860195505b5050600190920191506126cf9050565b50801561291b5786811161286a578061286c565b865b88549091506128c190612885898463ffffffff61259416565b6040518060400160405280600e81526020017f566f74696e672050656e616c74790000000000000000000000000000000000008152508c612508565b6007546128d4818363ffffffff6125bc16565b60078190556040517ff7157643fd549e213a0105625da6b3bf58c86068ccb954a4449e18bf9427bff49161290d918d9185914290613a88565b60405180910390a150612466565b60085461292e818963ffffffff6125bc16565b60088190556040517feee26d3c1e406e24904d3748e49da85096c92ac1a6ad38f3fe8a404f85212dd191612967918d9185914290613a88565b60405180910390a150505b505050505050505050565b3390565b600082815260208190526040902061299f908263ffffffff6124c116565b15611265576129ac61297d565b6001600160a01b0316816001600160a01b0316837f2f8788117e7eff1d82e926ec794901d17c78024a50270940304540a733656f0d60405160405180910390a45050565b6000828152602081905260409020612a0e908263ffffffff612d7b16565b1561126557612a1b61297d565b6001600160a01b0316816001600160a01b0316837ff6391f5c32d9c69d2a47ea670b442974b53935d1edc7fd64eb21e047a839171b60405160405180910390a45050565b60008073__$cb76aa8097a3c0beaf107a478aa049bae7$__636a47aa066040518163ffffffff1660e01b815260040160206040518083038186803b158015612aa657600080fd5b505af4158015612aba573d6000803e3d6000fd5b505050506040513d601f19601f82011682018060405250810190612ade91906130ce565b600154430381612aea57fe5b049050600254811115612b7f578073__$cb76aa8097a3c0beaf107a478aa049bae7$__63e388a69e6040518163ffffffff1660e01b815260040160206040518083038186803b158015612b3c57600080fd5b505af4158015612b50573d6000803e3d6000fd5b505050506040513d601f19601f82011682018060405250810190612b7491906130ce565b901c60035560028190555b505060035490565b6000611d058383612d90565b6000611d05836001600160a01b038416612dd5565b6000610a4d82612ded565b6000612bbf8383612dd5565b612bf557508154600181810184556000848152602080822090930184905584548482528286019093526040902091909155610a4d565b506000610a4d565b612c05612ead565b5060008281526005602081815260408084208151610100810183528154815260018201546001600160a01b031693810193909352600281015491830191909152600381015460608301819052600482015460808401529281015460a08301819052600682015460c084015260079091015460e083015290929110612c8d578160600151612c93565b8160a001515b90506000612ca7848363ffffffff61259416565b60408401519091506000612cbb83836108da565b905081811015612d7257612d0a8560000151826040518060400160405280601281526020017f496e61637469766974792050656e616c7479000000000000000000000000000081525089612508565b600754612d2f612d20848463ffffffff61259416565b6007549063ffffffff6125bc16565b60078190556040517ff7157643fd549e213a0105625da6b3bf58c86068ccb954a4449e18bf9427bff491612d68918a9185914290613a88565b60405180910390a1505b50505050505050565b6000611d05836001600160a01b038416612df1565b81546000908210612db35760405162461bcd60e51b81526004016106799061334a565b826000018281548110612dc257fe5b9060005260206000200154905092915050565b60009081526001919091016020526040902054151590565b5490565b60008181526001830160205260408120548015610a475783546000198083019190810190600090879083908110612e2457fe5b9060005260206000200154905080876000018481548110612e4157fe5b600091825260208083209091019290925582815260018981019092526040902090840190558654879080612e7157fe5b60019003818190600052602060002001600090559055866001016000878152602001908152602001600020600090556001945050505050610a4d565b6040518061010001604052806000815260200160006001600160a01b031681526020016000815260200160008152602001600081526020016000815260200160008152602001600081525090565b604051806101000160405280600081526020016060815260200160608152602001606081526020016060815260200160008152602001600081526020016000151581525090565b80356001600160a01b0381168114610a4d57600080fd5b600082601f830112612f69578081fd5b815167ffffffffffffffff811115612f7f578182fd5b6020808202612f8f828201613b2a565b83815293508184018583018287018401881015612fab57600080fd5b600092505b84831015612fce578051825260019290920191908301908301612fb0565b505050505092915050565b80518015158114610a4d57600080fd5b600060208284031215612ffa578081fd5b611d058383612f42565b60008060008060808587031215613019578283fd5b6130238686612f42565b93506130328660208701612f42565b92506130418660408701612f42565b91506130508660608701612f42565b905092959194509250565b60006020828403121561306c578081fd5b815167ffffffffffffffff811115613082578182fd5b61308e84828501612f59565b949350505050565b6000602082840312156130a7578081fd5b81518015158114611d05578182fd5b6000602082840312156130c7578081fd5b5035919050565b6000602082840312156130df578081fd5b5051919050565b600080604083850312156130f8578182fd5b8235915060208301356001600160a01b0381168114613115578182fd5b809150509250929050565b60008060408385031215613132578182fd5b50508035926020909101359150565b600060208284031215613152578081fd5b815167ffffffffffffffff80821115613169578283fd5b61010091840180860383131561317d578384fd5b61318683613b2a565b81518152602082015193508284111561319d578485fd5b6131a987858401612f59565b602082015260408201519350828411156131c1578485fd5b6131cd87858401612f59565b604082015260608201519350828411156131e5578485fd5b6131f187858401612f59565b60608201526080820151935082841115613209578485fd5b61321587858401612f59565b608082015260a082015160a082015260c082015160c082015261323b8760e08401612fd9565b60e08201529695505050505050565b60006040828403121561325b578081fd5b6132656040613b2a565b82518152602083015160208201528091505092915050565b600080600060608486031215613291578283fd5b833592506132a28560208601612f42565b9150604084013590509250925092565b60008060408385031215613132578081fd5b6000602082840312156132d5578081fd5b815160ff81168114611d05578182fd5b6001600160a01b0391909116815260200190565b6001600160a01b039384168152919092166020820152604081019190915260600190565b6001600160a01b03929092168252602082015260400190565b901515815260200190565b90815260200190565b60208082526022908201527f456e756d657261626c655365743a20696e646578206f7574206f6620626f756e60408201527f6473000000000000000000000000000000000000000000000000000000000000606082015260800190565b6020808252602f908201527f416363657373436f6e74726f6c3a2073656e646572206d75737420626520616e60408201527f2061646d696e20746f206772616e740000000000000000000000000000000000606082015260800190565b6020808252601a908201527f57697468647261772065706f6368206e6f742072656163686564000000000000604082015260600190565b6020808252601b908201527f536166654d6174683a206164646974696f6e206f766572666c6f770000000000604082015260600190565b60208082526032908201527f416363657373436f6e74726f6c3a2073656e64657220646f65736e742068617660408201527f6520617070726f70726961746520726f6c650000000000000000000000000000606082015260800190565b60208082526019908201527f6661696c656420746f207472616e7366657220626f756e747900000000000000604082015260600190565b6020808252601e908201527f536166654d6174683a207375627472616374696f6e206f766572666c6f770000604082015260600190565b6020808252601a908201527f536166654d6174683a206469766973696f6e206279207a65726f000000000000604082015260600190565b60208082526030908201527f416363657373436f6e74726f6c3a2073656e646572206d75737420626520616e60408201527f2061646d696e20746f207265766f6b6500000000000000000000000000000000606082015260800190565b60208082526011908201527f4e6f6e706f736974697665207374616b65000000000000000000000000000000604082015260600190565b60208082526013908201527f736368207472616e73666572206661696c656400000000000000000000000000604082015260600190565b60208082526010908201527f636f756c646e74207472616e7366657200000000000000000000000000000000604082015260600190565b60208082526021908201527f536166654d6174683a206d756c7469706c69636174696f6e206f766572666c6f60408201527f7700000000000000000000000000000000000000000000000000000000000000606082015260800190565b6020808252600f908201527f696e636f72726563742065706f63680000000000000000000000000000000000604082015260600190565b6020808252601a908201527f4469646e742072657665616c20696e206c6173742065706f6368000000000000604082015260600190565b60208082526013908201527f7374616b657220646f65736e7420657869737400000000000000000000000000604082015260600190565b60208082526006908201527f6c6f636b65640000000000000000000000000000000000000000000000000000604082015260600190565b6020808252600d908201527f7374616b65722e6964203d203000000000000000000000000000000000000000604082015260600190565b6020808252600f908201527f496e636f72726563742073746174650000000000000000000000000000000000604082015260600190565b6020808252602a908201527f616c726561647920636f6d6d6974656420746869732065706f63682e2043616e60408201527f7420776974686472617700000000000000000000000000000000000000000000606082015260800190565b6020808252600f908201527f446964206e6f7420756e7374616b650000000000000000000000000000000000604082015260600190565b6020808252600f908201527f696e636f72726563742073746174650000000000000000000000000000000000604082015260600190565b60208082526011908201527f4e6f6e706f736974697665205374616b65000000000000000000000000000000604082015260600190565b6020808252602f908201527f416363657373436f6e74726f6c3a2063616e206f6e6c792072656e6f756e636560408201527f20726f6c657320666f722073656c660000000000000000000000000000000000606082015260800190565b60208082526031908201527f7374616b656420616d6f756e74206973206c657373207468616e206d696e696d60408201527f756d207374616b65207265717569726564000000000000000000000000000000606082015260800190565b600061010082019050825182526001600160a01b03602084015116602083015260408301516040830152606083015160608301526080830151608083015260a083015160a083015260c083015160c083015260e083015160e083015292915050565b9788526001600160a01b0396909616602088015260408701949094526060860192909252608085015260a084015260c083015260e08201526101000190565b918252602082015260400190565b93845260208401929092526040830152606082015260800190565b60008682526020868184015260a0604084015285518060a0850152825b81811015613adc5787810183015185820160c001528201613ac0565b81811115613aed578360c083870101525b5060608401959095525050608081019190915260c0601f909201601f191601019392505050565b9283526020830191909152604082015260600190565b60405181810167ffffffffffffffff81118282101715613b4957600080fd5b60405291905056fea2646970667358221220c1e76195286f6ad25dd7f5cf05409c9a0a92796a4f1210fa9712b7bbae7bf5fd64736f6c634300060b0033",
  "linkReferences": {
    "contracts/lib/Constants.sol": {
      "Constants": [
        {
          "length": 20,
          "start": 1756
        },
        {
          "length": 20,
          "start": 1886
        },
        {
          "length": 20,
          "start": 2336
        },
        {
          "length": 20,
          "start": 2683
        },
        {
          "length": 20,
          "start": 2810
        },
        {
          "length": 20,
          "start": 3221
        },
        {
          "length": 20,
          "start": 3672
        },
        {
          "length": 20,
          "start": 4042
        },
        {
          "length": 20,
          "start": 5197
        },
        {
          "length": 20,
          "start": 5413
        },
        {
          "length": 20,
          "start": 6096
        },
        {
          "length": 20,
          "start": 6387
        },
        {
          "length": 20,
          "start": 6678
        },
        {
          "length": 20,
          "start": 7149
        },
        {
          "length": 20,
          "start": 7532
        },
        {
          "length": 20,
          "start": 7857
        },
        {
          "length": 20,
          "start": 8315
        },
        {
          "length": 20,
          "start": 10563
        },
        {
          "length": 20,
          "start": 11241
        },
        {
          "length": 20,
          "start": 11391
        }
      ]
    }
  },
  "deployedLinkReferences": {
    "contracts/lib/Constants.sol": {
      "Constants": [
        {
          "length": 20,
          "start": 1367
        },
        {
          "length": 20,
          "start": 1497
        },
        {
          "length": 20,
          "start": 1947
        },
        {
          "length": 20,
          "start": 2294
        },
        {
          "length": 20,
          "start": 2421
        },
        {
          "length": 20,
          "start": 2832
        },
        {
          "length": 20,
          "start": 3283
        },
        {
          "length": 20,
          "start": 3653
        },
        {
          "length": 20,
          "start": 4808
        },
        {
          "length": 20,
          "start": 5024
        },
        {
          "length": 20,
          "start": 5707
        },
        {
          "length": 20,
          "start": 5998
        },
        {
          "length": 20,
          "start": 6289
        },
        {
          "length": 20,
          "start": 6760
        },
        {
          "length": 20,
          "start": 7143
        },
        {
          "length": 20,
          "start": 7468
        },
        {
          "length": 20,
          "start": 7926
        },
        {
          "length": 20,
          "start": 10174
        },
        {
          "length": 20,
          "start": 10852
        },
        {
          "length": 20,
          "start": 11002
        }
      ]
    }
  }
}