{
  "_format": "hh-sol-artifact-1",
  "contractName": "StakeManager",
  "sourceName": "contracts/Core/StakeManager.sol",
  "abi": [
    {
      "anonymous": false,
      "inputs": [
        {
          "indexed": false,
          "internalType": "uint256",
          "name": "a",
          "type": "uint256"
        }
      ],
      "name": "DebugUint256",
      "type": "event"
    },
    {
      "anonymous": false,
      "inputs": [
        {
          "indexed": false,
          "internalType": "uint256",
          "name": "epoch",
          "type": "uint256"
        },
        {
          "indexed": false,
          "internalType": "uint256",
          "name": "prevRewardPool",
          "type": "uint256"
        },
        {
          "indexed": false,
          "internalType": "uint256",
          "name": "rewardPool",
          "type": "uint256"
        },
        {
          "indexed": false,
          "internalType": "uint256",
          "name": "timestamp",
          "type": "uint256"
        }
      ],
      "name": "RewardPoolChange",
      "type": "event"
    },
    {
      "anonymous": false,
      "inputs": [
        {
          "indexed": true,
          "internalType": "bytes32",
          "name": "role",
          "type": "bytes32"
        },
        {
          "indexed": true,
          "internalType": "bytes32",
          "name": "previousAdminRole",
          "type": "bytes32"
        },
        {
          "indexed": true,
          "internalType": "bytes32",
          "name": "newAdminRole",
          "type": "bytes32"
        }
      ],
      "name": "RoleAdminChanged",
      "type": "event"
    },
    {
      "anonymous": false,
      "inputs": [
        {
          "indexed": true,
          "internalType": "bytes32",
          "name": "role",
          "type": "bytes32"
        },
        {
          "indexed": true,
          "internalType": "address",
          "name": "account",
          "type": "address"
        },
        {
          "indexed": true,
          "internalType": "address",
          "name": "sender",
          "type": "address"
        }
      ],
      "name": "RoleGranted",
      "type": "event"
    },
    {
      "anonymous": false,
      "inputs": [
        {
          "indexed": true,
          "internalType": "bytes32",
          "name": "role",
          "type": "bytes32"
        },
        {
          "indexed": true,
          "internalType": "address",
          "name": "account",
          "type": "address"
        },
        {
          "indexed": true,
          "internalType": "address",
          "name": "sender",
          "type": "address"
        }
      ],
      "name": "RoleRevoked",
      "type": "event"
    },
    {
      "anonymous": false,
      "inputs": [
        {
          "indexed": true,
          "internalType": "uint256",
          "name": "stakerId",
          "type": "uint256"
        },
        {
          "indexed": false,
          "internalType": "uint256",
          "name": "previousStake",
          "type": "uint256"
        },
        {
          "indexed": false,
          "internalType": "uint256",
          "name": "newStake",
          "type": "uint256"
        },
        {
          "indexed": false,
          "internalType": "string",
          "name": "reason",
          "type": "string"
        },
        {
          "indexed": false,
          "internalType": "uint256",
          "name": "epoch",
          "type": "uint256"
        },
        {
          "indexed": false,
          "internalType": "uint256",
          "name": "timestamp",
          "type": "uint256"
        }
      ],
      "name": "StakeChange",
      "type": "event"
    },
    {
      "anonymous": false,
      "inputs": [
        {
          "indexed": false,
          "internalType": "uint256",
          "name": "epoch",
          "type": "uint256"
        },
        {
          "indexed": false,
          "internalType": "uint256",
          "name": "prevStakeGettingReward",
          "type": "uint256"
        },
        {
          "indexed": false,
          "internalType": "uint256",
          "name": "stakeGettingReward",
          "type": "uint256"
        },
        {
          "indexed": false,
          "internalType": "uint256",
          "name": "timestamp",
          "type": "uint256"
        }
      ],
      "name": "StakeGettingRewardChange",
      "type": "event"
    },
    {
      "anonymous": false,
      "inputs": [
        {
          "indexed": false,
          "internalType": "uint256",
          "name": "epoch",
          "type": "uint256"
        },
        {
          "indexed": true,
          "internalType": "uint256",
          "name": "stakerId",
          "type": "uint256"
        },
        {
          "indexed": false,
          "internalType": "uint256",
          "name": "previousStake",
          "type": "uint256"
        },
        {
          "indexed": false,
          "internalType": "uint256",
          "name": "newStake",
          "type": "uint256"
        },
        {
          "indexed": false,
          "internalType": "uint256",
          "name": "timestamp",
          "type": "uint256"
        }
      ],
      "name": "Staked",
      "type": "event"
    },
    {
      "anonymous": false,
      "inputs": [
        {
          "indexed": false,
          "internalType": "uint256",
          "name": "epoch",
          "type": "uint256"
        },
        {
          "indexed": true,
          "internalType": "uint256",
          "name": "stakerId",
          "type": "uint256"
        },
        {
          "indexed": false,
          "internalType": "uint256",
          "name": "amount",
          "type": "uint256"
        },
        {
          "indexed": false,
          "internalType": "uint256",
          "name": "newStake",
          "type": "uint256"
        },
        {
          "indexed": false,
          "internalType": "uint256",
          "name": "timestamp",
          "type": "uint256"
        }
      ],
      "name": "Unstaked",
      "type": "event"
    },
    {
      "anonymous": false,
      "inputs": [
        {
          "indexed": false,
          "internalType": "uint256",
          "name": "epoch",
          "type": "uint256"
        },
        {
          "indexed": true,
          "internalType": "uint256",
          "name": "stakerId",
          "type": "uint256"
        },
        {
          "indexed": false,
          "internalType": "uint256",
          "name": "amount",
          "type": "uint256"
        },
        {
          "indexed": false,
          "internalType": "uint256",
          "name": "newStake",
          "type": "uint256"
        },
        {
          "indexed": false,
          "internalType": "uint256",
          "name": "timestamp",
          "type": "uint256"
        }
      ],
      "name": "Withdrew",
      "type": "event"
    },
    {
      "inputs": [],
      "name": "DEFAULT_ADMIN_ROLE",
      "outputs": [
        {
          "internalType": "bytes32",
          "name": "",
          "type": "bytes32"
        }
      ],
      "stateMutability": "view",
      "type": "function"
    },
    {
      "inputs": [],
      "name": "blockManager",
      "outputs": [
        {
          "internalType": "contract IBlockManager",
          "name": "",
          "type": "address"
        }
      ],
      "stateMutability": "view",
      "type": "function"
    },
    {
      "inputs": [
        {
          "internalType": "uint256",
          "name": "epochs",
          "type": "uint256"
        },
        {
          "internalType": "uint256",
          "name": "stakeValue",
          "type": "uint256"
        }
      ],
      "name": "calculateInactivityPenalties",
      "outputs": [
        {
          "internalType": "uint256",
          "name": "",
          "type": "uint256"
        }
      ],
      "stateMutability": "pure",
      "type": "function"
    },
    {
      "inputs": [],
      "name": "genesisBlock",
      "outputs": [
        {
          "internalType": "uint256",
          "name": "",
          "type": "uint256"
        }
      ],
      "stateMutability": "view",
      "type": "function"
    },
    {
      "inputs": [],
      "name": "getNumStakers",
      "outputs": [
        {
          "internalType": "uint256",
          "name": "",
          "type": "uint256"
        }
      ],
      "stateMutability": "view",
      "type": "function"
    },
    {
      "inputs": [],
      "name": "getRewardPool",
      "outputs": [
        {
          "internalType": "uint256",
          "name": "",
          "type": "uint256"
        }
      ],
      "stateMutability": "view",
      "type": "function"
    },
    {
      "inputs": [
        {
          "internalType": "bytes32",
          "name": "role",
          "type": "bytes32"
        }
      ],
      "name": "getRoleAdmin",
      "outputs": [
        {
          "internalType": "bytes32",
          "name": "",
          "type": "bytes32"
        }
      ],
      "stateMutability": "view",
      "type": "function"
    },
    {
      "inputs": [],
      "name": "getStakeGettingReward",
      "outputs": [
        {
          "internalType": "uint256",
          "name": "",
          "type": "uint256"
        }
      ],
      "stateMutability": "view",
      "type": "function"
    },
    {
      "inputs": [
        {
          "internalType": "uint256",
          "name": "_id",
          "type": "uint256"
        }
      ],
      "name": "getStaker",
      "outputs": [
        {
          "components": [
            {
              "internalType": "uint256",
              "name": "id",
              "type": "uint256"
            },
            {
              "internalType": "address",
              "name": "_address",
              "type": "address"
            },
            {
              "internalType": "uint256",
              "name": "stake",
              "type": "uint256"
            },
            {
              "internalType": "uint256",
              "name": "epochStaked",
              "type": "uint256"
            },
            {
              "internalType": "uint256",
              "name": "epochLastCommitted",
              "type": "uint256"
            },
            {
              "internalType": "uint256",
              "name": "epochLastRevealed",
              "type": "uint256"
            },
            {
              "internalType": "uint256",
              "name": "unstakeAfter",
              "type": "uint256"
            },
            {
              "internalType": "uint256",
              "name": "withdrawAfter",
              "type": "uint256"
            }
          ],
          "internalType": "struct Structs.Staker",
          "name": "staker",
          "type": "tuple"
        }
      ],
      "stateMutability": "view",
      "type": "function"
    },
    {
      "inputs": [
        {
          "internalType": "address",
          "name": "_address",
          "type": "address"
        }
      ],
      "name": "getStakerId",
      "outputs": [
        {
          "internalType": "uint256",
          "name": "",
          "type": "uint256"
        }
      ],
      "stateMutability": "view",
      "type": "function"
    },
    {
      "inputs": [
        {
          "internalType": "uint256",
          "name": "stakerId",
          "type": "uint256"
        },
        {
          "internalType": "uint256",
          "name": "epoch",
          "type": "uint256"
        }
      ],
      "name": "giveBlockReward",
      "outputs": [],
      "stateMutability": "nonpayable",
      "type": "function"
    },
    {
      "inputs": [
        {
          "internalType": "uint256",
          "name": "stakerId",
          "type": "uint256"
        },
        {
          "internalType": "uint256",
          "name": "epoch",
          "type": "uint256"
        }
      ],
      "name": "givePenalties",
      "outputs": [],
      "stateMutability": "nonpayable",
      "type": "function"
    },
    {
      "inputs": [
        {
          "internalType": "uint256",
          "name": "stakerId",
          "type": "uint256"
        },
        {
          "internalType": "uint256",
          "name": "epoch",
          "type": "uint256"
        }
      ],
      "name": "giveRewards",
      "outputs": [],
      "stateMutability": "nonpayable",
      "type": "function"
    },
    {
      "inputs": [
        {
          "internalType": "bytes32",
          "name": "role",
          "type": "bytes32"
        },
        {
          "internalType": "address",
          "name": "account",
          "type": "address"
        }
      ],
      "name": "grantRole",
      "outputs": [],
      "stateMutability": "nonpayable",
      "type": "function"
    },
    {
      "inputs": [
        {
          "internalType": "bytes32",
          "name": "role",
          "type": "bytes32"
        },
        {
          "internalType": "address",
          "name": "account",
          "type": "address"
        }
      ],
      "name": "hasRole",
      "outputs": [
        {
          "internalType": "bool",
          "name": "",
          "type": "bool"
        }
      ],
      "stateMutability": "view",
      "type": "function"
    },
    {
      "inputs": [
        {
          "internalType": "address",
          "name": "_schAddress",
          "type": "address"
        },
        {
          "internalType": "address",
          "name": "_voteManagerAddress",
          "type": "address"
        },
        {
          "internalType": "address",
          "name": "_blockManagerAddress",
          "type": "address"
        },
        {
          "internalType": "address",
          "name": "_stateManagerAddress",
          "type": "address"
        }
      ],
      "name": "init",
      "outputs": [],
      "stateMutability": "nonpayable",
      "type": "function"
    },
    {
      "inputs": [],
      "name": "lastBlockRewards",
      "outputs": [
        {
          "internalType": "uint256",
          "name": "",
          "type": "uint256"
        }
      ],
      "stateMutability": "view",
      "type": "function"
    },
    {
      "inputs": [],
      "name": "lastHalvings",
      "outputs": [
        {
          "internalType": "uint256",
          "name": "",
          "type": "uint256"
        }
      ],
      "stateMutability": "view",
      "type": "function"
    },
    {
      "inputs": [],
      "name": "numStakers",
      "outputs": [
        {
          "internalType": "uint256",
          "name": "",
          "type": "uint256"
        }
      ],
      "stateMutability": "view",
      "type": "function"
    },
    {
      "inputs": [
        {
          "internalType": "bytes32",
          "name": "role",
          "type": "bytes32"
        },
        {
          "internalType": "address",
          "name": "account",
          "type": "address"
        }
      ],
      "name": "renounceRole",
      "outputs": [],
      "stateMutability": "nonpayable",
      "type": "function"
    },
    {
      "inputs": [
        {
          "internalType": "bytes32",
          "name": "role",
          "type": "bytes32"
        },
        {
          "internalType": "address",
          "name": "account",
          "type": "address"
        }
      ],
      "name": "revokeRole",
      "outputs": [],
      "stateMutability": "nonpayable",
      "type": "function"
    },
    {
      "inputs": [],
      "name": "rewardPool",
      "outputs": [
        {
          "internalType": "uint256",
          "name": "",
          "type": "uint256"
        }
      ],
      "stateMutability": "view",
      "type": "function"
    },
    {
      "inputs": [],
      "name": "sch",
      "outputs": [
        {
          "internalType": "contract SchellingCoin",
          "name": "",
          "type": "address"
        }
      ],
      "stateMutability": "view",
      "type": "function"
    },
    {
      "inputs": [
        {
          "internalType": "uint256",
          "name": "_id",
          "type": "uint256"
        },
        {
          "internalType": "uint256",
          "name": "_epochLastRevealed",
          "type": "uint256"
        }
      ],
      "name": "setStakerEpochLastRevealed",
      "outputs": [],
      "stateMutability": "nonpayable",
      "type": "function"
    },
    {
      "inputs": [
        {
          "internalType": "uint256",
          "name": "id",
          "type": "uint256"
        },
        {
          "internalType": "address",
          "name": "bountyHunter",
          "type": "address"
        },
        {
          "internalType": "uint256",
          "name": "epoch",
          "type": "uint256"
        }
      ],
      "name": "slash",
      "outputs": [],
      "stateMutability": "nonpayable",
      "type": "function"
    },
    {
      "inputs": [
        {
          "internalType": "uint256",
          "name": "epoch",
          "type": "uint256"
        },
        {
          "internalType": "uint256",
          "name": "amount",
          "type": "uint256"
        }
      ],
      "name": "stake",
      "outputs": [],
      "stateMutability": "nonpayable",
      "type": "function"
    },
    {
      "inputs": [],
      "name": "stakeGettingReward",
      "outputs": [
        {
          "internalType": "uint256",
          "name": "",
          "type": "uint256"
        }
      ],
      "stateMutability": "view",
      "type": "function"
    },
    {
      "inputs": [
        {
          "internalType": "address",
          "name": "",
          "type": "address"
        }
      ],
      "name": "stakerIds",
      "outputs": [
        {
          "internalType": "uint256",
          "name": "",
          "type": "uint256"
        }
      ],
      "stateMutability": "view",
      "type": "function"
    },
    {
      "inputs": [
        {
          "internalType": "uint256",
          "name": "",
          "type": "uint256"
        }
      ],
      "name": "stakers",
      "outputs": [
        {
          "internalType": "uint256",
          "name": "id",
          "type": "uint256"
        },
        {
          "internalType": "address",
          "name": "_address",
          "type": "address"
        },
        {
          "internalType": "uint256",
          "name": "stake",
          "type": "uint256"
        },
        {
          "internalType": "uint256",
          "name": "epochStaked",
          "type": "uint256"
        },
        {
          "internalType": "uint256",
          "name": "epochLastCommitted",
          "type": "uint256"
        },
        {
          "internalType": "uint256",
          "name": "epochLastRevealed",
          "type": "uint256"
        },
        {
          "internalType": "uint256",
          "name": "unstakeAfter",
          "type": "uint256"
        },
        {
          "internalType": "uint256",
          "name": "withdrawAfter",
          "type": "uint256"
        }
      ],
      "stateMutability": "view",
      "type": "function"
    },
    {
      "inputs": [],
      "name": "stateManager",
      "outputs": [
        {
          "internalType": "contract IStateManager",
          "name": "",
          "type": "address"
        }
      ],
      "stateMutability": "view",
      "type": "function"
    },
    {
      "inputs": [
        {
          "internalType": "bytes4",
          "name": "interfaceId",
          "type": "bytes4"
        }
      ],
      "name": "supportsInterface",
      "outputs": [
        {
          "internalType": "bool",
          "name": "",
          "type": "bool"
        }
      ],
      "stateMutability": "view",
      "type": "function"
    },
    {
      "inputs": [
        {
          "internalType": "uint256",
          "name": "epoch",
          "type": "uint256"
        }
      ],
      "name": "unstake",
      "outputs": [],
      "stateMutability": "nonpayable",
      "type": "function"
    },
    {
      "inputs": [
        {
          "internalType": "uint256",
          "name": "stakerId",
          "type": "uint256"
        }
      ],
      "name": "updateCommitmentEpoch",
      "outputs": [],
      "stateMutability": "nonpayable",
      "type": "function"
    },
    {
      "inputs": [],
      "name": "voteManager",
      "outputs": [
        {
          "internalType": "contract IVoteManager",
          "name": "",
          "type": "address"
        }
      ],
      "stateMutability": "view",
      "type": "function"
    },
    {
      "inputs": [
        {
          "internalType": "uint256",
          "name": "epoch",
          "type": "uint256"
        }
      ],
      "name": "withdraw",
      "outputs": [],
      "stateMutability": "nonpayable",
      "type": "function"
    }
  ],
  "bytecode": "0x60806040526000600655600060075560006008553480156200002057600080fd5b506200002e60003362000034565b620000fb565b62000040828262000044565b5050565b620000508282620000ce565b62000040576000828152602081815260408083206001600160a01b03851684529091529020805460ff191660011790556200008a620000f7565b6001600160a01b0316816001600160a01b0316837f2f8788117e7eff1d82e926ec794901d17c78024a50270940304540a733656f0d60405160405180910390a45050565b6000918252602082815260408084206001600160a01b0393909316845291905290205460ff1690565b3390565b6138f2806200010b6000396000f3fe608060405234801561001057600080fd5b50600436106102415760003560e01c806354eae15e11610145578063a8264f99116100bd578063d547741f1161008c578063e3c998fe11610071578063e3c998fe1461043e578063fabb98901461045e578063fd5e6dd11461047157610241565b8063d547741f14610423578063d9169b321461043657610241565b8063a8264f99146103f8578063bc788d4614610400578063c584bb9f14610408578063c8ae0d7d1461041057610241565b8063746c8b651161011457806391d14854116100f957806391d14854146103ca5780639864f70a146103dd578063a217fddf146103f057610241565b8063746c8b65146103a45780637b0472f0146103b757610241565b806354eae15e1461036e5780636022a4851461038157806366666aa9146103945780636c8b052a1461039c57610241565b8063248a9ca3116101d85780632f2ff15d116101a757806336568abe1161018c57806336568abe1461034b57806342c1e5871461035e5780634cdc9c631461036657610241565b80632f2ff15d146103305780632f5949491461034357610241565b8063248a9ca3146102e25780632e17de78146102f55780632e1a7d4d146103085780632e716fb11461031b57610241565b8063188dc83b11610214578063188dc83b146102ac5780631a69f008146102bf5780631ad54991146102d25780631b8b13a7146102da57610241565b806301ffc9a71461024657806306552ff31461026f5780630ec88d3f146102845780630f91ce1914610299575b600080fd5b610259610254366004612eec565b610498565b6040516102669190613134565b60405180910390f35b61028261027d366004612de9565b6104f6565b005b61028c610601565b604051610266919061313f565b6102826102a7366004613081565b610607565b6102826102ba366004612e91565b6107c4565b61028c6102cd3660046130b5565b610905565b61028c610a62565b61028c610a68565b61028c6102f0366004612e91565b610a6e565b610282610303366004612e91565b610a83565b610282610316366004612e91565b610db2565b610323611215565b6040516102669190613148565b61028261033e366004612ec1565b611224565b61028c611262565b610282610359366004612ec1565b611268565b6103236112aa565b61028c6112b9565b61028261037c3660046130b5565b6112bf565b61028c61038f366004612dc8565b611370565b61028c61138b565b61028c611391565b6102826103b23660046130b5565b611397565b6102826103c53660046130b5565b6115a3565b6102596103d8366004612ec1565b611cc4565b6102826103eb3660046130b5565b611ced565b61028c611da7565b61028c611dac565b61028c611db2565b610323611db8565b61028c61041e366004612dc8565b611dc7565b610282610431366004612ec1565b611dd9565b610323611e01565b61045161044c366004612e91565b611e10565b604051610266919061368c565b61028261046c3660046130b5565b611e8e565b61048461047f366004612e91565b612475565b6040516102669897969594939291906136ee565b60007fffffffff0000000000000000000000000000000000000000000000000000000082167f7965db0b0000000000000000000000000000000000000000000000000000000014806104ee57506104ee826124c3565b90505b919050565b600980546001600160a01b038087167fffffffffffffffffffffffff000000000000000000000000000000000000000092831617909255600a8054868416908316179055600b8054858416908316179055600c80549284169290911691909117905543600155604080517fe388a69e000000000000000000000000000000000000000000000000000000008152905173__$cb76aa8097a3c0beaf107a478aa049bae7$__9163e388a69e916004808301926020929190829003018186803b1580156105c057600080fd5b505af41580156105d4573d6000803e3d6000fd5b505050506040513d601f19601f820116820180604052508101906105f89190612ea9565b60035550505050565b60085481565b73__$cb76aa8097a3c0beaf107a478aa049bae7$__6380638d426040518163ffffffff1660e01b815260040160206040518083038186803b15801561064b57600080fd5b505af415801561065f573d6000803e3d6000fd5b505050506040513d601f19601f820116820180604052508101906106839190612ea9565b61068d8133611cc4565b6106b25760405162461bcd60e51b81526004016106a9906131f0565b60405180910390fd5b60008481526005602052604081206002908101546106d0919061381f565b90506107148560006040518060400160405280600781526020017f536c6173686564000000000000000000000000000000000000000000000000008152508661250d565b60018111156107bd5760095460405163a9059cbb60e01b81526001600160a01b039091169063a9059cbb9061074f908790859060040161311b565b602060405180830381600087803b15801561076957600080fd5b505af115801561077d573d6000803e3d6000fd5b505050506040513d601f19601f820116820180604052508101906107a19190612e77565b6107bd5760405162461bcd60e51b81526004016106a99061324d565b5050505050565b73__$cb76aa8097a3c0beaf107a478aa049bae7$__639cec6f8a6040518163ffffffff1660e01b815260040160206040518083038186803b15801561080857600080fd5b505af415801561081c573d6000803e3d6000fd5b505050506040513d601f19601f820116820180604052508101906108409190612ea9565b61084a8133611cc4565b6108665760405162461bcd60e51b81526004016106a9906131f0565b600c60009054906101000a90046001600160a01b03166001600160a01b031663757991a86040518163ffffffff1660e01b815260040160206040518083038186803b1580156108b457600080fd5b505afa1580156108c8573d6000803e3d6000fd5b505050506040513d601f19601f820116820180604052508101906108ec9190612ea9565b6000928352600560205260409092206004019190915550565b6000600a831015610917575080610a5c565b600073__$cb76aa8097a3c0beaf107a478aa049bae7$__63b1cc45006040518163ffffffff1660e01b815260040160206040518083038186803b15801561095d57600080fd5b505af4158015610971573d6000803e3d6000fd5b505050506040513d601f19601f820116820180604052508101906109959190612ea9565b73__$cb76aa8097a3c0beaf107a478aa049bae7$__63a86f5a3f6040518163ffffffff1660e01b815260040160206040518083038186803b1580156109d957600080fd5b505af41580156109ed573d6000803e3d6000fd5b505050506040513d601f19601f82011682018060405250810190610a119190612ea9565b610a1b908561383f565b610a25919061381f565b610a3060018661385e565b610a3a919061383f565b905082811015610a5657610a4e818461385e565b915050610a5c565b60009150505b92915050565b60085490565b60075490565b60009081526020819052604090206001015490565b600c5460408051630eaf323560e31b8152905183926001600160a01b03169163757991a8916004808301926020929190829003018186803b158015610ac757600080fd5b505afa158015610adb573d6000803e3d6000fd5b505050506040513d601f19601f82011682018060405250810190610aff9190612ea9565b8114610b1d5760405162461bcd60e51b81526004016106a990613386565b73__$cb76aa8097a3c0beaf107a478aa049bae7$__633c7a3aff6040518163ffffffff1660e01b815260040160206040518083038186803b158015610b6157600080fd5b505af4158015610b75573d6000803e3d6000fd5b505050506040513d601f19601f82011682018060405250810190610b9991906130d6565b60ff16600c60009054906101000a90046001600160a01b03166001600160a01b0316631865c57d6040518163ffffffff1660e01b815260040160206040518083038186803b158015610bea57600080fd5b505afa158015610bfe573d6000803e3d6000fd5b505050506040513d601f19601f82011682018060405250810190610c229190612ea9565b8114610c405760405162461bcd60e51b81526004016106a990613564565b3360009081526004602090815260408083205480845260059092529091208054610c7c5760405162461bcd60e51b81526004016106a990613462565b6000816002015411610ca05760405162461bcd60e51b81526004016106a9906132e1565b84816006015411158015610cb75750600681015415155b610cd35760405162461bcd60e51b81526004016106a99061342b565b6000816006018190555073__$cb76aa8097a3c0beaf107a478aa049bae7$__632628490f6040518163ffffffff1660e01b815260040160206040518083038186803b158015610d2157600080fd5b505af4158015610d35573d6000803e3d6000fd5b505050506040513d601f19601f82011682018060405250810190610d599190612ea9565b610d639086613807565b6007820155600281015460405183917f0cfbc484edc798d2584502ca0d64e7e9514b8dd091d96a2a5b4deb58478da19e91610da39189918190429061373b565b60405180910390a25050505050565b600c5460408051630eaf323560e31b8152905183926001600160a01b03169163757991a8916004808301926020929190829003018186803b158015610df657600080fd5b505afa158015610e0a573d6000803e3d6000fd5b505050506040513d601f19601f82011682018060405250810190610e2e9190612ea9565b8114610e4c5760405162461bcd60e51b81526004016106a990613386565b73__$cb76aa8097a3c0beaf107a478aa049bae7$__633c7a3aff6040518163ffffffff1660e01b815260040160206040518083038186803b158015610e9057600080fd5b505af4158015610ea4573d6000803e3d6000fd5b505050506040513d601f19601f82011682018060405250810190610ec891906130d6565b60ff16600c60009054906101000a90046001600160a01b03166001600160a01b0316631865c57d6040518163ffffffff1660e01b815260040160206040518083038186803b158015610f1957600080fd5b505afa158015610f2d573d6000803e3d6000fd5b505050506040513d601f19601f82011682018060405250810190610f519190612ea9565b8114610f6f5760405162461bcd60e51b81526004016106a990613564565b3360009081526004602090815260408083205480845260059092529091208054610fab5760405162461bcd60e51b81526004016106a9906133f4565b610fb660018661385e565b816005015414610fd85760405162461bcd60e51b81526004016106a9906133bd565b600681015415610ffa5760405162461bcd60e51b81526004016106a99061352d565b848160070154111580156110115750600781015415155b61102d5760405162461bcd60e51b81526004016106a9906131b9565b600a546040517f7164f0d60000000000000000000000000000000000000000000000000000000081526001600160a01b0390911690637164f0d690611078908890869060040161372d565b60206040518083038186803b15801561109057600080fd5b505afa1580156110a4573d6000803e3d6000fd5b505050506040513d601f19601f820116820180604052508101906110c89190612ea9565b156110e55760405162461bcd60e51b81526004016106a9906134d0565b80546110f1908661255f565b60008160020154116111155760405162461bcd60e51b81526004016106a99061359b565b6000828152600560205260408082206002018054908390559051909184917f0a6fecee2c95fc6b4c7f291e3435a3a832bcd700c2a7ffdedd8c909d56dfa49f91611165918a91908190429061373b565b60405180910390a260095460405163a9059cbb60e01b81526001600160a01b039091169063a9059cbb9061119f903390859060040161311b565b602060405180830381600087803b1580156111b957600080fd5b505af11580156111cd573d6000803e3d6000fd5b505050506040513d601f19601f820116820180604052508101906111f19190612e77565b61120d5760405162461bcd60e51b81526004016106a99061334f565b505050505050565b600c546001600160a01b031681565b61123861123083610a6e565b6103d861292f565b6112545760405162461bcd60e51b81526004016106a99061315c565b61125e8282612933565b5050565b60035481565b61127061292f565b6001600160a01b0316816001600160a01b0316146112a05760405162461bcd60e51b81526004016106a9906135d2565b61125e82826129b8565b600a546001600160a01b031681565b60015481565b73__$cb76aa8097a3c0beaf107a478aa049bae7$__6380638d426040518163ffffffff1660e01b815260040160206040518083038186803b15801561130357600080fd5b505af4158015611317573d6000803e3d6000fd5b505050506040513d601f19601f8201168201806040525081019061133b9190612ea9565b6113458133611cc4565b6113615760405162461bcd60e51b81526004016106a9906131f0565b61136b838361255f565b505050565b6001600160a01b031660009081526004602052604090205490565b60075481565b60065481565b73__$cb76aa8097a3c0beaf107a478aa049bae7$__6380638d426040518163ffffffff1660e01b815260040160206040518083038186803b1580156113db57600080fd5b505af41580156113ef573d6000803e3d6000fd5b505050506040513d601f19601f820116820180604052508101906114139190612ea9565b61141d8133611cc4565b6114395760405162461bcd60e51b81526004016106a9906131f0565b6000611443612a3b565b9050801561155357600084815260056020526040812060020154611468908390613807565b90506114ab85826040518060400160405280600c81526020017f426c6f636b2052657761726400000000000000000000000000000000000000008152508761250d565b6009546040517f40c10f190000000000000000000000000000000000000000000000000000000081526001600160a01b03909116906340c10f19906114f6903090869060040161311b565b602060405180830381600087803b15801561151057600080fd5b505af1158015611524573d6000803e3d6000fd5b505050506040513d601f19601f820116820180604052508101906115489190612e77565b61155157600080fd5b505b6008805460009182905560405190917feee26d3c1e406e24904d3748e49da85096c92ac1a6ad38f3fe8a404f85212dd191611594918791859190429061373b565b60405180910390a15050505050565b600c5460408051630eaf323560e31b8152905184926001600160a01b03169163757991a8916004808301926020929190829003018186803b1580156115e757600080fd5b505afa1580156115fb573d6000803e3d6000fd5b505050506040513d601f19601f8201168201806040525081019061161f9190612ea9565b811461163d5760405162461bcd60e51b81526004016106a990613386565b73__$cb76aa8097a3c0beaf107a478aa049bae7$__633c7a3aff6040518163ffffffff1660e01b815260040160206040518083038186803b15801561168157600080fd5b505af4158015611695573d6000803e3d6000fd5b505050506040513d601f19601f820116820180604052508101906116b991906130d6565b60ff16600c60009054906101000a90046001600160a01b03166001600160a01b0316631865c57d6040518163ffffffff1660e01b815260040160206040518083038186803b15801561170a57600080fd5b505afa15801561171e573d6000803e3d6000fd5b505050506040513d601f19601f820116820180604052508101906117429190612ea9565b81146117605760405162461bcd60e51b81526004016106a990613564565b73__$cb76aa8097a3c0beaf107a478aa049bae7$__63a475b5dd6040518163ffffffff1660e01b815260040160206040518083038186803b1580156117a457600080fd5b505af41580156117b8573d6000803e3d6000fd5b505050506040513d601f19601f820116820180604052508101906117dc91906130d6565b60ff16600c60009054906101000a90046001600160a01b03166001600160a01b0316631865c57d6040518163ffffffff1660e01b815260040160206040518083038186803b15801561182d57600080fd5b505afa158015611841573d6000803e3d6000fd5b505050506040513d601f19601f820116820180604052508101906118659190612ea9565b14156118835760405162461bcd60e51b81526004016106a990613499565b73__$cb76aa8097a3c0beaf107a478aa049bae7$__63375b3c0a6040518163ffffffff1660e01b815260040160206040518083038186803b1580156118c757600080fd5b505af41580156118db573d6000803e3d6000fd5b505050506040513d601f19601f820116820180604052508101906118ff9190612ea9565b83101561191e5760405162461bcd60e51b81526004016106a99061362f565b6009546040517f23b872dd0000000000000000000000000000000000000000000000000000000081526001600160a01b03909116906323b872dd9061196b903390309088906004016130f7565b602060405180830381600087803b15801561198557600080fd5b505af1158015611999573d6000803e3d6000fd5b505050506040513d601f19601f820116820180604052508101906119bd9190612e77565b6119d95760405162461bcd60e51b81526004016106a990613318565b3360009081526004602090815260408083205480845260059092529091206002015481611b8e57600654611a0e906001613807565b6006819055506040518061010001604052806006548152602001336001600160a01b03168152602001868152602001878152602001600081526020016000815260200173__$cb76aa8097a3c0beaf107a478aa049bae7$__6326bf1c036040518163ffffffff1660e01b815260040160206040518083038186803b158015611a9557600080fd5b505af4158015611aa9573d6000803e3d6000fd5b505050506040513d601f19601f82011682018060405250810190611acd9190612ea9565b611ad79089613807565b8152600060209182018190526006805482526005808452604080842086518155868601516001820180547fffffffffffffffffffffffff0000000000000000000000000000000000000000166001600160a01b0390921691909117905586820151600282015560608701516003820155608087015160048083019190915560a08801519382019390935560c08701518185015560e09096015160079096019590955590543383529252919091208190559150611c68565b600082815260056020526040902060020154611bab908690613807565b600560008481526020019081526020016000206002018190555073__$cb76aa8097a3c0beaf107a478aa049bae7$__6326bf1c036040518163ffffffff1660e01b815260040160206040518083038186803b158015611c0957600080fd5b505af4158015611c1d573d6000803e3d6000fd5b505050506040513d601f19601f82011682018060405250810190611c419190612ea9565b611c4b9087613807565b600083815260056020526040812060068101929092556007909101555b817f52d3b6bf695a499d39fcdb47e3b450c09f2f6aa091ca8809cc51c00e705996cc8783600560008781526020019081526020016000206002015442604051611cb4949392919061373b565b60405180910390a2505050505050565b6000918252602082815260408084206001600160a01b0393909316845291905290205460ff1690565b73__$cb76aa8097a3c0beaf107a478aa049bae7$__639cec6f8a6040518163ffffffff1660e01b815260040160206040518083038186803b158015611d3157600080fd5b505af4158015611d45573d6000803e3d6000fd5b505050506040513d601f19601f82011682018060405250810190611d699190612ea9565b611d738133611cc4565b611d8f5760405162461bcd60e51b81526004016106a9906131f0565b50600091825260056020819052604090922090910155565b600081565b60025481565b60065490565b6009546001600160a01b031681565b60046020526000908152604090205481565b611de561123083610a6e565b6112a05760405162461bcd60e51b81526004016106a990613284565b600b546001600160a01b031681565b611e18612cd1565b506000908152600560208181526040928390208351610100810185528154815260018201546001600160a01b03169281019290925260028101549382019390935260038301546060820152600483015460808201529082015460a0820152600682015460c082015260079091015460e082015290565b73__$cb76aa8097a3c0beaf107a478aa049bae7$__6380638d426040518163ffffffff1660e01b815260040160206040518083038186803b158015611ed257600080fd5b505af4158015611ee6573d6000803e3d6000fd5b505050506040513d601f19601f82011682018060405250810190611f0a9190612ea9565b611f148133611cc4565b611f305760405162461bcd60e51b81526004016106a9906131f0565b600854611f3c5761136b565b6000838152600560208181526040928390208351610100810185528154815260018201546001600160a01b03169281019290925260028101549382019390935260038301546060820152600483015460808201529082015460a08201819052600683015460c083015260079092015460e082015290611fbb818561385e565b600114611fc957505061136b565b600b546040517f378ab9a90000000000000000000000000000000000000000000000000000000081526000916001600160a01b03169063378ab9a99061201390859060040161313f565b60006040518083038186803b15801561202b57600080fd5b505afa15801561203f573d6000803e3d6000fd5b505050506040513d6000823e601f3d908101601f191682016040526120679190810190612e3c565b600b546040517fd2a4669a0000000000000000000000000000000000000000000000000000000081529192506000916001600160a01b039091169063d2a4669a906120b690869060040161313f565b60006040518083038186803b1580156120ce57600080fd5b505afa1580156120e2573d6000803e3d6000fd5b505050506040513d6000823e601f3d908101601f1916820160405261210a9190810190612e3c565b600b546040517ffae4425d0000000000000000000000000000000000000000000000000000000081529192506000916001600160a01b039091169063fae4425d9061215990879060040161313f565b60006040518083038186803b15801561217157600080fd5b505afa158015612185573d6000803e3d6000fd5b505050506040513d6000823e601f3d908101601f191682016040526121ad9190810190612e3c565b82519091501561246b576000805b835181101561231257600a548751604051634673ffa560e11b81526000926001600160a01b031691638ce7ff4a916121f9918b9187906004016137c7565b604080518083038186803b15801561221057600080fd5b505afa158015612224573d6000803e3d6000fd5b505050506040513d601f19601f820116820180604052508101906122489190613033565b600001519050600086838151811061227057634e487b7160e01b600052603260045260246000fd5b60200260200101519050600086848151811061229c57634e487b7160e01b600052603260045260246000fd5b6020026020010151905060008685815181106122c857634e487b7160e01b600052603260045260246000fd5b60200260200101519050828414806122e85750818411806122e857508084105b156122fb576122f8866001613807565b95505b50505050808061230a90613875565b9150506121bb565b5060008351600854612324919061383f565b826007548960400151612337919061383f565b612341919061383f565b61234b919061381f565b9050801561246857600854604088015181101561236957600061237b565b876040015160085461237b919061385e565b60088190556040517feee26d3c1e406e24904d3748e49da85096c92ac1a6ad38f3fe8a404f85212dd1916123b4918d918591429061373b565b60405180910390a160008289604001516123ce9190613807565b6007549091506123de848261385e565b60078190556040517ff7157643fd549e213a0105625da6b3bf58c86068ccb954a4449e18bf9427bff491612417918f918591429061373b565b60405180910390a16124648a60000151836040518060400160405280600e81526020017f566f74696e6720526577617264730000000000000000000000000000000000008152508f61250d565b5050505b50505b5050505050505050565b60056020819052600091825260409091208054600182015460028301546003840154600485015495850154600686015460079096015494966001600160a01b03909416959294919392909188565b7fffffffff0000000000000000000000000000000000000000000000000000000081167f01ffc9a70000000000000000000000000000000000000000000000000000000014919050565b60008481526005602052604090819020600201805490859055905185907fab9982d99de79485b3cd6d1e72c881fd0342f42f1cbc7d220d4f373b97c4f36390610da39084908890889088904290613756565b6125698282612b6d565b6000828152600560208190526040808320600281015492810154600b5492517f04c075690000000000000000000000000000000000000000000000000000000081529194909290916001600160a01b03909116906304c07569906125d190859060040161313f565b60006040518083038186803b1580156125e957600080fd5b505afa1580156125fd573d6000803e3d6000fd5b505050506040513d6000823e601f3d908101601f191682016040526126259190810190612f2c565b6060810151608082015160408301518251939450919290919015612924576000805b845181101561281a57600a548954604051634673ffa560e11b81526000926001600160a01b031691638ce7ff4a91612685918c9187906004016137c7565b604080518083038186803b15801561269c57600080fd5b505afa1580156126b0573d6000803e3d6000fd5b505050506040513d601f19601f820116820180604052508101906126d49190613033565b60000151905060008683815181106126fc57634e487b7160e01b600052603260045260246000fd5b60200260200101519050600086848151811061272857634e487b7160e01b600052603260045260246000fd5b60200260200101519050600086858151811061275457634e487b7160e01b600052603260045260246000fd5b602002602001015190508284108061276b57508184115b156128035773__$cb76aa8097a3c0beaf107a478aa049bae7$__633002c9ac6040518163ffffffff1660e01b815260040160206040518083038186803b1580156127b457600080fd5b505af41580156127c8573d6000803e3d6000fd5b505050506040513d601f19601f820116820180604052508101906127ec9190612ea9565b6127f6908d61381f565b6128009087613807565b95505b50505050808061281290613875565b915050612647565b5080156128d35786811161282e5780612830565b865b885490915061287f90612843838a61385e565b6040518060400160405280600e81526020017f566f74696e672050656e616c74790000000000000000000000000000000000008152508c61250d565b60075461288c8282613807565b60078190556040517ff7157643fd549e213a0105625da6b3bf58c86068ccb954a4449e18bf9427bff4916128c5918d918591429061373b565b60405180910390a150612468565b6008546128e08882613807565b60088190556040517feee26d3c1e406e24904d3748e49da85096c92ac1a6ad38f3fe8a404f85212dd191612919918d918591429061373b565b60405180910390a150505b505050505050505050565b3390565b61293d8282611cc4565b61125e576000828152602081815260408083206001600160a01b03851684529091529020805460ff1916600117905561297461292f565b6001600160a01b0316816001600160a01b0316837f2f8788117e7eff1d82e926ec794901d17c78024a50270940304540a733656f0d60405160405180910390a45050565b6129c28282611cc4565b1561125e576000828152602081815260408083206001600160a01b03851684529091529020805460ff191690556129f761292f565b6001600160a01b0316816001600160a01b0316837ff6391f5c32d9c69d2a47ea670b442974b53935d1edc7fd64eb21e047a839171b60405160405180910390a45050565b60008073__$cb76aa8097a3c0beaf107a478aa049bae7$__636a47aa066040518163ffffffff1660e01b815260040160206040518083038186803b158015612a8257600080fd5b505af4158015612a96573d6000803e3d6000fd5b505050506040513d601f19601f82011682018060405250810190612aba9190612ea9565b600154612ac7904361385e565b612ad1919061381f565b9050600254811115612b65578073__$cb76aa8097a3c0beaf107a478aa049bae7$__63e388a69e6040518163ffffffff1660e01b815260040160206040518083038186803b158015612b2257600080fd5b505af4158015612b36573d6000803e3d6000fd5b505050506040513d601f19601f82011682018060405250810190612b5a9190612ea9565b901c60035560028190555b505060035490565b60008281526005602081815260408084208151610100810183528154815260018201546001600160a01b031693810193909352600281015491830191909152600381015460608301819052600482015460808401529281015460a08301819052600682015460c084015260079091015460e083015290929110612bf4578160600151612bfa565b8160a001515b90506000612c08828561385e565b60408401519091506000612c1c8383610905565b905081811015612cc857612c6b8560000151826040518060400160405280601281526020017f496e61637469766974792050656e616c747900000000000000000000000000008152508961250d565b600754612c78828461385e565b600754612c859190613807565b60078190556040517ff7157643fd549e213a0105625da6b3bf58c86068ccb954a4449e18bf9427bff491612cbe918a918591429061373b565b60405180910390a1505b50505050505050565b6040518061010001604052806000815260200160006001600160a01b031681526020016000815260200160008152602001600081526020016000815260200160008152602001600081525090565b80356001600160a01b03811681146104f157600080fd5b600082601f830112612d46578081fd5b8151602067ffffffffffffffff821115612d6257612d626138a6565b808202612d708282016137dd565b838152828101908684018388018501891015612d8a578687fd5b8693505b85841015612dac578051835260019390930192918401918401612d8e565b50979650505050505050565b805180151581146104f157600080fd5b600060208284031215612dd9578081fd5b612de282612d1f565b9392505050565b60008060008060808587031215612dfe578283fd5b612e0785612d1f565b9350612e1560208601612d1f565b9250612e2360408601612d1f565b9150612e3160608601612d1f565b905092959194509250565b600060208284031215612e4d578081fd5b815167ffffffffffffffff811115612e63578182fd5b612e6f84828501612d36565b949350505050565b600060208284031215612e88578081fd5b612de282612db8565b600060208284031215612ea2578081fd5b5035919050565b600060208284031215612eba578081fd5b5051919050565b60008060408385031215612ed3578182fd5b82359150612ee360208401612d1f565b90509250929050565b600060208284031215612efd578081fd5b81357fffffffff0000000000000000000000000000000000000000000000000000000081168114612de2578182fd5b600060208284031215612f3d578081fd5b815167ffffffffffffffff80821115612f54578283fd5b8184019150610100808387031215612f6a578384fd5b612f73816137dd565b905082518152602083015182811115612f8a578485fd5b612f9687828601612d36565b602083015250604083015182811115612fad578485fd5b612fb987828601612d36565b604083015250606083015182811115612fd0578485fd5b612fdc87828601612d36565b606083015250608083015182811115612ff3578485fd5b612fff87828601612d36565b60808301525060a083015160a082015260c083015160c082015261302560e08401612db8565b60e082015295945050505050565b600060408284031215613044578081fd5b6040516040810181811067ffffffffffffffff82111715613067576130676138a6565b604052825181526020928301519281019290925250919050565b600080600060608486031215613095578283fd5b833592506130a560208501612d1f565b9150604084013590509250925092565b600080604083850312156130c7578182fd5b50508035926020909101359150565b6000602082840312156130e7578081fd5b815160ff81168114612de2578182fd5b6001600160a01b039384168152919092166020820152604081019190915260600190565b6001600160a01b03929092168252602082015260400190565b901515815260200190565b90815260200190565b6001600160a01b0391909116815260200190565b6020808252602f908201527f416363657373436f6e74726f6c3a2073656e646572206d75737420626520616e60408201527f2061646d696e20746f206772616e740000000000000000000000000000000000606082015260800190565b6020808252601a908201527f57697468647261772065706f6368206e6f742072656163686564000000000000604082015260600190565b60208082526032908201527f416363657373436f6e74726f6c3a2073656e64657220646f65736e742068617660408201527f6520617070726f70726961746520726f6c650000000000000000000000000000606082015260800190565b60208082526019908201527f6661696c656420746f207472616e7366657220626f756e747900000000000000604082015260600190565b60208082526030908201527f416363657373436f6e74726f6c3a2073656e646572206d75737420626520616e60408201527f2061646d696e20746f207265766f6b6500000000000000000000000000000000606082015260800190565b60208082526011908201527f4e6f6e706f736974697665207374616b65000000000000000000000000000000604082015260600190565b60208082526013908201527f736368207472616e73666572206661696c656400000000000000000000000000604082015260600190565b60208082526010908201527f636f756c646e74207472616e7366657200000000000000000000000000000000604082015260600190565b6020808252600f908201527f696e636f72726563742065706f63680000000000000000000000000000000000604082015260600190565b6020808252601a908201527f4469646e742072657665616c20696e206c6173742065706f6368000000000000604082015260600190565b60208082526013908201527f7374616b657220646f65736e7420657869737400000000000000000000000000604082015260600190565b60208082526006908201527f6c6f636b65640000000000000000000000000000000000000000000000000000604082015260600190565b6020808252600d908201527f7374616b65722e6964203d203000000000000000000000000000000000000000604082015260600190565b6020808252600f908201527f496e636f72726563742073746174650000000000000000000000000000000000604082015260600190565b6020808252602a908201527f616c726561647920636f6d6d6974656420746869732065706f63682e2043616e60408201527f7420776974686472617700000000000000000000000000000000000000000000606082015260800190565b6020808252600f908201527f446964206e6f7420756e7374616b650000000000000000000000000000000000604082015260600190565b6020808252600f908201527f696e636f72726563742073746174650000000000000000000000000000000000604082015260600190565b60208082526011908201527f4e6f6e706f736974697665205374616b65000000000000000000000000000000604082015260600190565b6020808252602f908201527f416363657373436f6e74726f6c3a2063616e206f6e6c792072656e6f756e636560408201527f20726f6c657320666f722073656c660000000000000000000000000000000000606082015260800190565b60208082526031908201527f7374616b656420616d6f756e74206973206c657373207468616e206d696e696d60408201527f756d207374616b65207265717569726564000000000000000000000000000000606082015260800190565b600061010082019050825182526001600160a01b03602084015116602083015260408301516040830152606083015160608301526080830151608083015260a083015160a083015260c083015160c083015260e083015160e083015292915050565b9788526001600160a01b0396909616602088015260408701949094526060860192909252608085015260a084015260c083015260e08201526101000190565b918252602082015260400190565b93845260208401929092526040830152606082015260800190565b60008682526020868184015260a0604084015285518060a0850152825b8181101561378f5787810183015185820160c001528201613773565b818111156137a0578360c083870101525b5060608401959095525050608081019190915260c0601f909201601f191601019392505050565b9283526020830191909152604082015260600190565b60405181810167ffffffffffffffff811182821017156137ff576137ff6138a6565b604052919050565b6000821982111561381a5761381a613890565b500190565b60008261383a57634e487b7160e01b81526012600452602481fd5b500490565b600081600019048311821515161561385957613859613890565b500290565b60008282101561387057613870613890565b500390565b600060001982141561388957613889613890565b5060010190565b634e487b7160e01b600052601160045260246000fd5b634e487b7160e01b600052604160045260246000fdfea2646970667358221220ba2daf25edef54fc09c18fedf416ea5a67553ca3741ab67b8ab5fb493dd9bb7864736f6c63430008000033",
  "linkReferences": {
    "contracts/lib/Constants.sol": {
      "Constants": [
        {
          "length": 20,
          "start": 1682
        },
        {
          "length": 20,
          "start": 1812
        },
        {
          "length": 20,
          "start": 2257
        },
        {
          "length": 20,
          "start": 2598
        },
        {
          "length": 20,
          "start": 2722
        },
        {
          "length": 20,
          "start": 3114
        },
        {
          "length": 20,
          "start": 3562
        },
        {
          "length": 20,
          "start": 3929
        },
        {
          "length": 20,
          "start": 5068
        },
        {
          "length": 20,
          "start": 5284
        },
        {
          "length": 20,
          "start": 5962
        },
        {
          "length": 20,
          "start": 6253
        },
        {
          "length": 20,
          "start": 6544
        },
        {
          "length": 20,
          "start": 7006
        },
        {
          "length": 20,
          "start": 7378
        },
        {
          "length": 20,
          "start": 7674
        },
        {
          "length": 20,
          "start": 8091
        },
        {
          "length": 20,
          "start": 10365
        },
        {
          "length": 20,
          "start": 11083
        },
        {
          "length": 20,
          "start": 11243
        }
      ]
    }
  },
  "deployedLinkReferences": {
    "contracts/lib/Constants.sol": {
      "Constants": [
        {
          "length": 20,
          "start": 1415
        },
        {
          "length": 20,
          "start": 1545
        },
        {
          "length": 20,
          "start": 1990
        },
        {
          "length": 20,
          "start": 2331
        },
        {
          "length": 20,
          "start": 2455
        },
        {
          "length": 20,
          "start": 2847
        },
        {
          "length": 20,
          "start": 3295
        },
        {
          "length": 20,
          "start": 3662
        },
        {
          "length": 20,
          "start": 4801
        },
        {
          "length": 20,
          "start": 5017
        },
        {
          "length": 20,
          "start": 5695
        },
        {
          "length": 20,
          "start": 5986
        },
        {
          "length": 20,
          "start": 6277
        },
        {
          "length": 20,
          "start": 6739
        },
        {
          "length": 20,
          "start": 7111
        },
        {
          "length": 20,
          "start": 7407
        },
        {
          "length": 20,
          "start": 7824
        },
        {
          "length": 20,
          "start": 10098
        },
        {
          "length": 20,
          "start": 10816
        },
        {
          "length": 20,
          "start": 10976
        }
      ]
    }
  }
}