{
  "_format": "hh-sol-artifact-1",
  "contractName": "BlockManager",
  "sourceName": "contracts/Core/BlockManager.sol",
  "abi": [
    {
      "anonymous": false,
      "inputs": [
        {
          "indexed": false,
          "internalType": "uint256",
          "name": "epoch",
          "type": "uint256"
        },
        {
          "indexed": false,
          "internalType": "uint256",
          "name": "stakerId",
          "type": "uint256"
        },
        {
          "indexed": false,
          "internalType": "uint256[]",
          "name": "medians",
          "type": "uint256[]"
        },
        {
          "indexed": false,
          "internalType": "uint256[]",
          "name": "lowerCutoffs",
          "type": "uint256[]"
        },
        {
          "indexed": false,
          "internalType": "uint256[]",
          "name": "higherCutoffs",
          "type": "uint256[]"
        },
        {
          "indexed": false,
          "internalType": "uint256[]",
          "name": "jobIds",
          "type": "uint256[]"
        },
        {
          "indexed": false,
          "internalType": "uint256",
          "name": "timestamp",
          "type": "uint256"
        }
      ],
      "name": "BlockConfirmed",
      "type": "event"
    },
    {
      "anonymous": false,
      "inputs": [
        {
          "indexed": false,
          "internalType": "uint256",
          "name": "epoch",
          "type": "uint256"
        },
        {
          "indexed": false,
          "internalType": "uint256",
          "name": "stakerId",
          "type": "uint256"
        },
        {
          "indexed": false,
          "internalType": "uint256[]",
          "name": "jobIds",
          "type": "uint256[]"
        },
        {
          "indexed": false,
          "internalType": "uint256[]",
          "name": "medians",
          "type": "uint256[]"
        },
        {
          "indexed": false,
          "internalType": "uint256[]",
          "name": "lowerCutoffs",
          "type": "uint256[]"
        },
        {
          "indexed": false,
          "internalType": "uint256[]",
          "name": "higherCutoffs",
          "type": "uint256[]"
        },
        {
          "indexed": false,
          "internalType": "uint256",
          "name": "iteration",
          "type": "uint256"
        },
        {
          "indexed": false,
          "internalType": "uint256",
          "name": "biggestStakerId",
          "type": "uint256"
        },
        {
          "indexed": false,
          "internalType": "uint256",
          "name": "timestamp",
          "type": "uint256"
        }
      ],
      "name": "Proposed",
      "type": "event"
    },
    {
      "anonymous": false,
      "inputs": [
        {
          "indexed": true,
          "internalType": "bytes32",
          "name": "role",
          "type": "bytes32"
        },
        {
          "indexed": true,
          "internalType": "bytes32",
          "name": "previousAdminRole",
          "type": "bytes32"
        },
        {
          "indexed": true,
          "internalType": "bytes32",
          "name": "newAdminRole",
          "type": "bytes32"
        }
      ],
      "name": "RoleAdminChanged",
      "type": "event"
    },
    {
      "anonymous": false,
      "inputs": [
        {
          "indexed": true,
          "internalType": "bytes32",
          "name": "role",
          "type": "bytes32"
        },
        {
          "indexed": true,
          "internalType": "address",
          "name": "account",
          "type": "address"
        },
        {
          "indexed": true,
          "internalType": "address",
          "name": "sender",
          "type": "address"
        }
      ],
      "name": "RoleGranted",
      "type": "event"
    },
    {
      "anonymous": false,
      "inputs": [
        {
          "indexed": true,
          "internalType": "bytes32",
          "name": "role",
          "type": "bytes32"
        },
        {
          "indexed": true,
          "internalType": "address",
          "name": "account",
          "type": "address"
        },
        {
          "indexed": true,
          "internalType": "address",
          "name": "sender",
          "type": "address"
        }
      ],
      "name": "RoleRevoked",
      "type": "event"
    },
    {
      "inputs": [],
      "name": "DEFAULT_ADMIN_ROLE",
      "outputs": [
        {
          "internalType": "bytes32",
          "name": "",
          "type": "bytes32"
        }
      ],
      "stateMutability": "view",
      "type": "function"
    },
    {
      "inputs": [
        {
          "internalType": "uint256",
          "name": "",
          "type": "uint256"
        }
      ],
      "name": "blocks",
      "outputs": [
        {
          "internalType": "uint256",
          "name": "proposerId",
          "type": "uint256"
        },
        {
          "internalType": "uint256",
          "name": "iteration",
          "type": "uint256"
        },
        {
          "internalType": "uint256",
          "name": "biggestStake",
          "type": "uint256"
        },
        {
          "internalType": "bool",
          "name": "valid",
          "type": "bool"
        }
      ],
      "stateMutability": "view",
      "type": "function"
    },
    {
      "inputs": [],
      "name": "confirmBlock",
      "outputs": [],
      "stateMutability": "nonpayable",
      "type": "function"
    },
    {
      "inputs": [
        {
          "internalType": "uint256",
          "name": "",
          "type": "uint256"
        },
        {
          "internalType": "address",
          "name": "",
          "type": "address"
        }
      ],
      "name": "disputes",
      "outputs": [
        {
          "internalType": "uint256",
          "name": "accWeight",
          "type": "uint256"
        },
        {
          "internalType": "uint256",
          "name": "median",
          "type": "uint256"
        },
        {
          "internalType": "uint256",
          "name": "lowerCutoff",
          "type": "uint256"
        },
        {
          "internalType": "uint256",
          "name": "higherCutoff",
          "type": "uint256"
        },
        {
          "internalType": "uint256",
          "name": "lastVisited",
          "type": "uint256"
        },
        {
          "internalType": "uint256",
          "name": "assetId",
          "type": "uint256"
        }
      ],
      "stateMutability": "view",
      "type": "function"
    },
    {
      "inputs": [
        {
          "internalType": "uint256",
          "name": "epoch",
          "type": "uint256"
        },
        {
          "internalType": "uint256",
          "name": "blockId",
          "type": "uint256"
        }
      ],
      "name": "finalizeDispute",
      "outputs": [],
      "stateMutability": "nonpayable",
      "type": "function"
    },
    {
      "inputs": [
        {
          "internalType": "uint256",
          "name": "epoch",
          "type": "uint256"
        }
      ],
      "name": "getBlock",
      "outputs": [
        {
          "components": [
            {
              "internalType": "uint256",
              "name": "proposerId",
              "type": "uint256"
            },
            {
              "internalType": "uint256[]",
              "name": "jobIds",
              "type": "uint256[]"
            },
            {
              "internalType": "uint256[]",
              "name": "medians",
              "type": "uint256[]"
            },
            {
              "internalType": "uint256[]",
              "name": "lowerCutoffs",
              "type": "uint256[]"
            },
            {
              "internalType": "uint256[]",
              "name": "higherCutoffs",
              "type": "uint256[]"
            },
            {
              "internalType": "uint256",
              "name": "iteration",
              "type": "uint256"
            },
            {
              "internalType": "uint256",
              "name": "biggestStake",
              "type": "uint256"
            },
            {
              "internalType": "bool",
              "name": "valid",
              "type": "bool"
            }
          ],
          "internalType": "struct Structs.Block",
          "name": "_block",
          "type": "tuple"
        }
      ],
      "stateMutability": "view",
      "type": "function"
    },
    {
      "inputs": [
        {
          "internalType": "uint256",
          "name": "epoch",
          "type": "uint256"
        }
      ],
      "name": "getBlockMedians",
      "outputs": [
        {
          "internalType": "uint256[]",
          "name": "_blockMedians",
          "type": "uint256[]"
        }
      ],
      "stateMutability": "view",
      "type": "function"
    },
    {
      "inputs": [
        {
          "internalType": "uint256",
          "name": "epoch",
          "type": "uint256"
        }
      ],
      "name": "getHigherCutoffs",
      "outputs": [
        {
          "internalType": "uint256[]",
          "name": "_higherCutoffs",
          "type": "uint256[]"
        }
      ],
      "stateMutability": "view",
      "type": "function"
    },
    {
      "inputs": [
        {
          "internalType": "uint256",
          "name": "epoch",
          "type": "uint256"
        }
      ],
      "name": "getLowerCutoffs",
      "outputs": [
        {
          "internalType": "uint256[]",
          "name": "_lowerCutoffs",
          "type": "uint256[]"
        }
      ],
      "stateMutability": "view",
      "type": "function"
    },
    {
      "inputs": [
        {
          "internalType": "uint256",
          "name": "epoch",
          "type": "uint256"
        }
      ],
      "name": "getNumProposedBlocks",
      "outputs": [
        {
          "internalType": "uint256",
          "name": "",
          "type": "uint256"
        }
      ],
      "stateMutability": "view",
      "type": "function"
    },
    {
      "inputs": [
        {
          "internalType": "uint256",
          "name": "epoch",
          "type": "uint256"
        },
        {
          "internalType": "uint256",
          "name": "proposedBlock",
          "type": "uint256"
        }
      ],
      "name": "getProposedBlock",
      "outputs": [
        {
          "components": [
            {
              "internalType": "uint256",
              "name": "proposerId",
              "type": "uint256"
            },
            {
              "internalType": "uint256[]",
              "name": "jobIds",
              "type": "uint256[]"
            },
            {
              "internalType": "uint256[]",
              "name": "medians",
              "type": "uint256[]"
            },
            {
              "internalType": "uint256[]",
              "name": "lowerCutoffs",
              "type": "uint256[]"
            },
            {
              "internalType": "uint256[]",
              "name": "higherCutoffs",
              "type": "uint256[]"
            },
            {
              "internalType": "uint256",
              "name": "iteration",
              "type": "uint256"
            },
            {
              "internalType": "uint256",
              "name": "biggestStake",
              "type": "uint256"
            },
            {
              "internalType": "bool",
              "name": "valid",
              "type": "bool"
            }
          ],
          "internalType": "struct Structs.Block",
          "name": "_block",
          "type": "tuple"
        },
        {
          "internalType": "uint256[]",
          "name": "_blockMedians",
          "type": "uint256[]"
        },
        {
          "internalType": "uint256[]",
          "name": "_lowerCutoffs",
          "type": "uint256[]"
        },
        {
          "internalType": "uint256[]",
          "name": "_higherCutoffs",
          "type": "uint256[]"
        }
      ],
      "stateMutability": "view",
      "type": "function"
    },
    {
      "inputs": [
        {
          "internalType": "uint256",
          "name": "epoch",
          "type": "uint256"
        },
        {
          "internalType": "uint256",
          "name": "proposedBlock",
          "type": "uint256"
        }
      ],
      "name": "getProposedBlockMedians",
      "outputs": [
        {
          "internalType": "uint256[]",
          "name": "_blockMedians",
          "type": "uint256[]"
        }
      ],
      "stateMutability": "view",
      "type": "function"
    },
    {
      "inputs": [
        {
          "internalType": "bytes32",
          "name": "role",
          "type": "bytes32"
        }
      ],
      "name": "getRoleAdmin",
      "outputs": [
        {
          "internalType": "bytes32",
          "name": "",
          "type": "bytes32"
        }
      ],
      "stateMutability": "view",
      "type": "function"
    },
    {
      "inputs": [
        {
          "internalType": "uint256",
          "name": "epoch",
          "type": "uint256"
        },
        {
          "internalType": "uint256",
          "name": "assetId",
          "type": "uint256"
        },
        {
          "internalType": "uint256[]",
          "name": "sorted",
          "type": "uint256[]"
        }
      ],
      "name": "giveSorted",
      "outputs": [],
      "stateMutability": "nonpayable",
      "type": "function"
    },
    {
      "inputs": [
        {
          "internalType": "bytes32",
          "name": "role",
          "type": "bytes32"
        },
        {
          "internalType": "address",
          "name": "account",
          "type": "address"
        }
      ],
      "name": "grantRole",
      "outputs": [],
      "stateMutability": "nonpayable",
      "type": "function"
    },
    {
      "inputs": [
        {
          "internalType": "bytes32",
          "name": "role",
          "type": "bytes32"
        },
        {
          "internalType": "address",
          "name": "account",
          "type": "address"
        }
      ],
      "name": "hasRole",
      "outputs": [
        {
          "internalType": "bool",
          "name": "",
          "type": "bool"
        }
      ],
      "stateMutability": "view",
      "type": "function"
    },
    {
      "inputs": [
        {
          "internalType": "address",
          "name": "stakeManagerAddress",
          "type": "address"
        },
        {
          "internalType": "address",
          "name": "stateManagerAddress",
          "type": "address"
        },
        {
          "internalType": "address",
          "name": "voteManagerAddress",
          "type": "address"
        },
        {
          "internalType": "address",
          "name": "jobManagerAddress",
          "type": "address"
        }
      ],
      "name": "initialize",
      "outputs": [],
      "stateMutability": "nonpayable",
      "type": "function"
    },
    {
      "inputs": [
        {
          "internalType": "uint256",
          "name": "iteration",
          "type": "uint256"
        },
        {
          "internalType": "uint256",
          "name": "biggestStakerId",
          "type": "uint256"
        },
        {
          "internalType": "uint256",
          "name": "stakerId",
          "type": "uint256"
        }
      ],
      "name": "isElectedProposer",
      "outputs": [
        {
          "internalType": "bool",
          "name": "",
          "type": "bool"
        }
      ],
      "stateMutability": "view",
      "type": "function"
    },
    {
      "inputs": [],
      "name": "jobManager",
      "outputs": [
        {
          "internalType": "contract IJobManager",
          "name": "",
          "type": "address"
        }
      ],
      "stateMutability": "view",
      "type": "function"
    },
    {
      "inputs": [
        {
          "internalType": "uint256",
          "name": "epoch",
          "type": "uint256"
        },
        {
          "internalType": "uint256[]",
          "name": "jobIds",
          "type": "uint256[]"
        },
        {
          "internalType": "uint256[]",
          "name": "medians",
          "type": "uint256[]"
        },
        {
          "internalType": "uint256[]",
          "name": "lowerCutoffs",
          "type": "uint256[]"
        },
        {
          "internalType": "uint256[]",
          "name": "higherCutoffs",
          "type": "uint256[]"
        },
        {
          "internalType": "uint256",
          "name": "iteration",
          "type": "uint256"
        },
        {
          "internalType": "uint256",
          "name": "biggestStakerId",
          "type": "uint256"
        }
      ],
      "name": "propose",
      "outputs": [],
      "stateMutability": "nonpayable",
      "type": "function"
    },
    {
      "inputs": [
        {
          "internalType": "uint256",
          "name": "",
          "type": "uint256"
        },
        {
          "internalType": "uint256",
          "name": "",
          "type": "uint256"
        }
      ],
      "name": "proposedBlocks",
      "outputs": [
        {
          "internalType": "uint256",
          "name": "proposerId",
          "type": "uint256"
        },
        {
          "internalType": "uint256",
          "name": "iteration",
          "type": "uint256"
        },
        {
          "internalType": "uint256",
          "name": "biggestStake",
          "type": "uint256"
        },
        {
          "internalType": "bool",
          "name": "valid",
          "type": "bool"
        }
      ],
      "stateMutability": "view",
      "type": "function"
    },
    {
      "inputs": [
        {
          "internalType": "bytes32",
          "name": "role",
          "type": "bytes32"
        },
        {
          "internalType": "address",
          "name": "account",
          "type": "address"
        }
      ],
      "name": "renounceRole",
      "outputs": [],
      "stateMutability": "nonpayable",
      "type": "function"
    },
    {
      "inputs": [
        {
          "internalType": "uint256",
          "name": "epoch",
          "type": "uint256"
        }
      ],
      "name": "resetDispute",
      "outputs": [],
      "stateMutability": "nonpayable",
      "type": "function"
    },
    {
      "inputs": [
        {
          "internalType": "bytes32",
          "name": "role",
          "type": "bytes32"
        },
        {
          "internalType": "address",
          "name": "account",
          "type": "address"
        }
      ],
      "name": "revokeRole",
      "outputs": [],
      "stateMutability": "nonpayable",
      "type": "function"
    },
    {
      "inputs": [],
      "name": "stakeManager",
      "outputs": [
        {
          "internalType": "contract IStakeManager",
          "name": "",
          "type": "address"
        }
      ],
      "stateMutability": "view",
      "type": "function"
    },
    {
      "inputs": [],
      "name": "stateManager",
      "outputs": [
        {
          "internalType": "contract IStateManager",
          "name": "",
          "type": "address"
        }
      ],
      "stateMutability": "view",
      "type": "function"
    },
    {
      "inputs": [
        {
          "internalType": "bytes4",
          "name": "interfaceId",
          "type": "bytes4"
        }
      ],
      "name": "supportsInterface",
      "outputs": [
        {
          "internalType": "bool",
          "name": "",
          "type": "bool"
        }
      ],
      "stateMutability": "view",
      "type": "function"
    },
    {
      "inputs": [],
      "name": "voteManager",
      "outputs": [
        {
          "internalType": "contract IVoteManager",
          "name": "",
          "type": "address"
        }
      ],
      "stateMutability": "view",
      "type": "function"
    }
  ],
  "bytecode": "0x60806040523480156200001157600080fd5b506200001f60003362000025565b620000f1565b62000031828262000035565b5050565b620000418282620000c2565b620000315760008281526001602081815260408084206001600160a01b0386168552909152909120805460ff191690911790556200007e620000ed565b6001600160a01b0316816001600160a01b0316837f2f8788117e7eff1d82e926ec794901d17c78024a50270940304540a733656f0d60405160405180910390a45050565b60009182526001602090815260408084206001600160a01b0393909316845291905290205460ff1690565b3390565b61406180620001016000396000f3fe608060405234801561001057600080fd5b50600436106101c45760003560e01c80637542ff95116100f9578063d1a4a43d11610097578063e38c7c4211610071578063e38c7c42146103cd578063f25b3f99146103e0578063f8c8765e146103f3578063fae4425d14610406576101c4565b8063d1a4a43d14610394578063d2a4669a146103a7578063d547741f146103ba576101c4565b806392b48411116100d357806392b484111461033e5780639b87f64414610361578063a217fddf14610369578063a27ce1ef14610371576101c4565b80637542ff95146102fe578063828496d61461030657806391d148541461032b576101c4565b806336568abe116101665780633df395a3116101405780633df395a3146102c857806342c1e587146102d05780634e6753b7146102d85780635ce8772f146102eb576101c4565b806336568abe14610282578063378ab9a9146102955780633cd32fd4146102b5576101c4565b80631d69ff9b116101a25780631d69ff9b14610227578063248a9ca31461023a5780632e716fb11461025a5780632f2ff15d1461026f576101c4565b806301ffc9a7146101c957806304c07569146101f257806317d99c0414610212575b600080fd5b6101dc6101d7366004613519565b610419565b6040516101e991906138a7565b60405180910390f35b6102056102003660046134ba565b610477565b6040516101e99190613d2c565b6102256102203660046135ef565b610627565b005b6101dc610235366004613723565b610b11565b61024d6102483660046134ba565b610e99565b6040516101e991906138b2565b610262610eaf565b6040516101e99190613880565b61022561027d3660046134ea565b610ebe565b6102256102903660046134ea565b610efc565b6102a86102a33660046134ba565b610f3e565b6040516101e99190613894565b6102256102c33660046136b4565b610fa3565b61026261153a565b610262611549565b6102256102e63660046136d5565b611558565b6102256102f93660046134ba565b611c7b565b610262611eca565b6103196103143660046134ea565b611ed9565b6040516101e996959493929190613ee4565b6101dc6103393660046134ea565b611f18565b61035161034c3660046136b4565b611f43565b6040516101e99493929190613ec7565b610225611f8c565b61024d61269c565b61038461037f3660046136b4565b6126a1565b6040516101e99493929190613d3f565b6102a86103a23660046136b4565b6128a9565b6102a86103b53660046134ba565b612943565b6102256103c83660046134ea565b6129a6565b61024d6103db3660046134ba565b6129ce565b6103516103ee3660046134ba565b6129e0565b61022561040136600461345f565b612a0a565b6102a86104143660046134ba565b612b0e565b60007fffffffff0000000000000000000000000000000000000000000000000000000082167f7965db0b00000000000000000000000000000000000000000000000000000000148061046f575061046f82612b71565b90505b919050565b61047f6132bb565b60008281526004602090815260409182902082516101008101845281548152600182018054855181860281018601909652808652919492938581019392908301828280156104ec57602002820191906000526020600020905b8154815260200190600101908083116104d8575b505050505081526020016002820180548060200260200160405190810160405280929190818152602001828054801561054457602002820191906000526020600020905b815481526020019060010190808311610530575b505050505081526020016003820180548060200260200160405190810160405280929190818152602001828054801561059c57602002820191906000526020600020905b815481526020019060010190808311610588575b50505050508152602001600482018054806020026020016040519081016040528092919081815260200182805480156105f457602002820191906000526020600020905b8154815260200190600101908083116105e0575b5050509183525050600582015460208201526006820154604082015260079091015460ff16151560609091015292915050565b60005460ff166106525760405162461bcd60e51b815260040161064990613a94565b60405180910390fd5b60065460408051630eaf323560e31b8152905189926001600160a01b03169163757991a8916004808301926020929190829003018186803b15801561069657600080fd5b505afa1580156106aa573d6000803e3d6000fd5b505050506040513d601f19601f820116820180604052508101906106ce91906134d2565b81146106ec5760405162461bcd60e51b815260040161064990613acb565b73__$cb76aa8097a3c0beaf107a478aa049bae7$__63c198f8ba6040518163ffffffff1660e01b815260040160206040518083038186803b15801561073057600080fd5b505af4158015610744573d6000803e3d6000fd5b505050506040513d601f19601f82011682018060405250810190610768919061374e565b60ff16600660009054906101000a90046001600160a01b03166001600160a01b0316631865c57d6040518163ffffffff1660e01b815260040160206040518083038186803b1580156107b957600080fd5b505afa1580156107cd573d6000803e3d6000fd5b505050506040513d601f19601f820116820180604052508101906107f191906134d2565b811461080f5760405162461bcd60e51b815260040161064990613c98565b6005546040517f6022a4850000000000000000000000000000000000000000000000000000000081526000916001600160a01b031690636022a48590610859903390600401613880565b60206040518083038186803b15801561087157600080fd5b505afa158015610885573d6000803e3d6000fd5b505050506040513d601f19601f820116820180604052508101906108a991906134d2565b90506108b6858583610b11565b6108d25760405162461bcd60e51b8152600401610649906139a3565b73__$cb76aa8097a3c0beaf107a478aa049bae7$__63375b3c0a6040518163ffffffff1660e01b815260040160206040518083038186803b15801561091657600080fd5b505af415801561092a573d6000803e3d6000fd5b505050506040513d601f19601f8201168201806040525081019061094e91906134d2565b6005546040516371e4cc7f60e11b81526001600160a01b039091169063e3c998fe9061097e9085906004016138b2565b6101006040518083038186803b15801561099757600080fd5b505afa1580156109ab573d6000803e3d6000fd5b505050506040513d601f19601f820116820180604052508101906109cf9190613559565b6040015110156109f15760405162461bcd60e51b815260040161064990613c04565b6040805161010081018252828152602081018b90528082018a9052606081018990526080810188905260a0810187905260055491516371e4cc7f60e11b8152610abe928d929160c08301916001600160a01b03169063e3c998fe90610a5a908b906004016138b2565b6101006040518083038186803b158015610a7357600080fd5b505afa158015610a87573d6000803e3d6000fd5b505050506040513d601f19601f82011682018060405250810190610aab9190613559565b6040015181526001602090910152612bbb565b7fee036cc96c88163f353feaa4d497e88baaebeb631f40ad9b8a6d51bb6fad40768a828b8b8b8b8b8b42604051610afd99989796959493929190613dc4565b60405180910390a150505050505050505050565b6000805460ff16610b345760405162461bcd60e51b815260040161064990613a94565b8173__$3b76b38140ea5d8f6a5a565441556589de$__635075dbfb600a600560009054906101000a90046001600160a01b03166001600160a01b031663bc788d466040518163ffffffff1660e01b815260040160206040518083038186803b158015610b9f57600080fd5b505afa158015610bb3573d6000803e3d6000fd5b505050506040513d601f19601f82011682018060405250810190610bd791906134d2565b88604051602001610be891906138b2565b604051602081830303815290604052805190602001206040518463ffffffff1660e01b8152600401610c1c939291906138ce565b60206040518083038186803b158015610c3457600080fd5b505af4158015610c48573d6000803e3d6000fd5b505050506040513d601f19601f82011682018060405250810190610c6c91906134d2565b610c77906001613f0c565b14610c8457506000610e92565b600073__$3b76b38140ea5d8f6a5a565441556589de$__63b07ceab8600a8588604051602001610cb5929190613db6565b604051602081830303815290604052805190602001206040518363ffffffff1660e01b8152600401610ce89291906138bb565b60206040518083038186803b158015610d0057600080fd5b505af4158015610d14573d6000803e3d6000fd5b505050506040513d601f19601f82011682018060405250810190610d3891906134d2565b90506000610d4b64010000000083613fc0565b6005546040516371e4cc7f60e11b81529192506000916001600160a01b039091169063e3c998fe90610d819089906004016138b2565b6101006040518083038186803b158015610d9a57600080fd5b505afa158015610dae573d6000803e3d6000fd5b505050506040513d601f19601f82011682018060405250810190610dd29190613559565b60409081015160055491516371e4cc7f60e11b81529092506001600160a01b039091169063e3c998fe90610e0a9088906004016138b2565b6101006040518083038186803b158015610e2357600080fd5b505afa158015610e37573d6000803e3d6000fd5b505050506040513d601f19601f82011682018060405250810190610e5b9190613559565b60400151610e6e90640100000000613f38565b610e788284613f38565b1115610e8a5760009350505050610e92565b600193505050505b9392505050565b6000908152600160208190526040909120015490565b6006546001600160a01b031681565b610ed2610eca83610e99565b6103396131aa565b610eee5760405162461bcd60e51b8152600401610649906138e9565b610ef882826131ae565b5050565b610f046131aa565b6001600160a01b0316816001600160a01b031614610f345760405162461bcd60e51b815260040161064990613ccf565b610ef88282613236565b600081815260046020908152604091829020600201805483518184028101840190945280845260609392830182828015610f9757602002820191906000526020600020905b815481526020019060010190808311610f83575b50505050509050919050565b60005460ff16610fc55760405162461bcd60e51b815260040161064990613a94565b60065460408051630eaf323560e31b8152905184926001600160a01b03169163757991a8916004808301926020929190829003018186803b15801561100957600080fd5b505afa15801561101d573d6000803e3d6000fd5b505050506040513d601f19601f8201168201806040525081019061104191906134d2565b811461105f5760405162461bcd60e51b815260040161064990613acb565b73__$cb76aa8097a3c0beaf107a478aa049bae7$__63f240f7c36040518163ffffffff1660e01b815260040160206040518083038186803b1580156110a357600080fd5b505af41580156110b7573d6000803e3d6000fd5b505050506040513d601f19601f820116820180604052508101906110db919061374e565b60ff16600660009054906101000a90046001600160a01b03166001600160a01b0316631865c57d6040518163ffffffff1660e01b815260040160206040518083038186803b15801561112c57600080fd5b505afa158015611140573d6000803e3d6000fd5b505050506040513d601f19601f8201168201806040525081019061116491906134d2565b81146111825760405162461bcd60e51b815260040161064990613c98565b60008481526002602090815260408083203384529091529081902060050154600754915163a6a145d960e01b815290916001600160a01b03169063a6a145d9906111d29088908590600401613db6565b60206040518083038186803b1580156111ea57600080fd5b505afa1580156111fe573d6000803e3d6000fd5b505050506040513d601f19601f8201168201806040525081019061122291906134d2565b6000868152600260209081526040808320338452909152902054146112595760405162461bcd60e51b815260040161064990613c3b565b600085815260026020818152604080842033855282528084206001810154938101546003918201548b875291909352908420805493949293919291899081106112b257634e487b7160e01b600052603260045260246000fd5b9060005260206000209060080201600001549050600084116112e65760405162461bcd60e51b815260040161064990613b39565b600089815260036020526040902080548591908a90811061131757634e487b7160e01b600052603260045260246000fd5b9060005260206000209060080201600201868154811061134757634e487b7160e01b600052603260045260246000fd5b90600052602060002001541415806113c95750600089815260036020526040902080548491908a90811061138b57634e487b7160e01b600052603260045260246000fd5b906000526020600020906008020160030186815481106113bb57634e487b7160e01b600052603260045260246000fd5b906000526020600020015414155b8061143e5750600089815260036020526040902080548391908a90811061140057634e487b7160e01b600052603260045260246000fd5b9060005260206000209060080201600401868154811061143057634e487b7160e01b600052603260045260246000fd5b906000526020600020015414155b1561151757600089815260036020526040812080548a90811061147157634e487b7160e01b600052603260045260246000fd5b60009182526020909120600890910201600701805460ff19169115159190911790556005546040517f0f91ce190000000000000000000000000000000000000000000000000000000081526001600160a01b0390911690630f91ce19906114e090849033908e90600401613d97565b600060405180830381600087803b1580156114fa57600080fd5b505af115801561150e573d6000803e3d6000fd5b5050505061152f565b60405162461bcd60e51b815260040161064990613ba7565b505050505050505050565b6008546001600160a01b031681565b6007546001600160a01b031681565b60005460ff1661157a5760405162461bcd60e51b815260040161064990613a94565b60065460408051630eaf323560e31b8152905185926001600160a01b03169163757991a8916004808301926020929190829003018186803b1580156115be57600080fd5b505afa1580156115d2573d6000803e3d6000fd5b505050506040513d601f19601f820116820180604052508101906115f691906134d2565b81146116145760405162461bcd60e51b815260040161064990613acb565b73__$cb76aa8097a3c0beaf107a478aa049bae7$__63f240f7c36040518163ffffffff1660e01b815260040160206040518083038186803b15801561165857600080fd5b505af415801561166c573d6000803e3d6000fd5b505050506040513d601f19601f82011682018060405250810190611690919061374e565b60ff16600660009054906101000a90046001600160a01b03166001600160a01b0316631865c57d6040518163ffffffff1660e01b815260040160206040518083038186803b1580156116e157600080fd5b505afa1580156116f5573d6000803e3d6000fd5b505050506040513d601f19601f8201168201806040525081019061171991906134d2565b81146117375760405162461bcd60e51b815260040161064990613c98565b60075460405163a6a145d960e01b81526000916002916001600160a01b039091169063a6a145d99061176f908a908a90600401613db6565b60206040518083038186803b15801561178757600080fd5b505afa15801561179b573d6000803e3d6000fd5b505050506040513d601f19601f820116820180604052508101906117bf91906134d2565b6117c99190613f24565b60075460405163a6a145d960e01b81529192506000916004916001600160a01b03169063a6a145d990611801908b908b908601613db6565b60206040518083038186803b15801561181957600080fd5b505afa15801561182d573d6000803e3d6000fd5b505050506040513d601f19601f8201168201806040525081019061185191906134d2565b61185b9190613f24565b60075460405163a6a145d960e01b81529192506000916004916001600160a01b03169063a6a145d990611893908c908c908601613db6565b60206040518083038186803b1580156118ab57600080fd5b505afa1580156118bf573d6000803e3d6000fd5b505050506040513d601f19601f820116820180604052508101906118e391906134d2565b6118ee906003613f38565b6118f89190613f24565b60008981526002602090815260408083203384529091529020805460049091015491925090816119465760008a81526002602090815260408083203384529091529020600501899055611981565b60008a815260026020908152604080832033845290915290206005015489146119815760405162461bcd60e51b815260040161064990613b70565b60005b8851811015611c4c57818982815181106119ae57634e487b7160e01b600052603260045260246000fd5b6020026020010151116119d35760405162461bcd60e51b815260040161064990613946565b8881815181106119f357634e487b7160e01b600052603260045260246000fd5b60200260200101519150600760009054906101000a90046001600160a01b03166001600160a01b0316639c66556f8c8c8c8581518110611a4357634e487b7160e01b600052603260045260246000fd5b60200260200101516040518463ffffffff1660e01b8152600401611a6993929190613eb1565b60206040518083038186803b158015611a8157600080fd5b505afa158015611a95573d6000803e3d6000fd5b505050506040513d601f19601f82011682018060405250810190611ab991906134d2565b611ac39084613f0c565b60008c81526002602081815260408084203385529091529091200154909350158015611aef5750848310155b15611b3d57888181518110611b1457634e487b7160e01b600052603260045260246000fd5b60209081029190910181015160008d815260028084526040808320338452909452929020909101555b60008b8152600260209081526040808320338452909152902060010154158015611b6657508583115b15611bb457888181518110611b8b57634e487b7160e01b600052603260045260246000fd5b60209081029190910181015160008d815260028352604080822033835290935291909120600101555b60008b8152600260209081526040808320338452909152902060030154158015611bdd57508383115b15611c2b57888181518110611c0257634e487b7160e01b600052603260045260246000fd5b60209081029190910181015160008d815260028352604080822033835290935291909120600301555b6127105a1015611c3a57611c4c565b80611c4481613f85565b915050611984565b506000998a52600260209081526040808c20338d52909152909920600481019990995590975550505050505050565b60005460ff16611c9d5760405162461bcd60e51b815260040161064990613a94565b60065460408051630eaf323560e31b8152905183926001600160a01b03169163757991a8916004808301926020929190829003018186803b158015611ce157600080fd5b505afa158015611cf5573d6000803e3d6000fd5b505050506040513d601f19601f82011682018060405250810190611d1991906134d2565b8114611d375760405162461bcd60e51b815260040161064990613acb565b73__$cb76aa8097a3c0beaf107a478aa049bae7$__63f240f7c36040518163ffffffff1660e01b815260040160206040518083038186803b158015611d7b57600080fd5b505af4158015611d8f573d6000803e3d6000fd5b505050506040513d601f19601f82011682018060405250810190611db3919061374e565b60ff16600660009054906101000a90046001600160a01b03166001600160a01b0316631865c57d6040518163ffffffff1660e01b815260040160206040518083038186803b158015611e0457600080fd5b505afa158015611e18573d6000803e3d6000fd5b505050506040513d601f19601f82011682018060405250810190611e3c91906134d2565b8114611e5a5760405162461bcd60e51b815260040161064990613c98565b50506040805160c08101825260008082526020808301828152838501838152606085018481526080860185815260a0870186815298865260028086528887203388529095529690942094518555905160018501555190830155516003820155905160048201559051600590910155565b6005546001600160a01b031681565b60026020818152600093845260408085209091529183529120805460018201549282015460038301546004840154600590940154929493919290919086565b60009182526001602090815260408084206001600160a01b0393909316845291905290205460ff1690565b60036020528160005260406000208181548110611f5f57600080fd5b60009182526020909120600890910201805460058201546006830154600790930154919450925060ff1684565b60005460ff16611fae5760405162461bcd60e51b815260040161064990613a94565b73__$cb76aa8097a3c0beaf107a478aa049bae7$__63d98b3ced6040518163ffffffff1660e01b815260040160206040518083038186803b158015611ff257600080fd5b505af4158015612006573d6000803e3d6000fd5b505050506040513d601f19601f8201168201806040525081019061202a91906134d2565b6120348133611f18565b6120505760405162461bcd60e51b815260040161064990613b02565b60065460408051630eaf323560e31b815290516000926001600160a01b03169163757991a8916004808301926020929190829003018186803b15801561209557600080fd5b505afa1580156120a9573d6000803e3d6000fd5b505050506040513d601f19601f820116820180604052508101906120cd91906134d2565b905060005b600360006120e1600185613f57565b815260208101919091526040016000205460ff82161015612696576003600061210b600185613f57565b81526020019081526020016000208160ff168154811061213b57634e487b7160e01b600052603260045260246000fd5b600091825260209091206007600890920201015460ff16156126845760036000612166600185613f57565b81526020019081526020016000208160ff168154811061219657634e487b7160e01b600052603260045260246000fd5b9060005260206000209060080201600460006001856121b59190613f57565b8152602081019190915260400160002081548155600180830180546121dd9284019190613302565b50600282810180546121f29284019190613302565b50600382810180546122079284019190613302565b506004828101805461221c9284019190613302565b5060058281015490820155600680830154908201556007918201549101805460ff191660ff9092161515919091179055600060038161225c600186613f57565b81526020019081526020016000208260ff168154811061228c57634e487b7160e01b600052603260045260246000fd5b600091825260209091206008909102015490507f5ef264ae9101b91bd7117350c5e85901297fa0569e7a3e07eb7ec0a6281529f06122cb600185613f57565b82600360006122db600189613f57565b81526020019081526020016000208560ff168154811061230b57634e487b7160e01b600052603260045260246000fd5b90600052602060002090600802016002016003600060018961232d9190613f57565b81526020019081526020016000208660ff168154811061235d57634e487b7160e01b600052603260045260246000fd5b90600052602060002090600802016003016003600060018a61237f9190613f57565b81526020019081526020016000208760ff16815481106123af57634e487b7160e01b600052603260045260246000fd5b90600052602060002090600802016004016003600060018b6123d19190613f57565b81526020019081526020016000208860ff168154811061240157634e487b7160e01b600052603260045260246000fd5b9060005260206000209060080201600101426040516124269796959493929190613e43565b60405180910390a160005b60036000612440600187613f57565b81526020019081526020016000208360ff168154811061247057634e487b7160e01b600052603260045260246000fd5b9060005260206000209060080201600101805490508160ff1610156125fe576008546001600160a01b03166356350bdf600360006124af600189613f57565b81526020019081526020016000208560ff16815481106124df57634e487b7160e01b600052603260045260246000fd5b90600052602060002090600802016001018360ff168154811061251257634e487b7160e01b600052603260045260246000fd5b90600052602060002001546003600060018961252e9190613f57565b81526020019081526020016000208660ff168154811061255e57634e487b7160e01b600052603260045260246000fd5b90600052602060002090600802016002018460ff168154811061259157634e487b7160e01b600052603260045260246000fd5b90600052602060002001546040518363ffffffff1660e01b81526004016125b9929190613db6565b600060405180830381600087803b1580156125d357600080fd5b505af11580156125e7573d6000803e3d6000fd5b5050505080806125f690613fa0565b915050612431565b506005546040517f746c8b650000000000000000000000000000000000000000000000000000000081526001600160a01b039091169063746c8b659061264a9084908790600401613db6565b600060405180830381600087803b15801561266457600080fd5b505af1158015612678573d6000803e3d6000fd5b50505050505050612699565b8061268e81613fa0565b9150506120d2565b50505b50565b600081565b6126a96132bb565b60608060606003600087815260200190815260200160002085815481106126e057634e487b7160e01b600052603260045260246000fd5b906000526020600020906008020160405180610100016040529081600082015481526020016001820180548060200260200160405190810160405280929190818152602001828054801561275357602002820191906000526020600020905b81548152602001906001019080831161273f575b50505050508152602001600282018054806020026020016040519081016040528092919081815260200182805480156127ab57602002820191906000526020600020905b815481526020019060010190808311612797575b505050505081526020016003820180548060200260200160405190810160405280929190818152602001828054801561280357602002820191906000526020600020905b8154815260200190600101908083116127ef575b505050505081526020016004820180548060200260200160405190810160405280929190818152602001828054801561285b57602002820191906000526020600020905b815481526020019060010190808311612847575b505050918352505060058201546020820152600682015460408083019190915260079092015460ff161515606091820152908201519082015160808301519299919850965090945092505050565b6000828152600360205260409020805460609190839081106128db57634e487b7160e01b600052603260045260246000fd5b906000526020600020906008020160020180548060200260200160405190810160405280929190818152602001828054801561293657602002820191906000526020600020905b815481526020019060010190808311612922575b5050505050905092915050565b600081815260046020908152604091829020600301805483518184028101840190945280845260609392830182828015610f975760200282019190600052602060002090815481526020019060010190808311610f835750505050509050919050565b6129b2610eca83610e99565b610f345760405162461bcd60e51b8152600401610649906139da565b60009081526003602052604090205490565b60046020526000908152604090208054600582015460068301546007909301549192909160ff1684565b600054610100900460ff1680612a23575060005460ff16155b612a3f5760405162461bcd60e51b815260040161064990613a37565b600054610100900460ff16158015612a6a576000805460ff1961ff0019909116610100171660011790555b6000612a768133611f18565b612a925760405162461bcd60e51b815260040161064990613b02565b50600580546001600160a01b038088167fffffffffffffffffffffffff000000000000000000000000000000000000000092831617909255600680548784169083161790556007805486841690831617905560088054928516929091169190911790558015612b07576000805461ff00191690555b5050505050565b600081815260046020818152604092839020909101805483518184028101840190945280845260609392830182828015610f975760200282019190600052602060002090815481526020019060010190808311610f835750505050509050919050565b7fffffffff0000000000000000000000000000000000000000000000000000000081167f01ffc9a70000000000000000000000000000000000000000000000000000000014919050565b600082815260036020526040902054612c985760008281526003602090815260408220805460018181018355918452928290208451600890940201928355838201518051859493612c10938501920190613352565b5060408201518051612c2c916002840191602090910190613352565b5060608201518051612c48916003840191602090910190613352565b5060808201518051612c64916004840191602090910190613352565b5060a0820151600582015560c0820151600682015560e0909101516007909101805460ff1916911515919091179055610ef8565b600082815260036020526040812054905b600084815260036020526040902054811015612d775760c08301516000858152600360205260409020805483908110612cf257634e487b7160e01b600052603260045260246000fd5b9060005260206000209060080201600601541015612d1257809150612d77565b60a08301516000858152600360205260409020805483908110612d4557634e487b7160e01b600052603260045260246000fd5b9060005260206000209060080201600501541115612d6557809150612d77565b80612d6f81613f85565b915050612ca9565b5060008381526003602090815260408220805460018181018355918452928290208551600890940201928355848201518051869493612dba938501920190613352565b5060408201518051612dd6916002840191602090910190613352565b5060608201518051612df2916003840191602090910190613352565b5060808201518051612e0e916004840191602090910190613352565b5060a0820151600582015560c0820151600682015560e0909101516007909101805460ff1916911515919091179055600083815260036020526040812054612e5890600190613f57565b90505b81811115612f84576000848152600360205260409020612e7c600183613f57565b81548110612e9a57634e487b7160e01b600052603260045260246000fd5b9060005260206000209060080201600360008681526020019081526020016000208281548110612eda57634e487b7160e01b600052603260045260246000fd5b60009182526020909120825460089092020190815560018083018054612f039284019190613302565b5060028281018054612f189284019190613302565b5060038281018054612f2d9284019190613302565b5060048281018054612f429284019190613302565b5060058281015490820155600680830154908201556007918201549101805460ff191660ff909216151591909117905580612f7c81613f6e565b915050612e5b565b506000838152600360205260409020805483919083908110612fb657634e487b7160e01b600052603260045260246000fd5b9060005260206000209060080201600082015181600001556020820151816001019080519060200190612fea929190613352565b5060408201518051613006916002840191602090910190613352565b5060608201518051613022916003840191602090910190613352565b506080820151805161303e916004840191602090910190613352565b5060a0820151816005015560c0820151816006015560e08201518160070160006101000a81548160ff02191690831515021790555090505073__$cb76aa8097a3c0beaf107a478aa049bae7$__63379597e06040518163ffffffff1660e01b815260040160206040518083038186803b1580156130ba57600080fd5b505af41580156130ce573d6000803e3d6000fd5b505050506040513d601f19601f820116820180604052508101906130f291906134d2565b6000848152600360205260409020541115612696576000838152600360205260409020805461312390600190613f57565b8154811061314157634e487b7160e01b600052603260045260246000fd5b60009182526020822060089091020181815590613161600183018261338d565b61316f60028301600061338d565b61317d60038301600061338d565b61318b60048301600061338d565b506000600582018190556006820155600701805460ff19169055505050565b3390565b6131b88282611f18565b610ef85760008281526001602081815260408084206001600160a01b0386168552909152909120805460ff191690911790556131f26131aa565b6001600160a01b0316816001600160a01b0316837f2f8788117e7eff1d82e926ec794901d17c78024a50270940304540a733656f0d60405160405180910390a45050565b6132408282611f18565b15610ef85760008281526001602090815260408083206001600160a01b03851684529091529020805460ff191690556132776131aa565b6001600160a01b0316816001600160a01b0316837ff6391f5c32d9c69d2a47ea670b442974b53935d1edc7fd64eb21e047a839171b60405160405180910390a45050565b604051806101000160405280600081526020016060815260200160608152602001606081526020016060815260200160008152602001600081526020016000151581525090565b8280548282559060005260206000209081019282156133425760005260206000209182015b82811115613342578254825591600101919060010190613327565b5061334e9291506133a7565b5090565b828054828255906000526020600020908101928215613342579160200282015b82811115613342578251825591602001919060010190613372565b508054600082559060005260206000209081019061269991905b5b8082111561334e57600081556001016133a8565b805161047281614016565b600082601f8301126133d7578081fd5b8135602067ffffffffffffffff808311156133f4576133f4614000565b8183026040518382820101818110848211171561341357613413614000565b60405284815283810192508684018288018501891015613431578687fd5b8692505b85831015613453578035845292840192600192909201918401613435565b50979650505050505050565b60008060008060808587031215613474578384fd5b843561347f81614016565b9350602085013561348f81614016565b9250604085013561349f81614016565b915060608501356134af81614016565b939692955090935050565b6000602082840312156134cb578081fd5b5035919050565b6000602082840312156134e3578081fd5b5051919050565b600080604083850312156134fc578182fd5b82359150602083013561350e81614016565b809150509250929050565b60006020828403121561352a578081fd5b81357fffffffff0000000000000000000000000000000000000000000000000000000081168114610e92578182fd5b600061010080838503121561356c578182fd5b6040519081019067ffffffffffffffff8211818310171561358f5761358f614000565b81604052835181526135a3602085016133bc565b602082015260408401516040820152606084015160608201526080840151608082015260a084015160a082015260c084015160c082015260e084015160e0820152809250505092915050565b600080600080600080600060e0888a031215613609578283fd5b87359650602088013567ffffffffffffffff80821115613627578485fd5b6136338b838c016133c7565b975060408a0135915080821115613648578485fd5b6136548b838c016133c7565b965060608a0135915080821115613669578485fd5b6136758b838c016133c7565b955060808a013591508082111561368a578485fd5b506136978a828b016133c7565b93505060a0880135915060c0880135905092959891949750929550565b600080604083850312156136c6578182fd5b50508035926020909101359150565b6000806000606084860312156136e9578081fd5b8335925060208401359150604084013567ffffffffffffffff81111561370d578182fd5b613719868287016133c7565b9150509250925092565b600080600060608486031215613737578081fd5b505081359360208301359350604090920135919050565b60006020828403121561375f578081fd5b815160ff81168114610e92578182fd5b6000815180845260208085019450808401835b8381101561379e57815187529582019590820190600101613782565b509495945050505050565b6000815480845260208085019450838352808320835b8381101561379e578154875295820195600191820191016137bf565b15159052565b60006101008251845260208301518160208601526138018286018261376f565b9150506040830151848203604086015261381b828261376f565b91505060608301518482036060860152613835828261376f565b9150506080830151848203608086015261384f828261376f565b91505060a083015160a085015260c083015160c085015260e083015161387860e08601826137db565b509392505050565b6001600160a01b0391909116815260200190565b600060208252610e92602083018461376f565b901515815260200190565b90815260200190565b60ff929092168252602082015260400190565b60ff9390931683526020830191909152604082015260600190565b6020808252602f908201527f416363657373436f6e74726f6c3a2073656e646572206d75737420626520616e60408201527f2061646d696e20746f206772616e740000000000000000000000000000000000606082015260800190565b60208082526029908201527f736f727465645b695d206973206e6f742067726561746572207468616e206c6160408201527f7374566973697465640000000000000000000000000000000000000000000000606082015260800190565b6020808252600b908201527f6e6f7420656c6563746564000000000000000000000000000000000000000000604082015260600190565b60208082526030908201527f416363657373436f6e74726f6c3a2073656e646572206d75737420626520616e60408201527f2061646d696e20746f207265766f6b6500000000000000000000000000000000606082015260800190565b6020808252602e908201527f496e697469616c697a61626c653a20636f6e747261637420697320616c72656160408201527f647920696e697469616c697a6564000000000000000000000000000000000000606082015260800190565b6020808252601e908201527f436f6e74726163742073686f756c6420626520696e697469616c697a65640000604082015260600190565b6020808252600f908201527f696e636f72726563742065706f63680000000000000000000000000000000000604082015260600190565b6020808252601a908201527f41434c3a2073656e646572206e6f7420617574686f72697a6564000000000000604082015260600190565b60208082526014908201527f4d656469616e2063616e2774206265207a65726f000000000000000000000000604082015260600190565b60208082526014908201527f41737365744964206e6f74206d61746368696e67000000000000000000000000604082015260600190565b60208082526037908201527f50726f706f73656420416c7465726e61746520626c6f636b206973206964656e60408201527f746963616c20746f2070726f706f73656420626c6f636b000000000000000000606082015260800190565b60208082526019908201527f7374616b652062656c6f77206d696e696d756d207374616b6500000000000000604082015260600190565b60208082526021908201527f546f74616c207374616b652072657665616c656420646f65736e74206d61746360408201527f6800000000000000000000000000000000000000000000000000000000000000606082015260800190565b6020808252600f908201527f696e636f72726563742073746174650000000000000000000000000000000000604082015260600190565b6020808252602f908201527f416363657373436f6e74726f6c3a2063616e206f6e6c792072656e6f756e636560408201527f20726f6c657320666f722073656c660000000000000000000000000000000000606082015260800190565b600060208252610e9260208301846137e1565b600060808252613d5260808301876137e1565b8281036020840152613d64818761376f565b90508281036040840152613d78818661376f565b90508281036060840152613d8c818561376f565b979650505050505050565b9283526001600160a01b03919091166020830152604082015260600190565b918252602082015260400190565b60006101208b83528a6020840152806040840152613de48184018b61376f565b90508281036060840152613df8818a61376f565b90508281036080840152613e0c818961376f565b905082810360a0840152613e20818861376f565b60c0840196909652505060e0810192909252610100909101529695505050505050565b600088825287602083015260e06040830152613e6260e08301886137a9565b8281036060840152613e7481886137a9565b90508281036080840152613e8881876137a9565b905082810360a0840152613e9c81866137a9565b9150508260c083015298975050505050505050565b9283526020830191909152604082015260600190565b938452602084019290925260408301521515606082015260800190565b958652602086019490945260408501929092526060840152608083015260a082015260c00190565b60008219821115613f1f57613f1f613fd4565b500190565b600082613f3357613f33613fea565b500490565b6000816000190483118215151615613f5257613f52613fd4565b500290565b600082821015613f6957613f69613fd4565b500390565b600081613f7d57613f7d613fd4565b506000190190565b6000600019821415613f9957613f99613fd4565b5060010190565b600060ff821660ff811415613fb757613fb7613fd4565b60010192915050565b600082613fcf57613fcf613fea565b500690565b634e487b7160e01b600052601160045260246000fd5b634e487b7160e01b600052601260045260246000fd5b634e487b7160e01b600052604160045260246000fd5b6001600160a01b038116811461269957600080fdfea26469706673582212208ad1f4b919fd879e21da0d4ad963596fa341d46780215d324caaf430028716c964736f6c63430008000033",
  "linkReferences": {
    "contracts/lib/Constants.sol": {
      "Constants": [
        {
          "length": 20,
          "start": 2031
        },
        {
          "length": 20,
          "start": 2517
        },
        {
          "length": 20,
          "start": 4450
        },
        {
          "length": 20,
          "start": 5911
        },
        {
          "length": 20,
          "start": 7738
        },
        {
          "length": 20,
          "start": 8369
        },
        {
          "length": 20,
          "start": 12665
        }
      ]
    },
    "contracts/lib/Random.sol": {
      "Random": [
        {
          "length": 20,
          "start": 3128
        },
        {
          "length": 20,
          "start": 3465
        }
      ]
    }
  },
  "deployedLinkReferences": {
    "contracts/lib/Constants.sol": {
      "Constants": [
        {
          "length": 20,
          "start": 1774
        },
        {
          "length": 20,
          "start": 2260
        },
        {
          "length": 20,
          "start": 4193
        },
        {
          "length": 20,
          "start": 5654
        },
        {
          "length": 20,
          "start": 7481
        },
        {
          "length": 20,
          "start": 8112
        },
        {
          "length": 20,
          "start": 12408
        }
      ]
    },
    "contracts/lib/Random.sol": {
      "Random": [
        {
          "length": 20,
          "start": 2871
        },
        {
          "length": 20,
          "start": 3208
        }
      ]
    }
  }
}