{
  "_format": "hh-sol-artifact-1",
  "contractName": "JobManager",
  "sourceName": "contracts/Core/JobManager.sol",
  "abi": [
    {
      "anonymous": false,
      "inputs": [
        {
          "indexed": false,
          "internalType": "uint256",
          "name": "id",
          "type": "uint256"
        },
        {
          "indexed": false,
          "internalType": "uint256",
          "name": "epoch",
          "type": "uint256"
        },
        {
          "indexed": false,
          "internalType": "string",
          "name": "url",
          "type": "string"
        },
        {
          "indexed": false,
          "internalType": "string",
          "name": "selector",
          "type": "string"
        },
        {
          "indexed": false,
          "internalType": "string",
          "name": "name",
          "type": "string"
        },
        {
          "indexed": false,
          "internalType": "bool",
          "name": "repeat",
          "type": "bool"
        },
        {
          "indexed": false,
          "internalType": "address",
          "name": "creator",
          "type": "address"
        },
        {
          "indexed": false,
          "internalType": "uint256",
          "name": "credit",
          "type": "uint256"
        },
        {
          "indexed": false,
          "internalType": "uint256",
          "name": "timestamp",
          "type": "uint256"
        }
      ],
      "name": "JobCreated",
      "type": "event"
    },
    {
      "anonymous": false,
      "inputs": [
        {
          "indexed": false,
          "internalType": "uint256",
          "name": "id",
          "type": "uint256"
        },
        {
          "indexed": false,
          "internalType": "uint256",
          "name": "value",
          "type": "uint256"
        },
        {
          "indexed": false,
          "internalType": "uint256",
          "name": "epoch",
          "type": "uint256"
        },
        {
          "indexed": false,
          "internalType": "string",
          "name": "url",
          "type": "string"
        },
        {
          "indexed": false,
          "internalType": "string",
          "name": "selector",
          "type": "string"
        },
        {
          "indexed": false,
          "internalType": "string",
          "name": "name",
          "type": "string"
        },
        {
          "indexed": false,
          "internalType": "bool",
          "name": "repeat",
          "type": "bool"
        },
        {
          "indexed": false,
          "internalType": "address",
          "name": "creator",
          "type": "address"
        },
        {
          "indexed": false,
          "internalType": "uint256",
          "name": "credit",
          "type": "uint256"
        },
        {
          "indexed": false,
          "internalType": "bool",
          "name": "fulfilled",
          "type": "bool"
        },
        {
          "indexed": false,
          "internalType": "uint256",
          "name": "timestamp",
          "type": "uint256"
        }
      ],
      "name": "JobReported",
      "type": "event"
    },
    {
      "anonymous": false,
      "inputs": [
        {
          "indexed": true,
          "internalType": "bytes32",
          "name": "role",
          "type": "bytes32"
        },
        {
          "indexed": true,
          "internalType": "bytes32",
          "name": "previousAdminRole",
          "type": "bytes32"
        },
        {
          "indexed": true,
          "internalType": "bytes32",
          "name": "newAdminRole",
          "type": "bytes32"
        }
      ],
      "name": "RoleAdminChanged",
      "type": "event"
    },
    {
      "anonymous": false,
      "inputs": [
        {
          "indexed": true,
          "internalType": "bytes32",
          "name": "role",
          "type": "bytes32"
        },
        {
          "indexed": true,
          "internalType": "address",
          "name": "account",
          "type": "address"
        },
        {
          "indexed": true,
          "internalType": "address",
          "name": "sender",
          "type": "address"
        }
      ],
      "name": "RoleGranted",
      "type": "event"
    },
    {
      "anonymous": false,
      "inputs": [
        {
          "indexed": true,
          "internalType": "bytes32",
          "name": "role",
          "type": "bytes32"
        },
        {
          "indexed": true,
          "internalType": "address",
          "name": "account",
          "type": "address"
        },
        {
          "indexed": true,
          "internalType": "address",
          "name": "sender",
          "type": "address"
        }
      ],
      "name": "RoleRevoked",
      "type": "event"
    },
    {
      "inputs": [],
      "name": "DEFAULT_ADMIN_ROLE",
      "outputs": [
        {
          "internalType": "bytes32",
          "name": "",
          "type": "bytes32"
        }
      ],
      "stateMutability": "view",
      "type": "function"
    },
    {
      "inputs": [
        {
          "internalType": "string",
          "name": "url",
          "type": "string"
        },
        {
          "internalType": "string",
          "name": "selector",
          "type": "string"
        },
        {
          "internalType": "string",
          "name": "name",
          "type": "string"
        },
        {
          "internalType": "bool",
          "name": "repeat",
          "type": "bool"
        }
      ],
      "name": "createJob",
      "outputs": [],
      "stateMutability": "payable",
      "type": "function"
    },
    {
      "inputs": [
        {
          "internalType": "uint256",
          "name": "jobId",
          "type": "uint256"
        },
        {
          "internalType": "uint256",
          "name": "value",
          "type": "uint256"
        }
      ],
      "name": "fulfillJob",
      "outputs": [],
      "stateMutability": "nonpayable",
      "type": "function"
    },
    {
      "inputs": [
        {
          "internalType": "uint256",
          "name": "id",
          "type": "uint256"
        }
      ],
      "name": "getJob",
      "outputs": [
        {
          "internalType": "string",
          "name": "url",
          "type": "string"
        },
        {
          "internalType": "string",
          "name": "selector",
          "type": "string"
        },
        {
          "internalType": "string",
          "name": "name",
          "type": "string"
        },
        {
          "internalType": "bool",
          "name": "repeat",
          "type": "bool"
        },
        {
          "internalType": "uint256",
          "name": "result",
          "type": "uint256"
        }
      ],
      "stateMutability": "view",
      "type": "function"
    },
    {
      "inputs": [],
      "name": "getNumJobs",
      "outputs": [
        {
          "internalType": "uint256",
          "name": "",
          "type": "uint256"
        }
      ],
      "stateMutability": "view",
      "type": "function"
    },
    {
      "inputs": [
        {
          "internalType": "uint256",
          "name": "id",
          "type": "uint256"
        }
      ],
      "name": "getResult",
      "outputs": [
        {
          "internalType": "uint256",
          "name": "",
          "type": "uint256"
        }
      ],
      "stateMutability": "view",
      "type": "function"
    },
    {
      "inputs": [
        {
          "internalType": "bytes32",
          "name": "role",
          "type": "bytes32"
        }
      ],
      "name": "getRoleAdmin",
      "outputs": [
        {
          "internalType": "bytes32",
          "name": "",
          "type": "bytes32"
        }
      ],
      "stateMutability": "view",
      "type": "function"
    },
    {
      "inputs": [
        {
          "internalType": "bytes32",
          "name": "role",
          "type": "bytes32"
        },
        {
          "internalType": "address",
          "name": "account",
          "type": "address"
        }
      ],
      "name": "grantRole",
      "outputs": [],
      "stateMutability": "nonpayable",
      "type": "function"
    },
    {
      "inputs": [
        {
          "internalType": "bytes32",
          "name": "role",
          "type": "bytes32"
        },
        {
          "internalType": "address",
          "name": "account",
          "type": "address"
        }
      ],
      "name": "hasRole",
      "outputs": [
        {
          "internalType": "bool",
          "name": "",
          "type": "bool"
        }
      ],
      "stateMutability": "view",
      "type": "function"
    },
    {
      "inputs": [
        {
          "internalType": "address",
          "name": "_stateManagerAddress",
          "type": "address"
        }
      ],
      "name": "init",
      "outputs": [],
      "stateMutability": "nonpayable",
      "type": "function"
    },
    {
      "inputs": [
        {
          "internalType": "uint256",
          "name": "",
          "type": "uint256"
        }
      ],
      "name": "jobs",
      "outputs": [
        {
          "internalType": "uint256",
          "name": "id",
          "type": "uint256"
        },
        {
          "internalType": "uint256",
          "name": "epoch",
          "type": "uint256"
        },
        {
          "internalType": "string",
          "name": "url",
          "type": "string"
        },
        {
          "internalType": "string",
          "name": "selector",
          "type": "string"
        },
        {
          "internalType": "string",
          "name": "name",
          "type": "string"
        },
        {
          "internalType": "bool",
          "name": "repeat",
          "type": "bool"
        },
        {
          "internalType": "address",
          "name": "creator",
          "type": "address"
        },
        {
          "internalType": "uint256",
          "name": "credit",
          "type": "uint256"
        },
        {
          "internalType": "bool",
          "name": "fulfilled",
          "type": "bool"
        },
        {
          "internalType": "uint256",
          "name": "result",
          "type": "uint256"
        }
      ],
      "stateMutability": "view",
      "type": "function"
    },
    {
      "inputs": [],
      "name": "numJobs",
      "outputs": [
        {
          "internalType": "uint256",
          "name": "",
          "type": "uint256"
        }
      ],
      "stateMutability": "view",
      "type": "function"
    },
    {
      "inputs": [
        {
          "internalType": "bytes32",
          "name": "role",
          "type": "bytes32"
        },
        {
          "internalType": "address",
          "name": "account",
          "type": "address"
        }
      ],
      "name": "renounceRole",
      "outputs": [],
      "stateMutability": "nonpayable",
      "type": "function"
    },
    {
      "inputs": [
        {
          "internalType": "bytes32",
          "name": "role",
          "type": "bytes32"
        },
        {
          "internalType": "address",
          "name": "account",
          "type": "address"
        }
      ],
      "name": "revokeRole",
      "outputs": [],
      "stateMutability": "nonpayable",
      "type": "function"
    },
    {
      "inputs": [],
      "name": "stateManager",
      "outputs": [
        {
          "internalType": "contract IStateManager",
          "name": "",
          "type": "address"
        }
      ],
      "stateMutability": "view",
      "type": "function"
    },
    {
      "inputs": [
        {
          "internalType": "bytes4",
          "name": "interfaceId",
          "type": "bytes4"
        }
      ],
      "name": "supportsInterface",
      "outputs": [
        {
          "internalType": "bool",
          "name": "",
          "type": "bool"
        }
      ],
      "stateMutability": "view",
      "type": "function"
    }
  ],
  "bytecode": "0x60806040523480156200001157600080fd5b506200001f60003362000025565b620000ec565b62000031828262000035565b5050565b620000418282620000bf565b62000031576000828152602081815260408083206001600160a01b03851684529091529020805460ff191660011790556200007b620000e8565b6001600160a01b0316816001600160a01b0316837f2f8788117e7eff1d82e926ec794901d17c78024a50270940304540a733656f0d60405160405180910390a45050565b6000918252602082815260408084206001600160a01b0393909316845291905290205460ff1690565b3390565b6116bf80620000fc6000396000f3fe6080604052600436106100f35760003560e01c8063628aff1d1161008a578063995e433911610059578063995e433914610292578063a217fddf146102b2578063bf22c457146102c7578063d547741f146102f8576100f3565b8063628aff1d146102355780637e0c00ed1461024857806391d148541461025d5780639212051c1461027d576100f3565b80632e716fb1116100c65780632e716fb1146101b35780632f2ff15d146101d557806336568abe146101f557806356350bdf14610215576100f3565b806301ffc9a7146100f8578063180aedf31461012e57806319ab453c14610164578063248a9ca314610186575b600080fd5b34801561010457600080fd5b506101186101133660046110a6565b610318565b60405161012591906112cb565b60405180910390f35b34801561013a57600080fd5b5061014e61014936600461104b565b610376565b6040516101259a99989796959493929190611510565b34801561017057600080fd5b5061018461017f36600461102a565b61056f565b005b34801561019257600080fd5b506101a66101a136600461104b565b6105a9565b60405161012591906112d6565b3480156101bf57600080fd5b506101c86105be565b60405161012591906112df565b3480156101e157600080fd5b506101846101f036600461107b565b6105cd565b34801561020157600080fd5b5061018461021036600461107b565b610614565b34801561022157600080fd5b50610184610230366004611194565b610656565b6101846102433660046110e6565b610826565b34801561025457600080fd5b506101a6610af4565b34801561026957600080fd5b5061011861027836600461107b565b610afa565b34801561028957600080fd5b506101a6610b23565b34801561029e57600080fd5b506101a66102ad36600461104b565b610b29565b3480156102be57600080fd5b506101a6610b3e565b3480156102d357600080fd5b506102e76102e236600461104b565b610b43565b6040516101259594939291906112f3565b34801561030457600080fd5b5061018461031336600461107b565b610db5565b60007fffffffff0000000000000000000000000000000000000000000000000000000082167f7965db0b00000000000000000000000000000000000000000000000000000000148061036e575061036e82610ddd565b90505b919050565b6002602081905260009182526040909120805460018201549282018054919392916103a09061164e565b80601f01602080910402602001604051908101604052809291908181526020018280546103cc9061164e565b80156104195780601f106103ee57610100808354040283529160200191610419565b820191906000526020600020905b8154815290600101906020018083116103fc57829003601f168201915b50505050509080600301805461042e9061164e565b80601f016020809104026020016040519081016040528092919081815260200182805461045a9061164e565b80156104a75780601f1061047c576101008083540402835291602001916104a7565b820191906000526020600020905b81548152906001019060200180831161048a57829003601f168201915b5050505050908060040180546104bc9061164e565b80601f01602080910402602001604051908101604052809291908181526020018280546104e89061164e565b80156105355780601f1061050a57610100808354040283529160200191610535565b820191906000526020600020905b81548152906001019060200180831161051857829003601f168201915b50505050600583015460068401546007850154600890950154939460ff808416956101009094046001600160a01b0316945091929116908a565b600380547fffffffffffffffffffffffff0000000000000000000000000000000000000000166001600160a01b0392909216919091179055565b60009081526020819052604090206001015490565b6003546001600160a01b031681565b6105e16105d9836105a9565b610278610e27565b6106065760405162461bcd60e51b81526004016105fd90611341565b60405180910390fd5b6106108282610e2b565b5050565b61061c610e27565b6001600160a01b0316816001600160a01b03161461064c5760405162461bcd60e51b81526004016105fd90611432565b6106108282610eb0565b73__$cb76aa8097a3c0beaf107a478aa049bae7$__637f890b116040518163ffffffff1660e01b815260040160206040518083038186803b15801561069a57600080fd5b505af41580156106ae573d6000803e3d6000fd5b505050506040513d601f19601f820116820180604052508101906106d29190611063565b6106dc8133610afa565b6106f85760405162461bcd60e51b81526004016105fd906113fb565b60008381526002602090815260408083206003548251630eaf323560e31b815292519194936001600160a01b039091169263757991a89260048083019392829003018186803b15801561074a57600080fd5b505afa15801561075e573d6000803e3d6000fd5b505050506040513d601f19601f820116820180604052508101906107829190611063565b600583015490915060ff166107a15760078201805460ff191660011790555b6008820184905581546005830154600684015460078501546040517f9028bea5bfa7ed26c48df402d89085a995447dc8c1fb167cb92a3c7411b54480946108179490938a93889360028b019360038c019360048d019360ff808416946101009094046001600160a01b0316939116904290611593565b60405180910390a15050505050565b600180546108339161162a565b60015560035460408051630eaf323560e31b815290516000926001600160a01b03169163757991a8916004808301926020929190829003018186803b15801561087b57600080fd5b505afa15801561088f573d6000803e3d6000fd5b505050506040513d601f19601f820116820180604052508101906108b39190611063565b9050600060405180610140016040528060015481526020018381526020018a8a8080601f016020809104026020016040519081016040528093929190818152602001838380828437600092019190915250505090825250604080516020601f8b0181900481028201810190925289815291810191908a908a9081908401838280828437600092019190915250505090825250604080516020601f8901819004810282018101909252878152918101919088908890819084018382808284376000920182905250938552505050851515602080840191909152336040808501919091523460608501526080840183905260a090930182905260018054835260028083529284902085518155858301519181019190915592840151805194955085946109e4938501929190910190610f33565b5060608201518051610a00916003840191602090910190610f33565b5060808201518051610a1c916004840191602090910190610f33565b5060a082015160058201805460c085015160ff19918216931515939093177fffffffffffffffffffffff0000000000000000000000000000000000000000ff166101006001600160a01b0390941684021790915560e0840151600684015590830151600783018054909216901515179055610120909101516008909101556001546040517fd4ae17fdeb78e69409330361e8f8475f8027928c6f28eae2195e5ae56570aba091610ae19185908d908d908d908d908d908d908d9033903490429061148f565b60405180910390a1505050505050505050565b60015490565b6000918252602082815260408084206001600160a01b0393909316845291905290205460ff1690565b60015481565b60009081526002602052604090206008015490565b600081565b6060806060600080600060026000888152602001908152602001600020604051806101400160405290816000820154815260200160018201548152602001600282018054610b909061164e565b80601f0160208091040260200160405190810160405280929190818152602001828054610bbc9061164e565b8015610c095780601f10610bde57610100808354040283529160200191610c09565b820191906000526020600020905b815481529060010190602001808311610bec57829003601f168201915b50505050508152602001600382018054610c229061164e565b80601f0160208091040260200160405190810160405280929190818152602001828054610c4e9061164e565b8015610c9b5780601f10610c7057610100808354040283529160200191610c9b565b820191906000526020600020905b815481529060010190602001808311610c7e57829003601f168201915b50505050508152602001600482018054610cb49061164e565b80601f0160208091040260200160405190810160405280929190818152602001828054610ce09061164e565b8015610d2d5780601f10610d0257610100808354040283529160200191610d2d565b820191906000526020600020905b815481529060010190602001808311610d1057829003601f168201915b5050509183525050600582015460ff808216151560208401526101009091046001600160a01b031660408084019190915260068401546060808501919091526007850154909216151560808085019190915260089094015460a09384015284015190840151928401519184015161012090940151909b929a5090985091965090945092505050565b610dc16105d9836105a9565b61064c5760405162461bcd60e51b81526004016105fd9061139e565b7fffffffff0000000000000000000000000000000000000000000000000000000081167f01ffc9a70000000000000000000000000000000000000000000000000000000014919050565b3390565b610e358282610afa565b610610576000828152602081815260408083206001600160a01b03851684529091529020805460ff19166001179055610e6c610e27565b6001600160a01b0316816001600160a01b0316837f2f8788117e7eff1d82e926ec794901d17c78024a50270940304540a733656f0d60405160405180910390a45050565b610eba8282610afa565b15610610576000828152602081815260408083206001600160a01b03851684529091529020805460ff19169055610eef610e27565b6001600160a01b0316816001600160a01b0316837ff6391f5c32d9c69d2a47ea670b442974b53935d1edc7fd64eb21e047a839171b60405160405180910390a45050565b828054610f3f9061164e565b90600052602060002090601f016020900481019282610f615760008555610fa7565b82601f10610f7a57805160ff1916838001178555610fa7565b82800160010185558215610fa7579182015b82811115610fa7578251825591602001919060010190610f8c565b50610fb3929150610fb7565b5090565b5b80821115610fb35760008155600101610fb8565b80356001600160a01b038116811461037157600080fd5b60008083601f840112610ff4578182fd5b50813567ffffffffffffffff81111561100b578182fd5b60208301915083602082850101111561102357600080fd5b9250929050565b60006020828403121561103b578081fd5b61104482610fcc565b9392505050565b60006020828403121561105c578081fd5b5035919050565b600060208284031215611074578081fd5b5051919050565b6000806040838503121561108d578081fd5b8235915061109d60208401610fcc565b90509250929050565b6000602082840312156110b7578081fd5b81357fffffffff0000000000000000000000000000000000000000000000000000000081168114611044578182fd5b60008060008060008060006080888a031215611100578283fd5b873567ffffffffffffffff80821115611117578485fd5b6111238b838c01610fe3565b909950975060208a013591508082111561113b578485fd5b6111478b838c01610fe3565b909750955060408a013591508082111561115f578485fd5b5061116c8a828b01610fe3565b90945092505060608801358015158114611184578182fd5b8091505092959891949750929550565b600080604083850312156111a6578182fd5b50508035926020909101359150565b60008284528282602086013780602084860101526020601f19601f85011685010190509392505050565b60008151808452815b81811015611204576020818501810151868301820152016111e8565b818111156112155782602083870101525b50601f01601f19169290920160200192915050565b80546000906002810460018083168061124457607f831692505b602080841082141561126457634e487b7160e01b86526022600452602486fd5b61126e84896112d6565b8280156112825760018114611293576112be565b60ff198716825282820197506112be565b61129c8961161e565b60005b878110156112b85781548482015290860190840161129f565b83019850505b5050505050505092915050565b901515815260200190565b90815260200190565b6001600160a01b0391909116815260200190565b600060a0825261130660a08301886111df565b828103602084015261131881886111df565b9050828103604084015261132c81876111df565b94151560608401525050608001529392505050565b6020808252602f908201527f416363657373436f6e74726f6c3a2073656e646572206d75737420626520616e60408201527f2061646d696e20746f206772616e740000000000000000000000000000000000606082015260800190565b60208082526030908201527f416363657373436f6e74726f6c3a2073656e646572206d75737420626520616e60408201527f2061646d696e20746f207265766f6b6500000000000000000000000000000000606082015260800190565b6020808252601a908201527f41434c3a2073656e646572206e6f7420617574686f72697a6564000000000000604082015260600190565b6020808252602f908201527f416363657373436f6e74726f6c3a2063616e206f6e6c792072656e6f756e636560408201527f20726f6c657320666f722073656c660000000000000000000000000000000000606082015260800190565b60006101208e83528d60208401528060408401526114b08184018d8f6111b5565b905082810360608401526114c5818b8d6111b5565b905082810360808401526114da81898b6111b5565b96151560a084015250506001600160a01b039390931660c084015260e08301919091526101009091015298975050505050505050565b60006101408c83528b60208401528060408401526115308184018c6111df565b90508281036060840152611544818b6111df565b90508281036080840152611558818a6111df565b97151560a084015250506001600160a01b039490941660c085015260e084019290925215156101008301526101209091015295945050505050565b60006101608d83528c60208401528b60408401528060608401526115b98184018c61122a565b905082810360808401526115cd818b61122a565b905082810360a08401526115e1818a61122a565b97151560c084015250506001600160a01b039490941660e08501526101008401929092521515610120830152610140909101529695505050505050565b60009081526020902090565b6000821982111561164957634e487b7160e01b81526011600452602481fd5b500190565b60028104600182168061166257607f821691505b6020821081141561168357634e487b7160e01b600052602260045260246000fd5b5091905056fea264697066735822122060379d1e894a1c744a6adcc4db2a60f59314b6af18bb9511728304651362022c64736f6c63430008000033",
  "linkReferences": {
    "contracts/lib/Constants.sol": {
      "Constants": [
        {
          "length": 20,
          "start": 1876
        }
      ]
    }
  },
  "deployedLinkReferences": {
    "contracts/lib/Constants.sol": {
      "Constants": [
        {
          "length": 20,
          "start": 1624
        }
      ]
    }
  }
}