{
  "_format": "hh-sol-artifact-1",
  "contractName": "JobManager",
  "sourceName": "contracts/Core/JobManager.sol",
  "abi": [
    {
      "inputs": [
        {
          "internalType": "address",
          "name": "stateManagerAddress",
          "type": "address"
        }
      ],
      "stateMutability": "nonpayable",
      "type": "constructor"
    },
    {
      "anonymous": false,
      "inputs": [
        {
          "indexed": false,
          "internalType": "uint256",
          "name": "id",
          "type": "uint256"
        },
        {
          "indexed": false,
          "internalType": "uint256",
          "name": "epoch",
          "type": "uint256"
        },
        {
          "indexed": false,
          "internalType": "string",
          "name": "url",
          "type": "string"
        },
        {
          "indexed": false,
          "internalType": "string",
          "name": "selector",
          "type": "string"
        },
        {
          "indexed": false,
          "internalType": "string",
          "name": "name",
          "type": "string"
        },
        {
          "indexed": false,
          "internalType": "bool",
          "name": "repeat",
          "type": "bool"
        },
        {
          "indexed": false,
          "internalType": "address",
          "name": "creator",
          "type": "address"
        },
        {
          "indexed": false,
          "internalType": "uint256",
          "name": "credit",
          "type": "uint256"
        },
        {
          "indexed": false,
          "internalType": "uint256",
          "name": "timestamp",
          "type": "uint256"
        }
      ],
      "name": "JobCreated",
      "type": "event"
    },
    {
      "anonymous": false,
      "inputs": [
        {
          "indexed": false,
          "internalType": "uint256",
          "name": "id",
          "type": "uint256"
        },
        {
          "indexed": false,
          "internalType": "uint256",
          "name": "value",
          "type": "uint256"
        },
        {
          "indexed": false,
          "internalType": "uint256",
          "name": "epoch",
          "type": "uint256"
        },
        {
          "indexed": false,
          "internalType": "string",
          "name": "url",
          "type": "string"
        },
        {
          "indexed": false,
          "internalType": "string",
          "name": "selector",
          "type": "string"
        },
        {
          "indexed": false,
          "internalType": "string",
          "name": "name",
          "type": "string"
        },
        {
          "indexed": false,
          "internalType": "bool",
          "name": "repeat",
          "type": "bool"
        },
        {
          "indexed": false,
          "internalType": "address",
          "name": "creator",
          "type": "address"
        },
        {
          "indexed": false,
          "internalType": "uint256",
          "name": "credit",
          "type": "uint256"
        },
        {
          "indexed": false,
          "internalType": "bool",
          "name": "fulfilled",
          "type": "bool"
        },
        {
          "indexed": false,
          "internalType": "uint256",
          "name": "timestamp",
          "type": "uint256"
        }
      ],
      "name": "JobReported",
      "type": "event"
    },
    {
      "anonymous": false,
      "inputs": [
        {
          "indexed": true,
          "internalType": "bytes32",
          "name": "role",
          "type": "bytes32"
        },
        {
          "indexed": true,
          "internalType": "bytes32",
          "name": "previousAdminRole",
          "type": "bytes32"
        },
        {
          "indexed": true,
          "internalType": "bytes32",
          "name": "newAdminRole",
          "type": "bytes32"
        }
      ],
      "name": "RoleAdminChanged",
      "type": "event"
    },
    {
      "anonymous": false,
      "inputs": [
        {
          "indexed": true,
          "internalType": "bytes32",
          "name": "role",
          "type": "bytes32"
        },
        {
          "indexed": true,
          "internalType": "address",
          "name": "account",
          "type": "address"
        },
        {
          "indexed": true,
          "internalType": "address",
          "name": "sender",
          "type": "address"
        }
      ],
      "name": "RoleGranted",
      "type": "event"
    },
    {
      "anonymous": false,
      "inputs": [
        {
          "indexed": true,
          "internalType": "bytes32",
          "name": "role",
          "type": "bytes32"
        },
        {
          "indexed": true,
          "internalType": "address",
          "name": "account",
          "type": "address"
        },
        {
          "indexed": true,
          "internalType": "address",
          "name": "sender",
          "type": "address"
        }
      ],
      "name": "RoleRevoked",
      "type": "event"
    },
    {
      "inputs": [],
      "name": "DEFAULT_ADMIN_ROLE",
      "outputs": [
        {
          "internalType": "bytes32",
          "name": "",
          "type": "bytes32"
        }
      ],
      "stateMutability": "view",
      "type": "function"
    },
    {
      "inputs": [
        {
          "internalType": "string",
          "name": "url",
          "type": "string"
        },
        {
          "internalType": "string",
          "name": "selector",
          "type": "string"
        },
        {
          "internalType": "string",
          "name": "name",
          "type": "string"
        },
        {
          "internalType": "bool",
          "name": "repeat",
          "type": "bool"
        }
      ],
      "name": "createJob",
      "outputs": [],
      "stateMutability": "payable",
      "type": "function"
    },
    {
      "inputs": [
        {
          "internalType": "uint256",
          "name": "jobId",
          "type": "uint256"
        },
        {
          "internalType": "uint256",
          "name": "value",
          "type": "uint256"
        }
      ],
      "name": "fulfillJob",
      "outputs": [],
      "stateMutability": "nonpayable",
      "type": "function"
    },
    {
      "inputs": [
        {
          "internalType": "uint256",
          "name": "id",
          "type": "uint256"
        }
      ],
      "name": "getJob",
      "outputs": [
        {
          "internalType": "string",
          "name": "url",
          "type": "string"
        },
        {
          "internalType": "string",
          "name": "selector",
          "type": "string"
        },
        {
          "internalType": "string",
          "name": "name",
          "type": "string"
        },
        {
          "internalType": "bool",
          "name": "repeat",
          "type": "bool"
        },
        {
          "internalType": "uint256",
          "name": "result",
          "type": "uint256"
        }
      ],
      "stateMutability": "view",
      "type": "function"
    },
    {
      "inputs": [],
      "name": "getNumJobs",
      "outputs": [
        {
          "internalType": "uint256",
          "name": "",
          "type": "uint256"
        }
      ],
      "stateMutability": "view",
      "type": "function"
    },
    {
      "inputs": [
        {
          "internalType": "uint256",
          "name": "id",
          "type": "uint256"
        }
      ],
      "name": "getResult",
      "outputs": [
        {
          "internalType": "uint256",
          "name": "",
          "type": "uint256"
        }
      ],
      "stateMutability": "view",
      "type": "function"
    },
    {
      "inputs": [
        {
          "internalType": "bytes32",
          "name": "role",
          "type": "bytes32"
        }
      ],
      "name": "getRoleAdmin",
      "outputs": [
        {
          "internalType": "bytes32",
          "name": "",
          "type": "bytes32"
        }
      ],
      "stateMutability": "view",
      "type": "function"
    },
    {
      "inputs": [
        {
          "internalType": "bytes32",
          "name": "role",
          "type": "bytes32"
        },
        {
          "internalType": "address",
          "name": "account",
          "type": "address"
        }
      ],
      "name": "grantRole",
      "outputs": [],
      "stateMutability": "nonpayable",
      "type": "function"
    },
    {
      "inputs": [
        {
          "internalType": "bytes32",
          "name": "role",
          "type": "bytes32"
        },
        {
          "internalType": "address",
          "name": "account",
          "type": "address"
        }
      ],
      "name": "hasRole",
      "outputs": [
        {
          "internalType": "bool",
          "name": "",
          "type": "bool"
        }
      ],
      "stateMutability": "view",
      "type": "function"
    },
    {
      "inputs": [
        {
          "internalType": "uint256",
          "name": "",
          "type": "uint256"
        }
      ],
      "name": "jobs",
      "outputs": [
        {
          "internalType": "uint256",
          "name": "id",
          "type": "uint256"
        },
        {
          "internalType": "uint256",
          "name": "epoch",
          "type": "uint256"
        },
        {
          "internalType": "string",
          "name": "url",
          "type": "string"
        },
        {
          "internalType": "string",
          "name": "selector",
          "type": "string"
        },
        {
          "internalType": "string",
          "name": "name",
          "type": "string"
        },
        {
          "internalType": "bool",
          "name": "repeat",
          "type": "bool"
        },
        {
          "internalType": "address",
          "name": "creator",
          "type": "address"
        },
        {
          "internalType": "uint256",
          "name": "credit",
          "type": "uint256"
        },
        {
          "internalType": "bool",
          "name": "fulfilled",
          "type": "bool"
        },
        {
          "internalType": "uint256",
          "name": "result",
          "type": "uint256"
        }
      ],
      "stateMutability": "view",
      "type": "function"
    },
    {
      "inputs": [],
      "name": "numJobs",
      "outputs": [
        {
          "internalType": "uint256",
          "name": "",
          "type": "uint256"
        }
      ],
      "stateMutability": "view",
      "type": "function"
    },
    {
      "inputs": [
        {
          "internalType": "bytes32",
          "name": "role",
          "type": "bytes32"
        },
        {
          "internalType": "address",
          "name": "account",
          "type": "address"
        }
      ],
      "name": "renounceRole",
      "outputs": [],
      "stateMutability": "nonpayable",
      "type": "function"
    },
    {
      "inputs": [
        {
          "internalType": "bytes32",
          "name": "role",
          "type": "bytes32"
        },
        {
          "internalType": "address",
          "name": "account",
          "type": "address"
        }
      ],
      "name": "revokeRole",
      "outputs": [],
      "stateMutability": "nonpayable",
      "type": "function"
    },
    {
      "inputs": [],
      "name": "stateManager",
      "outputs": [
        {
          "internalType": "contract IStateManager",
          "name": "",
          "type": "address"
        }
      ],
      "stateMutability": "view",
      "type": "function"
    },
    {
      "inputs": [
        {
          "internalType": "bytes4",
          "name": "interfaceId",
          "type": "bytes4"
        }
      ],
      "name": "supportsInterface",
      "outputs": [
        {
          "internalType": "bool",
          "name": "",
          "type": "bool"
        }
      ],
      "stateMutability": "view",
      "type": "function"
    }
  ],
  "bytecode": "0x60806040523480156200001157600080fd5b50604051620017a4380380620017a483398101604081905262000034916200012e565b6200004160003362000067565b600380546001600160a01b0319166001600160a01b03929092169190911790556200015e565b62000073828262000077565b5050565b62000083828262000101565b62000073576000828152602081815260408083206001600160a01b03851684529091529020805460ff19166001179055620000bd6200012a565b6001600160a01b0316816001600160a01b0316837f2f8788117e7eff1d82e926ec794901d17c78024a50270940304540a733656f0d60405160405180910390a45050565b6000918252602082815260408084206001600160a01b0393909316845291905290205460ff1690565b3390565b60006020828403121562000140578081fd5b81516001600160a01b038116811462000157578182fd5b9392505050565b611636806200016e6000396000f3fe6080604052600436106100e85760003560e01c8063628aff1d1161008a578063995e433911610059578063995e433914610267578063a217fddf14610287578063bf22c4571461029c578063d547741f146102cd576100e8565b8063628aff1d1461020a5780637e0c00ed1461021d57806391d14854146102325780639212051c14610252576100e8565b80632e716fb1116100c65780632e716fb1146101865780632f2ff15d146101a857806336568abe146101ca57806356350bdf146101ea576100e8565b806301ffc9a7146100ed578063180aedf314610123578063248a9ca314610159575b600080fd5b3480156100f957600080fd5b5061010d610108366004611016565b6102ed565b60405161011a9190611242565b60405180910390f35b34801561012f57600080fd5b5061014361013e366004610fac565b610349565b60405161011a9a99989796959493929190611487565b34801561016557600080fd5b50610179610174366004610fac565b610542565b60405161011a919061124d565b34801561019257600080fd5b5061019b610557565b60405161011a9190611256565b3480156101b457600080fd5b506101c86101c3366004610fdc565b610566565b005b3480156101d657600080fd5b506101c86101e5366004610fdc565b6105ad565b3480156101f657600080fd5b506101c861020536600461110b565b6105ef565b6101c861021836600461105d565b6107bf565b34801561022957600080fd5b50610179610a8d565b34801561023e57600080fd5b5061010d61024d366004610fdc565b610a93565b34801561025e57600080fd5b50610179610abc565b34801561027357600080fd5b50610179610282366004610fac565b610ac2565b34801561029357600080fd5b50610179610ad7565b3480156102a857600080fd5b506102bc6102b7366004610fac565b610adc565b60405161011a95949392919061126a565b3480156102d957600080fd5b506101c86102e8366004610fdc565b610d4e565b60007fffffffff0000000000000000000000000000000000000000000000000000000082167f7965db0b000000000000000000000000000000000000000000000000000000001480610343575061034382610d76565b92915050565b600260208190526000918252604090912080546001820154928201805491939291610373906115c5565b80601f016020809104026020016040519081016040528092919081815260200182805461039f906115c5565b80156103ec5780601f106103c1576101008083540402835291602001916103ec565b820191906000526020600020905b8154815290600101906020018083116103cf57829003601f168201915b505050505090806003018054610401906115c5565b80601f016020809104026020016040519081016040528092919081815260200182805461042d906115c5565b801561047a5780601f1061044f5761010080835404028352916020019161047a565b820191906000526020600020905b81548152906001019060200180831161045d57829003601f168201915b50505050509080600401805461048f906115c5565b80601f01602080910402602001604051908101604052809291908181526020018280546104bb906115c5565b80156105085780601f106104dd57610100808354040283529160200191610508565b820191906000526020600020905b8154815290600101906020018083116104eb57829003601f168201915b50505050600583015460068401546007850154600890950154939460ff808416956101009094046001600160a01b0316945091929116908a565b60009081526020819052604090206001015490565b6003546001600160a01b031681565b61057a61057283610542565b61024d610dc0565b61059f5760405162461bcd60e51b8152600401610596906112b8565b60405180910390fd5b6105a98282610dc4565b5050565b6105b5610dc0565b6001600160a01b0316816001600160a01b0316146105e55760405162461bcd60e51b8152600401610596906113a9565b6105a98282610e49565b73__$cb76aa8097a3c0beaf107a478aa049bae7$__637f890b116040518163ffffffff1660e01b815260040160206040518083038186803b15801561063357600080fd5b505af4158015610647573d6000803e3d6000fd5b505050506040513d601f19601f8201168201806040525081019061066b9190610fc4565b6106758133610a93565b6106915760405162461bcd60e51b815260040161059690611372565b60008381526002602090815260408083206003548251630eaf323560e31b815292519194936001600160a01b039091169263757991a89260048083019392829003018186803b1580156106e357600080fd5b505afa1580156106f7573d6000803e3d6000fd5b505050506040513d601f19601f8201168201806040525081019061071b9190610fc4565b600583015490915060ff1661073a5760078201805460ff191660011790555b6008820184905581546005830154600684015460078501546040517f9028bea5bfa7ed26c48df402d89085a995447dc8c1fb167cb92a3c7411b54480946107b09490938a93889360028b019360038c019360048d019360ff808416946101009094046001600160a01b031693911690429061150a565b60405180910390a15050505050565b600180546107cc916115a1565b60015560035460408051630eaf323560e31b815290516000926001600160a01b03169163757991a8916004808301926020929190829003018186803b15801561081457600080fd5b505afa158015610828573d6000803e3d6000fd5b505050506040513d601f19601f8201168201806040525081019061084c9190610fc4565b9050600060405180610140016040528060015481526020018381526020018a8a8080601f016020809104026020016040519081016040528093929190818152602001838380828437600092019190915250505090825250604080516020601f8b0181900481028201810190925289815291810191908a908a9081908401838280828437600092019190915250505090825250604080516020601f8901819004810282018101909252878152918101919088908890819084018382808284376000920182905250938552505050851515602080840191909152336040808501919091523460608501526080840183905260a0909301829052600180548352600280835292849020855181558583015191810191909155928401518051949550859461097d938501929190910190610ecc565b5060608201518051610999916003840191602090910190610ecc565b50608082015180516109b5916004840191602090910190610ecc565b5060a082015160058201805460c085015160ff19918216931515939093177fffffffffffffffffffffff0000000000000000000000000000000000000000ff166101006001600160a01b0390941684021790915560e0840151600684015590830151600783018054909216901515179055610120909101516008909101556001546040517fd4ae17fdeb78e69409330361e8f8475f8027928c6f28eae2195e5ae56570aba091610a7a9185908d908d908d908d908d908d908d90339034904290611406565b60405180910390a1505050505050505050565b60015490565b6000918252602082815260408084206001600160a01b0393909316845291905290205460ff1690565b60015481565b60009081526002602052604090206008015490565b600081565b6060806060600080600060026000888152602001908152602001600020604051806101400160405290816000820154815260200160018201548152602001600282018054610b29906115c5565b80601f0160208091040260200160405190810160405280929190818152602001828054610b55906115c5565b8015610ba25780601f10610b7757610100808354040283529160200191610ba2565b820191906000526020600020905b815481529060010190602001808311610b8557829003601f168201915b50505050508152602001600382018054610bbb906115c5565b80601f0160208091040260200160405190810160405280929190818152602001828054610be7906115c5565b8015610c345780601f10610c0957610100808354040283529160200191610c34565b820191906000526020600020905b815481529060010190602001808311610c1757829003601f168201915b50505050508152602001600482018054610c4d906115c5565b80601f0160208091040260200160405190810160405280929190818152602001828054610c79906115c5565b8015610cc65780601f10610c9b57610100808354040283529160200191610cc6565b820191906000526020600020905b815481529060010190602001808311610ca957829003601f168201915b5050509183525050600582015460ff808216151560208401526101009091046001600160a01b031660408084019190915260068401546060808501919091526007850154909216151560808085019190915260089094015460a09384015284015190840151928401519184015161012090940151909b929a5090985091965090945092505050565b610d5a61057283610542565b6105e55760405162461bcd60e51b815260040161059690611315565b7fffffffff0000000000000000000000000000000000000000000000000000000081167f01ffc9a70000000000000000000000000000000000000000000000000000000014919050565b3390565b610dce8282610a93565b6105a9576000828152602081815260408083206001600160a01b03851684529091529020805460ff19166001179055610e05610dc0565b6001600160a01b0316816001600160a01b0316837f2f8788117e7eff1d82e926ec794901d17c78024a50270940304540a733656f0d60405160405180910390a45050565b610e538282610a93565b156105a9576000828152602081815260408083206001600160a01b03851684529091529020805460ff19169055610e88610dc0565b6001600160a01b0316816001600160a01b0316837ff6391f5c32d9c69d2a47ea670b442974b53935d1edc7fd64eb21e047a839171b60405160405180910390a45050565b828054610ed8906115c5565b90600052602060002090601f016020900481019282610efa5760008555610f40565b82601f10610f1357805160ff1916838001178555610f40565b82800160010185558215610f40579182015b82811115610f40578251825591602001919060010190610f25565b50610f4c929150610f50565b5090565b5b80821115610f4c5760008155600101610f51565b60008083601f840112610f76578182fd5b50813567ffffffffffffffff811115610f8d578182fd5b602083019150836020828501011115610fa557600080fd5b9250929050565b600060208284031215610fbd578081fd5b5035919050565b600060208284031215610fd5578081fd5b5051919050565b60008060408385031215610fee578081fd5b8235915060208301356001600160a01b038116811461100b578182fd5b809150509250929050565b600060208284031215611027578081fd5b81357fffffffff0000000000000000000000000000000000000000000000000000000081168114611056578182fd5b9392505050565b60008060008060008060006080888a031215611077578283fd5b873567ffffffffffffffff8082111561108e578485fd5b61109a8b838c01610f65565b909950975060208a01359150808211156110b2578485fd5b6110be8b838c01610f65565b909750955060408a01359150808211156110d6578485fd5b506110e38a828b01610f65565b909450925050606088013580151581146110fb578182fd5b8091505092959891949750929550565b6000806040838503121561111d578182fd5b50508035926020909101359150565b60008284528282602086013780602084860101526020601f19601f85011685010190509392505050565b60008151808452815b8181101561117b5760208185018101518683018201520161115f565b8181111561118c5782602083870101525b50601f01601f19169290920160200192915050565b8054600090600281046001808316806111bb57607f831692505b60208084108214156111db57634e487b7160e01b86526022600452602486fd5b6111e5848961124d565b8280156111f9576001811461120a57611235565b60ff19871682528282019750611235565b61121389611595565b60005b8781101561122f57815484820152908601908401611216565b83019850505b5050505050505092915050565b901515815260200190565b90815260200190565b6001600160a01b0391909116815260200190565b600060a0825261127d60a0830188611156565b828103602084015261128f8188611156565b905082810360408401526112a38187611156565b94151560608401525050608001529392505050565b6020808252602f908201527f416363657373436f6e74726f6c3a2073656e646572206d75737420626520616e60408201527f2061646d696e20746f206772616e740000000000000000000000000000000000606082015260800190565b60208082526030908201527f416363657373436f6e74726f6c3a2073656e646572206d75737420626520616e60408201527f2061646d696e20746f207265766f6b6500000000000000000000000000000000606082015260800190565b6020808252601a908201527f41434c3a2073656e646572206e6f7420617574686f72697a6564000000000000604082015260600190565b6020808252602f908201527f416363657373436f6e74726f6c3a2063616e206f6e6c792072656e6f756e636560408201527f20726f6c657320666f722073656c660000000000000000000000000000000000606082015260800190565b60006101208e83528d60208401528060408401526114278184018d8f61112c565b9050828103606084015261143c818b8d61112c565b9050828103608084015261145181898b61112c565b96151560a084015250506001600160a01b039390931660c084015260e08301919091526101009091015298975050505050505050565b60006101408c83528b60208401528060408401526114a78184018c611156565b905082810360608401526114bb818b611156565b905082810360808401526114cf818a611156565b97151560a084015250506001600160a01b039490941660c085015260e084019290925215156101008301526101209091015295945050505050565b60006101608d83528c60208401528b60408401528060608401526115308184018c6111a1565b90508281036080840152611544818b6111a1565b905082810360a0840152611558818a6111a1565b97151560c084015250506001600160a01b039490941660e08501526101008401929092521515610120830152610140909101529695505050505050565b60009081526020902090565b600082198211156115c057634e487b7160e01b81526011600452602481fd5b500190565b6002810460018216806115d957607f821691505b602082108114156115fa57634e487b7160e01b600052602260045260246000fd5b5091905056fea2646970667358221220f608c0c25fd3f06a9e50ee840aefd76562ddb8ef3e2832bd16fea2d898fcac5a64736f6c63430008000033",
  "linkReferences": {
    "contracts/lib/Constants.sol": {
      "Constants": [
        {
          "length": 20,
          "start": 1887
        }
      ]
    }
  },
  "deployedLinkReferences": {
    "contracts/lib/Constants.sol": {
      "Constants": [
        {
          "length": 20,
          "start": 1521
        }
      ]
    }
  }
}