{
  "_format": "hh-sol-artifact-1",
  "contractName": "VoteManager",
  "sourceName": "contracts/Core/VoteManager.sol",
  "abi": [
    {
      "anonymous": false,
      "inputs": [
        {
          "indexed": false,
          "internalType": "uint256",
          "name": "epoch",
          "type": "uint256"
        },
        {
          "indexed": false,
          "internalType": "uint256",
          "name": "stakerId",
          "type": "uint256"
        },
        {
          "indexed": false,
          "internalType": "bytes32",
          "name": "commitment",
          "type": "bytes32"
        },
        {
          "indexed": false,
          "internalType": "uint256",
          "name": "timestamp",
          "type": "uint256"
        }
      ],
      "name": "Committed",
      "type": "event"
    },
    {
      "anonymous": false,
      "inputs": [
        {
          "indexed": false,
          "internalType": "uint256",
          "name": "epoch",
          "type": "uint256"
        },
        {
          "indexed": false,
          "internalType": "uint256",
          "name": "stakerId",
          "type": "uint256"
        },
        {
          "indexed": false,
          "internalType": "uint256",
          "name": "stake",
          "type": "uint256"
        },
        {
          "indexed": false,
          "internalType": "uint256[]",
          "name": "values",
          "type": "uint256[]"
        },
        {
          "indexed": false,
          "internalType": "uint256",
          "name": "timestamp",
          "type": "uint256"
        }
      ],
      "name": "Revealed",
      "type": "event"
    },
    {
      "anonymous": false,
      "inputs": [
        {
          "indexed": true,
          "internalType": "bytes32",
          "name": "role",
          "type": "bytes32"
        },
        {
          "indexed": true,
          "internalType": "bytes32",
          "name": "previousAdminRole",
          "type": "bytes32"
        },
        {
          "indexed": true,
          "internalType": "bytes32",
          "name": "newAdminRole",
          "type": "bytes32"
        }
      ],
      "name": "RoleAdminChanged",
      "type": "event"
    },
    {
      "anonymous": false,
      "inputs": [
        {
          "indexed": true,
          "internalType": "bytes32",
          "name": "role",
          "type": "bytes32"
        },
        {
          "indexed": true,
          "internalType": "address",
          "name": "account",
          "type": "address"
        },
        {
          "indexed": true,
          "internalType": "address",
          "name": "sender",
          "type": "address"
        }
      ],
      "name": "RoleGranted",
      "type": "event"
    },
    {
      "anonymous": false,
      "inputs": [
        {
          "indexed": true,
          "internalType": "bytes32",
          "name": "role",
          "type": "bytes32"
        },
        {
          "indexed": true,
          "internalType": "address",
          "name": "account",
          "type": "address"
        },
        {
          "indexed": true,
          "internalType": "address",
          "name": "sender",
          "type": "address"
        }
      ],
      "name": "RoleRevoked",
      "type": "event"
    },
    {
      "inputs": [],
      "name": "DEFAULT_ADMIN_ROLE",
      "outputs": [
        {
          "internalType": "bytes32",
          "name": "",
          "type": "bytes32"
        }
      ],
      "stateMutability": "view",
      "type": "function"
    },
    {
      "inputs": [],
      "name": "blockManager",
      "outputs": [
        {
          "internalType": "contract IBlockManager",
          "name": "",
          "type": "address"
        }
      ],
      "stateMutability": "view",
      "type": "function"
    },
    {
      "inputs": [
        {
          "internalType": "uint256",
          "name": "epoch",
          "type": "uint256"
        },
        {
          "internalType": "bytes32",
          "name": "commitment",
          "type": "bytes32"
        }
      ],
      "name": "commit",
      "outputs": [],
      "stateMutability": "nonpayable",
      "type": "function"
    },
    {
      "inputs": [
        {
          "internalType": "uint256",
          "name": "",
          "type": "uint256"
        },
        {
          "internalType": "uint256",
          "name": "",
          "type": "uint256"
        }
      ],
      "name": "commitments",
      "outputs": [
        {
          "internalType": "bytes32",
          "name": "",
          "type": "bytes32"
        }
      ],
      "stateMutability": "view",
      "type": "function"
    },
    {
      "inputs": [
        {
          "internalType": "uint256",
          "name": "epoch",
          "type": "uint256"
        },
        {
          "internalType": "uint256",
          "name": "stakerId",
          "type": "uint256"
        }
      ],
      "name": "getCommitment",
      "outputs": [
        {
          "internalType": "bytes32",
          "name": "",
          "type": "bytes32"
        }
      ],
      "stateMutability": "view",
      "type": "function"
    },
    {
      "inputs": [
        {
          "internalType": "bytes32",
          "name": "role",
          "type": "bytes32"
        }
      ],
      "name": "getRoleAdmin",
      "outputs": [
        {
          "internalType": "bytes32",
          "name": "",
          "type": "bytes32"
        }
      ],
      "stateMutability": "view",
      "type": "function"
    },
    {
      "inputs": [
        {
          "internalType": "uint256",
          "name": "epoch",
          "type": "uint256"
        },
        {
          "internalType": "uint256",
          "name": "assetId",
          "type": "uint256"
        }
      ],
      "name": "getTotalStakeRevealed",
      "outputs": [
        {
          "internalType": "uint256",
          "name": "",
          "type": "uint256"
        }
      ],
      "stateMutability": "view",
      "type": "function"
    },
    {
      "inputs": [
        {
          "internalType": "uint256",
          "name": "epoch",
          "type": "uint256"
        },
        {
          "internalType": "uint256",
          "name": "assetId",
          "type": "uint256"
        },
        {
          "internalType": "uint256",
          "name": "voteValue",
          "type": "uint256"
        }
      ],
      "name": "getTotalStakeRevealed",
      "outputs": [
        {
          "internalType": "uint256",
          "name": "",
          "type": "uint256"
        }
      ],
      "stateMutability": "view",
      "type": "function"
    },
    {
      "inputs": [
        {
          "internalType": "uint256",
          "name": "epoch",
          "type": "uint256"
        },
        {
          "internalType": "uint256",
          "name": "stakerId",
          "type": "uint256"
        },
        {
          "internalType": "uint256",
          "name": "assetId",
          "type": "uint256"
        }
      ],
      "name": "getVote",
      "outputs": [
        {
          "components": [
            {
              "internalType": "uint256",
              "name": "value",
              "type": "uint256"
            },
            {
              "internalType": "uint256",
              "name": "weight",
              "type": "uint256"
            }
          ],
          "internalType": "struct Structs.Vote",
          "name": "vote",
          "type": "tuple"
        }
      ],
      "stateMutability": "view",
      "type": "function"
    },
    {
      "inputs": [
        {
          "internalType": "uint256",
          "name": "epoch",
          "type": "uint256"
        },
        {
          "internalType": "uint256",
          "name": "assetId",
          "type": "uint256"
        },
        {
          "internalType": "uint256",
          "name": "voteValue",
          "type": "uint256"
        }
      ],
      "name": "getVoteWeight",
      "outputs": [
        {
          "internalType": "uint256",
          "name": "",
          "type": "uint256"
        }
      ],
      "stateMutability": "view",
      "type": "function"
    },
    {
      "inputs": [
        {
          "internalType": "bytes32",
          "name": "role",
          "type": "bytes32"
        },
        {
          "internalType": "address",
          "name": "account",
          "type": "address"
        }
      ],
      "name": "grantRole",
      "outputs": [],
      "stateMutability": "nonpayable",
      "type": "function"
    },
    {
      "inputs": [
        {
          "internalType": "bytes32",
          "name": "role",
          "type": "bytes32"
        },
        {
          "internalType": "address",
          "name": "account",
          "type": "address"
        }
      ],
      "name": "hasRole",
      "outputs": [
        {
          "internalType": "bool",
          "name": "",
          "type": "bool"
        }
      ],
      "stateMutability": "view",
      "type": "function"
    },
    {
      "inputs": [
        {
          "internalType": "address",
          "name": "stakeManagerAddress",
          "type": "address"
        },
        {
          "internalType": "address",
          "name": "stateManagerAddress",
          "type": "address"
        },
        {
          "internalType": "address",
          "name": "blockManagerAddress",
          "type": "address"
        }
      ],
      "name": "initialize",
      "outputs": [],
      "stateMutability": "nonpayable",
      "type": "function"
    },
    {
      "inputs": [
        {
          "internalType": "bytes32",
          "name": "role",
          "type": "bytes32"
        },
        {
          "internalType": "address",
          "name": "account",
          "type": "address"
        }
      ],
      "name": "renounceRole",
      "outputs": [],
      "stateMutability": "nonpayable",
      "type": "function"
    },
    {
      "inputs": [
        {
          "internalType": "uint256",
          "name": "epoch",
          "type": "uint256"
        },
        {
          "internalType": "bytes32",
          "name": "root",
          "type": "bytes32"
        },
        {
          "internalType": "uint256[]",
          "name": "values",
          "type": "uint256[]"
        },
        {
          "internalType": "bytes32[][]",
          "name": "proofs",
          "type": "bytes32[][]"
        },
        {
          "internalType": "bytes32",
          "name": "secret",
          "type": "bytes32"
        },
        {
          "internalType": "address",
          "name": "stakerAddress",
          "type": "address"
        }
      ],
      "name": "reveal",
      "outputs": [],
      "stateMutability": "nonpayable",
      "type": "function"
    },
    {
      "inputs": [
        {
          "internalType": "bytes32",
          "name": "role",
          "type": "bytes32"
        },
        {
          "internalType": "address",
          "name": "account",
          "type": "address"
        }
      ],
      "name": "revokeRole",
      "outputs": [],
      "stateMutability": "nonpayable",
      "type": "function"
    },
    {
      "inputs": [],
      "name": "stakeManager",
      "outputs": [
        {
          "internalType": "contract IStakeManager",
          "name": "",
          "type": "address"
        }
      ],
      "stateMutability": "view",
      "type": "function"
    },
    {
      "inputs": [],
      "name": "stateManager",
      "outputs": [
        {
          "internalType": "contract IStateManager",
          "name": "",
          "type": "address"
        }
      ],
      "stateMutability": "view",
      "type": "function"
    },
    {
      "inputs": [
        {
          "internalType": "bytes4",
          "name": "interfaceId",
          "type": "bytes4"
        }
      ],
      "name": "supportsInterface",
      "outputs": [
        {
          "internalType": "bool",
          "name": "",
          "type": "bool"
        }
      ],
      "stateMutability": "view",
      "type": "function"
    },
    {
      "inputs": [
        {
          "internalType": "uint256",
          "name": "",
          "type": "uint256"
        },
        {
          "internalType": "uint256",
          "name": "",
          "type": "uint256"
        }
      ],
      "name": "totalStakeRevealed",
      "outputs": [
        {
          "internalType": "uint256",
          "name": "",
          "type": "uint256"
        }
      ],
      "stateMutability": "view",
      "type": "function"
    },
    {
      "inputs": [
        {
          "internalType": "uint256",
          "name": "",
          "type": "uint256"
        },
        {
          "internalType": "uint256",
          "name": "",
          "type": "uint256"
        },
        {
          "internalType": "uint256",
          "name": "",
          "type": "uint256"
        }
      ],
      "name": "voteWeights",
      "outputs": [
        {
          "internalType": "uint256",
          "name": "",
          "type": "uint256"
        }
      ],
      "stateMutability": "view",
      "type": "function"
    },
    {
      "inputs": [
        {
          "internalType": "uint256",
          "name": "",
          "type": "uint256"
        },
        {
          "internalType": "uint256",
          "name": "",
          "type": "uint256"
        },
        {
          "internalType": "uint256",
          "name": "",
          "type": "uint256"
        }
      ],
      "name": "votes",
      "outputs": [
        {
          "internalType": "uint256",
          "name": "value",
          "type": "uint256"
        },
        {
          "internalType": "uint256",
          "name": "weight",
          "type": "uint256"
        }
      ],
      "stateMutability": "view",
      "type": "function"
    }
  ],
  "bytecode": "0x60806040523480156200001157600080fd5b506200001f60003362000025565b620000f1565b62000031828262000035565b5050565b620000418282620000c2565b620000315760008281526001602081815260408084206001600160a01b0386168552909152909120805460ff191690911790556200007e620000ed565b6001600160a01b0316816001600160a01b0316837f2f8788117e7eff1d82e926ec794901d17c78024a50270940304540a733656f0d60405160405180910390a45050565b60009182526001602090815260408084206001600160a01b0393909316845291905290205460ff1690565b3390565b6123fb80620001016000396000f3fe608060405234801561001057600080fd5b50600436106101825760003560e01c80638fd5ff00116100d8578063c0c53b8b1161008c578063d9169b3211610066578063d9169b321461031c578063f2f0387714610324578063f322bd7d146102b557610182565b8063c0c53b8b146102e3578063d13e2e60146102f6578063d547741f1461030957610182565b80639c66556f116100bd5780639c66556f146102b5578063a217fddf146102c8578063a6a145d9146102d057610182565b80638fd5ff001461028f57806391d14854146102a257610182565b80632f2ff15d1161013a5780637542ff95116101145780637542ff95146102545780638a757ecc1461025c5780638ce7ff4a1461026f57610182565b80632f2ff15d1461021b57806336568abe1461022e5780637164f0d61461024157610182565b8063248a9ca31161016b578063248a9ca3146101c5578063283e2905146101e55780632e716fb11461020657610182565b806301ffc9a714610187578063125f68f1146101b0575b600080fd5b61019a610195366004611a94565b610337565b6040516101a79190611e23565b60405180910390f35b6101c36101be366004611cb1565b610395565b005b6101d86101d3366004611a4d565b610cc8565b6040516101a79190611df0565b6101f86101f3366004611d96565b610cde565b6040516101a7929190611de2565b61020e610d08565b6040516101a79190611e0f565b6101c3610229366004611a65565b610d17565b6101c361023c366004611a65565b610d55565b6101d861024f366004611c90565b610d97565b61020e610db4565b6101d861026a366004611c90565b610dc3565b61028261027d366004611d96565b610de0565b6040516101a79190612234565b6101d861029d366004611d96565b610e26565b61019a6102b0366004611a65565b610e49565b6101d86102c3366004611d96565b610e74565b6101d8610e98565b6101d86102de366004611c90565b610e9d565b6101c36102f1366004611a03565b610eba565b6101d8610304366004611c90565b610fb0565b6101c3610317366004611a65565b610fcd565b61020e610ff5565b6101c3610332366004611c90565b611004565b60007fffffffff0000000000000000000000000000000000000000000000000000000082167f7965db0b00000000000000000000000000000000000000000000000000000000148061038d575061038d82611694565b90505b919050565b60005460ff166103c05760405162461bcd60e51b81526004016103b79061208f565b60405180910390fd5b60075460408051630eaf323560e31b8152905188926001600160a01b03169163757991a8916004808301926020929190829003018186803b15801561040457600080fd5b505afa158015610418573d6000803e3d6000fd5b505050506040513d601f19601f8201168201806040525081019061043c9190611c78565b811461045a5760405162461bcd60e51b81526004016103b7906120c6565b600654604051636022a48560e01b81526000916001600160a01b031690636022a4859061048b908690600401611e0f565b60206040518083038186803b1580156104a357600080fd5b505afa1580156104b7573d6000803e3d6000fd5b505050506040513d601f19601f820116820180604052508101906104db9190611c78565b9050600081116104fd5760405162461bcd60e51b81526004016103b790611ffb565b6006546040516371e4cc7f60e11b81526000916001600160a01b03169063e3c998fe9061052e908590600401611df0565b6101006040518083038186803b15801561054757600080fd5b505afa15801561055b573d6000803e3d6000fd5b505050506040513d601f19601f8201168201806040525081019061057f9190611be2565b60008a81526002602090815260408083208684529091529020549091506105b85760405162461bcd60e51b81526004016103b7906120fd565b60008981526002602090815260408083208584528252918290205491516105e5918c918c918a9101611df9565b60405160208183030381529060405280519060200120146106185760405162461bcd60e51b81526004016103b790611e8b565b336001600160a01b0385161415610afe5773__$cb76aa8097a3c0beaf107a478aa049bae7$__63a475b5dd6040518163ffffffff1660e01b815260040160206040518083038186803b15801561066d57600080fd5b505af4158015610681573d6000803e3d6000fd5b505050506040513d601f19601f820116820180604052508101906106a59190611dc1565b60ff16600760009054906101000a90046001600160a01b03166001600160a01b0316631865c57d6040518163ffffffff1660e01b815260040160206040518083038186803b1580156106f657600080fd5b505afa15801561070a573d6000803e3d6000fd5b505050506040513d601f19601f8201168201806040525081019061072e9190611c78565b1461074b5760405162461bcd60e51b81526004016103b790611f30565b600081604001511161076f5760405162461bcd60e51b81526004016103b790611ec2565b60005b875181101561099e576107fa87828151811061079e57634e487b7160e01b600052603260045260246000fd5b60200260200101518a8a84815181106107c757634e487b7160e01b600052603260045260246000fd5b60200260200101516040516020016107df9190611df0565b604051602081830303815290604052805190602001206116de565b6108165760405162461bcd60e51b81526004016103b790611ef9565b604051806040016040528089838151811061084157634e487b7160e01b600052603260045260246000fd5b6020908102919091018101518252604080860180519383019390935260008e81526003835281812088825283528181208682528352818120855181559483015160019095019490945591518d8452600582528284208585529091529082208a51919290918b90859081106108c557634e487b7160e01b600052603260045260246000fd5b60200260200101518152602001908152602001600020546108e69190612337565b60008b815260056020908152604080832085845290915281208a519091908b908590811061092457634e487b7160e01b600052603260045260246000fd5b60200260200101518152602001908152602001600020819055508160400151600460008c81526020019081526020016000206000838152602001908152602001600020546109729190612337565b60008b81526004602090815260408083208584529091529020558061099681612366565b915050610772565b506006546040517ffabb98900000000000000000000000000000000000000000000000000000000081526001600160a01b039091169063fabb9890906109ea9085908d90600401611de2565b600060405180830381600087803b158015610a0457600080fd5b505af1158015610a18573d6000803e3d6000fd5b50505060008a81526002602090815260408083208684529091528082209190915560065490517f9864f70a0000000000000000000000000000000000000000000000000000000081526001600160a01b039091169150639864f70a90610a849085908d90600401611de2565b600060405180830381600087803b158015610a9e57600080fd5b505af1158015610ab2573d6000803e3d6000fd5b505050507f17f4759c403dfc3fa26ab75ce82d3d090a0bdbfe9977d8ee87445d6dd83c68a1898383604001518a42604051610af1959493929190612285565b60405180910390a1610cbd565b73__$cb76aa8097a3c0beaf107a478aa049bae7$__633c7a3aff6040518163ffffffff1660e01b815260040160206040518083038186803b158015610b4257600080fd5b505af4158015610b56573d6000803e3d6000fd5b505050506040513d601f19601f82011682018060405250810190610b7a9190611dc1565b60ff16600760009054906101000a90046001600160a01b03166001600160a01b0316631865c57d6040518163ffffffff1660e01b815260040160206040518083038186803b158015610bcb57600080fd5b505afa158015610bdf573d6000803e3d6000fd5b505050506040513d601f19601f82011682018060405250810190610c039190611c78565b14610c205760405162461bcd60e51b81526004016103b790611fc4565b60008981526002602090815260408083208584529091528082209190915560065490517f0f91ce190000000000000000000000000000000000000000000000000000000081526001600160a01b0390911690630f91ce1990610c8a90859033908e9060040161224b565b600060405180830381600087803b158015610ca457600080fd5b505af1158015610cb8573d6000803e3d6000fd5b505050505b505050505050505050565b6000908152600160208190526040909120015490565b60036020908152600093845260408085208252928452828420905282529020805460019091015482565b6007546001600160a01b031681565b610d2b610d2383610cc8565b6102b0611799565b610d475760405162461bcd60e51b81526004016103b790611e2e565b610d51828261179d565b5050565b610d5d611799565b6001600160a01b0316816001600160a01b031614610d8d5760405162461bcd60e51b81526004016103b7906121a0565b610d518282611825565b600091825260026020908152604080842092845291905290205490565b6006546001600160a01b031681565b600460209081526000928352604080842090915290825290205481565b610de86118aa565b506000838152600360209081526040808320858452825280832084845282529182902082518084019093528054835260010154908201529392505050565b600560209081526000938452604080852082529284528284209052825290205481565b60009182526001602090815260408084206001600160a01b0393909316845291905290205460ff1690565b60009283526005602090815260408085209385529281528284209184525290205490565b600081565b600091825260046020908152604080842092845291905290205490565b600054610100900460ff1680610ed3575060005460ff16155b610eef5760405162461bcd60e51b81526004016103b790612032565b600054610100900460ff16158015610f1a576000805460ff1961ff0019909116610100171660011790555b6000610f268133610e49565b610f425760405162461bcd60e51b81526004016103b790612132565b50600680546001600160a01b038087167fffffffffffffffffffffffff0000000000000000000000000000000000000000928316179092556007805486841690831617905560088054928516929091169190911790558015610faa576000805461ff00191690555b50505050565b600260209081526000928352604080842090915290825290205481565b610fd9610d2383610cc8565b610d8d5760405162461bcd60e51b81526004016103b790611f67565b6008546001600160a01b031681565b60005460ff166110265760405162461bcd60e51b81526004016103b79061208f565b60075460408051630eaf323560e31b8152905184926001600160a01b03169163757991a8916004808301926020929190829003018186803b15801561106a57600080fd5b505afa15801561107e573d6000803e3d6000fd5b505050506040513d601f19601f820116820180604052508101906110a29190611c78565b81146110c05760405162461bcd60e51b81526004016103b7906120c6565b73__$cb76aa8097a3c0beaf107a478aa049bae7$__633c7a3aff6040518163ffffffff1660e01b815260040160206040518083038186803b15801561110457600080fd5b505af4158015611118573d6000803e3d6000fd5b505050506040513d601f19601f8201168201806040525081019061113c9190611dc1565b60ff16600760009054906101000a90046001600160a01b03166001600160a01b0316631865c57d6040518163ffffffff1660e01b815260040160206040518083038186803b15801561118d57600080fd5b505afa1580156111a1573d6000803e3d6000fd5b505050506040513d601f19601f820116820180604052508101906111c59190611c78565b81146111e35760405162461bcd60e51b81526004016103b790612169565b600654604051636022a48560e01b81526000916001600160a01b031690636022a48590611214903390600401611e0f565b60206040518083038186803b15801561122c57600080fd5b505afa158015611240573d6000803e3d6000fd5b505050506040513d601f19601f820116820180604052508101906112649190611c78565b60008681526002602090815260408083208484529091529020549091501561129e5760405162461bcd60e51b81526004016103b7906121fd565b6006546040516371e4cc7f60e11b81526000916001600160a01b03169063e3c998fe906112cf908590600401611df0565b6101006040518083038186803b1580156112e857600080fd5b505afa1580156112fc573d6000803e3d6000fd5b505050506040513d601f19601f820116820180604052508101906113209190611be2565b6008549091506001600160a01b03166304c0756961133f60018961234f565b6040518263ffffffff1660e01b815260040161135b9190611df0565b60006040518083038186803b15801561137357600080fd5b505afa158015611387573d6000803e3d6000fd5b505050506040513d6000823e601f3d908101601f191682016040526113af9190810190611adb565b5115801561144557506008546000906001600160a01b031663e38c7c426113d760018a61234f565b6040518263ffffffff1660e01b81526004016113f39190611df0565b60206040518083038186803b15801561140b57600080fd5b505afa15801561141f573d6000803e3d6000fd5b505050506040513d601f19601f820116820180604052508101906114439190611c78565b115b156114b357600860009054906101000a90046001600160a01b03166001600160a01b0316639b87f6446040518163ffffffff1660e01b8152600401600060405180830381600087803b15801561149a57600080fd5b505af11580156114ae573d6000803e3d6000fd5b505050505b6006546040517f54eae15e0000000000000000000000000000000000000000000000000000000081526001600160a01b03909116906354eae15e906114fe9085908a90600401611de2565b600060405180830381600087803b15801561151857600080fd5b505af115801561152c573d6000803e3d6000fd5b5050505073__$cb76aa8097a3c0beaf107a478aa049bae7$__63375b3c0a6040518163ffffffff1660e01b815260040160206040518083038186803b15801561157457600080fd5b505af4158015611588573d6000803e3d6000fd5b505050506040513d601f19601f820116820180604052508101906115ac9190611c78565b81604001511061168c5760008681526002602090815260408083208584529091529081902086905560065490517f188dc83b0000000000000000000000000000000000000000000000000000000081526001600160a01b039091169063188dc83b9061161c908590600401611df0565b600060405180830381600087803b15801561163657600080fd5b505af115801561164a573d6000803e3d6000fd5b505050507f6ad04b07dbe80ee3971460ebc13808fb6dd0fa67fbf7d7ebc4de85811d2c992886838742604051611683949392919061226a565b60405180910390a15b505050505050565b7fffffffff0000000000000000000000000000000000000000000000000000000081167f01ffc9a70000000000000000000000000000000000000000000000000000000014919050565b600081815b855181101561178e57600086828151811061170e57634e487b7160e01b600052603260045260246000fd5b6020026020010151905080831161174f578281604051602001611732929190611de2565b60405160208183030381529060405280519060200120925061177b565b8083604051602001611762929190611de2565b6040516020818303038152906040528051906020012092505b508061178681612366565b9150506116e3565b509092149392505050565b3390565b6117a78282610e49565b610d515760008281526001602081815260408084206001600160a01b0386168552909152909120805460ff191690911790556117e1611799565b6001600160a01b0316816001600160a01b0316837f2f8788117e7eff1d82e926ec794901d17c78024a50270940304540a733656f0d60405160405180910390a45050565b61182f8282610e49565b15610d515760008281526001602090815260408083206001600160a01b03851684529091529020805460ff19169055611866611799565b6001600160a01b0316816001600160a01b0316837ff6391f5c32d9c69d2a47ea670b442974b53935d1edc7fd64eb21e047a839171b60405160405180910390a45050565b604051806040016040528060008152602001600081525090565b8035610390816123ad565b8051610390816123ad565b600082601f8301126118ea578081fd5b813560206118ff6118fa83612313565b6122e9565b82815281810190858301855b8581101561198c578135880189603f820112611925578788fd5b8581013560406119376118fa83612313565b828152888101908483018a8502860184018f1015611953578c8dfd5b8c95505b84861015611975578035835260019590950194918a01918a01611957565b50885250505093850193509084019060010161190b565b5090979650505050505050565b600082601f8301126119a9578081fd5b815160206119b96118fa83612313565b82815281810190858301838502870184018810156119d5578586fd5b855b8581101561198c578151845292840192908401906001016119d7565b8051801515811461039057600080fd5b600080600060608486031215611a17578283fd5b8335611a22816123ad565b92506020840135611a32816123ad565b91506040840135611a42816123ad565b809150509250925092565b600060208284031215611a5e578081fd5b5035919050565b60008060408385031215611a77578182fd5b823591506020830135611a89816123ad565b809150509250929050565b600060208284031215611aa5578081fd5b81357fffffffff0000000000000000000000000000000000000000000000000000000081168114611ad4578182fd5b9392505050565b600060208284031215611aec578081fd5b815167ffffffffffffffff80821115611b03578283fd5b8184019150610100808387031215611b19578384fd5b611b22816122e9565b905082518152602083015182811115611b39578485fd5b611b4587828601611999565b602083015250604083015182811115611b5c578485fd5b611b6887828601611999565b604083015250606083015182811115611b7f578485fd5b611b8b87828601611999565b606083015250608083015182811115611ba2578485fd5b611bae87828601611999565b60808301525060a083015160a082015260c083015160c0820152611bd460e084016119f3565b60e082015295945050505050565b6000610100808385031215611bf5578182fd5b6040519081019067ffffffffffffffff82118183101715611c1857611c18612397565b8160405283518152611c2c602085016118cf565b602082015260408401516040820152606084015160608201526080840151608082015260a084015160a082015260c084015160c082015260e084015160e0820152809250505092915050565b600060208284031215611c89578081fd5b5051919050565b60008060408385031215611ca2578182fd5b50508035926020909101359150565b60008060008060008060c08789031215611cc9578384fd5b863595506020808801359550604088013567ffffffffffffffff80821115611cef578687fd5b818a0191508a601f830112611d02578687fd5b8135611d106118fa82612313565b81815284810190848601868402860187018f1015611d2c578a8bfd5b8a95505b83861015611d4e578035835260019590950194918601918601611d30565b509850505060608a0135925080831115611d66578485fd5b5050611d7489828a016118da565b93505060808701359150611d8a60a088016118c4565b90509295509295509295565b600080600060608486031215611daa578081fd5b505081359360208301359350604090920135919050565b600060208284031215611dd2578081fd5b815160ff81168114611ad4578182fd5b918252602082015260400190565b90815260200190565b9283526020830191909152604082015260600190565b6001600160a01b0391909116815260200190565b901515815260200190565b6020808252602f908201527f416363657373436f6e74726f6c3a2073656e646572206d75737420626520616e60408201527f2061646d696e20746f206772616e740000000000000000000000000000000000606082015260800190565b60208082526016908201527f696e636f7272656374207365637265742f76616c756500000000000000000000604082015260600190565b60208082526011908201527f6e6f6e706f736974697665207374616b65000000000000000000000000000000604082015260600190565b60208082526014908201527f696e76616c6964206d65726b6c652070726f6f66000000000000000000000000604082015260600190565b60208082526010908201527f4e6f742072657665616c20737461746500000000000000000000000000000000604082015260600190565b60208082526030908201527f416363657373436f6e74726f6c3a2073656e646572206d75737420626520616e60408201527f2061646d696e20746f207265766f6b6500000000000000000000000000000000606082015260800190565b60208082526010908201527f4e6f7420636f6d6d697420737461746500000000000000000000000000000000604082015260600190565b6020808252601d908201527f537472756374732e5374616b657220646f6573206e6f74206578697374000000604082015260600190565b6020808252602e908201527f496e697469616c697a61626c653a20636f6e747261637420697320616c72656160408201527f647920696e697469616c697a6564000000000000000000000000000000000000606082015260800190565b6020808252601e908201527f436f6e74726163742073686f756c6420626520696e697469616c697a65640000604082015260600190565b6020808252600f908201527f696e636f72726563742065706f63680000000000000000000000000000000000604082015260600190565b6020808252818101527f6e6f7420636f6d6d69746564206f7220616c72656164792072657665616c6564604082015260600190565b6020808252601a908201527f41434c3a2073656e646572206e6f7420617574686f72697a6564000000000000604082015260600190565b6020808252600f908201527f696e636f72726563742073746174650000000000000000000000000000000000604082015260600190565b6020808252602f908201527f416363657373436f6e74726f6c3a2063616e206f6e6c792072656e6f756e636560408201527f20726f6c657320666f722073656c660000000000000000000000000000000000606082015260800190565b60208082526010908201527f616c726561647920636f6d6d6974656400000000000000000000000000000000604082015260600190565b815181526020918201519181019190915260400190565b9283526001600160a01b03919091166020830152604082015260600190565b93845260208401929092526040830152606082015260800190565b600060a082018783526020878185015286604085015260a0606085015281865180845260c0860191508288019350845b818110156122d1578451835293830193918301916001016122b5565b50508093505050508260808301529695505050505050565b60405181810167ffffffffffffffff8111828210171561230b5761230b612397565b604052919050565b600067ffffffffffffffff82111561232d5761232d612397565b5060209081020190565b6000821982111561234a5761234a612381565b500190565b60008282101561236157612361612381565b500390565b600060001982141561237a5761237a612381565b5060010190565b634e487b7160e01b600052601160045260246000fd5b634e487b7160e01b600052604160045260246000fd5b6001600160a01b03811681146123c257600080fd5b5056fea26469706673582212204d565dfa1b4e01de152c151ba2ae1be08e4d0e893e19c9fa3b50d37272538c2764736f6c63430008000033",
  "linkReferences": {
    "contracts/lib/Constants.sol": {
      "Constants": [
        {
          "length": 20,
          "start": 1836
        },
        {
          "length": 20,
          "start": 3073
        },
        {
          "length": 20,
          "start": 4547
        },
        {
          "length": 20,
          "start": 5683
        }
      ]
    }
  },
  "deployedLinkReferences": {
    "contracts/lib/Constants.sol": {
      "Constants": [
        {
          "length": 20,
          "start": 1579
        },
        {
          "length": 20,
          "start": 2816
        },
        {
          "length": 20,
          "start": 4290
        },
        {
          "length": 20,
          "start": 5426
        }
      ]
    }
  }
}