{
  "_format": "hh-sol-artifact-1",
  "contractName": "Constants",
  "sourceName": "contracts/lib/Constants.sol",
  "abi": [
    {
      "inputs": [],
      "name": "commit",
      "outputs": [
        {
          "internalType": "uint8",
          "name": "",
          "type": "uint8"
        }
      ],
      "stateMutability": "pure",
      "type": "function"
    },
    {
      "inputs": [],
      "name": "dispute",
      "outputs": [
        {
          "internalType": "uint8",
          "name": "",
          "type": "uint8"
        }
      ],
      "stateMutability": "pure",
      "type": "function"
    },
    {
      "inputs": [],
      "name": "epochLength",
      "outputs": [
        {
          "internalType": "uint256",
          "name": "",
          "type": "uint256"
        }
      ],
      "stateMutability": "pure",
      "type": "function"
    },
    {
      "inputs": [],
      "name": "exposureDenominator",
      "outputs": [
        {
          "internalType": "uint256",
          "name": "",
          "type": "uint256"
        }
      ],
      "stateMutability": "pure",
      "type": "function"
    },
    {
      "inputs": [],
      "name": "getBlockConfirmerHash",
      "outputs": [
        {
          "internalType": "bytes32",
          "name": "",
          "type": "bytes32"
        }
      ],
      "stateMutability": "pure",
      "type": "function"
    },
    {
      "inputs": [],
      "name": "getDefaultAdminHash",
      "outputs": [
        {
          "internalType": "bytes32",
          "name": "",
          "type": "bytes32"
        }
      ],
      "stateMutability": "pure",
      "type": "function"
    },
    {
      "inputs": [],
      "name": "getJobConfirmerHash",
      "outputs": [
        {
          "internalType": "bytes32",
          "name": "",
          "type": "bytes32"
        }
      ],
      "stateMutability": "pure",
      "type": "function"
    },
    {
      "inputs": [],
      "name": "getStakeModifierHash",
      "outputs": [
        {
          "internalType": "bytes32",
          "name": "",
          "type": "bytes32"
        }
      ],
      "stateMutability": "pure",
      "type": "function"
    },
    {
      "inputs": [],
      "name": "getStakerActivityUpdaterHash",
      "outputs": [
        {
          "internalType": "bytes32",
          "name": "",
          "type": "bytes32"
        }
      ],
      "stateMutability": "pure",
      "type": "function"
    },
    {
      "inputs": [],
      "name": "maxAltBlocks",
      "outputs": [
        {
          "internalType": "uint256",
          "name": "",
          "type": "uint256"
        }
      ],
      "stateMutability": "pure",
      "type": "function"
    },
    {
      "inputs": [],
      "name": "minStake",
      "outputs": [
        {
          "internalType": "uint256",
          "name": "",
          "type": "uint256"
        }
      ],
      "stateMutability": "pure",
      "type": "function"
    },
    {
      "inputs": [],
      "name": "numStates",
      "outputs": [
        {
          "internalType": "uint256",
          "name": "",
          "type": "uint256"
        }
      ],
      "stateMutability": "pure",
      "type": "function"
    },
    {
      "inputs": [],
      "name": "penaltyNotRevealDenom",
      "outputs": [
        {
          "internalType": "uint256",
          "name": "",
          "type": "uint256"
        }
      ],
      "stateMutability": "pure",
      "type": "function"
    },
    {
      "inputs": [],
      "name": "penaltyNotRevealNum",
      "outputs": [
        {
          "internalType": "uint256",
          "name": "",
          "type": "uint256"
        }
      ],
      "stateMutability": "pure",
      "type": "function"
    },
    {
      "inputs": [],
      "name": "propose",
      "outputs": [
        {
          "internalType": "uint8",
          "name": "",
          "type": "uint8"
        }
      ],
      "stateMutability": "pure",
      "type": "function"
    },
    {
      "inputs": [],
      "name": "reveal",
      "outputs": [
        {
          "internalType": "uint8",
          "name": "",
          "type": "uint8"
        }
      ],
      "stateMutability": "pure",
      "type": "function"
    },
    {
      "inputs": [],
      "name": "unstakeLockPeriod",
      "outputs": [
        {
          "internalType": "uint256",
          "name": "",
          "type": "uint256"
        }
      ],
      "stateMutability": "pure",
      "type": "function"
    },
    {
      "inputs": [],
      "name": "withdrawLockPeriod",
      "outputs": [
        {
          "internalType": "uint256",
          "name": "",
          "type": "uint256"
        }
      ],
      "stateMutability": "pure",
      "type": "function"
    }
  ],
  "bytecode": "0x61048161003a600b82828239805160001a60731461002d57634e487b7160e01b600052600060045260246000fd5b30600052607381538281f3fe73000000000000000000000000000000000000000030146080604052600436106101405760003560e01c80639cec6f8a116100bc578063b1cc45001161008b578063d98b3ced11610070578063d98b3ced146101d0578063f240f7c3146101d8578063f4f29c5b146101e057610140565b8063b1cc4500146101c0578063c198f8ba146101c857610140565b80639cec6f8a146101a8578063a475b5dd146101b0578063a86f5a3f14610145578063b1a62781146101b857610140565b8063379597e01161011357806357d775f8116100f857806357d775f8146101905780637f890b111461019857806380638d42146101a057610140565b8063379597e0146101735780633c7a3aff1461017b57610140565b80632628490f1461014557806326bf1c03146101455780633002c9ac14610163578063375b3c0a1461016b575b600080fd5b61014d6101e8565b60405161015a91906102c6565b60405180910390f35b61014d6101ed565b61014d6101f3565b61014d610211565b610183610216565b60405161015a91906102cf565b61014d61021b565b61014d610221565b61014d610245565b61014d610269565b6101836101e8565b61014d610216565b61014d61028d565b610183610293565b61014d610298565b6101836102bc565b61014d6102c1565b600190565b6103e890565b60006102016012600a610323565b61020c9060646103fd565b905090565b600590565b600090565b61012c90565b7fbe7b58e17bf6adaa0f209cd0db8b128282fc68a42f2dd649b4d8ea579f1b078f90565b7fdbaaaff2c3744aa215ebd99971829e1c1b728703a0bf252f96685d29011fc80490565b7f4cd3070aaa07d03ab33731cbabd0cb27eb9e074a9430ad006c96941d71b77ece90565b61271090565b600290565b7f18797bc7973e1dadee1895be2f1003818e30eae3b0e7a01eb9b2e66f3ea2771f90565b600390565b600490565b90815260200190565b60ff91909116815260200190565b80825b60018086116102ef575061031a565b8187048211156103015761030161041c565b8086161561030e57918102915b9490941c9380026102e0565b94509492505050565b60006103326000198484610339565b9392505050565b60008261034857506001610332565b8161035557506000610332565b816001811461036b5760028114610375576103a2565b6001915050610332565b60ff8411156103865761038661041c565b6001841b91508482111561039c5761039c61041c565b50610332565b5060208310610133831016604e8410600b84101617156103d5575081810a838111156103d0576103d061041c565b610332565b6103e284848460016102dd565b8086048211156103f4576103f461041c565b02949350505050565b60008160001904831182151516156104175761041761041c565b500290565b7f4e487b7100000000000000000000000000000000000000000000000000000000600052601160045260246000fdfea2646970667358221220710cac3319cafda50221bf40c0c657130e72a6074fcd0583db844baf030d88ed64736f6c63430008000033",
  "linkReferences": {},
  "deployedLinkReferences": {}
}