{"abi":[{"inputs":[{"internalType":"uint256","name":"","type":"uint256"}],"name":"blocks","outputs":[{"internalType":"uint256","name":"proposerId","type":"uint256"},{"internalType":"uint256","name":"iteration","type":"uint256"},{"internalType":"uint256","name":"biggestStake","type":"uint256"},{"internalType":"bool","name":"valid","type":"bool"}],"stateMutability":"view","type":"function"},{"inputs":[{"internalType":"uint256","name":"","type":"uint256"},{"internalType":"address","name":"","type":"address"}],"name":"disputes","outputs":[{"internalType":"uint256","name":"accWeight","type":"uint256"},{"internalType":"uint256","name":"median","type":"uint256"},{"internalType":"uint256","name":"lowerCutoff","type":"uint256"},{"internalType":"uint256","name":"higherCutoff","type":"uint256"},{"internalType":"uint256","name":"lastVisited","type":"uint256"},{"internalType":"uint256","name":"assetId","type":"uint256"}],"stateMutability":"view","type":"function"},{"inputs":[{"internalType":"uint256","name":"","type":"uint256"},{"internalType":"uint256","name":"","type":"uint256"}],"name":"proposedBlocks","outputs":[{"internalType":"uint256","name":"proposerId","type":"uint256"},{"internalType":"uint256","name":"iteration","type":"uint256"},{"internalType":"uint256","name":"biggestStake","type":"uint256"},{"internalType":"bool","name":"valid","type":"bool"}],"stateMutability":"view","type":"function"}],"devdoc":{"kind":"dev","methods":{},"version":1},"evm":{"assembly":"    /* \"BlockStorage.sol\":126:656  contract BlockStorage {... */\n  mstore(0x40, 0x80)\n  callvalue\n  dup1\n  iszero\n  tag_1\n  jumpi\n  0x00\n  dup1\n  revert\ntag_1:\n  pop\n  dataSize(sub_0)\n  dup1\n  dataOffset(sub_0)\n  0x00\n  codecopy\n  0x00\n  return\nstop\n\nsub_0: assembly {\n        /* \"BlockStorage.sol\":126:656  contract BlockStorage {... */\n      mstore(0x40, 0x80)\n      callvalue\n      dup1\n      iszero\n      tag_1\n      jumpi\n      0x00\n      dup1\n      revert\n    tag_1:\n      pop\n      jumpi(tag_2, lt(calldatasize, 0x04))\n      shr(0xe0, calldataload(0x00))\n      dup1\n      0x828496d6\n      eq\n      tag_3\n      jumpi\n      dup1\n      0x92b48411\n      eq\n      tag_4\n      jumpi\n      dup1\n      0xf25b3f99\n      eq\n      tag_5\n      jumpi\n    tag_2:\n      0x00\n      dup1\n      revert\n        /* \"BlockStorage.sol\":193:266  mapping (uint256 => mapping (address => Structs.Dispute)) public disputes */\n    tag_3:\n      tag_6\n      0x04\n      dup1\n      calldatasize\n      sub\n      dup2\n      add\n      swap1\n      tag_7\n      swap2\n      swap1\n      tag_8\n      jump\t// in\n    tag_7:\n      tag_9\n      jump\t// in\n    tag_6:\n      mload(0x40)\n      tag_10\n      swap7\n      swap6\n      swap5\n      swap4\n      swap3\n      swap2\n      swap1\n      tag_11\n      jump\t// in\n    tag_10:\n      mload(0x40)\n      dup1\n      swap2\n      sub\n      swap1\n      return\n        /* \"BlockStorage.sol\":406:464  mapping (uint256 => Structs.Block[]) public proposedBlocks */\n    tag_4:\n      tag_12\n      0x04\n      dup1\n      calldatasize\n      sub\n      dup2\n      add\n      swap1\n      tag_13\n      swap2\n      swap1\n      tag_14\n      jump\t// in\n    tag_13:\n      tag_15\n      jump\t// in\n    tag_12:\n      mload(0x40)\n      tag_16\n      swap5\n      swap4\n      swap3\n      swap2\n      swap1\n      tag_17\n      jump\t// in\n    tag_16:\n      mload(0x40)\n      dup1\n      swap2\n      sub\n      swap1\n      return\n        /* \"BlockStorage.sol\":470:518  mapping (uint256 => Structs.Block) public blocks */\n    tag_5:\n      tag_18\n      0x04\n      dup1\n      calldatasize\n      sub\n      dup2\n      add\n      swap1\n      tag_19\n      swap2\n      swap1\n      tag_20\n      jump\t// in\n    tag_19:\n      tag_21\n      jump\t// in\n    tag_18:\n      mload(0x40)\n      tag_22\n      swap5\n      swap4\n      swap3\n      swap2\n      swap1\n      tag_17\n      jump\t// in\n    tag_22:\n      mload(0x40)\n      dup1\n      swap2\n      sub\n      swap1\n      return\n        /* \"BlockStorage.sol\":193:266  mapping (uint256 => mapping (address => Structs.Dispute)) public disputes */\n    tag_9:\n      mstore(0x20, 0x00)\n      dup2\n      0x00\n      mstore\n      mstore(0x20, keccak256(0x00, 0x40))\n      dup1\n      0x00\n      mstore\n      keccak256(0x00, 0x40)\n      0x00\n      swap2\n      pop\n      swap2\n      pop\n      pop\n      dup1\n      0x00\n      add\n      sload\n      swap1\n      dup1\n      0x01\n      add\n      sload\n      swap1\n      dup1\n      0x02\n      add\n      sload\n      swap1\n      dup1\n      0x03\n      add\n      sload\n      swap1\n      dup1\n      0x04\n      add\n      sload\n      swap1\n      dup1\n      0x05\n      add\n      sload\n      swap1\n      pop\n      dup7\n      jump\t// out\n        /* \"BlockStorage.sol\":406:464  mapping (uint256 => Structs.Block[]) public proposedBlocks */\n    tag_15:\n      mstore(0x20, 0x01)\n      dup2\n      0x00\n      mstore\n      keccak256(0x00, 0x40)\n      dup2\n      dup2\n      sload\n      dup2\n      lt\n      tag_23\n      jumpi\n      invalid\n    tag_23:\n      swap1\n      0x00\n      mstore\n      keccak256(0x00, 0x20)\n      swap1\n      0x08\n      mul\n      add\n      0x00\n      swap2\n      pop\n      swap2\n      pop\n      pop\n      dup1\n      0x00\n      add\n      sload\n      swap1\n      dup1\n      0x05\n      add\n      sload\n      swap1\n      dup1\n      0x06\n      add\n      sload\n      swap1\n      dup1\n      0x07\n      add\n      0x00\n      swap1\n      sload\n      swap1\n      0x0100\n      exp\n      swap1\n      div\n      0xff\n      and\n      swap1\n      pop\n      dup5\n      jump\t// out\n        /* \"BlockStorage.sol\":470:518  mapping (uint256 => Structs.Block) public blocks */\n    tag_21:\n      mstore(0x20, 0x02)\n      dup1\n      0x00\n      mstore\n      keccak256(0x00, 0x40)\n      0x00\n      swap2\n      pop\n      swap1\n      pop\n      dup1\n      0x00\n      add\n      sload\n      swap1\n      dup1\n      0x05\n      add\n      sload\n      swap1\n      dup1\n      0x06\n      add\n      sload\n      swap1\n      dup1\n      0x07\n      add\n      0x00\n      swap1\n      sload\n      swap1\n      0x0100\n      exp\n      swap1\n      div\n      0xff\n      and\n      swap1\n      pop\n      dup5\n      jump\t// out\n        /* \"--CODEGEN--\":5:135   */\n    tag_26:\n      0x00\n        /* \"--CODEGEN--\":85:91   */\n      dup2\n        /* \"--CODEGEN--\":72:92   */\n      calldataload\n        /* \"--CODEGEN--\":63:92   */\n      swap1\n      pop\n        /* \"--CODEGEN--\":97:130   */\n      tag_28\n        /* \"--CODEGEN--\":124:129   */\n      dup2\n        /* \"--CODEGEN--\":97:130   */\n      tag_29\n      jump\t// in\n    tag_28:\n        /* \"--CODEGEN--\":57:135   */\n      swap3\n      swap2\n      pop\n      pop\n      jump\t// out\n        /* \"--CODEGEN--\":142:272   */\n    tag_30:\n      0x00\n        /* \"--CODEGEN--\":222:228   */\n      dup2\n        /* \"--CODEGEN--\":209:229   */\n      calldataload\n        /* \"--CODEGEN--\":200:229   */\n      swap1\n      pop\n        /* \"--CODEGEN--\":234:267   */\n      tag_32\n        /* \"--CODEGEN--\":261:266   */\n      dup2\n        /* \"--CODEGEN--\":234:267   */\n      tag_33\n      jump\t// in\n    tag_32:\n        /* \"--CODEGEN--\":194:272   */\n      swap3\n      swap2\n      pop\n      pop\n      jump\t// out\n        /* \"--CODEGEN--\":279:520   */\n    tag_20:\n      0x00\n        /* \"--CODEGEN--\":383:385   */\n      0x20\n        /* \"--CODEGEN--\":371:380   */\n      dup3\n        /* \"--CODEGEN--\":362:369   */\n      dup5\n        /* \"--CODEGEN--\":358:381   */\n      sub\n        /* \"--CODEGEN--\":354:386   */\n      slt\n        /* \"--CODEGEN--\":351:353   */\n      iszero\n      tag_35\n      jumpi\n        /* \"--CODEGEN--\":399:400   */\n      0x00\n        /* \"--CODEGEN--\":396:397   */\n      dup1\n        /* \"--CODEGEN--\":389:401   */\n      revert\n        /* \"--CODEGEN--\":351:353   */\n    tag_35:\n        /* \"--CODEGEN--\":434:435   */\n      0x00\n        /* \"--CODEGEN--\":451:504   */\n      tag_36\n        /* \"--CODEGEN--\":496:503   */\n      dup5\n        /* \"--CODEGEN--\":487:493   */\n      dup3\n        /* \"--CODEGEN--\":476:485   */\n      dup6\n        /* \"--CODEGEN--\":472:494   */\n      add\n        /* \"--CODEGEN--\":451:504   */\n      tag_30\n      jump\t// in\n    tag_36:\n        /* \"--CODEGEN--\":441:504   */\n      swap2\n      pop\n        /* \"--CODEGEN--\":413:510   */\n      pop\n        /* \"--CODEGEN--\":345:520   */\n      swap3\n      swap2\n      pop\n      pop\n      jump\t// out\n        /* \"--CODEGEN--\":527:893   */\n    tag_8:\n      0x00\n      dup1\n        /* \"--CODEGEN--\":648:650   */\n      0x40\n        /* \"--CODEGEN--\":636:645   */\n      dup4\n        /* \"--CODEGEN--\":627:634   */\n      dup6\n        /* \"--CODEGEN--\":623:646   */\n      sub\n        /* \"--CODEGEN--\":619:651   */\n      slt\n        /* \"--CODEGEN--\":616:618   */\n      iszero\n      tag_38\n      jumpi\n        /* \"--CODEGEN--\":664:665   */\n      0x00\n        /* \"--CODEGEN--\":661:662   */\n      dup1\n        /* \"--CODEGEN--\":654:666   */\n      revert\n        /* \"--CODEGEN--\":616:618   */\n    tag_38:\n        /* \"--CODEGEN--\":699:700   */\n      0x00\n        /* \"--CODEGEN--\":716:769   */\n      tag_39\n        /* \"--CODEGEN--\":761:768   */\n      dup6\n        /* \"--CODEGEN--\":752:758   */\n      dup3\n        /* \"--CODEGEN--\":741:750   */\n      dup7\n        /* \"--CODEGEN--\":737:759   */\n      add\n        /* \"--CODEGEN--\":716:769   */\n      tag_30\n      jump\t// in\n    tag_39:\n        /* \"--CODEGEN--\":706:769   */\n      swap3\n      pop\n        /* \"--CODEGEN--\":678:775   */\n      pop\n        /* \"--CODEGEN--\":806:808   */\n      0x20\n        /* \"--CODEGEN--\":824:877   */\n      tag_40\n        /* \"--CODEGEN--\":869:876   */\n      dup6\n        /* \"--CODEGEN--\":860:866   */\n      dup3\n        /* \"--CODEGEN--\":849:858   */\n      dup7\n        /* \"--CODEGEN--\":845:867   */\n      add\n        /* \"--CODEGEN--\":824:877   */\n      tag_26\n      jump\t// in\n    tag_40:\n        /* \"--CODEGEN--\":814:877   */\n      swap2\n      pop\n        /* \"--CODEGEN--\":785:883   */\n      pop\n        /* \"--CODEGEN--\":610:893   */\n      swap3\n      pop\n      swap3\n      swap1\n      pop\n      jump\t// out\n        /* \"--CODEGEN--\":900:1266   */\n    tag_14:\n      0x00\n      dup1\n        /* \"--CODEGEN--\":1021:1023   */\n      0x40\n        /* \"--CODEGEN--\":1009:1018   */\n      dup4\n        /* \"--CODEGEN--\":1000:1007   */\n      dup6\n        /* \"--CODEGEN--\":996:1019   */\n      sub\n        /* \"--CODEGEN--\":992:1024   */\n      slt\n        /* \"--CODEGEN--\":989:991   */\n      iszero\n      tag_42\n      jumpi\n        /* \"--CODEGEN--\":1037:1038   */\n      0x00\n        /* \"--CODEGEN--\":1034:1035   */\n      dup1\n        /* \"--CODEGEN--\":1027:1039   */\n      revert\n        /* \"--CODEGEN--\":989:991   */\n    tag_42:\n        /* \"--CODEGEN--\":1072:1073   */\n      0x00\n        /* \"--CODEGEN--\":1089:1142   */\n      tag_43\n        /* \"--CODEGEN--\":1134:1141   */\n      dup6\n        /* \"--CODEGEN--\":1125:1131   */\n      dup3\n        /* \"--CODEGEN--\":1114:1123   */\n      dup7\n        /* \"--CODEGEN--\":1110:1132   */\n      add\n        /* \"--CODEGEN--\":1089:1142   */\n      tag_30\n      jump\t// in\n    tag_43:\n        /* \"--CODEGEN--\":1079:1142   */\n      swap3\n      pop\n        /* \"--CODEGEN--\":1051:1148   */\n      pop\n        /* \"--CODEGEN--\":1179:1181   */\n      0x20\n        /* \"--CODEGEN--\":1197:1250   */\n      tag_44\n        /* \"--CODEGEN--\":1242:1249   */\n      dup6\n        /* \"--CODEGEN--\":1233:1239   */\n      dup3\n        /* \"--CODEGEN--\":1222:1231   */\n      dup7\n        /* \"--CODEGEN--\":1218:1240   */\n      add\n        /* \"--CODEGEN--\":1197:1250   */\n      tag_30\n      jump\t// in\n    tag_44:\n        /* \"--CODEGEN--\":1187:1250   */\n      swap2\n      pop\n        /* \"--CODEGEN--\":1158:1256   */\n      pop\n        /* \"--CODEGEN--\":983:1266   */\n      swap3\n      pop\n      swap3\n      swap1\n      pop\n      jump\t// out\n        /* \"--CODEGEN--\":1273:1377   */\n    tag_45:\n        /* \"--CODEGEN--\":1350:1371   */\n      tag_47\n        /* \"--CODEGEN--\":1365:1370   */\n      dup2\n        /* \"--CODEGEN--\":1350:1371   */\n      tag_48\n      jump\t// in\n    tag_47:\n        /* \"--CODEGEN--\":1345:1348   */\n      dup3\n        /* \"--CODEGEN--\":1338:1372   */\n      mstore\n        /* \"--CODEGEN--\":1332:1377   */\n      pop\n      pop\n      jump\t// out\n        /* \"--CODEGEN--\":1384:1497   */\n    tag_49:\n        /* \"--CODEGEN--\":1467:1491   */\n      tag_51\n        /* \"--CODEGEN--\":1485:1490   */\n      dup2\n        /* \"--CODEGEN--\":1467:1491   */\n      tag_52\n      jump\t// in\n    tag_51:\n        /* \"--CODEGEN--\":1462:1465   */\n      dup3\n        /* \"--CODEGEN--\":1455:1492   */\n      mstore\n        /* \"--CODEGEN--\":1449:1497   */\n      pop\n      pop\n      jump\t// out\n        /* \"--CODEGEN--\":1504:2048   */\n    tag_17:\n      0x00\n        /* \"--CODEGEN--\":1709:1712   */\n      0x80\n        /* \"--CODEGEN--\":1698:1707   */\n      dup3\n        /* \"--CODEGEN--\":1694:1713   */\n      add\n        /* \"--CODEGEN--\":1686:1713   */\n      swap1\n      pop\n        /* \"--CODEGEN--\":1724:1795   */\n      tag_54\n        /* \"--CODEGEN--\":1792:1793   */\n      0x00\n        /* \"--CODEGEN--\":1781:1790   */\n      dup4\n        /* \"--CODEGEN--\":1777:1794   */\n      add\n        /* \"--CODEGEN--\":1768:1774   */\n      dup8\n        /* \"--CODEGEN--\":1724:1795   */\n      tag_49\n      jump\t// in\n    tag_54:\n        /* \"--CODEGEN--\":1806:1878   */\n      tag_55\n        /* \"--CODEGEN--\":1874:1876   */\n      0x20\n        /* \"--CODEGEN--\":1863:1872   */\n      dup4\n        /* \"--CODEGEN--\":1859:1877   */\n      add\n        /* \"--CODEGEN--\":1850:1856   */\n      dup7\n        /* \"--CODEGEN--\":1806:1878   */\n      tag_49\n      jump\t// in\n    tag_55:\n        /* \"--CODEGEN--\":1889:1961   */\n      tag_56\n        /* \"--CODEGEN--\":1957:1959   */\n      0x40\n        /* \"--CODEGEN--\":1946:1955   */\n      dup4\n        /* \"--CODEGEN--\":1942:1960   */\n      add\n        /* \"--CODEGEN--\":1933:1939   */\n      dup6\n        /* \"--CODEGEN--\":1889:1961   */\n      tag_49\n      jump\t// in\n    tag_56:\n        /* \"--CODEGEN--\":1972:2038   */\n      tag_57\n        /* \"--CODEGEN--\":2034:2036   */\n      0x60\n        /* \"--CODEGEN--\":2023:2032   */\n      dup4\n        /* \"--CODEGEN--\":2019:2037   */\n      add\n        /* \"--CODEGEN--\":2010:2016   */\n      dup5\n        /* \"--CODEGEN--\":1972:2038   */\n      tag_45\n      jump\t// in\n    tag_57:\n        /* \"--CODEGEN--\":1680:2048   */\n      swap6\n      swap5\n      pop\n      pop\n      pop\n      pop\n      pop\n      jump\t// out\n        /* \"--CODEGEN--\":2055:2835   */\n    tag_11:\n      0x00\n        /* \"--CODEGEN--\":2322:2325   */\n      0xc0\n        /* \"--CODEGEN--\":2311:2320   */\n      dup3\n        /* \"--CODEGEN--\":2307:2326   */\n      add\n        /* \"--CODEGEN--\":2299:2326   */\n      swap1\n      pop\n        /* \"--CODEGEN--\":2337:2408   */\n      tag_59\n        /* \"--CODEGEN--\":2405:2406   */\n      0x00\n        /* \"--CODEGEN--\":2394:2403   */\n      dup4\n        /* \"--CODEGEN--\":2390:2407   */\n      add\n        /* \"--CODEGEN--\":2381:2387   */\n      dup10\n        /* \"--CODEGEN--\":2337:2408   */\n      tag_49\n      jump\t// in\n    tag_59:\n        /* \"--CODEGEN--\":2419:2491   */\n      tag_60\n        /* \"--CODEGEN--\":2487:2489   */\n      0x20\n        /* \"--CODEGEN--\":2476:2485   */\n      dup4\n        /* \"--CODEGEN--\":2472:2490   */\n      add\n        /* \"--CODEGEN--\":2463:2469   */\n      dup9\n        /* \"--CODEGEN--\":2419:2491   */\n      tag_49\n      jump\t// in\n    tag_60:\n        /* \"--CODEGEN--\":2502:2574   */\n      tag_61\n        /* \"--CODEGEN--\":2570:2572   */\n      0x40\n        /* \"--CODEGEN--\":2559:2568   */\n      dup4\n        /* \"--CODEGEN--\":2555:2573   */\n      add\n        /* \"--CODEGEN--\":2546:2552   */\n      dup8\n        /* \"--CODEGEN--\":2502:2574   */\n      tag_49\n      jump\t// in\n    tag_61:\n        /* \"--CODEGEN--\":2585:2657   */\n      tag_62\n        /* \"--CODEGEN--\":2653:2655   */\n      0x60\n        /* \"--CODEGEN--\":2642:2651   */\n      dup4\n        /* \"--CODEGEN--\":2638:2656   */\n      add\n        /* \"--CODEGEN--\":2629:2635   */\n      dup7\n        /* \"--CODEGEN--\":2585:2657   */\n      tag_49\n      jump\t// in\n    tag_62:\n        /* \"--CODEGEN--\":2668:2741   */\n      tag_63\n        /* \"--CODEGEN--\":2736:2739   */\n      0x80\n        /* \"--CODEGEN--\":2725:2734   */\n      dup4\n        /* \"--CODEGEN--\":2721:2740   */\n      add\n        /* \"--CODEGEN--\":2712:2718   */\n      dup6\n        /* \"--CODEGEN--\":2668:2741   */\n      tag_49\n      jump\t// in\n    tag_63:\n        /* \"--CODEGEN--\":2752:2825   */\n      tag_64\n        /* \"--CODEGEN--\":2820:2823   */\n      0xa0\n        /* \"--CODEGEN--\":2809:2818   */\n      dup4\n        /* \"--CODEGEN--\":2805:2824   */\n      add\n        /* \"--CODEGEN--\":2796:2802   */\n      dup5\n        /* \"--CODEGEN--\":2752:2825   */\n      tag_49\n      jump\t// in\n    tag_64:\n        /* \"--CODEGEN--\":2293:2835   */\n      swap8\n      swap7\n      pop\n      pop\n      pop\n      pop\n      pop\n      pop\n      pop\n      jump\t// out\n        /* \"--CODEGEN--\":2842:2933   */\n    tag_65:\n      0x00\n        /* \"--CODEGEN--\":2904:2928   */\n      tag_67\n        /* \"--CODEGEN--\":2922:2927   */\n      dup3\n        /* \"--CODEGEN--\":2904:2928   */\n      tag_68\n      jump\t// in\n    tag_67:\n        /* \"--CODEGEN--\":2893:2928   */\n      swap1\n      pop\n        /* \"--CODEGEN--\":2887:2933   */\n      swap2\n      swap1\n      pop\n      jump\t// out\n        /* \"--CODEGEN--\":2940:3025   */\n    tag_48:\n      0x00\n        /* \"--CODEGEN--\":3013:3018   */\n      dup2\n        /* \"--CODEGEN--\":3006:3019   */\n      iszero\n        /* \"--CODEGEN--\":2999:3020   */\n      iszero\n        /* \"--CODEGEN--\":2988:3020   */\n      swap1\n      pop\n        /* \"--CODEGEN--\":2982:3025   */\n      swap2\n      swap1\n      pop\n      jump\t// out\n        /* \"--CODEGEN--\":3032:3153   */\n    tag_68:\n      0x00\n        /* \"--CODEGEN--\":3105:3147   */\n      0xffffffffffffffffffffffffffffffffffffffff\n        /* \"--CODEGEN--\":3098:3103   */\n      dup3\n        /* \"--CODEGEN--\":3094:3148   */\n      and\n        /* \"--CODEGEN--\":3083:3148   */\n      swap1\n      pop\n        /* \"--CODEGEN--\":3077:3153   */\n      swap2\n      swap1\n      pop\n      jump\t// out\n        /* \"--CODEGEN--\":3160:3232   */\n    tag_52:\n      0x00\n        /* \"--CODEGEN--\":3222:3227   */\n      dup2\n        /* \"--CODEGEN--\":3211:3227   */\n      swap1\n      pop\n        /* \"--CODEGEN--\":3205:3232   */\n      swap2\n      swap1\n      pop\n      jump\t// out\n        /* \"--CODEGEN--\":3239:3356   */\n    tag_29:\n        /* \"--CODEGEN--\":3308:3332   */\n      tag_73\n        /* \"--CODEGEN--\":3326:3331   */\n      dup2\n        /* \"--CODEGEN--\":3308:3332   */\n      tag_65\n      jump\t// in\n    tag_73:\n        /* \"--CODEGEN--\":3301:3306   */\n      dup2\n        /* \"--CODEGEN--\":3298:3333   */\n      eq\n        /* \"--CODEGEN--\":3288:3290   */\n      tag_74\n      jumpi\n        /* \"--CODEGEN--\":3347:3348   */\n      0x00\n        /* \"--CODEGEN--\":3344:3345   */\n      dup1\n        /* \"--CODEGEN--\":3337:3349   */\n      revert\n        /* \"--CODEGEN--\":3288:3290   */\n    tag_74:\n        /* \"--CODEGEN--\":3282:3356   */\n      pop\n      jump\t// out\n        /* \"--CODEGEN--\":3363:3480   */\n    tag_33:\n        /* \"--CODEGEN--\":3432:3456   */\n      tag_76\n        /* \"--CODEGEN--\":3450:3455   */\n      dup2\n        /* \"--CODEGEN--\":3432:3456   */\n      tag_52\n      jump\t// in\n    tag_76:\n        /* \"--CODEGEN--\":3425:3430   */\n      dup2\n        /* \"--CODEGEN--\":3422:3457   */\n      eq\n        /* \"--CODEGEN--\":3412:3414   */\n      tag_77\n      jumpi\n        /* \"--CODEGEN--\":3471:3472   */\n      0x00\n        /* \"--CODEGEN--\":3468:3469   */\n      dup1\n        /* \"--CODEGEN--\":3461:3473   */\n      revert\n        /* \"--CODEGEN--\":3412:3414   */\n    tag_77:\n        /* \"--CODEGEN--\":3406:3480   */\n      pop\n      jump\t// out\n\n    auxdata: 0xa264697066735822122043c58e32ce7e942377f65197403762ccbf4c4758ca0593d6ed509c9576bfc58264736f6c634300060b0033\n}\n","bytecode":{"linkReferences":{},"object":"608060405234801561001057600080fd5b506103f9806100206000396000f3fe608060405234801561001057600080fd5b50600436106100415760003560e01c8063828496d61461004657806392b484111461007b578063f25b3f99146100ae575b600080fd5b610060600480360381019061005b9190610211565b6100e1565b604051610072969594939291906102ec565b60405180910390f35b6100956004803603810190610090919061024d565b61012a565b6040516100a594939291906102a7565b60405180910390f35b6100c860048036038101906100c391906101e8565b610181565b6040516100d894939291906102a7565b60405180910390f35b6000602052816000526040600020602052806000526040600020600091509150508060000154908060010154908060020154908060030154908060040154908060050154905086565b6001602052816000526040600020818154811061014357fe5b9060005260206000209060080201600091509150508060000154908060050154908060060154908060070160009054906101000a900460ff16905084565b60026020528060005260406000206000915090508060000154908060050154908060060154908060070160009054906101000a900460ff16905084565b6000813590506101cd81610395565b92915050565b6000813590506101e2816103ac565b92915050565b6000602082840312156101fa57600080fd5b6000610208848285016101d3565b91505092915050565b6000806040838503121561022457600080fd5b6000610232858286016101d3565b9250506020610243858286016101be565b9150509250929050565b6000806040838503121561026057600080fd5b600061026e858286016101d3565b925050602061027f858286016101d3565b9150509250929050565b6102928161035f565b82525050565b6102a18161038b565b82525050565b60006080820190506102bc6000830187610298565b6102c96020830186610298565b6102d66040830185610298565b6102e36060830184610289565b95945050505050565b600060c0820190506103016000830189610298565b61030e6020830188610298565b61031b6040830187610298565b6103286060830186610298565b6103356080830185610298565b61034260a0830184610298565b979650505050505050565b60006103588261036b565b9050919050565b60008115159050919050565b600073ffffffffffffffffffffffffffffffffffffffff82169050919050565b6000819050919050565b61039e8161034d565b81146103a957600080fd5b50565b6103b58161038b565b81146103c057600080fd5b5056fea264697066735822122043c58e32ce7e942377f65197403762ccbf4c4758ca0593d6ed509c9576bfc58264736f6c634300060b0033","opcodes":"PUSH1 0x80 PUSH1 0x40 MSTORE CALLVALUE DUP1 ISZERO PUSH2 0x10 JUMPI PUSH1 0x0 DUP1 REVERT JUMPDEST POP PUSH2 0x3F9 DUP1 PUSH2 0x20 PUSH1 0x0 CODECOPY PUSH1 0x0 RETURN INVALID PUSH1 0x80 PUSH1 0x40 MSTORE CALLVALUE DUP1 ISZERO PUSH2 0x10 JUMPI PUSH1 0x0 DUP1 REVERT JUMPDEST POP PUSH1 0x4 CALLDATASIZE LT PUSH2 0x41 JUMPI PUSH1 0x0 CALLDATALOAD PUSH1 0xE0 SHR DUP1 PUSH4 0x828496D6 EQ PUSH2 0x46 JUMPI DUP1 PUSH4 0x92B48411 EQ PUSH2 0x7B JUMPI DUP1 PUSH4 0xF25B3F99 EQ PUSH2 0xAE JUMPI JUMPDEST PUSH1 0x0 DUP1 REVERT JUMPDEST PUSH2 0x60 PUSH1 0x4 DUP1 CALLDATASIZE SUB DUP2 ADD SWAP1 PUSH2 0x5B SWAP2 SWAP1 PUSH2 0x211 JUMP JUMPDEST PUSH2 0xE1 JUMP JUMPDEST PUSH1 0x40 MLOAD PUSH2 0x72 SWAP7 SWAP6 SWAP5 SWAP4 SWAP3 SWAP2 SWAP1 PUSH2 0x2EC JUMP JUMPDEST PUSH1 0x40 MLOAD DUP1 SWAP2 SUB SWAP1 RETURN JUMPDEST PUSH2 0x95 PUSH1 0x4 DUP1 CALLDATASIZE SUB DUP2 ADD SWAP1 PUSH2 0x90 SWAP2 SWAP1 PUSH2 0x24D JUMP JUMPDEST PUSH2 0x12A JUMP JUMPDEST PUSH1 0x40 MLOAD PUSH2 0xA5 SWAP5 SWAP4 SWAP3 SWAP2 SWAP1 PUSH2 0x2A7 JUMP JUMPDEST PUSH1 0x40 MLOAD DUP1 SWAP2 SUB SWAP1 RETURN JUMPDEST PUSH2 0xC8 PUSH1 0x4 DUP1 CALLDATASIZE SUB DUP2 ADD SWAP1 PUSH2 0xC3 SWAP2 SWAP1 PUSH2 0x1E8 JUMP JUMPDEST PUSH2 0x181 JUMP JUMPDEST PUSH1 0x40 MLOAD PUSH2 0xD8 SWAP5 SWAP4 SWAP3 SWAP2 SWAP1 PUSH2 0x2A7 JUMP JUMPDEST PUSH1 0x40 MLOAD DUP1 SWAP2 SUB SWAP1 RETURN JUMPDEST PUSH1 0x0 PUSH1 0x20 MSTORE DUP2 PUSH1 0x0 MSTORE PUSH1 0x40 PUSH1 0x0 KECCAK256 PUSH1 0x20 MSTORE DUP1 PUSH1 0x0 MSTORE PUSH1 0x40 PUSH1 0x0 KECCAK256 PUSH1 0x0 SWAP2 POP SWAP2 POP POP DUP1 PUSH1 0x0 ADD SLOAD SWAP1 DUP1 PUSH1 0x1 ADD SLOAD SWAP1 DUP1 PUSH1 0x2 ADD SLOAD SWAP1 DUP1 PUSH1 0x3 ADD SLOAD SWAP1 DUP1 PUSH1 0x4 ADD SLOAD SWAP1 DUP1 PUSH1 0x5 ADD SLOAD SWAP1 POP DUP7 JUMP JUMPDEST PUSH1 0x1 PUSH1 0x20 MSTORE DUP2 PUSH1 0x0 MSTORE PUSH1 0x40 PUSH1 0x0 KECCAK256 DUP2 DUP2 SLOAD DUP2 LT PUSH2 0x143 JUMPI INVALID JUMPDEST SWAP1 PUSH1 0x0 MSTORE PUSH1 0x20 PUSH1 0x0 KECCAK256 SWAP1 PUSH1 0x8 MUL ADD PUSH1 0x0 SWAP2 POP SWAP2 POP POP DUP1 PUSH1 0x0 ADD SLOAD SWAP1 DUP1 PUSH1 0x5 ADD SLOAD SWAP1 DUP1 PUSH1 0x6 ADD SLOAD SWAP1 DUP1 PUSH1 0x7 ADD PUSH1 0x0 SWAP1 SLOAD SWAP1 PUSH2 0x100 EXP SWAP1 DIV PUSH1 0xFF AND SWAP1 POP DUP5 JUMP JUMPDEST PUSH1 0x2 PUSH1 0x20 MSTORE DUP1 PUSH1 0x0 MSTORE PUSH1 0x40 PUSH1 0x0 KECCAK256 PUSH1 0x0 SWAP2 POP SWAP1 POP DUP1 PUSH1 0x0 ADD SLOAD SWAP1 DUP1 PUSH1 0x5 ADD SLOAD SWAP1 DUP1 PUSH1 0x6 ADD SLOAD SWAP1 DUP1 PUSH1 0x7 ADD PUSH1 0x0 SWAP1 SLOAD SWAP1 PUSH2 0x100 EXP SWAP1 DIV PUSH1 0xFF AND SWAP1 POP DUP5 JUMP JUMPDEST PUSH1 0x0 DUP2 CALLDATALOAD SWAP1 POP PUSH2 0x1CD DUP2 PUSH2 0x395 JUMP JUMPDEST SWAP3 SWAP2 POP POP JUMP JUMPDEST PUSH1 0x0 DUP2 CALLDATALOAD SWAP1 POP PUSH2 0x1E2 DUP2 PUSH2 0x3AC JUMP JUMPDEST SWAP3 SWAP2 POP POP JUMP JUMPDEST PUSH1 0x0 PUSH1 0x20 DUP3 DUP5 SUB SLT ISZERO PUSH2 0x1FA JUMPI PUSH1 0x0 DUP1 REVERT JUMPDEST PUSH1 0x0 PUSH2 0x208 DUP5 DUP3 DUP6 ADD PUSH2 0x1D3 JUMP JUMPDEST SWAP2 POP POP SWAP3 SWAP2 POP POP JUMP JUMPDEST PUSH1 0x0 DUP1 PUSH1 0x40 DUP4 DUP6 SUB SLT ISZERO PUSH2 0x224 JUMPI PUSH1 0x0 DUP1 REVERT JUMPDEST PUSH1 0x0 PUSH2 0x232 DUP6 DUP3 DUP7 ADD PUSH2 0x1D3 JUMP JUMPDEST SWAP3 POP POP PUSH1 0x20 PUSH2 0x243 DUP6 DUP3 DUP7 ADD PUSH2 0x1BE JUMP JUMPDEST SWAP2 POP POP SWAP3 POP SWAP3 SWAP1 POP JUMP JUMPDEST PUSH1 0x0 DUP1 PUSH1 0x40 DUP4 DUP6 SUB SLT ISZERO PUSH2 0x260 JUMPI PUSH1 0x0 DUP1 REVERT JUMPDEST PUSH1 0x0 PUSH2 0x26E DUP6 DUP3 DUP7 ADD PUSH2 0x1D3 JUMP JUMPDEST SWAP3 POP POP PUSH1 0x20 PUSH2 0x27F DUP6 DUP3 DUP7 ADD PUSH2 0x1D3 JUMP JUMPDEST SWAP2 POP POP SWAP3 POP SWAP3 SWAP1 POP JUMP JUMPDEST PUSH2 0x292 DUP2 PUSH2 0x35F JUMP JUMPDEST DUP3 MSTORE POP POP JUMP JUMPDEST PUSH2 0x2A1 DUP2 PUSH2 0x38B JUMP JUMPDEST DUP3 MSTORE POP POP JUMP JUMPDEST PUSH1 0x0 PUSH1 0x80 DUP3 ADD SWAP1 POP PUSH2 0x2BC PUSH1 0x0 DUP4 ADD DUP8 PUSH2 0x298 JUMP JUMPDEST PUSH2 0x2C9 PUSH1 0x20 DUP4 ADD DUP7 PUSH2 0x298 JUMP JUMPDEST PUSH2 0x2D6 PUSH1 0x40 DUP4 ADD DUP6 PUSH2 0x298 JUMP JUMPDEST PUSH2 0x2E3 PUSH1 0x60 DUP4 ADD DUP5 PUSH2 0x289 JUMP JUMPDEST SWAP6 SWAP5 POP POP POP POP POP JUMP JUMPDEST PUSH1 0x0 PUSH1 0xC0 DUP3 ADD SWAP1 POP PUSH2 0x301 PUSH1 0x0 DUP4 ADD DUP10 PUSH2 0x298 JUMP JUMPDEST PUSH2 0x30E PUSH1 0x20 DUP4 ADD DUP9 PUSH2 0x298 JUMP JUMPDEST PUSH2 0x31B PUSH1 0x40 DUP4 ADD DUP8 PUSH2 0x298 JUMP JUMPDEST PUSH2 0x328 PUSH1 0x60 DUP4 ADD DUP7 PUSH2 0x298 JUMP JUMPDEST PUSH2 0x335 PUSH1 0x80 DUP4 ADD DUP6 PUSH2 0x298 JUMP JUMPDEST PUSH2 0x342 PUSH1 0xA0 DUP4 ADD DUP5 PUSH2 0x298 JUMP JUMPDEST SWAP8 SWAP7 POP POP POP POP POP POP POP JUMP JUMPDEST PUSH1 0x0 PUSH2 0x358 DUP3 PUSH2 0x36B JUMP JUMPDEST SWAP1 POP SWAP2 SWAP1 POP JUMP JUMPDEST PUSH1 0x0 DUP2 ISZERO ISZERO SWAP1 POP SWAP2 SWAP1 POP JUMP JUMPDEST PUSH1 0x0 PUSH20 0xFFFFFFFFFFFFFFFFFFFFFFFFFFFFFFFFFFFFFFFF DUP3 AND SWAP1 POP SWAP2 SWAP1 POP JUMP JUMPDEST PUSH1 0x0 DUP2 SWAP1 POP SWAP2 SWAP1 POP JUMP JUMPDEST PUSH2 0x39E DUP2 PUSH2 0x34D JUMP JUMPDEST DUP2 EQ PUSH2 0x3A9 JUMPI PUSH1 0x0 DUP1 REVERT JUMPDEST POP JUMP JUMPDEST PUSH2 0x3B5 DUP2 PUSH2 0x38B JUMP JUMPDEST DUP2 EQ PUSH2 0x3C0 JUMPI PUSH1 0x0 DUP1 REVERT JUMPDEST POP JUMP INVALID LOG2 PUSH5 0x6970667358 0x22 SLT KECCAK256 NUMBER 0xC5 DUP15 ORIGIN 0xCE PUSH31 0x942377F65197403762CCBF4C4758CA0593D6ED509C9576BFC58264736F6C63 NUMBER STOP MOD SIGNEXTEND STOP CALLER "},"gasEstimates":{"creation":{"codeDepositCost":"203400","executionCost":"245","totalCost":"203645"},"external":{"blocks(uint256)":"infinite","disputes(uint256,address)":"infinite","proposedBlocks(uint256,uint256)":"infinite"}},"methodIdentifiers":{"blocks(uint256)":"f25b3f99","disputes(uint256,address)":"828496d6","proposedBlocks(uint256,uint256)":"92b48411"}},"storageLayout":{"storage":[{"astId":1234,"contract":"BlockStorage.sol:BlockStorage","label":"disputes","offset":0,"slot":"0","type":"t_mapping(t_uint256,t_mapping(t_address,t_struct(Dispute)5113_storage))"},{"astId":1239,"contract":"BlockStorage.sol:BlockStorage","label":"proposedBlocks","offset":0,"slot":"1","type":"t_mapping(t_uint256,t_array(t_struct(Block)5100_storage)dyn_storage)"},{"astId":1243,"contract":"BlockStorage.sol:BlockStorage","label":"blocks","offset":0,"slot":"2","type":"t_mapping(t_uint256,t_struct(Block)5100_storage)"}],"types":{"t_address":{"encoding":"inplace","label":"address","numberOfBytes":"20"},"t_array(t_struct(Block)5100_storage)dyn_storage":{"base":"t_struct(Block)5100_storage","encoding":"dynamic_array","label":"struct Structs.Block[]","numberOfBytes":"32"},"t_array(t_uint256)dyn_storage":{"base":"t_uint256","encoding":"dynamic_array","label":"uint256[]","numberOfBytes":"32"},"t_bool":{"encoding":"inplace","label":"bool","numberOfBytes":"1"},"t_mapping(t_address,t_struct(Dispute)5113_storage)":{"encoding":"mapping","key":"t_address","label":"mapping(address => struct Structs.Dispute)","numberOfBytes":"32","value":"t_struct(Dispute)5113_storage"},"t_mapping(t_uint256,t_array(t_struct(Block)5100_storage)dyn_storage)":{"encoding":"mapping","key":"t_uint256","label":"mapping(uint256 => struct Structs.Block[])","numberOfBytes":"32","value":"t_array(t_struct(Block)5100_storage)dyn_storage"},"t_mapping(t_uint256,t_mapping(t_address,t_struct(Dispute)5113_storage))":{"encoding":"mapping","key":"t_uint256","label":"mapping(uint256 => mapping(address => struct Structs.Dispute))","numberOfBytes":"32","value":"t_mapping(t_address,t_struct(Dispute)5113_storage)"},"t_mapping(t_uint256,t_struct(Block)5100_storage)":{"encoding":"mapping","key":"t_uint256","label":"mapping(uint256 => struct Structs.Block)","numberOfBytes":"32","value":"t_struct(Block)5100_storage"},"t_struct(Block)5100_storage":{"encoding":"inplace","label":"struct Structs.Block","members":[{"astId":5081,"contract":"BlockStorage.sol:BlockStorage","label":"proposerId","offset":0,"slot":"0","type":"t_uint256"},{"astId":5084,"contract":"BlockStorage.sol:BlockStorage","label":"jobIds","offset":0,"slot":"1","type":"t_array(t_uint256)dyn_storage"},{"astId":5087,"contract":"BlockStorage.sol:BlockStorage","label":"medians","offset":0,"slot":"2","type":"t_array(t_uint256)dyn_storage"},{"astId":5090,"contract":"BlockStorage.sol:BlockStorage","label":"lowerCutoffs","offset":0,"slot":"3","type":"t_array(t_uint256)dyn_storage"},{"astId":5093,"contract":"BlockStorage.sol:BlockStorage","label":"higherCutoffs","offset":0,"slot":"4","type":"t_array(t_uint256)dyn_storage"},{"astId":5095,"contract":"BlockStorage.sol:BlockStorage","label":"iteration","offset":0,"slot":"5","type":"t_uint256"},{"astId":5097,"contract":"BlockStorage.sol:BlockStorage","label":"biggestStake","offset":0,"slot":"6","type":"t_uint256"},{"astId":5099,"contract":"BlockStorage.sol:BlockStorage","label":"valid","offset":0,"slot":"7","type":"t_bool"}],"numberOfBytes":"256"},"t_struct(Dispute)5113_storage":{"encoding":"inplace","label":"struct Structs.Dispute","members":[{"astId":5102,"contract":"BlockStorage.sol:BlockStorage","label":"accWeight","offset":0,"slot":"0","type":"t_uint256"},{"astId":5104,"contract":"BlockStorage.sol:BlockStorage","label":"median","offset":0,"slot":"1","type":"t_uint256"},{"astId":5106,"contract":"BlockStorage.sol:BlockStorage","label":"lowerCutoff","offset":0,"slot":"2","type":"t_uint256"},{"astId":5108,"contract":"BlockStorage.sol:BlockStorage","label":"higherCutoff","offset":0,"slot":"3","type":"t_uint256"},{"astId":5110,"contract":"BlockStorage.sol:BlockStorage","label":"lastVisited","offset":0,"slot":"4","type":"t_uint256"},{"astId":5112,"contract":"BlockStorage.sol:BlockStorage","label":"assetId","offset":0,"slot":"5","type":"t_uint256"}],"numberOfBytes":"192"},"t_uint256":{"encoding":"inplace","label":"uint256","numberOfBytes":"32"}}},"userdoc":{"kind":"user","methods":{},"version":1}}