{"abi":[{"anonymous":false,"inputs":[{"indexed":false,"internalType":"uint256","name":"epoch","type":"uint256"},{"indexed":false,"internalType":"uint256","name":"stakerId","type":"uint256"},{"indexed":false,"internalType":"uint256[]","name":"medians","type":"uint256[]"},{"indexed":false,"internalType":"uint256[]","name":"lowerCutoffs","type":"uint256[]"},{"indexed":false,"internalType":"uint256[]","name":"higherCutoffs","type":"uint256[]"},{"indexed":false,"internalType":"uint256[]","name":"jobIds","type":"uint256[]"},{"indexed":false,"internalType":"uint256","name":"timestamp","type":"uint256"}],"name":"BlockConfirmed","type":"event"},{"anonymous":false,"inputs":[{"indexed":false,"internalType":"uint256","name":"a","type":"uint256"}],"name":"DebugUint256","type":"event"},{"anonymous":false,"inputs":[{"indexed":false,"internalType":"uint256","name":"epoch","type":"uint256"},{"indexed":false,"internalType":"uint256","name":"stakerId","type":"uint256"},{"indexed":false,"internalType":"uint256[]","name":"jobIds","type":"uint256[]"},{"indexed":false,"internalType":"uint256[]","name":"medians","type":"uint256[]"},{"indexed":false,"internalType":"uint256[]","name":"lowerCutoffs","type":"uint256[]"},{"indexed":false,"internalType":"uint256[]","name":"higherCutoffs","type":"uint256[]"},{"indexed":false,"internalType":"uint256","name":"iteration","type":"uint256"},{"indexed":false,"internalType":"uint256","name":"biggestStakerId","type":"uint256"},{"indexed":false,"internalType":"uint256","name":"timestamp","type":"uint256"}],"name":"Proposed","type":"event"},{"anonymous":false,"inputs":[{"indexed":true,"internalType":"bytes32","name":"role","type":"bytes32"},{"indexed":true,"internalType":"bytes32","name":"previousAdminRole","type":"bytes32"},{"indexed":true,"internalType":"bytes32","name":"newAdminRole","type":"bytes32"}],"name":"RoleAdminChanged","type":"event"},{"anonymous":false,"inputs":[{"indexed":true,"internalType":"bytes32","name":"role","type":"bytes32"},{"indexed":true,"internalType":"address","name":"account","type":"address"},{"indexed":true,"internalType":"address","name":"sender","type":"address"}],"name":"RoleGranted","type":"event"},{"anonymous":false,"inputs":[{"indexed":true,"internalType":"bytes32","name":"role","type":"bytes32"},{"indexed":true,"internalType":"address","name":"account","type":"address"},{"indexed":true,"internalType":"address","name":"sender","type":"address"}],"name":"RoleRevoked","type":"event"},{"anonymous":false,"inputs":[{"indexed":true,"internalType":"address","name":"account","type":"address"}],"name":"WriterAdded","type":"event"},{"anonymous":false,"inputs":[{"indexed":true,"internalType":"address","name":"account","type":"address"}],"name":"WriterRemoved","type":"event"},{"inputs":[],"name":"DEFAULT_ADMIN_ROLE","outputs":[{"internalType":"bytes32","name":"","type":"bytes32"}],"stateMutability":"view","type":"function"},{"inputs":[{"internalType":"address","name":"account","type":"address"}],"name":"addWriter","outputs":[],"stateMutability":"nonpayable","type":"function"},{"inputs":[{"internalType":"uint256","name":"","type":"uint256"}],"name":"blocks","outputs":[{"internalType":"uint256","name":"proposerId","type":"uint256"},{"internalType":"uint256","name":"iteration","type":"uint256"},{"internalType":"uint256","name":"biggestStake","type":"uint256"},{"internalType":"bool","name":"valid","type":"bool"}],"stateMutability":"view","type":"function"},{"inputs":[],"name":"confirmBlock","outputs":[],"stateMutability":"nonpayable","type":"function"},{"inputs":[{"internalType":"uint256","name":"","type":"uint256"},{"internalType":"address","name":"","type":"address"}],"name":"disputes","outputs":[{"internalType":"uint256","name":"accWeight","type":"uint256"},{"internalType":"uint256","name":"median","type":"uint256"},{"internalType":"uint256","name":"lowerCutoff","type":"uint256"},{"internalType":"uint256","name":"higherCutoff","type":"uint256"},{"internalType":"uint256","name":"lastVisited","type":"uint256"},{"internalType":"uint256","name":"assetId","type":"uint256"}],"stateMutability":"view","type":"function"},{"inputs":[{"internalType":"uint256","name":"epoch","type":"uint256"},{"internalType":"uint256","name":"blockId","type":"uint256"}],"name":"finalizeDispute","outputs":[],"stateMutability":"nonpayable","type":"function"},{"inputs":[{"internalType":"uint256","name":"epoch","type":"uint256"}],"name":"getBlock","outputs":[{"components":[{"internalType":"uint256","name":"proposerId","type":"uint256"},{"internalType":"uint256[]","name":"jobIds","type":"uint256[]"},{"internalType":"uint256[]","name":"medians","type":"uint256[]"},{"internalType":"uint256[]","name":"lowerCutoffs","type":"uint256[]"},{"internalType":"uint256[]","name":"higherCutoffs","type":"uint256[]"},{"internalType":"uint256","name":"iteration","type":"uint256"},{"internalType":"uint256","name":"biggestStake","type":"uint256"},{"internalType":"bool","name":"valid","type":"bool"}],"internalType":"struct Structs.Block","name":"_block","type":"tuple"}],"stateMutability":"view","type":"function"},{"inputs":[{"internalType":"uint256","name":"epoch","type":"uint256"}],"name":"getBlockMedians","outputs":[{"internalType":"uint256[]","name":"_blockMedians","type":"uint256[]"}],"stateMutability":"view","type":"function"},{"inputs":[{"internalType":"uint256","name":"epoch","type":"uint256"}],"name":"getHigherCutoffs","outputs":[{"internalType":"uint256[]","name":"_higherCutoffs","type":"uint256[]"}],"stateMutability":"view","type":"function"},{"inputs":[{"internalType":"uint256","name":"epoch","type":"uint256"}],"name":"getLowerCutoffs","outputs":[{"internalType":"uint256[]","name":"_lowerCutoffs","type":"uint256[]"}],"stateMutability":"view","type":"function"},{"inputs":[{"internalType":"uint256","name":"epoch","type":"uint256"}],"name":"getNumProposedBlocks","outputs":[{"internalType":"uint256","name":"","type":"uint256"}],"stateMutability":"view","type":"function"},{"inputs":[{"internalType":"uint256","name":"epoch","type":"uint256"},{"internalType":"uint256","name":"proposedBlock","type":"uint256"}],"name":"getProposedBlock","outputs":[{"components":[{"internalType":"uint256","name":"proposerId","type":"uint256"},{"internalType":"uint256[]","name":"jobIds","type":"uint256[]"},{"internalType":"uint256[]","name":"medians","type":"uint256[]"},{"internalType":"uint256[]","name":"lowerCutoffs","type":"uint256[]"},{"internalType":"uint256[]","name":"higherCutoffs","type":"uint256[]"},{"internalType":"uint256","name":"iteration","type":"uint256"},{"internalType":"uint256","name":"biggestStake","type":"uint256"},{"internalType":"bool","name":"valid","type":"bool"}],"internalType":"struct Structs.Block","name":"_block","type":"tuple"},{"internalType":"uint256[]","name":"_blockMedians","type":"uint256[]"},{"internalType":"uint256[]","name":"_lowerCutoffs","type":"uint256[]"},{"internalType":"uint256[]","name":"_higherCutoffs","type":"uint256[]"}],"stateMutability":"view","type":"function"},{"inputs":[{"internalType":"uint256","name":"epoch","type":"uint256"},{"internalType":"uint256","name":"proposedBlock","type":"uint256"}],"name":"getProposedBlockMedians","outputs":[{"internalType":"uint256[]","name":"_blockMedians","type":"uint256[]"}],"stateMutability":"view","type":"function"},{"inputs":[{"internalType":"bytes32","name":"role","type":"bytes32"}],"name":"getRoleAdmin","outputs":[{"internalType":"bytes32","name":"","type":"bytes32"}],"stateMutability":"view","type":"function"},{"inputs":[{"internalType":"bytes32","name":"role","type":"bytes32"},{"internalType":"uint256","name":"index","type":"uint256"}],"name":"getRoleMember","outputs":[{"internalType":"address","name":"","type":"address"}],"stateMutability":"view","type":"function"},{"inputs":[{"internalType":"bytes32","name":"role","type":"bytes32"}],"name":"getRoleMemberCount","outputs":[{"internalType":"uint256","name":"","type":"uint256"}],"stateMutability":"view","type":"function"},{"inputs":[{"internalType":"uint256","name":"epoch","type":"uint256"},{"internalType":"uint256","name":"assetId","type":"uint256"},{"internalType":"uint256[]","name":"sorted","type":"uint256[]"}],"name":"giveSorted","outputs":[],"stateMutability":"nonpayable","type":"function"},{"inputs":[{"internalType":"bytes32","name":"role","type":"bytes32"},{"internalType":"address","name":"account","type":"address"}],"name":"grantRole","outputs":[],"stateMutability":"nonpayable","type":"function"},{"inputs":[{"internalType":"bytes32","name":"role","type":"bytes32"},{"internalType":"address","name":"account","type":"address"}],"name":"hasRole","outputs":[{"internalType":"bool","name":"","type":"bool"}],"stateMutability":"view","type":"function"},{"inputs":[{"internalType":"address","name":"_stakeManagerAddress","type":"address"},{"internalType":"address","name":"_stateManagerAddress","type":"address"},{"internalType":"address","name":"_voteManagerAddress","type":"address"},{"internalType":"address","name":"_jobManagerAddress","type":"address"}],"name":"init","outputs":[],"stateMutability":"nonpayable","type":"function"},{"inputs":[{"internalType":"uint256","name":"iteration","type":"uint256"},{"internalType":"uint256","name":"biggestStakerId","type":"uint256"},{"internalType":"uint256","name":"stakerId","type":"uint256"}],"name":"isElectedProposer","outputs":[{"internalType":"bool","name":"","type":"bool"}],"stateMutability":"view","type":"function"},{"inputs":[{"internalType":"address","name":"account","type":"address"}],"name":"isWriter","outputs":[{"internalType":"bool","name":"","type":"bool"}],"stateMutability":"view","type":"function"},{"inputs":[],"name":"jobManager","outputs":[{"internalType":"contract IJobManager","name":"","type":"address"}],"stateMutability":"view","type":"function"},{"inputs":[{"internalType":"uint256","name":"epoch","type":"uint256"},{"internalType":"uint256[]","name":"jobIds","type":"uint256[]"},{"internalType":"uint256[]","name":"medians","type":"uint256[]"},{"internalType":"uint256[]","name":"lowerCutoffs","type":"uint256[]"},{"internalType":"uint256[]","name":"higherCutoffs","type":"uint256[]"},{"internalType":"uint256","name":"iteration","type":"uint256"},{"internalType":"uint256","name":"biggestStakerId","type":"uint256"}],"name":"propose","outputs":[],"stateMutability":"nonpayable","type":"function"},{"inputs":[{"internalType":"uint256","name":"","type":"uint256"},{"internalType":"uint256","name":"","type":"uint256"}],"name":"proposedBlocks","outputs":[{"internalType":"uint256","name":"proposerId","type":"uint256"},{"internalType":"uint256","name":"iteration","type":"uint256"},{"internalType":"uint256","name":"biggestStake","type":"uint256"},{"internalType":"bool","name":"valid","type":"bool"}],"stateMutability":"view","type":"function"},{"inputs":[{"internalType":"bytes32","name":"role","type":"bytes32"},{"internalType":"address","name":"account","type":"address"}],"name":"renounceRole","outputs":[],"stateMutability":"nonpayable","type":"function"},{"inputs":[],"name":"renounceWriter","outputs":[],"stateMutability":"nonpayable","type":"function"},{"inputs":[{"internalType":"uint256","name":"epoch","type":"uint256"}],"name":"resetDispute","outputs":[],"stateMutability":"nonpayable","type":"function"},{"inputs":[{"internalType":"bytes32","name":"role","type":"bytes32"},{"internalType":"address","name":"account","type":"address"}],"name":"revokeRole","outputs":[],"stateMutability":"nonpayable","type":"function"},{"inputs":[],"name":"stakeManager","outputs":[{"internalType":"contract IStakeManager","name":"","type":"address"}],"stateMutability":"view","type":"function"},{"inputs":[],"name":"stateManager","outputs":[{"internalType":"contract IStateManager","name":"","type":"address"}],"stateMutability":"view","type":"function"},{"inputs":[],"name":"voteManager","outputs":[{"internalType":"contract IVoteManager","name":"","type":"address"}],"stateMutability":"view","type":"function"}],"devdoc":{"kind":"dev","methods":{"getRoleAdmin(bytes32)":{"details":"Returns the admin role that controls `role`. See {grantRole} and {revokeRole}. To change a role's admin, use {_setRoleAdmin}."},"getRoleMember(bytes32,uint256)":{"details":"Returns one of the accounts that have `role`. `index` must be a value between 0 and {getRoleMemberCount}, non-inclusive. Role bearers are not sorted in any particular way, and their ordering may change at any point. WARNING: When using {getRoleMember} and {getRoleMemberCount}, make sure you perform all queries on the same block. See the following https://forum.openzeppelin.com/t/iterating-over-elements-on-enumerableset-in-openzeppelin-contracts/2296[forum post] for more information."},"getRoleMemberCount(bytes32)":{"details":"Returns the number of accounts that have `role`. Can be used together with {getRoleMember} to enumerate all bearers of a role."},"grantRole(bytes32,address)":{"details":"Grants `role` to `account`. If `account` had not been already granted `role`, emits a {RoleGranted} event. Requirements: - the caller must have ``role``'s admin role."},"hasRole(bytes32,address)":{"details":"Returns `true` if `account` has been granted `role`."},"renounceRole(bytes32,address)":{"details":"Revokes `role` from the calling account. Roles are often managed via {grantRole} and {revokeRole}: this function's purpose is to provide a mechanism for accounts to lose their privileges if they are compromised (such as when a trusted device is misplaced). If the calling account had been granted `role`, emits a {RoleRevoked} event. Requirements: - the caller must be `account`."},"revokeRole(bytes32,address)":{"details":"Revokes `role` from `account`. If `account` had been granted `role`, emits a {RoleRevoked} event. Requirements: - the caller must have ``role``'s admin role."}},"version":1},"evm":{"assembly":"    /* \"BlockManager.sol\":379:13439  contract BlockManager is Utils, WriterRole, BlockStorage {... */\n  mstore(0x40, 0x80)\n  callvalue\n  dup1\n  iszero\n  tag_1\n  jumpi\n  0x00\n  dup1\n  revert\ntag_1:\n  pop\n    /* \"WriterRole.sol\":382:396  bytes32 _admin */\n  0x00\n    /* \"WriterRole.sol\":426:436  msg.sender */\n  caller\n    /* \"WriterRole.sol\":409:437  abi.encodePacked(msg.sender) */\n  add(0x20, mload(0x40))\n  tag_4\n  swap2\n  swap1\n  tag_5\n  jump\t// in\ntag_4:\n  mload(0x40)\n  0x20\n  dup2\n  dup4\n  sub\n  sub\n  dup2\n  mstore\n  swap1\n  0x40\n  mstore\n    /* \"WriterRole.sol\":399:438  keccak256(abi.encodePacked(msg.sender)) */\n  dup1\n  mload\n  swap1\n  0x20\n  add\n  keccak256\n    /* \"WriterRole.sol\":382:438  bytes32 _admin = keccak256(abi.encodePacked(msg.sender)) */\n  swap1\n  pop\n    /* \"WriterRole.sol\":448:475  _setRoleAdmin(role, _admin) */\n  tag_6\n    /* \"WriterRole.sol\":313:332  keccak256(\"Writer\") */\n  mload(0x40)\n  tag_7\n  swap1\n  tag_8\n  jump\t// in\ntag_7:\n  mload(0x40)\n  dup1\n  swap2\n  sub\n  swap1\n  keccak256\n    /* \"WriterRole.sol\":468:474  _admin */\n  dup3\n    /* \"WriterRole.sol\":448:461  _setRoleAdmin */\n  shl(0x20, tag_9)\n    /* \"WriterRole.sol\":448:475  _setRoleAdmin(role, _admin) */\n  0x20\n  shr\n  jump\t// in\ntag_6:\n    /* \"WriterRole.sol\":485:513  _setupRole(role, msg.sender) */\n  tag_10\n    /* \"WriterRole.sol\":313:332  keccak256(\"Writer\") */\n  mload(0x40)\n  tag_11\n  swap1\n  tag_8\n  jump\t// in\ntag_11:\n  mload(0x40)\n  dup1\n  swap2\n  sub\n  swap1\n  keccak256\n    /* \"WriterRole.sol\":502:512  msg.sender */\n  caller\n    /* \"WriterRole.sol\":485:495  _setupRole */\n  shl(0x20, tag_12)\n    /* \"WriterRole.sol\":485:513  _setupRole(role, msg.sender) */\n  0x20\n  shr\n  jump\t// in\ntag_10:\n    /* \"WriterRole.sol\":348:520  constructor () internal {... */\n  pop\n    /* \"BlockManager.sol\":379:13439  contract BlockManager is Utils, WriterRole, BlockStorage {... */\n  jump(tag_13)\n    /* \"openzeppelin-solidity/contracts/access/AccessControl.sol\":6813:7009   */\ntag_9:\n    /* \"openzeppelin-solidity/contracts/access/AccessControl.sol\":6948:6957   */\n  dup1\n    /* \"openzeppelin-solidity/contracts/access/AccessControl.sol\":6924:6930   */\n  0x00\n    /* \"openzeppelin-solidity/contracts/access/AccessControl.sol\":6924:6936   */\n  dup1\n    /* \"openzeppelin-solidity/contracts/access/AccessControl.sol\":6931:6935   */\n  dup5\n    /* \"openzeppelin-solidity/contracts/access/AccessControl.sol\":6924:6936   */\n  dup2\n  mstore\n  0x20\n  add\n  swap1\n  dup2\n  mstore\n  0x20\n  add\n  0x00\n  keccak256\n    /* \"openzeppelin-solidity/contracts/access/AccessControl.sol\":6924:6946   */\n  0x02\n  add\n  sload\n    /* \"openzeppelin-solidity/contracts/access/AccessControl.sol\":6918:6922   */\n  dup4\n    /* \"openzeppelin-solidity/contracts/access/AccessControl.sol\":6901:6958   */\n  0xbd79b86ffe0ab8e8776151514217cd7cacd52c909f66475c3af44e129f0b00ff\n  mload(0x40)\n  mload(0x40)\n  dup1\n  swap2\n  sub\n  swap1\n  log4\n    /* \"openzeppelin-solidity/contracts/access/AccessControl.sol\":6993:7002   */\n  dup1\n    /* \"openzeppelin-solidity/contracts/access/AccessControl.sol\":6968:6974   */\n  0x00\n    /* \"openzeppelin-solidity/contracts/access/AccessControl.sol\":6968:6980   */\n  dup1\n    /* \"openzeppelin-solidity/contracts/access/AccessControl.sol\":6975:6979   */\n  dup5\n    /* \"openzeppelin-solidity/contracts/access/AccessControl.sol\":6968:6980   */\n  dup2\n  mstore\n  0x20\n  add\n  swap1\n  dup2\n  mstore\n  0x20\n  add\n  0x00\n  keccak256\n    /* \"openzeppelin-solidity/contracts/access/AccessControl.sol\":6968:6990   */\n  0x02\n  add\n    /* \"openzeppelin-solidity/contracts/access/AccessControl.sol\":6968:7002   */\n  dup2\n  swap1\n  sstore\n  pop\n    /* \"openzeppelin-solidity/contracts/access/AccessControl.sol\":6813:7009   */\n  pop\n  pop\n  jump\t// out\n    /* \"openzeppelin-solidity/contracts/access/AccessControl.sol\":6578:6688   */\ntag_12:\n    /* \"openzeppelin-solidity/contracts/access/AccessControl.sol\":6656:6681   */\n  tag_16\n    /* \"openzeppelin-solidity/contracts/access/AccessControl.sol\":6667:6671   */\n  dup3\n    /* \"openzeppelin-solidity/contracts/access/AccessControl.sol\":6673:6680   */\n  dup3\n    /* \"openzeppelin-solidity/contracts/access/AccessControl.sol\":6656:6666   */\n  shl(0x20, tag_17)\n    /* \"openzeppelin-solidity/contracts/access/AccessControl.sol\":6656:6681   */\n  0x20\n  shr\n  jump\t// in\ntag_16:\n    /* \"openzeppelin-solidity/contracts/access/AccessControl.sol\":6578:6688   */\n  pop\n  pop\n  jump\t// out\n    /* \"openzeppelin-solidity/contracts/access/AccessControl.sol\":7015:7199   */\ntag_17:\n    /* \"openzeppelin-solidity/contracts/access/AccessControl.sol\":7088:7121   */\n  tag_19\n    /* \"openzeppelin-solidity/contracts/access/AccessControl.sol\":7113:7120   */\n  dup2\n    /* \"openzeppelin-solidity/contracts/access/AccessControl.sol\":7088:7094   */\n  0x00\n    /* \"openzeppelin-solidity/contracts/access/AccessControl.sol\":7088:7100   */\n  dup1\n    /* \"openzeppelin-solidity/contracts/access/AccessControl.sol\":7095:7099   */\n  dup6\n    /* \"openzeppelin-solidity/contracts/access/AccessControl.sol\":7088:7100   */\n  dup2\n  mstore\n  0x20\n  add\n  swap1\n  dup2\n  mstore\n  0x20\n  add\n  0x00\n  keccak256\n    /* \"openzeppelin-solidity/contracts/access/AccessControl.sol\":7088:7108   */\n  0x00\n  add\n    /* \"openzeppelin-solidity/contracts/access/AccessControl.sol\":7088:7112   */\n  or(tag_0_176, shl(0x20, tag_20))\n  swap1\n    /* \"openzeppelin-solidity/contracts/access/AccessControl.sol\":7088:7121   */\n  swap2\n  swap1\n  0x20\n  shr\n  jump\t// in\ntag_19:\n    /* \"openzeppelin-solidity/contracts/access/AccessControl.sol\":7084:7193   */\n  iszero\n  tag_21\n  jumpi\n    /* \"openzeppelin-solidity/contracts/access/AccessControl.sol\":7169:7181   */\n  tag_22\n    /* \"openzeppelin-solidity/contracts/access/AccessControl.sol\":7169:7179   */\n  shl(0x20, tag_23)\n    /* \"openzeppelin-solidity/contracts/access/AccessControl.sol\":7169:7181   */\n  0x20\n  shr\n  jump\t// in\ntag_22:\n    /* \"openzeppelin-solidity/contracts/access/AccessControl.sol\":7142:7182   */\n  0xffffffffffffffffffffffffffffffffffffffff\n  and\n    /* \"openzeppelin-solidity/contracts/access/AccessControl.sol\":7160:7167   */\n  dup2\n    /* \"openzeppelin-solidity/contracts/access/AccessControl.sol\":7142:7182   */\n  0xffffffffffffffffffffffffffffffffffffffff\n  and\n    /* \"openzeppelin-solidity/contracts/access/AccessControl.sol\":7154:7158   */\n  dup4\n    /* \"openzeppelin-solidity/contracts/access/AccessControl.sol\":7142:7182   */\n  0x2f8788117e7eff1d82e926ec794901d17c78024a50270940304540a733656f0d\n  mload(0x40)\n  mload(0x40)\n  dup1\n  swap2\n  sub\n  swap1\n  log4\n    /* \"openzeppelin-solidity/contracts/access/AccessControl.sol\":7084:7193   */\ntag_21:\n    /* \"openzeppelin-solidity/contracts/access/AccessControl.sol\":7015:7199   */\n  pop\n  pop\n  jump\t// out\n    /* \"openzeppelin-solidity/contracts/utils/EnumerableSet.sol\":4864:5005   */\ntag_20:\n    /* \"openzeppelin-solidity/contracts/utils/EnumerableSet.sol\":4934:4938   */\n  0x00\n    /* \"openzeppelin-solidity/contracts/utils/EnumerableSet.sol\":4957:4998   */\n  tag_25\n    /* \"openzeppelin-solidity/contracts/utils/EnumerableSet.sol\":4962:4965   */\n  dup4\n    /* \"openzeppelin-solidity/contracts/utils/EnumerableSet.sol\":4962:4972   */\n  0x00\n  add\n    /* \"openzeppelin-solidity/contracts/utils/EnumerableSet.sol\":4990:4995   */\n  dup4\n    /* \"openzeppelin-solidity/contracts/utils/EnumerableSet.sol\":4982:4996   */\n  0xffffffffffffffffffffffffffffffffffffffff\n  and\n    /* \"openzeppelin-solidity/contracts/utils/EnumerableSet.sol\":4974:4997   */\n  0x00\n  shl\n    /* \"openzeppelin-solidity/contracts/utils/EnumerableSet.sol\":4957:4961   */\n  shl(0x20, tag_26)\n    /* \"openzeppelin-solidity/contracts/utils/EnumerableSet.sol\":4957:4998   */\n  0x20\n  shr\n  jump\t// in\ntag_25:\n    /* \"openzeppelin-solidity/contracts/utils/EnumerableSet.sol\":4950:4998   */\n  swap1\n  pop\n    /* \"openzeppelin-solidity/contracts/utils/EnumerableSet.sol\":4864:5005   */\n  swap3\n  swap2\n  pop\n  pop\n  jump\t// out\n    /* \"openzeppelin-solidity/contracts/GSN/Context.sol\":590:694   */\ntag_23:\n    /* \"openzeppelin-solidity/contracts/GSN/Context.sol\":643:658   */\n  0x00\n    /* \"openzeppelin-solidity/contracts/GSN/Context.sol\":677:687   */\n  caller\n    /* \"openzeppelin-solidity/contracts/GSN/Context.sol\":670:687   */\n  swap1\n  pop\n    /* \"openzeppelin-solidity/contracts/GSN/Context.sol\":590:694   */\n  swap1\n  jump\t// out\n    /* \"openzeppelin-solidity/contracts/utils/EnumerableSet.sol\":1611:2015   */\ntag_26:\n    /* \"openzeppelin-solidity/contracts/utils/EnumerableSet.sol\":1674:1678   */\n  0x00\n    /* \"openzeppelin-solidity/contracts/utils/EnumerableSet.sol\":1695:1716   */\n  tag_29\n    /* \"openzeppelin-solidity/contracts/utils/EnumerableSet.sol\":1705:1708   */\n  dup4\n    /* \"openzeppelin-solidity/contracts/utils/EnumerableSet.sol\":1710:1715   */\n  dup4\n    /* \"openzeppelin-solidity/contracts/utils/EnumerableSet.sol\":1695:1704   */\n  shl(0x20, tag_30)\n    /* \"openzeppelin-solidity/contracts/utils/EnumerableSet.sol\":1695:1716   */\n  0x20\n  shr\n  jump\t// in\ntag_29:\n    /* \"openzeppelin-solidity/contracts/utils/EnumerableSet.sol\":1690:2009   */\n  tag_31\n  jumpi\n    /* \"openzeppelin-solidity/contracts/utils/EnumerableSet.sol\":1732:1735   */\n  dup3\n    /* \"openzeppelin-solidity/contracts/utils/EnumerableSet.sol\":1732:1743   */\n  0x00\n  add\n    /* \"openzeppelin-solidity/contracts/utils/EnumerableSet.sol\":1749:1754   */\n  dup3\n    /* \"openzeppelin-solidity/contracts/utils/EnumerableSet.sol\":1732:1755   */\n  swap1\n  dup1\n  0x01\n  dup2\n  sload\n  add\n  dup1\n  dup3\n  sstore\n  dup1\n  swap2\n  pop\n  pop\n  0x01\n  swap1\n  sub\n  swap1\n  0x00\n  mstore\n  keccak256(0x00, 0x20)\n  add\n  0x00\n  swap1\n  swap2\n  swap1\n  swap2\n  swap1\n  swap2\n  pop\n  sstore\n    /* \"openzeppelin-solidity/contracts/utils/EnumerableSet.sol\":1912:1915   */\n  dup3\n    /* \"openzeppelin-solidity/contracts/utils/EnumerableSet.sol\":1912:1923   */\n  0x00\n  add\n    /* \"openzeppelin-solidity/contracts/utils/EnumerableSet.sol\":1912:1930   */\n  dup1\n  sload\n  swap1\n  pop\n    /* \"openzeppelin-solidity/contracts/utils/EnumerableSet.sol\":1890:1893   */\n  dup4\n    /* \"openzeppelin-solidity/contracts/utils/EnumerableSet.sol\":1890:1902   */\n  0x01\n  add\n    /* \"openzeppelin-solidity/contracts/utils/EnumerableSet.sol\":1890:1909   */\n  0x00\n    /* \"openzeppelin-solidity/contracts/utils/EnumerableSet.sol\":1903:1908   */\n  dup5\n    /* \"openzeppelin-solidity/contracts/utils/EnumerableSet.sol\":1890:1909   */\n  dup2\n  mstore\n  0x20\n  add\n  swap1\n  dup2\n  mstore\n  0x20\n  add\n  0x00\n  keccak256\n    /* \"openzeppelin-solidity/contracts/utils/EnumerableSet.sol\":1890:1930   */\n  dup2\n  swap1\n  sstore\n  pop\n    /* \"openzeppelin-solidity/contracts/utils/EnumerableSet.sol\":1951:1955   */\n  0x01\n    /* \"openzeppelin-solidity/contracts/utils/EnumerableSet.sol\":1944:1955   */\n  swap1\n  pop\n  jump(tag_28)\n    /* \"openzeppelin-solidity/contracts/utils/EnumerableSet.sol\":1690:2009   */\ntag_31:\n    /* \"openzeppelin-solidity/contracts/utils/EnumerableSet.sol\":1993:1998   */\n  0x00\n    /* \"openzeppelin-solidity/contracts/utils/EnumerableSet.sol\":1986:1998   */\n  swap1\n  pop\n    /* \"openzeppelin-solidity/contracts/utils/EnumerableSet.sol\":1611:2015   */\ntag_28:\n  swap3\n  swap2\n  pop\n  pop\n  jump\t// out\n    /* \"openzeppelin-solidity/contracts/utils/EnumerableSet.sol\":3776:3903   */\ntag_30:\n    /* \"openzeppelin-solidity/contracts/utils/EnumerableSet.sol\":3849:3853   */\n  0x00\n    /* \"openzeppelin-solidity/contracts/utils/EnumerableSet.sol\":3895:3896   */\n  dup1\n    /* \"openzeppelin-solidity/contracts/utils/EnumerableSet.sol\":3872:3875   */\n  dup4\n    /* \"openzeppelin-solidity/contracts/utils/EnumerableSet.sol\":3872:3884   */\n  0x01\n  add\n    /* \"openzeppelin-solidity/contracts/utils/EnumerableSet.sol\":3872:3891   */\n  0x00\n    /* \"openzeppelin-solidity/contracts/utils/EnumerableSet.sol\":3885:3890   */\n  dup5\n    /* \"openzeppelin-solidity/contracts/utils/EnumerableSet.sol\":3872:3891   */\n  dup2\n  mstore\n  0x20\n  add\n  swap1\n  dup2\n  mstore\n  0x20\n  add\n  0x00\n  keccak256\n  sload\n    /* \"openzeppelin-solidity/contracts/utils/EnumerableSet.sol\":3872:3896   */\n  eq\n  iszero\n    /* \"openzeppelin-solidity/contracts/utils/EnumerableSet.sol\":3865:3896   */\n  swap1\n  pop\n    /* \"openzeppelin-solidity/contracts/utils/EnumerableSet.sol\":3776:3903   */\n  swap3\n  swap2\n  pop\n  pop\n  jump\t// out\n    /* \"--CODEGEN--\":5:189   */\ntag_36:\n    /* \"--CODEGEN--\":122:183   */\n  tag_38\n    /* \"--CODEGEN--\":150:182   */\n  tag_39\n    /* \"--CODEGEN--\":176:181   */\n  dup3\n    /* \"--CODEGEN--\":150:182   */\n  tag_40\n  jump\t// in\ntag_39:\n    /* \"--CODEGEN--\":122:183   */\n  tag_41\n  jump\t// in\ntag_38:\n    /* \"--CODEGEN--\":117:120   */\n  dup3\n    /* \"--CODEGEN--\":110:184   */\n  mstore\n    /* \"--CODEGEN--\":104:189   */\n  pop\n  pop\n  jump\t// out\n    /* \"--CODEGEN--\":197:537   */\ntag_42:\n  0x00\n    /* \"--CODEGEN--\":375:459   */\n  tag_44\n    /* \"--CODEGEN--\":457:458   */\n  0x06\n    /* \"--CODEGEN--\":452:455   */\n  dup4\n    /* \"--CODEGEN--\":375:459   */\n  tag_45\n  jump\t// in\ntag_44:\n    /* \"--CODEGEN--\":368:459   */\n  swap2\n  pop\n    /* \"--CODEGEN--\":492:500   */\n  0x5772697465720000000000000000000000000000000000000000000000000000\n    /* \"--CODEGEN--\":488:489   */\n  0x00\n    /* \"--CODEGEN--\":483:486   */\n  dup4\n    /* \"--CODEGEN--\":479:490   */\n  add\n    /* \"--CODEGEN--\":472:501   */\n  mstore\n    /* \"--CODEGEN--\":529:530   */\n  0x06\n    /* \"--CODEGEN--\":524:527   */\n  dup3\n    /* \"--CODEGEN--\":520:531   */\n  add\n    /* \"--CODEGEN--\":513:531   */\n  swap1\n  pop\n    /* \"--CODEGEN--\":361:537   */\n  swap2\n  swap1\n  pop\n  jump\t// out\n    /* \"--CODEGEN--\":545:830   */\ntag_5:\n  0x00\n    /* \"--CODEGEN--\":689:780   */\n  tag_47\n    /* \"--CODEGEN--\":776:779   */\n  dup3\n    /* \"--CODEGEN--\":767:773   */\n  dup5\n    /* \"--CODEGEN--\":689:780   */\n  tag_36\n  jump\t// in\ntag_47:\n    /* \"--CODEGEN--\":802:804   */\n  0x14\n    /* \"--CODEGEN--\":797:800   */\n  dup3\n    /* \"--CODEGEN--\":793:805   */\n  add\n    /* \"--CODEGEN--\":786:805   */\n  swap2\n  pop\n    /* \"--CODEGEN--\":822:825   */\n  dup2\n    /* \"--CODEGEN--\":815:825   */\n  swap1\n  pop\n    /* \"--CODEGEN--\":677:830   */\n  swap3\n  swap2\n  pop\n  pop\n  jump\t// out\n    /* \"--CODEGEN--\":837:1218   */\ntag_8:\n  0x00\n    /* \"--CODEGEN--\":1045:1193   */\n  tag_49\n    /* \"--CODEGEN--\":1189:1192   */\n  dup3\n    /* \"--CODEGEN--\":1045:1193   */\n  tag_42\n  jump\t// in\ntag_49:\n    /* \"--CODEGEN--\":1038:1193   */\n  swap2\n  pop\n    /* \"--CODEGEN--\":1210:1213   */\n  dup2\n    /* \"--CODEGEN--\":1203:1213   */\n  swap1\n  pop\n    /* \"--CODEGEN--\":1026:1218   */\n  swap2\n  swap1\n  pop\n  jump\t// out\n    /* \"--CODEGEN--\":1226:1371   */\ntag_45:\n  0x00\n    /* \"--CODEGEN--\":1362:1365   */\n  dup2\n    /* \"--CODEGEN--\":1347:1365   */\n  swap1\n  pop\n    /* \"--CODEGEN--\":1340:1371   */\n  swap3\n  swap2\n  pop\n  pop\n  jump\t// out\n    /* \"--CODEGEN--\":1379:1478   */\ntag_40:\n  0x00\n    /* \"--CODEGEN--\":1449:1473   */\n  tag_52\n    /* \"--CODEGEN--\":1467:1472   */\n  dup3\n    /* \"--CODEGEN--\":1449:1473   */\n  tag_53\n  jump\t// in\ntag_52:\n    /* \"--CODEGEN--\":1438:1473   */\n  swap1\n  pop\n    /* \"--CODEGEN--\":1432:1478   */\n  swap2\n  swap1\n  pop\n  jump\t// out\n    /* \"--CODEGEN--\":1485:1606   */\ntag_53:\n  0x00\n    /* \"--CODEGEN--\":1558:1600   */\n  0xffffffffffffffffffffffffffffffffffffffff\n    /* \"--CODEGEN--\":1551:1556   */\n  dup3\n    /* \"--CODEGEN--\":1547:1601   */\n  and\n    /* \"--CODEGEN--\":1536:1601   */\n  swap1\n  pop\n    /* \"--CODEGEN--\":1530:1606   */\n  swap2\n  swap1\n  pop\n  jump\t// out\n    /* \"--CODEGEN--\":1613:1716   */\ntag_41:\n  0x00\n    /* \"--CODEGEN--\":1685:1711   */\n  tag_56\n    /* \"--CODEGEN--\":1705:1710   */\n  dup3\n    /* \"--CODEGEN--\":1685:1711   */\n  tag_57\n  jump\t// in\ntag_56:\n    /* \"--CODEGEN--\":1674:1711   */\n  swap1\n  pop\n    /* \"--CODEGEN--\":1668:1716   */\n  swap2\n  swap1\n  pop\n  jump\t// out\n    /* \"--CODEGEN--\":1723:1812   */\ntag_57:\n  0x00\n    /* \"--CODEGEN--\":1787:1807   */\n  tag_59\n    /* \"--CODEGEN--\":1801:1806   */\n  dup3\n    /* \"--CODEGEN--\":1787:1807   */\n  tag_60\n  jump\t// in\ntag_59:\n    /* \"--CODEGEN--\":1776:1807   */\n  swap1\n  pop\n    /* \"--CODEGEN--\":1770:1812   */\n  swap2\n  swap1\n  pop\n  jump\t// out\n    /* \"--CODEGEN--\":1819:1913   */\ntag_60:\n  0x00\n    /* \"--CODEGEN--\":1897:1902   */\n  dup2\n    /* \"--CODEGEN--\":1893:1895   */\n  0x60\n    /* \"--CODEGEN--\":1889:1903   */\n  shl\n    /* \"--CODEGEN--\":1867:1903   */\n  swap1\n  pop\n    /* \"--CODEGEN--\":1861:1913   */\n  swap2\n  swap1\n  pop\n  jump\t// out\n    /* \"BlockManager.sol\":379:13439  contract BlockManager is Utils, WriterRole, BlockStorage {... */\ntag_13:\n  dataSize(sub_0)\n  dup1\n  dataOffset(sub_0)\n  0x00\n  codecopy\n  0x00\n  return\nstop\n\nsub_0: assembly {\n        /* \"BlockManager.sol\":379:13439  contract BlockManager is Utils, WriterRole, BlockStorage {... */\n      mstore(0x40, 0x80)\n      callvalue\n      dup1\n      iszero\n      tag_1\n      jumpi\n      0x00\n      dup1\n      revert\n    tag_1:\n      pop\n      jumpi(tag_2, lt(calldatasize, 0x04))\n      shr(0xe0, calldataload(0x00))\n      dup1\n      0x828496d6\n      gt\n      tag_35\n      jumpi\n      dup1\n      0xd1a4a43d\n      gt\n      tag_36\n      jumpi\n      dup1\n      0xdf4eb59c\n      gt\n      tag_37\n      jumpi\n      dup1\n      0xdf4eb59c\n      eq\n      tag_31\n      jumpi\n      dup1\n      0xe38c7c42\n      eq\n      tag_32\n      jumpi\n      dup1\n      0xf25b3f99\n      eq\n      tag_33\n      jumpi\n      dup1\n      0xfae4425d\n      eq\n      tag_34\n      jumpi\n      jump(tag_2)\n    tag_37:\n      dup1\n      0xd1a4a43d\n      eq\n      tag_27\n      jumpi\n      dup1\n      0xd2a4669a\n      eq\n      tag_28\n      jumpi\n      dup1\n      0xd547741f\n      eq\n      tag_29\n      jumpi\n      dup1\n      0xda2824a8\n      eq\n      tag_30\n      jumpi\n      jump(tag_2)\n    tag_36:\n      dup1\n      0x9b87f644\n      gt\n      tag_38\n      jumpi\n      dup1\n      0x9b87f644\n      eq\n      tag_23\n      jumpi\n      dup1\n      0xa217fddf\n      eq\n      tag_24\n      jumpi\n      dup1\n      0xa27ce1ef\n      eq\n      tag_25\n      jumpi\n      dup1\n      0xca15c873\n      eq\n      tag_26\n      jumpi\n      jump(tag_2)\n    tag_38:\n      dup1\n      0x828496d6\n      eq\n      tag_19\n      jumpi\n      dup1\n      0x9010d07c\n      eq\n      tag_20\n      jumpi\n      dup1\n      0x91d14854\n      eq\n      tag_21\n      jumpi\n      dup1\n      0x92b48411\n      eq\n      tag_22\n      jumpi\n      jump(tag_2)\n    tag_35:\n      dup1\n      0x36568abe\n      gt\n      tag_39\n      jumpi\n      dup1\n      0x42c1e587\n      gt\n      tag_40\n      jumpi\n      dup1\n      0x42c1e587\n      eq\n      tag_15\n      jumpi\n      dup1\n      0x4e6753b7\n      eq\n      tag_16\n      jumpi\n      dup1\n      0x5ce8772f\n      eq\n      tag_17\n      jumpi\n      dup1\n      0x7542ff95\n      eq\n      tag_18\n      jumpi\n      jump(tag_2)\n    tag_40:\n      dup1\n      0x36568abe\n      eq\n      tag_11\n      jumpi\n      dup1\n      0x378ab9a9\n      eq\n      tag_12\n      jumpi\n      dup1\n      0x3cd32fd4\n      eq\n      tag_13\n      jumpi\n      dup1\n      0x3df395a3\n      eq\n      tag_14\n      jumpi\n      jump(tag_2)\n    tag_39:\n      dup1\n      0x248a9ca3\n      gt\n      tag_41\n      jumpi\n      dup1\n      0x248a9ca3\n      eq\n      tag_7\n      jumpi\n      dup1\n      0x2b29ba23\n      eq\n      tag_8\n      jumpi\n      dup1\n      0x2e716fb1\n      eq\n      tag_9\n      jumpi\n      dup1\n      0x2f2ff15d\n      eq\n      tag_10\n      jumpi\n      jump(tag_2)\n    tag_41:\n      dup1\n      0x04c07569\n      eq\n      tag_3\n      jumpi\n      dup1\n      0x06552ff3\n      eq\n      tag_4\n      jumpi\n      dup1\n      0x17d99c04\n      eq\n      tag_5\n      jumpi\n      dup1\n      0x1d69ff9b\n      eq\n      tag_6\n      jumpi\n    tag_2:\n      0x00\n      dup1\n      revert\n        /* \"BlockManager.sol\":886:1008  function getBlock(uint256 epoch) external view returns(Structs.Block memory _block) {... */\n    tag_3:\n      tag_42\n      0x04\n      dup1\n      calldatasize\n      sub\n      dup2\n      add\n      swap1\n      tag_43\n      swap2\n      swap1\n      tag_44\n      jump\t// in\n    tag_43:\n      tag_45\n      jump\t// in\n    tag_42:\n      mload(0x40)\n      tag_46\n      swap2\n      swap1\n      tag_47\n      jump\t// in\n    tag_46:\n      mload(0x40)\n      dup1\n      swap2\n      sub\n      swap1\n      return\n        /* \"BlockManager.sol\":2372:2764  function init(address _stakeManagerAddress, address _stateManagerAddress,... */\n    tag_4:\n      tag_48\n      0x04\n      dup1\n      calldatasize\n      sub\n      dup2\n      add\n      swap1\n      tag_49\n      swap2\n      swap1\n      tag_50\n      jump\t// in\n    tag_49:\n      tag_51\n      jump\t// in\n    tag_48:\n      stop\n        /* \"BlockManager.sol\":3743:6148  function propose (uint256 epoch,... */\n    tag_5:\n      tag_52\n      0x04\n      dup1\n      calldatasize\n      sub\n      dup2\n      add\n      swap1\n      tag_53\n      swap2\n      swap1\n      tag_54\n      jump\t// in\n    tag_53:\n      tag_55\n      jump\t// in\n    tag_52:\n      stop\n        /* \"BlockManager.sol\":9557:10271  function isElectedProposer(uint256 iteration, uint256 biggestStakerId, uint256 stakerId) public view returns(bool) {... */\n    tag_6:\n      tag_56\n      0x04\n      dup1\n      calldatasize\n      sub\n      dup2\n      add\n      swap1\n      tag_57\n      swap2\n      swap1\n      tag_58\n      jump\t// in\n    tag_57:\n      tag_59\n      jump\t// in\n    tag_56:\n      mload(0x40)\n      tag_60\n      swap2\n      swap1\n      tag_61\n      jump\t// in\n    tag_60:\n      mload(0x40)\n      dup1\n      swap2\n      sub\n      swap1\n      return\n        /* \"openzeppelin-solidity/contracts/access/AccessControl.sol\":4272:4384   */\n    tag_7:\n      tag_62\n      0x04\n      dup1\n      calldatasize\n      sub\n      dup2\n      add\n      swap1\n      tag_63\n      swap2\n      swap1\n      tag_64\n      jump\t// in\n    tag_63:\n      tag_65\n      jump\t// in\n    tag_62:\n      mload(0x40)\n      tag_66\n      swap2\n      swap1\n      tag_67\n      jump\t// in\n    tag_66:\n      mload(0x40)\n      dup1\n      swap2\n      sub\n      swap1\n      return\n        /* \"WriterRole.sol\":667:774  function isWriter(address account) public view returns (bool) {... */\n    tag_8:\n      tag_68\n      0x04\n      dup1\n      calldatasize\n      sub\n      dup2\n      add\n      swap1\n      tag_69\n      swap2\n      swap1\n      tag_70\n      jump\t// in\n    tag_69:\n      tag_71\n      jump\t// in\n    tag_68:\n      mload(0x40)\n      tag_72\n      swap2\n      swap1\n      tag_61\n      jump\t// in\n    tag_72:\n      mload(0x40)\n      dup1\n      swap2\n      sub\n      swap1\n      return\n        /* \"BlockManager.sol\":514:547  IStateManager public stateManager */\n    tag_9:\n      tag_73\n      tag_74\n      jump\t// in\n    tag_73:\n      mload(0x40)\n      tag_75\n      swap2\n      swap1\n      tag_76\n      jump\t// in\n    tag_75:\n      mload(0x40)\n      dup1\n      swap2\n      sub\n      swap1\n      return\n        /* \"openzeppelin-solidity/contracts/access/AccessControl.sol\":4634:4857   */\n    tag_10:\n      tag_77\n      0x04\n      dup1\n      calldatasize\n      sub\n      dup2\n      add\n      swap1\n      tag_78\n      swap2\n      swap1\n      tag_79\n      jump\t// in\n    tag_78:\n      tag_80\n      jump\t// in\n    tag_77:\n      stop\n        /* \"openzeppelin-solidity/contracts/access/AccessControl.sol\":5808:6013   */\n    tag_11:\n      tag_81\n      0x04\n      dup1\n      calldatasize\n      sub\n      dup2\n      add\n      swap1\n      tag_82\n      swap2\n      swap1\n      tag_79\n      jump\t// in\n    tag_82:\n      tag_83\n      jump\t// in\n    tag_81:\n      stop\n        /* \"BlockManager.sol\":1014:1193  function getBlockMedians(uint256 epoch) external view returns(uint256[] memory _blockMedians) {... */\n    tag_12:\n      tag_84\n      0x04\n      dup1\n      calldatasize\n      sub\n      dup2\n      add\n      swap1\n      tag_85\n      swap2\n      swap1\n      tag_44\n      jump\t// in\n    tag_85:\n      tag_86\n      jump\t// in\n    tag_84:\n      mload(0x40)\n      tag_87\n      swap2\n      swap1\n      tag_88\n      jump\t// in\n    tag_87:\n      mload(0x40)\n      dup1\n      swap2\n      sub\n      swap1\n      return\n        /* \"BlockManager.sol\":8423:9551  function finalizeDispute (uint256 epoch, uint256 blockId)... */\n    tag_13:\n      tag_89\n      0x04\n      dup1\n      calldatasize\n      sub\n      dup2\n      add\n      swap1\n      tag_90\n      swap2\n      swap1\n      tag_91\n      jump\t// in\n    tag_90:\n      tag_92\n      jump\t// in\n    tag_89:\n      stop\n        /* \"BlockManager.sol\":590:619  IJobManager public jobManager */\n    tag_14:\n      tag_93\n      tag_94\n      jump\t// in\n    tag_93:\n      mload(0x40)\n      tag_95\n      swap2\n      swap1\n      tag_96\n      jump\t// in\n    tag_95:\n      mload(0x40)\n      dup1\n      swap2\n      sub\n      swap1\n      return\n        /* \"BlockManager.sol\":553:584  IVoteManager public voteManager */\n    tag_15:\n      tag_97\n      tag_98\n      jump\t// in\n    tag_97:\n      mload(0x40)\n      tag_99\n      swap2\n      swap1\n      tag_100\n      jump\t// in\n    tag_99:\n      mload(0x40)\n      dup1\n      swap2\n      sub\n      swap1\n      return\n        /* \"BlockManager.sol\":6217:8140  function giveSorted (uint256 epoch, uint256 assetId, uint256[] memory sorted) public... */\n    tag_16:\n      tag_101\n      0x04\n      dup1\n      calldatasize\n      sub\n      dup2\n      add\n      swap1\n      tag_102\n      swap2\n      swap1\n      tag_103\n      jump\t// in\n    tag_102:\n      tag_104\n      jump\t// in\n    tag_101:\n      stop\n        /* \"BlockManager.sol\":8242:8417  function resetDispute (uint256 epoch) public checkEpoch(epoch) checkState(Constants.dispute()) {... */\n    tag_17:\n      tag_105\n      0x04\n      dup1\n      calldatasize\n      sub\n      dup2\n      add\n      swap1\n      tag_106\n      swap2\n      swap1\n      tag_44\n      jump\t// in\n    tag_106:\n      tag_107\n      jump\t// in\n    tag_105:\n      stop\n        /* \"BlockManager.sol\":475:508  IStakeManager public stakeManager */\n    tag_18:\n      tag_108\n      tag_109\n      jump\t// in\n    tag_108:\n      mload(0x40)\n      tag_110\n      swap2\n      swap1\n      tag_111\n      jump\t// in\n    tag_110:\n      mload(0x40)\n      dup1\n      swap2\n      sub\n      swap1\n      return\n        /* \"BlockStorage.sol\":193:266  mapping (uint256 => mapping (address => Structs.Dispute)) public disputes */\n    tag_19:\n      tag_112\n      0x04\n      dup1\n      calldatasize\n      sub\n      dup2\n      add\n      swap1\n      tag_113\n      swap2\n      swap1\n      tag_114\n      jump\t// in\n    tag_113:\n      tag_115\n      jump\t// in\n    tag_112:\n      mload(0x40)\n      tag_116\n      swap7\n      swap6\n      swap5\n      swap4\n      swap3\n      swap2\n      swap1\n      tag_117\n      jump\t// in\n    tag_116:\n      mload(0x40)\n      dup1\n      swap2\n      sub\n      swap1\n      return\n        /* \"openzeppelin-solidity/contracts/access/AccessControl.sol\":3955:4091   */\n    tag_20:\n      tag_118\n      0x04\n      dup1\n      calldatasize\n      sub\n      dup2\n      add\n      swap1\n      tag_119\n      swap2\n      swap1\n      tag_120\n      jump\t// in\n    tag_119:\n      tag_121\n      jump\t// in\n    tag_118:\n      mload(0x40)\n      tag_122\n      swap2\n      swap1\n      tag_123\n      jump\t// in\n    tag_122:\n      mload(0x40)\n      dup1\n      swap2\n      sub\n      swap1\n      return\n        /* \"openzeppelin-solidity/contracts/access/AccessControl.sol\":2940:3077   */\n    tag_21:\n      tag_124\n      0x04\n      dup1\n      calldatasize\n      sub\n      dup2\n      add\n      swap1\n      tag_125\n      swap2\n      swap1\n      tag_79\n      jump\t// in\n    tag_125:\n      tag_126\n      jump\t// in\n    tag_124:\n      mload(0x40)\n      tag_127\n      swap2\n      swap1\n      tag_61\n      jump\t// in\n    tag_127:\n      mload(0x40)\n      dup1\n      swap2\n      sub\n      swap1\n      return\n        /* \"BlockStorage.sol\":406:464  mapping (uint256 => Structs.Block[]) public proposedBlocks */\n    tag_22:\n      tag_128\n      0x04\n      dup1\n      calldatasize\n      sub\n      dup2\n      add\n      swap1\n      tag_129\n      swap2\n      swap1\n      tag_91\n      jump\t// in\n    tag_129:\n      tag_130\n      jump\t// in\n    tag_128:\n      mload(0x40)\n      tag_131\n      swap5\n      swap4\n      swap3\n      swap2\n      swap1\n      tag_132\n      jump\t// in\n    tag_131:\n      mload(0x40)\n      dup1\n      swap2\n      sub\n      swap1\n      return\n        /* \"BlockManager.sol\":10562:11929  function confirmBlock() public onlyWriter {... */\n    tag_23:\n      tag_133\n      tag_134\n      jump\t// in\n    tag_133:\n      stop\n        /* \"openzeppelin-solidity/contracts/access/AccessControl.sol\":1717:1766   */\n    tag_24:\n      tag_135\n      tag_136\n      jump\t// in\n    tag_135:\n      mload(0x40)\n      tag_137\n      swap2\n      swap1\n      tag_67\n      jump\t// in\n    tag_137:\n      mload(0x40)\n      dup1\n      swap2\n      sub\n      swap1\n      return\n        /* \"BlockManager.sol\":1584:1958  function getProposedBlock(uint256 epoch, uint256 proposedBlock)... */\n    tag_25:\n      tag_138\n      0x04\n      dup1\n      calldatasize\n      sub\n      dup2\n      add\n      swap1\n      tag_139\n      swap2\n      swap1\n      tag_91\n      jump\t// in\n    tag_139:\n      tag_140\n      jump\t// in\n    tag_138:\n      mload(0x40)\n      tag_141\n      swap5\n      swap4\n      swap3\n      swap2\n      swap1\n      tag_142\n      jump\t// in\n    tag_141:\n      mload(0x40)\n      dup1\n      swap2\n      sub\n      swap1\n      return\n        /* \"openzeppelin-solidity/contracts/access/AccessControl.sol\":3245:3370   */\n    tag_26:\n      tag_143\n      0x04\n      dup1\n      calldatasize\n      sub\n      dup2\n      add\n      swap1\n      tag_144\n      swap2\n      swap1\n      tag_64\n      jump\t// in\n    tag_144:\n      tag_145\n      jump\t// in\n    tag_143:\n      mload(0x40)\n      tag_146\n      swap2\n      swap1\n      tag_147\n      jump\t// in\n    tag_146:\n      mload(0x40)\n      dup1\n      swap2\n      sub\n      swap1\n      return\n        /* \"BlockManager.sol\":1964:2201  function getProposedBlockMedians(uint256 epoch, uint256 proposedBlock)... */\n    tag_27:\n      tag_148\n      0x04\n      dup1\n      calldatasize\n      sub\n      dup2\n      add\n      swap1\n      tag_149\n      swap2\n      swap1\n      tag_91\n      jump\t// in\n    tag_149:\n      tag_150\n      jump\t// in\n    tag_148:\n      mload(0x40)\n      tag_151\n      swap2\n      swap1\n      tag_88\n      jump\t// in\n    tag_151:\n      mload(0x40)\n      dup1\n      swap2\n      sub\n      swap1\n      return\n        /* \"BlockManager.sol\":1199:1383  function getLowerCutoffs(uint256 epoch) external view returns(uint256[] memory _lowerCutoffs) {... */\n    tag_28:\n      tag_152\n      0x04\n      dup1\n      calldatasize\n      sub\n      dup2\n      add\n      swap1\n      tag_153\n      swap2\n      swap1\n      tag_44\n      jump\t// in\n    tag_153:\n      tag_154\n      jump\t// in\n    tag_152:\n      mload(0x40)\n      tag_155\n      swap2\n      swap1\n      tag_88\n      jump\t// in\n    tag_155:\n      mload(0x40)\n      dup1\n      swap2\n      sub\n      swap1\n      return\n        /* \"openzeppelin-solidity/contracts/access/AccessControl.sol\":5091:5317   */\n    tag_29:\n      tag_156\n      0x04\n      dup1\n      calldatasize\n      sub\n      dup2\n      add\n      swap1\n      tag_157\n      swap2\n      swap1\n      tag_79\n      jump\t// in\n    tag_157:\n      tag_158\n      jump\t// in\n    tag_156:\n      stop\n        /* \"WriterRole.sol\":784:874  function addWriter(address account) public onlyWriter {... */\n    tag_30:\n      tag_159\n      0x04\n      dup1\n      calldatasize\n      sub\n      dup2\n      add\n      swap1\n      tag_160\n      swap2\n      swap1\n      tag_70\n      jump\t// in\n    tag_160:\n      tag_161\n      jump\t// in\n    tag_159:\n      stop\n        /* \"WriterRole.sol\":880:955  function renounceWriter() public {... */\n    tag_31:\n      tag_162\n      tag_163\n      jump\t// in\n    tag_162:\n      stop\n        /* \"BlockManager.sol\":2207:2340  function getNumProposedBlocks(uint256 epoch)... */\n    tag_32:\n      tag_164\n      0x04\n      dup1\n      calldatasize\n      sub\n      dup2\n      add\n      swap1\n      tag_165\n      swap2\n      swap1\n      tag_44\n      jump\t// in\n    tag_165:\n      tag_166\n      jump\t// in\n    tag_164:\n      mload(0x40)\n      tag_167\n      swap2\n      swap1\n      tag_147\n      jump\t// in\n    tag_167:\n      mload(0x40)\n      dup1\n      swap2\n      sub\n      swap1\n      return\n        /* \"BlockStorage.sol\":470:518  mapping (uint256 => Structs.Block) public blocks */\n    tag_33:\n      tag_168\n      0x04\n      dup1\n      calldatasize\n      sub\n      dup2\n      add\n      swap1\n      tag_169\n      swap2\n      swap1\n      tag_44\n      jump\t// in\n    tag_169:\n      tag_170\n      jump\t// in\n    tag_168:\n      mload(0x40)\n      tag_171\n      swap5\n      swap4\n      swap3\n      swap2\n      swap1\n      tag_132\n      jump\t// in\n    tag_171:\n      mload(0x40)\n      dup1\n      swap2\n      sub\n      swap1\n      return\n        /* \"BlockManager.sol\":1389:1578  function getHigherCutoffs(uint256 epoch) external view returns(uint256[] memory _higherCutoffs) {... */\n    tag_34:\n      tag_172\n      0x04\n      dup1\n      calldatasize\n      sub\n      dup2\n      add\n      swap1\n      tag_173\n      swap2\n      swap1\n      tag_44\n      jump\t// in\n    tag_173:\n      tag_174\n      jump\t// in\n    tag_172:\n      mload(0x40)\n      tag_175\n      swap2\n      swap1\n      tag_88\n      jump\t// in\n    tag_175:\n      mload(0x40)\n      dup1\n      swap2\n      sub\n      swap1\n      return\n        /* \"BlockManager.sol\":886:1008  function getBlock(uint256 epoch) external view returns(Structs.Block memory _block) {... */\n    tag_45:\n        /* \"BlockManager.sol\":941:968  Structs.Block memory _block */\n      tag_177\n      tag_178\n      jump\t// in\n    tag_177:\n        /* \"BlockManager.sol\":987:993  blocks */\n      0x03\n        /* \"BlockManager.sol\":987:1000  blocks[epoch] */\n      0x00\n        /* \"BlockManager.sol\":994:999  epoch */\n      dup4\n        /* \"BlockManager.sol\":987:1000  blocks[epoch] */\n      dup2\n      mstore\n      0x20\n      add\n      swap1\n      dup2\n      mstore\n      0x20\n      add\n      0x00\n      keccak256\n        /* \"BlockManager.sol\":980:1001  return(blocks[epoch]) */\n      mload(0x40)\n      dup1\n      0x0100\n      add\n      0x40\n      mstore\n      swap1\n      dup2\n      0x00\n      dup3\n      add\n      sload\n      dup2\n      mstore\n      0x20\n      add\n      0x01\n      dup3\n      add\n      dup1\n      sload\n      dup1\n      0x20\n      mul\n      0x20\n      add\n      mload(0x40)\n      swap1\n      dup2\n      add\n      0x40\n      mstore\n      dup1\n      swap3\n      swap2\n      swap1\n      dup2\n      dup2\n      mstore\n      0x20\n      add\n      dup3\n      dup1\n      sload\n      dup1\n      iszero\n      tag_180\n      jumpi\n      0x20\n      mul\n      dup3\n      add\n      swap2\n      swap1\n      0x00\n      mstore\n      keccak256(0x00, 0x20)\n      swap1\n    tag_181:\n      dup2\n      sload\n      dup2\n      mstore\n      0x20\n      add\n      swap1\n      0x01\n      add\n      swap1\n      dup1\n      dup4\n      gt\n      tag_181\n      jumpi\n    tag_180:\n      pop\n      pop\n      pop\n      pop\n      pop\n      dup2\n      mstore\n      0x20\n      add\n      0x02\n      dup3\n      add\n      dup1\n      sload\n      dup1\n      0x20\n      mul\n      0x20\n      add\n      mload(0x40)\n      swap1\n      dup2\n      add\n      0x40\n      mstore\n      dup1\n      swap3\n      swap2\n      swap1\n      dup2\n      dup2\n      mstore\n      0x20\n      add\n      dup3\n      dup1\n      sload\n      dup1\n      iszero\n      tag_182\n      jumpi\n      0x20\n      mul\n      dup3\n      add\n      swap2\n      swap1\n      0x00\n      mstore\n      keccak256(0x00, 0x20)\n      swap1\n    tag_183:\n      dup2\n      sload\n      dup2\n      mstore\n      0x20\n      add\n      swap1\n      0x01\n      add\n      swap1\n      dup1\n      dup4\n      gt\n      tag_183\n      jumpi\n    tag_182:\n      pop\n      pop\n      pop\n      pop\n      pop\n      dup2\n      mstore\n      0x20\n      add\n      0x03\n      dup3\n      add\n      dup1\n      sload\n      dup1\n      0x20\n      mul\n      0x20\n      add\n      mload(0x40)\n      swap1\n      dup2\n      add\n      0x40\n      mstore\n      dup1\n      swap3\n      swap2\n      swap1\n      dup2\n      dup2\n      mstore\n      0x20\n      add\n      dup3\n      dup1\n      sload\n      dup1\n      iszero\n      tag_184\n      jumpi\n      0x20\n      mul\n      dup3\n      add\n      swap2\n      swap1\n      0x00\n      mstore\n      keccak256(0x00, 0x20)\n      swap1\n    tag_185:\n      dup2\n      sload\n      dup2\n      mstore\n      0x20\n      add\n      swap1\n      0x01\n      add\n      swap1\n      dup1\n      dup4\n      gt\n      tag_185\n      jumpi\n    tag_184:\n      pop\n      pop\n      pop\n      pop\n      pop\n      dup2\n      mstore\n      0x20\n      add\n      0x04\n      dup3\n      add\n      dup1\n      sload\n      dup1\n      0x20\n      mul\n      0x20\n      add\n      mload(0x40)\n      swap1\n      dup2\n      add\n      0x40\n      mstore\n      dup1\n      swap3\n      swap2\n      swap1\n      dup2\n      dup2\n      mstore\n      0x20\n      add\n      dup3\n      dup1\n      sload\n      dup1\n      iszero\n      tag_186\n      jumpi\n      0x20\n      mul\n      dup3\n      add\n      swap2\n      swap1\n      0x00\n      mstore\n      keccak256(0x00, 0x20)\n      swap1\n    tag_187:\n      dup2\n      sload\n      dup2\n      mstore\n      0x20\n      add\n      swap1\n      0x01\n      add\n      swap1\n      dup1\n      dup4\n      gt\n      tag_187\n      jumpi\n    tag_186:\n      pop\n      pop\n      pop\n      pop\n      pop\n      dup2\n      mstore\n      0x20\n      add\n      0x05\n      dup3\n      add\n      sload\n      dup2\n      mstore\n      0x20\n      add\n      0x06\n      dup3\n      add\n      sload\n      dup2\n      mstore\n      0x20\n      add\n      0x07\n      dup3\n      add\n      0x00\n      swap1\n      sload\n      swap1\n      0x0100\n      exp\n      swap1\n      div\n      0xff\n      and\n      iszero\n      iszero\n      iszero\n      iszero\n      dup2\n      mstore\n      pop\n      pop\n      swap1\n      pop\n        /* \"BlockManager.sol\":886:1008  function getBlock(uint256 epoch) external view returns(Structs.Block memory _block) {... */\n      swap2\n      swap1\n      pop\n      jump\t// out\n        /* \"BlockManager.sol\":2372:2764  function init(address _stakeManagerAddress, address _stateManagerAddress,... */\n    tag_51:\n        /* \"BlockManager.sol\":2565:2585  _stakeManagerAddress */\n      dup4\n        /* \"BlockManager.sol\":2536:2548  stakeManager */\n      0x04\n      0x00\n        /* \"BlockManager.sol\":2536:2586  stakeManager = IStakeManager(_stakeManagerAddress) */\n      0x0100\n      exp\n      dup2\n      sload\n      dup2\n      0xffffffffffffffffffffffffffffffffffffffff\n      mul\n      not\n      and\n      swap1\n      dup4\n      0xffffffffffffffffffffffffffffffffffffffff\n      and\n      mul\n      or\n      swap1\n      sstore\n      pop\n        /* \"BlockManager.sol\":2625:2645  _stateManagerAddress */\n      dup3\n        /* \"BlockManager.sol\":2596:2608  stateManager */\n      0x05\n      0x00\n        /* \"BlockManager.sol\":2596:2646  stateManager = IStateManager(_stateManagerAddress) */\n      0x0100\n      exp\n      dup2\n      sload\n      dup2\n      0xffffffffffffffffffffffffffffffffffffffff\n      mul\n      not\n      and\n      swap1\n      dup4\n      0xffffffffffffffffffffffffffffffffffffffff\n      and\n      mul\n      or\n      swap1\n      sstore\n      pop\n        /* \"BlockManager.sol\":2683:2702  _voteManagerAddress */\n      dup2\n        /* \"BlockManager.sol\":2656:2667  voteManager */\n      0x06\n      0x00\n        /* \"BlockManager.sol\":2656:2703  voteManager = IVoteManager(_voteManagerAddress) */\n      0x0100\n      exp\n      dup2\n      sload\n      dup2\n      0xffffffffffffffffffffffffffffffffffffffff\n      mul\n      not\n      and\n      swap1\n      dup4\n      0xffffffffffffffffffffffffffffffffffffffff\n      and\n      mul\n      or\n      swap1\n      sstore\n      pop\n        /* \"BlockManager.sol\":2738:2756  _jobManagerAddress */\n      dup1\n        /* \"BlockManager.sol\":2713:2723  jobManager */\n      0x07\n      0x00\n        /* \"BlockManager.sol\":2713:2757  jobManager = IJobManager(_jobManagerAddress) */\n      0x0100\n      exp\n      dup2\n      sload\n      dup2\n      0xffffffffffffffffffffffffffffffffffffffff\n      mul\n      not\n      and\n      swap1\n      dup4\n      0xffffffffffffffffffffffffffffffffffffffff\n      and\n      mul\n      or\n      swap1\n      sstore\n      pop\n        /* \"BlockManager.sol\":2372:2764  function init(address _stakeManagerAddress, address _stateManagerAddress,... */\n      pop\n      pop\n      pop\n      pop\n      jump\t// out\n        /* \"BlockManager.sol\":3743:6148  function propose (uint256 epoch,... */\n    tag_55:\n        /* \"BlockManager.sol\":4072:4077  epoch */\n      dup7\n        /* \"BlockManager.sol\":689:701  stateManager */\n      0x05\n      0x00\n      swap1\n      sload\n      swap1\n      0x0100\n      exp\n      swap1\n      div\n      0xffffffffffffffffffffffffffffffffffffffff\n      and\n        /* \"BlockManager.sol\":689:710  stateManager.getEpoch */\n      0xffffffffffffffffffffffffffffffffffffffff\n      and\n      0x757991a8\n        /* \"BlockManager.sol\":689:712  stateManager.getEpoch() */\n      mload(0x40)\n      dup2\n      0xffffffff\n      and\n      0xe0\n      shl\n      dup2\n      mstore\n      0x04\n      add\n      0x20\n      mload(0x40)\n      dup1\n      dup4\n      sub\n      dup2\n      dup7\n      dup1\n      extcodesize\n      iszero\n      dup1\n      iszero\n      tag_190\n      jumpi\n      0x00\n      dup1\n      revert\n    tag_190:\n      pop\n      gas\n      staticcall\n      iszero\n      dup1\n      iszero\n      tag_192\n      jumpi\n      returndatasize\n      0x00\n      dup1\n      returndatacopy\n      revert(0x00, returndatasize)\n    tag_192:\n      pop\n      pop\n      pop\n      pop\n      mload(0x40)\n      returndatasize\n      not(0x1f)\n      0x1f\n      dup3\n      add\n      and\n      dup3\n      add\n      dup1\n      0x40\n      mstore\n      pop\n      dup2\n      add\n      swap1\n      tag_193\n      swap2\n      swap1\n      tag_194\n      jump\t// in\n    tag_193:\n        /* \"BlockManager.sol\":680:685  epoch */\n      dup2\n        /* \"BlockManager.sol\":680:712  epoch == stateManager.getEpoch() */\n      eq\n        /* \"BlockManager.sol\":672:732  require(epoch == stateManager.getEpoch(), \"incorrect epoch\") */\n      tag_195\n      jumpi\n      mload(0x40)\n      0x08c379a000000000000000000000000000000000000000000000000000000000\n      dup2\n      mstore\n      0x04\n      add\n      tag_196\n      swap1\n      tag_197\n      jump\t// in\n    tag_196:\n      mload(0x40)\n      dup1\n      swap2\n      sub\n      swap1\n      revert\n    tag_195:\n        /* \"BlockManager.sol\":4090:4099  Constants */\n      linkerSymbol(\"e861534859442f2de25279a5ccd1626413b62699ca8b37407da3a6bf3bbbfee5\")\n        /* \"BlockManager.sol\":4090:4107  Constants.propose */\n      0xc198f8ba\n        /* \"BlockManager.sol\":4090:4109  Constants.propose() */\n      mload(0x40)\n      dup2\n      0xffffffff\n      and\n      0xe0\n      shl\n      dup2\n      mstore\n      0x04\n      add\n      0x20\n      mload(0x40)\n      dup1\n      dup4\n      sub\n      dup2\n      dup7\n      dup1\n      extcodesize\n      iszero\n      dup1\n      iszero\n      tag_198\n      jumpi\n      0x00\n      dup1\n      revert\n    tag_198:\n      pop\n      gas\n      delegatecall\n      iszero\n      dup1\n      iszero\n      tag_200\n      jumpi\n      returndatasize\n      0x00\n      dup1\n      returndatacopy\n      revert(0x00, returndatasize)\n    tag_200:\n      pop\n      pop\n      pop\n      pop\n      mload(0x40)\n      returndatasize\n      not(0x1f)\n      0x1f\n      dup3\n      add\n      and\n      dup3\n      add\n      dup1\n      0x40\n      mstore\n      pop\n      dup2\n      add\n      swap1\n      tag_201\n      swap2\n      swap1\n      tag_202\n      jump\t// in\n    tag_201:\n        /* \"BlockManager.sol\":756:880  modifier checkState (uint256 state) {... */\n      0xff\n      and\n        /* \"BlockManager.sol\":819:831  stateManager */\n      0x05\n      0x00\n      swap1\n      sload\n      swap1\n      0x0100\n      exp\n      swap1\n      div\n      0xffffffffffffffffffffffffffffffffffffffff\n      and\n        /* \"BlockManager.sol\":819:840  stateManager.getState */\n      0xffffffffffffffffffffffffffffffffffffffff\n      and\n      0x1865c57d\n        /* \"BlockManager.sol\":819:842  stateManager.getState() */\n      mload(0x40)\n      dup2\n      0xffffffff\n      and\n      0xe0\n      shl\n      dup2\n      mstore\n      0x04\n      add\n      0x20\n      mload(0x40)\n      dup1\n      dup4\n      sub\n      dup2\n      dup7\n      dup1\n      extcodesize\n      iszero\n      dup1\n      iszero\n      tag_204\n      jumpi\n      0x00\n      dup1\n      revert\n    tag_204:\n      pop\n      gas\n      staticcall\n      iszero\n      dup1\n      iszero\n      tag_206\n      jumpi\n      returndatasize\n      0x00\n      dup1\n      returndatacopy\n      revert(0x00, returndatasize)\n    tag_206:\n      pop\n      pop\n      pop\n      pop\n      mload(0x40)\n      returndatasize\n      not(0x1f)\n      0x1f\n      dup3\n      add\n      and\n      dup3\n      add\n      dup1\n      0x40\n      mstore\n      pop\n      dup2\n      add\n      swap1\n      tag_207\n      swap2\n      swap1\n      tag_194\n      jump\t// in\n    tag_207:\n        /* \"BlockManager.sol\":810:815  state */\n      dup2\n        /* \"BlockManager.sol\":810:842  state == stateManager.getState() */\n      eq\n        /* \"BlockManager.sol\":802:862  require(state == stateManager.getState(), \"incorrect state\") */\n      tag_208\n      jumpi\n      mload(0x40)\n      0x08c379a000000000000000000000000000000000000000000000000000000000\n      dup2\n      mstore\n      0x04\n      add\n      tag_209\n      swap1\n      tag_210\n      jump\t// in\n    tag_209:\n      mload(0x40)\n      dup1\n      swap2\n      sub\n      swap1\n      revert\n    tag_208:\n        /* \"BlockManager.sol\":4121:4139  uint256 proposerId */\n      0x00\n        /* \"BlockManager.sol\":4142:4154  stakeManager */\n      0x04\n      0x00\n      swap1\n      sload\n      swap1\n      0x0100\n      exp\n      swap1\n      div\n      0xffffffffffffffffffffffffffffffffffffffff\n      and\n        /* \"BlockManager.sol\":4142:4166  stakeManager.getStakerId */\n      0xffffffffffffffffffffffffffffffffffffffff\n      and\n      0x6022a485\n        /* \"BlockManager.sol\":4167:4177  msg.sender */\n      caller\n        /* \"BlockManager.sol\":4142:4178  stakeManager.getStakerId(msg.sender) */\n      mload(0x40)\n      dup3\n      0xffffffff\n      and\n      0xe0\n      shl\n      dup2\n      mstore\n      0x04\n      add\n      tag_212\n      swap2\n      swap1\n      tag_213\n      jump\t// in\n    tag_212:\n      0x20\n      mload(0x40)\n      dup1\n      dup4\n      sub\n      dup2\n      dup7\n      dup1\n      extcodesize\n      iszero\n      dup1\n      iszero\n      tag_214\n      jumpi\n      0x00\n      dup1\n      revert\n    tag_214:\n      pop\n      gas\n      staticcall\n      iszero\n      dup1\n      iszero\n      tag_216\n      jumpi\n      returndatasize\n      0x00\n      dup1\n      returndatacopy\n      revert(0x00, returndatasize)\n    tag_216:\n      pop\n      pop\n      pop\n      pop\n      mload(0x40)\n      returndatasize\n      not(0x1f)\n      0x1f\n      dup3\n      add\n      and\n      dup3\n      add\n      dup1\n      0x40\n      mstore\n      pop\n      dup2\n      add\n      swap1\n      tag_217\n      swap2\n      swap1\n      tag_194\n      jump\t// in\n    tag_217:\n        /* \"BlockManager.sol\":4121:4178  uint256 proposerId = stakeManager.getStakerId(msg.sender) */\n      swap1\n      pop\n        /* \"BlockManager.sol\":4254:4311  isElectedProposer(iteration, biggestStakerId, proposerId) */\n      tag_218\n        /* \"BlockManager.sol\":4272:4281  iteration */\n      dup6\n        /* \"BlockManager.sol\":4283:4298  biggestStakerId */\n      dup6\n        /* \"BlockManager.sol\":4300:4310  proposerId */\n      dup4\n        /* \"BlockManager.sol\":4254:4271  isElectedProposer */\n      tag_59\n        /* \"BlockManager.sol\":4254:4311  isElectedProposer(iteration, biggestStakerId, proposerId) */\n      jump\t// in\n    tag_218:\n        /* \"BlockManager.sol\":4246:4327  require(isElectedProposer(iteration, biggestStakerId, proposerId), \"not elected\") */\n      tag_219\n      jumpi\n      mload(0x40)\n      0x08c379a000000000000000000000000000000000000000000000000000000000\n      dup2\n      mstore\n      0x04\n      add\n      tag_220\n      swap1\n      tag_221\n      jump\t// in\n    tag_220:\n      mload(0x40)\n      dup1\n      swap2\n      sub\n      swap1\n      revert\n    tag_219:\n        /* \"BlockManager.sol\":4389:4398  Constants */\n      linkerSymbol(\"e861534859442f2de25279a5ccd1626413b62699ca8b37407da3a6bf3bbbfee5\")\n        /* \"BlockManager.sol\":4389:4407  Constants.minStake */\n      0x375b3c0a\n        /* \"BlockManager.sol\":4389:4409  Constants.minStake() */\n      mload(0x40)\n      dup2\n      0xffffffff\n      and\n      0xe0\n      shl\n      dup2\n      mstore\n      0x04\n      add\n      0x20\n      mload(0x40)\n      dup1\n      dup4\n      sub\n      dup2\n      dup7\n      dup1\n      extcodesize\n      iszero\n      dup1\n      iszero\n      tag_222\n      jumpi\n      0x00\n      dup1\n      revert\n    tag_222:\n      pop\n      gas\n      delegatecall\n      iszero\n      dup1\n      iszero\n      tag_224\n      jumpi\n      returndatasize\n      0x00\n      dup1\n      returndatacopy\n      revert(0x00, returndatasize)\n    tag_224:\n      pop\n      pop\n      pop\n      pop\n      mload(0x40)\n      returndatasize\n      not(0x1f)\n      0x1f\n      dup3\n      add\n      and\n      dup3\n      add\n      dup1\n      0x40\n      mstore\n      pop\n      dup2\n      add\n      swap1\n      tag_225\n      swap2\n      swap1\n      tag_194\n      jump\t// in\n    tag_225:\n        /* \"BlockManager.sol\":4345:4357  stakeManager */\n      0x04\n      0x00\n      swap1\n      sload\n      swap1\n      0x0100\n      exp\n      swap1\n      div\n      0xffffffffffffffffffffffffffffffffffffffff\n      and\n        /* \"BlockManager.sol\":4345:4367  stakeManager.getStaker */\n      0xffffffffffffffffffffffffffffffffffffffff\n      and\n      0xe3c998fe\n        /* \"BlockManager.sol\":4368:4378  proposerId */\n      dup4\n        /* \"BlockManager.sol\":4345:4379  stakeManager.getStaker(proposerId) */\n      mload(0x40)\n      dup3\n      0xffffffff\n      and\n      0xe0\n      shl\n      dup2\n      mstore\n      0x04\n      add\n      tag_226\n      swap2\n      swap1\n      tag_147\n      jump\t// in\n    tag_226:\n      0x0100\n      mload(0x40)\n      dup1\n      dup4\n      sub\n      dup2\n      dup7\n      dup1\n      extcodesize\n      iszero\n      dup1\n      iszero\n      tag_227\n      jumpi\n      0x00\n      dup1\n      revert\n    tag_227:\n      pop\n      gas\n      staticcall\n      iszero\n      dup1\n      iszero\n      tag_229\n      jumpi\n      returndatasize\n      0x00\n      dup1\n      returndatacopy\n      revert(0x00, returndatasize)\n    tag_229:\n      pop\n      pop\n      pop\n      pop\n      mload(0x40)\n      returndatasize\n      not(0x1f)\n      0x1f\n      dup3\n      add\n      and\n      dup3\n      add\n      dup1\n      0x40\n      mstore\n      pop\n      dup2\n      add\n      swap1\n      tag_230\n      swap2\n      swap1\n      tag_231\n      jump\t// in\n    tag_230:\n        /* \"BlockManager.sol\":4345:4385  stakeManager.getStaker(proposerId).stake */\n      0x40\n      add\n      mload\n        /* \"BlockManager.sol\":4345:4409  stakeManager.getStaker(proposerId).stake >= Constants.minStake() */\n      lt\n      iszero\n        /* \"BlockManager.sol\":4337:4439  require(stakeManager.getStaker(proposerId).stake >= Constants.minStake(), \"stake below minimum stake\") */\n      tag_232\n      jumpi\n      mload(0x40)\n      0x08c379a000000000000000000000000000000000000000000000000000000000\n      dup2\n      mstore\n      0x04\n      add\n      tag_233\n      swap1\n      tag_234\n      jump\t// in\n    tag_233:\n      mload(0x40)\n      dup1\n      swap2\n      sub\n      swap1\n      revert\n    tag_232:\n        /* \"BlockManager.sol\":5283:5643  _insertAppropriately(epoch, Structs.Block(proposerId,... */\n      tag_235\n        /* \"BlockManager.sol\":5304:5309  epoch */\n      dup11\n        /* \"BlockManager.sol\":5311:5642  Structs.Block(proposerId,... */\n      mload(0x40)\n      dup1\n      0x0100\n      add\n      0x40\n      mstore\n      dup1\n        /* \"BlockManager.sol\":5325:5335  proposerId */\n      dup5\n        /* \"BlockManager.sol\":5311:5642  Structs.Block(proposerId,... */\n      dup2\n      mstore\n      0x20\n      add\n        /* \"BlockManager.sol\":5365:5371  jobIds */\n      dup13\n        /* \"BlockManager.sol\":5311:5642  Structs.Block(proposerId,... */\n      dup2\n      mstore\n      0x20\n      add\n        /* \"BlockManager.sol\":5401:5408  medians */\n      dup12\n        /* \"BlockManager.sol\":5311:5642  Structs.Block(proposerId,... */\n      dup2\n      mstore\n      0x20\n      add\n        /* \"BlockManager.sol\":5438:5450  lowerCutoffs */\n      dup11\n        /* \"BlockManager.sol\":5311:5642  Structs.Block(proposerId,... */\n      dup2\n      mstore\n      0x20\n      add\n        /* \"BlockManager.sol\":5480:5493  higherCutoffs */\n      dup10\n        /* \"BlockManager.sol\":5311:5642  Structs.Block(proposerId,... */\n      dup2\n      mstore\n      0x20\n      add\n        /* \"BlockManager.sol\":5523:5532  iteration */\n      dup9\n        /* \"BlockManager.sol\":5311:5642  Structs.Block(proposerId,... */\n      dup2\n      mstore\n      0x20\n      add\n        /* \"BlockManager.sol\":5562:5574  stakeManager */\n      0x04\n      0x00\n      swap1\n      sload\n      swap1\n      0x0100\n      exp\n      swap1\n      div\n      0xffffffffffffffffffffffffffffffffffffffff\n      and\n        /* \"BlockManager.sol\":5562:5584  stakeManager.getStaker */\n      0xffffffffffffffffffffffffffffffffffffffff\n      and\n      0xe3c998fe\n        /* \"BlockManager.sol\":5585:5600  biggestStakerId */\n      dup10\n        /* \"BlockManager.sol\":5562:5601  stakeManager.getStaker(biggestStakerId) */\n      mload(0x40)\n      dup3\n      0xffffffff\n      and\n      0xe0\n      shl\n      dup2\n      mstore\n      0x04\n      add\n      tag_236\n      swap2\n      swap1\n      tag_147\n      jump\t// in\n    tag_236:\n      0x0100\n      mload(0x40)\n      dup1\n      dup4\n      sub\n      dup2\n      dup7\n      dup1\n      extcodesize\n      iszero\n      dup1\n      iszero\n      tag_237\n      jumpi\n      0x00\n      dup1\n      revert\n    tag_237:\n      pop\n      gas\n      staticcall\n      iszero\n      dup1\n      iszero\n      tag_239\n      jumpi\n      returndatasize\n      0x00\n      dup1\n      returndatacopy\n      revert(0x00, returndatasize)\n    tag_239:\n      pop\n      pop\n      pop\n      pop\n      mload(0x40)\n      returndatasize\n      not(0x1f)\n      0x1f\n      dup3\n      add\n      and\n      dup3\n      add\n      dup1\n      0x40\n      mstore\n      pop\n      dup2\n      add\n      swap1\n      tag_240\n      swap2\n      swap1\n      tag_231\n      jump\t// in\n    tag_240:\n        /* \"BlockManager.sol\":5562:5607  stakeManager.getStaker(biggestStakerId).stake */\n      0x40\n      add\n      mload\n        /* \"BlockManager.sol\":5311:5642  Structs.Block(proposerId,... */\n      dup2\n      mstore\n      0x20\n      add\n        /* \"BlockManager.sol\":5637:5641  true */\n      0x01\n        /* \"BlockManager.sol\":5311:5642  Structs.Block(proposerId,... */\n      iszero\n      iszero\n      dup2\n      mstore\n      pop\n        /* \"BlockManager.sol\":5283:5303  _insertAppropriately */\n      tag_241\n        /* \"BlockManager.sol\":5283:5643  _insertAppropriately(epoch, Structs.Block(proposerId,... */\n      jump\t// in\n    tag_235:\n        /* \"BlockManager.sol\":6035:6141  Proposed(epoch, proposerId, jobIds, medians, lowerCutoffs, higherCutoffs, iteration, biggestStakerId, now) */\n      0xee036cc96c88163f353feaa4d497e88baaebeb631f40ad9b8a6d51bb6fad4076\n        /* \"BlockManager.sol\":6044:6049  epoch */\n      dup11\n        /* \"BlockManager.sol\":6051:6061  proposerId */\n      dup3\n        /* \"BlockManager.sol\":6063:6069  jobIds */\n      dup12\n        /* \"BlockManager.sol\":6071:6078  medians */\n      dup12\n        /* \"BlockManager.sol\":6080:6092  lowerCutoffs */\n      dup12\n        /* \"BlockManager.sol\":6094:6107  higherCutoffs */\n      dup12\n        /* \"BlockManager.sol\":6109:6118  iteration */\n      dup12\n        /* \"BlockManager.sol\":6120:6135  biggestStakerId */\n      dup12\n        /* \"BlockManager.sol\":6137:6140  now */\n      timestamp\n        /* \"BlockManager.sol\":6035:6141  Proposed(epoch, proposerId, jobIds, medians, lowerCutoffs, higherCutoffs, iteration, biggestStakerId, now) */\n      mload(0x40)\n      tag_242\n      swap10\n      swap9\n      swap8\n      swap7\n      swap6\n      swap5\n      swap4\n      swap3\n      swap2\n      swap1\n      tag_243\n      jump\t// in\n    tag_242:\n      mload(0x40)\n      dup1\n      swap2\n      sub\n      swap1\n      log1\n        /* \"BlockManager.sol\":872:873  _ */\n      pop\n        /* \"BlockManager.sol\":742:743  _ */\n      pop\n        /* \"BlockManager.sol\":3743:6148  function propose (uint256 epoch,... */\n      pop\n      pop\n      pop\n      pop\n      pop\n      pop\n      pop\n      pop\n      jump\t// out\n        /* \"BlockManager.sol\":9557:10271  function isElectedProposer(uint256 iteration, uint256 biggestStakerId, uint256 stakerId) public view returns(bool) {... */\n    tag_59:\n        /* \"BlockManager.sol\":9666:9670  bool */\n      0x00\n        /* \"BlockManager.sol\":9891:9899  stakerId */\n      dup2\n        /* \"BlockManager.sol\":9792:9878  Random.prng(10, stakeManager.getNumStakers(), keccak256(abi.encode(iteration))).add(1) */\n      tag_245\n        /* \"BlockManager.sol\":9876:9877  1 */\n      0x01\n        /* \"BlockManager.sol\":9792:9798  Random */\n      linkerSymbol(\"1d057983f7f91628f36c7ec2cdd2f7806a512a48ba6cf4d6707a1ed7e5021f39\")\n        /* \"BlockManager.sol\":9792:9803  Random.prng */\n      0x5075dbfb\n        /* \"BlockManager.sol\":9804:9806  10 */\n      0x0a\n        /* \"BlockManager.sol\":9808:9820  stakeManager */\n      0x04\n      0x00\n      swap1\n      sload\n      swap1\n      0x0100\n      exp\n      swap1\n      div\n      0xffffffffffffffffffffffffffffffffffffffff\n      and\n        /* \"BlockManager.sol\":9808:9834  stakeManager.getNumStakers */\n      0xffffffffffffffffffffffffffffffffffffffff\n      and\n      0xbc788d46\n        /* \"BlockManager.sol\":9808:9836  stakeManager.getNumStakers() */\n      mload(0x40)\n      dup2\n      0xffffffff\n      and\n      0xe0\n      shl\n      dup2\n      mstore\n      0x04\n      add\n      0x20\n      mload(0x40)\n      dup1\n      dup4\n      sub\n      dup2\n      dup7\n      dup1\n      extcodesize\n      iszero\n      dup1\n      iszero\n      tag_246\n      jumpi\n      0x00\n      dup1\n      revert\n    tag_246:\n      pop\n      gas\n      staticcall\n      iszero\n      dup1\n      iszero\n      tag_248\n      jumpi\n      returndatasize\n      0x00\n      dup1\n      returndatacopy\n      revert(0x00, returndatasize)\n    tag_248:\n      pop\n      pop\n      pop\n      pop\n      mload(0x40)\n      returndatasize\n      not(0x1f)\n      0x1f\n      dup3\n      add\n      and\n      dup3\n      add\n      dup1\n      0x40\n      mstore\n      pop\n      dup2\n      add\n      swap1\n      tag_249\n      swap2\n      swap1\n      tag_194\n      jump\t// in\n    tag_249:\n        /* \"BlockManager.sol\":9859:9868  iteration */\n      dup11\n        /* \"BlockManager.sol\":9848:9869  abi.encode(iteration) */\n      add(0x20, mload(0x40))\n      tag_250\n      swap2\n      swap1\n      tag_147\n      jump\t// in\n    tag_250:\n      mload(0x40)\n      0x20\n      dup2\n      dup4\n      sub\n      sub\n      dup2\n      mstore\n      swap1\n      0x40\n      mstore\n        /* \"BlockManager.sol\":9838:9870  keccak256(abi.encode(iteration)) */\n      dup1\n      mload\n      swap1\n      0x20\n      add\n      keccak256\n        /* \"BlockManager.sol\":9792:9871  Random.prng(10, stakeManager.getNumStakers(), keccak256(abi.encode(iteration))) */\n      mload(0x40)\n      dup5\n      0xffffffff\n      and\n      0xe0\n      shl\n      dup2\n      mstore\n      0x04\n      add\n      tag_251\n      swap4\n      swap3\n      swap2\n      swap1\n      tag_252\n      jump\t// in\n    tag_251:\n      0x20\n      mload(0x40)\n      dup1\n      dup4\n      sub\n      dup2\n      dup7\n      dup1\n      extcodesize\n      iszero\n      dup1\n      iszero\n      tag_253\n      jumpi\n      0x00\n      dup1\n      revert\n    tag_253:\n      pop\n      gas\n      delegatecall\n      iszero\n      dup1\n      iszero\n      tag_255\n      jumpi\n      returndatasize\n      0x00\n      dup1\n      returndatacopy\n      revert(0x00, returndatasize)\n    tag_255:\n      pop\n      pop\n      pop\n      pop\n      mload(0x40)\n      returndatasize\n      not(0x1f)\n      0x1f\n      dup3\n      add\n      and\n      dup3\n      add\n      dup1\n      0x40\n      mstore\n      pop\n      dup2\n      add\n      swap1\n      tag_256\n      swap2\n      swap1\n      tag_194\n      jump\t// in\n    tag_256:\n        /* \"BlockManager.sol\":9792:9875  Random.prng(10, stakeManager.getNumStakers(), keccak256(abi.encode(iteration))).add */\n      tag_257\n      swap1\n        /* \"BlockManager.sol\":9792:9878  Random.prng(10, stakeManager.getNumStakers(), keccak256(abi.encode(iteration))).add(1) */\n      swap2\n      swap1\n      0xffffffff\n      and\n      jump\t// in\n    tag_245:\n        /* \"BlockManager.sol\":9791:9899  (Random.prng(10, stakeManager.getNumStakers(), keccak256(abi.encode(iteration))).add(1))... */\n      eq\n        /* \"BlockManager.sol\":9787:9917  if ((Random.prng(10, stakeManager.getNumStakers(), keccak256(abi.encode(iteration))).add(1))... */\n      tag_258\n      jumpi\n        /* \"BlockManager.sol\":9909:9914  false */\n      0x00\n        /* \"BlockManager.sol\":9902:9915  return(false) */\n      swap1\n      pop\n      jump(tag_244)\n        /* \"BlockManager.sol\":9787:9917  if ((Random.prng(10, stakeManager.getNumStakers(), keccak256(abi.encode(iteration))).add(1))... */\n    tag_258:\n        /* \"BlockManager.sol\":9926:9942  bytes32 randHash */\n      0x00\n        /* \"BlockManager.sol\":9945:9951  Random */\n      linkerSymbol(\"1d057983f7f91628f36c7ec2cdd2f7806a512a48ba6cf4d6707a1ed7e5021f39\")\n        /* \"BlockManager.sol\":9945:9960  Random.prngHash */\n      0xb07ceab8\n        /* \"BlockManager.sol\":9961:9963  10 */\n      0x0a\n        /* \"BlockManager.sol\":9986:9994  stakerId */\n      dup6\n        /* \"BlockManager.sol\":9996:10005  iteration */\n      dup9\n        /* \"BlockManager.sol\":9975:10006  abi.encode(stakerId, iteration) */\n      add(0x20, mload(0x40))\n      tag_259\n      swap3\n      swap2\n      swap1\n      tag_260\n      jump\t// in\n    tag_259:\n      mload(0x40)\n      0x20\n      dup2\n      dup4\n      sub\n      sub\n      dup2\n      mstore\n      swap1\n      0x40\n      mstore\n        /* \"BlockManager.sol\":9965:10007  keccak256(abi.encode(stakerId, iteration)) */\n      dup1\n      mload\n      swap1\n      0x20\n      add\n      keccak256\n        /* \"BlockManager.sol\":9945:10008  Random.prngHash(10, keccak256(abi.encode(stakerId, iteration))) */\n      mload(0x40)\n      dup4\n      0xffffffff\n      and\n      0xe0\n      shl\n      dup2\n      mstore\n      0x04\n      add\n      tag_261\n      swap3\n      swap2\n      swap1\n      tag_262\n      jump\t// in\n    tag_261:\n      0x20\n      mload(0x40)\n      dup1\n      dup4\n      sub\n      dup2\n      dup7\n      dup1\n      extcodesize\n      iszero\n      dup1\n      iszero\n      tag_263\n      jumpi\n      0x00\n      dup1\n      revert\n    tag_263:\n      pop\n      gas\n      delegatecall\n      iszero\n      dup1\n      iszero\n      tag_265\n      jumpi\n      returndatasize\n      0x00\n      dup1\n      returndatacopy\n      revert(0x00, returndatasize)\n    tag_265:\n      pop\n      pop\n      pop\n      pop\n      mload(0x40)\n      returndatasize\n      not(0x1f)\n      0x1f\n      dup3\n      add\n      and\n      dup3\n      add\n      dup1\n      0x40\n      mstore\n      pop\n      dup2\n      add\n      swap1\n      tag_266\n      swap2\n      swap1\n      tag_267\n      jump\t// in\n    tag_266:\n        /* \"BlockManager.sol\":9926:10008  bytes32 randHash = Random.prngHash(10, keccak256(abi.encode(stakerId, iteration))) */\n      swap1\n      pop\n        /* \"BlockManager.sol\":10018:10030  uint256 rand */\n      0x00\n        /* \"BlockManager.sol\":10033:10061  uint256(randHash).mod(2**32) */\n      tag_268\n        /* \"BlockManager.sol\":10055:10060  2**32 */\n      0x0100000000\n        /* \"BlockManager.sol\":10041:10049  randHash */\n      dup4\n        /* \"BlockManager.sol\":10033:10050  uint256(randHash) */\n      0x00\n      shr\n        /* \"BlockManager.sol\":10033:10054  uint256(randHash).mod */\n      tag_269\n      swap1\n        /* \"BlockManager.sol\":10033:10061  uint256(randHash).mod(2**32) */\n      swap2\n      swap1\n      0xffffffff\n      and\n      jump\t// in\n    tag_268:\n        /* \"BlockManager.sol\":10018:10061  uint256 rand = uint256(randHash).mod(2**32) */\n      swap1\n      pop\n        /* \"BlockManager.sol\":10071:10091  uint256 biggestStake */\n      0x00\n        /* \"BlockManager.sol\":10094:10106  stakeManager */\n      0x04\n      0x00\n      swap1\n      sload\n      swap1\n      0x0100\n      exp\n      swap1\n      div\n      0xffffffffffffffffffffffffffffffffffffffff\n      and\n        /* \"BlockManager.sol\":10094:10116  stakeManager.getStaker */\n      0xffffffffffffffffffffffffffffffffffffffff\n      and\n      0xe3c998fe\n        /* \"BlockManager.sol\":10117:10132  biggestStakerId */\n      dup8\n        /* \"BlockManager.sol\":10094:10133  stakeManager.getStaker(biggestStakerId) */\n      mload(0x40)\n      dup3\n      0xffffffff\n      and\n      0xe0\n      shl\n      dup2\n      mstore\n      0x04\n      add\n      tag_270\n      swap2\n      swap1\n      tag_147\n      jump\t// in\n    tag_270:\n      0x0100\n      mload(0x40)\n      dup1\n      dup4\n      sub\n      dup2\n      dup7\n      dup1\n      extcodesize\n      iszero\n      dup1\n      iszero\n      tag_271\n      jumpi\n      0x00\n      dup1\n      revert\n    tag_271:\n      pop\n      gas\n      staticcall\n      iszero\n      dup1\n      iszero\n      tag_273\n      jumpi\n      returndatasize\n      0x00\n      dup1\n      returndatacopy\n      revert(0x00, returndatasize)\n    tag_273:\n      pop\n      pop\n      pop\n      pop\n      mload(0x40)\n      returndatasize\n      not(0x1f)\n      0x1f\n      dup3\n      add\n      and\n      dup3\n      add\n      dup1\n      0x40\n      mstore\n      pop\n      dup2\n      add\n      swap1\n      tag_274\n      swap2\n      swap1\n      tag_231\n      jump\t// in\n    tag_274:\n        /* \"BlockManager.sol\":10094:10139  stakeManager.getStaker(biggestStakerId).stake */\n      0x40\n      add\n      mload\n        /* \"BlockManager.sol\":10071:10139  uint256 biggestStake = stakeManager.getStaker(biggestStakerId).stake */\n      swap1\n      pop\n        /* \"BlockManager.sol\":10178:10227  stakeManager.getStaker(stakerId).stake.mul(2**32) */\n      tag_275\n        /* \"BlockManager.sol\":10221:10226  2**32 */\n      0x0100000000\n        /* \"BlockManager.sol\":10178:10190  stakeManager */\n      0x04\n      0x00\n      swap1\n      sload\n      swap1\n      0x0100\n      exp\n      swap1\n      div\n      0xffffffffffffffffffffffffffffffffffffffff\n      and\n        /* \"BlockManager.sol\":10178:10200  stakeManager.getStaker */\n      0xffffffffffffffffffffffffffffffffffffffff\n      and\n      0xe3c998fe\n        /* \"BlockManager.sol\":10201:10209  stakerId */\n      dup9\n        /* \"BlockManager.sol\":10178:10210  stakeManager.getStaker(stakerId) */\n      mload(0x40)\n      dup3\n      0xffffffff\n      and\n      0xe0\n      shl\n      dup2\n      mstore\n      0x04\n      add\n      tag_276\n      swap2\n      swap1\n      tag_147\n      jump\t// in\n    tag_276:\n      0x0100\n      mload(0x40)\n      dup1\n      dup4\n      sub\n      dup2\n      dup7\n      dup1\n      extcodesize\n      iszero\n      dup1\n      iszero\n      tag_277\n      jumpi\n      0x00\n      dup1\n      revert\n    tag_277:\n      pop\n      gas\n      staticcall\n      iszero\n      dup1\n      iszero\n      tag_279\n      jumpi\n      returndatasize\n      0x00\n      dup1\n      returndatacopy\n      revert(0x00, returndatasize)\n    tag_279:\n      pop\n      pop\n      pop\n      pop\n      mload(0x40)\n      returndatasize\n      not(0x1f)\n      0x1f\n      dup3\n      add\n      and\n      dup3\n      add\n      dup1\n      0x40\n      mstore\n      pop\n      dup2\n      add\n      swap1\n      tag_280\n      swap2\n      swap1\n      tag_231\n      jump\t// in\n    tag_280:\n        /* \"BlockManager.sol\":10178:10216  stakeManager.getStaker(stakerId).stake */\n      0x40\n      add\n      mload\n        /* \"BlockManager.sol\":10178:10220  stakeManager.getStaker(stakerId).stake.mul */\n      tag_281\n      swap1\n        /* \"BlockManager.sol\":10178:10227  stakeManager.getStaker(stakerId).stake.mul(2**32) */\n      swap2\n      swap1\n      0xffffffff\n      and\n      jump\t// in\n    tag_275:\n        /* \"BlockManager.sol\":10153:10175  rand.mul(biggestStake) */\n      tag_282\n        /* \"BlockManager.sol\":10162:10174  biggestStake */\n      dup3\n        /* \"BlockManager.sol\":10153:10157  rand */\n      dup5\n        /* \"BlockManager.sol\":10153:10161  rand.mul */\n      tag_281\n      swap1\n        /* \"BlockManager.sol\":10153:10175  rand.mul(biggestStake) */\n      swap2\n      swap1\n      0xffffffff\n      and\n      jump\t// in\n    tag_282:\n        /* \"BlockManager.sol\":10153:10227  rand.mul(biggestStake) > stakeManager.getStaker(stakerId).stake.mul(2**32) */\n      gt\n        /* \"BlockManager.sol\":10149:10242  if (rand.mul(biggestStake) > stakeManager.getStaker(stakerId).stake.mul(2**32)) return(false) */\n      iszero\n      tag_283\n      jumpi\n        /* \"BlockManager.sol\":10236:10241  false */\n      0x00\n        /* \"BlockManager.sol\":10229:10242  return(false) */\n      swap4\n      pop\n      pop\n      pop\n      pop\n      jump(tag_244)\n        /* \"BlockManager.sol\":10149:10242  if (rand.mul(biggestStake) > stakeManager.getStaker(stakerId).stake.mul(2**32)) return(false) */\n    tag_283:\n        /* \"BlockManager.sol\":10259:10263  true */\n      0x01\n        /* \"BlockManager.sol\":10252:10264  return(true) */\n      swap4\n      pop\n      pop\n      pop\n      pop\n        /* \"BlockManager.sol\":9557:10271  function isElectedProposer(uint256 iteration, uint256 biggestStakerId, uint256 stakerId) public view returns(bool) {... */\n    tag_244:\n      swap4\n      swap3\n      pop\n      pop\n      pop\n      jump\t// out\n        /* \"openzeppelin-solidity/contracts/access/AccessControl.sol\":4272:4384   */\n    tag_65:\n        /* \"openzeppelin-solidity/contracts/access/AccessControl.sol\":4329:4336   */\n      0x00\n        /* \"openzeppelin-solidity/contracts/access/AccessControl.sol\":4355:4361   */\n      dup1\n        /* \"openzeppelin-solidity/contracts/access/AccessControl.sol\":4355:4367   */\n      0x00\n        /* \"openzeppelin-solidity/contracts/access/AccessControl.sol\":4362:4366   */\n      dup4\n        /* \"openzeppelin-solidity/contracts/access/AccessControl.sol\":4355:4367   */\n      dup2\n      mstore\n      0x20\n      add\n      swap1\n      dup2\n      mstore\n      0x20\n      add\n      0x00\n      keccak256\n        /* \"openzeppelin-solidity/contracts/access/AccessControl.sol\":4355:4377   */\n      0x02\n      add\n      sload\n        /* \"openzeppelin-solidity/contracts/access/AccessControl.sol\":4348:4377   */\n      swap1\n      pop\n        /* \"openzeppelin-solidity/contracts/access/AccessControl.sol\":4272:4384   */\n      swap2\n      swap1\n      pop\n      jump\t// out\n        /* \"WriterRole.sol\":667:774  function isWriter(address account) public view returns (bool) {... */\n    tag_71:\n        /* \"WriterRole.sol\":723:727  bool */\n      0x00\n        /* \"WriterRole.sol\":746:767  hasRole(role,account) */\n      tag_286\n        /* \"WriterRole.sol\":313:332  keccak256(\"Writer\") */\n      mload(0x40)\n      tag_287\n      swap1\n      tag_288\n      jump\t// in\n    tag_287:\n      mload(0x40)\n      dup1\n      swap2\n      sub\n      swap1\n      keccak256\n        /* \"WriterRole.sol\":759:766  account */\n      dup4\n        /* \"WriterRole.sol\":746:753  hasRole */\n      tag_126\n        /* \"WriterRole.sol\":746:767  hasRole(role,account) */\n      jump\t// in\n    tag_286:\n        /* \"WriterRole.sol\":739:767  return hasRole(role,account) */\n      swap1\n      pop\n        /* \"WriterRole.sol\":667:774  function isWriter(address account) public view returns (bool) {... */\n      swap2\n      swap1\n      pop\n      jump\t// out\n        /* \"BlockManager.sol\":514:547  IStateManager public stateManager */\n    tag_74:\n      0x05\n      0x00\n      swap1\n      sload\n      swap1\n      0x0100\n      exp\n      swap1\n      div\n      0xffffffffffffffffffffffffffffffffffffffff\n      and\n      dup2\n      jump\t// out\n        /* \"openzeppelin-solidity/contracts/access/AccessControl.sol\":4634:4857   */\n    tag_80:\n        /* \"openzeppelin-solidity/contracts/access/AccessControl.sol\":4717:4762   */\n      tag_290\n        /* \"openzeppelin-solidity/contracts/access/AccessControl.sol\":4725:4731   */\n      0x00\n        /* \"openzeppelin-solidity/contracts/access/AccessControl.sol\":4725:4737   */\n      dup1\n        /* \"openzeppelin-solidity/contracts/access/AccessControl.sol\":4732:4736   */\n      dup5\n        /* \"openzeppelin-solidity/contracts/access/AccessControl.sol\":4725:4737   */\n      dup2\n      mstore\n      0x20\n      add\n      swap1\n      dup2\n      mstore\n      0x20\n      add\n      0x00\n      keccak256\n        /* \"openzeppelin-solidity/contracts/access/AccessControl.sol\":4725:4747   */\n      0x02\n      add\n      sload\n        /* \"openzeppelin-solidity/contracts/access/AccessControl.sol\":4749:4761   */\n      tag_291\n        /* \"openzeppelin-solidity/contracts/access/AccessControl.sol\":4749:4759   */\n      tag_292\n        /* \"openzeppelin-solidity/contracts/access/AccessControl.sol\":4749:4761   */\n      jump\t// in\n    tag_291:\n        /* \"openzeppelin-solidity/contracts/access/AccessControl.sol\":4717:4724   */\n      tag_126\n        /* \"openzeppelin-solidity/contracts/access/AccessControl.sol\":4717:4762   */\n      jump\t// in\n    tag_290:\n        /* \"openzeppelin-solidity/contracts/access/AccessControl.sol\":4709:4814   */\n      tag_293\n      jumpi\n      mload(0x40)\n      0x08c379a000000000000000000000000000000000000000000000000000000000\n      dup2\n      mstore\n      0x04\n      add\n      tag_294\n      swap1\n      tag_295\n      jump\t// in\n    tag_294:\n      mload(0x40)\n      dup1\n      swap2\n      sub\n      swap1\n      revert\n    tag_293:\n        /* \"openzeppelin-solidity/contracts/access/AccessControl.sol\":4825:4850   */\n      tag_296\n        /* \"openzeppelin-solidity/contracts/access/AccessControl.sol\":4836:4840   */\n      dup3\n        /* \"openzeppelin-solidity/contracts/access/AccessControl.sol\":4842:4849   */\n      dup3\n        /* \"openzeppelin-solidity/contracts/access/AccessControl.sol\":4825:4835   */\n      tag_297\n        /* \"openzeppelin-solidity/contracts/access/AccessControl.sol\":4825:4850   */\n      jump\t// in\n    tag_296:\n        /* \"openzeppelin-solidity/contracts/access/AccessControl.sol\":4634:4857   */\n      pop\n      pop\n      jump\t// out\n        /* \"openzeppelin-solidity/contracts/access/AccessControl.sol\":5808:6013   */\n    tag_83:\n        /* \"openzeppelin-solidity/contracts/access/AccessControl.sol\":5905:5917   */\n      tag_299\n        /* \"openzeppelin-solidity/contracts/access/AccessControl.sol\":5905:5915   */\n      tag_292\n        /* \"openzeppelin-solidity/contracts/access/AccessControl.sol\":5905:5917   */\n      jump\t// in\n    tag_299:\n        /* \"openzeppelin-solidity/contracts/access/AccessControl.sol\":5894:5917   */\n      0xffffffffffffffffffffffffffffffffffffffff\n      and\n        /* \"openzeppelin-solidity/contracts/access/AccessControl.sol\":5894:5901   */\n      dup2\n        /* \"openzeppelin-solidity/contracts/access/AccessControl.sol\":5894:5917   */\n      0xffffffffffffffffffffffffffffffffffffffff\n      and\n      eq\n        /* \"openzeppelin-solidity/contracts/access/AccessControl.sol\":5886:5969   */\n      tag_300\n      jumpi\n      mload(0x40)\n      0x08c379a000000000000000000000000000000000000000000000000000000000\n      dup2\n      mstore\n      0x04\n      add\n      tag_301\n      swap1\n      tag_302\n      jump\t// in\n    tag_301:\n      mload(0x40)\n      dup1\n      swap2\n      sub\n      swap1\n      revert\n    tag_300:\n        /* \"openzeppelin-solidity/contracts/access/AccessControl.sol\":5980:6006   */\n      tag_303\n        /* \"openzeppelin-solidity/contracts/access/AccessControl.sol\":5992:5996   */\n      dup3\n        /* \"openzeppelin-solidity/contracts/access/AccessControl.sol\":5998:6005   */\n      dup3\n        /* \"openzeppelin-solidity/contracts/access/AccessControl.sol\":5980:5991   */\n      tag_304\n        /* \"openzeppelin-solidity/contracts/access/AccessControl.sol\":5980:6006   */\n      jump\t// in\n    tag_303:\n        /* \"openzeppelin-solidity/contracts/access/AccessControl.sol\":5808:6013   */\n      pop\n      pop\n      jump\t// out\n        /* \"BlockManager.sol\":1014:1193  function getBlockMedians(uint256 epoch) external view returns(uint256[] memory _blockMedians) {... */\n    tag_86:\n        /* \"BlockManager.sol\":1076:1106  uint256[] memory _blockMedians */\n      0x60\n        /* \"BlockManager.sol\":1134:1140  blocks */\n      0x03\n        /* \"BlockManager.sol\":1134:1147  blocks[epoch] */\n      0x00\n        /* \"BlockManager.sol\":1141:1146  epoch */\n      dup4\n        /* \"BlockManager.sol\":1134:1147  blocks[epoch] */\n      dup2\n      mstore\n      0x20\n      add\n      swap1\n      dup2\n      mstore\n      0x20\n      add\n      0x00\n      keccak256\n        /* \"BlockManager.sol\":1134:1155  blocks[epoch].medians */\n      0x02\n      add\n        /* \"BlockManager.sol\":1118:1155  _blockMedians = blocks[epoch].medians */\n      dup1\n      sload\n      dup1\n      0x20\n      mul\n      0x20\n      add\n      mload(0x40)\n      swap1\n      dup2\n      add\n      0x40\n      mstore\n      dup1\n      swap3\n      swap2\n      swap1\n      dup2\n      dup2\n      mstore\n      0x20\n      add\n      dup3\n      dup1\n      sload\n      dup1\n      iszero\n      tag_306\n      jumpi\n      0x20\n      mul\n      dup3\n      add\n      swap2\n      swap1\n      0x00\n      mstore\n      keccak256(0x00, 0x20)\n      swap1\n    tag_307:\n      dup2\n      sload\n      dup2\n      mstore\n      0x20\n      add\n      swap1\n      0x01\n      add\n      swap1\n      dup1\n      dup4\n      gt\n      tag_307\n      jumpi\n    tag_306:\n      pop\n      pop\n      pop\n      pop\n      pop\n      swap1\n      pop\n        /* \"BlockManager.sol\":1172:1185  _blockMedians */\n      dup1\n        /* \"BlockManager.sol\":1165:1186  return(_blockMedians) */\n      swap1\n      pop\n        /* \"BlockManager.sol\":1014:1193  function getBlockMedians(uint256 epoch) external view returns(uint256[] memory _blockMedians) {... */\n      swap2\n      swap1\n      pop\n      jump\t// out\n        /* \"BlockManager.sol\":8423:9551  function finalizeDispute (uint256 epoch, uint256 blockId)... */\n    tag_92:\n        /* \"BlockManager.sol\":8503:8508  epoch */\n      dup2\n        /* \"BlockManager.sol\":689:701  stateManager */\n      0x05\n      0x00\n      swap1\n      sload\n      swap1\n      0x0100\n      exp\n      swap1\n      div\n      0xffffffffffffffffffffffffffffffffffffffff\n      and\n        /* \"BlockManager.sol\":689:710  stateManager.getEpoch */\n      0xffffffffffffffffffffffffffffffffffffffff\n      and\n      0x757991a8\n        /* \"BlockManager.sol\":689:712  stateManager.getEpoch() */\n      mload(0x40)\n      dup2\n      0xffffffff\n      and\n      0xe0\n      shl\n      dup2\n      mstore\n      0x04\n      add\n      0x20\n      mload(0x40)\n      dup1\n      dup4\n      sub\n      dup2\n      dup7\n      dup1\n      extcodesize\n      iszero\n      dup1\n      iszero\n      tag_309\n      jumpi\n      0x00\n      dup1\n      revert\n    tag_309:\n      pop\n      gas\n      staticcall\n      iszero\n      dup1\n      iszero\n      tag_311\n      jumpi\n      returndatasize\n      0x00\n      dup1\n      returndatacopy\n      revert(0x00, returndatasize)\n    tag_311:\n      pop\n      pop\n      pop\n      pop\n      mload(0x40)\n      returndatasize\n      not(0x1f)\n      0x1f\n      dup3\n      add\n      and\n      dup3\n      add\n      dup1\n      0x40\n      mstore\n      pop\n      dup2\n      add\n      swap1\n      tag_312\n      swap2\n      swap1\n      tag_194\n      jump\t// in\n    tag_312:\n        /* \"BlockManager.sol\":680:685  epoch */\n      dup2\n        /* \"BlockManager.sol\":680:712  epoch == stateManager.getEpoch() */\n      eq\n        /* \"BlockManager.sol\":672:732  require(epoch == stateManager.getEpoch(), \"incorrect epoch\") */\n      tag_313\n      jumpi\n      mload(0x40)\n      0x08c379a000000000000000000000000000000000000000000000000000000000\n      dup2\n      mstore\n      0x04\n      add\n      tag_314\n      swap1\n      tag_197\n      jump\t// in\n    tag_314:\n      mload(0x40)\n      dup1\n      swap2\n      sub\n      swap1\n      revert\n    tag_313:\n        /* \"BlockManager.sol\":8521:8530  Constants */\n      linkerSymbol(\"e861534859442f2de25279a5ccd1626413b62699ca8b37407da3a6bf3bbbfee5\")\n        /* \"BlockManager.sol\":8521:8538  Constants.dispute */\n      0xf240f7c3\n        /* \"BlockManager.sol\":8521:8540  Constants.dispute() */\n      mload(0x40)\n      dup2\n      0xffffffff\n      and\n      0xe0\n      shl\n      dup2\n      mstore\n      0x04\n      add\n      0x20\n      mload(0x40)\n      dup1\n      dup4\n      sub\n      dup2\n      dup7\n      dup1\n      extcodesize\n      iszero\n      dup1\n      iszero\n      tag_315\n      jumpi\n      0x00\n      dup1\n      revert\n    tag_315:\n      pop\n      gas\n      delegatecall\n      iszero\n      dup1\n      iszero\n      tag_317\n      jumpi\n      returndatasize\n      0x00\n      dup1\n      returndatacopy\n      revert(0x00, returndatasize)\n    tag_317:\n      pop\n      pop\n      pop\n      pop\n      mload(0x40)\n      returndatasize\n      not(0x1f)\n      0x1f\n      dup3\n      add\n      and\n      dup3\n      add\n      dup1\n      0x40\n      mstore\n      pop\n      dup2\n      add\n      swap1\n      tag_318\n      swap2\n      swap1\n      tag_202\n      jump\t// in\n    tag_318:\n        /* \"BlockManager.sol\":756:880  modifier checkState (uint256 state) {... */\n      0xff\n      and\n        /* \"BlockManager.sol\":819:831  stateManager */\n      0x05\n      0x00\n      swap1\n      sload\n      swap1\n      0x0100\n      exp\n      swap1\n      div\n      0xffffffffffffffffffffffffffffffffffffffff\n      and\n        /* \"BlockManager.sol\":819:840  stateManager.getState */\n      0xffffffffffffffffffffffffffffffffffffffff\n      and\n      0x1865c57d\n        /* \"BlockManager.sol\":819:842  stateManager.getState() */\n      mload(0x40)\n      dup2\n      0xffffffff\n      and\n      0xe0\n      shl\n      dup2\n      mstore\n      0x04\n      add\n      0x20\n      mload(0x40)\n      dup1\n      dup4\n      sub\n      dup2\n      dup7\n      dup1\n      extcodesize\n      iszero\n      dup1\n      iszero\n      tag_320\n      jumpi\n      0x00\n      dup1\n      revert\n    tag_320:\n      pop\n      gas\n      staticcall\n      iszero\n      dup1\n      iszero\n      tag_322\n      jumpi\n      returndatasize\n      0x00\n      dup1\n      returndatacopy\n      revert(0x00, returndatasize)\n    tag_322:\n      pop\n      pop\n      pop\n      pop\n      mload(0x40)\n      returndatasize\n      not(0x1f)\n      0x1f\n      dup3\n      add\n      and\n      dup3\n      add\n      dup1\n      0x40\n      mstore\n      pop\n      dup2\n      add\n      swap1\n      tag_323\n      swap2\n      swap1\n      tag_194\n      jump\t// in\n    tag_323:\n        /* \"BlockManager.sol\":810:815  state */\n      dup2\n        /* \"BlockManager.sol\":810:842  state == stateManager.getState() */\n      eq\n        /* \"BlockManager.sol\":802:862  require(state == stateManager.getState(), \"incorrect state\") */\n      tag_324\n      jumpi\n      mload(0x40)\n      0x08c379a000000000000000000000000000000000000000000000000000000000\n      dup2\n      mstore\n      0x04\n      add\n      tag_325\n      swap1\n      tag_210\n      jump\t// in\n    tag_325:\n      mload(0x40)\n      dup1\n      swap2\n      sub\n      swap1\n      revert\n    tag_324:\n        /* \"BlockManager.sol\":8552:8567  uint256 assetId */\n      0x00\n        /* \"BlockManager.sol\":8570:8578  disputes */\n      0x01\n        /* \"BlockManager.sol\":8570:8585  disputes[epoch] */\n      0x00\n        /* \"BlockManager.sol\":8579:8584  epoch */\n      dup7\n        /* \"BlockManager.sol\":8570:8585  disputes[epoch] */\n      dup2\n      mstore\n      0x20\n      add\n      swap1\n      dup2\n      mstore\n      0x20\n      add\n      0x00\n      keccak256\n        /* \"BlockManager.sol\":8570:8597  disputes[epoch][msg.sender] */\n      0x00\n        /* \"BlockManager.sol\":8586:8596  msg.sender */\n      caller\n        /* \"BlockManager.sol\":8570:8597  disputes[epoch][msg.sender] */\n      0xffffffffffffffffffffffffffffffffffffffff\n      and\n      0xffffffffffffffffffffffffffffffffffffffff\n      and\n      dup2\n      mstore\n      0x20\n      add\n      swap1\n      dup2\n      mstore\n      0x20\n      add\n      0x00\n      keccak256\n        /* \"BlockManager.sol\":8570:8605  disputes[epoch][msg.sender].assetId */\n      0x05\n      add\n      sload\n        /* \"BlockManager.sol\":8552:8605  uint256 assetId = disputes[epoch][msg.sender].assetId */\n      swap1\n      pop\n        /* \"BlockManager.sol\":8664:8675  voteManager */\n      0x06\n      0x00\n      swap1\n      sload\n      swap1\n      0x0100\n      exp\n      swap1\n      div\n      0xffffffffffffffffffffffffffffffffffffffff\n      and\n        /* \"BlockManager.sol\":8664:8697  voteManager.getTotalStakeRevealed */\n      0xffffffffffffffffffffffffffffffffffffffff\n      and\n      0xa6a145d9\n        /* \"BlockManager.sol\":8698:8703  epoch */\n      dup7\n        /* \"BlockManager.sol\":8705:8712  assetId */\n      dup4\n        /* \"BlockManager.sol\":8664:8713  voteManager.getTotalStakeRevealed(epoch, assetId) */\n      mload(0x40)\n      dup4\n      0xffffffff\n      and\n      0xe0\n      shl\n      dup2\n      mstore\n      0x04\n      add\n      tag_327\n      swap3\n      swap2\n      swap1\n      tag_260\n      jump\t// in\n    tag_327:\n      0x20\n      mload(0x40)\n      dup1\n      dup4\n      sub\n      dup2\n      dup7\n      dup1\n      extcodesize\n      iszero\n      dup1\n      iszero\n      tag_328\n      jumpi\n      0x00\n      dup1\n      revert\n    tag_328:\n      pop\n      gas\n      staticcall\n      iszero\n      dup1\n      iszero\n      tag_330\n      jumpi\n      returndatasize\n      0x00\n      dup1\n      returndatacopy\n      revert(0x00, returndatasize)\n    tag_330:\n      pop\n      pop\n      pop\n      pop\n      mload(0x40)\n      returndatasize\n      not(0x1f)\n      0x1f\n      dup3\n      add\n      and\n      dup3\n      add\n      dup1\n      0x40\n      mstore\n      pop\n      dup2\n      add\n      swap1\n      tag_331\n      swap2\n      swap1\n      tag_194\n      jump\t// in\n    tag_331:\n        /* \"BlockManager.sol\":8623:8631  disputes */\n      0x01\n        /* \"BlockManager.sol\":8623:8638  disputes[epoch] */\n      0x00\n        /* \"BlockManager.sol\":8632:8637  epoch */\n      dup8\n        /* \"BlockManager.sol\":8623:8638  disputes[epoch] */\n      dup2\n      mstore\n      0x20\n      add\n      swap1\n      dup2\n      mstore\n      0x20\n      add\n      0x00\n      keccak256\n        /* \"BlockManager.sol\":8623:8650  disputes[epoch][msg.sender] */\n      0x00\n        /* \"BlockManager.sol\":8639:8649  msg.sender */\n      caller\n        /* \"BlockManager.sol\":8623:8650  disputes[epoch][msg.sender] */\n      0xffffffffffffffffffffffffffffffffffffffff\n      and\n      0xffffffffffffffffffffffffffffffffffffffff\n      and\n      dup2\n      mstore\n      0x20\n      add\n      swap1\n      dup2\n      mstore\n      0x20\n      add\n      0x00\n      keccak256\n        /* \"BlockManager.sol\":8623:8660  disputes[epoch][msg.sender].accWeight */\n      0x00\n      add\n      sload\n        /* \"BlockManager.sol\":8623:8713  disputes[epoch][msg.sender].accWeight == voteManager.getTotalStakeRevealed(epoch, assetId) */\n      eq\n        /* \"BlockManager.sol\":8615:8759  require(disputes[epoch][msg.sender].accWeight == voteManager.getTotalStakeRevealed(epoch, assetId),... */\n      tag_332\n      jumpi\n      mload(0x40)\n      0x08c379a000000000000000000000000000000000000000000000000000000000\n      dup2\n      mstore\n      0x04\n      add\n      tag_333\n      swap1\n      tag_334\n      jump\t// in\n    tag_333:\n      mload(0x40)\n      dup1\n      swap2\n      sub\n      swap1\n      revert\n    tag_332:\n        /* \"BlockManager.sol\":8769:8783  uint256 median */\n      0x00\n        /* \"BlockManager.sol\":8786:8794  disputes */\n      0x01\n        /* \"BlockManager.sol\":8786:8801  disputes[epoch] */\n      0x00\n        /* \"BlockManager.sol\":8795:8800  epoch */\n      dup8\n        /* \"BlockManager.sol\":8786:8801  disputes[epoch] */\n      dup2\n      mstore\n      0x20\n      add\n      swap1\n      dup2\n      mstore\n      0x20\n      add\n      0x00\n      keccak256\n        /* \"BlockManager.sol\":8786:8813  disputes[epoch][msg.sender] */\n      0x00\n        /* \"BlockManager.sol\":8802:8812  msg.sender */\n      caller\n        /* \"BlockManager.sol\":8786:8813  disputes[epoch][msg.sender] */\n      0xffffffffffffffffffffffffffffffffffffffff\n      and\n      0xffffffffffffffffffffffffffffffffffffffff\n      and\n      dup2\n      mstore\n      0x20\n      add\n      swap1\n      dup2\n      mstore\n      0x20\n      add\n      0x00\n      keccak256\n        /* \"BlockManager.sol\":8786:8820  disputes[epoch][msg.sender].median */\n      0x01\n      add\n      sload\n        /* \"BlockManager.sol\":8769:8820  uint256 median = disputes[epoch][msg.sender].median */\n      swap1\n      pop\n        /* \"BlockManager.sol\":8830:8849  uint256 lowerCutoff */\n      0x00\n        /* \"BlockManager.sol\":8852:8860  disputes */\n      0x01\n        /* \"BlockManager.sol\":8852:8867  disputes[epoch] */\n      0x00\n        /* \"BlockManager.sol\":8861:8866  epoch */\n      dup9\n        /* \"BlockManager.sol\":8852:8867  disputes[epoch] */\n      dup2\n      mstore\n      0x20\n      add\n      swap1\n      dup2\n      mstore\n      0x20\n      add\n      0x00\n      keccak256\n        /* \"BlockManager.sol\":8852:8879  disputes[epoch][msg.sender] */\n      0x00\n        /* \"BlockManager.sol\":8868:8878  msg.sender */\n      caller\n        /* \"BlockManager.sol\":8852:8879  disputes[epoch][msg.sender] */\n      0xffffffffffffffffffffffffffffffffffffffff\n      and\n      0xffffffffffffffffffffffffffffffffffffffff\n      and\n      dup2\n      mstore\n      0x20\n      add\n      swap1\n      dup2\n      mstore\n      0x20\n      add\n      0x00\n      keccak256\n        /* \"BlockManager.sol\":8852:8891  disputes[epoch][msg.sender].lowerCutoff */\n      0x02\n      add\n      sload\n        /* \"BlockManager.sol\":8830:8891  uint256 lowerCutoff = disputes[epoch][msg.sender].lowerCutoff */\n      swap1\n      pop\n        /* \"BlockManager.sol\":8901:8921  uint256 higherCutoff */\n      0x00\n        /* \"BlockManager.sol\":8924:8932  disputes */\n      0x01\n        /* \"BlockManager.sol\":8924:8939  disputes[epoch] */\n      0x00\n        /* \"BlockManager.sol\":8933:8938  epoch */\n      dup10\n        /* \"BlockManager.sol\":8924:8939  disputes[epoch] */\n      dup2\n      mstore\n      0x20\n      add\n      swap1\n      dup2\n      mstore\n      0x20\n      add\n      0x00\n      keccak256\n        /* \"BlockManager.sol\":8924:8951  disputes[epoch][msg.sender] */\n      0x00\n        /* \"BlockManager.sol\":8940:8950  msg.sender */\n      caller\n        /* \"BlockManager.sol\":8924:8951  disputes[epoch][msg.sender] */\n      0xffffffffffffffffffffffffffffffffffffffff\n      and\n      0xffffffffffffffffffffffffffffffffffffffff\n      and\n      dup2\n      mstore\n      0x20\n      add\n      swap1\n      dup2\n      mstore\n      0x20\n      add\n      0x00\n      keccak256\n        /* \"BlockManager.sol\":8924:8964  disputes[epoch][msg.sender].higherCutoff */\n      0x03\n      add\n      sload\n        /* \"BlockManager.sol\":8901:8964  uint256 higherCutoff = disputes[epoch][msg.sender].higherCutoff */\n      swap1\n      pop\n        /* \"BlockManager.sol\":8974:8992  uint256 proposerId */\n      0x00\n        /* \"BlockManager.sol\":8995:9009  proposedBlocks */\n      0x02\n        /* \"BlockManager.sol\":8995:9016  proposedBlocks[epoch] */\n      0x00\n        /* \"BlockManager.sol\":9010:9015  epoch */\n      dup11\n        /* \"BlockManager.sol\":8995:9016  proposedBlocks[epoch] */\n      dup2\n      mstore\n      0x20\n      add\n      swap1\n      dup2\n      mstore\n      0x20\n      add\n      0x00\n      keccak256\n        /* \"BlockManager.sol\":9017:9024  blockId */\n      dup9\n        /* \"BlockManager.sol\":8995:9025  proposedBlocks[epoch][blockId] */\n      dup2\n      sload\n      dup2\n      lt\n      tag_335\n      jumpi\n      invalid\n    tag_335:\n      swap1\n      0x00\n      mstore\n      keccak256(0x00, 0x20)\n      swap1\n      0x08\n      mul\n      add\n        /* \"BlockManager.sol\":8995:9036  proposedBlocks[epoch][blockId].proposerId */\n      0x00\n      add\n      sload\n        /* \"BlockManager.sol\":8974:9036  uint256 proposerId = proposedBlocks[epoch][blockId].proposerId */\n      swap1\n      pop\n        /* \"BlockManager.sol\":9074:9075  0 */\n      0x00\n        /* \"BlockManager.sol\":9065:9071  median */\n      dup5\n        /* \"BlockManager.sol\":9065:9075  median > 0 */\n      gt\n        /* \"BlockManager.sol\":9057:9076  require(median > 0) */\n      tag_337\n      jumpi\n      0x00\n      dup1\n      revert\n    tag_337:\n        /* \"BlockManager.sol\":9141:9147  median */\n      dup4\n        /* \"BlockManager.sol\":9090:9104  proposedBlocks */\n      0x02\n        /* \"BlockManager.sol\":9090:9111  proposedBlocks[epoch] */\n      0x00\n        /* \"BlockManager.sol\":9105:9110  epoch */\n      dup12\n        /* \"BlockManager.sol\":9090:9111  proposedBlocks[epoch] */\n      dup2\n      mstore\n      0x20\n      add\n      swap1\n      dup2\n      mstore\n      0x20\n      add\n      0x00\n      keccak256\n        /* \"BlockManager.sol\":9112:9119  blockId */\n      dup10\n        /* \"BlockManager.sol\":9090:9120  proposedBlocks[epoch][blockId] */\n      dup2\n      sload\n      dup2\n      lt\n      tag_338\n      jumpi\n      invalid\n    tag_338:\n      swap1\n      0x00\n      mstore\n      keccak256(0x00, 0x20)\n      swap1\n      0x08\n      mul\n      add\n        /* \"BlockManager.sol\":9090:9128  proposedBlocks[epoch][blockId].medians */\n      0x02\n      add\n        /* \"BlockManager.sol\":9129:9136  assetId */\n      dup7\n        /* \"BlockManager.sol\":9090:9137  proposedBlocks[epoch][blockId].medians[assetId] */\n      dup2\n      sload\n      dup2\n      lt\n      tag_340\n      jumpi\n      invalid\n    tag_340:\n      swap1\n      0x00\n      mstore\n      keccak256(0x00, 0x20)\n      add\n      sload\n        /* \"BlockManager.sol\":9090:9147  proposedBlocks[epoch][blockId].medians[assetId] != median */\n      eq\n      iszero\n        /* \"BlockManager.sol\":9090:9230  proposedBlocks[epoch][blockId].medians[assetId] != median ||... */\n      dup1\n      tag_342\n      jumpi\n      pop\n        /* \"BlockManager.sol\":9219:9230  lowerCutoff */\n      dup3\n        /* \"BlockManager.sol\":9163:9177  proposedBlocks */\n      0x02\n        /* \"BlockManager.sol\":9163:9184  proposedBlocks[epoch] */\n      0x00\n        /* \"BlockManager.sol\":9178:9183  epoch */\n      dup12\n        /* \"BlockManager.sol\":9163:9184  proposedBlocks[epoch] */\n      dup2\n      mstore\n      0x20\n      add\n      swap1\n      dup2\n      mstore\n      0x20\n      add\n      0x00\n      keccak256\n        /* \"BlockManager.sol\":9185:9192  blockId */\n      dup10\n        /* \"BlockManager.sol\":9163:9193  proposedBlocks[epoch][blockId] */\n      dup2\n      sload\n      dup2\n      lt\n      tag_343\n      jumpi\n      invalid\n    tag_343:\n      swap1\n      0x00\n      mstore\n      keccak256(0x00, 0x20)\n      swap1\n      0x08\n      mul\n      add\n        /* \"BlockManager.sol\":9163:9206  proposedBlocks[epoch][blockId].lowerCutoffs */\n      0x03\n      add\n        /* \"BlockManager.sol\":9207:9214  assetId */\n      dup7\n        /* \"BlockManager.sol\":9163:9215  proposedBlocks[epoch][blockId].lowerCutoffs[assetId] */\n      dup2\n      sload\n      dup2\n      lt\n      tag_345\n      jumpi\n      invalid\n    tag_345:\n      swap1\n      0x00\n      mstore\n      keccak256(0x00, 0x20)\n      add\n      sload\n        /* \"BlockManager.sol\":9163:9230  proposedBlocks[epoch][blockId].lowerCutoffs[assetId] != lowerCutoff */\n      eq\n      iszero\n        /* \"BlockManager.sol\":9090:9230  proposedBlocks[epoch][blockId].medians[assetId] != median ||... */\n    tag_342:\n        /* \"BlockManager.sol\":9090:9315  proposedBlocks[epoch][blockId].medians[assetId] != median ||... */\n      dup1\n      tag_347\n      jumpi\n      pop\n        /* \"BlockManager.sol\":9303:9315  higherCutoff */\n      dup2\n        /* \"BlockManager.sol\":9246:9260  proposedBlocks */\n      0x02\n        /* \"BlockManager.sol\":9246:9267  proposedBlocks[epoch] */\n      0x00\n        /* \"BlockManager.sol\":9261:9266  epoch */\n      dup12\n        /* \"BlockManager.sol\":9246:9267  proposedBlocks[epoch] */\n      dup2\n      mstore\n      0x20\n      add\n      swap1\n      dup2\n      mstore\n      0x20\n      add\n      0x00\n      keccak256\n        /* \"BlockManager.sol\":9268:9275  blockId */\n      dup10\n        /* \"BlockManager.sol\":9246:9276  proposedBlocks[epoch][blockId] */\n      dup2\n      sload\n      dup2\n      lt\n      tag_348\n      jumpi\n      invalid\n    tag_348:\n      swap1\n      0x00\n      mstore\n      keccak256(0x00, 0x20)\n      swap1\n      0x08\n      mul\n      add\n        /* \"BlockManager.sol\":9246:9290  proposedBlocks[epoch][blockId].higherCutoffs */\n      0x04\n      add\n        /* \"BlockManager.sol\":9291:9298  assetId */\n      dup7\n        /* \"BlockManager.sol\":9246:9299  proposedBlocks[epoch][blockId].higherCutoffs[assetId] */\n      dup2\n      sload\n      dup2\n      lt\n      tag_350\n      jumpi\n      invalid\n    tag_350:\n      swap1\n      0x00\n      mstore\n      keccak256(0x00, 0x20)\n      add\n      sload\n        /* \"BlockManager.sol\":9246:9315  proposedBlocks[epoch][blockId].higherCutoffs[assetId] != higherCutoff */\n      eq\n      iszero\n        /* \"BlockManager.sol\":9090:9315  proposedBlocks[epoch][blockId].medians[assetId] != median ||... */\n    tag_347:\n        /* \"BlockManager.sol\":9086:9545  if (proposedBlocks[epoch][blockId].medians[assetId] != median ||... */\n      iszero\n      tag_352\n      jumpi\n        /* \"BlockManager.sol\":9370:9375  false */\n      0x00\n        /* \"BlockManager.sol\":9331:9345  proposedBlocks */\n      0x02\n        /* \"BlockManager.sol\":9331:9352  proposedBlocks[epoch] */\n      0x00\n        /* \"BlockManager.sol\":9346:9351  epoch */\n      dup12\n        /* \"BlockManager.sol\":9331:9352  proposedBlocks[epoch] */\n      dup2\n      mstore\n      0x20\n      add\n      swap1\n      dup2\n      mstore\n      0x20\n      add\n      0x00\n      keccak256\n        /* \"BlockManager.sol\":9353:9360  blockId */\n      dup10\n        /* \"BlockManager.sol\":9331:9361  proposedBlocks[epoch][blockId] */\n      dup2\n      sload\n      dup2\n      lt\n      tag_353\n      jumpi\n      invalid\n    tag_353:\n      swap1\n      0x00\n      mstore\n      keccak256(0x00, 0x20)\n      swap1\n      0x08\n      mul\n      add\n        /* \"BlockManager.sol\":9331:9367  proposedBlocks[epoch][blockId].valid */\n      0x07\n      add\n      0x00\n        /* \"BlockManager.sol\":9331:9375  proposedBlocks[epoch][blockId].valid = false */\n      0x0100\n      exp\n      dup2\n      sload\n      dup2\n      0xff\n      mul\n      not\n      and\n      swap1\n      dup4\n      iszero\n      iszero\n      mul\n      or\n      swap1\n      sstore\n      pop\n        /* \"BlockManager.sol\":9389:9401  stakeManager */\n      0x04\n      0x00\n      swap1\n      sload\n      swap1\n      0x0100\n      exp\n      swap1\n      div\n      0xffffffffffffffffffffffffffffffffffffffff\n      and\n        /* \"BlockManager.sol\":9389:9407  stakeManager.slash */\n      0xffffffffffffffffffffffffffffffffffffffff\n      and\n      0x0f91ce19\n        /* \"BlockManager.sol\":9408:9418  proposerId */\n      dup3\n        /* \"BlockManager.sol\":9420:9430  msg.sender */\n      caller\n        /* \"BlockManager.sol\":9432:9437  epoch */\n      dup13\n        /* \"BlockManager.sol\":9389:9438  stakeManager.slash(proposerId, msg.sender, epoch) */\n      mload(0x40)\n      dup5\n      0xffffffff\n      and\n      0xe0\n      shl\n      dup2\n      mstore\n      0x04\n      add\n      tag_355\n      swap4\n      swap3\n      swap2\n      swap1\n      tag_356\n      jump\t// in\n    tag_355:\n      0x00\n      mload(0x40)\n      dup1\n      dup4\n      sub\n      dup2\n      0x00\n      dup8\n      dup1\n      extcodesize\n      iszero\n      dup1\n      iszero\n      tag_357\n      jumpi\n      0x00\n      dup1\n      revert\n    tag_357:\n      pop\n      gas\n      call\n      iszero\n      dup1\n      iszero\n      tag_359\n      jumpi\n      returndatasize\n      0x00\n      dup1\n      returndatacopy\n      revert(0x00, returndatasize)\n    tag_359:\n      pop\n      pop\n      pop\n      pop\n        /* \"BlockManager.sol\":9086:9545  if (proposedBlocks[epoch][blockId].medians[assetId] != median ||... */\n      jump(tag_360)\n    tag_352:\n        /* \"BlockManager.sol\":9469:9534  revert(\"Proposed Alternate block is identical to proposed block\") */\n      mload(0x40)\n      0x08c379a000000000000000000000000000000000000000000000000000000000\n      dup2\n      mstore\n      0x04\n      add\n      tag_361\n      swap1\n      tag_362\n      jump\t// in\n    tag_361:\n      mload(0x40)\n      dup1\n      swap2\n      sub\n      swap1\n      revert\n        /* \"BlockManager.sol\":9086:9545  if (proposedBlocks[epoch][blockId].medians[assetId] != median ||... */\n    tag_360:\n        /* \"BlockManager.sol\":872:873  _ */\n      pop\n      pop\n      pop\n      pop\n      pop\n        /* \"BlockManager.sol\":742:743  _ */\n      pop\n        /* \"BlockManager.sol\":8423:9551  function finalizeDispute (uint256 epoch, uint256 blockId)... */\n      pop\n      pop\n      pop\n      jump\t// out\n        /* \"BlockManager.sol\":590:619  IJobManager public jobManager */\n    tag_94:\n      0x07\n      0x00\n      swap1\n      sload\n      swap1\n      0x0100\n      exp\n      swap1\n      div\n      0xffffffffffffffffffffffffffffffffffffffff\n      and\n      dup2\n      jump\t// out\n        /* \"BlockManager.sol\":553:584  IVoteManager public voteManager */\n    tag_98:\n      0x06\n      0x00\n      swap1\n      sload\n      swap1\n      0x0100\n      exp\n      swap1\n      div\n      0xffffffffffffffffffffffffffffffffffffffff\n      and\n      dup2\n      jump\t// out\n        /* \"BlockManager.sol\":6217:8140  function giveSorted (uint256 epoch, uint256 assetId, uint256[] memory sorted) public... */\n    tag_104:\n        /* \"BlockManager.sol\":6317:6322  epoch */\n      dup3\n        /* \"BlockManager.sol\":689:701  stateManager */\n      0x05\n      0x00\n      swap1\n      sload\n      swap1\n      0x0100\n      exp\n      swap1\n      div\n      0xffffffffffffffffffffffffffffffffffffffff\n      and\n        /* \"BlockManager.sol\":689:710  stateManager.getEpoch */\n      0xffffffffffffffffffffffffffffffffffffffff\n      and\n      0x757991a8\n        /* \"BlockManager.sol\":689:712  stateManager.getEpoch() */\n      mload(0x40)\n      dup2\n      0xffffffff\n      and\n      0xe0\n      shl\n      dup2\n      mstore\n      0x04\n      add\n      0x20\n      mload(0x40)\n      dup1\n      dup4\n      sub\n      dup2\n      dup7\n      dup1\n      extcodesize\n      iszero\n      dup1\n      iszero\n      tag_364\n      jumpi\n      0x00\n      dup1\n      revert\n    tag_364:\n      pop\n      gas\n      staticcall\n      iszero\n      dup1\n      iszero\n      tag_366\n      jumpi\n      returndatasize\n      0x00\n      dup1\n      returndatacopy\n      revert(0x00, returndatasize)\n    tag_366:\n      pop\n      pop\n      pop\n      pop\n      mload(0x40)\n      returndatasize\n      not(0x1f)\n      0x1f\n      dup3\n      add\n      and\n      dup3\n      add\n      dup1\n      0x40\n      mstore\n      pop\n      dup2\n      add\n      swap1\n      tag_367\n      swap2\n      swap1\n      tag_194\n      jump\t// in\n    tag_367:\n        /* \"BlockManager.sol\":680:685  epoch */\n      dup2\n        /* \"BlockManager.sol\":680:712  epoch == stateManager.getEpoch() */\n      eq\n        /* \"BlockManager.sol\":672:732  require(epoch == stateManager.getEpoch(), \"incorrect epoch\") */\n      tag_368\n      jumpi\n      mload(0x40)\n      0x08c379a000000000000000000000000000000000000000000000000000000000\n      dup2\n      mstore\n      0x04\n      add\n      tag_369\n      swap1\n      tag_197\n      jump\t// in\n    tag_369:\n      mload(0x40)\n      dup1\n      swap2\n      sub\n      swap1\n      revert\n    tag_368:\n        /* \"BlockManager.sol\":6335:6344  Constants */\n      linkerSymbol(\"e861534859442f2de25279a5ccd1626413b62699ca8b37407da3a6bf3bbbfee5\")\n        /* \"BlockManager.sol\":6335:6352  Constants.dispute */\n      0xf240f7c3\n        /* \"BlockManager.sol\":6335:6354  Constants.dispute() */\n      mload(0x40)\n      dup2\n      0xffffffff\n      and\n      0xe0\n      shl\n      dup2\n      mstore\n      0x04\n      add\n      0x20\n      mload(0x40)\n      dup1\n      dup4\n      sub\n      dup2\n      dup7\n      dup1\n      extcodesize\n      iszero\n      dup1\n      iszero\n      tag_370\n      jumpi\n      0x00\n      dup1\n      revert\n    tag_370:\n      pop\n      gas\n      delegatecall\n      iszero\n      dup1\n      iszero\n      tag_372\n      jumpi\n      returndatasize\n      0x00\n      dup1\n      returndatacopy\n      revert(0x00, returndatasize)\n    tag_372:\n      pop\n      pop\n      pop\n      pop\n      mload(0x40)\n      returndatasize\n      not(0x1f)\n      0x1f\n      dup3\n      add\n      and\n      dup3\n      add\n      dup1\n      0x40\n      mstore\n      pop\n      dup2\n      add\n      swap1\n      tag_373\n      swap2\n      swap1\n      tag_202\n      jump\t// in\n    tag_373:\n        /* \"BlockManager.sol\":756:880  modifier checkState (uint256 state) {... */\n      0xff\n      and\n        /* \"BlockManager.sol\":819:831  stateManager */\n      0x05\n      0x00\n      swap1\n      sload\n      swap1\n      0x0100\n      exp\n      swap1\n      div\n      0xffffffffffffffffffffffffffffffffffffffff\n      and\n        /* \"BlockManager.sol\":819:840  stateManager.getState */\n      0xffffffffffffffffffffffffffffffffffffffff\n      and\n      0x1865c57d\n        /* \"BlockManager.sol\":819:842  stateManager.getState() */\n      mload(0x40)\n      dup2\n      0xffffffff\n      and\n      0xe0\n      shl\n      dup2\n      mstore\n      0x04\n      add\n      0x20\n      mload(0x40)\n      dup1\n      dup4\n      sub\n      dup2\n      dup7\n      dup1\n      extcodesize\n      iszero\n      dup1\n      iszero\n      tag_375\n      jumpi\n      0x00\n      dup1\n      revert\n    tag_375:\n      pop\n      gas\n      staticcall\n      iszero\n      dup1\n      iszero\n      tag_377\n      jumpi\n      returndatasize\n      0x00\n      dup1\n      returndatacopy\n      revert(0x00, returndatasize)\n    tag_377:\n      pop\n      pop\n      pop\n      pop\n      mload(0x40)\n      returndatasize\n      not(0x1f)\n      0x1f\n      dup3\n      add\n      and\n      dup3\n      add\n      dup1\n      0x40\n      mstore\n      pop\n      dup2\n      add\n      swap1\n      tag_378\n      swap2\n      swap1\n      tag_194\n      jump\t// in\n    tag_378:\n        /* \"BlockManager.sol\":810:815  state */\n      dup2\n        /* \"BlockManager.sol\":810:842  state == stateManager.getState() */\n      eq\n        /* \"BlockManager.sol\":802:862  require(state == stateManager.getState(), \"incorrect state\") */\n      tag_379\n      jumpi\n      mload(0x40)\n      0x08c379a000000000000000000000000000000000000000000000000000000000\n      dup2\n      mstore\n      0x04\n      add\n      tag_380\n      swap1\n      tag_210\n      jump\t// in\n    tag_380:\n      mload(0x40)\n      dup1\n      swap2\n      sub\n      swap1\n      revert\n    tag_379:\n        /* \"BlockManager.sol\":6366:6386  uint256 medianWeight */\n      0x00\n        /* \"BlockManager.sol\":6389:6445  voteManager.getTotalStakeRevealed(epoch, assetId).div(2) */\n      tag_382\n        /* \"BlockManager.sol\":6443:6444  2 */\n      0x02\n        /* \"BlockManager.sol\":6389:6400  voteManager */\n      0x06\n      0x00\n      swap1\n      sload\n      swap1\n      0x0100\n      exp\n      swap1\n      div\n      0xffffffffffffffffffffffffffffffffffffffff\n      and\n        /* \"BlockManager.sol\":6389:6422  voteManager.getTotalStakeRevealed */\n      0xffffffffffffffffffffffffffffffffffffffff\n      and\n      0xa6a145d9\n        /* \"BlockManager.sol\":6423:6428  epoch */\n      dup10\n        /* \"BlockManager.sol\":6430:6437  assetId */\n      dup10\n        /* \"BlockManager.sol\":6389:6438  voteManager.getTotalStakeRevealed(epoch, assetId) */\n      mload(0x40)\n      dup4\n      0xffffffff\n      and\n      0xe0\n      shl\n      dup2\n      mstore\n      0x04\n      add\n      tag_383\n      swap3\n      swap2\n      swap1\n      tag_260\n      jump\t// in\n    tag_383:\n      0x20\n      mload(0x40)\n      dup1\n      dup4\n      sub\n      dup2\n      dup7\n      dup1\n      extcodesize\n      iszero\n      dup1\n      iszero\n      tag_384\n      jumpi\n      0x00\n      dup1\n      revert\n    tag_384:\n      pop\n      gas\n      staticcall\n      iszero\n      dup1\n      iszero\n      tag_386\n      jumpi\n      returndatasize\n      0x00\n      dup1\n      returndatacopy\n      revert(0x00, returndatasize)\n    tag_386:\n      pop\n      pop\n      pop\n      pop\n      mload(0x40)\n      returndatasize\n      not(0x1f)\n      0x1f\n      dup3\n      add\n      and\n      dup3\n      add\n      dup1\n      0x40\n      mstore\n      pop\n      dup2\n      add\n      swap1\n      tag_387\n      swap2\n      swap1\n      tag_194\n      jump\t// in\n    tag_387:\n        /* \"BlockManager.sol\":6389:6442  voteManager.getTotalStakeRevealed(epoch, assetId).div */\n      tag_388\n      swap1\n        /* \"BlockManager.sol\":6389:6445  voteManager.getTotalStakeRevealed(epoch, assetId).div(2) */\n      swap2\n      swap1\n      0xffffffff\n      and\n      jump\t// in\n    tag_382:\n        /* \"BlockManager.sol\":6366:6445  uint256 medianWeight = voteManager.getTotalStakeRevealed(epoch, assetId).div(2) */\n      swap1\n      pop\n        /* \"BlockManager.sol\":6455:6480  uint256 lowerCutoffWeight */\n      0x00\n        /* \"BlockManager.sol\":6483:6539  voteManager.getTotalStakeRevealed(epoch, assetId).div(4) */\n      tag_389\n        /* \"BlockManager.sol\":6537:6538  4 */\n      0x04\n        /* \"BlockManager.sol\":6483:6494  voteManager */\n      0x06\n      0x00\n      swap1\n      sload\n      swap1\n      0x0100\n      exp\n      swap1\n      div\n      0xffffffffffffffffffffffffffffffffffffffff\n      and\n        /* \"BlockManager.sol\":6483:6516  voteManager.getTotalStakeRevealed */\n      0xffffffffffffffffffffffffffffffffffffffff\n      and\n      0xa6a145d9\n        /* \"BlockManager.sol\":6517:6522  epoch */\n      dup11\n        /* \"BlockManager.sol\":6524:6531  assetId */\n      dup11\n        /* \"BlockManager.sol\":6483:6532  voteManager.getTotalStakeRevealed(epoch, assetId) */\n      mload(0x40)\n      dup4\n      0xffffffff\n      and\n      0xe0\n      shl\n      dup2\n      mstore\n      0x04\n      add\n      tag_390\n      swap3\n      swap2\n      swap1\n      tag_260\n      jump\t// in\n    tag_390:\n      0x20\n      mload(0x40)\n      dup1\n      dup4\n      sub\n      dup2\n      dup7\n      dup1\n      extcodesize\n      iszero\n      dup1\n      iszero\n      tag_391\n      jumpi\n      0x00\n      dup1\n      revert\n    tag_391:\n      pop\n      gas\n      staticcall\n      iszero\n      dup1\n      iszero\n      tag_393\n      jumpi\n      returndatasize\n      0x00\n      dup1\n      returndatacopy\n      revert(0x00, returndatasize)\n    tag_393:\n      pop\n      pop\n      pop\n      pop\n      mload(0x40)\n      returndatasize\n      not(0x1f)\n      0x1f\n      dup3\n      add\n      and\n      dup3\n      add\n      dup1\n      0x40\n      mstore\n      pop\n      dup2\n      add\n      swap1\n      tag_394\n      swap2\n      swap1\n      tag_194\n      jump\t// in\n    tag_394:\n        /* \"BlockManager.sol\":6483:6536  voteManager.getTotalStakeRevealed(epoch, assetId).div */\n      tag_388\n      swap1\n        /* \"BlockManager.sol\":6483:6539  voteManager.getTotalStakeRevealed(epoch, assetId).div(4) */\n      swap2\n      swap1\n      0xffffffff\n      and\n      jump\t// in\n    tag_389:\n        /* \"BlockManager.sol\":6455:6539  uint256 lowerCutoffWeight = voteManager.getTotalStakeRevealed(epoch, assetId).div(4) */\n      swap1\n      pop\n        /* \"BlockManager.sol\":6549:6575  uint256 higherCutoffWeight */\n      0x00\n        /* \"BlockManager.sol\":6578:6643  (voteManager.getTotalStakeRevealed(epoch, assetId).mul(3)).div(4) */\n      tag_395\n        /* \"BlockManager.sol\":6641:6642  4 */\n      0x04\n        /* \"BlockManager.sol\":6579:6635  voteManager.getTotalStakeRevealed(epoch, assetId).mul(3) */\n      tag_396\n        /* \"BlockManager.sol\":6633:6634  3 */\n      0x03\n        /* \"BlockManager.sol\":6579:6590  voteManager */\n      0x06\n      0x00\n      swap1\n      sload\n      swap1\n      0x0100\n      exp\n      swap1\n      div\n      0xffffffffffffffffffffffffffffffffffffffff\n      and\n        /* \"BlockManager.sol\":6579:6612  voteManager.getTotalStakeRevealed */\n      0xffffffffffffffffffffffffffffffffffffffff\n      and\n      0xa6a145d9\n        /* \"BlockManager.sol\":6613:6618  epoch */\n      dup14\n        /* \"BlockManager.sol\":6620:6627  assetId */\n      dup14\n        /* \"BlockManager.sol\":6579:6628  voteManager.getTotalStakeRevealed(epoch, assetId) */\n      mload(0x40)\n      dup4\n      0xffffffff\n      and\n      0xe0\n      shl\n      dup2\n      mstore\n      0x04\n      add\n      tag_397\n      swap3\n      swap2\n      swap1\n      tag_260\n      jump\t// in\n    tag_397:\n      0x20\n      mload(0x40)\n      dup1\n      dup4\n      sub\n      dup2\n      dup7\n      dup1\n      extcodesize\n      iszero\n      dup1\n      iszero\n      tag_398\n      jumpi\n      0x00\n      dup1\n      revert\n    tag_398:\n      pop\n      gas\n      staticcall\n      iszero\n      dup1\n      iszero\n      tag_400\n      jumpi\n      returndatasize\n      0x00\n      dup1\n      returndatacopy\n      revert(0x00, returndatasize)\n    tag_400:\n      pop\n      pop\n      pop\n      pop\n      mload(0x40)\n      returndatasize\n      not(0x1f)\n      0x1f\n      dup3\n      add\n      and\n      dup3\n      add\n      dup1\n      0x40\n      mstore\n      pop\n      dup2\n      add\n      swap1\n      tag_401\n      swap2\n      swap1\n      tag_194\n      jump\t// in\n    tag_401:\n        /* \"BlockManager.sol\":6579:6632  voteManager.getTotalStakeRevealed(epoch, assetId).mul */\n      tag_281\n      swap1\n        /* \"BlockManager.sol\":6579:6635  voteManager.getTotalStakeRevealed(epoch, assetId).mul(3) */\n      swap2\n      swap1\n      0xffffffff\n      and\n      jump\t// in\n    tag_396:\n        /* \"BlockManager.sol\":6578:6640  (voteManager.getTotalStakeRevealed(epoch, assetId).mul(3)).div */\n      tag_388\n      swap1\n        /* \"BlockManager.sol\":6578:6643  (voteManager.getTotalStakeRevealed(epoch, assetId).mul(3)).div(4) */\n      swap2\n      swap1\n      0xffffffff\n      and\n      jump\t// in\n    tag_395:\n        /* \"BlockManager.sol\":6549:6643  uint256 higherCutoffWeight = (voteManager.getTotalStakeRevealed(epoch, assetId).mul(3)).div(4) */\n      swap1\n      pop\n        /* \"BlockManager.sol\":6653:6670  uint256 accWeight */\n      0x00\n        /* \"BlockManager.sol\":6673:6681  disputes */\n      0x01\n        /* \"BlockManager.sol\":6673:6688  disputes[epoch] */\n      0x00\n        /* \"BlockManager.sol\":6682:6687  epoch */\n      dup11\n        /* \"BlockManager.sol\":6673:6688  disputes[epoch] */\n      dup2\n      mstore\n      0x20\n      add\n      swap1\n      dup2\n      mstore\n      0x20\n      add\n      0x00\n      keccak256\n        /* \"BlockManager.sol\":6673:6700  disputes[epoch][msg.sender] */\n      0x00\n        /* \"BlockManager.sol\":6689:6699  msg.sender */\n      caller\n        /* \"BlockManager.sol\":6673:6700  disputes[epoch][msg.sender] */\n      0xffffffffffffffffffffffffffffffffffffffff\n      and\n      0xffffffffffffffffffffffffffffffffffffffff\n      and\n      dup2\n      mstore\n      0x20\n      add\n      swap1\n      dup2\n      mstore\n      0x20\n      add\n      0x00\n      keccak256\n        /* \"BlockManager.sol\":6673:6710  disputes[epoch][msg.sender].accWeight */\n      0x00\n      add\n      sload\n        /* \"BlockManager.sol\":6653:6710  uint256 accWeight = disputes[epoch][msg.sender].accWeight */\n      swap1\n      pop\n        /* \"BlockManager.sol\":6720:6739  uint256 lastVisited */\n      0x00\n        /* \"BlockManager.sol\":6742:6750  disputes */\n      0x01\n        /* \"BlockManager.sol\":6742:6757  disputes[epoch] */\n      0x00\n        /* \"BlockManager.sol\":6751:6756  epoch */\n      dup12\n        /* \"BlockManager.sol\":6742:6757  disputes[epoch] */\n      dup2\n      mstore\n      0x20\n      add\n      swap1\n      dup2\n      mstore\n      0x20\n      add\n      0x00\n      keccak256\n        /* \"BlockManager.sol\":6742:6769  disputes[epoch][msg.sender] */\n      0x00\n        /* \"BlockManager.sol\":6758:6768  msg.sender */\n      caller\n        /* \"BlockManager.sol\":6742:6769  disputes[epoch][msg.sender] */\n      0xffffffffffffffffffffffffffffffffffffffff\n      and\n      0xffffffffffffffffffffffffffffffffffffffff\n      and\n      dup2\n      mstore\n      0x20\n      add\n      swap1\n      dup2\n      mstore\n      0x20\n      add\n      0x00\n      keccak256\n        /* \"BlockManager.sol\":6742:6781  disputes[epoch][msg.sender].lastVisited */\n      0x04\n      add\n      sload\n        /* \"BlockManager.sol\":6720:6781  uint256 lastVisited = disputes[epoch][msg.sender].lastVisited */\n      swap1\n      pop\n        /* \"BlockManager.sol\":6836:6837  0 */\n      0x00\n        /* \"BlockManager.sol\":6795:6803  disputes */\n      0x01\n        /* \"BlockManager.sol\":6795:6810  disputes[epoch] */\n      0x00\n        /* \"BlockManager.sol\":6804:6809  epoch */\n      dup13\n        /* \"BlockManager.sol\":6795:6810  disputes[epoch] */\n      dup2\n      mstore\n      0x20\n      add\n      swap1\n      dup2\n      mstore\n      0x20\n      add\n      0x00\n      keccak256\n        /* \"BlockManager.sol\":6795:6822  disputes[epoch][msg.sender] */\n      0x00\n        /* \"BlockManager.sol\":6811:6821  msg.sender */\n      caller\n        /* \"BlockManager.sol\":6795:6822  disputes[epoch][msg.sender] */\n      0xffffffffffffffffffffffffffffffffffffffff\n      and\n      0xffffffffffffffffffffffffffffffffffffffff\n      and\n      dup2\n      mstore\n      0x20\n      add\n      swap1\n      dup2\n      mstore\n      0x20\n      add\n      0x00\n      keccak256\n        /* \"BlockManager.sol\":6795:6832  disputes[epoch][msg.sender].accWeight */\n      0x00\n      add\n      sload\n        /* \"BlockManager.sol\":6795:6837  disputes[epoch][msg.sender].accWeight == 0 */\n      eq\n        /* \"BlockManager.sol\":6791:7019  if (disputes[epoch][msg.sender].accWeight == 0) {... */\n      iszero\n      tag_402\n      jumpi\n        /* \"BlockManager.sol\":6891:6898  assetId */\n      dup9\n        /* \"BlockManager.sol\":6853:6861  disputes */\n      0x01\n        /* \"BlockManager.sol\":6853:6868  disputes[epoch] */\n      0x00\n        /* \"BlockManager.sol\":6862:6867  epoch */\n      dup13\n        /* \"BlockManager.sol\":6853:6868  disputes[epoch] */\n      dup2\n      mstore\n      0x20\n      add\n      swap1\n      dup2\n      mstore\n      0x20\n      add\n      0x00\n      keccak256\n        /* \"BlockManager.sol\":6853:6880  disputes[epoch][msg.sender] */\n      0x00\n        /* \"BlockManager.sol\":6869:6879  msg.sender */\n      caller\n        /* \"BlockManager.sol\":6853:6880  disputes[epoch][msg.sender] */\n      0xffffffffffffffffffffffffffffffffffffffff\n      and\n      0xffffffffffffffffffffffffffffffffffffffff\n      and\n      dup2\n      mstore\n      0x20\n      add\n      swap1\n      dup2\n      mstore\n      0x20\n      add\n      0x00\n      keccak256\n        /* \"BlockManager.sol\":6853:6888  disputes[epoch][msg.sender].assetId */\n      0x05\n      add\n        /* \"BlockManager.sol\":6853:6898  disputes[epoch][msg.sender].assetId = assetId */\n      dup2\n      swap1\n      sstore\n      pop\n        /* \"BlockManager.sol\":6791:7019  if (disputes[epoch][msg.sender].accWeight == 0) {... */\n      jump(tag_403)\n    tag_402:\n        /* \"BlockManager.sol\":6976:6983  assetId */\n      dup9\n        /* \"BlockManager.sol\":6937:6945  disputes */\n      0x01\n        /* \"BlockManager.sol\":6937:6952  disputes[epoch] */\n      0x00\n        /* \"BlockManager.sol\":6946:6951  epoch */\n      dup13\n        /* \"BlockManager.sol\":6937:6952  disputes[epoch] */\n      dup2\n      mstore\n      0x20\n      add\n      swap1\n      dup2\n      mstore\n      0x20\n      add\n      0x00\n      keccak256\n        /* \"BlockManager.sol\":6937:6964  disputes[epoch][msg.sender] */\n      0x00\n        /* \"BlockManager.sol\":6953:6963  msg.sender */\n      caller\n        /* \"BlockManager.sol\":6937:6964  disputes[epoch][msg.sender] */\n      0xffffffffffffffffffffffffffffffffffffffff\n      and\n      0xffffffffffffffffffffffffffffffffffffffff\n      and\n      dup2\n      mstore\n      0x20\n      add\n      swap1\n      dup2\n      mstore\n      0x20\n      add\n      0x00\n      keccak256\n        /* \"BlockManager.sol\":6937:6972  disputes[epoch][msg.sender].assetId */\n      0x05\n      add\n      sload\n        /* \"BlockManager.sol\":6937:6983  disputes[epoch][msg.sender].assetId == assetId */\n      eq\n        /* \"BlockManager.sol\":6929:7008  require(disputes[epoch][msg.sender].assetId == assetId, \"AssetId not matching\") */\n      tag_404\n      jumpi\n      mload(0x40)\n      0x08c379a000000000000000000000000000000000000000000000000000000000\n      dup2\n      mstore\n      0x04\n      add\n      tag_405\n      swap1\n      tag_406\n      jump\t// in\n    tag_405:\n      mload(0x40)\n      dup1\n      swap2\n      sub\n      swap1\n      revert\n    tag_404:\n        /* \"BlockManager.sol\":6791:7019  if (disputes[epoch][msg.sender].accWeight == 0) {... */\n    tag_403:\n        /* \"BlockManager.sol\":7033:7042  uint256 i */\n      0x00\n        /* \"BlockManager.sol\":7045:7046  0 */\n      dup1\n        /* \"BlockManager.sol\":7033:7046  uint256 i = 0 */\n      swap1\n      pop\n        /* \"BlockManager.sol\":7028:8012  for (uint256 i = 0; i < sorted.length; i++) {... */\n    tag_407:\n        /* \"BlockManager.sol\":7052:7058  sorted */\n      dup9\n        /* \"BlockManager.sol\":7052:7065  sorted.length */\n      mload\n        /* \"BlockManager.sol\":7048:7049  i */\n      dup2\n        /* \"BlockManager.sol\":7048:7065  i < sorted.length */\n      lt\n        /* \"BlockManager.sol\":7028:8012  for (uint256 i = 0; i < sorted.length; i++) {... */\n      iszero\n      tag_408\n      jumpi\n        /* \"BlockManager.sol\":7106:7117  lastVisited */\n      dup2\n        /* \"BlockManager.sol\":7094:7100  sorted */\n      dup10\n        /* \"BlockManager.sol\":7101:7102  i */\n      dup3\n        /* \"BlockManager.sol\":7094:7103  sorted[i] */\n      dup2\n      mload\n      dup2\n      lt\n      tag_410\n      jumpi\n      invalid\n    tag_410:\n      0x20\n      mul\n      0x20\n      add\n      add\n      mload\n        /* \"BlockManager.sol\":7094:7117  sorted[i] > lastVisited */\n      gt\n        /* \"BlockManager.sol\":7086:7163  require(sorted[i] > lastVisited, \"sorted[i] is not greater than lastVisited\") */\n      tag_411\n      jumpi\n      mload(0x40)\n      0x08c379a000000000000000000000000000000000000000000000000000000000\n      dup2\n      mstore\n      0x04\n      add\n      tag_412\n      swap1\n      tag_413\n      jump\t// in\n    tag_412:\n      mload(0x40)\n      dup1\n      swap2\n      sub\n      swap1\n      revert\n    tag_411:\n        /* \"BlockManager.sol\":7191:7197  sorted */\n      dup9\n        /* \"BlockManager.sol\":7198:7199  i */\n      dup2\n        /* \"BlockManager.sol\":7191:7200  sorted[i] */\n      dup2\n      mload\n      dup2\n      lt\n      tag_414\n      jumpi\n      invalid\n    tag_414:\n      0x20\n      mul\n      0x20\n      add\n      add\n      mload\n        /* \"BlockManager.sol\":7177:7200  lastVisited = sorted[i] */\n      swap2\n      pop\n        /* \"BlockManager.sol\":7226:7293  accWeight.add(voteManager.getVoteWeight(epoch, assetId, sorted[i])) */\n      tag_415\n        /* \"BlockManager.sol\":7240:7251  voteManager */\n      0x06\n      0x00\n      swap1\n      sload\n      swap1\n      0x0100\n      exp\n      swap1\n      div\n      0xffffffffffffffffffffffffffffffffffffffff\n      and\n        /* \"BlockManager.sol\":7240:7265  voteManager.getVoteWeight */\n      0xffffffffffffffffffffffffffffffffffffffff\n      and\n      0x9c66556f\n        /* \"BlockManager.sol\":7266:7271  epoch */\n      dup14\n        /* \"BlockManager.sol\":7273:7280  assetId */\n      dup14\n        /* \"BlockManager.sol\":7282:7288  sorted */\n      dup14\n        /* \"BlockManager.sol\":7289:7290  i */\n      dup7\n        /* \"BlockManager.sol\":7282:7291  sorted[i] */\n      dup2\n      mload\n      dup2\n      lt\n      tag_416\n      jumpi\n      invalid\n    tag_416:\n      0x20\n      mul\n      0x20\n      add\n      add\n      mload\n        /* \"BlockManager.sol\":7240:7292  voteManager.getVoteWeight(epoch, assetId, sorted[i]) */\n      mload(0x40)\n      dup5\n      0xffffffff\n      and\n      0xe0\n      shl\n      dup2\n      mstore\n      0x04\n      add\n      tag_417\n      swap4\n      swap3\n      swap2\n      swap1\n      tag_418\n      jump\t// in\n    tag_417:\n      0x20\n      mload(0x40)\n      dup1\n      dup4\n      sub\n      dup2\n      dup7\n      dup1\n      extcodesize\n      iszero\n      dup1\n      iszero\n      tag_419\n      jumpi\n      0x00\n      dup1\n      revert\n    tag_419:\n      pop\n      gas\n      staticcall\n      iszero\n      dup1\n      iszero\n      tag_421\n      jumpi\n      returndatasize\n      0x00\n      dup1\n      returndatacopy\n      revert(0x00, returndatasize)\n    tag_421:\n      pop\n      pop\n      pop\n      pop\n      mload(0x40)\n      returndatasize\n      not(0x1f)\n      0x1f\n      dup3\n      add\n      and\n      dup3\n      add\n      dup1\n      0x40\n      mstore\n      pop\n      dup2\n      add\n      swap1\n      tag_422\n      swap2\n      swap1\n      tag_194\n      jump\t// in\n    tag_422:\n        /* \"BlockManager.sol\":7226:7235  accWeight */\n      dup5\n        /* \"BlockManager.sol\":7226:7239  accWeight.add */\n      tag_257\n      swap1\n        /* \"BlockManager.sol\":7226:7293  accWeight.add(voteManager.getVoteWeight(epoch, assetId, sorted[i])) */\n      swap2\n      swap1\n      0xffffffff\n      and\n      jump\t// in\n    tag_415:\n        /* \"BlockManager.sol\":7214:7293  accWeight = accWeight.add(voteManager.getVoteWeight(epoch, assetId, sorted[i])) */\n      swap3\n      pop\n        /* \"BlockManager.sol\":7400:7401  0 */\n      0x00\n        /* \"BlockManager.sol\":7357:7365  disputes */\n      0x01\n        /* \"BlockManager.sol\":7357:7372  disputes[epoch] */\n      0x00\n        /* \"BlockManager.sol\":7366:7371  epoch */\n      dup14\n        /* \"BlockManager.sol\":7357:7372  disputes[epoch] */\n      dup2\n      mstore\n      0x20\n      add\n      swap1\n      dup2\n      mstore\n      0x20\n      add\n      0x00\n      keccak256\n        /* \"BlockManager.sol\":7357:7384  disputes[epoch][msg.sender] */\n      0x00\n        /* \"BlockManager.sol\":7373:7383  msg.sender */\n      caller\n        /* \"BlockManager.sol\":7357:7384  disputes[epoch][msg.sender] */\n      0xffffffffffffffffffffffffffffffffffffffff\n      and\n      0xffffffffffffffffffffffffffffffffffffffff\n      and\n      dup2\n      mstore\n      0x20\n      add\n      swap1\n      dup2\n      mstore\n      0x20\n      add\n      0x00\n      keccak256\n        /* \"BlockManager.sol\":7357:7396  disputes[epoch][msg.sender].lowerCutoff */\n      0x02\n      add\n      sload\n        /* \"BlockManager.sol\":7357:7401  disputes[epoch][msg.sender].lowerCutoff == 0 */\n      eq\n        /* \"BlockManager.sol\":7357:7435  disputes[epoch][msg.sender].lowerCutoff == 0 && accWeight >= lowerCutoffWeight */\n      dup1\n      iszero\n      tag_423\n      jumpi\n      pop\n        /* \"BlockManager.sol\":7418:7435  lowerCutoffWeight */\n      dup5\n        /* \"BlockManager.sol\":7405:7414  accWeight */\n      dup4\n        /* \"BlockManager.sol\":7405:7435  accWeight >= lowerCutoffWeight */\n      lt\n      iszero\n        /* \"BlockManager.sol\":7357:7435  disputes[epoch][msg.sender].lowerCutoff == 0 && accWeight >= lowerCutoffWeight */\n    tag_423:\n        /* \"BlockManager.sol\":7353:7521  if (disputes[epoch][msg.sender].lowerCutoff == 0 && accWeight >= lowerCutoffWeight) {... */\n      iszero\n      tag_424\n      jumpi\n        /* \"BlockManager.sol\":7497:7503  sorted */\n      dup9\n        /* \"BlockManager.sol\":7504:7505  i */\n      dup2\n        /* \"BlockManager.sol\":7497:7506  sorted[i] */\n      dup2\n      mload\n      dup2\n      lt\n      tag_425\n      jumpi\n      invalid\n    tag_425:\n      0x20\n      mul\n      0x20\n      add\n      add\n      mload\n        /* \"BlockManager.sol\":7455:7463  disputes */\n      0x01\n        /* \"BlockManager.sol\":7455:7470  disputes[epoch] */\n      0x00\n        /* \"BlockManager.sol\":7464:7469  epoch */\n      dup14\n        /* \"BlockManager.sol\":7455:7470  disputes[epoch] */\n      dup2\n      mstore\n      0x20\n      add\n      swap1\n      dup2\n      mstore\n      0x20\n      add\n      0x00\n      keccak256\n        /* \"BlockManager.sol\":7455:7482  disputes[epoch][msg.sender] */\n      0x00\n        /* \"BlockManager.sol\":7471:7481  msg.sender */\n      caller\n        /* \"BlockManager.sol\":7455:7482  disputes[epoch][msg.sender] */\n      0xffffffffffffffffffffffffffffffffffffffff\n      and\n      0xffffffffffffffffffffffffffffffffffffffff\n      and\n      dup2\n      mstore\n      0x20\n      add\n      swap1\n      dup2\n      mstore\n      0x20\n      add\n      0x00\n      keccak256\n        /* \"BlockManager.sol\":7455:7494  disputes[epoch][msg.sender].lowerCutoff */\n      0x02\n      add\n        /* \"BlockManager.sol\":7455:7506  disputes[epoch][msg.sender].lowerCutoff = sorted[i] */\n      dup2\n      swap1\n      sstore\n      pop\n        /* \"BlockManager.sol\":7353:7521  if (disputes[epoch][msg.sender].lowerCutoff == 0 && accWeight >= lowerCutoffWeight) {... */\n    tag_424:\n        /* \"BlockManager.sol\":7576:7577  0 */\n      0x00\n        /* \"BlockManager.sol\":7538:7546  disputes */\n      0x01\n        /* \"BlockManager.sol\":7538:7553  disputes[epoch] */\n      0x00\n        /* \"BlockManager.sol\":7547:7552  epoch */\n      dup14\n        /* \"BlockManager.sol\":7538:7553  disputes[epoch] */\n      dup2\n      mstore\n      0x20\n      add\n      swap1\n      dup2\n      mstore\n      0x20\n      add\n      0x00\n      keccak256\n        /* \"BlockManager.sol\":7538:7565  disputes[epoch][msg.sender] */\n      0x00\n        /* \"BlockManager.sol\":7554:7564  msg.sender */\n      caller\n        /* \"BlockManager.sol\":7538:7565  disputes[epoch][msg.sender] */\n      0xffffffffffffffffffffffffffffffffffffffff\n      and\n      0xffffffffffffffffffffffffffffffffffffffff\n      and\n      dup2\n      mstore\n      0x20\n      add\n      swap1\n      dup2\n      mstore\n      0x20\n      add\n      0x00\n      keccak256\n        /* \"BlockManager.sol\":7538:7572  disputes[epoch][msg.sender].median */\n      0x01\n      add\n      sload\n        /* \"BlockManager.sol\":7538:7577  disputes[epoch][msg.sender].median == 0 */\n      eq\n        /* \"BlockManager.sol\":7538:7605  disputes[epoch][msg.sender].median == 0 && accWeight > medianWeight */\n      dup1\n      iszero\n      tag_426\n      jumpi\n      pop\n        /* \"BlockManager.sol\":7593:7605  medianWeight */\n      dup6\n        /* \"BlockManager.sol\":7581:7590  accWeight */\n      dup4\n        /* \"BlockManager.sol\":7581:7605  accWeight > medianWeight */\n      gt\n        /* \"BlockManager.sol\":7538:7605  disputes[epoch][msg.sender].median == 0 && accWeight > medianWeight */\n    tag_426:\n        /* \"BlockManager.sol\":7534:7686  if (disputes[epoch][msg.sender].median == 0 && accWeight > medianWeight) {... */\n      iszero\n      tag_427\n      jumpi\n        /* \"BlockManager.sol\":7662:7668  sorted */\n      dup9\n        /* \"BlockManager.sol\":7669:7670  i */\n      dup2\n        /* \"BlockManager.sol\":7662:7671  sorted[i] */\n      dup2\n      mload\n      dup2\n      lt\n      tag_428\n      jumpi\n      invalid\n    tag_428:\n      0x20\n      mul\n      0x20\n      add\n      add\n      mload\n        /* \"BlockManager.sol\":7625:7633  disputes */\n      0x01\n        /* \"BlockManager.sol\":7625:7640  disputes[epoch] */\n      0x00\n        /* \"BlockManager.sol\":7634:7639  epoch */\n      dup14\n        /* \"BlockManager.sol\":7625:7640  disputes[epoch] */\n      dup2\n      mstore\n      0x20\n      add\n      swap1\n      dup2\n      mstore\n      0x20\n      add\n      0x00\n      keccak256\n        /* \"BlockManager.sol\":7625:7652  disputes[epoch][msg.sender] */\n      0x00\n        /* \"BlockManager.sol\":7641:7651  msg.sender */\n      caller\n        /* \"BlockManager.sol\":7625:7652  disputes[epoch][msg.sender] */\n      0xffffffffffffffffffffffffffffffffffffffff\n      and\n      0xffffffffffffffffffffffffffffffffffffffff\n      and\n      dup2\n      mstore\n      0x20\n      add\n      swap1\n      dup2\n      mstore\n      0x20\n      add\n      0x00\n      keccak256\n        /* \"BlockManager.sol\":7625:7659  disputes[epoch][msg.sender].median */\n      0x01\n      add\n        /* \"BlockManager.sol\":7625:7671  disputes[epoch][msg.sender].median = sorted[i] */\n      dup2\n      swap1\n      sstore\n      pop\n        /* \"BlockManager.sol\":7534:7686  if (disputes[epoch][msg.sender].median == 0 && accWeight > medianWeight) {... */\n    tag_427:\n        /* \"BlockManager.sol\":7747:7748  0 */\n      0x00\n        /* \"BlockManager.sol\":7703:7711  disputes */\n      0x01\n        /* \"BlockManager.sol\":7703:7718  disputes[epoch] */\n      0x00\n        /* \"BlockManager.sol\":7712:7717  epoch */\n      dup14\n        /* \"BlockManager.sol\":7703:7718  disputes[epoch] */\n      dup2\n      mstore\n      0x20\n      add\n      swap1\n      dup2\n      mstore\n      0x20\n      add\n      0x00\n      keccak256\n        /* \"BlockManager.sol\":7703:7730  disputes[epoch][msg.sender] */\n      0x00\n        /* \"BlockManager.sol\":7719:7729  msg.sender */\n      caller\n        /* \"BlockManager.sol\":7703:7730  disputes[epoch][msg.sender] */\n      0xffffffffffffffffffffffffffffffffffffffff\n      and\n      0xffffffffffffffffffffffffffffffffffffffff\n      and\n      dup2\n      mstore\n      0x20\n      add\n      swap1\n      dup2\n      mstore\n      0x20\n      add\n      0x00\n      keccak256\n        /* \"BlockManager.sol\":7703:7743  disputes[epoch][msg.sender].higherCutoff */\n      0x03\n      add\n      sload\n        /* \"BlockManager.sol\":7703:7748  disputes[epoch][msg.sender].higherCutoff == 0 */\n      eq\n        /* \"BlockManager.sol\":7703:7782  disputes[epoch][msg.sender].higherCutoff == 0 && accWeight > higherCutoffWeight */\n      dup1\n      iszero\n      tag_429\n      jumpi\n      pop\n        /* \"BlockManager.sol\":7764:7782  higherCutoffWeight */\n      dup4\n        /* \"BlockManager.sol\":7752:7761  accWeight */\n      dup4\n        /* \"BlockManager.sol\":7752:7782  accWeight > higherCutoffWeight */\n      gt\n        /* \"BlockManager.sol\":7703:7782  disputes[epoch][msg.sender].higherCutoff == 0 && accWeight > higherCutoffWeight */\n    tag_429:\n        /* \"BlockManager.sol\":7699:7869  if (disputes[epoch][msg.sender].higherCutoff == 0 && accWeight > higherCutoffWeight) {... */\n      iszero\n      tag_430\n      jumpi\n        /* \"BlockManager.sol\":7845:7851  sorted */\n      dup9\n        /* \"BlockManager.sol\":7852:7853  i */\n      dup2\n        /* \"BlockManager.sol\":7845:7854  sorted[i] */\n      dup2\n      mload\n      dup2\n      lt\n      tag_431\n      jumpi\n      invalid\n    tag_431:\n      0x20\n      mul\n      0x20\n      add\n      add\n      mload\n        /* \"BlockManager.sol\":7802:7810  disputes */\n      0x01\n        /* \"BlockManager.sol\":7802:7817  disputes[epoch] */\n      0x00\n        /* \"BlockManager.sol\":7811:7816  epoch */\n      dup14\n        /* \"BlockManager.sol\":7802:7817  disputes[epoch] */\n      dup2\n      mstore\n      0x20\n      add\n      swap1\n      dup2\n      mstore\n      0x20\n      add\n      0x00\n      keccak256\n        /* \"BlockManager.sol\":7802:7829  disputes[epoch][msg.sender] */\n      0x00\n        /* \"BlockManager.sol\":7818:7828  msg.sender */\n      caller\n        /* \"BlockManager.sol\":7802:7829  disputes[epoch][msg.sender] */\n      0xffffffffffffffffffffffffffffffffffffffff\n      and\n      0xffffffffffffffffffffffffffffffffffffffff\n      and\n      dup2\n      mstore\n      0x20\n      add\n      swap1\n      dup2\n      mstore\n      0x20\n      add\n      0x00\n      keccak256\n        /* \"BlockManager.sol\":7802:7842  disputes[epoch][msg.sender].higherCutoff */\n      0x03\n      add\n        /* \"BlockManager.sol\":7802:7854  disputes[epoch][msg.sender].higherCutoff = sorted[i] */\n      dup2\n      swap1\n      sstore\n      pop\n        /* \"BlockManager.sol\":7699:7869  if (disputes[epoch][msg.sender].higherCutoff == 0 && accWeight > higherCutoffWeight) {... */\n    tag_430:\n        /* \"BlockManager.sol\":7989:7994  10000 */\n      0x2710\n        /* \"BlockManager.sol\":7977:7986  gasleft() */\n      gas\n        /* \"BlockManager.sol\":7977:7994  gasleft() < 10000 */\n      lt\n        /* \"BlockManager.sol\":7973:8001  if (gasleft() < 10000) break */\n      iszero\n      tag_432\n      jumpi\n        /* \"BlockManager.sol\":7996:8001  break */\n      jump(tag_408)\n        /* \"BlockManager.sol\":7973:8001  if (gasleft() < 10000) break */\n    tag_432:\n        /* \"BlockManager.sol\":7067:7070  i++ */\n      dup1\n      dup1\n      0x01\n      add\n      swap2\n      pop\n      pop\n        /* \"BlockManager.sol\":7028:8012  for (uint256 i = 0; i < sorted.length; i++) {... */\n      jump(tag_407)\n    tag_408:\n      pop\n        /* \"BlockManager.sol\":8063:8074  lastVisited */\n      dup1\n        /* \"BlockManager.sol\":8021:8029  disputes */\n      0x01\n        /* \"BlockManager.sol\":8021:8036  disputes[epoch] */\n      0x00\n        /* \"BlockManager.sol\":8030:8035  epoch */\n      dup13\n        /* \"BlockManager.sol\":8021:8036  disputes[epoch] */\n      dup2\n      mstore\n      0x20\n      add\n      swap1\n      dup2\n      mstore\n      0x20\n      add\n      0x00\n      keccak256\n        /* \"BlockManager.sol\":8021:8048  disputes[epoch][msg.sender] */\n      0x00\n        /* \"BlockManager.sol\":8037:8047  msg.sender */\n      caller\n        /* \"BlockManager.sol\":8021:8048  disputes[epoch][msg.sender] */\n      0xffffffffffffffffffffffffffffffffffffffff\n      and\n      0xffffffffffffffffffffffffffffffffffffffff\n      and\n      dup2\n      mstore\n      0x20\n      add\n      swap1\n      dup2\n      mstore\n      0x20\n      add\n      0x00\n      keccak256\n        /* \"BlockManager.sol\":8021:8060  disputes[epoch][msg.sender].lastVisited */\n      0x04\n      add\n        /* \"BlockManager.sol\":8021:8074  disputes[epoch][msg.sender].lastVisited = lastVisited */\n      dup2\n      swap1\n      sstore\n      pop\n        /* \"BlockManager.sol\":8124:8133  accWeight */\n      dup2\n        /* \"BlockManager.sol\":8084:8092  disputes */\n      0x01\n        /* \"BlockManager.sol\":8084:8099  disputes[epoch] */\n      0x00\n        /* \"BlockManager.sol\":8093:8098  epoch */\n      dup13\n        /* \"BlockManager.sol\":8084:8099  disputes[epoch] */\n      dup2\n      mstore\n      0x20\n      add\n      swap1\n      dup2\n      mstore\n      0x20\n      add\n      0x00\n      keccak256\n        /* \"BlockManager.sol\":8084:8111  disputes[epoch][msg.sender] */\n      0x00\n        /* \"BlockManager.sol\":8100:8110  msg.sender */\n      caller\n        /* \"BlockManager.sol\":8084:8111  disputes[epoch][msg.sender] */\n      0xffffffffffffffffffffffffffffffffffffffff\n      and\n      0xffffffffffffffffffffffffffffffffffffffff\n      and\n      dup2\n      mstore\n      0x20\n      add\n      swap1\n      dup2\n      mstore\n      0x20\n      add\n      0x00\n      keccak256\n        /* \"BlockManager.sol\":8084:8121  disputes[epoch][msg.sender].accWeight */\n      0x00\n      add\n        /* \"BlockManager.sol\":8084:8133  disputes[epoch][msg.sender].accWeight = accWeight */\n      dup2\n      swap1\n      sstore\n      pop\n        /* \"BlockManager.sol\":872:873  _ */\n      pop\n      pop\n      pop\n      pop\n      pop\n        /* \"BlockManager.sol\":742:743  _ */\n      pop\n        /* \"BlockManager.sol\":6217:8140  function giveSorted (uint256 epoch, uint256 assetId, uint256[] memory sorted) public... */\n      pop\n      pop\n      pop\n      pop\n      jump\t// out\n        /* \"BlockManager.sol\":8242:8417  function resetDispute (uint256 epoch) public checkEpoch(epoch) checkState(Constants.dispute()) {... */\n    tag_107:\n        /* \"BlockManager.sol\":8298:8303  epoch */\n      dup1\n        /* \"BlockManager.sol\":689:701  stateManager */\n      0x05\n      0x00\n      swap1\n      sload\n      swap1\n      0x0100\n      exp\n      swap1\n      div\n      0xffffffffffffffffffffffffffffffffffffffff\n      and\n        /* \"BlockManager.sol\":689:710  stateManager.getEpoch */\n      0xffffffffffffffffffffffffffffffffffffffff\n      and\n      0x757991a8\n        /* \"BlockManager.sol\":689:712  stateManager.getEpoch() */\n      mload(0x40)\n      dup2\n      0xffffffff\n      and\n      0xe0\n      shl\n      dup2\n      mstore\n      0x04\n      add\n      0x20\n      mload(0x40)\n      dup1\n      dup4\n      sub\n      dup2\n      dup7\n      dup1\n      extcodesize\n      iszero\n      dup1\n      iszero\n      tag_434\n      jumpi\n      0x00\n      dup1\n      revert\n    tag_434:\n      pop\n      gas\n      staticcall\n      iszero\n      dup1\n      iszero\n      tag_436\n      jumpi\n      returndatasize\n      0x00\n      dup1\n      returndatacopy\n      revert(0x00, returndatasize)\n    tag_436:\n      pop\n      pop\n      pop\n      pop\n      mload(0x40)\n      returndatasize\n      not(0x1f)\n      0x1f\n      dup3\n      add\n      and\n      dup3\n      add\n      dup1\n      0x40\n      mstore\n      pop\n      dup2\n      add\n      swap1\n      tag_437\n      swap2\n      swap1\n      tag_194\n      jump\t// in\n    tag_437:\n        /* \"BlockManager.sol\":680:685  epoch */\n      dup2\n        /* \"BlockManager.sol\":680:712  epoch == stateManager.getEpoch() */\n      eq\n        /* \"BlockManager.sol\":672:732  require(epoch == stateManager.getEpoch(), \"incorrect epoch\") */\n      tag_438\n      jumpi\n      mload(0x40)\n      0x08c379a000000000000000000000000000000000000000000000000000000000\n      dup2\n      mstore\n      0x04\n      add\n      tag_439\n      swap1\n      tag_197\n      jump\t// in\n    tag_439:\n      mload(0x40)\n      dup1\n      swap2\n      sub\n      swap1\n      revert\n    tag_438:\n        /* \"BlockManager.sol\":8316:8325  Constants */\n      linkerSymbol(\"e861534859442f2de25279a5ccd1626413b62699ca8b37407da3a6bf3bbbfee5\")\n        /* \"BlockManager.sol\":8316:8333  Constants.dispute */\n      0xf240f7c3\n        /* \"BlockManager.sol\":8316:8335  Constants.dispute() */\n      mload(0x40)\n      dup2\n      0xffffffff\n      and\n      0xe0\n      shl\n      dup2\n      mstore\n      0x04\n      add\n      0x20\n      mload(0x40)\n      dup1\n      dup4\n      sub\n      dup2\n      dup7\n      dup1\n      extcodesize\n      iszero\n      dup1\n      iszero\n      tag_440\n      jumpi\n      0x00\n      dup1\n      revert\n    tag_440:\n      pop\n      gas\n      delegatecall\n      iszero\n      dup1\n      iszero\n      tag_442\n      jumpi\n      returndatasize\n      0x00\n      dup1\n      returndatacopy\n      revert(0x00, returndatasize)\n    tag_442:\n      pop\n      pop\n      pop\n      pop\n      mload(0x40)\n      returndatasize\n      not(0x1f)\n      0x1f\n      dup3\n      add\n      and\n      dup3\n      add\n      dup1\n      0x40\n      mstore\n      pop\n      dup2\n      add\n      swap1\n      tag_443\n      swap2\n      swap1\n      tag_202\n      jump\t// in\n    tag_443:\n        /* \"BlockManager.sol\":756:880  modifier checkState (uint256 state) {... */\n      0xff\n      and\n        /* \"BlockManager.sol\":819:831  stateManager */\n      0x05\n      0x00\n      swap1\n      sload\n      swap1\n      0x0100\n      exp\n      swap1\n      div\n      0xffffffffffffffffffffffffffffffffffffffff\n      and\n        /* \"BlockManager.sol\":819:840  stateManager.getState */\n      0xffffffffffffffffffffffffffffffffffffffff\n      and\n      0x1865c57d\n        /* \"BlockManager.sol\":819:842  stateManager.getState() */\n      mload(0x40)\n      dup2\n      0xffffffff\n      and\n      0xe0\n      shl\n      dup2\n      mstore\n      0x04\n      add\n      0x20\n      mload(0x40)\n      dup1\n      dup4\n      sub\n      dup2\n      dup7\n      dup1\n      extcodesize\n      iszero\n      dup1\n      iszero\n      tag_445\n      jumpi\n      0x00\n      dup1\n      revert\n    tag_445:\n      pop\n      gas\n      staticcall\n      iszero\n      dup1\n      iszero\n      tag_447\n      jumpi\n      returndatasize\n      0x00\n      dup1\n      returndatacopy\n      revert(0x00, returndatasize)\n    tag_447:\n      pop\n      pop\n      pop\n      pop\n      mload(0x40)\n      returndatasize\n      not(0x1f)\n      0x1f\n      dup3\n      add\n      and\n      dup3\n      add\n      dup1\n      0x40\n      mstore\n      pop\n      dup2\n      add\n      swap1\n      tag_448\n      swap2\n      swap1\n      tag_194\n      jump\t// in\n    tag_448:\n        /* \"BlockManager.sol\":810:815  state */\n      dup2\n        /* \"BlockManager.sol\":810:842  state == stateManager.getState() */\n      eq\n        /* \"BlockManager.sol\":802:862  require(state == stateManager.getState(), \"incorrect state\") */\n      tag_449\n      jumpi\n      mload(0x40)\n      0x08c379a000000000000000000000000000000000000000000000000000000000\n      dup2\n      mstore\n      0x04\n      add\n      tag_450\n      swap1\n      tag_210\n      jump\t// in\n    tag_450:\n      mload(0x40)\n      dup1\n      swap2\n      sub\n      swap1\n      revert\n    tag_449:\n        /* \"BlockManager.sol\":8377:8410  Structs.Dispute(0, 0, 0, 0, 0, 0) */\n      mload(0x40)\n      dup1\n      0xc0\n      add\n      0x40\n      mstore\n      dup1\n        /* \"BlockManager.sol\":8393:8394  0 */\n      0x00\n        /* \"BlockManager.sol\":8377:8410  Structs.Dispute(0, 0, 0, 0, 0, 0) */\n      dup2\n      mstore\n      0x20\n      add\n        /* \"BlockManager.sol\":8396:8397  0 */\n      0x00\n        /* \"BlockManager.sol\":8377:8410  Structs.Dispute(0, 0, 0, 0, 0, 0) */\n      dup2\n      mstore\n      0x20\n      add\n        /* \"BlockManager.sol\":8399:8400  0 */\n      0x00\n        /* \"BlockManager.sol\":8377:8410  Structs.Dispute(0, 0, 0, 0, 0, 0) */\n      dup2\n      mstore\n      0x20\n      add\n        /* \"BlockManager.sol\":8402:8403  0 */\n      0x00\n        /* \"BlockManager.sol\":8377:8410  Structs.Dispute(0, 0, 0, 0, 0, 0) */\n      dup2\n      mstore\n      0x20\n      add\n        /* \"BlockManager.sol\":8405:8406  0 */\n      0x00\n        /* \"BlockManager.sol\":8377:8410  Structs.Dispute(0, 0, 0, 0, 0, 0) */\n      dup2\n      mstore\n      0x20\n      add\n        /* \"BlockManager.sol\":8408:8409  0 */\n      0x00\n        /* \"BlockManager.sol\":8377:8410  Structs.Dispute(0, 0, 0, 0, 0, 0) */\n      dup2\n      mstore\n      pop\n        /* \"BlockManager.sol\":8347:8355  disputes */\n      0x01\n        /* \"BlockManager.sol\":8347:8362  disputes[epoch] */\n      0x00\n        /* \"BlockManager.sol\":8356:8361  epoch */\n      dup6\n        /* \"BlockManager.sol\":8347:8362  disputes[epoch] */\n      dup2\n      mstore\n      0x20\n      add\n      swap1\n      dup2\n      mstore\n      0x20\n      add\n      0x00\n      keccak256\n        /* \"BlockManager.sol\":8347:8374  disputes[epoch][msg.sender] */\n      0x00\n        /* \"BlockManager.sol\":8363:8373  msg.sender */\n      caller\n        /* \"BlockManager.sol\":8347:8374  disputes[epoch][msg.sender] */\n      0xffffffffffffffffffffffffffffffffffffffff\n      and\n      0xffffffffffffffffffffffffffffffffffffffff\n      and\n      dup2\n      mstore\n      0x20\n      add\n      swap1\n      dup2\n      mstore\n      0x20\n      add\n      0x00\n      keccak256\n        /* \"BlockManager.sol\":8347:8410  disputes[epoch][msg.sender] = Structs.Dispute(0, 0, 0, 0, 0, 0) */\n      0x00\n      dup3\n      add\n      mload\n      dup2\n      0x00\n      add\n      sstore\n      0x20\n      dup3\n      add\n      mload\n      dup2\n      0x01\n      add\n      sstore\n      0x40\n      dup3\n      add\n      mload\n      dup2\n      0x02\n      add\n      sstore\n      0x60\n      dup3\n      add\n      mload\n      dup2\n      0x03\n      add\n      sstore\n      0x80\n      dup3\n      add\n      mload\n      dup2\n      0x04\n      add\n      sstore\n      0xa0\n      dup3\n      add\n      mload\n      dup2\n      0x05\n      add\n      sstore\n      swap1\n      pop\n      pop\n        /* \"BlockManager.sol\":742:743  _ */\n      pop\n        /* \"BlockManager.sol\":8242:8417  function resetDispute (uint256 epoch) public checkEpoch(epoch) checkState(Constants.dispute()) {... */\n      pop\n      pop\n      jump\t// out\n        /* \"BlockManager.sol\":475:508  IStakeManager public stakeManager */\n    tag_109:\n      0x04\n      0x00\n      swap1\n      sload\n      swap1\n      0x0100\n      exp\n      swap1\n      div\n      0xffffffffffffffffffffffffffffffffffffffff\n      and\n      dup2\n      jump\t// out\n        /* \"BlockStorage.sol\":193:266  mapping (uint256 => mapping (address => Structs.Dispute)) public disputes */\n    tag_115:\n      mstore(0x20, 0x01)\n      dup2\n      0x00\n      mstore\n      mstore(0x20, keccak256(0x00, 0x40))\n      dup1\n      0x00\n      mstore\n      keccak256(0x00, 0x40)\n      0x00\n      swap2\n      pop\n      swap2\n      pop\n      pop\n      dup1\n      0x00\n      add\n      sload\n      swap1\n      dup1\n      0x01\n      add\n      sload\n      swap1\n      dup1\n      0x02\n      add\n      sload\n      swap1\n      dup1\n      0x03\n      add\n      sload\n      swap1\n      dup1\n      0x04\n      add\n      sload\n      swap1\n      dup1\n      0x05\n      add\n      sload\n      swap1\n      pop\n      dup7\n      jump\t// out\n        /* \"openzeppelin-solidity/contracts/access/AccessControl.sol\":3955:4091   */\n    tag_121:\n        /* \"openzeppelin-solidity/contracts/access/AccessControl.sol\":4028:4035   */\n      0x00\n        /* \"openzeppelin-solidity/contracts/access/AccessControl.sol\":4054:4084   */\n      tag_453\n        /* \"openzeppelin-solidity/contracts/access/AccessControl.sol\":4078:4083   */\n      dup3\n        /* \"openzeppelin-solidity/contracts/access/AccessControl.sol\":4054:4060   */\n      0x00\n        /* \"openzeppelin-solidity/contracts/access/AccessControl.sol\":4054:4066   */\n      dup1\n        /* \"openzeppelin-solidity/contracts/access/AccessControl.sol\":4061:4065   */\n      dup7\n        /* \"openzeppelin-solidity/contracts/access/AccessControl.sol\":4054:4066   */\n      dup2\n      mstore\n      0x20\n      add\n      swap1\n      dup2\n      mstore\n      0x20\n      add\n      0x00\n      keccak256\n        /* \"openzeppelin-solidity/contracts/access/AccessControl.sol\":4054:4074   */\n      0x00\n      add\n        /* \"openzeppelin-solidity/contracts/access/AccessControl.sol\":4054:4077   */\n      tag_454\n      swap1\n        /* \"openzeppelin-solidity/contracts/access/AccessControl.sol\":4054:4084   */\n      swap2\n      swap1\n      0xffffffff\n      and\n      jump\t// in\n    tag_453:\n        /* \"openzeppelin-solidity/contracts/access/AccessControl.sol\":4047:4084   */\n      swap1\n      pop\n        /* \"openzeppelin-solidity/contracts/access/AccessControl.sol\":3955:4091   */\n      swap3\n      swap2\n      pop\n      pop\n      jump\t// out\n        /* \"openzeppelin-solidity/contracts/access/AccessControl.sol\":2940:3077   */\n    tag_126:\n        /* \"openzeppelin-solidity/contracts/access/AccessControl.sol\":3009:3013   */\n      0x00\n        /* \"openzeppelin-solidity/contracts/access/AccessControl.sol\":3032:3070   */\n      tag_456\n        /* \"openzeppelin-solidity/contracts/access/AccessControl.sol\":3062:3069   */\n      dup3\n        /* \"openzeppelin-solidity/contracts/access/AccessControl.sol\":3032:3038   */\n      0x00\n        /* \"openzeppelin-solidity/contracts/access/AccessControl.sol\":3032:3044   */\n      dup1\n        /* \"openzeppelin-solidity/contracts/access/AccessControl.sol\":3039:3043   */\n      dup7\n        /* \"openzeppelin-solidity/contracts/access/AccessControl.sol\":3032:3044   */\n      dup2\n      mstore\n      0x20\n      add\n      swap1\n      dup2\n      mstore\n      0x20\n      add\n      0x00\n      keccak256\n        /* \"openzeppelin-solidity/contracts/access/AccessControl.sol\":3032:3052   */\n      0x00\n      add\n        /* \"openzeppelin-solidity/contracts/access/AccessControl.sol\":3032:3061   */\n      tag_457\n      swap1\n        /* \"openzeppelin-solidity/contracts/access/AccessControl.sol\":3032:3070   */\n      swap2\n      swap1\n      0xffffffff\n      and\n      jump\t// in\n    tag_456:\n        /* \"openzeppelin-solidity/contracts/access/AccessControl.sol\":3025:3070   */\n      swap1\n      pop\n        /* \"openzeppelin-solidity/contracts/access/AccessControl.sol\":2940:3077   */\n      swap3\n      swap2\n      pop\n      pop\n      jump\t// out\n        /* \"BlockStorage.sol\":406:464  mapping (uint256 => Structs.Block[]) public proposedBlocks */\n    tag_130:\n      mstore(0x20, 0x02)\n      dup2\n      0x00\n      mstore\n      keccak256(0x00, 0x40)\n      dup2\n      dup2\n      sload\n      dup2\n      lt\n      tag_458\n      jumpi\n      invalid\n    tag_458:\n      swap1\n      0x00\n      mstore\n      keccak256(0x00, 0x20)\n      swap1\n      0x08\n      mul\n      add\n      0x00\n      swap2\n      pop\n      swap2\n      pop\n      pop\n      dup1\n      0x00\n      add\n      sload\n      swap1\n      dup1\n      0x05\n      add\n      sload\n      swap1\n      dup1\n      0x06\n      add\n      sload\n      swap1\n      dup1\n      0x07\n      add\n      0x00\n      swap1\n      sload\n      swap1\n      0x0100\n      exp\n      swap1\n      div\n      0xff\n      and\n      swap1\n      pop\n      dup5\n      jump\t// out\n        /* \"BlockManager.sol\":10562:11929  function confirmBlock() public onlyWriter {... */\n    tag_134:\n        /* \"WriterRole.sol\":570:590  isWriter(msg.sender) */\n      tag_461\n        /* \"WriterRole.sol\":579:589  msg.sender */\n      caller\n        /* \"WriterRole.sol\":570:578  isWriter */\n      tag_71\n        /* \"WriterRole.sol\":570:590  isWriter(msg.sender) */\n      jump\t// in\n    tag_461:\n        /* \"WriterRole.sol\":562:643  require(isWriter(msg.sender), \"WriterRole: caller does not have the Writer role\") */\n      tag_462\n      jumpi\n      mload(0x40)\n      0x08c379a000000000000000000000000000000000000000000000000000000000\n      dup2\n      mstore\n      0x04\n      add\n      tag_463\n      swap1\n      tag_464\n      jump\t// in\n    tag_463:\n      mload(0x40)\n      dup1\n      swap2\n      sub\n      swap1\n      revert\n    tag_462:\n        /* \"BlockManager.sol\":10614:10627  uint256 epoch */\n      0x00\n        /* \"BlockManager.sol\":10630:10642  stateManager */\n      0x05\n      0x00\n      swap1\n      sload\n      swap1\n      0x0100\n      exp\n      swap1\n      div\n      0xffffffffffffffffffffffffffffffffffffffff\n      and\n        /* \"BlockManager.sol\":10630:10651  stateManager.getEpoch */\n      0xffffffffffffffffffffffffffffffffffffffff\n      and\n      0x757991a8\n        /* \"BlockManager.sol\":10630:10653  stateManager.getEpoch() */\n      mload(0x40)\n      dup2\n      0xffffffff\n      and\n      0xe0\n      shl\n      dup2\n      mstore\n      0x04\n      add\n      0x20\n      mload(0x40)\n      dup1\n      dup4\n      sub\n      dup2\n      dup7\n      dup1\n      extcodesize\n      iszero\n      dup1\n      iszero\n      tag_466\n      jumpi\n      0x00\n      dup1\n      revert\n    tag_466:\n      pop\n      gas\n      staticcall\n      iszero\n      dup1\n      iszero\n      tag_468\n      jumpi\n      returndatasize\n      0x00\n      dup1\n      returndatacopy\n      revert(0x00, returndatasize)\n    tag_468:\n      pop\n      pop\n      pop\n      pop\n      mload(0x40)\n      returndatasize\n      not(0x1f)\n      0x1f\n      dup3\n      add\n      and\n      dup3\n      add\n      dup1\n      0x40\n      mstore\n      pop\n      dup2\n      add\n      swap1\n      tag_469\n      swap2\n      swap1\n      tag_194\n      jump\t// in\n    tag_469:\n        /* \"BlockManager.sol\":10614:10653  uint256 epoch = stateManager.getEpoch() */\n      swap1\n      pop\n        /* \"BlockManager.sol\":10699:10700  0 */\n      0x00\n        /* \"BlockManager.sol\":10667:10673  blocks */\n      0x03\n        /* \"BlockManager.sol\":10667:10684  blocks[epoch - 1] */\n      0x00\n        /* \"BlockManager.sol\":10682:10683  1 */\n      0x01\n        /* \"BlockManager.sol\":10674:10679  epoch */\n      dup5\n        /* \"BlockManager.sol\":10674:10683  epoch - 1 */\n      sub\n        /* \"BlockManager.sol\":10667:10684  blocks[epoch - 1] */\n      dup2\n      mstore\n      0x20\n      add\n      swap1\n      dup2\n      mstore\n      0x20\n      add\n      0x00\n      keccak256\n        /* \"BlockManager.sol\":10667:10695  blocks[epoch - 1].proposerId */\n      0x00\n      add\n      sload\n        /* \"BlockManager.sol\":10667:10700  blocks[epoch - 1].proposerId == 0 */\n      eq\n        /* \"BlockManager.sol\":10667:10740  blocks[epoch - 1].proposerId == 0 && proposedBlocks[epoch - 1].length > 0 */\n      dup1\n      iszero\n      tag_470\n      jumpi\n      pop\n        /* \"BlockManager.sol\":10739:10740  0 */\n      0x00\n        /* \"BlockManager.sol\":10704:10718  proposedBlocks */\n      0x02\n        /* \"BlockManager.sol\":10704:10729  proposedBlocks[epoch - 1] */\n      0x00\n        /* \"BlockManager.sol\":10727:10728  1 */\n      0x01\n        /* \"BlockManager.sol\":10719:10724  epoch */\n      dup5\n        /* \"BlockManager.sol\":10719:10728  epoch - 1 */\n      sub\n        /* \"BlockManager.sol\":10704:10729  proposedBlocks[epoch - 1] */\n      dup2\n      mstore\n      0x20\n      add\n      swap1\n      dup2\n      mstore\n      0x20\n      add\n      0x00\n      keccak256\n        /* \"BlockManager.sol\":10704:10736  proposedBlocks[epoch - 1].length */\n      dup1\n      sload\n      swap1\n      pop\n        /* \"BlockManager.sol\":10704:10740  proposedBlocks[epoch - 1].length > 0 */\n      gt\n        /* \"BlockManager.sol\":10667:10740  blocks[epoch - 1].proposerId == 0 && proposedBlocks[epoch - 1].length > 0 */\n    tag_470:\n        /* \"BlockManager.sol\":10663:11923  if (blocks[epoch - 1].proposerId == 0 && proposedBlocks[epoch - 1].length > 0) {... */\n      iszero\n      tag_471\n      jumpi\n        /* \"BlockManager.sol\":10761:10768  uint8 i */\n      0x00\n        /* \"BlockManager.sol\":10769:10770  0 */\n      dup1\n        /* \"BlockManager.sol\":10761:10770  uint8 i=0 */\n      swap1\n      pop\n        /* \"BlockManager.sol\":10756:11913  for (uint8 i=0; i < proposedBlocks[epoch - 1].length; i++) {... */\n    tag_472:\n        /* \"BlockManager.sol\":10776:10790  proposedBlocks */\n      0x02\n        /* \"BlockManager.sol\":10776:10801  proposedBlocks[epoch - 1] */\n      0x00\n        /* \"BlockManager.sol\":10799:10800  1 */\n      0x01\n        /* \"BlockManager.sol\":10791:10796  epoch */\n      dup5\n        /* \"BlockManager.sol\":10791:10800  epoch - 1 */\n      sub\n        /* \"BlockManager.sol\":10776:10801  proposedBlocks[epoch - 1] */\n      dup2\n      mstore\n      0x20\n      add\n      swap1\n      dup2\n      mstore\n      0x20\n      add\n      0x00\n      keccak256\n        /* \"BlockManager.sol\":10776:10808  proposedBlocks[epoch - 1].length */\n      dup1\n      sload\n      swap1\n      pop\n        /* \"BlockManager.sol\":10772:10773  i */\n      dup2\n        /* \"BlockManager.sol\":10772:10808  i < proposedBlocks[epoch - 1].length */\n      0xff\n      and\n      lt\n        /* \"BlockManager.sol\":10756:11913  for (uint8 i=0; i < proposedBlocks[epoch - 1].length; i++) {... */\n      iszero\n      tag_473\n      jumpi\n        /* \"BlockManager.sol\":10837:10851  proposedBlocks */\n      0x02\n        /* \"BlockManager.sol\":10837:10862  proposedBlocks[epoch - 1] */\n      0x00\n        /* \"BlockManager.sol\":10860:10861  1 */\n      0x01\n        /* \"BlockManager.sol\":10852:10857  epoch */\n      dup5\n        /* \"BlockManager.sol\":10852:10861  epoch - 1 */\n      sub\n        /* \"BlockManager.sol\":10837:10862  proposedBlocks[epoch - 1] */\n      dup2\n      mstore\n      0x20\n      add\n      swap1\n      dup2\n      mstore\n      0x20\n      add\n      0x00\n      keccak256\n        /* \"BlockManager.sol\":10863:10864  i */\n      dup2\n        /* \"BlockManager.sol\":10837:10865  proposedBlocks[epoch - 1][i] */\n      0xff\n      and\n      dup2\n      sload\n      dup2\n      lt\n      tag_475\n      jumpi\n      invalid\n    tag_475:\n      swap1\n      0x00\n      mstore\n      keccak256(0x00, 0x20)\n      swap1\n      0x08\n      mul\n      add\n        /* \"BlockManager.sol\":10837:10871  proposedBlocks[epoch - 1][i].valid */\n      0x07\n      add\n      0x00\n      swap1\n      sload\n      swap1\n      0x0100\n      exp\n      swap1\n      div\n      0xff\n      and\n        /* \"BlockManager.sol\":10833:11899  if (proposedBlocks[epoch - 1][i].valid) {... */\n      iszero\n      tag_477\n      jumpi\n        /* \"BlockManager.sol\":10915:10929  proposedBlocks */\n      0x02\n        /* \"BlockManager.sol\":10915:10940  proposedBlocks[epoch - 1] */\n      0x00\n        /* \"BlockManager.sol\":10938:10939  1 */\n      0x01\n        /* \"BlockManager.sol\":10930:10935  epoch */\n      dup5\n        /* \"BlockManager.sol\":10930:10939  epoch - 1 */\n      sub\n        /* \"BlockManager.sol\":10915:10940  proposedBlocks[epoch - 1] */\n      dup2\n      mstore\n      0x20\n      add\n      swap1\n      dup2\n      mstore\n      0x20\n      add\n      0x00\n      keccak256\n        /* \"BlockManager.sol\":10941:10942  i */\n      dup2\n        /* \"BlockManager.sol\":10915:10943  proposedBlocks[epoch - 1][i] */\n      0xff\n      and\n      dup2\n      sload\n      dup2\n      lt\n      tag_478\n      jumpi\n      invalid\n    tag_478:\n      swap1\n      0x00\n      mstore\n      keccak256(0x00, 0x20)\n      swap1\n      0x08\n      mul\n      add\n        /* \"BlockManager.sol\":10895:10901  blocks */\n      0x03\n        /* \"BlockManager.sol\":10895:10912  blocks[epoch - 1] */\n      0x00\n        /* \"BlockManager.sol\":10910:10911  1 */\n      0x01\n        /* \"BlockManager.sol\":10902:10907  epoch */\n      dup6\n        /* \"BlockManager.sol\":10902:10911  epoch - 1 */\n      sub\n        /* \"BlockManager.sol\":10895:10912  blocks[epoch - 1] */\n      dup2\n      mstore\n      0x20\n      add\n      swap1\n      dup2\n      mstore\n      0x20\n      add\n      0x00\n      keccak256\n        /* \"BlockManager.sol\":10895:10943  blocks[epoch - 1] = proposedBlocks[epoch - 1][i] */\n      0x00\n      dup3\n      add\n      sload\n      dup2\n      0x00\n      add\n      sstore\n      0x01\n      dup3\n      add\n      dup2\n      0x01\n      add\n      swap1\n      dup1\n      sload\n      tag_480\n      swap3\n      swap2\n      swap1\n      tag_481\n      jump\t// in\n    tag_480:\n      pop\n      0x02\n      dup3\n      add\n      dup2\n      0x02\n      add\n      swap1\n      dup1\n      sload\n      tag_482\n      swap3\n      swap2\n      swap1\n      tag_481\n      jump\t// in\n    tag_482:\n      pop\n      0x03\n      dup3\n      add\n      dup2\n      0x03\n      add\n      swap1\n      dup1\n      sload\n      tag_483\n      swap3\n      swap2\n      swap1\n      tag_481\n      jump\t// in\n    tag_483:\n      pop\n      0x04\n      dup3\n      add\n      dup2\n      0x04\n      add\n      swap1\n      dup1\n      sload\n      tag_484\n      swap3\n      swap2\n      swap1\n      tag_481\n      jump\t// in\n    tag_484:\n      pop\n      0x05\n      dup3\n      add\n      sload\n      dup2\n      0x05\n      add\n      sstore\n      0x06\n      dup3\n      add\n      sload\n      dup2\n      0x06\n      add\n      sstore\n      0x07\n      dup3\n      add\n      0x00\n      swap1\n      sload\n      swap1\n      0x0100\n      exp\n      swap1\n      div\n      0xff\n      and\n      dup2\n      0x07\n      add\n      exp(0x0100, 0x00)\n      dup2\n      sload\n      dup2\n      0xff\n      mul\n      not\n      and\n      swap1\n      dup4\n      iszero\n      iszero\n      mul\n      or\n      swap1\n      sstore\n      pop\n      swap1\n      pop\n      pop\n        /* \"BlockManager.sol\":10965:10983  uint256 proposerId */\n      0x00\n        /* \"BlockManager.sol\":10986:11000  proposedBlocks */\n      0x02\n        /* \"BlockManager.sol\":10986:11011  proposedBlocks[epoch - 1] */\n      0x00\n        /* \"BlockManager.sol\":11009:11010  1 */\n      0x01\n        /* \"BlockManager.sol\":11001:11006  epoch */\n      dup6\n        /* \"BlockManager.sol\":11001:11010  epoch - 1 */\n      sub\n        /* \"BlockManager.sol\":10986:11011  proposedBlocks[epoch - 1] */\n      dup2\n      mstore\n      0x20\n      add\n      swap1\n      dup2\n      mstore\n      0x20\n      add\n      0x00\n      keccak256\n        /* \"BlockManager.sol\":11012:11013  i */\n      dup3\n        /* \"BlockManager.sol\":10986:11014  proposedBlocks[epoch - 1][i] */\n      0xff\n      and\n      dup2\n      sload\n      dup2\n      lt\n      tag_485\n      jumpi\n      invalid\n    tag_485:\n      swap1\n      0x00\n      mstore\n      keccak256(0x00, 0x20)\n      swap1\n      0x08\n      mul\n      add\n        /* \"BlockManager.sol\":10986:11025  proposedBlocks[epoch - 1][i].proposerId */\n      0x00\n      add\n      sload\n        /* \"BlockManager.sol\":10965:11025  uint256 proposerId = proposedBlocks[epoch - 1][i].proposerId */\n      swap1\n      pop\n        /* \"BlockManager.sol\":11052:11496  BlockConfirmed(epoch - 1,... */\n      0x5ef264ae9101b91bd7117350c5e85901297fa0569e7a3e07eb7ec0a6281529f0\n        /* \"BlockManager.sol\":11075:11076  1 */\n      0x01\n        /* \"BlockManager.sol\":11067:11072  epoch */\n      dup5\n        /* \"BlockManager.sol\":11067:11076  epoch - 1 */\n      sub\n        /* \"BlockManager.sol\":11118:11128  proposerId */\n      dup3\n        /* \"BlockManager.sol\":11170:11184  proposedBlocks */\n      0x02\n        /* \"BlockManager.sol\":11170:11195  proposedBlocks[epoch - 1] */\n      0x00\n        /* \"BlockManager.sol\":11193:11194  1 */\n      0x01\n        /* \"BlockManager.sol\":11185:11190  epoch */\n      dup9\n        /* \"BlockManager.sol\":11185:11194  epoch - 1 */\n      sub\n        /* \"BlockManager.sol\":11170:11195  proposedBlocks[epoch - 1] */\n      dup2\n      mstore\n      0x20\n      add\n      swap1\n      dup2\n      mstore\n      0x20\n      add\n      0x00\n      keccak256\n        /* \"BlockManager.sol\":11196:11197  i */\n      dup6\n        /* \"BlockManager.sol\":11170:11198  proposedBlocks[epoch - 1][i] */\n      0xff\n      and\n      dup2\n      sload\n      dup2\n      lt\n      tag_487\n      jumpi\n      invalid\n    tag_487:\n      swap1\n      0x00\n      mstore\n      keccak256(0x00, 0x20)\n      swap1\n      0x08\n      mul\n      add\n        /* \"BlockManager.sol\":11170:11206  proposedBlocks[epoch - 1][i].medians */\n      0x02\n      add\n        /* \"BlockManager.sol\":11248:11262  proposedBlocks */\n      0x02\n        /* \"BlockManager.sol\":11248:11273  proposedBlocks[epoch - 1] */\n      0x00\n        /* \"BlockManager.sol\":11271:11272  1 */\n      0x01\n        /* \"BlockManager.sol\":11263:11268  epoch */\n      dup10\n        /* \"BlockManager.sol\":11263:11272  epoch - 1 */\n      sub\n        /* \"BlockManager.sol\":11248:11273  proposedBlocks[epoch - 1] */\n      dup2\n      mstore\n      0x20\n      add\n      swap1\n      dup2\n      mstore\n      0x20\n      add\n      0x00\n      keccak256\n        /* \"BlockManager.sol\":11274:11275  i */\n      dup7\n        /* \"BlockManager.sol\":11248:11276  proposedBlocks[epoch - 1][i] */\n      0xff\n      and\n      dup2\n      sload\n      dup2\n      lt\n      tag_489\n      jumpi\n      invalid\n    tag_489:\n      swap1\n      0x00\n      mstore\n      keccak256(0x00, 0x20)\n      swap1\n      0x08\n      mul\n      add\n        /* \"BlockManager.sol\":11248:11289  proposedBlocks[epoch - 1][i].lowerCutoffs */\n      0x03\n      add\n        /* \"BlockManager.sol\":11331:11345  proposedBlocks */\n      0x02\n        /* \"BlockManager.sol\":11331:11356  proposedBlocks[epoch - 1] */\n      0x00\n        /* \"BlockManager.sol\":11354:11355  1 */\n      0x01\n        /* \"BlockManager.sol\":11346:11351  epoch */\n      dup11\n        /* \"BlockManager.sol\":11346:11355  epoch - 1 */\n      sub\n        /* \"BlockManager.sol\":11331:11356  proposedBlocks[epoch - 1] */\n      dup2\n      mstore\n      0x20\n      add\n      swap1\n      dup2\n      mstore\n      0x20\n      add\n      0x00\n      keccak256\n        /* \"BlockManager.sol\":11357:11358  i */\n      dup8\n        /* \"BlockManager.sol\":11331:11359  proposedBlocks[epoch - 1][i] */\n      0xff\n      and\n      dup2\n      sload\n      dup2\n      lt\n      tag_491\n      jumpi\n      invalid\n    tag_491:\n      swap1\n      0x00\n      mstore\n      keccak256(0x00, 0x20)\n      swap1\n      0x08\n      mul\n      add\n        /* \"BlockManager.sol\":11331:11373  proposedBlocks[epoch - 1][i].higherCutoffs */\n      0x04\n      add\n        /* \"BlockManager.sol\":11415:11429  proposedBlocks */\n      0x02\n        /* \"BlockManager.sol\":11415:11440  proposedBlocks[epoch - 1] */\n      0x00\n        /* \"BlockManager.sol\":11438:11439  1 */\n      0x01\n        /* \"BlockManager.sol\":11430:11435  epoch */\n      dup12\n        /* \"BlockManager.sol\":11430:11439  epoch - 1 */\n      sub\n        /* \"BlockManager.sol\":11415:11440  proposedBlocks[epoch - 1] */\n      dup2\n      mstore\n      0x20\n      add\n      swap1\n      dup2\n      mstore\n      0x20\n      add\n      0x00\n      keccak256\n        /* \"BlockManager.sol\":11441:11442  i */\n      dup9\n        /* \"BlockManager.sol\":11415:11443  proposedBlocks[epoch - 1][i] */\n      0xff\n      and\n      dup2\n      sload\n      dup2\n      lt\n      tag_493\n      jumpi\n      invalid\n    tag_493:\n      swap1\n      0x00\n      mstore\n      keccak256(0x00, 0x20)\n      swap1\n      0x08\n      mul\n      add\n        /* \"BlockManager.sol\":11415:11450  proposedBlocks[epoch - 1][i].jobIds */\n      0x01\n      add\n        /* \"BlockManager.sol\":11492:11495  now */\n      timestamp\n        /* \"BlockManager.sol\":11052:11496  BlockConfirmed(epoch - 1,... */\n      mload(0x40)\n      tag_495\n      swap8\n      swap7\n      swap6\n      swap5\n      swap4\n      swap3\n      swap2\n      swap1\n      tag_496\n      jump\t// in\n    tag_495:\n      mload(0x40)\n      dup1\n      swap2\n      sub\n      swap1\n      log1\n        /* \"BlockManager.sol\":11523:11530  uint8 j */\n      0x00\n        /* \"BlockManager.sol\":11533:11534  0 */\n      dup1\n        /* \"BlockManager.sol\":11523:11534  uint8 j = 0 */\n      swap1\n      pop\n        /* \"BlockManager.sol\":11518:11784  for (uint8 j = 0; j < proposedBlocks[epoch - 1][i].jobIds.length; j++) {... */\n    tag_497:\n        /* \"BlockManager.sol\":11540:11554  proposedBlocks */\n      0x02\n        /* \"BlockManager.sol\":11540:11565  proposedBlocks[epoch - 1] */\n      0x00\n        /* \"BlockManager.sol\":11563:11564  1 */\n      0x01\n        /* \"BlockManager.sol\":11555:11560  epoch */\n      dup7\n        /* \"BlockManager.sol\":11555:11564  epoch - 1 */\n      sub\n        /* \"BlockManager.sol\":11540:11565  proposedBlocks[epoch - 1] */\n      dup2\n      mstore\n      0x20\n      add\n      swap1\n      dup2\n      mstore\n      0x20\n      add\n      0x00\n      keccak256\n        /* \"BlockManager.sol\":11566:11567  i */\n      dup4\n        /* \"BlockManager.sol\":11540:11568  proposedBlocks[epoch - 1][i] */\n      0xff\n      and\n      dup2\n      sload\n      dup2\n      lt\n      tag_500\n      jumpi\n      invalid\n    tag_500:\n      swap1\n      0x00\n      mstore\n      keccak256(0x00, 0x20)\n      swap1\n      0x08\n      mul\n      add\n        /* \"BlockManager.sol\":11540:11575  proposedBlocks[epoch - 1][i].jobIds */\n      0x01\n      add\n        /* \"BlockManager.sol\":11540:11582  proposedBlocks[epoch - 1][i].jobIds.length */\n      dup1\n      sload\n      swap1\n      pop\n        /* \"BlockManager.sol\":11536:11537  j */\n      dup2\n        /* \"BlockManager.sol\":11536:11582  j < proposedBlocks[epoch - 1][i].jobIds.length */\n      0xff\n      and\n      lt\n        /* \"BlockManager.sol\":11518:11784  for (uint8 j = 0; j < proposedBlocks[epoch - 1][i].jobIds.length; j++) {... */\n      iszero\n      tag_498\n      jumpi\n        /* \"BlockManager.sol\":11615:11625  jobManager */\n      0x07\n      0x00\n      swap1\n      sload\n      swap1\n      0x0100\n      exp\n      swap1\n      div\n      0xffffffffffffffffffffffffffffffffffffffff\n      and\n        /* \"BlockManager.sol\":11615:11636  jobManager.fulfillJob */\n      0xffffffffffffffffffffffffffffffffffffffff\n      and\n      0x56350bdf\n        /* \"BlockManager.sol\":11637:11651  proposedBlocks */\n      0x02\n        /* \"BlockManager.sol\":11637:11662  proposedBlocks[epoch - 1] */\n      0x00\n        /* \"BlockManager.sol\":11660:11661  1 */\n      0x01\n        /* \"BlockManager.sol\":11652:11657  epoch */\n      dup9\n        /* \"BlockManager.sol\":11652:11661  epoch - 1 */\n      sub\n        /* \"BlockManager.sol\":11637:11662  proposedBlocks[epoch - 1] */\n      dup2\n      mstore\n      0x20\n      add\n      swap1\n      dup2\n      mstore\n      0x20\n      add\n      0x00\n      keccak256\n        /* \"BlockManager.sol\":11663:11664  i */\n      dup6\n        /* \"BlockManager.sol\":11637:11665  proposedBlocks[epoch - 1][i] */\n      0xff\n      and\n      dup2\n      sload\n      dup2\n      lt\n      tag_502\n      jumpi\n      invalid\n    tag_502:\n      swap1\n      0x00\n      mstore\n      keccak256(0x00, 0x20)\n      swap1\n      0x08\n      mul\n      add\n        /* \"BlockManager.sol\":11637:11672  proposedBlocks[epoch - 1][i].jobIds */\n      0x01\n      add\n        /* \"BlockManager.sol\":11673:11674  j */\n      dup4\n        /* \"BlockManager.sol\":11637:11675  proposedBlocks[epoch - 1][i].jobIds[j] */\n      0xff\n      and\n      dup2\n      sload\n      dup2\n      lt\n      tag_504\n      jumpi\n      invalid\n    tag_504:\n      swap1\n      0x00\n      mstore\n      keccak256(0x00, 0x20)\n      add\n      sload\n        /* \"BlockManager.sol\":11721:11735  proposedBlocks */\n      0x02\n        /* \"BlockManager.sol\":11721:11746  proposedBlocks[epoch - 1] */\n      0x00\n        /* \"BlockManager.sol\":11744:11745  1 */\n      0x01\n        /* \"BlockManager.sol\":11736:11741  epoch */\n      dup10\n        /* \"BlockManager.sol\":11736:11745  epoch - 1 */\n      sub\n        /* \"BlockManager.sol\":11721:11746  proposedBlocks[epoch - 1] */\n      dup2\n      mstore\n      0x20\n      add\n      swap1\n      dup2\n      mstore\n      0x20\n      add\n      0x00\n      keccak256\n        /* \"BlockManager.sol\":11747:11748  i */\n      dup7\n        /* \"BlockManager.sol\":11721:11749  proposedBlocks[epoch - 1][i] */\n      0xff\n      and\n      dup2\n      sload\n      dup2\n      lt\n      tag_506\n      jumpi\n      invalid\n    tag_506:\n      swap1\n      0x00\n      mstore\n      keccak256(0x00, 0x20)\n      swap1\n      0x08\n      mul\n      add\n        /* \"BlockManager.sol\":11721:11757  proposedBlocks[epoch - 1][i].medians */\n      0x02\n      add\n        /* \"BlockManager.sol\":11758:11759  j */\n      dup5\n        /* \"BlockManager.sol\":11721:11760  proposedBlocks[epoch - 1][i].medians[j] */\n      0xff\n      and\n      dup2\n      sload\n      dup2\n      lt\n      tag_508\n      jumpi\n      invalid\n    tag_508:\n      swap1\n      0x00\n      mstore\n      keccak256(0x00, 0x20)\n      add\n      sload\n        /* \"BlockManager.sol\":11615:11761  jobManager.fulfillJob(proposedBlocks[epoch - 1][i].jobIds[j],... */\n      mload(0x40)\n      dup4\n      0xffffffff\n      and\n      0xe0\n      shl\n      dup2\n      mstore\n      0x04\n      add\n      tag_510\n      swap3\n      swap2\n      swap1\n      tag_260\n      jump\t// in\n    tag_510:\n      0x00\n      mload(0x40)\n      dup1\n      dup4\n      sub\n      dup2\n      0x00\n      dup8\n      dup1\n      extcodesize\n      iszero\n      dup1\n      iszero\n      tag_511\n      jumpi\n      0x00\n      dup1\n      revert\n    tag_511:\n      pop\n      gas\n      call\n      iszero\n      dup1\n      iszero\n      tag_513\n      jumpi\n      returndatasize\n      0x00\n      dup1\n      returndatacopy\n      revert(0x00, returndatasize)\n    tag_513:\n      pop\n      pop\n      pop\n      pop\n        /* \"BlockManager.sol\":11584:11587  j++ */\n      dup1\n      dup1\n      0x01\n      add\n      swap2\n      pop\n      pop\n        /* \"BlockManager.sol\":11518:11784  for (uint8 j = 0; j < proposedBlocks[epoch - 1][i].jobIds.length; j++) {... */\n      jump(tag_497)\n    tag_498:\n      pop\n        /* \"BlockManager.sol\":11805:11817  stakeManager */\n      0x04\n      0x00\n      swap1\n      sload\n      swap1\n      0x0100\n      exp\n      swap1\n      div\n      0xffffffffffffffffffffffffffffffffffffffff\n      and\n        /* \"BlockManager.sol\":11805:11833  stakeManager.giveBlockReward */\n      0xffffffffffffffffffffffffffffffffffffffff\n      and\n      0x746c8b65\n        /* \"BlockManager.sol\":11834:11844  proposerId */\n      dup3\n        /* \"BlockManager.sol\":11846:11851  epoch */\n      dup6\n        /* \"BlockManager.sol\":11805:11852  stakeManager.giveBlockReward(proposerId, epoch) */\n      mload(0x40)\n      dup4\n      0xffffffff\n      and\n      0xe0\n      shl\n      dup2\n      mstore\n      0x04\n      add\n      tag_514\n      swap3\n      swap2\n      swap1\n      tag_260\n      jump\t// in\n    tag_514:\n      0x00\n      mload(0x40)\n      dup1\n      dup4\n      sub\n      dup2\n      0x00\n      dup8\n      dup1\n      extcodesize\n      iszero\n      dup1\n      iszero\n      tag_515\n      jumpi\n      0x00\n      dup1\n      revert\n    tag_515:\n      pop\n      gas\n      call\n      iszero\n      dup1\n      iszero\n      tag_517\n      jumpi\n      returndatasize\n      0x00\n      dup1\n      returndatacopy\n      revert(0x00, returndatasize)\n    tag_517:\n      pop\n      pop\n      pop\n      pop\n        /* \"BlockManager.sol\":11874:11881  return; */\n      pop\n      pop\n      pop\n      jump(tag_465)\n        /* \"BlockManager.sol\":10833:11899  if (proposedBlocks[epoch - 1][i].valid) {... */\n    tag_477:\n        /* \"BlockManager.sol\":10810:10813  i++ */\n      dup1\n      dup1\n      0x01\n      add\n      swap2\n      pop\n      pop\n        /* \"BlockManager.sol\":10756:11913  for (uint8 i=0; i < proposedBlocks[epoch - 1].length; i++) {... */\n      jump(tag_472)\n    tag_473:\n      pop\n        /* \"BlockManager.sol\":10663:11923  if (blocks[epoch - 1].proposerId == 0 && proposedBlocks[epoch - 1].length > 0) {... */\n    tag_471:\n        /* \"WriterRole.sol\":653:654  _ */\n      pop\n    tag_465:\n        /* \"BlockManager.sol\":10562:11929  function confirmBlock() public onlyWriter {... */\n      jump\t// out\n        /* \"openzeppelin-solidity/contracts/access/AccessControl.sol\":1717:1766   */\n    tag_136:\n        /* \"openzeppelin-solidity/contracts/access/AccessControl.sol\":1762:1766   */\n      0x00\n        /* \"openzeppelin-solidity/contracts/access/AccessControl.sol\":1717:1766   */\n      dup1\n      shl\n      dup2\n      jump\t// out\n        /* \"BlockManager.sol\":1584:1958  function getProposedBlock(uint256 epoch, uint256 proposedBlock)... */\n    tag_140:\n        /* \"BlockManager.sol\":1674:1701  Structs.Block memory _block */\n      tag_518\n      tag_178\n      jump\t// in\n    tag_518:\n        /* \"BlockManager.sol\":1707:1737  uint256[] memory _blockMedians */\n      0x60\n        /* \"BlockManager.sol\":1743:1773  uint256[] memory _lowerCutoffs */\n      dup1\n        /* \"BlockManager.sol\":1779:1810  uint256[] memory _higherCutoffs */\n      0x60\n        /* \"BlockManager.sol\":1832:1846  proposedBlocks */\n      0x02\n        /* \"BlockManager.sol\":1832:1853  proposedBlocks[epoch] */\n      0x00\n        /* \"BlockManager.sol\":1847:1852  epoch */\n      dup8\n        /* \"BlockManager.sol\":1832:1853  proposedBlocks[epoch] */\n      dup2\n      mstore\n      0x20\n      add\n      swap1\n      dup2\n      mstore\n      0x20\n      add\n      0x00\n      keccak256\n        /* \"BlockManager.sol\":1854:1867  proposedBlock */\n      dup6\n        /* \"BlockManager.sol\":1832:1868  proposedBlocks[epoch][proposedBlock] */\n      dup2\n      sload\n      dup2\n      lt\n      tag_520\n      jumpi\n      invalid\n    tag_520:\n      swap1\n      0x00\n      mstore\n      keccak256(0x00, 0x20)\n      swap1\n      0x08\n      mul\n      add\n        /* \"BlockManager.sol\":1823:1868  _block = proposedBlocks[epoch][proposedBlock] */\n      mload(0x40)\n      dup1\n      0x0100\n      add\n      0x40\n      mstore\n      swap1\n      dup2\n      0x00\n      dup3\n      add\n      sload\n      dup2\n      mstore\n      0x20\n      add\n      0x01\n      dup3\n      add\n      dup1\n      sload\n      dup1\n      0x20\n      mul\n      0x20\n      add\n      mload(0x40)\n      swap1\n      dup2\n      add\n      0x40\n      mstore\n      dup1\n      swap3\n      swap2\n      swap1\n      dup2\n      dup2\n      mstore\n      0x20\n      add\n      dup3\n      dup1\n      sload\n      dup1\n      iszero\n      tag_522\n      jumpi\n      0x20\n      mul\n      dup3\n      add\n      swap2\n      swap1\n      0x00\n      mstore\n      keccak256(0x00, 0x20)\n      swap1\n    tag_523:\n      dup2\n      sload\n      dup2\n      mstore\n      0x20\n      add\n      swap1\n      0x01\n      add\n      swap1\n      dup1\n      dup4\n      gt\n      tag_523\n      jumpi\n    tag_522:\n      pop\n      pop\n      pop\n      pop\n      pop\n      dup2\n      mstore\n      0x20\n      add\n      0x02\n      dup3\n      add\n      dup1\n      sload\n      dup1\n      0x20\n      mul\n      0x20\n      add\n      mload(0x40)\n      swap1\n      dup2\n      add\n      0x40\n      mstore\n      dup1\n      swap3\n      swap2\n      swap1\n      dup2\n      dup2\n      mstore\n      0x20\n      add\n      dup3\n      dup1\n      sload\n      dup1\n      iszero\n      tag_524\n      jumpi\n      0x20\n      mul\n      dup3\n      add\n      swap2\n      swap1\n      0x00\n      mstore\n      keccak256(0x00, 0x20)\n      swap1\n    tag_525:\n      dup2\n      sload\n      dup2\n      mstore\n      0x20\n      add\n      swap1\n      0x01\n      add\n      swap1\n      dup1\n      dup4\n      gt\n      tag_525\n      jumpi\n    tag_524:\n      pop\n      pop\n      pop\n      pop\n      pop\n      dup2\n      mstore\n      0x20\n      add\n      0x03\n      dup3\n      add\n      dup1\n      sload\n      dup1\n      0x20\n      mul\n      0x20\n      add\n      mload(0x40)\n      swap1\n      dup2\n      add\n      0x40\n      mstore\n      dup1\n      swap3\n      swap2\n      swap1\n      dup2\n      dup2\n      mstore\n      0x20\n      add\n      dup3\n      dup1\n      sload\n      dup1\n      iszero\n      tag_526\n      jumpi\n      0x20\n      mul\n      dup3\n      add\n      swap2\n      swap1\n      0x00\n      mstore\n      keccak256(0x00, 0x20)\n      swap1\n    tag_527:\n      dup2\n      sload\n      dup2\n      mstore\n      0x20\n      add\n      swap1\n      0x01\n      add\n      swap1\n      dup1\n      dup4\n      gt\n      tag_527\n      jumpi\n    tag_526:\n      pop\n      pop\n      pop\n      pop\n      pop\n      dup2\n      mstore\n      0x20\n      add\n      0x04\n      dup3\n      add\n      dup1\n      sload\n      dup1\n      0x20\n      mul\n      0x20\n      add\n      mload(0x40)\n      swap1\n      dup2\n      add\n      0x40\n      mstore\n      dup1\n      swap3\n      swap2\n      swap1\n      dup2\n      dup2\n      mstore\n      0x20\n      add\n      dup3\n      dup1\n      sload\n      dup1\n      iszero\n      tag_528\n      jumpi\n      0x20\n      mul\n      dup3\n      add\n      swap2\n      swap1\n      0x00\n      mstore\n      keccak256(0x00, 0x20)\n      swap1\n    tag_529:\n      dup2\n      sload\n      dup2\n      mstore\n      0x20\n      add\n      swap1\n      0x01\n      add\n      swap1\n      dup1\n      dup4\n      gt\n      tag_529\n      jumpi\n    tag_528:\n      pop\n      pop\n      pop\n      pop\n      pop\n      dup2\n      mstore\n      0x20\n      add\n      0x05\n      dup3\n      add\n      sload\n      dup2\n      mstore\n      0x20\n      add\n      0x06\n      dup3\n      add\n      sload\n      dup2\n      mstore\n      0x20\n      add\n      0x07\n      dup3\n      add\n      0x00\n      swap1\n      sload\n      swap1\n      0x0100\n      exp\n      swap1\n      div\n      0xff\n      and\n      iszero\n      iszero\n      iszero\n      iszero\n      dup2\n      mstore\n      pop\n      pop\n      swap4\n      pop\n        /* \"BlockManager.sol\":1885:1891  _block */\n      dup4\n        /* \"BlockManager.sol\":1893:1899  _block */\n      dup5\n        /* \"BlockManager.sol\":1893:1907  _block.medians */\n      0x40\n      add\n      mload\n        /* \"BlockManager.sol\":1909:1915  _block */\n      dup6\n        /* \"BlockManager.sol\":1909:1928  _block.lowerCutoffs */\n      0x60\n      add\n      mload\n        /* \"BlockManager.sol\":1930:1936  _block */\n      dup7\n        /* \"BlockManager.sol\":1930:1950  _block.higherCutoffs */\n      0x80\n      add\n      mload\n        /* \"BlockManager.sol\":1878:1951  return(_block, _block.medians, _block.lowerCutoffs, _block.higherCutoffs) */\n      swap4\n      pop\n      swap4\n      pop\n      swap4\n      pop\n      swap4\n      pop\n        /* \"BlockManager.sol\":1584:1958  function getProposedBlock(uint256 epoch, uint256 proposedBlock)... */\n      swap3\n      swap6\n      swap2\n      swap5\n      pop\n      swap3\n      pop\n      jump\t// out\n        /* \"openzeppelin-solidity/contracts/access/AccessControl.sol\":3245:3370   */\n    tag_145:\n        /* \"openzeppelin-solidity/contracts/access/AccessControl.sol\":3308:3315   */\n      0x00\n        /* \"openzeppelin-solidity/contracts/access/AccessControl.sol\":3334:3363   */\n      tag_531\n        /* \"openzeppelin-solidity/contracts/access/AccessControl.sol\":3334:3340   */\n      0x00\n        /* \"openzeppelin-solidity/contracts/access/AccessControl.sol\":3334:3346   */\n      dup1\n        /* \"openzeppelin-solidity/contracts/access/AccessControl.sol\":3341:3345   */\n      dup5\n        /* \"openzeppelin-solidity/contracts/access/AccessControl.sol\":3334:3346   */\n      dup2\n      mstore\n      0x20\n      add\n      swap1\n      dup2\n      mstore\n      0x20\n      add\n      0x00\n      keccak256\n        /* \"openzeppelin-solidity/contracts/access/AccessControl.sol\":3334:3354   */\n      0x00\n      add\n        /* \"openzeppelin-solidity/contracts/access/AccessControl.sol\":3334:3361   */\n      tag_532\n        /* \"openzeppelin-solidity/contracts/access/AccessControl.sol\":3334:3363   */\n      jump\t// in\n    tag_531:\n        /* \"openzeppelin-solidity/contracts/access/AccessControl.sol\":3327:3363   */\n      swap1\n      pop\n        /* \"openzeppelin-solidity/contracts/access/AccessControl.sol\":3245:3370   */\n      swap2\n      swap1\n      pop\n      jump\t// out\n        /* \"BlockManager.sol\":1964:2201  function getProposedBlockMedians(uint256 epoch, uint256 proposedBlock)... */\n    tag_150:\n        /* \"BlockManager.sol\":2061:2091  uint256[] memory _blockMedians */\n      0x60\n        /* \"BlockManager.sol\":2119:2133  proposedBlocks */\n      0x02\n        /* \"BlockManager.sol\":2119:2140  proposedBlocks[epoch] */\n      0x00\n        /* \"BlockManager.sol\":2134:2139  epoch */\n      dup5\n        /* \"BlockManager.sol\":2119:2140  proposedBlocks[epoch] */\n      dup2\n      mstore\n      0x20\n      add\n      swap1\n      dup2\n      mstore\n      0x20\n      add\n      0x00\n      keccak256\n        /* \"BlockManager.sol\":2141:2154  proposedBlock */\n      dup3\n        /* \"BlockManager.sol\":2119:2155  proposedBlocks[epoch][proposedBlock] */\n      dup2\n      sload\n      dup2\n      lt\n      tag_534\n      jumpi\n      invalid\n    tag_534:\n      swap1\n      0x00\n      mstore\n      keccak256(0x00, 0x20)\n      swap1\n      0x08\n      mul\n      add\n        /* \"BlockManager.sol\":2119:2163  proposedBlocks[epoch][proposedBlock].medians */\n      0x02\n      add\n        /* \"BlockManager.sol\":2103:2163  _blockMedians = proposedBlocks[epoch][proposedBlock].medians */\n      dup1\n      sload\n      dup1\n      0x20\n      mul\n      0x20\n      add\n      mload(0x40)\n      swap1\n      dup2\n      add\n      0x40\n      mstore\n      dup1\n      swap3\n      swap2\n      swap1\n      dup2\n      dup2\n      mstore\n      0x20\n      add\n      dup3\n      dup1\n      sload\n      dup1\n      iszero\n      tag_536\n      jumpi\n      0x20\n      mul\n      dup3\n      add\n      swap2\n      swap1\n      0x00\n      mstore\n      keccak256(0x00, 0x20)\n      swap1\n    tag_537:\n      dup2\n      sload\n      dup2\n      mstore\n      0x20\n      add\n      swap1\n      0x01\n      add\n      swap1\n      dup1\n      dup4\n      gt\n      tag_537\n      jumpi\n    tag_536:\n      pop\n      pop\n      pop\n      pop\n      pop\n      swap1\n      pop\n        /* \"BlockManager.sol\":2180:2193  _blockMedians */\n      dup1\n        /* \"BlockManager.sol\":2173:2194  return(_blockMedians) */\n      swap1\n      pop\n        /* \"BlockManager.sol\":1964:2201  function getProposedBlockMedians(uint256 epoch, uint256 proposedBlock)... */\n      swap3\n      swap2\n      pop\n      pop\n      jump\t// out\n        /* \"BlockManager.sol\":1199:1383  function getLowerCutoffs(uint256 epoch) external view returns(uint256[] memory _lowerCutoffs) {... */\n    tag_154:\n        /* \"BlockManager.sol\":1261:1291  uint256[] memory _lowerCutoffs */\n      0x60\n        /* \"BlockManager.sol\":1319:1325  blocks */\n      0x03\n        /* \"BlockManager.sol\":1319:1332  blocks[epoch] */\n      0x00\n        /* \"BlockManager.sol\":1326:1331  epoch */\n      dup4\n        /* \"BlockManager.sol\":1319:1332  blocks[epoch] */\n      dup2\n      mstore\n      0x20\n      add\n      swap1\n      dup2\n      mstore\n      0x20\n      add\n      0x00\n      keccak256\n        /* \"BlockManager.sol\":1319:1345  blocks[epoch].lowerCutoffs */\n      0x03\n      add\n        /* \"BlockManager.sol\":1303:1345  _lowerCutoffs = blocks[epoch].lowerCutoffs */\n      dup1\n      sload\n      dup1\n      0x20\n      mul\n      0x20\n      add\n      mload(0x40)\n      swap1\n      dup2\n      add\n      0x40\n      mstore\n      dup1\n      swap3\n      swap2\n      swap1\n      dup2\n      dup2\n      mstore\n      0x20\n      add\n      dup3\n      dup1\n      sload\n      dup1\n      iszero\n      tag_539\n      jumpi\n      0x20\n      mul\n      dup3\n      add\n      swap2\n      swap1\n      0x00\n      mstore\n      keccak256(0x00, 0x20)\n      swap1\n    tag_540:\n      dup2\n      sload\n      dup2\n      mstore\n      0x20\n      add\n      swap1\n      0x01\n      add\n      swap1\n      dup1\n      dup4\n      gt\n      tag_540\n      jumpi\n    tag_539:\n      pop\n      pop\n      pop\n      pop\n      pop\n      swap1\n      pop\n        /* \"BlockManager.sol\":1362:1375  _lowerCutoffs */\n      dup1\n        /* \"BlockManager.sol\":1355:1376  return(_lowerCutoffs) */\n      swap1\n      pop\n        /* \"BlockManager.sol\":1199:1383  function getLowerCutoffs(uint256 epoch) external view returns(uint256[] memory _lowerCutoffs) {... */\n      swap2\n      swap1\n      pop\n      jump\t// out\n        /* \"openzeppelin-solidity/contracts/access/AccessControl.sol\":5091:5317   */\n    tag_158:\n        /* \"openzeppelin-solidity/contracts/access/AccessControl.sol\":5175:5220   */\n      tag_542\n        /* \"openzeppelin-solidity/contracts/access/AccessControl.sol\":5183:5189   */\n      0x00\n        /* \"openzeppelin-solidity/contracts/access/AccessControl.sol\":5183:5195   */\n      dup1\n        /* \"openzeppelin-solidity/contracts/access/AccessControl.sol\":5190:5194   */\n      dup5\n        /* \"openzeppelin-solidity/contracts/access/AccessControl.sol\":5183:5195   */\n      dup2\n      mstore\n      0x20\n      add\n      swap1\n      dup2\n      mstore\n      0x20\n      add\n      0x00\n      keccak256\n        /* \"openzeppelin-solidity/contracts/access/AccessControl.sol\":5183:5205   */\n      0x02\n      add\n      sload\n        /* \"openzeppelin-solidity/contracts/access/AccessControl.sol\":5207:5219   */\n      tag_543\n        /* \"openzeppelin-solidity/contracts/access/AccessControl.sol\":5207:5217   */\n      tag_292\n        /* \"openzeppelin-solidity/contracts/access/AccessControl.sol\":5207:5219   */\n      jump\t// in\n    tag_543:\n        /* \"openzeppelin-solidity/contracts/access/AccessControl.sol\":5175:5182   */\n      tag_126\n        /* \"openzeppelin-solidity/contracts/access/AccessControl.sol\":5175:5220   */\n      jump\t// in\n    tag_542:\n        /* \"openzeppelin-solidity/contracts/access/AccessControl.sol\":5167:5273   */\n      tag_544\n      jumpi\n      mload(0x40)\n      0x08c379a000000000000000000000000000000000000000000000000000000000\n      dup2\n      mstore\n      0x04\n      add\n      tag_545\n      swap1\n      tag_546\n      jump\t// in\n    tag_545:\n      mload(0x40)\n      dup1\n      swap2\n      sub\n      swap1\n      revert\n    tag_544:\n        /* \"openzeppelin-solidity/contracts/access/AccessControl.sol\":5284:5310   */\n      tag_547\n        /* \"openzeppelin-solidity/contracts/access/AccessControl.sol\":5296:5300   */\n      dup3\n        /* \"openzeppelin-solidity/contracts/access/AccessControl.sol\":5302:5309   */\n      dup3\n        /* \"openzeppelin-solidity/contracts/access/AccessControl.sol\":5284:5295   */\n      tag_304\n        /* \"openzeppelin-solidity/contracts/access/AccessControl.sol\":5284:5310   */\n      jump\t// in\n    tag_547:\n        /* \"openzeppelin-solidity/contracts/access/AccessControl.sol\":5091:5317   */\n      pop\n      pop\n      jump\t// out\n        /* \"WriterRole.sol\":784:874  function addWriter(address account) public onlyWriter {... */\n    tag_161:\n        /* \"WriterRole.sol\":570:590  isWriter(msg.sender) */\n      tag_549\n        /* \"WriterRole.sol\":579:589  msg.sender */\n      caller\n        /* \"WriterRole.sol\":570:578  isWriter */\n      tag_71\n        /* \"WriterRole.sol\":570:590  isWriter(msg.sender) */\n      jump\t// in\n    tag_549:\n        /* \"WriterRole.sol\":562:643  require(isWriter(msg.sender), \"WriterRole: caller does not have the Writer role\") */\n      tag_550\n      jumpi\n      mload(0x40)\n      0x08c379a000000000000000000000000000000000000000000000000000000000\n      dup2\n      mstore\n      0x04\n      add\n      tag_551\n      swap1\n      tag_464\n      jump\t// in\n    tag_551:\n      mload(0x40)\n      dup1\n      swap2\n      sub\n      swap1\n      revert\n    tag_550:\n        /* \"WriterRole.sol\":848:867  _addWriter(account) */\n      tag_553\n        /* \"WriterRole.sol\":859:866  account */\n      dup2\n        /* \"WriterRole.sol\":848:858  _addWriter */\n      tag_554\n        /* \"WriterRole.sol\":848:867  _addWriter(account) */\n      jump\t// in\n    tag_553:\n        /* \"WriterRole.sol\":784:874  function addWriter(address account) public onlyWriter {... */\n      pop\n      jump\t// out\n        /* \"WriterRole.sol\":880:955  function renounceWriter() public {... */\n    tag_163:\n        /* \"WriterRole.sol\":923:948  _removeWriter(msg.sender) */\n      tag_556\n        /* \"WriterRole.sol\":937:947  msg.sender */\n      caller\n        /* \"WriterRole.sol\":923:936  _removeWriter */\n      tag_557\n        /* \"WriterRole.sol\":923:948  _removeWriter(msg.sender) */\n      jump\t// in\n    tag_556:\n        /* \"WriterRole.sol\":880:955  function renounceWriter() public {... */\n      jump\t// out\n        /* \"BlockManager.sol\":2207:2340  function getNumProposedBlocks(uint256 epoch)... */\n    tag_166:\n        /* \"BlockManager.sol\":2278:2285  uint256 */\n      0x00\n        /* \"BlockManager.sol\":2304:2318  proposedBlocks */\n      0x02\n        /* \"BlockManager.sol\":2304:2325  proposedBlocks[epoch] */\n      0x00\n        /* \"BlockManager.sol\":2319:2324  epoch */\n      dup4\n        /* \"BlockManager.sol\":2304:2325  proposedBlocks[epoch] */\n      dup2\n      mstore\n      0x20\n      add\n      swap1\n      dup2\n      mstore\n      0x20\n      add\n      0x00\n      keccak256\n        /* \"BlockManager.sol\":2304:2332  proposedBlocks[epoch].length */\n      dup1\n      sload\n      swap1\n      pop\n        /* \"BlockManager.sol\":2297:2333  return(proposedBlocks[epoch].length) */\n      swap1\n      pop\n        /* \"BlockManager.sol\":2207:2340  function getNumProposedBlocks(uint256 epoch)... */\n      swap2\n      swap1\n      pop\n      jump\t// out\n        /* \"BlockStorage.sol\":470:518  mapping (uint256 => Structs.Block) public blocks */\n    tag_170:\n      mstore(0x20, 0x03)\n      dup1\n      0x00\n      mstore\n      keccak256(0x00, 0x40)\n      0x00\n      swap2\n      pop\n      swap1\n      pop\n      dup1\n      0x00\n      add\n      sload\n      swap1\n      dup1\n      0x05\n      add\n      sload\n      swap1\n      dup1\n      0x06\n      add\n      sload\n      swap1\n      dup1\n      0x07\n      add\n      0x00\n      swap1\n      sload\n      swap1\n      0x0100\n      exp\n      swap1\n      div\n      0xff\n      and\n      swap1\n      pop\n      dup5\n      jump\t// out\n        /* \"BlockManager.sol\":1389:1578  function getHigherCutoffs(uint256 epoch) external view returns(uint256[] memory _higherCutoffs) {... */\n    tag_174:\n        /* \"BlockManager.sol\":1452:1483  uint256[] memory _higherCutoffs */\n      0x60\n        /* \"BlockManager.sol\":1512:1518  blocks */\n      0x03\n        /* \"BlockManager.sol\":1512:1525  blocks[epoch] */\n      0x00\n        /* \"BlockManager.sol\":1519:1524  epoch */\n      dup4\n        /* \"BlockManager.sol\":1512:1525  blocks[epoch] */\n      dup2\n      mstore\n      0x20\n      add\n      swap1\n      dup2\n      mstore\n      0x20\n      add\n      0x00\n      keccak256\n        /* \"BlockManager.sol\":1512:1539  blocks[epoch].higherCutoffs */\n      0x04\n      add\n        /* \"BlockManager.sol\":1495:1539  _higherCutoffs = blocks[epoch].higherCutoffs */\n      dup1\n      sload\n      dup1\n      0x20\n      mul\n      0x20\n      add\n      mload(0x40)\n      swap1\n      dup2\n      add\n      0x40\n      mstore\n      dup1\n      swap3\n      swap2\n      swap1\n      dup2\n      dup2\n      mstore\n      0x20\n      add\n      dup3\n      dup1\n      sload\n      dup1\n      iszero\n      tag_560\n      jumpi\n      0x20\n      mul\n      dup3\n      add\n      swap2\n      swap1\n      0x00\n      mstore\n      keccak256(0x00, 0x20)\n      swap1\n    tag_561:\n      dup2\n      sload\n      dup2\n      mstore\n      0x20\n      add\n      swap1\n      0x01\n      add\n      swap1\n      dup1\n      dup4\n      gt\n      tag_561\n      jumpi\n    tag_560:\n      pop\n      pop\n      pop\n      pop\n      pop\n      swap1\n      pop\n        /* \"BlockManager.sol\":1556:1570  _higherCutoffs */\n      dup1\n        /* \"BlockManager.sol\":1549:1571  return(_higherCutoffs) */\n      swap1\n      pop\n        /* \"BlockManager.sol\":1389:1578  function getHigherCutoffs(uint256 epoch) external view returns(uint256[] memory _higherCutoffs) {... */\n      swap2\n      swap1\n      pop\n      jump\t// out\n        /* \"openzeppelin-solidity/contracts/utils/EnumerableSet.sol\":4864:5005   */\n    tag_176:\n        /* \"openzeppelin-solidity/contracts/utils/EnumerableSet.sol\":4934:4938   */\n      0x00\n        /* \"openzeppelin-solidity/contracts/utils/EnumerableSet.sol\":4957:4998   */\n      tag_563\n        /* \"openzeppelin-solidity/contracts/utils/EnumerableSet.sol\":4962:4965   */\n      dup4\n        /* \"openzeppelin-solidity/contracts/utils/EnumerableSet.sol\":4962:4972   */\n      0x00\n      add\n        /* \"openzeppelin-solidity/contracts/utils/EnumerableSet.sol\":4990:4995   */\n      dup4\n        /* \"openzeppelin-solidity/contracts/utils/EnumerableSet.sol\":4982:4996   */\n      0xffffffffffffffffffffffffffffffffffffffff\n      and\n        /* \"openzeppelin-solidity/contracts/utils/EnumerableSet.sol\":4974:4997   */\n      0x00\n      shl\n        /* \"openzeppelin-solidity/contracts/utils/EnumerableSet.sol\":4957:4961   */\n      tag_564\n        /* \"openzeppelin-solidity/contracts/utils/EnumerableSet.sol\":4957:4998   */\n      jump\t// in\n    tag_563:\n        /* \"openzeppelin-solidity/contracts/utils/EnumerableSet.sol\":4950:4998   */\n      swap1\n      pop\n        /* \"openzeppelin-solidity/contracts/utils/EnumerableSet.sol\":4864:5005   */\n      swap3\n      swap2\n      pop\n      pop\n      jump\t// out\n        /* \"BlockManager.sol\":11935:13435  function _insertAppropriately(uint256 epoch, Structs.Block memory _block) internal {... */\n    tag_241:\n        /* \"BlockManager.sol\":12112:12113  0 */\n      0x00\n        /* \"BlockManager.sol\":12080:12094  proposedBlocks */\n      0x02\n        /* \"BlockManager.sol\":12080:12101  proposedBlocks[epoch] */\n      0x00\n        /* \"BlockManager.sol\":12095:12100  epoch */\n      dup5\n        /* \"BlockManager.sol\":12080:12101  proposedBlocks[epoch] */\n      dup2\n      mstore\n      0x20\n      add\n      swap1\n      dup2\n      mstore\n      0x20\n      add\n      0x00\n      keccak256\n        /* \"BlockManager.sol\":12080:12108  proposedBlocks[epoch].length */\n      dup1\n      sload\n      swap1\n      pop\n        /* \"BlockManager.sol\":12080:12113  proposedBlocks[epoch].length == 0 */\n      eq\n        /* \"BlockManager.sol\":12076:12200  if (proposedBlocks[epoch].length == 0) {... */\n      iszero\n      tag_566\n      jumpi\n        /* \"BlockManager.sol\":12129:12143  proposedBlocks */\n      0x02\n        /* \"BlockManager.sol\":12129:12150  proposedBlocks[epoch] */\n      0x00\n        /* \"BlockManager.sol\":12144:12149  epoch */\n      dup4\n        /* \"BlockManager.sol\":12129:12150  proposedBlocks[epoch] */\n      dup2\n      mstore\n      0x20\n      add\n      swap1\n      dup2\n      mstore\n      0x20\n      add\n      0x00\n      keccak256\n        /* \"BlockManager.sol\":12156:12162  _block */\n      dup2\n        /* \"BlockManager.sol\":12129:12163  proposedBlocks[epoch].push(_block) */\n      swap1\n      dup1\n      0x01\n      dup2\n      sload\n      add\n      dup1\n      dup3\n      sstore\n      dup1\n      swap2\n      pop\n      pop\n      0x01\n      swap1\n      sub\n      swap1\n      0x00\n      mstore\n      keccak256(0x00, 0x20)\n      swap1\n      0x08\n      mul\n      add\n      0x00\n      swap1\n      swap2\n      swap1\n      swap2\n      swap1\n      swap2\n      pop\n      0x00\n      dup3\n      add\n      mload\n      dup2\n      0x00\n      add\n      sstore\n      0x20\n      dup3\n      add\n      mload\n      dup2\n      0x01\n      add\n      swap1\n      dup1\n      mload\n      swap1\n      0x20\n      add\n      swap1\n      tag_568\n      swap3\n      swap2\n      swap1\n      tag_569\n      jump\t// in\n    tag_568:\n      pop\n      0x40\n      dup3\n      add\n      mload\n      dup2\n      0x02\n      add\n      swap1\n      dup1\n      mload\n      swap1\n      0x20\n      add\n      swap1\n      tag_570\n      swap3\n      swap2\n      swap1\n      tag_569\n      jump\t// in\n    tag_570:\n      pop\n      0x60\n      dup3\n      add\n      mload\n      dup2\n      0x03\n      add\n      swap1\n      dup1\n      mload\n      swap1\n      0x20\n      add\n      swap1\n      tag_571\n      swap3\n      swap2\n      swap1\n      tag_569\n      jump\t// in\n    tag_571:\n      pop\n      0x80\n      dup3\n      add\n      mload\n      dup2\n      0x04\n      add\n      swap1\n      dup1\n      mload\n      swap1\n      0x20\n      add\n      swap1\n      tag_572\n      swap3\n      swap2\n      swap1\n      tag_569\n      jump\t// in\n    tag_572:\n      pop\n      0xa0\n      dup3\n      add\n      mload\n      dup2\n      0x05\n      add\n      sstore\n      0xc0\n      dup3\n      add\n      mload\n      dup2\n      0x06\n      add\n      sstore\n      0xe0\n      dup3\n      add\n      mload\n      dup2\n      0x07\n      add\n      exp(0x0100, 0x00)\n      dup2\n      sload\n      dup2\n      0xff\n      mul\n      not\n      and\n      swap1\n      dup4\n      iszero\n      iszero\n      mul\n      or\n      swap1\n      sstore\n      pop\n      pop\n      pop\n        /* \"BlockManager.sol\":12076:12200  if (proposedBlocks[epoch].length == 0) {... */\n    tag_566:\n        /* \"BlockManager.sol\":12374:12388  uint256 pushAt */\n      0x00\n        /* \"BlockManager.sol\":12391:12405  proposedBlocks */\n      0x02\n        /* \"BlockManager.sol\":12391:12412  proposedBlocks[epoch] */\n      0x00\n        /* \"BlockManager.sol\":12406:12411  epoch */\n      dup5\n        /* \"BlockManager.sol\":12391:12412  proposedBlocks[epoch] */\n      dup2\n      mstore\n      0x20\n      add\n      swap1\n      dup2\n      mstore\n      0x20\n      add\n      0x00\n      keccak256\n        /* \"BlockManager.sol\":12391:12419  proposedBlocks[epoch].length */\n      dup1\n      sload\n      swap1\n      pop\n        /* \"BlockManager.sol\":12374:12419  uint256 pushAt = proposedBlocks[epoch].length */\n      swap1\n      pop\n        /* \"BlockManager.sol\":12434:12443  uint256 i */\n      0x00\n        /* \"BlockManager.sol\":12446:12447  0 */\n      dup1\n        /* \"BlockManager.sol\":12434:12447  uint256 i = 0 */\n      swap1\n      pop\n        /* \"BlockManager.sol\":12429:12781  for (uint256 i = 0; i < proposedBlocks[epoch].length; i++) {... */\n    tag_573:\n        /* \"BlockManager.sol\":12453:12467  proposedBlocks */\n      0x02\n        /* \"BlockManager.sol\":12453:12474  proposedBlocks[epoch] */\n      0x00\n        /* \"BlockManager.sol\":12468:12473  epoch */\n      dup6\n        /* \"BlockManager.sol\":12453:12474  proposedBlocks[epoch] */\n      dup2\n      mstore\n      0x20\n      add\n      swap1\n      dup2\n      mstore\n      0x20\n      add\n      0x00\n      keccak256\n        /* \"BlockManager.sol\":12453:12481  proposedBlocks[epoch].length */\n      dup1\n      sload\n      swap1\n      pop\n        /* \"BlockManager.sol\":12449:12450  i */\n      dup2\n        /* \"BlockManager.sol\":12449:12481  i < proposedBlocks[epoch].length */\n      lt\n        /* \"BlockManager.sol\":12429:12781  for (uint256 i = 0; i < proposedBlocks[epoch].length; i++) {... */\n      iszero\n      tag_574\n      jumpi\n        /* \"BlockManager.sol\":12546:12552  _block */\n      dup3\n        /* \"BlockManager.sol\":12546:12565  _block.biggestStake */\n      0xc0\n      add\n      mload\n        /* \"BlockManager.sol\":12506:12520  proposedBlocks */\n      0x02\n        /* \"BlockManager.sol\":12506:12527  proposedBlocks[epoch] */\n      0x00\n        /* \"BlockManager.sol\":12521:12526  epoch */\n      dup7\n        /* \"BlockManager.sol\":12506:12527  proposedBlocks[epoch] */\n      dup2\n      mstore\n      0x20\n      add\n      swap1\n      dup2\n      mstore\n      0x20\n      add\n      0x00\n      keccak256\n        /* \"BlockManager.sol\":12528:12529  i */\n      dup3\n        /* \"BlockManager.sol\":12506:12530  proposedBlocks[epoch][i] */\n      dup2\n      sload\n      dup2\n      lt\n      tag_576\n      jumpi\n      invalid\n    tag_576:\n      swap1\n      0x00\n      mstore\n      keccak256(0x00, 0x20)\n      swap1\n      0x08\n      mul\n      add\n        /* \"BlockManager.sol\":12506:12543  proposedBlocks[epoch][i].biggestStake */\n      0x06\n      add\n      sload\n        /* \"BlockManager.sol\":12506:12565  proposedBlocks[epoch][i].biggestStake < _block.biggestStake */\n      lt\n        /* \"BlockManager.sol\":12502:12633  if (proposedBlocks[epoch][i].biggestStake < _block.biggestStake) {... */\n      iszero\n      tag_578\n      jumpi\n        /* \"BlockManager.sol\":12594:12595  i */\n      dup1\n        /* \"BlockManager.sol\":12585:12595  pushAt = i */\n      swap2\n      pop\n        /* \"BlockManager.sol\":12613:12618  break */\n      jump(tag_574)\n        /* \"BlockManager.sol\":12502:12633  if (proposedBlocks[epoch][i].biggestStake < _block.biggestStake) {... */\n    tag_578:\n        /* \"BlockManager.sol\":12687:12693  _block */\n      dup3\n        /* \"BlockManager.sol\":12687:12703  _block.iteration */\n      0xa0\n      add\n      mload\n        /* \"BlockManager.sol\":12650:12664  proposedBlocks */\n      0x02\n        /* \"BlockManager.sol\":12650:12671  proposedBlocks[epoch] */\n      0x00\n        /* \"BlockManager.sol\":12665:12670  epoch */\n      dup7\n        /* \"BlockManager.sol\":12650:12671  proposedBlocks[epoch] */\n      dup2\n      mstore\n      0x20\n      add\n      swap1\n      dup2\n      mstore\n      0x20\n      add\n      0x00\n      keccak256\n        /* \"BlockManager.sol\":12672:12673  i */\n      dup3\n        /* \"BlockManager.sol\":12650:12674  proposedBlocks[epoch][i] */\n      dup2\n      sload\n      dup2\n      lt\n      tag_579\n      jumpi\n      invalid\n    tag_579:\n      swap1\n      0x00\n      mstore\n      keccak256(0x00, 0x20)\n      swap1\n      0x08\n      mul\n      add\n        /* \"BlockManager.sol\":12650:12684  proposedBlocks[epoch][i].iteration */\n      0x05\n      add\n      sload\n        /* \"BlockManager.sol\":12650:12703  proposedBlocks[epoch][i].iteration > _block.iteration */\n      gt\n        /* \"BlockManager.sol\":12646:12771  if (proposedBlocks[epoch][i].iteration > _block.iteration) {... */\n      iszero\n      tag_581\n      jumpi\n        /* \"BlockManager.sol\":12732:12733  i */\n      dup1\n        /* \"BlockManager.sol\":12723:12733  pushAt = i */\n      swap2\n      pop\n        /* \"BlockManager.sol\":12751:12756  break */\n      jump(tag_574)\n        /* \"BlockManager.sol\":12646:12771  if (proposedBlocks[epoch][i].iteration > _block.iteration) {... */\n    tag_581:\n        /* \"BlockManager.sol\":12483:12486  i++ */\n      dup1\n      dup1\n      0x01\n      add\n      swap2\n      pop\n      pop\n        /* \"BlockManager.sol\":12429:12781  for (uint256 i = 0; i < proposedBlocks[epoch].length; i++) {... */\n      jump(tag_573)\n    tag_574:\n      pop\n        /* \"BlockManager.sol\":12791:12805  proposedBlocks */\n      0x02\n        /* \"BlockManager.sol\":12791:12812  proposedBlocks[epoch] */\n      0x00\n        /* \"BlockManager.sol\":12806:12811  epoch */\n      dup5\n        /* \"BlockManager.sol\":12791:12812  proposedBlocks[epoch] */\n      dup2\n      mstore\n      0x20\n      add\n      swap1\n      dup2\n      mstore\n      0x20\n      add\n      0x00\n      keccak256\n        /* \"BlockManager.sol\":12818:12824  _block */\n      dup3\n        /* \"BlockManager.sol\":12791:12825  proposedBlocks[epoch].push(_block) */\n      swap1\n      dup1\n      0x01\n      dup2\n      sload\n      add\n      dup1\n      dup3\n      sstore\n      dup1\n      swap2\n      pop\n      pop\n      0x01\n      swap1\n      sub\n      swap1\n      0x00\n      mstore\n      keccak256(0x00, 0x20)\n      swap1\n      0x08\n      mul\n      add\n      0x00\n      swap1\n      swap2\n      swap1\n      swap2\n      swap1\n      swap2\n      pop\n      0x00\n      dup3\n      add\n      mload\n      dup2\n      0x00\n      add\n      sstore\n      0x20\n      dup3\n      add\n      mload\n      dup2\n      0x01\n      add\n      swap1\n      dup1\n      mload\n      swap1\n      0x20\n      add\n      swap1\n      tag_583\n      swap3\n      swap2\n      swap1\n      tag_569\n      jump\t// in\n    tag_583:\n      pop\n      0x40\n      dup3\n      add\n      mload\n      dup2\n      0x02\n      add\n      swap1\n      dup1\n      mload\n      swap1\n      0x20\n      add\n      swap1\n      tag_584\n      swap3\n      swap2\n      swap1\n      tag_569\n      jump\t// in\n    tag_584:\n      pop\n      0x60\n      dup3\n      add\n      mload\n      dup2\n      0x03\n      add\n      swap1\n      dup1\n      mload\n      swap1\n      0x20\n      add\n      swap1\n      tag_585\n      swap3\n      swap2\n      swap1\n      tag_569\n      jump\t// in\n    tag_585:\n      pop\n      0x80\n      dup3\n      add\n      mload\n      dup2\n      0x04\n      add\n      swap1\n      dup1\n      mload\n      swap1\n      0x20\n      add\n      swap1\n      tag_586\n      swap3\n      swap2\n      swap1\n      tag_569\n      jump\t// in\n    tag_586:\n      pop\n      0xa0\n      dup3\n      add\n      mload\n      dup2\n      0x05\n      add\n      sstore\n      0xc0\n      dup3\n      add\n      mload\n      dup2\n      0x06\n      add\n      sstore\n      0xe0\n      dup3\n      add\n      mload\n      dup2\n      0x07\n      add\n      exp(0x0100, 0x00)\n      dup2\n      sload\n      dup2\n      0xff\n      mul\n      not\n      and\n      swap1\n      dup4\n      iszero\n      iszero\n      mul\n      or\n      swap1\n      sstore\n      pop\n      pop\n      pop\n        /* \"BlockManager.sol\":12840:12849  uint256 j */\n      0x00\n        /* \"BlockManager.sol\":12883:12884  1 */\n      0x01\n        /* \"BlockManager.sol\":12852:12866  proposedBlocks */\n      0x02\n        /* \"BlockManager.sol\":12852:12873  proposedBlocks[epoch] */\n      0x00\n        /* \"BlockManager.sol\":12867:12872  epoch */\n      dup7\n        /* \"BlockManager.sol\":12852:12873  proposedBlocks[epoch] */\n      dup2\n      mstore\n      0x20\n      add\n      swap1\n      dup2\n      mstore\n      0x20\n      add\n      0x00\n      keccak256\n        /* \"BlockManager.sol\":12852:12880  proposedBlocks[epoch].length */\n      dup1\n      sload\n      swap1\n      pop\n        /* \"BlockManager.sol\":12852:12884  proposedBlocks[epoch].length - 1 */\n      sub\n        /* \"BlockManager.sol\":12840:12884  uint256 j = proposedBlocks[epoch].length - 1 */\n      swap1\n      pop\n        /* \"BlockManager.sol\":12835:12985  for (uint256 j = proposedBlocks[epoch].length - 1; j > (pushAt); j--) {... */\n    tag_587:\n        /* \"BlockManager.sol\":12891:12897  pushAt */\n      dup2\n        /* \"BlockManager.sol\":12886:12887  j */\n      dup2\n        /* \"BlockManager.sol\":12886:12898  j > (pushAt) */\n      gt\n        /* \"BlockManager.sol\":12835:12985  for (uint256 j = proposedBlocks[epoch].length - 1; j > (pushAt); j--) {... */\n      iszero\n      tag_588\n      jumpi\n        /* \"BlockManager.sol\":12946:12960  proposedBlocks */\n      0x02\n        /* \"BlockManager.sol\":12946:12967  proposedBlocks[epoch] */\n      0x00\n        /* \"BlockManager.sol\":12961:12966  epoch */\n      dup6\n        /* \"BlockManager.sol\":12946:12967  proposedBlocks[epoch] */\n      dup2\n      mstore\n      0x20\n      add\n      swap1\n      dup2\n      mstore\n      0x20\n      add\n      0x00\n      keccak256\n        /* \"BlockManager.sol\":12972:12973  1 */\n      0x01\n        /* \"BlockManager.sol\":12968:12969  j */\n      dup3\n        /* \"BlockManager.sol\":12968:12973  j - 1 */\n      sub\n        /* \"BlockManager.sol\":12946:12974  proposedBlocks[epoch][j - 1] */\n      dup2\n      sload\n      dup2\n      lt\n      tag_590\n      jumpi\n      invalid\n    tag_590:\n      swap1\n      0x00\n      mstore\n      keccak256(0x00, 0x20)\n      swap1\n      0x08\n      mul\n      add\n        /* \"BlockManager.sol\":12919:12933  proposedBlocks */\n      0x02\n        /* \"BlockManager.sol\":12919:12940  proposedBlocks[epoch] */\n      0x00\n        /* \"BlockManager.sol\":12934:12939  epoch */\n      dup7\n        /* \"BlockManager.sol\":12919:12940  proposedBlocks[epoch] */\n      dup2\n      mstore\n      0x20\n      add\n      swap1\n      dup2\n      mstore\n      0x20\n      add\n      0x00\n      keccak256\n        /* \"BlockManager.sol\":12941:12942  j */\n      dup3\n        /* \"BlockManager.sol\":12919:12943  proposedBlocks[epoch][j] */\n      dup2\n      sload\n      dup2\n      lt\n      tag_592\n      jumpi\n      invalid\n    tag_592:\n      swap1\n      0x00\n      mstore\n      keccak256(0x00, 0x20)\n      swap1\n      0x08\n      mul\n      add\n        /* \"BlockManager.sol\":12919:12974  proposedBlocks[epoch][j] = proposedBlocks[epoch][j - 1] */\n      0x00\n      dup3\n      add\n      sload\n      dup2\n      0x00\n      add\n      sstore\n      0x01\n      dup3\n      add\n      dup2\n      0x01\n      add\n      swap1\n      dup1\n      sload\n      tag_594\n      swap3\n      swap2\n      swap1\n      tag_481\n      jump\t// in\n    tag_594:\n      pop\n      0x02\n      dup3\n      add\n      dup2\n      0x02\n      add\n      swap1\n      dup1\n      sload\n      tag_595\n      swap3\n      swap2\n      swap1\n      tag_481\n      jump\t// in\n    tag_595:\n      pop\n      0x03\n      dup3\n      add\n      dup2\n      0x03\n      add\n      swap1\n      dup1\n      sload\n      tag_596\n      swap3\n      swap2\n      swap1\n      tag_481\n      jump\t// in\n    tag_596:\n      pop\n      0x04\n      dup3\n      add\n      dup2\n      0x04\n      add\n      swap1\n      dup1\n      sload\n      tag_597\n      swap3\n      swap2\n      swap1\n      tag_481\n      jump\t// in\n    tag_597:\n      pop\n      0x05\n      dup3\n      add\n      sload\n      dup2\n      0x05\n      add\n      sstore\n      0x06\n      dup3\n      add\n      sload\n      dup2\n      0x06\n      add\n      sstore\n      0x07\n      dup3\n      add\n      0x00\n      swap1\n      sload\n      swap1\n      0x0100\n      exp\n      swap1\n      div\n      0xff\n      and\n      dup2\n      0x07\n      add\n      exp(0x0100, 0x00)\n      dup2\n      sload\n      dup2\n      0xff\n      mul\n      not\n      and\n      swap1\n      dup4\n      iszero\n      iszero\n      mul\n      or\n      swap1\n      sstore\n      pop\n      swap1\n      pop\n      pop\n        /* \"BlockManager.sol\":12900:12903  j-- */\n      dup1\n      dup1\n      0x01\n      swap1\n      sub\n      swap2\n      pop\n      pop\n        /* \"BlockManager.sol\":12835:12985  for (uint256 j = proposedBlocks[epoch].length - 1; j > (pushAt); j--) {... */\n      jump(tag_587)\n    tag_588:\n      pop\n        /* \"BlockManager.sol\":13083:13089  _block */\n      dup2\n        /* \"BlockManager.sol\":13051:13065  proposedBlocks */\n      0x02\n        /* \"BlockManager.sol\":13051:13072  proposedBlocks[epoch] */\n      0x00\n        /* \"BlockManager.sol\":13066:13071  epoch */\n      dup6\n        /* \"BlockManager.sol\":13051:13072  proposedBlocks[epoch] */\n      dup2\n      mstore\n      0x20\n      add\n      swap1\n      dup2\n      mstore\n      0x20\n      add\n      0x00\n      keccak256\n        /* \"BlockManager.sol\":13073:13079  pushAt */\n      dup3\n        /* \"BlockManager.sol\":13051:13080  proposedBlocks[epoch][pushAt] */\n      dup2\n      sload\n      dup2\n      lt\n      tag_598\n      jumpi\n      invalid\n    tag_598:\n      swap1\n      0x00\n      mstore\n      keccak256(0x00, 0x20)\n      swap1\n      0x08\n      mul\n      add\n        /* \"BlockManager.sol\":13051:13089  proposedBlocks[epoch][pushAt] = _block */\n      0x00\n      dup3\n      add\n      mload\n      dup2\n      0x00\n      add\n      sstore\n      0x20\n      dup3\n      add\n      mload\n      dup2\n      0x01\n      add\n      swap1\n      dup1\n      mload\n      swap1\n      0x20\n      add\n      swap1\n      tag_600\n      swap3\n      swap2\n      swap1\n      tag_569\n      jump\t// in\n    tag_600:\n      pop\n      0x40\n      dup3\n      add\n      mload\n      dup2\n      0x02\n      add\n      swap1\n      dup1\n      mload\n      swap1\n      0x20\n      add\n      swap1\n      tag_601\n      swap3\n      swap2\n      swap1\n      tag_569\n      jump\t// in\n    tag_601:\n      pop\n      0x60\n      dup3\n      add\n      mload\n      dup2\n      0x03\n      add\n      swap1\n      dup1\n      mload\n      swap1\n      0x20\n      add\n      swap1\n      tag_602\n      swap3\n      swap2\n      swap1\n      tag_569\n      jump\t// in\n    tag_602:\n      pop\n      0x80\n      dup3\n      add\n      mload\n      dup2\n      0x04\n      add\n      swap1\n      dup1\n      mload\n      swap1\n      0x20\n      add\n      swap1\n      tag_603\n      swap3\n      swap2\n      swap1\n      tag_569\n      jump\t// in\n    tag_603:\n      pop\n      0xa0\n      dup3\n      add\n      mload\n      dup2\n      0x05\n      add\n      sstore\n      0xc0\n      dup3\n      add\n      mload\n      dup2\n      0x06\n      add\n      sstore\n      0xe0\n      dup3\n      add\n      mload\n      dup2\n      0x07\n      add\n      exp(0x0100, 0x00)\n      dup2\n      sload\n      dup2\n      0xff\n      mul\n      not\n      and\n      swap1\n      dup4\n      iszero\n      iszero\n      mul\n      or\n      swap1\n      sstore\n      pop\n      swap1\n      pop\n      pop\n        /* \"BlockManager.sol\":13287:13296  Constants */\n      linkerSymbol(\"e861534859442f2de25279a5ccd1626413b62699ca8b37407da3a6bf3bbbfee5\")\n        /* \"BlockManager.sol\":13287:13309  Constants.maxAltBlocks */\n      0x379597e0\n        /* \"BlockManager.sol\":13287:13311  Constants.maxAltBlocks() */\n      mload(0x40)\n      dup2\n      0xffffffff\n      and\n      0xe0\n      shl\n      dup2\n      mstore\n      0x04\n      add\n      0x20\n      mload(0x40)\n      dup1\n      dup4\n      sub\n      dup2\n      dup7\n      dup1\n      extcodesize\n      iszero\n      dup1\n      iszero\n      tag_604\n      jumpi\n      0x00\n      dup1\n      revert\n    tag_604:\n      pop\n      gas\n      delegatecall\n      iszero\n      dup1\n      iszero\n      tag_606\n      jumpi\n      returndatasize\n      0x00\n      dup1\n      returndatacopy\n      revert(0x00, returndatasize)\n    tag_606:\n      pop\n      pop\n      pop\n      pop\n      mload(0x40)\n      returndatasize\n      not(0x1f)\n      0x1f\n      dup3\n      add\n      and\n      dup3\n      add\n      dup1\n      0x40\n      mstore\n      pop\n      dup2\n      add\n      swap1\n      tag_607\n      swap2\n      swap1\n      tag_194\n      jump\t// in\n    tag_607:\n        /* \"BlockManager.sol\":13256:13270  proposedBlocks */\n      0x02\n        /* \"BlockManager.sol\":13256:13277  proposedBlocks[epoch] */\n      0x00\n        /* \"BlockManager.sol\":13271:13276  epoch */\n      dup6\n        /* \"BlockManager.sol\":13256:13277  proposedBlocks[epoch] */\n      dup2\n      mstore\n      0x20\n      add\n      swap1\n      dup2\n      mstore\n      0x20\n      add\n      0x00\n      keccak256\n        /* \"BlockManager.sol\":13256:13284  proposedBlocks[epoch].length */\n      dup1\n      sload\n      swap1\n      pop\n        /* \"BlockManager.sol\":13256:13311  proposedBlocks[epoch].length > Constants.maxAltBlocks() */\n      gt\n        /* \"BlockManager.sol\":13252:13402  if (proposedBlocks[epoch].length > Constants.maxAltBlocks()) {... */\n      iszero\n      tag_608\n      jumpi\n        /* \"BlockManager.sol\":13335:13349  proposedBlocks */\n      0x02\n        /* \"BlockManager.sol\":13335:13356  proposedBlocks[epoch] */\n      0x00\n        /* \"BlockManager.sol\":13350:13355  epoch */\n      dup5\n        /* \"BlockManager.sol\":13335:13356  proposedBlocks[epoch] */\n      dup2\n      mstore\n      0x20\n      add\n      swap1\n      dup2\n      mstore\n      0x20\n      add\n      0x00\n      keccak256\n        /* \"BlockManager.sol\":13388:13389  1 */\n      0x01\n        /* \"BlockManager.sol\":13357:13371  proposedBlocks */\n      0x02\n        /* \"BlockManager.sol\":13357:13378  proposedBlocks[epoch] */\n      0x00\n        /* \"BlockManager.sol\":13372:13377  epoch */\n      dup7\n        /* \"BlockManager.sol\":13357:13378  proposedBlocks[epoch] */\n      dup2\n      mstore\n      0x20\n      add\n      swap1\n      dup2\n      mstore\n      0x20\n      add\n      0x00\n      keccak256\n        /* \"BlockManager.sol\":13357:13385  proposedBlocks[epoch].length */\n      dup1\n      sload\n      swap1\n      pop\n        /* \"BlockManager.sol\":13357:13389  proposedBlocks[epoch].length - 1 */\n      sub\n        /* \"BlockManager.sol\":13335:13390  proposedBlocks[epoch][proposedBlocks[epoch].length - 1] */\n      dup2\n      sload\n      dup2\n      lt\n      tag_609\n      jumpi\n      invalid\n    tag_609:\n      swap1\n      0x00\n      mstore\n      keccak256(0x00, 0x20)\n      swap1\n      0x08\n      mul\n      add\n      0x00\n        /* \"BlockManager.sol\":13327:13391  delete (proposedBlocks[epoch][proposedBlocks[epoch].length - 1]) */\n      dup1\n      dup3\n      add\n      0x00\n      swap1\n      sstore\n      0x01\n      dup3\n      add\n      0x00\n      tag_611\n      swap2\n      swap1\n      tag_612\n      jump\t// in\n    tag_611:\n      0x02\n      dup3\n      add\n      0x00\n      tag_613\n      swap2\n      swap1\n      tag_612\n      jump\t// in\n    tag_613:\n      0x03\n      dup3\n      add\n      0x00\n      tag_614\n      swap2\n      swap1\n      tag_612\n      jump\t// in\n    tag_614:\n      0x04\n      dup3\n      add\n      0x00\n      tag_615\n      swap2\n      swap1\n      tag_612\n      jump\t// in\n    tag_615:\n      0x05\n      dup3\n      add\n      0x00\n      swap1\n      sstore\n      0x06\n      dup3\n      add\n      0x00\n      swap1\n      sstore\n      0x07\n      dup3\n      add\n      exp(0x0100, 0x00)\n      dup2\n      sload\n      swap1\n      0xff\n      mul\n      not\n      and\n      swap1\n      sstore\n      pop\n      pop\n        /* \"BlockManager.sol\":13252:13402  if (proposedBlocks[epoch].length > Constants.maxAltBlocks()) {... */\n    tag_608:\n        /* \"BlockManager.sol\":11935:13435  function _insertAppropriately(uint256 epoch, Structs.Block memory _block) internal {... */\n      pop\n      pop\n      pop\n      jump\t// out\n        /* \"openzeppelin-solidity/contracts/math/SafeMath.sol\":874:1050   */\n    tag_257:\n        /* \"openzeppelin-solidity/contracts/math/SafeMath.sol\":932:939   */\n      0x00\n        /* \"openzeppelin-solidity/contracts/math/SafeMath.sol\":951:960   */\n      dup1\n        /* \"openzeppelin-solidity/contracts/math/SafeMath.sol\":967:968   */\n      dup3\n        /* \"openzeppelin-solidity/contracts/math/SafeMath.sol\":963:964   */\n      dup5\n        /* \"openzeppelin-solidity/contracts/math/SafeMath.sol\":963:968   */\n      add\n        /* \"openzeppelin-solidity/contracts/math/SafeMath.sol\":951:968   */\n      swap1\n      pop\n        /* \"openzeppelin-solidity/contracts/math/SafeMath.sol\":991:992   */\n      dup4\n        /* \"openzeppelin-solidity/contracts/math/SafeMath.sol\":986:987   */\n      dup2\n        /* \"openzeppelin-solidity/contracts/math/SafeMath.sol\":986:992   */\n      lt\n      iszero\n        /* \"openzeppelin-solidity/contracts/math/SafeMath.sol\":978:1024   */\n      tag_617\n      jumpi\n      mload(0x40)\n      0x08c379a000000000000000000000000000000000000000000000000000000000\n      dup2\n      mstore\n      0x04\n      add\n      tag_618\n      swap1\n      tag_619\n      jump\t// in\n    tag_618:\n      mload(0x40)\n      dup1\n      swap2\n      sub\n      swap1\n      revert\n    tag_617:\n        /* \"openzeppelin-solidity/contracts/math/SafeMath.sol\":1042:1043   */\n      dup1\n        /* \"openzeppelin-solidity/contracts/math/SafeMath.sol\":1035:1043   */\n      swap2\n      pop\n      pop\n        /* \"openzeppelin-solidity/contracts/math/SafeMath.sol\":874:1050   */\n      swap3\n      swap2\n      pop\n      pop\n      jump\t// out\n        /* \"openzeppelin-solidity/contracts/math/SafeMath.sol\":4436:4564   */\n    tag_269:\n        /* \"openzeppelin-solidity/contracts/math/SafeMath.sol\":4494:4501   */\n      0x00\n        /* \"openzeppelin-solidity/contracts/math/SafeMath.sol\":4520:4557   */\n      tag_621\n        /* \"openzeppelin-solidity/contracts/math/SafeMath.sol\":4524:4525   */\n      dup4\n        /* \"openzeppelin-solidity/contracts/math/SafeMath.sol\":4527:4528   */\n      dup4\n        /* \"openzeppelin-solidity/contracts/math/SafeMath.sol\":4520:4557   */\n      mload(0x40)\n      dup1\n      0x40\n      add\n      0x40\n      mstore\n      dup1\n      0x18\n      dup2\n      mstore\n      0x20\n      add\n      0x536166654d6174683a206d6f64756c6f206279207a65726f0000000000000000\n      dup2\n      mstore\n      pop\n        /* \"openzeppelin-solidity/contracts/math/SafeMath.sol\":4520:4523   */\n      tag_622\n        /* \"openzeppelin-solidity/contracts/math/SafeMath.sol\":4520:4557   */\n      jump\t// in\n    tag_621:\n        /* \"openzeppelin-solidity/contracts/math/SafeMath.sol\":4513:4557   */\n      swap1\n      pop\n        /* \"openzeppelin-solidity/contracts/math/SafeMath.sol\":4436:4564   */\n      swap3\n      swap2\n      pop\n      pop\n      jump\t// out\n        /* \"openzeppelin-solidity/contracts/math/SafeMath.sol\":2180:2639   */\n    tag_281:\n        /* \"openzeppelin-solidity/contracts/math/SafeMath.sol\":2238:2245   */\n      0x00\n        /* \"openzeppelin-solidity/contracts/math/SafeMath.sol\":2484:2485   */\n      dup1\n        /* \"openzeppelin-solidity/contracts/math/SafeMath.sol\":2479:2480   */\n      dup4\n        /* \"openzeppelin-solidity/contracts/math/SafeMath.sol\":2479:2485   */\n      eq\n        /* \"openzeppelin-solidity/contracts/math/SafeMath.sol\":2475:2520   */\n      iszero\n      tag_624\n      jumpi\n        /* \"openzeppelin-solidity/contracts/math/SafeMath.sol\":2508:2509   */\n      0x00\n        /* \"openzeppelin-solidity/contracts/math/SafeMath.sol\":2501:2509   */\n      swap1\n      pop\n      jump(tag_623)\n        /* \"openzeppelin-solidity/contracts/math/SafeMath.sol\":2475:2520   */\n    tag_624:\n        /* \"openzeppelin-solidity/contracts/math/SafeMath.sol\":2530:2539   */\n      0x00\n        /* \"openzeppelin-solidity/contracts/math/SafeMath.sol\":2546:2547   */\n      dup3\n        /* \"openzeppelin-solidity/contracts/math/SafeMath.sol\":2542:2543   */\n      dup5\n        /* \"openzeppelin-solidity/contracts/math/SafeMath.sol\":2542:2547   */\n      mul\n        /* \"openzeppelin-solidity/contracts/math/SafeMath.sol\":2530:2547   */\n      swap1\n      pop\n        /* \"openzeppelin-solidity/contracts/math/SafeMath.sol\":2574:2575   */\n      dup3\n        /* \"openzeppelin-solidity/contracts/math/SafeMath.sol\":2569:2570   */\n      dup5\n        /* \"openzeppelin-solidity/contracts/math/SafeMath.sol\":2565:2566   */\n      dup3\n        /* \"openzeppelin-solidity/contracts/math/SafeMath.sol\":2565:2570   */\n      dup2\n      tag_625\n      jumpi\n      invalid\n    tag_625:\n      div\n        /* \"openzeppelin-solidity/contracts/math/SafeMath.sol\":2565:2575   */\n      eq\n        /* \"openzeppelin-solidity/contracts/math/SafeMath.sol\":2557:2613   */\n      tag_626\n      jumpi\n      mload(0x40)\n      0x08c379a000000000000000000000000000000000000000000000000000000000\n      dup2\n      mstore\n      0x04\n      add\n      tag_627\n      swap1\n      tag_628\n      jump\t// in\n    tag_627:\n      mload(0x40)\n      dup1\n      swap2\n      sub\n      swap1\n      revert\n    tag_626:\n        /* \"openzeppelin-solidity/contracts/math/SafeMath.sol\":2631:2632   */\n      dup1\n        /* \"openzeppelin-solidity/contracts/math/SafeMath.sol\":2624:2632   */\n      swap2\n      pop\n      pop\n        /* \"openzeppelin-solidity/contracts/math/SafeMath.sol\":2180:2639   */\n    tag_623:\n      swap3\n      swap2\n      pop\n      pop\n      jump\t// out\n        /* \"openzeppelin-solidity/contracts/GSN/Context.sol\":590:694   */\n    tag_292:\n        /* \"openzeppelin-solidity/contracts/GSN/Context.sol\":643:658   */\n      0x00\n        /* \"openzeppelin-solidity/contracts/GSN/Context.sol\":677:687   */\n      caller\n        /* \"openzeppelin-solidity/contracts/GSN/Context.sol\":670:687   */\n      swap1\n      pop\n        /* \"openzeppelin-solidity/contracts/GSN/Context.sol\":590:694   */\n      swap1\n      jump\t// out\n        /* \"openzeppelin-solidity/contracts/access/AccessControl.sol\":7015:7199   */\n    tag_297:\n        /* \"openzeppelin-solidity/contracts/access/AccessControl.sol\":7088:7121   */\n      tag_631\n        /* \"openzeppelin-solidity/contracts/access/AccessControl.sol\":7113:7120   */\n      dup2\n        /* \"openzeppelin-solidity/contracts/access/AccessControl.sol\":7088:7094   */\n      0x00\n        /* \"openzeppelin-solidity/contracts/access/AccessControl.sol\":7088:7100   */\n      dup1\n        /* \"openzeppelin-solidity/contracts/access/AccessControl.sol\":7095:7099   */\n      dup6\n        /* \"openzeppelin-solidity/contracts/access/AccessControl.sol\":7088:7100   */\n      dup2\n      mstore\n      0x20\n      add\n      swap1\n      dup2\n      mstore\n      0x20\n      add\n      0x00\n      keccak256\n        /* \"openzeppelin-solidity/contracts/access/AccessControl.sol\":7088:7108   */\n      0x00\n      add\n        /* \"openzeppelin-solidity/contracts/access/AccessControl.sol\":7088:7112   */\n      tag_176\n      swap1\n        /* \"openzeppelin-solidity/contracts/access/AccessControl.sol\":7088:7121   */\n      swap2\n      swap1\n      0xffffffff\n      and\n      jump\t// in\n    tag_631:\n        /* \"openzeppelin-solidity/contracts/access/AccessControl.sol\":7084:7193   */\n      iszero\n      tag_632\n      jumpi\n        /* \"openzeppelin-solidity/contracts/access/AccessControl.sol\":7169:7181   */\n      tag_633\n        /* \"openzeppelin-solidity/contracts/access/AccessControl.sol\":7169:7179   */\n      tag_292\n        /* \"openzeppelin-solidity/contracts/access/AccessControl.sol\":7169:7181   */\n      jump\t// in\n    tag_633:\n        /* \"openzeppelin-solidity/contracts/access/AccessControl.sol\":7142:7182   */\n      0xffffffffffffffffffffffffffffffffffffffff\n      and\n        /* \"openzeppelin-solidity/contracts/access/AccessControl.sol\":7160:7167   */\n      dup2\n        /* \"openzeppelin-solidity/contracts/access/AccessControl.sol\":7142:7182   */\n      0xffffffffffffffffffffffffffffffffffffffff\n      and\n        /* \"openzeppelin-solidity/contracts/access/AccessControl.sol\":7154:7158   */\n      dup4\n        /* \"openzeppelin-solidity/contracts/access/AccessControl.sol\":7142:7182   */\n      0x2f8788117e7eff1d82e926ec794901d17c78024a50270940304540a733656f0d\n      mload(0x40)\n      mload(0x40)\n      dup1\n      swap2\n      sub\n      swap1\n      log4\n        /* \"openzeppelin-solidity/contracts/access/AccessControl.sol\":7084:7193   */\n    tag_632:\n        /* \"openzeppelin-solidity/contracts/access/AccessControl.sol\":7015:7199   */\n      pop\n      pop\n      jump\t// out\n        /* \"openzeppelin-solidity/contracts/access/AccessControl.sol\":7205:7393   */\n    tag_304:\n        /* \"openzeppelin-solidity/contracts/access/AccessControl.sol\":7279:7315   */\n      tag_635\n        /* \"openzeppelin-solidity/contracts/access/AccessControl.sol\":7307:7314   */\n      dup2\n        /* \"openzeppelin-solidity/contracts/access/AccessControl.sol\":7279:7285   */\n      0x00\n        /* \"openzeppelin-solidity/contracts/access/AccessControl.sol\":7279:7291   */\n      dup1\n        /* \"openzeppelin-solidity/contracts/access/AccessControl.sol\":7286:7290   */\n      dup6\n        /* \"openzeppelin-solidity/contracts/access/AccessControl.sol\":7279:7291   */\n      dup2\n      mstore\n      0x20\n      add\n      swap1\n      dup2\n      mstore\n      0x20\n      add\n      0x00\n      keccak256\n        /* \"openzeppelin-solidity/contracts/access/AccessControl.sol\":7279:7299   */\n      0x00\n      add\n        /* \"openzeppelin-solidity/contracts/access/AccessControl.sol\":7279:7306   */\n      tag_636\n      swap1\n        /* \"openzeppelin-solidity/contracts/access/AccessControl.sol\":7279:7315   */\n      swap2\n      swap1\n      0xffffffff\n      and\n      jump\t// in\n    tag_635:\n        /* \"openzeppelin-solidity/contracts/access/AccessControl.sol\":7275:7387   */\n      iszero\n      tag_637\n      jumpi\n        /* \"openzeppelin-solidity/contracts/access/AccessControl.sol\":7363:7375   */\n      tag_638\n        /* \"openzeppelin-solidity/contracts/access/AccessControl.sol\":7363:7373   */\n      tag_292\n        /* \"openzeppelin-solidity/contracts/access/AccessControl.sol\":7363:7375   */\n      jump\t// in\n    tag_638:\n        /* \"openzeppelin-solidity/contracts/access/AccessControl.sol\":7336:7376   */\n      0xffffffffffffffffffffffffffffffffffffffff\n      and\n        /* \"openzeppelin-solidity/contracts/access/AccessControl.sol\":7354:7361   */\n      dup2\n        /* \"openzeppelin-solidity/contracts/access/AccessControl.sol\":7336:7376   */\n      0xffffffffffffffffffffffffffffffffffffffff\n      and\n        /* \"openzeppelin-solidity/contracts/access/AccessControl.sol\":7348:7352   */\n      dup4\n        /* \"openzeppelin-solidity/contracts/access/AccessControl.sol\":7336:7376   */\n      0xf6391f5c32d9c69d2a47ea670b442974b53935d1edc7fd64eb21e047a839171b\n      mload(0x40)\n      mload(0x40)\n      dup1\n      swap2\n      sub\n      swap1\n      log4\n        /* \"openzeppelin-solidity/contracts/access/AccessControl.sol\":7275:7387   */\n    tag_637:\n        /* \"openzeppelin-solidity/contracts/access/AccessControl.sol\":7205:7393   */\n      pop\n      pop\n      jump\t// out\n        /* \"openzeppelin-solidity/contracts/math/SafeMath.sol\":3101:3231   */\n    tag_388:\n        /* \"openzeppelin-solidity/contracts/math/SafeMath.sol\":3159:3166   */\n      0x00\n        /* \"openzeppelin-solidity/contracts/math/SafeMath.sol\":3185:3224   */\n      tag_640\n        /* \"openzeppelin-solidity/contracts/math/SafeMath.sol\":3189:3190   */\n      dup4\n        /* \"openzeppelin-solidity/contracts/math/SafeMath.sol\":3192:3193   */\n      dup4\n        /* \"openzeppelin-solidity/contracts/math/SafeMath.sol\":3185:3224   */\n      mload(0x40)\n      dup1\n      0x40\n      add\n      0x40\n      mstore\n      dup1\n      0x1a\n      dup2\n      mstore\n      0x20\n      add\n      0x536166654d6174683a206469766973696f6e206279207a65726f000000000000\n      dup2\n      mstore\n      pop\n        /* \"openzeppelin-solidity/contracts/math/SafeMath.sol\":3185:3188   */\n      tag_641\n        /* \"openzeppelin-solidity/contracts/math/SafeMath.sol\":3185:3224   */\n      jump\t// in\n    tag_640:\n        /* \"openzeppelin-solidity/contracts/math/SafeMath.sol\":3178:3224   */\n      swap1\n      pop\n        /* \"openzeppelin-solidity/contracts/math/SafeMath.sol\":3101:3231   */\n      swap3\n      swap2\n      pop\n      pop\n      jump\t// out\n        /* \"openzeppelin-solidity/contracts/utils/EnumerableSet.sol\":6085:6232   */\n    tag_454:\n        /* \"openzeppelin-solidity/contracts/utils/EnumerableSet.sol\":6159:6166   */\n      0x00\n        /* \"openzeppelin-solidity/contracts/utils/EnumerableSet.sol\":6201:6223   */\n      tag_643\n        /* \"openzeppelin-solidity/contracts/utils/EnumerableSet.sol\":6205:6208   */\n      dup4\n        /* \"openzeppelin-solidity/contracts/utils/EnumerableSet.sol\":6205:6215   */\n      0x00\n      add\n        /* \"openzeppelin-solidity/contracts/utils/EnumerableSet.sol\":6217:6222   */\n      dup4\n        /* \"openzeppelin-solidity/contracts/utils/EnumerableSet.sol\":6201:6204   */\n      tag_644\n        /* \"openzeppelin-solidity/contracts/utils/EnumerableSet.sol\":6201:6223   */\n      jump\t// in\n    tag_643:\n        /* \"openzeppelin-solidity/contracts/utils/EnumerableSet.sol\":6193:6224   */\n      0x00\n      shr\n        /* \"openzeppelin-solidity/contracts/utils/EnumerableSet.sol\":6178:6225   */\n      swap1\n      pop\n        /* \"openzeppelin-solidity/contracts/utils/EnumerableSet.sol\":6085:6232   */\n      swap3\n      swap2\n      pop\n      pop\n      jump\t// out\n        /* \"openzeppelin-solidity/contracts/utils/EnumerableSet.sol\":5401:5557   */\n    tag_457:\n        /* \"openzeppelin-solidity/contracts/utils/EnumerableSet.sol\":5481:5485   */\n      0x00\n        /* \"openzeppelin-solidity/contracts/utils/EnumerableSet.sol\":5504:5550   */\n      tag_646\n        /* \"openzeppelin-solidity/contracts/utils/EnumerableSet.sol\":5514:5517   */\n      dup4\n        /* \"openzeppelin-solidity/contracts/utils/EnumerableSet.sol\":5514:5524   */\n      0x00\n      add\n        /* \"openzeppelin-solidity/contracts/utils/EnumerableSet.sol\":5542:5547   */\n      dup4\n        /* \"openzeppelin-solidity/contracts/utils/EnumerableSet.sol\":5534:5548   */\n      0xffffffffffffffffffffffffffffffffffffffff\n      and\n        /* \"openzeppelin-solidity/contracts/utils/EnumerableSet.sol\":5526:5549   */\n      0x00\n      shl\n        /* \"openzeppelin-solidity/contracts/utils/EnumerableSet.sol\":5504:5513   */\n      tag_647\n        /* \"openzeppelin-solidity/contracts/utils/EnumerableSet.sol\":5504:5550   */\n      jump\t// in\n    tag_646:\n        /* \"openzeppelin-solidity/contracts/utils/EnumerableSet.sol\":5497:5550   */\n      swap1\n      pop\n        /* \"openzeppelin-solidity/contracts/utils/EnumerableSet.sol\":5401:5557   */\n      swap3\n      swap2\n      pop\n      pop\n      jump\t// out\n        /* \"openzeppelin-solidity/contracts/utils/EnumerableSet.sol\":5638:5753   */\n    tag_532:\n        /* \"openzeppelin-solidity/contracts/utils/EnumerableSet.sol\":5701:5708   */\n      0x00\n        /* \"openzeppelin-solidity/contracts/utils/EnumerableSet.sol\":5727:5746   */\n      tag_649\n        /* \"openzeppelin-solidity/contracts/utils/EnumerableSet.sol\":5735:5738   */\n      dup3\n        /* \"openzeppelin-solidity/contracts/utils/EnumerableSet.sol\":5735:5745   */\n      0x00\n      add\n        /* \"openzeppelin-solidity/contracts/utils/EnumerableSet.sol\":5727:5734   */\n      tag_650\n        /* \"openzeppelin-solidity/contracts/utils/EnumerableSet.sol\":5727:5746   */\n      jump\t// in\n    tag_649:\n        /* \"openzeppelin-solidity/contracts/utils/EnumerableSet.sol\":5720:5746   */\n      swap1\n      pop\n        /* \"openzeppelin-solidity/contracts/utils/EnumerableSet.sol\":5638:5753   */\n      swap2\n      swap1\n      pop\n      jump\t// out\n        /* \"WriterRole.sol\":965:1087  function _addWriter(address account) internal {... */\n    tag_554:\n        /* \"WriterRole.sol\":1021:1045  grantRole(role, account) */\n      tag_652\n        /* \"WriterRole.sol\":313:332  keccak256(\"Writer\") */\n      mload(0x40)\n      tag_653\n      swap1\n      tag_288\n      jump\t// in\n    tag_653:\n      mload(0x40)\n      dup1\n      swap2\n      sub\n      swap1\n      keccak256\n        /* \"WriterRole.sol\":1037:1044  account */\n      dup3\n        /* \"WriterRole.sol\":1021:1030  grantRole */\n      tag_80\n        /* \"WriterRole.sol\":1021:1045  grantRole(role, account) */\n      jump\t// in\n    tag_652:\n        /* \"WriterRole.sol\":1072:1079  account */\n      dup1\n        /* \"WriterRole.sol\":1060:1080  WriterAdded(account) */\n      0xffffffffffffffffffffffffffffffffffffffff\n      and\n      0x6ff3aa2ea7b53070f6d9d07a445d338d89e8edef44250ffa8be19f53910d4a2e\n      mload(0x40)\n      mload(0x40)\n      dup1\n      swap2\n      sub\n      swap1\n      log2\n        /* \"WriterRole.sol\":965:1087  function _addWriter(address account) internal {... */\n      pop\n      jump\t// out\n        /* \"WriterRole.sol\":1097:1227  function _removeWriter(address account) internal {... */\n    tag_557:\n        /* \"WriterRole.sol\":1156:1183  renounceRole(role, account) */\n      tag_655\n        /* \"WriterRole.sol\":313:332  keccak256(\"Writer\") */\n      mload(0x40)\n      tag_656\n      swap1\n      tag_288\n      jump\t// in\n    tag_656:\n      mload(0x40)\n      dup1\n      swap2\n      sub\n      swap1\n      keccak256\n        /* \"WriterRole.sol\":1175:1182  account */\n      dup3\n        /* \"WriterRole.sol\":1156:1168  renounceRole */\n      tag_83\n        /* \"WriterRole.sol\":1156:1183  renounceRole(role, account) */\n      jump\t// in\n    tag_655:\n        /* \"WriterRole.sol\":1212:1219  account */\n      dup1\n        /* \"WriterRole.sol\":1198:1220  WriterRemoved(account) */\n      0xffffffffffffffffffffffffffffffffffffffff\n      and\n      0x86e5bbceda94081c32220d685f37cc4e3ea7bb0be2dfbf0cb703579505a5390e\n      mload(0x40)\n      mload(0x40)\n      dup1\n      swap2\n      sub\n      swap1\n      log2\n        /* \"WriterRole.sol\":1097:1227  function _removeWriter(address account) internal {... */\n      pop\n      jump\t// out\n        /* \"openzeppelin-solidity/contracts/utils/EnumerableSet.sol\":1611:2015   */\n    tag_564:\n        /* \"openzeppelin-solidity/contracts/utils/EnumerableSet.sol\":1674:1678   */\n      0x00\n        /* \"openzeppelin-solidity/contracts/utils/EnumerableSet.sol\":1695:1716   */\n      tag_658\n        /* \"openzeppelin-solidity/contracts/utils/EnumerableSet.sol\":1705:1708   */\n      dup4\n        /* \"openzeppelin-solidity/contracts/utils/EnumerableSet.sol\":1710:1715   */\n      dup4\n        /* \"openzeppelin-solidity/contracts/utils/EnumerableSet.sol\":1695:1704   */\n      tag_647\n        /* \"openzeppelin-solidity/contracts/utils/EnumerableSet.sol\":1695:1716   */\n      jump\t// in\n    tag_658:\n        /* \"openzeppelin-solidity/contracts/utils/EnumerableSet.sol\":1690:2009   */\n      tag_659\n      jumpi\n        /* \"openzeppelin-solidity/contracts/utils/EnumerableSet.sol\":1732:1735   */\n      dup3\n        /* \"openzeppelin-solidity/contracts/utils/EnumerableSet.sol\":1732:1743   */\n      0x00\n      add\n        /* \"openzeppelin-solidity/contracts/utils/EnumerableSet.sol\":1749:1754   */\n      dup3\n        /* \"openzeppelin-solidity/contracts/utils/EnumerableSet.sol\":1732:1755   */\n      swap1\n      dup1\n      0x01\n      dup2\n      sload\n      add\n      dup1\n      dup3\n      sstore\n      dup1\n      swap2\n      pop\n      pop\n      0x01\n      swap1\n      sub\n      swap1\n      0x00\n      mstore\n      keccak256(0x00, 0x20)\n      add\n      0x00\n      swap1\n      swap2\n      swap1\n      swap2\n      swap1\n      swap2\n      pop\n      sstore\n        /* \"openzeppelin-solidity/contracts/utils/EnumerableSet.sol\":1912:1915   */\n      dup3\n        /* \"openzeppelin-solidity/contracts/utils/EnumerableSet.sol\":1912:1923   */\n      0x00\n      add\n        /* \"openzeppelin-solidity/contracts/utils/EnumerableSet.sol\":1912:1930   */\n      dup1\n      sload\n      swap1\n      pop\n        /* \"openzeppelin-solidity/contracts/utils/EnumerableSet.sol\":1890:1893   */\n      dup4\n        /* \"openzeppelin-solidity/contracts/utils/EnumerableSet.sol\":1890:1902   */\n      0x01\n      add\n        /* \"openzeppelin-solidity/contracts/utils/EnumerableSet.sol\":1890:1909   */\n      0x00\n        /* \"openzeppelin-solidity/contracts/utils/EnumerableSet.sol\":1903:1908   */\n      dup5\n        /* \"openzeppelin-solidity/contracts/utils/EnumerableSet.sol\":1890:1909   */\n      dup2\n      mstore\n      0x20\n      add\n      swap1\n      dup2\n      mstore\n      0x20\n      add\n      0x00\n      keccak256\n        /* \"openzeppelin-solidity/contracts/utils/EnumerableSet.sol\":1890:1930   */\n      dup2\n      swap1\n      sstore\n      pop\n        /* \"openzeppelin-solidity/contracts/utils/EnumerableSet.sol\":1951:1955   */\n      0x01\n        /* \"openzeppelin-solidity/contracts/utils/EnumerableSet.sol\":1944:1955   */\n      swap1\n      pop\n      jump(tag_657)\n        /* \"openzeppelin-solidity/contracts/utils/EnumerableSet.sol\":1690:2009   */\n    tag_659:\n        /* \"openzeppelin-solidity/contracts/utils/EnumerableSet.sol\":1993:1998   */\n      0x00\n        /* \"openzeppelin-solidity/contracts/utils/EnumerableSet.sol\":1986:1998   */\n      swap1\n      pop\n        /* \"openzeppelin-solidity/contracts/utils/EnumerableSet.sol\":1611:2015   */\n    tag_657:\n      swap3\n      swap2\n      pop\n      pop\n      jump\t// out\n        /* \"openzeppelin-solidity/contracts/math/SafeMath.sol\":5035:5198   */\n    tag_622:\n        /* \"openzeppelin-solidity/contracts/math/SafeMath.sol\":5121:5128   */\n      0x00\n        /* \"openzeppelin-solidity/contracts/math/SafeMath.sol\":5153:5154   */\n      dup1\n        /* \"openzeppelin-solidity/contracts/math/SafeMath.sol\":5148:5149   */\n      dup4\n        /* \"openzeppelin-solidity/contracts/math/SafeMath.sol\":5148:5154   */\n      eq\n      iszero\n        /* \"openzeppelin-solidity/contracts/math/SafeMath.sol\":5156:5168   */\n      dup3\n        /* \"openzeppelin-solidity/contracts/math/SafeMath.sol\":5140:5169   */\n      swap1\n      tag_663\n      jumpi\n      mload(0x40)\n      0x08c379a000000000000000000000000000000000000000000000000000000000\n      dup2\n      mstore\n      0x04\n      add\n      tag_664\n      swap2\n      swap1\n      tag_665\n      jump\t// in\n    tag_664:\n      mload(0x40)\n      dup1\n      swap2\n      sub\n      swap1\n      revert\n    tag_663:\n      pop\n        /* \"openzeppelin-solidity/contracts/math/SafeMath.sol\":5190:5191   */\n      dup3\n        /* \"openzeppelin-solidity/contracts/math/SafeMath.sol\":5186:5187   */\n      dup5\n        /* \"openzeppelin-solidity/contracts/math/SafeMath.sol\":5186:5191   */\n      dup2\n      tag_666\n      jumpi\n      invalid\n    tag_666:\n      mod\n        /* \"openzeppelin-solidity/contracts/math/SafeMath.sol\":5179:5191   */\n      swap1\n      pop\n        /* \"openzeppelin-solidity/contracts/math/SafeMath.sol\":5035:5198   */\n      swap4\n      swap3\n      pop\n      pop\n      pop\n      jump\t// out\n        /* \"openzeppelin-solidity/contracts/utils/EnumerableSet.sol\":5173:5320   */\n    tag_636:\n        /* \"openzeppelin-solidity/contracts/utils/EnumerableSet.sol\":5246:5250   */\n      0x00\n        /* \"openzeppelin-solidity/contracts/utils/EnumerableSet.sol\":5269:5313   */\n      tag_668\n        /* \"openzeppelin-solidity/contracts/utils/EnumerableSet.sol\":5277:5280   */\n      dup4\n        /* \"openzeppelin-solidity/contracts/utils/EnumerableSet.sol\":5277:5287   */\n      0x00\n      add\n        /* \"openzeppelin-solidity/contracts/utils/EnumerableSet.sol\":5305:5310   */\n      dup4\n        /* \"openzeppelin-solidity/contracts/utils/EnumerableSet.sol\":5297:5311   */\n      0xffffffffffffffffffffffffffffffffffffffff\n      and\n        /* \"openzeppelin-solidity/contracts/utils/EnumerableSet.sol\":5289:5312   */\n      0x00\n      shl\n        /* \"openzeppelin-solidity/contracts/utils/EnumerableSet.sol\":5269:5276   */\n      tag_669\n        /* \"openzeppelin-solidity/contracts/utils/EnumerableSet.sol\":5269:5313   */\n      jump\t// in\n    tag_668:\n        /* \"openzeppelin-solidity/contracts/utils/EnumerableSet.sol\":5262:5313   */\n      swap1\n      pop\n        /* \"openzeppelin-solidity/contracts/utils/EnumerableSet.sol\":5173:5320   */\n      swap3\n      swap2\n      pop\n      pop\n      jump\t// out\n        /* \"openzeppelin-solidity/contracts/math/SafeMath.sol\":3713:3985   */\n    tag_641:\n        /* \"openzeppelin-solidity/contracts/math/SafeMath.sol\":3799:3806   */\n      0x00\n        /* \"openzeppelin-solidity/contracts/math/SafeMath.sol\":3830:3831   */\n      dup1\n        /* \"openzeppelin-solidity/contracts/math/SafeMath.sol\":3826:3827   */\n      dup4\n        /* \"openzeppelin-solidity/contracts/math/SafeMath.sol\":3826:3831   */\n      gt\n        /* \"openzeppelin-solidity/contracts/math/SafeMath.sol\":3833:3845   */\n      dup3\n        /* \"openzeppelin-solidity/contracts/math/SafeMath.sol\":3818:3846   */\n      swap1\n      tag_671\n      jumpi\n      mload(0x40)\n      0x08c379a000000000000000000000000000000000000000000000000000000000\n      dup2\n      mstore\n      0x04\n      add\n      tag_672\n      swap2\n      swap1\n      tag_665\n      jump\t// in\n    tag_672:\n      mload(0x40)\n      dup1\n      swap2\n      sub\n      swap1\n      revert\n    tag_671:\n      pop\n        /* \"openzeppelin-solidity/contracts/math/SafeMath.sol\":3856:3865   */\n      0x00\n        /* \"openzeppelin-solidity/contracts/math/SafeMath.sol\":3872:3873   */\n      dup4\n        /* \"openzeppelin-solidity/contracts/math/SafeMath.sol\":3868:3869   */\n      dup6\n        /* \"openzeppelin-solidity/contracts/math/SafeMath.sol\":3868:3873   */\n      dup2\n      tag_673\n      jumpi\n      invalid\n    tag_673:\n      div\n        /* \"openzeppelin-solidity/contracts/math/SafeMath.sol\":3856:3873   */\n      swap1\n      pop\n        /* \"openzeppelin-solidity/contracts/math/SafeMath.sol\":3977:3978   */\n      dup1\n        /* \"openzeppelin-solidity/contracts/math/SafeMath.sol\":3970:3978   */\n      swap2\n      pop\n      pop\n        /* \"openzeppelin-solidity/contracts/math/SafeMath.sol\":3713:3985   */\n      swap4\n      swap3\n      pop\n      pop\n      pop\n      jump\t// out\n        /* \"openzeppelin-solidity/contracts/utils/EnumerableSet.sol\":4423:4624   */\n    tag_644:\n        /* \"openzeppelin-solidity/contracts/utils/EnumerableSet.sol\":4490:4497   */\n      0x00\n        /* \"openzeppelin-solidity/contracts/utils/EnumerableSet.sol\":4538:4543   */\n      dup2\n        /* \"openzeppelin-solidity/contracts/utils/EnumerableSet.sol\":4517:4520   */\n      dup4\n        /* \"openzeppelin-solidity/contracts/utils/EnumerableSet.sol\":4517:4528   */\n      0x00\n      add\n        /* \"openzeppelin-solidity/contracts/utils/EnumerableSet.sol\":4517:4535   */\n      dup1\n      sload\n      swap1\n      pop\n        /* \"openzeppelin-solidity/contracts/utils/EnumerableSet.sol\":4517:4543   */\n      gt\n        /* \"openzeppelin-solidity/contracts/utils/EnumerableSet.sol\":4509:4582   */\n      tag_675\n      jumpi\n      mload(0x40)\n      0x08c379a000000000000000000000000000000000000000000000000000000000\n      dup2\n      mstore\n      0x04\n      add\n      tag_676\n      swap1\n      tag_677\n      jump\t// in\n    tag_676:\n      mload(0x40)\n      dup1\n      swap2\n      sub\n      swap1\n      revert\n    tag_675:\n        /* \"openzeppelin-solidity/contracts/utils/EnumerableSet.sol\":4599:4602   */\n      dup3\n        /* \"openzeppelin-solidity/contracts/utils/EnumerableSet.sol\":4599:4610   */\n      0x00\n      add\n        /* \"openzeppelin-solidity/contracts/utils/EnumerableSet.sol\":4611:4616   */\n      dup3\n        /* \"openzeppelin-solidity/contracts/utils/EnumerableSet.sol\":4599:4617   */\n      dup2\n      sload\n      dup2\n      lt\n      tag_678\n      jumpi\n      invalid\n    tag_678:\n      swap1\n      0x00\n      mstore\n      keccak256(0x00, 0x20)\n      add\n      sload\n        /* \"openzeppelin-solidity/contracts/utils/EnumerableSet.sol\":4592:4617   */\n      swap1\n      pop\n        /* \"openzeppelin-solidity/contracts/utils/EnumerableSet.sol\":4423:4624   */\n      swap3\n      swap2\n      pop\n      pop\n      jump\t// out\n        /* \"openzeppelin-solidity/contracts/utils/EnumerableSet.sol\":3776:3903   */\n    tag_647:\n        /* \"openzeppelin-solidity/contracts/utils/EnumerableSet.sol\":3849:3853   */\n      0x00\n        /* \"openzeppelin-solidity/contracts/utils/EnumerableSet.sol\":3895:3896   */\n      dup1\n        /* \"openzeppelin-solidity/contracts/utils/EnumerableSet.sol\":3872:3875   */\n      dup4\n        /* \"openzeppelin-solidity/contracts/utils/EnumerableSet.sol\":3872:3884   */\n      0x01\n      add\n        /* \"openzeppelin-solidity/contracts/utils/EnumerableSet.sol\":3872:3891   */\n      0x00\n        /* \"openzeppelin-solidity/contracts/utils/EnumerableSet.sol\":3885:3890   */\n      dup5\n        /* \"openzeppelin-solidity/contracts/utils/EnumerableSet.sol\":3872:3891   */\n      dup2\n      mstore\n      0x20\n      add\n      swap1\n      dup2\n      mstore\n      0x20\n      add\n      0x00\n      keccak256\n      sload\n        /* \"openzeppelin-solidity/contracts/utils/EnumerableSet.sol\":3872:3896   */\n      eq\n      iszero\n        /* \"openzeppelin-solidity/contracts/utils/EnumerableSet.sol\":3865:3896   */\n      swap1\n      pop\n        /* \"openzeppelin-solidity/contracts/utils/EnumerableSet.sol\":3776:3903   */\n      swap3\n      swap2\n      pop\n      pop\n      jump\t// out\n        /* \"openzeppelin-solidity/contracts/utils/EnumerableSet.sol\":3984:4091   */\n    tag_650:\n        /* \"openzeppelin-solidity/contracts/utils/EnumerableSet.sol\":4040:4047   */\n      0x00\n        /* \"openzeppelin-solidity/contracts/utils/EnumerableSet.sol\":4066:4069   */\n      dup2\n        /* \"openzeppelin-solidity/contracts/utils/EnumerableSet.sol\":4066:4077   */\n      0x00\n      add\n        /* \"openzeppelin-solidity/contracts/utils/EnumerableSet.sol\":4066:4084   */\n      dup1\n      sload\n      swap1\n      pop\n        /* \"openzeppelin-solidity/contracts/utils/EnumerableSet.sol\":4059:4084   */\n      swap1\n      pop\n        /* \"openzeppelin-solidity/contracts/utils/EnumerableSet.sol\":3984:4091   */\n      swap2\n      swap1\n      pop\n      jump\t// out\n        /* \"openzeppelin-solidity/contracts/utils/EnumerableSet.sol\":2183:3695   */\n    tag_669:\n        /* \"openzeppelin-solidity/contracts/utils/EnumerableSet.sol\":2249:2253   */\n      0x00\n        /* \"openzeppelin-solidity/contracts/utils/EnumerableSet.sol\":2365:2383   */\n      dup1\n        /* \"openzeppelin-solidity/contracts/utils/EnumerableSet.sol\":2386:2389   */\n      dup4\n        /* \"openzeppelin-solidity/contracts/utils/EnumerableSet.sol\":2386:2398   */\n      0x01\n      add\n        /* \"openzeppelin-solidity/contracts/utils/EnumerableSet.sol\":2386:2405   */\n      0x00\n        /* \"openzeppelin-solidity/contracts/utils/EnumerableSet.sol\":2399:2404   */\n      dup5\n        /* \"openzeppelin-solidity/contracts/utils/EnumerableSet.sol\":2386:2405   */\n      dup2\n      mstore\n      0x20\n      add\n      swap1\n      dup2\n      mstore\n      0x20\n      add\n      0x00\n      keccak256\n      sload\n        /* \"openzeppelin-solidity/contracts/utils/EnumerableSet.sol\":2365:2405   */\n      swap1\n      pop\n        /* \"openzeppelin-solidity/contracts/utils/EnumerableSet.sol\":2434:2435   */\n      0x00\n        /* \"openzeppelin-solidity/contracts/utils/EnumerableSet.sol\":2420:2430   */\n      dup2\n        /* \"openzeppelin-solidity/contracts/utils/EnumerableSet.sol\":2420:2435   */\n      eq\n        /* \"openzeppelin-solidity/contracts/utils/EnumerableSet.sol\":2416:3689   */\n      tag_683\n      jumpi\n        /* \"openzeppelin-solidity/contracts/utils/EnumerableSet.sol\":2777:2798   */\n      0x00\n        /* \"openzeppelin-solidity/contracts/utils/EnumerableSet.sol\":2814:2815   */\n      0x01\n        /* \"openzeppelin-solidity/contracts/utils/EnumerableSet.sol\":2801:2811   */\n      dup3\n        /* \"openzeppelin-solidity/contracts/utils/EnumerableSet.sol\":2801:2815   */\n      sub\n        /* \"openzeppelin-solidity/contracts/utils/EnumerableSet.sol\":2777:2815   */\n      swap1\n      pop\n        /* \"openzeppelin-solidity/contracts/utils/EnumerableSet.sol\":2829:2846   */\n      0x00\n        /* \"openzeppelin-solidity/contracts/utils/EnumerableSet.sol\":2870:2871   */\n      0x01\n        /* \"openzeppelin-solidity/contracts/utils/EnumerableSet.sol\":2849:2852   */\n      dup7\n        /* \"openzeppelin-solidity/contracts/utils/EnumerableSet.sol\":2849:2860   */\n      0x00\n      add\n        /* \"openzeppelin-solidity/contracts/utils/EnumerableSet.sol\":2849:2867   */\n      dup1\n      sload\n      swap1\n      pop\n        /* \"openzeppelin-solidity/contracts/utils/EnumerableSet.sol\":2849:2871   */\n      sub\n        /* \"openzeppelin-solidity/contracts/utils/EnumerableSet.sol\":2829:2871   */\n      swap1\n      pop\n        /* \"openzeppelin-solidity/contracts/utils/EnumerableSet.sol\":3111:3128   */\n      0x00\n        /* \"openzeppelin-solidity/contracts/utils/EnumerableSet.sol\":3131:3134   */\n      dup7\n        /* \"openzeppelin-solidity/contracts/utils/EnumerableSet.sol\":3131:3142   */\n      0x00\n      add\n        /* \"openzeppelin-solidity/contracts/utils/EnumerableSet.sol\":3143:3152   */\n      dup3\n        /* \"openzeppelin-solidity/contracts/utils/EnumerableSet.sol\":3131:3153   */\n      dup2\n      sload\n      dup2\n      lt\n      tag_684\n      jumpi\n      invalid\n    tag_684:\n      swap1\n      0x00\n      mstore\n      keccak256(0x00, 0x20)\n      add\n      sload\n        /* \"openzeppelin-solidity/contracts/utils/EnumerableSet.sol\":3111:3153   */\n      swap1\n      pop\n        /* \"openzeppelin-solidity/contracts/utils/EnumerableSet.sol\":3274:3283   */\n      dup1\n        /* \"openzeppelin-solidity/contracts/utils/EnumerableSet.sol\":3245:3248   */\n      dup8\n        /* \"openzeppelin-solidity/contracts/utils/EnumerableSet.sol\":3245:3256   */\n      0x00\n      add\n        /* \"openzeppelin-solidity/contracts/utils/EnumerableSet.sol\":3257:3270   */\n      dup5\n        /* \"openzeppelin-solidity/contracts/utils/EnumerableSet.sol\":3245:3271   */\n      dup2\n      sload\n      dup2\n      lt\n      tag_686\n      jumpi\n      invalid\n    tag_686:\n      swap1\n      0x00\n      mstore\n      keccak256(0x00, 0x20)\n      add\n        /* \"openzeppelin-solidity/contracts/utils/EnumerableSet.sol\":3245:3283   */\n      dup2\n      swap1\n      sstore\n      pop\n        /* \"openzeppelin-solidity/contracts/utils/EnumerableSet.sol\":3391:3392   */\n      0x01\n        /* \"openzeppelin-solidity/contracts/utils/EnumerableSet.sol\":3375:3388   */\n      dup4\n        /* \"openzeppelin-solidity/contracts/utils/EnumerableSet.sol\":3375:3392   */\n      add\n        /* \"openzeppelin-solidity/contracts/utils/EnumerableSet.sol\":3349:3352   */\n      dup8\n        /* \"openzeppelin-solidity/contracts/utils/EnumerableSet.sol\":3349:3361   */\n      0x01\n      add\n        /* \"openzeppelin-solidity/contracts/utils/EnumerableSet.sol\":3349:3372   */\n      0x00\n        /* \"openzeppelin-solidity/contracts/utils/EnumerableSet.sol\":3362:3371   */\n      dup4\n        /* \"openzeppelin-solidity/contracts/utils/EnumerableSet.sol\":3349:3372   */\n      dup2\n      mstore\n      0x20\n      add\n      swap1\n      dup2\n      mstore\n      0x20\n      add\n      0x00\n      keccak256\n        /* \"openzeppelin-solidity/contracts/utils/EnumerableSet.sol\":3349:3392   */\n      dup2\n      swap1\n      sstore\n      pop\n        /* \"openzeppelin-solidity/contracts/utils/EnumerableSet.sol\":3498:3501   */\n      dup7\n        /* \"openzeppelin-solidity/contracts/utils/EnumerableSet.sol\":3498:3509   */\n      0x00\n      add\n        /* \"openzeppelin-solidity/contracts/utils/EnumerableSet.sol\":3498:3515   */\n      dup1\n      sload\n      dup1\n      tag_688\n      jumpi\n      invalid\n    tag_688:\n      0x01\n      swap1\n      sub\n      dup2\n      dup2\n      swap1\n      0x00\n      mstore\n      keccak256(0x00, 0x20)\n      add\n      0x00\n      swap1\n      sstore\n      swap1\n      sstore\n        /* \"openzeppelin-solidity/contracts/utils/EnumerableSet.sol\":3590:3593   */\n      dup7\n        /* \"openzeppelin-solidity/contracts/utils/EnumerableSet.sol\":3590:3602   */\n      0x01\n      add\n        /* \"openzeppelin-solidity/contracts/utils/EnumerableSet.sol\":3590:3609   */\n      0x00\n        /* \"openzeppelin-solidity/contracts/utils/EnumerableSet.sol\":3603:3608   */\n      dup8\n        /* \"openzeppelin-solidity/contracts/utils/EnumerableSet.sol\":3590:3609   */\n      dup2\n      mstore\n      0x20\n      add\n      swap1\n      dup2\n      mstore\n      0x20\n      add\n      0x00\n      keccak256\n        /* \"openzeppelin-solidity/contracts/utils/EnumerableSet.sol\":3583:3609   */\n      0x00\n      swap1\n      sstore\n        /* \"openzeppelin-solidity/contracts/utils/EnumerableSet.sol\":3631:3635   */\n      0x01\n        /* \"openzeppelin-solidity/contracts/utils/EnumerableSet.sol\":3624:3635   */\n      swap5\n      pop\n      pop\n      pop\n      pop\n      pop\n      jump(tag_682)\n        /* \"openzeppelin-solidity/contracts/utils/EnumerableSet.sol\":2416:3689   */\n    tag_683:\n        /* \"openzeppelin-solidity/contracts/utils/EnumerableSet.sol\":3673:3678   */\n      0x00\n        /* \"openzeppelin-solidity/contracts/utils/EnumerableSet.sol\":3666:3678   */\n      swap2\n      pop\n      pop\n        /* \"openzeppelin-solidity/contracts/utils/EnumerableSet.sol\":2183:3695   */\n    tag_682:\n      swap3\n      swap2\n      pop\n      pop\n      jump\t// out\n    tag_178:\n      mload(0x40)\n      dup1\n      0x0100\n      add\n      0x40\n      mstore\n      dup1\n      0x00\n      dup2\n      mstore\n      0x20\n      add\n      0x60\n      dup2\n      mstore\n      0x20\n      add\n      0x60\n      dup2\n      mstore\n      0x20\n      add\n      0x60\n      dup2\n      mstore\n      0x20\n      add\n      0x60\n      dup2\n      mstore\n      0x20\n      add\n      0x00\n      dup2\n      mstore\n      0x20\n      add\n      0x00\n      dup2\n      mstore\n      0x20\n      add\n      iszero(iszero(0x00))\n      dup2\n      mstore\n      pop\n      swap1\n      jump\t// out\n    tag_481:\n      dup3\n      dup1\n      sload\n      dup3\n      dup3\n      sstore\n      swap1\n      0x00\n      mstore\n      keccak256(0x00, 0x20)\n      swap1\n      dup2\n      add\n      swap3\n      dup3\n      iszero\n      tag_691\n      jumpi\n      0x00\n      mstore\n      keccak256(0x00, 0x20)\n      swap2\n      dup3\n      add\n    tag_692:\n      dup3\n      dup2\n      gt\n      iszero\n      tag_693\n      jumpi\n      dup3\n      sload\n      dup3\n      sstore\n      swap2\n      0x01\n      add\n      swap2\n      swap1\n      0x01\n      add\n      swap1\n      jump(tag_692)\n    tag_693:\n    tag_691:\n      pop\n      swap1\n      pop\n      tag_694\n      swap2\n      swap1\n      tag_695\n      jump\t// in\n    tag_694:\n      pop\n      swap1\n      jump\t// out\n    tag_569:\n      dup3\n      dup1\n      sload\n      dup3\n      dup3\n      sstore\n      swap1\n      0x00\n      mstore\n      keccak256(0x00, 0x20)\n      swap1\n      dup2\n      add\n      swap3\n      dup3\n      iszero\n      tag_696\n      jumpi\n      swap2\n      0x20\n      mul\n      dup3\n      add\n    tag_697:\n      dup3\n      dup2\n      gt\n      iszero\n      tag_698\n      jumpi\n      dup3\n      mload\n      dup3\n      sstore\n      swap2\n      0x20\n      add\n      swap2\n      swap1\n      0x01\n      add\n      swap1\n      jump(tag_697)\n    tag_698:\n    tag_696:\n      pop\n      swap1\n      pop\n      tag_699\n      swap2\n      swap1\n      tag_695\n      jump\t// in\n    tag_699:\n      pop\n      swap1\n      jump\t// out\n    tag_612:\n      pop\n      dup1\n      sload\n      0x00\n      dup3\n      sstore\n      swap1\n      0x00\n      mstore\n      keccak256(0x00, 0x20)\n      swap1\n      dup2\n      add\n      swap1\n      tag_701\n      swap2\n      swap1\n      tag_695\n      jump\t// in\n    tag_701:\n      pop\n      jump\t// out\n    tag_695:\n      tag_702\n      swap2\n      swap1\n    tag_703:\n      dup1\n      dup3\n      gt\n      iszero\n      tag_704\n      jumpi\n      0x00\n      dup2\n      0x00\n      swap1\n      sstore\n      pop\n      0x01\n      add\n      jump(tag_703)\n    tag_704:\n      pop\n      swap1\n      jump\n    tag_702:\n      swap1\n      jump\t// out\n        /* \"--CODEGEN--\":5:135   */\n    tag_706:\n      0x00\n        /* \"--CODEGEN--\":85:91   */\n      dup2\n        /* \"--CODEGEN--\":72:92   */\n      calldataload\n        /* \"--CODEGEN--\":63:92   */\n      swap1\n      pop\n        /* \"--CODEGEN--\":97:130   */\n      tag_708\n        /* \"--CODEGEN--\":124:129   */\n      dup2\n        /* \"--CODEGEN--\":97:130   */\n      tag_709\n      jump\t// in\n    tag_708:\n        /* \"--CODEGEN--\":57:135   */\n      swap3\n      swap2\n      pop\n      pop\n      jump\t// out\n        /* \"--CODEGEN--\":142:276   */\n    tag_710:\n      0x00\n        /* \"--CODEGEN--\":226:232   */\n      dup2\n        /* \"--CODEGEN--\":220:233   */\n      mload\n        /* \"--CODEGEN--\":211:233   */\n      swap1\n      pop\n        /* \"--CODEGEN--\":238:271   */\n      tag_712\n        /* \"--CODEGEN--\":265:270   */\n      dup2\n        /* \"--CODEGEN--\":238:271   */\n      tag_709\n      jump\t// in\n    tag_712:\n        /* \"--CODEGEN--\":205:276   */\n      swap3\n      swap2\n      pop\n      pop\n      jump\t// out\n        /* \"--CODEGEN--\":301:1008   */\n    tag_713:\n      0x00\n        /* \"--CODEGEN--\":418:421   */\n      dup3\n        /* \"--CODEGEN--\":411:415   */\n      0x1f\n        /* \"--CODEGEN--\":403:409   */\n      dup4\n        /* \"--CODEGEN--\":399:416   */\n      add\n        /* \"--CODEGEN--\":395:422   */\n      slt\n        /* \"--CODEGEN--\":385:387   */\n      tag_715\n      jumpi\n        /* \"--CODEGEN--\":436:437   */\n      0x00\n        /* \"--CODEGEN--\":433:434   */\n      dup1\n        /* \"--CODEGEN--\":426:438   */\n      revert\n        /* \"--CODEGEN--\":385:387   */\n    tag_715:\n        /* \"--CODEGEN--\":473:479   */\n      dup2\n        /* \"--CODEGEN--\":460:480   */\n      calldataload\n        /* \"--CODEGEN--\":495:575   */\n      tag_716\n        /* \"--CODEGEN--\":510:574   */\n      tag_717\n        /* \"--CODEGEN--\":567:573   */\n      dup3\n        /* \"--CODEGEN--\":510:574   */\n      tag_718\n      jump\t// in\n    tag_717:\n        /* \"--CODEGEN--\":495:575   */\n      tag_719\n      jump\t// in\n    tag_716:\n        /* \"--CODEGEN--\":486:575   */\n      swap2\n      pop\n        /* \"--CODEGEN--\":592:597   */\n      dup2\n        /* \"--CODEGEN--\":617:623   */\n      dup2\n        /* \"--CODEGEN--\":610:615   */\n      dup4\n        /* \"--CODEGEN--\":603:624   */\n      mstore\n        /* \"--CODEGEN--\":647:651   */\n      0x20\n        /* \"--CODEGEN--\":639:645   */\n      dup5\n        /* \"--CODEGEN--\":635:652   */\n      add\n        /* \"--CODEGEN--\":625:652   */\n      swap4\n      pop\n        /* \"--CODEGEN--\":669:673   */\n      0x20\n        /* \"--CODEGEN--\":664:667   */\n      dup2\n        /* \"--CODEGEN--\":660:674   */\n      add\n        /* \"--CODEGEN--\":653:674   */\n      swap1\n      pop\n        /* \"--CODEGEN--\":722:728   */\n      dup4\n        /* \"--CODEGEN--\":769:772   */\n      dup6\n        /* \"--CODEGEN--\":761:765   */\n      0x20\n        /* \"--CODEGEN--\":753:759   */\n      dup5\n        /* \"--CODEGEN--\":749:766   */\n      mul\n        /* \"--CODEGEN--\":744:747   */\n      dup3\n        /* \"--CODEGEN--\":740:767   */\n      add\n        /* \"--CODEGEN--\":737:773   */\n      gt\n        /* \"--CODEGEN--\":734:736   */\n      iszero\n      tag_720\n      jumpi\n        /* \"--CODEGEN--\":786:787   */\n      0x00\n        /* \"--CODEGEN--\":783:784   */\n      dup1\n        /* \"--CODEGEN--\":776:788   */\n      revert\n        /* \"--CODEGEN--\":734:736   */\n    tag_720:\n        /* \"--CODEGEN--\":811:812   */\n      0x00\n        /* \"--CODEGEN--\":796:1002   */\n    tag_721:\n        /* \"--CODEGEN--\":821:827   */\n      dup4\n        /* \"--CODEGEN--\":818:819   */\n      dup2\n        /* \"--CODEGEN--\":815:828   */\n      lt\n        /* \"--CODEGEN--\":796:1002   */\n      iszero\n      tag_723\n      jumpi\n        /* \"--CODEGEN--\":879:882   */\n      dup2\n        /* \"--CODEGEN--\":901:938   */\n      tag_724\n        /* \"--CODEGEN--\":934:937   */\n      dup9\n        /* \"--CODEGEN--\":922:932   */\n      dup3\n        /* \"--CODEGEN--\":901:938   */\n      tag_725\n      jump\t// in\n    tag_724:\n        /* \"--CODEGEN--\":896:899   */\n      dup5\n        /* \"--CODEGEN--\":889:939   */\n      mstore\n        /* \"--CODEGEN--\":962:966   */\n      0x20\n        /* \"--CODEGEN--\":957:960   */\n      dup5\n        /* \"--CODEGEN--\":953:967   */\n      add\n        /* \"--CODEGEN--\":946:967   */\n      swap4\n      pop\n        /* \"--CODEGEN--\":990:994   */\n      0x20\n        /* \"--CODEGEN--\":985:988   */\n      dup4\n        /* \"--CODEGEN--\":981:995   */\n      add\n        /* \"--CODEGEN--\":974:995   */\n      swap3\n      pop\n        /* \"--CODEGEN--\":853:1002   */\n      pop\n        /* \"--CODEGEN--\":843:844   */\n      0x01\n        /* \"--CODEGEN--\":840:841   */\n      dup2\n        /* \"--CODEGEN--\":836:845   */\n      add\n        /* \"--CODEGEN--\":831:845   */\n      swap1\n      pop\n        /* \"--CODEGEN--\":796:1002   */\n      jump(tag_721)\n    tag_723:\n        /* \"--CODEGEN--\":800:814   */\n      pop\n        /* \"--CODEGEN--\":378:1008   */\n      pop\n      pop\n      pop\n      swap3\n      swap2\n      pop\n      pop\n      jump\t// out\n        /* \"--CODEGEN--\":1016:1146   */\n    tag_726:\n      0x00\n        /* \"--CODEGEN--\":1096:1102   */\n      dup2\n        /* \"--CODEGEN--\":1083:1103   */\n      calldataload\n        /* \"--CODEGEN--\":1074:1103   */\n      swap1\n      pop\n        /* \"--CODEGEN--\":1108:1141   */\n      tag_728\n        /* \"--CODEGEN--\":1135:1140   */\n      dup2\n        /* \"--CODEGEN--\":1108:1141   */\n      tag_729\n      jump\t// in\n    tag_728:\n        /* \"--CODEGEN--\":1068:1146   */\n      swap3\n      swap2\n      pop\n      pop\n      jump\t// out\n        /* \"--CODEGEN--\":1153:1287   */\n    tag_730:\n      0x00\n        /* \"--CODEGEN--\":1237:1243   */\n      dup2\n        /* \"--CODEGEN--\":1231:1244   */\n      mload\n        /* \"--CODEGEN--\":1222:1244   */\n      swap1\n      pop\n        /* \"--CODEGEN--\":1249:1282   */\n      tag_732\n        /* \"--CODEGEN--\":1276:1281   */\n      dup2\n        /* \"--CODEGEN--\":1249:1282   */\n      tag_729\n      jump\t// in\n    tag_732:\n        /* \"--CODEGEN--\":1216:1287   */\n      swap3\n      swap2\n      pop\n      pop\n      jump\t// out\n        /* \"--CODEGEN--\":1322:2813   */\n    tag_733:\n      0x00\n        /* \"--CODEGEN--\":1446:1452   */\n      0x0100\n        /* \"--CODEGEN--\":1434:1443   */\n      dup3\n        /* \"--CODEGEN--\":1429:1432   */\n      dup5\n        /* \"--CODEGEN--\":1425:1444   */\n      sub\n        /* \"--CODEGEN--\":1421:1453   */\n      slt\n        /* \"--CODEGEN--\":1418:1420   */\n      iszero\n      tag_735\n      jumpi\n        /* \"--CODEGEN--\":1466:1467   */\n      0x00\n        /* \"--CODEGEN--\":1463:1464   */\n      dup1\n        /* \"--CODEGEN--\":1456:1468   */\n      revert\n        /* \"--CODEGEN--\":1418:1420   */\n    tag_735:\n        /* \"--CODEGEN--\":1484:1506   */\n      tag_736\n        /* \"--CODEGEN--\":1499:1505   */\n      0x0100\n        /* \"--CODEGEN--\":1484:1506   */\n      tag_719\n      jump\t// in\n    tag_736:\n        /* \"--CODEGEN--\":1475:1506   */\n      swap1\n      pop\n        /* \"--CODEGEN--\":1554:1555   */\n      0x00\n        /* \"--CODEGEN--\":1586:1646   */\n      tag_737\n        /* \"--CODEGEN--\":1642:1645   */\n      dup5\n        /* \"--CODEGEN--\":1633:1639   */\n      dup3\n        /* \"--CODEGEN--\":1622:1631   */\n      dup6\n        /* \"--CODEGEN--\":1618:1640   */\n      add\n        /* \"--CODEGEN--\":1586:1646   */\n      tag_738\n      jump\t// in\n    tag_737:\n        /* \"--CODEGEN--\":1579:1583   */\n      0x00\n        /* \"--CODEGEN--\":1572:1577   */\n      dup4\n        /* \"--CODEGEN--\":1568:1584   */\n      add\n        /* \"--CODEGEN--\":1561:1647   */\n      mstore\n        /* \"--CODEGEN--\":1516:1658   */\n      pop\n        /* \"--CODEGEN--\":1712:1714   */\n      0x20\n        /* \"--CODEGEN--\":1745:1805   */\n      tag_739\n        /* \"--CODEGEN--\":1801:1804   */\n      dup5\n        /* \"--CODEGEN--\":1792:1798   */\n      dup3\n        /* \"--CODEGEN--\":1781:1790   */\n      dup6\n        /* \"--CODEGEN--\":1777:1799   */\n      add\n        /* \"--CODEGEN--\":1745:1805   */\n      tag_710\n      jump\t// in\n    tag_739:\n        /* \"--CODEGEN--\":1738:1742   */\n      0x20\n        /* \"--CODEGEN--\":1731:1736   */\n      dup4\n        /* \"--CODEGEN--\":1727:1743   */\n      add\n        /* \"--CODEGEN--\":1720:1806   */\n      mstore\n        /* \"--CODEGEN--\":1668:1817   */\n      pop\n        /* \"--CODEGEN--\":1868:1870   */\n      0x40\n        /* \"--CODEGEN--\":1901:1961   */\n      tag_740\n        /* \"--CODEGEN--\":1957:1960   */\n      dup5\n        /* \"--CODEGEN--\":1948:1954   */\n      dup3\n        /* \"--CODEGEN--\":1937:1946   */\n      dup6\n        /* \"--CODEGEN--\":1933:1955   */\n      add\n        /* \"--CODEGEN--\":1901:1961   */\n      tag_738\n      jump\t// in\n    tag_740:\n        /* \"--CODEGEN--\":1894:1898   */\n      0x40\n        /* \"--CODEGEN--\":1887:1892   */\n      dup4\n        /* \"--CODEGEN--\":1883:1899   */\n      add\n        /* \"--CODEGEN--\":1876:1962   */\n      mstore\n        /* \"--CODEGEN--\":1827:1973   */\n      pop\n        /* \"--CODEGEN--\":2030:2032   */\n      0x60\n        /* \"--CODEGEN--\":2063:2123   */\n      tag_741\n        /* \"--CODEGEN--\":2119:2122   */\n      dup5\n        /* \"--CODEGEN--\":2110:2116   */\n      dup3\n        /* \"--CODEGEN--\":2099:2108   */\n      dup6\n        /* \"--CODEGEN--\":2095:2117   */\n      add\n        /* \"--CODEGEN--\":2063:2123   */\n      tag_738\n      jump\t// in\n    tag_741:\n        /* \"--CODEGEN--\":2056:2060   */\n      0x60\n        /* \"--CODEGEN--\":2049:2054   */\n      dup4\n        /* \"--CODEGEN--\":2045:2061   */\n      add\n        /* \"--CODEGEN--\":2038:2124   */\n      mstore\n        /* \"--CODEGEN--\":1983:2135   */\n      pop\n        /* \"--CODEGEN--\":2199:2202   */\n      0x80\n        /* \"--CODEGEN--\":2233:2293   */\n      tag_742\n        /* \"--CODEGEN--\":2289:2292   */\n      dup5\n        /* \"--CODEGEN--\":2280:2286   */\n      dup3\n        /* \"--CODEGEN--\":2269:2278   */\n      dup6\n        /* \"--CODEGEN--\":2265:2287   */\n      add\n        /* \"--CODEGEN--\":2233:2293   */\n      tag_738\n      jump\t// in\n    tag_742:\n        /* \"--CODEGEN--\":2226:2230   */\n      0x80\n        /* \"--CODEGEN--\":2219:2224   */\n      dup4\n        /* \"--CODEGEN--\":2215:2231   */\n      add\n        /* \"--CODEGEN--\":2208:2294   */\n      mstore\n        /* \"--CODEGEN--\":2145:2305   */\n      pop\n        /* \"--CODEGEN--\":2368:2371   */\n      0xa0\n        /* \"--CODEGEN--\":2402:2462   */\n      tag_743\n        /* \"--CODEGEN--\":2458:2461   */\n      dup5\n        /* \"--CODEGEN--\":2449:2455   */\n      dup3\n        /* \"--CODEGEN--\":2438:2447   */\n      dup6\n        /* \"--CODEGEN--\":2434:2456   */\n      add\n        /* \"--CODEGEN--\":2402:2462   */\n      tag_738\n      jump\t// in\n    tag_743:\n        /* \"--CODEGEN--\":2395:2399   */\n      0xa0\n        /* \"--CODEGEN--\":2388:2393   */\n      dup4\n        /* \"--CODEGEN--\":2384:2400   */\n      add\n        /* \"--CODEGEN--\":2377:2463   */\n      mstore\n        /* \"--CODEGEN--\":2315:2474   */\n      pop\n        /* \"--CODEGEN--\":2532:2535   */\n      0xc0\n        /* \"--CODEGEN--\":2566:2626   */\n      tag_744\n        /* \"--CODEGEN--\":2622:2625   */\n      dup5\n        /* \"--CODEGEN--\":2613:2619   */\n      dup3\n        /* \"--CODEGEN--\":2602:2611   */\n      dup6\n        /* \"--CODEGEN--\":2598:2620   */\n      add\n        /* \"--CODEGEN--\":2566:2626   */\n      tag_738\n      jump\t// in\n    tag_744:\n        /* \"--CODEGEN--\":2559:2563   */\n      0xc0\n        /* \"--CODEGEN--\":2552:2557   */\n      dup4\n        /* \"--CODEGEN--\":2548:2564   */\n      add\n        /* \"--CODEGEN--\":2541:2627   */\n      mstore\n        /* \"--CODEGEN--\":2484:2638   */\n      pop\n        /* \"--CODEGEN--\":2697:2700   */\n      0xe0\n        /* \"--CODEGEN--\":2731:2791   */\n      tag_745\n        /* \"--CODEGEN--\":2787:2790   */\n      dup5\n        /* \"--CODEGEN--\":2778:2784   */\n      dup3\n        /* \"--CODEGEN--\":2767:2776   */\n      dup6\n        /* \"--CODEGEN--\":2763:2785   */\n      add\n        /* \"--CODEGEN--\":2731:2791   */\n      tag_738\n      jump\t// in\n    tag_745:\n        /* \"--CODEGEN--\":2724:2728   */\n      0xe0\n        /* \"--CODEGEN--\":2717:2722   */\n      dup4\n        /* \"--CODEGEN--\":2713:2729   */\n      add\n        /* \"--CODEGEN--\":2706:2792   */\n      mstore\n        /* \"--CODEGEN--\":2648:2803   */\n      pop\n        /* \"--CODEGEN--\":1412:2813   */\n      swap3\n      swap2\n      pop\n      pop\n      jump\t// out\n        /* \"--CODEGEN--\":2820:2950   */\n    tag_725:\n      0x00\n        /* \"--CODEGEN--\":2900:2906   */\n      dup2\n        /* \"--CODEGEN--\":2887:2907   */\n      calldataload\n        /* \"--CODEGEN--\":2878:2907   */\n      swap1\n      pop\n        /* \"--CODEGEN--\":2912:2945   */\n      tag_747\n        /* \"--CODEGEN--\":2939:2944   */\n      dup2\n        /* \"--CODEGEN--\":2912:2945   */\n      tag_748\n      jump\t// in\n    tag_747:\n        /* \"--CODEGEN--\":2872:2950   */\n      swap3\n      swap2\n      pop\n      pop\n      jump\t// out\n        /* \"--CODEGEN--\":2957:3091   */\n    tag_738:\n      0x00\n        /* \"--CODEGEN--\":3041:3047   */\n      dup2\n        /* \"--CODEGEN--\":3035:3048   */\n      mload\n        /* \"--CODEGEN--\":3026:3048   */\n      swap1\n      pop\n        /* \"--CODEGEN--\":3053:3086   */\n      tag_750\n        /* \"--CODEGEN--\":3080:3085   */\n      dup2\n        /* \"--CODEGEN--\":3053:3086   */\n      tag_748\n      jump\t// in\n    tag_750:\n        /* \"--CODEGEN--\":3020:3091   */\n      swap3\n      swap2\n      pop\n      pop\n      jump\t// out\n        /* \"--CODEGEN--\":3098:3228   */\n    tag_751:\n      0x00\n        /* \"--CODEGEN--\":3180:3186   */\n      dup2\n        /* \"--CODEGEN--\":3174:3187   */\n      mload\n        /* \"--CODEGEN--\":3165:3187   */\n      swap1\n      pop\n        /* \"--CODEGEN--\":3192:3223   */\n      tag_753\n        /* \"--CODEGEN--\":3217:3222   */\n      dup2\n        /* \"--CODEGEN--\":3192:3223   */\n      tag_754\n      jump\t// in\n    tag_753:\n        /* \"--CODEGEN--\":3159:3228   */\n      swap3\n      swap2\n      pop\n      pop\n      jump\t// out\n        /* \"--CODEGEN--\":3235:3476   */\n    tag_70:\n      0x00\n        /* \"--CODEGEN--\":3339:3341   */\n      0x20\n        /* \"--CODEGEN--\":3327:3336   */\n      dup3\n        /* \"--CODEGEN--\":3318:3325   */\n      dup5\n        /* \"--CODEGEN--\":3314:3337   */\n      sub\n        /* \"--CODEGEN--\":3310:3342   */\n      slt\n        /* \"--CODEGEN--\":3307:3309   */\n      iszero\n      tag_756\n      jumpi\n        /* \"--CODEGEN--\":3355:3356   */\n      0x00\n        /* \"--CODEGEN--\":3352:3353   */\n      dup1\n        /* \"--CODEGEN--\":3345:3357   */\n      revert\n        /* \"--CODEGEN--\":3307:3309   */\n    tag_756:\n        /* \"--CODEGEN--\":3390:3391   */\n      0x00\n        /* \"--CODEGEN--\":3407:3460   */\n      tag_757\n        /* \"--CODEGEN--\":3452:3459   */\n      dup5\n        /* \"--CODEGEN--\":3443:3449   */\n      dup3\n        /* \"--CODEGEN--\":3432:3441   */\n      dup6\n        /* \"--CODEGEN--\":3428:3450   */\n      add\n        /* \"--CODEGEN--\":3407:3460   */\n      tag_706\n      jump\t// in\n    tag_757:\n        /* \"--CODEGEN--\":3397:3460   */\n      swap2\n      pop\n        /* \"--CODEGEN--\":3369:3466   */\n      pop\n        /* \"--CODEGEN--\":3301:3476   */\n      swap3\n      swap2\n      pop\n      pop\n      jump\t// out\n        /* \"--CODEGEN--\":3483:4100   */\n    tag_50:\n      0x00\n      dup1\n      0x00\n      dup1\n        /* \"--CODEGEN--\":3638:3641   */\n      0x80\n        /* \"--CODEGEN--\":3626:3635   */\n      dup6\n        /* \"--CODEGEN--\":3617:3624   */\n      dup8\n        /* \"--CODEGEN--\":3613:3636   */\n      sub\n        /* \"--CODEGEN--\":3609:3642   */\n      slt\n        /* \"--CODEGEN--\":3606:3608   */\n      iszero\n      tag_759\n      jumpi\n        /* \"--CODEGEN--\":3655:3656   */\n      0x00\n        /* \"--CODEGEN--\":3652:3653   */\n      dup1\n        /* \"--CODEGEN--\":3645:3657   */\n      revert\n        /* \"--CODEGEN--\":3606:3608   */\n    tag_759:\n        /* \"--CODEGEN--\":3690:3691   */\n      0x00\n        /* \"--CODEGEN--\":3707:3760   */\n      tag_760\n        /* \"--CODEGEN--\":3752:3759   */\n      dup8\n        /* \"--CODEGEN--\":3743:3749   */\n      dup3\n        /* \"--CODEGEN--\":3732:3741   */\n      dup9\n        /* \"--CODEGEN--\":3728:3750   */\n      add\n        /* \"--CODEGEN--\":3707:3760   */\n      tag_706\n      jump\t// in\n    tag_760:\n        /* \"--CODEGEN--\":3697:3760   */\n      swap5\n      pop\n        /* \"--CODEGEN--\":3669:3766   */\n      pop\n        /* \"--CODEGEN--\":3797:3799   */\n      0x20\n        /* \"--CODEGEN--\":3815:3868   */\n      tag_761\n        /* \"--CODEGEN--\":3860:3867   */\n      dup8\n        /* \"--CODEGEN--\":3851:3857   */\n      dup3\n        /* \"--CODEGEN--\":3840:3849   */\n      dup9\n        /* \"--CODEGEN--\":3836:3858   */\n      add\n        /* \"--CODEGEN--\":3815:3868   */\n      tag_706\n      jump\t// in\n    tag_761:\n        /* \"--CODEGEN--\":3805:3868   */\n      swap4\n      pop\n        /* \"--CODEGEN--\":3776:3874   */\n      pop\n        /* \"--CODEGEN--\":3905:3907   */\n      0x40\n        /* \"--CODEGEN--\":3923:3976   */\n      tag_762\n        /* \"--CODEGEN--\":3968:3975   */\n      dup8\n        /* \"--CODEGEN--\":3959:3965   */\n      dup3\n        /* \"--CODEGEN--\":3948:3957   */\n      dup9\n        /* \"--CODEGEN--\":3944:3966   */\n      add\n        /* \"--CODEGEN--\":3923:3976   */\n      tag_706\n      jump\t// in\n    tag_762:\n        /* \"--CODEGEN--\":3913:3976   */\n      swap3\n      pop\n        /* \"--CODEGEN--\":3884:3982   */\n      pop\n        /* \"--CODEGEN--\":4013:4015   */\n      0x60\n        /* \"--CODEGEN--\":4031:4084   */\n      tag_763\n        /* \"--CODEGEN--\":4076:4083   */\n      dup8\n        /* \"--CODEGEN--\":4067:4073   */\n      dup3\n        /* \"--CODEGEN--\":4056:4065   */\n      dup9\n        /* \"--CODEGEN--\":4052:4074   */\n      add\n        /* \"--CODEGEN--\":4031:4084   */\n      tag_706\n      jump\t// in\n    tag_763:\n        /* \"--CODEGEN--\":4021:4084   */\n      swap2\n      pop\n        /* \"--CODEGEN--\":3992:4090   */\n      pop\n        /* \"--CODEGEN--\":3600:4100   */\n      swap3\n      swap6\n      swap2\n      swap5\n      pop\n      swap3\n      pop\n      jump\t// out\n        /* \"--CODEGEN--\":4107:4348   */\n    tag_64:\n      0x00\n        /* \"--CODEGEN--\":4211:4213   */\n      0x20\n        /* \"--CODEGEN--\":4199:4208   */\n      dup3\n        /* \"--CODEGEN--\":4190:4197   */\n      dup5\n        /* \"--CODEGEN--\":4186:4209   */\n      sub\n        /* \"--CODEGEN--\":4182:4214   */\n      slt\n        /* \"--CODEGEN--\":4179:4181   */\n      iszero\n      tag_765\n      jumpi\n        /* \"--CODEGEN--\":4227:4228   */\n      0x00\n        /* \"--CODEGEN--\":4224:4225   */\n      dup1\n        /* \"--CODEGEN--\":4217:4229   */\n      revert\n        /* \"--CODEGEN--\":4179:4181   */\n    tag_765:\n        /* \"--CODEGEN--\":4262:4263   */\n      0x00\n        /* \"--CODEGEN--\":4279:4332   */\n      tag_766\n        /* \"--CODEGEN--\":4324:4331   */\n      dup5\n        /* \"--CODEGEN--\":4315:4321   */\n      dup3\n        /* \"--CODEGEN--\":4304:4313   */\n      dup6\n        /* \"--CODEGEN--\":4300:4322   */\n      add\n        /* \"--CODEGEN--\":4279:4332   */\n      tag_726\n      jump\t// in\n    tag_766:\n        /* \"--CODEGEN--\":4269:4332   */\n      swap2\n      pop\n        /* \"--CODEGEN--\":4241:4338   */\n      pop\n        /* \"--CODEGEN--\":4173:4348   */\n      swap3\n      swap2\n      pop\n      pop\n      jump\t// out\n        /* \"--CODEGEN--\":4355:4618   */\n    tag_267:\n      0x00\n        /* \"--CODEGEN--\":4470:4472   */\n      0x20\n        /* \"--CODEGEN--\":4458:4467   */\n      dup3\n        /* \"--CODEGEN--\":4449:4456   */\n      dup5\n        /* \"--CODEGEN--\":4445:4468   */\n      sub\n        /* \"--CODEGEN--\":4441:4473   */\n      slt\n        /* \"--CODEGEN--\":4438:4440   */\n      iszero\n      tag_768\n      jumpi\n        /* \"--CODEGEN--\":4486:4487   */\n      0x00\n        /* \"--CODEGEN--\":4483:4484   */\n      dup1\n        /* \"--CODEGEN--\":4476:4488   */\n      revert\n        /* \"--CODEGEN--\":4438:4440   */\n    tag_768:\n        /* \"--CODEGEN--\":4521:4522   */\n      0x00\n        /* \"--CODEGEN--\":4538:4602   */\n      tag_769\n        /* \"--CODEGEN--\":4594:4601   */\n      dup5\n        /* \"--CODEGEN--\":4585:4591   */\n      dup3\n        /* \"--CODEGEN--\":4574:4583   */\n      dup6\n        /* \"--CODEGEN--\":4570:4592   */\n      add\n        /* \"--CODEGEN--\":4538:4602   */\n      tag_730\n      jump\t// in\n    tag_769:\n        /* \"--CODEGEN--\":4528:4602   */\n      swap2\n      pop\n        /* \"--CODEGEN--\":4500:4608   */\n      pop\n        /* \"--CODEGEN--\":4432:4618   */\n      swap3\n      swap2\n      pop\n      pop\n      jump\t// out\n        /* \"--CODEGEN--\":4625:4991   */\n    tag_79:\n      0x00\n      dup1\n        /* \"--CODEGEN--\":4746:4748   */\n      0x40\n        /* \"--CODEGEN--\":4734:4743   */\n      dup4\n        /* \"--CODEGEN--\":4725:4732   */\n      dup6\n        /* \"--CODEGEN--\":4721:4744   */\n      sub\n        /* \"--CODEGEN--\":4717:4749   */\n      slt\n        /* \"--CODEGEN--\":4714:4716   */\n      iszero\n      tag_771\n      jumpi\n        /* \"--CODEGEN--\":4762:4763   */\n      0x00\n        /* \"--CODEGEN--\":4759:4760   */\n      dup1\n        /* \"--CODEGEN--\":4752:4764   */\n      revert\n        /* \"--CODEGEN--\":4714:4716   */\n    tag_771:\n        /* \"--CODEGEN--\":4797:4798   */\n      0x00\n        /* \"--CODEGEN--\":4814:4867   */\n      tag_772\n        /* \"--CODEGEN--\":4859:4866   */\n      dup6\n        /* \"--CODEGEN--\":4850:4856   */\n      dup3\n        /* \"--CODEGEN--\":4839:4848   */\n      dup7\n        /* \"--CODEGEN--\":4835:4857   */\n      add\n        /* \"--CODEGEN--\":4814:4867   */\n      tag_726\n      jump\t// in\n    tag_772:\n        /* \"--CODEGEN--\":4804:4867   */\n      swap3\n      pop\n        /* \"--CODEGEN--\":4776:4873   */\n      pop\n        /* \"--CODEGEN--\":4904:4906   */\n      0x20\n        /* \"--CODEGEN--\":4922:4975   */\n      tag_773\n        /* \"--CODEGEN--\":4967:4974   */\n      dup6\n        /* \"--CODEGEN--\":4958:4964   */\n      dup3\n        /* \"--CODEGEN--\":4947:4956   */\n      dup7\n        /* \"--CODEGEN--\":4943:4965   */\n      add\n        /* \"--CODEGEN--\":4922:4975   */\n      tag_706\n      jump\t// in\n    tag_773:\n        /* \"--CODEGEN--\":4912:4975   */\n      swap2\n      pop\n        /* \"--CODEGEN--\":4883:4981   */\n      pop\n        /* \"--CODEGEN--\":4708:4991   */\n      swap3\n      pop\n      swap3\n      swap1\n      pop\n      jump\t// out\n        /* \"--CODEGEN--\":4998:5364   */\n    tag_120:\n      0x00\n      dup1\n        /* \"--CODEGEN--\":5119:5121   */\n      0x40\n        /* \"--CODEGEN--\":5107:5116   */\n      dup4\n        /* \"--CODEGEN--\":5098:5105   */\n      dup6\n        /* \"--CODEGEN--\":5094:5117   */\n      sub\n        /* \"--CODEGEN--\":5090:5122   */\n      slt\n        /* \"--CODEGEN--\":5087:5089   */\n      iszero\n      tag_775\n      jumpi\n        /* \"--CODEGEN--\":5135:5136   */\n      0x00\n        /* \"--CODEGEN--\":5132:5133   */\n      dup1\n        /* \"--CODEGEN--\":5125:5137   */\n      revert\n        /* \"--CODEGEN--\":5087:5089   */\n    tag_775:\n        /* \"--CODEGEN--\":5170:5171   */\n      0x00\n        /* \"--CODEGEN--\":5187:5240   */\n      tag_776\n        /* \"--CODEGEN--\":5232:5239   */\n      dup6\n        /* \"--CODEGEN--\":5223:5229   */\n      dup3\n        /* \"--CODEGEN--\":5212:5221   */\n      dup7\n        /* \"--CODEGEN--\":5208:5230   */\n      add\n        /* \"--CODEGEN--\":5187:5240   */\n      tag_726\n      jump\t// in\n    tag_776:\n        /* \"--CODEGEN--\":5177:5240   */\n      swap3\n      pop\n        /* \"--CODEGEN--\":5149:5246   */\n      pop\n        /* \"--CODEGEN--\":5277:5279   */\n      0x20\n        /* \"--CODEGEN--\":5295:5348   */\n      tag_777\n        /* \"--CODEGEN--\":5340:5347   */\n      dup6\n        /* \"--CODEGEN--\":5331:5337   */\n      dup3\n        /* \"--CODEGEN--\":5320:5329   */\n      dup7\n        /* \"--CODEGEN--\":5316:5338   */\n      add\n        /* \"--CODEGEN--\":5295:5348   */\n      tag_725\n      jump\t// in\n    tag_777:\n        /* \"--CODEGEN--\":5285:5348   */\n      swap2\n      pop\n        /* \"--CODEGEN--\":5256:5354   */\n      pop\n        /* \"--CODEGEN--\":5081:5364   */\n      swap3\n      pop\n      swap3\n      swap1\n      pop\n      jump\t// out\n        /* \"--CODEGEN--\":5371:5683   */\n    tag_231:\n      0x00\n        /* \"--CODEGEN--\":5510:5513   */\n      0x0100\n        /* \"--CODEGEN--\":5498:5507   */\n      dup3\n        /* \"--CODEGEN--\":5489:5496   */\n      dup5\n        /* \"--CODEGEN--\":5485:5508   */\n      sub\n        /* \"--CODEGEN--\":5481:5514   */\n      slt\n        /* \"--CODEGEN--\":5478:5480   */\n      iszero\n      tag_779\n      jumpi\n        /* \"--CODEGEN--\":5527:5528   */\n      0x00\n        /* \"--CODEGEN--\":5524:5525   */\n      dup1\n        /* \"--CODEGEN--\":5517:5529   */\n      revert\n        /* \"--CODEGEN--\":5478:5480   */\n    tag_779:\n        /* \"--CODEGEN--\":5562:5563   */\n      0x00\n        /* \"--CODEGEN--\":5579:5667   */\n      tag_780\n        /* \"--CODEGEN--\":5659:5666   */\n      dup5\n        /* \"--CODEGEN--\":5650:5656   */\n      dup3\n        /* \"--CODEGEN--\":5639:5648   */\n      dup6\n        /* \"--CODEGEN--\":5635:5657   */\n      add\n        /* \"--CODEGEN--\":5579:5667   */\n      tag_733\n      jump\t// in\n    tag_780:\n        /* \"--CODEGEN--\":5569:5667   */\n      swap2\n      pop\n        /* \"--CODEGEN--\":5541:5673   */\n      pop\n        /* \"--CODEGEN--\":5472:5683   */\n      swap3\n      swap2\n      pop\n      pop\n      jump\t// out\n        /* \"--CODEGEN--\":5690:5931   */\n    tag_44:\n      0x00\n        /* \"--CODEGEN--\":5794:5796   */\n      0x20\n        /* \"--CODEGEN--\":5782:5791   */\n      dup3\n        /* \"--CODEGEN--\":5773:5780   */\n      dup5\n        /* \"--CODEGEN--\":5769:5792   */\n      sub\n        /* \"--CODEGEN--\":5765:5797   */\n      slt\n        /* \"--CODEGEN--\":5762:5764   */\n      iszero\n      tag_782\n      jumpi\n        /* \"--CODEGEN--\":5810:5811   */\n      0x00\n        /* \"--CODEGEN--\":5807:5808   */\n      dup1\n        /* \"--CODEGEN--\":5800:5812   */\n      revert\n        /* \"--CODEGEN--\":5762:5764   */\n    tag_782:\n        /* \"--CODEGEN--\":5845:5846   */\n      0x00\n        /* \"--CODEGEN--\":5862:5915   */\n      tag_783\n        /* \"--CODEGEN--\":5907:5914   */\n      dup5\n        /* \"--CODEGEN--\":5898:5904   */\n      dup3\n        /* \"--CODEGEN--\":5887:5896   */\n      dup6\n        /* \"--CODEGEN--\":5883:5905   */\n      add\n        /* \"--CODEGEN--\":5862:5915   */\n      tag_725\n      jump\t// in\n    tag_783:\n        /* \"--CODEGEN--\":5852:5915   */\n      swap2\n      pop\n        /* \"--CODEGEN--\":5824:5921   */\n      pop\n        /* \"--CODEGEN--\":5756:5931   */\n      swap3\n      swap2\n      pop\n      pop\n      jump\t// out\n        /* \"--CODEGEN--\":5938:6201   */\n    tag_194:\n      0x00\n        /* \"--CODEGEN--\":6053:6055   */\n      0x20\n        /* \"--CODEGEN--\":6041:6050   */\n      dup3\n        /* \"--CODEGEN--\":6032:6039   */\n      dup5\n        /* \"--CODEGEN--\":6028:6051   */\n      sub\n        /* \"--CODEGEN--\":6024:6056   */\n      slt\n        /* \"--CODEGEN--\":6021:6023   */\n      iszero\n      tag_785\n      jumpi\n        /* \"--CODEGEN--\":6069:6070   */\n      0x00\n        /* \"--CODEGEN--\":6066:6067   */\n      dup1\n        /* \"--CODEGEN--\":6059:6071   */\n      revert\n        /* \"--CODEGEN--\":6021:6023   */\n    tag_785:\n        /* \"--CODEGEN--\":6104:6105   */\n      0x00\n        /* \"--CODEGEN--\":6121:6185   */\n      tag_786\n        /* \"--CODEGEN--\":6177:6184   */\n      dup5\n        /* \"--CODEGEN--\":6168:6174   */\n      dup3\n        /* \"--CODEGEN--\":6157:6166   */\n      dup6\n        /* \"--CODEGEN--\":6153:6175   */\n      add\n        /* \"--CODEGEN--\":6121:6185   */\n      tag_738\n      jump\t// in\n    tag_786:\n        /* \"--CODEGEN--\":6111:6185   */\n      swap2\n      pop\n        /* \"--CODEGEN--\":6083:6191   */\n      pop\n        /* \"--CODEGEN--\":6015:6201   */\n      swap3\n      swap2\n      pop\n      pop\n      jump\t// out\n        /* \"--CODEGEN--\":6208:6574   */\n    tag_114:\n      0x00\n      dup1\n        /* \"--CODEGEN--\":6329:6331   */\n      0x40\n        /* \"--CODEGEN--\":6317:6326   */\n      dup4\n        /* \"--CODEGEN--\":6308:6315   */\n      dup6\n        /* \"--CODEGEN--\":6304:6327   */\n      sub\n        /* \"--CODEGEN--\":6300:6332   */\n      slt\n        /* \"--CODEGEN--\":6297:6299   */\n      iszero\n      tag_788\n      jumpi\n        /* \"--CODEGEN--\":6345:6346   */\n      0x00\n        /* \"--CODEGEN--\":6342:6343   */\n      dup1\n        /* \"--CODEGEN--\":6335:6347   */\n      revert\n        /* \"--CODEGEN--\":6297:6299   */\n    tag_788:\n        /* \"--CODEGEN--\":6380:6381   */\n      0x00\n        /* \"--CODEGEN--\":6397:6450   */\n      tag_789\n        /* \"--CODEGEN--\":6442:6449   */\n      dup6\n        /* \"--CODEGEN--\":6433:6439   */\n      dup3\n        /* \"--CODEGEN--\":6422:6431   */\n      dup7\n        /* \"--CODEGEN--\":6418:6440   */\n      add\n        /* \"--CODEGEN--\":6397:6450   */\n      tag_725\n      jump\t// in\n    tag_789:\n        /* \"--CODEGEN--\":6387:6450   */\n      swap3\n      pop\n        /* \"--CODEGEN--\":6359:6456   */\n      pop\n        /* \"--CODEGEN--\":6487:6489   */\n      0x20\n        /* \"--CODEGEN--\":6505:6558   */\n      tag_790\n        /* \"--CODEGEN--\":6550:6557   */\n      dup6\n        /* \"--CODEGEN--\":6541:6547   */\n      dup3\n        /* \"--CODEGEN--\":6530:6539   */\n      dup7\n        /* \"--CODEGEN--\":6526:6548   */\n      add\n        /* \"--CODEGEN--\":6505:6558   */\n      tag_706\n      jump\t// in\n    tag_790:\n        /* \"--CODEGEN--\":6495:6558   */\n      swap2\n      pop\n        /* \"--CODEGEN--\":6466:6564   */\n      pop\n        /* \"--CODEGEN--\":6291:6574   */\n      swap3\n      pop\n      swap3\n      swap1\n      pop\n      jump\t// out\n        /* \"--CODEGEN--\":6581:8120   */\n    tag_54:\n      0x00\n      dup1\n      0x00\n      dup1\n      0x00\n      dup1\n      0x00\n        /* \"--CODEGEN--\":6887:6890   */\n      0xe0\n        /* \"--CODEGEN--\":6875:6884   */\n      dup9\n        /* \"--CODEGEN--\":6866:6873   */\n      dup11\n        /* \"--CODEGEN--\":6862:6885   */\n      sub\n        /* \"--CODEGEN--\":6858:6891   */\n      slt\n        /* \"--CODEGEN--\":6855:6857   */\n      iszero\n      tag_792\n      jumpi\n        /* \"--CODEGEN--\":6904:6905   */\n      0x00\n        /* \"--CODEGEN--\":6901:6902   */\n      dup1\n        /* \"--CODEGEN--\":6894:6906   */\n      revert\n        /* \"--CODEGEN--\":6855:6857   */\n    tag_792:\n        /* \"--CODEGEN--\":6939:6940   */\n      0x00\n        /* \"--CODEGEN--\":6956:7009   */\n      tag_793\n        /* \"--CODEGEN--\":7001:7008   */\n      dup11\n        /* \"--CODEGEN--\":6992:6998   */\n      dup3\n        /* \"--CODEGEN--\":6981:6990   */\n      dup12\n        /* \"--CODEGEN--\":6977:6999   */\n      add\n        /* \"--CODEGEN--\":6956:7009   */\n      tag_725\n      jump\t// in\n    tag_793:\n        /* \"--CODEGEN--\":6946:7009   */\n      swap8\n      pop\n        /* \"--CODEGEN--\":6918:7015   */\n      pop\n        /* \"--CODEGEN--\":7074:7076   */\n      0x20\n        /* \"--CODEGEN--\":7063:7072   */\n      dup9\n        /* \"--CODEGEN--\":7059:7077   */\n      add\n        /* \"--CODEGEN--\":7046:7078   */\n      calldataload\n        /* \"--CODEGEN--\":7098:7116   */\n      0xffffffffffffffff\n        /* \"--CODEGEN--\":7090:7096   */\n      dup2\n        /* \"--CODEGEN--\":7087:7117   */\n      gt\n        /* \"--CODEGEN--\":7084:7086   */\n      iszero\n      tag_794\n      jumpi\n        /* \"--CODEGEN--\":7130:7131   */\n      0x00\n        /* \"--CODEGEN--\":7127:7128   */\n      dup1\n        /* \"--CODEGEN--\":7120:7132   */\n      revert\n        /* \"--CODEGEN--\":7084:7086   */\n    tag_794:\n        /* \"--CODEGEN--\":7150:7228   */\n      tag_795\n        /* \"--CODEGEN--\":7220:7227   */\n      dup11\n        /* \"--CODEGEN--\":7211:7217   */\n      dup3\n        /* \"--CODEGEN--\":7200:7209   */\n      dup12\n        /* \"--CODEGEN--\":7196:7218   */\n      add\n        /* \"--CODEGEN--\":7150:7228   */\n      tag_713\n      jump\t// in\n    tag_795:\n        /* \"--CODEGEN--\":7140:7228   */\n      swap7\n      pop\n        /* \"--CODEGEN--\":7025:7234   */\n      pop\n        /* \"--CODEGEN--\":7293:7295   */\n      0x40\n        /* \"--CODEGEN--\":7282:7291   */\n      dup9\n        /* \"--CODEGEN--\":7278:7296   */\n      add\n        /* \"--CODEGEN--\":7265:7297   */\n      calldataload\n        /* \"--CODEGEN--\":7317:7335   */\n      0xffffffffffffffff\n        /* \"--CODEGEN--\":7309:7315   */\n      dup2\n        /* \"--CODEGEN--\":7306:7336   */\n      gt\n        /* \"--CODEGEN--\":7303:7305   */\n      iszero\n      tag_796\n      jumpi\n        /* \"--CODEGEN--\":7349:7350   */\n      0x00\n        /* \"--CODEGEN--\":7346:7347   */\n      dup1\n        /* \"--CODEGEN--\":7339:7351   */\n      revert\n        /* \"--CODEGEN--\":7303:7305   */\n    tag_796:\n        /* \"--CODEGEN--\":7369:7447   */\n      tag_797\n        /* \"--CODEGEN--\":7439:7446   */\n      dup11\n        /* \"--CODEGEN--\":7430:7436   */\n      dup3\n        /* \"--CODEGEN--\":7419:7428   */\n      dup12\n        /* \"--CODEGEN--\":7415:7437   */\n      add\n        /* \"--CODEGEN--\":7369:7447   */\n      tag_713\n      jump\t// in\n    tag_797:\n        /* \"--CODEGEN--\":7359:7447   */\n      swap6\n      pop\n        /* \"--CODEGEN--\":7244:7453   */\n      pop\n        /* \"--CODEGEN--\":7512:7514   */\n      0x60\n        /* \"--CODEGEN--\":7501:7510   */\n      dup9\n        /* \"--CODEGEN--\":7497:7515   */\n      add\n        /* \"--CODEGEN--\":7484:7516   */\n      calldataload\n        /* \"--CODEGEN--\":7536:7554   */\n      0xffffffffffffffff\n        /* \"--CODEGEN--\":7528:7534   */\n      dup2\n        /* \"--CODEGEN--\":7525:7555   */\n      gt\n        /* \"--CODEGEN--\":7522:7524   */\n      iszero\n      tag_798\n      jumpi\n        /* \"--CODEGEN--\":7568:7569   */\n      0x00\n        /* \"--CODEGEN--\":7565:7566   */\n      dup1\n        /* \"--CODEGEN--\":7558:7570   */\n      revert\n        /* \"--CODEGEN--\":7522:7524   */\n    tag_798:\n        /* \"--CODEGEN--\":7588:7666   */\n      tag_799\n        /* \"--CODEGEN--\":7658:7665   */\n      dup11\n        /* \"--CODEGEN--\":7649:7655   */\n      dup3\n        /* \"--CODEGEN--\":7638:7647   */\n      dup12\n        /* \"--CODEGEN--\":7634:7656   */\n      add\n        /* \"--CODEGEN--\":7588:7666   */\n      tag_713\n      jump\t// in\n    tag_799:\n        /* \"--CODEGEN--\":7578:7666   */\n      swap5\n      pop\n        /* \"--CODEGEN--\":7463:7672   */\n      pop\n        /* \"--CODEGEN--\":7731:7734   */\n      0x80\n        /* \"--CODEGEN--\":7720:7729   */\n      dup9\n        /* \"--CODEGEN--\":7716:7735   */\n      add\n        /* \"--CODEGEN--\":7703:7736   */\n      calldataload\n        /* \"--CODEGEN--\":7756:7774   */\n      0xffffffffffffffff\n        /* \"--CODEGEN--\":7748:7754   */\n      dup2\n        /* \"--CODEGEN--\":7745:7775   */\n      gt\n        /* \"--CODEGEN--\":7742:7744   */\n      iszero\n      tag_800\n      jumpi\n        /* \"--CODEGEN--\":7788:7789   */\n      0x00\n        /* \"--CODEGEN--\":7785:7786   */\n      dup1\n        /* \"--CODEGEN--\":7778:7790   */\n      revert\n        /* \"--CODEGEN--\":7742:7744   */\n    tag_800:\n        /* \"--CODEGEN--\":7808:7886   */\n      tag_801\n        /* \"--CODEGEN--\":7878:7885   */\n      dup11\n        /* \"--CODEGEN--\":7869:7875   */\n      dup3\n        /* \"--CODEGEN--\":7858:7867   */\n      dup12\n        /* \"--CODEGEN--\":7854:7876   */\n      add\n        /* \"--CODEGEN--\":7808:7886   */\n      tag_713\n      jump\t// in\n    tag_801:\n        /* \"--CODEGEN--\":7798:7886   */\n      swap4\n      pop\n        /* \"--CODEGEN--\":7682:7892   */\n      pop\n        /* \"--CODEGEN--\":7923:7926   */\n      0xa0\n        /* \"--CODEGEN--\":7942:7995   */\n      tag_802\n        /* \"--CODEGEN--\":7987:7994   */\n      dup11\n        /* \"--CODEGEN--\":7978:7984   */\n      dup3\n        /* \"--CODEGEN--\":7967:7976   */\n      dup12\n        /* \"--CODEGEN--\":7963:7985   */\n      add\n        /* \"--CODEGEN--\":7942:7995   */\n      tag_725\n      jump\t// in\n    tag_802:\n        /* \"--CODEGEN--\":7932:7995   */\n      swap3\n      pop\n        /* \"--CODEGEN--\":7902:8001   */\n      pop\n        /* \"--CODEGEN--\":8032:8035   */\n      0xc0\n        /* \"--CODEGEN--\":8051:8104   */\n      tag_803\n        /* \"--CODEGEN--\":8096:8103   */\n      dup11\n        /* \"--CODEGEN--\":8087:8093   */\n      dup3\n        /* \"--CODEGEN--\":8076:8085   */\n      dup12\n        /* \"--CODEGEN--\":8072:8094   */\n      add\n        /* \"--CODEGEN--\":8051:8104   */\n      tag_725\n      jump\t// in\n    tag_803:\n        /* \"--CODEGEN--\":8041:8104   */\n      swap2\n      pop\n        /* \"--CODEGEN--\":8011:8110   */\n      pop\n        /* \"--CODEGEN--\":6849:8120   */\n      swap3\n      swap6\n      swap9\n      swap2\n      swap5\n      swap8\n      pop\n      swap3\n      swap6\n      pop\n      jump\t// out\n        /* \"--CODEGEN--\":8127:8493   */\n    tag_91:\n      0x00\n      dup1\n        /* \"--CODEGEN--\":8248:8250   */\n      0x40\n        /* \"--CODEGEN--\":8236:8245   */\n      dup4\n        /* \"--CODEGEN--\":8227:8234   */\n      dup6\n        /* \"--CODEGEN--\":8223:8246   */\n      sub\n        /* \"--CODEGEN--\":8219:8251   */\n      slt\n        /* \"--CODEGEN--\":8216:8218   */\n      iszero\n      tag_805\n      jumpi\n        /* \"--CODEGEN--\":8264:8265   */\n      0x00\n        /* \"--CODEGEN--\":8261:8262   */\n      dup1\n        /* \"--CODEGEN--\":8254:8266   */\n      revert\n        /* \"--CODEGEN--\":8216:8218   */\n    tag_805:\n        /* \"--CODEGEN--\":8299:8300   */\n      0x00\n        /* \"--CODEGEN--\":8316:8369   */\n      tag_806\n        /* \"--CODEGEN--\":8361:8368   */\n      dup6\n        /* \"--CODEGEN--\":8352:8358   */\n      dup3\n        /* \"--CODEGEN--\":8341:8350   */\n      dup7\n        /* \"--CODEGEN--\":8337:8359   */\n      add\n        /* \"--CODEGEN--\":8316:8369   */\n      tag_725\n      jump\t// in\n    tag_806:\n        /* \"--CODEGEN--\":8306:8369   */\n      swap3\n      pop\n        /* \"--CODEGEN--\":8278:8375   */\n      pop\n        /* \"--CODEGEN--\":8406:8408   */\n      0x20\n        /* \"--CODEGEN--\":8424:8477   */\n      tag_807\n        /* \"--CODEGEN--\":8469:8476   */\n      dup6\n        /* \"--CODEGEN--\":8460:8466   */\n      dup3\n        /* \"--CODEGEN--\":8449:8458   */\n      dup7\n        /* \"--CODEGEN--\":8445:8467   */\n      add\n        /* \"--CODEGEN--\":8424:8477   */\n      tag_725\n      jump\t// in\n    tag_807:\n        /* \"--CODEGEN--\":8414:8477   */\n      swap2\n      pop\n        /* \"--CODEGEN--\":8385:8483   */\n      pop\n        /* \"--CODEGEN--\":8210:8493   */\n      swap3\n      pop\n      swap3\n      swap1\n      pop\n      jump\t// out\n        /* \"--CODEGEN--\":8500:9127   */\n    tag_103:\n      0x00\n      dup1\n      0x00\n        /* \"--CODEGEN--\":8663:8665   */\n      0x60\n        /* \"--CODEGEN--\":8651:8660   */\n      dup5\n        /* \"--CODEGEN--\":8642:8649   */\n      dup7\n        /* \"--CODEGEN--\":8638:8661   */\n      sub\n        /* \"--CODEGEN--\":8634:8666   */\n      slt\n        /* \"--CODEGEN--\":8631:8633   */\n      iszero\n      tag_809\n      jumpi\n        /* \"--CODEGEN--\":8679:8680   */\n      0x00\n        /* \"--CODEGEN--\":8676:8677   */\n      dup1\n        /* \"--CODEGEN--\":8669:8681   */\n      revert\n        /* \"--CODEGEN--\":8631:8633   */\n    tag_809:\n        /* \"--CODEGEN--\":8714:8715   */\n      0x00\n        /* \"--CODEGEN--\":8731:8784   */\n      tag_810\n        /* \"--CODEGEN--\":8776:8783   */\n      dup7\n        /* \"--CODEGEN--\":8767:8773   */\n      dup3\n        /* \"--CODEGEN--\":8756:8765   */\n      dup8\n        /* \"--CODEGEN--\":8752:8774   */\n      add\n        /* \"--CODEGEN--\":8731:8784   */\n      tag_725\n      jump\t// in\n    tag_810:\n        /* \"--CODEGEN--\":8721:8784   */\n      swap4\n      pop\n        /* \"--CODEGEN--\":8693:8790   */\n      pop\n        /* \"--CODEGEN--\":8821:8823   */\n      0x20\n        /* \"--CODEGEN--\":8839:8892   */\n      tag_811\n        /* \"--CODEGEN--\":8884:8891   */\n      dup7\n        /* \"--CODEGEN--\":8875:8881   */\n      dup3\n        /* \"--CODEGEN--\":8864:8873   */\n      dup8\n        /* \"--CODEGEN--\":8860:8882   */\n      add\n        /* \"--CODEGEN--\":8839:8892   */\n      tag_725\n      jump\t// in\n    tag_811:\n        /* \"--CODEGEN--\":8829:8892   */\n      swap3\n      pop\n        /* \"--CODEGEN--\":8800:8898   */\n      pop\n        /* \"--CODEGEN--\":8957:8959   */\n      0x40\n        /* \"--CODEGEN--\":8946:8955   */\n      dup5\n        /* \"--CODEGEN--\":8942:8960   */\n      add\n        /* \"--CODEGEN--\":8929:8961   */\n      calldataload\n        /* \"--CODEGEN--\":8981:8999   */\n      0xffffffffffffffff\n        /* \"--CODEGEN--\":8973:8979   */\n      dup2\n        /* \"--CODEGEN--\":8970:9000   */\n      gt\n        /* \"--CODEGEN--\":8967:8969   */\n      iszero\n      tag_812\n      jumpi\n        /* \"--CODEGEN--\":9013:9014   */\n      0x00\n        /* \"--CODEGEN--\":9010:9011   */\n      dup1\n        /* \"--CODEGEN--\":9003:9015   */\n      revert\n        /* \"--CODEGEN--\":8967:8969   */\n    tag_812:\n        /* \"--CODEGEN--\":9033:9111   */\n      tag_813\n        /* \"--CODEGEN--\":9103:9110   */\n      dup7\n        /* \"--CODEGEN--\":9094:9100   */\n      dup3\n        /* \"--CODEGEN--\":9083:9092   */\n      dup8\n        /* \"--CODEGEN--\":9079:9101   */\n      add\n        /* \"--CODEGEN--\":9033:9111   */\n      tag_713\n      jump\t// in\n    tag_813:\n        /* \"--CODEGEN--\":9023:9111   */\n      swap2\n      pop\n        /* \"--CODEGEN--\":8908:9117   */\n      pop\n        /* \"--CODEGEN--\":8625:9127   */\n      swap3\n      pop\n      swap3\n      pop\n      swap3\n      jump\t// out\n        /* \"--CODEGEN--\":9134:9625   */\n    tag_58:\n      0x00\n      dup1\n      0x00\n        /* \"--CODEGEN--\":9272:9274   */\n      0x60\n        /* \"--CODEGEN--\":9260:9269   */\n      dup5\n        /* \"--CODEGEN--\":9251:9258   */\n      dup7\n        /* \"--CODEGEN--\":9247:9270   */\n      sub\n        /* \"--CODEGEN--\":9243:9275   */\n      slt\n        /* \"--CODEGEN--\":9240:9242   */\n      iszero\n      tag_815\n      jumpi\n        /* \"--CODEGEN--\":9288:9289   */\n      0x00\n        /* \"--CODEGEN--\":9285:9286   */\n      dup1\n        /* \"--CODEGEN--\":9278:9290   */\n      revert\n        /* \"--CODEGEN--\":9240:9242   */\n    tag_815:\n        /* \"--CODEGEN--\":9323:9324   */\n      0x00\n        /* \"--CODEGEN--\":9340:9393   */\n      tag_816\n        /* \"--CODEGEN--\":9385:9392   */\n      dup7\n        /* \"--CODEGEN--\":9376:9382   */\n      dup3\n        /* \"--CODEGEN--\":9365:9374   */\n      dup8\n        /* \"--CODEGEN--\":9361:9383   */\n      add\n        /* \"--CODEGEN--\":9340:9393   */\n      tag_725\n      jump\t// in\n    tag_816:\n        /* \"--CODEGEN--\":9330:9393   */\n      swap4\n      pop\n        /* \"--CODEGEN--\":9302:9399   */\n      pop\n        /* \"--CODEGEN--\":9430:9432   */\n      0x20\n        /* \"--CODEGEN--\":9448:9501   */\n      tag_817\n        /* \"--CODEGEN--\":9493:9500   */\n      dup7\n        /* \"--CODEGEN--\":9484:9490   */\n      dup3\n        /* \"--CODEGEN--\":9473:9482   */\n      dup8\n        /* \"--CODEGEN--\":9469:9491   */\n      add\n        /* \"--CODEGEN--\":9448:9501   */\n      tag_725\n      jump\t// in\n    tag_817:\n        /* \"--CODEGEN--\":9438:9501   */\n      swap3\n      pop\n        /* \"--CODEGEN--\":9409:9507   */\n      pop\n        /* \"--CODEGEN--\":9538:9540   */\n      0x40\n        /* \"--CODEGEN--\":9556:9609   */\n      tag_818\n        /* \"--CODEGEN--\":9601:9608   */\n      dup7\n        /* \"--CODEGEN--\":9592:9598   */\n      dup3\n        /* \"--CODEGEN--\":9581:9590   */\n      dup8\n        /* \"--CODEGEN--\":9577:9599   */\n      add\n        /* \"--CODEGEN--\":9556:9609   */\n      tag_725\n      jump\t// in\n    tag_818:\n        /* \"--CODEGEN--\":9546:9609   */\n      swap2\n      pop\n        /* \"--CODEGEN--\":9517:9615   */\n      pop\n        /* \"--CODEGEN--\":9234:9625   */\n      swap3\n      pop\n      swap3\n      pop\n      swap3\n      jump\t// out\n        /* \"--CODEGEN--\":9632:9891   */\n    tag_202:\n      0x00\n        /* \"--CODEGEN--\":9745:9747   */\n      0x20\n        /* \"--CODEGEN--\":9733:9742   */\n      dup3\n        /* \"--CODEGEN--\":9724:9731   */\n      dup5\n        /* \"--CODEGEN--\":9720:9743   */\n      sub\n        /* \"--CODEGEN--\":9716:9748   */\n      slt\n        /* \"--CODEGEN--\":9713:9715   */\n      iszero\n      tag_820\n      jumpi\n        /* \"--CODEGEN--\":9761:9762   */\n      0x00\n        /* \"--CODEGEN--\":9758:9759   */\n      dup1\n        /* \"--CODEGEN--\":9751:9763   */\n      revert\n        /* \"--CODEGEN--\":9713:9715   */\n    tag_820:\n        /* \"--CODEGEN--\":9796:9797   */\n      0x00\n        /* \"--CODEGEN--\":9813:9875   */\n      tag_821\n        /* \"--CODEGEN--\":9867:9874   */\n      dup5\n        /* \"--CODEGEN--\":9858:9864   */\n      dup3\n        /* \"--CODEGEN--\":9847:9856   */\n      dup6\n        /* \"--CODEGEN--\":9843:9865   */\n      add\n        /* \"--CODEGEN--\":9813:9875   */\n      tag_751\n      jump\t// in\n    tag_821:\n        /* \"--CODEGEN--\":9803:9875   */\n      swap2\n      pop\n        /* \"--CODEGEN--\":9775:9881   */\n      pop\n        /* \"--CODEGEN--\":9707:9891   */\n      swap3\n      swap2\n      pop\n      pop\n      jump\t// out\n        /* \"--CODEGEN--\":9899:10072   */\n    tag_822:\n      0x00\n        /* \"--CODEGEN--\":9986:10032   */\n      tag_824\n        /* \"--CODEGEN--\":10028:10031   */\n      dup4\n        /* \"--CODEGEN--\":10020:10026   */\n      dup4\n        /* \"--CODEGEN--\":9986:10032   */\n      tag_825\n      jump\t// in\n    tag_824:\n        /* \"--CODEGEN--\":10061:10065   */\n      0x20\n        /* \"--CODEGEN--\":10056:10059   */\n      dup4\n        /* \"--CODEGEN--\":10052:10066   */\n      add\n        /* \"--CODEGEN--\":10038:10066   */\n      swap1\n      pop\n        /* \"--CODEGEN--\":9979:10072   */\n      swap3\n      swap2\n      pop\n      pop\n      jump\t// out\n        /* \"--CODEGEN--\":10080:10222   */\n    tag_826:\n        /* \"--CODEGEN--\":10171:10216   */\n      tag_828\n        /* \"--CODEGEN--\":10210:10215   */\n      dup2\n        /* \"--CODEGEN--\":10171:10216   */\n      tag_829\n      jump\t// in\n    tag_828:\n        /* \"--CODEGEN--\":10166:10169   */\n      dup3\n        /* \"--CODEGEN--\":10159:10217   */\n      mstore\n        /* \"--CODEGEN--\":10153:10222   */\n      pop\n      pop\n      jump\t// out\n        /* \"--CODEGEN--\":10229:10342   */\n    tag_830:\n        /* \"--CODEGEN--\":10312:10336   */\n      tag_832\n        /* \"--CODEGEN--\":10330:10335   */\n      dup2\n        /* \"--CODEGEN--\":10312:10336   */\n      tag_833\n      jump\t// in\n    tag_832:\n        /* \"--CODEGEN--\":10307:10310   */\n      dup3\n        /* \"--CODEGEN--\":10300:10337   */\n      mstore\n        /* \"--CODEGEN--\":10294:10342   */\n      pop\n      pop\n      jump\t// out\n        /* \"--CODEGEN--\":10380:11050   */\n    tag_834:\n      0x00\n        /* \"--CODEGEN--\":10515:10569   */\n      tag_836\n        /* \"--CODEGEN--\":10563:10568   */\n      dup3\n        /* \"--CODEGEN--\":10515:10569   */\n      tag_837\n      jump\t// in\n    tag_836:\n        /* \"--CODEGEN--\":10582:10658   */\n      tag_838\n        /* \"--CODEGEN--\":10651:10657   */\n      dup2\n        /* \"--CODEGEN--\":10646:10649   */\n      dup6\n        /* \"--CODEGEN--\":10582:10658   */\n      tag_839\n      jump\t// in\n    tag_838:\n        /* \"--CODEGEN--\":10575:10658   */\n      swap4\n      pop\n        /* \"--CODEGEN--\":10679:10735   */\n      tag_840\n        /* \"--CODEGEN--\":10729:10734   */\n      dup4\n        /* \"--CODEGEN--\":10679:10735   */\n      tag_841\n      jump\t// in\n    tag_840:\n        /* \"--CODEGEN--\":10755:10762   */\n      dup1\n        /* \"--CODEGEN--\":10783:10784   */\n      0x00\n        /* \"--CODEGEN--\":10768:11028   */\n    tag_842:\n        /* \"--CODEGEN--\":10793:10799   */\n      dup4\n        /* \"--CODEGEN--\":10790:10791   */\n      dup2\n        /* \"--CODEGEN--\":10787:10800   */\n      lt\n        /* \"--CODEGEN--\":10768:11028   */\n      iszero\n      tag_844\n      jumpi\n        /* \"--CODEGEN--\":10860:10866   */\n      dup2\n        /* \"--CODEGEN--\":10854:10867   */\n      mload\n        /* \"--CODEGEN--\":10881:10944   */\n      tag_845\n        /* \"--CODEGEN--\":10940:10943   */\n      dup9\n        /* \"--CODEGEN--\":10925:10938   */\n      dup3\n        /* \"--CODEGEN--\":10881:10944   */\n      tag_822\n      jump\t// in\n    tag_845:\n        /* \"--CODEGEN--\":10874:10944   */\n      swap8\n      pop\n        /* \"--CODEGEN--\":10961:11021   */\n      tag_846\n        /* \"--CODEGEN--\":11014:11020   */\n      dup4\n        /* \"--CODEGEN--\":10961:11021   */\n      tag_847\n      jump\t// in\n    tag_846:\n        /* \"--CODEGEN--\":10951:11021   */\n      swap3\n      pop\n        /* \"--CODEGEN--\":10825:11028   */\n      pop\n        /* \"--CODEGEN--\":10815:10816   */\n      0x01\n        /* \"--CODEGEN--\":10812:10813   */\n      dup2\n        /* \"--CODEGEN--\":10808:10817   */\n      add\n        /* \"--CODEGEN--\":10803:10817   */\n      swap1\n      pop\n        /* \"--CODEGEN--\":10768:11028   */\n      jump(tag_842)\n    tag_844:\n        /* \"--CODEGEN--\":10772:10786   */\n      pop\n        /* \"--CODEGEN--\":11041:11044   */\n      dup6\n        /* \"--CODEGEN--\":11034:11044   */\n      swap4\n      pop\n        /* \"--CODEGEN--\":10494:11050   */\n      pop\n      pop\n      pop\n      swap3\n      swap2\n      pop\n      pop\n      jump\t// out\n        /* \"--CODEGEN--\":11089:11779   */\n    tag_848:\n      0x00\n        /* \"--CODEGEN--\":11234:11288   */\n      tag_850\n        /* \"--CODEGEN--\":11282:11287   */\n      dup3\n        /* \"--CODEGEN--\":11234:11288   */\n      tag_837\n      jump\t// in\n    tag_850:\n        /* \"--CODEGEN--\":11301:11387   */\n      tag_851\n        /* \"--CODEGEN--\":11380:11386   */\n      dup2\n        /* \"--CODEGEN--\":11375:11378   */\n      dup6\n        /* \"--CODEGEN--\":11301:11387   */\n      tag_852\n      jump\t// in\n    tag_851:\n        /* \"--CODEGEN--\":11294:11387   */\n      swap4\n      pop\n        /* \"--CODEGEN--\":11408:11464   */\n      tag_853\n        /* \"--CODEGEN--\":11458:11463   */\n      dup4\n        /* \"--CODEGEN--\":11408:11464   */\n      tag_841\n      jump\t// in\n    tag_853:\n        /* \"--CODEGEN--\":11484:11491   */\n      dup1\n        /* \"--CODEGEN--\":11512:11513   */\n      0x00\n        /* \"--CODEGEN--\":11497:11757   */\n    tag_854:\n        /* \"--CODEGEN--\":11522:11528   */\n      dup4\n        /* \"--CODEGEN--\":11519:11520   */\n      dup2\n        /* \"--CODEGEN--\":11516:11529   */\n      lt\n        /* \"--CODEGEN--\":11497:11757   */\n      iszero\n      tag_856\n      jumpi\n        /* \"--CODEGEN--\":11589:11595   */\n      dup2\n        /* \"--CODEGEN--\":11583:11596   */\n      mload\n        /* \"--CODEGEN--\":11610:11673   */\n      tag_857\n        /* \"--CODEGEN--\":11669:11672   */\n      dup9\n        /* \"--CODEGEN--\":11654:11667   */\n      dup3\n        /* \"--CODEGEN--\":11610:11673   */\n      tag_822\n      jump\t// in\n    tag_857:\n        /* \"--CODEGEN--\":11603:11673   */\n      swap8\n      pop\n        /* \"--CODEGEN--\":11690:11750   */\n      tag_858\n        /* \"--CODEGEN--\":11743:11749   */\n      dup4\n        /* \"--CODEGEN--\":11690:11750   */\n      tag_847\n      jump\t// in\n    tag_858:\n        /* \"--CODEGEN--\":11680:11750   */\n      swap3\n      pop\n        /* \"--CODEGEN--\":11554:11757   */\n      pop\n        /* \"--CODEGEN--\":11544:11545   */\n      0x01\n        /* \"--CODEGEN--\":11541:11542   */\n      dup2\n        /* \"--CODEGEN--\":11537:11546   */\n      add\n        /* \"--CODEGEN--\":11532:11546   */\n      swap1\n      pop\n        /* \"--CODEGEN--\":11497:11757   */\n      jump(tag_854)\n    tag_856:\n        /* \"--CODEGEN--\":11501:11515   */\n      pop\n        /* \"--CODEGEN--\":11770:11773   */\n      dup6\n        /* \"--CODEGEN--\":11763:11773   */\n      swap4\n      pop\n        /* \"--CODEGEN--\":11213:11779   */\n      pop\n      pop\n      pop\n      swap3\n      swap2\n      pop\n      pop\n      jump\t// out\n        /* \"--CODEGEN--\":11818:12527   */\n    tag_859:\n      0x00\n        /* \"--CODEGEN--\":11960:12011   */\n      tag_861\n        /* \"--CODEGEN--\":12005:12010   */\n      dup3\n        /* \"--CODEGEN--\":11960:12011   */\n      tag_862\n      jump\t// in\n    tag_861:\n        /* \"--CODEGEN--\":12024:12110   */\n      tag_863\n        /* \"--CODEGEN--\":12103:12109   */\n      dup2\n        /* \"--CODEGEN--\":12098:12101   */\n      dup6\n        /* \"--CODEGEN--\":12024:12110   */\n      tag_852\n      jump\t// in\n    tag_863:\n        /* \"--CODEGEN--\":12017:12110   */\n      swap4\n      pop\n        /* \"--CODEGEN--\":12131:12184   */\n      tag_864\n        /* \"--CODEGEN--\":12178:12183   */\n      dup4\n        /* \"--CODEGEN--\":12131:12184   */\n      tag_865\n      jump\t// in\n    tag_864:\n        /* \"--CODEGEN--\":12204:12211   */\n      dup1\n        /* \"--CODEGEN--\":12232:12233   */\n      0x00\n        /* \"--CODEGEN--\":12217:12505   */\n    tag_866:\n        /* \"--CODEGEN--\":12242:12248   */\n      dup4\n        /* \"--CODEGEN--\":12239:12240   */\n      dup2\n        /* \"--CODEGEN--\":12236:12249   */\n      lt\n        /* \"--CODEGEN--\":12217:12505   */\n      iszero\n      tag_868\n      jumpi\n        /* \"--CODEGEN--\":12303:12347   */\n      tag_869\n        /* \"--CODEGEN--\":12340:12346   */\n      dup3\n        /* \"--CODEGEN--\":12303:12347   */\n      tag_870\n      jump\t// in\n    tag_869:\n        /* \"--CODEGEN--\":12361:12424   */\n      tag_871\n        /* \"--CODEGEN--\":12420:12423   */\n      dup9\n        /* \"--CODEGEN--\":12405:12418   */\n      dup3\n        /* \"--CODEGEN--\":12361:12424   */\n      tag_822\n      jump\t// in\n    tag_871:\n        /* \"--CODEGEN--\":12354:12424   */\n      swap8\n      pop\n        /* \"--CODEGEN--\":12441:12498   */\n      tag_872\n        /* \"--CODEGEN--\":12491:12497   */\n      dup4\n        /* \"--CODEGEN--\":12441:12498   */\n      tag_873\n      jump\t// in\n    tag_872:\n        /* \"--CODEGEN--\":12431:12498   */\n      swap3\n      pop\n        /* \"--CODEGEN--\":12274:12505   */\n      pop\n        /* \"--CODEGEN--\":12264:12265   */\n      0x01\n        /* \"--CODEGEN--\":12261:12262   */\n      dup2\n        /* \"--CODEGEN--\":12257:12266   */\n      add\n        /* \"--CODEGEN--\":12252:12266   */\n      swap1\n      pop\n        /* \"--CODEGEN--\":12217:12505   */\n      jump(tag_866)\n    tag_868:\n        /* \"--CODEGEN--\":12221:12235   */\n      pop\n        /* \"--CODEGEN--\":12518:12521   */\n      dup6\n        /* \"--CODEGEN--\":12511:12521   */\n      swap4\n      pop\n        /* \"--CODEGEN--\":11939:12527   */\n      pop\n      pop\n      pop\n      swap3\n      swap2\n      pop\n      pop\n      jump\t// out\n        /* \"--CODEGEN--\":12535:12629   */\n    tag_874:\n        /* \"--CODEGEN--\":12602:12623   */\n      tag_876\n        /* \"--CODEGEN--\":12617:12622   */\n      dup2\n        /* \"--CODEGEN--\":12602:12623   */\n      tag_877\n      jump\t// in\n    tag_876:\n        /* \"--CODEGEN--\":12597:12600   */\n      dup3\n        /* \"--CODEGEN--\":12590:12624   */\n      mstore\n        /* \"--CODEGEN--\":12584:12629   */\n      pop\n      pop\n      jump\t// out\n        /* \"--CODEGEN--\":12636:12740   */\n    tag_878:\n        /* \"--CODEGEN--\":12713:12734   */\n      tag_880\n        /* \"--CODEGEN--\":12728:12733   */\n      dup2\n        /* \"--CODEGEN--\":12713:12734   */\n      tag_877\n      jump\t// in\n    tag_880:\n        /* \"--CODEGEN--\":12708:12711   */\n      dup3\n        /* \"--CODEGEN--\":12701:12735   */\n      mstore\n        /* \"--CODEGEN--\":12695:12740   */\n      pop\n      pop\n      jump\t// out\n        /* \"--CODEGEN--\":12747:12860   */\n    tag_881:\n        /* \"--CODEGEN--\":12830:12854   */\n      tag_883\n        /* \"--CODEGEN--\":12848:12853   */\n      dup2\n        /* \"--CODEGEN--\":12830:12854   */\n      tag_884\n      jump\t// in\n    tag_883:\n        /* \"--CODEGEN--\":12825:12828   */\n      dup3\n        /* \"--CODEGEN--\":12818:12855   */\n      mstore\n        /* \"--CODEGEN--\":12812:12860   */\n      pop\n      pop\n      jump\t// out\n        /* \"--CODEGEN--\":12867:12988   */\n    tag_885:\n        /* \"--CODEGEN--\":12958:12982   */\n      tag_887\n        /* \"--CODEGEN--\":12976:12981   */\n      dup2\n        /* \"--CODEGEN--\":12958:12982   */\n      tag_884\n      jump\t// in\n    tag_887:\n        /* \"--CODEGEN--\":12953:12956   */\n      dup3\n        /* \"--CODEGEN--\":12946:12983   */\n      mstore\n        /* \"--CODEGEN--\":12940:12988   */\n      pop\n      pop\n      jump\t// out\n        /* \"--CODEGEN--\":12995:13161   */\n    tag_888:\n        /* \"--CODEGEN--\":13098:13155   */\n      tag_890\n        /* \"--CODEGEN--\":13149:13154   */\n      dup2\n        /* \"--CODEGEN--\":13098:13155   */\n      tag_891\n      jump\t// in\n    tag_890:\n        /* \"--CODEGEN--\":13093:13096   */\n      dup3\n        /* \"--CODEGEN--\":13086:13156   */\n      mstore\n        /* \"--CODEGEN--\":13080:13161   */\n      pop\n      pop\n      jump\t// out\n        /* \"--CODEGEN--\":13168:13338   */\n    tag_892:\n        /* \"--CODEGEN--\":13273:13332   */\n      tag_894\n        /* \"--CODEGEN--\":13326:13331   */\n      dup2\n        /* \"--CODEGEN--\":13273:13332   */\n      tag_895\n      jump\t// in\n    tag_894:\n        /* \"--CODEGEN--\":13268:13271   */\n      dup3\n        /* \"--CODEGEN--\":13261:13333   */\n      mstore\n        /* \"--CODEGEN--\":13255:13338   */\n      pop\n      pop\n      jump\t// out\n        /* \"--CODEGEN--\":13345:13515   */\n    tag_896:\n        /* \"--CODEGEN--\":13450:13509   */\n      tag_898\n        /* \"--CODEGEN--\":13503:13508   */\n      dup2\n        /* \"--CODEGEN--\":13450:13509   */\n      tag_899\n      jump\t// in\n    tag_898:\n        /* \"--CODEGEN--\":13445:13448   */\n      dup3\n        /* \"--CODEGEN--\":13438:13510   */\n      mstore\n        /* \"--CODEGEN--\":13432:13515   */\n      pop\n      pop\n      jump\t// out\n        /* \"--CODEGEN--\":13522:13690   */\n    tag_900:\n        /* \"--CODEGEN--\":13626:13684   */\n      tag_902\n        /* \"--CODEGEN--\":13678:13683   */\n      dup2\n        /* \"--CODEGEN--\":13626:13684   */\n      tag_903\n      jump\t// in\n    tag_902:\n        /* \"--CODEGEN--\":13621:13624   */\n      dup3\n        /* \"--CODEGEN--\":13614:13685   */\n      mstore\n        /* \"--CODEGEN--\":13608:13690   */\n      pop\n      pop\n      jump\t// out\n        /* \"--CODEGEN--\":13697:13845   */\n    tag_904:\n        /* \"--CODEGEN--\":13795:13839   */\n      tag_906\n        /* \"--CODEGEN--\":13833:13838   */\n      dup2\n        /* \"--CODEGEN--\":13795:13839   */\n      tag_907\n      jump\t// in\n    tag_906:\n        /* \"--CODEGEN--\":13790:13793   */\n      dup3\n        /* \"--CODEGEN--\":13783:13840   */\n      mstore\n        /* \"--CODEGEN--\":13777:13845   */\n      pop\n      pop\n      jump\t// out\n        /* \"--CODEGEN--\":13852:14199   */\n    tag_908:\n      0x00\n        /* \"--CODEGEN--\":13964:14003   */\n      tag_910\n        /* \"--CODEGEN--\":13997:14002   */\n      dup3\n        /* \"--CODEGEN--\":13964:14003   */\n      tag_911\n      jump\t// in\n    tag_910:\n        /* \"--CODEGEN--\":14015:14086   */\n      tag_912\n        /* \"--CODEGEN--\":14079:14085   */\n      dup2\n        /* \"--CODEGEN--\":14074:14077   */\n      dup6\n        /* \"--CODEGEN--\":14015:14086   */\n      tag_913\n      jump\t// in\n    tag_912:\n        /* \"--CODEGEN--\":14008:14086   */\n      swap4\n      pop\n        /* \"--CODEGEN--\":14091:14143   */\n      tag_914\n        /* \"--CODEGEN--\":14136:14142   */\n      dup2\n        /* \"--CODEGEN--\":14131:14134   */\n      dup6\n        /* \"--CODEGEN--\":14124:14128   */\n      0x20\n        /* \"--CODEGEN--\":14117:14122   */\n      dup7\n        /* \"--CODEGEN--\":14113:14129   */\n      add\n        /* \"--CODEGEN--\":14091:14143   */\n      tag_915\n      jump\t// in\n    tag_914:\n        /* \"--CODEGEN--\":14164:14193   */\n      tag_916\n        /* \"--CODEGEN--\":14186:14192   */\n      dup2\n        /* \"--CODEGEN--\":14164:14193   */\n      tag_917\n      jump\t// in\n    tag_916:\n        /* \"--CODEGEN--\":14159:14162   */\n      dup5\n        /* \"--CODEGEN--\":14155:14194   */\n      add\n        /* \"--CODEGEN--\":14148:14194   */\n      swap2\n      pop\n        /* \"--CODEGEN--\":13944:14199   */\n      pop\n      swap3\n      swap2\n      pop\n      pop\n      jump\t// out\n        /* \"--CODEGEN--\":14207:14578   */\n    tag_918:\n      0x00\n        /* \"--CODEGEN--\":14367:14434   */\n      tag_920\n        /* \"--CODEGEN--\":14431:14433   */\n      0x22\n        /* \"--CODEGEN--\":14426:14429   */\n      dup4\n        /* \"--CODEGEN--\":14367:14434   */\n      tag_913\n      jump\t// in\n    tag_920:\n        /* \"--CODEGEN--\":14360:14434   */\n      swap2\n      pop\n        /* \"--CODEGEN--\":14467:14501   */\n      0x456e756d657261626c655365743a20696e646578206f7574206f6620626f756e\n        /* \"--CODEGEN--\":14463:14464   */\n      0x00\n        /* \"--CODEGEN--\":14458:14461   */\n      dup4\n        /* \"--CODEGEN--\":14454:14465   */\n      add\n        /* \"--CODEGEN--\":14447:14502   */\n      mstore\n        /* \"--CODEGEN--\":14536:14540   */\n      0x6473000000000000000000000000000000000000000000000000000000000000\n        /* \"--CODEGEN--\":14531:14533   */\n      0x20\n        /* \"--CODEGEN--\":14526:14529   */\n      dup4\n        /* \"--CODEGEN--\":14522:14534   */\n      add\n        /* \"--CODEGEN--\":14515:14541   */\n      mstore\n        /* \"--CODEGEN--\":14569:14571   */\n      0x40\n        /* \"--CODEGEN--\":14564:14567   */\n      dup3\n        /* \"--CODEGEN--\":14560:14572   */\n      add\n        /* \"--CODEGEN--\":14553:14572   */\n      swap1\n      pop\n        /* \"--CODEGEN--\":14353:14578   */\n      swap2\n      swap1\n      pop\n      jump\t// out\n        /* \"--CODEGEN--\":14587:14971   */\n    tag_921:\n      0x00\n        /* \"--CODEGEN--\":14747:14814   */\n      tag_923\n        /* \"--CODEGEN--\":14811:14813   */\n      0x2f\n        /* \"--CODEGEN--\":14806:14809   */\n      dup4\n        /* \"--CODEGEN--\":14747:14814   */\n      tag_913\n      jump\t// in\n    tag_923:\n        /* \"--CODEGEN--\":14740:14814   */\n      swap2\n      pop\n        /* \"--CODEGEN--\":14847:14881   */\n      0x416363657373436f6e74726f6c3a2073656e646572206d75737420626520616e\n        /* \"--CODEGEN--\":14843:14844   */\n      0x00\n        /* \"--CODEGEN--\":14838:14841   */\n      dup4\n        /* \"--CODEGEN--\":14834:14845   */\n      add\n        /* \"--CODEGEN--\":14827:14882   */\n      mstore\n        /* \"--CODEGEN--\":14916:14933   */\n      0x2061646d696e20746f206772616e740000000000000000000000000000000000\n        /* \"--CODEGEN--\":14911:14913   */\n      0x20\n        /* \"--CODEGEN--\":14906:14909   */\n      dup4\n        /* \"--CODEGEN--\":14902:14914   */\n      add\n        /* \"--CODEGEN--\":14895:14934   */\n      mstore\n        /* \"--CODEGEN--\":14962:14964   */\n      0x40\n        /* \"--CODEGEN--\":14957:14960   */\n      dup3\n        /* \"--CODEGEN--\":14953:14965   */\n      add\n        /* \"--CODEGEN--\":14946:14965   */\n      swap1\n      pop\n        /* \"--CODEGEN--\":14733:14971   */\n      swap2\n      swap1\n      pop\n      jump\t// out\n        /* \"--CODEGEN--\":14980:15358   */\n    tag_924:\n      0x00\n        /* \"--CODEGEN--\":15140:15207   */\n      tag_926\n        /* \"--CODEGEN--\":15204:15206   */\n      0x29\n        /* \"--CODEGEN--\":15199:15202   */\n      dup4\n        /* \"--CODEGEN--\":15140:15207   */\n      tag_913\n      jump\t// in\n    tag_926:\n        /* \"--CODEGEN--\":15133:15207   */\n      swap2\n      pop\n        /* \"--CODEGEN--\":15240:15274   */\n      0x736f727465645b695d206973206e6f742067726561746572207468616e206c61\n        /* \"--CODEGEN--\":15236:15237   */\n      0x00\n        /* \"--CODEGEN--\":15231:15234   */\n      dup4\n        /* \"--CODEGEN--\":15227:15238   */\n      add\n        /* \"--CODEGEN--\":15220:15275   */\n      mstore\n        /* \"--CODEGEN--\":15309:15320   */\n      0x7374566973697465640000000000000000000000000000000000000000000000\n        /* \"--CODEGEN--\":15304:15306   */\n      0x20\n        /* \"--CODEGEN--\":15299:15302   */\n      dup4\n        /* \"--CODEGEN--\":15295:15307   */\n      add\n        /* \"--CODEGEN--\":15288:15321   */\n      mstore\n        /* \"--CODEGEN--\":15349:15351   */\n      0x40\n        /* \"--CODEGEN--\":15344:15347   */\n      dup3\n        /* \"--CODEGEN--\":15340:15352   */\n      add\n        /* \"--CODEGEN--\":15333:15352   */\n      swap1\n      pop\n        /* \"--CODEGEN--\":15126:15358   */\n      swap2\n      swap1\n      pop\n      jump\t// out\n        /* \"--CODEGEN--\":15367:15694   */\n    tag_927:\n      0x00\n        /* \"--CODEGEN--\":15527:15594   */\n      tag_929\n        /* \"--CODEGEN--\":15591:15593   */\n      0x1b\n        /* \"--CODEGEN--\":15586:15589   */\n      dup4\n        /* \"--CODEGEN--\":15527:15594   */\n      tag_913\n      jump\t// in\n    tag_929:\n        /* \"--CODEGEN--\":15520:15594   */\n      swap2\n      pop\n        /* \"--CODEGEN--\":15627:15656   */\n      0x536166654d6174683a206164646974696f6e206f766572666c6f770000000000\n        /* \"--CODEGEN--\":15623:15624   */\n      0x00\n        /* \"--CODEGEN--\":15618:15621   */\n      dup4\n        /* \"--CODEGEN--\":15614:15625   */\n      add\n        /* \"--CODEGEN--\":15607:15657   */\n      mstore\n        /* \"--CODEGEN--\":15685:15687   */\n      0x20\n        /* \"--CODEGEN--\":15680:15683   */\n      dup3\n        /* \"--CODEGEN--\":15676:15688   */\n      add\n        /* \"--CODEGEN--\":15669:15688   */\n      swap1\n      pop\n        /* \"--CODEGEN--\":15513:15694   */\n      swap2\n      swap1\n      pop\n      jump\t// out\n        /* \"--CODEGEN--\":15703:16014   */\n    tag_930:\n      0x00\n        /* \"--CODEGEN--\":15863:15930   */\n      tag_932\n        /* \"--CODEGEN--\":15927:15929   */\n      0x0b\n        /* \"--CODEGEN--\":15922:15925   */\n      dup4\n        /* \"--CODEGEN--\":15863:15930   */\n      tag_913\n      jump\t// in\n    tag_932:\n        /* \"--CODEGEN--\":15856:15930   */\n      swap2\n      pop\n        /* \"--CODEGEN--\":15963:15976   */\n      0x6e6f7420656c6563746564000000000000000000000000000000000000000000\n        /* \"--CODEGEN--\":15959:15960   */\n      0x00\n        /* \"--CODEGEN--\":15954:15957   */\n      dup4\n        /* \"--CODEGEN--\":15950:15961   */\n      add\n        /* \"--CODEGEN--\":15943:15977   */\n      mstore\n        /* \"--CODEGEN--\":16005:16007   */\n      0x20\n        /* \"--CODEGEN--\":16000:16003   */\n      dup3\n        /* \"--CODEGEN--\":15996:16008   */\n      add\n        /* \"--CODEGEN--\":15989:16008   */\n      swap1\n      pop\n        /* \"--CODEGEN--\":15849:16014   */\n      swap2\n      swap1\n      pop\n      jump\t// out\n        /* \"--CODEGEN--\":16023:16408   */\n    tag_933:\n      0x00\n        /* \"--CODEGEN--\":16183:16250   */\n      tag_935\n        /* \"--CODEGEN--\":16247:16249   */\n      0x30\n        /* \"--CODEGEN--\":16242:16245   */\n      dup4\n        /* \"--CODEGEN--\":16183:16250   */\n      tag_913\n      jump\t// in\n    tag_935:\n        /* \"--CODEGEN--\":16176:16250   */\n      swap2\n      pop\n        /* \"--CODEGEN--\":16283:16317   */\n      0x416363657373436f6e74726f6c3a2073656e646572206d75737420626520616e\n        /* \"--CODEGEN--\":16279:16280   */\n      0x00\n        /* \"--CODEGEN--\":16274:16277   */\n      dup4\n        /* \"--CODEGEN--\":16270:16281   */\n      add\n        /* \"--CODEGEN--\":16263:16318   */\n      mstore\n        /* \"--CODEGEN--\":16352:16370   */\n      0x2061646d696e20746f207265766f6b6500000000000000000000000000000000\n        /* \"--CODEGEN--\":16347:16349   */\n      0x20\n        /* \"--CODEGEN--\":16342:16345   */\n      dup4\n        /* \"--CODEGEN--\":16338:16350   */\n      add\n        /* \"--CODEGEN--\":16331:16371   */\n      mstore\n        /* \"--CODEGEN--\":16399:16401   */\n      0x40\n        /* \"--CODEGEN--\":16394:16397   */\n      dup3\n        /* \"--CODEGEN--\":16390:16402   */\n      add\n        /* \"--CODEGEN--\":16383:16402   */\n      swap1\n      pop\n        /* \"--CODEGEN--\":16169:16408   */\n      swap2\n      swap1\n      pop\n      jump\t// out\n        /* \"--CODEGEN--\":16417:16757   */\n    tag_936:\n      0x00\n        /* \"--CODEGEN--\":16595:16679   */\n      tag_938\n        /* \"--CODEGEN--\":16677:16678   */\n      0x06\n        /* \"--CODEGEN--\":16672:16675   */\n      dup4\n        /* \"--CODEGEN--\":16595:16679   */\n      tag_939\n      jump\t// in\n    tag_938:\n        /* \"--CODEGEN--\":16588:16679   */\n      swap2\n      pop\n        /* \"--CODEGEN--\":16712:16720   */\n      0x5772697465720000000000000000000000000000000000000000000000000000\n        /* \"--CODEGEN--\":16708:16709   */\n      0x00\n        /* \"--CODEGEN--\":16703:16706   */\n      dup4\n        /* \"--CODEGEN--\":16699:16710   */\n      add\n        /* \"--CODEGEN--\":16692:16721   */\n      mstore\n        /* \"--CODEGEN--\":16749:16750   */\n      0x06\n        /* \"--CODEGEN--\":16744:16747   */\n      dup3\n        /* \"--CODEGEN--\":16740:16751   */\n      add\n        /* \"--CODEGEN--\":16733:16751   */\n      swap1\n      pop\n        /* \"--CODEGEN--\":16581:16757   */\n      swap2\n      swap1\n      pop\n      jump\t// out\n        /* \"--CODEGEN--\":16766:17136   */\n    tag_940:\n      0x00\n        /* \"--CODEGEN--\":16926:16993   */\n      tag_942\n        /* \"--CODEGEN--\":16990:16992   */\n      0x21\n        /* \"--CODEGEN--\":16985:16988   */\n      dup4\n        /* \"--CODEGEN--\":16926:16993   */\n      tag_913\n      jump\t// in\n    tag_942:\n        /* \"--CODEGEN--\":16919:16993   */\n      swap2\n      pop\n        /* \"--CODEGEN--\":17026:17060   */\n      0x536166654d6174683a206d756c7469706c69636174696f6e206f766572666c6f\n        /* \"--CODEGEN--\":17022:17023   */\n      0x00\n        /* \"--CODEGEN--\":17017:17020   */\n      dup4\n        /* \"--CODEGEN--\":17013:17024   */\n      add\n        /* \"--CODEGEN--\":17006:17061   */\n      mstore\n        /* \"--CODEGEN--\":17095:17098   */\n      0x7700000000000000000000000000000000000000000000000000000000000000\n        /* \"--CODEGEN--\":17090:17092   */\n      0x20\n        /* \"--CODEGEN--\":17085:17088   */\n      dup4\n        /* \"--CODEGEN--\":17081:17093   */\n      add\n        /* \"--CODEGEN--\":17074:17099   */\n      mstore\n        /* \"--CODEGEN--\":17127:17129   */\n      0x40\n        /* \"--CODEGEN--\":17122:17125   */\n      dup3\n        /* \"--CODEGEN--\":17118:17130   */\n      add\n        /* \"--CODEGEN--\":17111:17130   */\n      swap1\n      pop\n        /* \"--CODEGEN--\":16912:17136   */\n      swap2\n      swap1\n      pop\n      jump\t// out\n        /* \"--CODEGEN--\":17145:17460   */\n    tag_943:\n      0x00\n        /* \"--CODEGEN--\":17305:17372   */\n      tag_945\n        /* \"--CODEGEN--\":17369:17371   */\n      0x0f\n        /* \"--CODEGEN--\":17364:17367   */\n      dup4\n        /* \"--CODEGEN--\":17305:17372   */\n      tag_913\n      jump\t// in\n    tag_945:\n        /* \"--CODEGEN--\":17298:17372   */\n      swap2\n      pop\n        /* \"--CODEGEN--\":17405:17422   */\n      0x696e636f72726563742065706f63680000000000000000000000000000000000\n        /* \"--CODEGEN--\":17401:17402   */\n      0x00\n        /* \"--CODEGEN--\":17396:17399   */\n      dup4\n        /* \"--CODEGEN--\":17392:17403   */\n      add\n        /* \"--CODEGEN--\":17385:17423   */\n      mstore\n        /* \"--CODEGEN--\":17451:17453   */\n      0x20\n        /* \"--CODEGEN--\":17446:17449   */\n      dup3\n        /* \"--CODEGEN--\":17442:17454   */\n      add\n        /* \"--CODEGEN--\":17435:17454   */\n      swap1\n      pop\n        /* \"--CODEGEN--\":17291:17460   */\n      swap2\n      swap1\n      pop\n      jump\t// out\n        /* \"--CODEGEN--\":17469:17789   */\n    tag_946:\n      0x00\n        /* \"--CODEGEN--\":17629:17696   */\n      tag_948\n        /* \"--CODEGEN--\":17693:17695   */\n      0x14\n        /* \"--CODEGEN--\":17688:17691   */\n      dup4\n        /* \"--CODEGEN--\":17629:17696   */\n      tag_913\n      jump\t// in\n    tag_948:\n        /* \"--CODEGEN--\":17622:17696   */\n      swap2\n      pop\n        /* \"--CODEGEN--\":17729:17751   */\n      0x41737365744964206e6f74206d61746368696e67000000000000000000000000\n        /* \"--CODEGEN--\":17725:17726   */\n      0x00\n        /* \"--CODEGEN--\":17720:17723   */\n      dup4\n        /* \"--CODEGEN--\":17716:17727   */\n      add\n        /* \"--CODEGEN--\":17709:17752   */\n      mstore\n        /* \"--CODEGEN--\":17780:17782   */\n      0x20\n        /* \"--CODEGEN--\":17775:17778   */\n      dup3\n        /* \"--CODEGEN--\":17771:17783   */\n      add\n        /* \"--CODEGEN--\":17764:17783   */\n      swap1\n      pop\n        /* \"--CODEGEN--\":17615:17789   */\n      swap2\n      swap1\n      pop\n      jump\t// out\n        /* \"--CODEGEN--\":17798:18190   */\n    tag_949:\n      0x00\n        /* \"--CODEGEN--\":17958:18025   */\n      tag_951\n        /* \"--CODEGEN--\":18022:18024   */\n      0x37\n        /* \"--CODEGEN--\":18017:18020   */\n      dup4\n        /* \"--CODEGEN--\":17958:18025   */\n      tag_913\n      jump\t// in\n    tag_951:\n        /* \"--CODEGEN--\":17951:18025   */\n      swap2\n      pop\n        /* \"--CODEGEN--\":18058:18092   */\n      0x50726f706f73656420416c7465726e61746520626c6f636b206973206964656e\n        /* \"--CODEGEN--\":18054:18055   */\n      0x00\n        /* \"--CODEGEN--\":18049:18052   */\n      dup4\n        /* \"--CODEGEN--\":18045:18056   */\n      add\n        /* \"--CODEGEN--\":18038:18093   */\n      mstore\n        /* \"--CODEGEN--\":18127:18152   */\n      0x746963616c20746f2070726f706f73656420626c6f636b000000000000000000\n        /* \"--CODEGEN--\":18122:18124   */\n      0x20\n        /* \"--CODEGEN--\":18117:18120   */\n      dup4\n        /* \"--CODEGEN--\":18113:18125   */\n      add\n        /* \"--CODEGEN--\":18106:18153   */\n      mstore\n        /* \"--CODEGEN--\":18181:18183   */\n      0x40\n        /* \"--CODEGEN--\":18176:18179   */\n      dup3\n        /* \"--CODEGEN--\":18172:18184   */\n      add\n        /* \"--CODEGEN--\":18165:18184   */\n      swap1\n      pop\n        /* \"--CODEGEN--\":17944:18190   */\n      swap2\n      swap1\n      pop\n      jump\t// out\n        /* \"--CODEGEN--\":18199:18524   */\n    tag_952:\n      0x00\n        /* \"--CODEGEN--\":18359:18426   */\n      tag_954\n        /* \"--CODEGEN--\":18423:18425   */\n      0x19\n        /* \"--CODEGEN--\":18418:18421   */\n      dup4\n        /* \"--CODEGEN--\":18359:18426   */\n      tag_913\n      jump\t// in\n    tag_954:\n        /* \"--CODEGEN--\":18352:18426   */\n      swap2\n      pop\n        /* \"--CODEGEN--\":18459:18486   */\n      0x7374616b652062656c6f77206d696e696d756d207374616b6500000000000000\n        /* \"--CODEGEN--\":18455:18456   */\n      0x00\n        /* \"--CODEGEN--\":18450:18453   */\n      dup4\n        /* \"--CODEGEN--\":18446:18457   */\n      add\n        /* \"--CODEGEN--\":18439:18487   */\n      mstore\n        /* \"--CODEGEN--\":18515:18517   */\n      0x20\n        /* \"--CODEGEN--\":18510:18513   */\n      dup3\n        /* \"--CODEGEN--\":18506:18518   */\n      add\n        /* \"--CODEGEN--\":18499:18518   */\n      swap1\n      pop\n        /* \"--CODEGEN--\":18345:18524   */\n      swap2\n      swap1\n      pop\n      jump\t// out\n        /* \"--CODEGEN--\":18533:18903   */\n    tag_955:\n      0x00\n        /* \"--CODEGEN--\":18693:18760   */\n      tag_957\n        /* \"--CODEGEN--\":18757:18759   */\n      0x21\n        /* \"--CODEGEN--\":18752:18755   */\n      dup4\n        /* \"--CODEGEN--\":18693:18760   */\n      tag_913\n      jump\t// in\n    tag_957:\n        /* \"--CODEGEN--\":18686:18760   */\n      swap2\n      pop\n        /* \"--CODEGEN--\":18793:18827   */\n      0x546f74616c207374616b652072657665616c656420646f65736e74206d617463\n        /* \"--CODEGEN--\":18789:18790   */\n      0x00\n        /* \"--CODEGEN--\":18784:18787   */\n      dup4\n        /* \"--CODEGEN--\":18780:18791   */\n      add\n        /* \"--CODEGEN--\":18773:18828   */\n      mstore\n        /* \"--CODEGEN--\":18862:18865   */\n      0x6800000000000000000000000000000000000000000000000000000000000000\n        /* \"--CODEGEN--\":18857:18859   */\n      0x20\n        /* \"--CODEGEN--\":18852:18855   */\n      dup4\n        /* \"--CODEGEN--\":18848:18860   */\n      add\n        /* \"--CODEGEN--\":18841:18866   */\n      mstore\n        /* \"--CODEGEN--\":18894:18896   */\n      0x40\n        /* \"--CODEGEN--\":18889:18892   */\n      dup3\n        /* \"--CODEGEN--\":18885:18897   */\n      add\n        /* \"--CODEGEN--\":18878:18897   */\n      swap1\n      pop\n        /* \"--CODEGEN--\":18679:18903   */\n      swap2\n      swap1\n      pop\n      jump\t// out\n        /* \"--CODEGEN--\":18912:19227   */\n    tag_958:\n      0x00\n        /* \"--CODEGEN--\":19072:19139   */\n      tag_960\n        /* \"--CODEGEN--\":19136:19138   */\n      0x0f\n        /* \"--CODEGEN--\":19131:19134   */\n      dup4\n        /* \"--CODEGEN--\":19072:19139   */\n      tag_913\n      jump\t// in\n    tag_960:\n        /* \"--CODEGEN--\":19065:19139   */\n      swap2\n      pop\n        /* \"--CODEGEN--\":19172:19189   */\n      0x696e636f72726563742073746174650000000000000000000000000000000000\n        /* \"--CODEGEN--\":19168:19169   */\n      0x00\n        /* \"--CODEGEN--\":19163:19166   */\n      dup4\n        /* \"--CODEGEN--\":19159:19170   */\n      add\n        /* \"--CODEGEN--\":19152:19190   */\n      mstore\n        /* \"--CODEGEN--\":19218:19220   */\n      0x20\n        /* \"--CODEGEN--\":19213:19216   */\n      dup3\n        /* \"--CODEGEN--\":19209:19221   */\n      add\n        /* \"--CODEGEN--\":19202:19221   */\n      swap1\n      pop\n        /* \"--CODEGEN--\":19058:19227   */\n      swap2\n      swap1\n      pop\n      jump\t// out\n        /* \"--CODEGEN--\":19236:19621   */\n    tag_961:\n      0x00\n        /* \"--CODEGEN--\":19396:19463   */\n      tag_963\n        /* \"--CODEGEN--\":19460:19462   */\n      0x30\n        /* \"--CODEGEN--\":19455:19458   */\n      dup4\n        /* \"--CODEGEN--\":19396:19463   */\n      tag_913\n      jump\t// in\n    tag_963:\n        /* \"--CODEGEN--\":19389:19463   */\n      swap2\n      pop\n        /* \"--CODEGEN--\":19496:19530   */\n      0x577269746572526f6c653a2063616c6c657220646f6573206e6f742068617665\n        /* \"--CODEGEN--\":19492:19493   */\n      0x00\n        /* \"--CODEGEN--\":19487:19490   */\n      dup4\n        /* \"--CODEGEN--\":19483:19494   */\n      add\n        /* \"--CODEGEN--\":19476:19531   */\n      mstore\n        /* \"--CODEGEN--\":19565:19583   */\n      0x207468652057726974657220726f6c6500000000000000000000000000000000\n        /* \"--CODEGEN--\":19560:19562   */\n      0x20\n        /* \"--CODEGEN--\":19555:19558   */\n      dup4\n        /* \"--CODEGEN--\":19551:19563   */\n      add\n        /* \"--CODEGEN--\":19544:19584   */\n      mstore\n        /* \"--CODEGEN--\":19612:19614   */\n      0x40\n        /* \"--CODEGEN--\":19607:19610   */\n      dup3\n        /* \"--CODEGEN--\":19603:19615   */\n      add\n        /* \"--CODEGEN--\":19596:19615   */\n      swap1\n      pop\n        /* \"--CODEGEN--\":19382:19621   */\n      swap2\n      swap1\n      pop\n      jump\t// out\n        /* \"--CODEGEN--\":19630:20014   */\n    tag_964:\n      0x00\n        /* \"--CODEGEN--\":19790:19857   */\n      tag_966\n        /* \"--CODEGEN--\":19854:19856   */\n      0x2f\n        /* \"--CODEGEN--\":19849:19852   */\n      dup4\n        /* \"--CODEGEN--\":19790:19857   */\n      tag_913\n      jump\t// in\n    tag_966:\n        /* \"--CODEGEN--\":19783:19857   */\n      swap2\n      pop\n        /* \"--CODEGEN--\":19890:19924   */\n      0x416363657373436f6e74726f6c3a2063616e206f6e6c792072656e6f756e6365\n        /* \"--CODEGEN--\":19886:19887   */\n      0x00\n        /* \"--CODEGEN--\":19881:19884   */\n      dup4\n        /* \"--CODEGEN--\":19877:19888   */\n      add\n        /* \"--CODEGEN--\":19870:19925   */\n      mstore\n        /* \"--CODEGEN--\":19959:19976   */\n      0x20726f6c657320666f722073656c660000000000000000000000000000000000\n        /* \"--CODEGEN--\":19954:19956   */\n      0x20\n        /* \"--CODEGEN--\":19949:19952   */\n      dup4\n        /* \"--CODEGEN--\":19945:19957   */\n      add\n        /* \"--CODEGEN--\":19938:19977   */\n      mstore\n        /* \"--CODEGEN--\":20005:20007   */\n      0x40\n        /* \"--CODEGEN--\":20000:20003   */\n      dup3\n        /* \"--CODEGEN--\":19996:20008   */\n      add\n        /* \"--CODEGEN--\":19989:20008   */\n      swap1\n      pop\n        /* \"--CODEGEN--\":19776:20014   */\n      swap2\n      swap1\n      pop\n      jump\t// out\n        /* \"--CODEGEN--\":20073:21950   */\n    tag_967:\n      0x00\n        /* \"--CODEGEN--\":20220:20226   */\n      0x0100\n        /* \"--CODEGEN--\":20215:20218   */\n      dup4\n        /* \"--CODEGEN--\":20211:20227   */\n      add\n        /* \"--CODEGEN--\":20311:20315   */\n      0x00\n        /* \"--CODEGEN--\":20304:20309   */\n      dup4\n        /* \"--CODEGEN--\":20300:20316   */\n      add\n        /* \"--CODEGEN--\":20294:20317   */\n      mload\n        /* \"--CODEGEN--\":20323:20386   */\n      tag_969\n        /* \"--CODEGEN--\":20380:20384   */\n      0x00\n        /* \"--CODEGEN--\":20375:20378   */\n      dup7\n        /* \"--CODEGEN--\":20371:20385   */\n      add\n        /* \"--CODEGEN--\":20357:20369   */\n      dup3\n        /* \"--CODEGEN--\":20323:20386   */\n      tag_825\n      jump\t// in\n    tag_969:\n        /* \"--CODEGEN--\":20242:20392   */\n      pop\n        /* \"--CODEGEN--\":20467:20471   */\n      0x20\n        /* \"--CODEGEN--\":20460:20465   */\n      dup4\n        /* \"--CODEGEN--\":20456:20472   */\n      add\n        /* \"--CODEGEN--\":20450:20473   */\n      mload\n        /* \"--CODEGEN--\":20519:20522   */\n      dup5\n        /* \"--CODEGEN--\":20513:20517   */\n      dup3\n        /* \"--CODEGEN--\":20509:20523   */\n      sub\n        /* \"--CODEGEN--\":20502:20506   */\n      0x20\n        /* \"--CODEGEN--\":20497:20500   */\n      dup7\n        /* \"--CODEGEN--\":20493:20507   */\n      add\n        /* \"--CODEGEN--\":20486:20524   */\n      mstore\n        /* \"--CODEGEN--\":20539:20642   */\n      tag_970\n        /* \"--CODEGEN--\":20637:20641   */\n      dup3\n        /* \"--CODEGEN--\":20623:20635   */\n      dup3\n        /* \"--CODEGEN--\":20539:20642   */\n      tag_834\n      jump\t// in\n    tag_970:\n        /* \"--CODEGEN--\":20531:20642   */\n      swap2\n      pop\n        /* \"--CODEGEN--\":20402:20654   */\n      pop\n        /* \"--CODEGEN--\":20730:20734   */\n      0x40\n        /* \"--CODEGEN--\":20723:20728   */\n      dup4\n        /* \"--CODEGEN--\":20719:20735   */\n      add\n        /* \"--CODEGEN--\":20713:20736   */\n      mload\n        /* \"--CODEGEN--\":20782:20785   */\n      dup5\n        /* \"--CODEGEN--\":20776:20780   */\n      dup3\n        /* \"--CODEGEN--\":20772:20786   */\n      sub\n        /* \"--CODEGEN--\":20765:20769   */\n      0x40\n        /* \"--CODEGEN--\":20760:20763   */\n      dup7\n        /* \"--CODEGEN--\":20756:20770   */\n      add\n        /* \"--CODEGEN--\":20749:20787   */\n      mstore\n        /* \"--CODEGEN--\":20802:20905   */\n      tag_971\n        /* \"--CODEGEN--\":20900:20904   */\n      dup3\n        /* \"--CODEGEN--\":20886:20898   */\n      dup3\n        /* \"--CODEGEN--\":20802:20905   */\n      tag_834\n      jump\t// in\n    tag_971:\n        /* \"--CODEGEN--\":20794:20905   */\n      swap2\n      pop\n        /* \"--CODEGEN--\":20664:20917   */\n      pop\n        /* \"--CODEGEN--\":20998:21002   */\n      0x60\n        /* \"--CODEGEN--\":20991:20996   */\n      dup4\n        /* \"--CODEGEN--\":20987:21003   */\n      add\n        /* \"--CODEGEN--\":20981:21004   */\n      mload\n        /* \"--CODEGEN--\":21050:21053   */\n      dup5\n        /* \"--CODEGEN--\":21044:21048   */\n      dup3\n        /* \"--CODEGEN--\":21040:21054   */\n      sub\n        /* \"--CODEGEN--\":21033:21037   */\n      0x60\n        /* \"--CODEGEN--\":21028:21031   */\n      dup7\n        /* \"--CODEGEN--\":21024:21038   */\n      add\n        /* \"--CODEGEN--\":21017:21055   */\n      mstore\n        /* \"--CODEGEN--\":21070:21173   */\n      tag_972\n        /* \"--CODEGEN--\":21168:21172   */\n      dup3\n        /* \"--CODEGEN--\":21154:21166   */\n      dup3\n        /* \"--CODEGEN--\":21070:21173   */\n      tag_834\n      jump\t// in\n    tag_972:\n        /* \"--CODEGEN--\":21062:21173   */\n      swap2\n      pop\n        /* \"--CODEGEN--\":20927:21185   */\n      pop\n        /* \"--CODEGEN--\":21267:21271   */\n      0x80\n        /* \"--CODEGEN--\":21260:21265   */\n      dup4\n        /* \"--CODEGEN--\":21256:21272   */\n      add\n        /* \"--CODEGEN--\":21250:21273   */\n      mload\n        /* \"--CODEGEN--\":21319:21322   */\n      dup5\n        /* \"--CODEGEN--\":21313:21317   */\n      dup3\n        /* \"--CODEGEN--\":21309:21323   */\n      sub\n        /* \"--CODEGEN--\":21302:21306   */\n      0x80\n        /* \"--CODEGEN--\":21297:21300   */\n      dup7\n        /* \"--CODEGEN--\":21293:21307   */\n      add\n        /* \"--CODEGEN--\":21286:21324   */\n      mstore\n        /* \"--CODEGEN--\":21339:21442   */\n      tag_973\n        /* \"--CODEGEN--\":21437:21441   */\n      dup3\n        /* \"--CODEGEN--\":21423:21435   */\n      dup3\n        /* \"--CODEGEN--\":21339:21442   */\n      tag_834\n      jump\t// in\n    tag_973:\n        /* \"--CODEGEN--\":21331:21442   */\n      swap2\n      pop\n        /* \"--CODEGEN--\":21195:21454   */\n      pop\n        /* \"--CODEGEN--\":21532:21536   */\n      0xa0\n        /* \"--CODEGEN--\":21525:21530   */\n      dup4\n        /* \"--CODEGEN--\":21521:21537   */\n      add\n        /* \"--CODEGEN--\":21515:21538   */\n      mload\n        /* \"--CODEGEN--\":21544:21607   */\n      tag_974\n        /* \"--CODEGEN--\":21601:21605   */\n      0xa0\n        /* \"--CODEGEN--\":21596:21599   */\n      dup7\n        /* \"--CODEGEN--\":21592:21606   */\n      add\n        /* \"--CODEGEN--\":21578:21590   */\n      dup3\n        /* \"--CODEGEN--\":21544:21607   */\n      tag_825\n      jump\t// in\n    tag_974:\n        /* \"--CODEGEN--\":21464:21613   */\n      pop\n        /* \"--CODEGEN--\":21694:21698   */\n      0xc0\n        /* \"--CODEGEN--\":21687:21692   */\n      dup4\n        /* \"--CODEGEN--\":21683:21699   */\n      add\n        /* \"--CODEGEN--\":21677:21700   */\n      mload\n        /* \"--CODEGEN--\":21706:21769   */\n      tag_975\n        /* \"--CODEGEN--\":21763:21767   */\n      0xc0\n        /* \"--CODEGEN--\":21758:21761   */\n      dup7\n        /* \"--CODEGEN--\":21754:21768   */\n      add\n        /* \"--CODEGEN--\":21740:21752   */\n      dup3\n        /* \"--CODEGEN--\":21706:21769   */\n      tag_825\n      jump\t// in\n    tag_975:\n        /* \"--CODEGEN--\":21623:21775   */\n      pop\n        /* \"--CODEGEN--\":21849:21853   */\n      0xe0\n        /* \"--CODEGEN--\":21842:21847   */\n      dup4\n        /* \"--CODEGEN--\":21838:21854   */\n      add\n        /* \"--CODEGEN--\":21832:21855   */\n      mload\n        /* \"--CODEGEN--\":21861:21918   */\n      tag_976\n        /* \"--CODEGEN--\":21912:21916   */\n      0xe0\n        /* \"--CODEGEN--\":21907:21910   */\n      dup7\n        /* \"--CODEGEN--\":21903:21917   */\n      add\n        /* \"--CODEGEN--\":21889:21901   */\n      dup3\n        /* \"--CODEGEN--\":21861:21918   */\n      tag_874\n      jump\t// in\n    tag_976:\n        /* \"--CODEGEN--\":21785:21924   */\n      pop\n        /* \"--CODEGEN--\":21941:21945   */\n      dup1\n        /* \"--CODEGEN--\":21934:21945   */\n      swap2\n      pop\n        /* \"--CODEGEN--\":20193:21950   */\n      pop\n      swap3\n      swap2\n      pop\n      pop\n      jump\t// out\n        /* \"--CODEGEN--\":21957:22060   */\n    tag_825:\n        /* \"--CODEGEN--\":22030:22054   */\n      tag_978\n        /* \"--CODEGEN--\":22048:22053   */\n      dup2\n        /* \"--CODEGEN--\":22030:22054   */\n      tag_979\n      jump\t// in\n    tag_978:\n        /* \"--CODEGEN--\":22025:22028   */\n      dup3\n        /* \"--CODEGEN--\":22018:22055   */\n      mstore\n        /* \"--CODEGEN--\":22012:22060   */\n      pop\n      pop\n      jump\t// out\n        /* \"--CODEGEN--\":22067:22180   */\n    tag_980:\n        /* \"--CODEGEN--\":22150:22174   */\n      tag_982\n        /* \"--CODEGEN--\":22168:22173   */\n      dup2\n        /* \"--CODEGEN--\":22150:22174   */\n      tag_979\n      jump\t// in\n    tag_982:\n        /* \"--CODEGEN--\":22145:22148   */\n      dup3\n        /* \"--CODEGEN--\":22138:22175   */\n      mstore\n        /* \"--CODEGEN--\":22132:22180   */\n      pop\n      pop\n      jump\t// out\n        /* \"--CODEGEN--\":22187:22308   */\n    tag_983:\n        /* \"--CODEGEN--\":22278:22302   */\n      tag_985\n        /* \"--CODEGEN--\":22296:22301   */\n      dup2\n        /* \"--CODEGEN--\":22278:22302   */\n      tag_979\n      jump\t// in\n    tag_985:\n        /* \"--CODEGEN--\":22273:22276   */\n      dup3\n        /* \"--CODEGEN--\":22266:22303   */\n      mstore\n        /* \"--CODEGEN--\":22260:22308   */\n      pop\n      pop\n      jump\t// out\n        /* \"--CODEGEN--\":22315:22696   */\n    tag_288:\n      0x00\n        /* \"--CODEGEN--\":22523:22671   */\n      tag_987\n        /* \"--CODEGEN--\":22667:22670   */\n      dup3\n        /* \"--CODEGEN--\":22523:22671   */\n      tag_936\n      jump\t// in\n    tag_987:\n        /* \"--CODEGEN--\":22516:22671   */\n      swap2\n      pop\n        /* \"--CODEGEN--\":22688:22691   */\n      dup2\n        /* \"--CODEGEN--\":22681:22691   */\n      swap1\n      pop\n        /* \"--CODEGEN--\":22504:22696   */\n      swap2\n      swap1\n      pop\n      jump\t// out\n        /* \"--CODEGEN--\":22703:22925   */\n    tag_123:\n      0x00\n        /* \"--CODEGEN--\":22830:22832   */\n      0x20\n        /* \"--CODEGEN--\":22819:22828   */\n      dup3\n        /* \"--CODEGEN--\":22815:22833   */\n      add\n        /* \"--CODEGEN--\":22807:22833   */\n      swap1\n      pop\n        /* \"--CODEGEN--\":22844:22915   */\n      tag_989\n        /* \"--CODEGEN--\":22912:22913   */\n      0x00\n        /* \"--CODEGEN--\":22901:22910   */\n      dup4\n        /* \"--CODEGEN--\":22897:22914   */\n      add\n        /* \"--CODEGEN--\":22888:22894   */\n      dup5\n        /* \"--CODEGEN--\":22844:22915   */\n      tag_830\n      jump\t// in\n    tag_989:\n        /* \"--CODEGEN--\":22801:22925   */\n      swap3\n      swap2\n      pop\n      pop\n      jump\t// out\n        /* \"--CODEGEN--\":22932:23170   */\n    tag_213:\n      0x00\n        /* \"--CODEGEN--\":23067:23069   */\n      0x20\n        /* \"--CODEGEN--\":23056:23065   */\n      dup3\n        /* \"--CODEGEN--\":23052:23070   */\n      add\n        /* \"--CODEGEN--\":23044:23070   */\n      swap1\n      pop\n        /* \"--CODEGEN--\":23081:23160   */\n      tag_991\n        /* \"--CODEGEN--\":23157:23158   */\n      0x00\n        /* \"--CODEGEN--\":23146:23155   */\n      dup4\n        /* \"--CODEGEN--\":23142:23159   */\n      add\n        /* \"--CODEGEN--\":23133:23139   */\n      dup5\n        /* \"--CODEGEN--\":23081:23160   */\n      tag_826\n      jump\t// in\n    tag_991:\n        /* \"--CODEGEN--\":23038:23170   */\n      swap3\n      swap2\n      pop\n      pop\n      jump\t// out\n        /* \"--CODEGEN--\":23177:23547   */\n    tag_88:\n      0x00\n        /* \"--CODEGEN--\":23354:23356   */\n      0x20\n        /* \"--CODEGEN--\":23343:23352   */\n      dup3\n        /* \"--CODEGEN--\":23339:23357   */\n      add\n        /* \"--CODEGEN--\":23331:23357   */\n      swap1\n      pop\n        /* \"--CODEGEN--\":23404:23413   */\n      dup2\n        /* \"--CODEGEN--\":23398:23402   */\n      dup2\n        /* \"--CODEGEN--\":23394:23414   */\n      sub\n        /* \"--CODEGEN--\":23390:23391   */\n      0x00\n        /* \"--CODEGEN--\":23379:23388   */\n      dup4\n        /* \"--CODEGEN--\":23375:23392   */\n      add\n        /* \"--CODEGEN--\":23368:23415   */\n      mstore\n        /* \"--CODEGEN--\":23429:23537   */\n      tag_993\n        /* \"--CODEGEN--\":23532:23536   */\n      dup2\n        /* \"--CODEGEN--\":23523:23529   */\n      dup5\n        /* \"--CODEGEN--\":23429:23537   */\n      tag_848\n      jump\t// in\n    tag_993:\n        /* \"--CODEGEN--\":23421:23537   */\n      swap1\n      pop\n        /* \"--CODEGEN--\":23325:23547   */\n      swap3\n      swap2\n      pop\n      pop\n      jump\t// out\n        /* \"--CODEGEN--\":23554:23764   */\n    tag_61:\n      0x00\n        /* \"--CODEGEN--\":23675:23677   */\n      0x20\n        /* \"--CODEGEN--\":23664:23673   */\n      dup3\n        /* \"--CODEGEN--\":23660:23678   */\n      add\n        /* \"--CODEGEN--\":23652:23678   */\n      swap1\n      pop\n        /* \"--CODEGEN--\":23689:23754   */\n      tag_995\n        /* \"--CODEGEN--\":23751:23752   */\n      0x00\n        /* \"--CODEGEN--\":23740:23749   */\n      dup4\n        /* \"--CODEGEN--\":23736:23753   */\n      add\n        /* \"--CODEGEN--\":23727:23733   */\n      dup5\n        /* \"--CODEGEN--\":23689:23754   */\n      tag_878\n      jump\t// in\n    tag_995:\n        /* \"--CODEGEN--\":23646:23764   */\n      swap3\n      swap2\n      pop\n      pop\n      jump\t// out\n        /* \"--CODEGEN--\":23771:23993   */\n    tag_67:\n      0x00\n        /* \"--CODEGEN--\":23898:23900   */\n      0x20\n        /* \"--CODEGEN--\":23887:23896   */\n      dup3\n        /* \"--CODEGEN--\":23883:23901   */\n      add\n        /* \"--CODEGEN--\":23875:23901   */\n      swap1\n      pop\n        /* \"--CODEGEN--\":23912:23983   */\n      tag_997\n        /* \"--CODEGEN--\":23980:23981   */\n      0x00\n        /* \"--CODEGEN--\":23969:23978   */\n      dup4\n        /* \"--CODEGEN--\":23965:23982   */\n      add\n        /* \"--CODEGEN--\":23956:23962   */\n      dup5\n        /* \"--CODEGEN--\":23912:23983   */\n      tag_881\n      jump\t// in\n    tag_997:\n        /* \"--CODEGEN--\":23869:23993   */\n      swap3\n      swap2\n      pop\n      pop\n      jump\t// out\n        /* \"--CODEGEN--\":24000:24262   */\n    tag_96:\n      0x00\n        /* \"--CODEGEN--\":24147:24149   */\n      0x20\n        /* \"--CODEGEN--\":24136:24145   */\n      dup3\n        /* \"--CODEGEN--\":24132:24150   */\n      add\n        /* \"--CODEGEN--\":24124:24150   */\n      swap1\n      pop\n        /* \"--CODEGEN--\":24161:24252   */\n      tag_999\n        /* \"--CODEGEN--\":24249:24250   */\n      0x00\n        /* \"--CODEGEN--\":24238:24247   */\n      dup4\n        /* \"--CODEGEN--\":24234:24251   */\n      add\n        /* \"--CODEGEN--\":24225:24231   */\n      dup5\n        /* \"--CODEGEN--\":24161:24252   */\n      tag_888\n      jump\t// in\n    tag_999:\n        /* \"--CODEGEN--\":24118:24262   */\n      swap3\n      swap2\n      pop\n      pop\n      jump\t// out\n        /* \"--CODEGEN--\":24269:24535   */\n    tag_111:\n      0x00\n        /* \"--CODEGEN--\":24418:24420   */\n      0x20\n        /* \"--CODEGEN--\":24407:24416   */\n      dup3\n        /* \"--CODEGEN--\":24403:24421   */\n      add\n        /* \"--CODEGEN--\":24395:24421   */\n      swap1\n      pop\n        /* \"--CODEGEN--\":24432:24525   */\n      tag_1001\n        /* \"--CODEGEN--\":24522:24523   */\n      0x00\n        /* \"--CODEGEN--\":24511:24520   */\n      dup4\n        /* \"--CODEGEN--\":24507:24524   */\n      add\n        /* \"--CODEGEN--\":24498:24504   */\n      dup5\n        /* \"--CODEGEN--\":24432:24525   */\n      tag_892\n      jump\t// in\n    tag_1001:\n        /* \"--CODEGEN--\":24389:24535   */\n      swap3\n      swap2\n      pop\n      pop\n      jump\t// out\n        /* \"--CODEGEN--\":24542:24808   */\n    tag_76:\n      0x00\n        /* \"--CODEGEN--\":24691:24693   */\n      0x20\n        /* \"--CODEGEN--\":24680:24689   */\n      dup3\n        /* \"--CODEGEN--\":24676:24694   */\n      add\n        /* \"--CODEGEN--\":24668:24694   */\n      swap1\n      pop\n        /* \"--CODEGEN--\":24705:24798   */\n      tag_1003\n        /* \"--CODEGEN--\":24795:24796   */\n      0x00\n        /* \"--CODEGEN--\":24784:24793   */\n      dup4\n        /* \"--CODEGEN--\":24780:24797   */\n      add\n        /* \"--CODEGEN--\":24771:24777   */\n      dup5\n        /* \"--CODEGEN--\":24705:24798   */\n      tag_896\n      jump\t// in\n    tag_1003:\n        /* \"--CODEGEN--\":24662:24808   */\n      swap3\n      swap2\n      pop\n      pop\n      jump\t// out\n        /* \"--CODEGEN--\":24815:25079   */\n    tag_100:\n      0x00\n        /* \"--CODEGEN--\":24963:24965   */\n      0x20\n        /* \"--CODEGEN--\":24952:24961   */\n      dup3\n        /* \"--CODEGEN--\":24948:24966   */\n      add\n        /* \"--CODEGEN--\":24940:24966   */\n      swap1\n      pop\n        /* \"--CODEGEN--\":24977:25069   */\n      tag_1005\n        /* \"--CODEGEN--\":25066:25067   */\n      0x00\n        /* \"--CODEGEN--\":25055:25064   */\n      dup4\n        /* \"--CODEGEN--\":25051:25068   */\n      add\n        /* \"--CODEGEN--\":25042:25048   */\n      dup5\n        /* \"--CODEGEN--\":24977:25069   */\n      tag_900\n      jump\t// in\n    tag_1005:\n        /* \"--CODEGEN--\":24934:25079   */\n      swap3\n      swap2\n      pop\n      pop\n      jump\t// out\n        /* \"--CODEGEN--\":25086:25457   */\n    tag_262:\n      0x00\n        /* \"--CODEGEN--\":25256:25258   */\n      0x40\n        /* \"--CODEGEN--\":25245:25254   */\n      dup3\n        /* \"--CODEGEN--\":25241:25259   */\n      add\n        /* \"--CODEGEN--\":25233:25259   */\n      swap1\n      pop\n        /* \"--CODEGEN--\":25270:25356   */\n      tag_1007\n        /* \"--CODEGEN--\":25353:25354   */\n      0x00\n        /* \"--CODEGEN--\":25342:25351   */\n      dup4\n        /* \"--CODEGEN--\":25338:25355   */\n      add\n        /* \"--CODEGEN--\":25329:25335   */\n      dup6\n        /* \"--CODEGEN--\":25270:25356   */\n      tag_904\n      jump\t// in\n    tag_1007:\n        /* \"--CODEGEN--\":25367:25447   */\n      tag_1008\n        /* \"--CODEGEN--\":25443:25445   */\n      0x20\n        /* \"--CODEGEN--\":25432:25441   */\n      dup4\n        /* \"--CODEGEN--\":25428:25446   */\n      add\n        /* \"--CODEGEN--\":25419:25425   */\n      dup5\n        /* \"--CODEGEN--\":25367:25447   */\n      tag_885\n      jump\t// in\n    tag_1008:\n        /* \"--CODEGEN--\":25227:25457   */\n      swap4\n      swap3\n      pop\n      pop\n      pop\n      jump\t// out\n        /* \"--CODEGEN--\":25464:25954   */\n    tag_252:\n      0x00\n        /* \"--CODEGEN--\":25662:25664   */\n      0x60\n        /* \"--CODEGEN--\":25651:25660   */\n      dup3\n        /* \"--CODEGEN--\":25647:25665   */\n      add\n        /* \"--CODEGEN--\":25639:25665   */\n      swap1\n      pop\n        /* \"--CODEGEN--\":25676:25762   */\n      tag_1010\n        /* \"--CODEGEN--\":25759:25760   */\n      0x00\n        /* \"--CODEGEN--\":25748:25757   */\n      dup4\n        /* \"--CODEGEN--\":25744:25761   */\n      add\n        /* \"--CODEGEN--\":25735:25741   */\n      dup7\n        /* \"--CODEGEN--\":25676:25762   */\n      tag_904\n      jump\t// in\n    tag_1010:\n        /* \"--CODEGEN--\":25773:25853   */\n      tag_1011\n        /* \"--CODEGEN--\":25849:25851   */\n      0x20\n        /* \"--CODEGEN--\":25838:25847   */\n      dup4\n        /* \"--CODEGEN--\":25834:25852   */\n      add\n        /* \"--CODEGEN--\":25825:25831   */\n      dup6\n        /* \"--CODEGEN--\":25773:25853   */\n      tag_983\n      jump\t// in\n    tag_1011:\n        /* \"--CODEGEN--\":25864:25944   */\n      tag_1012\n        /* \"--CODEGEN--\":25940:25942   */\n      0x40\n        /* \"--CODEGEN--\":25929:25938   */\n      dup4\n        /* \"--CODEGEN--\":25925:25943   */\n      add\n        /* \"--CODEGEN--\":25916:25922   */\n      dup5\n        /* \"--CODEGEN--\":25864:25944   */\n      tag_885\n      jump\t// in\n    tag_1012:\n        /* \"--CODEGEN--\":25633:25954   */\n      swap5\n      swap4\n      pop\n      pop\n      pop\n      pop\n      jump\t// out\n        /* \"--CODEGEN--\":25961:26271   */\n    tag_665:\n      0x00\n        /* \"--CODEGEN--\":26108:26110   */\n      0x20\n        /* \"--CODEGEN--\":26097:26106   */\n      dup3\n        /* \"--CODEGEN--\":26093:26111   */\n      add\n        /* \"--CODEGEN--\":26085:26111   */\n      swap1\n      pop\n        /* \"--CODEGEN--\":26158:26167   */\n      dup2\n        /* \"--CODEGEN--\":26152:26156   */\n      dup2\n        /* \"--CODEGEN--\":26148:26168   */\n      sub\n        /* \"--CODEGEN--\":26144:26145   */\n      0x00\n        /* \"--CODEGEN--\":26133:26142   */\n      dup4\n        /* \"--CODEGEN--\":26129:26146   */\n      add\n        /* \"--CODEGEN--\":26122:26169   */\n      mstore\n        /* \"--CODEGEN--\":26183:26261   */\n      tag_1014\n        /* \"--CODEGEN--\":26256:26260   */\n      dup2\n        /* \"--CODEGEN--\":26247:26253   */\n      dup5\n        /* \"--CODEGEN--\":26183:26261   */\n      tag_908\n      jump\t// in\n    tag_1014:\n        /* \"--CODEGEN--\":26175:26261   */\n      swap1\n      pop\n        /* \"--CODEGEN--\":26079:26271   */\n      swap3\n      swap2\n      pop\n      pop\n      jump\t// out\n        /* \"--CODEGEN--\":26278:26694   */\n    tag_677:\n      0x00\n        /* \"--CODEGEN--\":26478:26480   */\n      0x20\n        /* \"--CODEGEN--\":26467:26476   */\n      dup3\n        /* \"--CODEGEN--\":26463:26481   */\n      add\n        /* \"--CODEGEN--\":26455:26481   */\n      swap1\n      pop\n        /* \"--CODEGEN--\":26528:26537   */\n      dup2\n        /* \"--CODEGEN--\":26522:26526   */\n      dup2\n        /* \"--CODEGEN--\":26518:26538   */\n      sub\n        /* \"--CODEGEN--\":26514:26515   */\n      0x00\n        /* \"--CODEGEN--\":26503:26512   */\n      dup4\n        /* \"--CODEGEN--\":26499:26516   */\n      add\n        /* \"--CODEGEN--\":26492:26539   */\n      mstore\n        /* \"--CODEGEN--\":26553:26684   */\n      tag_1016\n        /* \"--CODEGEN--\":26679:26683   */\n      dup2\n        /* \"--CODEGEN--\":26553:26684   */\n      tag_918\n      jump\t// in\n    tag_1016:\n        /* \"--CODEGEN--\":26545:26684   */\n      swap1\n      pop\n        /* \"--CODEGEN--\":26449:26694   */\n      swap2\n      swap1\n      pop\n      jump\t// out\n        /* \"--CODEGEN--\":26701:27117   */\n    tag_295:\n      0x00\n        /* \"--CODEGEN--\":26901:26903   */\n      0x20\n        /* \"--CODEGEN--\":26890:26899   */\n      dup3\n        /* \"--CODEGEN--\":26886:26904   */\n      add\n        /* \"--CODEGEN--\":26878:26904   */\n      swap1\n      pop\n        /* \"--CODEGEN--\":26951:26960   */\n      dup2\n        /* \"--CODEGEN--\":26945:26949   */\n      dup2\n        /* \"--CODEGEN--\":26941:26961   */\n      sub\n        /* \"--CODEGEN--\":26937:26938   */\n      0x00\n        /* \"--CODEGEN--\":26926:26935   */\n      dup4\n        /* \"--CODEGEN--\":26922:26939   */\n      add\n        /* \"--CODEGEN--\":26915:26962   */\n      mstore\n        /* \"--CODEGEN--\":26976:27107   */\n      tag_1018\n        /* \"--CODEGEN--\":27102:27106   */\n      dup2\n        /* \"--CODEGEN--\":26976:27107   */\n      tag_921\n      jump\t// in\n    tag_1018:\n        /* \"--CODEGEN--\":26968:27107   */\n      swap1\n      pop\n        /* \"--CODEGEN--\":26872:27117   */\n      swap2\n      swap1\n      pop\n      jump\t// out\n        /* \"--CODEGEN--\":27124:27540   */\n    tag_413:\n      0x00\n        /* \"--CODEGEN--\":27324:27326   */\n      0x20\n        /* \"--CODEGEN--\":27313:27322   */\n      dup3\n        /* \"--CODEGEN--\":27309:27327   */\n      add\n        /* \"--CODEGEN--\":27301:27327   */\n      swap1\n      pop\n        /* \"--CODEGEN--\":27374:27383   */\n      dup2\n        /* \"--CODEGEN--\":27368:27372   */\n      dup2\n        /* \"--CODEGEN--\":27364:27384   */\n      sub\n        /* \"--CODEGEN--\":27360:27361   */\n      0x00\n        /* \"--CODEGEN--\":27349:27358   */\n      dup4\n        /* \"--CODEGEN--\":27345:27362   */\n      add\n        /* \"--CODEGEN--\":27338:27385   */\n      mstore\n        /* \"--CODEGEN--\":27399:27530   */\n      tag_1020\n        /* \"--CODEGEN--\":27525:27529   */\n      dup2\n        /* \"--CODEGEN--\":27399:27530   */\n      tag_924\n      jump\t// in\n    tag_1020:\n        /* \"--CODEGEN--\":27391:27530   */\n      swap1\n      pop\n        /* \"--CODEGEN--\":27295:27540   */\n      swap2\n      swap1\n      pop\n      jump\t// out\n        /* \"--CODEGEN--\":27547:27963   */\n    tag_619:\n      0x00\n        /* \"--CODEGEN--\":27747:27749   */\n      0x20\n        /* \"--CODEGEN--\":27736:27745   */\n      dup3\n        /* \"--CODEGEN--\":27732:27750   */\n      add\n        /* \"--CODEGEN--\":27724:27750   */\n      swap1\n      pop\n        /* \"--CODEGEN--\":27797:27806   */\n      dup2\n        /* \"--CODEGEN--\":27791:27795   */\n      dup2\n        /* \"--CODEGEN--\":27787:27807   */\n      sub\n        /* \"--CODEGEN--\":27783:27784   */\n      0x00\n        /* \"--CODEGEN--\":27772:27781   */\n      dup4\n        /* \"--CODEGEN--\":27768:27785   */\n      add\n        /* \"--CODEGEN--\":27761:27808   */\n      mstore\n        /* \"--CODEGEN--\":27822:27953   */\n      tag_1022\n        /* \"--CODEGEN--\":27948:27952   */\n      dup2\n        /* \"--CODEGEN--\":27822:27953   */\n      tag_927\n      jump\t// in\n    tag_1022:\n        /* \"--CODEGEN--\":27814:27953   */\n      swap1\n      pop\n        /* \"--CODEGEN--\":27718:27963   */\n      swap2\n      swap1\n      pop\n      jump\t// out\n        /* \"--CODEGEN--\":27970:28386   */\n    tag_221:\n      0x00\n        /* \"--CODEGEN--\":28170:28172   */\n      0x20\n        /* \"--CODEGEN--\":28159:28168   */\n      dup3\n        /* \"--CODEGEN--\":28155:28173   */\n      add\n        /* \"--CODEGEN--\":28147:28173   */\n      swap1\n      pop\n        /* \"--CODEGEN--\":28220:28229   */\n      dup2\n        /* \"--CODEGEN--\":28214:28218   */\n      dup2\n        /* \"--CODEGEN--\":28210:28230   */\n      sub\n        /* \"--CODEGEN--\":28206:28207   */\n      0x00\n        /* \"--CODEGEN--\":28195:28204   */\n      dup4\n        /* \"--CODEGEN--\":28191:28208   */\n      add\n        /* \"--CODEGEN--\":28184:28231   */\n      mstore\n        /* \"--CODEGEN--\":28245:28376   */\n      tag_1024\n        /* \"--CODEGEN--\":28371:28375   */\n      dup2\n        /* \"--CODEGEN--\":28245:28376   */\n      tag_930\n      jump\t// in\n    tag_1024:\n        /* \"--CODEGEN--\":28237:28376   */\n      swap1\n      pop\n        /* \"--CODEGEN--\":28141:28386   */\n      swap2\n      swap1\n      pop\n      jump\t// out\n        /* \"--CODEGEN--\":28393:28809   */\n    tag_546:\n      0x00\n        /* \"--CODEGEN--\":28593:28595   */\n      0x20\n        /* \"--CODEGEN--\":28582:28591   */\n      dup3\n        /* \"--CODEGEN--\":28578:28596   */\n      add\n        /* \"--CODEGEN--\":28570:28596   */\n      swap1\n      pop\n        /* \"--CODEGEN--\":28643:28652   */\n      dup2\n        /* \"--CODEGEN--\":28637:28641   */\n      dup2\n        /* \"--CODEGEN--\":28633:28653   */\n      sub\n        /* \"--CODEGEN--\":28629:28630   */\n      0x00\n        /* \"--CODEGEN--\":28618:28627   */\n      dup4\n        /* \"--CODEGEN--\":28614:28631   */\n      add\n        /* \"--CODEGEN--\":28607:28654   */\n      mstore\n        /* \"--CODEGEN--\":28668:28799   */\n      tag_1026\n        /* \"--CODEGEN--\":28794:28798   */\n      dup2\n        /* \"--CODEGEN--\":28668:28799   */\n      tag_933\n      jump\t// in\n    tag_1026:\n        /* \"--CODEGEN--\":28660:28799   */\n      swap1\n      pop\n        /* \"--CODEGEN--\":28564:28809   */\n      swap2\n      swap1\n      pop\n      jump\t// out\n        /* \"--CODEGEN--\":28816:29232   */\n    tag_628:\n      0x00\n        /* \"--CODEGEN--\":29016:29018   */\n      0x20\n        /* \"--CODEGEN--\":29005:29014   */\n      dup3\n        /* \"--CODEGEN--\":29001:29019   */\n      add\n        /* \"--CODEGEN--\":28993:29019   */\n      swap1\n      pop\n        /* \"--CODEGEN--\":29066:29075   */\n      dup2\n        /* \"--CODEGEN--\":29060:29064   */\n      dup2\n        /* \"--CODEGEN--\":29056:29076   */\n      sub\n        /* \"--CODEGEN--\":29052:29053   */\n      0x00\n        /* \"--CODEGEN--\":29041:29050   */\n      dup4\n        /* \"--CODEGEN--\":29037:29054   */\n      add\n        /* \"--CODEGEN--\":29030:29077   */\n      mstore\n        /* \"--CODEGEN--\":29091:29222   */\n      tag_1028\n        /* \"--CODEGEN--\":29217:29221   */\n      dup2\n        /* \"--CODEGEN--\":29091:29222   */\n      tag_940\n      jump\t// in\n    tag_1028:\n        /* \"--CODEGEN--\":29083:29222   */\n      swap1\n      pop\n        /* \"--CODEGEN--\":28987:29232   */\n      swap2\n      swap1\n      pop\n      jump\t// out\n        /* \"--CODEGEN--\":29239:29655   */\n    tag_197:\n      0x00\n        /* \"--CODEGEN--\":29439:29441   */\n      0x20\n        /* \"--CODEGEN--\":29428:29437   */\n      dup3\n        /* \"--CODEGEN--\":29424:29442   */\n      add\n        /* \"--CODEGEN--\":29416:29442   */\n      swap1\n      pop\n        /* \"--CODEGEN--\":29489:29498   */\n      dup2\n        /* \"--CODEGEN--\":29483:29487   */\n      dup2\n        /* \"--CODEGEN--\":29479:29499   */\n      sub\n        /* \"--CODEGEN--\":29475:29476   */\n      0x00\n        /* \"--CODEGEN--\":29464:29473   */\n      dup4\n        /* \"--CODEGEN--\":29460:29477   */\n      add\n        /* \"--CODEGEN--\":29453:29500   */\n      mstore\n        /* \"--CODEGEN--\":29514:29645   */\n      tag_1030\n        /* \"--CODEGEN--\":29640:29644   */\n      dup2\n        /* \"--CODEGEN--\":29514:29645   */\n      tag_943\n      jump\t// in\n    tag_1030:\n        /* \"--CODEGEN--\":29506:29645   */\n      swap1\n      pop\n        /* \"--CODEGEN--\":29410:29655   */\n      swap2\n      swap1\n      pop\n      jump\t// out\n        /* \"--CODEGEN--\":29662:30078   */\n    tag_406:\n      0x00\n        /* \"--CODEGEN--\":29862:29864   */\n      0x20\n        /* \"--CODEGEN--\":29851:29860   */\n      dup3\n        /* \"--CODEGEN--\":29847:29865   */\n      add\n        /* \"--CODEGEN--\":29839:29865   */\n      swap1\n      pop\n        /* \"--CODEGEN--\":29912:29921   */\n      dup2\n        /* \"--CODEGEN--\":29906:29910   */\n      dup2\n        /* \"--CODEGEN--\":29902:29922   */\n      sub\n        /* \"--CODEGEN--\":29898:29899   */\n      0x00\n        /* \"--CODEGEN--\":29887:29896   */\n      dup4\n        /* \"--CODEGEN--\":29883:29900   */\n      add\n        /* \"--CODEGEN--\":29876:29923   */\n      mstore\n        /* \"--CODEGEN--\":29937:30068   */\n      tag_1032\n        /* \"--CODEGEN--\":30063:30067   */\n      dup2\n        /* \"--CODEGEN--\":29937:30068   */\n      tag_946\n      jump\t// in\n    tag_1032:\n        /* \"--CODEGEN--\":29929:30068   */\n      swap1\n      pop\n        /* \"--CODEGEN--\":29833:30078   */\n      swap2\n      swap1\n      pop\n      jump\t// out\n        /* \"--CODEGEN--\":30085:30501   */\n    tag_362:\n      0x00\n        /* \"--CODEGEN--\":30285:30287   */\n      0x20\n        /* \"--CODEGEN--\":30274:30283   */\n      dup3\n        /* \"--CODEGEN--\":30270:30288   */\n      add\n        /* \"--CODEGEN--\":30262:30288   */\n      swap1\n      pop\n        /* \"--CODEGEN--\":30335:30344   */\n      dup2\n        /* \"--CODEGEN--\":30329:30333   */\n      dup2\n        /* \"--CODEGEN--\":30325:30345   */\n      sub\n        /* \"--CODEGEN--\":30321:30322   */\n      0x00\n        /* \"--CODEGEN--\":30310:30319   */\n      dup4\n        /* \"--CODEGEN--\":30306:30323   */\n      add\n        /* \"--CODEGEN--\":30299:30346   */\n      mstore\n        /* \"--CODEGEN--\":30360:30491   */\n      tag_1034\n        /* \"--CODEGEN--\":30486:30490   */\n      dup2\n        /* \"--CODEGEN--\":30360:30491   */\n      tag_949\n      jump\t// in\n    tag_1034:\n        /* \"--CODEGEN--\":30352:30491   */\n      swap1\n      pop\n        /* \"--CODEGEN--\":30256:30501   */\n      swap2\n      swap1\n      pop\n      jump\t// out\n        /* \"--CODEGEN--\":30508:30924   */\n    tag_234:\n      0x00\n        /* \"--CODEGEN--\":30708:30710   */\n      0x20\n        /* \"--CODEGEN--\":30697:30706   */\n      dup3\n        /* \"--CODEGEN--\":30693:30711   */\n      add\n        /* \"--CODEGEN--\":30685:30711   */\n      swap1\n      pop\n        /* \"--CODEGEN--\":30758:30767   */\n      dup2\n        /* \"--CODEGEN--\":30752:30756   */\n      dup2\n        /* \"--CODEGEN--\":30748:30768   */\n      sub\n        /* \"--CODEGEN--\":30744:30745   */\n      0x00\n        /* \"--CODEGEN--\":30733:30742   */\n      dup4\n        /* \"--CODEGEN--\":30729:30746   */\n      add\n        /* \"--CODEGEN--\":30722:30769   */\n      mstore\n        /* \"--CODEGEN--\":30783:30914   */\n      tag_1036\n        /* \"--CODEGEN--\":30909:30913   */\n      dup2\n        /* \"--CODEGEN--\":30783:30914   */\n      tag_952\n      jump\t// in\n    tag_1036:\n        /* \"--CODEGEN--\":30775:30914   */\n      swap1\n      pop\n        /* \"--CODEGEN--\":30679:30924   */\n      swap2\n      swap1\n      pop\n      jump\t// out\n        /* \"--CODEGEN--\":30931:31347   */\n    tag_334:\n      0x00\n        /* \"--CODEGEN--\":31131:31133   */\n      0x20\n        /* \"--CODEGEN--\":31120:31129   */\n      dup3\n        /* \"--CODEGEN--\":31116:31134   */\n      add\n        /* \"--CODEGEN--\":31108:31134   */\n      swap1\n      pop\n        /* \"--CODEGEN--\":31181:31190   */\n      dup2\n        /* \"--CODEGEN--\":31175:31179   */\n      dup2\n        /* \"--CODEGEN--\":31171:31191   */\n      sub\n        /* \"--CODEGEN--\":31167:31168   */\n      0x00\n        /* \"--CODEGEN--\":31156:31165   */\n      dup4\n        /* \"--CODEGEN--\":31152:31169   */\n      add\n        /* \"--CODEGEN--\":31145:31192   */\n      mstore\n        /* \"--CODEGEN--\":31206:31337   */\n      tag_1038\n        /* \"--CODEGEN--\":31332:31336   */\n      dup2\n        /* \"--CODEGEN--\":31206:31337   */\n      tag_955\n      jump\t// in\n    tag_1038:\n        /* \"--CODEGEN--\":31198:31337   */\n      swap1\n      pop\n        /* \"--CODEGEN--\":31102:31347   */\n      swap2\n      swap1\n      pop\n      jump\t// out\n        /* \"--CODEGEN--\":31354:31770   */\n    tag_210:\n      0x00\n        /* \"--CODEGEN--\":31554:31556   */\n      0x20\n        /* \"--CODEGEN--\":31543:31552   */\n      dup3\n        /* \"--CODEGEN--\":31539:31557   */\n      add\n        /* \"--CODEGEN--\":31531:31557   */\n      swap1\n      pop\n        /* \"--CODEGEN--\":31604:31613   */\n      dup2\n        /* \"--CODEGEN--\":31598:31602   */\n      dup2\n        /* \"--CODEGEN--\":31594:31614   */\n      sub\n        /* \"--CODEGEN--\":31590:31591   */\n      0x00\n        /* \"--CODEGEN--\":31579:31588   */\n      dup4\n        /* \"--CODEGEN--\":31575:31592   */\n      add\n        /* \"--CODEGEN--\":31568:31615   */\n      mstore\n        /* \"--CODEGEN--\":31629:31760   */\n      tag_1040\n        /* \"--CODEGEN--\":31755:31759   */\n      dup2\n        /* \"--CODEGEN--\":31629:31760   */\n      tag_958\n      jump\t// in\n    tag_1040:\n        /* \"--CODEGEN--\":31621:31760   */\n      swap1\n      pop\n        /* \"--CODEGEN--\":31525:31770   */\n      swap2\n      swap1\n      pop\n      jump\t// out\n        /* \"--CODEGEN--\":31777:32193   */\n    tag_464:\n      0x00\n        /* \"--CODEGEN--\":31977:31979   */\n      0x20\n        /* \"--CODEGEN--\":31966:31975   */\n      dup3\n        /* \"--CODEGEN--\":31962:31980   */\n      add\n        /* \"--CODEGEN--\":31954:31980   */\n      swap1\n      pop\n        /* \"--CODEGEN--\":32027:32036   */\n      dup2\n        /* \"--CODEGEN--\":32021:32025   */\n      dup2\n        /* \"--CODEGEN--\":32017:32037   */\n      sub\n        /* \"--CODEGEN--\":32013:32014   */\n      0x00\n        /* \"--CODEGEN--\":32002:32011   */\n      dup4\n        /* \"--CODEGEN--\":31998:32015   */\n      add\n        /* \"--CODEGEN--\":31991:32038   */\n      mstore\n        /* \"--CODEGEN--\":32052:32183   */\n      tag_1042\n        /* \"--CODEGEN--\":32178:32182   */\n      dup2\n        /* \"--CODEGEN--\":32052:32183   */\n      tag_961\n      jump\t// in\n    tag_1042:\n        /* \"--CODEGEN--\":32044:32183   */\n      swap1\n      pop\n        /* \"--CODEGEN--\":31948:32193   */\n      swap2\n      swap1\n      pop\n      jump\t// out\n        /* \"--CODEGEN--\":32200:32616   */\n    tag_302:\n      0x00\n        /* \"--CODEGEN--\":32400:32402   */\n      0x20\n        /* \"--CODEGEN--\":32389:32398   */\n      dup3\n        /* \"--CODEGEN--\":32385:32403   */\n      add\n        /* \"--CODEGEN--\":32377:32403   */\n      swap1\n      pop\n        /* \"--CODEGEN--\":32450:32459   */\n      dup2\n        /* \"--CODEGEN--\":32444:32448   */\n      dup2\n        /* \"--CODEGEN--\":32440:32460   */\n      sub\n        /* \"--CODEGEN--\":32436:32437   */\n      0x00\n        /* \"--CODEGEN--\":32425:32434   */\n      dup4\n        /* \"--CODEGEN--\":32421:32438   */\n      add\n        /* \"--CODEGEN--\":32414:32461   */\n      mstore\n        /* \"--CODEGEN--\":32475:32606   */\n      tag_1044\n        /* \"--CODEGEN--\":32601:32605   */\n      dup2\n        /* \"--CODEGEN--\":32475:32606   */\n      tag_964\n      jump\t// in\n    tag_1044:\n        /* \"--CODEGEN--\":32467:32606   */\n      swap1\n      pop\n        /* \"--CODEGEN--\":32371:32616   */\n      swap2\n      swap1\n      pop\n      jump\t// out\n        /* \"--CODEGEN--\":32623:32985   */\n    tag_47:\n      0x00\n        /* \"--CODEGEN--\":32796:32798   */\n      0x20\n        /* \"--CODEGEN--\":32785:32794   */\n      dup3\n        /* \"--CODEGEN--\":32781:32799   */\n      add\n        /* \"--CODEGEN--\":32773:32799   */\n      swap1\n      pop\n        /* \"--CODEGEN--\":32846:32855   */\n      dup2\n        /* \"--CODEGEN--\":32840:32844   */\n      dup2\n        /* \"--CODEGEN--\":32836:32856   */\n      sub\n        /* \"--CODEGEN--\":32832:32833   */\n      0x00\n        /* \"--CODEGEN--\":32821:32830   */\n      dup4\n        /* \"--CODEGEN--\":32817:32834   */\n      add\n        /* \"--CODEGEN--\":32810:32857   */\n      mstore\n        /* \"--CODEGEN--\":32871:32975   */\n      tag_1046\n        /* \"--CODEGEN--\":32970:32974   */\n      dup2\n        /* \"--CODEGEN--\":32961:32967   */\n      dup5\n        /* \"--CODEGEN--\":32871:32975   */\n      tag_967\n      jump\t// in\n    tag_1046:\n        /* \"--CODEGEN--\":32863:32975   */\n      swap1\n      pop\n        /* \"--CODEGEN--\":32767:32985   */\n      swap3\n      swap2\n      pop\n      pop\n      jump\t// out\n        /* \"--CODEGEN--\":32992:34132   */\n    tag_142:\n      0x00\n        /* \"--CODEGEN--\":33399:33402   */\n      0x80\n        /* \"--CODEGEN--\":33388:33397   */\n      dup3\n        /* \"--CODEGEN--\":33384:33403   */\n      add\n        /* \"--CODEGEN--\":33376:33403   */\n      swap1\n      pop\n        /* \"--CODEGEN--\":33450:33459   */\n      dup2\n        /* \"--CODEGEN--\":33444:33448   */\n      dup2\n        /* \"--CODEGEN--\":33440:33460   */\n      sub\n        /* \"--CODEGEN--\":33436:33437   */\n      0x00\n        /* \"--CODEGEN--\":33425:33434   */\n      dup4\n        /* \"--CODEGEN--\":33421:33438   */\n      add\n        /* \"--CODEGEN--\":33414:33461   */\n      mstore\n        /* \"--CODEGEN--\":33475:33579   */\n      tag_1048\n        /* \"--CODEGEN--\":33574:33578   */\n      dup2\n        /* \"--CODEGEN--\":33565:33571   */\n      dup8\n        /* \"--CODEGEN--\":33475:33579   */\n      tag_967\n      jump\t// in\n    tag_1048:\n        /* \"--CODEGEN--\":33467:33579   */\n      swap1\n      pop\n        /* \"--CODEGEN--\":33627:33636   */\n      dup2\n        /* \"--CODEGEN--\":33621:33625   */\n      dup2\n        /* \"--CODEGEN--\":33617:33637   */\n      sub\n        /* \"--CODEGEN--\":33612:33614   */\n      0x20\n        /* \"--CODEGEN--\":33601:33610   */\n      dup4\n        /* \"--CODEGEN--\":33597:33615   */\n      add\n        /* \"--CODEGEN--\":33590:33638   */\n      mstore\n        /* \"--CODEGEN--\":33652:33760   */\n      tag_1049\n        /* \"--CODEGEN--\":33755:33759   */\n      dup2\n        /* \"--CODEGEN--\":33746:33752   */\n      dup7\n        /* \"--CODEGEN--\":33652:33760   */\n      tag_848\n      jump\t// in\n    tag_1049:\n        /* \"--CODEGEN--\":33644:33760   */\n      swap1\n      pop\n        /* \"--CODEGEN--\":33808:33817   */\n      dup2\n        /* \"--CODEGEN--\":33802:33806   */\n      dup2\n        /* \"--CODEGEN--\":33798:33818   */\n      sub\n        /* \"--CODEGEN--\":33793:33795   */\n      0x40\n        /* \"--CODEGEN--\":33782:33791   */\n      dup4\n        /* \"--CODEGEN--\":33778:33796   */\n      add\n        /* \"--CODEGEN--\":33771:33819   */\n      mstore\n        /* \"--CODEGEN--\":33833:33941   */\n      tag_1050\n        /* \"--CODEGEN--\":33936:33940   */\n      dup2\n        /* \"--CODEGEN--\":33927:33933   */\n      dup6\n        /* \"--CODEGEN--\":33833:33941   */\n      tag_848\n      jump\t// in\n    tag_1050:\n        /* \"--CODEGEN--\":33825:33941   */\n      swap1\n      pop\n        /* \"--CODEGEN--\":33989:33998   */\n      dup2\n        /* \"--CODEGEN--\":33983:33987   */\n      dup2\n        /* \"--CODEGEN--\":33979:33999   */\n      sub\n        /* \"--CODEGEN--\":33974:33976   */\n      0x60\n        /* \"--CODEGEN--\":33963:33972   */\n      dup4\n        /* \"--CODEGEN--\":33959:33977   */\n      add\n        /* \"--CODEGEN--\":33952:34000   */\n      mstore\n        /* \"--CODEGEN--\":34014:34122   */\n      tag_1051\n        /* \"--CODEGEN--\":34117:34121   */\n      dup2\n        /* \"--CODEGEN--\":34108:34114   */\n      dup5\n        /* \"--CODEGEN--\":34014:34122   */\n      tag_848\n      jump\t// in\n    tag_1051:\n        /* \"--CODEGEN--\":34006:34122   */\n      swap1\n      pop\n        /* \"--CODEGEN--\":33370:34132   */\n      swap6\n      swap5\n      pop\n      pop\n      pop\n      pop\n      pop\n      jump\t// out\n        /* \"--CODEGEN--\":34139:34361   */\n    tag_147:\n      0x00\n        /* \"--CODEGEN--\":34266:34268   */\n      0x20\n        /* \"--CODEGEN--\":34255:34264   */\n      dup3\n        /* \"--CODEGEN--\":34251:34269   */\n      add\n        /* \"--CODEGEN--\":34243:34269   */\n      swap1\n      pop\n        /* \"--CODEGEN--\":34280:34351   */\n      tag_1053\n        /* \"--CODEGEN--\":34348:34349   */\n      0x00\n        /* \"--CODEGEN--\":34337:34346   */\n      dup4\n        /* \"--CODEGEN--\":34333:34350   */\n      add\n        /* \"--CODEGEN--\":34324:34330   */\n      dup5\n        /* \"--CODEGEN--\":34280:34351   */\n      tag_980\n      jump\t// in\n    tag_1053:\n        /* \"--CODEGEN--\":34237:34361   */\n      swap3\n      swap2\n      pop\n      pop\n      jump\t// out\n        /* \"--CODEGEN--\":34368:34828   */\n    tag_356:\n      0x00\n        /* \"--CODEGEN--\":34559:34561   */\n      0x60\n        /* \"--CODEGEN--\":34548:34557   */\n      dup3\n        /* \"--CODEGEN--\":34544:34562   */\n      add\n        /* \"--CODEGEN--\":34536:34562   */\n      swap1\n      pop\n        /* \"--CODEGEN--\":34573:34644   */\n      tag_1055\n        /* \"--CODEGEN--\":34641:34642   */\n      0x00\n        /* \"--CODEGEN--\":34630:34639   */\n      dup4\n        /* \"--CODEGEN--\":34626:34643   */\n      add\n        /* \"--CODEGEN--\":34617:34623   */\n      dup7\n        /* \"--CODEGEN--\":34573:34644   */\n      tag_980\n      jump\t// in\n    tag_1055:\n        /* \"--CODEGEN--\":34655:34735   */\n      tag_1056\n        /* \"--CODEGEN--\":34731:34733   */\n      0x20\n        /* \"--CODEGEN--\":34720:34729   */\n      dup4\n        /* \"--CODEGEN--\":34716:34734   */\n      add\n        /* \"--CODEGEN--\":34707:34713   */\n      dup6\n        /* \"--CODEGEN--\":34655:34735   */\n      tag_826\n      jump\t// in\n    tag_1056:\n        /* \"--CODEGEN--\":34746:34818   */\n      tag_1057\n        /* \"--CODEGEN--\":34814:34816   */\n      0x40\n        /* \"--CODEGEN--\":34803:34812   */\n      dup4\n        /* \"--CODEGEN--\":34799:34817   */\n      add\n        /* \"--CODEGEN--\":34790:34796   */\n      dup5\n        /* \"--CODEGEN--\":34746:34818   */\n      tag_980\n      jump\t// in\n    tag_1057:\n        /* \"--CODEGEN--\":34530:34828   */\n      swap5\n      swap4\n      pop\n      pop\n      pop\n      pop\n      jump\t// out\n        /* \"--CODEGEN--\":34835:35168   */\n    tag_260:\n      0x00\n        /* \"--CODEGEN--\":34990:34992   */\n      0x40\n        /* \"--CODEGEN--\":34979:34988   */\n      dup3\n        /* \"--CODEGEN--\":34975:34993   */\n      add\n        /* \"--CODEGEN--\":34967:34993   */\n      swap1\n      pop\n        /* \"--CODEGEN--\":35004:35075   */\n      tag_1059\n        /* \"--CODEGEN--\":35072:35073   */\n      0x00\n        /* \"--CODEGEN--\":35061:35070   */\n      dup4\n        /* \"--CODEGEN--\":35057:35074   */\n      add\n        /* \"--CODEGEN--\":35048:35054   */\n      dup6\n        /* \"--CODEGEN--\":35004:35075   */\n      tag_980\n      jump\t// in\n    tag_1059:\n        /* \"--CODEGEN--\":35086:35158   */\n      tag_1060\n        /* \"--CODEGEN--\":35154:35156   */\n      0x20\n        /* \"--CODEGEN--\":35143:35152   */\n      dup4\n        /* \"--CODEGEN--\":35139:35157   */\n      add\n        /* \"--CODEGEN--\":35130:35136   */\n      dup5\n        /* \"--CODEGEN--\":35086:35158   */\n      tag_980\n      jump\t// in\n    tag_1060:\n        /* \"--CODEGEN--\":34961:35168   */\n      swap4\n      swap3\n      pop\n      pop\n      pop\n      jump\t// out\n        /* \"--CODEGEN--\":35175:36883   */\n    tag_243:\n      0x00\n        /* \"--CODEGEN--\":35726:35729   */\n      0x0120\n        /* \"--CODEGEN--\":35715:35724   */\n      dup3\n        /* \"--CODEGEN--\":35711:35730   */\n      add\n        /* \"--CODEGEN--\":35703:35730   */\n      swap1\n      pop\n        /* \"--CODEGEN--\":35741:35812   */\n      tag_1062\n        /* \"--CODEGEN--\":35809:35810   */\n      0x00\n        /* \"--CODEGEN--\":35798:35807   */\n      dup4\n        /* \"--CODEGEN--\":35794:35811   */\n      add\n        /* \"--CODEGEN--\":35785:35791   */\n      dup13\n        /* \"--CODEGEN--\":35741:35812   */\n      tag_980\n      jump\t// in\n    tag_1062:\n        /* \"--CODEGEN--\":35823:35895   */\n      tag_1063\n        /* \"--CODEGEN--\":35891:35893   */\n      0x20\n        /* \"--CODEGEN--\":35880:35889   */\n      dup4\n        /* \"--CODEGEN--\":35876:35894   */\n      add\n        /* \"--CODEGEN--\":35867:35873   */\n      dup12\n        /* \"--CODEGEN--\":35823:35895   */\n      tag_980\n      jump\t// in\n    tag_1063:\n        /* \"--CODEGEN--\":35943:35952   */\n      dup2\n        /* \"--CODEGEN--\":35937:35941   */\n      dup2\n        /* \"--CODEGEN--\":35933:35953   */\n      sub\n        /* \"--CODEGEN--\":35928:35930   */\n      0x40\n        /* \"--CODEGEN--\":35917:35926   */\n      dup4\n        /* \"--CODEGEN--\":35913:35931   */\n      add\n        /* \"--CODEGEN--\":35906:35954   */\n      mstore\n        /* \"--CODEGEN--\":35968:36076   */\n      tag_1064\n        /* \"--CODEGEN--\":36071:36075   */\n      dup2\n        /* \"--CODEGEN--\":36062:36068   */\n      dup11\n        /* \"--CODEGEN--\":35968:36076   */\n      tag_848\n      jump\t// in\n    tag_1064:\n        /* \"--CODEGEN--\":35960:36076   */\n      swap1\n      pop\n        /* \"--CODEGEN--\":36124:36133   */\n      dup2\n        /* \"--CODEGEN--\":36118:36122   */\n      dup2\n        /* \"--CODEGEN--\":36114:36134   */\n      sub\n        /* \"--CODEGEN--\":36109:36111   */\n      0x60\n        /* \"--CODEGEN--\":36098:36107   */\n      dup4\n        /* \"--CODEGEN--\":36094:36112   */\n      add\n        /* \"--CODEGEN--\":36087:36135   */\n      mstore\n        /* \"--CODEGEN--\":36149:36257   */\n      tag_1065\n        /* \"--CODEGEN--\":36252:36256   */\n      dup2\n        /* \"--CODEGEN--\":36243:36249   */\n      dup10\n        /* \"--CODEGEN--\":36149:36257   */\n      tag_848\n      jump\t// in\n    tag_1065:\n        /* \"--CODEGEN--\":36141:36257   */\n      swap1\n      pop\n        /* \"--CODEGEN--\":36306:36315   */\n      dup2\n        /* \"--CODEGEN--\":36300:36304   */\n      dup2\n        /* \"--CODEGEN--\":36296:36316   */\n      sub\n        /* \"--CODEGEN--\":36290:36293   */\n      0x80\n        /* \"--CODEGEN--\":36279:36288   */\n      dup4\n        /* \"--CODEGEN--\":36275:36294   */\n      add\n        /* \"--CODEGEN--\":36268:36317   */\n      mstore\n        /* \"--CODEGEN--\":36331:36439   */\n      tag_1066\n        /* \"--CODEGEN--\":36434:36438   */\n      dup2\n        /* \"--CODEGEN--\":36425:36431   */\n      dup9\n        /* \"--CODEGEN--\":36331:36439   */\n      tag_848\n      jump\t// in\n    tag_1066:\n        /* \"--CODEGEN--\":36323:36439   */\n      swap1\n      pop\n        /* \"--CODEGEN--\":36488:36497   */\n      dup2\n        /* \"--CODEGEN--\":36482:36486   */\n      dup2\n        /* \"--CODEGEN--\":36478:36498   */\n      sub\n        /* \"--CODEGEN--\":36472:36475   */\n      0xa0\n        /* \"--CODEGEN--\":36461:36470   */\n      dup4\n        /* \"--CODEGEN--\":36457:36476   */\n      add\n        /* \"--CODEGEN--\":36450:36499   */\n      mstore\n        /* \"--CODEGEN--\":36513:36621   */\n      tag_1067\n        /* \"--CODEGEN--\":36616:36620   */\n      dup2\n        /* \"--CODEGEN--\":36607:36613   */\n      dup8\n        /* \"--CODEGEN--\":36513:36621   */\n      tag_848\n      jump\t// in\n    tag_1067:\n        /* \"--CODEGEN--\":36505:36621   */\n      swap1\n      pop\n        /* \"--CODEGEN--\":36632:36705   */\n      tag_1068\n        /* \"--CODEGEN--\":36700:36703   */\n      0xc0\n        /* \"--CODEGEN--\":36689:36698   */\n      dup4\n        /* \"--CODEGEN--\":36685:36704   */\n      add\n        /* \"--CODEGEN--\":36676:36682   */\n      dup7\n        /* \"--CODEGEN--\":36632:36705   */\n      tag_980\n      jump\t// in\n    tag_1068:\n        /* \"--CODEGEN--\":36716:36789   */\n      tag_1069\n        /* \"--CODEGEN--\":36784:36787   */\n      0xe0\n        /* \"--CODEGEN--\":36773:36782   */\n      dup4\n        /* \"--CODEGEN--\":36769:36788   */\n      add\n        /* \"--CODEGEN--\":36760:36766   */\n      dup6\n        /* \"--CODEGEN--\":36716:36789   */\n      tag_980\n      jump\t// in\n    tag_1069:\n        /* \"--CODEGEN--\":36800:36873   */\n      tag_1070\n        /* \"--CODEGEN--\":36868:36871   */\n      0x0100\n        /* \"--CODEGEN--\":36857:36866   */\n      dup4\n        /* \"--CODEGEN--\":36853:36872   */\n      add\n        /* \"--CODEGEN--\":36844:36850   */\n      dup5\n        /* \"--CODEGEN--\":36800:36873   */\n      tag_980\n      jump\t// in\n    tag_1070:\n        /* \"--CODEGEN--\":35697:36883   */\n      swap11\n      swap10\n      pop\n      pop\n      pop\n      pop\n      pop\n      pop\n      pop\n      pop\n      pop\n      pop\n      jump\t// out\n        /* \"--CODEGEN--\":36890:38350   */\n    tag_496:\n      0x00\n        /* \"--CODEGEN--\":37373:37376   */\n      0xe0\n        /* \"--CODEGEN--\":37362:37371   */\n      dup3\n        /* \"--CODEGEN--\":37358:37377   */\n      add\n        /* \"--CODEGEN--\":37350:37377   */\n      swap1\n      pop\n        /* \"--CODEGEN--\":37388:37459   */\n      tag_1072\n        /* \"--CODEGEN--\":37456:37457   */\n      0x00\n        /* \"--CODEGEN--\":37445:37454   */\n      dup4\n        /* \"--CODEGEN--\":37441:37458   */\n      add\n        /* \"--CODEGEN--\":37432:37438   */\n      dup11\n        /* \"--CODEGEN--\":37388:37459   */\n      tag_980\n      jump\t// in\n    tag_1072:\n        /* \"--CODEGEN--\":37470:37542   */\n      tag_1073\n        /* \"--CODEGEN--\":37538:37540   */\n      0x20\n        /* \"--CODEGEN--\":37527:37536   */\n      dup4\n        /* \"--CODEGEN--\":37523:37541   */\n      add\n        /* \"--CODEGEN--\":37514:37520   */\n      dup10\n        /* \"--CODEGEN--\":37470:37542   */\n      tag_980\n      jump\t// in\n    tag_1073:\n        /* \"--CODEGEN--\":37590:37599   */\n      dup2\n        /* \"--CODEGEN--\":37584:37588   */\n      dup2\n        /* \"--CODEGEN--\":37580:37600   */\n      sub\n        /* \"--CODEGEN--\":37575:37577   */\n      0x40\n        /* \"--CODEGEN--\":37564:37573   */\n      dup4\n        /* \"--CODEGEN--\":37560:37578   */\n      add\n        /* \"--CODEGEN--\":37553:37601   */\n      mstore\n        /* \"--CODEGEN--\":37615:37720   */\n      tag_1074\n        /* \"--CODEGEN--\":37715:37719   */\n      dup2\n        /* \"--CODEGEN--\":37706:37712   */\n      dup9\n        /* \"--CODEGEN--\":37615:37720   */\n      tag_859\n      jump\t// in\n    tag_1074:\n        /* \"--CODEGEN--\":37607:37720   */\n      swap1\n      pop\n        /* \"--CODEGEN--\":37768:37777   */\n      dup2\n        /* \"--CODEGEN--\":37762:37766   */\n      dup2\n        /* \"--CODEGEN--\":37758:37778   */\n      sub\n        /* \"--CODEGEN--\":37753:37755   */\n      0x60\n        /* \"--CODEGEN--\":37742:37751   */\n      dup4\n        /* \"--CODEGEN--\":37738:37756   */\n      add\n        /* \"--CODEGEN--\":37731:37779   */\n      mstore\n        /* \"--CODEGEN--\":37793:37898   */\n      tag_1075\n        /* \"--CODEGEN--\":37893:37897   */\n      dup2\n        /* \"--CODEGEN--\":37884:37890   */\n      dup8\n        /* \"--CODEGEN--\":37793:37898   */\n      tag_859\n      jump\t// in\n    tag_1075:\n        /* \"--CODEGEN--\":37785:37898   */\n      swap1\n      pop\n        /* \"--CODEGEN--\":37947:37956   */\n      dup2\n        /* \"--CODEGEN--\":37941:37945   */\n      dup2\n        /* \"--CODEGEN--\":37937:37957   */\n      sub\n        /* \"--CODEGEN--\":37931:37934   */\n      0x80\n        /* \"--CODEGEN--\":37920:37929   */\n      dup4\n        /* \"--CODEGEN--\":37916:37935   */\n      add\n        /* \"--CODEGEN--\":37909:37958   */\n      mstore\n        /* \"--CODEGEN--\":37972:38077   */\n      tag_1076\n        /* \"--CODEGEN--\":38072:38076   */\n      dup2\n        /* \"--CODEGEN--\":38063:38069   */\n      dup7\n        /* \"--CODEGEN--\":37972:38077   */\n      tag_859\n      jump\t// in\n    tag_1076:\n        /* \"--CODEGEN--\":37964:38077   */\n      swap1\n      pop\n        /* \"--CODEGEN--\":38126:38135   */\n      dup2\n        /* \"--CODEGEN--\":38120:38124   */\n      dup2\n        /* \"--CODEGEN--\":38116:38136   */\n      sub\n        /* \"--CODEGEN--\":38110:38113   */\n      0xa0\n        /* \"--CODEGEN--\":38099:38108   */\n      dup4\n        /* \"--CODEGEN--\":38095:38114   */\n      add\n        /* \"--CODEGEN--\":38088:38137   */\n      mstore\n        /* \"--CODEGEN--\":38151:38256   */\n      tag_1077\n        /* \"--CODEGEN--\":38251:38255   */\n      dup2\n        /* \"--CODEGEN--\":38242:38248   */\n      dup6\n        /* \"--CODEGEN--\":38151:38256   */\n      tag_859\n      jump\t// in\n    tag_1077:\n        /* \"--CODEGEN--\":38143:38256   */\n      swap1\n      pop\n        /* \"--CODEGEN--\":38267:38340   */\n      tag_1078\n        /* \"--CODEGEN--\":38335:38338   */\n      0xc0\n        /* \"--CODEGEN--\":38324:38333   */\n      dup4\n        /* \"--CODEGEN--\":38320:38339   */\n      add\n        /* \"--CODEGEN--\":38311:38317   */\n      dup5\n        /* \"--CODEGEN--\":38267:38340   */\n      tag_980\n      jump\t// in\n    tag_1078:\n        /* \"--CODEGEN--\":37344:38350   */\n      swap9\n      swap8\n      pop\n      pop\n      pop\n      pop\n      pop\n      pop\n      pop\n      pop\n      jump\t// out\n        /* \"--CODEGEN--\":38357:38801   */\n    tag_418:\n      0x00\n        /* \"--CODEGEN--\":38540:38542   */\n      0x60\n        /* \"--CODEGEN--\":38529:38538   */\n      dup3\n        /* \"--CODEGEN--\":38525:38543   */\n      add\n        /* \"--CODEGEN--\":38517:38543   */\n      swap1\n      pop\n        /* \"--CODEGEN--\":38554:38625   */\n      tag_1080\n        /* \"--CODEGEN--\":38622:38623   */\n      0x00\n        /* \"--CODEGEN--\":38611:38620   */\n      dup4\n        /* \"--CODEGEN--\":38607:38624   */\n      add\n        /* \"--CODEGEN--\":38598:38604   */\n      dup7\n        /* \"--CODEGEN--\":38554:38625   */\n      tag_980\n      jump\t// in\n    tag_1080:\n        /* \"--CODEGEN--\":38636:38708   */\n      tag_1081\n        /* \"--CODEGEN--\":38704:38706   */\n      0x20\n        /* \"--CODEGEN--\":38693:38702   */\n      dup4\n        /* \"--CODEGEN--\":38689:38707   */\n      add\n        /* \"--CODEGEN--\":38680:38686   */\n      dup6\n        /* \"--CODEGEN--\":38636:38708   */\n      tag_980\n      jump\t// in\n    tag_1081:\n        /* \"--CODEGEN--\":38719:38791   */\n      tag_1082\n        /* \"--CODEGEN--\":38787:38789   */\n      0x40\n        /* \"--CODEGEN--\":38776:38785   */\n      dup4\n        /* \"--CODEGEN--\":38772:38790   */\n      add\n        /* \"--CODEGEN--\":38763:38769   */\n      dup5\n        /* \"--CODEGEN--\":38719:38791   */\n      tag_980\n      jump\t// in\n    tag_1082:\n        /* \"--CODEGEN--\":38511:38801   */\n      swap5\n      swap4\n      pop\n      pop\n      pop\n      pop\n      jump\t// out\n        /* \"--CODEGEN--\":38808:39352   */\n    tag_132:\n      0x00\n        /* \"--CODEGEN--\":39013:39016   */\n      0x80\n        /* \"--CODEGEN--\":39002:39011   */\n      dup3\n        /* \"--CODEGEN--\":38998:39017   */\n      add\n        /* \"--CODEGEN--\":38990:39017   */\n      swap1\n      pop\n        /* \"--CODEGEN--\":39028:39099   */\n      tag_1084\n        /* \"--CODEGEN--\":39096:39097   */\n      0x00\n        /* \"--CODEGEN--\":39085:39094   */\n      dup4\n        /* \"--CODEGEN--\":39081:39098   */\n      add\n        /* \"--CODEGEN--\":39072:39078   */\n      dup8\n        /* \"--CODEGEN--\":39028:39099   */\n      tag_980\n      jump\t// in\n    tag_1084:\n        /* \"--CODEGEN--\":39110:39182   */\n      tag_1085\n        /* \"--CODEGEN--\":39178:39180   */\n      0x20\n        /* \"--CODEGEN--\":39167:39176   */\n      dup4\n        /* \"--CODEGEN--\":39163:39181   */\n      add\n        /* \"--CODEGEN--\":39154:39160   */\n      dup7\n        /* \"--CODEGEN--\":39110:39182   */\n      tag_980\n      jump\t// in\n    tag_1085:\n        /* \"--CODEGEN--\":39193:39265   */\n      tag_1086\n        /* \"--CODEGEN--\":39261:39263   */\n      0x40\n        /* \"--CODEGEN--\":39250:39259   */\n      dup4\n        /* \"--CODEGEN--\":39246:39264   */\n      add\n        /* \"--CODEGEN--\":39237:39243   */\n      dup6\n        /* \"--CODEGEN--\":39193:39265   */\n      tag_980\n      jump\t// in\n    tag_1086:\n        /* \"--CODEGEN--\":39276:39342   */\n      tag_1087\n        /* \"--CODEGEN--\":39338:39340   */\n      0x60\n        /* \"--CODEGEN--\":39327:39336   */\n      dup4\n        /* \"--CODEGEN--\":39323:39341   */\n      add\n        /* \"--CODEGEN--\":39314:39320   */\n      dup5\n        /* \"--CODEGEN--\":39276:39342   */\n      tag_878\n      jump\t// in\n    tag_1087:\n        /* \"--CODEGEN--\":38984:39352   */\n      swap6\n      swap5\n      pop\n      pop\n      pop\n      pop\n      pop\n      jump\t// out\n        /* \"--CODEGEN--\":39359:40139   */\n    tag_117:\n      0x00\n        /* \"--CODEGEN--\":39626:39629   */\n      0xc0\n        /* \"--CODEGEN--\":39615:39624   */\n      dup3\n        /* \"--CODEGEN--\":39611:39630   */\n      add\n        /* \"--CODEGEN--\":39603:39630   */\n      swap1\n      pop\n        /* \"--CODEGEN--\":39641:39712   */\n      tag_1089\n        /* \"--CODEGEN--\":39709:39710   */\n      0x00\n        /* \"--CODEGEN--\":39698:39707   */\n      dup4\n        /* \"--CODEGEN--\":39694:39711   */\n      add\n        /* \"--CODEGEN--\":39685:39691   */\n      dup10\n        /* \"--CODEGEN--\":39641:39712   */\n      tag_980\n      jump\t// in\n    tag_1089:\n        /* \"--CODEGEN--\":39723:39795   */\n      tag_1090\n        /* \"--CODEGEN--\":39791:39793   */\n      0x20\n        /* \"--CODEGEN--\":39780:39789   */\n      dup4\n        /* \"--CODEGEN--\":39776:39794   */\n      add\n        /* \"--CODEGEN--\":39767:39773   */\n      dup9\n        /* \"--CODEGEN--\":39723:39795   */\n      tag_980\n      jump\t// in\n    tag_1090:\n        /* \"--CODEGEN--\":39806:39878   */\n      tag_1091\n        /* \"--CODEGEN--\":39874:39876   */\n      0x40\n        /* \"--CODEGEN--\":39863:39872   */\n      dup4\n        /* \"--CODEGEN--\":39859:39877   */\n      add\n        /* \"--CODEGEN--\":39850:39856   */\n      dup8\n        /* \"--CODEGEN--\":39806:39878   */\n      tag_980\n      jump\t// in\n    tag_1091:\n        /* \"--CODEGEN--\":39889:39961   */\n      tag_1092\n        /* \"--CODEGEN--\":39957:39959   */\n      0x60\n        /* \"--CODEGEN--\":39946:39955   */\n      dup4\n        /* \"--CODEGEN--\":39942:39960   */\n      add\n        /* \"--CODEGEN--\":39933:39939   */\n      dup7\n        /* \"--CODEGEN--\":39889:39961   */\n      tag_980\n      jump\t// in\n    tag_1092:\n        /* \"--CODEGEN--\":39972:40045   */\n      tag_1093\n        /* \"--CODEGEN--\":40040:40043   */\n      0x80\n        /* \"--CODEGEN--\":40029:40038   */\n      dup4\n        /* \"--CODEGEN--\":40025:40044   */\n      add\n        /* \"--CODEGEN--\":40016:40022   */\n      dup6\n        /* \"--CODEGEN--\":39972:40045   */\n      tag_980\n      jump\t// in\n    tag_1093:\n        /* \"--CODEGEN--\":40056:40129   */\n      tag_1094\n        /* \"--CODEGEN--\":40124:40127   */\n      0xa0\n        /* \"--CODEGEN--\":40113:40122   */\n      dup4\n        /* \"--CODEGEN--\":40109:40128   */\n      add\n        /* \"--CODEGEN--\":40100:40106   */\n      dup5\n        /* \"--CODEGEN--\":40056:40129   */\n      tag_980\n      jump\t// in\n    tag_1094:\n        /* \"--CODEGEN--\":39597:40139   */\n      swap8\n      swap7\n      pop\n      pop\n      pop\n      pop\n      pop\n      pop\n      pop\n      jump\t// out\n        /* \"--CODEGEN--\":40146:40402   */\n    tag_719:\n      0x00\n        /* \"--CODEGEN--\":40208:40210   */\n      0x40\n        /* \"--CODEGEN--\":40202:40211   */\n      mload\n        /* \"--CODEGEN--\":40192:40211   */\n      swap1\n      pop\n        /* \"--CODEGEN--\":40246:40250   */\n      dup2\n        /* \"--CODEGEN--\":40238:40244   */\n      dup2\n        /* \"--CODEGEN--\":40234:40251   */\n      add\n        /* \"--CODEGEN--\":40345:40351   */\n      dup2\n        /* \"--CODEGEN--\":40333:40343   */\n      dup2\n        /* \"--CODEGEN--\":40330:40352   */\n      lt\n        /* \"--CODEGEN--\":40309:40327   */\n      0xffffffffffffffff\n        /* \"--CODEGEN--\":40297:40307   */\n      dup3\n        /* \"--CODEGEN--\":40294:40328   */\n      gt\n        /* \"--CODEGEN--\":40291:40353   */\n      or\n        /* \"--CODEGEN--\":40288:40290   */\n      iszero\n      tag_1096\n      jumpi\n        /* \"--CODEGEN--\":40366:40367   */\n      0x00\n        /* \"--CODEGEN--\":40363:40364   */\n      dup1\n        /* \"--CODEGEN--\":40356:40368   */\n      revert\n        /* \"--CODEGEN--\":40288:40290   */\n    tag_1096:\n        /* \"--CODEGEN--\":40386:40396   */\n      dup1\n        /* \"--CODEGEN--\":40382:40384   */\n      0x40\n        /* \"--CODEGEN--\":40375:40397   */\n      mstore\n        /* \"--CODEGEN--\":40186:40402   */\n      pop\n      swap2\n      swap1\n      pop\n      jump\t// out\n        /* \"--CODEGEN--\":40409:40713   */\n    tag_718:\n      0x00\n        /* \"--CODEGEN--\":40568:40586   */\n      0xffffffffffffffff\n        /* \"--CODEGEN--\":40560:40566   */\n      dup3\n        /* \"--CODEGEN--\":40557:40587   */\n      gt\n        /* \"--CODEGEN--\":40554:40556   */\n      iszero\n      tag_1098\n      jumpi\n        /* \"--CODEGEN--\":40600:40601   */\n      0x00\n        /* \"--CODEGEN--\":40597:40598   */\n      dup1\n        /* \"--CODEGEN--\":40590:40602   */\n      revert\n        /* \"--CODEGEN--\":40554:40556   */\n    tag_1098:\n        /* \"--CODEGEN--\":40635:40639   */\n      0x20\n        /* \"--CODEGEN--\":40627:40633   */\n      dup3\n        /* \"--CODEGEN--\":40623:40640   */\n      mul\n        /* \"--CODEGEN--\":40615:40640   */\n      swap1\n      pop\n        /* \"--CODEGEN--\":40698:40702   */\n      0x20\n        /* \"--CODEGEN--\":40692:40696   */\n      dup2\n        /* \"--CODEGEN--\":40688:40703   */\n      add\n        /* \"--CODEGEN--\":40680:40703   */\n      swap1\n      pop\n        /* \"--CODEGEN--\":40491:40713   */\n      swap2\n      swap1\n      pop\n      jump\t// out\n        /* \"--CODEGEN--\":40720:40871   */\n    tag_841:\n      0x00\n        /* \"--CODEGEN--\":40806:40809   */\n      dup2\n        /* \"--CODEGEN--\":40798:40809   */\n      swap1\n      pop\n        /* \"--CODEGEN--\":40844:40848   */\n      0x20\n        /* \"--CODEGEN--\":40839:40842   */\n      dup3\n        /* \"--CODEGEN--\":40835:40849   */\n      add\n        /* \"--CODEGEN--\":40827:40849   */\n      swap1\n      pop\n        /* \"--CODEGEN--\":40792:40871   */\n      swap2\n      swap1\n      pop\n      jump\t// out\n        /* \"--CODEGEN--\":40878:41051   */\n    tag_865:\n      0x00\n        /* \"--CODEGEN--\":40961:40964   */\n      dup2\n        /* \"--CODEGEN--\":40953:40964   */\n      swap1\n      pop\n        /* \"--CODEGEN--\":40998:41001   */\n      dup2\n        /* \"--CODEGEN--\":40995:40996   */\n      0x00\n        /* \"--CODEGEN--\":40988:41002   */\n      mstore\n        /* \"--CODEGEN--\":41030:41034   */\n      0x20\n        /* \"--CODEGEN--\":41027:41028   */\n      0x00\n        /* \"--CODEGEN--\":41017:41035   */\n      keccak256\n        /* \"--CODEGEN--\":41009:41035   */\n      swap1\n      pop\n        /* \"--CODEGEN--\":40947:41051   */\n      swap2\n      swap1\n      pop\n      jump\t// out\n        /* \"--CODEGEN--\":41058:41195   */\n    tag_837:\n      0x00\n        /* \"--CODEGEN--\":41167:41172   */\n      dup2\n        /* \"--CODEGEN--\":41161:41173   */\n      mload\n        /* \"--CODEGEN--\":41151:41173   */\n      swap1\n      pop\n        /* \"--CODEGEN--\":41132:41195   */\n      swap2\n      swap1\n      pop\n      jump\t// out\n        /* \"--CODEGEN--\":41202:41343   */\n    tag_862:\n      0x00\n        /* \"--CODEGEN--\":41314:41319   */\n      dup2\n        /* \"--CODEGEN--\":41308:41320   */\n      sload\n        /* \"--CODEGEN--\":41298:41320   */\n      swap1\n      pop\n        /* \"--CODEGEN--\":41273:41343   */\n      swap2\n      swap1\n      pop\n      jump\t// out\n        /* \"--CODEGEN--\":41350:41472   */\n    tag_911:\n      0x00\n        /* \"--CODEGEN--\":41444:41449   */\n      dup2\n        /* \"--CODEGEN--\":41438:41450   */\n      mload\n        /* \"--CODEGEN--\":41428:41450   */\n      swap1\n      pop\n        /* \"--CODEGEN--\":41409:41472   */\n      swap2\n      swap1\n      pop\n      jump\t// out\n        /* \"--CODEGEN--\":41479:41587   */\n    tag_847:\n      0x00\n        /* \"--CODEGEN--\":41577:41581   */\n      0x20\n        /* \"--CODEGEN--\":41572:41575   */\n      dup3\n        /* \"--CODEGEN--\":41568:41582   */\n      add\n        /* \"--CODEGEN--\":41560:41582   */\n      swap1\n      pop\n        /* \"--CODEGEN--\":41554:41587   */\n      swap2\n      swap1\n      pop\n      jump\t// out\n        /* \"--CODEGEN--\":41594:41699   */\n    tag_873:\n      0x00\n        /* \"--CODEGEN--\":41689:41693   */\n      0x01\n        /* \"--CODEGEN--\":41684:41687   */\n      dup3\n        /* \"--CODEGEN--\":41680:41694   */\n      add\n        /* \"--CODEGEN--\":41672:41694   */\n      swap1\n      pop\n        /* \"--CODEGEN--\":41666:41699   */\n      swap2\n      swap1\n      pop\n      jump\t// out\n        /* \"--CODEGEN--\":41707:41875   */\n    tag_839:\n      0x00\n        /* \"--CODEGEN--\":41827:41833   */\n      dup3\n        /* \"--CODEGEN--\":41822:41825   */\n      dup3\n        /* \"--CODEGEN--\":41815:41834   */\n      mstore\n        /* \"--CODEGEN--\":41864:41868   */\n      0x20\n        /* \"--CODEGEN--\":41859:41862   */\n      dup3\n        /* \"--CODEGEN--\":41855:41869   */\n      add\n        /* \"--CODEGEN--\":41840:41869   */\n      swap1\n      pop\n        /* \"--CODEGEN--\":41808:41875   */\n      swap3\n      swap2\n      pop\n      pop\n      jump\t// out\n        /* \"--CODEGEN--\":41884:42062   */\n    tag_852:\n      0x00\n        /* \"--CODEGEN--\":42014:42020   */\n      dup3\n        /* \"--CODEGEN--\":42009:42012   */\n      dup3\n        /* \"--CODEGEN--\":42002:42021   */\n      mstore\n        /* \"--CODEGEN--\":42051:42055   */\n      0x20\n        /* \"--CODEGEN--\":42046:42049   */\n      dup3\n        /* \"--CODEGEN--\":42042:42056   */\n      add\n        /* \"--CODEGEN--\":42027:42056   */\n      swap1\n      pop\n        /* \"--CODEGEN--\":41995:42062   */\n      swap3\n      swap2\n      pop\n      pop\n      jump\t// out\n        /* \"--CODEGEN--\":42071:42234   */\n    tag_913:\n      0x00\n        /* \"--CODEGEN--\":42186:42192   */\n      dup3\n        /* \"--CODEGEN--\":42181:42184   */\n      dup3\n        /* \"--CODEGEN--\":42174:42193   */\n      mstore\n        /* \"--CODEGEN--\":42223:42227   */\n      0x20\n        /* \"--CODEGEN--\":42218:42221   */\n      dup3\n        /* \"--CODEGEN--\":42214:42228   */\n      add\n        /* \"--CODEGEN--\":42199:42228   */\n      swap1\n      pop\n        /* \"--CODEGEN--\":42167:42234   */\n      swap3\n      swap2\n      pop\n      pop\n      jump\t// out\n        /* \"--CODEGEN--\":42243:42388   */\n    tag_939:\n      0x00\n        /* \"--CODEGEN--\":42379:42382   */\n      dup2\n        /* \"--CODEGEN--\":42364:42382   */\n      swap1\n      pop\n        /* \"--CODEGEN--\":42357:42388   */\n      swap3\n      swap2\n      pop\n      pop\n      jump\t// out\n        /* \"--CODEGEN--\":42396:42481   */\n    tag_1110:\n      0x00\n        /* \"--CODEGEN--\":42471:42476   */\n      dup2\n        /* \"--CODEGEN--\":42460:42476   */\n      swap1\n      pop\n        /* \"--CODEGEN--\":42454:42481   */\n      swap2\n      swap1\n      pop\n      jump\t// out\n        /* \"--CODEGEN--\":42488:42579   */\n    tag_833:\n      0x00\n        /* \"--CODEGEN--\":42550:42574   */\n      tag_1113\n        /* \"--CODEGEN--\":42568:42573   */\n      dup3\n        /* \"--CODEGEN--\":42550:42574   */\n      tag_1114\n      jump\t// in\n    tag_1113:\n        /* \"--CODEGEN--\":42539:42574   */\n      swap1\n      pop\n        /* \"--CODEGEN--\":42533:42579   */\n      swap2\n      swap1\n      pop\n      jump\t// out\n        /* \"--CODEGEN--\":42586:42671   */\n    tag_877:\n      0x00\n        /* \"--CODEGEN--\":42659:42664   */\n      dup2\n        /* \"--CODEGEN--\":42652:42665   */\n      iszero\n        /* \"--CODEGEN--\":42645:42666   */\n      iszero\n        /* \"--CODEGEN--\":42634:42666   */\n      swap1\n      pop\n        /* \"--CODEGEN--\":42628:42671   */\n      swap2\n      swap1\n      pop\n      jump\t// out\n        /* \"--CODEGEN--\":42678:42750   */\n    tag_884:\n      0x00\n        /* \"--CODEGEN--\":42740:42745   */\n      dup2\n        /* \"--CODEGEN--\":42729:42745   */\n      swap1\n      pop\n        /* \"--CODEGEN--\":42723:42750   */\n      swap2\n      swap1\n      pop\n      jump\t// out\n        /* \"--CODEGEN--\":42757:42878   */\n    tag_1114:\n      0x00\n        /* \"--CODEGEN--\":42830:42872   */\n      0xffffffffffffffffffffffffffffffffffffffff\n        /* \"--CODEGEN--\":42823:42828   */\n      dup3\n        /* \"--CODEGEN--\":42819:42873   */\n      and\n        /* \"--CODEGEN--\":42808:42873   */\n      swap1\n      pop\n        /* \"--CODEGEN--\":42802:42878   */\n      swap2\n      swap1\n      pop\n      jump\t// out\n        /* \"--CODEGEN--\":42885:42957   */\n    tag_979:\n      0x00\n        /* \"--CODEGEN--\":42947:42952   */\n      dup2\n        /* \"--CODEGEN--\":42936:42952   */\n      swap1\n      pop\n        /* \"--CODEGEN--\":42930:42957   */\n      swap2\n      swap1\n      pop\n      jump\t// out\n        /* \"--CODEGEN--\":42964:43045   */\n    tag_1119:\n      0x00\n        /* \"--CODEGEN--\":43035:43039   */\n      0xff\n        /* \"--CODEGEN--\":43028:43033   */\n      dup3\n        /* \"--CODEGEN--\":43024:43040   */\n      and\n        /* \"--CODEGEN--\":43013:43040   */\n      swap1\n      pop\n        /* \"--CODEGEN--\":43007:43045   */\n      swap2\n      swap1\n      pop\n      jump\t// out\n        /* \"--CODEGEN--\":43052:43181   */\n    tag_829:\n      0x00\n        /* \"--CODEGEN--\":43139:43176   */\n      tag_1122\n        /* \"--CODEGEN--\":43170:43175   */\n      dup3\n        /* \"--CODEGEN--\":43139:43176   */\n      tag_1123\n      jump\t// in\n    tag_1122:\n        /* \"--CODEGEN--\":43126:43176   */\n      swap1\n      pop\n        /* \"--CODEGEN--\":43120:43181   */\n      swap2\n      swap1\n      pop\n      jump\t// out\n        /* \"--CODEGEN--\":43188:43349   */\n    tag_891:\n      0x00\n        /* \"--CODEGEN--\":43287:43344   */\n      tag_1125\n        /* \"--CODEGEN--\":43338:43343   */\n      dup3\n        /* \"--CODEGEN--\":43287:43344   */\n      tag_1126\n      jump\t// in\n    tag_1125:\n        /* \"--CODEGEN--\":43274:43344   */\n      swap1\n      pop\n        /* \"--CODEGEN--\":43268:43349   */\n      swap2\n      swap1\n      pop\n      jump\t// out\n        /* \"--CODEGEN--\":43356:43484   */\n    tag_1126:\n      0x00\n        /* \"--CODEGEN--\":43455:43479   */\n      tag_1128\n        /* \"--CODEGEN--\":43473:43478   */\n      dup3\n        /* \"--CODEGEN--\":43455:43479   */\n      tag_1114\n      jump\t// in\n    tag_1128:\n        /* \"--CODEGEN--\":43442:43479   */\n      swap1\n      pop\n        /* \"--CODEGEN--\":43436:43484   */\n      swap2\n      swap1\n      pop\n      jump\t// out\n        /* \"--CODEGEN--\":43491:43656   */\n    tag_895:\n      0x00\n        /* \"--CODEGEN--\":43592:43651   */\n      tag_1130\n        /* \"--CODEGEN--\":43645:43650   */\n      dup3\n        /* \"--CODEGEN--\":43592:43651   */\n      tag_1131\n      jump\t// in\n    tag_1130:\n        /* \"--CODEGEN--\":43579:43651   */\n      swap1\n      pop\n        /* \"--CODEGEN--\":43573:43656   */\n      swap2\n      swap1\n      pop\n      jump\t// out\n        /* \"--CODEGEN--\":43663:43793   */\n    tag_1131:\n      0x00\n        /* \"--CODEGEN--\":43764:43788   */\n      tag_1133\n        /* \"--CODEGEN--\":43782:43787   */\n      dup3\n        /* \"--CODEGEN--\":43764:43788   */\n      tag_1114\n      jump\t// in\n    tag_1133:\n        /* \"--CODEGEN--\":43751:43788   */\n      swap1\n      pop\n        /* \"--CODEGEN--\":43745:43793   */\n      swap2\n      swap1\n      pop\n      jump\t// out\n        /* \"--CODEGEN--\":43800:43965   */\n    tag_899:\n      0x00\n        /* \"--CODEGEN--\":43901:43960   */\n      tag_1135\n        /* \"--CODEGEN--\":43954:43959   */\n      dup3\n        /* \"--CODEGEN--\":43901:43960   */\n      tag_1136\n      jump\t// in\n    tag_1135:\n        /* \"--CODEGEN--\":43888:43960   */\n      swap1\n      pop\n        /* \"--CODEGEN--\":43882:43965   */\n      swap2\n      swap1\n      pop\n      jump\t// out\n        /* \"--CODEGEN--\":43972:44102   */\n    tag_1136:\n      0x00\n        /* \"--CODEGEN--\":44073:44097   */\n      tag_1138\n        /* \"--CODEGEN--\":44091:44096   */\n      dup3\n        /* \"--CODEGEN--\":44073:44097   */\n      tag_1114\n      jump\t// in\n    tag_1138:\n        /* \"--CODEGEN--\":44060:44097   */\n      swap1\n      pop\n        /* \"--CODEGEN--\":44054:44102   */\n      swap2\n      swap1\n      pop\n      jump\t// out\n        /* \"--CODEGEN--\":44109:44272   */\n    tag_903:\n      0x00\n        /* \"--CODEGEN--\":44209:44267   */\n      tag_1140\n        /* \"--CODEGEN--\":44261:44266   */\n      dup3\n        /* \"--CODEGEN--\":44209:44267   */\n      tag_1141\n      jump\t// in\n    tag_1140:\n        /* \"--CODEGEN--\":44196:44267   */\n      swap1\n      pop\n        /* \"--CODEGEN--\":44190:44272   */\n      swap2\n      swap1\n      pop\n      jump\t// out\n        /* \"--CODEGEN--\":44279:44408   */\n    tag_1141:\n      0x00\n        /* \"--CODEGEN--\":44379:44403   */\n      tag_1143\n        /* \"--CODEGEN--\":44397:44402   */\n      dup3\n        /* \"--CODEGEN--\":44379:44403   */\n      tag_1114\n      jump\t// in\n    tag_1143:\n        /* \"--CODEGEN--\":44366:44403   */\n      swap1\n      pop\n        /* \"--CODEGEN--\":44360:44408   */\n      swap2\n      swap1\n      pop\n      jump\t// out\n        /* \"--CODEGEN--\":44415:44528   */\n    tag_907:\n      0x00\n        /* \"--CODEGEN--\":44501:44523   */\n      tag_1145\n        /* \"--CODEGEN--\":44517:44522   */\n      dup3\n        /* \"--CODEGEN--\":44501:44523   */\n      tag_1119\n      jump\t// in\n    tag_1145:\n        /* \"--CODEGEN--\":44488:44523   */\n      swap1\n      pop\n        /* \"--CODEGEN--\":44482:44528   */\n      swap2\n      swap1\n      pop\n      jump\t// out\n        /* \"--CODEGEN--\":44535:44656   */\n    tag_1123:\n      0x00\n        /* \"--CODEGEN--\":44614:44651   */\n      tag_1147\n        /* \"--CODEGEN--\":44645:44650   */\n      dup3\n        /* \"--CODEGEN--\":44614:44651   */\n      tag_1148\n      jump\t// in\n    tag_1147:\n        /* \"--CODEGEN--\":44601:44651   */\n      swap1\n      pop\n        /* \"--CODEGEN--\":44595:44656   */\n      swap2\n      swap1\n      pop\n      jump\t// out\n        /* \"--CODEGEN--\":44663:44771   */\n    tag_1148:\n      0x00\n        /* \"--CODEGEN--\":44742:44766   */\n      tag_1150\n        /* \"--CODEGEN--\":44760:44765   */\n      dup3\n        /* \"--CODEGEN--\":44742:44766   */\n      tag_1114\n      jump\t// in\n    tag_1150:\n        /* \"--CODEGEN--\":44729:44766   */\n      swap1\n      pop\n        /* \"--CODEGEN--\":44723:44771   */\n      swap2\n      swap1\n      pop\n      jump\t// out\n        /* \"--CODEGEN--\":44779:45047   */\n    tag_915:\n        /* \"--CODEGEN--\":44844:44845   */\n      0x00\n        /* \"--CODEGEN--\":44851:44952   */\n    tag_1152:\n        /* \"--CODEGEN--\":44865:44871   */\n      dup4\n        /* \"--CODEGEN--\":44862:44863   */\n      dup2\n        /* \"--CODEGEN--\":44859:44872   */\n      lt\n        /* \"--CODEGEN--\":44851:44952   */\n      iszero\n      tag_1154\n      jumpi\n        /* \"--CODEGEN--\":44941:44942   */\n      dup1\n        /* \"--CODEGEN--\":44936:44939   */\n      dup3\n        /* \"--CODEGEN--\":44932:44943   */\n      add\n        /* \"--CODEGEN--\":44926:44944   */\n      mload\n        /* \"--CODEGEN--\":44922:44923   */\n      dup2\n        /* \"--CODEGEN--\":44917:44920   */\n      dup5\n        /* \"--CODEGEN--\":44913:44924   */\n      add\n        /* \"--CODEGEN--\":44906:44945   */\n      mstore\n        /* \"--CODEGEN--\":44887:44889   */\n      0x20\n        /* \"--CODEGEN--\":44884:44885   */\n      dup2\n        /* \"--CODEGEN--\":44880:44890   */\n      add\n        /* \"--CODEGEN--\":44875:44890   */\n      swap1\n      pop\n        /* \"--CODEGEN--\":44851:44952   */\n      jump(tag_1152)\n    tag_1154:\n        /* \"--CODEGEN--\":44967:44973   */\n      dup4\n        /* \"--CODEGEN--\":44964:44965   */\n      dup2\n        /* \"--CODEGEN--\":44961:44974   */\n      gt\n        /* \"--CODEGEN--\":44958:44960   */\n      iszero\n      tag_1155\n      jumpi\n        /* \"--CODEGEN--\":45032:45033   */\n      0x00\n        /* \"--CODEGEN--\":45023:45029   */\n      dup5\n        /* \"--CODEGEN--\":45018:45021   */\n      dup5\n        /* \"--CODEGEN--\":45014:45030   */\n      add\n        /* \"--CODEGEN--\":45007:45034   */\n      mstore\n        /* \"--CODEGEN--\":44958:44960   */\n    tag_1155:\n        /* \"--CODEGEN--\":44828:45047   */\n      pop\n      pop\n      pop\n      pop\n      jump\t// out\n        /* \"--CODEGEN--\":45055:45216   */\n    tag_1156:\n      0x00\n        /* \"--CODEGEN--\":45145:45211   */\n      tag_1158\n        /* \"--CODEGEN--\":45176:45210   */\n      tag_1159\n        /* \"--CODEGEN--\":45199:45209   */\n      dup4\n        /* \"--CODEGEN--\":45176:45210   */\n      tag_1160\n      jump\t// in\n    tag_1159:\n        /* \"--CODEGEN--\":45145:45211   */\n      tag_1110\n      jump\t// in\n    tag_1158:\n        /* \"--CODEGEN--\":45136:45211   */\n      swap1\n      pop\n        /* \"--CODEGEN--\":45130:45216   */\n      swap2\n      swap1\n      pop\n      jump\t// out\n        /* \"--CODEGEN--\":45223:45361   */\n    tag_870:\n      0x00\n        /* \"--CODEGEN--\":45299:45356   */\n      tag_1162\n        /* \"--CODEGEN--\":45350:45354   */\n      dup3\n        /* \"--CODEGEN--\":45344:45355   */\n      sload\n        /* \"--CODEGEN--\":45299:45356   */\n      tag_1156\n      jump\t// in\n    tag_1162:\n        /* \"--CODEGEN--\":45290:45356   */\n      swap1\n      pop\n        /* \"--CODEGEN--\":45284:45361   */\n      swap2\n      swap1\n      pop\n      jump\t// out\n        /* \"--CODEGEN--\":45368:45465   */\n    tag_917:\n      0x00\n        /* \"--CODEGEN--\":45456:45458   */\n      0x1f\n        /* \"--CODEGEN--\":45452:45459   */\n      not\n        /* \"--CODEGEN--\":45447:45449   */\n      0x1f\n        /* \"--CODEGEN--\":45440:45445   */\n      dup4\n        /* \"--CODEGEN--\":45436:45450   */\n      add\n        /* \"--CODEGEN--\":45432:45460   */\n      and\n        /* \"--CODEGEN--\":45422:45460   */\n      swap1\n      pop\n        /* \"--CODEGEN--\":45416:45465   */\n      swap2\n      swap1\n      pop\n      jump\t// out\n        /* \"--CODEGEN--\":45473:45575   */\n    tag_1160:\n      0x00\n        /* \"--CODEGEN--\":45559:45564   */\n      dup2\n        /* \"--CODEGEN--\":45556:45557   */\n      0x00\n        /* \"--CODEGEN--\":45552:45565   */\n      shr\n        /* \"--CODEGEN--\":45530:45565   */\n      swap1\n      pop\n        /* \"--CODEGEN--\":45524:45575   */\n      swap2\n      swap1\n      pop\n      jump\t// out\n        /* \"--CODEGEN--\":45583:45700   */\n    tag_709:\n        /* \"--CODEGEN--\":45652:45676   */\n      tag_1166\n        /* \"--CODEGEN--\":45670:45675   */\n      dup2\n        /* \"--CODEGEN--\":45652:45676   */\n      tag_833\n      jump\t// in\n    tag_1166:\n        /* \"--CODEGEN--\":45645:45650   */\n      dup2\n        /* \"--CODEGEN--\":45642:45677   */\n      eq\n        /* \"--CODEGEN--\":45632:45634   */\n      tag_1167\n      jumpi\n        /* \"--CODEGEN--\":45691:45692   */\n      0x00\n        /* \"--CODEGEN--\":45688:45689   */\n      dup1\n        /* \"--CODEGEN--\":45681:45693   */\n      revert\n        /* \"--CODEGEN--\":45632:45634   */\n    tag_1167:\n        /* \"--CODEGEN--\":45626:45700   */\n      pop\n      jump\t// out\n        /* \"--CODEGEN--\":45707:45824   */\n    tag_729:\n        /* \"--CODEGEN--\":45776:45800   */\n      tag_1169\n        /* \"--CODEGEN--\":45794:45799   */\n      dup2\n        /* \"--CODEGEN--\":45776:45800   */\n      tag_884\n      jump\t// in\n    tag_1169:\n        /* \"--CODEGEN--\":45769:45774   */\n      dup2\n        /* \"--CODEGEN--\":45766:45801   */\n      eq\n        /* \"--CODEGEN--\":45756:45758   */\n      tag_1170\n      jumpi\n        /* \"--CODEGEN--\":45815:45816   */\n      0x00\n        /* \"--CODEGEN--\":45812:45813   */\n      dup1\n        /* \"--CODEGEN--\":45805:45817   */\n      revert\n        /* \"--CODEGEN--\":45756:45758   */\n    tag_1170:\n        /* \"--CODEGEN--\":45750:45824   */\n      pop\n      jump\t// out\n        /* \"--CODEGEN--\":45831:45948   */\n    tag_748:\n        /* \"--CODEGEN--\":45900:45924   */\n      tag_1172\n        /* \"--CODEGEN--\":45918:45923   */\n      dup2\n        /* \"--CODEGEN--\":45900:45924   */\n      tag_979\n      jump\t// in\n    tag_1172:\n        /* \"--CODEGEN--\":45893:45898   */\n      dup2\n        /* \"--CODEGEN--\":45890:45925   */\n      eq\n        /* \"--CODEGEN--\":45880:45882   */\n      tag_1173\n      jumpi\n        /* \"--CODEGEN--\":45939:45940   */\n      0x00\n        /* \"--CODEGEN--\":45936:45937   */\n      dup1\n        /* \"--CODEGEN--\":45929:45941   */\n      revert\n        /* \"--CODEGEN--\":45880:45882   */\n    tag_1173:\n        /* \"--CODEGEN--\":45874:45948   */\n      pop\n      jump\t// out\n        /* \"--CODEGEN--\":45955:46068   */\n    tag_754:\n        /* \"--CODEGEN--\":46022:46044   */\n      tag_1175\n        /* \"--CODEGEN--\":46038:46043   */\n      dup2\n        /* \"--CODEGEN--\":46022:46044   */\n      tag_1119\n      jump\t// in\n    tag_1175:\n        /* \"--CODEGEN--\":46015:46020   */\n      dup2\n        /* \"--CODEGEN--\":46012:46045   */\n      eq\n        /* \"--CODEGEN--\":46002:46004   */\n      tag_1176\n      jumpi\n        /* \"--CODEGEN--\":46059:46060   */\n      0x00\n        /* \"--CODEGEN--\":46056:46057   */\n      dup1\n        /* \"--CODEGEN--\":46049:46061   */\n      revert\n        /* \"--CODEGEN--\":46002:46004   */\n    tag_1176:\n        /* \"--CODEGEN--\":45996:46068   */\n      pop\n      jump\t// out\n\n    auxdata: 0xa2646970667358221220eb44f4ab801cde94bff8ccfb78ceb84907f28896fe96edad3eecf8c51ba4b5c964736f6c634300060b0033\n}\n","bytecode":{"linkReferences":{"lib/Constants.sol":{"Constants":[{"length":20,"start":3583},{"length":20,"start":4184},{"length":20,"start":6586},{"length":20,"start":8505},{"length":20,"start":11388},{"length":20,"start":16328}]},"lib/Random.sol":{"Random":[{"length":20,"start":4885},{"length":20,"start":5252}]}},"object":"60806040523480156200001157600080fd5b50600033604051602001620000279190620002e9565b60405160208183030381529060405280519060200120905062000066604051620000519062000306565b6040518091039020826200009460201b60201c565b6200008d604051620000789062000306565b604051809103902033620000f660201b60201c565b5062000391565b8060008084815260200190815260200160002060020154837fbd79b86ffe0ab8e8776151514217cd7cacd52c909f66475c3af44e129f0b00ff60405160405180910390a480600080848152602001908152602001600020600201819055505050565b6200010882826200010c60201b60201c565b5050565b6200013a81600080858152602001908152602001600020600001620001af60201b620037031790919060201c565b15620001ab5762000150620001e760201b60201c565b73ffffffffffffffffffffffffffffffffffffffff168173ffffffffffffffffffffffffffffffffffffffff16837f2f8788117e7eff1d82e926ec794901d17c78024a50270940304540a733656f0d60405160405180910390a45b5050565b6000620001df836000018373ffffffffffffffffffffffffffffffffffffffff1660001b620001ef60201b60201c565b905092915050565b600033905090565b60006200020383836200026960201b60201c565b6200025e57826000018290806001815401808255809150506001900390600052602060002001600090919091909150558260000180549050836001016000848152602001908152602001600020819055506001905062000263565b600090505b92915050565b600080836001016000848152602001908152602001600020541415905092915050565b620002a16200029b8262000328565b6200035c565b82525050565b6000620002b66006836200031d565b91507f57726974657200000000000000000000000000000000000000000000000000006000830152600682019050919050565b6000620002f782846200028c565b60148201915081905092915050565b60006200031382620002a7565b9150819050919050565b600081905092915050565b600062000335826200033c565b9050919050565b600073ffffffffffffffffffffffffffffffffffffffff82169050919050565b6000620003698262000370565b9050919050565b60006200037d8262000384565b9050919050565b60008160601b9050919050565b615d5c80620003a16000396000f3fe608060405234801561001057600080fd5b50600436106101f05760003560e01c8063828496d61161010f578063d1a4a43d116100a2578063df4eb59c11610071578063df4eb59c1461060c578063e38c7c4214610616578063f25b3f9914610646578063fae4425d14610679576101f0565b8063d1a4a43d14610574578063d2a4669a146105a4578063d547741f146105d4578063da2824a8146105f0576101f0565b80639b87f644116100de5780639b87f644146104e9578063a217fddf146104f3578063a27ce1ef14610511578063ca15c87314610544576101f0565b8063828496d6146104215780639010d07c1461045657806391d148541461048657806392b48411146104b6576101f0565b806336568abe1161018757806342c1e5871161015657806342c1e587146103ad5780634e6753b7146103cb5780635ce8772f146103e75780637542ff9514610403576101f0565b806336568abe14610327578063378ab9a9146103435780633cd32fd4146103735780633df395a31461038f576101f0565b8063248a9ca3116101c3578063248a9ca31461028d5780632b29ba23146102bd5780632e716fb1146102ed5780632f2ff15d1461030b576101f0565b806304c07569146101f557806306552ff31461022557806317d99c04146102415780631d69ff9b1461025d575b600080fd5b61020f600480360381019061020a9190614892565b6106a9565b60405161021c9190615709565b60405180910390f35b61023f600480360381019061023a919061473b565b610870565b005b61025b60048036038101906102569190614920565b61097a565b005b61027760048036038101906102729190614ac1565b610f6a565b6040516102849190615405565b60405180910390f35b6102a760048036038101906102a2919061479e565b611363565b6040516102b49190615420565b60405180910390f35b6102d760048036038101906102d29190614712565b611382565b6040516102e49190615405565b60405180910390f35b6102f56113a8565b6040516103029190615471565b60405180910390f35b610325600480360381019061032091906147f0565b6113ce565b005b610341600480360381019061033c91906147f0565b611441565b005b61035d60048036038101906103589190614892565b6114c4565b60405161036a91906153e3565b60405180910390f35b61038d60048036038101906103889190614a1e565b611535565b005b610397611c68565b6040516103a4919061543b565b60405180910390f35b6103b5611c8e565b6040516103c2919061548c565b60405180910390f35b6103e560048036038101906103e09190614a5a565b611cb4565b005b61040160048036038101906103fc9190614892565b6127f7565b005b61040b612b00565b6040516104189190615456565b60405180910390f35b61043b600480360381019061043691906148e4565b612b26565b60405161044d969594939291906159b7565b60405180910390f35b610470600480360381019061046b919061482c565b612b6f565b60405161047d91906153ad565b60405180910390f35b6104a0600480360381019061049b91906147f0565b612ba0565b6040516104ad9190615405565b60405180910390f35b6104d060048036038101906104cb9190614a1e565b612bd1565b6040516104e09493929190615972565b60405180910390f35b6104f1612c28565b005b6104fb613239565b6040516105089190615420565b60405180910390f35b61052b60048036038101906105269190614a1e565b613240565b60405161053b949392919061572b565b60405180910390f35b61055e6004803603810190610559919061479e565b613441565b60405161056b919061578c565b60405180910390f35b61058e60048036038101906105899190614a1e565b613467565b60405161059b91906153e3565b60405180910390f35b6105be60048036038101906105b99190614892565b6134f2565b6040516105cb91906153e3565b60405180910390f35b6105ee60048036038101906105e991906147f0565b613563565b005b61060a60048036038101906106059190614712565b6135d6565b005b61061461362a565b005b610630600480360381019061062b9190614892565b613635565b60405161063d919061578c565b60405180910390f35b610660600480360381019061065b9190614892565b613655565b6040516106709493929190615972565b60405180910390f35b610693600480360381019061068e9190614892565b613692565b6040516106a091906153e3565b60405180910390f35b6106b161440a565b6003600083815260200190815260200160002060405180610100016040529081600082015481526020016001820180548060200260200160405190810160405280929190818152602001828054801561072957602002820191906000526020600020905b815481526020019060010190808311610715575b505050505081526020016002820180548060200260200160405190810160405280929190818152602001828054801561078157602002820191906000526020600020905b81548152602001906001019080831161076d575b50505050508152602001600382018054806020026020016040519081016040528092919081815260200182805480156107d957602002820191906000526020600020905b8154815260200190600101908083116107c5575b505050505081526020016004820180548060200260200160405190810160405280929190818152602001828054801561083157602002820191906000526020600020905b81548152602001906001019080831161081d575b5050505050815260200160058201548152602001600682015481526020016007820160009054906101000a900460ff1615151515815250509050919050565b83600460006101000a81548173ffffffffffffffffffffffffffffffffffffffff021916908373ffffffffffffffffffffffffffffffffffffffff16021790555082600560006101000a81548173ffffffffffffffffffffffffffffffffffffffff021916908373ffffffffffffffffffffffffffffffffffffffff16021790555081600660006101000a81548173ffffffffffffffffffffffffffffffffffffffff021916908373ffffffffffffffffffffffffffffffffffffffff16021790555080600760006101000a81548173ffffffffffffffffffffffffffffffffffffffff021916908373ffffffffffffffffffffffffffffffffffffffff16021790555050505050565b86600560009054906101000a900473ffffffffffffffffffffffffffffffffffffffff1673ffffffffffffffffffffffffffffffffffffffff1663757991a86040518163ffffffff1660e01b815260040160206040518083038186803b1580156109e357600080fd5b505afa1580156109f7573d6000803e3d6000fd5b505050506040513d601f19601f82011682018060405250810190610a1b91906148bb565b8114610a5c576040517f08c379a0000000000000000000000000000000000000000000000000000000008152600401610a5390615609565b60405180910390fd5b73__$e861534859442f2de25279a5ccd1626413$__63c198f8ba6040518163ffffffff1660e01b815260040160206040518083038186803b158015610aa057600080fd5b505af4158015610ab4573d6000803e3d6000fd5b505050506040513d601f19601f82011682018060405250810190610ad89190614b10565b60ff16600560009054906101000a900473ffffffffffffffffffffffffffffffffffffffff1673ffffffffffffffffffffffffffffffffffffffff16631865c57d6040518163ffffffff1660e01b815260040160206040518083038186803b158015610b4357600080fd5b505afa158015610b57573d6000803e3d6000fd5b505050506040513d601f19601f82011682018060405250810190610b7b91906148bb565b8114610bbc576040517f08c379a0000000000000000000000000000000000000000000000000000000008152600401610bb3906156a9565b60405180910390fd5b6000600460009054906101000a900473ffffffffffffffffffffffffffffffffffffffff1673ffffffffffffffffffffffffffffffffffffffff16636022a485336040518263ffffffff1660e01b8152600401610c1991906153c8565b60206040518083038186803b158015610c3157600080fd5b505afa158015610c45573d6000803e3d6000fd5b505050506040513d601f19601f82011682018060405250810190610c6991906148bb565b9050610c76858583610f6a565b610cb5576040517f08c379a0000000000000000000000000000000000000000000000000000000008152600401610cac906155a9565b60405180910390fd5b73__$e861534859442f2de25279a5ccd1626413$__63375b3c0a6040518163ffffffff1660e01b815260040160206040518083038186803b158015610cf957600080fd5b505af4158015610d0d573d6000803e3d6000fd5b505050506040513d601f19601f82011682018060405250810190610d3191906148bb565b600460009054906101000a900473ffffffffffffffffffffffffffffffffffffffff1673ffffffffffffffffffffffffffffffffffffffff1663e3c998fe836040518263ffffffff1660e01b8152600401610d8c919061578c565b6101006040518083038186803b158015610da557600080fd5b505afa158015610db9573d6000803e3d6000fd5b505050506040513d601f19601f82011682018060405250810190610ddd9190614868565b604001511015610e22576040517f08c379a0000000000000000000000000000000000000000000000000000000008152600401610e1990615669565b60405180910390fd5b610f178a6040518061010001604052808481526020018c81526020018b81526020018a8152602001898152602001888152602001600460009054906101000a900473ffffffffffffffffffffffffffffffffffffffff1673ffffffffffffffffffffffffffffffffffffffff1663e3c998fe896040518263ffffffff1660e01b8152600401610eb1919061578c565b6101006040518083038186803b158015610eca57600080fd5b505afa158015610ede573d6000803e3d6000fd5b505050506040513d601f19601f82011682018060405250810190610f029190614868565b60400151815260200160011515815250613733565b7fee036cc96c88163f353feaa4d497e88baaebeb631f40ad9b8a6d51bb6fad40768a828b8b8b8b8b8b42604051610f5699989796959493929190615807565b60405180910390a150505050505050505050565b6000816110d1600173__$1d057983f7f91628f36c7ec2cdd2f7806a$__635075dbfb600a600460009054906101000a900473ffffffffffffffffffffffffffffffffffffffff1673ffffffffffffffffffffffffffffffffffffffff1663bc788d466040518163ffffffff1660e01b815260040160206040518083038186803b158015610ff657600080fd5b505afa15801561100a573d6000803e3d6000fd5b505050506040513d601f19601f8201168201806040525081019061102e91906148bb565b8a60405160200161103f919061578c565b604051602081830303815290604052805190602001206040518463ffffffff1660e01b8152600401611073939291906154d0565b60206040518083038186803b15801561108b57600080fd5b505af415801561109f573d6000803e3d6000fd5b505050506040513d601f19601f820116820180604052508101906110c391906148bb565b613d7890919063ffffffff16565b146110df576000905061135c565b600073__$1d057983f7f91628f36c7ec2cdd2f7806a$__63b07ceab8600a85886040516020016111109291906157de565b604051602081830303815290604052805190602001206040518363ffffffff1660e01b81526004016111439291906154a7565b60206040518083038186803b15801561115b57600080fd5b505af415801561116f573d6000803e3d6000fd5b505050506040513d601f19601f8201168201806040525081019061119391906147c7565b905060006111b26401000000008360001c613dcd90919063ffffffff16565b90506000600460009054906101000a900473ffffffffffffffffffffffffffffffffffffffff1673ffffffffffffffffffffffffffffffffffffffff1663e3c998fe876040518263ffffffff1660e01b8152600401611211919061578c565b6101006040518083038186803b15801561122a57600080fd5b505afa15801561123e573d6000803e3d6000fd5b505050506040513d601f19601f820116820180604052508101906112629190614868565b60400151905061132f640100000000600460009054906101000a900473ffffffffffffffffffffffffffffffffffffffff1673ffffffffffffffffffffffffffffffffffffffff1663e3c998fe886040518263ffffffff1660e01b81526004016112cc919061578c565b6101006040518083038186803b1580156112e557600080fd5b505afa1580156112f9573d6000803e3d6000fd5b505050506040513d601f19601f8201168201806040525081019061131d9190614868565b60400151613e1790919063ffffffff16565b6113428284613e1790919063ffffffff16565b1115611354576000935050505061135c565b600193505050505b9392505050565b6000806000838152602001908152602001600020600201549050919050565b60006113a160405161139390615398565b604051809103902083612ba0565b9050919050565b600560009054906101000a900473ffffffffffffffffffffffffffffffffffffffff1681565b6113f4600080848152602001908152602001600020600201546113ef613e87565b612ba0565b611433576040517f08c379a000000000000000000000000000000000000000000000000000000000815260040161142a90615549565b60405180910390fd5b61143d8282613e8f565b5050565b611449613e87565b73ffffffffffffffffffffffffffffffffffffffff168173ffffffffffffffffffffffffffffffffffffffff16146114b6576040517f08c379a00000000000000000000000000000000000000000000000000000000081526004016114ad906156e9565b60405180910390fd5b6114c08282613f22565b5050565b60606003600083815260200190815260200160002060020180548060200260200160405190810160405280929190818152602001828054801561152657602002820191906000526020600020905b815481526020019060010190808311611512575b50505050509050809050919050565b81600560009054906101000a900473ffffffffffffffffffffffffffffffffffffffff1673ffffffffffffffffffffffffffffffffffffffff1663757991a86040518163ffffffff1660e01b815260040160206040518083038186803b15801561159e57600080fd5b505afa1580156115b2573d6000803e3d6000fd5b505050506040513d601f19601f820116820180604052508101906115d691906148bb565b8114611617576040517f08c379a000000000000000000000000000000000000000000000000000000000815260040161160e90615609565b60405180910390fd5b73__$e861534859442f2de25279a5ccd1626413$__63f240f7c36040518163ffffffff1660e01b815260040160206040518083038186803b15801561165b57600080fd5b505af415801561166f573d6000803e3d6000fd5b505050506040513d601f19601f820116820180604052508101906116939190614b10565b60ff16600560009054906101000a900473ffffffffffffffffffffffffffffffffffffffff1673ffffffffffffffffffffffffffffffffffffffff16631865c57d6040518163ffffffff1660e01b815260040160206040518083038186803b1580156116fe57600080fd5b505afa158015611712573d6000803e3d6000fd5b505050506040513d601f19601f8201168201806040525081019061173691906148bb565b8114611777576040517f08c379a000000000000000000000000000000000000000000000000000000000815260040161176e906156a9565b60405180910390fd5b60006001600086815260200190815260200160002060003373ffffffffffffffffffffffffffffffffffffffff1673ffffffffffffffffffffffffffffffffffffffff168152602001908152602001600020600501549050600660009054906101000a900473ffffffffffffffffffffffffffffffffffffffff1673ffffffffffffffffffffffffffffffffffffffff1663a6a145d986836040518363ffffffff1660e01b815260040161182c9291906157de565b60206040518083038186803b15801561184457600080fd5b505afa158015611858573d6000803e3d6000fd5b505050506040513d601f19601f8201168201806040525081019061187c91906148bb565b6001600087815260200190815260200160002060003373ffffffffffffffffffffffffffffffffffffffff1673ffffffffffffffffffffffffffffffffffffffff1681526020019081526020016000206000015414611910576040517f08c379a000000000000000000000000000000000000000000000000000000000815260040161190790615689565b60405180910390fd5b60006001600087815260200190815260200160002060003373ffffffffffffffffffffffffffffffffffffffff1673ffffffffffffffffffffffffffffffffffffffff16815260200190815260200160002060010154905060006001600088815260200190815260200160002060003373ffffffffffffffffffffffffffffffffffffffff1673ffffffffffffffffffffffffffffffffffffffff16815260200190815260200160002060020154905060006001600089815260200190815260200160002060003373ffffffffffffffffffffffffffffffffffffffff1673ffffffffffffffffffffffffffffffffffffffff1681526020019081526020016000206003015490506000600260008a81526020019081526020016000208881548110611a3857fe5b906000526020600020906008020160000154905060008411611a5957600080fd5b83600260008b81526020019081526020016000208981548110611a7857fe5b90600052602060002090600802016002018681548110611a9457fe5b9060005260206000200154141580611af0575082600260008b81526020019081526020016000208981548110611ac657fe5b90600052602060002090600802016003018681548110611ae257fe5b906000526020600020015414155b80611b3f575081600260008b81526020019081526020016000208981548110611b1557fe5b90600052602060002090600802016004018681548110611b3157fe5b906000526020600020015414155b15611c22576000600260008b81526020019081526020016000208981548110611b6457fe5b906000526020600020906008020160070160006101000a81548160ff021916908315150217905550600460009054906101000a900473ffffffffffffffffffffffffffffffffffffffff1673ffffffffffffffffffffffffffffffffffffffff16630f91ce1982338c6040518463ffffffff1660e01b8152600401611beb939291906157a7565b600060405180830381600087803b158015611c0557600080fd5b505af1158015611c19573d6000803e3d6000fd5b50505050611c5d565b6040517f08c379a0000000000000000000000000000000000000000000000000000000008152600401611c5490615649565b60405180910390fd5b505050505050505050565b600760009054906101000a900473ffffffffffffffffffffffffffffffffffffffff1681565b600660009054906101000a900473ffffffffffffffffffffffffffffffffffffffff1681565b82600560009054906101000a900473ffffffffffffffffffffffffffffffffffffffff1673ffffffffffffffffffffffffffffffffffffffff1663757991a86040518163ffffffff1660e01b815260040160206040518083038186803b158015611d1d57600080fd5b505afa158015611d31573d6000803e3d6000fd5b505050506040513d601f19601f82011682018060405250810190611d5591906148bb565b8114611d96576040517f08c379a0000000000000000000000000000000000000000000000000000000008152600401611d8d90615609565b60405180910390fd5b73__$e861534859442f2de25279a5ccd1626413$__63f240f7c36040518163ffffffff1660e01b815260040160206040518083038186803b158015611dda57600080fd5b505af4158015611dee573d6000803e3d6000fd5b505050506040513d601f19601f82011682018060405250810190611e129190614b10565b60ff16600560009054906101000a900473ffffffffffffffffffffffffffffffffffffffff1673ffffffffffffffffffffffffffffffffffffffff16631865c57d6040518163ffffffff1660e01b815260040160206040518083038186803b158015611e7d57600080fd5b505afa158015611e91573d6000803e3d6000fd5b505050506040513d601f19601f82011682018060405250810190611eb591906148bb565b8114611ef6576040517f08c379a0000000000000000000000000000000000000000000000000000000008152600401611eed906156a9565b60405180910390fd5b6000611fb86002600660009054906101000a900473ffffffffffffffffffffffffffffffffffffffff1673ffffffffffffffffffffffffffffffffffffffff1663a6a145d989896040518363ffffffff1660e01b8152600401611f5a9291906157de565b60206040518083038186803b158015611f7257600080fd5b505afa158015611f86573d6000803e3d6000fd5b505050506040513d601f19601f82011682018060405250810190611faa91906148bb565b613fb590919063ffffffff16565b9050600061207c6004600660009054906101000a900473ffffffffffffffffffffffffffffffffffffffff1673ffffffffffffffffffffffffffffffffffffffff1663a6a145d98a8a6040518363ffffffff1660e01b815260040161201e9291906157de565b60206040518083038186803b15801561203657600080fd5b505afa15801561204a573d6000803e3d6000fd5b505050506040513d601f19601f8201168201806040525081019061206e91906148bb565b613fb590919063ffffffff16565b9050600061215360046121456003600660009054906101000a900473ffffffffffffffffffffffffffffffffffffffff1673ffffffffffffffffffffffffffffffffffffffff1663a6a145d98d8d6040518363ffffffff1660e01b81526004016120e79291906157de565b60206040518083038186803b1580156120ff57600080fd5b505afa158015612113573d6000803e3d6000fd5b505050506040513d601f19601f8201168201806040525081019061213791906148bb565b613e1790919063ffffffff16565b613fb590919063ffffffff16565b90506000600160008a815260200190815260200160002060003373ffffffffffffffffffffffffffffffffffffffff1673ffffffffffffffffffffffffffffffffffffffff1681526020019081526020016000206000015490506000600160008b815260200190815260200160002060003373ffffffffffffffffffffffffffffffffffffffff1673ffffffffffffffffffffffffffffffffffffffff1681526020019081526020016000206004015490506000600160008c815260200190815260200160002060003373ffffffffffffffffffffffffffffffffffffffff1673ffffffffffffffffffffffffffffffffffffffff1681526020019081526020016000206000015414156122be5788600160008c815260200190815260200160002060003373ffffffffffffffffffffffffffffffffffffffff1673ffffffffffffffffffffffffffffffffffffffff16815260200190815260200160002060050181905550612354565b88600160008c815260200190815260200160002060003373ffffffffffffffffffffffffffffffffffffffff1673ffffffffffffffffffffffffffffffffffffffff1681526020019081526020016000206005015414612353576040517f08c379a000000000000000000000000000000000000000000000000000000000815260040161234a90615629565b60405180910390fd5b5b60008090505b885181101561273a578189828151811061237057fe5b6020026020010151116123b8576040517f08c379a00000000000000000000000000000000000000000000000000000000081526004016123af90615569565b60405180910390fd5b8881815181106123c457fe5b602002602001015191506124a2600660009054906101000a900473ffffffffffffffffffffffffffffffffffffffff1673ffffffffffffffffffffffffffffffffffffffff16639c66556f8d8d8d868151811061241d57fe5b60200260200101516040518463ffffffff1660e01b81526004016124439392919061593b565b60206040518083038186803b15801561245b57600080fd5b505afa15801561246f573d6000803e3d6000fd5b505050506040513d601f19601f8201168201806040525081019061249391906148bb565b84613d7890919063ffffffff16565b92506000600160008d815260200190815260200160002060003373ffffffffffffffffffffffffffffffffffffffff1673ffffffffffffffffffffffffffffffffffffffff168152602001908152602001600020600201541480156125075750848310155b156125785788818151811061251857fe5b6020026020010151600160008d815260200190815260200160002060003373ffffffffffffffffffffffffffffffffffffffff1673ffffffffffffffffffffffffffffffffffffffff168152602001908152602001600020600201819055505b6000600160008d815260200190815260200160002060003373ffffffffffffffffffffffffffffffffffffffff1673ffffffffffffffffffffffffffffffffffffffff168152602001908152602001600020600101541480156125da57508583115b1561264b578881815181106125eb57fe5b6020026020010151600160008d815260200190815260200160002060003373ffffffffffffffffffffffffffffffffffffffff1673ffffffffffffffffffffffffffffffffffffffff168152602001908152602001600020600101819055505b6000600160008d815260200190815260200160002060003373ffffffffffffffffffffffffffffffffffffffff1673ffffffffffffffffffffffffffffffffffffffff168152602001908152602001600020600301541480156126ad57508383115b1561271e578881815181106126be57fe5b6020026020010151600160008d815260200190815260200160002060003373ffffffffffffffffffffffffffffffffffffffff1673ffffffffffffffffffffffffffffffffffffffff168152602001908152602001600020600301819055505b6127105a101561272d5761273a565b808060010191505061235a565b5080600160008c815260200190815260200160002060003373ffffffffffffffffffffffffffffffffffffffff1673ffffffffffffffffffffffffffffffffffffffff1681526020019081526020016000206004018190555081600160008c815260200190815260200160002060003373ffffffffffffffffffffffffffffffffffffffff1673ffffffffffffffffffffffffffffffffffffffff1681526020019081526020016000206000018190555050505050505050505050565b80600560009054906101000a900473ffffffffffffffffffffffffffffffffffffffff1673ffffffffffffffffffffffffffffffffffffffff1663757991a86040518163ffffffff1660e01b815260040160206040518083038186803b15801561286057600080fd5b505afa158015612874573d6000803e3d6000fd5b505050506040513d601f19601f8201168201806040525081019061289891906148bb565b81146128d9576040517f08c379a00000000000000000000000000000000000000000000000000000000081526004016128d090615609565b60405180910390fd5b73__$e861534859442f2de25279a5ccd1626413$__63f240f7c36040518163ffffffff1660e01b815260040160206040518083038186803b15801561291d57600080fd5b505af4158015612931573d6000803e3d6000fd5b505050506040513d601f19601f820116820180604052508101906129559190614b10565b60ff16600560009054906101000a900473ffffffffffffffffffffffffffffffffffffffff1673ffffffffffffffffffffffffffffffffffffffff16631865c57d6040518163ffffffff1660e01b815260040160206040518083038186803b1580156129c057600080fd5b505afa1580156129d4573d6000803e3d6000fd5b505050506040513d601f19601f820116820180604052508101906129f891906148bb565b8114612a39576040517f08c379a0000000000000000000000000000000000000000000000000000000008152600401612a30906156a9565b60405180910390fd5b6040518060c00160405280600081526020016000815260200160008152602001600081526020016000815260200160008152506001600085815260200190815260200160002060003373ffffffffffffffffffffffffffffffffffffffff1673ffffffffffffffffffffffffffffffffffffffff168152602001908152602001600020600082015181600001556020820151816001015560408201518160020155606082015181600301556080820151816004015560a08201518160050155905050505050565b600460009054906101000a900473ffffffffffffffffffffffffffffffffffffffff1681565b6001602052816000526040600020602052806000526040600020600091509150508060000154908060010154908060020154908060030154908060040154908060050154905086565b6000612b9882600080868152602001908152602001600020600001613fff90919063ffffffff16565b905092915050565b6000612bc98260008086815260200190815260200160002060000161401990919063ffffffff16565b905092915050565b60026020528160005260406000208181548110612bea57fe5b9060005260206000209060080201600091509150508060000154908060050154908060060154908060070160009054906101000a900460ff16905084565b612c3133611382565b612c70576040517f08c379a0000000000000000000000000000000000000000000000000000000008152600401612c67906156c9565b60405180910390fd5b6000600560009054906101000a900473ffffffffffffffffffffffffffffffffffffffff1673ffffffffffffffffffffffffffffffffffffffff1663757991a86040518163ffffffff1660e01b815260040160206040518083038186803b158015612cda57600080fd5b505afa158015612cee573d6000803e3d6000fd5b505050506040513d601f19601f82011682018060405250810190612d1291906148bb565b905060006003600060018403815260200190815260200160002060000154148015612d56575060006002600060018403815260200190815260200160002080549050115b156132355760008090505b60026000600184038152602001908152602001600020805490508160ff16101561323357600260006001840381526020019081526020016000208160ff1681548110612da957fe5b906000526020600020906008020160070160009054906101000a900460ff161561322657600260006001840381526020019081526020016000208160ff1681548110612df157fe5b906000526020600020906008020160036000600185038152602001908152602001600020600082015481600001556001820181600101908054612e35929190614451565b506002820181600201908054612e4c929190614451565b506003820181600301908054612e63929190614451565b506004820181600401908054612e7a929190614451565b5060058201548160050155600682015481600601556007820160009054906101000a900460ff168160070160006101000a81548160ff0219169083151502179055509050506000600260006001850381526020019081526020016000208260ff1681548110612ee557fe5b90600052602060002090600802016000015490507f5ef264ae9101b91bd7117350c5e85901297fa0569e7a3e07eb7ec0a6281529f06001840382600260006001880381526020019081526020016000208560ff1681548110612f4357fe5b9060005260206000209060080201600201600260006001890381526020019081526020016000208660ff1681548110612f7857fe5b90600052602060002090600802016003016002600060018a0381526020019081526020016000208760ff1681548110612fad57fe5b90600052602060002090600802016004016002600060018b0381526020019081526020016000208860ff1681548110612fe257fe5b90600052602060002090600802016001014260405161300797969594939291906158b0565b60405180910390a160008090505b600260006001860381526020019081526020016000208360ff168154811061303957fe5b9060005260206000209060080201600101805490508160ff16101561318e57600760009054906101000a900473ffffffffffffffffffffffffffffffffffffffff1673ffffffffffffffffffffffffffffffffffffffff166356350bdf600260006001880381526020019081526020016000208560ff16815481106130ba57fe5b90600052602060002090600802016001018360ff16815481106130d957fe5b9060005260206000200154600260006001890381526020019081526020016000208660ff168154811061310857fe5b90600052602060002090600802016002018460ff168154811061312757fe5b90600052602060002001546040518363ffffffff1660e01b815260040161314f9291906157de565b600060405180830381600087803b15801561316957600080fd5b505af115801561317d573d6000803e3d6000fd5b505050508080600101915050613015565b50600460009054906101000a900473ffffffffffffffffffffffffffffffffffffffff1673ffffffffffffffffffffffffffffffffffffffff1663746c8b6582856040518363ffffffff1660e01b81526004016131ec9291906157de565b600060405180830381600087803b15801561320657600080fd5b505af115801561321a573d6000803e3d6000fd5b50505050505050613237565b8080600101915050612d61565b505b505b565b6000801b81565b61324861440a565b606080606060026000878152602001908152602001600020858154811061326b57fe5b90600052602060002090600802016040518061010001604052908160008201548152602001600182018054806020026020016040519081016040528092919081815260200182805480156132de57602002820191906000526020600020905b8154815260200190600101908083116132ca575b505050505081526020016002820180548060200260200160405190810160405280929190818152602001828054801561333657602002820191906000526020600020905b815481526020019060010190808311613322575b505050505081526020016003820180548060200260200160405190810160405280929190818152602001828054801561338e57602002820191906000526020600020905b81548152602001906001019080831161337a575b50505050508152602001600482018054806020026020016040519081016040528092919081815260200182805480156133e657602002820191906000526020600020905b8154815260200190600101908083116133d2575b5050505050815260200160058201548152602001600682015481526020016007820160009054906101000a900460ff161515151581525050935083846040015185606001518660800151935093509350935092959194509250565b6000613460600080848152602001908152602001600020600001614049565b9050919050565b606060026000848152602001908152602001600020828154811061348757fe5b90600052602060002090600802016002018054806020026020016040519081016040528092919081815260200182805480156134e257602002820191906000526020600020905b8154815260200190600101908083116134ce575b5050505050905080905092915050565b60606003600083815260200190815260200160002060030180548060200260200160405190810160405280929190818152602001828054801561355457602002820191906000526020600020905b815481526020019060010190808311613540575b50505050509050809050919050565b61358960008084815260200190815260200160002060020154613584613e87565b612ba0565b6135c8576040517f08c379a00000000000000000000000000000000000000000000000000000000081526004016135bf906155c9565b60405180910390fd5b6135d28282613f22565b5050565b6135df33611382565b61361e576040517f08c379a0000000000000000000000000000000000000000000000000000000008152600401613615906156c9565b60405180910390fd5b6136278161405e565b50565b613633336140c1565b565b600060026000838152602001908152602001600020805490509050919050565b60036020528060005260406000206000915090508060000154908060050154908060060154908060070160009054906101000a900460ff16905084565b6060600360008381526020019081526020016000206004018054806020026020016040519081016040528092919081815260200182805480156136f457602002820191906000526020600020905b8154815260200190600101908083116136e0575b50505050509050809050919050565b600061372b836000018373ffffffffffffffffffffffffffffffffffffffff1660001b614124565b905092915050565b60006002600084815260200190815260200160002080549050141561384457600260008381526020019081526020016000208190806001815401808255809150506001900390600052602060002090600802016000909190919091506000820151816000015560208201518160010190805190602001906137b59291906144a3565b5060408201518160020190805190602001906137d29291906144a3565b5060608201518160030190805190602001906137ef9291906144a3565b50608082015181600401908051906020019061380c9291906144a3565b5060a0820151816005015560c0820151816006015560e08201518160070160006101000a81548160ff02191690831515021790555050505b60006002600084815260200190815260200160002080549050905060008090505b6002600085815260200190815260200160002080549050811015613916578260c001516002600086815260200190815260200160002082815481106138a657fe5b90600052602060002090600802016006015410156138c657809150613916565b8260a001516002600086815260200190815260200160002082815481106138e957fe5b906000526020600020906008020160050154111561390957809150613916565b8080600101915050613865565b506002600084815260200190815260200160002082908060018154018082558091505060019003906000526020600020906008020160009091909190915060008201518160000155602082015181600101908051906020019061397a9291906144a3565b5060408201518160020190805190602001906139979291906144a3565b5060608201518160030190805190602001906139b49291906144a3565b5060808201518160040190805190602001906139d19291906144a3565b5060a0820151816005015560c0820151816006015560e08201518160070160006101000a81548160ff02191690831515021790555050506000600160026000868152602001908152602001600020805490500390505b81811115613b4257600260008581526020019081526020016000206001820381548110613a5057fe5b9060005260206000209060080201600260008681526020019081526020016000208281548110613a7c57fe5b9060005260206000209060080201600082015481600001556001820181600101908054613aaa929190614451565b506002820181600201908054613ac1929190614451565b506003820181600301908054613ad8929190614451565b506004820181600401908054613aef929190614451565b5060058201548160050155600682015481600601556007820160009054906101000a900460ff168160070160006101000a81548160ff021916908315150217905550905050808060019003915050613a27565b5081600260008581526020019081526020016000208281548110613b6257fe5b9060005260206000209060080201600082015181600001556020820151816001019080519060200190613b969291906144a3565b506040820151816002019080519060200190613bb39291906144a3565b506060820151816003019080519060200190613bd09291906144a3565b506080820151816004019080519060200190613bed9291906144a3565b5060a0820151816005015560c0820151816006015560e08201518160070160006101000a81548160ff02191690831515021790555090505073__$e861534859442f2de25279a5ccd1626413$__63379597e06040518163ffffffff1660e01b815260040160206040518083038186803b158015613c6957600080fd5b505af4158015613c7d573d6000803e3d6000fd5b505050506040513d601f19601f82011682018060405250810190613ca191906148bb565b60026000858152602001908152602001600020805490501115613d735760026000848152602001908152602001600020600160026000868152602001908152602001600020805490500381548110613cf557fe5b9060005260206000209060080201600080820160009055600182016000613d1c91906144f0565b600282016000613d2c91906144f0565b600382016000613d3c91906144f0565b600482016000613d4c91906144f0565b600582016000905560068201600090556007820160006101000a81549060ff021916905550505b505050565b600080828401905083811015613dc3576040517f08c379a0000000000000000000000000000000000000000000000000000000008152600401613dba90615589565b60405180910390fd5b8091505092915050565b6000613e0f83836040518060400160405280601881526020017f536166654d6174683a206d6f64756c6f206279207a65726f0000000000000000815250614194565b905092915050565b600080831415613e2a5760009050613e81565b6000828402905082848281613e3b57fe5b0414613e7c576040517f08c379a0000000000000000000000000000000000000000000000000000000008152600401613e73906155e9565b60405180910390fd5b809150505b92915050565b600033905090565b613eb68160008085815260200190815260200160002060000161370390919063ffffffff16565b15613f1e57613ec3613e87565b73ffffffffffffffffffffffffffffffffffffffff168173ffffffffffffffffffffffffffffffffffffffff16837f2f8788117e7eff1d82e926ec794901d17c78024a50270940304540a733656f0d60405160405180910390a45b5050565b613f49816000808581526020019081526020016000206000016141f090919063ffffffff16565b15613fb157613f56613e87565b73ffffffffffffffffffffffffffffffffffffffff168173ffffffffffffffffffffffffffffffffffffffff16837ff6391f5c32d9c69d2a47ea670b442974b53935d1edc7fd64eb21e047a839171b60405160405180910390a45b5050565b6000613ff783836040518060400160405280601a81526020017f536166654d6174683a206469766973696f6e206279207a65726f000000000000815250614220565b905092915050565b600061400e8360000183614281565b60001c905092915050565b6000614041836000018373ffffffffffffffffffffffffffffffffffffffff1660001b6142ee565b905092915050565b600061405782600001614311565b9050919050565b61407b60405161406d90615398565b6040518091039020826113ce565b8073ffffffffffffffffffffffffffffffffffffffff167f6ff3aa2ea7b53070f6d9d07a445d338d89e8edef44250ffa8be19f53910d4a2e60405160405180910390a250565b6140de6040516140d090615398565b604051809103902082611441565b8073ffffffffffffffffffffffffffffffffffffffff167f86e5bbceda94081c32220d685f37cc4e3ea7bb0be2dfbf0cb703579505a5390e60405160405180910390a250565b600061413083836142ee565b61418957826000018290806001815401808255809150506001900390600052602060002001600090919091909150558260000180549050836001016000848152602001908152602001600020819055506001905061418e565b600090505b92915050565b60008083141582906141dc576040517f08c379a00000000000000000000000000000000000000000000000000000000081526004016141d39190615507565b60405180910390fd5b508284816141e657fe5b0690509392505050565b6000614218836000018373ffffffffffffffffffffffffffffffffffffffff1660001b614322565b905092915050565b60008083118290614267576040517f08c379a000000000000000000000000000000000000000000000000000000000815260040161425e9190615507565b60405180910390fd5b50600083858161427357fe5b049050809150509392505050565b6000818360000180549050116142cc576040517f08c379a00000000000000000000000000000000000000000000000000000000081526004016142c390615529565b60405180910390fd5b8260000182815481106142db57fe5b9060005260206000200154905092915050565b600080836001016000848152602001908152602001600020541415905092915050565b600081600001805490509050919050565b600080836001016000848152602001908152602001600020549050600081146143fe576000600182039050600060018660000180549050039050600086600001828154811061436d57fe5b906000526020600020015490508087600001848154811061438a57fe5b90600052602060002001819055506001830187600101600083815260200190815260200160002081905550866000018054806143c257fe5b60019003818190600052602060002001600090559055866001016000878152602001908152602001600020600090556001945050505050614404565b60009150505b92915050565b604051806101000160405280600081526020016060815260200160608152602001606081526020016060815260200160008152602001600081526020016000151581525090565b8280548282559060005260206000209081019282156144925760005260206000209182015b82811115614491578254825591600101919060010190614476565b5b50905061449f9190614511565b5090565b8280548282559060005260206000209081019282156144df579160200282015b828111156144de5782518255916020019190600101906144c3565b5b5090506144ec9190614511565b5090565b508054600082559060005260206000209081019061450e9190614511565b50565b61453391905b8082111561452f576000816000905550600101614517565b5090565b90565b60008135905061454581615cca565b92915050565b60008151905061455a81615cca565b92915050565b600082601f83011261457157600080fd5b813561458461457f82615a45565b615a18565b915081818352602084019350602081019050838560208402820111156145a957600080fd5b60005b838110156145d957816145bf88826146d3565b8452602084019350602083019250506001810190506145ac565b5050505092915050565b6000813590506145f281615ce1565b92915050565b60008151905061460781615ce1565b92915050565b6000610100828403121561462057600080fd5b61462b610100615a18565b9050600061463b848285016146e8565b600083015250602061464f8482850161454b565b6020830152506040614663848285016146e8565b6040830152506060614677848285016146e8565b606083015250608061468b848285016146e8565b60808301525060a061469f848285016146e8565b60a08301525060c06146b3848285016146e8565b60c08301525060e06146c7848285016146e8565b60e08301525092915050565b6000813590506146e281615cf8565b92915050565b6000815190506146f781615cf8565b92915050565b60008151905061470c81615d0f565b92915050565b60006020828403121561472457600080fd5b600061473284828501614536565b91505092915050565b6000806000806080858703121561475157600080fd5b600061475f87828801614536565b945050602061477087828801614536565b935050604061478187828801614536565b925050606061479287828801614536565b91505092959194509250565b6000602082840312156147b057600080fd5b60006147be848285016145e3565b91505092915050565b6000602082840312156147d957600080fd5b60006147e7848285016145f8565b91505092915050565b6000806040838503121561480357600080fd5b6000614811858286016145e3565b925050602061482285828601614536565b9150509250929050565b6000806040838503121561483f57600080fd5b600061484d858286016145e3565b925050602061485e858286016146d3565b9150509250929050565b6000610100828403121561487b57600080fd5b60006148898482850161460d565b91505092915050565b6000602082840312156148a457600080fd5b60006148b2848285016146d3565b91505092915050565b6000602082840312156148cd57600080fd5b60006148db848285016146e8565b91505092915050565b600080604083850312156148f757600080fd5b6000614905858286016146d3565b925050602061491685828601614536565b9150509250929050565b600080600080600080600060e0888a03121561493b57600080fd5b60006149498a828b016146d3565b975050602088013567ffffffffffffffff81111561496657600080fd5b6149728a828b01614560565b965050604088013567ffffffffffffffff81111561498f57600080fd5b61499b8a828b01614560565b955050606088013567ffffffffffffffff8111156149b857600080fd5b6149c48a828b01614560565b945050608088013567ffffffffffffffff8111156149e157600080fd5b6149ed8a828b01614560565b93505060a06149fe8a828b016146d3565b92505060c0614a0f8a828b016146d3565b91505092959891949750929550565b60008060408385031215614a3157600080fd5b6000614a3f858286016146d3565b9250506020614a50858286016146d3565b9150509250929050565b600080600060608486031215614a6f57600080fd5b6000614a7d868287016146d3565b9350506020614a8e868287016146d3565b925050604084013567ffffffffffffffff811115614aab57600080fd5b614ab786828701614560565b9150509250925092565b600080600060608486031215614ad657600080fd5b6000614ae4868287016146d3565b9350506020614af5868287016146d3565b9250506040614b06868287016146d3565b9150509250925092565b600060208284031215614b2257600080fd5b6000614b30848285016146fd565b91505092915050565b6000614b45838361536b565b60208301905092915050565b614b5a81615b74565b82525050565b614b6981615b15565b82525050565b6000614b7a82615a92565b614b848185615acd565b9350614b8f83615a6d565b8060005b83811015614bc0578151614ba78882614b39565b9750614bb283615ab3565b925050600181019050614b93565b5085935050505092915050565b6000614bd882615a92565b614be28185615ade565b9350614bed83615a6d565b8060005b83811015614c1e578151614c058882614b39565b9750614c1083615ab3565b925050600181019050614bf1565b5085935050505092915050565b6000614c3682615a9d565b614c408185615ade565b9350614c4b83615a7d565b8060005b83811015614c8357614c6082615c99565b614c6a8882614b39565b9750614c7583615ac0565b925050600181019050614c4f565b5085935050505092915050565b614c9981615b27565b82525050565b614ca881615b27565b82525050565b614cb781615b33565b82525050565b614cc681615b33565b82525050565b614cd581615b86565b82525050565b614ce481615baa565b82525050565b614cf381615bce565b82525050565b614d0281615bf2565b82525050565b614d1181615c16565b82525050565b6000614d2282615aa8565b614d2c8185615aef565b9350614d3c818560208601615c4c565b614d4581615cac565b840191505092915050565b6000614d5d602283615aef565b91507f456e756d657261626c655365743a20696e646578206f7574206f6620626f756e60008301527f64730000000000000000000000000000000000000000000000000000000000006020830152604082019050919050565b6000614dc3602f83615aef565b91507f416363657373436f6e74726f6c3a2073656e646572206d75737420626520616e60008301527f2061646d696e20746f206772616e7400000000000000000000000000000000006020830152604082019050919050565b6000614e29602983615aef565b91507f736f727465645b695d206973206e6f742067726561746572207468616e206c6160008301527f73745669736974656400000000000000000000000000000000000000000000006020830152604082019050919050565b6000614e8f601b83615aef565b91507f536166654d6174683a206164646974696f6e206f766572666c6f7700000000006000830152602082019050919050565b6000614ecf600b83615aef565b91507f6e6f7420656c65637465640000000000000000000000000000000000000000006000830152602082019050919050565b6000614f0f603083615aef565b91507f416363657373436f6e74726f6c3a2073656e646572206d75737420626520616e60008301527f2061646d696e20746f207265766f6b65000000000000000000000000000000006020830152604082019050919050565b6000614f75600683615b00565b91507f57726974657200000000000000000000000000000000000000000000000000006000830152600682019050919050565b6000614fb5602183615aef565b91507f536166654d6174683a206d756c7469706c69636174696f6e206f766572666c6f60008301527f77000000000000000000000000000000000000000000000000000000000000006020830152604082019050919050565b600061501b600f83615aef565b91507f696e636f72726563742065706f636800000000000000000000000000000000006000830152602082019050919050565b600061505b601483615aef565b91507f41737365744964206e6f74206d61746368696e670000000000000000000000006000830152602082019050919050565b600061509b603783615aef565b91507f50726f706f73656420416c7465726e61746520626c6f636b206973206964656e60008301527f746963616c20746f2070726f706f73656420626c6f636b0000000000000000006020830152604082019050919050565b6000615101601983615aef565b91507f7374616b652062656c6f77206d696e696d756d207374616b65000000000000006000830152602082019050919050565b6000615141602183615aef565b91507f546f74616c207374616b652072657665616c656420646f65736e74206d61746360008301527f68000000000000000000000000000000000000000000000000000000000000006020830152604082019050919050565b60006151a7600f83615aef565b91507f696e636f727265637420737461746500000000000000000000000000000000006000830152602082019050919050565b60006151e7603083615aef565b91507f577269746572526f6c653a2063616c6c657220646f6573206e6f74206861766560008301527f207468652057726974657220726f6c65000000000000000000000000000000006020830152604082019050919050565b600061524d602f83615aef565b91507f416363657373436f6e74726f6c3a2063616e206f6e6c792072656e6f756e636560008301527f20726f6c657320666f722073656c6600000000000000000000000000000000006020830152604082019050919050565b6000610100830160008301516152bf600086018261536b565b50602083015184820360208601526152d78282614b6f565b915050604083015184820360408601526152f18282614b6f565b9150506060830151848203606086015261530b8282614b6f565b915050608083015184820360808601526153258282614b6f565b91505060a083015161533a60a086018261536b565b5060c083015161534d60c086018261536b565b5060e083015161536060e0860182614c90565b508091505092915050565b61537481615b5d565b82525050565b61538381615b5d565b82525050565b61539281615b5d565b82525050565b60006153a382614f68565b9150819050919050565b60006020820190506153c26000830184614b60565b92915050565b60006020820190506153dd6000830184614b51565b92915050565b600060208201905081810360008301526153fd8184614bcd565b905092915050565b600060208201905061541a6000830184614c9f565b92915050565b60006020820190506154356000830184614cae565b92915050565b60006020820190506154506000830184614ccc565b92915050565b600060208201905061546b6000830184614cdb565b92915050565b60006020820190506154866000830184614cea565b92915050565b60006020820190506154a16000830184614cf9565b92915050565b60006040820190506154bc6000830185614d08565b6154c96020830184614cbd565b9392505050565b60006060820190506154e56000830186614d08565b6154f26020830185615389565b6154ff6040830184614cbd565b949350505050565b600060208201905081810360008301526155218184614d17565b905092915050565b6000602082019050818103600083015261554281614d50565b9050919050565b6000602082019050818103600083015261556281614db6565b9050919050565b6000602082019050818103600083015261558281614e1c565b9050919050565b600060208201905081810360008301526155a281614e82565b9050919050565b600060208201905081810360008301526155c281614ec2565b9050919050565b600060208201905081810360008301526155e281614f02565b9050919050565b6000602082019050818103600083015261560281614fa8565b9050919050565b600060208201905081810360008301526156228161500e565b9050919050565b600060208201905081810360008301526156428161504e565b9050919050565b600060208201905081810360008301526156628161508e565b9050919050565b60006020820190508181036000830152615682816150f4565b9050919050565b600060208201905081810360008301526156a281615134565b9050919050565b600060208201905081810360008301526156c28161519a565b9050919050565b600060208201905081810360008301526156e2816151da565b9050919050565b6000602082019050818103600083015261570281615240565b9050919050565b6000602082019050818103600083015261572381846152a6565b905092915050565b6000608082019050818103600083015261574581876152a6565b905081810360208301526157598186614bcd565b9050818103604083015261576d8185614bcd565b905081810360608301526157818184614bcd565b905095945050505050565b60006020820190506157a1600083018461537a565b92915050565b60006060820190506157bc600083018661537a565b6157c96020830185614b51565b6157d6604083018461537a565b949350505050565b60006040820190506157f3600083018561537a565b615800602083018461537a565b9392505050565b60006101208201905061581d600083018c61537a565b61582a602083018b61537a565b818103604083015261583c818a614bcd565b905081810360608301526158508189614bcd565b905081810360808301526158648188614bcd565b905081810360a08301526158788187614bcd565b905061588760c083018661537a565b61589460e083018561537a565b6158a261010083018461537a565b9a9950505050505050505050565b600060e0820190506158c5600083018a61537a565b6158d2602083018961537a565b81810360408301526158e48188614c2b565b905081810360608301526158f88187614c2b565b9050818103608083015261590c8186614c2b565b905081810360a08301526159208185614c2b565b905061592f60c083018461537a565b98975050505050505050565b6000606082019050615950600083018661537a565b61595d602083018561537a565b61596a604083018461537a565b949350505050565b6000608082019050615987600083018761537a565b615994602083018661537a565b6159a1604083018561537a565b6159ae6060830184614c9f565b95945050505050565b600060c0820190506159cc600083018961537a565b6159d9602083018861537a565b6159e6604083018761537a565b6159f3606083018661537a565b615a00608083018561537a565b615a0d60a083018461537a565b979650505050505050565b6000604051905081810181811067ffffffffffffffff82111715615a3b57600080fd5b8060405250919050565b600067ffffffffffffffff821115615a5c57600080fd5b602082029050602081019050919050565b6000819050602082019050919050565b60008190508160005260206000209050919050565b600081519050919050565b600081549050919050565b600081519050919050565b6000602082019050919050565b6000600182019050919050565b600082825260208201905092915050565b600082825260208201905092915050565b600082825260208201905092915050565b600081905092915050565b6000819050919050565b6000615b2082615b3d565b9050919050565b60008115159050919050565b6000819050919050565b600073ffffffffffffffffffffffffffffffffffffffff82169050919050565b6000819050919050565b600060ff82169050919050565b6000615b7f82615c28565b9050919050565b6000615b9182615b98565b9050919050565b6000615ba382615b3d565b9050919050565b6000615bb582615bbc565b9050919050565b6000615bc782615b3d565b9050919050565b6000615bd982615be0565b9050919050565b6000615beb82615b3d565b9050919050565b6000615bfd82615c04565b9050919050565b6000615c0f82615b3d565b9050919050565b6000615c2182615b67565b9050919050565b6000615c3382615c3a565b9050919050565b6000615c4582615b3d565b9050919050565b60005b83811015615c6a578082015181840152602081019050615c4f565b83811115615c79576000848401525b50505050565b6000615c92615c8d83615cbd565b615b0b565b9050919050565b6000615ca58254615c7f565b9050919050565b6000601f19601f8301169050919050565b60008160001c9050919050565b615cd381615b15565b8114615cde57600080fd5b50565b615cea81615b33565b8114615cf557600080fd5b50565b615d0181615b5d565b8114615d0c57600080fd5b50565b615d1881615b67565b8114615d2357600080fd5b5056fea2646970667358221220eb44f4ab801cde94bff8ccfb78ceb84907f28896fe96edad3eecf8c51ba4b5c964736f6c634300060b0033","opcodes":"PUSH1 0x80 PUSH1 0x40 MSTORE CALLVALUE DUP1 ISZERO PUSH3 0x11 JUMPI PUSH1 0x0 DUP1 REVERT JUMPDEST POP PUSH1 0x0 CALLER PUSH1 0x40 MLOAD PUSH1 0x20 ADD PUSH3 0x27 SWAP2 SWAP1 PUSH3 0x2E9 JUMP JUMPDEST PUSH1 0x40 MLOAD PUSH1 0x20 DUP2 DUP4 SUB SUB DUP2 MSTORE SWAP1 PUSH1 0x40 MSTORE DUP1 MLOAD SWAP1 PUSH1 0x20 ADD KECCAK256 SWAP1 POP PUSH3 0x66 PUSH1 0x40 MLOAD PUSH3 0x51 SWAP1 PUSH3 0x306 JUMP JUMPDEST PUSH1 0x40 MLOAD DUP1 SWAP2 SUB SWAP1 KECCAK256 DUP3 PUSH3 0x94 PUSH1 0x20 SHL PUSH1 0x20 SHR JUMP JUMPDEST PUSH3 0x8D PUSH1 0x40 MLOAD PUSH3 0x78 SWAP1 PUSH3 0x306 JUMP JUMPDEST PUSH1 0x40 MLOAD DUP1 SWAP2 SUB SWAP1 KECCAK256 CALLER PUSH3 0xF6 PUSH1 0x20 SHL PUSH1 0x20 SHR JUMP JUMPDEST POP PUSH3 0x391 JUMP JUMPDEST DUP1 PUSH1 0x0 DUP1 DUP5 DUP2 MSTORE PUSH1 0x20 ADD SWAP1 DUP2 MSTORE PUSH1 0x20 ADD PUSH1 0x0 KECCAK256 PUSH1 0x2 ADD SLOAD DUP4 PUSH32 0xBD79B86FFE0AB8E8776151514217CD7CACD52C909F66475C3AF44E129F0B00FF PUSH1 0x40 MLOAD PUSH1 0x40 MLOAD DUP1 SWAP2 SUB SWAP1 LOG4 DUP1 PUSH1 0x0 DUP1 DUP5 DUP2 MSTORE PUSH1 0x20 ADD SWAP1 DUP2 MSTORE PUSH1 0x20 ADD PUSH1 0x0 KECCAK256 PUSH1 0x2 ADD DUP2 SWAP1 SSTORE POP POP POP JUMP JUMPDEST PUSH3 0x108 DUP3 DUP3 PUSH3 0x10C PUSH1 0x20 SHL PUSH1 0x20 SHR JUMP JUMPDEST POP POP JUMP JUMPDEST PUSH3 0x13A DUP2 PUSH1 0x0 DUP1 DUP6 DUP2 MSTORE PUSH1 0x20 ADD SWAP1 DUP2 MSTORE PUSH1 0x20 ADD PUSH1 0x0 KECCAK256 PUSH1 0x0 ADD PUSH3 0x1AF PUSH1 0x20 SHL PUSH3 0x3703 OR SWAP1 SWAP2 SWAP1 PUSH1 0x20 SHR JUMP JUMPDEST ISZERO PUSH3 0x1AB JUMPI PUSH3 0x150 PUSH3 0x1E7 PUSH1 0x20 SHL PUSH1 0x20 SHR JUMP JUMPDEST PUSH20 0xFFFFFFFFFFFFFFFFFFFFFFFFFFFFFFFFFFFFFFFF AND DUP2 PUSH20 0xFFFFFFFFFFFFFFFFFFFFFFFFFFFFFFFFFFFFFFFF AND DUP4 PUSH32 0x2F8788117E7EFF1D82E926EC794901D17C78024A50270940304540A733656F0D PUSH1 0x40 MLOAD PUSH1 0x40 MLOAD DUP1 SWAP2 SUB SWAP1 LOG4 JUMPDEST POP POP JUMP JUMPDEST PUSH1 0x0 PUSH3 0x1DF DUP4 PUSH1 0x0 ADD DUP4 PUSH20 0xFFFFFFFFFFFFFFFFFFFFFFFFFFFFFFFFFFFFFFFF AND PUSH1 0x0 SHL PUSH3 0x1EF PUSH1 0x20 SHL PUSH1 0x20 SHR JUMP JUMPDEST SWAP1 POP SWAP3 SWAP2 POP POP JUMP JUMPDEST PUSH1 0x0 CALLER SWAP1 POP SWAP1 JUMP JUMPDEST PUSH1 0x0 PUSH3 0x203 DUP4 DUP4 PUSH3 0x269 PUSH1 0x20 SHL PUSH1 0x20 SHR JUMP JUMPDEST PUSH3 0x25E JUMPI DUP3 PUSH1 0x0 ADD DUP3 SWAP1 DUP1 PUSH1 0x1 DUP2 SLOAD ADD DUP1 DUP3 SSTORE DUP1 SWAP2 POP POP PUSH1 0x1 SWAP1 SUB SWAP1 PUSH1 0x0 MSTORE PUSH1 0x20 PUSH1 0x0 KECCAK256 ADD PUSH1 0x0 SWAP1 SWAP2 SWAP1 SWAP2 SWAP1 SWAP2 POP SSTORE DUP3 PUSH1 0x0 ADD DUP1 SLOAD SWAP1 POP DUP4 PUSH1 0x1 ADD PUSH1 0x0 DUP5 DUP2 MSTORE PUSH1 0x20 ADD SWAP1 DUP2 MSTORE PUSH1 0x20 ADD PUSH1 0x0 KECCAK256 DUP2 SWAP1 SSTORE POP PUSH1 0x1 SWAP1 POP PUSH3 0x263 JUMP JUMPDEST PUSH1 0x0 SWAP1 POP JUMPDEST SWAP3 SWAP2 POP POP JUMP JUMPDEST PUSH1 0x0 DUP1 DUP4 PUSH1 0x1 ADD PUSH1 0x0 DUP5 DUP2 MSTORE PUSH1 0x20 ADD SWAP1 DUP2 MSTORE PUSH1 0x20 ADD PUSH1 0x0 KECCAK256 SLOAD EQ ISZERO SWAP1 POP SWAP3 SWAP2 POP POP JUMP JUMPDEST PUSH3 0x2A1 PUSH3 0x29B DUP3 PUSH3 0x328 JUMP JUMPDEST PUSH3 0x35C JUMP JUMPDEST DUP3 MSTORE POP POP JUMP JUMPDEST PUSH1 0x0 PUSH3 0x2B6 PUSH1 0x6 DUP4 PUSH3 0x31D JUMP JUMPDEST SWAP2 POP PUSH32 0x5772697465720000000000000000000000000000000000000000000000000000 PUSH1 0x0 DUP4 ADD MSTORE PUSH1 0x6 DUP3 ADD SWAP1 POP SWAP2 SWAP1 POP JUMP JUMPDEST PUSH1 0x0 PUSH3 0x2F7 DUP3 DUP5 PUSH3 0x28C JUMP JUMPDEST PUSH1 0x14 DUP3 ADD SWAP2 POP DUP2 SWAP1 POP SWAP3 SWAP2 POP POP JUMP JUMPDEST PUSH1 0x0 PUSH3 0x313 DUP3 PUSH3 0x2A7 JUMP JUMPDEST SWAP2 POP DUP2 SWAP1 POP SWAP2 SWAP1 POP JUMP JUMPDEST PUSH1 0x0 DUP2 SWAP1 POP SWAP3 SWAP2 POP POP JUMP JUMPDEST PUSH1 0x0 PUSH3 0x335 DUP3 PUSH3 0x33C JUMP JUMPDEST SWAP1 POP SWAP2 SWAP1 POP JUMP JUMPDEST PUSH1 0x0 PUSH20 0xFFFFFFFFFFFFFFFFFFFFFFFFFFFFFFFFFFFFFFFF DUP3 AND SWAP1 POP SWAP2 SWAP1 POP JUMP JUMPDEST PUSH1 0x0 PUSH3 0x369 DUP3 PUSH3 0x370 JUMP JUMPDEST SWAP1 POP SWAP2 SWAP1 POP JUMP JUMPDEST PUSH1 0x0 PUSH3 0x37D DUP3 PUSH3 0x384 JUMP JUMPDEST SWAP1 POP SWAP2 SWAP1 POP JUMP JUMPDEST PUSH1 0x0 DUP2 PUSH1 0x60 SHL SWAP1 POP SWAP2 SWAP1 POP JUMP JUMPDEST PUSH2 0x5D5C DUP1 PUSH3 0x3A1 PUSH1 0x0 CODECOPY PUSH1 0x0 RETURN INVALID PUSH1 0x80 PUSH1 0x40 MSTORE CALLVALUE DUP1 ISZERO PUSH2 0x10 JUMPI PUSH1 0x0 DUP1 REVERT JUMPDEST POP PUSH1 0x4 CALLDATASIZE LT PUSH2 0x1F0 JUMPI PUSH1 0x0 CALLDATALOAD PUSH1 0xE0 SHR DUP1 PUSH4 0x828496D6 GT PUSH2 0x10F JUMPI DUP1 PUSH4 0xD1A4A43D GT PUSH2 0xA2 JUMPI DUP1 PUSH4 0xDF4EB59C GT PUSH2 0x71 JUMPI DUP1 PUSH4 0xDF4EB59C EQ PUSH2 0x60C JUMPI DUP1 PUSH4 0xE38C7C42 EQ PUSH2 0x616 JUMPI DUP1 PUSH4 0xF25B3F99 EQ PUSH2 0x646 JUMPI DUP1 PUSH4 0xFAE4425D EQ PUSH2 0x679 JUMPI PUSH2 0x1F0 JUMP JUMPDEST DUP1 PUSH4 0xD1A4A43D EQ PUSH2 0x574 JUMPI DUP1 PUSH4 0xD2A4669A EQ PUSH2 0x5A4 JUMPI DUP1 PUSH4 0xD547741F EQ PUSH2 0x5D4 JUMPI DUP1 PUSH4 0xDA2824A8 EQ PUSH2 0x5F0 JUMPI PUSH2 0x1F0 JUMP JUMPDEST DUP1 PUSH4 0x9B87F644 GT PUSH2 0xDE JUMPI DUP1 PUSH4 0x9B87F644 EQ PUSH2 0x4E9 JUMPI DUP1 PUSH4 0xA217FDDF EQ PUSH2 0x4F3 JUMPI DUP1 PUSH4 0xA27CE1EF EQ PUSH2 0x511 JUMPI DUP1 PUSH4 0xCA15C873 EQ PUSH2 0x544 JUMPI PUSH2 0x1F0 JUMP JUMPDEST DUP1 PUSH4 0x828496D6 EQ PUSH2 0x421 JUMPI DUP1 PUSH4 0x9010D07C EQ PUSH2 0x456 JUMPI DUP1 PUSH4 0x91D14854 EQ PUSH2 0x486 JUMPI DUP1 PUSH4 0x92B48411 EQ PUSH2 0x4B6 JUMPI PUSH2 0x1F0 JUMP JUMPDEST DUP1 PUSH4 0x36568ABE GT PUSH2 0x187 JUMPI DUP1 PUSH4 0x42C1E587 GT PUSH2 0x156 JUMPI DUP1 PUSH4 0x42C1E587 EQ PUSH2 0x3AD JUMPI DUP1 PUSH4 0x4E6753B7 EQ PUSH2 0x3CB JUMPI DUP1 PUSH4 0x5CE8772F EQ PUSH2 0x3E7 JUMPI DUP1 PUSH4 0x7542FF95 EQ PUSH2 0x403 JUMPI PUSH2 0x1F0 JUMP JUMPDEST DUP1 PUSH4 0x36568ABE EQ PUSH2 0x327 JUMPI DUP1 PUSH4 0x378AB9A9 EQ PUSH2 0x343 JUMPI DUP1 PUSH4 0x3CD32FD4 EQ PUSH2 0x373 JUMPI DUP1 PUSH4 0x3DF395A3 EQ PUSH2 0x38F JUMPI PUSH2 0x1F0 JUMP JUMPDEST DUP1 PUSH4 0x248A9CA3 GT PUSH2 0x1C3 JUMPI DUP1 PUSH4 0x248A9CA3 EQ PUSH2 0x28D JUMPI DUP1 PUSH4 0x2B29BA23 EQ PUSH2 0x2BD JUMPI DUP1 PUSH4 0x2E716FB1 EQ PUSH2 0x2ED JUMPI DUP1 PUSH4 0x2F2FF15D EQ PUSH2 0x30B JUMPI PUSH2 0x1F0 JUMP JUMPDEST DUP1 PUSH4 0x4C07569 EQ PUSH2 0x1F5 JUMPI DUP1 PUSH4 0x6552FF3 EQ PUSH2 0x225 JUMPI DUP1 PUSH4 0x17D99C04 EQ PUSH2 0x241 JUMPI DUP1 PUSH4 0x1D69FF9B EQ PUSH2 0x25D JUMPI JUMPDEST PUSH1 0x0 DUP1 REVERT JUMPDEST PUSH2 0x20F PUSH1 0x4 DUP1 CALLDATASIZE SUB DUP2 ADD SWAP1 PUSH2 0x20A SWAP2 SWAP1 PUSH2 0x4892 JUMP JUMPDEST PUSH2 0x6A9 JUMP JUMPDEST PUSH1 0x40 MLOAD PUSH2 0x21C SWAP2 SWAP1 PUSH2 0x5709 JUMP JUMPDEST PUSH1 0x40 MLOAD DUP1 SWAP2 SUB SWAP1 RETURN JUMPDEST PUSH2 0x23F PUSH1 0x4 DUP1 CALLDATASIZE SUB DUP2 ADD SWAP1 PUSH2 0x23A SWAP2 SWAP1 PUSH2 0x473B JUMP JUMPDEST PUSH2 0x870 JUMP JUMPDEST STOP JUMPDEST PUSH2 0x25B PUSH1 0x4 DUP1 CALLDATASIZE SUB DUP2 ADD SWAP1 PUSH2 0x256 SWAP2 SWAP1 PUSH2 0x4920 JUMP JUMPDEST PUSH2 0x97A JUMP JUMPDEST STOP JUMPDEST PUSH2 0x277 PUSH1 0x4 DUP1 CALLDATASIZE SUB DUP2 ADD SWAP1 PUSH2 0x272 SWAP2 SWAP1 PUSH2 0x4AC1 JUMP JUMPDEST PUSH2 0xF6A JUMP JUMPDEST PUSH1 0x40 MLOAD PUSH2 0x284 SWAP2 SWAP1 PUSH2 0x5405 JUMP JUMPDEST PUSH1 0x40 MLOAD DUP1 SWAP2 SUB SWAP1 RETURN JUMPDEST PUSH2 0x2A7 PUSH1 0x4 DUP1 CALLDATASIZE SUB DUP2 ADD SWAP1 PUSH2 0x2A2 SWAP2 SWAP1 PUSH2 0x479E JUMP JUMPDEST PUSH2 0x1363 JUMP JUMPDEST PUSH1 0x40 MLOAD PUSH2 0x2B4 SWAP2 SWAP1 PUSH2 0x5420 JUMP JUMPDEST PUSH1 0x40 MLOAD DUP1 SWAP2 SUB SWAP1 RETURN JUMPDEST PUSH2 0x2D7 PUSH1 0x4 DUP1 CALLDATASIZE SUB DUP2 ADD SWAP1 PUSH2 0x2D2 SWAP2 SWAP1 PUSH2 0x4712 JUMP JUMPDEST PUSH2 0x1382 JUMP JUMPDEST PUSH1 0x40 MLOAD PUSH2 0x2E4 SWAP2 SWAP1 PUSH2 0x5405 JUMP JUMPDEST PUSH1 0x40 MLOAD DUP1 SWAP2 SUB SWAP1 RETURN JUMPDEST PUSH2 0x2F5 PUSH2 0x13A8 JUMP JUMPDEST PUSH1 0x40 MLOAD PUSH2 0x302 SWAP2 SWAP1 PUSH2 0x5471 JUMP JUMPDEST PUSH1 0x40 MLOAD DUP1 SWAP2 SUB SWAP1 RETURN JUMPDEST PUSH2 0x325 PUSH1 0x4 DUP1 CALLDATASIZE SUB DUP2 ADD SWAP1 PUSH2 0x320 SWAP2 SWAP1 PUSH2 0x47F0 JUMP JUMPDEST PUSH2 0x13CE JUMP JUMPDEST STOP JUMPDEST PUSH2 0x341 PUSH1 0x4 DUP1 CALLDATASIZE SUB DUP2 ADD SWAP1 PUSH2 0x33C SWAP2 SWAP1 PUSH2 0x47F0 JUMP JUMPDEST PUSH2 0x1441 JUMP JUMPDEST STOP JUMPDEST PUSH2 0x35D PUSH1 0x4 DUP1 CALLDATASIZE SUB DUP2 ADD SWAP1 PUSH2 0x358 SWAP2 SWAP1 PUSH2 0x4892 JUMP JUMPDEST PUSH2 0x14C4 JUMP JUMPDEST PUSH1 0x40 MLOAD PUSH2 0x36A SWAP2 SWAP1 PUSH2 0x53E3 JUMP JUMPDEST PUSH1 0x40 MLOAD DUP1 SWAP2 SUB SWAP1 RETURN JUMPDEST PUSH2 0x38D PUSH1 0x4 DUP1 CALLDATASIZE SUB DUP2 ADD SWAP1 PUSH2 0x388 SWAP2 SWAP1 PUSH2 0x4A1E JUMP JUMPDEST PUSH2 0x1535 JUMP JUMPDEST STOP JUMPDEST PUSH2 0x397 PUSH2 0x1C68 JUMP JUMPDEST PUSH1 0x40 MLOAD PUSH2 0x3A4 SWAP2 SWAP1 PUSH2 0x543B JUMP JUMPDEST PUSH1 0x40 MLOAD DUP1 SWAP2 SUB SWAP1 RETURN JUMPDEST PUSH2 0x3B5 PUSH2 0x1C8E JUMP JUMPDEST PUSH1 0x40 MLOAD PUSH2 0x3C2 SWAP2 SWAP1 PUSH2 0x548C JUMP JUMPDEST PUSH1 0x40 MLOAD DUP1 SWAP2 SUB SWAP1 RETURN JUMPDEST PUSH2 0x3E5 PUSH1 0x4 DUP1 CALLDATASIZE SUB DUP2 ADD SWAP1 PUSH2 0x3E0 SWAP2 SWAP1 PUSH2 0x4A5A JUMP JUMPDEST PUSH2 0x1CB4 JUMP JUMPDEST STOP JUMPDEST PUSH2 0x401 PUSH1 0x4 DUP1 CALLDATASIZE SUB DUP2 ADD SWAP1 PUSH2 0x3FC SWAP2 SWAP1 PUSH2 0x4892 JUMP JUMPDEST PUSH2 0x27F7 JUMP JUMPDEST STOP JUMPDEST PUSH2 0x40B PUSH2 0x2B00 JUMP JUMPDEST PUSH1 0x40 MLOAD PUSH2 0x418 SWAP2 SWAP1 PUSH2 0x5456 JUMP JUMPDEST PUSH1 0x40 MLOAD DUP1 SWAP2 SUB SWAP1 RETURN JUMPDEST PUSH2 0x43B PUSH1 0x4 DUP1 CALLDATASIZE SUB DUP2 ADD SWAP1 PUSH2 0x436 SWAP2 SWAP1 PUSH2 0x48E4 JUMP JUMPDEST PUSH2 0x2B26 JUMP JUMPDEST PUSH1 0x40 MLOAD PUSH2 0x44D SWAP7 SWAP6 SWAP5 SWAP4 SWAP3 SWAP2 SWAP1 PUSH2 0x59B7 JUMP JUMPDEST PUSH1 0x40 MLOAD DUP1 SWAP2 SUB SWAP1 RETURN JUMPDEST PUSH2 0x470 PUSH1 0x4 DUP1 CALLDATASIZE SUB DUP2 ADD SWAP1 PUSH2 0x46B SWAP2 SWAP1 PUSH2 0x482C JUMP JUMPDEST PUSH2 0x2B6F JUMP JUMPDEST PUSH1 0x40 MLOAD PUSH2 0x47D SWAP2 SWAP1 PUSH2 0x53AD JUMP JUMPDEST PUSH1 0x40 MLOAD DUP1 SWAP2 SUB SWAP1 RETURN JUMPDEST PUSH2 0x4A0 PUSH1 0x4 DUP1 CALLDATASIZE SUB DUP2 ADD SWAP1 PUSH2 0x49B SWAP2 SWAP1 PUSH2 0x47F0 JUMP JUMPDEST PUSH2 0x2BA0 JUMP JUMPDEST PUSH1 0x40 MLOAD PUSH2 0x4AD SWAP2 SWAP1 PUSH2 0x5405 JUMP JUMPDEST PUSH1 0x40 MLOAD DUP1 SWAP2 SUB SWAP1 RETURN JUMPDEST PUSH2 0x4D0 PUSH1 0x4 DUP1 CALLDATASIZE SUB DUP2 ADD SWAP1 PUSH2 0x4CB SWAP2 SWAP1 PUSH2 0x4A1E JUMP JUMPDEST PUSH2 0x2BD1 JUMP JUMPDEST PUSH1 0x40 MLOAD PUSH2 0x4E0 SWAP5 SWAP4 SWAP3 SWAP2 SWAP1 PUSH2 0x5972 JUMP JUMPDEST PUSH1 0x40 MLOAD DUP1 SWAP2 SUB SWAP1 RETURN JUMPDEST PUSH2 0x4F1 PUSH2 0x2C28 JUMP JUMPDEST STOP JUMPDEST PUSH2 0x4FB PUSH2 0x3239 JUMP JUMPDEST PUSH1 0x40 MLOAD PUSH2 0x508 SWAP2 SWAP1 PUSH2 0x5420 JUMP JUMPDEST PUSH1 0x40 MLOAD DUP1 SWAP2 SUB SWAP1 RETURN JUMPDEST PUSH2 0x52B PUSH1 0x4 DUP1 CALLDATASIZE SUB DUP2 ADD SWAP1 PUSH2 0x526 SWAP2 SWAP1 PUSH2 0x4A1E JUMP JUMPDEST PUSH2 0x3240 JUMP JUMPDEST PUSH1 0x40 MLOAD PUSH2 0x53B SWAP5 SWAP4 SWAP3 SWAP2 SWAP1 PUSH2 0x572B JUMP JUMPDEST PUSH1 0x40 MLOAD DUP1 SWAP2 SUB SWAP1 RETURN JUMPDEST PUSH2 0x55E PUSH1 0x4 DUP1 CALLDATASIZE SUB DUP2 ADD SWAP1 PUSH2 0x559 SWAP2 SWAP1 PUSH2 0x479E JUMP JUMPDEST PUSH2 0x3441 JUMP JUMPDEST PUSH1 0x40 MLOAD PUSH2 0x56B SWAP2 SWAP1 PUSH2 0x578C JUMP JUMPDEST PUSH1 0x40 MLOAD DUP1 SWAP2 SUB SWAP1 RETURN JUMPDEST PUSH2 0x58E PUSH1 0x4 DUP1 CALLDATASIZE SUB DUP2 ADD SWAP1 PUSH2 0x589 SWAP2 SWAP1 PUSH2 0x4A1E JUMP JUMPDEST PUSH2 0x3467 JUMP JUMPDEST PUSH1 0x40 MLOAD PUSH2 0x59B SWAP2 SWAP1 PUSH2 0x53E3 JUMP JUMPDEST PUSH1 0x40 MLOAD DUP1 SWAP2 SUB SWAP1 RETURN JUMPDEST PUSH2 0x5BE PUSH1 0x4 DUP1 CALLDATASIZE SUB DUP2 ADD SWAP1 PUSH2 0x5B9 SWAP2 SWAP1 PUSH2 0x4892 JUMP JUMPDEST PUSH2 0x34F2 JUMP JUMPDEST PUSH1 0x40 MLOAD PUSH2 0x5CB SWAP2 SWAP1 PUSH2 0x53E3 JUMP JUMPDEST PUSH1 0x40 MLOAD DUP1 SWAP2 SUB SWAP1 RETURN JUMPDEST PUSH2 0x5EE PUSH1 0x4 DUP1 CALLDATASIZE SUB DUP2 ADD SWAP1 PUSH2 0x5E9 SWAP2 SWAP1 PUSH2 0x47F0 JUMP JUMPDEST PUSH2 0x3563 JUMP JUMPDEST STOP JUMPDEST PUSH2 0x60A PUSH1 0x4 DUP1 CALLDATASIZE SUB DUP2 ADD SWAP1 PUSH2 0x605 SWAP2 SWAP1 PUSH2 0x4712 JUMP JUMPDEST PUSH2 0x35D6 JUMP JUMPDEST STOP JUMPDEST PUSH2 0x614 PUSH2 0x362A JUMP JUMPDEST STOP JUMPDEST PUSH2 0x630 PUSH1 0x4 DUP1 CALLDATASIZE SUB DUP2 ADD SWAP1 PUSH2 0x62B SWAP2 SWAP1 PUSH2 0x4892 JUMP JUMPDEST PUSH2 0x3635 JUMP JUMPDEST PUSH1 0x40 MLOAD PUSH2 0x63D SWAP2 SWAP1 PUSH2 0x578C JUMP JUMPDEST PUSH1 0x40 MLOAD DUP1 SWAP2 SUB SWAP1 RETURN JUMPDEST PUSH2 0x660 PUSH1 0x4 DUP1 CALLDATASIZE SUB DUP2 ADD SWAP1 PUSH2 0x65B SWAP2 SWAP1 PUSH2 0x4892 JUMP JUMPDEST PUSH2 0x3655 JUMP JUMPDEST PUSH1 0x40 MLOAD PUSH2 0x670 SWAP5 SWAP4 SWAP3 SWAP2 SWAP1 PUSH2 0x5972 JUMP JUMPDEST PUSH1 0x40 MLOAD DUP1 SWAP2 SUB SWAP1 RETURN JUMPDEST PUSH2 0x693 PUSH1 0x4 DUP1 CALLDATASIZE SUB DUP2 ADD SWAP1 PUSH2 0x68E SWAP2 SWAP1 PUSH2 0x4892 JUMP JUMPDEST PUSH2 0x3692 JUMP JUMPDEST PUSH1 0x40 MLOAD PUSH2 0x6A0 SWAP2 SWAP1 PUSH2 0x53E3 JUMP JUMPDEST PUSH1 0x40 MLOAD DUP1 SWAP2 SUB SWAP1 RETURN JUMPDEST PUSH2 0x6B1 PUSH2 0x440A JUMP JUMPDEST PUSH1 0x3 PUSH1 0x0 DUP4 DUP2 MSTORE PUSH1 0x20 ADD SWAP1 DUP2 MSTORE PUSH1 0x20 ADD PUSH1 0x0 KECCAK256 PUSH1 0x40 MLOAD DUP1 PUSH2 0x100 ADD PUSH1 0x40 MSTORE SWAP1 DUP2 PUSH1 0x0 DUP3 ADD SLOAD DUP2 MSTORE PUSH1 0x20 ADD PUSH1 0x1 DUP3 ADD DUP1 SLOAD DUP1 PUSH1 0x20 MUL PUSH1 0x20 ADD PUSH1 0x40 MLOAD SWAP1 DUP2 ADD PUSH1 0x40 MSTORE DUP1 SWAP3 SWAP2 SWAP1 DUP2 DUP2 MSTORE PUSH1 0x20 ADD DUP3 DUP1 SLOAD DUP1 ISZERO PUSH2 0x729 JUMPI PUSH1 0x20 MUL DUP3 ADD SWAP2 SWAP1 PUSH1 0x0 MSTORE PUSH1 0x20 PUSH1 0x0 KECCAK256 SWAP1 JUMPDEST DUP2 SLOAD DUP2 MSTORE PUSH1 0x20 ADD SWAP1 PUSH1 0x1 ADD SWAP1 DUP1 DUP4 GT PUSH2 0x715 JUMPI JUMPDEST POP POP POP POP POP DUP2 MSTORE PUSH1 0x20 ADD PUSH1 0x2 DUP3 ADD DUP1 SLOAD DUP1 PUSH1 0x20 MUL PUSH1 0x20 ADD PUSH1 0x40 MLOAD SWAP1 DUP2 ADD PUSH1 0x40 MSTORE DUP1 SWAP3 SWAP2 SWAP1 DUP2 DUP2 MSTORE PUSH1 0x20 ADD DUP3 DUP1 SLOAD DUP1 ISZERO PUSH2 0x781 JUMPI PUSH1 0x20 MUL DUP3 ADD SWAP2 SWAP1 PUSH1 0x0 MSTORE PUSH1 0x20 PUSH1 0x0 KECCAK256 SWAP1 JUMPDEST DUP2 SLOAD DUP2 MSTORE PUSH1 0x20 ADD SWAP1 PUSH1 0x1 ADD SWAP1 DUP1 DUP4 GT PUSH2 0x76D JUMPI JUMPDEST POP POP POP POP POP DUP2 MSTORE PUSH1 0x20 ADD PUSH1 0x3 DUP3 ADD DUP1 SLOAD DUP1 PUSH1 0x20 MUL PUSH1 0x20 ADD PUSH1 0x40 MLOAD SWAP1 DUP2 ADD PUSH1 0x40 MSTORE DUP1 SWAP3 SWAP2 SWAP1 DUP2 DUP2 MSTORE PUSH1 0x20 ADD DUP3 DUP1 SLOAD DUP1 ISZERO PUSH2 0x7D9 JUMPI PUSH1 0x20 MUL DUP3 ADD SWAP2 SWAP1 PUSH1 0x0 MSTORE PUSH1 0x20 PUSH1 0x0 KECCAK256 SWAP1 JUMPDEST DUP2 SLOAD DUP2 MSTORE PUSH1 0x20 ADD SWAP1 PUSH1 0x1 ADD SWAP1 DUP1 DUP4 GT PUSH2 0x7C5 JUMPI JUMPDEST POP POP POP POP POP DUP2 MSTORE PUSH1 0x20 ADD PUSH1 0x4 DUP3 ADD DUP1 SLOAD DUP1 PUSH1 0x20 MUL PUSH1 0x20 ADD PUSH1 0x40 MLOAD SWAP1 DUP2 ADD PUSH1 0x40 MSTORE DUP1 SWAP3 SWAP2 SWAP1 DUP2 DUP2 MSTORE PUSH1 0x20 ADD DUP3 DUP1 SLOAD DUP1 ISZERO PUSH2 0x831 JUMPI PUSH1 0x20 MUL DUP3 ADD SWAP2 SWAP1 PUSH1 0x0 MSTORE PUSH1 0x20 PUSH1 0x0 KECCAK256 SWAP1 JUMPDEST DUP2 SLOAD DUP2 MSTORE PUSH1 0x20 ADD SWAP1 PUSH1 0x1 ADD SWAP1 DUP1 DUP4 GT PUSH2 0x81D JUMPI JUMPDEST POP POP POP POP POP DUP2 MSTORE PUSH1 0x20 ADD PUSH1 0x5 DUP3 ADD SLOAD DUP2 MSTORE PUSH1 0x20 ADD PUSH1 0x6 DUP3 ADD SLOAD DUP2 MSTORE PUSH1 0x20 ADD PUSH1 0x7 DUP3 ADD PUSH1 0x0 SWAP1 SLOAD SWAP1 PUSH2 0x100 EXP SWAP1 DIV PUSH1 0xFF AND ISZERO ISZERO ISZERO ISZERO DUP2 MSTORE POP POP SWAP1 POP SWAP2 SWAP1 POP JUMP JUMPDEST DUP4 PUSH1 0x4 PUSH1 0x0 PUSH2 0x100 EXP DUP2 SLOAD DUP2 PUSH20 0xFFFFFFFFFFFFFFFFFFFFFFFFFFFFFFFFFFFFFFFF MUL NOT AND SWAP1 DUP4 PUSH20 0xFFFFFFFFFFFFFFFFFFFFFFFFFFFFFFFFFFFFFFFF AND MUL OR SWAP1 SSTORE POP DUP3 PUSH1 0x5 PUSH1 0x0 PUSH2 0x100 EXP DUP2 SLOAD DUP2 PUSH20 0xFFFFFFFFFFFFFFFFFFFFFFFFFFFFFFFFFFFFFFFF MUL NOT AND SWAP1 DUP4 PUSH20 0xFFFFFFFFFFFFFFFFFFFFFFFFFFFFFFFFFFFFFFFF AND MUL OR SWAP1 SSTORE POP DUP2 PUSH1 0x6 PUSH1 0x0 PUSH2 0x100 EXP DUP2 SLOAD DUP2 PUSH20 0xFFFFFFFFFFFFFFFFFFFFFFFFFFFFFFFFFFFFFFFF MUL NOT AND SWAP1 DUP4 PUSH20 0xFFFFFFFFFFFFFFFFFFFFFFFFFFFFFFFFFFFFFFFF AND MUL OR SWAP1 SSTORE POP DUP1 PUSH1 0x7 PUSH1 0x0 PUSH2 0x100 EXP DUP2 SLOAD DUP2 PUSH20 0xFFFFFFFFFFFFFFFFFFFFFFFFFFFFFFFFFFFFFFFF MUL NOT AND SWAP1 DUP4 PUSH20 0xFFFFFFFFFFFFFFFFFFFFFFFFFFFFFFFFFFFFFFFF AND MUL OR SWAP1 SSTORE POP POP POP POP POP JUMP JUMPDEST DUP7 PUSH1 0x5 PUSH1 0x0 SWAP1 SLOAD SWAP1 PUSH2 0x100 EXP SWAP1 DIV PUSH20 0xFFFFFFFFFFFFFFFFFFFFFFFFFFFFFFFFFFFFFFFF AND PUSH20 0xFFFFFFFFFFFFFFFFFFFFFFFFFFFFFFFFFFFFFFFF AND PUSH4 0x757991A8 PUSH1 0x40 MLOAD DUP2 PUSH4 0xFFFFFFFF AND PUSH1 0xE0 SHL DUP2 MSTORE PUSH1 0x4 ADD PUSH1 0x20 PUSH1 0x40 MLOAD DUP1 DUP4 SUB DUP2 DUP7 DUP1 EXTCODESIZE ISZERO DUP1 ISZERO PUSH2 0x9E3 JUMPI PUSH1 0x0 DUP1 REVERT JUMPDEST POP GAS STATICCALL ISZERO DUP1 ISZERO PUSH2 0x9F7 JUMPI RETURNDATASIZE PUSH1 0x0 DUP1 RETURNDATACOPY RETURNDATASIZE PUSH1 0x0 REVERT JUMPDEST POP POP POP POP PUSH1 0x40 MLOAD RETURNDATASIZE PUSH1 0x1F NOT PUSH1 0x1F DUP3 ADD AND DUP3 ADD DUP1 PUSH1 0x40 MSTORE POP DUP2 ADD SWAP1 PUSH2 0xA1B SWAP2 SWAP1 PUSH2 0x48BB JUMP JUMPDEST DUP2 EQ PUSH2 0xA5C JUMPI PUSH1 0x40 MLOAD PUSH32 0x8C379A000000000000000000000000000000000000000000000000000000000 DUP2 MSTORE PUSH1 0x4 ADD PUSH2 0xA53 SWAP1 PUSH2 0x5609 JUMP JUMPDEST PUSH1 0x40 MLOAD DUP1 SWAP2 SUB SWAP1 REVERT JUMPDEST PUSH20 0x0 PUSH4 0xC198F8BA PUSH1 0x40 MLOAD DUP2 PUSH4 0xFFFFFFFF AND PUSH1 0xE0 SHL DUP2 MSTORE PUSH1 0x4 ADD PUSH1 0x20 PUSH1 0x40 MLOAD DUP1 DUP4 SUB DUP2 DUP7 DUP1 EXTCODESIZE ISZERO DUP1 ISZERO PUSH2 0xAA0 JUMPI PUSH1 0x0 DUP1 REVERT JUMPDEST POP GAS DELEGATECALL ISZERO DUP1 ISZERO PUSH2 0xAB4 JUMPI RETURNDATASIZE PUSH1 0x0 DUP1 RETURNDATACOPY RETURNDATASIZE PUSH1 0x0 REVERT JUMPDEST POP POP POP POP PUSH1 0x40 MLOAD RETURNDATASIZE PUSH1 0x1F NOT PUSH1 0x1F DUP3 ADD AND DUP3 ADD DUP1 PUSH1 0x40 MSTORE POP DUP2 ADD SWAP1 PUSH2 0xAD8 SWAP2 SWAP1 PUSH2 0x4B10 JUMP JUMPDEST PUSH1 0xFF AND PUSH1 0x5 PUSH1 0x0 SWAP1 SLOAD SWAP1 PUSH2 0x100 EXP SWAP1 DIV PUSH20 0xFFFFFFFFFFFFFFFFFFFFFFFFFFFFFFFFFFFFFFFF AND PUSH20 0xFFFFFFFFFFFFFFFFFFFFFFFFFFFFFFFFFFFFFFFF AND PUSH4 0x1865C57D PUSH1 0x40 MLOAD DUP2 PUSH4 0xFFFFFFFF AND PUSH1 0xE0 SHL DUP2 MSTORE PUSH1 0x4 ADD PUSH1 0x20 PUSH1 0x40 MLOAD DUP1 DUP4 SUB DUP2 DUP7 DUP1 EXTCODESIZE ISZERO DUP1 ISZERO PUSH2 0xB43 JUMPI PUSH1 0x0 DUP1 REVERT JUMPDEST POP GAS STATICCALL ISZERO DUP1 ISZERO PUSH2 0xB57 JUMPI RETURNDATASIZE PUSH1 0x0 DUP1 RETURNDATACOPY RETURNDATASIZE PUSH1 0x0 REVERT JUMPDEST POP POP POP POP PUSH1 0x40 MLOAD RETURNDATASIZE PUSH1 0x1F NOT PUSH1 0x1F DUP3 ADD AND DUP3 ADD DUP1 PUSH1 0x40 MSTORE POP DUP2 ADD SWAP1 PUSH2 0xB7B SWAP2 SWAP1 PUSH2 0x48BB JUMP JUMPDEST DUP2 EQ PUSH2 0xBBC JUMPI PUSH1 0x40 MLOAD PUSH32 0x8C379A000000000000000000000000000000000000000000000000000000000 DUP2 MSTORE PUSH1 0x4 ADD PUSH2 0xBB3 SWAP1 PUSH2 0x56A9 JUMP JUMPDEST PUSH1 0x40 MLOAD DUP1 SWAP2 SUB SWAP1 REVERT JUMPDEST PUSH1 0x0 PUSH1 0x4 PUSH1 0x0 SWAP1 SLOAD SWAP1 PUSH2 0x100 EXP SWAP1 DIV PUSH20 0xFFFFFFFFFFFFFFFFFFFFFFFFFFFFFFFFFFFFFFFF AND PUSH20 0xFFFFFFFFFFFFFFFFFFFFFFFFFFFFFFFFFFFFFFFF AND PUSH4 0x6022A485 CALLER PUSH1 0x40 MLOAD DUP3 PUSH4 0xFFFFFFFF AND PUSH1 0xE0 SHL DUP2 MSTORE PUSH1 0x4 ADD PUSH2 0xC19 SWAP2 SWAP1 PUSH2 0x53C8 JUMP JUMPDEST PUSH1 0x20 PUSH1 0x40 MLOAD DUP1 DUP4 SUB DUP2 DUP7 DUP1 EXTCODESIZE ISZERO DUP1 ISZERO PUSH2 0xC31 JUMPI PUSH1 0x0 DUP1 REVERT JUMPDEST POP GAS STATICCALL ISZERO DUP1 ISZERO PUSH2 0xC45 JUMPI RETURNDATASIZE PUSH1 0x0 DUP1 RETURNDATACOPY RETURNDATASIZE PUSH1 0x0 REVERT JUMPDEST POP POP POP POP PUSH1 0x40 MLOAD RETURNDATASIZE PUSH1 0x1F NOT PUSH1 0x1F DUP3 ADD AND DUP3 ADD DUP1 PUSH1 0x40 MSTORE POP DUP2 ADD SWAP1 PUSH2 0xC69 SWAP2 SWAP1 PUSH2 0x48BB JUMP JUMPDEST SWAP1 POP PUSH2 0xC76 DUP6 DUP6 DUP4 PUSH2 0xF6A JUMP JUMPDEST PUSH2 0xCB5 JUMPI PUSH1 0x40 MLOAD PUSH32 0x8C379A000000000000000000000000000000000000000000000000000000000 DUP2 MSTORE PUSH1 0x4 ADD PUSH2 0xCAC SWAP1 PUSH2 0x55A9 JUMP JUMPDEST PUSH1 0x40 MLOAD DUP1 SWAP2 SUB SWAP1 REVERT JUMPDEST PUSH20 0x0 PUSH4 0x375B3C0A PUSH1 0x40 MLOAD DUP2 PUSH4 0xFFFFFFFF AND PUSH1 0xE0 SHL DUP2 MSTORE PUSH1 0x4 ADD PUSH1 0x20 PUSH1 0x40 MLOAD DUP1 DUP4 SUB DUP2 DUP7 DUP1 EXTCODESIZE ISZERO DUP1 ISZERO PUSH2 0xCF9 JUMPI PUSH1 0x0 DUP1 REVERT JUMPDEST POP GAS DELEGATECALL ISZERO DUP1 ISZERO PUSH2 0xD0D JUMPI RETURNDATASIZE PUSH1 0x0 DUP1 RETURNDATACOPY RETURNDATASIZE PUSH1 0x0 REVERT JUMPDEST POP POP POP POP PUSH1 0x40 MLOAD RETURNDATASIZE PUSH1 0x1F NOT PUSH1 0x1F DUP3 ADD AND DUP3 ADD DUP1 PUSH1 0x40 MSTORE POP DUP2 ADD SWAP1 PUSH2 0xD31 SWAP2 SWAP1 PUSH2 0x48BB JUMP JUMPDEST PUSH1 0x4 PUSH1 0x0 SWAP1 SLOAD SWAP1 PUSH2 0x100 EXP SWAP1 DIV PUSH20 0xFFFFFFFFFFFFFFFFFFFFFFFFFFFFFFFFFFFFFFFF AND PUSH20 0xFFFFFFFFFFFFFFFFFFFFFFFFFFFFFFFFFFFFFFFF AND PUSH4 0xE3C998FE DUP4 PUSH1 0x40 MLOAD DUP3 PUSH4 0xFFFFFFFF AND PUSH1 0xE0 SHL DUP2 MSTORE PUSH1 0x4 ADD PUSH2 0xD8C SWAP2 SWAP1 PUSH2 0x578C JUMP JUMPDEST PUSH2 0x100 PUSH1 0x40 MLOAD DUP1 DUP4 SUB DUP2 DUP7 DUP1 EXTCODESIZE ISZERO DUP1 ISZERO PUSH2 0xDA5 JUMPI PUSH1 0x0 DUP1 REVERT JUMPDEST POP GAS STATICCALL ISZERO DUP1 ISZERO PUSH2 0xDB9 JUMPI RETURNDATASIZE PUSH1 0x0 DUP1 RETURNDATACOPY RETURNDATASIZE PUSH1 0x0 REVERT JUMPDEST POP POP POP POP PUSH1 0x40 MLOAD RETURNDATASIZE PUSH1 0x1F NOT PUSH1 0x1F DUP3 ADD AND DUP3 ADD DUP1 PUSH1 0x40 MSTORE POP DUP2 ADD SWAP1 PUSH2 0xDDD SWAP2 SWAP1 PUSH2 0x4868 JUMP JUMPDEST PUSH1 0x40 ADD MLOAD LT ISZERO PUSH2 0xE22 JUMPI PUSH1 0x40 MLOAD PUSH32 0x8C379A000000000000000000000000000000000000000000000000000000000 DUP2 MSTORE PUSH1 0x4 ADD PUSH2 0xE19 SWAP1 PUSH2 0x5669 JUMP JUMPDEST PUSH1 0x40 MLOAD DUP1 SWAP2 SUB SWAP1 REVERT JUMPDEST PUSH2 0xF17 DUP11 PUSH1 0x40 MLOAD DUP1 PUSH2 0x100 ADD PUSH1 0x40 MSTORE DUP1 DUP5 DUP2 MSTORE PUSH1 0x20 ADD DUP13 DUP2 MSTORE PUSH1 0x20 ADD DUP12 DUP2 MSTORE PUSH1 0x20 ADD DUP11 DUP2 MSTORE PUSH1 0x20 ADD DUP10 DUP2 MSTORE PUSH1 0x20 ADD DUP9 DUP2 MSTORE PUSH1 0x20 ADD PUSH1 0x4 PUSH1 0x0 SWAP1 SLOAD SWAP1 PUSH2 0x100 EXP SWAP1 DIV PUSH20 0xFFFFFFFFFFFFFFFFFFFFFFFFFFFFFFFFFFFFFFFF AND PUSH20 0xFFFFFFFFFFFFFFFFFFFFFFFFFFFFFFFFFFFFFFFF AND PUSH4 0xE3C998FE DUP10 PUSH1 0x40 MLOAD DUP3 PUSH4 0xFFFFFFFF AND PUSH1 0xE0 SHL DUP2 MSTORE PUSH1 0x4 ADD PUSH2 0xEB1 SWAP2 SWAP1 PUSH2 0x578C JUMP JUMPDEST PUSH2 0x100 PUSH1 0x40 MLOAD DUP1 DUP4 SUB DUP2 DUP7 DUP1 EXTCODESIZE ISZERO DUP1 ISZERO PUSH2 0xECA JUMPI PUSH1 0x0 DUP1 REVERT JUMPDEST POP GAS STATICCALL ISZERO DUP1 ISZERO PUSH2 0xEDE JUMPI RETURNDATASIZE PUSH1 0x0 DUP1 RETURNDATACOPY RETURNDATASIZE PUSH1 0x0 REVERT JUMPDEST POP POP POP POP PUSH1 0x40 MLOAD RETURNDATASIZE PUSH1 0x1F NOT PUSH1 0x1F DUP3 ADD AND DUP3 ADD DUP1 PUSH1 0x40 MSTORE POP DUP2 ADD SWAP1 PUSH2 0xF02 SWAP2 SWAP1 PUSH2 0x4868 JUMP JUMPDEST PUSH1 0x40 ADD MLOAD DUP2 MSTORE PUSH1 0x20 ADD PUSH1 0x1 ISZERO ISZERO DUP2 MSTORE POP PUSH2 0x3733 JUMP JUMPDEST PUSH32 0xEE036CC96C88163F353FEAA4D497E88BAAEBEB631F40AD9B8A6D51BB6FAD4076 DUP11 DUP3 DUP12 DUP12 DUP12 DUP12 DUP12 DUP12 TIMESTAMP PUSH1 0x40 MLOAD PUSH2 0xF56 SWAP10 SWAP9 SWAP8 SWAP7 SWAP6 SWAP5 SWAP4 SWAP3 SWAP2 SWAP1 PUSH2 0x5807 JUMP JUMPDEST PUSH1 0x40 MLOAD DUP1 SWAP2 SUB SWAP1 LOG1 POP POP POP POP POP POP POP POP POP POP JUMP JUMPDEST PUSH1 0x0 DUP2 PUSH2 0x10D1 PUSH1 0x1 PUSH20 0x0 PUSH4 0x5075DBFB PUSH1 0xA PUSH1 0x4 PUSH1 0x0 SWAP1 SLOAD SWAP1 PUSH2 0x100 EXP SWAP1 DIV PUSH20 0xFFFFFFFFFFFFFFFFFFFFFFFFFFFFFFFFFFFFFFFF AND PUSH20 0xFFFFFFFFFFFFFFFFFFFFFFFFFFFFFFFFFFFFFFFF AND PUSH4 0xBC788D46 PUSH1 0x40 MLOAD DUP2 PUSH4 0xFFFFFFFF AND PUSH1 0xE0 SHL DUP2 MSTORE PUSH1 0x4 ADD PUSH1 0x20 PUSH1 0x40 MLOAD DUP1 DUP4 SUB DUP2 DUP7 DUP1 EXTCODESIZE ISZERO DUP1 ISZERO PUSH2 0xFF6 JUMPI PUSH1 0x0 DUP1 REVERT JUMPDEST POP GAS STATICCALL ISZERO DUP1 ISZERO PUSH2 0x100A JUMPI RETURNDATASIZE PUSH1 0x0 DUP1 RETURNDATACOPY RETURNDATASIZE PUSH1 0x0 REVERT JUMPDEST POP POP POP POP PUSH1 0x40 MLOAD RETURNDATASIZE PUSH1 0x1F NOT PUSH1 0x1F DUP3 ADD AND DUP3 ADD DUP1 PUSH1 0x40 MSTORE POP DUP2 ADD SWAP1 PUSH2 0x102E SWAP2 SWAP1 PUSH2 0x48BB JUMP JUMPDEST DUP11 PUSH1 0x40 MLOAD PUSH1 0x20 ADD PUSH2 0x103F SWAP2 SWAP1 PUSH2 0x578C JUMP JUMPDEST PUSH1 0x40 MLOAD PUSH1 0x20 DUP2 DUP4 SUB SUB DUP2 MSTORE SWAP1 PUSH1 0x40 MSTORE DUP1 MLOAD SWAP1 PUSH1 0x20 ADD KECCAK256 PUSH1 0x40 MLOAD DUP5 PUSH4 0xFFFFFFFF AND PUSH1 0xE0 SHL DUP2 MSTORE PUSH1 0x4 ADD PUSH2 0x1073 SWAP4 SWAP3 SWAP2 SWAP1 PUSH2 0x54D0 JUMP JUMPDEST PUSH1 0x20 PUSH1 0x40 MLOAD DUP1 DUP4 SUB DUP2 DUP7 DUP1 EXTCODESIZE ISZERO DUP1 ISZERO PUSH2 0x108B JUMPI PUSH1 0x0 DUP1 REVERT JUMPDEST POP GAS DELEGATECALL ISZERO DUP1 ISZERO PUSH2 0x109F JUMPI RETURNDATASIZE PUSH1 0x0 DUP1 RETURNDATACOPY RETURNDATASIZE PUSH1 0x0 REVERT JUMPDEST POP POP POP POP PUSH1 0x40 MLOAD RETURNDATASIZE PUSH1 0x1F NOT PUSH1 0x1F DUP3 ADD AND DUP3 ADD DUP1 PUSH1 0x40 MSTORE POP DUP2 ADD SWAP1 PUSH2 0x10C3 SWAP2 SWAP1 PUSH2 0x48BB JUMP JUMPDEST PUSH2 0x3D78 SWAP1 SWAP2 SWAP1 PUSH4 0xFFFFFFFF AND JUMP JUMPDEST EQ PUSH2 0x10DF JUMPI PUSH1 0x0 SWAP1 POP PUSH2 0x135C JUMP JUMPDEST PUSH1 0x0 PUSH20 0x0 PUSH4 0xB07CEAB8 PUSH1 0xA DUP6 DUP9 PUSH1 0x40 MLOAD PUSH1 0x20 ADD PUSH2 0x1110 SWAP3 SWAP2 SWAP1 PUSH2 0x57DE JUMP JUMPDEST PUSH1 0x40 MLOAD PUSH1 0x20 DUP2 DUP4 SUB SUB DUP2 MSTORE SWAP1 PUSH1 0x40 MSTORE DUP1 MLOAD SWAP1 PUSH1 0x20 ADD KECCAK256 PUSH1 0x40 MLOAD DUP4 PUSH4 0xFFFFFFFF AND PUSH1 0xE0 SHL DUP2 MSTORE PUSH1 0x4 ADD PUSH2 0x1143 SWAP3 SWAP2 SWAP1 PUSH2 0x54A7 JUMP JUMPDEST PUSH1 0x20 PUSH1 0x40 MLOAD DUP1 DUP4 SUB DUP2 DUP7 DUP1 EXTCODESIZE ISZERO DUP1 ISZERO PUSH2 0x115B JUMPI PUSH1 0x0 DUP1 REVERT JUMPDEST POP GAS DELEGATECALL ISZERO DUP1 ISZERO PUSH2 0x116F JUMPI RETURNDATASIZE PUSH1 0x0 DUP1 RETURNDATACOPY RETURNDATASIZE PUSH1 0x0 REVERT JUMPDEST POP POP POP POP PUSH1 0x40 MLOAD RETURNDATASIZE PUSH1 0x1F NOT PUSH1 0x1F DUP3 ADD AND DUP3 ADD DUP1 PUSH1 0x40 MSTORE POP DUP2 ADD SWAP1 PUSH2 0x1193 SWAP2 SWAP1 PUSH2 0x47C7 JUMP JUMPDEST SWAP1 POP PUSH1 0x0 PUSH2 0x11B2 PUSH5 0x100000000 DUP4 PUSH1 0x0 SHR PUSH2 0x3DCD SWAP1 SWAP2 SWAP1 PUSH4 0xFFFFFFFF AND JUMP JUMPDEST SWAP1 POP PUSH1 0x0 PUSH1 0x4 PUSH1 0x0 SWAP1 SLOAD SWAP1 PUSH2 0x100 EXP SWAP1 DIV PUSH20 0xFFFFFFFFFFFFFFFFFFFFFFFFFFFFFFFFFFFFFFFF AND PUSH20 0xFFFFFFFFFFFFFFFFFFFFFFFFFFFFFFFFFFFFFFFF AND PUSH4 0xE3C998FE DUP8 PUSH1 0x40 MLOAD DUP3 PUSH4 0xFFFFFFFF AND PUSH1 0xE0 SHL DUP2 MSTORE PUSH1 0x4 ADD PUSH2 0x1211 SWAP2 SWAP1 PUSH2 0x578C JUMP JUMPDEST PUSH2 0x100 PUSH1 0x40 MLOAD DUP1 DUP4 SUB DUP2 DUP7 DUP1 EXTCODESIZE ISZERO DUP1 ISZERO PUSH2 0x122A JUMPI PUSH1 0x0 DUP1 REVERT JUMPDEST POP GAS STATICCALL ISZERO DUP1 ISZERO PUSH2 0x123E JUMPI RETURNDATASIZE PUSH1 0x0 DUP1 RETURNDATACOPY RETURNDATASIZE PUSH1 0x0 REVERT JUMPDEST POP POP POP POP PUSH1 0x40 MLOAD RETURNDATASIZE PUSH1 0x1F NOT PUSH1 0x1F DUP3 ADD AND DUP3 ADD DUP1 PUSH1 0x40 MSTORE POP DUP2 ADD SWAP1 PUSH2 0x1262 SWAP2 SWAP1 PUSH2 0x4868 JUMP JUMPDEST PUSH1 0x40 ADD MLOAD SWAP1 POP PUSH2 0x132F PUSH5 0x100000000 PUSH1 0x4 PUSH1 0x0 SWAP1 SLOAD SWAP1 PUSH2 0x100 EXP SWAP1 DIV PUSH20 0xFFFFFFFFFFFFFFFFFFFFFFFFFFFFFFFFFFFFFFFF AND PUSH20 0xFFFFFFFFFFFFFFFFFFFFFFFFFFFFFFFFFFFFFFFF AND PUSH4 0xE3C998FE DUP9 PUSH1 0x40 MLOAD DUP3 PUSH4 0xFFFFFFFF AND PUSH1 0xE0 SHL DUP2 MSTORE PUSH1 0x4 ADD PUSH2 0x12CC SWAP2 SWAP1 PUSH2 0x578C JUMP JUMPDEST PUSH2 0x100 PUSH1 0x40 MLOAD DUP1 DUP4 SUB DUP2 DUP7 DUP1 EXTCODESIZE ISZERO DUP1 ISZERO PUSH2 0x12E5 JUMPI PUSH1 0x0 DUP1 REVERT JUMPDEST POP GAS STATICCALL ISZERO DUP1 ISZERO PUSH2 0x12F9 JUMPI RETURNDATASIZE PUSH1 0x0 DUP1 RETURNDATACOPY RETURNDATASIZE PUSH1 0x0 REVERT JUMPDEST POP POP POP POP PUSH1 0x40 MLOAD RETURNDATASIZE PUSH1 0x1F NOT PUSH1 0x1F DUP3 ADD AND DUP3 ADD DUP1 PUSH1 0x40 MSTORE POP DUP2 ADD SWAP1 PUSH2 0x131D SWAP2 SWAP1 PUSH2 0x4868 JUMP JUMPDEST PUSH1 0x40 ADD MLOAD PUSH2 0x3E17 SWAP1 SWAP2 SWAP1 PUSH4 0xFFFFFFFF AND JUMP JUMPDEST PUSH2 0x1342 DUP3 DUP5 PUSH2 0x3E17 SWAP1 SWAP2 SWAP1 PUSH4 0xFFFFFFFF AND JUMP JUMPDEST GT ISZERO PUSH2 0x1354 JUMPI PUSH1 0x0 SWAP4 POP POP POP POP PUSH2 0x135C JUMP JUMPDEST PUSH1 0x1 SWAP4 POP POP POP POP JUMPDEST SWAP4 SWAP3 POP POP POP JUMP JUMPDEST PUSH1 0x0 DUP1 PUSH1 0x0 DUP4 DUP2 MSTORE PUSH1 0x20 ADD SWAP1 DUP2 MSTORE PUSH1 0x20 ADD PUSH1 0x0 KECCAK256 PUSH1 0x2 ADD SLOAD SWAP1 POP SWAP2 SWAP1 POP JUMP JUMPDEST PUSH1 0x0 PUSH2 0x13A1 PUSH1 0x40 MLOAD PUSH2 0x1393 SWAP1 PUSH2 0x5398 JUMP JUMPDEST PUSH1 0x40 MLOAD DUP1 SWAP2 SUB SWAP1 KECCAK256 DUP4 PUSH2 0x2BA0 JUMP JUMPDEST SWAP1 POP SWAP2 SWAP1 POP JUMP JUMPDEST PUSH1 0x5 PUSH1 0x0 SWAP1 SLOAD SWAP1 PUSH2 0x100 EXP SWAP1 DIV PUSH20 0xFFFFFFFFFFFFFFFFFFFFFFFFFFFFFFFFFFFFFFFF AND DUP2 JUMP JUMPDEST PUSH2 0x13F4 PUSH1 0x0 DUP1 DUP5 DUP2 MSTORE PUSH1 0x20 ADD SWAP1 DUP2 MSTORE PUSH1 0x20 ADD PUSH1 0x0 KECCAK256 PUSH1 0x2 ADD SLOAD PUSH2 0x13EF PUSH2 0x3E87 JUMP JUMPDEST PUSH2 0x2BA0 JUMP JUMPDEST PUSH2 0x1433 JUMPI PUSH1 0x40 MLOAD PUSH32 0x8C379A000000000000000000000000000000000000000000000000000000000 DUP2 MSTORE PUSH1 0x4 ADD PUSH2 0x142A SWAP1 PUSH2 0x5549 JUMP JUMPDEST PUSH1 0x40 MLOAD DUP1 SWAP2 SUB SWAP1 REVERT JUMPDEST PUSH2 0x143D DUP3 DUP3 PUSH2 0x3E8F JUMP JUMPDEST POP POP JUMP JUMPDEST PUSH2 0x1449 PUSH2 0x3E87 JUMP JUMPDEST PUSH20 0xFFFFFFFFFFFFFFFFFFFFFFFFFFFFFFFFFFFFFFFF AND DUP2 PUSH20 0xFFFFFFFFFFFFFFFFFFFFFFFFFFFFFFFFFFFFFFFF AND EQ PUSH2 0x14B6 JUMPI PUSH1 0x40 MLOAD PUSH32 0x8C379A000000000000000000000000000000000000000000000000000000000 DUP2 MSTORE PUSH1 0x4 ADD PUSH2 0x14AD SWAP1 PUSH2 0x56E9 JUMP JUMPDEST PUSH1 0x40 MLOAD DUP1 SWAP2 SUB SWAP1 REVERT JUMPDEST PUSH2 0x14C0 DUP3 DUP3 PUSH2 0x3F22 JUMP JUMPDEST POP POP JUMP JUMPDEST PUSH1 0x60 PUSH1 0x3 PUSH1 0x0 DUP4 DUP2 MSTORE PUSH1 0x20 ADD SWAP1 DUP2 MSTORE PUSH1 0x20 ADD PUSH1 0x0 KECCAK256 PUSH1 0x2 ADD DUP1 SLOAD DUP1 PUSH1 0x20 MUL PUSH1 0x20 ADD PUSH1 0x40 MLOAD SWAP1 DUP2 ADD PUSH1 0x40 MSTORE DUP1 SWAP3 SWAP2 SWAP1 DUP2 DUP2 MSTORE PUSH1 0x20 ADD DUP3 DUP1 SLOAD DUP1 ISZERO PUSH2 0x1526 JUMPI PUSH1 0x20 MUL DUP3 ADD SWAP2 SWAP1 PUSH1 0x0 MSTORE PUSH1 0x20 PUSH1 0x0 KECCAK256 SWAP1 JUMPDEST DUP2 SLOAD DUP2 MSTORE PUSH1 0x20 ADD SWAP1 PUSH1 0x1 ADD SWAP1 DUP1 DUP4 GT PUSH2 0x1512 JUMPI JUMPDEST POP POP POP POP POP SWAP1 POP DUP1 SWAP1 POP SWAP2 SWAP1 POP JUMP JUMPDEST DUP2 PUSH1 0x5 PUSH1 0x0 SWAP1 SLOAD SWAP1 PUSH2 0x100 EXP SWAP1 DIV PUSH20 0xFFFFFFFFFFFFFFFFFFFFFFFFFFFFFFFFFFFFFFFF AND PUSH20 0xFFFFFFFFFFFFFFFFFFFFFFFFFFFFFFFFFFFFFFFF AND PUSH4 0x757991A8 PUSH1 0x40 MLOAD DUP2 PUSH4 0xFFFFFFFF AND PUSH1 0xE0 SHL DUP2 MSTORE PUSH1 0x4 ADD PUSH1 0x20 PUSH1 0x40 MLOAD DUP1 DUP4 SUB DUP2 DUP7 DUP1 EXTCODESIZE ISZERO DUP1 ISZERO PUSH2 0x159E JUMPI PUSH1 0x0 DUP1 REVERT JUMPDEST POP GAS STATICCALL ISZERO DUP1 ISZERO PUSH2 0x15B2 JUMPI RETURNDATASIZE PUSH1 0x0 DUP1 RETURNDATACOPY RETURNDATASIZE PUSH1 0x0 REVERT JUMPDEST POP POP POP POP PUSH1 0x40 MLOAD RETURNDATASIZE PUSH1 0x1F NOT PUSH1 0x1F DUP3 ADD AND DUP3 ADD DUP1 PUSH1 0x40 MSTORE POP DUP2 ADD SWAP1 PUSH2 0x15D6 SWAP2 SWAP1 PUSH2 0x48BB JUMP JUMPDEST DUP2 EQ PUSH2 0x1617 JUMPI PUSH1 0x40 MLOAD PUSH32 0x8C379A000000000000000000000000000000000000000000000000000000000 DUP2 MSTORE PUSH1 0x4 ADD PUSH2 0x160E SWAP1 PUSH2 0x5609 JUMP JUMPDEST PUSH1 0x40 MLOAD DUP1 SWAP2 SUB SWAP1 REVERT JUMPDEST PUSH20 0x0 PUSH4 0xF240F7C3 PUSH1 0x40 MLOAD DUP2 PUSH4 0xFFFFFFFF AND PUSH1 0xE0 SHL DUP2 MSTORE PUSH1 0x4 ADD PUSH1 0x20 PUSH1 0x40 MLOAD DUP1 DUP4 SUB DUP2 DUP7 DUP1 EXTCODESIZE ISZERO DUP1 ISZERO PUSH2 0x165B JUMPI PUSH1 0x0 DUP1 REVERT JUMPDEST POP GAS DELEGATECALL ISZERO DUP1 ISZERO PUSH2 0x166F JUMPI RETURNDATASIZE PUSH1 0x0 DUP1 RETURNDATACOPY RETURNDATASIZE PUSH1 0x0 REVERT JUMPDEST POP POP POP POP PUSH1 0x40 MLOAD RETURNDATASIZE PUSH1 0x1F NOT PUSH1 0x1F DUP3 ADD AND DUP3 ADD DUP1 PUSH1 0x40 MSTORE POP DUP2 ADD SWAP1 PUSH2 0x1693 SWAP2 SWAP1 PUSH2 0x4B10 JUMP JUMPDEST PUSH1 0xFF AND PUSH1 0x5 PUSH1 0x0 SWAP1 SLOAD SWAP1 PUSH2 0x100 EXP SWAP1 DIV PUSH20 0xFFFFFFFFFFFFFFFFFFFFFFFFFFFFFFFFFFFFFFFF AND PUSH20 0xFFFFFFFFFFFFFFFFFFFFFFFFFFFFFFFFFFFFFFFF AND PUSH4 0x1865C57D PUSH1 0x40 MLOAD DUP2 PUSH4 0xFFFFFFFF AND PUSH1 0xE0 SHL DUP2 MSTORE PUSH1 0x4 ADD PUSH1 0x20 PUSH1 0x40 MLOAD DUP1 DUP4 SUB DUP2 DUP7 DUP1 EXTCODESIZE ISZERO DUP1 ISZERO PUSH2 0x16FE JUMPI PUSH1 0x0 DUP1 REVERT JUMPDEST POP GAS STATICCALL ISZERO DUP1 ISZERO PUSH2 0x1712 JUMPI RETURNDATASIZE PUSH1 0x0 DUP1 RETURNDATACOPY RETURNDATASIZE PUSH1 0x0 REVERT JUMPDEST POP POP POP POP PUSH1 0x40 MLOAD RETURNDATASIZE PUSH1 0x1F NOT PUSH1 0x1F DUP3 ADD AND DUP3 ADD DUP1 PUSH1 0x40 MSTORE POP DUP2 ADD SWAP1 PUSH2 0x1736 SWAP2 SWAP1 PUSH2 0x48BB JUMP JUMPDEST DUP2 EQ PUSH2 0x1777 JUMPI PUSH1 0x40 MLOAD PUSH32 0x8C379A000000000000000000000000000000000000000000000000000000000 DUP2 MSTORE PUSH1 0x4 ADD PUSH2 0x176E SWAP1 PUSH2 0x56A9 JUMP JUMPDEST PUSH1 0x40 MLOAD DUP1 SWAP2 SUB SWAP1 REVERT JUMPDEST PUSH1 0x0 PUSH1 0x1 PUSH1 0x0 DUP7 DUP2 MSTORE PUSH1 0x20 ADD SWAP1 DUP2 MSTORE PUSH1 0x20 ADD PUSH1 0x0 KECCAK256 PUSH1 0x0 CALLER PUSH20 0xFFFFFFFFFFFFFFFFFFFFFFFFFFFFFFFFFFFFFFFF AND PUSH20 0xFFFFFFFFFFFFFFFFFFFFFFFFFFFFFFFFFFFFFFFF AND DUP2 MSTORE PUSH1 0x20 ADD SWAP1 DUP2 MSTORE PUSH1 0x20 ADD PUSH1 0x0 KECCAK256 PUSH1 0x5 ADD SLOAD SWAP1 POP PUSH1 0x6 PUSH1 0x0 SWAP1 SLOAD SWAP1 PUSH2 0x100 EXP SWAP1 DIV PUSH20 0xFFFFFFFFFFFFFFFFFFFFFFFFFFFFFFFFFFFFFFFF AND PUSH20 0xFFFFFFFFFFFFFFFFFFFFFFFFFFFFFFFFFFFFFFFF AND PUSH4 0xA6A145D9 DUP7 DUP4 PUSH1 0x40 MLOAD DUP4 PUSH4 0xFFFFFFFF AND PUSH1 0xE0 SHL DUP2 MSTORE PUSH1 0x4 ADD PUSH2 0x182C SWAP3 SWAP2 SWAP1 PUSH2 0x57DE JUMP JUMPDEST PUSH1 0x20 PUSH1 0x40 MLOAD DUP1 DUP4 SUB DUP2 DUP7 DUP1 EXTCODESIZE ISZERO DUP1 ISZERO PUSH2 0x1844 JUMPI PUSH1 0x0 DUP1 REVERT JUMPDEST POP GAS STATICCALL ISZERO DUP1 ISZERO PUSH2 0x1858 JUMPI RETURNDATASIZE PUSH1 0x0 DUP1 RETURNDATACOPY RETURNDATASIZE PUSH1 0x0 REVERT JUMPDEST POP POP POP POP PUSH1 0x40 MLOAD RETURNDATASIZE PUSH1 0x1F NOT PUSH1 0x1F DUP3 ADD AND DUP3 ADD DUP1 PUSH1 0x40 MSTORE POP DUP2 ADD SWAP1 PUSH2 0x187C SWAP2 SWAP1 PUSH2 0x48BB JUMP JUMPDEST PUSH1 0x1 PUSH1 0x0 DUP8 DUP2 MSTORE PUSH1 0x20 ADD SWAP1 DUP2 MSTORE PUSH1 0x20 ADD PUSH1 0x0 KECCAK256 PUSH1 0x0 CALLER PUSH20 0xFFFFFFFFFFFFFFFFFFFFFFFFFFFFFFFFFFFFFFFF AND PUSH20 0xFFFFFFFFFFFFFFFFFFFFFFFFFFFFFFFFFFFFFFFF AND DUP2 MSTORE PUSH1 0x20 ADD SWAP1 DUP2 MSTORE PUSH1 0x20 ADD PUSH1 0x0 KECCAK256 PUSH1 0x0 ADD SLOAD EQ PUSH2 0x1910 JUMPI PUSH1 0x40 MLOAD PUSH32 0x8C379A000000000000000000000000000000000000000000000000000000000 DUP2 MSTORE PUSH1 0x4 ADD PUSH2 0x1907 SWAP1 PUSH2 0x5689 JUMP JUMPDEST PUSH1 0x40 MLOAD DUP1 SWAP2 SUB SWAP1 REVERT JUMPDEST PUSH1 0x0 PUSH1 0x1 PUSH1 0x0 DUP8 DUP2 MSTORE PUSH1 0x20 ADD SWAP1 DUP2 MSTORE PUSH1 0x20 ADD PUSH1 0x0 KECCAK256 PUSH1 0x0 CALLER PUSH20 0xFFFFFFFFFFFFFFFFFFFFFFFFFFFFFFFFFFFFFFFF AND PUSH20 0xFFFFFFFFFFFFFFFFFFFFFFFFFFFFFFFFFFFFFFFF AND DUP2 MSTORE PUSH1 0x20 ADD SWAP1 DUP2 MSTORE PUSH1 0x20 ADD PUSH1 0x0 KECCAK256 PUSH1 0x1 ADD SLOAD SWAP1 POP PUSH1 0x0 PUSH1 0x1 PUSH1 0x0 DUP9 DUP2 MSTORE PUSH1 0x20 ADD SWAP1 DUP2 MSTORE PUSH1 0x20 ADD PUSH1 0x0 KECCAK256 PUSH1 0x0 CALLER PUSH20 0xFFFFFFFFFFFFFFFFFFFFFFFFFFFFFFFFFFFFFFFF AND PUSH20 0xFFFFFFFFFFFFFFFFFFFFFFFFFFFFFFFFFFFFFFFF AND DUP2 MSTORE PUSH1 0x20 ADD SWAP1 DUP2 MSTORE PUSH1 0x20 ADD PUSH1 0x0 KECCAK256 PUSH1 0x2 ADD SLOAD SWAP1 POP PUSH1 0x0 PUSH1 0x1 PUSH1 0x0 DUP10 DUP2 MSTORE PUSH1 0x20 ADD SWAP1 DUP2 MSTORE PUSH1 0x20 ADD PUSH1 0x0 KECCAK256 PUSH1 0x0 CALLER PUSH20 0xFFFFFFFFFFFFFFFFFFFFFFFFFFFFFFFFFFFFFFFF AND PUSH20 0xFFFFFFFFFFFFFFFFFFFFFFFFFFFFFFFFFFFFFFFF AND DUP2 MSTORE PUSH1 0x20 ADD SWAP1 DUP2 MSTORE PUSH1 0x20 ADD PUSH1 0x0 KECCAK256 PUSH1 0x3 ADD SLOAD SWAP1 POP PUSH1 0x0 PUSH1 0x2 PUSH1 0x0 DUP11 DUP2 MSTORE PUSH1 0x20 ADD SWAP1 DUP2 MSTORE PUSH1 0x20 ADD PUSH1 0x0 KECCAK256 DUP9 DUP2 SLOAD DUP2 LT PUSH2 0x1A38 JUMPI INVALID JUMPDEST SWAP1 PUSH1 0x0 MSTORE PUSH1 0x20 PUSH1 0x0 KECCAK256 SWAP1 PUSH1 0x8 MUL ADD PUSH1 0x0 ADD SLOAD SWAP1 POP PUSH1 0x0 DUP5 GT PUSH2 0x1A59 JUMPI PUSH1 0x0 DUP1 REVERT JUMPDEST DUP4 PUSH1 0x2 PUSH1 0x0 DUP12 DUP2 MSTORE PUSH1 0x20 ADD SWAP1 DUP2 MSTORE PUSH1 0x20 ADD PUSH1 0x0 KECCAK256 DUP10 DUP2 SLOAD DUP2 LT PUSH2 0x1A78 JUMPI INVALID JUMPDEST SWAP1 PUSH1 0x0 MSTORE PUSH1 0x20 PUSH1 0x0 KECCAK256 SWAP1 PUSH1 0x8 MUL ADD PUSH1 0x2 ADD DUP7 DUP2 SLOAD DUP2 LT PUSH2 0x1A94 JUMPI INVALID JUMPDEST SWAP1 PUSH1 0x0 MSTORE PUSH1 0x20 PUSH1 0x0 KECCAK256 ADD SLOAD EQ ISZERO DUP1 PUSH2 0x1AF0 JUMPI POP DUP3 PUSH1 0x2 PUSH1 0x0 DUP12 DUP2 MSTORE PUSH1 0x20 ADD SWAP1 DUP2 MSTORE PUSH1 0x20 ADD PUSH1 0x0 KECCAK256 DUP10 DUP2 SLOAD DUP2 LT PUSH2 0x1AC6 JUMPI INVALID JUMPDEST SWAP1 PUSH1 0x0 MSTORE PUSH1 0x20 PUSH1 0x0 KECCAK256 SWAP1 PUSH1 0x8 MUL ADD PUSH1 0x3 ADD DUP7 DUP2 SLOAD DUP2 LT PUSH2 0x1AE2 JUMPI INVALID JUMPDEST SWAP1 PUSH1 0x0 MSTORE PUSH1 0x20 PUSH1 0x0 KECCAK256 ADD SLOAD EQ ISZERO JUMPDEST DUP1 PUSH2 0x1B3F JUMPI POP DUP2 PUSH1 0x2 PUSH1 0x0 DUP12 DUP2 MSTORE PUSH1 0x20 ADD SWAP1 DUP2 MSTORE PUSH1 0x20 ADD PUSH1 0x0 KECCAK256 DUP10 DUP2 SLOAD DUP2 LT PUSH2 0x1B15 JUMPI INVALID JUMPDEST SWAP1 PUSH1 0x0 MSTORE PUSH1 0x20 PUSH1 0x0 KECCAK256 SWAP1 PUSH1 0x8 MUL ADD PUSH1 0x4 ADD DUP7 DUP2 SLOAD DUP2 LT PUSH2 0x1B31 JUMPI INVALID JUMPDEST SWAP1 PUSH1 0x0 MSTORE PUSH1 0x20 PUSH1 0x0 KECCAK256 ADD SLOAD EQ ISZERO JUMPDEST ISZERO PUSH2 0x1C22 JUMPI PUSH1 0x0 PUSH1 0x2 PUSH1 0x0 DUP12 DUP2 MSTORE PUSH1 0x20 ADD SWAP1 DUP2 MSTORE PUSH1 0x20 ADD PUSH1 0x0 KECCAK256 DUP10 DUP2 SLOAD DUP2 LT PUSH2 0x1B64 JUMPI INVALID JUMPDEST SWAP1 PUSH1 0x0 MSTORE PUSH1 0x20 PUSH1 0x0 KECCAK256 SWAP1 PUSH1 0x8 MUL ADD PUSH1 0x7 ADD PUSH1 0x0 PUSH2 0x100 EXP DUP2 SLOAD DUP2 PUSH1 0xFF MUL NOT AND SWAP1 DUP4 ISZERO ISZERO MUL OR SWAP1 SSTORE POP PUSH1 0x4 PUSH1 0x0 SWAP1 SLOAD SWAP1 PUSH2 0x100 EXP SWAP1 DIV PUSH20 0xFFFFFFFFFFFFFFFFFFFFFFFFFFFFFFFFFFFFFFFF AND PUSH20 0xFFFFFFFFFFFFFFFFFFFFFFFFFFFFFFFFFFFFFFFF AND PUSH4 0xF91CE19 DUP3 CALLER DUP13 PUSH1 0x40 MLOAD DUP5 PUSH4 0xFFFFFFFF AND PUSH1 0xE0 SHL DUP2 MSTORE PUSH1 0x4 ADD PUSH2 0x1BEB SWAP4 SWAP3 SWAP2 SWAP1 PUSH2 0x57A7 JUMP JUMPDEST PUSH1 0x0 PUSH1 0x40 MLOAD DUP1 DUP4 SUB DUP2 PUSH1 0x0 DUP8 DUP1 EXTCODESIZE ISZERO DUP1 ISZERO PUSH2 0x1C05 JUMPI PUSH1 0x0 DUP1 REVERT JUMPDEST POP GAS CALL ISZERO DUP1 ISZERO PUSH2 0x1C19 JUMPI RETURNDATASIZE PUSH1 0x0 DUP1 RETURNDATACOPY RETURNDATASIZE PUSH1 0x0 REVERT JUMPDEST POP POP POP POP PUSH2 0x1C5D JUMP JUMPDEST PUSH1 0x40 MLOAD PUSH32 0x8C379A000000000000000000000000000000000000000000000000000000000 DUP2 MSTORE PUSH1 0x4 ADD PUSH2 0x1C54 SWAP1 PUSH2 0x5649 JUMP JUMPDEST PUSH1 0x40 MLOAD DUP1 SWAP2 SUB SWAP1 REVERT JUMPDEST POP POP POP POP POP POP POP POP POP JUMP JUMPDEST PUSH1 0x7 PUSH1 0x0 SWAP1 SLOAD SWAP1 PUSH2 0x100 EXP SWAP1 DIV PUSH20 0xFFFFFFFFFFFFFFFFFFFFFFFFFFFFFFFFFFFFFFFF AND DUP2 JUMP JUMPDEST PUSH1 0x6 PUSH1 0x0 SWAP1 SLOAD SWAP1 PUSH2 0x100 EXP SWAP1 DIV PUSH20 0xFFFFFFFFFFFFFFFFFFFFFFFFFFFFFFFFFFFFFFFF AND DUP2 JUMP JUMPDEST DUP3 PUSH1 0x5 PUSH1 0x0 SWAP1 SLOAD SWAP1 PUSH2 0x100 EXP SWAP1 DIV PUSH20 0xFFFFFFFFFFFFFFFFFFFFFFFFFFFFFFFFFFFFFFFF AND PUSH20 0xFFFFFFFFFFFFFFFFFFFFFFFFFFFFFFFFFFFFFFFF AND PUSH4 0x757991A8 PUSH1 0x40 MLOAD DUP2 PUSH4 0xFFFFFFFF AND PUSH1 0xE0 SHL DUP2 MSTORE PUSH1 0x4 ADD PUSH1 0x20 PUSH1 0x40 MLOAD DUP1 DUP4 SUB DUP2 DUP7 DUP1 EXTCODESIZE ISZERO DUP1 ISZERO PUSH2 0x1D1D JUMPI PUSH1 0x0 DUP1 REVERT JUMPDEST POP GAS STATICCALL ISZERO DUP1 ISZERO PUSH2 0x1D31 JUMPI RETURNDATASIZE PUSH1 0x0 DUP1 RETURNDATACOPY RETURNDATASIZE PUSH1 0x0 REVERT JUMPDEST POP POP POP POP PUSH1 0x40 MLOAD RETURNDATASIZE PUSH1 0x1F NOT PUSH1 0x1F DUP3 ADD AND DUP3 ADD DUP1 PUSH1 0x40 MSTORE POP DUP2 ADD SWAP1 PUSH2 0x1D55 SWAP2 SWAP1 PUSH2 0x48BB JUMP JUMPDEST DUP2 EQ PUSH2 0x1D96 JUMPI PUSH1 0x40 MLOAD PUSH32 0x8C379A000000000000000000000000000000000000000000000000000000000 DUP2 MSTORE PUSH1 0x4 ADD PUSH2 0x1D8D SWAP1 PUSH2 0x5609 JUMP JUMPDEST PUSH1 0x40 MLOAD DUP1 SWAP2 SUB SWAP1 REVERT JUMPDEST PUSH20 0x0 PUSH4 0xF240F7C3 PUSH1 0x40 MLOAD DUP2 PUSH4 0xFFFFFFFF AND PUSH1 0xE0 SHL DUP2 MSTORE PUSH1 0x4 ADD PUSH1 0x20 PUSH1 0x40 MLOAD DUP1 DUP4 SUB DUP2 DUP7 DUP1 EXTCODESIZE ISZERO DUP1 ISZERO PUSH2 0x1DDA JUMPI PUSH1 0x0 DUP1 REVERT JUMPDEST POP GAS DELEGATECALL ISZERO DUP1 ISZERO PUSH2 0x1DEE JUMPI RETURNDATASIZE PUSH1 0x0 DUP1 RETURNDATACOPY RETURNDATASIZE PUSH1 0x0 REVERT JUMPDEST POP POP POP POP PUSH1 0x40 MLOAD RETURNDATASIZE PUSH1 0x1F NOT PUSH1 0x1F DUP3 ADD AND DUP3 ADD DUP1 PUSH1 0x40 MSTORE POP DUP2 ADD SWAP1 PUSH2 0x1E12 SWAP2 SWAP1 PUSH2 0x4B10 JUMP JUMPDEST PUSH1 0xFF AND PUSH1 0x5 PUSH1 0x0 SWAP1 SLOAD SWAP1 PUSH2 0x100 EXP SWAP1 DIV PUSH20 0xFFFFFFFFFFFFFFFFFFFFFFFFFFFFFFFFFFFFFFFF AND PUSH20 0xFFFFFFFFFFFFFFFFFFFFFFFFFFFFFFFFFFFFFFFF AND PUSH4 0x1865C57D PUSH1 0x40 MLOAD DUP2 PUSH4 0xFFFFFFFF AND PUSH1 0xE0 SHL DUP2 MSTORE PUSH1 0x4 ADD PUSH1 0x20 PUSH1 0x40 MLOAD DUP1 DUP4 SUB DUP2 DUP7 DUP1 EXTCODESIZE ISZERO DUP1 ISZERO PUSH2 0x1E7D JUMPI PUSH1 0x0 DUP1 REVERT JUMPDEST POP GAS STATICCALL ISZERO DUP1 ISZERO PUSH2 0x1E91 JUMPI RETURNDATASIZE PUSH1 0x0 DUP1 RETURNDATACOPY RETURNDATASIZE PUSH1 0x0 REVERT JUMPDEST POP POP POP POP PUSH1 0x40 MLOAD RETURNDATASIZE PUSH1 0x1F NOT PUSH1 0x1F DUP3 ADD AND DUP3 ADD DUP1 PUSH1 0x40 MSTORE POP DUP2 ADD SWAP1 PUSH2 0x1EB5 SWAP2 SWAP1 PUSH2 0x48BB JUMP JUMPDEST DUP2 EQ PUSH2 0x1EF6 JUMPI PUSH1 0x40 MLOAD PUSH32 0x8C379A000000000000000000000000000000000000000000000000000000000 DUP2 MSTORE PUSH1 0x4 ADD PUSH2 0x1EED SWAP1 PUSH2 0x56A9 JUMP JUMPDEST PUSH1 0x40 MLOAD DUP1 SWAP2 SUB SWAP1 REVERT JUMPDEST PUSH1 0x0 PUSH2 0x1FB8 PUSH1 0x2 PUSH1 0x6 PUSH1 0x0 SWAP1 SLOAD SWAP1 PUSH2 0x100 EXP SWAP1 DIV PUSH20 0xFFFFFFFFFFFFFFFFFFFFFFFFFFFFFFFFFFFFFFFF AND PUSH20 0xFFFFFFFFFFFFFFFFFFFFFFFFFFFFFFFFFFFFFFFF AND PUSH4 0xA6A145D9 DUP10 DUP10 PUSH1 0x40 MLOAD DUP4 PUSH4 0xFFFFFFFF AND PUSH1 0xE0 SHL DUP2 MSTORE PUSH1 0x4 ADD PUSH2 0x1F5A SWAP3 SWAP2 SWAP1 PUSH2 0x57DE JUMP JUMPDEST PUSH1 0x20 PUSH1 0x40 MLOAD DUP1 DUP4 SUB DUP2 DUP7 DUP1 EXTCODESIZE ISZERO DUP1 ISZERO PUSH2 0x1F72 JUMPI PUSH1 0x0 DUP1 REVERT JUMPDEST POP GAS STATICCALL ISZERO DUP1 ISZERO PUSH2 0x1F86 JUMPI RETURNDATASIZE PUSH1 0x0 DUP1 RETURNDATACOPY RETURNDATASIZE PUSH1 0x0 REVERT JUMPDEST POP POP POP POP PUSH1 0x40 MLOAD RETURNDATASIZE PUSH1 0x1F NOT PUSH1 0x1F DUP3 ADD AND DUP3 ADD DUP1 PUSH1 0x40 MSTORE POP DUP2 ADD SWAP1 PUSH2 0x1FAA SWAP2 SWAP1 PUSH2 0x48BB JUMP JUMPDEST PUSH2 0x3FB5 SWAP1 SWAP2 SWAP1 PUSH4 0xFFFFFFFF AND JUMP JUMPDEST SWAP1 POP PUSH1 0x0 PUSH2 0x207C PUSH1 0x4 PUSH1 0x6 PUSH1 0x0 SWAP1 SLOAD SWAP1 PUSH2 0x100 EXP SWAP1 DIV PUSH20 0xFFFFFFFFFFFFFFFFFFFFFFFFFFFFFFFFFFFFFFFF AND PUSH20 0xFFFFFFFFFFFFFFFFFFFFFFFFFFFFFFFFFFFFFFFF AND PUSH4 0xA6A145D9 DUP11 DUP11 PUSH1 0x40 MLOAD DUP4 PUSH4 0xFFFFFFFF AND PUSH1 0xE0 SHL DUP2 MSTORE PUSH1 0x4 ADD PUSH2 0x201E SWAP3 SWAP2 SWAP1 PUSH2 0x57DE JUMP JUMPDEST PUSH1 0x20 PUSH1 0x40 MLOAD DUP1 DUP4 SUB DUP2 DUP7 DUP1 EXTCODESIZE ISZERO DUP1 ISZERO PUSH2 0x2036 JUMPI PUSH1 0x0 DUP1 REVERT JUMPDEST POP GAS STATICCALL ISZERO DUP1 ISZERO PUSH2 0x204A JUMPI RETURNDATASIZE PUSH1 0x0 DUP1 RETURNDATACOPY RETURNDATASIZE PUSH1 0x0 REVERT JUMPDEST POP POP POP POP PUSH1 0x40 MLOAD RETURNDATASIZE PUSH1 0x1F NOT PUSH1 0x1F DUP3 ADD AND DUP3 ADD DUP1 PUSH1 0x40 MSTORE POP DUP2 ADD SWAP1 PUSH2 0x206E SWAP2 SWAP1 PUSH2 0x48BB JUMP JUMPDEST PUSH2 0x3FB5 SWAP1 SWAP2 SWAP1 PUSH4 0xFFFFFFFF AND JUMP JUMPDEST SWAP1 POP PUSH1 0x0 PUSH2 0x2153 PUSH1 0x4 PUSH2 0x2145 PUSH1 0x3 PUSH1 0x6 PUSH1 0x0 SWAP1 SLOAD SWAP1 PUSH2 0x100 EXP SWAP1 DIV PUSH20 0xFFFFFFFFFFFFFFFFFFFFFFFFFFFFFFFFFFFFFFFF AND PUSH20 0xFFFFFFFFFFFFFFFFFFFFFFFFFFFFFFFFFFFFFFFF AND PUSH4 0xA6A145D9 DUP14 DUP14 PUSH1 0x40 MLOAD DUP4 PUSH4 0xFFFFFFFF AND PUSH1 0xE0 SHL DUP2 MSTORE PUSH1 0x4 ADD PUSH2 0x20E7 SWAP3 SWAP2 SWAP1 PUSH2 0x57DE JUMP JUMPDEST PUSH1 0x20 PUSH1 0x40 MLOAD DUP1 DUP4 SUB DUP2 DUP7 DUP1 EXTCODESIZE ISZERO DUP1 ISZERO PUSH2 0x20FF JUMPI PUSH1 0x0 DUP1 REVERT JUMPDEST POP GAS STATICCALL ISZERO DUP1 ISZERO PUSH2 0x2113 JUMPI RETURNDATASIZE PUSH1 0x0 DUP1 RETURNDATACOPY RETURNDATASIZE PUSH1 0x0 REVERT JUMPDEST POP POP POP POP PUSH1 0x40 MLOAD RETURNDATASIZE PUSH1 0x1F NOT PUSH1 0x1F DUP3 ADD AND DUP3 ADD DUP1 PUSH1 0x40 MSTORE POP DUP2 ADD SWAP1 PUSH2 0x2137 SWAP2 SWAP1 PUSH2 0x48BB JUMP JUMPDEST PUSH2 0x3E17 SWAP1 SWAP2 SWAP1 PUSH4 0xFFFFFFFF AND JUMP JUMPDEST PUSH2 0x3FB5 SWAP1 SWAP2 SWAP1 PUSH4 0xFFFFFFFF AND JUMP JUMPDEST SWAP1 POP PUSH1 0x0 PUSH1 0x1 PUSH1 0x0 DUP11 DUP2 MSTORE PUSH1 0x20 ADD SWAP1 DUP2 MSTORE PUSH1 0x20 ADD PUSH1 0x0 KECCAK256 PUSH1 0x0 CALLER PUSH20 0xFFFFFFFFFFFFFFFFFFFFFFFFFFFFFFFFFFFFFFFF AND PUSH20 0xFFFFFFFFFFFFFFFFFFFFFFFFFFFFFFFFFFFFFFFF AND DUP2 MSTORE PUSH1 0x20 ADD SWAP1 DUP2 MSTORE PUSH1 0x20 ADD PUSH1 0x0 KECCAK256 PUSH1 0x0 ADD SLOAD SWAP1 POP PUSH1 0x0 PUSH1 0x1 PUSH1 0x0 DUP12 DUP2 MSTORE PUSH1 0x20 ADD SWAP1 DUP2 MSTORE PUSH1 0x20 ADD PUSH1 0x0 KECCAK256 PUSH1 0x0 CALLER PUSH20 0xFFFFFFFFFFFFFFFFFFFFFFFFFFFFFFFFFFFFFFFF AND PUSH20 0xFFFFFFFFFFFFFFFFFFFFFFFFFFFFFFFFFFFFFFFF AND DUP2 MSTORE PUSH1 0x20 ADD SWAP1 DUP2 MSTORE PUSH1 0x20 ADD PUSH1 0x0 KECCAK256 PUSH1 0x4 ADD SLOAD SWAP1 POP PUSH1 0x0 PUSH1 0x1 PUSH1 0x0 DUP13 DUP2 MSTORE PUSH1 0x20 ADD SWAP1 DUP2 MSTORE PUSH1 0x20 ADD PUSH1 0x0 KECCAK256 PUSH1 0x0 CALLER PUSH20 0xFFFFFFFFFFFFFFFFFFFFFFFFFFFFFFFFFFFFFFFF AND PUSH20 0xFFFFFFFFFFFFFFFFFFFFFFFFFFFFFFFFFFFFFFFF AND DUP2 MSTORE PUSH1 0x20 ADD SWAP1 DUP2 MSTORE PUSH1 0x20 ADD PUSH1 0x0 KECCAK256 PUSH1 0x0 ADD SLOAD EQ ISZERO PUSH2 0x22BE JUMPI DUP9 PUSH1 0x1 PUSH1 0x0 DUP13 DUP2 MSTORE PUSH1 0x20 ADD SWAP1 DUP2 MSTORE PUSH1 0x20 ADD PUSH1 0x0 KECCAK256 PUSH1 0x0 CALLER PUSH20 0xFFFFFFFFFFFFFFFFFFFFFFFFFFFFFFFFFFFFFFFF AND PUSH20 0xFFFFFFFFFFFFFFFFFFFFFFFFFFFFFFFFFFFFFFFF AND DUP2 MSTORE PUSH1 0x20 ADD SWAP1 DUP2 MSTORE PUSH1 0x20 ADD PUSH1 0x0 KECCAK256 PUSH1 0x5 ADD DUP2 SWAP1 SSTORE POP PUSH2 0x2354 JUMP JUMPDEST DUP9 PUSH1 0x1 PUSH1 0x0 DUP13 DUP2 MSTORE PUSH1 0x20 ADD SWAP1 DUP2 MSTORE PUSH1 0x20 ADD PUSH1 0x0 KECCAK256 PUSH1 0x0 CALLER PUSH20 0xFFFFFFFFFFFFFFFFFFFFFFFFFFFFFFFFFFFFFFFF AND PUSH20 0xFFFFFFFFFFFFFFFFFFFFFFFFFFFFFFFFFFFFFFFF AND DUP2 MSTORE PUSH1 0x20 ADD SWAP1 DUP2 MSTORE PUSH1 0x20 ADD PUSH1 0x0 KECCAK256 PUSH1 0x5 ADD SLOAD EQ PUSH2 0x2353 JUMPI PUSH1 0x40 MLOAD PUSH32 0x8C379A000000000000000000000000000000000000000000000000000000000 DUP2 MSTORE PUSH1 0x4 ADD PUSH2 0x234A SWAP1 PUSH2 0x5629 JUMP JUMPDEST PUSH1 0x40 MLOAD DUP1 SWAP2 SUB SWAP1 REVERT JUMPDEST JUMPDEST PUSH1 0x0 DUP1 SWAP1 POP JUMPDEST DUP9 MLOAD DUP2 LT ISZERO PUSH2 0x273A JUMPI DUP2 DUP10 DUP3 DUP2 MLOAD DUP2 LT PUSH2 0x2370 JUMPI INVALID JUMPDEST PUSH1 0x20 MUL PUSH1 0x20 ADD ADD MLOAD GT PUSH2 0x23B8 JUMPI PUSH1 0x40 MLOAD PUSH32 0x8C379A000000000000000000000000000000000000000000000000000000000 DUP2 MSTORE PUSH1 0x4 ADD PUSH2 0x23AF SWAP1 PUSH2 0x5569 JUMP JUMPDEST PUSH1 0x40 MLOAD DUP1 SWAP2 SUB SWAP1 REVERT JUMPDEST DUP9 DUP2 DUP2 MLOAD DUP2 LT PUSH2 0x23C4 JUMPI INVALID JUMPDEST PUSH1 0x20 MUL PUSH1 0x20 ADD ADD MLOAD SWAP2 POP PUSH2 0x24A2 PUSH1 0x6 PUSH1 0x0 SWAP1 SLOAD SWAP1 PUSH2 0x100 EXP SWAP1 DIV PUSH20 0xFFFFFFFFFFFFFFFFFFFFFFFFFFFFFFFFFFFFFFFF AND PUSH20 0xFFFFFFFFFFFFFFFFFFFFFFFFFFFFFFFFFFFFFFFF AND PUSH4 0x9C66556F DUP14 DUP14 DUP14 DUP7 DUP2 MLOAD DUP2 LT PUSH2 0x241D JUMPI INVALID JUMPDEST PUSH1 0x20 MUL PUSH1 0x20 ADD ADD MLOAD PUSH1 0x40 MLOAD DUP5 PUSH4 0xFFFFFFFF AND PUSH1 0xE0 SHL DUP2 MSTORE PUSH1 0x4 ADD PUSH2 0x2443 SWAP4 SWAP3 SWAP2 SWAP1 PUSH2 0x593B JUMP JUMPDEST PUSH1 0x20 PUSH1 0x40 MLOAD DUP1 DUP4 SUB DUP2 DUP7 DUP1 EXTCODESIZE ISZERO DUP1 ISZERO PUSH2 0x245B JUMPI PUSH1 0x0 DUP1 REVERT JUMPDEST POP GAS STATICCALL ISZERO DUP1 ISZERO PUSH2 0x246F JUMPI RETURNDATASIZE PUSH1 0x0 DUP1 RETURNDATACOPY RETURNDATASIZE PUSH1 0x0 REVERT JUMPDEST POP POP POP POP PUSH1 0x40 MLOAD RETURNDATASIZE PUSH1 0x1F NOT PUSH1 0x1F DUP3 ADD AND DUP3 ADD DUP1 PUSH1 0x40 MSTORE POP DUP2 ADD SWAP1 PUSH2 0x2493 SWAP2 SWAP1 PUSH2 0x48BB JUMP JUMPDEST DUP5 PUSH2 0x3D78 SWAP1 SWAP2 SWAP1 PUSH4 0xFFFFFFFF AND JUMP JUMPDEST SWAP3 POP PUSH1 0x0 PUSH1 0x1 PUSH1 0x0 DUP14 DUP2 MSTORE PUSH1 0x20 ADD SWAP1 DUP2 MSTORE PUSH1 0x20 ADD PUSH1 0x0 KECCAK256 PUSH1 0x0 CALLER PUSH20 0xFFFFFFFFFFFFFFFFFFFFFFFFFFFFFFFFFFFFFFFF AND PUSH20 0xFFFFFFFFFFFFFFFFFFFFFFFFFFFFFFFFFFFFFFFF AND DUP2 MSTORE PUSH1 0x20 ADD SWAP1 DUP2 MSTORE PUSH1 0x20 ADD PUSH1 0x0 KECCAK256 PUSH1 0x2 ADD SLOAD EQ DUP1 ISZERO PUSH2 0x2507 JUMPI POP DUP5 DUP4 LT ISZERO JUMPDEST ISZERO PUSH2 0x2578 JUMPI DUP9 DUP2 DUP2 MLOAD DUP2 LT PUSH2 0x2518 JUMPI INVALID JUMPDEST PUSH1 0x20 MUL PUSH1 0x20 ADD ADD MLOAD PUSH1 0x1 PUSH1 0x0 DUP14 DUP2 MSTORE PUSH1 0x20 ADD SWAP1 DUP2 MSTORE PUSH1 0x20 ADD PUSH1 0x0 KECCAK256 PUSH1 0x0 CALLER PUSH20 0xFFFFFFFFFFFFFFFFFFFFFFFFFFFFFFFFFFFFFFFF AND PUSH20 0xFFFFFFFFFFFFFFFFFFFFFFFFFFFFFFFFFFFFFFFF AND DUP2 MSTORE PUSH1 0x20 ADD SWAP1 DUP2 MSTORE PUSH1 0x20 ADD PUSH1 0x0 KECCAK256 PUSH1 0x2 ADD DUP2 SWAP1 SSTORE POP JUMPDEST PUSH1 0x0 PUSH1 0x1 PUSH1 0x0 DUP14 DUP2 MSTORE PUSH1 0x20 ADD SWAP1 DUP2 MSTORE PUSH1 0x20 ADD PUSH1 0x0 KECCAK256 PUSH1 0x0 CALLER PUSH20 0xFFFFFFFFFFFFFFFFFFFFFFFFFFFFFFFFFFFFFFFF AND PUSH20 0xFFFFFFFFFFFFFFFFFFFFFFFFFFFFFFFFFFFFFFFF AND DUP2 MSTORE PUSH1 0x20 ADD SWAP1 DUP2 MSTORE PUSH1 0x20 ADD PUSH1 0x0 KECCAK256 PUSH1 0x1 ADD SLOAD EQ DUP1 ISZERO PUSH2 0x25DA JUMPI POP DUP6 DUP4 GT JUMPDEST ISZERO PUSH2 0x264B JUMPI DUP9 DUP2 DUP2 MLOAD DUP2 LT PUSH2 0x25EB JUMPI INVALID JUMPDEST PUSH1 0x20 MUL PUSH1 0x20 ADD ADD MLOAD PUSH1 0x1 PUSH1 0x0 DUP14 DUP2 MSTORE PUSH1 0x20 ADD SWAP1 DUP2 MSTORE PUSH1 0x20 ADD PUSH1 0x0 KECCAK256 PUSH1 0x0 CALLER PUSH20 0xFFFFFFFFFFFFFFFFFFFFFFFFFFFFFFFFFFFFFFFF AND PUSH20 0xFFFFFFFFFFFFFFFFFFFFFFFFFFFFFFFFFFFFFFFF AND DUP2 MSTORE PUSH1 0x20 ADD SWAP1 DUP2 MSTORE PUSH1 0x20 ADD PUSH1 0x0 KECCAK256 PUSH1 0x1 ADD DUP2 SWAP1 SSTORE POP JUMPDEST PUSH1 0x0 PUSH1 0x1 PUSH1 0x0 DUP14 DUP2 MSTORE PUSH1 0x20 ADD SWAP1 DUP2 MSTORE PUSH1 0x20 ADD PUSH1 0x0 KECCAK256 PUSH1 0x0 CALLER PUSH20 0xFFFFFFFFFFFFFFFFFFFFFFFFFFFFFFFFFFFFFFFF AND PUSH20 0xFFFFFFFFFFFFFFFFFFFFFFFFFFFFFFFFFFFFFFFF AND DUP2 MSTORE PUSH1 0x20 ADD SWAP1 DUP2 MSTORE PUSH1 0x20 ADD PUSH1 0x0 KECCAK256 PUSH1 0x3 ADD SLOAD EQ DUP1 ISZERO PUSH2 0x26AD JUMPI POP DUP4 DUP4 GT JUMPDEST ISZERO PUSH2 0x271E JUMPI DUP9 DUP2 DUP2 MLOAD DUP2 LT PUSH2 0x26BE JUMPI INVALID JUMPDEST PUSH1 0x20 MUL PUSH1 0x20 ADD ADD MLOAD PUSH1 0x1 PUSH1 0x0 DUP14 DUP2 MSTORE PUSH1 0x20 ADD SWAP1 DUP2 MSTORE PUSH1 0x20 ADD PUSH1 0x0 KECCAK256 PUSH1 0x0 CALLER PUSH20 0xFFFFFFFFFFFFFFFFFFFFFFFFFFFFFFFFFFFFFFFF AND PUSH20 0xFFFFFFFFFFFFFFFFFFFFFFFFFFFFFFFFFFFFFFFF AND DUP2 MSTORE PUSH1 0x20 ADD SWAP1 DUP2 MSTORE PUSH1 0x20 ADD PUSH1 0x0 KECCAK256 PUSH1 0x3 ADD DUP2 SWAP1 SSTORE POP JUMPDEST PUSH2 0x2710 GAS LT ISZERO PUSH2 0x272D JUMPI PUSH2 0x273A JUMP JUMPDEST DUP1 DUP1 PUSH1 0x1 ADD SWAP2 POP POP PUSH2 0x235A JUMP JUMPDEST POP DUP1 PUSH1 0x1 PUSH1 0x0 DUP13 DUP2 MSTORE PUSH1 0x20 ADD SWAP1 DUP2 MSTORE PUSH1 0x20 ADD PUSH1 0x0 KECCAK256 PUSH1 0x0 CALLER PUSH20 0xFFFFFFFFFFFFFFFFFFFFFFFFFFFFFFFFFFFFFFFF AND PUSH20 0xFFFFFFFFFFFFFFFFFFFFFFFFFFFFFFFFFFFFFFFF AND DUP2 MSTORE PUSH1 0x20 ADD SWAP1 DUP2 MSTORE PUSH1 0x20 ADD PUSH1 0x0 KECCAK256 PUSH1 0x4 ADD DUP2 SWAP1 SSTORE POP DUP2 PUSH1 0x1 PUSH1 0x0 DUP13 DUP2 MSTORE PUSH1 0x20 ADD SWAP1 DUP2 MSTORE PUSH1 0x20 ADD PUSH1 0x0 KECCAK256 PUSH1 0x0 CALLER PUSH20 0xFFFFFFFFFFFFFFFFFFFFFFFFFFFFFFFFFFFFFFFF AND PUSH20 0xFFFFFFFFFFFFFFFFFFFFFFFFFFFFFFFFFFFFFFFF AND DUP2 MSTORE PUSH1 0x20 ADD SWAP1 DUP2 MSTORE PUSH1 0x20 ADD PUSH1 0x0 KECCAK256 PUSH1 0x0 ADD DUP2 SWAP1 SSTORE POP POP POP POP POP POP POP POP POP POP POP JUMP JUMPDEST DUP1 PUSH1 0x5 PUSH1 0x0 SWAP1 SLOAD SWAP1 PUSH2 0x100 EXP SWAP1 DIV PUSH20 0xFFFFFFFFFFFFFFFFFFFFFFFFFFFFFFFFFFFFFFFF AND PUSH20 0xFFFFFFFFFFFFFFFFFFFFFFFFFFFFFFFFFFFFFFFF AND PUSH4 0x757991A8 PUSH1 0x40 MLOAD DUP2 PUSH4 0xFFFFFFFF AND PUSH1 0xE0 SHL DUP2 MSTORE PUSH1 0x4 ADD PUSH1 0x20 PUSH1 0x40 MLOAD DUP1 DUP4 SUB DUP2 DUP7 DUP1 EXTCODESIZE ISZERO DUP1 ISZERO PUSH2 0x2860 JUMPI PUSH1 0x0 DUP1 REVERT JUMPDEST POP GAS STATICCALL ISZERO DUP1 ISZERO PUSH2 0x2874 JUMPI RETURNDATASIZE PUSH1 0x0 DUP1 RETURNDATACOPY RETURNDATASIZE PUSH1 0x0 REVERT JUMPDEST POP POP POP POP PUSH1 0x40 MLOAD RETURNDATASIZE PUSH1 0x1F NOT PUSH1 0x1F DUP3 ADD AND DUP3 ADD DUP1 PUSH1 0x40 MSTORE POP DUP2 ADD SWAP1 PUSH2 0x2898 SWAP2 SWAP1 PUSH2 0x48BB JUMP JUMPDEST DUP2 EQ PUSH2 0x28D9 JUMPI PUSH1 0x40 MLOAD PUSH32 0x8C379A000000000000000000000000000000000000000000000000000000000 DUP2 MSTORE PUSH1 0x4 ADD PUSH2 0x28D0 SWAP1 PUSH2 0x5609 JUMP JUMPDEST PUSH1 0x40 MLOAD DUP1 SWAP2 SUB SWAP1 REVERT JUMPDEST PUSH20 0x0 PUSH4 0xF240F7C3 PUSH1 0x40 MLOAD DUP2 PUSH4 0xFFFFFFFF AND PUSH1 0xE0 SHL DUP2 MSTORE PUSH1 0x4 ADD PUSH1 0x20 PUSH1 0x40 MLOAD DUP1 DUP4 SUB DUP2 DUP7 DUP1 EXTCODESIZE ISZERO DUP1 ISZERO PUSH2 0x291D JUMPI PUSH1 0x0 DUP1 REVERT JUMPDEST POP GAS DELEGATECALL ISZERO DUP1 ISZERO PUSH2 0x2931 JUMPI RETURNDATASIZE PUSH1 0x0 DUP1 RETURNDATACOPY RETURNDATASIZE PUSH1 0x0 REVERT JUMPDEST POP POP POP POP PUSH1 0x40 MLOAD RETURNDATASIZE PUSH1 0x1F NOT PUSH1 0x1F DUP3 ADD AND DUP3 ADD DUP1 PUSH1 0x40 MSTORE POP DUP2 ADD SWAP1 PUSH2 0x2955 SWAP2 SWAP1 PUSH2 0x4B10 JUMP JUMPDEST PUSH1 0xFF AND PUSH1 0x5 PUSH1 0x0 SWAP1 SLOAD SWAP1 PUSH2 0x100 EXP SWAP1 DIV PUSH20 0xFFFFFFFFFFFFFFFFFFFFFFFFFFFFFFFFFFFFFFFF AND PUSH20 0xFFFFFFFFFFFFFFFFFFFFFFFFFFFFFFFFFFFFFFFF AND PUSH4 0x1865C57D PUSH1 0x40 MLOAD DUP2 PUSH4 0xFFFFFFFF AND PUSH1 0xE0 SHL DUP2 MSTORE PUSH1 0x4 ADD PUSH1 0x20 PUSH1 0x40 MLOAD DUP1 DUP4 SUB DUP2 DUP7 DUP1 EXTCODESIZE ISZERO DUP1 ISZERO PUSH2 0x29C0 JUMPI PUSH1 0x0 DUP1 REVERT JUMPDEST POP GAS STATICCALL ISZERO DUP1 ISZERO PUSH2 0x29D4 JUMPI RETURNDATASIZE PUSH1 0x0 DUP1 RETURNDATACOPY RETURNDATASIZE PUSH1 0x0 REVERT JUMPDEST POP POP POP POP PUSH1 0x40 MLOAD RETURNDATASIZE PUSH1 0x1F NOT PUSH1 0x1F DUP3 ADD AND DUP3 ADD DUP1 PUSH1 0x40 MSTORE POP DUP2 ADD SWAP1 PUSH2 0x29F8 SWAP2 SWAP1 PUSH2 0x48BB JUMP JUMPDEST DUP2 EQ PUSH2 0x2A39 JUMPI PUSH1 0x40 MLOAD PUSH32 0x8C379A000000000000000000000000000000000000000000000000000000000 DUP2 MSTORE PUSH1 0x4 ADD PUSH2 0x2A30 SWAP1 PUSH2 0x56A9 JUMP JUMPDEST PUSH1 0x40 MLOAD DUP1 SWAP2 SUB SWAP1 REVERT JUMPDEST PUSH1 0x40 MLOAD DUP1 PUSH1 0xC0 ADD PUSH1 0x40 MSTORE DUP1 PUSH1 0x0 DUP2 MSTORE PUSH1 0x20 ADD PUSH1 0x0 DUP2 MSTORE PUSH1 0x20 ADD PUSH1 0x0 DUP2 MSTORE PUSH1 0x20 ADD PUSH1 0x0 DUP2 MSTORE PUSH1 0x20 ADD PUSH1 0x0 DUP2 MSTORE PUSH1 0x20 ADD PUSH1 0x0 DUP2 MSTORE POP PUSH1 0x1 PUSH1 0x0 DUP6 DUP2 MSTORE PUSH1 0x20 ADD SWAP1 DUP2 MSTORE PUSH1 0x20 ADD PUSH1 0x0 KECCAK256 PUSH1 0x0 CALLER PUSH20 0xFFFFFFFFFFFFFFFFFFFFFFFFFFFFFFFFFFFFFFFF AND PUSH20 0xFFFFFFFFFFFFFFFFFFFFFFFFFFFFFFFFFFFFFFFF AND DUP2 MSTORE PUSH1 0x20 ADD SWAP1 DUP2 MSTORE PUSH1 0x20 ADD PUSH1 0x0 KECCAK256 PUSH1 0x0 DUP3 ADD MLOAD DUP2 PUSH1 0x0 ADD SSTORE PUSH1 0x20 DUP3 ADD MLOAD DUP2 PUSH1 0x1 ADD SSTORE PUSH1 0x40 DUP3 ADD MLOAD DUP2 PUSH1 0x2 ADD SSTORE PUSH1 0x60 DUP3 ADD MLOAD DUP2 PUSH1 0x3 ADD SSTORE PUSH1 0x80 DUP3 ADD MLOAD DUP2 PUSH1 0x4 ADD SSTORE PUSH1 0xA0 DUP3 ADD MLOAD DUP2 PUSH1 0x5 ADD SSTORE SWAP1 POP POP POP POP POP JUMP JUMPDEST PUSH1 0x4 PUSH1 0x0 SWAP1 SLOAD SWAP1 PUSH2 0x100 EXP SWAP1 DIV PUSH20 0xFFFFFFFFFFFFFFFFFFFFFFFFFFFFFFFFFFFFFFFF AND DUP2 JUMP JUMPDEST PUSH1 0x1 PUSH1 0x20 MSTORE DUP2 PUSH1 0x0 MSTORE PUSH1 0x40 PUSH1 0x0 KECCAK256 PUSH1 0x20 MSTORE DUP1 PUSH1 0x0 MSTORE PUSH1 0x40 PUSH1 0x0 KECCAK256 PUSH1 0x0 SWAP2 POP SWAP2 POP POP DUP1 PUSH1 0x0 ADD SLOAD SWAP1 DUP1 PUSH1 0x1 ADD SLOAD SWAP1 DUP1 PUSH1 0x2 ADD SLOAD SWAP1 DUP1 PUSH1 0x3 ADD SLOAD SWAP1 DUP1 PUSH1 0x4 ADD SLOAD SWAP1 DUP1 PUSH1 0x5 ADD SLOAD SWAP1 POP DUP7 JUMP JUMPDEST PUSH1 0x0 PUSH2 0x2B98 DUP3 PUSH1 0x0 DUP1 DUP7 DUP2 MSTORE PUSH1 0x20 ADD SWAP1 DUP2 MSTORE PUSH1 0x20 ADD PUSH1 0x0 KECCAK256 PUSH1 0x0 ADD PUSH2 0x3FFF SWAP1 SWAP2 SWAP1 PUSH4 0xFFFFFFFF AND JUMP JUMPDEST SWAP1 POP SWAP3 SWAP2 POP POP JUMP JUMPDEST PUSH1 0x0 PUSH2 0x2BC9 DUP3 PUSH1 0x0 DUP1 DUP7 DUP2 MSTORE PUSH1 0x20 ADD SWAP1 DUP2 MSTORE PUSH1 0x20 ADD PUSH1 0x0 KECCAK256 PUSH1 0x0 ADD PUSH2 0x4019 SWAP1 SWAP2 SWAP1 PUSH4 0xFFFFFFFF AND JUMP JUMPDEST SWAP1 POP SWAP3 SWAP2 POP POP JUMP JUMPDEST PUSH1 0x2 PUSH1 0x20 MSTORE DUP2 PUSH1 0x0 MSTORE PUSH1 0x40 PUSH1 0x0 KECCAK256 DUP2 DUP2 SLOAD DUP2 LT PUSH2 0x2BEA JUMPI INVALID JUMPDEST SWAP1 PUSH1 0x0 MSTORE PUSH1 0x20 PUSH1 0x0 KECCAK256 SWAP1 PUSH1 0x8 MUL ADD PUSH1 0x0 SWAP2 POP SWAP2 POP POP DUP1 PUSH1 0x0 ADD SLOAD SWAP1 DUP1 PUSH1 0x5 ADD SLOAD SWAP1 DUP1 PUSH1 0x6 ADD SLOAD SWAP1 DUP1 PUSH1 0x7 ADD PUSH1 0x0 SWAP1 SLOAD SWAP1 PUSH2 0x100 EXP SWAP1 DIV PUSH1 0xFF AND SWAP1 POP DUP5 JUMP JUMPDEST PUSH2 0x2C31 CALLER PUSH2 0x1382 JUMP JUMPDEST PUSH2 0x2C70 JUMPI PUSH1 0x40 MLOAD PUSH32 0x8C379A000000000000000000000000000000000000000000000000000000000 DUP2 MSTORE PUSH1 0x4 ADD PUSH2 0x2C67 SWAP1 PUSH2 0x56C9 JUMP JUMPDEST PUSH1 0x40 MLOAD DUP1 SWAP2 SUB SWAP1 REVERT JUMPDEST PUSH1 0x0 PUSH1 0x5 PUSH1 0x0 SWAP1 SLOAD SWAP1 PUSH2 0x100 EXP SWAP1 DIV PUSH20 0xFFFFFFFFFFFFFFFFFFFFFFFFFFFFFFFFFFFFFFFF AND PUSH20 0xFFFFFFFFFFFFFFFFFFFFFFFFFFFFFFFFFFFFFFFF AND PUSH4 0x757991A8 PUSH1 0x40 MLOAD DUP2 PUSH4 0xFFFFFFFF AND PUSH1 0xE0 SHL DUP2 MSTORE PUSH1 0x4 ADD PUSH1 0x20 PUSH1 0x40 MLOAD DUP1 DUP4 SUB DUP2 DUP7 DUP1 EXTCODESIZE ISZERO DUP1 ISZERO PUSH2 0x2CDA JUMPI PUSH1 0x0 DUP1 REVERT JUMPDEST POP GAS STATICCALL ISZERO DUP1 ISZERO PUSH2 0x2CEE JUMPI RETURNDATASIZE PUSH1 0x0 DUP1 RETURNDATACOPY RETURNDATASIZE PUSH1 0x0 REVERT JUMPDEST POP POP POP POP PUSH1 0x40 MLOAD RETURNDATASIZE PUSH1 0x1F NOT PUSH1 0x1F DUP3 ADD AND DUP3 ADD DUP1 PUSH1 0x40 MSTORE POP DUP2 ADD SWAP1 PUSH2 0x2D12 SWAP2 SWAP1 PUSH2 0x48BB JUMP JUMPDEST SWAP1 POP PUSH1 0x0 PUSH1 0x3 PUSH1 0x0 PUSH1 0x1 DUP5 SUB DUP2 MSTORE PUSH1 0x20 ADD SWAP1 DUP2 MSTORE PUSH1 0x20 ADD PUSH1 0x0 KECCAK256 PUSH1 0x0 ADD SLOAD EQ DUP1 ISZERO PUSH2 0x2D56 JUMPI POP PUSH1 0x0 PUSH1 0x2 PUSH1 0x0 PUSH1 0x1 DUP5 SUB DUP2 MSTORE PUSH1 0x20 ADD SWAP1 DUP2 MSTORE PUSH1 0x20 ADD PUSH1 0x0 KECCAK256 DUP1 SLOAD SWAP1 POP GT JUMPDEST ISZERO PUSH2 0x3235 JUMPI PUSH1 0x0 DUP1 SWAP1 POP JUMPDEST PUSH1 0x2 PUSH1 0x0 PUSH1 0x1 DUP5 SUB DUP2 MSTORE PUSH1 0x20 ADD SWAP1 DUP2 MSTORE PUSH1 0x20 ADD PUSH1 0x0 KECCAK256 DUP1 SLOAD SWAP1 POP DUP2 PUSH1 0xFF AND LT ISZERO PUSH2 0x3233 JUMPI PUSH1 0x2 PUSH1 0x0 PUSH1 0x1 DUP5 SUB DUP2 MSTORE PUSH1 0x20 ADD SWAP1 DUP2 MSTORE PUSH1 0x20 ADD PUSH1 0x0 KECCAK256 DUP2 PUSH1 0xFF AND DUP2 SLOAD DUP2 LT PUSH2 0x2DA9 JUMPI INVALID JUMPDEST SWAP1 PUSH1 0x0 MSTORE PUSH1 0x20 PUSH1 0x0 KECCAK256 SWAP1 PUSH1 0x8 MUL ADD PUSH1 0x7 ADD PUSH1 0x0 SWAP1 SLOAD SWAP1 PUSH2 0x100 EXP SWAP1 DIV PUSH1 0xFF AND ISZERO PUSH2 0x3226 JUMPI PUSH1 0x2 PUSH1 0x0 PUSH1 0x1 DUP5 SUB DUP2 MSTORE PUSH1 0x20 ADD SWAP1 DUP2 MSTORE PUSH1 0x20 ADD PUSH1 0x0 KECCAK256 DUP2 PUSH1 0xFF AND DUP2 SLOAD DUP2 LT PUSH2 0x2DF1 JUMPI INVALID JUMPDEST SWAP1 PUSH1 0x0 MSTORE PUSH1 0x20 PUSH1 0x0 KECCAK256 SWAP1 PUSH1 0x8 MUL ADD PUSH1 0x3 PUSH1 0x0 PUSH1 0x1 DUP6 SUB DUP2 MSTORE PUSH1 0x20 ADD SWAP1 DUP2 MSTORE PUSH1 0x20 ADD PUSH1 0x0 KECCAK256 PUSH1 0x0 DUP3 ADD SLOAD DUP2 PUSH1 0x0 ADD SSTORE PUSH1 0x1 DUP3 ADD DUP2 PUSH1 0x1 ADD SWAP1 DUP1 SLOAD PUSH2 0x2E35 SWAP3 SWAP2 SWAP1 PUSH2 0x4451 JUMP JUMPDEST POP PUSH1 0x2 DUP3 ADD DUP2 PUSH1 0x2 ADD SWAP1 DUP1 SLOAD PUSH2 0x2E4C SWAP3 SWAP2 SWAP1 PUSH2 0x4451 JUMP JUMPDEST POP PUSH1 0x3 DUP3 ADD DUP2 PUSH1 0x3 ADD SWAP1 DUP1 SLOAD PUSH2 0x2E63 SWAP3 SWAP2 SWAP1 PUSH2 0x4451 JUMP JUMPDEST POP PUSH1 0x4 DUP3 ADD DUP2 PUSH1 0x4 ADD SWAP1 DUP1 SLOAD PUSH2 0x2E7A SWAP3 SWAP2 SWAP1 PUSH2 0x4451 JUMP JUMPDEST POP PUSH1 0x5 DUP3 ADD SLOAD DUP2 PUSH1 0x5 ADD SSTORE PUSH1 0x6 DUP3 ADD SLOAD DUP2 PUSH1 0x6 ADD SSTORE PUSH1 0x7 DUP3 ADD PUSH1 0x0 SWAP1 SLOAD SWAP1 PUSH2 0x100 EXP SWAP1 DIV PUSH1 0xFF AND DUP2 PUSH1 0x7 ADD PUSH1 0x0 PUSH2 0x100 EXP DUP2 SLOAD DUP2 PUSH1 0xFF MUL NOT AND SWAP1 DUP4 ISZERO ISZERO MUL OR SWAP1 SSTORE POP SWAP1 POP POP PUSH1 0x0 PUSH1 0x2 PUSH1 0x0 PUSH1 0x1 DUP6 SUB DUP2 MSTORE PUSH1 0x20 ADD SWAP1 DUP2 MSTORE PUSH1 0x20 ADD PUSH1 0x0 KECCAK256 DUP3 PUSH1 0xFF AND DUP2 SLOAD DUP2 LT PUSH2 0x2EE5 JUMPI INVALID JUMPDEST SWAP1 PUSH1 0x0 MSTORE PUSH1 0x20 PUSH1 0x0 KECCAK256 SWAP1 PUSH1 0x8 MUL ADD PUSH1 0x0 ADD SLOAD SWAP1 POP PUSH32 0x5EF264AE9101B91BD7117350C5E85901297FA0569E7A3E07EB7EC0A6281529F0 PUSH1 0x1 DUP5 SUB DUP3 PUSH1 0x2 PUSH1 0x0 PUSH1 0x1 DUP9 SUB DUP2 MSTORE PUSH1 0x20 ADD SWAP1 DUP2 MSTORE PUSH1 0x20 ADD PUSH1 0x0 KECCAK256 DUP6 PUSH1 0xFF AND DUP2 SLOAD DUP2 LT PUSH2 0x2F43 JUMPI INVALID JUMPDEST SWAP1 PUSH1 0x0 MSTORE PUSH1 0x20 PUSH1 0x0 KECCAK256 SWAP1 PUSH1 0x8 MUL ADD PUSH1 0x2 ADD PUSH1 0x2 PUSH1 0x0 PUSH1 0x1 DUP10 SUB DUP2 MSTORE PUSH1 0x20 ADD SWAP1 DUP2 MSTORE PUSH1 0x20 ADD PUSH1 0x0 KECCAK256 DUP7 PUSH1 0xFF AND DUP2 SLOAD DUP2 LT PUSH2 0x2F78 JUMPI INVALID JUMPDEST SWAP1 PUSH1 0x0 MSTORE PUSH1 0x20 PUSH1 0x0 KECCAK256 SWAP1 PUSH1 0x8 MUL ADD PUSH1 0x3 ADD PUSH1 0x2 PUSH1 0x0 PUSH1 0x1 DUP11 SUB DUP2 MSTORE PUSH1 0x20 ADD SWAP1 DUP2 MSTORE PUSH1 0x20 ADD PUSH1 0x0 KECCAK256 DUP8 PUSH1 0xFF AND DUP2 SLOAD DUP2 LT PUSH2 0x2FAD JUMPI INVALID JUMPDEST SWAP1 PUSH1 0x0 MSTORE PUSH1 0x20 PUSH1 0x0 KECCAK256 SWAP1 PUSH1 0x8 MUL ADD PUSH1 0x4 ADD PUSH1 0x2 PUSH1 0x0 PUSH1 0x1 DUP12 SUB DUP2 MSTORE PUSH1 0x20 ADD SWAP1 DUP2 MSTORE PUSH1 0x20 ADD PUSH1 0x0 KECCAK256 DUP9 PUSH1 0xFF AND DUP2 SLOAD DUP2 LT PUSH2 0x2FE2 JUMPI INVALID JUMPDEST SWAP1 PUSH1 0x0 MSTORE PUSH1 0x20 PUSH1 0x0 KECCAK256 SWAP1 PUSH1 0x8 MUL ADD PUSH1 0x1 ADD TIMESTAMP PUSH1 0x40 MLOAD PUSH2 0x3007 SWAP8 SWAP7 SWAP6 SWAP5 SWAP4 SWAP3 SWAP2 SWAP1 PUSH2 0x58B0 JUMP JUMPDEST PUSH1 0x40 MLOAD DUP1 SWAP2 SUB SWAP1 LOG1 PUSH1 0x0 DUP1 SWAP1 POP JUMPDEST PUSH1 0x2 PUSH1 0x0 PUSH1 0x1 DUP7 SUB DUP2 MSTORE PUSH1 0x20 ADD SWAP1 DUP2 MSTORE PUSH1 0x20 ADD PUSH1 0x0 KECCAK256 DUP4 PUSH1 0xFF AND DUP2 SLOAD DUP2 LT PUSH2 0x3039 JUMPI INVALID JUMPDEST SWAP1 PUSH1 0x0 MSTORE PUSH1 0x20 PUSH1 0x0 KECCAK256 SWAP1 PUSH1 0x8 MUL ADD PUSH1 0x1 ADD DUP1 SLOAD SWAP1 POP DUP2 PUSH1 0xFF AND LT ISZERO PUSH2 0x318E JUMPI PUSH1 0x7 PUSH1 0x0 SWAP1 SLOAD SWAP1 PUSH2 0x100 EXP SWAP1 DIV PUSH20 0xFFFFFFFFFFFFFFFFFFFFFFFFFFFFFFFFFFFFFFFF AND PUSH20 0xFFFFFFFFFFFFFFFFFFFFFFFFFFFFFFFFFFFFFFFF AND PUSH4 0x56350BDF PUSH1 0x2 PUSH1 0x0 PUSH1 0x1 DUP9 SUB DUP2 MSTORE PUSH1 0x20 ADD SWAP1 DUP2 MSTORE PUSH1 0x20 ADD PUSH1 0x0 KECCAK256 DUP6 PUSH1 0xFF AND DUP2 SLOAD DUP2 LT PUSH2 0x30BA JUMPI INVALID JUMPDEST SWAP1 PUSH1 0x0 MSTORE PUSH1 0x20 PUSH1 0x0 KECCAK256 SWAP1 PUSH1 0x8 MUL ADD PUSH1 0x1 ADD DUP4 PUSH1 0xFF AND DUP2 SLOAD DUP2 LT PUSH2 0x30D9 JUMPI INVALID JUMPDEST SWAP1 PUSH1 0x0 MSTORE PUSH1 0x20 PUSH1 0x0 KECCAK256 ADD SLOAD PUSH1 0x2 PUSH1 0x0 PUSH1 0x1 DUP10 SUB DUP2 MSTORE PUSH1 0x20 ADD SWAP1 DUP2 MSTORE PUSH1 0x20 ADD PUSH1 0x0 KECCAK256 DUP7 PUSH1 0xFF AND DUP2 SLOAD DUP2 LT PUSH2 0x3108 JUMPI INVALID JUMPDEST SWAP1 PUSH1 0x0 MSTORE PUSH1 0x20 PUSH1 0x0 KECCAK256 SWAP1 PUSH1 0x8 MUL ADD PUSH1 0x2 ADD DUP5 PUSH1 0xFF AND DUP2 SLOAD DUP2 LT PUSH2 0x3127 JUMPI INVALID JUMPDEST SWAP1 PUSH1 0x0 MSTORE PUSH1 0x20 PUSH1 0x0 KECCAK256 ADD SLOAD PUSH1 0x40 MLOAD DUP4 PUSH4 0xFFFFFFFF AND PUSH1 0xE0 SHL DUP2 MSTORE PUSH1 0x4 ADD PUSH2 0x314F SWAP3 SWAP2 SWAP1 PUSH2 0x57DE JUMP JUMPDEST PUSH1 0x0 PUSH1 0x40 MLOAD DUP1 DUP4 SUB DUP2 PUSH1 0x0 DUP8 DUP1 EXTCODESIZE ISZERO DUP1 ISZERO PUSH2 0x3169 JUMPI PUSH1 0x0 DUP1 REVERT JUMPDEST POP GAS CALL ISZERO DUP1 ISZERO PUSH2 0x317D JUMPI RETURNDATASIZE PUSH1 0x0 DUP1 RETURNDATACOPY RETURNDATASIZE PUSH1 0x0 REVERT JUMPDEST POP POP POP POP DUP1 DUP1 PUSH1 0x1 ADD SWAP2 POP POP PUSH2 0x3015 JUMP JUMPDEST POP PUSH1 0x4 PUSH1 0x0 SWAP1 SLOAD SWAP1 PUSH2 0x100 EXP SWAP1 DIV PUSH20 0xFFFFFFFFFFFFFFFFFFFFFFFFFFFFFFFFFFFFFFFF AND PUSH20 0xFFFFFFFFFFFFFFFFFFFFFFFFFFFFFFFFFFFFFFFF AND PUSH4 0x746C8B65 DUP3 DUP6 PUSH1 0x40 MLOAD DUP4 PUSH4 0xFFFFFFFF AND PUSH1 0xE0 SHL DUP2 MSTORE PUSH1 0x4 ADD PUSH2 0x31EC SWAP3 SWAP2 SWAP1 PUSH2 0x57DE JUMP JUMPDEST PUSH1 0x0 PUSH1 0x40 MLOAD DUP1 DUP4 SUB DUP2 PUSH1 0x0 DUP8 DUP1 EXTCODESIZE ISZERO DUP1 ISZERO PUSH2 0x3206 JUMPI PUSH1 0x0 DUP1 REVERT JUMPDEST POP GAS CALL ISZERO DUP1 ISZERO PUSH2 0x321A JUMPI RETURNDATASIZE PUSH1 0x0 DUP1 RETURNDATACOPY RETURNDATASIZE PUSH1 0x0 REVERT JUMPDEST POP POP POP POP POP POP POP PUSH2 0x3237 JUMP JUMPDEST DUP1 DUP1 PUSH1 0x1 ADD SWAP2 POP POP PUSH2 0x2D61 JUMP JUMPDEST POP JUMPDEST POP JUMPDEST JUMP JUMPDEST PUSH1 0x0 DUP1 SHL DUP2 JUMP JUMPDEST PUSH2 0x3248 PUSH2 0x440A JUMP JUMPDEST PUSH1 0x60 DUP1 PUSH1 0x60 PUSH1 0x2 PUSH1 0x0 DUP8 DUP2 MSTORE PUSH1 0x20 ADD SWAP1 DUP2 MSTORE PUSH1 0x20 ADD PUSH1 0x0 KECCAK256 DUP6 DUP2 SLOAD DUP2 LT PUSH2 0x326B JUMPI INVALID JUMPDEST SWAP1 PUSH1 0x0 MSTORE PUSH1 0x20 PUSH1 0x0 KECCAK256 SWAP1 PUSH1 0x8 MUL ADD PUSH1 0x40 MLOAD DUP1 PUSH2 0x100 ADD PUSH1 0x40 MSTORE SWAP1 DUP2 PUSH1 0x0 DUP3 ADD SLOAD DUP2 MSTORE PUSH1 0x20 ADD PUSH1 0x1 DUP3 ADD DUP1 SLOAD DUP1 PUSH1 0x20 MUL PUSH1 0x20 ADD PUSH1 0x40 MLOAD SWAP1 DUP2 ADD PUSH1 0x40 MSTORE DUP1 SWAP3 SWAP2 SWAP1 DUP2 DUP2 MSTORE PUSH1 0x20 ADD DUP3 DUP1 SLOAD DUP1 ISZERO PUSH2 0x32DE JUMPI PUSH1 0x20 MUL DUP3 ADD SWAP2 SWAP1 PUSH1 0x0 MSTORE PUSH1 0x20 PUSH1 0x0 KECCAK256 SWAP1 JUMPDEST DUP2 SLOAD DUP2 MSTORE PUSH1 0x20 ADD SWAP1 PUSH1 0x1 ADD SWAP1 DUP1 DUP4 GT PUSH2 0x32CA JUMPI JUMPDEST POP POP POP POP POP DUP2 MSTORE PUSH1 0x20 ADD PUSH1 0x2 DUP3 ADD DUP1 SLOAD DUP1 PUSH1 0x20 MUL PUSH1 0x20 ADD PUSH1 0x40 MLOAD SWAP1 DUP2 ADD PUSH1 0x40 MSTORE DUP1 SWAP3 SWAP2 SWAP1 DUP2 DUP2 MSTORE PUSH1 0x20 ADD DUP3 DUP1 SLOAD DUP1 ISZERO PUSH2 0x3336 JUMPI PUSH1 0x20 MUL DUP3 ADD SWAP2 SWAP1 PUSH1 0x0 MSTORE PUSH1 0x20 PUSH1 0x0 KECCAK256 SWAP1 JUMPDEST DUP2 SLOAD DUP2 MSTORE PUSH1 0x20 ADD SWAP1 PUSH1 0x1 ADD SWAP1 DUP1 DUP4 GT PUSH2 0x3322 JUMPI JUMPDEST POP POP POP POP POP DUP2 MSTORE PUSH1 0x20 ADD PUSH1 0x3 DUP3 ADD DUP1 SLOAD DUP1 PUSH1 0x20 MUL PUSH1 0x20 ADD PUSH1 0x40 MLOAD SWAP1 DUP2 ADD PUSH1 0x40 MSTORE DUP1 SWAP3 SWAP2 SWAP1 DUP2 DUP2 MSTORE PUSH1 0x20 ADD DUP3 DUP1 SLOAD DUP1 ISZERO PUSH2 0x338E JUMPI PUSH1 0x20 MUL DUP3 ADD SWAP2 SWAP1 PUSH1 0x0 MSTORE PUSH1 0x20 PUSH1 0x0 KECCAK256 SWAP1 JUMPDEST DUP2 SLOAD DUP2 MSTORE PUSH1 0x20 ADD SWAP1 PUSH1 0x1 ADD SWAP1 DUP1 DUP4 GT PUSH2 0x337A JUMPI JUMPDEST POP POP POP POP POP DUP2 MSTORE PUSH1 0x20 ADD PUSH1 0x4 DUP3 ADD DUP1 SLOAD DUP1 PUSH1 0x20 MUL PUSH1 0x20 ADD PUSH1 0x40 MLOAD SWAP1 DUP2 ADD PUSH1 0x40 MSTORE DUP1 SWAP3 SWAP2 SWAP1 DUP2 DUP2 MSTORE PUSH1 0x20 ADD DUP3 DUP1 SLOAD DUP1 ISZERO PUSH2 0x33E6 JUMPI PUSH1 0x20 MUL DUP3 ADD SWAP2 SWAP1 PUSH1 0x0 MSTORE PUSH1 0x20 PUSH1 0x0 KECCAK256 SWAP1 JUMPDEST DUP2 SLOAD DUP2 MSTORE PUSH1 0x20 ADD SWAP1 PUSH1 0x1 ADD SWAP1 DUP1 DUP4 GT PUSH2 0x33D2 JUMPI JUMPDEST POP POP POP POP POP DUP2 MSTORE PUSH1 0x20 ADD PUSH1 0x5 DUP3 ADD SLOAD DUP2 MSTORE PUSH1 0x20 ADD PUSH1 0x6 DUP3 ADD SLOAD DUP2 MSTORE PUSH1 0x20 ADD PUSH1 0x7 DUP3 ADD PUSH1 0x0 SWAP1 SLOAD SWAP1 PUSH2 0x100 EXP SWAP1 DIV PUSH1 0xFF AND ISZERO ISZERO ISZERO ISZERO DUP2 MSTORE POP POP SWAP4 POP DUP4 DUP5 PUSH1 0x40 ADD MLOAD DUP6 PUSH1 0x60 ADD MLOAD DUP7 PUSH1 0x80 ADD MLOAD SWAP4 POP SWAP4 POP SWAP4 POP SWAP4 POP SWAP3 SWAP6 SWAP2 SWAP5 POP SWAP3 POP JUMP JUMPDEST PUSH1 0x0 PUSH2 0x3460 PUSH1 0x0 DUP1 DUP5 DUP2 MSTORE PUSH1 0x20 ADD SWAP1 DUP2 MSTORE PUSH1 0x20 ADD PUSH1 0x0 KECCAK256 PUSH1 0x0 ADD PUSH2 0x4049 JUMP JUMPDEST SWAP1 POP SWAP2 SWAP1 POP JUMP JUMPDEST PUSH1 0x60 PUSH1 0x2 PUSH1 0x0 DUP5 DUP2 MSTORE PUSH1 0x20 ADD SWAP1 DUP2 MSTORE PUSH1 0x20 ADD PUSH1 0x0 KECCAK256 DUP3 DUP2 SLOAD DUP2 LT PUSH2 0x3487 JUMPI INVALID JUMPDEST SWAP1 PUSH1 0x0 MSTORE PUSH1 0x20 PUSH1 0x0 KECCAK256 SWAP1 PUSH1 0x8 MUL ADD PUSH1 0x2 ADD DUP1 SLOAD DUP1 PUSH1 0x20 MUL PUSH1 0x20 ADD PUSH1 0x40 MLOAD SWAP1 DUP2 ADD PUSH1 0x40 MSTORE DUP1 SWAP3 SWAP2 SWAP1 DUP2 DUP2 MSTORE PUSH1 0x20 ADD DUP3 DUP1 SLOAD DUP1 ISZERO PUSH2 0x34E2 JUMPI PUSH1 0x20 MUL DUP3 ADD SWAP2 SWAP1 PUSH1 0x0 MSTORE PUSH1 0x20 PUSH1 0x0 KECCAK256 SWAP1 JUMPDEST DUP2 SLOAD DUP2 MSTORE PUSH1 0x20 ADD SWAP1 PUSH1 0x1 ADD SWAP1 DUP1 DUP4 GT PUSH2 0x34CE JUMPI JUMPDEST POP POP POP POP POP SWAP1 POP DUP1 SWAP1 POP SWAP3 SWAP2 POP POP JUMP JUMPDEST PUSH1 0x60 PUSH1 0x3 PUSH1 0x0 DUP4 DUP2 MSTORE PUSH1 0x20 ADD SWAP1 DUP2 MSTORE PUSH1 0x20 ADD PUSH1 0x0 KECCAK256 PUSH1 0x3 ADD DUP1 SLOAD DUP1 PUSH1 0x20 MUL PUSH1 0x20 ADD PUSH1 0x40 MLOAD SWAP1 DUP2 ADD PUSH1 0x40 MSTORE DUP1 SWAP3 SWAP2 SWAP1 DUP2 DUP2 MSTORE PUSH1 0x20 ADD DUP3 DUP1 SLOAD DUP1 ISZERO PUSH2 0x3554 JUMPI PUSH1 0x20 MUL DUP3 ADD SWAP2 SWAP1 PUSH1 0x0 MSTORE PUSH1 0x20 PUSH1 0x0 KECCAK256 SWAP1 JUMPDEST DUP2 SLOAD DUP2 MSTORE PUSH1 0x20 ADD SWAP1 PUSH1 0x1 ADD SWAP1 DUP1 DUP4 GT PUSH2 0x3540 JUMPI JUMPDEST POP POP POP POP POP SWAP1 POP DUP1 SWAP1 POP SWAP2 SWAP1 POP JUMP JUMPDEST PUSH2 0x3589 PUSH1 0x0 DUP1 DUP5 DUP2 MSTORE PUSH1 0x20 ADD SWAP1 DUP2 MSTORE PUSH1 0x20 ADD PUSH1 0x0 KECCAK256 PUSH1 0x2 ADD SLOAD PUSH2 0x3584 PUSH2 0x3E87 JUMP JUMPDEST PUSH2 0x2BA0 JUMP JUMPDEST PUSH2 0x35C8 JUMPI PUSH1 0x40 MLOAD PUSH32 0x8C379A000000000000000000000000000000000000000000000000000000000 DUP2 MSTORE PUSH1 0x4 ADD PUSH2 0x35BF SWAP1 PUSH2 0x55C9 JUMP JUMPDEST PUSH1 0x40 MLOAD DUP1 SWAP2 SUB SWAP1 REVERT JUMPDEST PUSH2 0x35D2 DUP3 DUP3 PUSH2 0x3F22 JUMP JUMPDEST POP POP JUMP JUMPDEST PUSH2 0x35DF CALLER PUSH2 0x1382 JUMP JUMPDEST PUSH2 0x361E JUMPI PUSH1 0x40 MLOAD PUSH32 0x8C379A000000000000000000000000000000000000000000000000000000000 DUP2 MSTORE PUSH1 0x4 ADD PUSH2 0x3615 SWAP1 PUSH2 0x56C9 JUMP JUMPDEST PUSH1 0x40 MLOAD DUP1 SWAP2 SUB SWAP1 REVERT JUMPDEST PUSH2 0x3627 DUP2 PUSH2 0x405E JUMP JUMPDEST POP JUMP JUMPDEST PUSH2 0x3633 CALLER PUSH2 0x40C1 JUMP JUMPDEST JUMP JUMPDEST PUSH1 0x0 PUSH1 0x2 PUSH1 0x0 DUP4 DUP2 MSTORE PUSH1 0x20 ADD SWAP1 DUP2 MSTORE PUSH1 0x20 ADD PUSH1 0x0 KECCAK256 DUP1 SLOAD SWAP1 POP SWAP1 POP SWAP2 SWAP1 POP JUMP JUMPDEST PUSH1 0x3 PUSH1 0x20 MSTORE DUP1 PUSH1 0x0 MSTORE PUSH1 0x40 PUSH1 0x0 KECCAK256 PUSH1 0x0 SWAP2 POP SWAP1 POP DUP1 PUSH1 0x0 ADD SLOAD SWAP1 DUP1 PUSH1 0x5 ADD SLOAD SWAP1 DUP1 PUSH1 0x6 ADD SLOAD SWAP1 DUP1 PUSH1 0x7 ADD PUSH1 0x0 SWAP1 SLOAD SWAP1 PUSH2 0x100 EXP SWAP1 DIV PUSH1 0xFF AND SWAP1 POP DUP5 JUMP JUMPDEST PUSH1 0x60 PUSH1 0x3 PUSH1 0x0 DUP4 DUP2 MSTORE PUSH1 0x20 ADD SWAP1 DUP2 MSTORE PUSH1 0x20 ADD PUSH1 0x0 KECCAK256 PUSH1 0x4 ADD DUP1 SLOAD DUP1 PUSH1 0x20 MUL PUSH1 0x20 ADD PUSH1 0x40 MLOAD SWAP1 DUP2 ADD PUSH1 0x40 MSTORE DUP1 SWAP3 SWAP2 SWAP1 DUP2 DUP2 MSTORE PUSH1 0x20 ADD DUP3 DUP1 SLOAD DUP1 ISZERO PUSH2 0x36F4 JUMPI PUSH1 0x20 MUL DUP3 ADD SWAP2 SWAP1 PUSH1 0x0 MSTORE PUSH1 0x20 PUSH1 0x0 KECCAK256 SWAP1 JUMPDEST DUP2 SLOAD DUP2 MSTORE PUSH1 0x20 ADD SWAP1 PUSH1 0x1 ADD SWAP1 DUP1 DUP4 GT PUSH2 0x36E0 JUMPI JUMPDEST POP POP POP POP POP SWAP1 POP DUP1 SWAP1 POP SWAP2 SWAP1 POP JUMP JUMPDEST PUSH1 0x0 PUSH2 0x372B DUP4 PUSH1 0x0 ADD DUP4 PUSH20 0xFFFFFFFFFFFFFFFFFFFFFFFFFFFFFFFFFFFFFFFF AND PUSH1 0x0 SHL PUSH2 0x4124 JUMP JUMPDEST SWAP1 POP SWAP3 SWAP2 POP POP JUMP JUMPDEST PUSH1 0x0 PUSH1 0x2 PUSH1 0x0 DUP5 DUP2 MSTORE PUSH1 0x20 ADD SWAP1 DUP2 MSTORE PUSH1 0x20 ADD PUSH1 0x0 KECCAK256 DUP1 SLOAD SWAP1 POP EQ ISZERO PUSH2 0x3844 JUMPI PUSH1 0x2 PUSH1 0x0 DUP4 DUP2 MSTORE PUSH1 0x20 ADD SWAP1 DUP2 MSTORE PUSH1 0x20 ADD PUSH1 0x0 KECCAK256 DUP2 SWAP1 DUP1 PUSH1 0x1 DUP2 SLOAD ADD DUP1 DUP3 SSTORE DUP1 SWAP2 POP POP PUSH1 0x1 SWAP1 SUB SWAP1 PUSH1 0x0 MSTORE PUSH1 0x20 PUSH1 0x0 KECCAK256 SWAP1 PUSH1 0x8 MUL ADD PUSH1 0x0 SWAP1 SWAP2 SWAP1 SWAP2 SWAP1 SWAP2 POP PUSH1 0x0 DUP3 ADD MLOAD DUP2 PUSH1 0x0 ADD SSTORE PUSH1 0x20 DUP3 ADD MLOAD DUP2 PUSH1 0x1 ADD SWAP1 DUP1 MLOAD SWAP1 PUSH1 0x20 ADD SWAP1 PUSH2 0x37B5 SWAP3 SWAP2 SWAP1 PUSH2 0x44A3 JUMP JUMPDEST POP PUSH1 0x40 DUP3 ADD MLOAD DUP2 PUSH1 0x2 ADD SWAP1 DUP1 MLOAD SWAP1 PUSH1 0x20 ADD SWAP1 PUSH2 0x37D2 SWAP3 SWAP2 SWAP1 PUSH2 0x44A3 JUMP JUMPDEST POP PUSH1 0x60 DUP3 ADD MLOAD DUP2 PUSH1 0x3 ADD SWAP1 DUP1 MLOAD SWAP1 PUSH1 0x20 ADD SWAP1 PUSH2 0x37EF SWAP3 SWAP2 SWAP1 PUSH2 0x44A3 JUMP JUMPDEST POP PUSH1 0x80 DUP3 ADD MLOAD DUP2 PUSH1 0x4 ADD SWAP1 DUP1 MLOAD SWAP1 PUSH1 0x20 ADD SWAP1 PUSH2 0x380C SWAP3 SWAP2 SWAP1 PUSH2 0x44A3 JUMP JUMPDEST POP PUSH1 0xA0 DUP3 ADD MLOAD DUP2 PUSH1 0x5 ADD SSTORE PUSH1 0xC0 DUP3 ADD MLOAD DUP2 PUSH1 0x6 ADD SSTORE PUSH1 0xE0 DUP3 ADD MLOAD DUP2 PUSH1 0x7 ADD PUSH1 0x0 PUSH2 0x100 EXP DUP2 SLOAD DUP2 PUSH1 0xFF MUL NOT AND SWAP1 DUP4 ISZERO ISZERO MUL OR SWAP1 SSTORE POP POP POP JUMPDEST PUSH1 0x0 PUSH1 0x2 PUSH1 0x0 DUP5 DUP2 MSTORE PUSH1 0x20 ADD SWAP1 DUP2 MSTORE PUSH1 0x20 ADD PUSH1 0x0 KECCAK256 DUP1 SLOAD SWAP1 POP SWAP1 POP PUSH1 0x0 DUP1 SWAP1 POP JUMPDEST PUSH1 0x2 PUSH1 0x0 DUP6 DUP2 MSTORE PUSH1 0x20 ADD SWAP1 DUP2 MSTORE PUSH1 0x20 ADD PUSH1 0x0 KECCAK256 DUP1 SLOAD SWAP1 POP DUP2 LT ISZERO PUSH2 0x3916 JUMPI DUP3 PUSH1 0xC0 ADD MLOAD PUSH1 0x2 PUSH1 0x0 DUP7 DUP2 MSTORE PUSH1 0x20 ADD SWAP1 DUP2 MSTORE PUSH1 0x20 ADD PUSH1 0x0 KECCAK256 DUP3 DUP2 SLOAD DUP2 LT PUSH2 0x38A6 JUMPI INVALID JUMPDEST SWAP1 PUSH1 0x0 MSTORE PUSH1 0x20 PUSH1 0x0 KECCAK256 SWAP1 PUSH1 0x8 MUL ADD PUSH1 0x6 ADD SLOAD LT ISZERO PUSH2 0x38C6 JUMPI DUP1 SWAP2 POP PUSH2 0x3916 JUMP JUMPDEST DUP3 PUSH1 0xA0 ADD MLOAD PUSH1 0x2 PUSH1 0x0 DUP7 DUP2 MSTORE PUSH1 0x20 ADD SWAP1 DUP2 MSTORE PUSH1 0x20 ADD PUSH1 0x0 KECCAK256 DUP3 DUP2 SLOAD DUP2 LT PUSH2 0x38E9 JUMPI INVALID JUMPDEST SWAP1 PUSH1 0x0 MSTORE PUSH1 0x20 PUSH1 0x0 KECCAK256 SWAP1 PUSH1 0x8 MUL ADD PUSH1 0x5 ADD SLOAD GT ISZERO PUSH2 0x3909 JUMPI DUP1 SWAP2 POP PUSH2 0x3916 JUMP JUMPDEST DUP1 DUP1 PUSH1 0x1 ADD SWAP2 POP POP PUSH2 0x3865 JUMP JUMPDEST POP PUSH1 0x2 PUSH1 0x0 DUP5 DUP2 MSTORE PUSH1 0x20 ADD SWAP1 DUP2 MSTORE PUSH1 0x20 ADD PUSH1 0x0 KECCAK256 DUP3 SWAP1 DUP1 PUSH1 0x1 DUP2 SLOAD ADD DUP1 DUP3 SSTORE DUP1 SWAP2 POP POP PUSH1 0x1 SWAP1 SUB SWAP1 PUSH1 0x0 MSTORE PUSH1 0x20 PUSH1 0x0 KECCAK256 SWAP1 PUSH1 0x8 MUL ADD PUSH1 0x0 SWAP1 SWAP2 SWAP1 SWAP2 SWAP1 SWAP2 POP PUSH1 0x0 DUP3 ADD MLOAD DUP2 PUSH1 0x0 ADD SSTORE PUSH1 0x20 DUP3 ADD MLOAD DUP2 PUSH1 0x1 ADD SWAP1 DUP1 MLOAD SWAP1 PUSH1 0x20 ADD SWAP1 PUSH2 0x397A SWAP3 SWAP2 SWAP1 PUSH2 0x44A3 JUMP JUMPDEST POP PUSH1 0x40 DUP3 ADD MLOAD DUP2 PUSH1 0x2 ADD SWAP1 DUP1 MLOAD SWAP1 PUSH1 0x20 ADD SWAP1 PUSH2 0x3997 SWAP3 SWAP2 SWAP1 PUSH2 0x44A3 JUMP JUMPDEST POP PUSH1 0x60 DUP3 ADD MLOAD DUP2 PUSH1 0x3 ADD SWAP1 DUP1 MLOAD SWAP1 PUSH1 0x20 ADD SWAP1 PUSH2 0x39B4 SWAP3 SWAP2 SWAP1 PUSH2 0x44A3 JUMP JUMPDEST POP PUSH1 0x80 DUP3 ADD MLOAD DUP2 PUSH1 0x4 ADD SWAP1 DUP1 MLOAD SWAP1 PUSH1 0x20 ADD SWAP1 PUSH2 0x39D1 SWAP3 SWAP2 SWAP1 PUSH2 0x44A3 JUMP JUMPDEST POP PUSH1 0xA0 DUP3 ADD MLOAD DUP2 PUSH1 0x5 ADD SSTORE PUSH1 0xC0 DUP3 ADD MLOAD DUP2 PUSH1 0x6 ADD SSTORE PUSH1 0xE0 DUP3 ADD MLOAD DUP2 PUSH1 0x7 ADD PUSH1 0x0 PUSH2 0x100 EXP DUP2 SLOAD DUP2 PUSH1 0xFF MUL NOT AND SWAP1 DUP4 ISZERO ISZERO MUL OR SWAP1 SSTORE POP POP POP PUSH1 0x0 PUSH1 0x1 PUSH1 0x2 PUSH1 0x0 DUP7 DUP2 MSTORE PUSH1 0x20 ADD SWAP1 DUP2 MSTORE PUSH1 0x20 ADD PUSH1 0x0 KECCAK256 DUP1 SLOAD SWAP1 POP SUB SWAP1 POP JUMPDEST DUP2 DUP2 GT ISZERO PUSH2 0x3B42 JUMPI PUSH1 0x2 PUSH1 0x0 DUP6 DUP2 MSTORE PUSH1 0x20 ADD SWAP1 DUP2 MSTORE PUSH1 0x20 ADD PUSH1 0x0 KECCAK256 PUSH1 0x1 DUP3 SUB DUP2 SLOAD DUP2 LT PUSH2 0x3A50 JUMPI INVALID JUMPDEST SWAP1 PUSH1 0x0 MSTORE PUSH1 0x20 PUSH1 0x0 KECCAK256 SWAP1 PUSH1 0x8 MUL ADD PUSH1 0x2 PUSH1 0x0 DUP7 DUP2 MSTORE PUSH1 0x20 ADD SWAP1 DUP2 MSTORE PUSH1 0x20 ADD PUSH1 0x0 KECCAK256 DUP3 DUP2 SLOAD DUP2 LT PUSH2 0x3A7C JUMPI INVALID JUMPDEST SWAP1 PUSH1 0x0 MSTORE PUSH1 0x20 PUSH1 0x0 KECCAK256 SWAP1 PUSH1 0x8 MUL ADD PUSH1 0x0 DUP3 ADD SLOAD DUP2 PUSH1 0x0 ADD SSTORE PUSH1 0x1 DUP3 ADD DUP2 PUSH1 0x1 ADD SWAP1 DUP1 SLOAD PUSH2 0x3AAA SWAP3 SWAP2 SWAP1 PUSH2 0x4451 JUMP JUMPDEST POP PUSH1 0x2 DUP3 ADD DUP2 PUSH1 0x2 ADD SWAP1 DUP1 SLOAD PUSH2 0x3AC1 SWAP3 SWAP2 SWAP1 PUSH2 0x4451 JUMP JUMPDEST POP PUSH1 0x3 DUP3 ADD DUP2 PUSH1 0x3 ADD SWAP1 DUP1 SLOAD PUSH2 0x3AD8 SWAP3 SWAP2 SWAP1 PUSH2 0x4451 JUMP JUMPDEST POP PUSH1 0x4 DUP3 ADD DUP2 PUSH1 0x4 ADD SWAP1 DUP1 SLOAD PUSH2 0x3AEF SWAP3 SWAP2 SWAP1 PUSH2 0x4451 JUMP JUMPDEST POP PUSH1 0x5 DUP3 ADD SLOAD DUP2 PUSH1 0x5 ADD SSTORE PUSH1 0x6 DUP3 ADD SLOAD DUP2 PUSH1 0x6 ADD SSTORE PUSH1 0x7 DUP3 ADD PUSH1 0x0 SWAP1 SLOAD SWAP1 PUSH2 0x100 EXP SWAP1 DIV PUSH1 0xFF AND DUP2 PUSH1 0x7 ADD PUSH1 0x0 PUSH2 0x100 EXP DUP2 SLOAD DUP2 PUSH1 0xFF MUL NOT AND SWAP1 DUP4 ISZERO ISZERO MUL OR SWAP1 SSTORE POP SWAP1 POP POP DUP1 DUP1 PUSH1 0x1 SWAP1 SUB SWAP2 POP POP PUSH2 0x3A27 JUMP JUMPDEST POP DUP2 PUSH1 0x2 PUSH1 0x0 DUP6 DUP2 MSTORE PUSH1 0x20 ADD SWAP1 DUP2 MSTORE PUSH1 0x20 ADD PUSH1 0x0 KECCAK256 DUP3 DUP2 SLOAD DUP2 LT PUSH2 0x3B62 JUMPI INVALID JUMPDEST SWAP1 PUSH1 0x0 MSTORE PUSH1 0x20 PUSH1 0x0 KECCAK256 SWAP1 PUSH1 0x8 MUL ADD PUSH1 0x0 DUP3 ADD MLOAD DUP2 PUSH1 0x0 ADD SSTORE PUSH1 0x20 DUP3 ADD MLOAD DUP2 PUSH1 0x1 ADD SWAP1 DUP1 MLOAD SWAP1 PUSH1 0x20 ADD SWAP1 PUSH2 0x3B96 SWAP3 SWAP2 SWAP1 PUSH2 0x44A3 JUMP JUMPDEST POP PUSH1 0x40 DUP3 ADD MLOAD DUP2 PUSH1 0x2 ADD SWAP1 DUP1 MLOAD SWAP1 PUSH1 0x20 ADD SWAP1 PUSH2 0x3BB3 SWAP3 SWAP2 SWAP1 PUSH2 0x44A3 JUMP JUMPDEST POP PUSH1 0x60 DUP3 ADD MLOAD DUP2 PUSH1 0x3 ADD SWAP1 DUP1 MLOAD SWAP1 PUSH1 0x20 ADD SWAP1 PUSH2 0x3BD0 SWAP3 SWAP2 SWAP1 PUSH2 0x44A3 JUMP JUMPDEST POP PUSH1 0x80 DUP3 ADD MLOAD DUP2 PUSH1 0x4 ADD SWAP1 DUP1 MLOAD SWAP1 PUSH1 0x20 ADD SWAP1 PUSH2 0x3BED SWAP3 SWAP2 SWAP1 PUSH2 0x44A3 JUMP JUMPDEST POP PUSH1 0xA0 DUP3 ADD MLOAD DUP2 PUSH1 0x5 ADD SSTORE PUSH1 0xC0 DUP3 ADD MLOAD DUP2 PUSH1 0x6 ADD SSTORE PUSH1 0xE0 DUP3 ADD MLOAD DUP2 PUSH1 0x7 ADD PUSH1 0x0 PUSH2 0x100 EXP DUP2 SLOAD DUP2 PUSH1 0xFF MUL NOT AND SWAP1 DUP4 ISZERO ISZERO MUL OR SWAP1 SSTORE POP SWAP1 POP POP PUSH20 0x0 PUSH4 0x379597E0 PUSH1 0x40 MLOAD DUP2 PUSH4 0xFFFFFFFF AND PUSH1 0xE0 SHL DUP2 MSTORE PUSH1 0x4 ADD PUSH1 0x20 PUSH1 0x40 MLOAD DUP1 DUP4 SUB DUP2 DUP7 DUP1 EXTCODESIZE ISZERO DUP1 ISZERO PUSH2 0x3C69 JUMPI PUSH1 0x0 DUP1 REVERT JUMPDEST POP GAS DELEGATECALL ISZERO DUP1 ISZERO PUSH2 0x3C7D JUMPI RETURNDATASIZE PUSH1 0x0 DUP1 RETURNDATACOPY RETURNDATASIZE PUSH1 0x0 REVERT JUMPDEST POP POP POP POP PUSH1 0x40 MLOAD RETURNDATASIZE PUSH1 0x1F NOT PUSH1 0x1F DUP3 ADD AND DUP3 ADD DUP1 PUSH1 0x40 MSTORE POP DUP2 ADD SWAP1 PUSH2 0x3CA1 SWAP2 SWAP1 PUSH2 0x48BB JUMP JUMPDEST PUSH1 0x2 PUSH1 0x0 DUP6 DUP2 MSTORE PUSH1 0x20 ADD SWAP1 DUP2 MSTORE PUSH1 0x20 ADD PUSH1 0x0 KECCAK256 DUP1 SLOAD SWAP1 POP GT ISZERO PUSH2 0x3D73 JUMPI PUSH1 0x2 PUSH1 0x0 DUP5 DUP2 MSTORE PUSH1 0x20 ADD SWAP1 DUP2 MSTORE PUSH1 0x20 ADD PUSH1 0x0 KECCAK256 PUSH1 0x1 PUSH1 0x2 PUSH1 0x0 DUP7 DUP2 MSTORE PUSH1 0x20 ADD SWAP1 DUP2 MSTORE PUSH1 0x20 ADD PUSH1 0x0 KECCAK256 DUP1 SLOAD SWAP1 POP SUB DUP2 SLOAD DUP2 LT PUSH2 0x3CF5 JUMPI INVALID JUMPDEST SWAP1 PUSH1 0x0 MSTORE PUSH1 0x20 PUSH1 0x0 KECCAK256 SWAP1 PUSH1 0x8 MUL ADD PUSH1 0x0 DUP1 DUP3 ADD PUSH1 0x0 SWAP1 SSTORE PUSH1 0x1 DUP3 ADD PUSH1 0x0 PUSH2 0x3D1C SWAP2 SWAP1 PUSH2 0x44F0 JUMP JUMPDEST PUSH1 0x2 DUP3 ADD PUSH1 0x0 PUSH2 0x3D2C SWAP2 SWAP1 PUSH2 0x44F0 JUMP JUMPDEST PUSH1 0x3 DUP3 ADD PUSH1 0x0 PUSH2 0x3D3C SWAP2 SWAP1 PUSH2 0x44F0 JUMP JUMPDEST PUSH1 0x4 DUP3 ADD PUSH1 0x0 PUSH2 0x3D4C SWAP2 SWAP1 PUSH2 0x44F0 JUMP JUMPDEST PUSH1 0x5 DUP3 ADD PUSH1 0x0 SWAP1 SSTORE PUSH1 0x6 DUP3 ADD PUSH1 0x0 SWAP1 SSTORE PUSH1 0x7 DUP3 ADD PUSH1 0x0 PUSH2 0x100 EXP DUP2 SLOAD SWAP1 PUSH1 0xFF MUL NOT AND SWAP1 SSTORE POP POP JUMPDEST POP POP POP JUMP JUMPDEST PUSH1 0x0 DUP1 DUP3 DUP5 ADD SWAP1 POP DUP4 DUP2 LT ISZERO PUSH2 0x3DC3 JUMPI PUSH1 0x40 MLOAD PUSH32 0x8C379A000000000000000000000000000000000000000000000000000000000 DUP2 MSTORE PUSH1 0x4 ADD PUSH2 0x3DBA SWAP1 PUSH2 0x5589 JUMP JUMPDEST PUSH1 0x40 MLOAD DUP1 SWAP2 SUB SWAP1 REVERT JUMPDEST DUP1 SWAP2 POP POP SWAP3 SWAP2 POP POP JUMP JUMPDEST PUSH1 0x0 PUSH2 0x3E0F DUP4 DUP4 PUSH1 0x40 MLOAD DUP1 PUSH1 0x40 ADD PUSH1 0x40 MSTORE DUP1 PUSH1 0x18 DUP2 MSTORE PUSH1 0x20 ADD PUSH32 0x536166654D6174683A206D6F64756C6F206279207A65726F0000000000000000 DUP2 MSTORE POP PUSH2 0x4194 JUMP JUMPDEST SWAP1 POP SWAP3 SWAP2 POP POP JUMP JUMPDEST PUSH1 0x0 DUP1 DUP4 EQ ISZERO PUSH2 0x3E2A JUMPI PUSH1 0x0 SWAP1 POP PUSH2 0x3E81 JUMP JUMPDEST PUSH1 0x0 DUP3 DUP5 MUL SWAP1 POP DUP3 DUP5 DUP3 DUP2 PUSH2 0x3E3B JUMPI INVALID JUMPDEST DIV EQ PUSH2 0x3E7C JUMPI PUSH1 0x40 MLOAD PUSH32 0x8C379A000000000000000000000000000000000000000000000000000000000 DUP2 MSTORE PUSH1 0x4 ADD PUSH2 0x3E73 SWAP1 PUSH2 0x55E9 JUMP JUMPDEST PUSH1 0x40 MLOAD DUP1 SWAP2 SUB SWAP1 REVERT JUMPDEST DUP1 SWAP2 POP POP JUMPDEST SWAP3 SWAP2 POP POP JUMP JUMPDEST PUSH1 0x0 CALLER SWAP1 POP SWAP1 JUMP JUMPDEST PUSH2 0x3EB6 DUP2 PUSH1 0x0 DUP1 DUP6 DUP2 MSTORE PUSH1 0x20 ADD SWAP1 DUP2 MSTORE PUSH1 0x20 ADD PUSH1 0x0 KECCAK256 PUSH1 0x0 ADD PUSH2 0x3703 SWAP1 SWAP2 SWAP1 PUSH4 0xFFFFFFFF AND JUMP JUMPDEST ISZERO PUSH2 0x3F1E JUMPI PUSH2 0x3EC3 PUSH2 0x3E87 JUMP JUMPDEST PUSH20 0xFFFFFFFFFFFFFFFFFFFFFFFFFFFFFFFFFFFFFFFF AND DUP2 PUSH20 0xFFFFFFFFFFFFFFFFFFFFFFFFFFFFFFFFFFFFFFFF AND DUP4 PUSH32 0x2F8788117E7EFF1D82E926EC794901D17C78024A50270940304540A733656F0D PUSH1 0x40 MLOAD PUSH1 0x40 MLOAD DUP1 SWAP2 SUB SWAP1 LOG4 JUMPDEST POP POP JUMP JUMPDEST PUSH2 0x3F49 DUP2 PUSH1 0x0 DUP1 DUP6 DUP2 MSTORE PUSH1 0x20 ADD SWAP1 DUP2 MSTORE PUSH1 0x20 ADD PUSH1 0x0 KECCAK256 PUSH1 0x0 ADD PUSH2 0x41F0 SWAP1 SWAP2 SWAP1 PUSH4 0xFFFFFFFF AND JUMP JUMPDEST ISZERO PUSH2 0x3FB1 JUMPI PUSH2 0x3F56 PUSH2 0x3E87 JUMP JUMPDEST PUSH20 0xFFFFFFFFFFFFFFFFFFFFFFFFFFFFFFFFFFFFFFFF AND DUP2 PUSH20 0xFFFFFFFFFFFFFFFFFFFFFFFFFFFFFFFFFFFFFFFF AND DUP4 PUSH32 0xF6391F5C32D9C69D2A47EA670B442974B53935D1EDC7FD64EB21E047A839171B PUSH1 0x40 MLOAD PUSH1 0x40 MLOAD DUP1 SWAP2 SUB SWAP1 LOG4 JUMPDEST POP POP JUMP JUMPDEST PUSH1 0x0 PUSH2 0x3FF7 DUP4 DUP4 PUSH1 0x40 MLOAD DUP1 PUSH1 0x40 ADD PUSH1 0x40 MSTORE DUP1 PUSH1 0x1A DUP2 MSTORE PUSH1 0x20 ADD PUSH32 0x536166654D6174683A206469766973696F6E206279207A65726F000000000000 DUP2 MSTORE POP PUSH2 0x4220 JUMP JUMPDEST SWAP1 POP SWAP3 SWAP2 POP POP JUMP JUMPDEST PUSH1 0x0 PUSH2 0x400E DUP4 PUSH1 0x0 ADD DUP4 PUSH2 0x4281 JUMP JUMPDEST PUSH1 0x0 SHR SWAP1 POP SWAP3 SWAP2 POP POP JUMP JUMPDEST PUSH1 0x0 PUSH2 0x4041 DUP4 PUSH1 0x0 ADD DUP4 PUSH20 0xFFFFFFFFFFFFFFFFFFFFFFFFFFFFFFFFFFFFFFFF AND PUSH1 0x0 SHL PUSH2 0x42EE JUMP JUMPDEST SWAP1 POP SWAP3 SWAP2 POP POP JUMP JUMPDEST PUSH1 0x0 PUSH2 0x4057 DUP3 PUSH1 0x0 ADD PUSH2 0x4311 JUMP JUMPDEST SWAP1 POP SWAP2 SWAP1 POP JUMP JUMPDEST PUSH2 0x407B PUSH1 0x40 MLOAD PUSH2 0x406D SWAP1 PUSH2 0x5398 JUMP JUMPDEST PUSH1 0x40 MLOAD DUP1 SWAP2 SUB SWAP1 KECCAK256 DUP3 PUSH2 0x13CE JUMP JUMPDEST DUP1 PUSH20 0xFFFFFFFFFFFFFFFFFFFFFFFFFFFFFFFFFFFFFFFF AND PUSH32 0x6FF3AA2EA7B53070F6D9D07A445D338D89E8EDEF44250FFA8BE19F53910D4A2E PUSH1 0x40 MLOAD PUSH1 0x40 MLOAD DUP1 SWAP2 SUB SWAP1 LOG2 POP JUMP JUMPDEST PUSH2 0x40DE PUSH1 0x40 MLOAD PUSH2 0x40D0 SWAP1 PUSH2 0x5398 JUMP JUMPDEST PUSH1 0x40 MLOAD DUP1 SWAP2 SUB SWAP1 KECCAK256 DUP3 PUSH2 0x1441 JUMP JUMPDEST DUP1 PUSH20 0xFFFFFFFFFFFFFFFFFFFFFFFFFFFFFFFFFFFFFFFF AND PUSH32 0x86E5BBCEDA94081C32220D685F37CC4E3EA7BB0BE2DFBF0CB703579505A5390E PUSH1 0x40 MLOAD PUSH1 0x40 MLOAD DUP1 SWAP2 SUB SWAP1 LOG2 POP JUMP JUMPDEST PUSH1 0x0 PUSH2 0x4130 DUP4 DUP4 PUSH2 0x42EE JUMP JUMPDEST PUSH2 0x4189 JUMPI DUP3 PUSH1 0x0 ADD DUP3 SWAP1 DUP1 PUSH1 0x1 DUP2 SLOAD ADD DUP1 DUP3 SSTORE DUP1 SWAP2 POP POP PUSH1 0x1 SWAP1 SUB SWAP1 PUSH1 0x0 MSTORE PUSH1 0x20 PUSH1 0x0 KECCAK256 ADD PUSH1 0x0 SWAP1 SWAP2 SWAP1 SWAP2 SWAP1 SWAP2 POP SSTORE DUP3 PUSH1 0x0 ADD DUP1 SLOAD SWAP1 POP DUP4 PUSH1 0x1 ADD PUSH1 0x0 DUP5 DUP2 MSTORE PUSH1 0x20 ADD SWAP1 DUP2 MSTORE PUSH1 0x20 ADD PUSH1 0x0 KECCAK256 DUP2 SWAP1 SSTORE POP PUSH1 0x1 SWAP1 POP PUSH2 0x418E JUMP JUMPDEST PUSH1 0x0 SWAP1 POP JUMPDEST SWAP3 SWAP2 POP POP JUMP JUMPDEST PUSH1 0x0 DUP1 DUP4 EQ ISZERO DUP3 SWAP1 PUSH2 0x41DC JUMPI PUSH1 0x40 MLOAD PUSH32 0x8C379A000000000000000000000000000000000000000000000000000000000 DUP2 MSTORE PUSH1 0x4 ADD PUSH2 0x41D3 SWAP2 SWAP1 PUSH2 0x5507 JUMP JUMPDEST PUSH1 0x40 MLOAD DUP1 SWAP2 SUB SWAP1 REVERT JUMPDEST POP DUP3 DUP5 DUP2 PUSH2 0x41E6 JUMPI INVALID JUMPDEST MOD SWAP1 POP SWAP4 SWAP3 POP POP POP JUMP JUMPDEST PUSH1 0x0 PUSH2 0x4218 DUP4 PUSH1 0x0 ADD DUP4 PUSH20 0xFFFFFFFFFFFFFFFFFFFFFFFFFFFFFFFFFFFFFFFF AND PUSH1 0x0 SHL PUSH2 0x4322 JUMP JUMPDEST SWAP1 POP SWAP3 SWAP2 POP POP JUMP JUMPDEST PUSH1 0x0 DUP1 DUP4 GT DUP3 SWAP1 PUSH2 0x4267 JUMPI PUSH1 0x40 MLOAD PUSH32 0x8C379A000000000000000000000000000000000000000000000000000000000 DUP2 MSTORE PUSH1 0x4 ADD PUSH2 0x425E SWAP2 SWAP1 PUSH2 0x5507 JUMP JUMPDEST PUSH1 0x40 MLOAD DUP1 SWAP2 SUB SWAP1 REVERT JUMPDEST POP PUSH1 0x0 DUP4 DUP6 DUP2 PUSH2 0x4273 JUMPI INVALID JUMPDEST DIV SWAP1 POP DUP1 SWAP2 POP POP SWAP4 SWAP3 POP POP POP JUMP JUMPDEST PUSH1 0x0 DUP2 DUP4 PUSH1 0x0 ADD DUP1 SLOAD SWAP1 POP GT PUSH2 0x42CC JUMPI PUSH1 0x40 MLOAD PUSH32 0x8C379A000000000000000000000000000000000000000000000000000000000 DUP2 MSTORE PUSH1 0x4 ADD PUSH2 0x42C3 SWAP1 PUSH2 0x5529 JUMP JUMPDEST PUSH1 0x40 MLOAD DUP1 SWAP2 SUB SWAP1 REVERT JUMPDEST DUP3 PUSH1 0x0 ADD DUP3 DUP2 SLOAD DUP2 LT PUSH2 0x42DB JUMPI INVALID JUMPDEST SWAP1 PUSH1 0x0 MSTORE PUSH1 0x20 PUSH1 0x0 KECCAK256 ADD SLOAD SWAP1 POP SWAP3 SWAP2 POP POP JUMP JUMPDEST PUSH1 0x0 DUP1 DUP4 PUSH1 0x1 ADD PUSH1 0x0 DUP5 DUP2 MSTORE PUSH1 0x20 ADD SWAP1 DUP2 MSTORE PUSH1 0x20 ADD PUSH1 0x0 KECCAK256 SLOAD EQ ISZERO SWAP1 POP SWAP3 SWAP2 POP POP JUMP JUMPDEST PUSH1 0x0 DUP2 PUSH1 0x0 ADD DUP1 SLOAD SWAP1 POP SWAP1 POP SWAP2 SWAP1 POP JUMP JUMPDEST PUSH1 0x0 DUP1 DUP4 PUSH1 0x1 ADD PUSH1 0x0 DUP5 DUP2 MSTORE PUSH1 0x20 ADD SWAP1 DUP2 MSTORE PUSH1 0x20 ADD PUSH1 0x0 KECCAK256 SLOAD SWAP1 POP PUSH1 0x0 DUP2 EQ PUSH2 0x43FE JUMPI PUSH1 0x0 PUSH1 0x1 DUP3 SUB SWAP1 POP PUSH1 0x0 PUSH1 0x1 DUP7 PUSH1 0x0 ADD DUP1 SLOAD SWAP1 POP SUB SWAP1 POP PUSH1 0x0 DUP7 PUSH1 0x0 ADD DUP3 DUP2 SLOAD DUP2 LT PUSH2 0x436D JUMPI INVALID JUMPDEST SWAP1 PUSH1 0x0 MSTORE PUSH1 0x20 PUSH1 0x0 KECCAK256 ADD SLOAD SWAP1 POP DUP1 DUP8 PUSH1 0x0 ADD DUP5 DUP2 SLOAD DUP2 LT PUSH2 0x438A JUMPI INVALID JUMPDEST SWAP1 PUSH1 0x0 MSTORE PUSH1 0x20 PUSH1 0x0 KECCAK256 ADD DUP2 SWAP1 SSTORE POP PUSH1 0x1 DUP4 ADD DUP8 PUSH1 0x1 ADD PUSH1 0x0 DUP4 DUP2 MSTORE PUSH1 0x20 ADD SWAP1 DUP2 MSTORE PUSH1 0x20 ADD PUSH1 0x0 KECCAK256 DUP2 SWAP1 SSTORE POP DUP7 PUSH1 0x0 ADD DUP1 SLOAD DUP1 PUSH2 0x43C2 JUMPI INVALID JUMPDEST PUSH1 0x1 SWAP1 SUB DUP2 DUP2 SWAP1 PUSH1 0x0 MSTORE PUSH1 0x20 PUSH1 0x0 KECCAK256 ADD PUSH1 0x0 SWAP1 SSTORE SWAP1 SSTORE DUP7 PUSH1 0x1 ADD PUSH1 0x0 DUP8 DUP2 MSTORE PUSH1 0x20 ADD SWAP1 DUP2 MSTORE PUSH1 0x20 ADD PUSH1 0x0 KECCAK256 PUSH1 0x0 SWAP1 SSTORE PUSH1 0x1 SWAP5 POP POP POP POP POP PUSH2 0x4404 JUMP JUMPDEST PUSH1 0x0 SWAP2 POP POP JUMPDEST SWAP3 SWAP2 POP POP JUMP JUMPDEST PUSH1 0x40 MLOAD DUP1 PUSH2 0x100 ADD PUSH1 0x40 MSTORE DUP1 PUSH1 0x0 DUP2 MSTORE PUSH1 0x20 ADD PUSH1 0x60 DUP2 MSTORE PUSH1 0x20 ADD PUSH1 0x60 DUP2 MSTORE PUSH1 0x20 ADD PUSH1 0x60 DUP2 MSTORE PUSH1 0x20 ADD PUSH1 0x60 DUP2 MSTORE PUSH1 0x20 ADD PUSH1 0x0 DUP2 MSTORE PUSH1 0x20 ADD PUSH1 0x0 DUP2 MSTORE PUSH1 0x20 ADD PUSH1 0x0 ISZERO ISZERO DUP2 MSTORE POP SWAP1 JUMP JUMPDEST DUP3 DUP1 SLOAD DUP3 DUP3 SSTORE SWAP1 PUSH1 0x0 MSTORE PUSH1 0x20 PUSH1 0x0 KECCAK256 SWAP1 DUP2 ADD SWAP3 DUP3 ISZERO PUSH2 0x4492 JUMPI PUSH1 0x0 MSTORE PUSH1 0x20 PUSH1 0x0 KECCAK256 SWAP2 DUP3 ADD JUMPDEST DUP3 DUP2 GT ISZERO PUSH2 0x4491 JUMPI DUP3 SLOAD DUP3 SSTORE SWAP2 PUSH1 0x1 ADD SWAP2 SWAP1 PUSH1 0x1 ADD SWAP1 PUSH2 0x4476 JUMP JUMPDEST JUMPDEST POP SWAP1 POP PUSH2 0x449F SWAP2 SWAP1 PUSH2 0x4511 JUMP JUMPDEST POP SWAP1 JUMP JUMPDEST DUP3 DUP1 SLOAD DUP3 DUP3 SSTORE SWAP1 PUSH1 0x0 MSTORE PUSH1 0x20 PUSH1 0x0 KECCAK256 SWAP1 DUP2 ADD SWAP3 DUP3 ISZERO PUSH2 0x44DF JUMPI SWAP2 PUSH1 0x20 MUL DUP3 ADD JUMPDEST DUP3 DUP2 GT ISZERO PUSH2 0x44DE JUMPI DUP3 MLOAD DUP3 SSTORE SWAP2 PUSH1 0x20 ADD SWAP2 SWAP1 PUSH1 0x1 ADD SWAP1 PUSH2 0x44C3 JUMP JUMPDEST JUMPDEST POP SWAP1 POP PUSH2 0x44EC SWAP2 SWAP1 PUSH2 0x4511 JUMP JUMPDEST POP SWAP1 JUMP JUMPDEST POP DUP1 SLOAD PUSH1 0x0 DUP3 SSTORE SWAP1 PUSH1 0x0 MSTORE PUSH1 0x20 PUSH1 0x0 KECCAK256 SWAP1 DUP2 ADD SWAP1 PUSH2 0x450E SWAP2 SWAP1 PUSH2 0x4511 JUMP JUMPDEST POP JUMP JUMPDEST PUSH2 0x4533 SWAP2 SWAP1 JUMPDEST DUP1 DUP3 GT ISZERO PUSH2 0x452F JUMPI PUSH1 0x0 DUP2 PUSH1 0x0 SWAP1 SSTORE POP PUSH1 0x1 ADD PUSH2 0x4517 JUMP JUMPDEST POP SWAP1 JUMP JUMPDEST SWAP1 JUMP JUMPDEST PUSH1 0x0 DUP2 CALLDATALOAD SWAP1 POP PUSH2 0x4545 DUP2 PUSH2 0x5CCA JUMP JUMPDEST SWAP3 SWAP2 POP POP JUMP JUMPDEST PUSH1 0x0 DUP2 MLOAD SWAP1 POP PUSH2 0x455A DUP2 PUSH2 0x5CCA JUMP JUMPDEST SWAP3 SWAP2 POP POP JUMP JUMPDEST PUSH1 0x0 DUP3 PUSH1 0x1F DUP4 ADD SLT PUSH2 0x4571 JUMPI PUSH1 0x0 DUP1 REVERT JUMPDEST DUP2 CALLDATALOAD PUSH2 0x4584 PUSH2 0x457F DUP3 PUSH2 0x5A45 JUMP JUMPDEST PUSH2 0x5A18 JUMP JUMPDEST SWAP2 POP DUP2 DUP2 DUP4 MSTORE PUSH1 0x20 DUP5 ADD SWAP4 POP PUSH1 0x20 DUP2 ADD SWAP1 POP DUP4 DUP6 PUSH1 0x20 DUP5 MUL DUP3 ADD GT ISZERO PUSH2 0x45A9 JUMPI PUSH1 0x0 DUP1 REVERT JUMPDEST PUSH1 0x0 JUMPDEST DUP4 DUP2 LT ISZERO PUSH2 0x45D9 JUMPI DUP2 PUSH2 0x45BF DUP9 DUP3 PUSH2 0x46D3 JUMP JUMPDEST DUP5 MSTORE PUSH1 0x20 DUP5 ADD SWAP4 POP PUSH1 0x20 DUP4 ADD SWAP3 POP POP PUSH1 0x1 DUP2 ADD SWAP1 POP PUSH2 0x45AC JUMP JUMPDEST POP POP POP POP SWAP3 SWAP2 POP POP JUMP JUMPDEST PUSH1 0x0 DUP2 CALLDATALOAD SWAP1 POP PUSH2 0x45F2 DUP2 PUSH2 0x5CE1 JUMP JUMPDEST SWAP3 SWAP2 POP POP JUMP JUMPDEST PUSH1 0x0 DUP2 MLOAD SWAP1 POP PUSH2 0x4607 DUP2 PUSH2 0x5CE1 JUMP JUMPDEST SWAP3 SWAP2 POP POP JUMP JUMPDEST PUSH1 0x0 PUSH2 0x100 DUP3 DUP5 SUB SLT ISZERO PUSH2 0x4620 JUMPI PUSH1 0x0 DUP1 REVERT JUMPDEST PUSH2 0x462B PUSH2 0x100 PUSH2 0x5A18 JUMP JUMPDEST SWAP1 POP PUSH1 0x0 PUSH2 0x463B DUP5 DUP3 DUP6 ADD PUSH2 0x46E8 JUMP JUMPDEST PUSH1 0x0 DUP4 ADD MSTORE POP PUSH1 0x20 PUSH2 0x464F DUP5 DUP3 DUP6 ADD PUSH2 0x454B JUMP JUMPDEST PUSH1 0x20 DUP4 ADD MSTORE POP PUSH1 0x40 PUSH2 0x4663 DUP5 DUP3 DUP6 ADD PUSH2 0x46E8 JUMP JUMPDEST PUSH1 0x40 DUP4 ADD MSTORE POP PUSH1 0x60 PUSH2 0x4677 DUP5 DUP3 DUP6 ADD PUSH2 0x46E8 JUMP JUMPDEST PUSH1 0x60 DUP4 ADD MSTORE POP PUSH1 0x80 PUSH2 0x468B DUP5 DUP3 DUP6 ADD PUSH2 0x46E8 JUMP JUMPDEST PUSH1 0x80 DUP4 ADD MSTORE POP PUSH1 0xA0 PUSH2 0x469F DUP5 DUP3 DUP6 ADD PUSH2 0x46E8 JUMP JUMPDEST PUSH1 0xA0 DUP4 ADD MSTORE POP PUSH1 0xC0 PUSH2 0x46B3 DUP5 DUP3 DUP6 ADD PUSH2 0x46E8 JUMP JUMPDEST PUSH1 0xC0 DUP4 ADD MSTORE POP PUSH1 0xE0 PUSH2 0x46C7 DUP5 DUP3 DUP6 ADD PUSH2 0x46E8 JUMP JUMPDEST PUSH1 0xE0 DUP4 ADD MSTORE POP SWAP3 SWAP2 POP POP JUMP JUMPDEST PUSH1 0x0 DUP2 CALLDATALOAD SWAP1 POP PUSH2 0x46E2 DUP2 PUSH2 0x5CF8 JUMP JUMPDEST SWAP3 SWAP2 POP POP JUMP JUMPDEST PUSH1 0x0 DUP2 MLOAD SWAP1 POP PUSH2 0x46F7 DUP2 PUSH2 0x5CF8 JUMP JUMPDEST SWAP3 SWAP2 POP POP JUMP JUMPDEST PUSH1 0x0 DUP2 MLOAD SWAP1 POP PUSH2 0x470C DUP2 PUSH2 0x5D0F JUMP JUMPDEST SWAP3 SWAP2 POP POP JUMP JUMPDEST PUSH1 0x0 PUSH1 0x20 DUP3 DUP5 SUB SLT ISZERO PUSH2 0x4724 JUMPI PUSH1 0x0 DUP1 REVERT JUMPDEST PUSH1 0x0 PUSH2 0x4732 DUP5 DUP3 DUP6 ADD PUSH2 0x4536 JUMP JUMPDEST SWAP2 POP POP SWAP3 SWAP2 POP POP JUMP JUMPDEST PUSH1 0x0 DUP1 PUSH1 0x0 DUP1 PUSH1 0x80 DUP6 DUP8 SUB SLT ISZERO PUSH2 0x4751 JUMPI PUSH1 0x0 DUP1 REVERT JUMPDEST PUSH1 0x0 PUSH2 0x475F DUP8 DUP3 DUP9 ADD PUSH2 0x4536 JUMP JUMPDEST SWAP5 POP POP PUSH1 0x20 PUSH2 0x4770 DUP8 DUP3 DUP9 ADD PUSH2 0x4536 JUMP JUMPDEST SWAP4 POP POP PUSH1 0x40 PUSH2 0x4781 DUP8 DUP3 DUP9 ADD PUSH2 0x4536 JUMP JUMPDEST SWAP3 POP POP PUSH1 0x60 PUSH2 0x4792 DUP8 DUP3 DUP9 ADD PUSH2 0x4536 JUMP JUMPDEST SWAP2 POP POP SWAP3 SWAP6 SWAP2 SWAP5 POP SWAP3 POP JUMP JUMPDEST PUSH1 0x0 PUSH1 0x20 DUP3 DUP5 SUB SLT ISZERO PUSH2 0x47B0 JUMPI PUSH1 0x0 DUP1 REVERT JUMPDEST PUSH1 0x0 PUSH2 0x47BE DUP5 DUP3 DUP6 ADD PUSH2 0x45E3 JUMP JUMPDEST SWAP2 POP POP SWAP3 SWAP2 POP POP JUMP JUMPDEST PUSH1 0x0 PUSH1 0x20 DUP3 DUP5 SUB SLT ISZERO PUSH2 0x47D9 JUMPI PUSH1 0x0 DUP1 REVERT JUMPDEST PUSH1 0x0 PUSH2 0x47E7 DUP5 DUP3 DUP6 ADD PUSH2 0x45F8 JUMP JUMPDEST SWAP2 POP POP SWAP3 SWAP2 POP POP JUMP JUMPDEST PUSH1 0x0 DUP1 PUSH1 0x40 DUP4 DUP6 SUB SLT ISZERO PUSH2 0x4803 JUMPI PUSH1 0x0 DUP1 REVERT JUMPDEST PUSH1 0x0 PUSH2 0x4811 DUP6 DUP3 DUP7 ADD PUSH2 0x45E3 JUMP JUMPDEST SWAP3 POP POP PUSH1 0x20 PUSH2 0x4822 DUP6 DUP3 DUP7 ADD PUSH2 0x4536 JUMP JUMPDEST SWAP2 POP POP SWAP3 POP SWAP3 SWAP1 POP JUMP JUMPDEST PUSH1 0x0 DUP1 PUSH1 0x40 DUP4 DUP6 SUB SLT ISZERO PUSH2 0x483F JUMPI PUSH1 0x0 DUP1 REVERT JUMPDEST PUSH1 0x0 PUSH2 0x484D DUP6 DUP3 DUP7 ADD PUSH2 0x45E3 JUMP JUMPDEST SWAP3 POP POP PUSH1 0x20 PUSH2 0x485E DUP6 DUP3 DUP7 ADD PUSH2 0x46D3 JUMP JUMPDEST SWAP2 POP POP SWAP3 POP SWAP3 SWAP1 POP JUMP JUMPDEST PUSH1 0x0 PUSH2 0x100 DUP3 DUP5 SUB SLT ISZERO PUSH2 0x487B JUMPI PUSH1 0x0 DUP1 REVERT JUMPDEST PUSH1 0x0 PUSH2 0x4889 DUP5 DUP3 DUP6 ADD PUSH2 0x460D JUMP JUMPDEST SWAP2 POP POP SWAP3 SWAP2 POP POP JUMP JUMPDEST PUSH1 0x0 PUSH1 0x20 DUP3 DUP5 SUB SLT ISZERO PUSH2 0x48A4 JUMPI PUSH1 0x0 DUP1 REVERT JUMPDEST PUSH1 0x0 PUSH2 0x48B2 DUP5 DUP3 DUP6 ADD PUSH2 0x46D3 JUMP JUMPDEST SWAP2 POP POP SWAP3 SWAP2 POP POP JUMP JUMPDEST PUSH1 0x0 PUSH1 0x20 DUP3 DUP5 SUB SLT ISZERO PUSH2 0x48CD JUMPI PUSH1 0x0 DUP1 REVERT JUMPDEST PUSH1 0x0 PUSH2 0x48DB DUP5 DUP3 DUP6 ADD PUSH2 0x46E8 JUMP JUMPDEST SWAP2 POP POP SWAP3 SWAP2 POP POP JUMP JUMPDEST PUSH1 0x0 DUP1 PUSH1 0x40 DUP4 DUP6 SUB SLT ISZERO PUSH2 0x48F7 JUMPI PUSH1 0x0 DUP1 REVERT JUMPDEST PUSH1 0x0 PUSH2 0x4905 DUP6 DUP3 DUP7 ADD PUSH2 0x46D3 JUMP JUMPDEST SWAP3 POP POP PUSH1 0x20 PUSH2 0x4916 DUP6 DUP3 DUP7 ADD PUSH2 0x4536 JUMP JUMPDEST SWAP2 POP POP SWAP3 POP SWAP3 SWAP1 POP JUMP JUMPDEST PUSH1 0x0 DUP1 PUSH1 0x0 DUP1 PUSH1 0x0 DUP1 PUSH1 0x0 PUSH1 0xE0 DUP9 DUP11 SUB SLT ISZERO PUSH2 0x493B JUMPI PUSH1 0x0 DUP1 REVERT JUMPDEST PUSH1 0x0 PUSH2 0x4949 DUP11 DUP3 DUP12 ADD PUSH2 0x46D3 JUMP JUMPDEST SWAP8 POP POP PUSH1 0x20 DUP9 ADD CALLDATALOAD PUSH8 0xFFFFFFFFFFFFFFFF DUP2 GT ISZERO PUSH2 0x4966 JUMPI PUSH1 0x0 DUP1 REVERT JUMPDEST PUSH2 0x4972 DUP11 DUP3 DUP12 ADD PUSH2 0x4560 JUMP JUMPDEST SWAP7 POP POP PUSH1 0x40 DUP9 ADD CALLDATALOAD PUSH8 0xFFFFFFFFFFFFFFFF DUP2 GT ISZERO PUSH2 0x498F JUMPI PUSH1 0x0 DUP1 REVERT JUMPDEST PUSH2 0x499B DUP11 DUP3 DUP12 ADD PUSH2 0x4560 JUMP JUMPDEST SWAP6 POP POP PUSH1 0x60 DUP9 ADD CALLDATALOAD PUSH8 0xFFFFFFFFFFFFFFFF DUP2 GT ISZERO PUSH2 0x49B8 JUMPI PUSH1 0x0 DUP1 REVERT JUMPDEST PUSH2 0x49C4 DUP11 DUP3 DUP12 ADD PUSH2 0x4560 JUMP JUMPDEST SWAP5 POP POP PUSH1 0x80 DUP9 ADD CALLDATALOAD PUSH8 0xFFFFFFFFFFFFFFFF DUP2 GT ISZERO PUSH2 0x49E1 JUMPI PUSH1 0x0 DUP1 REVERT JUMPDEST PUSH2 0x49ED DUP11 DUP3 DUP12 ADD PUSH2 0x4560 JUMP JUMPDEST SWAP4 POP POP PUSH1 0xA0 PUSH2 0x49FE DUP11 DUP3 DUP12 ADD PUSH2 0x46D3 JUMP JUMPDEST SWAP3 POP POP PUSH1 0xC0 PUSH2 0x4A0F DUP11 DUP3 DUP12 ADD PUSH2 0x46D3 JUMP JUMPDEST SWAP2 POP POP SWAP3 SWAP6 SWAP9 SWAP2 SWAP5 SWAP8 POP SWAP3 SWAP6 POP JUMP JUMPDEST PUSH1 0x0 DUP1 PUSH1 0x40 DUP4 DUP6 SUB SLT ISZERO PUSH2 0x4A31 JUMPI PUSH1 0x0 DUP1 REVERT JUMPDEST PUSH1 0x0 PUSH2 0x4A3F DUP6 DUP3 DUP7 ADD PUSH2 0x46D3 JUMP JUMPDEST SWAP3 POP POP PUSH1 0x20 PUSH2 0x4A50 DUP6 DUP3 DUP7 ADD PUSH2 0x46D3 JUMP JUMPDEST SWAP2 POP POP SWAP3 POP SWAP3 SWAP1 POP JUMP JUMPDEST PUSH1 0x0 DUP1 PUSH1 0x0 PUSH1 0x60 DUP5 DUP7 SUB SLT ISZERO PUSH2 0x4A6F JUMPI PUSH1 0x0 DUP1 REVERT JUMPDEST PUSH1 0x0 PUSH2 0x4A7D DUP7 DUP3 DUP8 ADD PUSH2 0x46D3 JUMP JUMPDEST SWAP4 POP POP PUSH1 0x20 PUSH2 0x4A8E DUP7 DUP3 DUP8 ADD PUSH2 0x46D3 JUMP JUMPDEST SWAP3 POP POP PUSH1 0x40 DUP5 ADD CALLDATALOAD PUSH8 0xFFFFFFFFFFFFFFFF DUP2 GT ISZERO PUSH2 0x4AAB JUMPI PUSH1 0x0 DUP1 REVERT JUMPDEST PUSH2 0x4AB7 DUP7 DUP3 DUP8 ADD PUSH2 0x4560 JUMP JUMPDEST SWAP2 POP POP SWAP3 POP SWAP3 POP SWAP3 JUMP JUMPDEST PUSH1 0x0 DUP1 PUSH1 0x0 PUSH1 0x60 DUP5 DUP7 SUB SLT ISZERO PUSH2 0x4AD6 JUMPI PUSH1 0x0 DUP1 REVERT JUMPDEST PUSH1 0x0 PUSH2 0x4AE4 DUP7 DUP3 DUP8 ADD PUSH2 0x46D3 JUMP JUMPDEST SWAP4 POP POP PUSH1 0x20 PUSH2 0x4AF5 DUP7 DUP3 DUP8 ADD PUSH2 0x46D3 JUMP JUMPDEST SWAP3 POP POP PUSH1 0x40 PUSH2 0x4B06 DUP7 DUP3 DUP8 ADD PUSH2 0x46D3 JUMP JUMPDEST SWAP2 POP POP SWAP3 POP SWAP3 POP SWAP3 JUMP JUMPDEST PUSH1 0x0 PUSH1 0x20 DUP3 DUP5 SUB SLT ISZERO PUSH2 0x4B22 JUMPI PUSH1 0x0 DUP1 REVERT JUMPDEST PUSH1 0x0 PUSH2 0x4B30 DUP5 DUP3 DUP6 ADD PUSH2 0x46FD JUMP JUMPDEST SWAP2 POP POP SWAP3 SWAP2 POP POP JUMP JUMPDEST PUSH1 0x0 PUSH2 0x4B45 DUP4 DUP4 PUSH2 0x536B JUMP JUMPDEST PUSH1 0x20 DUP4 ADD SWAP1 POP SWAP3 SWAP2 POP POP JUMP JUMPDEST PUSH2 0x4B5A DUP2 PUSH2 0x5B74 JUMP JUMPDEST DUP3 MSTORE POP POP JUMP JUMPDEST PUSH2 0x4B69 DUP2 PUSH2 0x5B15 JUMP JUMPDEST DUP3 MSTORE POP POP JUMP JUMPDEST PUSH1 0x0 PUSH2 0x4B7A DUP3 PUSH2 0x5A92 JUMP JUMPDEST PUSH2 0x4B84 DUP2 DUP6 PUSH2 0x5ACD JUMP JUMPDEST SWAP4 POP PUSH2 0x4B8F DUP4 PUSH2 0x5A6D JUMP JUMPDEST DUP1 PUSH1 0x0 JUMPDEST DUP4 DUP2 LT ISZERO PUSH2 0x4BC0 JUMPI DUP2 MLOAD PUSH2 0x4BA7 DUP9 DUP3 PUSH2 0x4B39 JUMP JUMPDEST SWAP8 POP PUSH2 0x4BB2 DUP4 PUSH2 0x5AB3 JUMP JUMPDEST SWAP3 POP POP PUSH1 0x1 DUP2 ADD SWAP1 POP PUSH2 0x4B93 JUMP JUMPDEST POP DUP6 SWAP4 POP POP POP POP SWAP3 SWAP2 POP POP JUMP JUMPDEST PUSH1 0x0 PUSH2 0x4BD8 DUP3 PUSH2 0x5A92 JUMP JUMPDEST PUSH2 0x4BE2 DUP2 DUP6 PUSH2 0x5ADE JUMP JUMPDEST SWAP4 POP PUSH2 0x4BED DUP4 PUSH2 0x5A6D JUMP JUMPDEST DUP1 PUSH1 0x0 JUMPDEST DUP4 DUP2 LT ISZERO PUSH2 0x4C1E JUMPI DUP2 MLOAD PUSH2 0x4C05 DUP9 DUP3 PUSH2 0x4B39 JUMP JUMPDEST SWAP8 POP PUSH2 0x4C10 DUP4 PUSH2 0x5AB3 JUMP JUMPDEST SWAP3 POP POP PUSH1 0x1 DUP2 ADD SWAP1 POP PUSH2 0x4BF1 JUMP JUMPDEST POP DUP6 SWAP4 POP POP POP POP SWAP3 SWAP2 POP POP JUMP JUMPDEST PUSH1 0x0 PUSH2 0x4C36 DUP3 PUSH2 0x5A9D JUMP JUMPDEST PUSH2 0x4C40 DUP2 DUP6 PUSH2 0x5ADE JUMP JUMPDEST SWAP4 POP PUSH2 0x4C4B DUP4 PUSH2 0x5A7D JUMP JUMPDEST DUP1 PUSH1 0x0 JUMPDEST DUP4 DUP2 LT ISZERO PUSH2 0x4C83 JUMPI PUSH2 0x4C60 DUP3 PUSH2 0x5C99 JUMP JUMPDEST PUSH2 0x4C6A DUP9 DUP3 PUSH2 0x4B39 JUMP JUMPDEST SWAP8 POP PUSH2 0x4C75 DUP4 PUSH2 0x5AC0 JUMP JUMPDEST SWAP3 POP POP PUSH1 0x1 DUP2 ADD SWAP1 POP PUSH2 0x4C4F JUMP JUMPDEST POP DUP6 SWAP4 POP POP POP POP SWAP3 SWAP2 POP POP JUMP JUMPDEST PUSH2 0x4C99 DUP2 PUSH2 0x5B27 JUMP JUMPDEST DUP3 MSTORE POP POP JUMP JUMPDEST PUSH2 0x4CA8 DUP2 PUSH2 0x5B27 JUMP JUMPDEST DUP3 MSTORE POP POP JUMP JUMPDEST PUSH2 0x4CB7 DUP2 PUSH2 0x5B33 JUMP JUMPDEST DUP3 MSTORE POP POP JUMP JUMPDEST PUSH2 0x4CC6 DUP2 PUSH2 0x5B33 JUMP JUMPDEST DUP3 MSTORE POP POP JUMP JUMPDEST PUSH2 0x4CD5 DUP2 PUSH2 0x5B86 JUMP JUMPDEST DUP3 MSTORE POP POP JUMP JUMPDEST PUSH2 0x4CE4 DUP2 PUSH2 0x5BAA JUMP JUMPDEST DUP3 MSTORE POP POP JUMP JUMPDEST PUSH2 0x4CF3 DUP2 PUSH2 0x5BCE JUMP JUMPDEST DUP3 MSTORE POP POP JUMP JUMPDEST PUSH2 0x4D02 DUP2 PUSH2 0x5BF2 JUMP JUMPDEST DUP3 MSTORE POP POP JUMP JUMPDEST PUSH2 0x4D11 DUP2 PUSH2 0x5C16 JUMP JUMPDEST DUP3 MSTORE POP POP JUMP JUMPDEST PUSH1 0x0 PUSH2 0x4D22 DUP3 PUSH2 0x5AA8 JUMP JUMPDEST PUSH2 0x4D2C DUP2 DUP6 PUSH2 0x5AEF JUMP JUMPDEST SWAP4 POP PUSH2 0x4D3C DUP2 DUP6 PUSH1 0x20 DUP7 ADD PUSH2 0x5C4C JUMP JUMPDEST PUSH2 0x4D45 DUP2 PUSH2 0x5CAC JUMP JUMPDEST DUP5 ADD SWAP2 POP POP SWAP3 SWAP2 POP POP JUMP JUMPDEST PUSH1 0x0 PUSH2 0x4D5D PUSH1 0x22 DUP4 PUSH2 0x5AEF JUMP JUMPDEST SWAP2 POP PUSH32 0x456E756D657261626C655365743A20696E646578206F7574206F6620626F756E PUSH1 0x0 DUP4 ADD MSTORE PUSH32 0x6473000000000000000000000000000000000000000000000000000000000000 PUSH1 0x20 DUP4 ADD MSTORE PUSH1 0x40 DUP3 ADD SWAP1 POP SWAP2 SWAP1 POP JUMP JUMPDEST PUSH1 0x0 PUSH2 0x4DC3 PUSH1 0x2F DUP4 PUSH2 0x5AEF JUMP JUMPDEST SWAP2 POP PUSH32 0x416363657373436F6E74726F6C3A2073656E646572206D75737420626520616E PUSH1 0x0 DUP4 ADD MSTORE PUSH32 0x2061646D696E20746F206772616E740000000000000000000000000000000000 PUSH1 0x20 DUP4 ADD MSTORE PUSH1 0x40 DUP3 ADD SWAP1 POP SWAP2 SWAP1 POP JUMP JUMPDEST PUSH1 0x0 PUSH2 0x4E29 PUSH1 0x29 DUP4 PUSH2 0x5AEF JUMP JUMPDEST SWAP2 POP PUSH32 0x736F727465645B695D206973206E6F742067726561746572207468616E206C61 PUSH1 0x0 DUP4 ADD MSTORE PUSH32 0x7374566973697465640000000000000000000000000000000000000000000000 PUSH1 0x20 DUP4 ADD MSTORE PUSH1 0x40 DUP3 ADD SWAP1 POP SWAP2 SWAP1 POP JUMP JUMPDEST PUSH1 0x0 PUSH2 0x4E8F PUSH1 0x1B DUP4 PUSH2 0x5AEF JUMP JUMPDEST SWAP2 POP PUSH32 0x536166654D6174683A206164646974696F6E206F766572666C6F770000000000 PUSH1 0x0 DUP4 ADD MSTORE PUSH1 0x20 DUP3 ADD SWAP1 POP SWAP2 SWAP1 POP JUMP JUMPDEST PUSH1 0x0 PUSH2 0x4ECF PUSH1 0xB DUP4 PUSH2 0x5AEF JUMP JUMPDEST SWAP2 POP PUSH32 0x6E6F7420656C6563746564000000000000000000000000000000000000000000 PUSH1 0x0 DUP4 ADD MSTORE PUSH1 0x20 DUP3 ADD SWAP1 POP SWAP2 SWAP1 POP JUMP JUMPDEST PUSH1 0x0 PUSH2 0x4F0F PUSH1 0x30 DUP4 PUSH2 0x5AEF JUMP JUMPDEST SWAP2 POP PUSH32 0x416363657373436F6E74726F6C3A2073656E646572206D75737420626520616E PUSH1 0x0 DUP4 ADD MSTORE PUSH32 0x2061646D696E20746F207265766F6B6500000000000000000000000000000000 PUSH1 0x20 DUP4 ADD MSTORE PUSH1 0x40 DUP3 ADD SWAP1 POP SWAP2 SWAP1 POP JUMP JUMPDEST PUSH1 0x0 PUSH2 0x4F75 PUSH1 0x6 DUP4 PUSH2 0x5B00 JUMP JUMPDEST SWAP2 POP PUSH32 0x5772697465720000000000000000000000000000000000000000000000000000 PUSH1 0x0 DUP4 ADD MSTORE PUSH1 0x6 DUP3 ADD SWAP1 POP SWAP2 SWAP1 POP JUMP JUMPDEST PUSH1 0x0 PUSH2 0x4FB5 PUSH1 0x21 DUP4 PUSH2 0x5AEF JUMP JUMPDEST SWAP2 POP PUSH32 0x536166654D6174683A206D756C7469706C69636174696F6E206F766572666C6F PUSH1 0x0 DUP4 ADD MSTORE PUSH32 0x7700000000000000000000000000000000000000000000000000000000000000 PUSH1 0x20 DUP4 ADD MSTORE PUSH1 0x40 DUP3 ADD SWAP1 POP SWAP2 SWAP1 POP JUMP JUMPDEST PUSH1 0x0 PUSH2 0x501B PUSH1 0xF DUP4 PUSH2 0x5AEF JUMP JUMPDEST SWAP2 POP PUSH32 0x696E636F72726563742065706F63680000000000000000000000000000000000 PUSH1 0x0 DUP4 ADD MSTORE PUSH1 0x20 DUP3 ADD SWAP1 POP SWAP2 SWAP1 POP JUMP JUMPDEST PUSH1 0x0 PUSH2 0x505B PUSH1 0x14 DUP4 PUSH2 0x5AEF JUMP JUMPDEST SWAP2 POP PUSH32 0x41737365744964206E6F74206D61746368696E67000000000000000000000000 PUSH1 0x0 DUP4 ADD MSTORE PUSH1 0x20 DUP3 ADD SWAP1 POP SWAP2 SWAP1 POP JUMP JUMPDEST PUSH1 0x0 PUSH2 0x509B PUSH1 0x37 DUP4 PUSH2 0x5AEF JUMP JUMPDEST SWAP2 POP PUSH32 0x50726F706F73656420416C7465726E61746520626C6F636B206973206964656E PUSH1 0x0 DUP4 ADD MSTORE PUSH32 0x746963616C20746F2070726F706F73656420626C6F636B000000000000000000 PUSH1 0x20 DUP4 ADD MSTORE PUSH1 0x40 DUP3 ADD SWAP1 POP SWAP2 SWAP1 POP JUMP JUMPDEST PUSH1 0x0 PUSH2 0x5101 PUSH1 0x19 DUP4 PUSH2 0x5AEF JUMP JUMPDEST SWAP2 POP PUSH32 0x7374616B652062656C6F77206D696E696D756D207374616B6500000000000000 PUSH1 0x0 DUP4 ADD MSTORE PUSH1 0x20 DUP3 ADD SWAP1 POP SWAP2 SWAP1 POP JUMP JUMPDEST PUSH1 0x0 PUSH2 0x5141 PUSH1 0x21 DUP4 PUSH2 0x5AEF JUMP JUMPDEST SWAP2 POP PUSH32 0x546F74616C207374616B652072657665616C656420646F65736E74206D617463 PUSH1 0x0 DUP4 ADD MSTORE PUSH32 0x6800000000000000000000000000000000000000000000000000000000000000 PUSH1 0x20 DUP4 ADD MSTORE PUSH1 0x40 DUP3 ADD SWAP1 POP SWAP2 SWAP1 POP JUMP JUMPDEST PUSH1 0x0 PUSH2 0x51A7 PUSH1 0xF DUP4 PUSH2 0x5AEF JUMP JUMPDEST SWAP2 POP PUSH32 0x696E636F72726563742073746174650000000000000000000000000000000000 PUSH1 0x0 DUP4 ADD MSTORE PUSH1 0x20 DUP3 ADD SWAP1 POP SWAP2 SWAP1 POP JUMP JUMPDEST PUSH1 0x0 PUSH2 0x51E7 PUSH1 0x30 DUP4 PUSH2 0x5AEF JUMP JUMPDEST SWAP2 POP PUSH32 0x577269746572526F6C653A2063616C6C657220646F6573206E6F742068617665 PUSH1 0x0 DUP4 ADD MSTORE PUSH32 0x207468652057726974657220726F6C6500000000000000000000000000000000 PUSH1 0x20 DUP4 ADD MSTORE PUSH1 0x40 DUP3 ADD SWAP1 POP SWAP2 SWAP1 POP JUMP JUMPDEST PUSH1 0x0 PUSH2 0x524D PUSH1 0x2F DUP4 PUSH2 0x5AEF JUMP JUMPDEST SWAP2 POP PUSH32 0x416363657373436F6E74726F6C3A2063616E206F6E6C792072656E6F756E6365 PUSH1 0x0 DUP4 ADD MSTORE PUSH32 0x20726F6C657320666F722073656C660000000000000000000000000000000000 PUSH1 0x20 DUP4 ADD MSTORE PUSH1 0x40 DUP3 ADD SWAP1 POP SWAP2 SWAP1 POP JUMP JUMPDEST PUSH1 0x0 PUSH2 0x100 DUP4 ADD PUSH1 0x0 DUP4 ADD MLOAD PUSH2 0x52BF PUSH1 0x0 DUP7 ADD DUP3 PUSH2 0x536B JUMP JUMPDEST POP PUSH1 0x20 DUP4 ADD MLOAD DUP5 DUP3 SUB PUSH1 0x20 DUP7 ADD MSTORE PUSH2 0x52D7 DUP3 DUP3 PUSH2 0x4B6F JUMP JUMPDEST SWAP2 POP POP PUSH1 0x40 DUP4 ADD MLOAD DUP5 DUP3 SUB PUSH1 0x40 DUP7 ADD MSTORE PUSH2 0x52F1 DUP3 DUP3 PUSH2 0x4B6F JUMP JUMPDEST SWAP2 POP POP PUSH1 0x60 DUP4 ADD MLOAD DUP5 DUP3 SUB PUSH1 0x60 DUP7 ADD MSTORE PUSH2 0x530B DUP3 DUP3 PUSH2 0x4B6F JUMP JUMPDEST SWAP2 POP POP PUSH1 0x80 DUP4 ADD MLOAD DUP5 DUP3 SUB PUSH1 0x80 DUP7 ADD MSTORE PUSH2 0x5325 DUP3 DUP3 PUSH2 0x4B6F JUMP JUMPDEST SWAP2 POP POP PUSH1 0xA0 DUP4 ADD MLOAD PUSH2 0x533A PUSH1 0xA0 DUP7 ADD DUP3 PUSH2 0x536B JUMP JUMPDEST POP PUSH1 0xC0 DUP4 ADD MLOAD PUSH2 0x534D PUSH1 0xC0 DUP7 ADD DUP3 PUSH2 0x536B JUMP JUMPDEST POP PUSH1 0xE0 DUP4 ADD MLOAD PUSH2 0x5360 PUSH1 0xE0 DUP7 ADD DUP3 PUSH2 0x4C90 JUMP JUMPDEST POP DUP1 SWAP2 POP POP SWAP3 SWAP2 POP POP JUMP JUMPDEST PUSH2 0x5374 DUP2 PUSH2 0x5B5D JUMP JUMPDEST DUP3 MSTORE POP POP JUMP JUMPDEST PUSH2 0x5383 DUP2 PUSH2 0x5B5D JUMP JUMPDEST DUP3 MSTORE POP POP JUMP JUMPDEST PUSH2 0x5392 DUP2 PUSH2 0x5B5D JUMP JUMPDEST DUP3 MSTORE POP POP JUMP JUMPDEST PUSH1 0x0 PUSH2 0x53A3 DUP3 PUSH2 0x4F68 JUMP JUMPDEST SWAP2 POP DUP2 SWAP1 POP SWAP2 SWAP1 POP JUMP JUMPDEST PUSH1 0x0 PUSH1 0x20 DUP3 ADD SWAP1 POP PUSH2 0x53C2 PUSH1 0x0 DUP4 ADD DUP5 PUSH2 0x4B60 JUMP JUMPDEST SWAP3 SWAP2 POP POP JUMP JUMPDEST PUSH1 0x0 PUSH1 0x20 DUP3 ADD SWAP1 POP PUSH2 0x53DD PUSH1 0x0 DUP4 ADD DUP5 PUSH2 0x4B51 JUMP JUMPDEST SWAP3 SWAP2 POP POP JUMP JUMPDEST PUSH1 0x0 PUSH1 0x20 DUP3 ADD SWAP1 POP DUP2 DUP2 SUB PUSH1 0x0 DUP4 ADD MSTORE PUSH2 0x53FD DUP2 DUP5 PUSH2 0x4BCD JUMP JUMPDEST SWAP1 POP SWAP3 SWAP2 POP POP JUMP JUMPDEST PUSH1 0x0 PUSH1 0x20 DUP3 ADD SWAP1 POP PUSH2 0x541A PUSH1 0x0 DUP4 ADD DUP5 PUSH2 0x4C9F JUMP JUMPDEST SWAP3 SWAP2 POP POP JUMP JUMPDEST PUSH1 0x0 PUSH1 0x20 DUP3 ADD SWAP1 POP PUSH2 0x5435 PUSH1 0x0 DUP4 ADD DUP5 PUSH2 0x4CAE JUMP JUMPDEST SWAP3 SWAP2 POP POP JUMP JUMPDEST PUSH1 0x0 PUSH1 0x20 DUP3 ADD SWAP1 POP PUSH2 0x5450 PUSH1 0x0 DUP4 ADD DUP5 PUSH2 0x4CCC JUMP JUMPDEST SWAP3 SWAP2 POP POP JUMP JUMPDEST PUSH1 0x0 PUSH1 0x20 DUP3 ADD SWAP1 POP PUSH2 0x546B PUSH1 0x0 DUP4 ADD DUP5 PUSH2 0x4CDB JUMP JUMPDEST SWAP3 SWAP2 POP POP JUMP JUMPDEST PUSH1 0x0 PUSH1 0x20 DUP3 ADD SWAP1 POP PUSH2 0x5486 PUSH1 0x0 DUP4 ADD DUP5 PUSH2 0x4CEA JUMP JUMPDEST SWAP3 SWAP2 POP POP JUMP JUMPDEST PUSH1 0x0 PUSH1 0x20 DUP3 ADD SWAP1 POP PUSH2 0x54A1 PUSH1 0x0 DUP4 ADD DUP5 PUSH2 0x4CF9 JUMP JUMPDEST SWAP3 SWAP2 POP POP JUMP JUMPDEST PUSH1 0x0 PUSH1 0x40 DUP3 ADD SWAP1 POP PUSH2 0x54BC PUSH1 0x0 DUP4 ADD DUP6 PUSH2 0x4D08 JUMP JUMPDEST PUSH2 0x54C9 PUSH1 0x20 DUP4 ADD DUP5 PUSH2 0x4CBD JUMP JUMPDEST SWAP4 SWAP3 POP POP POP JUMP JUMPDEST PUSH1 0x0 PUSH1 0x60 DUP3 ADD SWAP1 POP PUSH2 0x54E5 PUSH1 0x0 DUP4 ADD DUP7 PUSH2 0x4D08 JUMP JUMPDEST PUSH2 0x54F2 PUSH1 0x20 DUP4 ADD DUP6 PUSH2 0x5389 JUMP JUMPDEST PUSH2 0x54FF PUSH1 0x40 DUP4 ADD DUP5 PUSH2 0x4CBD JUMP JUMPDEST SWAP5 SWAP4 POP POP POP POP JUMP JUMPDEST PUSH1 0x0 PUSH1 0x20 DUP3 ADD SWAP1 POP DUP2 DUP2 SUB PUSH1 0x0 DUP4 ADD MSTORE PUSH2 0x5521 DUP2 DUP5 PUSH2 0x4D17 JUMP JUMPDEST SWAP1 POP SWAP3 SWAP2 POP POP JUMP JUMPDEST PUSH1 0x0 PUSH1 0x20 DUP3 ADD SWAP1 POP DUP2 DUP2 SUB PUSH1 0x0 DUP4 ADD MSTORE PUSH2 0x5542 DUP2 PUSH2 0x4D50 JUMP JUMPDEST SWAP1 POP SWAP2 SWAP1 POP JUMP JUMPDEST PUSH1 0x0 PUSH1 0x20 DUP3 ADD SWAP1 POP DUP2 DUP2 SUB PUSH1 0x0 DUP4 ADD MSTORE PUSH2 0x5562 DUP2 PUSH2 0x4DB6 JUMP JUMPDEST SWAP1 POP SWAP2 SWAP1 POP JUMP JUMPDEST PUSH1 0x0 PUSH1 0x20 DUP3 ADD SWAP1 POP DUP2 DUP2 SUB PUSH1 0x0 DUP4 ADD MSTORE PUSH2 0x5582 DUP2 PUSH2 0x4E1C JUMP JUMPDEST SWAP1 POP SWAP2 SWAP1 POP JUMP JUMPDEST PUSH1 0x0 PUSH1 0x20 DUP3 ADD SWAP1 POP DUP2 DUP2 SUB PUSH1 0x0 DUP4 ADD MSTORE PUSH2 0x55A2 DUP2 PUSH2 0x4E82 JUMP JUMPDEST SWAP1 POP SWAP2 SWAP1 POP JUMP JUMPDEST PUSH1 0x0 PUSH1 0x20 DUP3 ADD SWAP1 POP DUP2 DUP2 SUB PUSH1 0x0 DUP4 ADD MSTORE PUSH2 0x55C2 DUP2 PUSH2 0x4EC2 JUMP JUMPDEST SWAP1 POP SWAP2 SWAP1 POP JUMP JUMPDEST PUSH1 0x0 PUSH1 0x20 DUP3 ADD SWAP1 POP DUP2 DUP2 SUB PUSH1 0x0 DUP4 ADD MSTORE PUSH2 0x55E2 DUP2 PUSH2 0x4F02 JUMP JUMPDEST SWAP1 POP SWAP2 SWAP1 POP JUMP JUMPDEST PUSH1 0x0 PUSH1 0x20 DUP3 ADD SWAP1 POP DUP2 DUP2 SUB PUSH1 0x0 DUP4 ADD MSTORE PUSH2 0x5602 DUP2 PUSH2 0x4FA8 JUMP JUMPDEST SWAP1 POP SWAP2 SWAP1 POP JUMP JUMPDEST PUSH1 0x0 PUSH1 0x20 DUP3 ADD SWAP1 POP DUP2 DUP2 SUB PUSH1 0x0 DUP4 ADD MSTORE PUSH2 0x5622 DUP2 PUSH2 0x500E JUMP JUMPDEST SWAP1 POP SWAP2 SWAP1 POP JUMP JUMPDEST PUSH1 0x0 PUSH1 0x20 DUP3 ADD SWAP1 POP DUP2 DUP2 SUB PUSH1 0x0 DUP4 ADD MSTORE PUSH2 0x5642 DUP2 PUSH2 0x504E JUMP JUMPDEST SWAP1 POP SWAP2 SWAP1 POP JUMP JUMPDEST PUSH1 0x0 PUSH1 0x20 DUP3 ADD SWAP1 POP DUP2 DUP2 SUB PUSH1 0x0 DUP4 ADD MSTORE PUSH2 0x5662 DUP2 PUSH2 0x508E JUMP JUMPDEST SWAP1 POP SWAP2 SWAP1 POP JUMP JUMPDEST PUSH1 0x0 PUSH1 0x20 DUP3 ADD SWAP1 POP DUP2 DUP2 SUB PUSH1 0x0 DUP4 ADD MSTORE PUSH2 0x5682 DUP2 PUSH2 0x50F4 JUMP JUMPDEST SWAP1 POP SWAP2 SWAP1 POP JUMP JUMPDEST PUSH1 0x0 PUSH1 0x20 DUP3 ADD SWAP1 POP DUP2 DUP2 SUB PUSH1 0x0 DUP4 ADD MSTORE PUSH2 0x56A2 DUP2 PUSH2 0x5134 JUMP JUMPDEST SWAP1 POP SWAP2 SWAP1 POP JUMP JUMPDEST PUSH1 0x0 PUSH1 0x20 DUP3 ADD SWAP1 POP DUP2 DUP2 SUB PUSH1 0x0 DUP4 ADD MSTORE PUSH2 0x56C2 DUP2 PUSH2 0x519A JUMP JUMPDEST SWAP1 POP SWAP2 SWAP1 POP JUMP JUMPDEST PUSH1 0x0 PUSH1 0x20 DUP3 ADD SWAP1 POP DUP2 DUP2 SUB PUSH1 0x0 DUP4 ADD MSTORE PUSH2 0x56E2 DUP2 PUSH2 0x51DA JUMP JUMPDEST SWAP1 POP SWAP2 SWAP1 POP JUMP JUMPDEST PUSH1 0x0 PUSH1 0x20 DUP3 ADD SWAP1 POP DUP2 DUP2 SUB PUSH1 0x0 DUP4 ADD MSTORE PUSH2 0x5702 DUP2 PUSH2 0x5240 JUMP JUMPDEST SWAP1 POP SWAP2 SWAP1 POP JUMP JUMPDEST PUSH1 0x0 PUSH1 0x20 DUP3 ADD SWAP1 POP DUP2 DUP2 SUB PUSH1 0x0 DUP4 ADD MSTORE PUSH2 0x5723 DUP2 DUP5 PUSH2 0x52A6 JUMP JUMPDEST SWAP1 POP SWAP3 SWAP2 POP POP JUMP JUMPDEST PUSH1 0x0 PUSH1 0x80 DUP3 ADD SWAP1 POP DUP2 DUP2 SUB PUSH1 0x0 DUP4 ADD MSTORE PUSH2 0x5745 DUP2 DUP8 PUSH2 0x52A6 JUMP JUMPDEST SWAP1 POP DUP2 DUP2 SUB PUSH1 0x20 DUP4 ADD MSTORE PUSH2 0x5759 DUP2 DUP7 PUSH2 0x4BCD JUMP JUMPDEST SWAP1 POP DUP2 DUP2 SUB PUSH1 0x40 DUP4 ADD MSTORE PUSH2 0x576D DUP2 DUP6 PUSH2 0x4BCD JUMP JUMPDEST SWAP1 POP DUP2 DUP2 SUB PUSH1 0x60 DUP4 ADD MSTORE PUSH2 0x5781 DUP2 DUP5 PUSH2 0x4BCD JUMP JUMPDEST SWAP1 POP SWAP6 SWAP5 POP POP POP POP POP JUMP JUMPDEST PUSH1 0x0 PUSH1 0x20 DUP3 ADD SWAP1 POP PUSH2 0x57A1 PUSH1 0x0 DUP4 ADD DUP5 PUSH2 0x537A JUMP JUMPDEST SWAP3 SWAP2 POP POP JUMP JUMPDEST PUSH1 0x0 PUSH1 0x60 DUP3 ADD SWAP1 POP PUSH2 0x57BC PUSH1 0x0 DUP4 ADD DUP7 PUSH2 0x537A JUMP JUMPDEST PUSH2 0x57C9 PUSH1 0x20 DUP4 ADD DUP6 PUSH2 0x4B51 JUMP JUMPDEST PUSH2 0x57D6 PUSH1 0x40 DUP4 ADD DUP5 PUSH2 0x537A JUMP JUMPDEST SWAP5 SWAP4 POP POP POP POP JUMP JUMPDEST PUSH1 0x0 PUSH1 0x40 DUP3 ADD SWAP1 POP PUSH2 0x57F3 PUSH1 0x0 DUP4 ADD DUP6 PUSH2 0x537A JUMP JUMPDEST PUSH2 0x5800 PUSH1 0x20 DUP4 ADD DUP5 PUSH2 0x537A JUMP JUMPDEST SWAP4 SWAP3 POP POP POP JUMP JUMPDEST PUSH1 0x0 PUSH2 0x120 DUP3 ADD SWAP1 POP PUSH2 0x581D PUSH1 0x0 DUP4 ADD DUP13 PUSH2 0x537A JUMP JUMPDEST PUSH2 0x582A PUSH1 0x20 DUP4 ADD DUP12 PUSH2 0x537A JUMP JUMPDEST DUP2 DUP2 SUB PUSH1 0x40 DUP4 ADD MSTORE PUSH2 0x583C DUP2 DUP11 PUSH2 0x4BCD JUMP JUMPDEST SWAP1 POP DUP2 DUP2 SUB PUSH1 0x60 DUP4 ADD MSTORE PUSH2 0x5850 DUP2 DUP10 PUSH2 0x4BCD JUMP JUMPDEST SWAP1 POP DUP2 DUP2 SUB PUSH1 0x80 DUP4 ADD MSTORE PUSH2 0x5864 DUP2 DUP9 PUSH2 0x4BCD JUMP JUMPDEST SWAP1 POP DUP2 DUP2 SUB PUSH1 0xA0 DUP4 ADD MSTORE PUSH2 0x5878 DUP2 DUP8 PUSH2 0x4BCD JUMP JUMPDEST SWAP1 POP PUSH2 0x5887 PUSH1 0xC0 DUP4 ADD DUP7 PUSH2 0x537A JUMP JUMPDEST PUSH2 0x5894 PUSH1 0xE0 DUP4 ADD DUP6 PUSH2 0x537A JUMP JUMPDEST PUSH2 0x58A2 PUSH2 0x100 DUP4 ADD DUP5 PUSH2 0x537A JUMP JUMPDEST SWAP11 SWAP10 POP POP POP POP POP POP POP POP POP POP JUMP JUMPDEST PUSH1 0x0 PUSH1 0xE0 DUP3 ADD SWAP1 POP PUSH2 0x58C5 PUSH1 0x0 DUP4 ADD DUP11 PUSH2 0x537A JUMP JUMPDEST PUSH2 0x58D2 PUSH1 0x20 DUP4 ADD DUP10 PUSH2 0x537A JUMP JUMPDEST DUP2 DUP2 SUB PUSH1 0x40 DUP4 ADD MSTORE PUSH2 0x58E4 DUP2 DUP9 PUSH2 0x4C2B JUMP JUMPDEST SWAP1 POP DUP2 DUP2 SUB PUSH1 0x60 DUP4 ADD MSTORE PUSH2 0x58F8 DUP2 DUP8 PUSH2 0x4C2B JUMP JUMPDEST SWAP1 POP DUP2 DUP2 SUB PUSH1 0x80 DUP4 ADD MSTORE PUSH2 0x590C DUP2 DUP7 PUSH2 0x4C2B JUMP JUMPDEST SWAP1 POP DUP2 DUP2 SUB PUSH1 0xA0 DUP4 ADD MSTORE PUSH2 0x5920 DUP2 DUP6 PUSH2 0x4C2B JUMP JUMPDEST SWAP1 POP PUSH2 0x592F PUSH1 0xC0 DUP4 ADD DUP5 PUSH2 0x537A JUMP JUMPDEST SWAP9 SWAP8 POP POP POP POP POP POP POP POP JUMP JUMPDEST PUSH1 0x0 PUSH1 0x60 DUP3 ADD SWAP1 POP PUSH2 0x5950 PUSH1 0x0 DUP4 ADD DUP7 PUSH2 0x537A JUMP JUMPDEST PUSH2 0x595D PUSH1 0x20 DUP4 ADD DUP6 PUSH2 0x537A JUMP JUMPDEST PUSH2 0x596A PUSH1 0x40 DUP4 ADD DUP5 PUSH2 0x537A JUMP JUMPDEST SWAP5 SWAP4 POP POP POP POP JUMP JUMPDEST PUSH1 0x0 PUSH1 0x80 DUP3 ADD SWAP1 POP PUSH2 0x5987 PUSH1 0x0 DUP4 ADD DUP8 PUSH2 0x537A JUMP JUMPDEST PUSH2 0x5994 PUSH1 0x20 DUP4 ADD DUP7 PUSH2 0x537A JUMP JUMPDEST PUSH2 0x59A1 PUSH1 0x40 DUP4 ADD DUP6 PUSH2 0x537A JUMP JUMPDEST PUSH2 0x59AE PUSH1 0x60 DUP4 ADD DUP5 PUSH2 0x4C9F JUMP JUMPDEST SWAP6 SWAP5 POP POP POP POP POP JUMP JUMPDEST PUSH1 0x0 PUSH1 0xC0 DUP3 ADD SWAP1 POP PUSH2 0x59CC PUSH1 0x0 DUP4 ADD DUP10 PUSH2 0x537A JUMP JUMPDEST PUSH2 0x59D9 PUSH1 0x20 DUP4 ADD DUP9 PUSH2 0x537A JUMP JUMPDEST PUSH2 0x59E6 PUSH1 0x40 DUP4 ADD DUP8 PUSH2 0x537A JUMP JUMPDEST PUSH2 0x59F3 PUSH1 0x60 DUP4 ADD DUP7 PUSH2 0x537A JUMP JUMPDEST PUSH2 0x5A00 PUSH1 0x80 DUP4 ADD DUP6 PUSH2 0x537A JUMP JUMPDEST PUSH2 0x5A0D PUSH1 0xA0 DUP4 ADD DUP5 PUSH2 0x537A JUMP JUMPDEST SWAP8 SWAP7 POP POP POP POP POP POP POP JUMP JUMPDEST PUSH1 0x0 PUSH1 0x40 MLOAD SWAP1 POP DUP2 DUP2 ADD DUP2 DUP2 LT PUSH8 0xFFFFFFFFFFFFFFFF DUP3 GT OR ISZERO PUSH2 0x5A3B JUMPI PUSH1 0x0 DUP1 REVERT JUMPDEST DUP1 PUSH1 0x40 MSTORE POP SWAP2 SWAP1 POP JUMP JUMPDEST PUSH1 0x0 PUSH8 0xFFFFFFFFFFFFFFFF DUP3 GT ISZERO PUSH2 0x5A5C JUMPI PUSH1 0x0 DUP1 REVERT JUMPDEST PUSH1 0x20 DUP3 MUL SWAP1 POP PUSH1 0x20 DUP2 ADD SWAP1 POP SWAP2 SWAP1 POP JUMP JUMPDEST PUSH1 0x0 DUP2 SWAP1 POP PUSH1 0x20 DUP3 ADD SWAP1 POP SWAP2 SWAP1 POP JUMP JUMPDEST PUSH1 0x0 DUP2 SWAP1 POP DUP2 PUSH1 0x0 MSTORE PUSH1 0x20 PUSH1 0x0 KECCAK256 SWAP1 POP SWAP2 SWAP1 POP JUMP JUMPDEST PUSH1 0x0 DUP2 MLOAD SWAP1 POP SWAP2 SWAP1 POP JUMP JUMPDEST PUSH1 0x0 DUP2 SLOAD SWAP1 POP SWAP2 SWAP1 POP JUMP JUMPDEST PUSH1 0x0 DUP2 MLOAD SWAP1 POP SWAP2 SWAP1 POP JUMP JUMPDEST PUSH1 0x0 PUSH1 0x20 DUP3 ADD SWAP1 POP SWAP2 SWAP1 POP JUMP JUMPDEST PUSH1 0x0 PUSH1 0x1 DUP3 ADD SWAP1 POP SWAP2 SWAP1 POP JUMP JUMPDEST PUSH1 0x0 DUP3 DUP3 MSTORE PUSH1 0x20 DUP3 ADD SWAP1 POP SWAP3 SWAP2 POP POP JUMP JUMPDEST PUSH1 0x0 DUP3 DUP3 MSTORE PUSH1 0x20 DUP3 ADD SWAP1 POP SWAP3 SWAP2 POP POP JUMP JUMPDEST PUSH1 0x0 DUP3 DUP3 MSTORE PUSH1 0x20 DUP3 ADD SWAP1 POP SWAP3 SWAP2 POP POP JUMP JUMPDEST PUSH1 0x0 DUP2 SWAP1 POP SWAP3 SWAP2 POP POP JUMP JUMPDEST PUSH1 0x0 DUP2 SWAP1 POP SWAP2 SWAP1 POP JUMP JUMPDEST PUSH1 0x0 PUSH2 0x5B20 DUP3 PUSH2 0x5B3D JUMP JUMPDEST SWAP1 POP SWAP2 SWAP1 POP JUMP JUMPDEST PUSH1 0x0 DUP2 ISZERO ISZERO SWAP1 POP SWAP2 SWAP1 POP JUMP JUMPDEST PUSH1 0x0 DUP2 SWAP1 POP SWAP2 SWAP1 POP JUMP JUMPDEST PUSH1 0x0 PUSH20 0xFFFFFFFFFFFFFFFFFFFFFFFFFFFFFFFFFFFFFFFF DUP3 AND SWAP1 POP SWAP2 SWAP1 POP JUMP JUMPDEST PUSH1 0x0 DUP2 SWAP1 POP SWAP2 SWAP1 POP JUMP JUMPDEST PUSH1 0x0 PUSH1 0xFF DUP3 AND SWAP1 POP SWAP2 SWAP1 POP JUMP JUMPDEST PUSH1 0x0 PUSH2 0x5B7F DUP3 PUSH2 0x5C28 JUMP JUMPDEST SWAP1 POP SWAP2 SWAP1 POP JUMP JUMPDEST PUSH1 0x0 PUSH2 0x5B91 DUP3 PUSH2 0x5B98 JUMP JUMPDEST SWAP1 POP SWAP2 SWAP1 POP JUMP JUMPDEST PUSH1 0x0 PUSH2 0x5BA3 DUP3 PUSH2 0x5B3D JUMP JUMPDEST SWAP1 POP SWAP2 SWAP1 POP JUMP JUMPDEST PUSH1 0x0 PUSH2 0x5BB5 DUP3 PUSH2 0x5BBC JUMP JUMPDEST SWAP1 POP SWAP2 SWAP1 POP JUMP JUMPDEST PUSH1 0x0 PUSH2 0x5BC7 DUP3 PUSH2 0x5B3D JUMP JUMPDEST SWAP1 POP SWAP2 SWAP1 POP JUMP JUMPDEST PUSH1 0x0 PUSH2 0x5BD9 DUP3 PUSH2 0x5BE0 JUMP JUMPDEST SWAP1 POP SWAP2 SWAP1 POP JUMP JUMPDEST PUSH1 0x0 PUSH2 0x5BEB DUP3 PUSH2 0x5B3D JUMP JUMPDEST SWAP1 POP SWAP2 SWAP1 POP JUMP JUMPDEST PUSH1 0x0 PUSH2 0x5BFD DUP3 PUSH2 0x5C04 JUMP JUMPDEST SWAP1 POP SWAP2 SWAP1 POP JUMP JUMPDEST PUSH1 0x0 PUSH2 0x5C0F DUP3 PUSH2 0x5B3D JUMP JUMPDEST SWAP1 POP SWAP2 SWAP1 POP JUMP JUMPDEST PUSH1 0x0 PUSH2 0x5C21 DUP3 PUSH2 0x5B67 JUMP JUMPDEST SWAP1 POP SWAP2 SWAP1 POP JUMP JUMPDEST PUSH1 0x0 PUSH2 0x5C33 DUP3 PUSH2 0x5C3A JUMP JUMPDEST SWAP1 POP SWAP2 SWAP1 POP JUMP JUMPDEST PUSH1 0x0 PUSH2 0x5C45 DUP3 PUSH2 0x5B3D JUMP JUMPDEST SWAP1 POP SWAP2 SWAP1 POP JUMP JUMPDEST PUSH1 0x0 JUMPDEST DUP4 DUP2 LT ISZERO PUSH2 0x5C6A JUMPI DUP1 DUP3 ADD MLOAD DUP2 DUP5 ADD MSTORE PUSH1 0x20 DUP2 ADD SWAP1 POP PUSH2 0x5C4F JUMP JUMPDEST DUP4 DUP2 GT ISZERO PUSH2 0x5C79 JUMPI PUSH1 0x0 DUP5 DUP5 ADD MSTORE JUMPDEST POP POP POP POP JUMP JUMPDEST PUSH1 0x0 PUSH2 0x5C92 PUSH2 0x5C8D DUP4 PUSH2 0x5CBD JUMP JUMPDEST PUSH2 0x5B0B JUMP JUMPDEST SWAP1 POP SWAP2 SWAP1 POP JUMP JUMPDEST PUSH1 0x0 PUSH2 0x5CA5 DUP3 SLOAD PUSH2 0x5C7F JUMP JUMPDEST SWAP1 POP SWAP2 SWAP1 POP JUMP JUMPDEST PUSH1 0x0 PUSH1 0x1F NOT PUSH1 0x1F DUP4 ADD AND SWAP1 POP SWAP2 SWAP1 POP JUMP JUMPDEST PUSH1 0x0 DUP2 PUSH1 0x0 SHR SWAP1 POP SWAP2 SWAP1 POP JUMP JUMPDEST PUSH2 0x5CD3 DUP2 PUSH2 0x5B15 JUMP JUMPDEST DUP2 EQ PUSH2 0x5CDE JUMPI PUSH1 0x0 DUP1 REVERT JUMPDEST POP JUMP JUMPDEST PUSH2 0x5CEA DUP2 PUSH2 0x5B33 JUMP JUMPDEST DUP2 EQ PUSH2 0x5CF5 JUMPI PUSH1 0x0 DUP1 REVERT JUMPDEST POP JUMP JUMPDEST PUSH2 0x5D01 DUP2 PUSH2 0x5B5D JUMP JUMPDEST DUP2 EQ PUSH2 0x5D0C JUMPI PUSH1 0x0 DUP1 REVERT JUMPDEST POP JUMP JUMPDEST PUSH2 0x5D18 DUP2 PUSH2 0x5B67 JUMP JUMPDEST DUP2 EQ PUSH2 0x5D23 JUMPI PUSH1 0x0 DUP1 REVERT JUMPDEST POP JUMP INVALID LOG2 PUSH5 0x6970667358 0x22 SLT KECCAK256 0xEB DIFFICULTY DELEGATECALL 0xAB DUP1 SHR 0xDE SWAP5 0xBF 0xF8 0xCC 0xFB PUSH25 0xCEB84907F28896FE96EDAD3EECF8C51BA4B5C964736F6C6343 STOP MOD SIGNEXTEND STOP CALLER "},"gasEstimates":{"creation":{"codeDepositCost":"4780000","executionCost":"infinite","totalCost":"infinite"},"external":{"DEFAULT_ADMIN_ROLE()":"402","addWriter(address)":"infinite","blocks(uint256)":"infinite","confirmBlock()":"infinite","disputes(uint256,address)":"infinite","finalizeDispute(uint256,uint256)":"infinite","getBlock(uint256)":"infinite","getBlockMedians(uint256)":"infinite","getHigherCutoffs(uint256)":"infinite","getLowerCutoffs(uint256)":"infinite","getNumProposedBlocks(uint256)":"infinite","getProposedBlock(uint256,uint256)":"infinite","getProposedBlockMedians(uint256,uint256)":"infinite","getRoleAdmin(bytes32)":"infinite","getRoleMember(bytes32,uint256)":"infinite","getRoleMemberCount(bytes32)":"1703","giveSorted(uint256,uint256,uint256[])":"infinite","grantRole(bytes32,address)":"infinite","hasRole(bytes32,address)":"infinite","init(address,address,address,address)":"infinite","isElectedProposer(uint256,uint256,uint256)":"infinite","isWriter(address)":"infinite","jobManager()":"1369","propose(uint256,uint256[],uint256[],uint256[],uint256[],uint256,uint256)":"infinite","proposedBlocks(uint256,uint256)":"infinite","renounceRole(bytes32,address)":"infinite","renounceWriter()":"infinite","resetDispute(uint256)":"infinite","revokeRole(bytes32,address)":"infinite","stakeManager()":"1368","stateManager()":"1347","voteManager()":"1302"},"internal":{"_insertAppropriately(uint256,struct Structs.Block memory)":"infinite"}},"methodIdentifiers":{"DEFAULT_ADMIN_ROLE()":"a217fddf","addWriter(address)":"da2824a8","blocks(uint256)":"f25b3f99","confirmBlock()":"9b87f644","disputes(uint256,address)":"828496d6","finalizeDispute(uint256,uint256)":"3cd32fd4","getBlock(uint256)":"04c07569","getBlockMedians(uint256)":"378ab9a9","getHigherCutoffs(uint256)":"fae4425d","getLowerCutoffs(uint256)":"d2a4669a","getNumProposedBlocks(uint256)":"e38c7c42","getProposedBlock(uint256,uint256)":"a27ce1ef","getProposedBlockMedians(uint256,uint256)":"d1a4a43d","getRoleAdmin(bytes32)":"248a9ca3","getRoleMember(bytes32,uint256)":"9010d07c","getRoleMemberCount(bytes32)":"ca15c873","giveSorted(uint256,uint256,uint256[])":"4e6753b7","grantRole(bytes32,address)":"2f2ff15d","hasRole(bytes32,address)":"91d14854","init(address,address,address,address)":"06552ff3","isElectedProposer(uint256,uint256,uint256)":"1d69ff9b","isWriter(address)":"2b29ba23","jobManager()":"3df395a3","propose(uint256,uint256[],uint256[],uint256[],uint256[],uint256,uint256)":"17d99c04","proposedBlocks(uint256,uint256)":"92b48411","renounceRole(bytes32,address)":"36568abe","renounceWriter()":"df4eb59c","resetDispute(uint256)":"5ce8772f","revokeRole(bytes32,address)":"d547741f","stakeManager()":"7542ff95","stateManager()":"2e716fb1","voteManager()":"42c1e587"}},"storageLayout":{"storage":[{"astId":6043,"contract":"BlockManager.sol:BlockManager","label":"_roles","offset":0,"slot":"0","type":"t_mapping(t_bytes32,t_struct(RoleData)6039_storage)"},{"astId":1234,"contract":"BlockManager.sol:BlockManager","label":"disputes","offset":0,"slot":"1","type":"t_mapping(t_uint256,t_mapping(t_address,t_struct(Dispute)5113_storage))"},{"astId":1239,"contract":"BlockManager.sol:BlockManager","label":"proposedBlocks","offset":0,"slot":"2","type":"t_mapping(t_uint256,t_array(t_struct(Block)5100_storage)dyn_storage)"},{"astId":1243,"contract":"BlockManager.sol:BlockManager","label":"blocks","offset":0,"slot":"3","type":"t_mapping(t_uint256,t_struct(Block)5100_storage)"},{"astId":22,"contract":"BlockManager.sol:BlockManager","label":"stakeManager","offset":0,"slot":"4","type":"t_contract(IStakeManager)1879"},{"astId":24,"contract":"BlockManager.sol:BlockManager","label":"stateManager","offset":0,"slot":"5","type":"t_contract(IStateManager)1903"},{"astId":26,"contract":"BlockManager.sol:BlockManager","label":"voteManager","offset":0,"slot":"6","type":"t_contract(IVoteManager)1991"},{"astId":28,"contract":"BlockManager.sol:BlockManager","label":"jobManager","offset":0,"slot":"7","type":"t_contract(IJobManager)1764"}],"types":{"t_address":{"encoding":"inplace","label":"address","numberOfBytes":"20"},"t_array(t_bytes32)dyn_storage":{"base":"t_bytes32","encoding":"dynamic_array","label":"bytes32[]","numberOfBytes":"32"},"t_array(t_struct(Block)5100_storage)dyn_storage":{"base":"t_struct(Block)5100_storage","encoding":"dynamic_array","label":"struct Structs.Block[]","numberOfBytes":"32"},"t_array(t_uint256)dyn_storage":{"base":"t_uint256","encoding":"dynamic_array","label":"uint256[]","numberOfBytes":"32"},"t_bool":{"encoding":"inplace","label":"bool","numberOfBytes":"1"},"t_bytes32":{"encoding":"inplace","label":"bytes32","numberOfBytes":"32"},"t_contract(IJobManager)1764":{"encoding":"inplace","label":"contract IJobManager","numberOfBytes":"20"},"t_contract(IStakeManager)1879":{"encoding":"inplace","label":"contract IStakeManager","numberOfBytes":"20"},"t_contract(IStateManager)1903":{"encoding":"inplace","label":"contract IStateManager","numberOfBytes":"20"},"t_contract(IVoteManager)1991":{"encoding":"inplace","label":"contract IVoteManager","numberOfBytes":"20"},"t_mapping(t_address,t_struct(Dispute)5113_storage)":{"encoding":"mapping","key":"t_address","label":"mapping(address => struct Structs.Dispute)","numberOfBytes":"32","value":"t_struct(Dispute)5113_storage"},"t_mapping(t_bytes32,t_struct(RoleData)6039_storage)":{"encoding":"mapping","key":"t_bytes32","label":"mapping(bytes32 => struct AccessControl.RoleData)","numberOfBytes":"32","value":"t_struct(RoleData)6039_storage"},"t_mapping(t_bytes32,t_uint256)":{"encoding":"mapping","key":"t_bytes32","label":"mapping(bytes32 => uint256)","numberOfBytes":"32","value":"t_uint256"},"t_mapping(t_uint256,t_array(t_struct(Block)5100_storage)dyn_storage)":{"encoding":"mapping","key":"t_uint256","label":"mapping(uint256 => struct Structs.Block[])","numberOfBytes":"32","value":"t_array(t_struct(Block)5100_storage)dyn_storage"},"t_mapping(t_uint256,t_mapping(t_address,t_struct(Dispute)5113_storage))":{"encoding":"mapping","key":"t_uint256","label":"mapping(uint256 => mapping(address => struct Structs.Dispute))","numberOfBytes":"32","value":"t_mapping(t_address,t_struct(Dispute)5113_storage)"},"t_mapping(t_uint256,t_struct(Block)5100_storage)":{"encoding":"mapping","key":"t_uint256","label":"mapping(uint256 => struct Structs.Block)","numberOfBytes":"32","value":"t_struct(Block)5100_storage"},"t_struct(AddressSet)6799_storage":{"encoding":"inplace","label":"struct EnumerableSet.AddressSet","members":[{"astId":6798,"contract":"BlockManager.sol:BlockManager","label":"_inner","offset":0,"slot":"0","type":"t_struct(Set)6619_storage"}],"numberOfBytes":"64"},"t_struct(Block)5100_storage":{"encoding":"inplace","label":"struct Structs.Block","members":[{"astId":5081,"contract":"BlockManager.sol:BlockManager","label":"proposerId","offset":0,"slot":"0","type":"t_uint256"},{"astId":5084,"contract":"BlockManager.sol:BlockManager","label":"jobIds","offset":0,"slot":"1","type":"t_array(t_uint256)dyn_storage"},{"astId":5087,"contract":"BlockManager.sol:BlockManager","label":"medians","offset":0,"slot":"2","type":"t_array(t_uint256)dyn_storage"},{"astId":5090,"contract":"BlockManager.sol:BlockManager","label":"lowerCutoffs","offset":0,"slot":"3","type":"t_array(t_uint256)dyn_storage"},{"astId":5093,"contract":"BlockManager.sol:BlockManager","label":"higherCutoffs","offset":0,"slot":"4","type":"t_array(t_uint256)dyn_storage"},{"astId":5095,"contract":"BlockManager.sol:BlockManager","label":"iteration","offset":0,"slot":"5","type":"t_uint256"},{"astId":5097,"contract":"BlockManager.sol:BlockManager","label":"biggestStake","offset":0,"slot":"6","type":"t_uint256"},{"astId":5099,"contract":"BlockManager.sol:BlockManager","label":"valid","offset":0,"slot":"7","type":"t_bool"}],"numberOfBytes":"256"},"t_struct(Dispute)5113_storage":{"encoding":"inplace","label":"struct Structs.Dispute","members":[{"astId":5102,"contract":"BlockManager.sol:BlockManager","label":"accWeight","offset":0,"slot":"0","type":"t_uint256"},{"astId":5104,"contract":"BlockManager.sol:BlockManager","label":"median","offset":0,"slot":"1","type":"t_uint256"},{"astId":5106,"contract":"BlockManager.sol:BlockManager","label":"lowerCutoff","offset":0,"slot":"2","type":"t_uint256"},{"astId":5108,"contract":"BlockManager.sol:BlockManager","label":"higherCutoff","offset":0,"slot":"3","type":"t_uint256"},{"astId":5110,"contract":"BlockManager.sol:BlockManager","label":"lastVisited","offset":0,"slot":"4","type":"t_uint256"},{"astId":5112,"contract":"BlockManager.sol:BlockManager","label":"assetId","offset":0,"slot":"5","type":"t_uint256"}],"numberOfBytes":"192"},"t_struct(RoleData)6039_storage":{"encoding":"inplace","label":"struct AccessControl.RoleData","members":[{"astId":6036,"contract":"BlockManager.sol:BlockManager","label":"members","offset":0,"slot":"0","type":"t_struct(AddressSet)6799_storage"},{"astId":6038,"contract":"BlockManager.sol:BlockManager","label":"adminRole","offset":0,"slot":"2","type":"t_bytes32"}],"numberOfBytes":"96"},"t_struct(Set)6619_storage":{"encoding":"inplace","label":"struct EnumerableSet.Set","members":[{"astId":6614,"contract":"BlockManager.sol:BlockManager","label":"_values","offset":0,"slot":"0","type":"t_array(t_bytes32)dyn_storage"},{"astId":6618,"contract":"BlockManager.sol:BlockManager","label":"_indexes","offset":0,"slot":"1","type":"t_mapping(t_bytes32,t_uint256)"}],"numberOfBytes":"64"},"t_uint256":{"encoding":"inplace","label":"uint256","numberOfBytes":"32"}}},"userdoc":{"kind":"user","methods":{},"version":1}}