{"abi":[{"inputs":[],"name":"blockReward","outputs":[{"internalType":"uint256","name":"","type":"uint256"}],"stateMutability":"pure","type":"function"},{"inputs":[],"name":"commit","outputs":[{"internalType":"uint8","name":"","type":"uint8"}],"stateMutability":"pure","type":"function"},{"inputs":[],"name":"dispute","outputs":[{"internalType":"uint8","name":"","type":"uint8"}],"stateMutability":"pure","type":"function"},{"inputs":[],"name":"epochLength","outputs":[{"internalType":"uint256","name":"","type":"uint256"}],"stateMutability":"pure","type":"function"},{"inputs":[],"name":"exposureDenominator","outputs":[{"internalType":"uint256","name":"","type":"uint256"}],"stateMutability":"pure","type":"function"},{"inputs":[],"name":"maxAltBlocks","outputs":[{"internalType":"uint256","name":"","type":"uint256"}],"stateMutability":"pure","type":"function"},{"inputs":[],"name":"minStake","outputs":[{"internalType":"uint256","name":"","type":"uint256"}],"stateMutability":"pure","type":"function"},{"inputs":[],"name":"numStates","outputs":[{"internalType":"uint256","name":"","type":"uint256"}],"stateMutability":"pure","type":"function"},{"inputs":[],"name":"penaltyNotRevealDenom","outputs":[{"internalType":"uint256","name":"","type":"uint256"}],"stateMutability":"pure","type":"function"},{"inputs":[],"name":"penaltyNotRevealNum","outputs":[{"internalType":"uint256","name":"","type":"uint256"}],"stateMutability":"pure","type":"function"},{"inputs":[],"name":"propose","outputs":[{"internalType":"uint8","name":"","type":"uint8"}],"stateMutability":"pure","type":"function"},{"inputs":[],"name":"reveal","outputs":[{"internalType":"uint8","name":"","type":"uint8"}],"stateMutability":"pure","type":"function"},{"inputs":[],"name":"unstakeLockPeriod","outputs":[{"internalType":"uint256","name":"","type":"uint256"}],"stateMutability":"pure","type":"function"},{"inputs":[],"name":"withdrawLockPeriod","outputs":[{"internalType":"uint256","name":"","type":"uint256"}],"stateMutability":"pure","type":"function"}],"devdoc":{"kind":"dev","methods":{},"version":1},"evm":{"assembly":"    /* \"lib/Constants.sol\":62:1476   */\n  dataSize(sub_0)\n  dataOffset(sub_0)\n  0x0b\n  dup3\n  dup3\n  dup3\n  codecopy\n  dup1\n  mload\n  0x00\n  byte\n  0x73\n  eq\n  tag_1\n  jumpi\n  invalid\ntag_1:\n  mstore(0x00, address)\n  0x73\n  dup2\n  mstore8\n  dup3\n  dup2\n  return\nstop\n\nsub_0: assembly {\n        /* \"lib/Constants.sol\":62:1476   */\n      eq(address, deployTimeAddress())\n      mstore(0x40, 0x80)\n      jumpi(tag_1, lt(calldatasize, 0x04))\n      shr(0xe0, calldataload(0x00))\n      dup1\n      0x57d775f8\n      gt\n      tag_16\n      jumpi\n      dup1\n      0xb1cc4500\n      gt\n      tag_17\n      jumpi\n      dup1\n      0xb1cc4500\n      eq\n      tag_12\n      jumpi\n      dup1\n      0xc198f8ba\n      eq\n      tag_13\n      jumpi\n      dup1\n      0xf240f7c3\n      eq\n      tag_14\n      jumpi\n      dup1\n      0xf4f29c5b\n      eq\n      tag_15\n      jumpi\n      jump(tag_1)\n    tag_17:\n      dup1\n      0x57d775f8\n      eq\n      tag_9\n      jumpi\n      dup1\n      0xa475b5dd\n      eq\n      tag_10\n      jumpi\n      dup1\n      0xa86f5a3f\n      eq\n      tag_11\n      jumpi\n      jump(tag_1)\n    tag_16:\n      dup1\n      0x3002c9ac\n      gt\n      tag_18\n      jumpi\n      dup1\n      0x3002c9ac\n      eq\n      tag_5\n      jumpi\n      dup1\n      0x375b3c0a\n      eq\n      tag_6\n      jumpi\n      dup1\n      0x379597e0\n      eq\n      tag_7\n      jumpi\n      dup1\n      0x3c7a3aff\n      eq\n      tag_8\n      jumpi\n      jump(tag_1)\n    tag_18:\n      dup1\n      0x0ac168a1\n      eq\n      tag_2\n      jumpi\n      dup1\n      0x2628490f\n      eq\n      tag_3\n      jumpi\n      dup1\n      0x26bf1c03\n      eq\n      tag_4\n      jumpi\n    tag_1:\n      0x00\n      dup1\n      revert\n        /* \"lib/Constants.sol\":747:831   */\n    tag_2:\n      tag_19\n      tag_20\n      jump\t// in\n    tag_19:\n      mload(0x40)\n      dup1\n      dup3\n      dup2\n      mstore\n      0x20\n      add\n      swap2\n      pop\n      pop\n      mload(0x40)\n      dup1\n      swap2\n      sub\n      swap1\n      return\n        /* \"lib/Constants.sol\":1037:1110   */\n    tag_3:\n      tag_21\n      tag_22\n      jump\t// in\n    tag_21:\n      mload(0x40)\n      dup1\n      dup3\n      dup2\n      mstore\n      0x20\n      add\n      swap2\n      pop\n      pop\n      mload(0x40)\n      dup1\n      swap2\n      sub\n      swap1\n      return\n        /* \"lib/Constants.sol\":960:1032   */\n    tag_4:\n      tag_23\n      tag_24\n      jump\t// in\n    tag_23:\n      mload(0x40)\n      dup1\n      dup3\n      dup2\n      mstore\n      0x20\n      add\n      swap2\n      pop\n      pop\n      mload(0x40)\n      dup1\n      swap2\n      sub\n      swap1\n      return\n        /* \"lib/Constants.sol\":1328:1405   */\n    tag_5:\n      tag_25\n      tag_26\n      jump\t// in\n    tag_25:\n      mload(0x40)\n      dup1\n      dup3\n      dup2\n      mstore\n      0x20\n      add\n      swap2\n      pop\n      pop\n      mload(0x40)\n      dup1\n      swap2\n      sub\n      swap1\n      return\n        /* \"lib/Constants.sol\":659:742   */\n    tag_6:\n      tag_27\n      tag_28\n      jump\t// in\n    tag_27:\n      mload(0x40)\n      dup1\n      dup3\n      dup2\n      mstore\n      0x20\n      add\n      swap2\n      pop\n      pop\n      mload(0x40)\n      dup1\n      swap2\n      sub\n      swap1\n      return\n        /* \"lib/Constants.sol\":1115:1182   */\n    tag_7:\n      tag_29\n      tag_30\n      jump\t// in\n    tag_29:\n      mload(0x40)\n      dup1\n      dup3\n      dup2\n      mstore\n      0x20\n      add\n      swap2\n      pop\n      pop\n      mload(0x40)\n      dup1\n      swap2\n      sub\n      swap1\n      return\n        /* \"lib/Constants.sol\":86:144   */\n    tag_8:\n      tag_31\n      tag_32\n      jump\t// in\n    tag_31:\n      mload(0x40)\n      dup1\n      dup3\n      0xff\n      and\n      0xff\n      and\n      dup2\n      mstore\n      0x20\n      add\n      swap2\n      pop\n      pop\n      mload(0x40)\n      dup1\n      swap2\n      sub\n      swap1\n      return\n        /* \"lib/Constants.sol\":1187:1254   */\n    tag_9:\n      tag_33\n      tag_34\n      jump\t// in\n    tag_33:\n      mload(0x40)\n      dup1\n      dup3\n      dup2\n      mstore\n      0x20\n      add\n      swap2\n      pop\n      pop\n      mload(0x40)\n      dup1\n      swap2\n      sub\n      swap1\n      return\n        /* \"lib/Constants.sol\":149:207   */\n    tag_10:\n      tag_35\n      tag_36\n      jump\t// in\n    tag_35:\n      mload(0x40)\n      dup1\n      dup3\n      0xff\n      and\n      0xff\n      and\n      dup2\n      mstore\n      0x20\n      add\n      swap2\n      pop\n      pop\n      mload(0x40)\n      dup1\n      swap2\n      sub\n      swap1\n      return\n        /* \"lib/Constants.sol\":383:457   */\n    tag_11:\n      tag_37\n      tag_38\n      jump\t// in\n    tag_37:\n      mload(0x40)\n      dup1\n      dup3\n      dup2\n      mstore\n      0x20\n      add\n      swap2\n      pop\n      pop\n      mload(0x40)\n      dup1\n      swap2\n      sub\n      swap1\n      return\n        /* \"lib/Constants.sol\":462:543   */\n    tag_12:\n      tag_39\n      tag_40\n      jump\t// in\n    tag_39:\n      mload(0x40)\n      dup1\n      dup3\n      dup2\n      mstore\n      0x20\n      add\n      swap2\n      pop\n      pop\n      mload(0x40)\n      dup1\n      swap2\n      sub\n      swap1\n      return\n        /* \"lib/Constants.sol\":212:271   */\n    tag_13:\n      tag_41\n      tag_42\n      jump\t// in\n    tag_41:\n      mload(0x40)\n      dup1\n      dup3\n      0xff\n      and\n      0xff\n      and\n      dup2\n      mstore\n      0x20\n      add\n      swap2\n      pop\n      pop\n      mload(0x40)\n      dup1\n      swap2\n      sub\n      swap1\n      return\n        /* \"lib/Constants.sol\":276:335   */\n    tag_14:\n      tag_43\n      tag_44\n      jump\t// in\n    tag_43:\n      mload(0x40)\n      dup1\n      dup3\n      0xff\n      and\n      0xff\n      and\n      dup2\n      mstore\n      0x20\n      add\n      swap2\n      pop\n      pop\n      mload(0x40)\n      dup1\n      swap2\n      sub\n      swap1\n      return\n        /* \"lib/Constants.sol\":1259:1323   */\n    tag_15:\n      tag_45\n      tag_46\n      jump\t// in\n    tag_45:\n      mload(0x40)\n      dup1\n      dup3\n      dup2\n      mstore\n      0x20\n      add\n      swap2\n      pop\n      pop\n      mload(0x40)\n      dup1\n      swap2\n      sub\n      swap1\n      return\n        /* \"lib/Constants.sol\":747:831   */\n    tag_20:\n        /* \"lib/Constants.sol\":790:797   */\n      0x00\n        /* \"lib/Constants.sol\":824:826   */\n      0x12\n        /* \"lib/Constants.sol\":812:814   */\n      0x0a\n        /* \"lib/Constants.sol\":812:827   */\n      exp\n        /* \"lib/Constants.sol\":808:810   */\n      0x28\n        /* \"lib/Constants.sol\":808:828   */\n      mul\n        /* \"lib/Constants.sol\":801:829   */\n      swap1\n      pop\n        /* \"lib/Constants.sol\":747:831   */\n      swap1\n      jump\t// out\n        /* \"lib/Constants.sol\":1037:1110   */\n    tag_22:\n        /* \"lib/Constants.sol\":1087:1094   */\n      0x00\n        /* \"lib/Constants.sol\":1105:1106   */\n      0x01\n        /* \"lib/Constants.sol\":1098:1107   */\n      swap1\n      pop\n        /* \"lib/Constants.sol\":1037:1110   */\n      swap1\n      jump\t// out\n        /* \"lib/Constants.sol\":960:1032   */\n    tag_24:\n        /* \"lib/Constants.sol\":1009:1016   */\n      0x00\n        /* \"lib/Constants.sol\":1027:1028   */\n      0x01\n        /* \"lib/Constants.sol\":1020:1029   */\n      swap1\n      pop\n        /* \"lib/Constants.sol\":960:1032   */\n      swap1\n      jump\t// out\n        /* \"lib/Constants.sol\":1328:1405   */\n    tag_26:\n        /* \"lib/Constants.sol\":1379:1386   */\n      0x00\n        /* \"lib/Constants.sol\":1397:1401   */\n      0x03e8\n        /* \"lib/Constants.sol\":1390:1402   */\n      swap1\n      pop\n        /* \"lib/Constants.sol\":1328:1405   */\n      swap1\n      jump\t// out\n        /* \"lib/Constants.sol\":659:742   */\n    tag_28:\n        /* \"lib/Constants.sol\":699:706   */\n      0x00\n        /* \"lib/Constants.sol\":734:736   */\n      0x12\n        /* \"lib/Constants.sol\":722:724   */\n      0x0a\n        /* \"lib/Constants.sol\":722:737   */\n      exp\n        /* \"lib/Constants.sol\":717:720   */\n      0x64\n        /* \"lib/Constants.sol\":717:738   */\n      mul\n        /* \"lib/Constants.sol\":710:739   */\n      swap1\n      pop\n        /* \"lib/Constants.sol\":659:742   */\n      swap1\n      jump\t// out\n        /* \"lib/Constants.sol\":1115:1182   */\n    tag_30:\n        /* \"lib/Constants.sol\":1159:1166   */\n      0x00\n        /* \"lib/Constants.sol\":1177:1178   */\n      0x05\n        /* \"lib/Constants.sol\":1170:1179   */\n      swap1\n      pop\n        /* \"lib/Constants.sol\":1115:1182   */\n      swap1\n      jump\t// out\n        /* \"lib/Constants.sol\":86:144   */\n    tag_32:\n        /* \"lib/Constants.sol\":124:129   */\n      0x00\n        /* \"lib/Constants.sol\":140:141   */\n      dup1\n        /* \"lib/Constants.sol\":133:142   */\n      swap1\n      pop\n        /* \"lib/Constants.sol\":86:144   */\n      swap1\n      jump\t// out\n        /* \"lib/Constants.sol\":1187:1254   */\n    tag_34:\n        /* \"lib/Constants.sol\":1230:1237   */\n      0x00\n        /* \"lib/Constants.sol\":1248:1250   */\n      0x28\n        /* \"lib/Constants.sol\":1241:1251   */\n      swap1\n      pop\n        /* \"lib/Constants.sol\":1187:1254   */\n      swap1\n      jump\t// out\n        /* \"lib/Constants.sol\":149:207   */\n    tag_36:\n        /* \"lib/Constants.sol\":187:192   */\n      0x00\n        /* \"lib/Constants.sol\":203:204   */\n      0x01\n        /* \"lib/Constants.sol\":196:205   */\n      swap1\n      pop\n        /* \"lib/Constants.sol\":149:207   */\n      swap1\n      jump\t// out\n        /* \"lib/Constants.sol\":383:457   */\n    tag_38:\n        /* \"lib/Constants.sol\":434:441   */\n      0x00\n        /* \"lib/Constants.sol\":453:454   */\n      0x01\n        /* \"lib/Constants.sol\":445:455   */\n      swap1\n      pop\n        /* \"lib/Constants.sol\":383:457   */\n      swap1\n      jump\t// out\n        /* \"lib/Constants.sol\":462:543   */\n    tag_40:\n        /* \"lib/Constants.sol\":515:522   */\n      0x00\n        /* \"lib/Constants.sol\":534:539   */\n      0x2710\n        /* \"lib/Constants.sol\":526:540   */\n      swap1\n      pop\n        /* \"lib/Constants.sol\":462:543   */\n      swap1\n      jump\t// out\n        /* \"lib/Constants.sol\":212:271   */\n    tag_42:\n        /* \"lib/Constants.sol\":251:256   */\n      0x00\n        /* \"lib/Constants.sol\":267:268   */\n      0x02\n        /* \"lib/Constants.sol\":260:269   */\n      swap1\n      pop\n        /* \"lib/Constants.sol\":212:271   */\n      swap1\n      jump\t// out\n        /* \"lib/Constants.sol\":276:335   */\n    tag_44:\n        /* \"lib/Constants.sol\":315:320   */\n      0x00\n        /* \"lib/Constants.sol\":331:332   */\n      0x03\n        /* \"lib/Constants.sol\":324:333   */\n      swap1\n      pop\n        /* \"lib/Constants.sol\":276:335   */\n      swap1\n      jump\t// out\n        /* \"lib/Constants.sol\":1259:1323   */\n    tag_46:\n        /* \"lib/Constants.sol\":1300:1307   */\n      0x00\n        /* \"lib/Constants.sol\":1318:1319   */\n      0x04\n        /* \"lib/Constants.sol\":1311:1320   */\n      swap1\n      pop\n        /* \"lib/Constants.sol\":1259:1323   */\n      swap1\n      jump\t// out\n\n    auxdata: 0xa2646970667358221220e9cd513bb7adbe1e7ae6897c9de53df85f39ec71db2502c07dc7b9eeaf9d138364736f6c634300060b0033\n}\n","bytecode":{"linkReferences":{},"object":"610376610026600b82828239805160001a60731461001957fe5b30600052607381538281f3fe73000000000000000000000000000000000000000030146080604052600436106100f45760003560e01c806357d775f811610096578063b1cc450011610070578063b1cc450014610231578063c198f8ba1461024f578063f240f7c314610273578063f4f29c5b14610297576100f4565b806357d775f8146101d1578063a475b5dd146101ef578063a86f5a3f14610213576100f4565b80633002c9ac116100d25780633002c9ac14610153578063375b3c0a14610171578063379597e01461018f5780633c7a3aff146101ad576100f4565b80630ac168a1146100f95780632628490f1461011757806326bf1c0314610135575b600080fd5b6101016102b5565b6040518082815260200191505060405180910390f35b61011f6102c4565b6040518082815260200191505060405180910390f35b61013d6102cd565b6040518082815260200191505060405180910390f35b61015b6102d6565b6040518082815260200191505060405180910390f35b6101796102e0565b6040518082815260200191505060405180910390f35b6101976102ef565b6040518082815260200191505060405180910390f35b6101b56102f8565b604051808260ff1660ff16815260200191505060405180910390f35b6101d9610300565b6040518082815260200191505060405180910390f35b6101f7610309565b604051808260ff1660ff16815260200191505060405180910390f35b61021b610312565b6040518082815260200191505060405180910390f35b61023961031b565b6040518082815260200191505060405180910390f35b610257610325565b604051808260ff1660ff16815260200191505060405180910390f35b61027b61032e565b604051808260ff1660ff16815260200191505060405180910390f35b61029f610337565b6040518082815260200191505060405180910390f35b60006012600a0a602802905090565b60006001905090565b60006001905090565b60006103e8905090565b60006012600a0a606402905090565b60006005905090565b600080905090565b60006028905090565b60006001905090565b60006001905090565b6000612710905090565b60006002905090565b60006003905090565b6000600490509056fea2646970667358221220e9cd513bb7adbe1e7ae6897c9de53df85f39ec71db2502c07dc7b9eeaf9d138364736f6c634300060b0033","opcodes":"PUSH2 0x376 PUSH2 0x26 PUSH1 0xB DUP3 DUP3 DUP3 CODECOPY DUP1 MLOAD PUSH1 0x0 BYTE PUSH1 0x73 EQ PUSH2 0x19 JUMPI INVALID JUMPDEST ADDRESS PUSH1 0x0 MSTORE PUSH1 0x73 DUP2 MSTORE8 DUP3 DUP2 RETURN INVALID PUSH20 0x0 ADDRESS EQ PUSH1 0x80 PUSH1 0x40 MSTORE PUSH1 0x4 CALLDATASIZE LT PUSH2 0xF4 JUMPI PUSH1 0x0 CALLDATALOAD PUSH1 0xE0 SHR DUP1 PUSH4 0x57D775F8 GT PUSH2 0x96 JUMPI DUP1 PUSH4 0xB1CC4500 GT PUSH2 0x70 JUMPI DUP1 PUSH4 0xB1CC4500 EQ PUSH2 0x231 JUMPI DUP1 PUSH4 0xC198F8BA EQ PUSH2 0x24F JUMPI DUP1 PUSH4 0xF240F7C3 EQ PUSH2 0x273 JUMPI DUP1 PUSH4 0xF4F29C5B EQ PUSH2 0x297 JUMPI PUSH2 0xF4 JUMP JUMPDEST DUP1 PUSH4 0x57D775F8 EQ PUSH2 0x1D1 JUMPI DUP1 PUSH4 0xA475B5DD EQ PUSH2 0x1EF JUMPI DUP1 PUSH4 0xA86F5A3F EQ PUSH2 0x213 JUMPI PUSH2 0xF4 JUMP JUMPDEST DUP1 PUSH4 0x3002C9AC GT PUSH2 0xD2 JUMPI DUP1 PUSH4 0x3002C9AC EQ PUSH2 0x153 JUMPI DUP1 PUSH4 0x375B3C0A EQ PUSH2 0x171 JUMPI DUP1 PUSH4 0x379597E0 EQ PUSH2 0x18F JUMPI DUP1 PUSH4 0x3C7A3AFF EQ PUSH2 0x1AD JUMPI PUSH2 0xF4 JUMP JUMPDEST DUP1 PUSH4 0xAC168A1 EQ PUSH2 0xF9 JUMPI DUP1 PUSH4 0x2628490F EQ PUSH2 0x117 JUMPI DUP1 PUSH4 0x26BF1C03 EQ PUSH2 0x135 JUMPI JUMPDEST PUSH1 0x0 DUP1 REVERT JUMPDEST PUSH2 0x101 PUSH2 0x2B5 JUMP JUMPDEST PUSH1 0x40 MLOAD DUP1 DUP3 DUP2 MSTORE PUSH1 0x20 ADD SWAP2 POP POP PUSH1 0x40 MLOAD DUP1 SWAP2 SUB SWAP1 RETURN JUMPDEST PUSH2 0x11F PUSH2 0x2C4 JUMP JUMPDEST PUSH1 0x40 MLOAD DUP1 DUP3 DUP2 MSTORE PUSH1 0x20 ADD SWAP2 POP POP PUSH1 0x40 MLOAD DUP1 SWAP2 SUB SWAP1 RETURN JUMPDEST PUSH2 0x13D PUSH2 0x2CD JUMP JUMPDEST PUSH1 0x40 MLOAD DUP1 DUP3 DUP2 MSTORE PUSH1 0x20 ADD SWAP2 POP POP PUSH1 0x40 MLOAD DUP1 SWAP2 SUB SWAP1 RETURN JUMPDEST PUSH2 0x15B PUSH2 0x2D6 JUMP JUMPDEST PUSH1 0x40 MLOAD DUP1 DUP3 DUP2 MSTORE PUSH1 0x20 ADD SWAP2 POP POP PUSH1 0x40 MLOAD DUP1 SWAP2 SUB SWAP1 RETURN JUMPDEST PUSH2 0x179 PUSH2 0x2E0 JUMP JUMPDEST PUSH1 0x40 MLOAD DUP1 DUP3 DUP2 MSTORE PUSH1 0x20 ADD SWAP2 POP POP PUSH1 0x40 MLOAD DUP1 SWAP2 SUB SWAP1 RETURN JUMPDEST PUSH2 0x197 PUSH2 0x2EF JUMP JUMPDEST PUSH1 0x40 MLOAD DUP1 DUP3 DUP2 MSTORE PUSH1 0x20 ADD SWAP2 POP POP PUSH1 0x40 MLOAD DUP1 SWAP2 SUB SWAP1 RETURN JUMPDEST PUSH2 0x1B5 PUSH2 0x2F8 JUMP JUMPDEST PUSH1 0x40 MLOAD DUP1 DUP3 PUSH1 0xFF AND PUSH1 0xFF AND DUP2 MSTORE PUSH1 0x20 ADD SWAP2 POP POP PUSH1 0x40 MLOAD DUP1 SWAP2 SUB SWAP1 RETURN JUMPDEST PUSH2 0x1D9 PUSH2 0x300 JUMP JUMPDEST PUSH1 0x40 MLOAD DUP1 DUP3 DUP2 MSTORE PUSH1 0x20 ADD SWAP2 POP POP PUSH1 0x40 MLOAD DUP1 SWAP2 SUB SWAP1 RETURN JUMPDEST PUSH2 0x1F7 PUSH2 0x309 JUMP JUMPDEST PUSH1 0x40 MLOAD DUP1 DUP3 PUSH1 0xFF AND PUSH1 0xFF AND DUP2 MSTORE PUSH1 0x20 ADD SWAP2 POP POP PUSH1 0x40 MLOAD DUP1 SWAP2 SUB SWAP1 RETURN JUMPDEST PUSH2 0x21B PUSH2 0x312 JUMP JUMPDEST PUSH1 0x40 MLOAD DUP1 DUP3 DUP2 MSTORE PUSH1 0x20 ADD SWAP2 POP POP PUSH1 0x40 MLOAD DUP1 SWAP2 SUB SWAP1 RETURN JUMPDEST PUSH2 0x239 PUSH2 0x31B JUMP JUMPDEST PUSH1 0x40 MLOAD DUP1 DUP3 DUP2 MSTORE PUSH1 0x20 ADD SWAP2 POP POP PUSH1 0x40 MLOAD DUP1 SWAP2 SUB SWAP1 RETURN JUMPDEST PUSH2 0x257 PUSH2 0x325 JUMP JUMPDEST PUSH1 0x40 MLOAD DUP1 DUP3 PUSH1 0xFF AND PUSH1 0xFF AND DUP2 MSTORE PUSH1 0x20 ADD SWAP2 POP POP PUSH1 0x40 MLOAD DUP1 SWAP2 SUB SWAP1 RETURN JUMPDEST PUSH2 0x27B PUSH2 0x32E JUMP JUMPDEST PUSH1 0x40 MLOAD DUP1 DUP3 PUSH1 0xFF AND PUSH1 0xFF AND DUP2 MSTORE PUSH1 0x20 ADD SWAP2 POP POP PUSH1 0x40 MLOAD DUP1 SWAP2 SUB SWAP1 RETURN JUMPDEST PUSH2 0x29F PUSH2 0x337 JUMP JUMPDEST PUSH1 0x40 MLOAD DUP1 DUP3 DUP2 MSTORE PUSH1 0x20 ADD SWAP2 POP POP PUSH1 0x40 MLOAD DUP1 SWAP2 SUB SWAP1 RETURN JUMPDEST PUSH1 0x0 PUSH1 0x12 PUSH1 0xA EXP PUSH1 0x28 MUL SWAP1 POP SWAP1 JUMP JUMPDEST PUSH1 0x0 PUSH1 0x1 SWAP1 POP SWAP1 JUMP JUMPDEST PUSH1 0x0 PUSH1 0x1 SWAP1 POP SWAP1 JUMP JUMPDEST PUSH1 0x0 PUSH2 0x3E8 SWAP1 POP SWAP1 JUMP JUMPDEST PUSH1 0x0 PUSH1 0x12 PUSH1 0xA EXP PUSH1 0x64 MUL SWAP1 POP SWAP1 JUMP JUMPDEST PUSH1 0x0 PUSH1 0x5 SWAP1 POP SWAP1 JUMP JUMPDEST PUSH1 0x0 DUP1 SWAP1 POP SWAP1 JUMP JUMPDEST PUSH1 0x0 PUSH1 0x28 SWAP1 POP SWAP1 JUMP JUMPDEST PUSH1 0x0 PUSH1 0x1 SWAP1 POP SWAP1 JUMP JUMPDEST PUSH1 0x0 PUSH1 0x1 SWAP1 POP SWAP1 JUMP JUMPDEST PUSH1 0x0 PUSH2 0x2710 SWAP1 POP SWAP1 JUMP JUMPDEST PUSH1 0x0 PUSH1 0x2 SWAP1 POP SWAP1 JUMP JUMPDEST PUSH1 0x0 PUSH1 0x3 SWAP1 POP SWAP1 JUMP JUMPDEST PUSH1 0x0 PUSH1 0x4 SWAP1 POP SWAP1 JUMP INVALID LOG2 PUSH5 0x6970667358 0x22 SLT KECCAK256 0xE9 0xCD MLOAD EXTCODESIZE 0xB7 0xAD 0xBE 0x1E PUSH27 0xE6897C9DE53DF85F39EC71DB2502C07DC7B9EEAF9D138364736F6C PUSH4 0x4300060B STOP CALLER "},"gasEstimates":{"creation":{"codeDepositCost":"177200","executionCost":"248","totalCost":"177448"},"external":{"blockReward()":"292","commit()":"298","dispute()":"275","epochLength()":"220","exposureDenominator()":"220","maxAltBlocks()":"264","minStake()":"313","numStates()":"285","penaltyNotRevealDenom()":"219","penaltyNotRevealNum()":"264","propose()":"253","reveal()":"254","unstakeLockPeriod()":"265","withdrawLockPeriod()":"243"}},"methodIdentifiers":{"blockReward()":"0ac168a1","commit()":"3c7a3aff","dispute()":"f240f7c3","epochLength()":"57d775f8","exposureDenominator()":"3002c9ac","maxAltBlocks()":"379597e0","minStake()":"375b3c0a","numStates()":"f4f29c5b","penaltyNotRevealDenom()":"b1cc4500","penaltyNotRevealNum()":"a86f5a3f","propose()":"c198f8ba","reveal()":"a475b5dd","unstakeLockPeriod()":"26bf1c03","withdrawLockPeriod()":"2628490f"}},"storageLayout":{"storage":[],"types":null},"userdoc":{"kind":"user","methods":{},"version":1}}