{"abi":[{"inputs":[{"internalType":"string","name":"name","type":"string"},{"internalType":"string","name":"symbol","type":"string"}],"stateMutability":"nonpayable","type":"constructor"},{"anonymous":false,"inputs":[{"indexed":true,"internalType":"address","name":"owner","type":"address"},{"indexed":true,"internalType":"address","name":"spender","type":"address"},{"indexed":false,"internalType":"uint256","name":"value","type":"uint256"}],"name":"Approval","type":"event"},{"anonymous":false,"inputs":[{"indexed":true,"internalType":"address","name":"from","type":"address"},{"indexed":true,"internalType":"address","name":"to","type":"address"},{"indexed":false,"internalType":"uint256","name":"value","type":"uint256"}],"name":"Transfer","type":"event"},{"inputs":[{"internalType":"address","name":"owner","type":"address"},{"internalType":"address","name":"spender","type":"address"}],"name":"allowance","outputs":[{"internalType":"uint256","name":"","type":"uint256"}],"stateMutability":"view","type":"function"},{"inputs":[{"internalType":"address","name":"spender","type":"address"},{"internalType":"uint256","name":"amount","type":"uint256"}],"name":"approve","outputs":[{"internalType":"bool","name":"","type":"bool"}],"stateMutability":"nonpayable","type":"function"},{"inputs":[{"internalType":"address","name":"account","type":"address"}],"name":"balanceOf","outputs":[{"internalType":"uint256","name":"","type":"uint256"}],"stateMutability":"view","type":"function"},{"inputs":[],"name":"decimals","outputs":[{"internalType":"uint8","name":"","type":"uint8"}],"stateMutability":"view","type":"function"},{"inputs":[{"internalType":"address","name":"spender","type":"address"},{"internalType":"uint256","name":"subtractedValue","type":"uint256"}],"name":"decreaseAllowance","outputs":[{"internalType":"bool","name":"","type":"bool"}],"stateMutability":"nonpayable","type":"function"},{"inputs":[{"internalType":"address","name":"spender","type":"address"},{"internalType":"uint256","name":"addedValue","type":"uint256"}],"name":"increaseAllowance","outputs":[{"internalType":"bool","name":"","type":"bool"}],"stateMutability":"nonpayable","type":"function"},{"inputs":[],"name":"name","outputs":[{"internalType":"string","name":"","type":"string"}],"stateMutability":"view","type":"function"},{"inputs":[],"name":"symbol","outputs":[{"internalType":"string","name":"","type":"string"}],"stateMutability":"view","type":"function"},{"inputs":[],"name":"totalSupply","outputs":[{"internalType":"uint256","name":"","type":"uint256"}],"stateMutability":"view","type":"function"},{"inputs":[{"internalType":"address","name":"recipient","type":"address"},{"internalType":"uint256","name":"amount","type":"uint256"}],"name":"transfer","outputs":[{"internalType":"bool","name":"","type":"bool"}],"stateMutability":"nonpayable","type":"function"},{"inputs":[{"internalType":"address","name":"sender","type":"address"},{"internalType":"address","name":"recipient","type":"address"},{"internalType":"uint256","name":"amount","type":"uint256"}],"name":"transferFrom","outputs":[{"internalType":"bool","name":"","type":"bool"}],"stateMutability":"nonpayable","type":"function"}],"devdoc":{"details":"Implementation of the {IERC20} interface. This implementation is agnostic to the way tokens are created. This means that a supply mechanism has to be added in a derived contract using {_mint}. For a generic mechanism see {ERC20PresetMinterPauser}. TIP: For a detailed writeup see our guide https://forum.zeppelin.solutions/t/how-to-implement-erc20-supply-mechanisms/226[How to implement supply mechanisms]. We have followed general OpenZeppelin guidelines: functions revert instead of returning `false` on failure. This behavior is nonetheless conventional and does not conflict with the expectations of ERC20 applications. Additionally, an {Approval} event is emitted on calls to {transferFrom}. This allows applications to reconstruct the allowance for all accounts just by listening to said events. Other implementations of the EIP may not emit these events, as it isn't required by the specification. Finally, the non-standard {decreaseAllowance} and {increaseAllowance} functions have been added to mitigate the well-known issues around setting allowances. See {IERC20-approve}.","kind":"dev","methods":{"allowance(address,address)":{"details":"See {IERC20-allowance}."},"approve(address,uint256)":{"details":"See {IERC20-approve}. Requirements: - `spender` cannot be the zero address."},"balanceOf(address)":{"details":"See {IERC20-balanceOf}."},"constructor":{"details":"Sets the values for {name} and {symbol}, initializes {decimals} with a default value of 18. To select a different value for {decimals}, use {_setupDecimals}. All three of these values are immutable: they can only be set once during construction."},"decimals()":{"details":"Returns the number of decimals used to get its user representation. For example, if `decimals` equals `2`, a balance of `505` tokens should be displayed to a user as `5,05` (`505 / 10 ** 2`). Tokens usually opt for a value of 18, imitating the relationship between Ether and Wei. This is the value {ERC20} uses, unless {_setupDecimals} is called. NOTE: This information is only used for _display_ purposes: it in no way affects any of the arithmetic of the contract, including {IERC20-balanceOf} and {IERC20-transfer}."},"decreaseAllowance(address,uint256)":{"details":"Atomically decreases the allowance granted to `spender` by the caller. This is an alternative to {approve} that can be used as a mitigation for problems described in {IERC20-approve}. Emits an {Approval} event indicating the updated allowance. Requirements: - `spender` cannot be the zero address. - `spender` must have allowance for the caller of at least `subtractedValue`."},"increaseAllowance(address,uint256)":{"details":"Atomically increases the allowance granted to `spender` by the caller. This is an alternative to {approve} that can be used as a mitigation for problems described in {IERC20-approve}. Emits an {Approval} event indicating the updated allowance. Requirements: - `spender` cannot be the zero address."},"name()":{"details":"Returns the name of the token."},"symbol()":{"details":"Returns the symbol of the token, usually a shorter version of the name."},"totalSupply()":{"details":"See {IERC20-totalSupply}."},"transfer(address,uint256)":{"details":"See {IERC20-transfer}. Requirements: - `recipient` cannot be the zero address. - the caller must have a balance of at least `amount`."},"transferFrom(address,address,uint256)":{"details":"See {IERC20-transferFrom}. Emits an {Approval} event indicating the updated allowance. This is not required by the EIP. See the note at the beginning of {ERC20}; Requirements: - `sender` and `recipient` cannot be the zero address. - `sender` must have a balance of at least `amount`. - the caller must have allowance for ``sender``'s tokens of at least `amount`."}},"version":1},"evm":{"assembly":"    /* \"openzeppelin-solidity/contracts/token/ERC20/ERC20.sol\":1345:10791   */\n  mstore(0x40, 0x80)\n    /* \"openzeppelin-solidity/contracts/token/ERC20/ERC20.sol\":2013:2154   */\n  callvalue\n  dup1\n  iszero\n  tag_1\n  jumpi\n  0x00\n  dup1\n  revert\ntag_1:\n  pop\n  mload(0x40)\n  sub(codesize, bytecodeSize)\n  dup1\n  bytecodeSize\n  dup4\n  codecopy\n  dup2\n  dup2\n  add\n  0x40\n  mstore\n  0x40\n  dup2\n  lt\n  iszero\n  tag_2\n  jumpi\n  0x00\n  dup1\n  revert\ntag_2:\n  dup2\n  add\n  swap1\n  dup1\n  dup1\n  mload\n  mload(0x40)\n  swap4\n  swap3\n  swap2\n  swap1\n  dup5\n  0x0100000000\n  dup3\n  gt\n  iszero\n  tag_3\n  jumpi\n  0x00\n  dup1\n  revert\ntag_3:\n  dup4\n  dup3\n  add\n  swap2\n  pop\n  0x20\n  dup3\n  add\n  dup6\n  dup2\n  gt\n  iszero\n  tag_4\n  jumpi\n  0x00\n  dup1\n  revert\ntag_4:\n  dup3\n  mload\n  dup7\n  0x01\n  dup3\n  mul\n  dup4\n  add\n  gt\n  0x0100000000\n  dup3\n  gt\n  or\n  iszero\n  tag_5\n  jumpi\n  0x00\n  dup1\n  revert\ntag_5:\n  dup1\n  dup4\n  mstore\n  0x20\n  dup4\n  add\n  swap3\n  pop\n  pop\n  pop\n  swap1\n  dup1\n  mload\n  swap1\n  0x20\n  add\n  swap1\n  dup1\n  dup4\n  dup4\n  0x00\ntag_6:\n  dup4\n  dup2\n  lt\n  iszero\n  tag_8\n  jumpi\n  dup1\n  dup3\n  add\n  mload\n  dup2\n  dup5\n  add\n  mstore\n  0x20\n  dup2\n  add\n  swap1\n  pop\n  jump(tag_6)\ntag_8:\n  pop\n  pop\n  pop\n  pop\n  swap1\n  pop\n  swap1\n  dup2\n  add\n  swap1\n  0x1f\n  and\n  dup1\n  iszero\n  tag_9\n  jumpi\n  dup1\n  dup3\n  sub\n  dup1\n  mload\n  0x01\n  dup4\n  0x20\n  sub\n  0x0100\n  exp\n  sub\n  not\n  and\n  dup2\n  mstore\n  0x20\n  add\n  swap2\n  pop\ntag_9:\n  pop\n  0x40\n  mstore\n  0x20\n  add\n  dup1\n  mload\n  mload(0x40)\n  swap4\n  swap3\n  swap2\n  swap1\n  dup5\n  0x0100000000\n  dup3\n  gt\n  iszero\n  tag_10\n  jumpi\n  0x00\n  dup1\n  revert\ntag_10:\n  dup4\n  dup3\n  add\n  swap2\n  pop\n  0x20\n  dup3\n  add\n  dup6\n  dup2\n  gt\n  iszero\n  tag_11\n  jumpi\n  0x00\n  dup1\n  revert\ntag_11:\n  dup3\n  mload\n  dup7\n  0x01\n  dup3\n  mul\n  dup4\n  add\n  gt\n  0x0100000000\n  dup3\n  gt\n  or\n  iszero\n  tag_12\n  jumpi\n  0x00\n  dup1\n  revert\ntag_12:\n  dup1\n  dup4\n  mstore\n  0x20\n  dup4\n  add\n  swap3\n  pop\n  pop\n  pop\n  swap1\n  dup1\n  mload\n  swap1\n  0x20\n  add\n  swap1\n  dup1\n  dup4\n  dup4\n  0x00\ntag_13:\n  dup4\n  dup2\n  lt\n  iszero\n  tag_15\n  jumpi\n  dup1\n  dup3\n  add\n  mload\n  dup2\n  dup5\n  add\n  mstore\n  0x20\n  dup2\n  add\n  swap1\n  pop\n  jump(tag_13)\ntag_15:\n  pop\n  pop\n  pop\n  pop\n  swap1\n  pop\n  swap1\n  dup2\n  add\n  swap1\n  0x1f\n  and\n  dup1\n  iszero\n  tag_16\n  jumpi\n  dup1\n  dup3\n  sub\n  dup1\n  mload\n  0x01\n  dup4\n  0x20\n  sub\n  0x0100\n  exp\n  sub\n  not\n  and\n  dup2\n  mstore\n  0x20\n  add\n  swap2\n  pop\ntag_16:\n  pop\n  0x40\n  mstore\n  pop\n  pop\n  pop\n    /* \"openzeppelin-solidity/contracts/token/ERC20/ERC20.sol\":2093:2097   */\n  dup2\n    /* \"openzeppelin-solidity/contracts/token/ERC20/ERC20.sol\":2085:2090   */\n  0x03\n    /* \"openzeppelin-solidity/contracts/token/ERC20/ERC20.sol\":2085:2097   */\n  swap1\n  dup1\n  mload\n  swap1\n  0x20\n  add\n  swap1\n  tag_19\n  swap3\n  swap2\n  swap1\n  tag_20\n  jump\t// in\ntag_19:\n  pop\n    /* \"openzeppelin-solidity/contracts/token/ERC20/ERC20.sol\":2117:2123   */\n  dup1\n    /* \"openzeppelin-solidity/contracts/token/ERC20/ERC20.sol\":2107:2114   */\n  0x04\n    /* \"openzeppelin-solidity/contracts/token/ERC20/ERC20.sol\":2107:2123   */\n  swap1\n  dup1\n  mload\n  swap1\n  0x20\n  add\n  swap1\n  tag_21\n  swap3\n  swap2\n  swap1\n  tag_20\n  jump\t// in\ntag_21:\n  pop\n    /* \"openzeppelin-solidity/contracts/token/ERC20/ERC20.sol\":2145:2147   */\n  0x12\n    /* \"openzeppelin-solidity/contracts/token/ERC20/ERC20.sol\":2133:2142   */\n  0x05\n  0x00\n    /* \"openzeppelin-solidity/contracts/token/ERC20/ERC20.sol\":2133:2147   */\n  0x0100\n  exp\n  dup2\n  sload\n  dup2\n  0xff\n  mul\n  not\n  and\n  swap1\n  dup4\n  0xff\n  and\n  mul\n  or\n  swap1\n  sstore\n  pop\n    /* \"openzeppelin-solidity/contracts/token/ERC20/ERC20.sol\":2013:2154   */\n  pop\n  pop\n    /* \"openzeppelin-solidity/contracts/token/ERC20/ERC20.sol\":1345:10791   */\n  jump(tag_22)\ntag_20:\n  dup3\n  dup1\n  sload\n  0x01\n  dup2\n  0x01\n  and\n  iszero\n  0x0100\n  mul\n  sub\n  and\n  0x02\n  swap1\n  div\n  swap1\n  0x00\n  mstore\n  keccak256(0x00, 0x20)\n  swap1\n  0x1f\n  add\n  0x20\n  swap1\n  div\n  dup2\n  add\n  swap3\n  dup3\n  0x1f\n  lt\n  tag_24\n  jumpi\n  dup1\n  mload\n  not(0xff)\n  and\n  dup4\n  dup1\n  add\n  or\n  dup6\n  sstore\n  jump(tag_23)\ntag_24:\n  dup3\n  dup1\n  add\n  0x01\n  add\n  dup6\n  sstore\n  dup3\n  iszero\n  tag_23\n  jumpi\n  swap2\n  dup3\n  add\ntag_25:\n  dup3\n  dup2\n  gt\n  iszero\n  tag_26\n  jumpi\n  dup3\n  mload\n  dup3\n  sstore\n  swap2\n  0x20\n  add\n  swap2\n  swap1\n  0x01\n  add\n  swap1\n  jump(tag_25)\ntag_26:\ntag_23:\n  pop\n  swap1\n  pop\n  tag_27\n  swap2\n  swap1\n  tag_28\n  jump\t// in\ntag_27:\n  pop\n  swap1\n  jump\t// out\ntag_28:\n  tag_29\n  swap2\n  swap1\ntag_30:\n  dup1\n  dup3\n  gt\n  iszero\n  tag_31\n  jumpi\n  0x00\n  dup2\n  0x00\n  swap1\n  sstore\n  pop\n  0x01\n  add\n  jump(tag_30)\ntag_31:\n  pop\n  swap1\n  jump\ntag_29:\n  swap1\n  jump\t// out\ntag_22:\n  dataSize(sub_0)\n  dup1\n  dataOffset(sub_0)\n  0x00\n  codecopy\n  0x00\n  return\nstop\n\nsub_0: assembly {\n        /* \"openzeppelin-solidity/contracts/token/ERC20/ERC20.sol\":1345:10791   */\n      mstore(0x40, 0x80)\n      callvalue\n      dup1\n      iszero\n      tag_1\n      jumpi\n      0x00\n      dup1\n      revert\n    tag_1:\n      pop\n      jumpi(tag_2, lt(calldatasize, 0x04))\n      shr(0xe0, calldataload(0x00))\n      dup1\n      0x39509351\n      gt\n      tag_14\n      jumpi\n      dup1\n      0x39509351\n      eq\n      tag_8\n      jumpi\n      dup1\n      0x70a08231\n      eq\n      tag_9\n      jumpi\n      dup1\n      0x95d89b41\n      eq\n      tag_10\n      jumpi\n      dup1\n      0xa457c2d7\n      eq\n      tag_11\n      jumpi\n      dup1\n      0xa9059cbb\n      eq\n      tag_12\n      jumpi\n      dup1\n      0xdd62ed3e\n      eq\n      tag_13\n      jumpi\n      jump(tag_2)\n    tag_14:\n      dup1\n      0x06fdde03\n      eq\n      tag_3\n      jumpi\n      dup1\n      0x095ea7b3\n      eq\n      tag_4\n      jumpi\n      dup1\n      0x18160ddd\n      eq\n      tag_5\n      jumpi\n      dup1\n      0x23b872dd\n      eq\n      tag_6\n      jumpi\n      dup1\n      0x313ce567\n      eq\n      tag_7\n      jumpi\n    tag_2:\n      0x00\n      dup1\n      revert\n        /* \"openzeppelin-solidity/contracts/token/ERC20/ERC20.sol\":2219:2300   */\n    tag_3:\n      tag_15\n      tag_16\n      jump\t// in\n    tag_15:\n      mload(0x40)\n      dup1\n      dup1\n      0x20\n      add\n      dup3\n      dup2\n      sub\n      dup3\n      mstore\n      dup4\n      dup2\n      dup2\n      mload\n      dup2\n      mstore\n      0x20\n      add\n      swap2\n      pop\n      dup1\n      mload\n      swap1\n      0x20\n      add\n      swap1\n      dup1\n      dup4\n      dup4\n      0x00\n    tag_17:\n      dup4\n      dup2\n      lt\n      iszero\n      tag_19\n      jumpi\n      dup1\n      dup3\n      add\n      mload\n      dup2\n      dup5\n      add\n      mstore\n      0x20\n      dup2\n      add\n      swap1\n      pop\n      jump(tag_17)\n    tag_19:\n      pop\n      pop\n      pop\n      pop\n      swap1\n      pop\n      swap1\n      dup2\n      add\n      swap1\n      0x1f\n      and\n      dup1\n      iszero\n      tag_20\n      jumpi\n      dup1\n      dup3\n      sub\n      dup1\n      mload\n      0x01\n      dup4\n      0x20\n      sub\n      0x0100\n      exp\n      sub\n      not\n      and\n      dup2\n      mstore\n      0x20\n      add\n      swap2\n      pop\n    tag_20:\n      pop\n      swap3\n      pop\n      pop\n      pop\n      mload(0x40)\n      dup1\n      swap2\n      sub\n      swap1\n      return\n        /* \"openzeppelin-solidity/contracts/token/ERC20/ERC20.sol\":4255:4421   */\n    tag_4:\n      tag_21\n      0x04\n      dup1\n      calldatasize\n      sub\n      0x40\n      dup2\n      lt\n      iszero\n      tag_22\n      jumpi\n      0x00\n      dup1\n      revert\n    tag_22:\n      dup2\n      add\n      swap1\n      dup1\n      dup1\n      calldataload\n      0xffffffffffffffffffffffffffffffffffffffff\n      and\n      swap1\n      0x20\n      add\n      swap1\n      swap3\n      swap2\n      swap1\n      dup1\n      calldataload\n      swap1\n      0x20\n      add\n      swap1\n      swap3\n      swap2\n      swap1\n      pop\n      pop\n      pop\n      tag_23\n      jump\t// in\n    tag_21:\n      mload(0x40)\n      dup1\n      dup3\n      iszero\n      iszero\n      iszero\n      iszero\n      dup2\n      mstore\n      0x20\n      add\n      swap2\n      pop\n      pop\n      mload(0x40)\n      dup1\n      swap2\n      sub\n      swap1\n      return\n        /* \"openzeppelin-solidity/contracts/token/ERC20/ERC20.sol\":3262:3360   */\n    tag_5:\n      tag_24\n      tag_25\n      jump\t// in\n    tag_24:\n      mload(0x40)\n      dup1\n      dup3\n      dup2\n      mstore\n      0x20\n      add\n      swap2\n      pop\n      pop\n      mload(0x40)\n      dup1\n      swap2\n      sub\n      swap1\n      return\n        /* \"openzeppelin-solidity/contracts/token/ERC20/ERC20.sol\":4881:5198   */\n    tag_6:\n      tag_26\n      0x04\n      dup1\n      calldatasize\n      sub\n      0x60\n      dup2\n      lt\n      iszero\n      tag_27\n      jumpi\n      0x00\n      dup1\n      revert\n    tag_27:\n      dup2\n      add\n      swap1\n      dup1\n      dup1\n      calldataload\n      0xffffffffffffffffffffffffffffffffffffffff\n      and\n      swap1\n      0x20\n      add\n      swap1\n      swap3\n      swap2\n      swap1\n      dup1\n      calldataload\n      0xffffffffffffffffffffffffffffffffffffffff\n      and\n      swap1\n      0x20\n      add\n      swap1\n      swap3\n      swap2\n      swap1\n      dup1\n      calldataload\n      swap1\n      0x20\n      add\n      swap1\n      swap3\n      swap2\n      swap1\n      pop\n      pop\n      pop\n      tag_28\n      jump\t// in\n    tag_26:\n      mload(0x40)\n      dup1\n      dup3\n      iszero\n      iszero\n      iszero\n      iszero\n      dup2\n      mstore\n      0x20\n      add\n      swap2\n      pop\n      pop\n      mload(0x40)\n      dup1\n      swap2\n      sub\n      swap1\n      return\n        /* \"openzeppelin-solidity/contracts/token/ERC20/ERC20.sol\":3121:3202   */\n    tag_7:\n      tag_29\n      tag_30\n      jump\t// in\n    tag_29:\n      mload(0x40)\n      dup1\n      dup3\n      0xff\n      and\n      0xff\n      and\n      dup2\n      mstore\n      0x20\n      add\n      swap2\n      pop\n      pop\n      mload(0x40)\n      dup1\n      swap2\n      sub\n      swap1\n      return\n        /* \"openzeppelin-solidity/contracts/token/ERC20/ERC20.sol\":5593:5808   */\n    tag_8:\n      tag_31\n      0x04\n      dup1\n      calldatasize\n      sub\n      0x40\n      dup2\n      lt\n      iszero\n      tag_32\n      jumpi\n      0x00\n      dup1\n      revert\n    tag_32:\n      dup2\n      add\n      swap1\n      dup1\n      dup1\n      calldataload\n      0xffffffffffffffffffffffffffffffffffffffff\n      and\n      swap1\n      0x20\n      add\n      swap1\n      swap3\n      swap2\n      swap1\n      dup1\n      calldataload\n      swap1\n      0x20\n      add\n      swap1\n      swap3\n      swap2\n      swap1\n      pop\n      pop\n      pop\n      tag_33\n      jump\t// in\n    tag_31:\n      mload(0x40)\n      dup1\n      dup3\n      iszero\n      iszero\n      iszero\n      iszero\n      dup2\n      mstore\n      0x20\n      add\n      swap2\n      pop\n      pop\n      mload(0x40)\n      dup1\n      swap2\n      sub\n      swap1\n      return\n        /* \"openzeppelin-solidity/contracts/token/ERC20/ERC20.sol\":3418:3535   */\n    tag_9:\n      tag_34\n      0x04\n      dup1\n      calldatasize\n      sub\n      0x20\n      dup2\n      lt\n      iszero\n      tag_35\n      jumpi\n      0x00\n      dup1\n      revert\n    tag_35:\n      dup2\n      add\n      swap1\n      dup1\n      dup1\n      calldataload\n      0xffffffffffffffffffffffffffffffffffffffff\n      and\n      swap1\n      0x20\n      add\n      swap1\n      swap3\n      swap2\n      swap1\n      pop\n      pop\n      pop\n      tag_36\n      jump\t// in\n    tag_34:\n      mload(0x40)\n      dup1\n      dup3\n      dup2\n      mstore\n      0x20\n      add\n      swap2\n      pop\n      pop\n      mload(0x40)\n      dup1\n      swap2\n      sub\n      swap1\n      return\n        /* \"openzeppelin-solidity/contracts/token/ERC20/ERC20.sol\":2413:2498   */\n    tag_10:\n      tag_37\n      tag_38\n      jump\t// in\n    tag_37:\n      mload(0x40)\n      dup1\n      dup1\n      0x20\n      add\n      dup3\n      dup2\n      sub\n      dup3\n      mstore\n      dup4\n      dup2\n      dup2\n      mload\n      dup2\n      mstore\n      0x20\n      add\n      swap2\n      pop\n      dup1\n      mload\n      swap1\n      0x20\n      add\n      swap1\n      dup1\n      dup4\n      dup4\n      0x00\n    tag_39:\n      dup4\n      dup2\n      lt\n      iszero\n      tag_41\n      jumpi\n      dup1\n      dup3\n      add\n      mload\n      dup2\n      dup5\n      add\n      mstore\n      0x20\n      dup2\n      add\n      swap1\n      pop\n      jump(tag_39)\n    tag_41:\n      pop\n      pop\n      pop\n      pop\n      swap1\n      pop\n      swap1\n      dup2\n      add\n      swap1\n      0x1f\n      and\n      dup1\n      iszero\n      tag_42\n      jumpi\n      dup1\n      dup3\n      sub\n      dup1\n      mload\n      0x01\n      dup4\n      0x20\n      sub\n      0x0100\n      exp\n      sub\n      not\n      and\n      dup2\n      mstore\n      0x20\n      add\n      swap2\n      pop\n    tag_42:\n      pop\n      swap3\n      pop\n      pop\n      pop\n      mload(0x40)\n      dup1\n      swap2\n      sub\n      swap1\n      return\n        /* \"openzeppelin-solidity/contracts/token/ERC20/ERC20.sol\":6295:6561   */\n    tag_11:\n      tag_43\n      0x04\n      dup1\n      calldatasize\n      sub\n      0x40\n      dup2\n      lt\n      iszero\n      tag_44\n      jumpi\n      0x00\n      dup1\n      revert\n    tag_44:\n      dup2\n      add\n      swap1\n      dup1\n      dup1\n      calldataload\n      0xffffffffffffffffffffffffffffffffffffffff\n      and\n      swap1\n      0x20\n      add\n      swap1\n      swap3\n      swap2\n      swap1\n      dup1\n      calldataload\n      swap1\n      0x20\n      add\n      swap1\n      swap3\n      swap2\n      swap1\n      pop\n      pop\n      pop\n      tag_45\n      jump\t// in\n    tag_43:\n      mload(0x40)\n      dup1\n      dup3\n      iszero\n      iszero\n      iszero\n      iszero\n      dup2\n      mstore\n      0x20\n      add\n      swap2\n      pop\n      pop\n      mload(0x40)\n      dup1\n      swap2\n      sub\n      swap1\n      return\n        /* \"openzeppelin-solidity/contracts/token/ERC20/ERC20.sol\":3738:3910   */\n    tag_12:\n      tag_46\n      0x04\n      dup1\n      calldatasize\n      sub\n      0x40\n      dup2\n      lt\n      iszero\n      tag_47\n      jumpi\n      0x00\n      dup1\n      revert\n    tag_47:\n      dup2\n      add\n      swap1\n      dup1\n      dup1\n      calldataload\n      0xffffffffffffffffffffffffffffffffffffffff\n      and\n      swap1\n      0x20\n      add\n      swap1\n      swap3\n      swap2\n      swap1\n      dup1\n      calldataload\n      swap1\n      0x20\n      add\n      swap1\n      swap3\n      swap2\n      swap1\n      pop\n      pop\n      pop\n      tag_48\n      jump\t// in\n    tag_46:\n      mload(0x40)\n      dup1\n      dup3\n      iszero\n      iszero\n      iszero\n      iszero\n      dup2\n      mstore\n      0x20\n      add\n      swap2\n      pop\n      pop\n      mload(0x40)\n      dup1\n      swap2\n      sub\n      swap1\n      return\n        /* \"openzeppelin-solidity/contracts/token/ERC20/ERC20.sol\":3968:4117   */\n    tag_13:\n      tag_49\n      0x04\n      dup1\n      calldatasize\n      sub\n      0x40\n      dup2\n      lt\n      iszero\n      tag_50\n      jumpi\n      0x00\n      dup1\n      revert\n    tag_50:\n      dup2\n      add\n      swap1\n      dup1\n      dup1\n      calldataload\n      0xffffffffffffffffffffffffffffffffffffffff\n      and\n      swap1\n      0x20\n      add\n      swap1\n      swap3\n      swap2\n      swap1\n      dup1\n      calldataload\n      0xffffffffffffffffffffffffffffffffffffffff\n      and\n      swap1\n      0x20\n      add\n      swap1\n      swap3\n      swap2\n      swap1\n      pop\n      pop\n      pop\n      tag_51\n      jump\t// in\n    tag_49:\n      mload(0x40)\n      dup1\n      dup3\n      dup2\n      mstore\n      0x20\n      add\n      swap2\n      pop\n      pop\n      mload(0x40)\n      dup1\n      swap2\n      sub\n      swap1\n      return\n        /* \"openzeppelin-solidity/contracts/token/ERC20/ERC20.sol\":2219:2300   */\n    tag_16:\n        /* \"openzeppelin-solidity/contracts/token/ERC20/ERC20.sol\":2256:2269   */\n      0x60\n        /* \"openzeppelin-solidity/contracts/token/ERC20/ERC20.sol\":2288:2293   */\n      0x03\n        /* \"openzeppelin-solidity/contracts/token/ERC20/ERC20.sol\":2281:2293   */\n      dup1\n      sload\n      0x01\n      dup2\n      0x01\n      and\n      iszero\n      0x0100\n      mul\n      sub\n      and\n      0x02\n      swap1\n      div\n      dup1\n      0x1f\n      add\n      0x20\n      dup1\n      swap2\n      div\n      mul\n      0x20\n      add\n      mload(0x40)\n      swap1\n      dup2\n      add\n      0x40\n      mstore\n      dup1\n      swap3\n      swap2\n      swap1\n      dup2\n      dup2\n      mstore\n      0x20\n      add\n      dup3\n      dup1\n      sload\n      0x01\n      dup2\n      0x01\n      and\n      iszero\n      0x0100\n      mul\n      sub\n      and\n      0x02\n      swap1\n      div\n      dup1\n      iszero\n      tag_53\n      jumpi\n      dup1\n      0x1f\n      lt\n      tag_54\n      jumpi\n      0x0100\n      dup1\n      dup4\n      sload\n      div\n      mul\n      dup4\n      mstore\n      swap2\n      0x20\n      add\n      swap2\n      jump(tag_53)\n    tag_54:\n      dup3\n      add\n      swap2\n      swap1\n      0x00\n      mstore\n      keccak256(0x00, 0x20)\n      swap1\n    tag_55:\n      dup2\n      sload\n      dup2\n      mstore\n      swap1\n      0x01\n      add\n      swap1\n      0x20\n      add\n      dup1\n      dup4\n      gt\n      tag_55\n      jumpi\n      dup3\n      swap1\n      sub\n      0x1f\n      and\n      dup3\n      add\n      swap2\n    tag_53:\n      pop\n      pop\n      pop\n      pop\n      pop\n      swap1\n      pop\n        /* \"openzeppelin-solidity/contracts/token/ERC20/ERC20.sol\":2219:2300   */\n      swap1\n      jump\t// out\n        /* \"openzeppelin-solidity/contracts/token/ERC20/ERC20.sol\":4255:4421   */\n    tag_23:\n        /* \"openzeppelin-solidity/contracts/token/ERC20/ERC20.sol\":4338:4342   */\n      0x00\n        /* \"openzeppelin-solidity/contracts/token/ERC20/ERC20.sol\":4354:4393   */\n      tag_57\n        /* \"openzeppelin-solidity/contracts/token/ERC20/ERC20.sol\":4363:4375   */\n      tag_58\n        /* \"openzeppelin-solidity/contracts/token/ERC20/ERC20.sol\":4363:4373   */\n      tag_59\n        /* \"openzeppelin-solidity/contracts/token/ERC20/ERC20.sol\":4363:4375   */\n      jump\t// in\n    tag_58:\n        /* \"openzeppelin-solidity/contracts/token/ERC20/ERC20.sol\":4377:4384   */\n      dup5\n        /* \"openzeppelin-solidity/contracts/token/ERC20/ERC20.sol\":4386:4392   */\n      dup5\n        /* \"openzeppelin-solidity/contracts/token/ERC20/ERC20.sol\":4354:4362   */\n      tag_60\n        /* \"openzeppelin-solidity/contracts/token/ERC20/ERC20.sol\":4354:4393   */\n      jump\t// in\n    tag_57:\n        /* \"openzeppelin-solidity/contracts/token/ERC20/ERC20.sol\":4410:4414   */\n      0x01\n        /* \"openzeppelin-solidity/contracts/token/ERC20/ERC20.sol\":4403:4414   */\n      swap1\n      pop\n        /* \"openzeppelin-solidity/contracts/token/ERC20/ERC20.sol\":4255:4421   */\n      swap3\n      swap2\n      pop\n      pop\n      jump\t// out\n        /* \"openzeppelin-solidity/contracts/token/ERC20/ERC20.sol\":3262:3360   */\n    tag_25:\n        /* \"openzeppelin-solidity/contracts/token/ERC20/ERC20.sol\":3315:3322   */\n      0x00\n        /* \"openzeppelin-solidity/contracts/token/ERC20/ERC20.sol\":3341:3353   */\n      sload(0x02)\n        /* \"openzeppelin-solidity/contracts/token/ERC20/ERC20.sol\":3334:3353   */\n      swap1\n      pop\n        /* \"openzeppelin-solidity/contracts/token/ERC20/ERC20.sol\":3262:3360   */\n      swap1\n      jump\t// out\n        /* \"openzeppelin-solidity/contracts/token/ERC20/ERC20.sol\":4881:5198   */\n    tag_28:\n        /* \"openzeppelin-solidity/contracts/token/ERC20/ERC20.sol\":4987:4991   */\n      0x00\n        /* \"openzeppelin-solidity/contracts/token/ERC20/ERC20.sol\":5003:5039   */\n      tag_63\n        /* \"openzeppelin-solidity/contracts/token/ERC20/ERC20.sol\":5013:5019   */\n      dup5\n        /* \"openzeppelin-solidity/contracts/token/ERC20/ERC20.sol\":5021:5030   */\n      dup5\n        /* \"openzeppelin-solidity/contracts/token/ERC20/ERC20.sol\":5032:5038   */\n      dup5\n        /* \"openzeppelin-solidity/contracts/token/ERC20/ERC20.sol\":5003:5012   */\n      tag_64\n        /* \"openzeppelin-solidity/contracts/token/ERC20/ERC20.sol\":5003:5039   */\n      jump\t// in\n    tag_63:\n        /* \"openzeppelin-solidity/contracts/token/ERC20/ERC20.sol\":5049:5170   */\n      tag_65\n        /* \"openzeppelin-solidity/contracts/token/ERC20/ERC20.sol\":5058:5064   */\n      dup5\n        /* \"openzeppelin-solidity/contracts/token/ERC20/ERC20.sol\":5066:5078   */\n      tag_66\n        /* \"openzeppelin-solidity/contracts/token/ERC20/ERC20.sol\":5066:5076   */\n      tag_59\n        /* \"openzeppelin-solidity/contracts/token/ERC20/ERC20.sol\":5066:5078   */\n      jump\t// in\n    tag_66:\n        /* \"openzeppelin-solidity/contracts/token/ERC20/ERC20.sol\":5080:5169   */\n      tag_67\n        /* \"openzeppelin-solidity/contracts/token/ERC20/ERC20.sol\":5118:5124   */\n      dup6\n        /* \"openzeppelin-solidity/contracts/token/ERC20/ERC20.sol\":5080:5169   */\n      mload(0x40)\n      dup1\n      0x60\n      add\n      0x40\n      mstore\n      dup1\n      0x28\n      dup2\n      mstore\n      0x20\n      add\n      data_974d1b4421da69cc60b481194f0dad36a5bb4e23da810da7a7fb30cdba178330\n      0x28\n      swap2\n      codecopy\n        /* \"openzeppelin-solidity/contracts/token/ERC20/ERC20.sol\":5080:5091   */\n      0x01\n        /* \"openzeppelin-solidity/contracts/token/ERC20/ERC20.sol\":5080:5099   */\n      0x00\n        /* \"openzeppelin-solidity/contracts/token/ERC20/ERC20.sol\":5092:5098   */\n      dup12\n        /* \"openzeppelin-solidity/contracts/token/ERC20/ERC20.sol\":5080:5099   */\n      0xffffffffffffffffffffffffffffffffffffffff\n      and\n      0xffffffffffffffffffffffffffffffffffffffff\n      and\n      dup2\n      mstore\n      0x20\n      add\n      swap1\n      dup2\n      mstore\n      0x20\n      add\n      0x00\n      keccak256\n        /* \"openzeppelin-solidity/contracts/token/ERC20/ERC20.sol\":5080:5113   */\n      0x00\n        /* \"openzeppelin-solidity/contracts/token/ERC20/ERC20.sol\":5100:5112   */\n      tag_68\n        /* \"openzeppelin-solidity/contracts/token/ERC20/ERC20.sol\":5100:5110   */\n      tag_59\n        /* \"openzeppelin-solidity/contracts/token/ERC20/ERC20.sol\":5100:5112   */\n      jump\t// in\n    tag_68:\n        /* \"openzeppelin-solidity/contracts/token/ERC20/ERC20.sol\":5080:5113   */\n      0xffffffffffffffffffffffffffffffffffffffff\n      and\n      0xffffffffffffffffffffffffffffffffffffffff\n      and\n      dup2\n      mstore\n      0x20\n      add\n      swap1\n      dup2\n      mstore\n      0x20\n      add\n      0x00\n      keccak256\n      sload\n        /* \"openzeppelin-solidity/contracts/token/ERC20/ERC20.sol\":5080:5117   */\n      tag_69\n      swap1\n        /* \"openzeppelin-solidity/contracts/token/ERC20/ERC20.sol\":5080:5169   */\n      swap3\n      swap2\n      swap1\n      0xffffffff\n      and\n      jump\t// in\n    tag_67:\n        /* \"openzeppelin-solidity/contracts/token/ERC20/ERC20.sol\":5049:5057   */\n      tag_60\n        /* \"openzeppelin-solidity/contracts/token/ERC20/ERC20.sol\":5049:5170   */\n      jump\t// in\n    tag_65:\n        /* \"openzeppelin-solidity/contracts/token/ERC20/ERC20.sol\":5187:5191   */\n      0x01\n        /* \"openzeppelin-solidity/contracts/token/ERC20/ERC20.sol\":5180:5191   */\n      swap1\n      pop\n        /* \"openzeppelin-solidity/contracts/token/ERC20/ERC20.sol\":4881:5198   */\n      swap4\n      swap3\n      pop\n      pop\n      pop\n      jump\t// out\n        /* \"openzeppelin-solidity/contracts/token/ERC20/ERC20.sol\":3121:3202   */\n    tag_30:\n        /* \"openzeppelin-solidity/contracts/token/ERC20/ERC20.sol\":3162:3167   */\n      0x00\n        /* \"openzeppelin-solidity/contracts/token/ERC20/ERC20.sol\":3186:3195   */\n      0x05\n      0x00\n      swap1\n      sload\n      swap1\n      0x0100\n      exp\n      swap1\n      div\n      0xff\n      and\n        /* \"openzeppelin-solidity/contracts/token/ERC20/ERC20.sol\":3179:3195   */\n      swap1\n      pop\n        /* \"openzeppelin-solidity/contracts/token/ERC20/ERC20.sol\":3121:3202   */\n      swap1\n      jump\t// out\n        /* \"openzeppelin-solidity/contracts/token/ERC20/ERC20.sol\":5593:5808   */\n    tag_33:\n        /* \"openzeppelin-solidity/contracts/token/ERC20/ERC20.sol\":5681:5685   */\n      0x00\n        /* \"openzeppelin-solidity/contracts/token/ERC20/ERC20.sol\":5697:5780   */\n      tag_72\n        /* \"openzeppelin-solidity/contracts/token/ERC20/ERC20.sol\":5706:5718   */\n      tag_73\n        /* \"openzeppelin-solidity/contracts/token/ERC20/ERC20.sol\":5706:5716   */\n      tag_59\n        /* \"openzeppelin-solidity/contracts/token/ERC20/ERC20.sol\":5706:5718   */\n      jump\t// in\n    tag_73:\n        /* \"openzeppelin-solidity/contracts/token/ERC20/ERC20.sol\":5720:5727   */\n      dup5\n        /* \"openzeppelin-solidity/contracts/token/ERC20/ERC20.sol\":5729:5779   */\n      tag_74\n        /* \"openzeppelin-solidity/contracts/token/ERC20/ERC20.sol\":5768:5778   */\n      dup6\n        /* \"openzeppelin-solidity/contracts/token/ERC20/ERC20.sol\":5729:5740   */\n      0x01\n        /* \"openzeppelin-solidity/contracts/token/ERC20/ERC20.sol\":5729:5754   */\n      0x00\n        /* \"openzeppelin-solidity/contracts/token/ERC20/ERC20.sol\":5741:5753   */\n      tag_75\n        /* \"openzeppelin-solidity/contracts/token/ERC20/ERC20.sol\":5741:5751   */\n      tag_59\n        /* \"openzeppelin-solidity/contracts/token/ERC20/ERC20.sol\":5741:5753   */\n      jump\t// in\n    tag_75:\n        /* \"openzeppelin-solidity/contracts/token/ERC20/ERC20.sol\":5729:5754   */\n      0xffffffffffffffffffffffffffffffffffffffff\n      and\n      0xffffffffffffffffffffffffffffffffffffffff\n      and\n      dup2\n      mstore\n      0x20\n      add\n      swap1\n      dup2\n      mstore\n      0x20\n      add\n      0x00\n      keccak256\n        /* \"openzeppelin-solidity/contracts/token/ERC20/ERC20.sol\":5729:5763   */\n      0x00\n        /* \"openzeppelin-solidity/contracts/token/ERC20/ERC20.sol\":5755:5762   */\n      dup10\n        /* \"openzeppelin-solidity/contracts/token/ERC20/ERC20.sol\":5729:5763   */\n      0xffffffffffffffffffffffffffffffffffffffff\n      and\n      0xffffffffffffffffffffffffffffffffffffffff\n      and\n      dup2\n      mstore\n      0x20\n      add\n      swap1\n      dup2\n      mstore\n      0x20\n      add\n      0x00\n      keccak256\n      sload\n        /* \"openzeppelin-solidity/contracts/token/ERC20/ERC20.sol\":5729:5767   */\n      tag_76\n      swap1\n        /* \"openzeppelin-solidity/contracts/token/ERC20/ERC20.sol\":5729:5779   */\n      swap2\n      swap1\n      0xffffffff\n      and\n      jump\t// in\n    tag_74:\n        /* \"openzeppelin-solidity/contracts/token/ERC20/ERC20.sol\":5697:5705   */\n      tag_60\n        /* \"openzeppelin-solidity/contracts/token/ERC20/ERC20.sol\":5697:5780   */\n      jump\t// in\n    tag_72:\n        /* \"openzeppelin-solidity/contracts/token/ERC20/ERC20.sol\":5797:5801   */\n      0x01\n        /* \"openzeppelin-solidity/contracts/token/ERC20/ERC20.sol\":5790:5801   */\n      swap1\n      pop\n        /* \"openzeppelin-solidity/contracts/token/ERC20/ERC20.sol\":5593:5808   */\n      swap3\n      swap2\n      pop\n      pop\n      jump\t// out\n        /* \"openzeppelin-solidity/contracts/token/ERC20/ERC20.sol\":3418:3535   */\n    tag_36:\n        /* \"openzeppelin-solidity/contracts/token/ERC20/ERC20.sol\":3484:3491   */\n      0x00\n        /* \"openzeppelin-solidity/contracts/token/ERC20/ERC20.sol\":3510:3519   */\n      dup1\n        /* \"openzeppelin-solidity/contracts/token/ERC20/ERC20.sol\":3510:3528   */\n      0x00\n        /* \"openzeppelin-solidity/contracts/token/ERC20/ERC20.sol\":3520:3527   */\n      dup4\n        /* \"openzeppelin-solidity/contracts/token/ERC20/ERC20.sol\":3510:3528   */\n      0xffffffffffffffffffffffffffffffffffffffff\n      and\n      0xffffffffffffffffffffffffffffffffffffffff\n      and\n      dup2\n      mstore\n      0x20\n      add\n      swap1\n      dup2\n      mstore\n      0x20\n      add\n      0x00\n      keccak256\n      sload\n        /* \"openzeppelin-solidity/contracts/token/ERC20/ERC20.sol\":3503:3528   */\n      swap1\n      pop\n        /* \"openzeppelin-solidity/contracts/token/ERC20/ERC20.sol\":3418:3535   */\n      swap2\n      swap1\n      pop\n      jump\t// out\n        /* \"openzeppelin-solidity/contracts/token/ERC20/ERC20.sol\":2413:2498   */\n    tag_38:\n        /* \"openzeppelin-solidity/contracts/token/ERC20/ERC20.sol\":2452:2465   */\n      0x60\n        /* \"openzeppelin-solidity/contracts/token/ERC20/ERC20.sol\":2484:2491   */\n      0x04\n        /* \"openzeppelin-solidity/contracts/token/ERC20/ERC20.sol\":2477:2491   */\n      dup1\n      sload\n      0x01\n      dup2\n      0x01\n      and\n      iszero\n      0x0100\n      mul\n      sub\n      and\n      0x02\n      swap1\n      div\n      dup1\n      0x1f\n      add\n      0x20\n      dup1\n      swap2\n      div\n      mul\n      0x20\n      add\n      mload(0x40)\n      swap1\n      dup2\n      add\n      0x40\n      mstore\n      dup1\n      swap3\n      swap2\n      swap1\n      dup2\n      dup2\n      mstore\n      0x20\n      add\n      dup3\n      dup1\n      sload\n      0x01\n      dup2\n      0x01\n      and\n      iszero\n      0x0100\n      mul\n      sub\n      and\n      0x02\n      swap1\n      div\n      dup1\n      iszero\n      tag_79\n      jumpi\n      dup1\n      0x1f\n      lt\n      tag_80\n      jumpi\n      0x0100\n      dup1\n      dup4\n      sload\n      div\n      mul\n      dup4\n      mstore\n      swap2\n      0x20\n      add\n      swap2\n      jump(tag_79)\n    tag_80:\n      dup3\n      add\n      swap2\n      swap1\n      0x00\n      mstore\n      keccak256(0x00, 0x20)\n      swap1\n    tag_81:\n      dup2\n      sload\n      dup2\n      mstore\n      swap1\n      0x01\n      add\n      swap1\n      0x20\n      add\n      dup1\n      dup4\n      gt\n      tag_81\n      jumpi\n      dup3\n      swap1\n      sub\n      0x1f\n      and\n      dup3\n      add\n      swap2\n    tag_79:\n      pop\n      pop\n      pop\n      pop\n      pop\n      swap1\n      pop\n        /* \"openzeppelin-solidity/contracts/token/ERC20/ERC20.sol\":2413:2498   */\n      swap1\n      jump\t// out\n        /* \"openzeppelin-solidity/contracts/token/ERC20/ERC20.sol\":6295:6561   */\n    tag_45:\n        /* \"openzeppelin-solidity/contracts/token/ERC20/ERC20.sol\":6388:6392   */\n      0x00\n        /* \"openzeppelin-solidity/contracts/token/ERC20/ERC20.sol\":6404:6533   */\n      tag_83\n        /* \"openzeppelin-solidity/contracts/token/ERC20/ERC20.sol\":6413:6425   */\n      tag_84\n        /* \"openzeppelin-solidity/contracts/token/ERC20/ERC20.sol\":6413:6423   */\n      tag_59\n        /* \"openzeppelin-solidity/contracts/token/ERC20/ERC20.sol\":6413:6425   */\n      jump\t// in\n    tag_84:\n        /* \"openzeppelin-solidity/contracts/token/ERC20/ERC20.sol\":6427:6434   */\n      dup5\n        /* \"openzeppelin-solidity/contracts/token/ERC20/ERC20.sol\":6436:6532   */\n      tag_85\n        /* \"openzeppelin-solidity/contracts/token/ERC20/ERC20.sol\":6475:6490   */\n      dup6\n        /* \"openzeppelin-solidity/contracts/token/ERC20/ERC20.sol\":6436:6532   */\n      mload(0x40)\n      dup1\n      0x60\n      add\n      0x40\n      mstore\n      dup1\n      0x25\n      dup2\n      mstore\n      0x20\n      add\n      data_f8b476f7d28209d77d4a4ac1fe36b9f8259aa1bb6bddfa6e89de7e51615cf8a8\n      0x25\n      swap2\n      codecopy\n        /* \"openzeppelin-solidity/contracts/token/ERC20/ERC20.sol\":6436:6447   */\n      0x01\n        /* \"openzeppelin-solidity/contracts/token/ERC20/ERC20.sol\":6436:6461   */\n      0x00\n        /* \"openzeppelin-solidity/contracts/token/ERC20/ERC20.sol\":6448:6460   */\n      tag_86\n        /* \"openzeppelin-solidity/contracts/token/ERC20/ERC20.sol\":6448:6458   */\n      tag_59\n        /* \"openzeppelin-solidity/contracts/token/ERC20/ERC20.sol\":6448:6460   */\n      jump\t// in\n    tag_86:\n        /* \"openzeppelin-solidity/contracts/token/ERC20/ERC20.sol\":6436:6461   */\n      0xffffffffffffffffffffffffffffffffffffffff\n      and\n      0xffffffffffffffffffffffffffffffffffffffff\n      and\n      dup2\n      mstore\n      0x20\n      add\n      swap1\n      dup2\n      mstore\n      0x20\n      add\n      0x00\n      keccak256\n        /* \"openzeppelin-solidity/contracts/token/ERC20/ERC20.sol\":6436:6470   */\n      0x00\n        /* \"openzeppelin-solidity/contracts/token/ERC20/ERC20.sol\":6462:6469   */\n      dup11\n        /* \"openzeppelin-solidity/contracts/token/ERC20/ERC20.sol\":6436:6470   */\n      0xffffffffffffffffffffffffffffffffffffffff\n      and\n      0xffffffffffffffffffffffffffffffffffffffff\n      and\n      dup2\n      mstore\n      0x20\n      add\n      swap1\n      dup2\n      mstore\n      0x20\n      add\n      0x00\n      keccak256\n      sload\n        /* \"openzeppelin-solidity/contracts/token/ERC20/ERC20.sol\":6436:6474   */\n      tag_69\n      swap1\n        /* \"openzeppelin-solidity/contracts/token/ERC20/ERC20.sol\":6436:6532   */\n      swap3\n      swap2\n      swap1\n      0xffffffff\n      and\n      jump\t// in\n    tag_85:\n        /* \"openzeppelin-solidity/contracts/token/ERC20/ERC20.sol\":6404:6412   */\n      tag_60\n        /* \"openzeppelin-solidity/contracts/token/ERC20/ERC20.sol\":6404:6533   */\n      jump\t// in\n    tag_83:\n        /* \"openzeppelin-solidity/contracts/token/ERC20/ERC20.sol\":6550:6554   */\n      0x01\n        /* \"openzeppelin-solidity/contracts/token/ERC20/ERC20.sol\":6543:6554   */\n      swap1\n      pop\n        /* \"openzeppelin-solidity/contracts/token/ERC20/ERC20.sol\":6295:6561   */\n      swap3\n      swap2\n      pop\n      pop\n      jump\t// out\n        /* \"openzeppelin-solidity/contracts/token/ERC20/ERC20.sol\":3738:3910   */\n    tag_48:\n        /* \"openzeppelin-solidity/contracts/token/ERC20/ERC20.sol\":3824:3828   */\n      0x00\n        /* \"openzeppelin-solidity/contracts/token/ERC20/ERC20.sol\":3840:3882   */\n      tag_88\n        /* \"openzeppelin-solidity/contracts/token/ERC20/ERC20.sol\":3850:3862   */\n      tag_89\n        /* \"openzeppelin-solidity/contracts/token/ERC20/ERC20.sol\":3850:3860   */\n      tag_59\n        /* \"openzeppelin-solidity/contracts/token/ERC20/ERC20.sol\":3850:3862   */\n      jump\t// in\n    tag_89:\n        /* \"openzeppelin-solidity/contracts/token/ERC20/ERC20.sol\":3864:3873   */\n      dup5\n        /* \"openzeppelin-solidity/contracts/token/ERC20/ERC20.sol\":3875:3881   */\n      dup5\n        /* \"openzeppelin-solidity/contracts/token/ERC20/ERC20.sol\":3840:3849   */\n      tag_64\n        /* \"openzeppelin-solidity/contracts/token/ERC20/ERC20.sol\":3840:3882   */\n      jump\t// in\n    tag_88:\n        /* \"openzeppelin-solidity/contracts/token/ERC20/ERC20.sol\":3899:3903   */\n      0x01\n        /* \"openzeppelin-solidity/contracts/token/ERC20/ERC20.sol\":3892:3903   */\n      swap1\n      pop\n        /* \"openzeppelin-solidity/contracts/token/ERC20/ERC20.sol\":3738:3910   */\n      swap3\n      swap2\n      pop\n      pop\n      jump\t// out\n        /* \"openzeppelin-solidity/contracts/token/ERC20/ERC20.sol\":3968:4117   */\n    tag_51:\n        /* \"openzeppelin-solidity/contracts/token/ERC20/ERC20.sol\":4057:4064   */\n      0x00\n        /* \"openzeppelin-solidity/contracts/token/ERC20/ERC20.sol\":4083:4094   */\n      0x01\n        /* \"openzeppelin-solidity/contracts/token/ERC20/ERC20.sol\":4083:4101   */\n      0x00\n        /* \"openzeppelin-solidity/contracts/token/ERC20/ERC20.sol\":4095:4100   */\n      dup5\n        /* \"openzeppelin-solidity/contracts/token/ERC20/ERC20.sol\":4083:4101   */\n      0xffffffffffffffffffffffffffffffffffffffff\n      and\n      0xffffffffffffffffffffffffffffffffffffffff\n      and\n      dup2\n      mstore\n      0x20\n      add\n      swap1\n      dup2\n      mstore\n      0x20\n      add\n      0x00\n      keccak256\n        /* \"openzeppelin-solidity/contracts/token/ERC20/ERC20.sol\":4083:4110   */\n      0x00\n        /* \"openzeppelin-solidity/contracts/token/ERC20/ERC20.sol\":4102:4109   */\n      dup4\n        /* \"openzeppelin-solidity/contracts/token/ERC20/ERC20.sol\":4083:4110   */\n      0xffffffffffffffffffffffffffffffffffffffff\n      and\n      0xffffffffffffffffffffffffffffffffffffffff\n      and\n      dup2\n      mstore\n      0x20\n      add\n      swap1\n      dup2\n      mstore\n      0x20\n      add\n      0x00\n      keccak256\n      sload\n        /* \"openzeppelin-solidity/contracts/token/ERC20/ERC20.sol\":4076:4110   */\n      swap1\n      pop\n        /* \"openzeppelin-solidity/contracts/token/ERC20/ERC20.sol\":3968:4117   */\n      swap3\n      swap2\n      pop\n      pop\n      jump\t// out\n        /* \"openzeppelin-solidity/contracts/GSN/Context.sol\":590:694   */\n    tag_59:\n        /* \"openzeppelin-solidity/contracts/GSN/Context.sol\":643:658   */\n      0x00\n        /* \"openzeppelin-solidity/contracts/GSN/Context.sol\":677:687   */\n      caller\n        /* \"openzeppelin-solidity/contracts/GSN/Context.sol\":670:687   */\n      swap1\n      pop\n        /* \"openzeppelin-solidity/contracts/GSN/Context.sol\":590:694   */\n      swap1\n      jump\t// out\n        /* \"openzeppelin-solidity/contracts/token/ERC20/ERC20.sol\":9359:9699   */\n    tag_60:\n        /* \"openzeppelin-solidity/contracts/token/ERC20/ERC20.sol\":9477:9478   */\n      0x00\n        /* \"openzeppelin-solidity/contracts/token/ERC20/ERC20.sol\":9460:9479   */\n      0xffffffffffffffffffffffffffffffffffffffff\n      and\n        /* \"openzeppelin-solidity/contracts/token/ERC20/ERC20.sol\":9460:9465   */\n      dup4\n        /* \"openzeppelin-solidity/contracts/token/ERC20/ERC20.sol\":9460:9479   */\n      0xffffffffffffffffffffffffffffffffffffffff\n      and\n      eq\n      iszero\n        /* \"openzeppelin-solidity/contracts/token/ERC20/ERC20.sol\":9452:9520   */\n      tag_93\n      jumpi\n      mload(0x40)\n      0x08c379a000000000000000000000000000000000000000000000000000000000\n      dup2\n      mstore\n      0x04\n      add\n      dup1\n      dup1\n      0x20\n      add\n      dup3\n      dup2\n      sub\n      dup3\n      mstore\n      0x24\n      dup2\n      mstore\n      0x20\n      add\n      dup1\n      data_c953f4879035ed60e766b34720f656aab5c697b141d924c283124ecedb91c208\n      0x24\n      swap2\n      codecopy\n      0x40\n      add\n      swap2\n      pop\n      pop\n      mload(0x40)\n      dup1\n      swap2\n      sub\n      swap1\n      revert\n    tag_93:\n        /* \"openzeppelin-solidity/contracts/token/ERC20/ERC20.sol\":9557:9558   */\n      0x00\n        /* \"openzeppelin-solidity/contracts/token/ERC20/ERC20.sol\":9538:9559   */\n      0xffffffffffffffffffffffffffffffffffffffff\n      and\n        /* \"openzeppelin-solidity/contracts/token/ERC20/ERC20.sol\":9538:9545   */\n      dup3\n        /* \"openzeppelin-solidity/contracts/token/ERC20/ERC20.sol\":9538:9559   */\n      0xffffffffffffffffffffffffffffffffffffffff\n      and\n      eq\n      iszero\n        /* \"openzeppelin-solidity/contracts/token/ERC20/ERC20.sol\":9530:9598   */\n      tag_94\n      jumpi\n      mload(0x40)\n      0x08c379a000000000000000000000000000000000000000000000000000000000\n      dup2\n      mstore\n      0x04\n      add\n      dup1\n      dup1\n      0x20\n      add\n      dup3\n      dup2\n      sub\n      dup3\n      mstore\n      0x22\n      dup2\n      mstore\n      0x20\n      add\n      dup1\n      data_24883cc5fe64ace9d0df1893501ecb93c77180f0ff69cca79affb3c316dc8029\n      0x22\n      swap2\n      codecopy\n      0x40\n      add\n      swap2\n      pop\n      pop\n      mload(0x40)\n      dup1\n      swap2\n      sub\n      swap1\n      revert\n    tag_94:\n        /* \"openzeppelin-solidity/contracts/token/ERC20/ERC20.sol\":9639:9645   */\n      dup1\n        /* \"openzeppelin-solidity/contracts/token/ERC20/ERC20.sol\":9609:9620   */\n      0x01\n        /* \"openzeppelin-solidity/contracts/token/ERC20/ERC20.sol\":9609:9627   */\n      0x00\n        /* \"openzeppelin-solidity/contracts/token/ERC20/ERC20.sol\":9621:9626   */\n      dup6\n        /* \"openzeppelin-solidity/contracts/token/ERC20/ERC20.sol\":9609:9627   */\n      0xffffffffffffffffffffffffffffffffffffffff\n      and\n      0xffffffffffffffffffffffffffffffffffffffff\n      and\n      dup2\n      mstore\n      0x20\n      add\n      swap1\n      dup2\n      mstore\n      0x20\n      add\n      0x00\n      keccak256\n        /* \"openzeppelin-solidity/contracts/token/ERC20/ERC20.sol\":9609:9636   */\n      0x00\n        /* \"openzeppelin-solidity/contracts/token/ERC20/ERC20.sol\":9628:9635   */\n      dup5\n        /* \"openzeppelin-solidity/contracts/token/ERC20/ERC20.sol\":9609:9636   */\n      0xffffffffffffffffffffffffffffffffffffffff\n      and\n      0xffffffffffffffffffffffffffffffffffffffff\n      and\n      dup2\n      mstore\n      0x20\n      add\n      swap1\n      dup2\n      mstore\n      0x20\n      add\n      0x00\n      keccak256\n        /* \"openzeppelin-solidity/contracts/token/ERC20/ERC20.sol\":9609:9645   */\n      dup2\n      swap1\n      sstore\n      pop\n        /* \"openzeppelin-solidity/contracts/token/ERC20/ERC20.sol\":9676:9683   */\n      dup2\n        /* \"openzeppelin-solidity/contracts/token/ERC20/ERC20.sol\":9660:9692   */\n      0xffffffffffffffffffffffffffffffffffffffff\n      and\n        /* \"openzeppelin-solidity/contracts/token/ERC20/ERC20.sol\":9669:9674   */\n      dup4\n        /* \"openzeppelin-solidity/contracts/token/ERC20/ERC20.sol\":9660:9692   */\n      0xffffffffffffffffffffffffffffffffffffffff\n      and\n      0x8c5be1e5ebec7d5bd14f71427d1e84f3dd0314c0f7b2291e5b200ac8c7c3b925\n        /* \"openzeppelin-solidity/contracts/token/ERC20/ERC20.sol\":9685:9691   */\n      dup4\n        /* \"openzeppelin-solidity/contracts/token/ERC20/ERC20.sol\":9660:9692   */\n      mload(0x40)\n      dup1\n      dup3\n      dup2\n      mstore\n      0x20\n      add\n      swap2\n      pop\n      pop\n      mload(0x40)\n      dup1\n      swap2\n      sub\n      swap1\n      log3\n        /* \"openzeppelin-solidity/contracts/token/ERC20/ERC20.sol\":9359:9699   */\n      pop\n      pop\n      pop\n      jump\t// out\n        /* \"openzeppelin-solidity/contracts/token/ERC20/ERC20.sol\":7035:7565   */\n    tag_64:\n        /* \"openzeppelin-solidity/contracts/token/ERC20/ERC20.sol\":7158:7159   */\n      0x00\n        /* \"openzeppelin-solidity/contracts/token/ERC20/ERC20.sol\":7140:7160   */\n      0xffffffffffffffffffffffffffffffffffffffff\n      and\n        /* \"openzeppelin-solidity/contracts/token/ERC20/ERC20.sol\":7140:7146   */\n      dup4\n        /* \"openzeppelin-solidity/contracts/token/ERC20/ERC20.sol\":7140:7160   */\n      0xffffffffffffffffffffffffffffffffffffffff\n      and\n      eq\n      iszero\n        /* \"openzeppelin-solidity/contracts/token/ERC20/ERC20.sol\":7132:7202   */\n      tag_96\n      jumpi\n      mload(0x40)\n      0x08c379a000000000000000000000000000000000000000000000000000000000\n      dup2\n      mstore\n      0x04\n      add\n      dup1\n      dup1\n      0x20\n      add\n      dup3\n      dup2\n      sub\n      dup3\n      mstore\n      0x25\n      dup2\n      mstore\n      0x20\n      add\n      dup1\n      data_baecc556b46f4ed0f2b4cb599d60785ac8563dd2dc0a5bf12edea1c39e5e1fea\n      0x25\n      swap2\n      codecopy\n      0x40\n      add\n      swap2\n      pop\n      pop\n      mload(0x40)\n      dup1\n      swap2\n      sub\n      swap1\n      revert\n    tag_96:\n        /* \"openzeppelin-solidity/contracts/token/ERC20/ERC20.sol\":7241:7242   */\n      0x00\n        /* \"openzeppelin-solidity/contracts/token/ERC20/ERC20.sol\":7220:7243   */\n      0xffffffffffffffffffffffffffffffffffffffff\n      and\n        /* \"openzeppelin-solidity/contracts/token/ERC20/ERC20.sol\":7220:7229   */\n      dup3\n        /* \"openzeppelin-solidity/contracts/token/ERC20/ERC20.sol\":7220:7243   */\n      0xffffffffffffffffffffffffffffffffffffffff\n      and\n      eq\n      iszero\n        /* \"openzeppelin-solidity/contracts/token/ERC20/ERC20.sol\":7212:7283   */\n      tag_97\n      jumpi\n      mload(0x40)\n      0x08c379a000000000000000000000000000000000000000000000000000000000\n      dup2\n      mstore\n      0x04\n      add\n      dup1\n      dup1\n      0x20\n      add\n      dup3\n      dup2\n      sub\n      dup3\n      mstore\n      0x23\n      dup2\n      mstore\n      0x20\n      add\n      dup1\n      data_0557e210f7a69a685100a7e4e3d0a7024c546085cee28910fd17d0b081d9516f\n      0x23\n      swap2\n      codecopy\n      0x40\n      add\n      swap2\n      pop\n      pop\n      mload(0x40)\n      dup1\n      swap2\n      sub\n      swap1\n      revert\n    tag_97:\n        /* \"openzeppelin-solidity/contracts/token/ERC20/ERC20.sol\":7294:7341   */\n      tag_98\n        /* \"openzeppelin-solidity/contracts/token/ERC20/ERC20.sol\":7315:7321   */\n      dup4\n        /* \"openzeppelin-solidity/contracts/token/ERC20/ERC20.sol\":7323:7332   */\n      dup4\n        /* \"openzeppelin-solidity/contracts/token/ERC20/ERC20.sol\":7334:7340   */\n      dup4\n        /* \"openzeppelin-solidity/contracts/token/ERC20/ERC20.sol\":7294:7314   */\n      tag_99\n        /* \"openzeppelin-solidity/contracts/token/ERC20/ERC20.sol\":7294:7341   */\n      jump\t// in\n    tag_98:\n        /* \"openzeppelin-solidity/contracts/token/ERC20/ERC20.sol\":7372:7443   */\n      tag_100\n        /* \"openzeppelin-solidity/contracts/token/ERC20/ERC20.sol\":7394:7400   */\n      dup2\n        /* \"openzeppelin-solidity/contracts/token/ERC20/ERC20.sol\":7372:7443   */\n      mload(0x40)\n      dup1\n      0x60\n      add\n      0x40\n      mstore\n      dup1\n      0x26\n      dup2\n      mstore\n      0x20\n      add\n      data_4107e8a8b9e94bf8ff83080ddec1c0bffe897ebc2241b89d44f66b3d274088b6\n      0x26\n      swap2\n      codecopy\n        /* \"openzeppelin-solidity/contracts/token/ERC20/ERC20.sol\":7372:7381   */\n      0x00\n        /* \"openzeppelin-solidity/contracts/token/ERC20/ERC20.sol\":7372:7389   */\n      dup1\n        /* \"openzeppelin-solidity/contracts/token/ERC20/ERC20.sol\":7382:7388   */\n      dup8\n        /* \"openzeppelin-solidity/contracts/token/ERC20/ERC20.sol\":7372:7389   */\n      0xffffffffffffffffffffffffffffffffffffffff\n      and\n      0xffffffffffffffffffffffffffffffffffffffff\n      and\n      dup2\n      mstore\n      0x20\n      add\n      swap1\n      dup2\n      mstore\n      0x20\n      add\n      0x00\n      keccak256\n      sload\n        /* \"openzeppelin-solidity/contracts/token/ERC20/ERC20.sol\":7372:7393   */\n      tag_69\n      swap1\n        /* \"openzeppelin-solidity/contracts/token/ERC20/ERC20.sol\":7372:7443   */\n      swap3\n      swap2\n      swap1\n      0xffffffff\n      and\n      jump\t// in\n    tag_100:\n        /* \"openzeppelin-solidity/contracts/token/ERC20/ERC20.sol\":7352:7361   */\n      0x00\n        /* \"openzeppelin-solidity/contracts/token/ERC20/ERC20.sol\":7352:7369   */\n      dup1\n        /* \"openzeppelin-solidity/contracts/token/ERC20/ERC20.sol\":7362:7368   */\n      dup6\n        /* \"openzeppelin-solidity/contracts/token/ERC20/ERC20.sol\":7352:7369   */\n      0xffffffffffffffffffffffffffffffffffffffff\n      and\n      0xffffffffffffffffffffffffffffffffffffffff\n      and\n      dup2\n      mstore\n      0x20\n      add\n      swap1\n      dup2\n      mstore\n      0x20\n      add\n      0x00\n      keccak256\n        /* \"openzeppelin-solidity/contracts/token/ERC20/ERC20.sol\":7352:7443   */\n      dup2\n      swap1\n      sstore\n      pop\n        /* \"openzeppelin-solidity/contracts/token/ERC20/ERC20.sol\":7476:7508   */\n      tag_101\n        /* \"openzeppelin-solidity/contracts/token/ERC20/ERC20.sol\":7501:7507   */\n      dup2\n        /* \"openzeppelin-solidity/contracts/token/ERC20/ERC20.sol\":7476:7485   */\n      0x00\n        /* \"openzeppelin-solidity/contracts/token/ERC20/ERC20.sol\":7476:7496   */\n      dup1\n        /* \"openzeppelin-solidity/contracts/token/ERC20/ERC20.sol\":7486:7495   */\n      dup6\n        /* \"openzeppelin-solidity/contracts/token/ERC20/ERC20.sol\":7476:7496   */\n      0xffffffffffffffffffffffffffffffffffffffff\n      and\n      0xffffffffffffffffffffffffffffffffffffffff\n      and\n      dup2\n      mstore\n      0x20\n      add\n      swap1\n      dup2\n      mstore\n      0x20\n      add\n      0x00\n      keccak256\n      sload\n        /* \"openzeppelin-solidity/contracts/token/ERC20/ERC20.sol\":7476:7500   */\n      tag_76\n      swap1\n        /* \"openzeppelin-solidity/contracts/token/ERC20/ERC20.sol\":7476:7508   */\n      swap2\n      swap1\n      0xffffffff\n      and\n      jump\t// in\n    tag_101:\n        /* \"openzeppelin-solidity/contracts/token/ERC20/ERC20.sol\":7453:7462   */\n      0x00\n        /* \"openzeppelin-solidity/contracts/token/ERC20/ERC20.sol\":7453:7473   */\n      dup1\n        /* \"openzeppelin-solidity/contracts/token/ERC20/ERC20.sol\":7463:7472   */\n      dup5\n        /* \"openzeppelin-solidity/contracts/token/ERC20/ERC20.sol\":7453:7473   */\n      0xffffffffffffffffffffffffffffffffffffffff\n      and\n      0xffffffffffffffffffffffffffffffffffffffff\n      and\n      dup2\n      mstore\n      0x20\n      add\n      swap1\n      dup2\n      mstore\n      0x20\n      add\n      0x00\n      keccak256\n        /* \"openzeppelin-solidity/contracts/token/ERC20/ERC20.sol\":7453:7508   */\n      dup2\n      swap1\n      sstore\n      pop\n        /* \"openzeppelin-solidity/contracts/token/ERC20/ERC20.sol\":7540:7549   */\n      dup2\n        /* \"openzeppelin-solidity/contracts/token/ERC20/ERC20.sol\":7523:7558   */\n      0xffffffffffffffffffffffffffffffffffffffff\n      and\n        /* \"openzeppelin-solidity/contracts/token/ERC20/ERC20.sol\":7532:7538   */\n      dup4\n        /* \"openzeppelin-solidity/contracts/token/ERC20/ERC20.sol\":7523:7558   */\n      0xffffffffffffffffffffffffffffffffffffffff\n      and\n      0xddf252ad1be2c89b69c2b068fc378daa952ba7f163c4a11628f55a4df523b3ef\n        /* \"openzeppelin-solidity/contracts/token/ERC20/ERC20.sol\":7551:7557   */\n      dup4\n        /* \"openzeppelin-solidity/contracts/token/ERC20/ERC20.sol\":7523:7558   */\n      mload(0x40)\n      dup1\n      dup3\n      dup2\n      mstore\n      0x20\n      add\n      swap2\n      pop\n      pop\n      mload(0x40)\n      dup1\n      swap2\n      sub\n      swap1\n      log3\n        /* \"openzeppelin-solidity/contracts/token/ERC20/ERC20.sol\":7035:7565   */\n      pop\n      pop\n      pop\n      jump\t// out\n        /* \"openzeppelin-solidity/contracts/math/SafeMath.sol\":1746:1933   */\n    tag_69:\n        /* \"openzeppelin-solidity/contracts/math/SafeMath.sol\":1832:1839   */\n      0x00\n        /* \"openzeppelin-solidity/contracts/math/SafeMath.sol\":1864:1865   */\n      dup4\n        /* \"openzeppelin-solidity/contracts/math/SafeMath.sol\":1859:1860   */\n      dup4\n        /* \"openzeppelin-solidity/contracts/math/SafeMath.sol\":1859:1865   */\n      gt\n      iszero\n        /* \"openzeppelin-solidity/contracts/math/SafeMath.sol\":1867:1879   */\n      dup3\n        /* \"openzeppelin-solidity/contracts/math/SafeMath.sol\":1851:1880   */\n      swap1\n      tag_103\n      jumpi\n      mload(0x40)\n      0x08c379a000000000000000000000000000000000000000000000000000000000\n      dup2\n      mstore\n      0x04\n      add\n      dup1\n      dup1\n      0x20\n      add\n      dup3\n      dup2\n      sub\n      dup3\n      mstore\n      dup4\n      dup2\n      dup2\n      mload\n      dup2\n      mstore\n      0x20\n      add\n      swap2\n      pop\n      dup1\n      mload\n      swap1\n      0x20\n      add\n      swap1\n      dup1\n      dup4\n      dup4\n      0x00\n    tag_104:\n      dup4\n      dup2\n      lt\n      iszero\n      tag_106\n      jumpi\n      dup1\n      dup3\n      add\n      mload\n      dup2\n      dup5\n      add\n      mstore\n      0x20\n      dup2\n      add\n      swap1\n      pop\n      jump(tag_104)\n    tag_106:\n      pop\n      pop\n      pop\n      pop\n      swap1\n      pop\n      swap1\n      dup2\n      add\n      swap1\n      0x1f\n      and\n      dup1\n      iszero\n      tag_107\n      jumpi\n      dup1\n      dup3\n      sub\n      dup1\n      mload\n      0x01\n      dup4\n      0x20\n      sub\n      0x0100\n      exp\n      sub\n      not\n      and\n      dup2\n      mstore\n      0x20\n      add\n      swap2\n      pop\n    tag_107:\n      pop\n      swap3\n      pop\n      pop\n      pop\n      mload(0x40)\n      dup1\n      swap2\n      sub\n      swap1\n      revert\n    tag_103:\n      pop\n        /* \"openzeppelin-solidity/contracts/math/SafeMath.sol\":1890:1899   */\n      0x00\n        /* \"openzeppelin-solidity/contracts/math/SafeMath.sol\":1906:1907   */\n      dup4\n        /* \"openzeppelin-solidity/contracts/math/SafeMath.sol\":1902:1903   */\n      dup6\n        /* \"openzeppelin-solidity/contracts/math/SafeMath.sol\":1902:1907   */\n      sub\n        /* \"openzeppelin-solidity/contracts/math/SafeMath.sol\":1890:1907   */\n      swap1\n      pop\n        /* \"openzeppelin-solidity/contracts/math/SafeMath.sol\":1925:1926   */\n      dup1\n        /* \"openzeppelin-solidity/contracts/math/SafeMath.sol\":1918:1926   */\n      swap2\n      pop\n      pop\n        /* \"openzeppelin-solidity/contracts/math/SafeMath.sol\":1746:1933   */\n      swap4\n      swap3\n      pop\n      pop\n      pop\n      jump\t// out\n        /* \"openzeppelin-solidity/contracts/math/SafeMath.sol\":874:1050   */\n    tag_76:\n        /* \"openzeppelin-solidity/contracts/math/SafeMath.sol\":932:939   */\n      0x00\n        /* \"openzeppelin-solidity/contracts/math/SafeMath.sol\":951:960   */\n      dup1\n        /* \"openzeppelin-solidity/contracts/math/SafeMath.sol\":967:968   */\n      dup3\n        /* \"openzeppelin-solidity/contracts/math/SafeMath.sol\":963:964   */\n      dup5\n        /* \"openzeppelin-solidity/contracts/math/SafeMath.sol\":963:968   */\n      add\n        /* \"openzeppelin-solidity/contracts/math/SafeMath.sol\":951:968   */\n      swap1\n      pop\n        /* \"openzeppelin-solidity/contracts/math/SafeMath.sol\":991:992   */\n      dup4\n        /* \"openzeppelin-solidity/contracts/math/SafeMath.sol\":986:987   */\n      dup2\n        /* \"openzeppelin-solidity/contracts/math/SafeMath.sol\":986:992   */\n      lt\n      iszero\n        /* \"openzeppelin-solidity/contracts/math/SafeMath.sol\":978:1024   */\n      tag_109\n      jumpi\n      mload(0x40)\n      0x08c379a000000000000000000000000000000000000000000000000000000000\n      dup2\n      mstore\n      0x04\n      add\n      dup1\n      dup1\n      0x20\n      add\n      dup3\n      dup2\n      sub\n      dup3\n      mstore\n      0x1b\n      dup2\n      mstore\n      0x20\n      add\n      dup1\n      0x536166654d6174683a206164646974696f6e206f766572666c6f770000000000\n      dup2\n      mstore\n      pop\n      0x20\n      add\n      swap2\n      pop\n      pop\n      mload(0x40)\n      dup1\n      swap2\n      sub\n      swap1\n      revert\n    tag_109:\n        /* \"openzeppelin-solidity/contracts/math/SafeMath.sol\":1042:1043   */\n      dup1\n        /* \"openzeppelin-solidity/contracts/math/SafeMath.sol\":1035:1043   */\n      swap2\n      pop\n      pop\n        /* \"openzeppelin-solidity/contracts/math/SafeMath.sol\":874:1050   */\n      swap3\n      swap2\n      pop\n      pop\n      jump\t// out\n        /* \"openzeppelin-solidity/contracts/token/ERC20/ERC20.sol\":10697:10789   */\n    tag_99:\n      pop\n      pop\n      pop\n      jump\t// out\n    stop\n    data_0557e210f7a69a685100a7e4e3d0a7024c546085cee28910fd17d0b081d9516f 45524332303a207472616e7366657220746f20746865207a65726f2061646472657373\n    data_24883cc5fe64ace9d0df1893501ecb93c77180f0ff69cca79affb3c316dc8029 45524332303a20617070726f766520746f20746865207a65726f2061646472657373\n    data_4107e8a8b9e94bf8ff83080ddec1c0bffe897ebc2241b89d44f66b3d274088b6 45524332303a207472616e7366657220616d6f756e7420657863656564732062616c616e6365\n    data_974d1b4421da69cc60b481194f0dad36a5bb4e23da810da7a7fb30cdba178330 45524332303a207472616e7366657220616d6f756e74206578636565647320616c6c6f77616e6365\n    data_baecc556b46f4ed0f2b4cb599d60785ac8563dd2dc0a5bf12edea1c39e5e1fea 45524332303a207472616e736665722066726f6d20746865207a65726f2061646472657373\n    data_c953f4879035ed60e766b34720f656aab5c697b141d924c283124ecedb91c208 45524332303a20617070726f76652066726f6d20746865207a65726f2061646472657373\n    data_f8b476f7d28209d77d4a4ac1fe36b9f8259aa1bb6bddfa6e89de7e51615cf8a8 45524332303a2064656372656173656420616c6c6f77616e63652062656c6f77207a65726f\n\n    auxdata: 0xa2646970667358221220dbe2b259c7e7d25d948119bc743364b8e8f0706788f072ad67c36b0e94de13d764736f6c634300060b0033\n}\n","bytecode":{"linkReferences":{},"object":"60806040523480156200001157600080fd5b50604051620013bb380380620013bb833981810160405260408110156200003757600080fd5b81019080805160405193929190846401000000008211156200005857600080fd5b838201915060208201858111156200006f57600080fd5b82518660018202830111640100000000821117156200008d57600080fd5b8083526020830192505050908051906020019080838360005b83811015620000c3578082015181840152602081019050620000a6565b50505050905090810190601f168015620000f15780820380516001836020036101000a031916815260200191505b50604052602001805160405193929190846401000000008211156200011557600080fd5b838201915060208201858111156200012c57600080fd5b82518660018202830111640100000000821117156200014a57600080fd5b8083526020830192505050908051906020019080838360005b838110156200018057808201518184015260208101905062000163565b50505050905090810190601f168015620001ae5780820380516001836020036101000a031916815260200191505b506040525050508160039080519060200190620001cd9291906200020b565b508060049080519060200190620001e69291906200020b565b506012600560006101000a81548160ff021916908360ff1602179055505050620002ba565b828054600181600116156101000203166002900490600052602060002090601f016020900481019282601f106200024e57805160ff19168380011785556200027f565b828001600101855582156200027f579182015b828111156200027e57825182559160200191906001019062000261565b5b5090506200028e919062000292565b5090565b620002b791905b80821115620002b357600081600090555060010162000299565b5090565b90565b6110f180620002ca6000396000f3fe608060405234801561001057600080fd5b50600436106100a95760003560e01c80633950935111610071578063395093511461025f57806370a08231146102c557806395d89b411461031d578063a457c2d7146103a0578063a9059cbb14610406578063dd62ed3e1461046c576100a9565b806306fdde03146100ae578063095ea7b31461013157806318160ddd1461019757806323b872dd146101b5578063313ce5671461023b575b600080fd5b6100b66104e4565b6040518080602001828103825283818151815260200191508051906020019080838360005b838110156100f65780820151818401526020810190506100db565b50505050905090810190601f1680156101235780820380516001836020036101000a031916815260200191505b509250505060405180910390f35b61017d6004803603604081101561014757600080fd5b81019080803573ffffffffffffffffffffffffffffffffffffffff16906020019092919080359060200190929190505050610586565b604051808215151515815260200191505060405180910390f35b61019f6105a4565b6040518082815260200191505060405180910390f35b610221600480360360608110156101cb57600080fd5b81019080803573ffffffffffffffffffffffffffffffffffffffff169060200190929190803573ffffffffffffffffffffffffffffffffffffffff169060200190929190803590602001909291905050506105ae565b604051808215151515815260200191505060405180910390f35b610243610687565b604051808260ff1660ff16815260200191505060405180910390f35b6102ab6004803603604081101561027557600080fd5b81019080803573ffffffffffffffffffffffffffffffffffffffff1690602001909291908035906020019092919050505061069e565b604051808215151515815260200191505060405180910390f35b610307600480360360208110156102db57600080fd5b81019080803573ffffffffffffffffffffffffffffffffffffffff169060200190929190505050610751565b6040518082815260200191505060405180910390f35b610325610799565b6040518080602001828103825283818151815260200191508051906020019080838360005b8381101561036557808201518184015260208101905061034a565b50505050905090810190601f1680156103925780820380516001836020036101000a031916815260200191505b509250505060405180910390f35b6103ec600480360360408110156103b657600080fd5b81019080803573ffffffffffffffffffffffffffffffffffffffff1690602001909291908035906020019092919050505061083b565b604051808215151515815260200191505060405180910390f35b6104526004803603604081101561041c57600080fd5b81019080803573ffffffffffffffffffffffffffffffffffffffff16906020019092919080359060200190929190505050610908565b604051808215151515815260200191505060405180910390f35b6104ce6004803603604081101561048257600080fd5b81019080803573ffffffffffffffffffffffffffffffffffffffff169060200190929190803573ffffffffffffffffffffffffffffffffffffffff169060200190929190505050610926565b6040518082815260200191505060405180910390f35b606060038054600181600116156101000203166002900480601f01602080910402602001604051908101604052809291908181526020018280546001816001161561010002031660029004801561057c5780601f106105515761010080835404028352916020019161057c565b820191906000526020600020905b81548152906001019060200180831161055f57829003601f168201915b5050505050905090565b600061059a6105936109ad565b84846109b5565b6001905092915050565b6000600254905090565b60006105bb848484610bac565b61067c846105c76109ad565b6106778560405180606001604052806028815260200161102660289139600160008b73ffffffffffffffffffffffffffffffffffffffff1673ffffffffffffffffffffffffffffffffffffffff168152602001908152602001600020600061062d6109ad565b73ffffffffffffffffffffffffffffffffffffffff1673ffffffffffffffffffffffffffffffffffffffff16815260200190815260200160002054610e6d9092919063ffffffff16565b6109b5565b600190509392505050565b6000600560009054906101000a900460ff16905090565b60006107476106ab6109ad565b8461074285600160006106bc6109ad565b73ffffffffffffffffffffffffffffffffffffffff1673ffffffffffffffffffffffffffffffffffffffff16815260200190815260200160002060008973ffffffffffffffffffffffffffffffffffffffff1673ffffffffffffffffffffffffffffffffffffffff16815260200190815260200160002054610f2d90919063ffffffff16565b6109b5565b6001905092915050565b60008060008373ffffffffffffffffffffffffffffffffffffffff1673ffffffffffffffffffffffffffffffffffffffff168152602001908152602001600020549050919050565b606060048054600181600116156101000203166002900480601f0160208091040260200160405190810160405280929190818152602001828054600181600116156101000203166002900480156108315780601f1061080657610100808354040283529160200191610831565b820191906000526020600020905b81548152906001019060200180831161081457829003601f168201915b5050505050905090565b60006108fe6108486109ad565b846108f98560405180606001604052806025815260200161109760259139600160006108726109ad565b73ffffffffffffffffffffffffffffffffffffffff1673ffffffffffffffffffffffffffffffffffffffff16815260200190815260200160002060008a73ffffffffffffffffffffffffffffffffffffffff1673ffffffffffffffffffffffffffffffffffffffff16815260200190815260200160002054610e6d9092919063ffffffff16565b6109b5565b6001905092915050565b600061091c6109156109ad565b8484610bac565b6001905092915050565b6000600160008473ffffffffffffffffffffffffffffffffffffffff1673ffffffffffffffffffffffffffffffffffffffff16815260200190815260200160002060008373ffffffffffffffffffffffffffffffffffffffff1673ffffffffffffffffffffffffffffffffffffffff16815260200190815260200160002054905092915050565b600033905090565b600073ffffffffffffffffffffffffffffffffffffffff168373ffffffffffffffffffffffffffffffffffffffff161415610a3b576040517f08c379a00000000000000000000000000000000000000000000000000000000081526004018080602001828103825260248152602001806110736024913960400191505060405180910390fd5b600073ffffffffffffffffffffffffffffffffffffffff168273ffffffffffffffffffffffffffffffffffffffff161415610ac1576040517f08c379a0000000000000000000000000000000000000000000000000000000008152600401808060200182810382526022815260200180610fde6022913960400191505060405180910390fd5b80600160008573ffffffffffffffffffffffffffffffffffffffff1673ffffffffffffffffffffffffffffffffffffffff16815260200190815260200160002060008473ffffffffffffffffffffffffffffffffffffffff1673ffffffffffffffffffffffffffffffffffffffff168152602001908152602001600020819055508173ffffffffffffffffffffffffffffffffffffffff168373ffffffffffffffffffffffffffffffffffffffff167f8c5be1e5ebec7d5bd14f71427d1e84f3dd0314c0f7b2291e5b200ac8c7c3b925836040518082815260200191505060405180910390a3505050565b600073ffffffffffffffffffffffffffffffffffffffff168373ffffffffffffffffffffffffffffffffffffffff161415610c32576040517f08c379a000000000000000000000000000000000000000000000000000000000815260040180806020018281038252602581526020018061104e6025913960400191505060405180910390fd5b600073ffffffffffffffffffffffffffffffffffffffff168273ffffffffffffffffffffffffffffffffffffffff161415610cb8576040517f08c379a0000000000000000000000000000000000000000000000000000000008152600401808060200182810382526023815260200180610fbb6023913960400191505060405180910390fd5b610cc3838383610fb5565b610d2e81604051806060016040528060268152602001611000602691396000808773ffffffffffffffffffffffffffffffffffffffff1673ffffffffffffffffffffffffffffffffffffffff16815260200190815260200160002054610e6d9092919063ffffffff16565b6000808573ffffffffffffffffffffffffffffffffffffffff1673ffffffffffffffffffffffffffffffffffffffff16815260200190815260200160002081905550610dc1816000808573ffffffffffffffffffffffffffffffffffffffff1673ffffffffffffffffffffffffffffffffffffffff16815260200190815260200160002054610f2d90919063ffffffff16565b6000808473ffffffffffffffffffffffffffffffffffffffff1673ffffffffffffffffffffffffffffffffffffffff168152602001908152602001600020819055508173ffffffffffffffffffffffffffffffffffffffff168373ffffffffffffffffffffffffffffffffffffffff167fddf252ad1be2c89b69c2b068fc378daa952ba7f163c4a11628f55a4df523b3ef836040518082815260200191505060405180910390a3505050565b6000838311158290610f1a576040517f08c379a00000000000000000000000000000000000000000000000000000000081526004018080602001828103825283818151815260200191508051906020019080838360005b83811015610edf578082015181840152602081019050610ec4565b50505050905090810190601f168015610f0c5780820380516001836020036101000a031916815260200191505b509250505060405180910390fd5b5060008385039050809150509392505050565b600080828401905083811015610fab576040517f08c379a000000000000000000000000000000000000000000000000000000000815260040180806020018281038252601b8152602001807f536166654d6174683a206164646974696f6e206f766572666c6f77000000000081525060200191505060405180910390fd5b8091505092915050565b50505056fe45524332303a207472616e7366657220746f20746865207a65726f206164647265737345524332303a20617070726f766520746f20746865207a65726f206164647265737345524332303a207472616e7366657220616d6f756e7420657863656564732062616c616e636545524332303a207472616e7366657220616d6f756e74206578636565647320616c6c6f77616e636545524332303a207472616e736665722066726f6d20746865207a65726f206164647265737345524332303a20617070726f76652066726f6d20746865207a65726f206164647265737345524332303a2064656372656173656420616c6c6f77616e63652062656c6f77207a65726fa2646970667358221220dbe2b259c7e7d25d948119bc743364b8e8f0706788f072ad67c36b0e94de13d764736f6c634300060b0033","opcodes":"PUSH1 0x80 PUSH1 0x40 MSTORE CALLVALUE DUP1 ISZERO PUSH3 0x11 JUMPI PUSH1 0x0 DUP1 REVERT JUMPDEST POP PUSH1 0x40 MLOAD PUSH3 0x13BB CODESIZE SUB DUP1 PUSH3 0x13BB DUP4 CODECOPY DUP2 DUP2 ADD PUSH1 0x40 MSTORE PUSH1 0x40 DUP2 LT ISZERO PUSH3 0x37 JUMPI PUSH1 0x0 DUP1 REVERT JUMPDEST DUP2 ADD SWAP1 DUP1 DUP1 MLOAD PUSH1 0x40 MLOAD SWAP4 SWAP3 SWAP2 SWAP1 DUP5 PUSH5 0x100000000 DUP3 GT ISZERO PUSH3 0x58 JUMPI PUSH1 0x0 DUP1 REVERT JUMPDEST DUP4 DUP3 ADD SWAP2 POP PUSH1 0x20 DUP3 ADD DUP6 DUP2 GT ISZERO PUSH3 0x6F JUMPI PUSH1 0x0 DUP1 REVERT JUMPDEST DUP3 MLOAD DUP7 PUSH1 0x1 DUP3 MUL DUP4 ADD GT PUSH5 0x100000000 DUP3 GT OR ISZERO PUSH3 0x8D JUMPI PUSH1 0x0 DUP1 REVERT JUMPDEST DUP1 DUP4 MSTORE PUSH1 0x20 DUP4 ADD SWAP3 POP POP POP SWAP1 DUP1 MLOAD SWAP1 PUSH1 0x20 ADD SWAP1 DUP1 DUP4 DUP4 PUSH1 0x0 JUMPDEST DUP4 DUP2 LT ISZERO PUSH3 0xC3 JUMPI DUP1 DUP3 ADD MLOAD DUP2 DUP5 ADD MSTORE PUSH1 0x20 DUP2 ADD SWAP1 POP PUSH3 0xA6 JUMP JUMPDEST POP POP POP POP SWAP1 POP SWAP1 DUP2 ADD SWAP1 PUSH1 0x1F AND DUP1 ISZERO PUSH3 0xF1 JUMPI DUP1 DUP3 SUB DUP1 MLOAD PUSH1 0x1 DUP4 PUSH1 0x20 SUB PUSH2 0x100 EXP SUB NOT AND DUP2 MSTORE PUSH1 0x20 ADD SWAP2 POP JUMPDEST POP PUSH1 0x40 MSTORE PUSH1 0x20 ADD DUP1 MLOAD PUSH1 0x40 MLOAD SWAP4 SWAP3 SWAP2 SWAP1 DUP5 PUSH5 0x100000000 DUP3 GT ISZERO PUSH3 0x115 JUMPI PUSH1 0x0 DUP1 REVERT JUMPDEST DUP4 DUP3 ADD SWAP2 POP PUSH1 0x20 DUP3 ADD DUP6 DUP2 GT ISZERO PUSH3 0x12C JUMPI PUSH1 0x0 DUP1 REVERT JUMPDEST DUP3 MLOAD DUP7 PUSH1 0x1 DUP3 MUL DUP4 ADD GT PUSH5 0x100000000 DUP3 GT OR ISZERO PUSH3 0x14A JUMPI PUSH1 0x0 DUP1 REVERT JUMPDEST DUP1 DUP4 MSTORE PUSH1 0x20 DUP4 ADD SWAP3 POP POP POP SWAP1 DUP1 MLOAD SWAP1 PUSH1 0x20 ADD SWAP1 DUP1 DUP4 DUP4 PUSH1 0x0 JUMPDEST DUP4 DUP2 LT ISZERO PUSH3 0x180 JUMPI DUP1 DUP3 ADD MLOAD DUP2 DUP5 ADD MSTORE PUSH1 0x20 DUP2 ADD SWAP1 POP PUSH3 0x163 JUMP JUMPDEST POP POP POP POP SWAP1 POP SWAP1 DUP2 ADD SWAP1 PUSH1 0x1F AND DUP1 ISZERO PUSH3 0x1AE JUMPI DUP1 DUP3 SUB DUP1 MLOAD PUSH1 0x1 DUP4 PUSH1 0x20 SUB PUSH2 0x100 EXP SUB NOT AND DUP2 MSTORE PUSH1 0x20 ADD SWAP2 POP JUMPDEST POP PUSH1 0x40 MSTORE POP POP POP DUP2 PUSH1 0x3 SWAP1 DUP1 MLOAD SWAP1 PUSH1 0x20 ADD SWAP1 PUSH3 0x1CD SWAP3 SWAP2 SWAP1 PUSH3 0x20B JUMP JUMPDEST POP DUP1 PUSH1 0x4 SWAP1 DUP1 MLOAD SWAP1 PUSH1 0x20 ADD SWAP1 PUSH3 0x1E6 SWAP3 SWAP2 SWAP1 PUSH3 0x20B JUMP JUMPDEST POP PUSH1 0x12 PUSH1 0x5 PUSH1 0x0 PUSH2 0x100 EXP DUP2 SLOAD DUP2 PUSH1 0xFF MUL NOT AND SWAP1 DUP4 PUSH1 0xFF AND MUL OR SWAP1 SSTORE POP POP POP PUSH3 0x2BA JUMP JUMPDEST DUP3 DUP1 SLOAD PUSH1 0x1 DUP2 PUSH1 0x1 AND ISZERO PUSH2 0x100 MUL SUB AND PUSH1 0x2 SWAP1 DIV SWAP1 PUSH1 0x0 MSTORE PUSH1 0x20 PUSH1 0x0 KECCAK256 SWAP1 PUSH1 0x1F ADD PUSH1 0x20 SWAP1 DIV DUP2 ADD SWAP3 DUP3 PUSH1 0x1F LT PUSH3 0x24E JUMPI DUP1 MLOAD PUSH1 0xFF NOT AND DUP4 DUP1 ADD OR DUP6 SSTORE PUSH3 0x27F JUMP JUMPDEST DUP3 DUP1 ADD PUSH1 0x1 ADD DUP6 SSTORE DUP3 ISZERO PUSH3 0x27F JUMPI SWAP2 DUP3 ADD JUMPDEST DUP3 DUP2 GT ISZERO PUSH3 0x27E JUMPI DUP3 MLOAD DUP3 SSTORE SWAP2 PUSH1 0x20 ADD SWAP2 SWAP1 PUSH1 0x1 ADD SWAP1 PUSH3 0x261 JUMP JUMPDEST JUMPDEST POP SWAP1 POP PUSH3 0x28E SWAP2 SWAP1 PUSH3 0x292 JUMP JUMPDEST POP SWAP1 JUMP JUMPDEST PUSH3 0x2B7 SWAP2 SWAP1 JUMPDEST DUP1 DUP3 GT ISZERO PUSH3 0x2B3 JUMPI PUSH1 0x0 DUP2 PUSH1 0x0 SWAP1 SSTORE POP PUSH1 0x1 ADD PUSH3 0x299 JUMP JUMPDEST POP SWAP1 JUMP JUMPDEST SWAP1 JUMP JUMPDEST PUSH2 0x10F1 DUP1 PUSH3 0x2CA PUSH1 0x0 CODECOPY PUSH1 0x0 RETURN INVALID PUSH1 0x80 PUSH1 0x40 MSTORE CALLVALUE DUP1 ISZERO PUSH2 0x10 JUMPI PUSH1 0x0 DUP1 REVERT JUMPDEST POP PUSH1 0x4 CALLDATASIZE LT PUSH2 0xA9 JUMPI PUSH1 0x0 CALLDATALOAD PUSH1 0xE0 SHR DUP1 PUSH4 0x39509351 GT PUSH2 0x71 JUMPI DUP1 PUSH4 0x39509351 EQ PUSH2 0x25F JUMPI DUP1 PUSH4 0x70A08231 EQ PUSH2 0x2C5 JUMPI DUP1 PUSH4 0x95D89B41 EQ PUSH2 0x31D JUMPI DUP1 PUSH4 0xA457C2D7 EQ PUSH2 0x3A0 JUMPI DUP1 PUSH4 0xA9059CBB EQ PUSH2 0x406 JUMPI DUP1 PUSH4 0xDD62ED3E EQ PUSH2 0x46C JUMPI PUSH2 0xA9 JUMP JUMPDEST DUP1 PUSH4 0x6FDDE03 EQ PUSH2 0xAE JUMPI DUP1 PUSH4 0x95EA7B3 EQ PUSH2 0x131 JUMPI DUP1 PUSH4 0x18160DDD EQ PUSH2 0x197 JUMPI DUP1 PUSH4 0x23B872DD EQ PUSH2 0x1B5 JUMPI DUP1 PUSH4 0x313CE567 EQ PUSH2 0x23B JUMPI JUMPDEST PUSH1 0x0 DUP1 REVERT JUMPDEST PUSH2 0xB6 PUSH2 0x4E4 JUMP JUMPDEST PUSH1 0x40 MLOAD DUP1 DUP1 PUSH1 0x20 ADD DUP3 DUP2 SUB DUP3 MSTORE DUP4 DUP2 DUP2 MLOAD DUP2 MSTORE PUSH1 0x20 ADD SWAP2 POP DUP1 MLOAD SWAP1 PUSH1 0x20 ADD SWAP1 DUP1 DUP4 DUP4 PUSH1 0x0 JUMPDEST DUP4 DUP2 LT ISZERO PUSH2 0xF6 JUMPI DUP1 DUP3 ADD MLOAD DUP2 DUP5 ADD MSTORE PUSH1 0x20 DUP2 ADD SWAP1 POP PUSH2 0xDB JUMP JUMPDEST POP POP POP POP SWAP1 POP SWAP1 DUP2 ADD SWAP1 PUSH1 0x1F AND DUP1 ISZERO PUSH2 0x123 JUMPI DUP1 DUP3 SUB DUP1 MLOAD PUSH1 0x1 DUP4 PUSH1 0x20 SUB PUSH2 0x100 EXP SUB NOT AND DUP2 MSTORE PUSH1 0x20 ADD SWAP2 POP JUMPDEST POP SWAP3 POP POP POP PUSH1 0x40 MLOAD DUP1 SWAP2 SUB SWAP1 RETURN JUMPDEST PUSH2 0x17D PUSH1 0x4 DUP1 CALLDATASIZE SUB PUSH1 0x40 DUP2 LT ISZERO PUSH2 0x147 JUMPI PUSH1 0x0 DUP1 REVERT JUMPDEST DUP2 ADD SWAP1 DUP1 DUP1 CALLDATALOAD PUSH20 0xFFFFFFFFFFFFFFFFFFFFFFFFFFFFFFFFFFFFFFFF AND SWAP1 PUSH1 0x20 ADD SWAP1 SWAP3 SWAP2 SWAP1 DUP1 CALLDATALOAD SWAP1 PUSH1 0x20 ADD SWAP1 SWAP3 SWAP2 SWAP1 POP POP POP PUSH2 0x586 JUMP JUMPDEST PUSH1 0x40 MLOAD DUP1 DUP3 ISZERO ISZERO ISZERO ISZERO DUP2 MSTORE PUSH1 0x20 ADD SWAP2 POP POP PUSH1 0x40 MLOAD DUP1 SWAP2 SUB SWAP1 RETURN JUMPDEST PUSH2 0x19F PUSH2 0x5A4 JUMP JUMPDEST PUSH1 0x40 MLOAD DUP1 DUP3 DUP2 MSTORE PUSH1 0x20 ADD SWAP2 POP POP PUSH1 0x40 MLOAD DUP1 SWAP2 SUB SWAP1 RETURN JUMPDEST PUSH2 0x221 PUSH1 0x4 DUP1 CALLDATASIZE SUB PUSH1 0x60 DUP2 LT ISZERO PUSH2 0x1CB JUMPI PUSH1 0x0 DUP1 REVERT JUMPDEST DUP2 ADD SWAP1 DUP1 DUP1 CALLDATALOAD PUSH20 0xFFFFFFFFFFFFFFFFFFFFFFFFFFFFFFFFFFFFFFFF AND SWAP1 PUSH1 0x20 ADD SWAP1 SWAP3 SWAP2 SWAP1 DUP1 CALLDATALOAD PUSH20 0xFFFFFFFFFFFFFFFFFFFFFFFFFFFFFFFFFFFFFFFF AND SWAP1 PUSH1 0x20 ADD SWAP1 SWAP3 SWAP2 SWAP1 DUP1 CALLDATALOAD SWAP1 PUSH1 0x20 ADD SWAP1 SWAP3 SWAP2 SWAP1 POP POP POP PUSH2 0x5AE JUMP JUMPDEST PUSH1 0x40 MLOAD DUP1 DUP3 ISZERO ISZERO ISZERO ISZERO DUP2 MSTORE PUSH1 0x20 ADD SWAP2 POP POP PUSH1 0x40 MLOAD DUP1 SWAP2 SUB SWAP1 RETURN JUMPDEST PUSH2 0x243 PUSH2 0x687 JUMP JUMPDEST PUSH1 0x40 MLOAD DUP1 DUP3 PUSH1 0xFF AND PUSH1 0xFF AND DUP2 MSTORE PUSH1 0x20 ADD SWAP2 POP POP PUSH1 0x40 MLOAD DUP1 SWAP2 SUB SWAP1 RETURN JUMPDEST PUSH2 0x2AB PUSH1 0x4 DUP1 CALLDATASIZE SUB PUSH1 0x40 DUP2 LT ISZERO PUSH2 0x275 JUMPI PUSH1 0x0 DUP1 REVERT JUMPDEST DUP2 ADD SWAP1 DUP1 DUP1 CALLDATALOAD PUSH20 0xFFFFFFFFFFFFFFFFFFFFFFFFFFFFFFFFFFFFFFFF AND SWAP1 PUSH1 0x20 ADD SWAP1 SWAP3 SWAP2 SWAP1 DUP1 CALLDATALOAD SWAP1 PUSH1 0x20 ADD SWAP1 SWAP3 SWAP2 SWAP1 POP POP POP PUSH2 0x69E JUMP JUMPDEST PUSH1 0x40 MLOAD DUP1 DUP3 ISZERO ISZERO ISZERO ISZERO DUP2 MSTORE PUSH1 0x20 ADD SWAP2 POP POP PUSH1 0x40 MLOAD DUP1 SWAP2 SUB SWAP1 RETURN JUMPDEST PUSH2 0x307 PUSH1 0x4 DUP1 CALLDATASIZE SUB PUSH1 0x20 DUP2 LT ISZERO PUSH2 0x2DB JUMPI PUSH1 0x0 DUP1 REVERT JUMPDEST DUP2 ADD SWAP1 DUP1 DUP1 CALLDATALOAD PUSH20 0xFFFFFFFFFFFFFFFFFFFFFFFFFFFFFFFFFFFFFFFF AND SWAP1 PUSH1 0x20 ADD SWAP1 SWAP3 SWAP2 SWAP1 POP POP POP PUSH2 0x751 JUMP JUMPDEST PUSH1 0x40 MLOAD DUP1 DUP3 DUP2 MSTORE PUSH1 0x20 ADD SWAP2 POP POP PUSH1 0x40 MLOAD DUP1 SWAP2 SUB SWAP1 RETURN JUMPDEST PUSH2 0x325 PUSH2 0x799 JUMP JUMPDEST PUSH1 0x40 MLOAD DUP1 DUP1 PUSH1 0x20 ADD DUP3 DUP2 SUB DUP3 MSTORE DUP4 DUP2 DUP2 MLOAD DUP2 MSTORE PUSH1 0x20 ADD SWAP2 POP DUP1 MLOAD SWAP1 PUSH1 0x20 ADD SWAP1 DUP1 DUP4 DUP4 PUSH1 0x0 JUMPDEST DUP4 DUP2 LT ISZERO PUSH2 0x365 JUMPI DUP1 DUP3 ADD MLOAD DUP2 DUP5 ADD MSTORE PUSH1 0x20 DUP2 ADD SWAP1 POP PUSH2 0x34A JUMP JUMPDEST POP POP POP POP SWAP1 POP SWAP1 DUP2 ADD SWAP1 PUSH1 0x1F AND DUP1 ISZERO PUSH2 0x392 JUMPI DUP1 DUP3 SUB DUP1 MLOAD PUSH1 0x1 DUP4 PUSH1 0x20 SUB PUSH2 0x100 EXP SUB NOT AND DUP2 MSTORE PUSH1 0x20 ADD SWAP2 POP JUMPDEST POP SWAP3 POP POP POP PUSH1 0x40 MLOAD DUP1 SWAP2 SUB SWAP1 RETURN JUMPDEST PUSH2 0x3EC PUSH1 0x4 DUP1 CALLDATASIZE SUB PUSH1 0x40 DUP2 LT ISZERO PUSH2 0x3B6 JUMPI PUSH1 0x0 DUP1 REVERT JUMPDEST DUP2 ADD SWAP1 DUP1 DUP1 CALLDATALOAD PUSH20 0xFFFFFFFFFFFFFFFFFFFFFFFFFFFFFFFFFFFFFFFF AND SWAP1 PUSH1 0x20 ADD SWAP1 SWAP3 SWAP2 SWAP1 DUP1 CALLDATALOAD SWAP1 PUSH1 0x20 ADD SWAP1 SWAP3 SWAP2 SWAP1 POP POP POP PUSH2 0x83B JUMP JUMPDEST PUSH1 0x40 MLOAD DUP1 DUP3 ISZERO ISZERO ISZERO ISZERO DUP2 MSTORE PUSH1 0x20 ADD SWAP2 POP POP PUSH1 0x40 MLOAD DUP1 SWAP2 SUB SWAP1 RETURN JUMPDEST PUSH2 0x452 PUSH1 0x4 DUP1 CALLDATASIZE SUB PUSH1 0x40 DUP2 LT ISZERO PUSH2 0x41C JUMPI PUSH1 0x0 DUP1 REVERT JUMPDEST DUP2 ADD SWAP1 DUP1 DUP1 CALLDATALOAD PUSH20 0xFFFFFFFFFFFFFFFFFFFFFFFFFFFFFFFFFFFFFFFF AND SWAP1 PUSH1 0x20 ADD SWAP1 SWAP3 SWAP2 SWAP1 DUP1 CALLDATALOAD SWAP1 PUSH1 0x20 ADD SWAP1 SWAP3 SWAP2 SWAP1 POP POP POP PUSH2 0x908 JUMP JUMPDEST PUSH1 0x40 MLOAD DUP1 DUP3 ISZERO ISZERO ISZERO ISZERO DUP2 MSTORE PUSH1 0x20 ADD SWAP2 POP POP PUSH1 0x40 MLOAD DUP1 SWAP2 SUB SWAP1 RETURN JUMPDEST PUSH2 0x4CE PUSH1 0x4 DUP1 CALLDATASIZE SUB PUSH1 0x40 DUP2 LT ISZERO PUSH2 0x482 JUMPI PUSH1 0x0 DUP1 REVERT JUMPDEST DUP2 ADD SWAP1 DUP1 DUP1 CALLDATALOAD PUSH20 0xFFFFFFFFFFFFFFFFFFFFFFFFFFFFFFFFFFFFFFFF AND SWAP1 PUSH1 0x20 ADD SWAP1 SWAP3 SWAP2 SWAP1 DUP1 CALLDATALOAD PUSH20 0xFFFFFFFFFFFFFFFFFFFFFFFFFFFFFFFFFFFFFFFF AND SWAP1 PUSH1 0x20 ADD SWAP1 SWAP3 SWAP2 SWAP1 POP POP POP PUSH2 0x926 JUMP JUMPDEST PUSH1 0x40 MLOAD DUP1 DUP3 DUP2 MSTORE PUSH1 0x20 ADD SWAP2 POP POP PUSH1 0x40 MLOAD DUP1 SWAP2 SUB SWAP1 RETURN JUMPDEST PUSH1 0x60 PUSH1 0x3 DUP1 SLOAD PUSH1 0x1 DUP2 PUSH1 0x1 AND ISZERO PUSH2 0x100 MUL SUB AND PUSH1 0x2 SWAP1 DIV DUP1 PUSH1 0x1F ADD PUSH1 0x20 DUP1 SWAP2 DIV MUL PUSH1 0x20 ADD PUSH1 0x40 MLOAD SWAP1 DUP2 ADD PUSH1 0x40 MSTORE DUP1 SWAP3 SWAP2 SWAP1 DUP2 DUP2 MSTORE PUSH1 0x20 ADD DUP3 DUP1 SLOAD PUSH1 0x1 DUP2 PUSH1 0x1 AND ISZERO PUSH2 0x100 MUL SUB AND PUSH1 0x2 SWAP1 DIV DUP1 ISZERO PUSH2 0x57C JUMPI DUP1 PUSH1 0x1F LT PUSH2 0x551 JUMPI PUSH2 0x100 DUP1 DUP4 SLOAD DIV MUL DUP4 MSTORE SWAP2 PUSH1 0x20 ADD SWAP2 PUSH2 0x57C JUMP JUMPDEST DUP3 ADD SWAP2 SWAP1 PUSH1 0x0 MSTORE PUSH1 0x20 PUSH1 0x0 KECCAK256 SWAP1 JUMPDEST DUP2 SLOAD DUP2 MSTORE SWAP1 PUSH1 0x1 ADD SWAP1 PUSH1 0x20 ADD DUP1 DUP4 GT PUSH2 0x55F JUMPI DUP3 SWAP1 SUB PUSH1 0x1F AND DUP3 ADD SWAP2 JUMPDEST POP POP POP POP POP SWAP1 POP SWAP1 JUMP JUMPDEST PUSH1 0x0 PUSH2 0x59A PUSH2 0x593 PUSH2 0x9AD JUMP JUMPDEST DUP5 DUP5 PUSH2 0x9B5 JUMP JUMPDEST PUSH1 0x1 SWAP1 POP SWAP3 SWAP2 POP POP JUMP JUMPDEST PUSH1 0x0 PUSH1 0x2 SLOAD SWAP1 POP SWAP1 JUMP JUMPDEST PUSH1 0x0 PUSH2 0x5BB DUP5 DUP5 DUP5 PUSH2 0xBAC JUMP JUMPDEST PUSH2 0x67C DUP5 PUSH2 0x5C7 PUSH2 0x9AD JUMP JUMPDEST PUSH2 0x677 DUP6 PUSH1 0x40 MLOAD DUP1 PUSH1 0x60 ADD PUSH1 0x40 MSTORE DUP1 PUSH1 0x28 DUP2 MSTORE PUSH1 0x20 ADD PUSH2 0x1026 PUSH1 0x28 SWAP2 CODECOPY PUSH1 0x1 PUSH1 0x0 DUP12 PUSH20 0xFFFFFFFFFFFFFFFFFFFFFFFFFFFFFFFFFFFFFFFF AND PUSH20 0xFFFFFFFFFFFFFFFFFFFFFFFFFFFFFFFFFFFFFFFF AND DUP2 MSTORE PUSH1 0x20 ADD SWAP1 DUP2 MSTORE PUSH1 0x20 ADD PUSH1 0x0 KECCAK256 PUSH1 0x0 PUSH2 0x62D PUSH2 0x9AD JUMP JUMPDEST PUSH20 0xFFFFFFFFFFFFFFFFFFFFFFFFFFFFFFFFFFFFFFFF AND PUSH20 0xFFFFFFFFFFFFFFFFFFFFFFFFFFFFFFFFFFFFFFFF AND DUP2 MSTORE PUSH1 0x20 ADD SWAP1 DUP2 MSTORE PUSH1 0x20 ADD PUSH1 0x0 KECCAK256 SLOAD PUSH2 0xE6D SWAP1 SWAP3 SWAP2 SWAP1 PUSH4 0xFFFFFFFF AND JUMP JUMPDEST PUSH2 0x9B5 JUMP JUMPDEST PUSH1 0x1 SWAP1 POP SWAP4 SWAP3 POP POP POP JUMP JUMPDEST PUSH1 0x0 PUSH1 0x5 PUSH1 0x0 SWAP1 SLOAD SWAP1 PUSH2 0x100 EXP SWAP1 DIV PUSH1 0xFF AND SWAP1 POP SWAP1 JUMP JUMPDEST PUSH1 0x0 PUSH2 0x747 PUSH2 0x6AB PUSH2 0x9AD JUMP JUMPDEST DUP5 PUSH2 0x742 DUP6 PUSH1 0x1 PUSH1 0x0 PUSH2 0x6BC PUSH2 0x9AD JUMP JUMPDEST PUSH20 0xFFFFFFFFFFFFFFFFFFFFFFFFFFFFFFFFFFFFFFFF AND PUSH20 0xFFFFFFFFFFFFFFFFFFFFFFFFFFFFFFFFFFFFFFFF AND DUP2 MSTORE PUSH1 0x20 ADD SWAP1 DUP2 MSTORE PUSH1 0x20 ADD PUSH1 0x0 KECCAK256 PUSH1 0x0 DUP10 PUSH20 0xFFFFFFFFFFFFFFFFFFFFFFFFFFFFFFFFFFFFFFFF AND PUSH20 0xFFFFFFFFFFFFFFFFFFFFFFFFFFFFFFFFFFFFFFFF AND DUP2 MSTORE PUSH1 0x20 ADD SWAP1 DUP2 MSTORE PUSH1 0x20 ADD PUSH1 0x0 KECCAK256 SLOAD PUSH2 0xF2D SWAP1 SWAP2 SWAP1 PUSH4 0xFFFFFFFF AND JUMP JUMPDEST PUSH2 0x9B5 JUMP JUMPDEST PUSH1 0x1 SWAP1 POP SWAP3 SWAP2 POP POP JUMP JUMPDEST PUSH1 0x0 DUP1 PUSH1 0x0 DUP4 PUSH20 0xFFFFFFFFFFFFFFFFFFFFFFFFFFFFFFFFFFFFFFFF AND PUSH20 0xFFFFFFFFFFFFFFFFFFFFFFFFFFFFFFFFFFFFFFFF AND DUP2 MSTORE PUSH1 0x20 ADD SWAP1 DUP2 MSTORE PUSH1 0x20 ADD PUSH1 0x0 KECCAK256 SLOAD SWAP1 POP SWAP2 SWAP1 POP JUMP JUMPDEST PUSH1 0x60 PUSH1 0x4 DUP1 SLOAD PUSH1 0x1 DUP2 PUSH1 0x1 AND ISZERO PUSH2 0x100 MUL SUB AND PUSH1 0x2 SWAP1 DIV DUP1 PUSH1 0x1F ADD PUSH1 0x20 DUP1 SWAP2 DIV MUL PUSH1 0x20 ADD PUSH1 0x40 MLOAD SWAP1 DUP2 ADD PUSH1 0x40 MSTORE DUP1 SWAP3 SWAP2 SWAP1 DUP2 DUP2 MSTORE PUSH1 0x20 ADD DUP3 DUP1 SLOAD PUSH1 0x1 DUP2 PUSH1 0x1 AND ISZERO PUSH2 0x100 MUL SUB AND PUSH1 0x2 SWAP1 DIV DUP1 ISZERO PUSH2 0x831 JUMPI DUP1 PUSH1 0x1F LT PUSH2 0x806 JUMPI PUSH2 0x100 DUP1 DUP4 SLOAD DIV MUL DUP4 MSTORE SWAP2 PUSH1 0x20 ADD SWAP2 PUSH2 0x831 JUMP JUMPDEST DUP3 ADD SWAP2 SWAP1 PUSH1 0x0 MSTORE PUSH1 0x20 PUSH1 0x0 KECCAK256 SWAP1 JUMPDEST DUP2 SLOAD DUP2 MSTORE SWAP1 PUSH1 0x1 ADD SWAP1 PUSH1 0x20 ADD DUP1 DUP4 GT PUSH2 0x814 JUMPI DUP3 SWAP1 SUB PUSH1 0x1F AND DUP3 ADD SWAP2 JUMPDEST POP POP POP POP POP SWAP1 POP SWAP1 JUMP JUMPDEST PUSH1 0x0 PUSH2 0x8FE PUSH2 0x848 PUSH2 0x9AD JUMP JUMPDEST DUP5 PUSH2 0x8F9 DUP6 PUSH1 0x40 MLOAD DUP1 PUSH1 0x60 ADD PUSH1 0x40 MSTORE DUP1 PUSH1 0x25 DUP2 MSTORE PUSH1 0x20 ADD PUSH2 0x1097 PUSH1 0x25 SWAP2 CODECOPY PUSH1 0x1 PUSH1 0x0 PUSH2 0x872 PUSH2 0x9AD JUMP JUMPDEST PUSH20 0xFFFFFFFFFFFFFFFFFFFFFFFFFFFFFFFFFFFFFFFF AND PUSH20 0xFFFFFFFFFFFFFFFFFFFFFFFFFFFFFFFFFFFFFFFF AND DUP2 MSTORE PUSH1 0x20 ADD SWAP1 DUP2 MSTORE PUSH1 0x20 ADD PUSH1 0x0 KECCAK256 PUSH1 0x0 DUP11 PUSH20 0xFFFFFFFFFFFFFFFFFFFFFFFFFFFFFFFFFFFFFFFF AND PUSH20 0xFFFFFFFFFFFFFFFFFFFFFFFFFFFFFFFFFFFFFFFF AND DUP2 MSTORE PUSH1 0x20 ADD SWAP1 DUP2 MSTORE PUSH1 0x20 ADD PUSH1 0x0 KECCAK256 SLOAD PUSH2 0xE6D SWAP1 SWAP3 SWAP2 SWAP1 PUSH4 0xFFFFFFFF AND JUMP JUMPDEST PUSH2 0x9B5 JUMP JUMPDEST PUSH1 0x1 SWAP1 POP SWAP3 SWAP2 POP POP JUMP JUMPDEST PUSH1 0x0 PUSH2 0x91C PUSH2 0x915 PUSH2 0x9AD JUMP JUMPDEST DUP5 DUP5 PUSH2 0xBAC JUMP JUMPDEST PUSH1 0x1 SWAP1 POP SWAP3 SWAP2 POP POP JUMP JUMPDEST PUSH1 0x0 PUSH1 0x1 PUSH1 0x0 DUP5 PUSH20 0xFFFFFFFFFFFFFFFFFFFFFFFFFFFFFFFFFFFFFFFF AND PUSH20 0xFFFFFFFFFFFFFFFFFFFFFFFFFFFFFFFFFFFFFFFF AND DUP2 MSTORE PUSH1 0x20 ADD SWAP1 DUP2 MSTORE PUSH1 0x20 ADD PUSH1 0x0 KECCAK256 PUSH1 0x0 DUP4 PUSH20 0xFFFFFFFFFFFFFFFFFFFFFFFFFFFFFFFFFFFFFFFF AND PUSH20 0xFFFFFFFFFFFFFFFFFFFFFFFFFFFFFFFFFFFFFFFF AND DUP2 MSTORE PUSH1 0x20 ADD SWAP1 DUP2 MSTORE PUSH1 0x20 ADD PUSH1 0x0 KECCAK256 SLOAD SWAP1 POP SWAP3 SWAP2 POP POP JUMP JUMPDEST PUSH1 0x0 CALLER SWAP1 POP SWAP1 JUMP JUMPDEST PUSH1 0x0 PUSH20 0xFFFFFFFFFFFFFFFFFFFFFFFFFFFFFFFFFFFFFFFF AND DUP4 PUSH20 0xFFFFFFFFFFFFFFFFFFFFFFFFFFFFFFFFFFFFFFFF AND EQ ISZERO PUSH2 0xA3B JUMPI PUSH1 0x40 MLOAD PUSH32 0x8C379A000000000000000000000000000000000000000000000000000000000 DUP2 MSTORE PUSH1 0x4 ADD DUP1 DUP1 PUSH1 0x20 ADD DUP3 DUP2 SUB DUP3 MSTORE PUSH1 0x24 DUP2 MSTORE PUSH1 0x20 ADD DUP1 PUSH2 0x1073 PUSH1 0x24 SWAP2 CODECOPY PUSH1 0x40 ADD SWAP2 POP POP PUSH1 0x40 MLOAD DUP1 SWAP2 SUB SWAP1 REVERT JUMPDEST PUSH1 0x0 PUSH20 0xFFFFFFFFFFFFFFFFFFFFFFFFFFFFFFFFFFFFFFFF AND DUP3 PUSH20 0xFFFFFFFFFFFFFFFFFFFFFFFFFFFFFFFFFFFFFFFF AND EQ ISZERO PUSH2 0xAC1 JUMPI PUSH1 0x40 MLOAD PUSH32 0x8C379A000000000000000000000000000000000000000000000000000000000 DUP2 MSTORE PUSH1 0x4 ADD DUP1 DUP1 PUSH1 0x20 ADD DUP3 DUP2 SUB DUP3 MSTORE PUSH1 0x22 DUP2 MSTORE PUSH1 0x20 ADD DUP1 PUSH2 0xFDE PUSH1 0x22 SWAP2 CODECOPY PUSH1 0x40 ADD SWAP2 POP POP PUSH1 0x40 MLOAD DUP1 SWAP2 SUB SWAP1 REVERT JUMPDEST DUP1 PUSH1 0x1 PUSH1 0x0 DUP6 PUSH20 0xFFFFFFFFFFFFFFFFFFFFFFFFFFFFFFFFFFFFFFFF AND PUSH20 0xFFFFFFFFFFFFFFFFFFFFFFFFFFFFFFFFFFFFFFFF AND DUP2 MSTORE PUSH1 0x20 ADD SWAP1 DUP2 MSTORE PUSH1 0x20 ADD PUSH1 0x0 KECCAK256 PUSH1 0x0 DUP5 PUSH20 0xFFFFFFFFFFFFFFFFFFFFFFFFFFFFFFFFFFFFFFFF AND PUSH20 0xFFFFFFFFFFFFFFFFFFFFFFFFFFFFFFFFFFFFFFFF AND DUP2 MSTORE PUSH1 0x20 ADD SWAP1 DUP2 MSTORE PUSH1 0x20 ADD PUSH1 0x0 KECCAK256 DUP2 SWAP1 SSTORE POP DUP2 PUSH20 0xFFFFFFFFFFFFFFFFFFFFFFFFFFFFFFFFFFFFFFFF AND DUP4 PUSH20 0xFFFFFFFFFFFFFFFFFFFFFFFFFFFFFFFFFFFFFFFF AND PUSH32 0x8C5BE1E5EBEC7D5BD14F71427D1E84F3DD0314C0F7B2291E5B200AC8C7C3B925 DUP4 PUSH1 0x40 MLOAD DUP1 DUP3 DUP2 MSTORE PUSH1 0x20 ADD SWAP2 POP POP PUSH1 0x40 MLOAD DUP1 SWAP2 SUB SWAP1 LOG3 POP POP POP JUMP JUMPDEST PUSH1 0x0 PUSH20 0xFFFFFFFFFFFFFFFFFFFFFFFFFFFFFFFFFFFFFFFF AND DUP4 PUSH20 0xFFFFFFFFFFFFFFFFFFFFFFFFFFFFFFFFFFFFFFFF AND EQ ISZERO PUSH2 0xC32 JUMPI PUSH1 0x40 MLOAD PUSH32 0x8C379A000000000000000000000000000000000000000000000000000000000 DUP2 MSTORE PUSH1 0x4 ADD DUP1 DUP1 PUSH1 0x20 ADD DUP3 DUP2 SUB DUP3 MSTORE PUSH1 0x25 DUP2 MSTORE PUSH1 0x20 ADD DUP1 PUSH2 0x104E PUSH1 0x25 SWAP2 CODECOPY PUSH1 0x40 ADD SWAP2 POP POP PUSH1 0x40 MLOAD DUP1 SWAP2 SUB SWAP1 REVERT JUMPDEST PUSH1 0x0 PUSH20 0xFFFFFFFFFFFFFFFFFFFFFFFFFFFFFFFFFFFFFFFF AND DUP3 PUSH20 0xFFFFFFFFFFFFFFFFFFFFFFFFFFFFFFFFFFFFFFFF AND EQ ISZERO PUSH2 0xCB8 JUMPI PUSH1 0x40 MLOAD PUSH32 0x8C379A000000000000000000000000000000000000000000000000000000000 DUP2 MSTORE PUSH1 0x4 ADD DUP1 DUP1 PUSH1 0x20 ADD DUP3 DUP2 SUB DUP3 MSTORE PUSH1 0x23 DUP2 MSTORE PUSH1 0x20 ADD DUP1 PUSH2 0xFBB PUSH1 0x23 SWAP2 CODECOPY PUSH1 0x40 ADD SWAP2 POP POP PUSH1 0x40 MLOAD DUP1 SWAP2 SUB SWAP1 REVERT JUMPDEST PUSH2 0xCC3 DUP4 DUP4 DUP4 PUSH2 0xFB5 JUMP JUMPDEST PUSH2 0xD2E DUP2 PUSH1 0x40 MLOAD DUP1 PUSH1 0x60 ADD PUSH1 0x40 MSTORE DUP1 PUSH1 0x26 DUP2 MSTORE PUSH1 0x20 ADD PUSH2 0x1000 PUSH1 0x26 SWAP2 CODECOPY PUSH1 0x0 DUP1 DUP8 PUSH20 0xFFFFFFFFFFFFFFFFFFFFFFFFFFFFFFFFFFFFFFFF AND PUSH20 0xFFFFFFFFFFFFFFFFFFFFFFFFFFFFFFFFFFFFFFFF AND DUP2 MSTORE PUSH1 0x20 ADD SWAP1 DUP2 MSTORE PUSH1 0x20 ADD PUSH1 0x0 KECCAK256 SLOAD PUSH2 0xE6D SWAP1 SWAP3 SWAP2 SWAP1 PUSH4 0xFFFFFFFF AND JUMP JUMPDEST PUSH1 0x0 DUP1 DUP6 PUSH20 0xFFFFFFFFFFFFFFFFFFFFFFFFFFFFFFFFFFFFFFFF AND PUSH20 0xFFFFFFFFFFFFFFFFFFFFFFFFFFFFFFFFFFFFFFFF AND DUP2 MSTORE PUSH1 0x20 ADD SWAP1 DUP2 MSTORE PUSH1 0x20 ADD PUSH1 0x0 KECCAK256 DUP2 SWAP1 SSTORE POP PUSH2 0xDC1 DUP2 PUSH1 0x0 DUP1 DUP6 PUSH20 0xFFFFFFFFFFFFFFFFFFFFFFFFFFFFFFFFFFFFFFFF AND PUSH20 0xFFFFFFFFFFFFFFFFFFFFFFFFFFFFFFFFFFFFFFFF AND DUP2 MSTORE PUSH1 0x20 ADD SWAP1 DUP2 MSTORE PUSH1 0x20 ADD PUSH1 0x0 KECCAK256 SLOAD PUSH2 0xF2D SWAP1 SWAP2 SWAP1 PUSH4 0xFFFFFFFF AND JUMP JUMPDEST PUSH1 0x0 DUP1 DUP5 PUSH20 0xFFFFFFFFFFFFFFFFFFFFFFFFFFFFFFFFFFFFFFFF AND PUSH20 0xFFFFFFFFFFFFFFFFFFFFFFFFFFFFFFFFFFFFFFFF AND DUP2 MSTORE PUSH1 0x20 ADD SWAP1 DUP2 MSTORE PUSH1 0x20 ADD PUSH1 0x0 KECCAK256 DUP2 SWAP1 SSTORE POP DUP2 PUSH20 0xFFFFFFFFFFFFFFFFFFFFFFFFFFFFFFFFFFFFFFFF AND DUP4 PUSH20 0xFFFFFFFFFFFFFFFFFFFFFFFFFFFFFFFFFFFFFFFF AND PUSH32 0xDDF252AD1BE2C89B69C2B068FC378DAA952BA7F163C4A11628F55A4DF523B3EF DUP4 PUSH1 0x40 MLOAD DUP1 DUP3 DUP2 MSTORE PUSH1 0x20 ADD SWAP2 POP POP PUSH1 0x40 MLOAD DUP1 SWAP2 SUB SWAP1 LOG3 POP POP POP JUMP JUMPDEST PUSH1 0x0 DUP4 DUP4 GT ISZERO DUP3 SWAP1 PUSH2 0xF1A JUMPI PUSH1 0x40 MLOAD PUSH32 0x8C379A000000000000000000000000000000000000000000000000000000000 DUP2 MSTORE PUSH1 0x4 ADD DUP1 DUP1 PUSH1 0x20 ADD DUP3 DUP2 SUB DUP3 MSTORE DUP4 DUP2 DUP2 MLOAD DUP2 MSTORE PUSH1 0x20 ADD SWAP2 POP DUP1 MLOAD SWAP1 PUSH1 0x20 ADD SWAP1 DUP1 DUP4 DUP4 PUSH1 0x0 JUMPDEST DUP4 DUP2 LT ISZERO PUSH2 0xEDF JUMPI DUP1 DUP3 ADD MLOAD DUP2 DUP5 ADD MSTORE PUSH1 0x20 DUP2 ADD SWAP1 POP PUSH2 0xEC4 JUMP JUMPDEST POP POP POP POP SWAP1 POP SWAP1 DUP2 ADD SWAP1 PUSH1 0x1F AND DUP1 ISZERO PUSH2 0xF0C JUMPI DUP1 DUP3 SUB DUP1 MLOAD PUSH1 0x1 DUP4 PUSH1 0x20 SUB PUSH2 0x100 EXP SUB NOT AND DUP2 MSTORE PUSH1 0x20 ADD SWAP2 POP JUMPDEST POP SWAP3 POP POP POP PUSH1 0x40 MLOAD DUP1 SWAP2 SUB SWAP1 REVERT JUMPDEST POP PUSH1 0x0 DUP4 DUP6 SUB SWAP1 POP DUP1 SWAP2 POP POP SWAP4 SWAP3 POP POP POP JUMP JUMPDEST PUSH1 0x0 DUP1 DUP3 DUP5 ADD SWAP1 POP DUP4 DUP2 LT ISZERO PUSH2 0xFAB JUMPI PUSH1 0x40 MLOAD PUSH32 0x8C379A000000000000000000000000000000000000000000000000000000000 DUP2 MSTORE PUSH1 0x4 ADD DUP1 DUP1 PUSH1 0x20 ADD DUP3 DUP2 SUB DUP3 MSTORE PUSH1 0x1B DUP2 MSTORE PUSH1 0x20 ADD DUP1 PUSH32 0x536166654D6174683A206164646974696F6E206F766572666C6F770000000000 DUP2 MSTORE POP PUSH1 0x20 ADD SWAP2 POP POP PUSH1 0x40 MLOAD DUP1 SWAP2 SUB SWAP1 REVERT JUMPDEST DUP1 SWAP2 POP POP SWAP3 SWAP2 POP POP JUMP JUMPDEST POP POP POP JUMP INVALID GASLIMIT MSTORE NUMBER ORIGIN ADDRESS GASPRICE KECCAK256 PUSH21 0x72616E7366657220746F20746865207A65726F2061 PUSH5 0x6472657373 GASLIMIT MSTORE NUMBER ORIGIN ADDRESS GASPRICE KECCAK256 PUSH2 0x7070 PUSH19 0x6F766520746F20746865207A65726F20616464 PUSH19 0x65737345524332303A207472616E7366657220 PUSH2 0x6D6F PUSH22 0x6E7420657863656564732062616C616E636545524332 ADDRESS GASPRICE KECCAK256 PUSH21 0x72616E7366657220616D6F756E7420657863656564 PUSH20 0x20616C6C6F77616E636545524332303A20747261 PUSH15 0x736665722066726F6D20746865207A PUSH6 0x726F20616464 PUSH19 0x65737345524332303A20617070726F76652066 PUSH19 0x6F6D20746865207A65726F2061646472657373 GASLIMIT MSTORE NUMBER ORIGIN ADDRESS GASPRICE KECCAK256 PUSH5 0x6563726561 PUSH20 0x656420616C6C6F77616E63652062656C6F77207A PUSH6 0x726FA2646970 PUSH7 0x7358221220DBE2 0xB2 MSIZE 0xC7 0xE7 0xD2 0x5D SWAP5 DUP2 NOT 0xBC PUSH21 0x3364B8E8F0706788F072AD67C36B0E94DE13D76473 PUSH16 0x6C634300060B00330000000000000000 "},"gasEstimates":{"creation":{"codeDepositCost":"867400","executionCost":"infinite","totalCost":"infinite"},"external":{"allowance(address,address)":"1431","approve(address,uint256)":"infinite","balanceOf(address)":"1218","decimals()":"1150","decreaseAllowance(address,uint256)":"infinite","increaseAllowance(address,uint256)":"infinite","name()":"infinite","symbol()":"infinite","totalSupply()":"1058","transfer(address,uint256)":"infinite","transferFrom(address,address,uint256)":"infinite"},"internal":{"_approve(address,address,uint256)":"infinite","_beforeTokenTransfer(address,address,uint256)":"15","_burn(address,uint256)":"infinite","_mint(address,uint256)":"infinite","_setupDecimals(uint8)":"infinite","_transfer(address,address,uint256)":"infinite"}},"methodIdentifiers":{"allowance(address,address)":"dd62ed3e","approve(address,uint256)":"095ea7b3","balanceOf(address)":"70a08231","decimals()":"313ce567","decreaseAllowance(address,uint256)":"a457c2d7","increaseAllowance(address,uint256)":"39509351","name()":"06fdde03","symbol()":"95d89b41","totalSupply()":"18160ddd","transfer(address,uint256)":"a9059cbb","transferFrom(address,address,uint256)":"23b872dd"}},"storageLayout":{"storage":[{"astId":5198,"contract":"openzeppelin-solidity/contracts/token/ERC20/ERC20.sol:ERC20","label":"_balances","offset":0,"slot":"0","type":"t_mapping(t_address,t_uint256)"},{"astId":5204,"contract":"openzeppelin-solidity/contracts/token/ERC20/ERC20.sol:ERC20","label":"_allowances","offset":0,"slot":"1","type":"t_mapping(t_address,t_mapping(t_address,t_uint256))"},{"astId":5206,"contract":"openzeppelin-solidity/contracts/token/ERC20/ERC20.sol:ERC20","label":"_totalSupply","offset":0,"slot":"2","type":"t_uint256"},{"astId":5208,"contract":"openzeppelin-solidity/contracts/token/ERC20/ERC20.sol:ERC20","label":"_name","offset":0,"slot":"3","type":"t_string_storage"},{"astId":5210,"contract":"openzeppelin-solidity/contracts/token/ERC20/ERC20.sol:ERC20","label":"_symbol","offset":0,"slot":"4","type":"t_string_storage"},{"astId":5212,"contract":"openzeppelin-solidity/contracts/token/ERC20/ERC20.sol:ERC20","label":"_decimals","offset":0,"slot":"5","type":"t_uint8"}],"types":{"t_address":{"encoding":"inplace","label":"address","numberOfBytes":"20"},"t_mapping(t_address,t_mapping(t_address,t_uint256))":{"encoding":"mapping","key":"t_address","label":"mapping(address => mapping(address => uint256))","numberOfBytes":"32","value":"t_mapping(t_address,t_uint256)"},"t_mapping(t_address,t_uint256)":{"encoding":"mapping","key":"t_address","label":"mapping(address => uint256)","numberOfBytes":"32","value":"t_uint256"},"t_string_storage":{"encoding":"bytes","label":"string","numberOfBytes":"32"},"t_uint256":{"encoding":"inplace","label":"uint256","numberOfBytes":"32"},"t_uint8":{"encoding":"inplace","label":"uint8","numberOfBytes":"1"}}},"userdoc":{"kind":"user","methods":{},"version":1}}