{"abi":[{"anonymous":false,"inputs":[{"indexed":false,"internalType":"uint256","name":"id","type":"uint256"},{"indexed":false,"internalType":"uint256","name":"epoch","type":"uint256"},{"indexed":false,"internalType":"string","name":"url","type":"string"},{"indexed":false,"internalType":"string","name":"selector","type":"string"},{"indexed":false,"internalType":"string","name":"name","type":"string"},{"indexed":false,"internalType":"bool","name":"repeat","type":"bool"},{"indexed":false,"internalType":"address","name":"creator","type":"address"},{"indexed":false,"internalType":"uint256","name":"credit","type":"uint256"},{"indexed":false,"internalType":"uint256","name":"timestamp","type":"uint256"}],"name":"JobCreated","type":"event"},{"anonymous":false,"inputs":[{"indexed":false,"internalType":"uint256","name":"id","type":"uint256"},{"indexed":false,"internalType":"uint256","name":"value","type":"uint256"},{"indexed":false,"internalType":"uint256","name":"epoch","type":"uint256"},{"indexed":false,"internalType":"string","name":"url","type":"string"},{"indexed":false,"internalType":"string","name":"selector","type":"string"},{"indexed":false,"internalType":"string","name":"name","type":"string"},{"indexed":false,"internalType":"bool","name":"repeat","type":"bool"},{"indexed":false,"internalType":"address","name":"creator","type":"address"},{"indexed":false,"internalType":"uint256","name":"credit","type":"uint256"},{"indexed":false,"internalType":"bool","name":"fulfilled","type":"bool"},{"indexed":false,"internalType":"uint256","name":"timestamp","type":"uint256"}],"name":"JobReported","type":"event"},{"anonymous":false,"inputs":[{"indexed":true,"internalType":"bytes32","name":"role","type":"bytes32"},{"indexed":true,"internalType":"bytes32","name":"previousAdminRole","type":"bytes32"},{"indexed":true,"internalType":"bytes32","name":"newAdminRole","type":"bytes32"}],"name":"RoleAdminChanged","type":"event"},{"anonymous":false,"inputs":[{"indexed":true,"internalType":"bytes32","name":"role","type":"bytes32"},{"indexed":true,"internalType":"address","name":"account","type":"address"},{"indexed":true,"internalType":"address","name":"sender","type":"address"}],"name":"RoleGranted","type":"event"},{"anonymous":false,"inputs":[{"indexed":true,"internalType":"bytes32","name":"role","type":"bytes32"},{"indexed":true,"internalType":"address","name":"account","type":"address"},{"indexed":true,"internalType":"address","name":"sender","type":"address"}],"name":"RoleRevoked","type":"event"},{"anonymous":false,"inputs":[{"indexed":true,"internalType":"address","name":"account","type":"address"}],"name":"WriterAdded","type":"event"},{"anonymous":false,"inputs":[{"indexed":true,"internalType":"address","name":"account","type":"address"}],"name":"WriterRemoved","type":"event"},{"inputs":[],"name":"DEFAULT_ADMIN_ROLE","outputs":[{"internalType":"bytes32","name":"","type":"bytes32"}],"stateMutability":"view","type":"function"},{"inputs":[{"internalType":"address","name":"account","type":"address"}],"name":"addWriter","outputs":[],"stateMutability":"nonpayable","type":"function"},{"inputs":[{"internalType":"string","name":"url","type":"string"},{"internalType":"string","name":"selector","type":"string"},{"internalType":"string","name":"name","type":"string"},{"internalType":"bool","name":"repeat","type":"bool"}],"name":"createJob","outputs":[],"stateMutability":"payable","type":"function"},{"inputs":[{"internalType":"uint256","name":"jobId","type":"uint256"},{"internalType":"uint256","name":"value","type":"uint256"}],"name":"fulfillJob","outputs":[],"stateMutability":"nonpayable","type":"function"},{"inputs":[{"internalType":"uint256","name":"id","type":"uint256"}],"name":"getJob","outputs":[{"internalType":"string","name":"url","type":"string"},{"internalType":"string","name":"selector","type":"string"},{"internalType":"string","name":"name","type":"string"},{"internalType":"bool","name":"repeat","type":"bool"},{"internalType":"uint256","name":"result","type":"uint256"}],"stateMutability":"view","type":"function"},{"inputs":[{"internalType":"uint256","name":"id","type":"uint256"}],"name":"getResult","outputs":[{"internalType":"uint256","name":"","type":"uint256"}],"stateMutability":"view","type":"function"},{"inputs":[{"internalType":"bytes32","name":"role","type":"bytes32"}],"name":"getRoleAdmin","outputs":[{"internalType":"bytes32","name":"","type":"bytes32"}],"stateMutability":"view","type":"function"},{"inputs":[{"internalType":"bytes32","name":"role","type":"bytes32"},{"internalType":"uint256","name":"index","type":"uint256"}],"name":"getRoleMember","outputs":[{"internalType":"address","name":"","type":"address"}],"stateMutability":"view","type":"function"},{"inputs":[{"internalType":"bytes32","name":"role","type":"bytes32"}],"name":"getRoleMemberCount","outputs":[{"internalType":"uint256","name":"","type":"uint256"}],"stateMutability":"view","type":"function"},{"inputs":[{"internalType":"bytes32","name":"role","type":"bytes32"},{"internalType":"address","name":"account","type":"address"}],"name":"grantRole","outputs":[],"stateMutability":"nonpayable","type":"function"},{"inputs":[{"internalType":"bytes32","name":"role","type":"bytes32"},{"internalType":"address","name":"account","type":"address"}],"name":"hasRole","outputs":[{"internalType":"bool","name":"","type":"bool"}],"stateMutability":"view","type":"function"},{"inputs":[{"internalType":"address","name":"_stateManagerAddress","type":"address"}],"name":"init","outputs":[],"stateMutability":"nonpayable","type":"function"},{"inputs":[{"internalType":"address","name":"account","type":"address"}],"name":"isWriter","outputs":[{"internalType":"bool","name":"","type":"bool"}],"stateMutability":"view","type":"function"},{"inputs":[{"internalType":"uint256","name":"","type":"uint256"}],"name":"jobs","outputs":[{"internalType":"uint256","name":"id","type":"uint256"},{"internalType":"uint256","name":"epoch","type":"uint256"},{"internalType":"string","name":"url","type":"string"},{"internalType":"string","name":"selector","type":"string"},{"internalType":"string","name":"name","type":"string"},{"internalType":"bool","name":"repeat","type":"bool"},{"internalType":"address","name":"creator","type":"address"},{"internalType":"uint256","name":"credit","type":"uint256"},{"internalType":"bool","name":"fulfilled","type":"bool"},{"internalType":"uint256","name":"result","type":"uint256"}],"stateMutability":"view","type":"function"},{"inputs":[],"name":"numJobs","outputs":[{"internalType":"uint256","name":"","type":"uint256"}],"stateMutability":"view","type":"function"},{"inputs":[{"internalType":"bytes32","name":"role","type":"bytes32"},{"internalType":"address","name":"account","type":"address"}],"name":"renounceRole","outputs":[],"stateMutability":"nonpayable","type":"function"},{"inputs":[],"name":"renounceWriter","outputs":[],"stateMutability":"nonpayable","type":"function"},{"inputs":[{"internalType":"bytes32","name":"role","type":"bytes32"},{"internalType":"address","name":"account","type":"address"}],"name":"revokeRole","outputs":[],"stateMutability":"nonpayable","type":"function"},{"inputs":[],"name":"stateManager","outputs":[{"internalType":"contract IStateManager","name":"","type":"address"}],"stateMutability":"view","type":"function"}],"devdoc":{"kind":"dev","methods":{"getRoleAdmin(bytes32)":{"details":"Returns the admin role that controls `role`. See {grantRole} and {revokeRole}. To change a role's admin, use {_setRoleAdmin}."},"getRoleMember(bytes32,uint256)":{"details":"Returns one of the accounts that have `role`. `index` must be a value between 0 and {getRoleMemberCount}, non-inclusive. Role bearers are not sorted in any particular way, and their ordering may change at any point. WARNING: When using {getRoleMember} and {getRoleMemberCount}, make sure you perform all queries on the same block. See the following https://forum.openzeppelin.com/t/iterating-over-elements-on-enumerableset-in-openzeppelin-contracts/2296[forum post] for more information."},"getRoleMemberCount(bytes32)":{"details":"Returns the number of accounts that have `role`. Can be used together with {getRoleMember} to enumerate all bearers of a role."},"grantRole(bytes32,address)":{"details":"Grants `role` to `account`. If `account` had not been already granted `role`, emits a {RoleGranted} event. Requirements: - the caller must have ``role``'s admin role."},"hasRole(bytes32,address)":{"details":"Returns `true` if `account` has been granted `role`."},"renounceRole(bytes32,address)":{"details":"Revokes `role` from the calling account. Roles are often managed via {grantRole} and {revokeRole}: this function's purpose is to provide a mechanism for accounts to lose their privileges if they are compromised (such as when a trusted device is misplaced). If the calling account had been granted `role`, emits a {RoleRevoked} event. Requirements: - the caller must be `account`."},"revokeRole(bytes32,address)":{"details":"Revokes `role` from `account`. If `account` had been granted `role`, emits a {RoleRevoked} event. Requirements: - the caller must have ``role``'s admin role."}},"version":1},"evm":{"assembly":"    /* \"JobManager.sol\":240:2506  contract JobManager is WriterRole, JobStorage {... */\n  mstore(0x40, 0x80)\n  callvalue\n  dup1\n  iszero\n  tag_1\n  jumpi\n  0x00\n  dup1\n  revert\ntag_1:\n  pop\n    /* \"WriterRole.sol\":382:396  bytes32 _admin */\n  0x00\n    /* \"WriterRole.sol\":426:436  msg.sender */\n  caller\n    /* \"WriterRole.sol\":409:437  abi.encodePacked(msg.sender) */\n  add(0x20, mload(0x40))\n  tag_4\n  swap2\n  swap1\n  tag_5\n  jump\t// in\ntag_4:\n  mload(0x40)\n  0x20\n  dup2\n  dup4\n  sub\n  sub\n  dup2\n  mstore\n  swap1\n  0x40\n  mstore\n    /* \"WriterRole.sol\":399:438  keccak256(abi.encodePacked(msg.sender)) */\n  dup1\n  mload\n  swap1\n  0x20\n  add\n  keccak256\n    /* \"WriterRole.sol\":382:438  bytes32 _admin = keccak256(abi.encodePacked(msg.sender)) */\n  swap1\n  pop\n    /* \"WriterRole.sol\":448:475  _setRoleAdmin(role, _admin) */\n  tag_6\n    /* \"WriterRole.sol\":313:332  keccak256(\"Writer\") */\n  mload(0x40)\n  tag_7\n  swap1\n  tag_8\n  jump\t// in\ntag_7:\n  mload(0x40)\n  dup1\n  swap2\n  sub\n  swap1\n  keccak256\n    /* \"WriterRole.sol\":468:474  _admin */\n  dup3\n    /* \"WriterRole.sol\":448:461  _setRoleAdmin */\n  shl(0x20, tag_9)\n    /* \"WriterRole.sol\":448:475  _setRoleAdmin(role, _admin) */\n  0x20\n  shr\n  jump\t// in\ntag_6:\n    /* \"WriterRole.sol\":485:513  _setupRole(role, msg.sender) */\n  tag_10\n    /* \"WriterRole.sol\":313:332  keccak256(\"Writer\") */\n  mload(0x40)\n  tag_11\n  swap1\n  tag_8\n  jump\t// in\ntag_11:\n  mload(0x40)\n  dup1\n  swap2\n  sub\n  swap1\n  keccak256\n    /* \"WriterRole.sol\":502:512  msg.sender */\n  caller\n    /* \"WriterRole.sol\":485:495  _setupRole */\n  shl(0x20, tag_12)\n    /* \"WriterRole.sol\":485:513  _setupRole(role, msg.sender) */\n  0x20\n  shr\n  jump\t// in\ntag_10:\n    /* \"WriterRole.sol\":348:520  constructor () internal {... */\n  pop\n    /* \"JobManager.sol\":240:2506  contract JobManager is WriterRole, JobStorage {... */\n  jump(tag_13)\n    /* \"openzeppelin-solidity/contracts/access/AccessControl.sol\":6813:7009   */\ntag_9:\n    /* \"openzeppelin-solidity/contracts/access/AccessControl.sol\":6948:6957   */\n  dup1\n    /* \"openzeppelin-solidity/contracts/access/AccessControl.sol\":6924:6930   */\n  0x00\n    /* \"openzeppelin-solidity/contracts/access/AccessControl.sol\":6924:6936   */\n  dup1\n    /* \"openzeppelin-solidity/contracts/access/AccessControl.sol\":6931:6935   */\n  dup5\n    /* \"openzeppelin-solidity/contracts/access/AccessControl.sol\":6924:6936   */\n  dup2\n  mstore\n  0x20\n  add\n  swap1\n  dup2\n  mstore\n  0x20\n  add\n  0x00\n  keccak256\n    /* \"openzeppelin-solidity/contracts/access/AccessControl.sol\":6924:6946   */\n  0x02\n  add\n  sload\n    /* \"openzeppelin-solidity/contracts/access/AccessControl.sol\":6918:6922   */\n  dup4\n    /* \"openzeppelin-solidity/contracts/access/AccessControl.sol\":6901:6958   */\n  0xbd79b86ffe0ab8e8776151514217cd7cacd52c909f66475c3af44e129f0b00ff\n  mload(0x40)\n  mload(0x40)\n  dup1\n  swap2\n  sub\n  swap1\n  log4\n    /* \"openzeppelin-solidity/contracts/access/AccessControl.sol\":6993:7002   */\n  dup1\n    /* \"openzeppelin-solidity/contracts/access/AccessControl.sol\":6968:6974   */\n  0x00\n    /* \"openzeppelin-solidity/contracts/access/AccessControl.sol\":6968:6980   */\n  dup1\n    /* \"openzeppelin-solidity/contracts/access/AccessControl.sol\":6975:6979   */\n  dup5\n    /* \"openzeppelin-solidity/contracts/access/AccessControl.sol\":6968:6980   */\n  dup2\n  mstore\n  0x20\n  add\n  swap1\n  dup2\n  mstore\n  0x20\n  add\n  0x00\n  keccak256\n    /* \"openzeppelin-solidity/contracts/access/AccessControl.sol\":6968:6990   */\n  0x02\n  add\n    /* \"openzeppelin-solidity/contracts/access/AccessControl.sol\":6968:7002   */\n  dup2\n  swap1\n  sstore\n  pop\n    /* \"openzeppelin-solidity/contracts/access/AccessControl.sol\":6813:7009   */\n  pop\n  pop\n  jump\t// out\n    /* \"openzeppelin-solidity/contracts/access/AccessControl.sol\":6578:6688   */\ntag_12:\n    /* \"openzeppelin-solidity/contracts/access/AccessControl.sol\":6656:6681   */\n  tag_16\n    /* \"openzeppelin-solidity/contracts/access/AccessControl.sol\":6667:6671   */\n  dup3\n    /* \"openzeppelin-solidity/contracts/access/AccessControl.sol\":6673:6680   */\n  dup3\n    /* \"openzeppelin-solidity/contracts/access/AccessControl.sol\":6656:6666   */\n  shl(0x20, tag_17)\n    /* \"openzeppelin-solidity/contracts/access/AccessControl.sol\":6656:6681   */\n  0x20\n  shr\n  jump\t// in\ntag_16:\n    /* \"openzeppelin-solidity/contracts/access/AccessControl.sol\":6578:6688   */\n  pop\n  pop\n  jump\t// out\n    /* \"openzeppelin-solidity/contracts/access/AccessControl.sol\":7015:7199   */\ntag_17:\n    /* \"openzeppelin-solidity/contracts/access/AccessControl.sol\":7088:7121   */\n  tag_19\n    /* \"openzeppelin-solidity/contracts/access/AccessControl.sol\":7113:7120   */\n  dup2\n    /* \"openzeppelin-solidity/contracts/access/AccessControl.sol\":7088:7094   */\n  0x00\n    /* \"openzeppelin-solidity/contracts/access/AccessControl.sol\":7088:7100   */\n  dup1\n    /* \"openzeppelin-solidity/contracts/access/AccessControl.sol\":7095:7099   */\n  dup6\n    /* \"openzeppelin-solidity/contracts/access/AccessControl.sol\":7088:7100   */\n  dup2\n  mstore\n  0x20\n  add\n  swap1\n  dup2\n  mstore\n  0x20\n  add\n  0x00\n  keccak256\n    /* \"openzeppelin-solidity/contracts/access/AccessControl.sol\":7088:7108   */\n  0x00\n  add\n    /* \"openzeppelin-solidity/contracts/access/AccessControl.sol\":7088:7112   */\n  or(tag_0_120, shl(0x20, tag_20))\n  swap1\n    /* \"openzeppelin-solidity/contracts/access/AccessControl.sol\":7088:7121   */\n  swap2\n  swap1\n  0x20\n  shr\n  jump\t// in\ntag_19:\n    /* \"openzeppelin-solidity/contracts/access/AccessControl.sol\":7084:7193   */\n  iszero\n  tag_21\n  jumpi\n    /* \"openzeppelin-solidity/contracts/access/AccessControl.sol\":7169:7181   */\n  tag_22\n    /* \"openzeppelin-solidity/contracts/access/AccessControl.sol\":7169:7179   */\n  shl(0x20, tag_23)\n    /* \"openzeppelin-solidity/contracts/access/AccessControl.sol\":7169:7181   */\n  0x20\n  shr\n  jump\t// in\ntag_22:\n    /* \"openzeppelin-solidity/contracts/access/AccessControl.sol\":7142:7182   */\n  0xffffffffffffffffffffffffffffffffffffffff\n  and\n    /* \"openzeppelin-solidity/contracts/access/AccessControl.sol\":7160:7167   */\n  dup2\n    /* \"openzeppelin-solidity/contracts/access/AccessControl.sol\":7142:7182   */\n  0xffffffffffffffffffffffffffffffffffffffff\n  and\n    /* \"openzeppelin-solidity/contracts/access/AccessControl.sol\":7154:7158   */\n  dup4\n    /* \"openzeppelin-solidity/contracts/access/AccessControl.sol\":7142:7182   */\n  0x2f8788117e7eff1d82e926ec794901d17c78024a50270940304540a733656f0d\n  mload(0x40)\n  mload(0x40)\n  dup1\n  swap2\n  sub\n  swap1\n  log4\n    /* \"openzeppelin-solidity/contracts/access/AccessControl.sol\":7084:7193   */\ntag_21:\n    /* \"openzeppelin-solidity/contracts/access/AccessControl.sol\":7015:7199   */\n  pop\n  pop\n  jump\t// out\n    /* \"openzeppelin-solidity/contracts/utils/EnumerableSet.sol\":4864:5005   */\ntag_20:\n    /* \"openzeppelin-solidity/contracts/utils/EnumerableSet.sol\":4934:4938   */\n  0x00\n    /* \"openzeppelin-solidity/contracts/utils/EnumerableSet.sol\":4957:4998   */\n  tag_25\n    /* \"openzeppelin-solidity/contracts/utils/EnumerableSet.sol\":4962:4965   */\n  dup4\n    /* \"openzeppelin-solidity/contracts/utils/EnumerableSet.sol\":4962:4972   */\n  0x00\n  add\n    /* \"openzeppelin-solidity/contracts/utils/EnumerableSet.sol\":4990:4995   */\n  dup4\n    /* \"openzeppelin-solidity/contracts/utils/EnumerableSet.sol\":4982:4996   */\n  0xffffffffffffffffffffffffffffffffffffffff\n  and\n    /* \"openzeppelin-solidity/contracts/utils/EnumerableSet.sol\":4974:4997   */\n  0x00\n  shl\n    /* \"openzeppelin-solidity/contracts/utils/EnumerableSet.sol\":4957:4961   */\n  shl(0x20, tag_26)\n    /* \"openzeppelin-solidity/contracts/utils/EnumerableSet.sol\":4957:4998   */\n  0x20\n  shr\n  jump\t// in\ntag_25:\n    /* \"openzeppelin-solidity/contracts/utils/EnumerableSet.sol\":4950:4998   */\n  swap1\n  pop\n    /* \"openzeppelin-solidity/contracts/utils/EnumerableSet.sol\":4864:5005   */\n  swap3\n  swap2\n  pop\n  pop\n  jump\t// out\n    /* \"openzeppelin-solidity/contracts/GSN/Context.sol\":590:694   */\ntag_23:\n    /* \"openzeppelin-solidity/contracts/GSN/Context.sol\":643:658   */\n  0x00\n    /* \"openzeppelin-solidity/contracts/GSN/Context.sol\":677:687   */\n  caller\n    /* \"openzeppelin-solidity/contracts/GSN/Context.sol\":670:687   */\n  swap1\n  pop\n    /* \"openzeppelin-solidity/contracts/GSN/Context.sol\":590:694   */\n  swap1\n  jump\t// out\n    /* \"openzeppelin-solidity/contracts/utils/EnumerableSet.sol\":1611:2015   */\ntag_26:\n    /* \"openzeppelin-solidity/contracts/utils/EnumerableSet.sol\":1674:1678   */\n  0x00\n    /* \"openzeppelin-solidity/contracts/utils/EnumerableSet.sol\":1695:1716   */\n  tag_29\n    /* \"openzeppelin-solidity/contracts/utils/EnumerableSet.sol\":1705:1708   */\n  dup4\n    /* \"openzeppelin-solidity/contracts/utils/EnumerableSet.sol\":1710:1715   */\n  dup4\n    /* \"openzeppelin-solidity/contracts/utils/EnumerableSet.sol\":1695:1704   */\n  shl(0x20, tag_30)\n    /* \"openzeppelin-solidity/contracts/utils/EnumerableSet.sol\":1695:1716   */\n  0x20\n  shr\n  jump\t// in\ntag_29:\n    /* \"openzeppelin-solidity/contracts/utils/EnumerableSet.sol\":1690:2009   */\n  tag_31\n  jumpi\n    /* \"openzeppelin-solidity/contracts/utils/EnumerableSet.sol\":1732:1735   */\n  dup3\n    /* \"openzeppelin-solidity/contracts/utils/EnumerableSet.sol\":1732:1743   */\n  0x00\n  add\n    /* \"openzeppelin-solidity/contracts/utils/EnumerableSet.sol\":1749:1754   */\n  dup3\n    /* \"openzeppelin-solidity/contracts/utils/EnumerableSet.sol\":1732:1755   */\n  swap1\n  dup1\n  0x01\n  dup2\n  sload\n  add\n  dup1\n  dup3\n  sstore\n  dup1\n  swap2\n  pop\n  pop\n  0x01\n  swap1\n  sub\n  swap1\n  0x00\n  mstore\n  keccak256(0x00, 0x20)\n  add\n  0x00\n  swap1\n  swap2\n  swap1\n  swap2\n  swap1\n  swap2\n  pop\n  sstore\n    /* \"openzeppelin-solidity/contracts/utils/EnumerableSet.sol\":1912:1915   */\n  dup3\n    /* \"openzeppelin-solidity/contracts/utils/EnumerableSet.sol\":1912:1923   */\n  0x00\n  add\n    /* \"openzeppelin-solidity/contracts/utils/EnumerableSet.sol\":1912:1930   */\n  dup1\n  sload\n  swap1\n  pop\n    /* \"openzeppelin-solidity/contracts/utils/EnumerableSet.sol\":1890:1893   */\n  dup4\n    /* \"openzeppelin-solidity/contracts/utils/EnumerableSet.sol\":1890:1902   */\n  0x01\n  add\n    /* \"openzeppelin-solidity/contracts/utils/EnumerableSet.sol\":1890:1909   */\n  0x00\n    /* \"openzeppelin-solidity/contracts/utils/EnumerableSet.sol\":1903:1908   */\n  dup5\n    /* \"openzeppelin-solidity/contracts/utils/EnumerableSet.sol\":1890:1909   */\n  dup2\n  mstore\n  0x20\n  add\n  swap1\n  dup2\n  mstore\n  0x20\n  add\n  0x00\n  keccak256\n    /* \"openzeppelin-solidity/contracts/utils/EnumerableSet.sol\":1890:1930   */\n  dup2\n  swap1\n  sstore\n  pop\n    /* \"openzeppelin-solidity/contracts/utils/EnumerableSet.sol\":1951:1955   */\n  0x01\n    /* \"openzeppelin-solidity/contracts/utils/EnumerableSet.sol\":1944:1955   */\n  swap1\n  pop\n  jump(tag_28)\n    /* \"openzeppelin-solidity/contracts/utils/EnumerableSet.sol\":1690:2009   */\ntag_31:\n    /* \"openzeppelin-solidity/contracts/utils/EnumerableSet.sol\":1993:1998   */\n  0x00\n    /* \"openzeppelin-solidity/contracts/utils/EnumerableSet.sol\":1986:1998   */\n  swap1\n  pop\n    /* \"openzeppelin-solidity/contracts/utils/EnumerableSet.sol\":1611:2015   */\ntag_28:\n  swap3\n  swap2\n  pop\n  pop\n  jump\t// out\n    /* \"openzeppelin-solidity/contracts/utils/EnumerableSet.sol\":3776:3903   */\ntag_30:\n    /* \"openzeppelin-solidity/contracts/utils/EnumerableSet.sol\":3849:3853   */\n  0x00\n    /* \"openzeppelin-solidity/contracts/utils/EnumerableSet.sol\":3895:3896   */\n  dup1\n    /* \"openzeppelin-solidity/contracts/utils/EnumerableSet.sol\":3872:3875   */\n  dup4\n    /* \"openzeppelin-solidity/contracts/utils/EnumerableSet.sol\":3872:3884   */\n  0x01\n  add\n    /* \"openzeppelin-solidity/contracts/utils/EnumerableSet.sol\":3872:3891   */\n  0x00\n    /* \"openzeppelin-solidity/contracts/utils/EnumerableSet.sol\":3885:3890   */\n  dup5\n    /* \"openzeppelin-solidity/contracts/utils/EnumerableSet.sol\":3872:3891   */\n  dup2\n  mstore\n  0x20\n  add\n  swap1\n  dup2\n  mstore\n  0x20\n  add\n  0x00\n  keccak256\n  sload\n    /* \"openzeppelin-solidity/contracts/utils/EnumerableSet.sol\":3872:3896   */\n  eq\n  iszero\n    /* \"openzeppelin-solidity/contracts/utils/EnumerableSet.sol\":3865:3896   */\n  swap1\n  pop\n    /* \"openzeppelin-solidity/contracts/utils/EnumerableSet.sol\":3776:3903   */\n  swap3\n  swap2\n  pop\n  pop\n  jump\t// out\n    /* \"--CODEGEN--\":5:189   */\ntag_36:\n    /* \"--CODEGEN--\":122:183   */\n  tag_38\n    /* \"--CODEGEN--\":150:182   */\n  tag_39\n    /* \"--CODEGEN--\":176:181   */\n  dup3\n    /* \"--CODEGEN--\":150:182   */\n  tag_40\n  jump\t// in\ntag_39:\n    /* \"--CODEGEN--\":122:183   */\n  tag_41\n  jump\t// in\ntag_38:\n    /* \"--CODEGEN--\":117:120   */\n  dup3\n    /* \"--CODEGEN--\":110:184   */\n  mstore\n    /* \"--CODEGEN--\":104:189   */\n  pop\n  pop\n  jump\t// out\n    /* \"--CODEGEN--\":197:537   */\ntag_42:\n  0x00\n    /* \"--CODEGEN--\":375:459   */\n  tag_44\n    /* \"--CODEGEN--\":457:458   */\n  0x06\n    /* \"--CODEGEN--\":452:455   */\n  dup4\n    /* \"--CODEGEN--\":375:459   */\n  tag_45\n  jump\t// in\ntag_44:\n    /* \"--CODEGEN--\":368:459   */\n  swap2\n  pop\n    /* \"--CODEGEN--\":492:500   */\n  0x5772697465720000000000000000000000000000000000000000000000000000\n    /* \"--CODEGEN--\":488:489   */\n  0x00\n    /* \"--CODEGEN--\":483:486   */\n  dup4\n    /* \"--CODEGEN--\":479:490   */\n  add\n    /* \"--CODEGEN--\":472:501   */\n  mstore\n    /* \"--CODEGEN--\":529:530   */\n  0x06\n    /* \"--CODEGEN--\":524:527   */\n  dup3\n    /* \"--CODEGEN--\":520:531   */\n  add\n    /* \"--CODEGEN--\":513:531   */\n  swap1\n  pop\n    /* \"--CODEGEN--\":361:537   */\n  swap2\n  swap1\n  pop\n  jump\t// out\n    /* \"--CODEGEN--\":545:830   */\ntag_5:\n  0x00\n    /* \"--CODEGEN--\":689:780   */\n  tag_47\n    /* \"--CODEGEN--\":776:779   */\n  dup3\n    /* \"--CODEGEN--\":767:773   */\n  dup5\n    /* \"--CODEGEN--\":689:780   */\n  tag_36\n  jump\t// in\ntag_47:\n    /* \"--CODEGEN--\":802:804   */\n  0x14\n    /* \"--CODEGEN--\":797:800   */\n  dup3\n    /* \"--CODEGEN--\":793:805   */\n  add\n    /* \"--CODEGEN--\":786:805   */\n  swap2\n  pop\n    /* \"--CODEGEN--\":822:825   */\n  dup2\n    /* \"--CODEGEN--\":815:825   */\n  swap1\n  pop\n    /* \"--CODEGEN--\":677:830   */\n  swap3\n  swap2\n  pop\n  pop\n  jump\t// out\n    /* \"--CODEGEN--\":837:1218   */\ntag_8:\n  0x00\n    /* \"--CODEGEN--\":1045:1193   */\n  tag_49\n    /* \"--CODEGEN--\":1189:1192   */\n  dup3\n    /* \"--CODEGEN--\":1045:1193   */\n  tag_42\n  jump\t// in\ntag_49:\n    /* \"--CODEGEN--\":1038:1193   */\n  swap2\n  pop\n    /* \"--CODEGEN--\":1210:1213   */\n  dup2\n    /* \"--CODEGEN--\":1203:1213   */\n  swap1\n  pop\n    /* \"--CODEGEN--\":1026:1218   */\n  swap2\n  swap1\n  pop\n  jump\t// out\n    /* \"--CODEGEN--\":1226:1371   */\ntag_45:\n  0x00\n    /* \"--CODEGEN--\":1362:1365   */\n  dup2\n    /* \"--CODEGEN--\":1347:1365   */\n  swap1\n  pop\n    /* \"--CODEGEN--\":1340:1371   */\n  swap3\n  swap2\n  pop\n  pop\n  jump\t// out\n    /* \"--CODEGEN--\":1379:1478   */\ntag_40:\n  0x00\n    /* \"--CODEGEN--\":1449:1473   */\n  tag_52\n    /* \"--CODEGEN--\":1467:1472   */\n  dup3\n    /* \"--CODEGEN--\":1449:1473   */\n  tag_53\n  jump\t// in\ntag_52:\n    /* \"--CODEGEN--\":1438:1473   */\n  swap1\n  pop\n    /* \"--CODEGEN--\":1432:1478   */\n  swap2\n  swap1\n  pop\n  jump\t// out\n    /* \"--CODEGEN--\":1485:1606   */\ntag_53:\n  0x00\n    /* \"--CODEGEN--\":1558:1600   */\n  0xffffffffffffffffffffffffffffffffffffffff\n    /* \"--CODEGEN--\":1551:1556   */\n  dup3\n    /* \"--CODEGEN--\":1547:1601   */\n  and\n    /* \"--CODEGEN--\":1536:1601   */\n  swap1\n  pop\n    /* \"--CODEGEN--\":1530:1606   */\n  swap2\n  swap1\n  pop\n  jump\t// out\n    /* \"--CODEGEN--\":1613:1716   */\ntag_41:\n  0x00\n    /* \"--CODEGEN--\":1685:1711   */\n  tag_56\n    /* \"--CODEGEN--\":1705:1710   */\n  dup3\n    /* \"--CODEGEN--\":1685:1711   */\n  tag_57\n  jump\t// in\ntag_56:\n    /* \"--CODEGEN--\":1674:1711   */\n  swap1\n  pop\n    /* \"--CODEGEN--\":1668:1716   */\n  swap2\n  swap1\n  pop\n  jump\t// out\n    /* \"--CODEGEN--\":1723:1812   */\ntag_57:\n  0x00\n    /* \"--CODEGEN--\":1787:1807   */\n  tag_59\n    /* \"--CODEGEN--\":1801:1806   */\n  dup3\n    /* \"--CODEGEN--\":1787:1807   */\n  tag_60\n  jump\t// in\ntag_59:\n    /* \"--CODEGEN--\":1776:1807   */\n  swap1\n  pop\n    /* \"--CODEGEN--\":1770:1812   */\n  swap2\n  swap1\n  pop\n  jump\t// out\n    /* \"--CODEGEN--\":1819:1913   */\ntag_60:\n  0x00\n    /* \"--CODEGEN--\":1897:1902   */\n  dup2\n    /* \"--CODEGEN--\":1893:1895   */\n  0x60\n    /* \"--CODEGEN--\":1889:1903   */\n  shl\n    /* \"--CODEGEN--\":1867:1903   */\n  swap1\n  pop\n    /* \"--CODEGEN--\":1861:1913   */\n  swap2\n  swap1\n  pop\n  jump\t// out\n    /* \"JobManager.sol\":240:2506  contract JobManager is WriterRole, JobStorage {... */\ntag_13:\n  dataSize(sub_0)\n  dup1\n  dataOffset(sub_0)\n  0x00\n  codecopy\n  0x00\n  return\nstop\n\nsub_0: assembly {\n        /* \"JobManager.sol\":240:2506  contract JobManager is WriterRole, JobStorage {... */\n      mstore(0x40, 0x80)\n      jumpi(tag_1, lt(calldatasize, 0x04))\n      shr(0xe0, calldataload(0x00))\n      dup1\n      0x9010d07c\n      gt\n      tag_21\n      jumpi\n      dup1\n      0xbf22c457\n      gt\n      tag_22\n      jumpi\n      dup1\n      0xbf22c457\n      eq\n      tag_16\n      jumpi\n      dup1\n      0xca15c873\n      eq\n      tag_17\n      jumpi\n      dup1\n      0xd547741f\n      eq\n      tag_18\n      jumpi\n      dup1\n      0xda2824a8\n      eq\n      tag_19\n      jumpi\n      dup1\n      0xdf4eb59c\n      eq\n      tag_20\n      jumpi\n      jump(tag_1)\n    tag_22:\n      dup1\n      0x9010d07c\n      eq\n      tag_11\n      jumpi\n      dup1\n      0x91d14854\n      eq\n      tag_12\n      jumpi\n      dup1\n      0x9212051c\n      eq\n      tag_13\n      jumpi\n      dup1\n      0x995e4339\n      eq\n      tag_14\n      jumpi\n      dup1\n      0xa217fddf\n      eq\n      tag_15\n      jumpi\n      jump(tag_1)\n    tag_21:\n      dup1\n      0x2e716fb1\n      gt\n      tag_23\n      jumpi\n      dup1\n      0x2e716fb1\n      eq\n      tag_6\n      jumpi\n      dup1\n      0x2f2ff15d\n      eq\n      tag_7\n      jumpi\n      dup1\n      0x36568abe\n      eq\n      tag_8\n      jumpi\n      dup1\n      0x56350bdf\n      eq\n      tag_9\n      jumpi\n      dup1\n      0x628aff1d\n      eq\n      tag_10\n      jumpi\n      jump(tag_1)\n    tag_23:\n      dup1\n      0x180aedf3\n      eq\n      tag_2\n      jumpi\n      dup1\n      0x19ab453c\n      eq\n      tag_3\n      jumpi\n      dup1\n      0x248a9ca3\n      eq\n      tag_4\n      jumpi\n      dup1\n      0x2b29ba23\n      eq\n      tag_5\n      jumpi\n    tag_1:\n      0x00\n      dup1\n      revert\n        /* \"JobStorage.sol\":151:195  mapping (uint256 => Structs.Job) public jobs */\n    tag_2:\n      callvalue\n      dup1\n      iszero\n      tag_24\n      jumpi\n      0x00\n      dup1\n      revert\n    tag_24:\n      pop\n      tag_25\n      0x04\n      dup1\n      calldatasize\n      sub\n      dup2\n      add\n      swap1\n      tag_26\n      swap2\n      swap1\n      tag_27\n      jump\t// in\n    tag_26:\n      tag_28\n      jump\t// in\n    tag_25:\n      mload(0x40)\n      tag_29\n      swap11\n      swap10\n      swap9\n      swap8\n      swap7\n      swap6\n      swap5\n      swap4\n      swap3\n      swap2\n      swap1\n      tag_30\n      jump\t// in\n    tag_29:\n      mload(0x40)\n      dup1\n      swap2\n      sub\n      swap1\n      return\n        /* \"JobManager.sol\":953:1073  function init(address _stateManagerAddress) external {... */\n    tag_3:\n      callvalue\n      dup1\n      iszero\n      tag_31\n      jumpi\n      0x00\n      dup1\n      revert\n    tag_31:\n      pop\n      tag_32\n      0x04\n      dup1\n      calldatasize\n      sub\n      dup2\n      add\n      swap1\n      tag_33\n      swap2\n      swap1\n      tag_34\n      jump\t// in\n    tag_33:\n      tag_35\n      jump\t// in\n    tag_32:\n      stop\n        /* \"openzeppelin-solidity/contracts/access/AccessControl.sol\":4272:4384   */\n    tag_4:\n      callvalue\n      dup1\n      iszero\n      tag_36\n      jumpi\n      0x00\n      dup1\n      revert\n    tag_36:\n      pop\n      tag_37\n      0x04\n      dup1\n      calldatasize\n      sub\n      dup2\n      add\n      swap1\n      tag_38\n      swap2\n      swap1\n      tag_39\n      jump\t// in\n    tag_38:\n      tag_40\n      jump\t// in\n    tag_37:\n      mload(0x40)\n      tag_41\n      swap2\n      swap1\n      tag_42\n      jump\t// in\n    tag_41:\n      mload(0x40)\n      dup1\n      swap2\n      sub\n      swap1\n      return\n        /* \"WriterRole.sol\":667:774  function isWriter(address account) public view returns (bool) {... */\n    tag_5:\n      callvalue\n      dup1\n      iszero\n      tag_43\n      jumpi\n      0x00\n      dup1\n      revert\n    tag_43:\n      pop\n      tag_44\n      0x04\n      dup1\n      calldatasize\n      sub\n      dup2\n      add\n      swap1\n      tag_45\n      swap2\n      swap1\n      tag_34\n      jump\t// in\n    tag_45:\n      tag_46\n      jump\t// in\n    tag_44:\n      mload(0x40)\n      tag_47\n      swap2\n      swap1\n      tag_48\n      jump\t// in\n    tag_47:\n      mload(0x40)\n      dup1\n      swap2\n      sub\n      swap1\n      return\n        /* \"JobManager.sol\":887:920  IStateManager public stateManager */\n    tag_6:\n      callvalue\n      dup1\n      iszero\n      tag_49\n      jumpi\n      0x00\n      dup1\n      revert\n    tag_49:\n      pop\n      tag_50\n      tag_51\n      jump\t// in\n    tag_50:\n      mload(0x40)\n      tag_52\n      swap2\n      swap1\n      tag_53\n      jump\t// in\n    tag_52:\n      mload(0x40)\n      dup1\n      swap2\n      sub\n      swap1\n      return\n        /* \"openzeppelin-solidity/contracts/access/AccessControl.sol\":4634:4857   */\n    tag_7:\n      callvalue\n      dup1\n      iszero\n      tag_54\n      jumpi\n      0x00\n      dup1\n      revert\n    tag_54:\n      pop\n      tag_55\n      0x04\n      dup1\n      calldatasize\n      sub\n      dup2\n      add\n      swap1\n      tag_56\n      swap2\n      swap1\n      tag_57\n      jump\t// in\n    tag_56:\n      tag_58\n      jump\t// in\n    tag_55:\n      stop\n        /* \"openzeppelin-solidity/contracts/access/AccessControl.sol\":5808:6013   */\n    tag_8:\n      callvalue\n      dup1\n      iszero\n      tag_59\n      jumpi\n      0x00\n      dup1\n      revert\n    tag_59:\n      pop\n      tag_60\n      0x04\n      dup1\n      calldatasize\n      sub\n      dup2\n      add\n      swap1\n      tag_61\n      swap2\n      swap1\n      tag_57\n      jump\t// in\n    tag_61:\n      tag_62\n      jump\t// in\n    tag_60:\n      stop\n        /* \"JobManager.sol\":1569:2126  function fulfillJob(uint256 jobId, uint256 value) external onlyWriter {... */\n    tag_9:\n      callvalue\n      dup1\n      iszero\n      tag_63\n      jumpi\n      0x00\n      dup1\n      revert\n    tag_63:\n      pop\n      tag_64\n      0x04\n      dup1\n      calldatasize\n      sub\n      dup2\n      add\n      swap1\n      tag_65\n      swap2\n      swap1\n      tag_66\n      jump\t// in\n    tag_65:\n      tag_67\n      jump\t// in\n    tag_64:\n      stop\n        /* \"JobManager.sol\":1079:1563  function createJob (string calldata url, string calldata selector, string calldata name, bool repeat) external payable {... */\n    tag_10:\n      tag_68\n      0x04\n      dup1\n      calldatasize\n      sub\n      dup2\n      add\n      swap1\n      tag_69\n      swap2\n      swap1\n      tag_70\n      jump\t// in\n    tag_69:\n      tag_71\n      jump\t// in\n    tag_68:\n      stop\n        /* \"openzeppelin-solidity/contracts/access/AccessControl.sol\":3955:4091   */\n    tag_11:\n      callvalue\n      dup1\n      iszero\n      tag_72\n      jumpi\n      0x00\n      dup1\n      revert\n    tag_72:\n      pop\n      tag_73\n      0x04\n      dup1\n      calldatasize\n      sub\n      dup2\n      add\n      swap1\n      tag_74\n      swap2\n      swap1\n      tag_75\n      jump\t// in\n    tag_74:\n      tag_76\n      jump\t// in\n    tag_73:\n      mload(0x40)\n      tag_77\n      swap2\n      swap1\n      tag_78\n      jump\t// in\n    tag_77:\n      mload(0x40)\n      dup1\n      swap2\n      sub\n      swap1\n      return\n        /* \"openzeppelin-solidity/contracts/access/AccessControl.sol\":2940:3077   */\n    tag_12:\n      callvalue\n      dup1\n      iszero\n      tag_79\n      jumpi\n      0x00\n      dup1\n      revert\n    tag_79:\n      pop\n      tag_80\n      0x04\n      dup1\n      calldatasize\n      sub\n      dup2\n      add\n      swap1\n      tag_81\n      swap2\n      swap1\n      tag_57\n      jump\t// in\n    tag_81:\n      tag_82\n      jump\t// in\n    tag_80:\n      mload(0x40)\n      tag_83\n      swap2\n      swap1\n      tag_48\n      jump\t// in\n    tag_83:\n      mload(0x40)\n      dup1\n      swap2\n      sub\n      swap1\n      return\n        /* \"JobStorage.sol\":201:223  uint256 public numJobs */\n    tag_13:\n      callvalue\n      dup1\n      iszero\n      tag_84\n      jumpi\n      0x00\n      dup1\n      revert\n    tag_84:\n      pop\n      tag_85\n      tag_86\n      jump\t// in\n    tag_85:\n      mload(0x40)\n      tag_87\n      swap2\n      swap1\n      tag_88\n      jump\t// in\n    tag_87:\n      mload(0x40)\n      dup1\n      swap2\n      sub\n      swap1\n      return\n        /* \"JobManager.sol\":2132:2233  function getResult(uint256 id) external view returns(uint256) {... */\n    tag_14:\n      callvalue\n      dup1\n      iszero\n      tag_89\n      jumpi\n      0x00\n      dup1\n      revert\n    tag_89:\n      pop\n      tag_90\n      0x04\n      dup1\n      calldatasize\n      sub\n      dup2\n      add\n      swap1\n      tag_91\n      swap2\n      swap1\n      tag_27\n      jump\t// in\n    tag_91:\n      tag_92\n      jump\t// in\n    tag_90:\n      mload(0x40)\n      tag_93\n      swap2\n      swap1\n      tag_88\n      jump\t// in\n    tag_93:\n      mload(0x40)\n      dup1\n      swap2\n      sub\n      swap1\n      return\n        /* \"openzeppelin-solidity/contracts/access/AccessControl.sol\":1717:1766   */\n    tag_15:\n      callvalue\n      dup1\n      iszero\n      tag_94\n      jumpi\n      0x00\n      dup1\n      revert\n    tag_94:\n      pop\n      tag_95\n      tag_96\n      jump\t// in\n    tag_95:\n      mload(0x40)\n      tag_97\n      swap2\n      swap1\n      tag_42\n      jump\t// in\n    tag_97:\n      mload(0x40)\n      dup1\n      swap2\n      sub\n      swap1\n      return\n        /* \"JobManager.sol\":2239:2504  function getJob(uint256 id) external view returns(string memory url, string memory selector, string memory name, bool repeat, uint256 result) {... */\n    tag_16:\n      callvalue\n      dup1\n      iszero\n      tag_98\n      jumpi\n      0x00\n      dup1\n      revert\n    tag_98:\n      pop\n      tag_99\n      0x04\n      dup1\n      calldatasize\n      sub\n      dup2\n      add\n      swap1\n      tag_100\n      swap2\n      swap1\n      tag_27\n      jump\t// in\n    tag_100:\n      tag_101\n      jump\t// in\n    tag_99:\n      mload(0x40)\n      tag_102\n      swap6\n      swap5\n      swap4\n      swap3\n      swap2\n      swap1\n      tag_103\n      jump\t// in\n    tag_102:\n      mload(0x40)\n      dup1\n      swap2\n      sub\n      swap1\n      return\n        /* \"openzeppelin-solidity/contracts/access/AccessControl.sol\":3245:3370   */\n    tag_17:\n      callvalue\n      dup1\n      iszero\n      tag_104\n      jumpi\n      0x00\n      dup1\n      revert\n    tag_104:\n      pop\n      tag_105\n      0x04\n      dup1\n      calldatasize\n      sub\n      dup2\n      add\n      swap1\n      tag_106\n      swap2\n      swap1\n      tag_39\n      jump\t// in\n    tag_106:\n      tag_107\n      jump\t// in\n    tag_105:\n      mload(0x40)\n      tag_108\n      swap2\n      swap1\n      tag_88\n      jump\t// in\n    tag_108:\n      mload(0x40)\n      dup1\n      swap2\n      sub\n      swap1\n      return\n        /* \"openzeppelin-solidity/contracts/access/AccessControl.sol\":5091:5317   */\n    tag_18:\n      callvalue\n      dup1\n      iszero\n      tag_109\n      jumpi\n      0x00\n      dup1\n      revert\n    tag_109:\n      pop\n      tag_110\n      0x04\n      dup1\n      calldatasize\n      sub\n      dup2\n      add\n      swap1\n      tag_111\n      swap2\n      swap1\n      tag_57\n      jump\t// in\n    tag_111:\n      tag_112\n      jump\t// in\n    tag_110:\n      stop\n        /* \"WriterRole.sol\":784:874  function addWriter(address account) public onlyWriter {... */\n    tag_19:\n      callvalue\n      dup1\n      iszero\n      tag_113\n      jumpi\n      0x00\n      dup1\n      revert\n    tag_113:\n      pop\n      tag_114\n      0x04\n      dup1\n      calldatasize\n      sub\n      dup2\n      add\n      swap1\n      tag_115\n      swap2\n      swap1\n      tag_34\n      jump\t// in\n    tag_115:\n      tag_116\n      jump\t// in\n    tag_114:\n      stop\n        /* \"WriterRole.sol\":880:955  function renounceWriter() public {... */\n    tag_20:\n      callvalue\n      dup1\n      iszero\n      tag_117\n      jumpi\n      0x00\n      dup1\n      revert\n    tag_117:\n      pop\n      tag_118\n      tag_119\n      jump\t// in\n    tag_118:\n      stop\n        /* \"JobStorage.sol\":151:195  mapping (uint256 => Structs.Job) public jobs */\n    tag_28:\n      mstore(0x20, 0x01)\n      dup1\n      0x00\n      mstore\n      keccak256(0x00, 0x40)\n      0x00\n      swap2\n      pop\n      swap1\n      pop\n      dup1\n      0x00\n      add\n      sload\n      swap1\n      dup1\n      0x01\n      add\n      sload\n      swap1\n      dup1\n      0x02\n      add\n      dup1\n      sload\n      0x01\n      dup2\n      0x01\n      and\n      iszero\n      0x0100\n      mul\n      sub\n      and\n      0x02\n      swap1\n      div\n      dup1\n      0x1f\n      add\n      0x20\n      dup1\n      swap2\n      div\n      mul\n      0x20\n      add\n      mload(0x40)\n      swap1\n      dup2\n      add\n      0x40\n      mstore\n      dup1\n      swap3\n      swap2\n      swap1\n      dup2\n      dup2\n      mstore\n      0x20\n      add\n      dup3\n      dup1\n      sload\n      0x01\n      dup2\n      0x01\n      and\n      iszero\n      0x0100\n      mul\n      sub\n      and\n      0x02\n      swap1\n      div\n      dup1\n      iszero\n      tag_121\n      jumpi\n      dup1\n      0x1f\n      lt\n      tag_122\n      jumpi\n      0x0100\n      dup1\n      dup4\n      sload\n      div\n      mul\n      dup4\n      mstore\n      swap2\n      0x20\n      add\n      swap2\n      jump(tag_121)\n    tag_122:\n      dup3\n      add\n      swap2\n      swap1\n      0x00\n      mstore\n      keccak256(0x00, 0x20)\n      swap1\n    tag_123:\n      dup2\n      sload\n      dup2\n      mstore\n      swap1\n      0x01\n      add\n      swap1\n      0x20\n      add\n      dup1\n      dup4\n      gt\n      tag_123\n      jumpi\n      dup3\n      swap1\n      sub\n      0x1f\n      and\n      dup3\n      add\n      swap2\n    tag_121:\n      pop\n      pop\n      pop\n      pop\n      pop\n      swap1\n      dup1\n      0x03\n      add\n      dup1\n      sload\n      0x01\n      dup2\n      0x01\n      and\n      iszero\n      0x0100\n      mul\n      sub\n      and\n      0x02\n      swap1\n      div\n      dup1\n      0x1f\n      add\n      0x20\n      dup1\n      swap2\n      div\n      mul\n      0x20\n      add\n      mload(0x40)\n      swap1\n      dup2\n      add\n      0x40\n      mstore\n      dup1\n      swap3\n      swap2\n      swap1\n      dup2\n      dup2\n      mstore\n      0x20\n      add\n      dup3\n      dup1\n      sload\n      0x01\n      dup2\n      0x01\n      and\n      iszero\n      0x0100\n      mul\n      sub\n      and\n      0x02\n      swap1\n      div\n      dup1\n      iszero\n      tag_124\n      jumpi\n      dup1\n      0x1f\n      lt\n      tag_125\n      jumpi\n      0x0100\n      dup1\n      dup4\n      sload\n      div\n      mul\n      dup4\n      mstore\n      swap2\n      0x20\n      add\n      swap2\n      jump(tag_124)\n    tag_125:\n      dup3\n      add\n      swap2\n      swap1\n      0x00\n      mstore\n      keccak256(0x00, 0x20)\n      swap1\n    tag_126:\n      dup2\n      sload\n      dup2\n      mstore\n      swap1\n      0x01\n      add\n      swap1\n      0x20\n      add\n      dup1\n      dup4\n      gt\n      tag_126\n      jumpi\n      dup3\n      swap1\n      sub\n      0x1f\n      and\n      dup3\n      add\n      swap2\n    tag_124:\n      pop\n      pop\n      pop\n      pop\n      pop\n      swap1\n      dup1\n      0x04\n      add\n      dup1\n      sload\n      0x01\n      dup2\n      0x01\n      and\n      iszero\n      0x0100\n      mul\n      sub\n      and\n      0x02\n      swap1\n      div\n      dup1\n      0x1f\n      add\n      0x20\n      dup1\n      swap2\n      div\n      mul\n      0x20\n      add\n      mload(0x40)\n      swap1\n      dup2\n      add\n      0x40\n      mstore\n      dup1\n      swap3\n      swap2\n      swap1\n      dup2\n      dup2\n      mstore\n      0x20\n      add\n      dup3\n      dup1\n      sload\n      0x01\n      dup2\n      0x01\n      and\n      iszero\n      0x0100\n      mul\n      sub\n      and\n      0x02\n      swap1\n      div\n      dup1\n      iszero\n      tag_127\n      jumpi\n      dup1\n      0x1f\n      lt\n      tag_128\n      jumpi\n      0x0100\n      dup1\n      dup4\n      sload\n      div\n      mul\n      dup4\n      mstore\n      swap2\n      0x20\n      add\n      swap2\n      jump(tag_127)\n    tag_128:\n      dup3\n      add\n      swap2\n      swap1\n      0x00\n      mstore\n      keccak256(0x00, 0x20)\n      swap1\n    tag_129:\n      dup2\n      sload\n      dup2\n      mstore\n      swap1\n      0x01\n      add\n      swap1\n      0x20\n      add\n      dup1\n      dup4\n      gt\n      tag_129\n      jumpi\n      dup3\n      swap1\n      sub\n      0x1f\n      and\n      dup3\n      add\n      swap2\n    tag_127:\n      pop\n      pop\n      pop\n      pop\n      pop\n      swap1\n      dup1\n      0x05\n      add\n      0x00\n      swap1\n      sload\n      swap1\n      0x0100\n      exp\n      swap1\n      div\n      0xff\n      and\n      swap1\n      dup1\n      0x05\n      add\n      0x01\n      swap1\n      sload\n      swap1\n      0x0100\n      exp\n      swap1\n      div\n      0xffffffffffffffffffffffffffffffffffffffff\n      and\n      swap1\n      dup1\n      0x06\n      add\n      sload\n      swap1\n      dup1\n      0x07\n      add\n      0x00\n      swap1\n      sload\n      swap1\n      0x0100\n      exp\n      swap1\n      div\n      0xff\n      and\n      swap1\n      dup1\n      0x08\n      add\n      sload\n      swap1\n      pop\n      dup11\n      jump\t// out\n        /* \"JobManager.sol\":953:1073  function init(address _stateManagerAddress) external {... */\n    tag_35:\n        /* \"JobManager.sol\":1045:1065  _stateManagerAddress */\n      dup1\n        /* \"JobManager.sol\":1016:1028  stateManager */\n      0x03\n      0x00\n        /* \"JobManager.sol\":1016:1066  stateManager = IStateManager(_stateManagerAddress) */\n      0x0100\n      exp\n      dup2\n      sload\n      dup2\n      0xffffffffffffffffffffffffffffffffffffffff\n      mul\n      not\n      and\n      swap1\n      dup4\n      0xffffffffffffffffffffffffffffffffffffffff\n      and\n      mul\n      or\n      swap1\n      sstore\n      pop\n        /* \"JobManager.sol\":953:1073  function init(address _stateManagerAddress) external {... */\n      pop\n      jump\t// out\n        /* \"openzeppelin-solidity/contracts/access/AccessControl.sol\":4272:4384   */\n    tag_40:\n        /* \"openzeppelin-solidity/contracts/access/AccessControl.sol\":4329:4336   */\n      0x00\n        /* \"openzeppelin-solidity/contracts/access/AccessControl.sol\":4355:4361   */\n      dup1\n        /* \"openzeppelin-solidity/contracts/access/AccessControl.sol\":4355:4367   */\n      0x00\n        /* \"openzeppelin-solidity/contracts/access/AccessControl.sol\":4362:4366   */\n      dup4\n        /* \"openzeppelin-solidity/contracts/access/AccessControl.sol\":4355:4367   */\n      dup2\n      mstore\n      0x20\n      add\n      swap1\n      dup2\n      mstore\n      0x20\n      add\n      0x00\n      keccak256\n        /* \"openzeppelin-solidity/contracts/access/AccessControl.sol\":4355:4377   */\n      0x02\n      add\n      sload\n        /* \"openzeppelin-solidity/contracts/access/AccessControl.sol\":4348:4377   */\n      swap1\n      pop\n        /* \"openzeppelin-solidity/contracts/access/AccessControl.sol\":4272:4384   */\n      swap2\n      swap1\n      pop\n      jump\t// out\n        /* \"WriterRole.sol\":667:774  function isWriter(address account) public view returns (bool) {... */\n    tag_46:\n        /* \"WriterRole.sol\":723:727  bool */\n      0x00\n        /* \"WriterRole.sol\":746:767  hasRole(role,account) */\n      tag_133\n        /* \"WriterRole.sol\":313:332  keccak256(\"Writer\") */\n      mload(0x40)\n      tag_134\n      swap1\n      tag_135\n      jump\t// in\n    tag_134:\n      mload(0x40)\n      dup1\n      swap2\n      sub\n      swap1\n      keccak256\n        /* \"WriterRole.sol\":759:766  account */\n      dup4\n        /* \"WriterRole.sol\":746:753  hasRole */\n      tag_82\n        /* \"WriterRole.sol\":746:767  hasRole(role,account) */\n      jump\t// in\n    tag_133:\n        /* \"WriterRole.sol\":739:767  return hasRole(role,account) */\n      swap1\n      pop\n        /* \"WriterRole.sol\":667:774  function isWriter(address account) public view returns (bool) {... */\n      swap2\n      swap1\n      pop\n      jump\t// out\n        /* \"JobManager.sol\":887:920  IStateManager public stateManager */\n    tag_51:\n      0x03\n      0x00\n      swap1\n      sload\n      swap1\n      0x0100\n      exp\n      swap1\n      div\n      0xffffffffffffffffffffffffffffffffffffffff\n      and\n      dup2\n      jump\t// out\n        /* \"openzeppelin-solidity/contracts/access/AccessControl.sol\":4634:4857   */\n    tag_58:\n        /* \"openzeppelin-solidity/contracts/access/AccessControl.sol\":4717:4762   */\n      tag_137\n        /* \"openzeppelin-solidity/contracts/access/AccessControl.sol\":4725:4731   */\n      0x00\n        /* \"openzeppelin-solidity/contracts/access/AccessControl.sol\":4725:4737   */\n      dup1\n        /* \"openzeppelin-solidity/contracts/access/AccessControl.sol\":4732:4736   */\n      dup5\n        /* \"openzeppelin-solidity/contracts/access/AccessControl.sol\":4725:4737   */\n      dup2\n      mstore\n      0x20\n      add\n      swap1\n      dup2\n      mstore\n      0x20\n      add\n      0x00\n      keccak256\n        /* \"openzeppelin-solidity/contracts/access/AccessControl.sol\":4725:4747   */\n      0x02\n      add\n      sload\n        /* \"openzeppelin-solidity/contracts/access/AccessControl.sol\":4749:4761   */\n      tag_138\n        /* \"openzeppelin-solidity/contracts/access/AccessControl.sol\":4749:4759   */\n      tag_139\n        /* \"openzeppelin-solidity/contracts/access/AccessControl.sol\":4749:4761   */\n      jump\t// in\n    tag_138:\n        /* \"openzeppelin-solidity/contracts/access/AccessControl.sol\":4717:4724   */\n      tag_82\n        /* \"openzeppelin-solidity/contracts/access/AccessControl.sol\":4717:4762   */\n      jump\t// in\n    tag_137:\n        /* \"openzeppelin-solidity/contracts/access/AccessControl.sol\":4709:4814   */\n      tag_140\n      jumpi\n      mload(0x40)\n      0x08c379a000000000000000000000000000000000000000000000000000000000\n      dup2\n      mstore\n      0x04\n      add\n      tag_141\n      swap1\n      tag_142\n      jump\t// in\n    tag_141:\n      mload(0x40)\n      dup1\n      swap2\n      sub\n      swap1\n      revert\n    tag_140:\n        /* \"openzeppelin-solidity/contracts/access/AccessControl.sol\":4825:4850   */\n      tag_143\n        /* \"openzeppelin-solidity/contracts/access/AccessControl.sol\":4836:4840   */\n      dup3\n        /* \"openzeppelin-solidity/contracts/access/AccessControl.sol\":4842:4849   */\n      dup3\n        /* \"openzeppelin-solidity/contracts/access/AccessControl.sol\":4825:4835   */\n      tag_144\n        /* \"openzeppelin-solidity/contracts/access/AccessControl.sol\":4825:4850   */\n      jump\t// in\n    tag_143:\n        /* \"openzeppelin-solidity/contracts/access/AccessControl.sol\":4634:4857   */\n      pop\n      pop\n      jump\t// out\n        /* \"openzeppelin-solidity/contracts/access/AccessControl.sol\":5808:6013   */\n    tag_62:\n        /* \"openzeppelin-solidity/contracts/access/AccessControl.sol\":5905:5917   */\n      tag_146\n        /* \"openzeppelin-solidity/contracts/access/AccessControl.sol\":5905:5915   */\n      tag_139\n        /* \"openzeppelin-solidity/contracts/access/AccessControl.sol\":5905:5917   */\n      jump\t// in\n    tag_146:\n        /* \"openzeppelin-solidity/contracts/access/AccessControl.sol\":5894:5917   */\n      0xffffffffffffffffffffffffffffffffffffffff\n      and\n        /* \"openzeppelin-solidity/contracts/access/AccessControl.sol\":5894:5901   */\n      dup2\n        /* \"openzeppelin-solidity/contracts/access/AccessControl.sol\":5894:5917   */\n      0xffffffffffffffffffffffffffffffffffffffff\n      and\n      eq\n        /* \"openzeppelin-solidity/contracts/access/AccessControl.sol\":5886:5969   */\n      tag_147\n      jumpi\n      mload(0x40)\n      0x08c379a000000000000000000000000000000000000000000000000000000000\n      dup2\n      mstore\n      0x04\n      add\n      tag_148\n      swap1\n      tag_149\n      jump\t// in\n    tag_148:\n      mload(0x40)\n      dup1\n      swap2\n      sub\n      swap1\n      revert\n    tag_147:\n        /* \"openzeppelin-solidity/contracts/access/AccessControl.sol\":5980:6006   */\n      tag_150\n        /* \"openzeppelin-solidity/contracts/access/AccessControl.sol\":5992:5996   */\n      dup3\n        /* \"openzeppelin-solidity/contracts/access/AccessControl.sol\":5998:6005   */\n      dup3\n        /* \"openzeppelin-solidity/contracts/access/AccessControl.sol\":5980:5991   */\n      tag_151\n        /* \"openzeppelin-solidity/contracts/access/AccessControl.sol\":5980:6006   */\n      jump\t// in\n    tag_150:\n        /* \"openzeppelin-solidity/contracts/access/AccessControl.sol\":5808:6013   */\n      pop\n      pop\n      jump\t// out\n        /* \"JobManager.sol\":1569:2126  function fulfillJob(uint256 jobId, uint256 value) external onlyWriter {... */\n    tag_67:\n        /* \"WriterRole.sol\":570:590  isWriter(msg.sender) */\n      tag_153\n        /* \"WriterRole.sol\":579:589  msg.sender */\n      caller\n        /* \"WriterRole.sol\":570:578  isWriter */\n      tag_46\n        /* \"WriterRole.sol\":570:590  isWriter(msg.sender) */\n      jump\t// in\n    tag_153:\n        /* \"WriterRole.sol\":562:643  require(isWriter(msg.sender), \"WriterRole: caller does not have the Writer role\") */\n      tag_154\n      jumpi\n      mload(0x40)\n      0x08c379a000000000000000000000000000000000000000000000000000000000\n      dup2\n      mstore\n      0x04\n      add\n      tag_155\n      swap1\n      tag_156\n      jump\t// in\n    tag_155:\n      mload(0x40)\n      dup1\n      swap2\n      sub\n      swap1\n      revert\n    tag_154:\n        /* \"JobManager.sol\":1649:1672  Structs.Job storage job */\n      0x00\n        /* \"JobManager.sol\":1675:1679  jobs */\n      0x01\n        /* \"JobManager.sol\":1675:1686  jobs[jobId] */\n      0x00\n        /* \"JobManager.sol\":1680:1685  jobId */\n      dup5\n        /* \"JobManager.sol\":1675:1686  jobs[jobId] */\n      dup2\n      mstore\n      0x20\n      add\n      swap1\n      dup2\n      mstore\n      0x20\n      add\n      0x00\n      keccak256\n        /* \"JobManager.sol\":1649:1686  Structs.Job storage job = jobs[jobId] */\n      swap1\n      pop\n        /* \"JobManager.sol\":1696:1709  uint256 epoch */\n      0x00\n        /* \"JobManager.sol\":1712:1724  stateManager */\n      0x03\n      0x00\n      swap1\n      sload\n      swap1\n      0x0100\n      exp\n      swap1\n      div\n      0xffffffffffffffffffffffffffffffffffffffff\n      and\n        /* \"JobManager.sol\":1712:1733  stateManager.getEpoch */\n      0xffffffffffffffffffffffffffffffffffffffff\n      and\n      0x757991a8\n        /* \"JobManager.sol\":1712:1735  stateManager.getEpoch() */\n      mload(0x40)\n      dup2\n      0xffffffff\n      and\n      0xe0\n      shl\n      dup2\n      mstore\n      0x04\n      add\n      0x20\n      mload(0x40)\n      dup1\n      dup4\n      sub\n      dup2\n      dup7\n      dup1\n      extcodesize\n      iszero\n      dup1\n      iszero\n      tag_158\n      jumpi\n      0x00\n      dup1\n      revert\n    tag_158:\n      pop\n      gas\n      staticcall\n      iszero\n      dup1\n      iszero\n      tag_160\n      jumpi\n      returndatasize\n      0x00\n      dup1\n      returndatacopy\n      revert(0x00, returndatasize)\n    tag_160:\n      pop\n      pop\n      pop\n      pop\n      mload(0x40)\n      returndatasize\n      not(0x1f)\n      0x1f\n      dup3\n      add\n      and\n      dup3\n      add\n      dup1\n      0x40\n      mstore\n      pop\n      dup2\n      add\n      swap1\n      tag_161\n      swap2\n      swap1\n      tag_162\n      jump\t// in\n    tag_161:\n        /* \"JobManager.sol\":1696:1735  uint256 epoch = stateManager.getEpoch() */\n      swap1\n      pop\n        /* \"JobManager.sol\":1751:1754  job */\n      dup2\n        /* \"JobManager.sol\":1751:1761  job.repeat */\n      0x05\n      add\n      0x00\n      swap1\n      sload\n      swap1\n      0x0100\n      exp\n      swap1\n      div\n      0xff\n      and\n        /* \"JobManager.sol\":1746:1946  if (!job.repeat) {... */\n      tag_163\n      jumpi\n        /* \"JobManager.sol\":1793:1797  true */\n      0x01\n        /* \"JobManager.sol\":1777:1780  job */\n      dup3\n        /* \"JobManager.sol\":1777:1790  job.fulfilled */\n      0x07\n      add\n      0x00\n        /* \"JobManager.sol\":1777:1797  job.fulfilled = true */\n      0x0100\n      exp\n      dup2\n      sload\n      dup2\n      0xff\n      mul\n      not\n      and\n      swap1\n      dup4\n      iszero\n      iszero\n      mul\n      or\n      swap1\n      sstore\n      pop\n        /* \"JobManager.sol\":1746:1946  if (!job.repeat) {... */\n    tag_163:\n        /* \"JobManager.sol\":1960:2091  JobReported(job.id, value, epoch, job.url, job.selector, job.name, job.repeat,... */\n      0x9028bea5bfa7ed26c48df402d89085a995447dc8c1fb167cb92a3c7411b54480\n        /* \"JobManager.sol\":1972:1975  job */\n      dup3\n        /* \"JobManager.sol\":1972:1978  job.id */\n      0x00\n      add\n      sload\n        /* \"JobManager.sol\":1980:1985  value */\n      dup5\n        /* \"JobManager.sol\":1987:1992  epoch */\n      dup4\n        /* \"JobManager.sol\":1994:1997  job */\n      dup6\n        /* \"JobManager.sol\":1994:2001  job.url */\n      0x02\n      add\n        /* \"JobManager.sol\":2003:2006  job */\n      dup7\n        /* \"JobManager.sol\":2003:2015  job.selector */\n      0x03\n      add\n        /* \"JobManager.sol\":2017:2020  job */\n      dup8\n        /* \"JobManager.sol\":2017:2025  job.name */\n      0x04\n      add\n        /* \"JobManager.sol\":2027:2030  job */\n      dup9\n        /* \"JobManager.sol\":2027:2037  job.repeat */\n      0x05\n      add\n      0x00\n      swap1\n      sload\n      swap1\n      0x0100\n      exp\n      swap1\n      div\n      0xff\n      and\n        /* \"JobManager.sol\":2047:2050  job */\n      dup10\n        /* \"JobManager.sol\":2047:2058  job.creator */\n      0x05\n      add\n      0x01\n      swap1\n      sload\n      swap1\n      0x0100\n      exp\n      swap1\n      div\n      0xffffffffffffffffffffffffffffffffffffffff\n      and\n        /* \"JobManager.sol\":2060:2063  job */\n      dup11\n        /* \"JobManager.sol\":2060:2070  job.credit */\n      0x06\n      add\n      sload\n        /* \"JobManager.sol\":2072:2075  job */\n      dup12\n        /* \"JobManager.sol\":2072:2085  job.fulfilled */\n      0x07\n      add\n      0x00\n      swap1\n      sload\n      swap1\n      0x0100\n      exp\n      swap1\n      div\n      0xff\n      and\n        /* \"JobManager.sol\":2087:2090  now */\n      timestamp\n        /* \"JobManager.sol\":1960:2091  JobReported(job.id, value, epoch, job.url, job.selector, job.name, job.repeat,... */\n      mload(0x40)\n      tag_164\n      swap12\n      swap11\n      swap10\n      swap9\n      swap8\n      swap7\n      swap6\n      swap5\n      swap4\n      swap3\n      swap2\n      swap1\n      tag_165\n      jump\t// in\n    tag_164:\n      mload(0x40)\n      dup1\n      swap2\n      sub\n      swap1\n      log1\n        /* \"JobManager.sol\":2114:2119  value */\n      dup3\n        /* \"JobManager.sol\":2101:2104  job */\n      dup3\n        /* \"JobManager.sol\":2101:2111  job.result */\n      0x08\n      add\n        /* \"JobManager.sol\":2101:2119  job.result = value */\n      dup2\n      swap1\n      sstore\n      pop\n        /* \"WriterRole.sol\":653:654  _ */\n      pop\n      pop\n        /* \"JobManager.sol\":1569:2126  function fulfillJob(uint256 jobId, uint256 value) external onlyWriter {... */\n      pop\n      pop\n      jump\t// out\n        /* \"JobManager.sol\":1079:1563  function createJob (string calldata url, string calldata selector, string calldata name, bool repeat) external payable {... */\n    tag_71:\n        /* \"JobManager.sol\":1228:1229  1 */\n      0x01\n        /* \"JobManager.sol\":1218:1225  numJobs */\n      sload(0x02)\n        /* \"JobManager.sol\":1218:1229  numJobs + 1 */\n      add\n        /* \"JobManager.sol\":1208:1215  numJobs */\n      0x02\n        /* \"JobManager.sol\":1208:1229  numJobs = numJobs + 1 */\n      dup2\n      swap1\n      sstore\n      pop\n        /* \"JobManager.sol\":1239:1252  uint256 epoch */\n      0x00\n        /* \"JobManager.sol\":1255:1267  stateManager */\n      0x03\n      0x00\n      swap1\n      sload\n      swap1\n      0x0100\n      exp\n      swap1\n      div\n      0xffffffffffffffffffffffffffffffffffffffff\n      and\n        /* \"JobManager.sol\":1255:1276  stateManager.getEpoch */\n      0xffffffffffffffffffffffffffffffffffffffff\n      and\n      0x757991a8\n        /* \"JobManager.sol\":1255:1278  stateManager.getEpoch() */\n      mload(0x40)\n      dup2\n      0xffffffff\n      and\n      0xe0\n      shl\n      dup2\n      mstore\n      0x04\n      add\n      0x20\n      mload(0x40)\n      dup1\n      dup4\n      sub\n      dup2\n      dup7\n      dup1\n      extcodesize\n      iszero\n      dup1\n      iszero\n      tag_167\n      jumpi\n      0x00\n      dup1\n      revert\n    tag_167:\n      pop\n      gas\n      staticcall\n      iszero\n      dup1\n      iszero\n      tag_169\n      jumpi\n      returndatasize\n      0x00\n      dup1\n      returndatacopy\n      revert(0x00, returndatasize)\n    tag_169:\n      pop\n      pop\n      pop\n      pop\n      mload(0x40)\n      returndatasize\n      not(0x1f)\n      0x1f\n      dup3\n      add\n      and\n      dup3\n      add\n      dup1\n      0x40\n      mstore\n      pop\n      dup2\n      add\n      swap1\n      tag_170\n      swap2\n      swap1\n      tag_162\n      jump\t// in\n    tag_170:\n        /* \"JobManager.sol\":1239:1278  uint256 epoch = stateManager.getEpoch() */\n      swap1\n      pop\n        /* \"JobManager.sol\":1288:1310  Structs.Job memory job */\n      tag_171\n      tag_172\n      jump\t// in\n    tag_171:\n        /* \"JobManager.sol\":1313:1402  Structs.Job(numJobs, epoch, url, selector, name, repeat, msg.sender, msg.value, false, 0) */\n      mload(0x40)\n      dup1\n      0x0140\n      add\n      0x40\n      mstore\n      dup1\n        /* \"JobManager.sol\":1325:1332  numJobs */\n      sload(0x02)\n        /* \"JobManager.sol\":1313:1402  Structs.Job(numJobs, epoch, url, selector, name, repeat, msg.sender, msg.value, false, 0) */\n      dup2\n      mstore\n      0x20\n      add\n        /* \"JobManager.sol\":1334:1339  epoch */\n      dup4\n        /* \"JobManager.sol\":1313:1402  Structs.Job(numJobs, epoch, url, selector, name, repeat, msg.sender, msg.value, false, 0) */\n      dup2\n      mstore\n      0x20\n      add\n        /* \"JobManager.sol\":1341:1344  url */\n      dup11\n      dup11\n        /* \"JobManager.sol\":1313:1402  Structs.Job(numJobs, epoch, url, selector, name, repeat, msg.sender, msg.value, false, 0) */\n      dup1\n      dup1\n      0x1f\n      add\n      0x20\n      dup1\n      swap2\n      div\n      mul\n      0x20\n      add\n      mload(0x40)\n      swap1\n      dup2\n      add\n      0x40\n      mstore\n      dup1\n      swap4\n      swap3\n      swap2\n      swap1\n      dup2\n      dup2\n      mstore\n      0x20\n      add\n      dup4\n      dup4\n      dup1\n      dup3\n      dup5\n      calldatacopy\n      0x00\n      dup2\n      dup5\n      add\n      mstore\n      not(0x1f)\n      0x1f\n      dup3\n      add\n      and\n      swap1\n      pop\n      dup1\n      dup4\n      add\n      swap3\n      pop\n      pop\n      pop\n      pop\n      pop\n      pop\n      pop\n      dup2\n      mstore\n      0x20\n      add\n        /* \"JobManager.sol\":1346:1354  selector */\n      dup9\n      dup9\n        /* \"JobManager.sol\":1313:1402  Structs.Job(numJobs, epoch, url, selector, name, repeat, msg.sender, msg.value, false, 0) */\n      dup1\n      dup1\n      0x1f\n      add\n      0x20\n      dup1\n      swap2\n      div\n      mul\n      0x20\n      add\n      mload(0x40)\n      swap1\n      dup2\n      add\n      0x40\n      mstore\n      dup1\n      swap4\n      swap3\n      swap2\n      swap1\n      dup2\n      dup2\n      mstore\n      0x20\n      add\n      dup4\n      dup4\n      dup1\n      dup3\n      dup5\n      calldatacopy\n      0x00\n      dup2\n      dup5\n      add\n      mstore\n      not(0x1f)\n      0x1f\n      dup3\n      add\n      and\n      swap1\n      pop\n      dup1\n      dup4\n      add\n      swap3\n      pop\n      pop\n      pop\n      pop\n      pop\n      pop\n      pop\n      dup2\n      mstore\n      0x20\n      add\n        /* \"JobManager.sol\":1356:1360  name */\n      dup7\n      dup7\n        /* \"JobManager.sol\":1313:1402  Structs.Job(numJobs, epoch, url, selector, name, repeat, msg.sender, msg.value, false, 0) */\n      dup1\n      dup1\n      0x1f\n      add\n      0x20\n      dup1\n      swap2\n      div\n      mul\n      0x20\n      add\n      mload(0x40)\n      swap1\n      dup2\n      add\n      0x40\n      mstore\n      dup1\n      swap4\n      swap3\n      swap2\n      swap1\n      dup2\n      dup2\n      mstore\n      0x20\n      add\n      dup4\n      dup4\n      dup1\n      dup3\n      dup5\n      calldatacopy\n      0x00\n      dup2\n      dup5\n      add\n      mstore\n      not(0x1f)\n      0x1f\n      dup3\n      add\n      and\n      swap1\n      pop\n      dup1\n      dup4\n      add\n      swap3\n      pop\n      pop\n      pop\n      pop\n      pop\n      pop\n      pop\n      dup2\n      mstore\n      0x20\n      add\n        /* \"JobManager.sol\":1362:1368  repeat */\n      dup5\n        /* \"JobManager.sol\":1313:1402  Structs.Job(numJobs, epoch, url, selector, name, repeat, msg.sender, msg.value, false, 0) */\n      iszero\n      iszero\n      dup2\n      mstore\n      0x20\n      add\n        /* \"JobManager.sol\":1370:1380  msg.sender */\n      caller\n        /* \"JobManager.sol\":1313:1402  Structs.Job(numJobs, epoch, url, selector, name, repeat, msg.sender, msg.value, false, 0) */\n      0xffffffffffffffffffffffffffffffffffffffff\n      and\n      dup2\n      mstore\n      0x20\n      add\n        /* \"JobManager.sol\":1382:1391  msg.value */\n      callvalue\n        /* \"JobManager.sol\":1313:1402  Structs.Job(numJobs, epoch, url, selector, name, repeat, msg.sender, msg.value, false, 0) */\n      dup2\n      mstore\n      0x20\n      add\n        /* \"JobManager.sol\":1393:1398  false */\n      0x00\n        /* \"JobManager.sol\":1313:1402  Structs.Job(numJobs, epoch, url, selector, name, repeat, msg.sender, msg.value, false, 0) */\n      iszero\n      iszero\n      dup2\n      mstore\n      0x20\n      add\n        /* \"JobManager.sol\":1400:1401  0 */\n      0x00\n        /* \"JobManager.sol\":1313:1402  Structs.Job(numJobs, epoch, url, selector, name, repeat, msg.sender, msg.value, false, 0) */\n      dup2\n      mstore\n      pop\n        /* \"JobManager.sol\":1288:1402  Structs.Job memory job = Structs.Job(numJobs, epoch, url, selector, name, repeat, msg.sender, msg.value, false, 0) */\n      swap1\n      pop\n        /* \"JobManager.sol\":1428:1431  job */\n      dup1\n        /* \"JobManager.sol\":1412:1416  jobs */\n      0x01\n        /* \"JobManager.sol\":1412:1425  jobs[numJobs] */\n      0x00\n        /* \"JobManager.sol\":1417:1424  numJobs */\n      sload(0x02)\n        /* \"JobManager.sol\":1412:1425  jobs[numJobs] */\n      dup2\n      mstore\n      0x20\n      add\n      swap1\n      dup2\n      mstore\n      0x20\n      add\n      0x00\n      keccak256\n        /* \"JobManager.sol\":1412:1431  jobs[numJobs] = job */\n      0x00\n      dup3\n      add\n      mload\n      dup2\n      0x00\n      add\n      sstore\n      0x20\n      dup3\n      add\n      mload\n      dup2\n      0x01\n      add\n      sstore\n      0x40\n      dup3\n      add\n      mload\n      dup2\n      0x02\n      add\n      swap1\n      dup1\n      mload\n      swap1\n      0x20\n      add\n      swap1\n      tag_173\n      swap3\n      swap2\n      swap1\n      tag_174\n      jump\t// in\n    tag_173:\n      pop\n      0x60\n      dup3\n      add\n      mload\n      dup2\n      0x03\n      add\n      swap1\n      dup1\n      mload\n      swap1\n      0x20\n      add\n      swap1\n      tag_175\n      swap3\n      swap2\n      swap1\n      tag_174\n      jump\t// in\n    tag_175:\n      pop\n      0x80\n      dup3\n      add\n      mload\n      dup2\n      0x04\n      add\n      swap1\n      dup1\n      mload\n      swap1\n      0x20\n      add\n      swap1\n      tag_176\n      swap3\n      swap2\n      swap1\n      tag_174\n      jump\t// in\n    tag_176:\n      pop\n      0xa0\n      dup3\n      add\n      mload\n      dup2\n      0x05\n      add\n      exp(0x0100, 0x00)\n      dup2\n      sload\n      dup2\n      0xff\n      mul\n      not\n      and\n      swap1\n      dup4\n      iszero\n      iszero\n      mul\n      or\n      swap1\n      sstore\n      pop\n      0xc0\n      dup3\n      add\n      mload\n      dup2\n      0x05\n      add\n      exp(0x0100, 0x01)\n      dup2\n      sload\n      dup2\n      0xffffffffffffffffffffffffffffffffffffffff\n      mul\n      not\n      and\n      swap1\n      dup4\n      0xffffffffffffffffffffffffffffffffffffffff\n      and\n      mul\n      or\n      swap1\n      sstore\n      pop\n      0xe0\n      dup3\n      add\n      mload\n      dup2\n      0x06\n      add\n      sstore\n      0x0100\n      dup3\n      add\n      mload\n      dup2\n      0x07\n      add\n      exp(0x0100, 0x00)\n      dup2\n      sload\n      dup2\n      0xff\n      mul\n      not\n      and\n      swap1\n      dup4\n      iszero\n      iszero\n      mul\n      or\n      swap1\n      sstore\n      pop\n      0x0120\n      dup3\n      add\n      mload\n      dup2\n      0x08\n      add\n      sstore\n      swap1\n      pop\n      pop\n        /* \"JobManager.sol\":1446:1529  JobCreated(numJobs, epoch, url, selector, name, repeat, msg.sender, msg.value, now) */\n      0xd4ae17fdeb78e69409330361e8f8475f8027928c6f28eae2195e5ae56570aba0\n        /* \"JobManager.sol\":1457:1464  numJobs */\n      sload(0x02)\n        /* \"JobManager.sol\":1466:1471  epoch */\n      dup4\n        /* \"JobManager.sol\":1473:1476  url */\n      dup12\n      dup12\n        /* \"JobManager.sol\":1478:1486  selector */\n      dup12\n      dup12\n        /* \"JobManager.sol\":1488:1492  name */\n      dup12\n      dup12\n        /* \"JobManager.sol\":1494:1500  repeat */\n      dup12\n        /* \"JobManager.sol\":1502:1512  msg.sender */\n      caller\n        /* \"JobManager.sol\":1514:1523  msg.value */\n      callvalue\n        /* \"JobManager.sol\":1525:1528  now */\n      timestamp\n        /* \"JobManager.sol\":1446:1529  JobCreated(numJobs, epoch, url, selector, name, repeat, msg.sender, msg.value, now) */\n      mload(0x40)\n      tag_177\n      swap13\n      swap12\n      swap11\n      swap10\n      swap9\n      swap8\n      swap7\n      swap6\n      swap5\n      swap4\n      swap3\n      swap2\n      swap1\n      tag_178\n      jump\t// in\n    tag_177:\n      mload(0x40)\n      dup1\n      swap2\n      sub\n      swap1\n      log1\n        /* \"JobManager.sol\":1079:1563  function createJob (string calldata url, string calldata selector, string calldata name, bool repeat) external payable {... */\n      pop\n      pop\n      pop\n      pop\n      pop\n      pop\n      pop\n      pop\n      pop\n      jump\t// out\n        /* \"openzeppelin-solidity/contracts/access/AccessControl.sol\":3955:4091   */\n    tag_76:\n        /* \"openzeppelin-solidity/contracts/access/AccessControl.sol\":4028:4035   */\n      0x00\n        /* \"openzeppelin-solidity/contracts/access/AccessControl.sol\":4054:4084   */\n      tag_180\n        /* \"openzeppelin-solidity/contracts/access/AccessControl.sol\":4078:4083   */\n      dup3\n        /* \"openzeppelin-solidity/contracts/access/AccessControl.sol\":4054:4060   */\n      0x00\n        /* \"openzeppelin-solidity/contracts/access/AccessControl.sol\":4054:4066   */\n      dup1\n        /* \"openzeppelin-solidity/contracts/access/AccessControl.sol\":4061:4065   */\n      dup7\n        /* \"openzeppelin-solidity/contracts/access/AccessControl.sol\":4054:4066   */\n      dup2\n      mstore\n      0x20\n      add\n      swap1\n      dup2\n      mstore\n      0x20\n      add\n      0x00\n      keccak256\n        /* \"openzeppelin-solidity/contracts/access/AccessControl.sol\":4054:4074   */\n      0x00\n      add\n        /* \"openzeppelin-solidity/contracts/access/AccessControl.sol\":4054:4077   */\n      tag_181\n      swap1\n        /* \"openzeppelin-solidity/contracts/access/AccessControl.sol\":4054:4084   */\n      swap2\n      swap1\n      0xffffffff\n      and\n      jump\t// in\n    tag_180:\n        /* \"openzeppelin-solidity/contracts/access/AccessControl.sol\":4047:4084   */\n      swap1\n      pop\n        /* \"openzeppelin-solidity/contracts/access/AccessControl.sol\":3955:4091   */\n      swap3\n      swap2\n      pop\n      pop\n      jump\t// out\n        /* \"openzeppelin-solidity/contracts/access/AccessControl.sol\":2940:3077   */\n    tag_82:\n        /* \"openzeppelin-solidity/contracts/access/AccessControl.sol\":3009:3013   */\n      0x00\n        /* \"openzeppelin-solidity/contracts/access/AccessControl.sol\":3032:3070   */\n      tag_183\n        /* \"openzeppelin-solidity/contracts/access/AccessControl.sol\":3062:3069   */\n      dup3\n        /* \"openzeppelin-solidity/contracts/access/AccessControl.sol\":3032:3038   */\n      0x00\n        /* \"openzeppelin-solidity/contracts/access/AccessControl.sol\":3032:3044   */\n      dup1\n        /* \"openzeppelin-solidity/contracts/access/AccessControl.sol\":3039:3043   */\n      dup7\n        /* \"openzeppelin-solidity/contracts/access/AccessControl.sol\":3032:3044   */\n      dup2\n      mstore\n      0x20\n      add\n      swap1\n      dup2\n      mstore\n      0x20\n      add\n      0x00\n      keccak256\n        /* \"openzeppelin-solidity/contracts/access/AccessControl.sol\":3032:3052   */\n      0x00\n      add\n        /* \"openzeppelin-solidity/contracts/access/AccessControl.sol\":3032:3061   */\n      tag_184\n      swap1\n        /* \"openzeppelin-solidity/contracts/access/AccessControl.sol\":3032:3070   */\n      swap2\n      swap1\n      0xffffffff\n      and\n      jump\t// in\n    tag_183:\n        /* \"openzeppelin-solidity/contracts/access/AccessControl.sol\":3025:3070   */\n      swap1\n      pop\n        /* \"openzeppelin-solidity/contracts/access/AccessControl.sol\":2940:3077   */\n      swap3\n      swap2\n      pop\n      pop\n      jump\t// out\n        /* \"JobStorage.sol\":201:223  uint256 public numJobs */\n    tag_86:\n      sload(0x02)\n      dup2\n      jump\t// out\n        /* \"JobManager.sol\":2132:2233  function getResult(uint256 id) external view returns(uint256) {... */\n    tag_92:\n        /* \"JobManager.sol\":2185:2192  uint256 */\n      0x00\n        /* \"JobManager.sol\":2211:2215  jobs */\n      0x01\n        /* \"JobManager.sol\":2211:2219  jobs[id] */\n      0x00\n        /* \"JobManager.sol\":2216:2218  id */\n      dup4\n        /* \"JobManager.sol\":2211:2219  jobs[id] */\n      dup2\n      mstore\n      0x20\n      add\n      swap1\n      dup2\n      mstore\n      0x20\n      add\n      0x00\n      keccak256\n        /* \"JobManager.sol\":2211:2226  jobs[id].result */\n      0x08\n      add\n      sload\n        /* \"JobManager.sol\":2204:2226  return jobs[id].result */\n      swap1\n      pop\n        /* \"JobManager.sol\":2132:2233  function getResult(uint256 id) external view returns(uint256) {... */\n      swap2\n      swap1\n      pop\n      jump\t// out\n        /* \"openzeppelin-solidity/contracts/access/AccessControl.sol\":1717:1766   */\n    tag_96:\n        /* \"openzeppelin-solidity/contracts/access/AccessControl.sol\":1762:1766   */\n      0x00\n        /* \"openzeppelin-solidity/contracts/access/AccessControl.sol\":1717:1766   */\n      dup1\n      shl\n      dup2\n      jump\t// out\n        /* \"JobManager.sol\":2239:2504  function getJob(uint256 id) external view returns(string memory url, string memory selector, string memory name, bool repeat, uint256 result) {... */\n    tag_101:\n        /* \"JobManager.sol\":2289:2306  string memory url */\n      0x60\n        /* \"JobManager.sol\":2308:2330  string memory selector */\n      dup1\n        /* \"JobManager.sol\":2332:2350  string memory name */\n      0x60\n        /* \"JobManager.sol\":2352:2363  bool repeat */\n      0x00\n        /* \"JobManager.sol\":2365:2379  uint256 result */\n      dup1\n        /* \"JobManager.sol\":2391:2413  Structs.Job memory job */\n      tag_187\n      tag_172\n      jump\t// in\n    tag_187:\n        /* \"JobManager.sol\":2416:2420  jobs */\n      0x01\n        /* \"JobManager.sol\":2416:2424  jobs[id] */\n      0x00\n        /* \"JobManager.sol\":2421:2423  id */\n      dup9\n        /* \"JobManager.sol\":2416:2424  jobs[id] */\n      dup2\n      mstore\n      0x20\n      add\n      swap1\n      dup2\n      mstore\n      0x20\n      add\n      0x00\n      keccak256\n        /* \"JobManager.sol\":2391:2424  Structs.Job memory job = jobs[id] */\n      mload(0x40)\n      dup1\n      0x0140\n      add\n      0x40\n      mstore\n      swap1\n      dup2\n      0x00\n      dup3\n      add\n      sload\n      dup2\n      mstore\n      0x20\n      add\n      0x01\n      dup3\n      add\n      sload\n      dup2\n      mstore\n      0x20\n      add\n      0x02\n      dup3\n      add\n      dup1\n      sload\n      0x01\n      dup2\n      0x01\n      and\n      iszero\n      0x0100\n      mul\n      sub\n      and\n      0x02\n      swap1\n      div\n      dup1\n      0x1f\n      add\n      0x20\n      dup1\n      swap2\n      div\n      mul\n      0x20\n      add\n      mload(0x40)\n      swap1\n      dup2\n      add\n      0x40\n      mstore\n      dup1\n      swap3\n      swap2\n      swap1\n      dup2\n      dup2\n      mstore\n      0x20\n      add\n      dup3\n      dup1\n      sload\n      0x01\n      dup2\n      0x01\n      and\n      iszero\n      0x0100\n      mul\n      sub\n      and\n      0x02\n      swap1\n      div\n      dup1\n      iszero\n      tag_188\n      jumpi\n      dup1\n      0x1f\n      lt\n      tag_189\n      jumpi\n      0x0100\n      dup1\n      dup4\n      sload\n      div\n      mul\n      dup4\n      mstore\n      swap2\n      0x20\n      add\n      swap2\n      jump(tag_188)\n    tag_189:\n      dup3\n      add\n      swap2\n      swap1\n      0x00\n      mstore\n      keccak256(0x00, 0x20)\n      swap1\n    tag_190:\n      dup2\n      sload\n      dup2\n      mstore\n      swap1\n      0x01\n      add\n      swap1\n      0x20\n      add\n      dup1\n      dup4\n      gt\n      tag_190\n      jumpi\n      dup3\n      swap1\n      sub\n      0x1f\n      and\n      dup3\n      add\n      swap2\n    tag_188:\n      pop\n      pop\n      pop\n      pop\n      pop\n      dup2\n      mstore\n      0x20\n      add\n      0x03\n      dup3\n      add\n      dup1\n      sload\n      0x01\n      dup2\n      0x01\n      and\n      iszero\n      0x0100\n      mul\n      sub\n      and\n      0x02\n      swap1\n      div\n      dup1\n      0x1f\n      add\n      0x20\n      dup1\n      swap2\n      div\n      mul\n      0x20\n      add\n      mload(0x40)\n      swap1\n      dup2\n      add\n      0x40\n      mstore\n      dup1\n      swap3\n      swap2\n      swap1\n      dup2\n      dup2\n      mstore\n      0x20\n      add\n      dup3\n      dup1\n      sload\n      0x01\n      dup2\n      0x01\n      and\n      iszero\n      0x0100\n      mul\n      sub\n      and\n      0x02\n      swap1\n      div\n      dup1\n      iszero\n      tag_191\n      jumpi\n      dup1\n      0x1f\n      lt\n      tag_192\n      jumpi\n      0x0100\n      dup1\n      dup4\n      sload\n      div\n      mul\n      dup4\n      mstore\n      swap2\n      0x20\n      add\n      swap2\n      jump(tag_191)\n    tag_192:\n      dup3\n      add\n      swap2\n      swap1\n      0x00\n      mstore\n      keccak256(0x00, 0x20)\n      swap1\n    tag_193:\n      dup2\n      sload\n      dup2\n      mstore\n      swap1\n      0x01\n      add\n      swap1\n      0x20\n      add\n      dup1\n      dup4\n      gt\n      tag_193\n      jumpi\n      dup3\n      swap1\n      sub\n      0x1f\n      and\n      dup3\n      add\n      swap2\n    tag_191:\n      pop\n      pop\n      pop\n      pop\n      pop\n      dup2\n      mstore\n      0x20\n      add\n      0x04\n      dup3\n      add\n      dup1\n      sload\n      0x01\n      dup2\n      0x01\n      and\n      iszero\n      0x0100\n      mul\n      sub\n      and\n      0x02\n      swap1\n      div\n      dup1\n      0x1f\n      add\n      0x20\n      dup1\n      swap2\n      div\n      mul\n      0x20\n      add\n      mload(0x40)\n      swap1\n      dup2\n      add\n      0x40\n      mstore\n      dup1\n      swap3\n      swap2\n      swap1\n      dup2\n      dup2\n      mstore\n      0x20\n      add\n      dup3\n      dup1\n      sload\n      0x01\n      dup2\n      0x01\n      and\n      iszero\n      0x0100\n      mul\n      sub\n      and\n      0x02\n      swap1\n      div\n      dup1\n      iszero\n      tag_194\n      jumpi\n      dup1\n      0x1f\n      lt\n      tag_195\n      jumpi\n      0x0100\n      dup1\n      dup4\n      sload\n      div\n      mul\n      dup4\n      mstore\n      swap2\n      0x20\n      add\n      swap2\n      jump(tag_194)\n    tag_195:\n      dup3\n      add\n      swap2\n      swap1\n      0x00\n      mstore\n      keccak256(0x00, 0x20)\n      swap1\n    tag_196:\n      dup2\n      sload\n      dup2\n      mstore\n      swap1\n      0x01\n      add\n      swap1\n      0x20\n      add\n      dup1\n      dup4\n      gt\n      tag_196\n      jumpi\n      dup3\n      swap1\n      sub\n      0x1f\n      and\n      dup3\n      add\n      swap2\n    tag_194:\n      pop\n      pop\n      pop\n      pop\n      pop\n      dup2\n      mstore\n      0x20\n      add\n      0x05\n      dup3\n      add\n      0x00\n      swap1\n      sload\n      swap1\n      0x0100\n      exp\n      swap1\n      div\n      0xff\n      and\n      iszero\n      iszero\n      iszero\n      iszero\n      dup2\n      mstore\n      0x20\n      add\n      0x05\n      dup3\n      add\n      0x01\n      swap1\n      sload\n      swap1\n      0x0100\n      exp\n      swap1\n      div\n      0xffffffffffffffffffffffffffffffffffffffff\n      and\n      0xffffffffffffffffffffffffffffffffffffffff\n      and\n      0xffffffffffffffffffffffffffffffffffffffff\n      and\n      dup2\n      mstore\n      0x20\n      add\n      0x06\n      dup3\n      add\n      sload\n      dup2\n      mstore\n      0x20\n      add\n      0x07\n      dup3\n      add\n      0x00\n      swap1\n      sload\n      swap1\n      0x0100\n      exp\n      swap1\n      div\n      0xff\n      and\n      iszero\n      iszero\n      iszero\n      iszero\n      dup2\n      mstore\n      0x20\n      add\n      0x08\n      dup3\n      add\n      sload\n      dup2\n      mstore\n      pop\n      pop\n      swap1\n      pop\n        /* \"JobManager.sol\":2441:2444  job */\n      dup1\n        /* \"JobManager.sol\":2441:2448  job.url */\n      0x40\n      add\n      mload\n        /* \"JobManager.sol\":2450:2453  job */\n      dup2\n        /* \"JobManager.sol\":2450:2462  job.selector */\n      0x60\n      add\n      mload\n        /* \"JobManager.sol\":2464:2467  job */\n      dup3\n        /* \"JobManager.sol\":2464:2472  job.name */\n      0x80\n      add\n      mload\n        /* \"JobManager.sol\":2474:2477  job */\n      dup4\n        /* \"JobManager.sol\":2474:2484  job.repeat */\n      0xa0\n      add\n      mload\n        /* \"JobManager.sol\":2486:2489  job */\n      dup5\n        /* \"JobManager.sol\":2486:2496  job.result */\n      0x0120\n      add\n      mload\n        /* \"JobManager.sol\":2434:2497  return(job.url, job.selector, job.name, job.repeat, job.result) */\n      swap6\n      pop\n      swap6\n      pop\n      swap6\n      pop\n      swap6\n      pop\n      swap6\n      pop\n      pop\n        /* \"JobManager.sol\":2239:2504  function getJob(uint256 id) external view returns(string memory url, string memory selector, string memory name, bool repeat, uint256 result) {... */\n      swap2\n      swap4\n      swap6\n      swap1\n      swap3\n      swap5\n      pop\n      jump\t// out\n        /* \"openzeppelin-solidity/contracts/access/AccessControl.sol\":3245:3370   */\n    tag_107:\n        /* \"openzeppelin-solidity/contracts/access/AccessControl.sol\":3308:3315   */\n      0x00\n        /* \"openzeppelin-solidity/contracts/access/AccessControl.sol\":3334:3363   */\n      tag_198\n        /* \"openzeppelin-solidity/contracts/access/AccessControl.sol\":3334:3340   */\n      0x00\n        /* \"openzeppelin-solidity/contracts/access/AccessControl.sol\":3334:3346   */\n      dup1\n        /* \"openzeppelin-solidity/contracts/access/AccessControl.sol\":3341:3345   */\n      dup5\n        /* \"openzeppelin-solidity/contracts/access/AccessControl.sol\":3334:3346   */\n      dup2\n      mstore\n      0x20\n      add\n      swap1\n      dup2\n      mstore\n      0x20\n      add\n      0x00\n      keccak256\n        /* \"openzeppelin-solidity/contracts/access/AccessControl.sol\":3334:3354   */\n      0x00\n      add\n        /* \"openzeppelin-solidity/contracts/access/AccessControl.sol\":3334:3361   */\n      tag_199\n        /* \"openzeppelin-solidity/contracts/access/AccessControl.sol\":3334:3363   */\n      jump\t// in\n    tag_198:\n        /* \"openzeppelin-solidity/contracts/access/AccessControl.sol\":3327:3363   */\n      swap1\n      pop\n        /* \"openzeppelin-solidity/contracts/access/AccessControl.sol\":3245:3370   */\n      swap2\n      swap1\n      pop\n      jump\t// out\n        /* \"openzeppelin-solidity/contracts/access/AccessControl.sol\":5091:5317   */\n    tag_112:\n        /* \"openzeppelin-solidity/contracts/access/AccessControl.sol\":5175:5220   */\n      tag_201\n        /* \"openzeppelin-solidity/contracts/access/AccessControl.sol\":5183:5189   */\n      0x00\n        /* \"openzeppelin-solidity/contracts/access/AccessControl.sol\":5183:5195   */\n      dup1\n        /* \"openzeppelin-solidity/contracts/access/AccessControl.sol\":5190:5194   */\n      dup5\n        /* \"openzeppelin-solidity/contracts/access/AccessControl.sol\":5183:5195   */\n      dup2\n      mstore\n      0x20\n      add\n      swap1\n      dup2\n      mstore\n      0x20\n      add\n      0x00\n      keccak256\n        /* \"openzeppelin-solidity/contracts/access/AccessControl.sol\":5183:5205   */\n      0x02\n      add\n      sload\n        /* \"openzeppelin-solidity/contracts/access/AccessControl.sol\":5207:5219   */\n      tag_202\n        /* \"openzeppelin-solidity/contracts/access/AccessControl.sol\":5207:5217   */\n      tag_139\n        /* \"openzeppelin-solidity/contracts/access/AccessControl.sol\":5207:5219   */\n      jump\t// in\n    tag_202:\n        /* \"openzeppelin-solidity/contracts/access/AccessControl.sol\":5175:5182   */\n      tag_82\n        /* \"openzeppelin-solidity/contracts/access/AccessControl.sol\":5175:5220   */\n      jump\t// in\n    tag_201:\n        /* \"openzeppelin-solidity/contracts/access/AccessControl.sol\":5167:5273   */\n      tag_203\n      jumpi\n      mload(0x40)\n      0x08c379a000000000000000000000000000000000000000000000000000000000\n      dup2\n      mstore\n      0x04\n      add\n      tag_204\n      swap1\n      tag_205\n      jump\t// in\n    tag_204:\n      mload(0x40)\n      dup1\n      swap2\n      sub\n      swap1\n      revert\n    tag_203:\n        /* \"openzeppelin-solidity/contracts/access/AccessControl.sol\":5284:5310   */\n      tag_206\n        /* \"openzeppelin-solidity/contracts/access/AccessControl.sol\":5296:5300   */\n      dup3\n        /* \"openzeppelin-solidity/contracts/access/AccessControl.sol\":5302:5309   */\n      dup3\n        /* \"openzeppelin-solidity/contracts/access/AccessControl.sol\":5284:5295   */\n      tag_151\n        /* \"openzeppelin-solidity/contracts/access/AccessControl.sol\":5284:5310   */\n      jump\t// in\n    tag_206:\n        /* \"openzeppelin-solidity/contracts/access/AccessControl.sol\":5091:5317   */\n      pop\n      pop\n      jump\t// out\n        /* \"WriterRole.sol\":784:874  function addWriter(address account) public onlyWriter {... */\n    tag_116:\n        /* \"WriterRole.sol\":570:590  isWriter(msg.sender) */\n      tag_208\n        /* \"WriterRole.sol\":579:589  msg.sender */\n      caller\n        /* \"WriterRole.sol\":570:578  isWriter */\n      tag_46\n        /* \"WriterRole.sol\":570:590  isWriter(msg.sender) */\n      jump\t// in\n    tag_208:\n        /* \"WriterRole.sol\":562:643  require(isWriter(msg.sender), \"WriterRole: caller does not have the Writer role\") */\n      tag_209\n      jumpi\n      mload(0x40)\n      0x08c379a000000000000000000000000000000000000000000000000000000000\n      dup2\n      mstore\n      0x04\n      add\n      tag_210\n      swap1\n      tag_156\n      jump\t// in\n    tag_210:\n      mload(0x40)\n      dup1\n      swap2\n      sub\n      swap1\n      revert\n    tag_209:\n        /* \"WriterRole.sol\":848:867  _addWriter(account) */\n      tag_212\n        /* \"WriterRole.sol\":859:866  account */\n      dup2\n        /* \"WriterRole.sol\":848:858  _addWriter */\n      tag_213\n        /* \"WriterRole.sol\":848:867  _addWriter(account) */\n      jump\t// in\n    tag_212:\n        /* \"WriterRole.sol\":784:874  function addWriter(address account) public onlyWriter {... */\n      pop\n      jump\t// out\n        /* \"WriterRole.sol\":880:955  function renounceWriter() public {... */\n    tag_119:\n        /* \"WriterRole.sol\":923:948  _removeWriter(msg.sender) */\n      tag_215\n        /* \"WriterRole.sol\":937:947  msg.sender */\n      caller\n        /* \"WriterRole.sol\":923:936  _removeWriter */\n      tag_216\n        /* \"WriterRole.sol\":923:948  _removeWriter(msg.sender) */\n      jump\t// in\n    tag_215:\n        /* \"WriterRole.sol\":880:955  function renounceWriter() public {... */\n      jump\t// out\n        /* \"openzeppelin-solidity/contracts/utils/EnumerableSet.sol\":4864:5005   */\n    tag_120:\n        /* \"openzeppelin-solidity/contracts/utils/EnumerableSet.sol\":4934:4938   */\n      0x00\n        /* \"openzeppelin-solidity/contracts/utils/EnumerableSet.sol\":4957:4998   */\n      tag_218\n        /* \"openzeppelin-solidity/contracts/utils/EnumerableSet.sol\":4962:4965   */\n      dup4\n        /* \"openzeppelin-solidity/contracts/utils/EnumerableSet.sol\":4962:4972   */\n      0x00\n      add\n        /* \"openzeppelin-solidity/contracts/utils/EnumerableSet.sol\":4990:4995   */\n      dup4\n        /* \"openzeppelin-solidity/contracts/utils/EnumerableSet.sol\":4982:4996   */\n      0xffffffffffffffffffffffffffffffffffffffff\n      and\n        /* \"openzeppelin-solidity/contracts/utils/EnumerableSet.sol\":4974:4997   */\n      0x00\n      shl\n        /* \"openzeppelin-solidity/contracts/utils/EnumerableSet.sol\":4957:4961   */\n      tag_219\n        /* \"openzeppelin-solidity/contracts/utils/EnumerableSet.sol\":4957:4998   */\n      jump\t// in\n    tag_218:\n        /* \"openzeppelin-solidity/contracts/utils/EnumerableSet.sol\":4950:4998   */\n      swap1\n      pop\n        /* \"openzeppelin-solidity/contracts/utils/EnumerableSet.sol\":4864:5005   */\n      swap3\n      swap2\n      pop\n      pop\n      jump\t// out\n        /* \"openzeppelin-solidity/contracts/GSN/Context.sol\":590:694   */\n    tag_139:\n        /* \"openzeppelin-solidity/contracts/GSN/Context.sol\":643:658   */\n      0x00\n        /* \"openzeppelin-solidity/contracts/GSN/Context.sol\":677:687   */\n      caller\n        /* \"openzeppelin-solidity/contracts/GSN/Context.sol\":670:687   */\n      swap1\n      pop\n        /* \"openzeppelin-solidity/contracts/GSN/Context.sol\":590:694   */\n      swap1\n      jump\t// out\n        /* \"openzeppelin-solidity/contracts/access/AccessControl.sol\":7015:7199   */\n    tag_144:\n        /* \"openzeppelin-solidity/contracts/access/AccessControl.sol\":7088:7121   */\n      tag_222\n        /* \"openzeppelin-solidity/contracts/access/AccessControl.sol\":7113:7120   */\n      dup2\n        /* \"openzeppelin-solidity/contracts/access/AccessControl.sol\":7088:7094   */\n      0x00\n        /* \"openzeppelin-solidity/contracts/access/AccessControl.sol\":7088:7100   */\n      dup1\n        /* \"openzeppelin-solidity/contracts/access/AccessControl.sol\":7095:7099   */\n      dup6\n        /* \"openzeppelin-solidity/contracts/access/AccessControl.sol\":7088:7100   */\n      dup2\n      mstore\n      0x20\n      add\n      swap1\n      dup2\n      mstore\n      0x20\n      add\n      0x00\n      keccak256\n        /* \"openzeppelin-solidity/contracts/access/AccessControl.sol\":7088:7108   */\n      0x00\n      add\n        /* \"openzeppelin-solidity/contracts/access/AccessControl.sol\":7088:7112   */\n      tag_120\n      swap1\n        /* \"openzeppelin-solidity/contracts/access/AccessControl.sol\":7088:7121   */\n      swap2\n      swap1\n      0xffffffff\n      and\n      jump\t// in\n    tag_222:\n        /* \"openzeppelin-solidity/contracts/access/AccessControl.sol\":7084:7193   */\n      iszero\n      tag_223\n      jumpi\n        /* \"openzeppelin-solidity/contracts/access/AccessControl.sol\":7169:7181   */\n      tag_224\n        /* \"openzeppelin-solidity/contracts/access/AccessControl.sol\":7169:7179   */\n      tag_139\n        /* \"openzeppelin-solidity/contracts/access/AccessControl.sol\":7169:7181   */\n      jump\t// in\n    tag_224:\n        /* \"openzeppelin-solidity/contracts/access/AccessControl.sol\":7142:7182   */\n      0xffffffffffffffffffffffffffffffffffffffff\n      and\n        /* \"openzeppelin-solidity/contracts/access/AccessControl.sol\":7160:7167   */\n      dup2\n        /* \"openzeppelin-solidity/contracts/access/AccessControl.sol\":7142:7182   */\n      0xffffffffffffffffffffffffffffffffffffffff\n      and\n        /* \"openzeppelin-solidity/contracts/access/AccessControl.sol\":7154:7158   */\n      dup4\n        /* \"openzeppelin-solidity/contracts/access/AccessControl.sol\":7142:7182   */\n      0x2f8788117e7eff1d82e926ec794901d17c78024a50270940304540a733656f0d\n      mload(0x40)\n      mload(0x40)\n      dup1\n      swap2\n      sub\n      swap1\n      log4\n        /* \"openzeppelin-solidity/contracts/access/AccessControl.sol\":7084:7193   */\n    tag_223:\n        /* \"openzeppelin-solidity/contracts/access/AccessControl.sol\":7015:7199   */\n      pop\n      pop\n      jump\t// out\n        /* \"openzeppelin-solidity/contracts/access/AccessControl.sol\":7205:7393   */\n    tag_151:\n        /* \"openzeppelin-solidity/contracts/access/AccessControl.sol\":7279:7315   */\n      tag_226\n        /* \"openzeppelin-solidity/contracts/access/AccessControl.sol\":7307:7314   */\n      dup2\n        /* \"openzeppelin-solidity/contracts/access/AccessControl.sol\":7279:7285   */\n      0x00\n        /* \"openzeppelin-solidity/contracts/access/AccessControl.sol\":7279:7291   */\n      dup1\n        /* \"openzeppelin-solidity/contracts/access/AccessControl.sol\":7286:7290   */\n      dup6\n        /* \"openzeppelin-solidity/contracts/access/AccessControl.sol\":7279:7291   */\n      dup2\n      mstore\n      0x20\n      add\n      swap1\n      dup2\n      mstore\n      0x20\n      add\n      0x00\n      keccak256\n        /* \"openzeppelin-solidity/contracts/access/AccessControl.sol\":7279:7299   */\n      0x00\n      add\n        /* \"openzeppelin-solidity/contracts/access/AccessControl.sol\":7279:7306   */\n      tag_227\n      swap1\n        /* \"openzeppelin-solidity/contracts/access/AccessControl.sol\":7279:7315   */\n      swap2\n      swap1\n      0xffffffff\n      and\n      jump\t// in\n    tag_226:\n        /* \"openzeppelin-solidity/contracts/access/AccessControl.sol\":7275:7387   */\n      iszero\n      tag_228\n      jumpi\n        /* \"openzeppelin-solidity/contracts/access/AccessControl.sol\":7363:7375   */\n      tag_229\n        /* \"openzeppelin-solidity/contracts/access/AccessControl.sol\":7363:7373   */\n      tag_139\n        /* \"openzeppelin-solidity/contracts/access/AccessControl.sol\":7363:7375   */\n      jump\t// in\n    tag_229:\n        /* \"openzeppelin-solidity/contracts/access/AccessControl.sol\":7336:7376   */\n      0xffffffffffffffffffffffffffffffffffffffff\n      and\n        /* \"openzeppelin-solidity/contracts/access/AccessControl.sol\":7354:7361   */\n      dup2\n        /* \"openzeppelin-solidity/contracts/access/AccessControl.sol\":7336:7376   */\n      0xffffffffffffffffffffffffffffffffffffffff\n      and\n        /* \"openzeppelin-solidity/contracts/access/AccessControl.sol\":7348:7352   */\n      dup4\n        /* \"openzeppelin-solidity/contracts/access/AccessControl.sol\":7336:7376   */\n      0xf6391f5c32d9c69d2a47ea670b442974b53935d1edc7fd64eb21e047a839171b\n      mload(0x40)\n      mload(0x40)\n      dup1\n      swap2\n      sub\n      swap1\n      log4\n        /* \"openzeppelin-solidity/contracts/access/AccessControl.sol\":7275:7387   */\n    tag_228:\n        /* \"openzeppelin-solidity/contracts/access/AccessControl.sol\":7205:7393   */\n      pop\n      pop\n      jump\t// out\n        /* \"openzeppelin-solidity/contracts/utils/EnumerableSet.sol\":6085:6232   */\n    tag_181:\n        /* \"openzeppelin-solidity/contracts/utils/EnumerableSet.sol\":6159:6166   */\n      0x00\n        /* \"openzeppelin-solidity/contracts/utils/EnumerableSet.sol\":6201:6223   */\n      tag_231\n        /* \"openzeppelin-solidity/contracts/utils/EnumerableSet.sol\":6205:6208   */\n      dup4\n        /* \"openzeppelin-solidity/contracts/utils/EnumerableSet.sol\":6205:6215   */\n      0x00\n      add\n        /* \"openzeppelin-solidity/contracts/utils/EnumerableSet.sol\":6217:6222   */\n      dup4\n        /* \"openzeppelin-solidity/contracts/utils/EnumerableSet.sol\":6201:6204   */\n      tag_232\n        /* \"openzeppelin-solidity/contracts/utils/EnumerableSet.sol\":6201:6223   */\n      jump\t// in\n    tag_231:\n        /* \"openzeppelin-solidity/contracts/utils/EnumerableSet.sol\":6193:6224   */\n      0x00\n      shr\n        /* \"openzeppelin-solidity/contracts/utils/EnumerableSet.sol\":6178:6225   */\n      swap1\n      pop\n        /* \"openzeppelin-solidity/contracts/utils/EnumerableSet.sol\":6085:6232   */\n      swap3\n      swap2\n      pop\n      pop\n      jump\t// out\n        /* \"openzeppelin-solidity/contracts/utils/EnumerableSet.sol\":5401:5557   */\n    tag_184:\n        /* \"openzeppelin-solidity/contracts/utils/EnumerableSet.sol\":5481:5485   */\n      0x00\n        /* \"openzeppelin-solidity/contracts/utils/EnumerableSet.sol\":5504:5550   */\n      tag_234\n        /* \"openzeppelin-solidity/contracts/utils/EnumerableSet.sol\":5514:5517   */\n      dup4\n        /* \"openzeppelin-solidity/contracts/utils/EnumerableSet.sol\":5514:5524   */\n      0x00\n      add\n        /* \"openzeppelin-solidity/contracts/utils/EnumerableSet.sol\":5542:5547   */\n      dup4\n        /* \"openzeppelin-solidity/contracts/utils/EnumerableSet.sol\":5534:5548   */\n      0xffffffffffffffffffffffffffffffffffffffff\n      and\n        /* \"openzeppelin-solidity/contracts/utils/EnumerableSet.sol\":5526:5549   */\n      0x00\n      shl\n        /* \"openzeppelin-solidity/contracts/utils/EnumerableSet.sol\":5504:5513   */\n      tag_235\n        /* \"openzeppelin-solidity/contracts/utils/EnumerableSet.sol\":5504:5550   */\n      jump\t// in\n    tag_234:\n        /* \"openzeppelin-solidity/contracts/utils/EnumerableSet.sol\":5497:5550   */\n      swap1\n      pop\n        /* \"openzeppelin-solidity/contracts/utils/EnumerableSet.sol\":5401:5557   */\n      swap3\n      swap2\n      pop\n      pop\n      jump\t// out\n        /* \"openzeppelin-solidity/contracts/utils/EnumerableSet.sol\":5638:5753   */\n    tag_199:\n        /* \"openzeppelin-solidity/contracts/utils/EnumerableSet.sol\":5701:5708   */\n      0x00\n        /* \"openzeppelin-solidity/contracts/utils/EnumerableSet.sol\":5727:5746   */\n      tag_237\n        /* \"openzeppelin-solidity/contracts/utils/EnumerableSet.sol\":5735:5738   */\n      dup3\n        /* \"openzeppelin-solidity/contracts/utils/EnumerableSet.sol\":5735:5745   */\n      0x00\n      add\n        /* \"openzeppelin-solidity/contracts/utils/EnumerableSet.sol\":5727:5734   */\n      tag_238\n        /* \"openzeppelin-solidity/contracts/utils/EnumerableSet.sol\":5727:5746   */\n      jump\t// in\n    tag_237:\n        /* \"openzeppelin-solidity/contracts/utils/EnumerableSet.sol\":5720:5746   */\n      swap1\n      pop\n        /* \"openzeppelin-solidity/contracts/utils/EnumerableSet.sol\":5638:5753   */\n      swap2\n      swap1\n      pop\n      jump\t// out\n        /* \"WriterRole.sol\":965:1087  function _addWriter(address account) internal {... */\n    tag_213:\n        /* \"WriterRole.sol\":1021:1045  grantRole(role, account) */\n      tag_240\n        /* \"WriterRole.sol\":313:332  keccak256(\"Writer\") */\n      mload(0x40)\n      tag_241\n      swap1\n      tag_135\n      jump\t// in\n    tag_241:\n      mload(0x40)\n      dup1\n      swap2\n      sub\n      swap1\n      keccak256\n        /* \"WriterRole.sol\":1037:1044  account */\n      dup3\n        /* \"WriterRole.sol\":1021:1030  grantRole */\n      tag_58\n        /* \"WriterRole.sol\":1021:1045  grantRole(role, account) */\n      jump\t// in\n    tag_240:\n        /* \"WriterRole.sol\":1072:1079  account */\n      dup1\n        /* \"WriterRole.sol\":1060:1080  WriterAdded(account) */\n      0xffffffffffffffffffffffffffffffffffffffff\n      and\n      0x6ff3aa2ea7b53070f6d9d07a445d338d89e8edef44250ffa8be19f53910d4a2e\n      mload(0x40)\n      mload(0x40)\n      dup1\n      swap2\n      sub\n      swap1\n      log2\n        /* \"WriterRole.sol\":965:1087  function _addWriter(address account) internal {... */\n      pop\n      jump\t// out\n        /* \"WriterRole.sol\":1097:1227  function _removeWriter(address account) internal {... */\n    tag_216:\n        /* \"WriterRole.sol\":1156:1183  renounceRole(role, account) */\n      tag_243\n        /* \"WriterRole.sol\":313:332  keccak256(\"Writer\") */\n      mload(0x40)\n      tag_244\n      swap1\n      tag_135\n      jump\t// in\n    tag_244:\n      mload(0x40)\n      dup1\n      swap2\n      sub\n      swap1\n      keccak256\n        /* \"WriterRole.sol\":1175:1182  account */\n      dup3\n        /* \"WriterRole.sol\":1156:1168  renounceRole */\n      tag_62\n        /* \"WriterRole.sol\":1156:1183  renounceRole(role, account) */\n      jump\t// in\n    tag_243:\n        /* \"WriterRole.sol\":1212:1219  account */\n      dup1\n        /* \"WriterRole.sol\":1198:1220  WriterRemoved(account) */\n      0xffffffffffffffffffffffffffffffffffffffff\n      and\n      0x86e5bbceda94081c32220d685f37cc4e3ea7bb0be2dfbf0cb703579505a5390e\n      mload(0x40)\n      mload(0x40)\n      dup1\n      swap2\n      sub\n      swap1\n      log2\n        /* \"WriterRole.sol\":1097:1227  function _removeWriter(address account) internal {... */\n      pop\n      jump\t// out\n        /* \"openzeppelin-solidity/contracts/utils/EnumerableSet.sol\":1611:2015   */\n    tag_219:\n        /* \"openzeppelin-solidity/contracts/utils/EnumerableSet.sol\":1674:1678   */\n      0x00\n        /* \"openzeppelin-solidity/contracts/utils/EnumerableSet.sol\":1695:1716   */\n      tag_246\n        /* \"openzeppelin-solidity/contracts/utils/EnumerableSet.sol\":1705:1708   */\n      dup4\n        /* \"openzeppelin-solidity/contracts/utils/EnumerableSet.sol\":1710:1715   */\n      dup4\n        /* \"openzeppelin-solidity/contracts/utils/EnumerableSet.sol\":1695:1704   */\n      tag_235\n        /* \"openzeppelin-solidity/contracts/utils/EnumerableSet.sol\":1695:1716   */\n      jump\t// in\n    tag_246:\n        /* \"openzeppelin-solidity/contracts/utils/EnumerableSet.sol\":1690:2009   */\n      tag_247\n      jumpi\n        /* \"openzeppelin-solidity/contracts/utils/EnumerableSet.sol\":1732:1735   */\n      dup3\n        /* \"openzeppelin-solidity/contracts/utils/EnumerableSet.sol\":1732:1743   */\n      0x00\n      add\n        /* \"openzeppelin-solidity/contracts/utils/EnumerableSet.sol\":1749:1754   */\n      dup3\n        /* \"openzeppelin-solidity/contracts/utils/EnumerableSet.sol\":1732:1755   */\n      swap1\n      dup1\n      0x01\n      dup2\n      sload\n      add\n      dup1\n      dup3\n      sstore\n      dup1\n      swap2\n      pop\n      pop\n      0x01\n      swap1\n      sub\n      swap1\n      0x00\n      mstore\n      keccak256(0x00, 0x20)\n      add\n      0x00\n      swap1\n      swap2\n      swap1\n      swap2\n      swap1\n      swap2\n      pop\n      sstore\n        /* \"openzeppelin-solidity/contracts/utils/EnumerableSet.sol\":1912:1915   */\n      dup3\n        /* \"openzeppelin-solidity/contracts/utils/EnumerableSet.sol\":1912:1923   */\n      0x00\n      add\n        /* \"openzeppelin-solidity/contracts/utils/EnumerableSet.sol\":1912:1930   */\n      dup1\n      sload\n      swap1\n      pop\n        /* \"openzeppelin-solidity/contracts/utils/EnumerableSet.sol\":1890:1893   */\n      dup4\n        /* \"openzeppelin-solidity/contracts/utils/EnumerableSet.sol\":1890:1902   */\n      0x01\n      add\n        /* \"openzeppelin-solidity/contracts/utils/EnumerableSet.sol\":1890:1909   */\n      0x00\n        /* \"openzeppelin-solidity/contracts/utils/EnumerableSet.sol\":1903:1908   */\n      dup5\n        /* \"openzeppelin-solidity/contracts/utils/EnumerableSet.sol\":1890:1909   */\n      dup2\n      mstore\n      0x20\n      add\n      swap1\n      dup2\n      mstore\n      0x20\n      add\n      0x00\n      keccak256\n        /* \"openzeppelin-solidity/contracts/utils/EnumerableSet.sol\":1890:1930   */\n      dup2\n      swap1\n      sstore\n      pop\n        /* \"openzeppelin-solidity/contracts/utils/EnumerableSet.sol\":1951:1955   */\n      0x01\n        /* \"openzeppelin-solidity/contracts/utils/EnumerableSet.sol\":1944:1955   */\n      swap1\n      pop\n      jump(tag_245)\n        /* \"openzeppelin-solidity/contracts/utils/EnumerableSet.sol\":1690:2009   */\n    tag_247:\n        /* \"openzeppelin-solidity/contracts/utils/EnumerableSet.sol\":1993:1998   */\n      0x00\n        /* \"openzeppelin-solidity/contracts/utils/EnumerableSet.sol\":1986:1998   */\n      swap1\n      pop\n        /* \"openzeppelin-solidity/contracts/utils/EnumerableSet.sol\":1611:2015   */\n    tag_245:\n      swap3\n      swap2\n      pop\n      pop\n      jump\t// out\n        /* \"openzeppelin-solidity/contracts/utils/EnumerableSet.sol\":5173:5320   */\n    tag_227:\n        /* \"openzeppelin-solidity/contracts/utils/EnumerableSet.sol\":5246:5250   */\n      0x00\n        /* \"openzeppelin-solidity/contracts/utils/EnumerableSet.sol\":5269:5313   */\n      tag_251\n        /* \"openzeppelin-solidity/contracts/utils/EnumerableSet.sol\":5277:5280   */\n      dup4\n        /* \"openzeppelin-solidity/contracts/utils/EnumerableSet.sol\":5277:5287   */\n      0x00\n      add\n        /* \"openzeppelin-solidity/contracts/utils/EnumerableSet.sol\":5305:5310   */\n      dup4\n        /* \"openzeppelin-solidity/contracts/utils/EnumerableSet.sol\":5297:5311   */\n      0xffffffffffffffffffffffffffffffffffffffff\n      and\n        /* \"openzeppelin-solidity/contracts/utils/EnumerableSet.sol\":5289:5312   */\n      0x00\n      shl\n        /* \"openzeppelin-solidity/contracts/utils/EnumerableSet.sol\":5269:5276   */\n      tag_252\n        /* \"openzeppelin-solidity/contracts/utils/EnumerableSet.sol\":5269:5313   */\n      jump\t// in\n    tag_251:\n        /* \"openzeppelin-solidity/contracts/utils/EnumerableSet.sol\":5262:5313   */\n      swap1\n      pop\n        /* \"openzeppelin-solidity/contracts/utils/EnumerableSet.sol\":5173:5320   */\n      swap3\n      swap2\n      pop\n      pop\n      jump\t// out\n        /* \"openzeppelin-solidity/contracts/utils/EnumerableSet.sol\":4423:4624   */\n    tag_232:\n        /* \"openzeppelin-solidity/contracts/utils/EnumerableSet.sol\":4490:4497   */\n      0x00\n        /* \"openzeppelin-solidity/contracts/utils/EnumerableSet.sol\":4538:4543   */\n      dup2\n        /* \"openzeppelin-solidity/contracts/utils/EnumerableSet.sol\":4517:4520   */\n      dup4\n        /* \"openzeppelin-solidity/contracts/utils/EnumerableSet.sol\":4517:4528   */\n      0x00\n      add\n        /* \"openzeppelin-solidity/contracts/utils/EnumerableSet.sol\":4517:4535   */\n      dup1\n      sload\n      swap1\n      pop\n        /* \"openzeppelin-solidity/contracts/utils/EnumerableSet.sol\":4517:4543   */\n      gt\n        /* \"openzeppelin-solidity/contracts/utils/EnumerableSet.sol\":4509:4582   */\n      tag_254\n      jumpi\n      mload(0x40)\n      0x08c379a000000000000000000000000000000000000000000000000000000000\n      dup2\n      mstore\n      0x04\n      add\n      tag_255\n      swap1\n      tag_256\n      jump\t// in\n    tag_255:\n      mload(0x40)\n      dup1\n      swap2\n      sub\n      swap1\n      revert\n    tag_254:\n        /* \"openzeppelin-solidity/contracts/utils/EnumerableSet.sol\":4599:4602   */\n      dup3\n        /* \"openzeppelin-solidity/contracts/utils/EnumerableSet.sol\":4599:4610   */\n      0x00\n      add\n        /* \"openzeppelin-solidity/contracts/utils/EnumerableSet.sol\":4611:4616   */\n      dup3\n        /* \"openzeppelin-solidity/contracts/utils/EnumerableSet.sol\":4599:4617   */\n      dup2\n      sload\n      dup2\n      lt\n      tag_257\n      jumpi\n      invalid\n    tag_257:\n      swap1\n      0x00\n      mstore\n      keccak256(0x00, 0x20)\n      add\n      sload\n        /* \"openzeppelin-solidity/contracts/utils/EnumerableSet.sol\":4592:4617   */\n      swap1\n      pop\n        /* \"openzeppelin-solidity/contracts/utils/EnumerableSet.sol\":4423:4624   */\n      swap3\n      swap2\n      pop\n      pop\n      jump\t// out\n        /* \"openzeppelin-solidity/contracts/utils/EnumerableSet.sol\":3776:3903   */\n    tag_235:\n        /* \"openzeppelin-solidity/contracts/utils/EnumerableSet.sol\":3849:3853   */\n      0x00\n        /* \"openzeppelin-solidity/contracts/utils/EnumerableSet.sol\":3895:3896   */\n      dup1\n        /* \"openzeppelin-solidity/contracts/utils/EnumerableSet.sol\":3872:3875   */\n      dup4\n        /* \"openzeppelin-solidity/contracts/utils/EnumerableSet.sol\":3872:3884   */\n      0x01\n      add\n        /* \"openzeppelin-solidity/contracts/utils/EnumerableSet.sol\":3872:3891   */\n      0x00\n        /* \"openzeppelin-solidity/contracts/utils/EnumerableSet.sol\":3885:3890   */\n      dup5\n        /* \"openzeppelin-solidity/contracts/utils/EnumerableSet.sol\":3872:3891   */\n      dup2\n      mstore\n      0x20\n      add\n      swap1\n      dup2\n      mstore\n      0x20\n      add\n      0x00\n      keccak256\n      sload\n        /* \"openzeppelin-solidity/contracts/utils/EnumerableSet.sol\":3872:3896   */\n      eq\n      iszero\n        /* \"openzeppelin-solidity/contracts/utils/EnumerableSet.sol\":3865:3896   */\n      swap1\n      pop\n        /* \"openzeppelin-solidity/contracts/utils/EnumerableSet.sol\":3776:3903   */\n      swap3\n      swap2\n      pop\n      pop\n      jump\t// out\n        /* \"openzeppelin-solidity/contracts/utils/EnumerableSet.sol\":3984:4091   */\n    tag_238:\n        /* \"openzeppelin-solidity/contracts/utils/EnumerableSet.sol\":4040:4047   */\n      0x00\n        /* \"openzeppelin-solidity/contracts/utils/EnumerableSet.sol\":4066:4069   */\n      dup2\n        /* \"openzeppelin-solidity/contracts/utils/EnumerableSet.sol\":4066:4077   */\n      0x00\n      add\n        /* \"openzeppelin-solidity/contracts/utils/EnumerableSet.sol\":4066:4084   */\n      dup1\n      sload\n      swap1\n      pop\n        /* \"openzeppelin-solidity/contracts/utils/EnumerableSet.sol\":4059:4084   */\n      swap1\n      pop\n        /* \"openzeppelin-solidity/contracts/utils/EnumerableSet.sol\":3984:4091   */\n      swap2\n      swap1\n      pop\n      jump\t// out\n        /* \"openzeppelin-solidity/contracts/utils/EnumerableSet.sol\":2183:3695   */\n    tag_252:\n        /* \"openzeppelin-solidity/contracts/utils/EnumerableSet.sol\":2249:2253   */\n      0x00\n        /* \"openzeppelin-solidity/contracts/utils/EnumerableSet.sol\":2365:2383   */\n      dup1\n        /* \"openzeppelin-solidity/contracts/utils/EnumerableSet.sol\":2386:2389   */\n      dup4\n        /* \"openzeppelin-solidity/contracts/utils/EnumerableSet.sol\":2386:2398   */\n      0x01\n      add\n        /* \"openzeppelin-solidity/contracts/utils/EnumerableSet.sol\":2386:2405   */\n      0x00\n        /* \"openzeppelin-solidity/contracts/utils/EnumerableSet.sol\":2399:2404   */\n      dup5\n        /* \"openzeppelin-solidity/contracts/utils/EnumerableSet.sol\":2386:2405   */\n      dup2\n      mstore\n      0x20\n      add\n      swap1\n      dup2\n      mstore\n      0x20\n      add\n      0x00\n      keccak256\n      sload\n        /* \"openzeppelin-solidity/contracts/utils/EnumerableSet.sol\":2365:2405   */\n      swap1\n      pop\n        /* \"openzeppelin-solidity/contracts/utils/EnumerableSet.sol\":2434:2435   */\n      0x00\n        /* \"openzeppelin-solidity/contracts/utils/EnumerableSet.sol\":2420:2430   */\n      dup2\n        /* \"openzeppelin-solidity/contracts/utils/EnumerableSet.sol\":2420:2435   */\n      eq\n        /* \"openzeppelin-solidity/contracts/utils/EnumerableSet.sol\":2416:3689   */\n      tag_262\n      jumpi\n        /* \"openzeppelin-solidity/contracts/utils/EnumerableSet.sol\":2777:2798   */\n      0x00\n        /* \"openzeppelin-solidity/contracts/utils/EnumerableSet.sol\":2814:2815   */\n      0x01\n        /* \"openzeppelin-solidity/contracts/utils/EnumerableSet.sol\":2801:2811   */\n      dup3\n        /* \"openzeppelin-solidity/contracts/utils/EnumerableSet.sol\":2801:2815   */\n      sub\n        /* \"openzeppelin-solidity/contracts/utils/EnumerableSet.sol\":2777:2815   */\n      swap1\n      pop\n        /* \"openzeppelin-solidity/contracts/utils/EnumerableSet.sol\":2829:2846   */\n      0x00\n        /* \"openzeppelin-solidity/contracts/utils/EnumerableSet.sol\":2870:2871   */\n      0x01\n        /* \"openzeppelin-solidity/contracts/utils/EnumerableSet.sol\":2849:2852   */\n      dup7\n        /* \"openzeppelin-solidity/contracts/utils/EnumerableSet.sol\":2849:2860   */\n      0x00\n      add\n        /* \"openzeppelin-solidity/contracts/utils/EnumerableSet.sol\":2849:2867   */\n      dup1\n      sload\n      swap1\n      pop\n        /* \"openzeppelin-solidity/contracts/utils/EnumerableSet.sol\":2849:2871   */\n      sub\n        /* \"openzeppelin-solidity/contracts/utils/EnumerableSet.sol\":2829:2871   */\n      swap1\n      pop\n        /* \"openzeppelin-solidity/contracts/utils/EnumerableSet.sol\":3111:3128   */\n      0x00\n        /* \"openzeppelin-solidity/contracts/utils/EnumerableSet.sol\":3131:3134   */\n      dup7\n        /* \"openzeppelin-solidity/contracts/utils/EnumerableSet.sol\":3131:3142   */\n      0x00\n      add\n        /* \"openzeppelin-solidity/contracts/utils/EnumerableSet.sol\":3143:3152   */\n      dup3\n        /* \"openzeppelin-solidity/contracts/utils/EnumerableSet.sol\":3131:3153   */\n      dup2\n      sload\n      dup2\n      lt\n      tag_263\n      jumpi\n      invalid\n    tag_263:\n      swap1\n      0x00\n      mstore\n      keccak256(0x00, 0x20)\n      add\n      sload\n        /* \"openzeppelin-solidity/contracts/utils/EnumerableSet.sol\":3111:3153   */\n      swap1\n      pop\n        /* \"openzeppelin-solidity/contracts/utils/EnumerableSet.sol\":3274:3283   */\n      dup1\n        /* \"openzeppelin-solidity/contracts/utils/EnumerableSet.sol\":3245:3248   */\n      dup8\n        /* \"openzeppelin-solidity/contracts/utils/EnumerableSet.sol\":3245:3256   */\n      0x00\n      add\n        /* \"openzeppelin-solidity/contracts/utils/EnumerableSet.sol\":3257:3270   */\n      dup5\n        /* \"openzeppelin-solidity/contracts/utils/EnumerableSet.sol\":3245:3271   */\n      dup2\n      sload\n      dup2\n      lt\n      tag_265\n      jumpi\n      invalid\n    tag_265:\n      swap1\n      0x00\n      mstore\n      keccak256(0x00, 0x20)\n      add\n        /* \"openzeppelin-solidity/contracts/utils/EnumerableSet.sol\":3245:3283   */\n      dup2\n      swap1\n      sstore\n      pop\n        /* \"openzeppelin-solidity/contracts/utils/EnumerableSet.sol\":3391:3392   */\n      0x01\n        /* \"openzeppelin-solidity/contracts/utils/EnumerableSet.sol\":3375:3388   */\n      dup4\n        /* \"openzeppelin-solidity/contracts/utils/EnumerableSet.sol\":3375:3392   */\n      add\n        /* \"openzeppelin-solidity/contracts/utils/EnumerableSet.sol\":3349:3352   */\n      dup8\n        /* \"openzeppelin-solidity/contracts/utils/EnumerableSet.sol\":3349:3361   */\n      0x01\n      add\n        /* \"openzeppelin-solidity/contracts/utils/EnumerableSet.sol\":3349:3372   */\n      0x00\n        /* \"openzeppelin-solidity/contracts/utils/EnumerableSet.sol\":3362:3371   */\n      dup4\n        /* \"openzeppelin-solidity/contracts/utils/EnumerableSet.sol\":3349:3372   */\n      dup2\n      mstore\n      0x20\n      add\n      swap1\n      dup2\n      mstore\n      0x20\n      add\n      0x00\n      keccak256\n        /* \"openzeppelin-solidity/contracts/utils/EnumerableSet.sol\":3349:3392   */\n      dup2\n      swap1\n      sstore\n      pop\n        /* \"openzeppelin-solidity/contracts/utils/EnumerableSet.sol\":3498:3501   */\n      dup7\n        /* \"openzeppelin-solidity/contracts/utils/EnumerableSet.sol\":3498:3509   */\n      0x00\n      add\n        /* \"openzeppelin-solidity/contracts/utils/EnumerableSet.sol\":3498:3515   */\n      dup1\n      sload\n      dup1\n      tag_267\n      jumpi\n      invalid\n    tag_267:\n      0x01\n      swap1\n      sub\n      dup2\n      dup2\n      swap1\n      0x00\n      mstore\n      keccak256(0x00, 0x20)\n      add\n      0x00\n      swap1\n      sstore\n      swap1\n      sstore\n        /* \"openzeppelin-solidity/contracts/utils/EnumerableSet.sol\":3590:3593   */\n      dup7\n        /* \"openzeppelin-solidity/contracts/utils/EnumerableSet.sol\":3590:3602   */\n      0x01\n      add\n        /* \"openzeppelin-solidity/contracts/utils/EnumerableSet.sol\":3590:3609   */\n      0x00\n        /* \"openzeppelin-solidity/contracts/utils/EnumerableSet.sol\":3603:3608   */\n      dup8\n        /* \"openzeppelin-solidity/contracts/utils/EnumerableSet.sol\":3590:3609   */\n      dup2\n      mstore\n      0x20\n      add\n      swap1\n      dup2\n      mstore\n      0x20\n      add\n      0x00\n      keccak256\n        /* \"openzeppelin-solidity/contracts/utils/EnumerableSet.sol\":3583:3609   */\n      0x00\n      swap1\n      sstore\n        /* \"openzeppelin-solidity/contracts/utils/EnumerableSet.sol\":3631:3635   */\n      0x01\n        /* \"openzeppelin-solidity/contracts/utils/EnumerableSet.sol\":3624:3635   */\n      swap5\n      pop\n      pop\n      pop\n      pop\n      pop\n      jump(tag_261)\n        /* \"openzeppelin-solidity/contracts/utils/EnumerableSet.sol\":2416:3689   */\n    tag_262:\n        /* \"openzeppelin-solidity/contracts/utils/EnumerableSet.sol\":3673:3678   */\n      0x00\n        /* \"openzeppelin-solidity/contracts/utils/EnumerableSet.sol\":3666:3678   */\n      swap2\n      pop\n      pop\n        /* \"openzeppelin-solidity/contracts/utils/EnumerableSet.sol\":2183:3695   */\n    tag_261:\n      swap3\n      swap2\n      pop\n      pop\n      jump\t// out\n    tag_172:\n      mload(0x40)\n      dup1\n      0x0140\n      add\n      0x40\n      mstore\n      dup1\n      0x00\n      dup2\n      mstore\n      0x20\n      add\n      0x00\n      dup2\n      mstore\n      0x20\n      add\n      0x60\n      dup2\n      mstore\n      0x20\n      add\n      0x60\n      dup2\n      mstore\n      0x20\n      add\n      0x60\n      dup2\n      mstore\n      0x20\n      add\n      iszero(iszero(0x00))\n      dup2\n      mstore\n      0x20\n      add\n      and(0xffffffffffffffffffffffffffffffffffffffff, 0x00)\n      dup2\n      mstore\n      0x20\n      add\n      0x00\n      dup2\n      mstore\n      0x20\n      add\n      iszero(iszero(0x00))\n      dup2\n      mstore\n      0x20\n      add\n      0x00\n      dup2\n      mstore\n      pop\n      swap1\n      jump\t// out\n    tag_174:\n      dup3\n      dup1\n      sload\n      0x01\n      dup2\n      0x01\n      and\n      iszero\n      0x0100\n      mul\n      sub\n      and\n      0x02\n      swap1\n      div\n      swap1\n      0x00\n      mstore\n      keccak256(0x00, 0x20)\n      swap1\n      0x1f\n      add\n      0x20\n      swap1\n      div\n      dup2\n      add\n      swap3\n      dup3\n      0x1f\n      lt\n      tag_271\n      jumpi\n      dup1\n      mload\n      not(0xff)\n      and\n      dup4\n      dup1\n      add\n      or\n      dup6\n      sstore\n      jump(tag_270)\n    tag_271:\n      dup3\n      dup1\n      add\n      0x01\n      add\n      dup6\n      sstore\n      dup3\n      iszero\n      tag_270\n      jumpi\n      swap2\n      dup3\n      add\n    tag_272:\n      dup3\n      dup2\n      gt\n      iszero\n      tag_273\n      jumpi\n      dup3\n      mload\n      dup3\n      sstore\n      swap2\n      0x20\n      add\n      swap2\n      swap1\n      0x01\n      add\n      swap1\n      jump(tag_272)\n    tag_273:\n    tag_270:\n      pop\n      swap1\n      pop\n      tag_274\n      swap2\n      swap1\n      tag_275\n      jump\t// in\n    tag_274:\n      pop\n      swap1\n      jump\t// out\n    tag_275:\n      tag_276\n      swap2\n      swap1\n    tag_277:\n      dup1\n      dup3\n      gt\n      iszero\n      tag_278\n      jumpi\n      0x00\n      dup2\n      0x00\n      swap1\n      sstore\n      pop\n      0x01\n      add\n      jump(tag_277)\n    tag_278:\n      pop\n      swap1\n      jump\n    tag_276:\n      swap1\n      jump\t// out\n        /* \"--CODEGEN--\":5:135   */\n    tag_280:\n      0x00\n        /* \"--CODEGEN--\":85:91   */\n      dup2\n        /* \"--CODEGEN--\":72:92   */\n      calldataload\n        /* \"--CODEGEN--\":63:92   */\n      swap1\n      pop\n        /* \"--CODEGEN--\":97:130   */\n      tag_282\n        /* \"--CODEGEN--\":124:129   */\n      dup2\n        /* \"--CODEGEN--\":97:130   */\n      tag_283\n      jump\t// in\n    tag_282:\n        /* \"--CODEGEN--\":57:135   */\n      swap3\n      swap2\n      pop\n      pop\n      jump\t// out\n        /* \"--CODEGEN--\":142:266   */\n    tag_284:\n      0x00\n        /* \"--CODEGEN--\":219:225   */\n      dup2\n        /* \"--CODEGEN--\":206:226   */\n      calldataload\n        /* \"--CODEGEN--\":197:226   */\n      swap1\n      pop\n        /* \"--CODEGEN--\":231:261   */\n      tag_286\n        /* \"--CODEGEN--\":255:260   */\n      dup2\n        /* \"--CODEGEN--\":231:261   */\n      tag_287\n      jump\t// in\n    tag_286:\n        /* \"--CODEGEN--\":191:266   */\n      swap3\n      swap2\n      pop\n      pop\n      jump\t// out\n        /* \"--CODEGEN--\":273:403   */\n    tag_288:\n      0x00\n        /* \"--CODEGEN--\":353:359   */\n      dup2\n        /* \"--CODEGEN--\":340:360   */\n      calldataload\n        /* \"--CODEGEN--\":331:360   */\n      swap1\n      pop\n        /* \"--CODEGEN--\":365:398   */\n      tag_290\n        /* \"--CODEGEN--\":392:397   */\n      dup2\n        /* \"--CODEGEN--\":365:398   */\n      tag_291\n      jump\t// in\n    tag_290:\n        /* \"--CODEGEN--\":325:403   */\n      swap3\n      swap2\n      pop\n      pop\n      jump\t// out\n        /* \"--CODEGEN--\":425:762   */\n    tag_292:\n      0x00\n      dup1\n        /* \"--CODEGEN--\":540:543   */\n      dup4\n        /* \"--CODEGEN--\":533:537   */\n      0x1f\n        /* \"--CODEGEN--\":525:531   */\n      dup5\n        /* \"--CODEGEN--\":521:538   */\n      add\n        /* \"--CODEGEN--\":517:544   */\n      slt\n        /* \"--CODEGEN--\":507:509   */\n      tag_294\n      jumpi\n        /* \"--CODEGEN--\":558:559   */\n      0x00\n        /* \"--CODEGEN--\":555:556   */\n      dup1\n        /* \"--CODEGEN--\":548:560   */\n      revert\n        /* \"--CODEGEN--\":507:509   */\n    tag_294:\n        /* \"--CODEGEN--\":591:597   */\n      dup3\n        /* \"--CODEGEN--\":578:598   */\n      calldataload\n        /* \"--CODEGEN--\":568:598   */\n      swap1\n      pop\n        /* \"--CODEGEN--\":618:636   */\n      0xffffffffffffffff\n        /* \"--CODEGEN--\":610:616   */\n      dup2\n        /* \"--CODEGEN--\":607:637   */\n      gt\n        /* \"--CODEGEN--\":604:606   */\n      iszero\n      tag_295\n      jumpi\n        /* \"--CODEGEN--\":650:651   */\n      0x00\n        /* \"--CODEGEN--\":647:648   */\n      dup1\n        /* \"--CODEGEN--\":640:652   */\n      revert\n        /* \"--CODEGEN--\":604:606   */\n    tag_295:\n        /* \"--CODEGEN--\":684:688   */\n      0x20\n        /* \"--CODEGEN--\":676:682   */\n      dup4\n        /* \"--CODEGEN--\":672:689   */\n      add\n        /* \"--CODEGEN--\":660:689   */\n      swap2\n      pop\n        /* \"--CODEGEN--\":735:738   */\n      dup4\n        /* \"--CODEGEN--\":727:731   */\n      0x01\n        /* \"--CODEGEN--\":719:725   */\n      dup3\n        /* \"--CODEGEN--\":715:732   */\n      mul\n        /* \"--CODEGEN--\":705:713   */\n      dup4\n        /* \"--CODEGEN--\":701:733   */\n      add\n        /* \"--CODEGEN--\":698:739   */\n      gt\n        /* \"--CODEGEN--\":695:697   */\n      iszero\n      tag_296\n      jumpi\n        /* \"--CODEGEN--\":752:753   */\n      0x00\n        /* \"--CODEGEN--\":749:750   */\n      dup1\n        /* \"--CODEGEN--\":742:754   */\n      revert\n        /* \"--CODEGEN--\":695:697   */\n    tag_296:\n        /* \"--CODEGEN--\":500:762   */\n      swap3\n      pop\n      swap3\n      swap1\n      pop\n      jump\t// out\n        /* \"--CODEGEN--\":770:900   */\n    tag_297:\n      0x00\n        /* \"--CODEGEN--\":850:856   */\n      dup2\n        /* \"--CODEGEN--\":837:857   */\n      calldataload\n        /* \"--CODEGEN--\":828:857   */\n      swap1\n      pop\n        /* \"--CODEGEN--\":862:895   */\n      tag_299\n        /* \"--CODEGEN--\":889:894   */\n      dup2\n        /* \"--CODEGEN--\":862:895   */\n      tag_300\n      jump\t// in\n    tag_299:\n        /* \"--CODEGEN--\":822:900   */\n      swap3\n      swap2\n      pop\n      pop\n      jump\t// out\n        /* \"--CODEGEN--\":907:1041   */\n    tag_301:\n      0x00\n        /* \"--CODEGEN--\":991:997   */\n      dup2\n        /* \"--CODEGEN--\":985:998   */\n      mload\n        /* \"--CODEGEN--\":976:998   */\n      swap1\n      pop\n        /* \"--CODEGEN--\":1003:1036   */\n      tag_303\n        /* \"--CODEGEN--\":1030:1035   */\n      dup2\n        /* \"--CODEGEN--\":1003:1036   */\n      tag_300\n      jump\t// in\n    tag_303:\n        /* \"--CODEGEN--\":970:1041   */\n      swap3\n      swap2\n      pop\n      pop\n      jump\t// out\n        /* \"--CODEGEN--\":1048:1289   */\n    tag_34:\n      0x00\n        /* \"--CODEGEN--\":1152:1154   */\n      0x20\n        /* \"--CODEGEN--\":1140:1149   */\n      dup3\n        /* \"--CODEGEN--\":1131:1138   */\n      dup5\n        /* \"--CODEGEN--\":1127:1150   */\n      sub\n        /* \"--CODEGEN--\":1123:1155   */\n      slt\n        /* \"--CODEGEN--\":1120:1122   */\n      iszero\n      tag_305\n      jumpi\n        /* \"--CODEGEN--\":1168:1169   */\n      0x00\n        /* \"--CODEGEN--\":1165:1166   */\n      dup1\n        /* \"--CODEGEN--\":1158:1170   */\n      revert\n        /* \"--CODEGEN--\":1120:1122   */\n    tag_305:\n        /* \"--CODEGEN--\":1203:1204   */\n      0x00\n        /* \"--CODEGEN--\":1220:1273   */\n      tag_306\n        /* \"--CODEGEN--\":1265:1272   */\n      dup5\n        /* \"--CODEGEN--\":1256:1262   */\n      dup3\n        /* \"--CODEGEN--\":1245:1254   */\n      dup6\n        /* \"--CODEGEN--\":1241:1263   */\n      add\n        /* \"--CODEGEN--\":1220:1273   */\n      tag_280\n      jump\t// in\n    tag_306:\n        /* \"--CODEGEN--\":1210:1273   */\n      swap2\n      pop\n        /* \"--CODEGEN--\":1182:1279   */\n      pop\n        /* \"--CODEGEN--\":1114:1289   */\n      swap3\n      swap2\n      pop\n      pop\n      jump\t// out\n        /* \"--CODEGEN--\":1296:1537   */\n    tag_39:\n      0x00\n        /* \"--CODEGEN--\":1400:1402   */\n      0x20\n        /* \"--CODEGEN--\":1388:1397   */\n      dup3\n        /* \"--CODEGEN--\":1379:1386   */\n      dup5\n        /* \"--CODEGEN--\":1375:1398   */\n      sub\n        /* \"--CODEGEN--\":1371:1403   */\n      slt\n        /* \"--CODEGEN--\":1368:1370   */\n      iszero\n      tag_308\n      jumpi\n        /* \"--CODEGEN--\":1416:1417   */\n      0x00\n        /* \"--CODEGEN--\":1413:1414   */\n      dup1\n        /* \"--CODEGEN--\":1406:1418   */\n      revert\n        /* \"--CODEGEN--\":1368:1370   */\n    tag_308:\n        /* \"--CODEGEN--\":1451:1452   */\n      0x00\n        /* \"--CODEGEN--\":1468:1521   */\n      tag_309\n        /* \"--CODEGEN--\":1513:1520   */\n      dup5\n        /* \"--CODEGEN--\":1504:1510   */\n      dup3\n        /* \"--CODEGEN--\":1493:1502   */\n      dup6\n        /* \"--CODEGEN--\":1489:1511   */\n      add\n        /* \"--CODEGEN--\":1468:1521   */\n      tag_288\n      jump\t// in\n    tag_309:\n        /* \"--CODEGEN--\":1458:1521   */\n      swap2\n      pop\n        /* \"--CODEGEN--\":1430:1527   */\n      pop\n        /* \"--CODEGEN--\":1362:1537   */\n      swap3\n      swap2\n      pop\n      pop\n      jump\t// out\n        /* \"--CODEGEN--\":1544:1910   */\n    tag_57:\n      0x00\n      dup1\n        /* \"--CODEGEN--\":1665:1667   */\n      0x40\n        /* \"--CODEGEN--\":1653:1662   */\n      dup4\n        /* \"--CODEGEN--\":1644:1651   */\n      dup6\n        /* \"--CODEGEN--\":1640:1663   */\n      sub\n        /* \"--CODEGEN--\":1636:1668   */\n      slt\n        /* \"--CODEGEN--\":1633:1635   */\n      iszero\n      tag_311\n      jumpi\n        /* \"--CODEGEN--\":1681:1682   */\n      0x00\n        /* \"--CODEGEN--\":1678:1679   */\n      dup1\n        /* \"--CODEGEN--\":1671:1683   */\n      revert\n        /* \"--CODEGEN--\":1633:1635   */\n    tag_311:\n        /* \"--CODEGEN--\":1716:1717   */\n      0x00\n        /* \"--CODEGEN--\":1733:1786   */\n      tag_312\n        /* \"--CODEGEN--\":1778:1785   */\n      dup6\n        /* \"--CODEGEN--\":1769:1775   */\n      dup3\n        /* \"--CODEGEN--\":1758:1767   */\n      dup7\n        /* \"--CODEGEN--\":1754:1776   */\n      add\n        /* \"--CODEGEN--\":1733:1786   */\n      tag_288\n      jump\t// in\n    tag_312:\n        /* \"--CODEGEN--\":1723:1786   */\n      swap3\n      pop\n        /* \"--CODEGEN--\":1695:1792   */\n      pop\n        /* \"--CODEGEN--\":1823:1825   */\n      0x20\n        /* \"--CODEGEN--\":1841:1894   */\n      tag_313\n        /* \"--CODEGEN--\":1886:1893   */\n      dup6\n        /* \"--CODEGEN--\":1877:1883   */\n      dup3\n        /* \"--CODEGEN--\":1866:1875   */\n      dup7\n        /* \"--CODEGEN--\":1862:1884   */\n      add\n        /* \"--CODEGEN--\":1841:1894   */\n      tag_280\n      jump\t// in\n    tag_313:\n        /* \"--CODEGEN--\":1831:1894   */\n      swap2\n      pop\n        /* \"--CODEGEN--\":1802:1900   */\n      pop\n        /* \"--CODEGEN--\":1627:1910   */\n      swap3\n      pop\n      swap3\n      swap1\n      pop\n      jump\t// out\n        /* \"--CODEGEN--\":1917:2283   */\n    tag_75:\n      0x00\n      dup1\n        /* \"--CODEGEN--\":2038:2040   */\n      0x40\n        /* \"--CODEGEN--\":2026:2035   */\n      dup4\n        /* \"--CODEGEN--\":2017:2024   */\n      dup6\n        /* \"--CODEGEN--\":2013:2036   */\n      sub\n        /* \"--CODEGEN--\":2009:2041   */\n      slt\n        /* \"--CODEGEN--\":2006:2008   */\n      iszero\n      tag_315\n      jumpi\n        /* \"--CODEGEN--\":2054:2055   */\n      0x00\n        /* \"--CODEGEN--\":2051:2052   */\n      dup1\n        /* \"--CODEGEN--\":2044:2056   */\n      revert\n        /* \"--CODEGEN--\":2006:2008   */\n    tag_315:\n        /* \"--CODEGEN--\":2089:2090   */\n      0x00\n        /* \"--CODEGEN--\":2106:2159   */\n      tag_316\n        /* \"--CODEGEN--\":2151:2158   */\n      dup6\n        /* \"--CODEGEN--\":2142:2148   */\n      dup3\n        /* \"--CODEGEN--\":2131:2140   */\n      dup7\n        /* \"--CODEGEN--\":2127:2149   */\n      add\n        /* \"--CODEGEN--\":2106:2159   */\n      tag_288\n      jump\t// in\n    tag_316:\n        /* \"--CODEGEN--\":2096:2159   */\n      swap3\n      pop\n        /* \"--CODEGEN--\":2068:2165   */\n      pop\n        /* \"--CODEGEN--\":2196:2198   */\n      0x20\n        /* \"--CODEGEN--\":2214:2267   */\n      tag_317\n        /* \"--CODEGEN--\":2259:2266   */\n      dup6\n        /* \"--CODEGEN--\":2250:2256   */\n      dup3\n        /* \"--CODEGEN--\":2239:2248   */\n      dup7\n        /* \"--CODEGEN--\":2235:2257   */\n      add\n        /* \"--CODEGEN--\":2214:2267   */\n      tag_297\n      jump\t// in\n    tag_317:\n        /* \"--CODEGEN--\":2204:2267   */\n      swap2\n      pop\n        /* \"--CODEGEN--\":2175:2273   */\n      pop\n        /* \"--CODEGEN--\":2000:2283   */\n      swap3\n      pop\n      swap3\n      swap1\n      pop\n      jump\t// out\n        /* \"--CODEGEN--\":2290:3279   */\n    tag_70:\n      0x00\n      dup1\n      0x00\n      dup1\n      0x00\n      dup1\n      0x00\n        /* \"--CODEGEN--\":2502:2505   */\n      0x80\n        /* \"--CODEGEN--\":2490:2499   */\n      dup9\n        /* \"--CODEGEN--\":2481:2488   */\n      dup11\n        /* \"--CODEGEN--\":2477:2500   */\n      sub\n        /* \"--CODEGEN--\":2473:2506   */\n      slt\n        /* \"--CODEGEN--\":2470:2472   */\n      iszero\n      tag_319\n      jumpi\n        /* \"--CODEGEN--\":2519:2520   */\n      0x00\n        /* \"--CODEGEN--\":2516:2517   */\n      dup1\n        /* \"--CODEGEN--\":2509:2521   */\n      revert\n        /* \"--CODEGEN--\":2470:2472   */\n    tag_319:\n        /* \"--CODEGEN--\":2582:2583   */\n      0x00\n        /* \"--CODEGEN--\":2571:2580   */\n      dup9\n        /* \"--CODEGEN--\":2567:2584   */\n      add\n        /* \"--CODEGEN--\":2554:2585   */\n      calldataload\n        /* \"--CODEGEN--\":2605:2623   */\n      0xffffffffffffffff\n        /* \"--CODEGEN--\":2597:2603   */\n      dup2\n        /* \"--CODEGEN--\":2594:2624   */\n      gt\n        /* \"--CODEGEN--\":2591:2593   */\n      iszero\n      tag_320\n      jumpi\n        /* \"--CODEGEN--\":2637:2638   */\n      0x00\n        /* \"--CODEGEN--\":2634:2635   */\n      dup1\n        /* \"--CODEGEN--\":2627:2639   */\n      revert\n        /* \"--CODEGEN--\":2591:2593   */\n    tag_320:\n        /* \"--CODEGEN--\":2665:2730   */\n      tag_321\n        /* \"--CODEGEN--\":2722:2729   */\n      dup11\n        /* \"--CODEGEN--\":2713:2719   */\n      dup3\n        /* \"--CODEGEN--\":2702:2711   */\n      dup12\n        /* \"--CODEGEN--\":2698:2720   */\n      add\n        /* \"--CODEGEN--\":2665:2730   */\n      tag_292\n      jump\t// in\n    tag_321:\n        /* \"--CODEGEN--\":2647:2730   */\n      swap8\n      pop\n      swap8\n      pop\n        /* \"--CODEGEN--\":2533:2736   */\n      pop\n        /* \"--CODEGEN--\":2795:2797   */\n      0x20\n        /* \"--CODEGEN--\":2784:2793   */\n      dup9\n        /* \"--CODEGEN--\":2780:2798   */\n      add\n        /* \"--CODEGEN--\":2767:2799   */\n      calldataload\n        /* \"--CODEGEN--\":2819:2837   */\n      0xffffffffffffffff\n        /* \"--CODEGEN--\":2811:2817   */\n      dup2\n        /* \"--CODEGEN--\":2808:2838   */\n      gt\n        /* \"--CODEGEN--\":2805:2807   */\n      iszero\n      tag_322\n      jumpi\n        /* \"--CODEGEN--\":2851:2852   */\n      0x00\n        /* \"--CODEGEN--\":2848:2849   */\n      dup1\n        /* \"--CODEGEN--\":2841:2853   */\n      revert\n        /* \"--CODEGEN--\":2805:2807   */\n    tag_322:\n        /* \"--CODEGEN--\":2879:2944   */\n      tag_323\n        /* \"--CODEGEN--\":2936:2943   */\n      dup11\n        /* \"--CODEGEN--\":2927:2933   */\n      dup3\n        /* \"--CODEGEN--\":2916:2925   */\n      dup12\n        /* \"--CODEGEN--\":2912:2934   */\n      add\n        /* \"--CODEGEN--\":2879:2944   */\n      tag_292\n      jump\t// in\n    tag_323:\n        /* \"--CODEGEN--\":2861:2944   */\n      swap6\n      pop\n      swap6\n      pop\n        /* \"--CODEGEN--\":2746:2950   */\n      pop\n        /* \"--CODEGEN--\":3009:3011   */\n      0x40\n        /* \"--CODEGEN--\":2998:3007   */\n      dup9\n        /* \"--CODEGEN--\":2994:3012   */\n      add\n        /* \"--CODEGEN--\":2981:3013   */\n      calldataload\n        /* \"--CODEGEN--\":3033:3051   */\n      0xffffffffffffffff\n        /* \"--CODEGEN--\":3025:3031   */\n      dup2\n        /* \"--CODEGEN--\":3022:3052   */\n      gt\n        /* \"--CODEGEN--\":3019:3021   */\n      iszero\n      tag_324\n      jumpi\n        /* \"--CODEGEN--\":3065:3066   */\n      0x00\n        /* \"--CODEGEN--\":3062:3063   */\n      dup1\n        /* \"--CODEGEN--\":3055:3067   */\n      revert\n        /* \"--CODEGEN--\":3019:3021   */\n    tag_324:\n        /* \"--CODEGEN--\":3093:3158   */\n      tag_325\n        /* \"--CODEGEN--\":3150:3157   */\n      dup11\n        /* \"--CODEGEN--\":3141:3147   */\n      dup3\n        /* \"--CODEGEN--\":3130:3139   */\n      dup12\n        /* \"--CODEGEN--\":3126:3148   */\n      add\n        /* \"--CODEGEN--\":3093:3158   */\n      tag_292\n      jump\t// in\n    tag_325:\n        /* \"--CODEGEN--\":3075:3158   */\n      swap4\n      pop\n      swap4\n      pop\n        /* \"--CODEGEN--\":2960:3164   */\n      pop\n        /* \"--CODEGEN--\":3195:3197   */\n      0x60\n        /* \"--CODEGEN--\":3213:3263   */\n      tag_326\n        /* \"--CODEGEN--\":3255:3262   */\n      dup11\n        /* \"--CODEGEN--\":3246:3252   */\n      dup3\n        /* \"--CODEGEN--\":3235:3244   */\n      dup12\n        /* \"--CODEGEN--\":3231:3253   */\n      add\n        /* \"--CODEGEN--\":3213:3263   */\n      tag_284\n      jump\t// in\n    tag_326:\n        /* \"--CODEGEN--\":3203:3263   */\n      swap2\n      pop\n        /* \"--CODEGEN--\":3174:3269   */\n      pop\n        /* \"--CODEGEN--\":2464:3279   */\n      swap3\n      swap6\n      swap9\n      swap2\n      swap5\n      swap8\n      pop\n      swap3\n      swap6\n      pop\n      jump\t// out\n        /* \"--CODEGEN--\":3286:3527   */\n    tag_27:\n      0x00\n        /* \"--CODEGEN--\":3390:3392   */\n      0x20\n        /* \"--CODEGEN--\":3378:3387   */\n      dup3\n        /* \"--CODEGEN--\":3369:3376   */\n      dup5\n        /* \"--CODEGEN--\":3365:3388   */\n      sub\n        /* \"--CODEGEN--\":3361:3393   */\n      slt\n        /* \"--CODEGEN--\":3358:3360   */\n      iszero\n      tag_328\n      jumpi\n        /* \"--CODEGEN--\":3406:3407   */\n      0x00\n        /* \"--CODEGEN--\":3403:3404   */\n      dup1\n        /* \"--CODEGEN--\":3396:3408   */\n      revert\n        /* \"--CODEGEN--\":3358:3360   */\n    tag_328:\n        /* \"--CODEGEN--\":3441:3442   */\n      0x00\n        /* \"--CODEGEN--\":3458:3511   */\n      tag_329\n        /* \"--CODEGEN--\":3503:3510   */\n      dup5\n        /* \"--CODEGEN--\":3494:3500   */\n      dup3\n        /* \"--CODEGEN--\":3483:3492   */\n      dup6\n        /* \"--CODEGEN--\":3479:3501   */\n      add\n        /* \"--CODEGEN--\":3458:3511   */\n      tag_297\n      jump\t// in\n    tag_329:\n        /* \"--CODEGEN--\":3448:3511   */\n      swap2\n      pop\n        /* \"--CODEGEN--\":3420:3517   */\n      pop\n        /* \"--CODEGEN--\":3352:3527   */\n      swap3\n      swap2\n      pop\n      pop\n      jump\t// out\n        /* \"--CODEGEN--\":3534:3797   */\n    tag_162:\n      0x00\n        /* \"--CODEGEN--\":3649:3651   */\n      0x20\n        /* \"--CODEGEN--\":3637:3646   */\n      dup3\n        /* \"--CODEGEN--\":3628:3635   */\n      dup5\n        /* \"--CODEGEN--\":3624:3647   */\n      sub\n        /* \"--CODEGEN--\":3620:3652   */\n      slt\n        /* \"--CODEGEN--\":3617:3619   */\n      iszero\n      tag_331\n      jumpi\n        /* \"--CODEGEN--\":3665:3666   */\n      0x00\n        /* \"--CODEGEN--\":3662:3663   */\n      dup1\n        /* \"--CODEGEN--\":3655:3667   */\n      revert\n        /* \"--CODEGEN--\":3617:3619   */\n    tag_331:\n        /* \"--CODEGEN--\":3700:3701   */\n      0x00\n        /* \"--CODEGEN--\":3717:3781   */\n      tag_332\n        /* \"--CODEGEN--\":3773:3780   */\n      dup5\n        /* \"--CODEGEN--\":3764:3770   */\n      dup3\n        /* \"--CODEGEN--\":3753:3762   */\n      dup6\n        /* \"--CODEGEN--\":3749:3771   */\n      add\n        /* \"--CODEGEN--\":3717:3781   */\n      tag_301\n      jump\t// in\n    tag_332:\n        /* \"--CODEGEN--\":3707:3781   */\n      swap2\n      pop\n        /* \"--CODEGEN--\":3679:3787   */\n      pop\n        /* \"--CODEGEN--\":3611:3797   */\n      swap3\n      swap2\n      pop\n      pop\n      jump\t// out\n        /* \"--CODEGEN--\":3804:4170   */\n    tag_66:\n      0x00\n      dup1\n        /* \"--CODEGEN--\":3925:3927   */\n      0x40\n        /* \"--CODEGEN--\":3913:3922   */\n      dup4\n        /* \"--CODEGEN--\":3904:3911   */\n      dup6\n        /* \"--CODEGEN--\":3900:3923   */\n      sub\n        /* \"--CODEGEN--\":3896:3928   */\n      slt\n        /* \"--CODEGEN--\":3893:3895   */\n      iszero\n      tag_334\n      jumpi\n        /* \"--CODEGEN--\":3941:3942   */\n      0x00\n        /* \"--CODEGEN--\":3938:3939   */\n      dup1\n        /* \"--CODEGEN--\":3931:3943   */\n      revert\n        /* \"--CODEGEN--\":3893:3895   */\n    tag_334:\n        /* \"--CODEGEN--\":3976:3977   */\n      0x00\n        /* \"--CODEGEN--\":3993:4046   */\n      tag_335\n        /* \"--CODEGEN--\":4038:4045   */\n      dup6\n        /* \"--CODEGEN--\":4029:4035   */\n      dup3\n        /* \"--CODEGEN--\":4018:4027   */\n      dup7\n        /* \"--CODEGEN--\":4014:4036   */\n      add\n        /* \"--CODEGEN--\":3993:4046   */\n      tag_297\n      jump\t// in\n    tag_335:\n        /* \"--CODEGEN--\":3983:4046   */\n      swap3\n      pop\n        /* \"--CODEGEN--\":3955:4052   */\n      pop\n        /* \"--CODEGEN--\":4083:4085   */\n      0x20\n        /* \"--CODEGEN--\":4101:4154   */\n      tag_336\n        /* \"--CODEGEN--\":4146:4153   */\n      dup6\n        /* \"--CODEGEN--\":4137:4143   */\n      dup3\n        /* \"--CODEGEN--\":4126:4135   */\n      dup7\n        /* \"--CODEGEN--\":4122:4144   */\n      add\n        /* \"--CODEGEN--\":4101:4154   */\n      tag_297\n      jump\t// in\n    tag_336:\n        /* \"--CODEGEN--\":4091:4154   */\n      swap2\n      pop\n        /* \"--CODEGEN--\":4062:4160   */\n      pop\n        /* \"--CODEGEN--\":3887:4170   */\n      swap3\n      pop\n      swap3\n      swap1\n      pop\n      jump\t// out\n        /* \"--CODEGEN--\":4177:4319   */\n    tag_337:\n        /* \"--CODEGEN--\":4268:4313   */\n      tag_339\n        /* \"--CODEGEN--\":4307:4312   */\n      dup2\n        /* \"--CODEGEN--\":4268:4313   */\n      tag_340\n      jump\t// in\n    tag_339:\n        /* \"--CODEGEN--\":4263:4266   */\n      dup3\n        /* \"--CODEGEN--\":4256:4314   */\n      mstore\n        /* \"--CODEGEN--\":4250:4319   */\n      pop\n      pop\n      jump\t// out\n        /* \"--CODEGEN--\":4326:4439   */\n    tag_341:\n        /* \"--CODEGEN--\":4409:4433   */\n      tag_343\n        /* \"--CODEGEN--\":4427:4432   */\n      dup2\n        /* \"--CODEGEN--\":4409:4433   */\n      tag_344\n      jump\t// in\n    tag_343:\n        /* \"--CODEGEN--\":4404:4407   */\n      dup3\n        /* \"--CODEGEN--\":4397:4434   */\n      mstore\n        /* \"--CODEGEN--\":4391:4439   */\n      pop\n      pop\n      jump\t// out\n        /* \"--CODEGEN--\":4446:4550   */\n    tag_345:\n        /* \"--CODEGEN--\":4523:4544   */\n      tag_347\n        /* \"--CODEGEN--\":4538:4543   */\n      dup2\n        /* \"--CODEGEN--\":4523:4544   */\n      tag_348\n      jump\t// in\n    tag_347:\n        /* \"--CODEGEN--\":4518:4521   */\n      dup3\n        /* \"--CODEGEN--\":4511:4545   */\n      mstore\n        /* \"--CODEGEN--\":4505:4550   */\n      pop\n      pop\n      jump\t// out\n        /* \"--CODEGEN--\":4557:4670   */\n    tag_349:\n        /* \"--CODEGEN--\":4640:4664   */\n      tag_351\n        /* \"--CODEGEN--\":4658:4663   */\n      dup2\n        /* \"--CODEGEN--\":4640:4664   */\n      tag_352\n      jump\t// in\n    tag_351:\n        /* \"--CODEGEN--\":4635:4638   */\n      dup3\n        /* \"--CODEGEN--\":4628:4665   */\n      mstore\n        /* \"--CODEGEN--\":4622:4670   */\n      pop\n      pop\n      jump\t// out\n        /* \"--CODEGEN--\":4677:4847   */\n    tag_353:\n        /* \"--CODEGEN--\":4782:4841   */\n      tag_355\n        /* \"--CODEGEN--\":4835:4840   */\n      dup2\n        /* \"--CODEGEN--\":4782:4841   */\n      tag_356\n      jump\t// in\n    tag_355:\n        /* \"--CODEGEN--\":4777:4780   */\n      dup3\n        /* \"--CODEGEN--\":4770:4842   */\n      mstore\n        /* \"--CODEGEN--\":4764:4847   */\n      pop\n      pop\n      jump\t// out\n        /* \"--CODEGEN--\":4879:5179   */\n    tag_357:\n      0x00\n        /* \"--CODEGEN--\":4995:5066   */\n      tag_359\n        /* \"--CODEGEN--\":5059:5065   */\n      dup4\n        /* \"--CODEGEN--\":5054:5057   */\n      dup6\n        /* \"--CODEGEN--\":4995:5066   */\n      tag_360\n      jump\t// in\n    tag_359:\n        /* \"--CODEGEN--\":4988:5066   */\n      swap4\n      pop\n        /* \"--CODEGEN--\":5078:5121   */\n      tag_361\n        /* \"--CODEGEN--\":5114:5120   */\n      dup4\n        /* \"--CODEGEN--\":5109:5112   */\n      dup6\n        /* \"--CODEGEN--\":5102:5107   */\n      dup5\n        /* \"--CODEGEN--\":5078:5121   */\n      tag_362\n      jump\t// in\n    tag_361:\n        /* \"--CODEGEN--\":5143:5172   */\n      tag_363\n        /* \"--CODEGEN--\":5165:5171   */\n      dup4\n        /* \"--CODEGEN--\":5143:5172   */\n      tag_364\n      jump\t// in\n    tag_363:\n        /* \"--CODEGEN--\":5138:5141   */\n      dup5\n        /* \"--CODEGEN--\":5134:5173   */\n      add\n        /* \"--CODEGEN--\":5127:5173   */\n      swap1\n      pop\n        /* \"--CODEGEN--\":4981:5179   */\n      swap4\n      swap3\n      pop\n      pop\n      pop\n      jump\t// out\n        /* \"--CODEGEN--\":5187:5534   */\n    tag_365:\n      0x00\n        /* \"--CODEGEN--\":5299:5338   */\n      tag_367\n        /* \"--CODEGEN--\":5332:5337   */\n      dup3\n        /* \"--CODEGEN--\":5299:5338   */\n      tag_368\n      jump\t// in\n    tag_367:\n        /* \"--CODEGEN--\":5350:5421   */\n      tag_369\n        /* \"--CODEGEN--\":5414:5420   */\n      dup2\n        /* \"--CODEGEN--\":5409:5412   */\n      dup6\n        /* \"--CODEGEN--\":5350:5421   */\n      tag_360\n      jump\t// in\n    tag_369:\n        /* \"--CODEGEN--\":5343:5421   */\n      swap4\n      pop\n        /* \"--CODEGEN--\":5426:5478   */\n      tag_370\n        /* \"--CODEGEN--\":5471:5477   */\n      dup2\n        /* \"--CODEGEN--\":5466:5469   */\n      dup6\n        /* \"--CODEGEN--\":5459:5463   */\n      0x20\n        /* \"--CODEGEN--\":5452:5457   */\n      dup7\n        /* \"--CODEGEN--\":5448:5464   */\n      add\n        /* \"--CODEGEN--\":5426:5478   */\n      tag_371\n      jump\t// in\n    tag_370:\n        /* \"--CODEGEN--\":5499:5528   */\n      tag_372\n        /* \"--CODEGEN--\":5521:5527   */\n      dup2\n        /* \"--CODEGEN--\":5499:5528   */\n      tag_364\n      jump\t// in\n    tag_372:\n        /* \"--CODEGEN--\":5494:5497   */\n      dup5\n        /* \"--CODEGEN--\":5490:5529   */\n      add\n        /* \"--CODEGEN--\":5483:5529   */\n      swap2\n      pop\n        /* \"--CODEGEN--\":5279:5534   */\n      pop\n      swap3\n      swap2\n      pop\n      pop\n      jump\t// out\n        /* \"--CODEGEN--\":5566:6389   */\n    tag_373:\n      0x00\n        /* \"--CODEGEN--\":5685:5690   */\n      dup2\n        /* \"--CODEGEN--\":5679:5691   */\n      sload\n        /* \"--CODEGEN--\":5719:5720   */\n      0x01\n        /* \"--CODEGEN--\":5708:5717   */\n      dup2\n        /* \"--CODEGEN--\":5704:5721   */\n      and\n        /* \"--CODEGEN--\":5732:5733   */\n      0x00\n        /* \"--CODEGEN--\":5727:5975   */\n      dup2\n      eq\n      tag_376\n      jumpi\n        /* \"--CODEGEN--\":5986:5987   */\n      0x01\n        /* \"--CODEGEN--\":5981:6383   */\n      dup2\n      eq\n      tag_377\n      jumpi\n        /* \"--CODEGEN--\":5697:6383   */\n      jump(tag_375)\n        /* \"--CODEGEN--\":5727:5975   */\n    tag_376:\n        /* \"--CODEGEN--\":5805:5809   */\n      0x7f\n        /* \"--CODEGEN--\":5801:5802   */\n      0x02\n        /* \"--CODEGEN--\":5790:5799   */\n      dup4\n        /* \"--CODEGEN--\":5786:5803   */\n      div\n        /* \"--CODEGEN--\":5782:5810   */\n      and\n        /* \"--CODEGEN--\":5824:5895   */\n      tag_378\n        /* \"--CODEGEN--\":5888:5894   */\n      dup2\n        /* \"--CODEGEN--\":5883:5886   */\n      dup8\n        /* \"--CODEGEN--\":5824:5895   */\n      tag_360\n      jump\t// in\n    tag_378:\n        /* \"--CODEGEN--\":5817:5895   */\n      swap6\n      pop\n        /* \"--CODEGEN--\":5933:5937   */\n      0xff\n        /* \"--CODEGEN--\":5929:5938   */\n      not\n        /* \"--CODEGEN--\":5918:5927   */\n      dup4\n        /* \"--CODEGEN--\":5914:5939   */\n      and\n        /* \"--CODEGEN--\":5909:5912   */\n      dup7\n        /* \"--CODEGEN--\":5902:5940   */\n      mstore\n        /* \"--CODEGEN--\":5963:5967   */\n      0x20\n        /* \"--CODEGEN--\":5958:5961   */\n      dup7\n        /* \"--CODEGEN--\":5954:5968   */\n      add\n        /* \"--CODEGEN--\":5947:5968   */\n      swap4\n      pop\n        /* \"--CODEGEN--\":5734:5975   */\n      pop\n        /* \"--CODEGEN--\":5727:5975   */\n      jump(tag_375)\n        /* \"--CODEGEN--\":5981:6383   */\n    tag_377:\n        /* \"--CODEGEN--\":6050:6051   */\n      0x02\n        /* \"--CODEGEN--\":6039:6048   */\n      dup3\n        /* \"--CODEGEN--\":6035:6052   */\n      div\n        /* \"--CODEGEN--\":6066:6137   */\n      tag_379\n        /* \"--CODEGEN--\":6130:6136   */\n      dup2\n        /* \"--CODEGEN--\":6125:6128   */\n      dup8\n        /* \"--CODEGEN--\":6066:6137   */\n      tag_360\n      jump\t// in\n    tag_379:\n        /* \"--CODEGEN--\":6059:6137   */\n      swap6\n      pop\n        /* \"--CODEGEN--\":6159:6197   */\n      tag_380\n        /* \"--CODEGEN--\":6191:6196   */\n      dup6\n        /* \"--CODEGEN--\":6159:6197   */\n      tag_381\n      jump\t// in\n    tag_380:\n        /* \"--CODEGEN--\":6213:6214   */\n      0x00\n        /* \"--CODEGEN--\":6221:6351   */\n    tag_382:\n        /* \"--CODEGEN--\":6235:6241   */\n      dup3\n        /* \"--CODEGEN--\":6232:6233   */\n      dup2\n        /* \"--CODEGEN--\":6229:6242   */\n      lt\n        /* \"--CODEGEN--\":6221:6351   */\n      iszero\n      tag_384\n      jumpi\n        /* \"--CODEGEN--\":6300:6307   */\n      dup2\n        /* \"--CODEGEN--\":6294:6308   */\n      sload\n        /* \"--CODEGEN--\":6290:6291   */\n      dup2\n        /* \"--CODEGEN--\":6285:6288   */\n      dup10\n        /* \"--CODEGEN--\":6281:6292   */\n      add\n        /* \"--CODEGEN--\":6274:6309   */\n      mstore\n        /* \"--CODEGEN--\":6341:6342   */\n      0x01\n        /* \"--CODEGEN--\":6332:6339   */\n      dup3\n        /* \"--CODEGEN--\":6328:6343   */\n      add\n        /* \"--CODEGEN--\":6317:6343   */\n      swap2\n      pop\n        /* \"--CODEGEN--\":6257:6261   */\n      0x20\n        /* \"--CODEGEN--\":6254:6255   */\n      dup2\n        /* \"--CODEGEN--\":6250:6262   */\n      add\n        /* \"--CODEGEN--\":6245:6262   */\n      swap1\n      pop\n        /* \"--CODEGEN--\":6221:6351   */\n      jump(tag_382)\n    tag_384:\n        /* \"--CODEGEN--\":6374:6375   */\n      dup1\n        /* \"--CODEGEN--\":6369:6372   */\n      dup9\n        /* \"--CODEGEN--\":6365:6376   */\n      add\n        /* \"--CODEGEN--\":6358:6376   */\n      swap6\n      pop\n        /* \"--CODEGEN--\":5988:6383   */\n      pop\n      pop\n      pop\n        /* \"--CODEGEN--\":5697:6383   */\n    tag_375:\n      pop\n        /* \"--CODEGEN--\":5655:6389   */\n      pop\n      swap3\n      swap2\n      pop\n      pop\n      jump\t// out\n        /* \"--CODEGEN--\":6398:6769   */\n    tag_385:\n      0x00\n        /* \"--CODEGEN--\":6558:6625   */\n      tag_387\n        /* \"--CODEGEN--\":6622:6624   */\n      0x22\n        /* \"--CODEGEN--\":6617:6620   */\n      dup4\n        /* \"--CODEGEN--\":6558:6625   */\n      tag_360\n      jump\t// in\n    tag_387:\n        /* \"--CODEGEN--\":6551:6625   */\n      swap2\n      pop\n        /* \"--CODEGEN--\":6658:6692   */\n      0x456e756d657261626c655365743a20696e646578206f7574206f6620626f756e\n        /* \"--CODEGEN--\":6654:6655   */\n      0x00\n        /* \"--CODEGEN--\":6649:6652   */\n      dup4\n        /* \"--CODEGEN--\":6645:6656   */\n      add\n        /* \"--CODEGEN--\":6638:6693   */\n      mstore\n        /* \"--CODEGEN--\":6727:6731   */\n      0x6473000000000000000000000000000000000000000000000000000000000000\n        /* \"--CODEGEN--\":6722:6724   */\n      0x20\n        /* \"--CODEGEN--\":6717:6720   */\n      dup4\n        /* \"--CODEGEN--\":6713:6725   */\n      add\n        /* \"--CODEGEN--\":6706:6732   */\n      mstore\n        /* \"--CODEGEN--\":6760:6762   */\n      0x40\n        /* \"--CODEGEN--\":6755:6758   */\n      dup3\n        /* \"--CODEGEN--\":6751:6763   */\n      add\n        /* \"--CODEGEN--\":6744:6763   */\n      swap1\n      pop\n        /* \"--CODEGEN--\":6544:6769   */\n      swap2\n      swap1\n      pop\n      jump\t// out\n        /* \"--CODEGEN--\":6778:7162   */\n    tag_388:\n      0x00\n        /* \"--CODEGEN--\":6938:7005   */\n      tag_390\n        /* \"--CODEGEN--\":7002:7004   */\n      0x2f\n        /* \"--CODEGEN--\":6997:7000   */\n      dup4\n        /* \"--CODEGEN--\":6938:7005   */\n      tag_360\n      jump\t// in\n    tag_390:\n        /* \"--CODEGEN--\":6931:7005   */\n      swap2\n      pop\n        /* \"--CODEGEN--\":7038:7072   */\n      0x416363657373436f6e74726f6c3a2073656e646572206d75737420626520616e\n        /* \"--CODEGEN--\":7034:7035   */\n      0x00\n        /* \"--CODEGEN--\":7029:7032   */\n      dup4\n        /* \"--CODEGEN--\":7025:7036   */\n      add\n        /* \"--CODEGEN--\":7018:7073   */\n      mstore\n        /* \"--CODEGEN--\":7107:7124   */\n      0x2061646d696e20746f206772616e740000000000000000000000000000000000\n        /* \"--CODEGEN--\":7102:7104   */\n      0x20\n        /* \"--CODEGEN--\":7097:7100   */\n      dup4\n        /* \"--CODEGEN--\":7093:7105   */\n      add\n        /* \"--CODEGEN--\":7086:7125   */\n      mstore\n        /* \"--CODEGEN--\":7153:7155   */\n      0x40\n        /* \"--CODEGEN--\":7148:7151   */\n      dup3\n        /* \"--CODEGEN--\":7144:7156   */\n      add\n        /* \"--CODEGEN--\":7137:7156   */\n      swap1\n      pop\n        /* \"--CODEGEN--\":6924:7162   */\n      swap2\n      swap1\n      pop\n      jump\t// out\n        /* \"--CODEGEN--\":7171:7556   */\n    tag_391:\n      0x00\n        /* \"--CODEGEN--\":7331:7398   */\n      tag_393\n        /* \"--CODEGEN--\":7395:7397   */\n      0x30\n        /* \"--CODEGEN--\":7390:7393   */\n      dup4\n        /* \"--CODEGEN--\":7331:7398   */\n      tag_360\n      jump\t// in\n    tag_393:\n        /* \"--CODEGEN--\":7324:7398   */\n      swap2\n      pop\n        /* \"--CODEGEN--\":7431:7465   */\n      0x416363657373436f6e74726f6c3a2073656e646572206d75737420626520616e\n        /* \"--CODEGEN--\":7427:7428   */\n      0x00\n        /* \"--CODEGEN--\":7422:7425   */\n      dup4\n        /* \"--CODEGEN--\":7418:7429   */\n      add\n        /* \"--CODEGEN--\":7411:7466   */\n      mstore\n        /* \"--CODEGEN--\":7500:7518   */\n      0x2061646d696e20746f207265766f6b6500000000000000000000000000000000\n        /* \"--CODEGEN--\":7495:7497   */\n      0x20\n        /* \"--CODEGEN--\":7490:7493   */\n      dup4\n        /* \"--CODEGEN--\":7486:7498   */\n      add\n        /* \"--CODEGEN--\":7479:7519   */\n      mstore\n        /* \"--CODEGEN--\":7547:7549   */\n      0x40\n        /* \"--CODEGEN--\":7542:7545   */\n      dup3\n        /* \"--CODEGEN--\":7538:7550   */\n      add\n        /* \"--CODEGEN--\":7531:7550   */\n      swap1\n      pop\n        /* \"--CODEGEN--\":7317:7556   */\n      swap2\n      swap1\n      pop\n      jump\t// out\n        /* \"--CODEGEN--\":7565:7905   */\n    tag_394:\n      0x00\n        /* \"--CODEGEN--\":7743:7827   */\n      tag_396\n        /* \"--CODEGEN--\":7825:7826   */\n      0x06\n        /* \"--CODEGEN--\":7820:7823   */\n      dup4\n        /* \"--CODEGEN--\":7743:7827   */\n      tag_397\n      jump\t// in\n    tag_396:\n        /* \"--CODEGEN--\":7736:7827   */\n      swap2\n      pop\n        /* \"--CODEGEN--\":7860:7868   */\n      0x5772697465720000000000000000000000000000000000000000000000000000\n        /* \"--CODEGEN--\":7856:7857   */\n      0x00\n        /* \"--CODEGEN--\":7851:7854   */\n      dup4\n        /* \"--CODEGEN--\":7847:7858   */\n      add\n        /* \"--CODEGEN--\":7840:7869   */\n      mstore\n        /* \"--CODEGEN--\":7897:7898   */\n      0x06\n        /* \"--CODEGEN--\":7892:7895   */\n      dup3\n        /* \"--CODEGEN--\":7888:7899   */\n      add\n        /* \"--CODEGEN--\":7881:7899   */\n      swap1\n      pop\n        /* \"--CODEGEN--\":7729:7905   */\n      swap2\n      swap1\n      pop\n      jump\t// out\n        /* \"--CODEGEN--\":7914:8299   */\n    tag_398:\n      0x00\n        /* \"--CODEGEN--\":8074:8141   */\n      tag_400\n        /* \"--CODEGEN--\":8138:8140   */\n      0x30\n        /* \"--CODEGEN--\":8133:8136   */\n      dup4\n        /* \"--CODEGEN--\":8074:8141   */\n      tag_360\n      jump\t// in\n    tag_400:\n        /* \"--CODEGEN--\":8067:8141   */\n      swap2\n      pop\n        /* \"--CODEGEN--\":8174:8208   */\n      0x577269746572526f6c653a2063616c6c657220646f6573206e6f742068617665\n        /* \"--CODEGEN--\":8170:8171   */\n      0x00\n        /* \"--CODEGEN--\":8165:8168   */\n      dup4\n        /* \"--CODEGEN--\":8161:8172   */\n      add\n        /* \"--CODEGEN--\":8154:8209   */\n      mstore\n        /* \"--CODEGEN--\":8243:8261   */\n      0x207468652057726974657220726f6c6500000000000000000000000000000000\n        /* \"--CODEGEN--\":8238:8240   */\n      0x20\n        /* \"--CODEGEN--\":8233:8236   */\n      dup4\n        /* \"--CODEGEN--\":8229:8241   */\n      add\n        /* \"--CODEGEN--\":8222:8262   */\n      mstore\n        /* \"--CODEGEN--\":8290:8292   */\n      0x40\n        /* \"--CODEGEN--\":8285:8288   */\n      dup3\n        /* \"--CODEGEN--\":8281:8293   */\n      add\n        /* \"--CODEGEN--\":8274:8293   */\n      swap1\n      pop\n        /* \"--CODEGEN--\":8060:8299   */\n      swap2\n      swap1\n      pop\n      jump\t// out\n        /* \"--CODEGEN--\":8308:8692   */\n    tag_401:\n      0x00\n        /* \"--CODEGEN--\":8468:8535   */\n      tag_403\n        /* \"--CODEGEN--\":8532:8534   */\n      0x2f\n        /* \"--CODEGEN--\":8527:8530   */\n      dup4\n        /* \"--CODEGEN--\":8468:8535   */\n      tag_360\n      jump\t// in\n    tag_403:\n        /* \"--CODEGEN--\":8461:8535   */\n      swap2\n      pop\n        /* \"--CODEGEN--\":8568:8602   */\n      0x416363657373436f6e74726f6c3a2063616e206f6e6c792072656e6f756e6365\n        /* \"--CODEGEN--\":8564:8565   */\n      0x00\n        /* \"--CODEGEN--\":8559:8562   */\n      dup4\n        /* \"--CODEGEN--\":8555:8566   */\n      add\n        /* \"--CODEGEN--\":8548:8603   */\n      mstore\n        /* \"--CODEGEN--\":8637:8654   */\n      0x20726f6c657320666f722073656c660000000000000000000000000000000000\n        /* \"--CODEGEN--\":8632:8634   */\n      0x20\n        /* \"--CODEGEN--\":8627:8630   */\n      dup4\n        /* \"--CODEGEN--\":8623:8635   */\n      add\n        /* \"--CODEGEN--\":8616:8655   */\n      mstore\n        /* \"--CODEGEN--\":8683:8685   */\n      0x40\n        /* \"--CODEGEN--\":8678:8681   */\n      dup3\n        /* \"--CODEGEN--\":8674:8686   */\n      add\n        /* \"--CODEGEN--\":8667:8686   */\n      swap1\n      pop\n        /* \"--CODEGEN--\":8454:8692   */\n      swap2\n      swap1\n      pop\n      jump\t// out\n        /* \"--CODEGEN--\":8700:8813   */\n    tag_404:\n        /* \"--CODEGEN--\":8783:8807   */\n      tag_406\n        /* \"--CODEGEN--\":8801:8806   */\n      dup2\n        /* \"--CODEGEN--\":8783:8807   */\n      tag_407\n      jump\t// in\n    tag_406:\n        /* \"--CODEGEN--\":8778:8781   */\n      dup3\n        /* \"--CODEGEN--\":8771:8808   */\n      mstore\n        /* \"--CODEGEN--\":8765:8813   */\n      pop\n      pop\n      jump\t// out\n        /* \"--CODEGEN--\":8820:9201   */\n    tag_135:\n      0x00\n        /* \"--CODEGEN--\":9028:9176   */\n      tag_409\n        /* \"--CODEGEN--\":9172:9175   */\n      dup3\n        /* \"--CODEGEN--\":9028:9176   */\n      tag_394\n      jump\t// in\n    tag_409:\n        /* \"--CODEGEN--\":9021:9176   */\n      swap2\n      pop\n        /* \"--CODEGEN--\":9193:9196   */\n      dup2\n        /* \"--CODEGEN--\":9186:9196   */\n      swap1\n      pop\n        /* \"--CODEGEN--\":9009:9201   */\n      swap2\n      swap1\n      pop\n      jump\t// out\n        /* \"--CODEGEN--\":9208:9430   */\n    tag_78:\n      0x00\n        /* \"--CODEGEN--\":9335:9337   */\n      0x20\n        /* \"--CODEGEN--\":9324:9333   */\n      dup3\n        /* \"--CODEGEN--\":9320:9338   */\n      add\n        /* \"--CODEGEN--\":9312:9338   */\n      swap1\n      pop\n        /* \"--CODEGEN--\":9349:9420   */\n      tag_411\n        /* \"--CODEGEN--\":9417:9418   */\n      0x00\n        /* \"--CODEGEN--\":9406:9415   */\n      dup4\n        /* \"--CODEGEN--\":9402:9419   */\n      add\n        /* \"--CODEGEN--\":9393:9399   */\n      dup5\n        /* \"--CODEGEN--\":9349:9420   */\n      tag_341\n      jump\t// in\n    tag_411:\n        /* \"--CODEGEN--\":9306:9430   */\n      swap3\n      swap2\n      pop\n      pop\n      jump\t// out\n        /* \"--CODEGEN--\":9437:9647   */\n    tag_48:\n      0x00\n        /* \"--CODEGEN--\":9558:9560   */\n      0x20\n        /* \"--CODEGEN--\":9547:9556   */\n      dup3\n        /* \"--CODEGEN--\":9543:9561   */\n      add\n        /* \"--CODEGEN--\":9535:9561   */\n      swap1\n      pop\n        /* \"--CODEGEN--\":9572:9637   */\n      tag_413\n        /* \"--CODEGEN--\":9634:9635   */\n      0x00\n        /* \"--CODEGEN--\":9623:9632   */\n      dup4\n        /* \"--CODEGEN--\":9619:9636   */\n      add\n        /* \"--CODEGEN--\":9610:9616   */\n      dup5\n        /* \"--CODEGEN--\":9572:9637   */\n      tag_345\n      jump\t// in\n    tag_413:\n        /* \"--CODEGEN--\":9529:9647   */\n      swap3\n      swap2\n      pop\n      pop\n      jump\t// out\n        /* \"--CODEGEN--\":9654:9876   */\n    tag_42:\n      0x00\n        /* \"--CODEGEN--\":9781:9783   */\n      0x20\n        /* \"--CODEGEN--\":9770:9779   */\n      dup3\n        /* \"--CODEGEN--\":9766:9784   */\n      add\n        /* \"--CODEGEN--\":9758:9784   */\n      swap1\n      pop\n        /* \"--CODEGEN--\":9795:9866   */\n      tag_415\n        /* \"--CODEGEN--\":9863:9864   */\n      0x00\n        /* \"--CODEGEN--\":9852:9861   */\n      dup4\n        /* \"--CODEGEN--\":9848:9865   */\n      add\n        /* \"--CODEGEN--\":9839:9845   */\n      dup5\n        /* \"--CODEGEN--\":9795:9866   */\n      tag_349\n      jump\t// in\n    tag_415:\n        /* \"--CODEGEN--\":9752:9876   */\n      swap3\n      swap2\n      pop\n      pop\n      jump\t// out\n        /* \"--CODEGEN--\":9883:10149   */\n    tag_53:\n      0x00\n        /* \"--CODEGEN--\":10032:10034   */\n      0x20\n        /* \"--CODEGEN--\":10021:10030   */\n      dup3\n        /* \"--CODEGEN--\":10017:10035   */\n      add\n        /* \"--CODEGEN--\":10009:10035   */\n      swap1\n      pop\n        /* \"--CODEGEN--\":10046:10139   */\n      tag_417\n        /* \"--CODEGEN--\":10136:10137   */\n      0x00\n        /* \"--CODEGEN--\":10125:10134   */\n      dup4\n        /* \"--CODEGEN--\":10121:10138   */\n      add\n        /* \"--CODEGEN--\":10112:10118   */\n      dup5\n        /* \"--CODEGEN--\":10046:10139   */\n      tag_353\n      jump\t// in\n    tag_417:\n        /* \"--CODEGEN--\":10003:10149   */\n      swap3\n      swap2\n      pop\n      pop\n      jump\t// out\n        /* \"--CODEGEN--\":10156:11076   */\n    tag_103:\n      0x00\n        /* \"--CODEGEN--\":10449:10452   */\n      0xa0\n        /* \"--CODEGEN--\":10438:10447   */\n      dup3\n        /* \"--CODEGEN--\":10434:10453   */\n      add\n        /* \"--CODEGEN--\":10426:10453   */\n      swap1\n      pop\n        /* \"--CODEGEN--\":10500:10509   */\n      dup2\n        /* \"--CODEGEN--\":10494:10498   */\n      dup2\n        /* \"--CODEGEN--\":10490:10510   */\n      sub\n        /* \"--CODEGEN--\":10486:10487   */\n      0x00\n        /* \"--CODEGEN--\":10475:10484   */\n      dup4\n        /* \"--CODEGEN--\":10471:10488   */\n      add\n        /* \"--CODEGEN--\":10464:10511   */\n      mstore\n        /* \"--CODEGEN--\":10525:10603   */\n      tag_419\n        /* \"--CODEGEN--\":10598:10602   */\n      dup2\n        /* \"--CODEGEN--\":10589:10595   */\n      dup9\n        /* \"--CODEGEN--\":10525:10603   */\n      tag_365\n      jump\t// in\n    tag_419:\n        /* \"--CODEGEN--\":10517:10603   */\n      swap1\n      pop\n        /* \"--CODEGEN--\":10651:10660   */\n      dup2\n        /* \"--CODEGEN--\":10645:10649   */\n      dup2\n        /* \"--CODEGEN--\":10641:10661   */\n      sub\n        /* \"--CODEGEN--\":10636:10638   */\n      0x20\n        /* \"--CODEGEN--\":10625:10634   */\n      dup4\n        /* \"--CODEGEN--\":10621:10639   */\n      add\n        /* \"--CODEGEN--\":10614:10662   */\n      mstore\n        /* \"--CODEGEN--\":10676:10754   */\n      tag_420\n        /* \"--CODEGEN--\":10749:10753   */\n      dup2\n        /* \"--CODEGEN--\":10740:10746   */\n      dup8\n        /* \"--CODEGEN--\":10676:10754   */\n      tag_365\n      jump\t// in\n    tag_420:\n        /* \"--CODEGEN--\":10668:10754   */\n      swap1\n      pop\n        /* \"--CODEGEN--\":10802:10811   */\n      dup2\n        /* \"--CODEGEN--\":10796:10800   */\n      dup2\n        /* \"--CODEGEN--\":10792:10812   */\n      sub\n        /* \"--CODEGEN--\":10787:10789   */\n      0x40\n        /* \"--CODEGEN--\":10776:10785   */\n      dup4\n        /* \"--CODEGEN--\":10772:10790   */\n      add\n        /* \"--CODEGEN--\":10765:10813   */\n      mstore\n        /* \"--CODEGEN--\":10827:10905   */\n      tag_421\n        /* \"--CODEGEN--\":10900:10904   */\n      dup2\n        /* \"--CODEGEN--\":10891:10897   */\n      dup7\n        /* \"--CODEGEN--\":10827:10905   */\n      tag_365\n      jump\t// in\n    tag_421:\n        /* \"--CODEGEN--\":10819:10905   */\n      swap1\n      pop\n        /* \"--CODEGEN--\":10916:10982   */\n      tag_422\n        /* \"--CODEGEN--\":10978:10980   */\n      0x60\n        /* \"--CODEGEN--\":10967:10976   */\n      dup4\n        /* \"--CODEGEN--\":10963:10981   */\n      add\n        /* \"--CODEGEN--\":10954:10960   */\n      dup6\n        /* \"--CODEGEN--\":10916:10982   */\n      tag_345\n      jump\t// in\n    tag_422:\n        /* \"--CODEGEN--\":10993:11066   */\n      tag_423\n        /* \"--CODEGEN--\":11061:11064   */\n      0x80\n        /* \"--CODEGEN--\":11050:11059   */\n      dup4\n        /* \"--CODEGEN--\":11046:11065   */\n      add\n        /* \"--CODEGEN--\":11037:11043   */\n      dup5\n        /* \"--CODEGEN--\":10993:11066   */\n      tag_404\n      jump\t// in\n    tag_423:\n        /* \"--CODEGEN--\":10420:11076   */\n      swap7\n      swap6\n      pop\n      pop\n      pop\n      pop\n      pop\n      pop\n      jump\t// out\n        /* \"--CODEGEN--\":11083:11499   */\n    tag_256:\n      0x00\n        /* \"--CODEGEN--\":11283:11285   */\n      0x20\n        /* \"--CODEGEN--\":11272:11281   */\n      dup3\n        /* \"--CODEGEN--\":11268:11286   */\n      add\n        /* \"--CODEGEN--\":11260:11286   */\n      swap1\n      pop\n        /* \"--CODEGEN--\":11333:11342   */\n      dup2\n        /* \"--CODEGEN--\":11327:11331   */\n      dup2\n        /* \"--CODEGEN--\":11323:11343   */\n      sub\n        /* \"--CODEGEN--\":11319:11320   */\n      0x00\n        /* \"--CODEGEN--\":11308:11317   */\n      dup4\n        /* \"--CODEGEN--\":11304:11321   */\n      add\n        /* \"--CODEGEN--\":11297:11344   */\n      mstore\n        /* \"--CODEGEN--\":11358:11489   */\n      tag_425\n        /* \"--CODEGEN--\":11484:11488   */\n      dup2\n        /* \"--CODEGEN--\":11358:11489   */\n      tag_385\n      jump\t// in\n    tag_425:\n        /* \"--CODEGEN--\":11350:11489   */\n      swap1\n      pop\n        /* \"--CODEGEN--\":11254:11499   */\n      swap2\n      swap1\n      pop\n      jump\t// out\n        /* \"--CODEGEN--\":11506:11922   */\n    tag_142:\n      0x00\n        /* \"--CODEGEN--\":11706:11708   */\n      0x20\n        /* \"--CODEGEN--\":11695:11704   */\n      dup3\n        /* \"--CODEGEN--\":11691:11709   */\n      add\n        /* \"--CODEGEN--\":11683:11709   */\n      swap1\n      pop\n        /* \"--CODEGEN--\":11756:11765   */\n      dup2\n        /* \"--CODEGEN--\":11750:11754   */\n      dup2\n        /* \"--CODEGEN--\":11746:11766   */\n      sub\n        /* \"--CODEGEN--\":11742:11743   */\n      0x00\n        /* \"--CODEGEN--\":11731:11740   */\n      dup4\n        /* \"--CODEGEN--\":11727:11744   */\n      add\n        /* \"--CODEGEN--\":11720:11767   */\n      mstore\n        /* \"--CODEGEN--\":11781:11912   */\n      tag_427\n        /* \"--CODEGEN--\":11907:11911   */\n      dup2\n        /* \"--CODEGEN--\":11781:11912   */\n      tag_388\n      jump\t// in\n    tag_427:\n        /* \"--CODEGEN--\":11773:11912   */\n      swap1\n      pop\n        /* \"--CODEGEN--\":11677:11922   */\n      swap2\n      swap1\n      pop\n      jump\t// out\n        /* \"--CODEGEN--\":11929:12345   */\n    tag_205:\n      0x00\n        /* \"--CODEGEN--\":12129:12131   */\n      0x20\n        /* \"--CODEGEN--\":12118:12127   */\n      dup3\n        /* \"--CODEGEN--\":12114:12132   */\n      add\n        /* \"--CODEGEN--\":12106:12132   */\n      swap1\n      pop\n        /* \"--CODEGEN--\":12179:12188   */\n      dup2\n        /* \"--CODEGEN--\":12173:12177   */\n      dup2\n        /* \"--CODEGEN--\":12169:12189   */\n      sub\n        /* \"--CODEGEN--\":12165:12166   */\n      0x00\n        /* \"--CODEGEN--\":12154:12163   */\n      dup4\n        /* \"--CODEGEN--\":12150:12167   */\n      add\n        /* \"--CODEGEN--\":12143:12190   */\n      mstore\n        /* \"--CODEGEN--\":12204:12335   */\n      tag_429\n        /* \"--CODEGEN--\":12330:12334   */\n      dup2\n        /* \"--CODEGEN--\":12204:12335   */\n      tag_391\n      jump\t// in\n    tag_429:\n        /* \"--CODEGEN--\":12196:12335   */\n      swap1\n      pop\n        /* \"--CODEGEN--\":12100:12345   */\n      swap2\n      swap1\n      pop\n      jump\t// out\n        /* \"--CODEGEN--\":12352:12768   */\n    tag_156:\n      0x00\n        /* \"--CODEGEN--\":12552:12554   */\n      0x20\n        /* \"--CODEGEN--\":12541:12550   */\n      dup3\n        /* \"--CODEGEN--\":12537:12555   */\n      add\n        /* \"--CODEGEN--\":12529:12555   */\n      swap1\n      pop\n        /* \"--CODEGEN--\":12602:12611   */\n      dup2\n        /* \"--CODEGEN--\":12596:12600   */\n      dup2\n        /* \"--CODEGEN--\":12592:12612   */\n      sub\n        /* \"--CODEGEN--\":12588:12589   */\n      0x00\n        /* \"--CODEGEN--\":12577:12586   */\n      dup4\n        /* \"--CODEGEN--\":12573:12590   */\n      add\n        /* \"--CODEGEN--\":12566:12613   */\n      mstore\n        /* \"--CODEGEN--\":12627:12758   */\n      tag_431\n        /* \"--CODEGEN--\":12753:12757   */\n      dup2\n        /* \"--CODEGEN--\":12627:12758   */\n      tag_398\n      jump\t// in\n    tag_431:\n        /* \"--CODEGEN--\":12619:12758   */\n      swap1\n      pop\n        /* \"--CODEGEN--\":12523:12768   */\n      swap2\n      swap1\n      pop\n      jump\t// out\n        /* \"--CODEGEN--\":12775:13191   */\n    tag_149:\n      0x00\n        /* \"--CODEGEN--\":12975:12977   */\n      0x20\n        /* \"--CODEGEN--\":12964:12973   */\n      dup3\n        /* \"--CODEGEN--\":12960:12978   */\n      add\n        /* \"--CODEGEN--\":12952:12978   */\n      swap1\n      pop\n        /* \"--CODEGEN--\":13025:13034   */\n      dup2\n        /* \"--CODEGEN--\":13019:13023   */\n      dup2\n        /* \"--CODEGEN--\":13015:13035   */\n      sub\n        /* \"--CODEGEN--\":13011:13012   */\n      0x00\n        /* \"--CODEGEN--\":13000:13009   */\n      dup4\n        /* \"--CODEGEN--\":12996:13013   */\n      add\n        /* \"--CODEGEN--\":12989:13036   */\n      mstore\n        /* \"--CODEGEN--\":13050:13181   */\n      tag_433\n        /* \"--CODEGEN--\":13176:13180   */\n      dup2\n        /* \"--CODEGEN--\":13050:13181   */\n      tag_401\n      jump\t// in\n    tag_433:\n        /* \"--CODEGEN--\":13042:13181   */\n      swap1\n      pop\n        /* \"--CODEGEN--\":12946:13191   */\n      swap2\n      swap1\n      pop\n      jump\t// out\n        /* \"--CODEGEN--\":13198:13420   */\n    tag_88:\n      0x00\n        /* \"--CODEGEN--\":13325:13327   */\n      0x20\n        /* \"--CODEGEN--\":13314:13323   */\n      dup3\n        /* \"--CODEGEN--\":13310:13328   */\n      add\n        /* \"--CODEGEN--\":13302:13328   */\n      swap1\n      pop\n        /* \"--CODEGEN--\":13339:13410   */\n      tag_435\n        /* \"--CODEGEN--\":13407:13408   */\n      0x00\n        /* \"--CODEGEN--\":13396:13405   */\n      dup4\n        /* \"--CODEGEN--\":13392:13409   */\n      add\n        /* \"--CODEGEN--\":13383:13389   */\n      dup5\n        /* \"--CODEGEN--\":13339:13410   */\n      tag_404\n      jump\t// in\n    tag_435:\n        /* \"--CODEGEN--\":13296:13420   */\n      swap3\n      swap2\n      pop\n      pop\n      jump\t// out\n        /* \"--CODEGEN--\":13427:14875   */\n    tag_178:\n      0x00\n        /* \"--CODEGEN--\":13872:13875   */\n      0x0120\n        /* \"--CODEGEN--\":13861:13870   */\n      dup3\n        /* \"--CODEGEN--\":13857:13876   */\n      add\n        /* \"--CODEGEN--\":13849:13876   */\n      swap1\n      pop\n        /* \"--CODEGEN--\":13887:13958   */\n      tag_437\n        /* \"--CODEGEN--\":13955:13956   */\n      0x00\n        /* \"--CODEGEN--\":13944:13953   */\n      dup4\n        /* \"--CODEGEN--\":13940:13957   */\n      add\n        /* \"--CODEGEN--\":13931:13937   */\n      dup16\n        /* \"--CODEGEN--\":13887:13958   */\n      tag_404\n      jump\t// in\n    tag_437:\n        /* \"--CODEGEN--\":13969:14041   */\n      tag_438\n        /* \"--CODEGEN--\":14037:14039   */\n      0x20\n        /* \"--CODEGEN--\":14026:14035   */\n      dup4\n        /* \"--CODEGEN--\":14022:14040   */\n      add\n        /* \"--CODEGEN--\":14013:14019   */\n      dup15\n        /* \"--CODEGEN--\":13969:14041   */\n      tag_404\n      jump\t// in\n    tag_438:\n        /* \"--CODEGEN--\":14089:14098   */\n      dup2\n        /* \"--CODEGEN--\":14083:14087   */\n      dup2\n        /* \"--CODEGEN--\":14079:14099   */\n      sub\n        /* \"--CODEGEN--\":14074:14076   */\n      0x40\n        /* \"--CODEGEN--\":14063:14072   */\n      dup4\n        /* \"--CODEGEN--\":14059:14077   */\n      add\n        /* \"--CODEGEN--\":14052:14100   */\n      mstore\n        /* \"--CODEGEN--\":14114:14202   */\n      tag_439\n        /* \"--CODEGEN--\":14197:14201   */\n      dup2\n        /* \"--CODEGEN--\":14188:14194   */\n      dup13\n        /* \"--CODEGEN--\":14180:14186   */\n      dup15\n        /* \"--CODEGEN--\":14114:14202   */\n      tag_357\n      jump\t// in\n    tag_439:\n        /* \"--CODEGEN--\":14106:14202   */\n      swap1\n      pop\n        /* \"--CODEGEN--\":14250:14259   */\n      dup2\n        /* \"--CODEGEN--\":14244:14248   */\n      dup2\n        /* \"--CODEGEN--\":14240:14260   */\n      sub\n        /* \"--CODEGEN--\":14235:14237   */\n      0x60\n        /* \"--CODEGEN--\":14224:14233   */\n      dup4\n        /* \"--CODEGEN--\":14220:14238   */\n      add\n        /* \"--CODEGEN--\":14213:14261   */\n      mstore\n        /* \"--CODEGEN--\":14275:14363   */\n      tag_440\n        /* \"--CODEGEN--\":14358:14362   */\n      dup2\n        /* \"--CODEGEN--\":14349:14355   */\n      dup11\n        /* \"--CODEGEN--\":14341:14347   */\n      dup13\n        /* \"--CODEGEN--\":14275:14363   */\n      tag_357\n      jump\t// in\n    tag_440:\n        /* \"--CODEGEN--\":14267:14363   */\n      swap1\n      pop\n        /* \"--CODEGEN--\":14412:14421   */\n      dup2\n        /* \"--CODEGEN--\":14406:14410   */\n      dup2\n        /* \"--CODEGEN--\":14402:14422   */\n      sub\n        /* \"--CODEGEN--\":14396:14399   */\n      0x80\n        /* \"--CODEGEN--\":14385:14394   */\n      dup4\n        /* \"--CODEGEN--\":14381:14400   */\n      add\n        /* \"--CODEGEN--\":14374:14423   */\n      mstore\n        /* \"--CODEGEN--\":14437:14525   */\n      tag_441\n        /* \"--CODEGEN--\":14520:14524   */\n      dup2\n        /* \"--CODEGEN--\":14511:14517   */\n      dup9\n        /* \"--CODEGEN--\":14503:14509   */\n      dup11\n        /* \"--CODEGEN--\":14437:14525   */\n      tag_357\n      jump\t// in\n    tag_441:\n        /* \"--CODEGEN--\":14429:14525   */\n      swap1\n      pop\n        /* \"--CODEGEN--\":14536:14603   */\n      tag_442\n        /* \"--CODEGEN--\":14598:14601   */\n      0xa0\n        /* \"--CODEGEN--\":14587:14596   */\n      dup4\n        /* \"--CODEGEN--\":14583:14602   */\n      add\n        /* \"--CODEGEN--\":14574:14580   */\n      dup8\n        /* \"--CODEGEN--\":14536:14603   */\n      tag_345\n      jump\t// in\n    tag_442:\n        /* \"--CODEGEN--\":14614:14695   */\n      tag_443\n        /* \"--CODEGEN--\":14690:14693   */\n      0xc0\n        /* \"--CODEGEN--\":14679:14688   */\n      dup4\n        /* \"--CODEGEN--\":14675:14694   */\n      add\n        /* \"--CODEGEN--\":14666:14672   */\n      dup7\n        /* \"--CODEGEN--\":14614:14695   */\n      tag_337\n      jump\t// in\n    tag_443:\n        /* \"--CODEGEN--\":14706:14780   */\n      tag_444\n        /* \"--CODEGEN--\":14775:14778   */\n      0xe0\n        /* \"--CODEGEN--\":14764:14773   */\n      dup4\n        /* \"--CODEGEN--\":14760:14779   */\n      add\n        /* \"--CODEGEN--\":14750:14757   */\n      dup6\n        /* \"--CODEGEN--\":14706:14780   */\n      tag_404\n      jump\t// in\n    tag_444:\n        /* \"--CODEGEN--\":14791:14865   */\n      tag_445\n        /* \"--CODEGEN--\":14860:14863   */\n      0x0100\n        /* \"--CODEGEN--\":14849:14858   */\n      dup4\n        /* \"--CODEGEN--\":14845:14864   */\n      add\n        /* \"--CODEGEN--\":14835:14842   */\n      dup5\n        /* \"--CODEGEN--\":14791:14865   */\n      tag_404\n      jump\t// in\n    tag_445:\n        /* \"--CODEGEN--\":13843:14875   */\n      swap14\n      swap13\n      pop\n      pop\n      pop\n      pop\n      pop\n      pop\n      pop\n      pop\n      pop\n      pop\n      pop\n      pop\n      pop\n      jump\t// out\n        /* \"--CODEGEN--\":14882:16350   */\n    tag_30:\n      0x00\n        /* \"--CODEGEN--\":15309:15312   */\n      0x0140\n        /* \"--CODEGEN--\":15298:15307   */\n      dup3\n        /* \"--CODEGEN--\":15294:15313   */\n      add\n        /* \"--CODEGEN--\":15286:15313   */\n      swap1\n      pop\n        /* \"--CODEGEN--\":15324:15395   */\n      tag_447\n        /* \"--CODEGEN--\":15392:15393   */\n      0x00\n        /* \"--CODEGEN--\":15381:15390   */\n      dup4\n        /* \"--CODEGEN--\":15377:15394   */\n      add\n        /* \"--CODEGEN--\":15368:15374   */\n      dup14\n        /* \"--CODEGEN--\":15324:15395   */\n      tag_404\n      jump\t// in\n    tag_447:\n        /* \"--CODEGEN--\":15406:15478   */\n      tag_448\n        /* \"--CODEGEN--\":15474:15476   */\n      0x20\n        /* \"--CODEGEN--\":15463:15472   */\n      dup4\n        /* \"--CODEGEN--\":15459:15477   */\n      add\n        /* \"--CODEGEN--\":15450:15456   */\n      dup13\n        /* \"--CODEGEN--\":15406:15478   */\n      tag_404\n      jump\t// in\n    tag_448:\n        /* \"--CODEGEN--\":15526:15535   */\n      dup2\n        /* \"--CODEGEN--\":15520:15524   */\n      dup2\n        /* \"--CODEGEN--\":15516:15536   */\n      sub\n        /* \"--CODEGEN--\":15511:15513   */\n      0x40\n        /* \"--CODEGEN--\":15500:15509   */\n      dup4\n        /* \"--CODEGEN--\":15496:15514   */\n      add\n        /* \"--CODEGEN--\":15489:15537   */\n      mstore\n        /* \"--CODEGEN--\":15551:15629   */\n      tag_449\n        /* \"--CODEGEN--\":15624:15628   */\n      dup2\n        /* \"--CODEGEN--\":15615:15621   */\n      dup12\n        /* \"--CODEGEN--\":15551:15629   */\n      tag_365\n      jump\t// in\n    tag_449:\n        /* \"--CODEGEN--\":15543:15629   */\n      swap1\n      pop\n        /* \"--CODEGEN--\":15677:15686   */\n      dup2\n        /* \"--CODEGEN--\":15671:15675   */\n      dup2\n        /* \"--CODEGEN--\":15667:15687   */\n      sub\n        /* \"--CODEGEN--\":15662:15664   */\n      0x60\n        /* \"--CODEGEN--\":15651:15660   */\n      dup4\n        /* \"--CODEGEN--\":15647:15665   */\n      add\n        /* \"--CODEGEN--\":15640:15688   */\n      mstore\n        /* \"--CODEGEN--\":15702:15780   */\n      tag_450\n        /* \"--CODEGEN--\":15775:15779   */\n      dup2\n        /* \"--CODEGEN--\":15766:15772   */\n      dup11\n        /* \"--CODEGEN--\":15702:15780   */\n      tag_365\n      jump\t// in\n    tag_450:\n        /* \"--CODEGEN--\":15694:15780   */\n      swap1\n      pop\n        /* \"--CODEGEN--\":15829:15838   */\n      dup2\n        /* \"--CODEGEN--\":15823:15827   */\n      dup2\n        /* \"--CODEGEN--\":15819:15839   */\n      sub\n        /* \"--CODEGEN--\":15813:15816   */\n      0x80\n        /* \"--CODEGEN--\":15802:15811   */\n      dup4\n        /* \"--CODEGEN--\":15798:15817   */\n      add\n        /* \"--CODEGEN--\":15791:15840   */\n      mstore\n        /* \"--CODEGEN--\":15854:15932   */\n      tag_451\n        /* \"--CODEGEN--\":15927:15931   */\n      dup2\n        /* \"--CODEGEN--\":15918:15924   */\n      dup10\n        /* \"--CODEGEN--\":15854:15932   */\n      tag_365\n      jump\t// in\n    tag_451:\n        /* \"--CODEGEN--\":15846:15932   */\n      swap1\n      pop\n        /* \"--CODEGEN--\":15943:16010   */\n      tag_452\n        /* \"--CODEGEN--\":16005:16008   */\n      0xa0\n        /* \"--CODEGEN--\":15994:16003   */\n      dup4\n        /* \"--CODEGEN--\":15990:16009   */\n      add\n        /* \"--CODEGEN--\":15981:15987   */\n      dup9\n        /* \"--CODEGEN--\":15943:16010   */\n      tag_345\n      jump\t// in\n    tag_452:\n        /* \"--CODEGEN--\":16021:16094   */\n      tag_453\n        /* \"--CODEGEN--\":16089:16092   */\n      0xc0\n        /* \"--CODEGEN--\":16078:16087   */\n      dup4\n        /* \"--CODEGEN--\":16074:16093   */\n      add\n        /* \"--CODEGEN--\":16065:16071   */\n      dup8\n        /* \"--CODEGEN--\":16021:16094   */\n      tag_341\n      jump\t// in\n    tag_453:\n        /* \"--CODEGEN--\":16105:16178   */\n      tag_454\n        /* \"--CODEGEN--\":16173:16176   */\n      0xe0\n        /* \"--CODEGEN--\":16162:16171   */\n      dup4\n        /* \"--CODEGEN--\":16158:16177   */\n      add\n        /* \"--CODEGEN--\":16149:16155   */\n      dup7\n        /* \"--CODEGEN--\":16105:16178   */\n      tag_404\n      jump\t// in\n    tag_454:\n        /* \"--CODEGEN--\":16189:16256   */\n      tag_455\n        /* \"--CODEGEN--\":16251:16254   */\n      0x0100\n        /* \"--CODEGEN--\":16240:16249   */\n      dup4\n        /* \"--CODEGEN--\":16236:16255   */\n      add\n        /* \"--CODEGEN--\":16227:16233   */\n      dup6\n        /* \"--CODEGEN--\":16189:16256   */\n      tag_345\n      jump\t// in\n    tag_455:\n        /* \"--CODEGEN--\":16267:16340   */\n      tag_456\n        /* \"--CODEGEN--\":16335:16338   */\n      0x0120\n        /* \"--CODEGEN--\":16324:16333   */\n      dup4\n        /* \"--CODEGEN--\":16320:16339   */\n      add\n        /* \"--CODEGEN--\":16311:16317   */\n      dup5\n        /* \"--CODEGEN--\":16267:16340   */\n      tag_404\n      jump\t// in\n    tag_456:\n        /* \"--CODEGEN--\":15280:16350   */\n      swap12\n      swap11\n      pop\n      pop\n      pop\n      pop\n      pop\n      pop\n      pop\n      pop\n      pop\n      pop\n      pop\n      jump\t// out\n        /* \"--CODEGEN--\":16357:17921   */\n    tag_165:\n      0x00\n        /* \"--CODEGEN--\":16804:16807   */\n      0x0160\n        /* \"--CODEGEN--\":16793:16802   */\n      dup3\n        /* \"--CODEGEN--\":16789:16808   */\n      add\n        /* \"--CODEGEN--\":16781:16808   */\n      swap1\n      pop\n        /* \"--CODEGEN--\":16819:16890   */\n      tag_458\n        /* \"--CODEGEN--\":16887:16888   */\n      0x00\n        /* \"--CODEGEN--\":16876:16885   */\n      dup4\n        /* \"--CODEGEN--\":16872:16889   */\n      add\n        /* \"--CODEGEN--\":16863:16869   */\n      dup15\n        /* \"--CODEGEN--\":16819:16890   */\n      tag_404\n      jump\t// in\n    tag_458:\n        /* \"--CODEGEN--\":16901:16973   */\n      tag_459\n        /* \"--CODEGEN--\":16969:16971   */\n      0x20\n        /* \"--CODEGEN--\":16958:16967   */\n      dup4\n        /* \"--CODEGEN--\":16954:16972   */\n      add\n        /* \"--CODEGEN--\":16945:16951   */\n      dup14\n        /* \"--CODEGEN--\":16901:16973   */\n      tag_404\n      jump\t// in\n    tag_459:\n        /* \"--CODEGEN--\":16984:17056   */\n      tag_460\n        /* \"--CODEGEN--\":17052:17054   */\n      0x40\n        /* \"--CODEGEN--\":17041:17050   */\n      dup4\n        /* \"--CODEGEN--\":17037:17055   */\n      add\n        /* \"--CODEGEN--\":17028:17034   */\n      dup13\n        /* \"--CODEGEN--\":16984:17056   */\n      tag_404\n      jump\t// in\n    tag_460:\n        /* \"--CODEGEN--\":17104:17113   */\n      dup2\n        /* \"--CODEGEN--\":17098:17102   */\n      dup2\n        /* \"--CODEGEN--\":17094:17114   */\n      sub\n        /* \"--CODEGEN--\":17089:17091   */\n      0x60\n        /* \"--CODEGEN--\":17078:17087   */\n      dup4\n        /* \"--CODEGEN--\":17074:17092   */\n      add\n        /* \"--CODEGEN--\":17067:17115   */\n      mstore\n        /* \"--CODEGEN--\":17129:17204   */\n      tag_461\n        /* \"--CODEGEN--\":17199:17203   */\n      dup2\n        /* \"--CODEGEN--\":17190:17196   */\n      dup12\n        /* \"--CODEGEN--\":17129:17204   */\n      tag_373\n      jump\t// in\n    tag_461:\n        /* \"--CODEGEN--\":17121:17204   */\n      swap1\n      pop\n        /* \"--CODEGEN--\":17253:17262   */\n      dup2\n        /* \"--CODEGEN--\":17247:17251   */\n      dup2\n        /* \"--CODEGEN--\":17243:17263   */\n      sub\n        /* \"--CODEGEN--\":17237:17240   */\n      0x80\n        /* \"--CODEGEN--\":17226:17235   */\n      dup4\n        /* \"--CODEGEN--\":17222:17241   */\n      add\n        /* \"--CODEGEN--\":17215:17264   */\n      mstore\n        /* \"--CODEGEN--\":17278:17353   */\n      tag_462\n        /* \"--CODEGEN--\":17348:17352   */\n      dup2\n        /* \"--CODEGEN--\":17339:17345   */\n      dup11\n        /* \"--CODEGEN--\":17278:17353   */\n      tag_373\n      jump\t// in\n    tag_462:\n        /* \"--CODEGEN--\":17270:17353   */\n      swap1\n      pop\n        /* \"--CODEGEN--\":17402:17411   */\n      dup2\n        /* \"--CODEGEN--\":17396:17400   */\n      dup2\n        /* \"--CODEGEN--\":17392:17412   */\n      sub\n        /* \"--CODEGEN--\":17386:17389   */\n      0xa0\n        /* \"--CODEGEN--\":17375:17384   */\n      dup4\n        /* \"--CODEGEN--\":17371:17390   */\n      add\n        /* \"--CODEGEN--\":17364:17413   */\n      mstore\n        /* \"--CODEGEN--\":17427:17502   */\n      tag_463\n        /* \"--CODEGEN--\":17497:17501   */\n      dup2\n        /* \"--CODEGEN--\":17488:17494   */\n      dup10\n        /* \"--CODEGEN--\":17427:17502   */\n      tag_373\n      jump\t// in\n    tag_463:\n        /* \"--CODEGEN--\":17419:17502   */\n      swap1\n      pop\n        /* \"--CODEGEN--\":17513:17580   */\n      tag_464\n        /* \"--CODEGEN--\":17575:17578   */\n      0xc0\n        /* \"--CODEGEN--\":17564:17573   */\n      dup4\n        /* \"--CODEGEN--\":17560:17579   */\n      add\n        /* \"--CODEGEN--\":17551:17557   */\n      dup9\n        /* \"--CODEGEN--\":17513:17580   */\n      tag_345\n      jump\t// in\n    tag_464:\n        /* \"--CODEGEN--\":17591:17664   */\n      tag_465\n        /* \"--CODEGEN--\":17659:17662   */\n      0xe0\n        /* \"--CODEGEN--\":17648:17657   */\n      dup4\n        /* \"--CODEGEN--\":17644:17663   */\n      add\n        /* \"--CODEGEN--\":17635:17641   */\n      dup8\n        /* \"--CODEGEN--\":17591:17664   */\n      tag_341\n      jump\t// in\n    tag_465:\n        /* \"--CODEGEN--\":17675:17748   */\n      tag_466\n        /* \"--CODEGEN--\":17743:17746   */\n      0x0100\n        /* \"--CODEGEN--\":17732:17741   */\n      dup4\n        /* \"--CODEGEN--\":17728:17747   */\n      add\n        /* \"--CODEGEN--\":17719:17725   */\n      dup7\n        /* \"--CODEGEN--\":17675:17748   */\n      tag_404\n      jump\t// in\n    tag_466:\n        /* \"--CODEGEN--\":17759:17826   */\n      tag_467\n        /* \"--CODEGEN--\":17821:17824   */\n      0x0120\n        /* \"--CODEGEN--\":17810:17819   */\n      dup4\n        /* \"--CODEGEN--\":17806:17825   */\n      add\n        /* \"--CODEGEN--\":17797:17803   */\n      dup6\n        /* \"--CODEGEN--\":17759:17826   */\n      tag_345\n      jump\t// in\n    tag_467:\n        /* \"--CODEGEN--\":17837:17911   */\n      tag_468\n        /* \"--CODEGEN--\":17906:17909   */\n      0x0140\n        /* \"--CODEGEN--\":17895:17904   */\n      dup4\n        /* \"--CODEGEN--\":17891:17910   */\n      add\n        /* \"--CODEGEN--\":17881:17888   */\n      dup5\n        /* \"--CODEGEN--\":17837:17911   */\n      tag_404\n      jump\t// in\n    tag_468:\n        /* \"--CODEGEN--\":16775:17921   */\n      swap13\n      swap12\n      pop\n      pop\n      pop\n      pop\n      pop\n      pop\n      pop\n      pop\n      pop\n      pop\n      pop\n      pop\n      jump\t// out\n        /* \"--CODEGEN--\":17928:18086   */\n    tag_381:\n      0x00\n        /* \"--CODEGEN--\":17996:17999   */\n      dup2\n        /* \"--CODEGEN--\":17988:17999   */\n      swap1\n      pop\n        /* \"--CODEGEN--\":18033:18036   */\n      dup2\n        /* \"--CODEGEN--\":18030:18031   */\n      0x00\n        /* \"--CODEGEN--\":18023:18037   */\n      mstore\n        /* \"--CODEGEN--\":18065:18069   */\n      0x20\n        /* \"--CODEGEN--\":18062:18063   */\n      0x00\n        /* \"--CODEGEN--\":18052:18070   */\n      keccak256\n        /* \"--CODEGEN--\":18044:18070   */\n      swap1\n      pop\n        /* \"--CODEGEN--\":17982:18086   */\n      swap2\n      swap1\n      pop\n      jump\t// out\n        /* \"--CODEGEN--\":18093:18215   */\n    tag_368:\n      0x00\n        /* \"--CODEGEN--\":18187:18192   */\n      dup2\n        /* \"--CODEGEN--\":18181:18193   */\n      mload\n        /* \"--CODEGEN--\":18171:18193   */\n      swap1\n      pop\n        /* \"--CODEGEN--\":18152:18215   */\n      swap2\n      swap1\n      pop\n      jump\t// out\n        /* \"--CODEGEN--\":18223:18386   */\n    tag_360:\n      0x00\n        /* \"--CODEGEN--\":18338:18344   */\n      dup3\n        /* \"--CODEGEN--\":18333:18336   */\n      dup3\n        /* \"--CODEGEN--\":18326:18345   */\n      mstore\n        /* \"--CODEGEN--\":18375:18379   */\n      0x20\n        /* \"--CODEGEN--\":18370:18373   */\n      dup3\n        /* \"--CODEGEN--\":18366:18380   */\n      add\n        /* \"--CODEGEN--\":18351:18380   */\n      swap1\n      pop\n        /* \"--CODEGEN--\":18319:18386   */\n      swap3\n      swap2\n      pop\n      pop\n      jump\t// out\n        /* \"--CODEGEN--\":18395:18540   */\n    tag_397:\n      0x00\n        /* \"--CODEGEN--\":18531:18534   */\n      dup2\n        /* \"--CODEGEN--\":18516:18534   */\n      swap1\n      pop\n        /* \"--CODEGEN--\":18509:18540   */\n      swap3\n      swap2\n      pop\n      pop\n      jump\t// out\n        /* \"--CODEGEN--\":18548:18639   */\n    tag_344:\n      0x00\n        /* \"--CODEGEN--\":18610:18634   */\n      tag_474\n        /* \"--CODEGEN--\":18628:18633   */\n      dup3\n        /* \"--CODEGEN--\":18610:18634   */\n      tag_475\n      jump\t// in\n    tag_474:\n        /* \"--CODEGEN--\":18599:18634   */\n      swap1\n      pop\n        /* \"--CODEGEN--\":18593:18639   */\n      swap2\n      swap1\n      pop\n      jump\t// out\n        /* \"--CODEGEN--\":18646:18731   */\n    tag_348:\n      0x00\n        /* \"--CODEGEN--\":18719:18724   */\n      dup2\n        /* \"--CODEGEN--\":18712:18725   */\n      iszero\n        /* \"--CODEGEN--\":18705:18726   */\n      iszero\n        /* \"--CODEGEN--\":18694:18726   */\n      swap1\n      pop\n        /* \"--CODEGEN--\":18688:18731   */\n      swap2\n      swap1\n      pop\n      jump\t// out\n        /* \"--CODEGEN--\":18738:18810   */\n    tag_352:\n      0x00\n        /* \"--CODEGEN--\":18800:18805   */\n      dup2\n        /* \"--CODEGEN--\":18789:18805   */\n      swap1\n      pop\n        /* \"--CODEGEN--\":18783:18810   */\n      swap2\n      swap1\n      pop\n      jump\t// out\n        /* \"--CODEGEN--\":18817:18938   */\n    tag_475:\n      0x00\n        /* \"--CODEGEN--\":18890:18932   */\n      0xffffffffffffffffffffffffffffffffffffffff\n        /* \"--CODEGEN--\":18883:18888   */\n      dup3\n        /* \"--CODEGEN--\":18879:18933   */\n      and\n        /* \"--CODEGEN--\":18868:18933   */\n      swap1\n      pop\n        /* \"--CODEGEN--\":18862:18938   */\n      swap2\n      swap1\n      pop\n      jump\t// out\n        /* \"--CODEGEN--\":18945:19017   */\n    tag_407:\n      0x00\n        /* \"--CODEGEN--\":19007:19012   */\n      dup2\n        /* \"--CODEGEN--\":18996:19012   */\n      swap1\n      pop\n        /* \"--CODEGEN--\":18990:19017   */\n      swap2\n      swap1\n      pop\n      jump\t// out\n        /* \"--CODEGEN--\":19024:19153   */\n    tag_340:\n      0x00\n        /* \"--CODEGEN--\":19111:19148   */\n      tag_481\n        /* \"--CODEGEN--\":19142:19147   */\n      dup3\n        /* \"--CODEGEN--\":19111:19148   */\n      tag_482\n      jump\t// in\n    tag_481:\n        /* \"--CODEGEN--\":19098:19148   */\n      swap1\n      pop\n        /* \"--CODEGEN--\":19092:19153   */\n      swap2\n      swap1\n      pop\n      jump\t// out\n        /* \"--CODEGEN--\":19160:19325   */\n    tag_356:\n      0x00\n        /* \"--CODEGEN--\":19261:19320   */\n      tag_484\n        /* \"--CODEGEN--\":19314:19319   */\n      dup3\n        /* \"--CODEGEN--\":19261:19320   */\n      tag_485\n      jump\t// in\n    tag_484:\n        /* \"--CODEGEN--\":19248:19320   */\n      swap1\n      pop\n        /* \"--CODEGEN--\":19242:19325   */\n      swap2\n      swap1\n      pop\n      jump\t// out\n        /* \"--CODEGEN--\":19332:19462   */\n    tag_485:\n      0x00\n        /* \"--CODEGEN--\":19433:19457   */\n      tag_487\n        /* \"--CODEGEN--\":19451:19456   */\n      dup3\n        /* \"--CODEGEN--\":19433:19457   */\n      tag_475\n      jump\t// in\n    tag_487:\n        /* \"--CODEGEN--\":19420:19457   */\n      swap1\n      pop\n        /* \"--CODEGEN--\":19414:19462   */\n      swap2\n      swap1\n      pop\n      jump\t// out\n        /* \"--CODEGEN--\":19469:19590   */\n    tag_482:\n      0x00\n        /* \"--CODEGEN--\":19548:19585   */\n      tag_489\n        /* \"--CODEGEN--\":19579:19584   */\n      dup3\n        /* \"--CODEGEN--\":19548:19585   */\n      tag_490\n      jump\t// in\n    tag_489:\n        /* \"--CODEGEN--\":19535:19585   */\n      swap1\n      pop\n        /* \"--CODEGEN--\":19529:19590   */\n      swap2\n      swap1\n      pop\n      jump\t// out\n        /* \"--CODEGEN--\":19597:19705   */\n    tag_490:\n      0x00\n        /* \"--CODEGEN--\":19676:19700   */\n      tag_492\n        /* \"--CODEGEN--\":19694:19699   */\n      dup3\n        /* \"--CODEGEN--\":19676:19700   */\n      tag_475\n      jump\t// in\n    tag_492:\n        /* \"--CODEGEN--\":19663:19700   */\n      swap1\n      pop\n        /* \"--CODEGEN--\":19657:19705   */\n      swap2\n      swap1\n      pop\n      jump\t// out\n        /* \"--CODEGEN--\":19713:19858   */\n    tag_362:\n        /* \"--CODEGEN--\":19794:19800   */\n      dup3\n        /* \"--CODEGEN--\":19789:19792   */\n      dup2\n        /* \"--CODEGEN--\":19784:19787   */\n      dup4\n        /* \"--CODEGEN--\":19771:19801   */\n      calldatacopy\n        /* \"--CODEGEN--\":19850:19851   */\n      0x00\n        /* \"--CODEGEN--\":19841:19847   */\n      dup4\n        /* \"--CODEGEN--\":19836:19839   */\n      dup4\n        /* \"--CODEGEN--\":19832:19848   */\n      add\n        /* \"--CODEGEN--\":19825:19852   */\n      mstore\n        /* \"--CODEGEN--\":19764:19858   */\n      pop\n      pop\n      pop\n      jump\t// out\n        /* \"--CODEGEN--\":19867:20135   */\n    tag_371:\n        /* \"--CODEGEN--\":19932:19933   */\n      0x00\n        /* \"--CODEGEN--\":19939:20040   */\n    tag_495:\n        /* \"--CODEGEN--\":19953:19959   */\n      dup4\n        /* \"--CODEGEN--\":19950:19951   */\n      dup2\n        /* \"--CODEGEN--\":19947:19960   */\n      lt\n        /* \"--CODEGEN--\":19939:20040   */\n      iszero\n      tag_497\n      jumpi\n        /* \"--CODEGEN--\":20029:20030   */\n      dup1\n        /* \"--CODEGEN--\":20024:20027   */\n      dup3\n        /* \"--CODEGEN--\":20020:20031   */\n      add\n        /* \"--CODEGEN--\":20014:20032   */\n      mload\n        /* \"--CODEGEN--\":20010:20011   */\n      dup2\n        /* \"--CODEGEN--\":20005:20008   */\n      dup5\n        /* \"--CODEGEN--\":20001:20012   */\n      add\n        /* \"--CODEGEN--\":19994:20033   */\n      mstore\n        /* \"--CODEGEN--\":19975:19977   */\n      0x20\n        /* \"--CODEGEN--\":19972:19973   */\n      dup2\n        /* \"--CODEGEN--\":19968:19978   */\n      add\n        /* \"--CODEGEN--\":19963:19978   */\n      swap1\n      pop\n        /* \"--CODEGEN--\":19939:20040   */\n      jump(tag_495)\n    tag_497:\n        /* \"--CODEGEN--\":20055:20061   */\n      dup4\n        /* \"--CODEGEN--\":20052:20053   */\n      dup2\n        /* \"--CODEGEN--\":20049:20062   */\n      gt\n        /* \"--CODEGEN--\":20046:20048   */\n      iszero\n      tag_498\n      jumpi\n        /* \"--CODEGEN--\":20120:20121   */\n      0x00\n        /* \"--CODEGEN--\":20111:20117   */\n      dup5\n        /* \"--CODEGEN--\":20106:20109   */\n      dup5\n        /* \"--CODEGEN--\":20102:20118   */\n      add\n        /* \"--CODEGEN--\":20095:20122   */\n      mstore\n        /* \"--CODEGEN--\":20046:20048   */\n    tag_498:\n        /* \"--CODEGEN--\":19916:20135   */\n      pop\n      pop\n      pop\n      pop\n      jump\t// out\n        /* \"--CODEGEN--\":20143:20240   */\n    tag_364:\n      0x00\n        /* \"--CODEGEN--\":20231:20233   */\n      0x1f\n        /* \"--CODEGEN--\":20227:20234   */\n      not\n        /* \"--CODEGEN--\":20222:20224   */\n      0x1f\n        /* \"--CODEGEN--\":20215:20220   */\n      dup4\n        /* \"--CODEGEN--\":20211:20225   */\n      add\n        /* \"--CODEGEN--\":20207:20235   */\n      and\n        /* \"--CODEGEN--\":20197:20235   */\n      swap1\n      pop\n        /* \"--CODEGEN--\":20191:20240   */\n      swap2\n      swap1\n      pop\n      jump\t// out\n        /* \"--CODEGEN--\":20248:20365   */\n    tag_283:\n        /* \"--CODEGEN--\":20317:20341   */\n      tag_501\n        /* \"--CODEGEN--\":20335:20340   */\n      dup2\n        /* \"--CODEGEN--\":20317:20341   */\n      tag_344\n      jump\t// in\n    tag_501:\n        /* \"--CODEGEN--\":20310:20315   */\n      dup2\n        /* \"--CODEGEN--\":20307:20342   */\n      eq\n        /* \"--CODEGEN--\":20297:20299   */\n      tag_502\n      jumpi\n        /* \"--CODEGEN--\":20356:20357   */\n      0x00\n        /* \"--CODEGEN--\":20353:20354   */\n      dup1\n        /* \"--CODEGEN--\":20346:20358   */\n      revert\n        /* \"--CODEGEN--\":20297:20299   */\n    tag_502:\n        /* \"--CODEGEN--\":20291:20365   */\n      pop\n      jump\t// out\n        /* \"--CODEGEN--\":20372:20483   */\n    tag_287:\n        /* \"--CODEGEN--\":20438:20459   */\n      tag_504\n        /* \"--CODEGEN--\":20453:20458   */\n      dup2\n        /* \"--CODEGEN--\":20438:20459   */\n      tag_348\n      jump\t// in\n    tag_504:\n        /* \"--CODEGEN--\":20431:20436   */\n      dup2\n        /* \"--CODEGEN--\":20428:20460   */\n      eq\n        /* \"--CODEGEN--\":20418:20420   */\n      tag_505\n      jumpi\n        /* \"--CODEGEN--\":20474:20475   */\n      0x00\n        /* \"--CODEGEN--\":20471:20472   */\n      dup1\n        /* \"--CODEGEN--\":20464:20476   */\n      revert\n        /* \"--CODEGEN--\":20418:20420   */\n    tag_505:\n        /* \"--CODEGEN--\":20412:20483   */\n      pop\n      jump\t// out\n        /* \"--CODEGEN--\":20490:20607   */\n    tag_291:\n        /* \"--CODEGEN--\":20559:20583   */\n      tag_507\n        /* \"--CODEGEN--\":20577:20582   */\n      dup2\n        /* \"--CODEGEN--\":20559:20583   */\n      tag_352\n      jump\t// in\n    tag_507:\n        /* \"--CODEGEN--\":20552:20557   */\n      dup2\n        /* \"--CODEGEN--\":20549:20584   */\n      eq\n        /* \"--CODEGEN--\":20539:20541   */\n      tag_508\n      jumpi\n        /* \"--CODEGEN--\":20598:20599   */\n      0x00\n        /* \"--CODEGEN--\":20595:20596   */\n      dup1\n        /* \"--CODEGEN--\":20588:20600   */\n      revert\n        /* \"--CODEGEN--\":20539:20541   */\n    tag_508:\n        /* \"--CODEGEN--\":20533:20607   */\n      pop\n      jump\t// out\n        /* \"--CODEGEN--\":20614:20731   */\n    tag_300:\n        /* \"--CODEGEN--\":20683:20707   */\n      tag_510\n        /* \"--CODEGEN--\":20701:20706   */\n      dup2\n        /* \"--CODEGEN--\":20683:20707   */\n      tag_407\n      jump\t// in\n    tag_510:\n        /* \"--CODEGEN--\":20676:20681   */\n      dup2\n        /* \"--CODEGEN--\":20673:20708   */\n      eq\n        /* \"--CODEGEN--\":20663:20665   */\n      tag_511\n      jumpi\n        /* \"--CODEGEN--\":20722:20723   */\n      0x00\n        /* \"--CODEGEN--\":20719:20720   */\n      dup1\n        /* \"--CODEGEN--\":20712:20724   */\n      revert\n        /* \"--CODEGEN--\":20663:20665   */\n    tag_511:\n        /* \"--CODEGEN--\":20657:20731   */\n      pop\n      jump\t// out\n\n    auxdata: 0xa2646970667358221220511eab5b6454ebaec3e62f54781b4789f96ee4111fde972805615fb64ccf957064736f6c634300060b0033\n}\n","bytecode":{"linkReferences":{},"object":"60806040523480156200001157600080fd5b50600033604051602001620000279190620002e9565b60405160208183030381529060405280519060200120905062000066604051620000519062000306565b6040518091039020826200009460201b60201c565b6200008d604051620000789062000306565b604051809103902033620000f660201b60201c565b5062000391565b8060008084815260200190815260200160002060020154837fbd79b86ffe0ab8e8776151514217cd7cacd52c909f66475c3af44e129f0b00ff60405160405180910390a480600080848152602001908152602001600020600201819055505050565b6200010882826200010c60201b60201c565b5050565b6200013a81600080858152602001908152602001600020600001620001af60201b620012801790919060201c565b15620001ab5762000150620001e760201b60201c565b73ffffffffffffffffffffffffffffffffffffffff168173ffffffffffffffffffffffffffffffffffffffff16837f2f8788117e7eff1d82e926ec794901d17c78024a50270940304540a733656f0d60405160405180910390a45b5050565b6000620001df836000018373ffffffffffffffffffffffffffffffffffffffff1660001b620001ef60201b60201c565b905092915050565b600033905090565b60006200020383836200026960201b60201c565b6200025e57826000018290806001815401808255809150506001900390600052602060002001600090919091909150558260000180549050836001016000848152602001908152602001600020819055506001905062000263565b600090505b92915050565b600080836001016000848152602001908152602001600020541415905092915050565b620002a16200029b8262000328565b6200035c565b82525050565b6000620002b66006836200031d565b91507f57726974657200000000000000000000000000000000000000000000000000006000830152600682019050919050565b6000620002f782846200028c565b60148201915081905092915050565b60006200031382620002a7565b9150819050919050565b600081905092915050565b600062000335826200033c565b9050919050565b600073ffffffffffffffffffffffffffffffffffffffff82169050919050565b6000620003698262000370565b9050919050565b60006200037d8262000384565b9050919050565b60008160601b9050919050565b61241980620003a16000396000f3fe6080604052600436106101145760003560e01c80639010d07c116100a0578063bf22c45711610064578063bf22c457146103d1578063ca15c87314610412578063d547741f1461044f578063da2824a814610478578063df4eb59c146104a157610114565b80639010d07c146102c457806391d14854146103015780639212051c1461033e578063995e433914610369578063a217fddf146103a657610114565b80632e716fb1116100e75780632e716fb1146102025780632f2ff15d1461022d57806336568abe1461025657806356350bdf1461027f578063628aff1d146102a857610114565b8063180aedf31461011957806319ab453c1461015f578063248a9ca3146101885780632b29ba23146101c5575b600080fd5b34801561012557600080fd5b50610140600480360381019061013b9190611a74565b6104b8565b6040516101569a999897969594939291906120db565b60405180910390f35b34801561016b57600080fd5b50610186600480360381019061018191906118f1565b61070e565b005b34801561019457600080fd5b506101af60048036038101906101aa919061191a565b610752565b6040516101bc9190611eda565b60405180910390f35b3480156101d157600080fd5b506101ec60048036038101906101e791906118f1565b610771565b6040516101f99190611ebf565b60405180910390f35b34801561020e57600080fd5b50610217610797565b6040516102249190611ef5565b60405180910390f35b34801561023957600080fd5b50610254600480360381019061024f9190611943565b6107bd565b005b34801561026257600080fd5b5061027d60048036038101906102789190611943565b610830565b005b34801561028b57600080fd5b506102a660048036038101906102a19190611ac6565b6108b3565b005b6102c260048036038101906102bd91906119bb565b610a9b565b005b3480156102d057600080fd5b506102eb60048036038101906102e6919061197f565b610e00565b6040516102f89190611ea4565b60405180910390f35b34801561030d57600080fd5b5061032860048036038101906103239190611943565b610e31565b6040516103359190611ebf565b60405180910390f35b34801561034a57600080fd5b50610353610e62565b6040516103609190612018565b60405180910390f35b34801561037557600080fd5b50610390600480360381019061038b9190611a74565b610e68565b60405161039d9190612018565b60405180910390f35b3480156103b257600080fd5b506103bb610e88565b6040516103c89190611eda565b60405180910390f35b3480156103dd57600080fd5b506103f860048036038101906103f39190611a74565b610e8f565b604051610409959493929190611f10565b60405180910390f35b34801561041e57600080fd5b506104396004803603810190610434919061191a565b611188565b6040516104469190612018565b60405180910390f35b34801561045b57600080fd5b5061047660048036038101906104719190611943565b6111ae565b005b34801561048457600080fd5b5061049f600480360381019061049a91906118f1565b611221565b005b3480156104ad57600080fd5b506104b6611275565b005b6001602052806000526040600020600091509050806000015490806001015490806002018054600181600116156101000203166002900480601f0160208091040260200160405190810160405280929190818152602001828054600181600116156101000203166002900480156105705780601f1061054557610100808354040283529160200191610570565b820191906000526020600020905b81548152906001019060200180831161055357829003601f168201915b505050505090806003018054600181600116156101000203166002900480601f01602080910402602001604051908101604052809291908181526020018280546001816001161561010002031660029004801561060e5780601f106105e35761010080835404028352916020019161060e565b820191906000526020600020905b8154815290600101906020018083116105f157829003601f168201915b505050505090806004018054600181600116156101000203166002900480601f0160208091040260200160405190810160405280929190818152602001828054600181600116156101000203166002900480156106ac5780601f10610681576101008083540402835291602001916106ac565b820191906000526020600020905b81548152906001019060200180831161068f57829003601f168201915b5050505050908060050160009054906101000a900460ff16908060050160019054906101000a900473ffffffffffffffffffffffffffffffffffffffff16908060060154908060070160009054906101000a900460ff1690806008015490508a565b80600360006101000a81548173ffffffffffffffffffffffffffffffffffffffff021916908373ffffffffffffffffffffffffffffffffffffffff16021790555050565b6000806000838152602001908152602001600020600201549050919050565b600061079060405161078290611e8f565b604051809103902083610e31565b9050919050565b600360009054906101000a900473ffffffffffffffffffffffffffffffffffffffff1681565b6107e3600080848152602001908152602001600020600201546107de6112b0565b610e31565b610822576040517f08c379a000000000000000000000000000000000000000000000000000000000815260040161081990611f98565b60405180910390fd5b61082c82826112b8565b5050565b6108386112b0565b73ffffffffffffffffffffffffffffffffffffffff168173ffffffffffffffffffffffffffffffffffffffff16146108a5576040517f08c379a000000000000000000000000000000000000000000000000000000000815260040161089c90611ff8565b60405180910390fd5b6108af828261134b565b5050565b6108bc33610771565b6108fb576040517f08c379a00000000000000000000000000000000000000000000000000000000081526004016108f290611fd8565b60405180910390fd5b60006001600084815260200190815260200160002090506000600360009054906101000a900473ffffffffffffffffffffffffffffffffffffffff1673ffffffffffffffffffffffffffffffffffffffff1663757991a86040518163ffffffff1660e01b815260040160206040518083038186803b15801561097c57600080fd5b505afa158015610990573d6000803e3d6000fd5b505050506040513d601f19601f820116820180604052508101906109b49190611a9d565b90508160050160009054906101000a900460ff166109ea5760018260070160006101000a81548160ff0219169083151502179055505b7f9028bea5bfa7ed26c48df402d89085a995447dc8c1fb167cb92a3c7411b54480826000015484838560020186600301876004018860050160009054906101000a900460ff168960050160019054906101000a900473ffffffffffffffffffffffffffffffffffffffff168a600601548b60070160009054906101000a900460ff1642604051610a849b9a9998979695949392919061218c565b60405180910390a182826008018190555050505050565b6001600254016002819055506000600360009054906101000a900473ffffffffffffffffffffffffffffffffffffffff1673ffffffffffffffffffffffffffffffffffffffff1663757991a86040518163ffffffff1660e01b815260040160206040518083038186803b158015610b1157600080fd5b505afa158015610b25573d6000803e3d6000fd5b505050506040513d601f19601f82011682018060405250810190610b499190611a9d565b9050610b5361172c565b60405180610140016040528060025481526020018381526020018a8a8080601f016020809104026020016040519081016040528093929190818152602001838380828437600081840152601f19601f82011690508083019250505050505050815260200188888080601f016020809104026020016040519081016040528093929190818152602001838380828437600081840152601f19601f82011690508083019250505050505050815260200186868080601f016020809104026020016040519081016040528093929190818152602001838380828437600081840152601f19601f82011690508083019250505050505050815260200184151581526020013373ffffffffffffffffffffffffffffffffffffffff168152602001348152602001600015158152602001600081525090508060016000600254815260200190815260200160002060008201518160000155602082015181600101556040820151816002019080519060200190610ccb929190611799565b506060820151816003019080519060200190610ce8929190611799565b506080820151816004019080519060200190610d05929190611799565b5060a08201518160050160006101000a81548160ff02191690831515021790555060c08201518160050160016101000a81548173ffffffffffffffffffffffffffffffffffffffff021916908373ffffffffffffffffffffffffffffffffffffffff16021790555060e082015181600601556101008201518160070160006101000a81548160ff02191690831515021790555061012082015181600801559050507fd4ae17fdeb78e69409330361e8f8475f8027928c6f28eae2195e5ae56570aba0600254838b8b8b8b8b8b8b333442604051610ded9c9b9a99989796959493929190612033565b60405180910390a1505050505050505050565b6000610e29826000808681526020019081526020016000206000016113de90919063ffffffff16565b905092915050565b6000610e5a826000808681526020019081526020016000206000016113f890919063ffffffff16565b905092915050565b60025481565b600060016000838152602001908152602001600020600801549050919050565b6000801b81565b6060806060600080610e9f61172c565b60016000888152602001908152602001600020604051806101400160405290816000820154815260200160018201548152602001600282018054600181600116156101000203166002900480601f016020809104026020016040519081016040528092919081815260200182805460018160011615610100020316600290048015610f6b5780601f10610f4057610100808354040283529160200191610f6b565b820191906000526020600020905b815481529060010190602001808311610f4e57829003601f168201915b50505050508152602001600382018054600181600116156101000203166002900480601f01602080910402602001604051908101604052809291908181526020018280546001816001161561010002031660029004801561100d5780601f10610fe25761010080835404028352916020019161100d565b820191906000526020600020905b815481529060010190602001808311610ff057829003601f168201915b50505050508152602001600482018054600181600116156101000203166002900480601f0160208091040260200160405190810160405280929190818152602001828054600181600116156101000203166002900480156110af5780601f10611084576101008083540402835291602001916110af565b820191906000526020600020905b81548152906001019060200180831161109257829003601f168201915b505050505081526020016005820160009054906101000a900460ff161515151581526020016005820160019054906101000a900473ffffffffffffffffffffffffffffffffffffffff1673ffffffffffffffffffffffffffffffffffffffff1673ffffffffffffffffffffffffffffffffffffffff168152602001600682015481526020016007820160009054906101000a900460ff1615151515815260200160088201548152505090508060400151816060015182608001518360a00151846101200151955095509550955095505091939590929450565b60006111a7600080848152602001908152602001600020600001611428565b9050919050565b6111d4600080848152602001908152602001600020600201546111cf6112b0565b610e31565b611213576040517f08c379a000000000000000000000000000000000000000000000000000000000815260040161120a90611fb8565b60405180910390fd5b61121d828261134b565b5050565b61122a33610771565b611269576040517f08c379a000000000000000000000000000000000000000000000000000000000815260040161126090611fd8565b60405180910390fd5b6112728161143d565b50565b61127e336114a0565b565b60006112a8836000018373ffffffffffffffffffffffffffffffffffffffff1660001b611503565b905092915050565b600033905090565b6112df8160008085815260200190815260200160002060000161128090919063ffffffff16565b15611347576112ec6112b0565b73ffffffffffffffffffffffffffffffffffffffff168173ffffffffffffffffffffffffffffffffffffffff16837f2f8788117e7eff1d82e926ec794901d17c78024a50270940304540a733656f0d60405160405180910390a45b5050565b6113728160008085815260200190815260200160002060000161157390919063ffffffff16565b156113da5761137f6112b0565b73ffffffffffffffffffffffffffffffffffffffff168173ffffffffffffffffffffffffffffffffffffffff16837ff6391f5c32d9c69d2a47ea670b442974b53935d1edc7fd64eb21e047a839171b60405160405180910390a45b5050565b60006113ed83600001836115a3565b60001c905092915050565b6000611420836000018373ffffffffffffffffffffffffffffffffffffffff1660001b611610565b905092915050565b600061143682600001611633565b9050919050565b61145a60405161144c90611e8f565b6040518091039020826107bd565b8073ffffffffffffffffffffffffffffffffffffffff167f6ff3aa2ea7b53070f6d9d07a445d338d89e8edef44250ffa8be19f53910d4a2e60405160405180910390a250565b6114bd6040516114af90611e8f565b604051809103902082610830565b8073ffffffffffffffffffffffffffffffffffffffff167f86e5bbceda94081c32220d685f37cc4e3ea7bb0be2dfbf0cb703579505a5390e60405160405180910390a250565b600061150f8383611610565b61156857826000018290806001815401808255809150506001900390600052602060002001600090919091909150558260000180549050836001016000848152602001908152602001600020819055506001905061156d565b600090505b92915050565b600061159b836000018373ffffffffffffffffffffffffffffffffffffffff1660001b611644565b905092915050565b6000818360000180549050116115ee576040517f08c379a00000000000000000000000000000000000000000000000000000000081526004016115e590611f78565b60405180910390fd5b8260000182815481106115fd57fe5b9060005260206000200154905092915050565b600080836001016000848152602001908152602001600020541415905092915050565b600081600001805490509050919050565b60008083600101600084815260200190815260200160002054905060008114611720576000600182039050600060018660000180549050039050600086600001828154811061168f57fe5b90600052602060002001549050808760000184815481106116ac57fe5b90600052602060002001819055506001830187600101600083815260200190815260200160002081905550866000018054806116e457fe5b60019003818190600052602060002001600090559055866001016000878152602001908152602001600020600090556001945050505050611726565b60009150505b92915050565b6040518061014001604052806000815260200160008152602001606081526020016060815260200160608152602001600015158152602001600073ffffffffffffffffffffffffffffffffffffffff16815260200160008152602001600015158152602001600081525090565b828054600181600116156101000203166002900490600052602060002090601f016020900481019282601f106117da57805160ff1916838001178555611808565b82800160010185558215611808579182015b828111156118075782518255916020019190600101906117ec565b5b5090506118159190611819565b5090565b61183b91905b8082111561183757600081600090555060010161181f565b5090565b90565b60008135905061184d81612387565b92915050565b6000813590506118628161239e565b92915050565b600081359050611877816123b5565b92915050565b60008083601f84011261188f57600080fd5b8235905067ffffffffffffffff8111156118a857600080fd5b6020830191508360018202830111156118c057600080fd5b9250929050565b6000813590506118d6816123cc565b92915050565b6000815190506118eb816123cc565b92915050565b60006020828403121561190357600080fd5b60006119118482850161183e565b91505092915050565b60006020828403121561192c57600080fd5b600061193a84828501611868565b91505092915050565b6000806040838503121561195657600080fd5b600061196485828601611868565b92505060206119758582860161183e565b9150509250929050565b6000806040838503121561199257600080fd5b60006119a085828601611868565b92505060206119b1858286016118c7565b9150509250929050565b60008060008060008060006080888a0312156119d657600080fd5b600088013567ffffffffffffffff8111156119f057600080fd5b6119fc8a828b0161187d565b9750975050602088013567ffffffffffffffff811115611a1b57600080fd5b611a278a828b0161187d565b9550955050604088013567ffffffffffffffff811115611a4657600080fd5b611a528a828b0161187d565b93509350506060611a658a828b01611853565b91505092959891949750929550565b600060208284031215611a8657600080fd5b6000611a94848285016118c7565b91505092915050565b600060208284031215611aaf57600080fd5b6000611abd848285016118dc565b91505092915050565b60008060408385031215611ad957600080fd5b6000611ae7858286016118c7565b9250506020611af8858286016118c7565b9150509250929050565b611b0b816122da565b82525050565b611b1a81612288565b82525050565b611b298161229a565b82525050565b611b38816122a6565b82525050565b611b47816122ec565b82525050565b6000611b59838561226c565b9350611b66838584612334565b611b6f83612376565b840190509392505050565b6000611b8582612261565b611b8f818561226c565b9350611b9f818560208601612343565b611ba881612376565b840191505092915050565b600081546001811660008114611bd05760018114611bf657611c3a565b607f6002830416611be1818761226c565b955060ff198316865260208601935050611c3a565b60028204611c04818761226c565b9550611c0f8561224c565b60005b82811015611c3157815481890152600182019150602081019050611c12565b80880195505050505b505092915050565b6000611c4f60228361226c565b91507f456e756d657261626c655365743a20696e646578206f7574206f6620626f756e60008301527f64730000000000000000000000000000000000000000000000000000000000006020830152604082019050919050565b6000611cb5602f8361226c565b91507f416363657373436f6e74726f6c3a2073656e646572206d75737420626520616e60008301527f2061646d696e20746f206772616e7400000000000000000000000000000000006020830152604082019050919050565b6000611d1b60308361226c565b91507f416363657373436f6e74726f6c3a2073656e646572206d75737420626520616e60008301527f2061646d696e20746f207265766f6b65000000000000000000000000000000006020830152604082019050919050565b6000611d8160068361227d565b91507f57726974657200000000000000000000000000000000000000000000000000006000830152600682019050919050565b6000611dc160308361226c565b91507f577269746572526f6c653a2063616c6c657220646f6573206e6f74206861766560008301527f207468652057726974657220726f6c65000000000000000000000000000000006020830152604082019050919050565b6000611e27602f8361226c565b91507f416363657373436f6e74726f6c3a2063616e206f6e6c792072656e6f756e636560008301527f20726f6c657320666f722073656c6600000000000000000000000000000000006020830152604082019050919050565b611e89816122d0565b82525050565b6000611e9a82611d74565b9150819050919050565b6000602082019050611eb96000830184611b11565b92915050565b6000602082019050611ed46000830184611b20565b92915050565b6000602082019050611eef6000830184611b2f565b92915050565b6000602082019050611f0a6000830184611b3e565b92915050565b600060a0820190508181036000830152611f2a8188611b7a565b90508181036020830152611f3e8187611b7a565b90508181036040830152611f528186611b7a565b9050611f616060830185611b20565b611f6e6080830184611e80565b9695505050505050565b60006020820190508181036000830152611f9181611c42565b9050919050565b60006020820190508181036000830152611fb181611ca8565b9050919050565b60006020820190508181036000830152611fd181611d0e565b9050919050565b60006020820190508181036000830152611ff181611db4565b9050919050565b6000602082019050818103600083015261201181611e1a565b9050919050565b600060208201905061202d6000830184611e80565b92915050565b600061012082019050612049600083018f611e80565b612056602083018e611e80565b8181036040830152612069818c8e611b4d565b9050818103606083015261207e818a8c611b4d565b9050818103608083015261209381888a611b4d565b90506120a260a0830187611b20565b6120af60c0830186611b02565b6120bc60e0830185611e80565b6120ca610100830184611e80565b9d9c50505050505050505050505050565b6000610140820190506120f1600083018d611e80565b6120fe602083018c611e80565b8181036040830152612110818b611b7a565b90508181036060830152612124818a611b7a565b905081810360808301526121388189611b7a565b905061214760a0830188611b20565b61215460c0830187611b11565b61216160e0830186611e80565b61216f610100830185611b20565b61217d610120830184611e80565b9b9a5050505050505050505050565b6000610160820190506121a2600083018e611e80565b6121af602083018d611e80565b6121bc604083018c611e80565b81810360608301526121ce818b611bb3565b905081810360808301526121e2818a611bb3565b905081810360a08301526121f68189611bb3565b905061220560c0830188611b20565b61221260e0830187611b11565b612220610100830186611e80565b61222e610120830185611b20565b61223c610140830184611e80565b9c9b505050505050505050505050565b60008190508160005260206000209050919050565b600081519050919050565b600082825260208201905092915050565b600081905092915050565b6000612293826122b0565b9050919050565b60008115159050919050565b6000819050919050565b600073ffffffffffffffffffffffffffffffffffffffff82169050919050565b6000819050919050565b60006122e582612310565b9050919050565b60006122f7826122fe565b9050919050565b6000612309826122b0565b9050919050565b600061231b82612322565b9050919050565b600061232d826122b0565b9050919050565b82818337600083830152505050565b60005b83811015612361578082015181840152602081019050612346565b83811115612370576000848401525b50505050565b6000601f19601f8301169050919050565b61239081612288565b811461239b57600080fd5b50565b6123a78161229a565b81146123b257600080fd5b50565b6123be816122a6565b81146123c957600080fd5b50565b6123d5816122d0565b81146123e057600080fd5b5056fea2646970667358221220511eab5b6454ebaec3e62f54781b4789f96ee4111fde972805615fb64ccf957064736f6c634300060b0033","opcodes":"PUSH1 0x80 PUSH1 0x40 MSTORE CALLVALUE DUP1 ISZERO PUSH3 0x11 JUMPI PUSH1 0x0 DUP1 REVERT JUMPDEST POP PUSH1 0x0 CALLER PUSH1 0x40 MLOAD PUSH1 0x20 ADD PUSH3 0x27 SWAP2 SWAP1 PUSH3 0x2E9 JUMP JUMPDEST PUSH1 0x40 MLOAD PUSH1 0x20 DUP2 DUP4 SUB SUB DUP2 MSTORE SWAP1 PUSH1 0x40 MSTORE DUP1 MLOAD SWAP1 PUSH1 0x20 ADD KECCAK256 SWAP1 POP PUSH3 0x66 PUSH1 0x40 MLOAD PUSH3 0x51 SWAP1 PUSH3 0x306 JUMP JUMPDEST PUSH1 0x40 MLOAD DUP1 SWAP2 SUB SWAP1 KECCAK256 DUP3 PUSH3 0x94 PUSH1 0x20 SHL PUSH1 0x20 SHR JUMP JUMPDEST PUSH3 0x8D PUSH1 0x40 MLOAD PUSH3 0x78 SWAP1 PUSH3 0x306 JUMP JUMPDEST PUSH1 0x40 MLOAD DUP1 SWAP2 SUB SWAP1 KECCAK256 CALLER PUSH3 0xF6 PUSH1 0x20 SHL PUSH1 0x20 SHR JUMP JUMPDEST POP PUSH3 0x391 JUMP JUMPDEST DUP1 PUSH1 0x0 DUP1 DUP5 DUP2 MSTORE PUSH1 0x20 ADD SWAP1 DUP2 MSTORE PUSH1 0x20 ADD PUSH1 0x0 KECCAK256 PUSH1 0x2 ADD SLOAD DUP4 PUSH32 0xBD79B86FFE0AB8E8776151514217CD7CACD52C909F66475C3AF44E129F0B00FF PUSH1 0x40 MLOAD PUSH1 0x40 MLOAD DUP1 SWAP2 SUB SWAP1 LOG4 DUP1 PUSH1 0x0 DUP1 DUP5 DUP2 MSTORE PUSH1 0x20 ADD SWAP1 DUP2 MSTORE PUSH1 0x20 ADD PUSH1 0x0 KECCAK256 PUSH1 0x2 ADD DUP2 SWAP1 SSTORE POP POP POP JUMP JUMPDEST PUSH3 0x108 DUP3 DUP3 PUSH3 0x10C PUSH1 0x20 SHL PUSH1 0x20 SHR JUMP JUMPDEST POP POP JUMP JUMPDEST PUSH3 0x13A DUP2 PUSH1 0x0 DUP1 DUP6 DUP2 MSTORE PUSH1 0x20 ADD SWAP1 DUP2 MSTORE PUSH1 0x20 ADD PUSH1 0x0 KECCAK256 PUSH1 0x0 ADD PUSH3 0x1AF PUSH1 0x20 SHL PUSH3 0x1280 OR SWAP1 SWAP2 SWAP1 PUSH1 0x20 SHR JUMP JUMPDEST ISZERO PUSH3 0x1AB JUMPI PUSH3 0x150 PUSH3 0x1E7 PUSH1 0x20 SHL PUSH1 0x20 SHR JUMP JUMPDEST PUSH20 0xFFFFFFFFFFFFFFFFFFFFFFFFFFFFFFFFFFFFFFFF AND DUP2 PUSH20 0xFFFFFFFFFFFFFFFFFFFFFFFFFFFFFFFFFFFFFFFF AND DUP4 PUSH32 0x2F8788117E7EFF1D82E926EC794901D17C78024A50270940304540A733656F0D PUSH1 0x40 MLOAD PUSH1 0x40 MLOAD DUP1 SWAP2 SUB SWAP1 LOG4 JUMPDEST POP POP JUMP JUMPDEST PUSH1 0x0 PUSH3 0x1DF DUP4 PUSH1 0x0 ADD DUP4 PUSH20 0xFFFFFFFFFFFFFFFFFFFFFFFFFFFFFFFFFFFFFFFF AND PUSH1 0x0 SHL PUSH3 0x1EF PUSH1 0x20 SHL PUSH1 0x20 SHR JUMP JUMPDEST SWAP1 POP SWAP3 SWAP2 POP POP JUMP JUMPDEST PUSH1 0x0 CALLER SWAP1 POP SWAP1 JUMP JUMPDEST PUSH1 0x0 PUSH3 0x203 DUP4 DUP4 PUSH3 0x269 PUSH1 0x20 SHL PUSH1 0x20 SHR JUMP JUMPDEST PUSH3 0x25E JUMPI DUP3 PUSH1 0x0 ADD DUP3 SWAP1 DUP1 PUSH1 0x1 DUP2 SLOAD ADD DUP1 DUP3 SSTORE DUP1 SWAP2 POP POP PUSH1 0x1 SWAP1 SUB SWAP1 PUSH1 0x0 MSTORE PUSH1 0x20 PUSH1 0x0 KECCAK256 ADD PUSH1 0x0 SWAP1 SWAP2 SWAP1 SWAP2 SWAP1 SWAP2 POP SSTORE DUP3 PUSH1 0x0 ADD DUP1 SLOAD SWAP1 POP DUP4 PUSH1 0x1 ADD PUSH1 0x0 DUP5 DUP2 MSTORE PUSH1 0x20 ADD SWAP1 DUP2 MSTORE PUSH1 0x20 ADD PUSH1 0x0 KECCAK256 DUP2 SWAP1 SSTORE POP PUSH1 0x1 SWAP1 POP PUSH3 0x263 JUMP JUMPDEST PUSH1 0x0 SWAP1 POP JUMPDEST SWAP3 SWAP2 POP POP JUMP JUMPDEST PUSH1 0x0 DUP1 DUP4 PUSH1 0x1 ADD PUSH1 0x0 DUP5 DUP2 MSTORE PUSH1 0x20 ADD SWAP1 DUP2 MSTORE PUSH1 0x20 ADD PUSH1 0x0 KECCAK256 SLOAD EQ ISZERO SWAP1 POP SWAP3 SWAP2 POP POP JUMP JUMPDEST PUSH3 0x2A1 PUSH3 0x29B DUP3 PUSH3 0x328 JUMP JUMPDEST PUSH3 0x35C JUMP JUMPDEST DUP3 MSTORE POP POP JUMP JUMPDEST PUSH1 0x0 PUSH3 0x2B6 PUSH1 0x6 DUP4 PUSH3 0x31D JUMP JUMPDEST SWAP2 POP PUSH32 0x5772697465720000000000000000000000000000000000000000000000000000 PUSH1 0x0 DUP4 ADD MSTORE PUSH1 0x6 DUP3 ADD SWAP1 POP SWAP2 SWAP1 POP JUMP JUMPDEST PUSH1 0x0 PUSH3 0x2F7 DUP3 DUP5 PUSH3 0x28C JUMP JUMPDEST PUSH1 0x14 DUP3 ADD SWAP2 POP DUP2 SWAP1 POP SWAP3 SWAP2 POP POP JUMP JUMPDEST PUSH1 0x0 PUSH3 0x313 DUP3 PUSH3 0x2A7 JUMP JUMPDEST SWAP2 POP DUP2 SWAP1 POP SWAP2 SWAP1 POP JUMP JUMPDEST PUSH1 0x0 DUP2 SWAP1 POP SWAP3 SWAP2 POP POP JUMP JUMPDEST PUSH1 0x0 PUSH3 0x335 DUP3 PUSH3 0x33C JUMP JUMPDEST SWAP1 POP SWAP2 SWAP1 POP JUMP JUMPDEST PUSH1 0x0 PUSH20 0xFFFFFFFFFFFFFFFFFFFFFFFFFFFFFFFFFFFFFFFF DUP3 AND SWAP1 POP SWAP2 SWAP1 POP JUMP JUMPDEST PUSH1 0x0 PUSH3 0x369 DUP3 PUSH3 0x370 JUMP JUMPDEST SWAP1 POP SWAP2 SWAP1 POP JUMP JUMPDEST PUSH1 0x0 PUSH3 0x37D DUP3 PUSH3 0x384 JUMP JUMPDEST SWAP1 POP SWAP2 SWAP1 POP JUMP JUMPDEST PUSH1 0x0 DUP2 PUSH1 0x60 SHL SWAP1 POP SWAP2 SWAP1 POP JUMP JUMPDEST PUSH2 0x2419 DUP1 PUSH3 0x3A1 PUSH1 0x0 CODECOPY PUSH1 0x0 RETURN INVALID PUSH1 0x80 PUSH1 0x40 MSTORE PUSH1 0x4 CALLDATASIZE LT PUSH2 0x114 JUMPI PUSH1 0x0 CALLDATALOAD PUSH1 0xE0 SHR DUP1 PUSH4 0x9010D07C GT PUSH2 0xA0 JUMPI DUP1 PUSH4 0xBF22C457 GT PUSH2 0x64 JUMPI DUP1 PUSH4 0xBF22C457 EQ PUSH2 0x3D1 JUMPI DUP1 PUSH4 0xCA15C873 EQ PUSH2 0x412 JUMPI DUP1 PUSH4 0xD547741F EQ PUSH2 0x44F JUMPI DUP1 PUSH4 0xDA2824A8 EQ PUSH2 0x478 JUMPI DUP1 PUSH4 0xDF4EB59C EQ PUSH2 0x4A1 JUMPI PUSH2 0x114 JUMP JUMPDEST DUP1 PUSH4 0x9010D07C EQ PUSH2 0x2C4 JUMPI DUP1 PUSH4 0x91D14854 EQ PUSH2 0x301 JUMPI DUP1 PUSH4 0x9212051C EQ PUSH2 0x33E JUMPI DUP1 PUSH4 0x995E4339 EQ PUSH2 0x369 JUMPI DUP1 PUSH4 0xA217FDDF EQ PUSH2 0x3A6 JUMPI PUSH2 0x114 JUMP JUMPDEST DUP1 PUSH4 0x2E716FB1 GT PUSH2 0xE7 JUMPI DUP1 PUSH4 0x2E716FB1 EQ PUSH2 0x202 JUMPI DUP1 PUSH4 0x2F2FF15D EQ PUSH2 0x22D JUMPI DUP1 PUSH4 0x36568ABE EQ PUSH2 0x256 JUMPI DUP1 PUSH4 0x56350BDF EQ PUSH2 0x27F JUMPI DUP1 PUSH4 0x628AFF1D EQ PUSH2 0x2A8 JUMPI PUSH2 0x114 JUMP JUMPDEST DUP1 PUSH4 0x180AEDF3 EQ PUSH2 0x119 JUMPI DUP1 PUSH4 0x19AB453C EQ PUSH2 0x15F JUMPI DUP1 PUSH4 0x248A9CA3 EQ PUSH2 0x188 JUMPI DUP1 PUSH4 0x2B29BA23 EQ PUSH2 0x1C5 JUMPI JUMPDEST PUSH1 0x0 DUP1 REVERT JUMPDEST CALLVALUE DUP1 ISZERO PUSH2 0x125 JUMPI PUSH1 0x0 DUP1 REVERT JUMPDEST POP PUSH2 0x140 PUSH1 0x4 DUP1 CALLDATASIZE SUB DUP2 ADD SWAP1 PUSH2 0x13B SWAP2 SWAP1 PUSH2 0x1A74 JUMP JUMPDEST PUSH2 0x4B8 JUMP JUMPDEST PUSH1 0x40 MLOAD PUSH2 0x156 SWAP11 SWAP10 SWAP9 SWAP8 SWAP7 SWAP6 SWAP5 SWAP4 SWAP3 SWAP2 SWAP1 PUSH2 0x20DB JUMP JUMPDEST PUSH1 0x40 MLOAD DUP1 SWAP2 SUB SWAP1 RETURN JUMPDEST CALLVALUE DUP1 ISZERO PUSH2 0x16B JUMPI PUSH1 0x0 DUP1 REVERT JUMPDEST POP PUSH2 0x186 PUSH1 0x4 DUP1 CALLDATASIZE SUB DUP2 ADD SWAP1 PUSH2 0x181 SWAP2 SWAP1 PUSH2 0x18F1 JUMP JUMPDEST PUSH2 0x70E JUMP JUMPDEST STOP JUMPDEST CALLVALUE DUP1 ISZERO PUSH2 0x194 JUMPI PUSH1 0x0 DUP1 REVERT JUMPDEST POP PUSH2 0x1AF PUSH1 0x4 DUP1 CALLDATASIZE SUB DUP2 ADD SWAP1 PUSH2 0x1AA SWAP2 SWAP1 PUSH2 0x191A JUMP JUMPDEST PUSH2 0x752 JUMP JUMPDEST PUSH1 0x40 MLOAD PUSH2 0x1BC SWAP2 SWAP1 PUSH2 0x1EDA JUMP JUMPDEST PUSH1 0x40 MLOAD DUP1 SWAP2 SUB SWAP1 RETURN JUMPDEST CALLVALUE DUP1 ISZERO PUSH2 0x1D1 JUMPI PUSH1 0x0 DUP1 REVERT JUMPDEST POP PUSH2 0x1EC PUSH1 0x4 DUP1 CALLDATASIZE SUB DUP2 ADD SWAP1 PUSH2 0x1E7 SWAP2 SWAP1 PUSH2 0x18F1 JUMP JUMPDEST PUSH2 0x771 JUMP JUMPDEST PUSH1 0x40 MLOAD PUSH2 0x1F9 SWAP2 SWAP1 PUSH2 0x1EBF JUMP JUMPDEST PUSH1 0x40 MLOAD DUP1 SWAP2 SUB SWAP1 RETURN JUMPDEST CALLVALUE DUP1 ISZERO PUSH2 0x20E JUMPI PUSH1 0x0 DUP1 REVERT JUMPDEST POP PUSH2 0x217 PUSH2 0x797 JUMP JUMPDEST PUSH1 0x40 MLOAD PUSH2 0x224 SWAP2 SWAP1 PUSH2 0x1EF5 JUMP JUMPDEST PUSH1 0x40 MLOAD DUP1 SWAP2 SUB SWAP1 RETURN JUMPDEST CALLVALUE DUP1 ISZERO PUSH2 0x239 JUMPI PUSH1 0x0 DUP1 REVERT JUMPDEST POP PUSH2 0x254 PUSH1 0x4 DUP1 CALLDATASIZE SUB DUP2 ADD SWAP1 PUSH2 0x24F SWAP2 SWAP1 PUSH2 0x1943 JUMP JUMPDEST PUSH2 0x7BD JUMP JUMPDEST STOP JUMPDEST CALLVALUE DUP1 ISZERO PUSH2 0x262 JUMPI PUSH1 0x0 DUP1 REVERT JUMPDEST POP PUSH2 0x27D PUSH1 0x4 DUP1 CALLDATASIZE SUB DUP2 ADD SWAP1 PUSH2 0x278 SWAP2 SWAP1 PUSH2 0x1943 JUMP JUMPDEST PUSH2 0x830 JUMP JUMPDEST STOP JUMPDEST CALLVALUE DUP1 ISZERO PUSH2 0x28B JUMPI PUSH1 0x0 DUP1 REVERT JUMPDEST POP PUSH2 0x2A6 PUSH1 0x4 DUP1 CALLDATASIZE SUB DUP2 ADD SWAP1 PUSH2 0x2A1 SWAP2 SWAP1 PUSH2 0x1AC6 JUMP JUMPDEST PUSH2 0x8B3 JUMP JUMPDEST STOP JUMPDEST PUSH2 0x2C2 PUSH1 0x4 DUP1 CALLDATASIZE SUB DUP2 ADD SWAP1 PUSH2 0x2BD SWAP2 SWAP1 PUSH2 0x19BB JUMP JUMPDEST PUSH2 0xA9B JUMP JUMPDEST STOP JUMPDEST CALLVALUE DUP1 ISZERO PUSH2 0x2D0 JUMPI PUSH1 0x0 DUP1 REVERT JUMPDEST POP PUSH2 0x2EB PUSH1 0x4 DUP1 CALLDATASIZE SUB DUP2 ADD SWAP1 PUSH2 0x2E6 SWAP2 SWAP1 PUSH2 0x197F JUMP JUMPDEST PUSH2 0xE00 JUMP JUMPDEST PUSH1 0x40 MLOAD PUSH2 0x2F8 SWAP2 SWAP1 PUSH2 0x1EA4 JUMP JUMPDEST PUSH1 0x40 MLOAD DUP1 SWAP2 SUB SWAP1 RETURN JUMPDEST CALLVALUE DUP1 ISZERO PUSH2 0x30D JUMPI PUSH1 0x0 DUP1 REVERT JUMPDEST POP PUSH2 0x328 PUSH1 0x4 DUP1 CALLDATASIZE SUB DUP2 ADD SWAP1 PUSH2 0x323 SWAP2 SWAP1 PUSH2 0x1943 JUMP JUMPDEST PUSH2 0xE31 JUMP JUMPDEST PUSH1 0x40 MLOAD PUSH2 0x335 SWAP2 SWAP1 PUSH2 0x1EBF JUMP JUMPDEST PUSH1 0x40 MLOAD DUP1 SWAP2 SUB SWAP1 RETURN JUMPDEST CALLVALUE DUP1 ISZERO PUSH2 0x34A JUMPI PUSH1 0x0 DUP1 REVERT JUMPDEST POP PUSH2 0x353 PUSH2 0xE62 JUMP JUMPDEST PUSH1 0x40 MLOAD PUSH2 0x360 SWAP2 SWAP1 PUSH2 0x2018 JUMP JUMPDEST PUSH1 0x40 MLOAD DUP1 SWAP2 SUB SWAP1 RETURN JUMPDEST CALLVALUE DUP1 ISZERO PUSH2 0x375 JUMPI PUSH1 0x0 DUP1 REVERT JUMPDEST POP PUSH2 0x390 PUSH1 0x4 DUP1 CALLDATASIZE SUB DUP2 ADD SWAP1 PUSH2 0x38B SWAP2 SWAP1 PUSH2 0x1A74 JUMP JUMPDEST PUSH2 0xE68 JUMP JUMPDEST PUSH1 0x40 MLOAD PUSH2 0x39D SWAP2 SWAP1 PUSH2 0x2018 JUMP JUMPDEST PUSH1 0x40 MLOAD DUP1 SWAP2 SUB SWAP1 RETURN JUMPDEST CALLVALUE DUP1 ISZERO PUSH2 0x3B2 JUMPI PUSH1 0x0 DUP1 REVERT JUMPDEST POP PUSH2 0x3BB PUSH2 0xE88 JUMP JUMPDEST PUSH1 0x40 MLOAD PUSH2 0x3C8 SWAP2 SWAP1 PUSH2 0x1EDA JUMP JUMPDEST PUSH1 0x40 MLOAD DUP1 SWAP2 SUB SWAP1 RETURN JUMPDEST CALLVALUE DUP1 ISZERO PUSH2 0x3DD JUMPI PUSH1 0x0 DUP1 REVERT JUMPDEST POP PUSH2 0x3F8 PUSH1 0x4 DUP1 CALLDATASIZE SUB DUP2 ADD SWAP1 PUSH2 0x3F3 SWAP2 SWAP1 PUSH2 0x1A74 JUMP JUMPDEST PUSH2 0xE8F JUMP JUMPDEST PUSH1 0x40 MLOAD PUSH2 0x409 SWAP6 SWAP5 SWAP4 SWAP3 SWAP2 SWAP1 PUSH2 0x1F10 JUMP JUMPDEST PUSH1 0x40 MLOAD DUP1 SWAP2 SUB SWAP1 RETURN JUMPDEST CALLVALUE DUP1 ISZERO PUSH2 0x41E JUMPI PUSH1 0x0 DUP1 REVERT JUMPDEST POP PUSH2 0x439 PUSH1 0x4 DUP1 CALLDATASIZE SUB DUP2 ADD SWAP1 PUSH2 0x434 SWAP2 SWAP1 PUSH2 0x191A JUMP JUMPDEST PUSH2 0x1188 JUMP JUMPDEST PUSH1 0x40 MLOAD PUSH2 0x446 SWAP2 SWAP1 PUSH2 0x2018 JUMP JUMPDEST PUSH1 0x40 MLOAD DUP1 SWAP2 SUB SWAP1 RETURN JUMPDEST CALLVALUE DUP1 ISZERO PUSH2 0x45B JUMPI PUSH1 0x0 DUP1 REVERT JUMPDEST POP PUSH2 0x476 PUSH1 0x4 DUP1 CALLDATASIZE SUB DUP2 ADD SWAP1 PUSH2 0x471 SWAP2 SWAP1 PUSH2 0x1943 JUMP JUMPDEST PUSH2 0x11AE JUMP JUMPDEST STOP JUMPDEST CALLVALUE DUP1 ISZERO PUSH2 0x484 JUMPI PUSH1 0x0 DUP1 REVERT JUMPDEST POP PUSH2 0x49F PUSH1 0x4 DUP1 CALLDATASIZE SUB DUP2 ADD SWAP1 PUSH2 0x49A SWAP2 SWAP1 PUSH2 0x18F1 JUMP JUMPDEST PUSH2 0x1221 JUMP JUMPDEST STOP JUMPDEST CALLVALUE DUP1 ISZERO PUSH2 0x4AD JUMPI PUSH1 0x0 DUP1 REVERT JUMPDEST POP PUSH2 0x4B6 PUSH2 0x1275 JUMP JUMPDEST STOP JUMPDEST PUSH1 0x1 PUSH1 0x20 MSTORE DUP1 PUSH1 0x0 MSTORE PUSH1 0x40 PUSH1 0x0 KECCAK256 PUSH1 0x0 SWAP2 POP SWAP1 POP DUP1 PUSH1 0x0 ADD SLOAD SWAP1 DUP1 PUSH1 0x1 ADD SLOAD SWAP1 DUP1 PUSH1 0x2 ADD DUP1 SLOAD PUSH1 0x1 DUP2 PUSH1 0x1 AND ISZERO PUSH2 0x100 MUL SUB AND PUSH1 0x2 SWAP1 DIV DUP1 PUSH1 0x1F ADD PUSH1 0x20 DUP1 SWAP2 DIV MUL PUSH1 0x20 ADD PUSH1 0x40 MLOAD SWAP1 DUP2 ADD PUSH1 0x40 MSTORE DUP1 SWAP3 SWAP2 SWAP1 DUP2 DUP2 MSTORE PUSH1 0x20 ADD DUP3 DUP1 SLOAD PUSH1 0x1 DUP2 PUSH1 0x1 AND ISZERO PUSH2 0x100 MUL SUB AND PUSH1 0x2 SWAP1 DIV DUP1 ISZERO PUSH2 0x570 JUMPI DUP1 PUSH1 0x1F LT PUSH2 0x545 JUMPI PUSH2 0x100 DUP1 DUP4 SLOAD DIV MUL DUP4 MSTORE SWAP2 PUSH1 0x20 ADD SWAP2 PUSH2 0x570 JUMP JUMPDEST DUP3 ADD SWAP2 SWAP1 PUSH1 0x0 MSTORE PUSH1 0x20 PUSH1 0x0 KECCAK256 SWAP1 JUMPDEST DUP2 SLOAD DUP2 MSTORE SWAP1 PUSH1 0x1 ADD SWAP1 PUSH1 0x20 ADD DUP1 DUP4 GT PUSH2 0x553 JUMPI DUP3 SWAP1 SUB PUSH1 0x1F AND DUP3 ADD SWAP2 JUMPDEST POP POP POP POP POP SWAP1 DUP1 PUSH1 0x3 ADD DUP1 SLOAD PUSH1 0x1 DUP2 PUSH1 0x1 AND ISZERO PUSH2 0x100 MUL SUB AND PUSH1 0x2 SWAP1 DIV DUP1 PUSH1 0x1F ADD PUSH1 0x20 DUP1 SWAP2 DIV MUL PUSH1 0x20 ADD PUSH1 0x40 MLOAD SWAP1 DUP2 ADD PUSH1 0x40 MSTORE DUP1 SWAP3 SWAP2 SWAP1 DUP2 DUP2 MSTORE PUSH1 0x20 ADD DUP3 DUP1 SLOAD PUSH1 0x1 DUP2 PUSH1 0x1 AND ISZERO PUSH2 0x100 MUL SUB AND PUSH1 0x2 SWAP1 DIV DUP1 ISZERO PUSH2 0x60E JUMPI DUP1 PUSH1 0x1F LT PUSH2 0x5E3 JUMPI PUSH2 0x100 DUP1 DUP4 SLOAD DIV MUL DUP4 MSTORE SWAP2 PUSH1 0x20 ADD SWAP2 PUSH2 0x60E JUMP JUMPDEST DUP3 ADD SWAP2 SWAP1 PUSH1 0x0 MSTORE PUSH1 0x20 PUSH1 0x0 KECCAK256 SWAP1 JUMPDEST DUP2 SLOAD DUP2 MSTORE SWAP1 PUSH1 0x1 ADD SWAP1 PUSH1 0x20 ADD DUP1 DUP4 GT PUSH2 0x5F1 JUMPI DUP3 SWAP1 SUB PUSH1 0x1F AND DUP3 ADD SWAP2 JUMPDEST POP POP POP POP POP SWAP1 DUP1 PUSH1 0x4 ADD DUP1 SLOAD PUSH1 0x1 DUP2 PUSH1 0x1 AND ISZERO PUSH2 0x100 MUL SUB AND PUSH1 0x2 SWAP1 DIV DUP1 PUSH1 0x1F ADD PUSH1 0x20 DUP1 SWAP2 DIV MUL PUSH1 0x20 ADD PUSH1 0x40 MLOAD SWAP1 DUP2 ADD PUSH1 0x40 MSTORE DUP1 SWAP3 SWAP2 SWAP1 DUP2 DUP2 MSTORE PUSH1 0x20 ADD DUP3 DUP1 SLOAD PUSH1 0x1 DUP2 PUSH1 0x1 AND ISZERO PUSH2 0x100 MUL SUB AND PUSH1 0x2 SWAP1 DIV DUP1 ISZERO PUSH2 0x6AC JUMPI DUP1 PUSH1 0x1F LT PUSH2 0x681 JUMPI PUSH2 0x100 DUP1 DUP4 SLOAD DIV MUL DUP4 MSTORE SWAP2 PUSH1 0x20 ADD SWAP2 PUSH2 0x6AC JUMP JUMPDEST DUP3 ADD SWAP2 SWAP1 PUSH1 0x0 MSTORE PUSH1 0x20 PUSH1 0x0 KECCAK256 SWAP1 JUMPDEST DUP2 SLOAD DUP2 MSTORE SWAP1 PUSH1 0x1 ADD SWAP1 PUSH1 0x20 ADD DUP1 DUP4 GT PUSH2 0x68F JUMPI DUP3 SWAP1 SUB PUSH1 0x1F AND DUP3 ADD SWAP2 JUMPDEST POP POP POP POP POP SWAP1 DUP1 PUSH1 0x5 ADD PUSH1 0x0 SWAP1 SLOAD SWAP1 PUSH2 0x100 EXP SWAP1 DIV PUSH1 0xFF AND SWAP1 DUP1 PUSH1 0x5 ADD PUSH1 0x1 SWAP1 SLOAD SWAP1 PUSH2 0x100 EXP SWAP1 DIV PUSH20 0xFFFFFFFFFFFFFFFFFFFFFFFFFFFFFFFFFFFFFFFF AND SWAP1 DUP1 PUSH1 0x6 ADD SLOAD SWAP1 DUP1 PUSH1 0x7 ADD PUSH1 0x0 SWAP1 SLOAD SWAP1 PUSH2 0x100 EXP SWAP1 DIV PUSH1 0xFF AND SWAP1 DUP1 PUSH1 0x8 ADD SLOAD SWAP1 POP DUP11 JUMP JUMPDEST DUP1 PUSH1 0x3 PUSH1 0x0 PUSH2 0x100 EXP DUP2 SLOAD DUP2 PUSH20 0xFFFFFFFFFFFFFFFFFFFFFFFFFFFFFFFFFFFFFFFF MUL NOT AND SWAP1 DUP4 PUSH20 0xFFFFFFFFFFFFFFFFFFFFFFFFFFFFFFFFFFFFFFFF AND MUL OR SWAP1 SSTORE POP POP JUMP JUMPDEST PUSH1 0x0 DUP1 PUSH1 0x0 DUP4 DUP2 MSTORE PUSH1 0x20 ADD SWAP1 DUP2 MSTORE PUSH1 0x20 ADD PUSH1 0x0 KECCAK256 PUSH1 0x2 ADD SLOAD SWAP1 POP SWAP2 SWAP1 POP JUMP JUMPDEST PUSH1 0x0 PUSH2 0x790 PUSH1 0x40 MLOAD PUSH2 0x782 SWAP1 PUSH2 0x1E8F JUMP JUMPDEST PUSH1 0x40 MLOAD DUP1 SWAP2 SUB SWAP1 KECCAK256 DUP4 PUSH2 0xE31 JUMP JUMPDEST SWAP1 POP SWAP2 SWAP1 POP JUMP JUMPDEST PUSH1 0x3 PUSH1 0x0 SWAP1 SLOAD SWAP1 PUSH2 0x100 EXP SWAP1 DIV PUSH20 0xFFFFFFFFFFFFFFFFFFFFFFFFFFFFFFFFFFFFFFFF AND DUP2 JUMP JUMPDEST PUSH2 0x7E3 PUSH1 0x0 DUP1 DUP5 DUP2 MSTORE PUSH1 0x20 ADD SWAP1 DUP2 MSTORE PUSH1 0x20 ADD PUSH1 0x0 KECCAK256 PUSH1 0x2 ADD SLOAD PUSH2 0x7DE PUSH2 0x12B0 JUMP JUMPDEST PUSH2 0xE31 JUMP JUMPDEST PUSH2 0x822 JUMPI PUSH1 0x40 MLOAD PUSH32 0x8C379A000000000000000000000000000000000000000000000000000000000 DUP2 MSTORE PUSH1 0x4 ADD PUSH2 0x819 SWAP1 PUSH2 0x1F98 JUMP JUMPDEST PUSH1 0x40 MLOAD DUP1 SWAP2 SUB SWAP1 REVERT JUMPDEST PUSH2 0x82C DUP3 DUP3 PUSH2 0x12B8 JUMP JUMPDEST POP POP JUMP JUMPDEST PUSH2 0x838 PUSH2 0x12B0 JUMP JUMPDEST PUSH20 0xFFFFFFFFFFFFFFFFFFFFFFFFFFFFFFFFFFFFFFFF AND DUP2 PUSH20 0xFFFFFFFFFFFFFFFFFFFFFFFFFFFFFFFFFFFFFFFF AND EQ PUSH2 0x8A5 JUMPI PUSH1 0x40 MLOAD PUSH32 0x8C379A000000000000000000000000000000000000000000000000000000000 DUP2 MSTORE PUSH1 0x4 ADD PUSH2 0x89C SWAP1 PUSH2 0x1FF8 JUMP JUMPDEST PUSH1 0x40 MLOAD DUP1 SWAP2 SUB SWAP1 REVERT JUMPDEST PUSH2 0x8AF DUP3 DUP3 PUSH2 0x134B JUMP JUMPDEST POP POP JUMP JUMPDEST PUSH2 0x8BC CALLER PUSH2 0x771 JUMP JUMPDEST PUSH2 0x8FB JUMPI PUSH1 0x40 MLOAD PUSH32 0x8C379A000000000000000000000000000000000000000000000000000000000 DUP2 MSTORE PUSH1 0x4 ADD PUSH2 0x8F2 SWAP1 PUSH2 0x1FD8 JUMP JUMPDEST PUSH1 0x40 MLOAD DUP1 SWAP2 SUB SWAP1 REVERT JUMPDEST PUSH1 0x0 PUSH1 0x1 PUSH1 0x0 DUP5 DUP2 MSTORE PUSH1 0x20 ADD SWAP1 DUP2 MSTORE PUSH1 0x20 ADD PUSH1 0x0 KECCAK256 SWAP1 POP PUSH1 0x0 PUSH1 0x3 PUSH1 0x0 SWAP1 SLOAD SWAP1 PUSH2 0x100 EXP SWAP1 DIV PUSH20 0xFFFFFFFFFFFFFFFFFFFFFFFFFFFFFFFFFFFFFFFF AND PUSH20 0xFFFFFFFFFFFFFFFFFFFFFFFFFFFFFFFFFFFFFFFF AND PUSH4 0x757991A8 PUSH1 0x40 MLOAD DUP2 PUSH4 0xFFFFFFFF AND PUSH1 0xE0 SHL DUP2 MSTORE PUSH1 0x4 ADD PUSH1 0x20 PUSH1 0x40 MLOAD DUP1 DUP4 SUB DUP2 DUP7 DUP1 EXTCODESIZE ISZERO DUP1 ISZERO PUSH2 0x97C JUMPI PUSH1 0x0 DUP1 REVERT JUMPDEST POP GAS STATICCALL ISZERO DUP1 ISZERO PUSH2 0x990 JUMPI RETURNDATASIZE PUSH1 0x0 DUP1 RETURNDATACOPY RETURNDATASIZE PUSH1 0x0 REVERT JUMPDEST POP POP POP POP PUSH1 0x40 MLOAD RETURNDATASIZE PUSH1 0x1F NOT PUSH1 0x1F DUP3 ADD AND DUP3 ADD DUP1 PUSH1 0x40 MSTORE POP DUP2 ADD SWAP1 PUSH2 0x9B4 SWAP2 SWAP1 PUSH2 0x1A9D JUMP JUMPDEST SWAP1 POP DUP2 PUSH1 0x5 ADD PUSH1 0x0 SWAP1 SLOAD SWAP1 PUSH2 0x100 EXP SWAP1 DIV PUSH1 0xFF AND PUSH2 0x9EA JUMPI PUSH1 0x1 DUP3 PUSH1 0x7 ADD PUSH1 0x0 PUSH2 0x100 EXP DUP2 SLOAD DUP2 PUSH1 0xFF MUL NOT AND SWAP1 DUP4 ISZERO ISZERO MUL OR SWAP1 SSTORE POP JUMPDEST PUSH32 0x9028BEA5BFA7ED26C48DF402D89085A995447DC8C1FB167CB92A3C7411B54480 DUP3 PUSH1 0x0 ADD SLOAD DUP5 DUP4 DUP6 PUSH1 0x2 ADD DUP7 PUSH1 0x3 ADD DUP8 PUSH1 0x4 ADD DUP9 PUSH1 0x5 ADD PUSH1 0x0 SWAP1 SLOAD SWAP1 PUSH2 0x100 EXP SWAP1 DIV PUSH1 0xFF AND DUP10 PUSH1 0x5 ADD PUSH1 0x1 SWAP1 SLOAD SWAP1 PUSH2 0x100 EXP SWAP1 DIV PUSH20 0xFFFFFFFFFFFFFFFFFFFFFFFFFFFFFFFFFFFFFFFF AND DUP11 PUSH1 0x6 ADD SLOAD DUP12 PUSH1 0x7 ADD PUSH1 0x0 SWAP1 SLOAD SWAP1 PUSH2 0x100 EXP SWAP1 DIV PUSH1 0xFF AND TIMESTAMP PUSH1 0x40 MLOAD PUSH2 0xA84 SWAP12 SWAP11 SWAP10 SWAP9 SWAP8 SWAP7 SWAP6 SWAP5 SWAP4 SWAP3 SWAP2 SWAP1 PUSH2 0x218C JUMP JUMPDEST PUSH1 0x40 MLOAD DUP1 SWAP2 SUB SWAP1 LOG1 DUP3 DUP3 PUSH1 0x8 ADD DUP2 SWAP1 SSTORE POP POP POP POP POP JUMP JUMPDEST PUSH1 0x1 PUSH1 0x2 SLOAD ADD PUSH1 0x2 DUP2 SWAP1 SSTORE POP PUSH1 0x0 PUSH1 0x3 PUSH1 0x0 SWAP1 SLOAD SWAP1 PUSH2 0x100 EXP SWAP1 DIV PUSH20 0xFFFFFFFFFFFFFFFFFFFFFFFFFFFFFFFFFFFFFFFF AND PUSH20 0xFFFFFFFFFFFFFFFFFFFFFFFFFFFFFFFFFFFFFFFF AND PUSH4 0x757991A8 PUSH1 0x40 MLOAD DUP2 PUSH4 0xFFFFFFFF AND PUSH1 0xE0 SHL DUP2 MSTORE PUSH1 0x4 ADD PUSH1 0x20 PUSH1 0x40 MLOAD DUP1 DUP4 SUB DUP2 DUP7 DUP1 EXTCODESIZE ISZERO DUP1 ISZERO PUSH2 0xB11 JUMPI PUSH1 0x0 DUP1 REVERT JUMPDEST POP GAS STATICCALL ISZERO DUP1 ISZERO PUSH2 0xB25 JUMPI RETURNDATASIZE PUSH1 0x0 DUP1 RETURNDATACOPY RETURNDATASIZE PUSH1 0x0 REVERT JUMPDEST POP POP POP POP PUSH1 0x40 MLOAD RETURNDATASIZE PUSH1 0x1F NOT PUSH1 0x1F DUP3 ADD AND DUP3 ADD DUP1 PUSH1 0x40 MSTORE POP DUP2 ADD SWAP1 PUSH2 0xB49 SWAP2 SWAP1 PUSH2 0x1A9D JUMP JUMPDEST SWAP1 POP PUSH2 0xB53 PUSH2 0x172C JUMP JUMPDEST PUSH1 0x40 MLOAD DUP1 PUSH2 0x140 ADD PUSH1 0x40 MSTORE DUP1 PUSH1 0x2 SLOAD DUP2 MSTORE PUSH1 0x20 ADD DUP4 DUP2 MSTORE PUSH1 0x20 ADD DUP11 DUP11 DUP1 DUP1 PUSH1 0x1F ADD PUSH1 0x20 DUP1 SWAP2 DIV MUL PUSH1 0x20 ADD PUSH1 0x40 MLOAD SWAP1 DUP2 ADD PUSH1 0x40 MSTORE DUP1 SWAP4 SWAP3 SWAP2 SWAP1 DUP2 DUP2 MSTORE PUSH1 0x20 ADD DUP4 DUP4 DUP1 DUP3 DUP5 CALLDATACOPY PUSH1 0x0 DUP2 DUP5 ADD MSTORE PUSH1 0x1F NOT PUSH1 0x1F DUP3 ADD AND SWAP1 POP DUP1 DUP4 ADD SWAP3 POP POP POP POP POP POP POP DUP2 MSTORE PUSH1 0x20 ADD DUP9 DUP9 DUP1 DUP1 PUSH1 0x1F ADD PUSH1 0x20 DUP1 SWAP2 DIV MUL PUSH1 0x20 ADD PUSH1 0x40 MLOAD SWAP1 DUP2 ADD PUSH1 0x40 MSTORE DUP1 SWAP4 SWAP3 SWAP2 SWAP1 DUP2 DUP2 MSTORE PUSH1 0x20 ADD DUP4 DUP4 DUP1 DUP3 DUP5 CALLDATACOPY PUSH1 0x0 DUP2 DUP5 ADD MSTORE PUSH1 0x1F NOT PUSH1 0x1F DUP3 ADD AND SWAP1 POP DUP1 DUP4 ADD SWAP3 POP POP POP POP POP POP POP DUP2 MSTORE PUSH1 0x20 ADD DUP7 DUP7 DUP1 DUP1 PUSH1 0x1F ADD PUSH1 0x20 DUP1 SWAP2 DIV MUL PUSH1 0x20 ADD PUSH1 0x40 MLOAD SWAP1 DUP2 ADD PUSH1 0x40 MSTORE DUP1 SWAP4 SWAP3 SWAP2 SWAP1 DUP2 DUP2 MSTORE PUSH1 0x20 ADD DUP4 DUP4 DUP1 DUP3 DUP5 CALLDATACOPY PUSH1 0x0 DUP2 DUP5 ADD MSTORE PUSH1 0x1F NOT PUSH1 0x1F DUP3 ADD AND SWAP1 POP DUP1 DUP4 ADD SWAP3 POP POP POP POP POP POP POP DUP2 MSTORE PUSH1 0x20 ADD DUP5 ISZERO ISZERO DUP2 MSTORE PUSH1 0x20 ADD CALLER PUSH20 0xFFFFFFFFFFFFFFFFFFFFFFFFFFFFFFFFFFFFFFFF AND DUP2 MSTORE PUSH1 0x20 ADD CALLVALUE DUP2 MSTORE PUSH1 0x20 ADD PUSH1 0x0 ISZERO ISZERO DUP2 MSTORE PUSH1 0x20 ADD PUSH1 0x0 DUP2 MSTORE POP SWAP1 POP DUP1 PUSH1 0x1 PUSH1 0x0 PUSH1 0x2 SLOAD DUP2 MSTORE PUSH1 0x20 ADD SWAP1 DUP2 MSTORE PUSH1 0x20 ADD PUSH1 0x0 KECCAK256 PUSH1 0x0 DUP3 ADD MLOAD DUP2 PUSH1 0x0 ADD SSTORE PUSH1 0x20 DUP3 ADD MLOAD DUP2 PUSH1 0x1 ADD SSTORE PUSH1 0x40 DUP3 ADD MLOAD DUP2 PUSH1 0x2 ADD SWAP1 DUP1 MLOAD SWAP1 PUSH1 0x20 ADD SWAP1 PUSH2 0xCCB SWAP3 SWAP2 SWAP1 PUSH2 0x1799 JUMP JUMPDEST POP PUSH1 0x60 DUP3 ADD MLOAD DUP2 PUSH1 0x3 ADD SWAP1 DUP1 MLOAD SWAP1 PUSH1 0x20 ADD SWAP1 PUSH2 0xCE8 SWAP3 SWAP2 SWAP1 PUSH2 0x1799 JUMP JUMPDEST POP PUSH1 0x80 DUP3 ADD MLOAD DUP2 PUSH1 0x4 ADD SWAP1 DUP1 MLOAD SWAP1 PUSH1 0x20 ADD SWAP1 PUSH2 0xD05 SWAP3 SWAP2 SWAP1 PUSH2 0x1799 JUMP JUMPDEST POP PUSH1 0xA0 DUP3 ADD MLOAD DUP2 PUSH1 0x5 ADD PUSH1 0x0 PUSH2 0x100 EXP DUP2 SLOAD DUP2 PUSH1 0xFF MUL NOT AND SWAP1 DUP4 ISZERO ISZERO MUL OR SWAP1 SSTORE POP PUSH1 0xC0 DUP3 ADD MLOAD DUP2 PUSH1 0x5 ADD PUSH1 0x1 PUSH2 0x100 EXP DUP2 SLOAD DUP2 PUSH20 0xFFFFFFFFFFFFFFFFFFFFFFFFFFFFFFFFFFFFFFFF MUL NOT AND SWAP1 DUP4 PUSH20 0xFFFFFFFFFFFFFFFFFFFFFFFFFFFFFFFFFFFFFFFF AND MUL OR SWAP1 SSTORE POP PUSH1 0xE0 DUP3 ADD MLOAD DUP2 PUSH1 0x6 ADD SSTORE PUSH2 0x100 DUP3 ADD MLOAD DUP2 PUSH1 0x7 ADD PUSH1 0x0 PUSH2 0x100 EXP DUP2 SLOAD DUP2 PUSH1 0xFF MUL NOT AND SWAP1 DUP4 ISZERO ISZERO MUL OR SWAP1 SSTORE POP PUSH2 0x120 DUP3 ADD MLOAD DUP2 PUSH1 0x8 ADD SSTORE SWAP1 POP POP PUSH32 0xD4AE17FDEB78E69409330361E8F8475F8027928C6F28EAE2195E5AE56570ABA0 PUSH1 0x2 SLOAD DUP4 DUP12 DUP12 DUP12 DUP12 DUP12 DUP12 DUP12 CALLER CALLVALUE TIMESTAMP PUSH1 0x40 MLOAD PUSH2 0xDED SWAP13 SWAP12 SWAP11 SWAP10 SWAP9 SWAP8 SWAP7 SWAP6 SWAP5 SWAP4 SWAP3 SWAP2 SWAP1 PUSH2 0x2033 JUMP JUMPDEST PUSH1 0x40 MLOAD DUP1 SWAP2 SUB SWAP1 LOG1 POP POP POP POP POP POP POP POP POP JUMP JUMPDEST PUSH1 0x0 PUSH2 0xE29 DUP3 PUSH1 0x0 DUP1 DUP7 DUP2 MSTORE PUSH1 0x20 ADD SWAP1 DUP2 MSTORE PUSH1 0x20 ADD PUSH1 0x0 KECCAK256 PUSH1 0x0 ADD PUSH2 0x13DE SWAP1 SWAP2 SWAP1 PUSH4 0xFFFFFFFF AND JUMP JUMPDEST SWAP1 POP SWAP3 SWAP2 POP POP JUMP JUMPDEST PUSH1 0x0 PUSH2 0xE5A DUP3 PUSH1 0x0 DUP1 DUP7 DUP2 MSTORE PUSH1 0x20 ADD SWAP1 DUP2 MSTORE PUSH1 0x20 ADD PUSH1 0x0 KECCAK256 PUSH1 0x0 ADD PUSH2 0x13F8 SWAP1 SWAP2 SWAP1 PUSH4 0xFFFFFFFF AND JUMP JUMPDEST SWAP1 POP SWAP3 SWAP2 POP POP JUMP JUMPDEST PUSH1 0x2 SLOAD DUP2 JUMP JUMPDEST PUSH1 0x0 PUSH1 0x1 PUSH1 0x0 DUP4 DUP2 MSTORE PUSH1 0x20 ADD SWAP1 DUP2 MSTORE PUSH1 0x20 ADD PUSH1 0x0 KECCAK256 PUSH1 0x8 ADD SLOAD SWAP1 POP SWAP2 SWAP1 POP JUMP JUMPDEST PUSH1 0x0 DUP1 SHL DUP2 JUMP JUMPDEST PUSH1 0x60 DUP1 PUSH1 0x60 PUSH1 0x0 DUP1 PUSH2 0xE9F PUSH2 0x172C JUMP JUMPDEST PUSH1 0x1 PUSH1 0x0 DUP9 DUP2 MSTORE PUSH1 0x20 ADD SWAP1 DUP2 MSTORE PUSH1 0x20 ADD PUSH1 0x0 KECCAK256 PUSH1 0x40 MLOAD DUP1 PUSH2 0x140 ADD PUSH1 0x40 MSTORE SWAP1 DUP2 PUSH1 0x0 DUP3 ADD SLOAD DUP2 MSTORE PUSH1 0x20 ADD PUSH1 0x1 DUP3 ADD SLOAD DUP2 MSTORE PUSH1 0x20 ADD PUSH1 0x2 DUP3 ADD DUP1 SLOAD PUSH1 0x1 DUP2 PUSH1 0x1 AND ISZERO PUSH2 0x100 MUL SUB AND PUSH1 0x2 SWAP1 DIV DUP1 PUSH1 0x1F ADD PUSH1 0x20 DUP1 SWAP2 DIV MUL PUSH1 0x20 ADD PUSH1 0x40 MLOAD SWAP1 DUP2 ADD PUSH1 0x40 MSTORE DUP1 SWAP3 SWAP2 SWAP1 DUP2 DUP2 MSTORE PUSH1 0x20 ADD DUP3 DUP1 SLOAD PUSH1 0x1 DUP2 PUSH1 0x1 AND ISZERO PUSH2 0x100 MUL SUB AND PUSH1 0x2 SWAP1 DIV DUP1 ISZERO PUSH2 0xF6B JUMPI DUP1 PUSH1 0x1F LT PUSH2 0xF40 JUMPI PUSH2 0x100 DUP1 DUP4 SLOAD DIV MUL DUP4 MSTORE SWAP2 PUSH1 0x20 ADD SWAP2 PUSH2 0xF6B JUMP JUMPDEST DUP3 ADD SWAP2 SWAP1 PUSH1 0x0 MSTORE PUSH1 0x20 PUSH1 0x0 KECCAK256 SWAP1 JUMPDEST DUP2 SLOAD DUP2 MSTORE SWAP1 PUSH1 0x1 ADD SWAP1 PUSH1 0x20 ADD DUP1 DUP4 GT PUSH2 0xF4E JUMPI DUP3 SWAP1 SUB PUSH1 0x1F AND DUP3 ADD SWAP2 JUMPDEST POP POP POP POP POP DUP2 MSTORE PUSH1 0x20 ADD PUSH1 0x3 DUP3 ADD DUP1 SLOAD PUSH1 0x1 DUP2 PUSH1 0x1 AND ISZERO PUSH2 0x100 MUL SUB AND PUSH1 0x2 SWAP1 DIV DUP1 PUSH1 0x1F ADD PUSH1 0x20 DUP1 SWAP2 DIV MUL PUSH1 0x20 ADD PUSH1 0x40 MLOAD SWAP1 DUP2 ADD PUSH1 0x40 MSTORE DUP1 SWAP3 SWAP2 SWAP1 DUP2 DUP2 MSTORE PUSH1 0x20 ADD DUP3 DUP1 SLOAD PUSH1 0x1 DUP2 PUSH1 0x1 AND ISZERO PUSH2 0x100 MUL SUB AND PUSH1 0x2 SWAP1 DIV DUP1 ISZERO PUSH2 0x100D JUMPI DUP1 PUSH1 0x1F LT PUSH2 0xFE2 JUMPI PUSH2 0x100 DUP1 DUP4 SLOAD DIV MUL DUP4 MSTORE SWAP2 PUSH1 0x20 ADD SWAP2 PUSH2 0x100D JUMP JUMPDEST DUP3 ADD SWAP2 SWAP1 PUSH1 0x0 MSTORE PUSH1 0x20 PUSH1 0x0 KECCAK256 SWAP1 JUMPDEST DUP2 SLOAD DUP2 MSTORE SWAP1 PUSH1 0x1 ADD SWAP1 PUSH1 0x20 ADD DUP1 DUP4 GT PUSH2 0xFF0 JUMPI DUP3 SWAP1 SUB PUSH1 0x1F AND DUP3 ADD SWAP2 JUMPDEST POP POP POP POP POP DUP2 MSTORE PUSH1 0x20 ADD PUSH1 0x4 DUP3 ADD DUP1 SLOAD PUSH1 0x1 DUP2 PUSH1 0x1 AND ISZERO PUSH2 0x100 MUL SUB AND PUSH1 0x2 SWAP1 DIV DUP1 PUSH1 0x1F ADD PUSH1 0x20 DUP1 SWAP2 DIV MUL PUSH1 0x20 ADD PUSH1 0x40 MLOAD SWAP1 DUP2 ADD PUSH1 0x40 MSTORE DUP1 SWAP3 SWAP2 SWAP1 DUP2 DUP2 MSTORE PUSH1 0x20 ADD DUP3 DUP1 SLOAD PUSH1 0x1 DUP2 PUSH1 0x1 AND ISZERO PUSH2 0x100 MUL SUB AND PUSH1 0x2 SWAP1 DIV DUP1 ISZERO PUSH2 0x10AF JUMPI DUP1 PUSH1 0x1F LT PUSH2 0x1084 JUMPI PUSH2 0x100 DUP1 DUP4 SLOAD DIV MUL DUP4 MSTORE SWAP2 PUSH1 0x20 ADD SWAP2 PUSH2 0x10AF JUMP JUMPDEST DUP3 ADD SWAP2 SWAP1 PUSH1 0x0 MSTORE PUSH1 0x20 PUSH1 0x0 KECCAK256 SWAP1 JUMPDEST DUP2 SLOAD DUP2 MSTORE SWAP1 PUSH1 0x1 ADD SWAP1 PUSH1 0x20 ADD DUP1 DUP4 GT PUSH2 0x1092 JUMPI DUP3 SWAP1 SUB PUSH1 0x1F AND DUP3 ADD SWAP2 JUMPDEST POP POP POP POP POP DUP2 MSTORE PUSH1 0x20 ADD PUSH1 0x5 DUP3 ADD PUSH1 0x0 SWAP1 SLOAD SWAP1 PUSH2 0x100 EXP SWAP1 DIV PUSH1 0xFF AND ISZERO ISZERO ISZERO ISZERO DUP2 MSTORE PUSH1 0x20 ADD PUSH1 0x5 DUP3 ADD PUSH1 0x1 SWAP1 SLOAD SWAP1 PUSH2 0x100 EXP SWAP1 DIV PUSH20 0xFFFFFFFFFFFFFFFFFFFFFFFFFFFFFFFFFFFFFFFF AND PUSH20 0xFFFFFFFFFFFFFFFFFFFFFFFFFFFFFFFFFFFFFFFF AND PUSH20 0xFFFFFFFFFFFFFFFFFFFFFFFFFFFFFFFFFFFFFFFF AND DUP2 MSTORE PUSH1 0x20 ADD PUSH1 0x6 DUP3 ADD SLOAD DUP2 MSTORE PUSH1 0x20 ADD PUSH1 0x7 DUP3 ADD PUSH1 0x0 SWAP1 SLOAD SWAP1 PUSH2 0x100 EXP SWAP1 DIV PUSH1 0xFF AND ISZERO ISZERO ISZERO ISZERO DUP2 MSTORE PUSH1 0x20 ADD PUSH1 0x8 DUP3 ADD SLOAD DUP2 MSTORE POP POP SWAP1 POP DUP1 PUSH1 0x40 ADD MLOAD DUP2 PUSH1 0x60 ADD MLOAD DUP3 PUSH1 0x80 ADD MLOAD DUP4 PUSH1 0xA0 ADD MLOAD DUP5 PUSH2 0x120 ADD MLOAD SWAP6 POP SWAP6 POP SWAP6 POP SWAP6 POP SWAP6 POP POP SWAP2 SWAP4 SWAP6 SWAP1 SWAP3 SWAP5 POP JUMP JUMPDEST PUSH1 0x0 PUSH2 0x11A7 PUSH1 0x0 DUP1 DUP5 DUP2 MSTORE PUSH1 0x20 ADD SWAP1 DUP2 MSTORE PUSH1 0x20 ADD PUSH1 0x0 KECCAK256 PUSH1 0x0 ADD PUSH2 0x1428 JUMP JUMPDEST SWAP1 POP SWAP2 SWAP1 POP JUMP JUMPDEST PUSH2 0x11D4 PUSH1 0x0 DUP1 DUP5 DUP2 MSTORE PUSH1 0x20 ADD SWAP1 DUP2 MSTORE PUSH1 0x20 ADD PUSH1 0x0 KECCAK256 PUSH1 0x2 ADD SLOAD PUSH2 0x11CF PUSH2 0x12B0 JUMP JUMPDEST PUSH2 0xE31 JUMP JUMPDEST PUSH2 0x1213 JUMPI PUSH1 0x40 MLOAD PUSH32 0x8C379A000000000000000000000000000000000000000000000000000000000 DUP2 MSTORE PUSH1 0x4 ADD PUSH2 0x120A SWAP1 PUSH2 0x1FB8 JUMP JUMPDEST PUSH1 0x40 MLOAD DUP1 SWAP2 SUB SWAP1 REVERT JUMPDEST PUSH2 0x121D DUP3 DUP3 PUSH2 0x134B JUMP JUMPDEST POP POP JUMP JUMPDEST PUSH2 0x122A CALLER PUSH2 0x771 JUMP JUMPDEST PUSH2 0x1269 JUMPI PUSH1 0x40 MLOAD PUSH32 0x8C379A000000000000000000000000000000000000000000000000000000000 DUP2 MSTORE PUSH1 0x4 ADD PUSH2 0x1260 SWAP1 PUSH2 0x1FD8 JUMP JUMPDEST PUSH1 0x40 MLOAD DUP1 SWAP2 SUB SWAP1 REVERT JUMPDEST PUSH2 0x1272 DUP2 PUSH2 0x143D JUMP JUMPDEST POP JUMP JUMPDEST PUSH2 0x127E CALLER PUSH2 0x14A0 JUMP JUMPDEST JUMP JUMPDEST PUSH1 0x0 PUSH2 0x12A8 DUP4 PUSH1 0x0 ADD DUP4 PUSH20 0xFFFFFFFFFFFFFFFFFFFFFFFFFFFFFFFFFFFFFFFF AND PUSH1 0x0 SHL PUSH2 0x1503 JUMP JUMPDEST SWAP1 POP SWAP3 SWAP2 POP POP JUMP JUMPDEST PUSH1 0x0 CALLER SWAP1 POP SWAP1 JUMP JUMPDEST PUSH2 0x12DF DUP2 PUSH1 0x0 DUP1 DUP6 DUP2 MSTORE PUSH1 0x20 ADD SWAP1 DUP2 MSTORE PUSH1 0x20 ADD PUSH1 0x0 KECCAK256 PUSH1 0x0 ADD PUSH2 0x1280 SWAP1 SWAP2 SWAP1 PUSH4 0xFFFFFFFF AND JUMP JUMPDEST ISZERO PUSH2 0x1347 JUMPI PUSH2 0x12EC PUSH2 0x12B0 JUMP JUMPDEST PUSH20 0xFFFFFFFFFFFFFFFFFFFFFFFFFFFFFFFFFFFFFFFF AND DUP2 PUSH20 0xFFFFFFFFFFFFFFFFFFFFFFFFFFFFFFFFFFFFFFFF AND DUP4 PUSH32 0x2F8788117E7EFF1D82E926EC794901D17C78024A50270940304540A733656F0D PUSH1 0x40 MLOAD PUSH1 0x40 MLOAD DUP1 SWAP2 SUB SWAP1 LOG4 JUMPDEST POP POP JUMP JUMPDEST PUSH2 0x1372 DUP2 PUSH1 0x0 DUP1 DUP6 DUP2 MSTORE PUSH1 0x20 ADD SWAP1 DUP2 MSTORE PUSH1 0x20 ADD PUSH1 0x0 KECCAK256 PUSH1 0x0 ADD PUSH2 0x1573 SWAP1 SWAP2 SWAP1 PUSH4 0xFFFFFFFF AND JUMP JUMPDEST ISZERO PUSH2 0x13DA JUMPI PUSH2 0x137F PUSH2 0x12B0 JUMP JUMPDEST PUSH20 0xFFFFFFFFFFFFFFFFFFFFFFFFFFFFFFFFFFFFFFFF AND DUP2 PUSH20 0xFFFFFFFFFFFFFFFFFFFFFFFFFFFFFFFFFFFFFFFF AND DUP4 PUSH32 0xF6391F5C32D9C69D2A47EA670B442974B53935D1EDC7FD64EB21E047A839171B PUSH1 0x40 MLOAD PUSH1 0x40 MLOAD DUP1 SWAP2 SUB SWAP1 LOG4 JUMPDEST POP POP JUMP JUMPDEST PUSH1 0x0 PUSH2 0x13ED DUP4 PUSH1 0x0 ADD DUP4 PUSH2 0x15A3 JUMP JUMPDEST PUSH1 0x0 SHR SWAP1 POP SWAP3 SWAP2 POP POP JUMP JUMPDEST PUSH1 0x0 PUSH2 0x1420 DUP4 PUSH1 0x0 ADD DUP4 PUSH20 0xFFFFFFFFFFFFFFFFFFFFFFFFFFFFFFFFFFFFFFFF AND PUSH1 0x0 SHL PUSH2 0x1610 JUMP JUMPDEST SWAP1 POP SWAP3 SWAP2 POP POP JUMP JUMPDEST PUSH1 0x0 PUSH2 0x1436 DUP3 PUSH1 0x0 ADD PUSH2 0x1633 JUMP JUMPDEST SWAP1 POP SWAP2 SWAP1 POP JUMP JUMPDEST PUSH2 0x145A PUSH1 0x40 MLOAD PUSH2 0x144C SWAP1 PUSH2 0x1E8F JUMP JUMPDEST PUSH1 0x40 MLOAD DUP1 SWAP2 SUB SWAP1 KECCAK256 DUP3 PUSH2 0x7BD JUMP JUMPDEST DUP1 PUSH20 0xFFFFFFFFFFFFFFFFFFFFFFFFFFFFFFFFFFFFFFFF AND PUSH32 0x6FF3AA2EA7B53070F6D9D07A445D338D89E8EDEF44250FFA8BE19F53910D4A2E PUSH1 0x40 MLOAD PUSH1 0x40 MLOAD DUP1 SWAP2 SUB SWAP1 LOG2 POP JUMP JUMPDEST PUSH2 0x14BD PUSH1 0x40 MLOAD PUSH2 0x14AF SWAP1 PUSH2 0x1E8F JUMP JUMPDEST PUSH1 0x40 MLOAD DUP1 SWAP2 SUB SWAP1 KECCAK256 DUP3 PUSH2 0x830 JUMP JUMPDEST DUP1 PUSH20 0xFFFFFFFFFFFFFFFFFFFFFFFFFFFFFFFFFFFFFFFF AND PUSH32 0x86E5BBCEDA94081C32220D685F37CC4E3EA7BB0BE2DFBF0CB703579505A5390E PUSH1 0x40 MLOAD PUSH1 0x40 MLOAD DUP1 SWAP2 SUB SWAP1 LOG2 POP JUMP JUMPDEST PUSH1 0x0 PUSH2 0x150F DUP4 DUP4 PUSH2 0x1610 JUMP JUMPDEST PUSH2 0x1568 JUMPI DUP3 PUSH1 0x0 ADD DUP3 SWAP1 DUP1 PUSH1 0x1 DUP2 SLOAD ADD DUP1 DUP3 SSTORE DUP1 SWAP2 POP POP PUSH1 0x1 SWAP1 SUB SWAP1 PUSH1 0x0 MSTORE PUSH1 0x20 PUSH1 0x0 KECCAK256 ADD PUSH1 0x0 SWAP1 SWAP2 SWAP1 SWAP2 SWAP1 SWAP2 POP SSTORE DUP3 PUSH1 0x0 ADD DUP1 SLOAD SWAP1 POP DUP4 PUSH1 0x1 ADD PUSH1 0x0 DUP5 DUP2 MSTORE PUSH1 0x20 ADD SWAP1 DUP2 MSTORE PUSH1 0x20 ADD PUSH1 0x0 KECCAK256 DUP2 SWAP1 SSTORE POP PUSH1 0x1 SWAP1 POP PUSH2 0x156D JUMP JUMPDEST PUSH1 0x0 SWAP1 POP JUMPDEST SWAP3 SWAP2 POP POP JUMP JUMPDEST PUSH1 0x0 PUSH2 0x159B DUP4 PUSH1 0x0 ADD DUP4 PUSH20 0xFFFFFFFFFFFFFFFFFFFFFFFFFFFFFFFFFFFFFFFF AND PUSH1 0x0 SHL PUSH2 0x1644 JUMP JUMPDEST SWAP1 POP SWAP3 SWAP2 POP POP JUMP JUMPDEST PUSH1 0x0 DUP2 DUP4 PUSH1 0x0 ADD DUP1 SLOAD SWAP1 POP GT PUSH2 0x15EE JUMPI PUSH1 0x40 MLOAD PUSH32 0x8C379A000000000000000000000000000000000000000000000000000000000 DUP2 MSTORE PUSH1 0x4 ADD PUSH2 0x15E5 SWAP1 PUSH2 0x1F78 JUMP JUMPDEST PUSH1 0x40 MLOAD DUP1 SWAP2 SUB SWAP1 REVERT JUMPDEST DUP3 PUSH1 0x0 ADD DUP3 DUP2 SLOAD DUP2 LT PUSH2 0x15FD JUMPI INVALID JUMPDEST SWAP1 PUSH1 0x0 MSTORE PUSH1 0x20 PUSH1 0x0 KECCAK256 ADD SLOAD SWAP1 POP SWAP3 SWAP2 POP POP JUMP JUMPDEST PUSH1 0x0 DUP1 DUP4 PUSH1 0x1 ADD PUSH1 0x0 DUP5 DUP2 MSTORE PUSH1 0x20 ADD SWAP1 DUP2 MSTORE PUSH1 0x20 ADD PUSH1 0x0 KECCAK256 SLOAD EQ ISZERO SWAP1 POP SWAP3 SWAP2 POP POP JUMP JUMPDEST PUSH1 0x0 DUP2 PUSH1 0x0 ADD DUP1 SLOAD SWAP1 POP SWAP1 POP SWAP2 SWAP1 POP JUMP JUMPDEST PUSH1 0x0 DUP1 DUP4 PUSH1 0x1 ADD PUSH1 0x0 DUP5 DUP2 MSTORE PUSH1 0x20 ADD SWAP1 DUP2 MSTORE PUSH1 0x20 ADD PUSH1 0x0 KECCAK256 SLOAD SWAP1 POP PUSH1 0x0 DUP2 EQ PUSH2 0x1720 JUMPI PUSH1 0x0 PUSH1 0x1 DUP3 SUB SWAP1 POP PUSH1 0x0 PUSH1 0x1 DUP7 PUSH1 0x0 ADD DUP1 SLOAD SWAP1 POP SUB SWAP1 POP PUSH1 0x0 DUP7 PUSH1 0x0 ADD DUP3 DUP2 SLOAD DUP2 LT PUSH2 0x168F JUMPI INVALID JUMPDEST SWAP1 PUSH1 0x0 MSTORE PUSH1 0x20 PUSH1 0x0 KECCAK256 ADD SLOAD SWAP1 POP DUP1 DUP8 PUSH1 0x0 ADD DUP5 DUP2 SLOAD DUP2 LT PUSH2 0x16AC JUMPI INVALID JUMPDEST SWAP1 PUSH1 0x0 MSTORE PUSH1 0x20 PUSH1 0x0 KECCAK256 ADD DUP2 SWAP1 SSTORE POP PUSH1 0x1 DUP4 ADD DUP8 PUSH1 0x1 ADD PUSH1 0x0 DUP4 DUP2 MSTORE PUSH1 0x20 ADD SWAP1 DUP2 MSTORE PUSH1 0x20 ADD PUSH1 0x0 KECCAK256 DUP2 SWAP1 SSTORE POP DUP7 PUSH1 0x0 ADD DUP1 SLOAD DUP1 PUSH2 0x16E4 JUMPI INVALID JUMPDEST PUSH1 0x1 SWAP1 SUB DUP2 DUP2 SWAP1 PUSH1 0x0 MSTORE PUSH1 0x20 PUSH1 0x0 KECCAK256 ADD PUSH1 0x0 SWAP1 SSTORE SWAP1 SSTORE DUP7 PUSH1 0x1 ADD PUSH1 0x0 DUP8 DUP2 MSTORE PUSH1 0x20 ADD SWAP1 DUP2 MSTORE PUSH1 0x20 ADD PUSH1 0x0 KECCAK256 PUSH1 0x0 SWAP1 SSTORE PUSH1 0x1 SWAP5 POP POP POP POP POP PUSH2 0x1726 JUMP JUMPDEST PUSH1 0x0 SWAP2 POP POP JUMPDEST SWAP3 SWAP2 POP POP JUMP JUMPDEST PUSH1 0x40 MLOAD DUP1 PUSH2 0x140 ADD PUSH1 0x40 MSTORE DUP1 PUSH1 0x0 DUP2 MSTORE PUSH1 0x20 ADD PUSH1 0x0 DUP2 MSTORE PUSH1 0x20 ADD PUSH1 0x60 DUP2 MSTORE PUSH1 0x20 ADD PUSH1 0x60 DUP2 MSTORE PUSH1 0x20 ADD PUSH1 0x60 DUP2 MSTORE PUSH1 0x20 ADD PUSH1 0x0 ISZERO ISZERO DUP2 MSTORE PUSH1 0x20 ADD PUSH1 0x0 PUSH20 0xFFFFFFFFFFFFFFFFFFFFFFFFFFFFFFFFFFFFFFFF AND DUP2 MSTORE PUSH1 0x20 ADD PUSH1 0x0 DUP2 MSTORE PUSH1 0x20 ADD PUSH1 0x0 ISZERO ISZERO DUP2 MSTORE PUSH1 0x20 ADD PUSH1 0x0 DUP2 MSTORE POP SWAP1 JUMP JUMPDEST DUP3 DUP1 SLOAD PUSH1 0x1 DUP2 PUSH1 0x1 AND ISZERO PUSH2 0x100 MUL SUB AND PUSH1 0x2 SWAP1 DIV SWAP1 PUSH1 0x0 MSTORE PUSH1 0x20 PUSH1 0x0 KECCAK256 SWAP1 PUSH1 0x1F ADD PUSH1 0x20 SWAP1 DIV DUP2 ADD SWAP3 DUP3 PUSH1 0x1F LT PUSH2 0x17DA JUMPI DUP1 MLOAD PUSH1 0xFF NOT AND DUP4 DUP1 ADD OR DUP6 SSTORE PUSH2 0x1808 JUMP JUMPDEST DUP3 DUP1 ADD PUSH1 0x1 ADD DUP6 SSTORE DUP3 ISZERO PUSH2 0x1808 JUMPI SWAP2 DUP3 ADD JUMPDEST DUP3 DUP2 GT ISZERO PUSH2 0x1807 JUMPI DUP3 MLOAD DUP3 SSTORE SWAP2 PUSH1 0x20 ADD SWAP2 SWAP1 PUSH1 0x1 ADD SWAP1 PUSH2 0x17EC JUMP JUMPDEST JUMPDEST POP SWAP1 POP PUSH2 0x1815 SWAP2 SWAP1 PUSH2 0x1819 JUMP JUMPDEST POP SWAP1 JUMP JUMPDEST PUSH2 0x183B SWAP2 SWAP1 JUMPDEST DUP1 DUP3 GT ISZERO PUSH2 0x1837 JUMPI PUSH1 0x0 DUP2 PUSH1 0x0 SWAP1 SSTORE POP PUSH1 0x1 ADD PUSH2 0x181F JUMP JUMPDEST POP SWAP1 JUMP JUMPDEST SWAP1 JUMP JUMPDEST PUSH1 0x0 DUP2 CALLDATALOAD SWAP1 POP PUSH2 0x184D DUP2 PUSH2 0x2387 JUMP JUMPDEST SWAP3 SWAP2 POP POP JUMP JUMPDEST PUSH1 0x0 DUP2 CALLDATALOAD SWAP1 POP PUSH2 0x1862 DUP2 PUSH2 0x239E JUMP JUMPDEST SWAP3 SWAP2 POP POP JUMP JUMPDEST PUSH1 0x0 DUP2 CALLDATALOAD SWAP1 POP PUSH2 0x1877 DUP2 PUSH2 0x23B5 JUMP JUMPDEST SWAP3 SWAP2 POP POP JUMP JUMPDEST PUSH1 0x0 DUP1 DUP4 PUSH1 0x1F DUP5 ADD SLT PUSH2 0x188F JUMPI PUSH1 0x0 DUP1 REVERT JUMPDEST DUP3 CALLDATALOAD SWAP1 POP PUSH8 0xFFFFFFFFFFFFFFFF DUP2 GT ISZERO PUSH2 0x18A8 JUMPI PUSH1 0x0 DUP1 REVERT JUMPDEST PUSH1 0x20 DUP4 ADD SWAP2 POP DUP4 PUSH1 0x1 DUP3 MUL DUP4 ADD GT ISZERO PUSH2 0x18C0 JUMPI PUSH1 0x0 DUP1 REVERT JUMPDEST SWAP3 POP SWAP3 SWAP1 POP JUMP JUMPDEST PUSH1 0x0 DUP2 CALLDATALOAD SWAP1 POP PUSH2 0x18D6 DUP2 PUSH2 0x23CC JUMP JUMPDEST SWAP3 SWAP2 POP POP JUMP JUMPDEST PUSH1 0x0 DUP2 MLOAD SWAP1 POP PUSH2 0x18EB DUP2 PUSH2 0x23CC JUMP JUMPDEST SWAP3 SWAP2 POP POP JUMP JUMPDEST PUSH1 0x0 PUSH1 0x20 DUP3 DUP5 SUB SLT ISZERO PUSH2 0x1903 JUMPI PUSH1 0x0 DUP1 REVERT JUMPDEST PUSH1 0x0 PUSH2 0x1911 DUP5 DUP3 DUP6 ADD PUSH2 0x183E JUMP JUMPDEST SWAP2 POP POP SWAP3 SWAP2 POP POP JUMP JUMPDEST PUSH1 0x0 PUSH1 0x20 DUP3 DUP5 SUB SLT ISZERO PUSH2 0x192C JUMPI PUSH1 0x0 DUP1 REVERT JUMPDEST PUSH1 0x0 PUSH2 0x193A DUP5 DUP3 DUP6 ADD PUSH2 0x1868 JUMP JUMPDEST SWAP2 POP POP SWAP3 SWAP2 POP POP JUMP JUMPDEST PUSH1 0x0 DUP1 PUSH1 0x40 DUP4 DUP6 SUB SLT ISZERO PUSH2 0x1956 JUMPI PUSH1 0x0 DUP1 REVERT JUMPDEST PUSH1 0x0 PUSH2 0x1964 DUP6 DUP3 DUP7 ADD PUSH2 0x1868 JUMP JUMPDEST SWAP3 POP POP PUSH1 0x20 PUSH2 0x1975 DUP6 DUP3 DUP7 ADD PUSH2 0x183E JUMP JUMPDEST SWAP2 POP POP SWAP3 POP SWAP3 SWAP1 POP JUMP JUMPDEST PUSH1 0x0 DUP1 PUSH1 0x40 DUP4 DUP6 SUB SLT ISZERO PUSH2 0x1992 JUMPI PUSH1 0x0 DUP1 REVERT JUMPDEST PUSH1 0x0 PUSH2 0x19A0 DUP6 DUP3 DUP7 ADD PUSH2 0x1868 JUMP JUMPDEST SWAP3 POP POP PUSH1 0x20 PUSH2 0x19B1 DUP6 DUP3 DUP7 ADD PUSH2 0x18C7 JUMP JUMPDEST SWAP2 POP POP SWAP3 POP SWAP3 SWAP1 POP JUMP JUMPDEST PUSH1 0x0 DUP1 PUSH1 0x0 DUP1 PUSH1 0x0 DUP1 PUSH1 0x0 PUSH1 0x80 DUP9 DUP11 SUB SLT ISZERO PUSH2 0x19D6 JUMPI PUSH1 0x0 DUP1 REVERT JUMPDEST PUSH1 0x0 DUP9 ADD CALLDATALOAD PUSH8 0xFFFFFFFFFFFFFFFF DUP2 GT ISZERO PUSH2 0x19F0 JUMPI PUSH1 0x0 DUP1 REVERT JUMPDEST PUSH2 0x19FC DUP11 DUP3 DUP12 ADD PUSH2 0x187D JUMP JUMPDEST SWAP8 POP SWAP8 POP POP PUSH1 0x20 DUP9 ADD CALLDATALOAD PUSH8 0xFFFFFFFFFFFFFFFF DUP2 GT ISZERO PUSH2 0x1A1B JUMPI PUSH1 0x0 DUP1 REVERT JUMPDEST PUSH2 0x1A27 DUP11 DUP3 DUP12 ADD PUSH2 0x187D JUMP JUMPDEST SWAP6 POP SWAP6 POP POP PUSH1 0x40 DUP9 ADD CALLDATALOAD PUSH8 0xFFFFFFFFFFFFFFFF DUP2 GT ISZERO PUSH2 0x1A46 JUMPI PUSH1 0x0 DUP1 REVERT JUMPDEST PUSH2 0x1A52 DUP11 DUP3 DUP12 ADD PUSH2 0x187D JUMP JUMPDEST SWAP4 POP SWAP4 POP POP PUSH1 0x60 PUSH2 0x1A65 DUP11 DUP3 DUP12 ADD PUSH2 0x1853 JUMP JUMPDEST SWAP2 POP POP SWAP3 SWAP6 SWAP9 SWAP2 SWAP5 SWAP8 POP SWAP3 SWAP6 POP JUMP JUMPDEST PUSH1 0x0 PUSH1 0x20 DUP3 DUP5 SUB SLT ISZERO PUSH2 0x1A86 JUMPI PUSH1 0x0 DUP1 REVERT JUMPDEST PUSH1 0x0 PUSH2 0x1A94 DUP5 DUP3 DUP6 ADD PUSH2 0x18C7 JUMP JUMPDEST SWAP2 POP POP SWAP3 SWAP2 POP POP JUMP JUMPDEST PUSH1 0x0 PUSH1 0x20 DUP3 DUP5 SUB SLT ISZERO PUSH2 0x1AAF JUMPI PUSH1 0x0 DUP1 REVERT JUMPDEST PUSH1 0x0 PUSH2 0x1ABD DUP5 DUP3 DUP6 ADD PUSH2 0x18DC JUMP JUMPDEST SWAP2 POP POP SWAP3 SWAP2 POP POP JUMP JUMPDEST PUSH1 0x0 DUP1 PUSH1 0x40 DUP4 DUP6 SUB SLT ISZERO PUSH2 0x1AD9 JUMPI PUSH1 0x0 DUP1 REVERT JUMPDEST PUSH1 0x0 PUSH2 0x1AE7 DUP6 DUP3 DUP7 ADD PUSH2 0x18C7 JUMP JUMPDEST SWAP3 POP POP PUSH1 0x20 PUSH2 0x1AF8 DUP6 DUP3 DUP7 ADD PUSH2 0x18C7 JUMP JUMPDEST SWAP2 POP POP SWAP3 POP SWAP3 SWAP1 POP JUMP JUMPDEST PUSH2 0x1B0B DUP2 PUSH2 0x22DA JUMP JUMPDEST DUP3 MSTORE POP POP JUMP JUMPDEST PUSH2 0x1B1A DUP2 PUSH2 0x2288 JUMP JUMPDEST DUP3 MSTORE POP POP JUMP JUMPDEST PUSH2 0x1B29 DUP2 PUSH2 0x229A JUMP JUMPDEST DUP3 MSTORE POP POP JUMP JUMPDEST PUSH2 0x1B38 DUP2 PUSH2 0x22A6 JUMP JUMPDEST DUP3 MSTORE POP POP JUMP JUMPDEST PUSH2 0x1B47 DUP2 PUSH2 0x22EC JUMP JUMPDEST DUP3 MSTORE POP POP JUMP JUMPDEST PUSH1 0x0 PUSH2 0x1B59 DUP4 DUP6 PUSH2 0x226C JUMP JUMPDEST SWAP4 POP PUSH2 0x1B66 DUP4 DUP6 DUP5 PUSH2 0x2334 JUMP JUMPDEST PUSH2 0x1B6F DUP4 PUSH2 0x2376 JUMP JUMPDEST DUP5 ADD SWAP1 POP SWAP4 SWAP3 POP POP POP JUMP JUMPDEST PUSH1 0x0 PUSH2 0x1B85 DUP3 PUSH2 0x2261 JUMP JUMPDEST PUSH2 0x1B8F DUP2 DUP6 PUSH2 0x226C JUMP JUMPDEST SWAP4 POP PUSH2 0x1B9F DUP2 DUP6 PUSH1 0x20 DUP7 ADD PUSH2 0x2343 JUMP JUMPDEST PUSH2 0x1BA8 DUP2 PUSH2 0x2376 JUMP JUMPDEST DUP5 ADD SWAP2 POP POP SWAP3 SWAP2 POP POP JUMP JUMPDEST PUSH1 0x0 DUP2 SLOAD PUSH1 0x1 DUP2 AND PUSH1 0x0 DUP2 EQ PUSH2 0x1BD0 JUMPI PUSH1 0x1 DUP2 EQ PUSH2 0x1BF6 JUMPI PUSH2 0x1C3A JUMP JUMPDEST PUSH1 0x7F PUSH1 0x2 DUP4 DIV AND PUSH2 0x1BE1 DUP2 DUP8 PUSH2 0x226C JUMP JUMPDEST SWAP6 POP PUSH1 0xFF NOT DUP4 AND DUP7 MSTORE PUSH1 0x20 DUP7 ADD SWAP4 POP POP PUSH2 0x1C3A JUMP JUMPDEST PUSH1 0x2 DUP3 DIV PUSH2 0x1C04 DUP2 DUP8 PUSH2 0x226C JUMP JUMPDEST SWAP6 POP PUSH2 0x1C0F DUP6 PUSH2 0x224C JUMP JUMPDEST PUSH1 0x0 JUMPDEST DUP3 DUP2 LT ISZERO PUSH2 0x1C31 JUMPI DUP2 SLOAD DUP2 DUP10 ADD MSTORE PUSH1 0x1 DUP3 ADD SWAP2 POP PUSH1 0x20 DUP2 ADD SWAP1 POP PUSH2 0x1C12 JUMP JUMPDEST DUP1 DUP9 ADD SWAP6 POP POP POP POP JUMPDEST POP POP SWAP3 SWAP2 POP POP JUMP JUMPDEST PUSH1 0x0 PUSH2 0x1C4F PUSH1 0x22 DUP4 PUSH2 0x226C JUMP JUMPDEST SWAP2 POP PUSH32 0x456E756D657261626C655365743A20696E646578206F7574206F6620626F756E PUSH1 0x0 DUP4 ADD MSTORE PUSH32 0x6473000000000000000000000000000000000000000000000000000000000000 PUSH1 0x20 DUP4 ADD MSTORE PUSH1 0x40 DUP3 ADD SWAP1 POP SWAP2 SWAP1 POP JUMP JUMPDEST PUSH1 0x0 PUSH2 0x1CB5 PUSH1 0x2F DUP4 PUSH2 0x226C JUMP JUMPDEST SWAP2 POP PUSH32 0x416363657373436F6E74726F6C3A2073656E646572206D75737420626520616E PUSH1 0x0 DUP4 ADD MSTORE PUSH32 0x2061646D696E20746F206772616E740000000000000000000000000000000000 PUSH1 0x20 DUP4 ADD MSTORE PUSH1 0x40 DUP3 ADD SWAP1 POP SWAP2 SWAP1 POP JUMP JUMPDEST PUSH1 0x0 PUSH2 0x1D1B PUSH1 0x30 DUP4 PUSH2 0x226C JUMP JUMPDEST SWAP2 POP PUSH32 0x416363657373436F6E74726F6C3A2073656E646572206D75737420626520616E PUSH1 0x0 DUP4 ADD MSTORE PUSH32 0x2061646D696E20746F207265766F6B6500000000000000000000000000000000 PUSH1 0x20 DUP4 ADD MSTORE PUSH1 0x40 DUP3 ADD SWAP1 POP SWAP2 SWAP1 POP JUMP JUMPDEST PUSH1 0x0 PUSH2 0x1D81 PUSH1 0x6 DUP4 PUSH2 0x227D JUMP JUMPDEST SWAP2 POP PUSH32 0x5772697465720000000000000000000000000000000000000000000000000000 PUSH1 0x0 DUP4 ADD MSTORE PUSH1 0x6 DUP3 ADD SWAP1 POP SWAP2 SWAP1 POP JUMP JUMPDEST PUSH1 0x0 PUSH2 0x1DC1 PUSH1 0x30 DUP4 PUSH2 0x226C JUMP JUMPDEST SWAP2 POP PUSH32 0x577269746572526F6C653A2063616C6C657220646F6573206E6F742068617665 PUSH1 0x0 DUP4 ADD MSTORE PUSH32 0x207468652057726974657220726F6C6500000000000000000000000000000000 PUSH1 0x20 DUP4 ADD MSTORE PUSH1 0x40 DUP3 ADD SWAP1 POP SWAP2 SWAP1 POP JUMP JUMPDEST PUSH1 0x0 PUSH2 0x1E27 PUSH1 0x2F DUP4 PUSH2 0x226C JUMP JUMPDEST SWAP2 POP PUSH32 0x416363657373436F6E74726F6C3A2063616E206F6E6C792072656E6F756E6365 PUSH1 0x0 DUP4 ADD MSTORE PUSH32 0x20726F6C657320666F722073656C660000000000000000000000000000000000 PUSH1 0x20 DUP4 ADD MSTORE PUSH1 0x40 DUP3 ADD SWAP1 POP SWAP2 SWAP1 POP JUMP JUMPDEST PUSH2 0x1E89 DUP2 PUSH2 0x22D0 JUMP JUMPDEST DUP3 MSTORE POP POP JUMP JUMPDEST PUSH1 0x0 PUSH2 0x1E9A DUP3 PUSH2 0x1D74 JUMP JUMPDEST SWAP2 POP DUP2 SWAP1 POP SWAP2 SWAP1 POP JUMP JUMPDEST PUSH1 0x0 PUSH1 0x20 DUP3 ADD SWAP1 POP PUSH2 0x1EB9 PUSH1 0x0 DUP4 ADD DUP5 PUSH2 0x1B11 JUMP JUMPDEST SWAP3 SWAP2 POP POP JUMP JUMPDEST PUSH1 0x0 PUSH1 0x20 DUP3 ADD SWAP1 POP PUSH2 0x1ED4 PUSH1 0x0 DUP4 ADD DUP5 PUSH2 0x1B20 JUMP JUMPDEST SWAP3 SWAP2 POP POP JUMP JUMPDEST PUSH1 0x0 PUSH1 0x20 DUP3 ADD SWAP1 POP PUSH2 0x1EEF PUSH1 0x0 DUP4 ADD DUP5 PUSH2 0x1B2F JUMP JUMPDEST SWAP3 SWAP2 POP POP JUMP JUMPDEST PUSH1 0x0 PUSH1 0x20 DUP3 ADD SWAP1 POP PUSH2 0x1F0A PUSH1 0x0 DUP4 ADD DUP5 PUSH2 0x1B3E JUMP JUMPDEST SWAP3 SWAP2 POP POP JUMP JUMPDEST PUSH1 0x0 PUSH1 0xA0 DUP3 ADD SWAP1 POP DUP2 DUP2 SUB PUSH1 0x0 DUP4 ADD MSTORE PUSH2 0x1F2A DUP2 DUP9 PUSH2 0x1B7A JUMP JUMPDEST SWAP1 POP DUP2 DUP2 SUB PUSH1 0x20 DUP4 ADD MSTORE PUSH2 0x1F3E DUP2 DUP8 PUSH2 0x1B7A JUMP JUMPDEST SWAP1 POP DUP2 DUP2 SUB PUSH1 0x40 DUP4 ADD MSTORE PUSH2 0x1F52 DUP2 DUP7 PUSH2 0x1B7A JUMP JUMPDEST SWAP1 POP PUSH2 0x1F61 PUSH1 0x60 DUP4 ADD DUP6 PUSH2 0x1B20 JUMP JUMPDEST PUSH2 0x1F6E PUSH1 0x80 DUP4 ADD DUP5 PUSH2 0x1E80 JUMP JUMPDEST SWAP7 SWAP6 POP POP POP POP POP POP JUMP JUMPDEST PUSH1 0x0 PUSH1 0x20 DUP3 ADD SWAP1 POP DUP2 DUP2 SUB PUSH1 0x0 DUP4 ADD MSTORE PUSH2 0x1F91 DUP2 PUSH2 0x1C42 JUMP JUMPDEST SWAP1 POP SWAP2 SWAP1 POP JUMP JUMPDEST PUSH1 0x0 PUSH1 0x20 DUP3 ADD SWAP1 POP DUP2 DUP2 SUB PUSH1 0x0 DUP4 ADD MSTORE PUSH2 0x1FB1 DUP2 PUSH2 0x1CA8 JUMP JUMPDEST SWAP1 POP SWAP2 SWAP1 POP JUMP JUMPDEST PUSH1 0x0 PUSH1 0x20 DUP3 ADD SWAP1 POP DUP2 DUP2 SUB PUSH1 0x0 DUP4 ADD MSTORE PUSH2 0x1FD1 DUP2 PUSH2 0x1D0E JUMP JUMPDEST SWAP1 POP SWAP2 SWAP1 POP JUMP JUMPDEST PUSH1 0x0 PUSH1 0x20 DUP3 ADD SWAP1 POP DUP2 DUP2 SUB PUSH1 0x0 DUP4 ADD MSTORE PUSH2 0x1FF1 DUP2 PUSH2 0x1DB4 JUMP JUMPDEST SWAP1 POP SWAP2 SWAP1 POP JUMP JUMPDEST PUSH1 0x0 PUSH1 0x20 DUP3 ADD SWAP1 POP DUP2 DUP2 SUB PUSH1 0x0 DUP4 ADD MSTORE PUSH2 0x2011 DUP2 PUSH2 0x1E1A JUMP JUMPDEST SWAP1 POP SWAP2 SWAP1 POP JUMP JUMPDEST PUSH1 0x0 PUSH1 0x20 DUP3 ADD SWAP1 POP PUSH2 0x202D PUSH1 0x0 DUP4 ADD DUP5 PUSH2 0x1E80 JUMP JUMPDEST SWAP3 SWAP2 POP POP JUMP JUMPDEST PUSH1 0x0 PUSH2 0x120 DUP3 ADD SWAP1 POP PUSH2 0x2049 PUSH1 0x0 DUP4 ADD DUP16 PUSH2 0x1E80 JUMP JUMPDEST PUSH2 0x2056 PUSH1 0x20 DUP4 ADD DUP15 PUSH2 0x1E80 JUMP JUMPDEST DUP2 DUP2 SUB PUSH1 0x40 DUP4 ADD MSTORE PUSH2 0x2069 DUP2 DUP13 DUP15 PUSH2 0x1B4D JUMP JUMPDEST SWAP1 POP DUP2 DUP2 SUB PUSH1 0x60 DUP4 ADD MSTORE PUSH2 0x207E DUP2 DUP11 DUP13 PUSH2 0x1B4D JUMP JUMPDEST SWAP1 POP DUP2 DUP2 SUB PUSH1 0x80 DUP4 ADD MSTORE PUSH2 0x2093 DUP2 DUP9 DUP11 PUSH2 0x1B4D JUMP JUMPDEST SWAP1 POP PUSH2 0x20A2 PUSH1 0xA0 DUP4 ADD DUP8 PUSH2 0x1B20 JUMP JUMPDEST PUSH2 0x20AF PUSH1 0xC0 DUP4 ADD DUP7 PUSH2 0x1B02 JUMP JUMPDEST PUSH2 0x20BC PUSH1 0xE0 DUP4 ADD DUP6 PUSH2 0x1E80 JUMP JUMPDEST PUSH2 0x20CA PUSH2 0x100 DUP4 ADD DUP5 PUSH2 0x1E80 JUMP JUMPDEST SWAP14 SWAP13 POP POP POP POP POP POP POP POP POP POP POP POP POP JUMP JUMPDEST PUSH1 0x0 PUSH2 0x140 DUP3 ADD SWAP1 POP PUSH2 0x20F1 PUSH1 0x0 DUP4 ADD DUP14 PUSH2 0x1E80 JUMP JUMPDEST PUSH2 0x20FE PUSH1 0x20 DUP4 ADD DUP13 PUSH2 0x1E80 JUMP JUMPDEST DUP2 DUP2 SUB PUSH1 0x40 DUP4 ADD MSTORE PUSH2 0x2110 DUP2 DUP12 PUSH2 0x1B7A JUMP JUMPDEST SWAP1 POP DUP2 DUP2 SUB PUSH1 0x60 DUP4 ADD MSTORE PUSH2 0x2124 DUP2 DUP11 PUSH2 0x1B7A JUMP JUMPDEST SWAP1 POP DUP2 DUP2 SUB PUSH1 0x80 DUP4 ADD MSTORE PUSH2 0x2138 DUP2 DUP10 PUSH2 0x1B7A JUMP JUMPDEST SWAP1 POP PUSH2 0x2147 PUSH1 0xA0 DUP4 ADD DUP9 PUSH2 0x1B20 JUMP JUMPDEST PUSH2 0x2154 PUSH1 0xC0 DUP4 ADD DUP8 PUSH2 0x1B11 JUMP JUMPDEST PUSH2 0x2161 PUSH1 0xE0 DUP4 ADD DUP7 PUSH2 0x1E80 JUMP JUMPDEST PUSH2 0x216F PUSH2 0x100 DUP4 ADD DUP6 PUSH2 0x1B20 JUMP JUMPDEST PUSH2 0x217D PUSH2 0x120 DUP4 ADD DUP5 PUSH2 0x1E80 JUMP JUMPDEST SWAP12 SWAP11 POP POP POP POP POP POP POP POP POP POP POP JUMP JUMPDEST PUSH1 0x0 PUSH2 0x160 DUP3 ADD SWAP1 POP PUSH2 0x21A2 PUSH1 0x0 DUP4 ADD DUP15 PUSH2 0x1E80 JUMP JUMPDEST PUSH2 0x21AF PUSH1 0x20 DUP4 ADD DUP14 PUSH2 0x1E80 JUMP JUMPDEST PUSH2 0x21BC PUSH1 0x40 DUP4 ADD DUP13 PUSH2 0x1E80 JUMP JUMPDEST DUP2 DUP2 SUB PUSH1 0x60 DUP4 ADD MSTORE PUSH2 0x21CE DUP2 DUP12 PUSH2 0x1BB3 JUMP JUMPDEST SWAP1 POP DUP2 DUP2 SUB PUSH1 0x80 DUP4 ADD MSTORE PUSH2 0x21E2 DUP2 DUP11 PUSH2 0x1BB3 JUMP JUMPDEST SWAP1 POP DUP2 DUP2 SUB PUSH1 0xA0 DUP4 ADD MSTORE PUSH2 0x21F6 DUP2 DUP10 PUSH2 0x1BB3 JUMP JUMPDEST SWAP1 POP PUSH2 0x2205 PUSH1 0xC0 DUP4 ADD DUP9 PUSH2 0x1B20 JUMP JUMPDEST PUSH2 0x2212 PUSH1 0xE0 DUP4 ADD DUP8 PUSH2 0x1B11 JUMP JUMPDEST PUSH2 0x2220 PUSH2 0x100 DUP4 ADD DUP7 PUSH2 0x1E80 JUMP JUMPDEST PUSH2 0x222E PUSH2 0x120 DUP4 ADD DUP6 PUSH2 0x1B20 JUMP JUMPDEST PUSH2 0x223C PUSH2 0x140 DUP4 ADD DUP5 PUSH2 0x1E80 JUMP JUMPDEST SWAP13 SWAP12 POP POP POP POP POP POP POP POP POP POP POP POP JUMP JUMPDEST PUSH1 0x0 DUP2 SWAP1 POP DUP2 PUSH1 0x0 MSTORE PUSH1 0x20 PUSH1 0x0 KECCAK256 SWAP1 POP SWAP2 SWAP1 POP JUMP JUMPDEST PUSH1 0x0 DUP2 MLOAD SWAP1 POP SWAP2 SWAP1 POP JUMP JUMPDEST PUSH1 0x0 DUP3 DUP3 MSTORE PUSH1 0x20 DUP3 ADD SWAP1 POP SWAP3 SWAP2 POP POP JUMP JUMPDEST PUSH1 0x0 DUP2 SWAP1 POP SWAP3 SWAP2 POP POP JUMP JUMPDEST PUSH1 0x0 PUSH2 0x2293 DUP3 PUSH2 0x22B0 JUMP JUMPDEST SWAP1 POP SWAP2 SWAP1 POP JUMP JUMPDEST PUSH1 0x0 DUP2 ISZERO ISZERO SWAP1 POP SWAP2 SWAP1 POP JUMP JUMPDEST PUSH1 0x0 DUP2 SWAP1 POP SWAP2 SWAP1 POP JUMP JUMPDEST PUSH1 0x0 PUSH20 0xFFFFFFFFFFFFFFFFFFFFFFFFFFFFFFFFFFFFFFFF DUP3 AND SWAP1 POP SWAP2 SWAP1 POP JUMP JUMPDEST PUSH1 0x0 DUP2 SWAP1 POP SWAP2 SWAP1 POP JUMP JUMPDEST PUSH1 0x0 PUSH2 0x22E5 DUP3 PUSH2 0x2310 JUMP JUMPDEST SWAP1 POP SWAP2 SWAP1 POP JUMP JUMPDEST PUSH1 0x0 PUSH2 0x22F7 DUP3 PUSH2 0x22FE JUMP JUMPDEST SWAP1 POP SWAP2 SWAP1 POP JUMP JUMPDEST PUSH1 0x0 PUSH2 0x2309 DUP3 PUSH2 0x22B0 JUMP JUMPDEST SWAP1 POP SWAP2 SWAP1 POP JUMP JUMPDEST PUSH1 0x0 PUSH2 0x231B DUP3 PUSH2 0x2322 JUMP JUMPDEST SWAP1 POP SWAP2 SWAP1 POP JUMP JUMPDEST PUSH1 0x0 PUSH2 0x232D DUP3 PUSH2 0x22B0 JUMP JUMPDEST SWAP1 POP SWAP2 SWAP1 POP JUMP JUMPDEST DUP3 DUP2 DUP4 CALLDATACOPY PUSH1 0x0 DUP4 DUP4 ADD MSTORE POP POP POP JUMP JUMPDEST PUSH1 0x0 JUMPDEST DUP4 DUP2 LT ISZERO PUSH2 0x2361 JUMPI DUP1 DUP3 ADD MLOAD DUP2 DUP5 ADD MSTORE PUSH1 0x20 DUP2 ADD SWAP1 POP PUSH2 0x2346 JUMP JUMPDEST DUP4 DUP2 GT ISZERO PUSH2 0x2370 JUMPI PUSH1 0x0 DUP5 DUP5 ADD MSTORE JUMPDEST POP POP POP POP JUMP JUMPDEST PUSH1 0x0 PUSH1 0x1F NOT PUSH1 0x1F DUP4 ADD AND SWAP1 POP SWAP2 SWAP1 POP JUMP JUMPDEST PUSH2 0x2390 DUP2 PUSH2 0x2288 JUMP JUMPDEST DUP2 EQ PUSH2 0x239B JUMPI PUSH1 0x0 DUP1 REVERT JUMPDEST POP JUMP JUMPDEST PUSH2 0x23A7 DUP2 PUSH2 0x229A JUMP JUMPDEST DUP2 EQ PUSH2 0x23B2 JUMPI PUSH1 0x0 DUP1 REVERT JUMPDEST POP JUMP JUMPDEST PUSH2 0x23BE DUP2 PUSH2 0x22A6 JUMP JUMPDEST DUP2 EQ PUSH2 0x23C9 JUMPI PUSH1 0x0 DUP1 REVERT JUMPDEST POP JUMP JUMPDEST PUSH2 0x23D5 DUP2 PUSH2 0x22D0 JUMP JUMPDEST DUP2 EQ PUSH2 0x23E0 JUMPI PUSH1 0x0 DUP1 REVERT JUMPDEST POP JUMP INVALID LOG2 PUSH5 0x6970667358 0x22 SLT KECCAK256 MLOAD 0x1E 0xAB JUMPDEST PUSH5 0x54EBAEC3E6 0x2F SLOAD PUSH25 0x1B4789F96EE4111FDE972805615FB64CCF957064736F6C6343 STOP MOD SIGNEXTEND STOP CALLER "},"gasEstimates":{"creation":{"codeDepositCost":"1848200","executionCost":"infinite","totalCost":"infinite"},"external":{"DEFAULT_ADMIN_ROLE()":"446","addWriter(address)":"infinite","createJob(string,string,string,bool)":"infinite","fulfillJob(uint256,uint256)":"infinite","getJob(uint256)":"infinite","getResult(uint256)":"infinite","getRoleAdmin(bytes32)":"infinite","getRoleMember(bytes32,uint256)":"infinite","getRoleMemberCount(bytes32)":"1636","grantRole(bytes32,address)":"infinite","hasRole(bytes32,address)":"infinite","init(address)":"21368","isWriter(address)":"infinite","jobs(uint256)":"infinite","numJobs()":"1196","renounceRole(bytes32,address)":"infinite","renounceWriter()":"infinite","revokeRole(bytes32,address)":"infinite","stateManager()":"1280"}},"methodIdentifiers":{"DEFAULT_ADMIN_ROLE()":"a217fddf","addWriter(address)":"da2824a8","createJob(string,string,string,bool)":"628aff1d","fulfillJob(uint256,uint256)":"56350bdf","getJob(uint256)":"bf22c457","getResult(uint256)":"995e4339","getRoleAdmin(bytes32)":"248a9ca3","getRoleMember(bytes32,uint256)":"9010d07c","getRoleMemberCount(bytes32)":"ca15c873","grantRole(bytes32,address)":"2f2ff15d","hasRole(bytes32,address)":"91d14854","init(address)":"19ab453c","isWriter(address)":"2b29ba23","jobs(uint256)":"180aedf3","numJobs()":"9212051c","renounceRole(bytes32,address)":"36568abe","renounceWriter()":"df4eb59c","revokeRole(bytes32,address)":"d547741f","stateManager()":"2e716fb1"}},"storageLayout":{"storage":[{"astId":6043,"contract":"JobManager.sol:JobManager","label":"_roles","offset":0,"slot":"0","type":"t_mapping(t_bytes32,t_struct(RoleData)6039_storage)"},{"astId":2245,"contract":"JobManager.sol:JobManager","label":"jobs","offset":0,"slot":"1","type":"t_mapping(t_uint256,t_struct(Job)5134_storage)"},{"astId":2247,"contract":"JobManager.sol:JobManager","label":"numJobs","offset":0,"slot":"2","type":"t_uint256"},{"astId":2048,"contract":"JobManager.sol:JobManager","label":"stateManager","offset":0,"slot":"3","type":"t_contract(IStateManager)1903"}],"types":{"t_address":{"encoding":"inplace","label":"address","numberOfBytes":"20"},"t_array(t_bytes32)dyn_storage":{"base":"t_bytes32","encoding":"dynamic_array","label":"bytes32[]","numberOfBytes":"32"},"t_bool":{"encoding":"inplace","label":"bool","numberOfBytes":"1"},"t_bytes32":{"encoding":"inplace","label":"bytes32","numberOfBytes":"32"},"t_contract(IStateManager)1903":{"encoding":"inplace","label":"contract IStateManager","numberOfBytes":"20"},"t_mapping(t_bytes32,t_struct(RoleData)6039_storage)":{"encoding":"mapping","key":"t_bytes32","label":"mapping(bytes32 => struct AccessControl.RoleData)","numberOfBytes":"32","value":"t_struct(RoleData)6039_storage"},"t_mapping(t_bytes32,t_uint256)":{"encoding":"mapping","key":"t_bytes32","label":"mapping(bytes32 => uint256)","numberOfBytes":"32","value":"t_uint256"},"t_mapping(t_uint256,t_struct(Job)5134_storage)":{"encoding":"mapping","key":"t_uint256","label":"mapping(uint256 => struct Structs.Job)","numberOfBytes":"32","value":"t_struct(Job)5134_storage"},"t_string_storage":{"encoding":"bytes","label":"string","numberOfBytes":"32"},"t_struct(AddressSet)6799_storage":{"encoding":"inplace","label":"struct EnumerableSet.AddressSet","members":[{"astId":6798,"contract":"JobManager.sol:JobManager","label":"_inner","offset":0,"slot":"0","type":"t_struct(Set)6619_storage"}],"numberOfBytes":"64"},"t_struct(Job)5134_storage":{"encoding":"inplace","label":"struct Structs.Job","members":[{"astId":5115,"contract":"JobManager.sol:JobManager","label":"id","offset":0,"slot":"0","type":"t_uint256"},{"astId":5117,"contract":"JobManager.sol:JobManager","label":"epoch","offset":0,"slot":"1","type":"t_uint256"},{"astId":5119,"contract":"JobManager.sol:JobManager","label":"url","offset":0,"slot":"2","type":"t_string_storage"},{"astId":5121,"contract":"JobManager.sol:JobManager","label":"selector","offset":0,"slot":"3","type":"t_string_storage"},{"astId":5123,"contract":"JobManager.sol:JobManager","label":"name","offset":0,"slot":"4","type":"t_string_storage"},{"astId":5125,"contract":"JobManager.sol:JobManager","label":"repeat","offset":0,"slot":"5","type":"t_bool"},{"astId":5127,"contract":"JobManager.sol:JobManager","label":"creator","offset":1,"slot":"5","type":"t_address"},{"astId":5129,"contract":"JobManager.sol:JobManager","label":"credit","offset":0,"slot":"6","type":"t_uint256"},{"astId":5131,"contract":"JobManager.sol:JobManager","label":"fulfilled","offset":0,"slot":"7","type":"t_bool"},{"astId":5133,"contract":"JobManager.sol:JobManager","label":"result","offset":0,"slot":"8","type":"t_uint256"}],"numberOfBytes":"288"},"t_struct(RoleData)6039_storage":{"encoding":"inplace","label":"struct AccessControl.RoleData","members":[{"astId":6036,"contract":"JobManager.sol:JobManager","label":"members","offset":0,"slot":"0","type":"t_struct(AddressSet)6799_storage"},{"astId":6038,"contract":"JobManager.sol:JobManager","label":"adminRole","offset":0,"slot":"2","type":"t_bytes32"}],"numberOfBytes":"96"},"t_struct(Set)6619_storage":{"encoding":"inplace","label":"struct EnumerableSet.Set","members":[{"astId":6614,"contract":"JobManager.sol:JobManager","label":"_values","offset":0,"slot":"0","type":"t_array(t_bytes32)dyn_storage"},{"astId":6618,"contract":"JobManager.sol:JobManager","label":"_indexes","offset":0,"slot":"1","type":"t_mapping(t_bytes32,t_uint256)"}],"numberOfBytes":"64"},"t_uint256":{"encoding":"inplace","label":"uint256","numberOfBytes":"32"}}},"userdoc":{"kind":"user","methods":{},"version":1}}