{"abi":[{"inputs":[{"internalType":"uint256","name":"","type":"uint256"}],"name":"jobs","outputs":[{"internalType":"uint256","name":"id","type":"uint256"},{"internalType":"uint256","name":"epoch","type":"uint256"},{"internalType":"string","name":"url","type":"string"},{"internalType":"string","name":"selector","type":"string"},{"internalType":"string","name":"name","type":"string"},{"internalType":"bool","name":"repeat","type":"bool"},{"internalType":"address","name":"creator","type":"address"},{"internalType":"uint256","name":"credit","type":"uint256"},{"internalType":"bool","name":"fulfilled","type":"bool"},{"internalType":"uint256","name":"result","type":"uint256"}],"stateMutability":"view","type":"function"},{"inputs":[],"name":"numJobs","outputs":[{"internalType":"uint256","name":"","type":"uint256"}],"stateMutability":"view","type":"function"}],"devdoc":{"kind":"dev","methods":{},"version":1},"evm":{"assembly":"    /* \"JobStorage.sol\":125:226  contract JobStorage {... */\n  mstore(0x40, 0x80)\n  callvalue\n  dup1\n  iszero\n  tag_1\n  jumpi\n  0x00\n  dup1\n  revert\ntag_1:\n  pop\n  dataSize(sub_0)\n  dup1\n  dataOffset(sub_0)\n  0x00\n  codecopy\n  0x00\n  return\nstop\n\nsub_0: assembly {\n        /* \"JobStorage.sol\":125:226  contract JobStorage {... */\n      mstore(0x40, 0x80)\n      callvalue\n      dup1\n      iszero\n      tag_1\n      jumpi\n      0x00\n      dup1\n      revert\n    tag_1:\n      pop\n      jumpi(tag_2, lt(calldatasize, 0x04))\n      shr(0xe0, calldataload(0x00))\n      dup1\n      0x180aedf3\n      eq\n      tag_3\n      jumpi\n      dup1\n      0x9212051c\n      eq\n      tag_4\n      jumpi\n    tag_2:\n      0x00\n      dup1\n      revert\n        /* \"JobStorage.sol\":151:195  mapping (uint256 => Structs.Job) public jobs */\n    tag_3:\n      tag_5\n      0x04\n      dup1\n      calldatasize\n      sub\n      dup2\n      add\n      swap1\n      tag_6\n      swap2\n      swap1\n      tag_7\n      jump\t// in\n    tag_6:\n      tag_8\n      jump\t// in\n    tag_5:\n      mload(0x40)\n      tag_9\n      swap11\n      swap10\n      swap9\n      swap8\n      swap7\n      swap6\n      swap5\n      swap4\n      swap3\n      swap2\n      swap1\n      tag_10\n      jump\t// in\n    tag_9:\n      mload(0x40)\n      dup1\n      swap2\n      sub\n      swap1\n      return\n        /* \"JobStorage.sol\":201:223  uint256 public numJobs */\n    tag_4:\n      tag_11\n      tag_12\n      jump\t// in\n    tag_11:\n      mload(0x40)\n      tag_13\n      swap2\n      swap1\n      tag_14\n      jump\t// in\n    tag_13:\n      mload(0x40)\n      dup1\n      swap2\n      sub\n      swap1\n      return\n        /* \"JobStorage.sol\":151:195  mapping (uint256 => Structs.Job) public jobs */\n    tag_8:\n      mstore(0x20, 0x00)\n      dup1\n      0x00\n      mstore\n      keccak256(0x00, 0x40)\n      0x00\n      swap2\n      pop\n      swap1\n      pop\n      dup1\n      0x00\n      add\n      sload\n      swap1\n      dup1\n      0x01\n      add\n      sload\n      swap1\n      dup1\n      0x02\n      add\n      dup1\n      sload\n      0x01\n      dup2\n      0x01\n      and\n      iszero\n      0x0100\n      mul\n      sub\n      and\n      0x02\n      swap1\n      div\n      dup1\n      0x1f\n      add\n      0x20\n      dup1\n      swap2\n      div\n      mul\n      0x20\n      add\n      mload(0x40)\n      swap1\n      dup2\n      add\n      0x40\n      mstore\n      dup1\n      swap3\n      swap2\n      swap1\n      dup2\n      dup2\n      mstore\n      0x20\n      add\n      dup3\n      dup1\n      sload\n      0x01\n      dup2\n      0x01\n      and\n      iszero\n      0x0100\n      mul\n      sub\n      and\n      0x02\n      swap1\n      div\n      dup1\n      iszero\n      tag_15\n      jumpi\n      dup1\n      0x1f\n      lt\n      tag_16\n      jumpi\n      0x0100\n      dup1\n      dup4\n      sload\n      div\n      mul\n      dup4\n      mstore\n      swap2\n      0x20\n      add\n      swap2\n      jump(tag_15)\n    tag_16:\n      dup3\n      add\n      swap2\n      swap1\n      0x00\n      mstore\n      keccak256(0x00, 0x20)\n      swap1\n    tag_17:\n      dup2\n      sload\n      dup2\n      mstore\n      swap1\n      0x01\n      add\n      swap1\n      0x20\n      add\n      dup1\n      dup4\n      gt\n      tag_17\n      jumpi\n      dup3\n      swap1\n      sub\n      0x1f\n      and\n      dup3\n      add\n      swap2\n    tag_15:\n      pop\n      pop\n      pop\n      pop\n      pop\n      swap1\n      dup1\n      0x03\n      add\n      dup1\n      sload\n      0x01\n      dup2\n      0x01\n      and\n      iszero\n      0x0100\n      mul\n      sub\n      and\n      0x02\n      swap1\n      div\n      dup1\n      0x1f\n      add\n      0x20\n      dup1\n      swap2\n      div\n      mul\n      0x20\n      add\n      mload(0x40)\n      swap1\n      dup2\n      add\n      0x40\n      mstore\n      dup1\n      swap3\n      swap2\n      swap1\n      dup2\n      dup2\n      mstore\n      0x20\n      add\n      dup3\n      dup1\n      sload\n      0x01\n      dup2\n      0x01\n      and\n      iszero\n      0x0100\n      mul\n      sub\n      and\n      0x02\n      swap1\n      div\n      dup1\n      iszero\n      tag_18\n      jumpi\n      dup1\n      0x1f\n      lt\n      tag_19\n      jumpi\n      0x0100\n      dup1\n      dup4\n      sload\n      div\n      mul\n      dup4\n      mstore\n      swap2\n      0x20\n      add\n      swap2\n      jump(tag_18)\n    tag_19:\n      dup3\n      add\n      swap2\n      swap1\n      0x00\n      mstore\n      keccak256(0x00, 0x20)\n      swap1\n    tag_20:\n      dup2\n      sload\n      dup2\n      mstore\n      swap1\n      0x01\n      add\n      swap1\n      0x20\n      add\n      dup1\n      dup4\n      gt\n      tag_20\n      jumpi\n      dup3\n      swap1\n      sub\n      0x1f\n      and\n      dup3\n      add\n      swap2\n    tag_18:\n      pop\n      pop\n      pop\n      pop\n      pop\n      swap1\n      dup1\n      0x04\n      add\n      dup1\n      sload\n      0x01\n      dup2\n      0x01\n      and\n      iszero\n      0x0100\n      mul\n      sub\n      and\n      0x02\n      swap1\n      div\n      dup1\n      0x1f\n      add\n      0x20\n      dup1\n      swap2\n      div\n      mul\n      0x20\n      add\n      mload(0x40)\n      swap1\n      dup2\n      add\n      0x40\n      mstore\n      dup1\n      swap3\n      swap2\n      swap1\n      dup2\n      dup2\n      mstore\n      0x20\n      add\n      dup3\n      dup1\n      sload\n      0x01\n      dup2\n      0x01\n      and\n      iszero\n      0x0100\n      mul\n      sub\n      and\n      0x02\n      swap1\n      div\n      dup1\n      iszero\n      tag_21\n      jumpi\n      dup1\n      0x1f\n      lt\n      tag_22\n      jumpi\n      0x0100\n      dup1\n      dup4\n      sload\n      div\n      mul\n      dup4\n      mstore\n      swap2\n      0x20\n      add\n      swap2\n      jump(tag_21)\n    tag_22:\n      dup3\n      add\n      swap2\n      swap1\n      0x00\n      mstore\n      keccak256(0x00, 0x20)\n      swap1\n    tag_23:\n      dup2\n      sload\n      dup2\n      mstore\n      swap1\n      0x01\n      add\n      swap1\n      0x20\n      add\n      dup1\n      dup4\n      gt\n      tag_23\n      jumpi\n      dup3\n      swap1\n      sub\n      0x1f\n      and\n      dup3\n      add\n      swap2\n    tag_21:\n      pop\n      pop\n      pop\n      pop\n      pop\n      swap1\n      dup1\n      0x05\n      add\n      0x00\n      swap1\n      sload\n      swap1\n      0x0100\n      exp\n      swap1\n      div\n      0xff\n      and\n      swap1\n      dup1\n      0x05\n      add\n      0x01\n      swap1\n      sload\n      swap1\n      0x0100\n      exp\n      swap1\n      div\n      0xffffffffffffffffffffffffffffffffffffffff\n      and\n      swap1\n      dup1\n      0x06\n      add\n      sload\n      swap1\n      dup1\n      0x07\n      add\n      0x00\n      swap1\n      sload\n      swap1\n      0x0100\n      exp\n      swap1\n      div\n      0xff\n      and\n      swap1\n      dup1\n      0x08\n      add\n      sload\n      swap1\n      pop\n      dup11\n      jump\t// out\n        /* \"JobStorage.sol\":201:223  uint256 public numJobs */\n    tag_12:\n      sload(0x01)\n      dup2\n      jump\t// out\n        /* \"--CODEGEN--\":5:135   */\n    tag_25:\n      0x00\n        /* \"--CODEGEN--\":85:91   */\n      dup2\n        /* \"--CODEGEN--\":72:92   */\n      calldataload\n        /* \"--CODEGEN--\":63:92   */\n      swap1\n      pop\n        /* \"--CODEGEN--\":97:130   */\n      tag_27\n        /* \"--CODEGEN--\":124:129   */\n      dup2\n        /* \"--CODEGEN--\":97:130   */\n      tag_28\n      jump\t// in\n    tag_27:\n        /* \"--CODEGEN--\":57:135   */\n      swap3\n      swap2\n      pop\n      pop\n      jump\t// out\n        /* \"--CODEGEN--\":142:383   */\n    tag_7:\n      0x00\n        /* \"--CODEGEN--\":246:248   */\n      0x20\n        /* \"--CODEGEN--\":234:243   */\n      dup3\n        /* \"--CODEGEN--\":225:232   */\n      dup5\n        /* \"--CODEGEN--\":221:244   */\n      sub\n        /* \"--CODEGEN--\":217:249   */\n      slt\n        /* \"--CODEGEN--\":214:216   */\n      iszero\n      tag_30\n      jumpi\n        /* \"--CODEGEN--\":262:263   */\n      0x00\n        /* \"--CODEGEN--\":259:260   */\n      dup1\n        /* \"--CODEGEN--\":252:264   */\n      revert\n        /* \"--CODEGEN--\":214:216   */\n    tag_30:\n        /* \"--CODEGEN--\":297:298   */\n      0x00\n        /* \"--CODEGEN--\":314:367   */\n      tag_31\n        /* \"--CODEGEN--\":359:366   */\n      dup5\n        /* \"--CODEGEN--\":350:356   */\n      dup3\n        /* \"--CODEGEN--\":339:348   */\n      dup6\n        /* \"--CODEGEN--\":335:357   */\n      add\n        /* \"--CODEGEN--\":314:367   */\n      tag_25\n      jump\t// in\n    tag_31:\n        /* \"--CODEGEN--\":304:367   */\n      swap2\n      pop\n        /* \"--CODEGEN--\":276:373   */\n      pop\n        /* \"--CODEGEN--\":208:383   */\n      swap3\n      swap2\n      pop\n      pop\n      jump\t// out\n        /* \"--CODEGEN--\":390:503   */\n    tag_32:\n        /* \"--CODEGEN--\":473:497   */\n      tag_34\n        /* \"--CODEGEN--\":491:496   */\n      dup2\n        /* \"--CODEGEN--\":473:497   */\n      tag_35\n      jump\t// in\n    tag_34:\n        /* \"--CODEGEN--\":468:471   */\n      dup3\n        /* \"--CODEGEN--\":461:498   */\n      mstore\n        /* \"--CODEGEN--\":455:503   */\n      pop\n      pop\n      jump\t// out\n        /* \"--CODEGEN--\":510:614   */\n    tag_36:\n        /* \"--CODEGEN--\":587:608   */\n      tag_38\n        /* \"--CODEGEN--\":602:607   */\n      dup2\n        /* \"--CODEGEN--\":587:608   */\n      tag_39\n      jump\t// in\n    tag_38:\n        /* \"--CODEGEN--\":582:585   */\n      dup3\n        /* \"--CODEGEN--\":575:609   */\n      mstore\n        /* \"--CODEGEN--\":569:614   */\n      pop\n      pop\n      jump\t// out\n        /* \"--CODEGEN--\":621:968   */\n    tag_40:\n      0x00\n        /* \"--CODEGEN--\":733:772   */\n      tag_42\n        /* \"--CODEGEN--\":766:771   */\n      dup3\n        /* \"--CODEGEN--\":733:772   */\n      tag_43\n      jump\t// in\n    tag_42:\n        /* \"--CODEGEN--\":784:855   */\n      tag_44\n        /* \"--CODEGEN--\":848:854   */\n      dup2\n        /* \"--CODEGEN--\":843:846   */\n      dup6\n        /* \"--CODEGEN--\":784:855   */\n      tag_45\n      jump\t// in\n    tag_44:\n        /* \"--CODEGEN--\":777:855   */\n      swap4\n      pop\n        /* \"--CODEGEN--\":860:912   */\n      tag_46\n        /* \"--CODEGEN--\":905:911   */\n      dup2\n        /* \"--CODEGEN--\":900:903   */\n      dup6\n        /* \"--CODEGEN--\":893:897   */\n      0x20\n        /* \"--CODEGEN--\":886:891   */\n      dup7\n        /* \"--CODEGEN--\":882:898   */\n      add\n        /* \"--CODEGEN--\":860:912   */\n      tag_47\n      jump\t// in\n    tag_46:\n        /* \"--CODEGEN--\":933:962   */\n      tag_48\n        /* \"--CODEGEN--\":955:961   */\n      dup2\n        /* \"--CODEGEN--\":933:962   */\n      tag_49\n      jump\t// in\n    tag_48:\n        /* \"--CODEGEN--\":928:931   */\n      dup5\n        /* \"--CODEGEN--\":924:963   */\n      add\n        /* \"--CODEGEN--\":917:963   */\n      swap2\n      pop\n        /* \"--CODEGEN--\":713:968   */\n      pop\n      swap3\n      swap2\n      pop\n      pop\n      jump\t// out\n        /* \"--CODEGEN--\":975:1088   */\n    tag_50:\n        /* \"--CODEGEN--\":1058:1082   */\n      tag_52\n        /* \"--CODEGEN--\":1076:1081   */\n      dup2\n        /* \"--CODEGEN--\":1058:1082   */\n      tag_53\n      jump\t// in\n    tag_52:\n        /* \"--CODEGEN--\":1053:1056   */\n      dup3\n        /* \"--CODEGEN--\":1046:1083   */\n      mstore\n        /* \"--CODEGEN--\":1040:1088   */\n      pop\n      pop\n      jump\t// out\n        /* \"--CODEGEN--\":1095:1317   */\n    tag_14:\n      0x00\n        /* \"--CODEGEN--\":1222:1224   */\n      0x20\n        /* \"--CODEGEN--\":1211:1220   */\n      dup3\n        /* \"--CODEGEN--\":1207:1225   */\n      add\n        /* \"--CODEGEN--\":1199:1225   */\n      swap1\n      pop\n        /* \"--CODEGEN--\":1236:1307   */\n      tag_55\n        /* \"--CODEGEN--\":1304:1305   */\n      0x00\n        /* \"--CODEGEN--\":1293:1302   */\n      dup4\n        /* \"--CODEGEN--\":1289:1306   */\n      add\n        /* \"--CODEGEN--\":1280:1286   */\n      dup5\n        /* \"--CODEGEN--\":1236:1307   */\n      tag_50\n      jump\t// in\n    tag_55:\n        /* \"--CODEGEN--\":1193:1317   */\n      swap3\n      swap2\n      pop\n      pop\n      jump\t// out\n        /* \"--CODEGEN--\":1324:2792   */\n    tag_10:\n      0x00\n        /* \"--CODEGEN--\":1751:1754   */\n      0x0140\n        /* \"--CODEGEN--\":1740:1749   */\n      dup3\n        /* \"--CODEGEN--\":1736:1755   */\n      add\n        /* \"--CODEGEN--\":1728:1755   */\n      swap1\n      pop\n        /* \"--CODEGEN--\":1766:1837   */\n      tag_57\n        /* \"--CODEGEN--\":1834:1835   */\n      0x00\n        /* \"--CODEGEN--\":1823:1832   */\n      dup4\n        /* \"--CODEGEN--\":1819:1836   */\n      add\n        /* \"--CODEGEN--\":1810:1816   */\n      dup14\n        /* \"--CODEGEN--\":1766:1837   */\n      tag_50\n      jump\t// in\n    tag_57:\n        /* \"--CODEGEN--\":1848:1920   */\n      tag_58\n        /* \"--CODEGEN--\":1916:1918   */\n      0x20\n        /* \"--CODEGEN--\":1905:1914   */\n      dup4\n        /* \"--CODEGEN--\":1901:1919   */\n      add\n        /* \"--CODEGEN--\":1892:1898   */\n      dup13\n        /* \"--CODEGEN--\":1848:1920   */\n      tag_50\n      jump\t// in\n    tag_58:\n        /* \"--CODEGEN--\":1968:1977   */\n      dup2\n        /* \"--CODEGEN--\":1962:1966   */\n      dup2\n        /* \"--CODEGEN--\":1958:1978   */\n      sub\n        /* \"--CODEGEN--\":1953:1955   */\n      0x40\n        /* \"--CODEGEN--\":1942:1951   */\n      dup4\n        /* \"--CODEGEN--\":1938:1956   */\n      add\n        /* \"--CODEGEN--\":1931:1979   */\n      mstore\n        /* \"--CODEGEN--\":1993:2071   */\n      tag_59\n        /* \"--CODEGEN--\":2066:2070   */\n      dup2\n        /* \"--CODEGEN--\":2057:2063   */\n      dup12\n        /* \"--CODEGEN--\":1993:2071   */\n      tag_40\n      jump\t// in\n    tag_59:\n        /* \"--CODEGEN--\":1985:2071   */\n      swap1\n      pop\n        /* \"--CODEGEN--\":2119:2128   */\n      dup2\n        /* \"--CODEGEN--\":2113:2117   */\n      dup2\n        /* \"--CODEGEN--\":2109:2129   */\n      sub\n        /* \"--CODEGEN--\":2104:2106   */\n      0x60\n        /* \"--CODEGEN--\":2093:2102   */\n      dup4\n        /* \"--CODEGEN--\":2089:2107   */\n      add\n        /* \"--CODEGEN--\":2082:2130   */\n      mstore\n        /* \"--CODEGEN--\":2144:2222   */\n      tag_60\n        /* \"--CODEGEN--\":2217:2221   */\n      dup2\n        /* \"--CODEGEN--\":2208:2214   */\n      dup11\n        /* \"--CODEGEN--\":2144:2222   */\n      tag_40\n      jump\t// in\n    tag_60:\n        /* \"--CODEGEN--\":2136:2222   */\n      swap1\n      pop\n        /* \"--CODEGEN--\":2271:2280   */\n      dup2\n        /* \"--CODEGEN--\":2265:2269   */\n      dup2\n        /* \"--CODEGEN--\":2261:2281   */\n      sub\n        /* \"--CODEGEN--\":2255:2258   */\n      0x80\n        /* \"--CODEGEN--\":2244:2253   */\n      dup4\n        /* \"--CODEGEN--\":2240:2259   */\n      add\n        /* \"--CODEGEN--\":2233:2282   */\n      mstore\n        /* \"--CODEGEN--\":2296:2374   */\n      tag_61\n        /* \"--CODEGEN--\":2369:2373   */\n      dup2\n        /* \"--CODEGEN--\":2360:2366   */\n      dup10\n        /* \"--CODEGEN--\":2296:2374   */\n      tag_40\n      jump\t// in\n    tag_61:\n        /* \"--CODEGEN--\":2288:2374   */\n      swap1\n      pop\n        /* \"--CODEGEN--\":2385:2452   */\n      tag_62\n        /* \"--CODEGEN--\":2447:2450   */\n      0xa0\n        /* \"--CODEGEN--\":2436:2445   */\n      dup4\n        /* \"--CODEGEN--\":2432:2451   */\n      add\n        /* \"--CODEGEN--\":2423:2429   */\n      dup9\n        /* \"--CODEGEN--\":2385:2452   */\n      tag_36\n      jump\t// in\n    tag_62:\n        /* \"--CODEGEN--\":2463:2536   */\n      tag_63\n        /* \"--CODEGEN--\":2531:2534   */\n      0xc0\n        /* \"--CODEGEN--\":2520:2529   */\n      dup4\n        /* \"--CODEGEN--\":2516:2535   */\n      add\n        /* \"--CODEGEN--\":2507:2513   */\n      dup8\n        /* \"--CODEGEN--\":2463:2536   */\n      tag_32\n      jump\t// in\n    tag_63:\n        /* \"--CODEGEN--\":2547:2620   */\n      tag_64\n        /* \"--CODEGEN--\":2615:2618   */\n      0xe0\n        /* \"--CODEGEN--\":2604:2613   */\n      dup4\n        /* \"--CODEGEN--\":2600:2619   */\n      add\n        /* \"--CODEGEN--\":2591:2597   */\n      dup7\n        /* \"--CODEGEN--\":2547:2620   */\n      tag_50\n      jump\t// in\n    tag_64:\n        /* \"--CODEGEN--\":2631:2698   */\n      tag_65\n        /* \"--CODEGEN--\":2693:2696   */\n      0x0100\n        /* \"--CODEGEN--\":2682:2691   */\n      dup4\n        /* \"--CODEGEN--\":2678:2697   */\n      add\n        /* \"--CODEGEN--\":2669:2675   */\n      dup6\n        /* \"--CODEGEN--\":2631:2698   */\n      tag_36\n      jump\t// in\n    tag_65:\n        /* \"--CODEGEN--\":2709:2782   */\n      tag_66\n        /* \"--CODEGEN--\":2777:2780   */\n      0x0120\n        /* \"--CODEGEN--\":2766:2775   */\n      dup4\n        /* \"--CODEGEN--\":2762:2781   */\n      add\n        /* \"--CODEGEN--\":2753:2759   */\n      dup5\n        /* \"--CODEGEN--\":2709:2782   */\n      tag_50\n      jump\t// in\n    tag_66:\n        /* \"--CODEGEN--\":1722:2792   */\n      swap12\n      swap11\n      pop\n      pop\n      pop\n      pop\n      pop\n      pop\n      pop\n      pop\n      pop\n      pop\n      pop\n      jump\t// out\n        /* \"--CODEGEN--\":2799:2921   */\n    tag_43:\n      0x00\n        /* \"--CODEGEN--\":2893:2898   */\n      dup2\n        /* \"--CODEGEN--\":2887:2899   */\n      mload\n        /* \"--CODEGEN--\":2877:2899   */\n      swap1\n      pop\n        /* \"--CODEGEN--\":2858:2921   */\n      swap2\n      swap1\n      pop\n      jump\t// out\n        /* \"--CODEGEN--\":2929:3092   */\n    tag_45:\n      0x00\n        /* \"--CODEGEN--\":3044:3050   */\n      dup3\n        /* \"--CODEGEN--\":3039:3042   */\n      dup3\n        /* \"--CODEGEN--\":3032:3051   */\n      mstore\n        /* \"--CODEGEN--\":3081:3085   */\n      0x20\n        /* \"--CODEGEN--\":3076:3079   */\n      dup3\n        /* \"--CODEGEN--\":3072:3086   */\n      add\n        /* \"--CODEGEN--\":3057:3086   */\n      swap1\n      pop\n        /* \"--CODEGEN--\":3025:3092   */\n      swap3\n      swap2\n      pop\n      pop\n      jump\t// out\n        /* \"--CODEGEN--\":3100:3191   */\n    tag_35:\n      0x00\n        /* \"--CODEGEN--\":3162:3186   */\n      tag_70\n        /* \"--CODEGEN--\":3180:3185   */\n      dup3\n        /* \"--CODEGEN--\":3162:3186   */\n      tag_71\n      jump\t// in\n    tag_70:\n        /* \"--CODEGEN--\":3151:3186   */\n      swap1\n      pop\n        /* \"--CODEGEN--\":3145:3191   */\n      swap2\n      swap1\n      pop\n      jump\t// out\n        /* \"--CODEGEN--\":3198:3283   */\n    tag_39:\n      0x00\n        /* \"--CODEGEN--\":3271:3276   */\n      dup2\n        /* \"--CODEGEN--\":3264:3277   */\n      iszero\n        /* \"--CODEGEN--\":3257:3278   */\n      iszero\n        /* \"--CODEGEN--\":3246:3278   */\n      swap1\n      pop\n        /* \"--CODEGEN--\":3240:3283   */\n      swap2\n      swap1\n      pop\n      jump\t// out\n        /* \"--CODEGEN--\":3290:3411   */\n    tag_71:\n      0x00\n        /* \"--CODEGEN--\":3363:3405   */\n      0xffffffffffffffffffffffffffffffffffffffff\n        /* \"--CODEGEN--\":3356:3361   */\n      dup3\n        /* \"--CODEGEN--\":3352:3406   */\n      and\n        /* \"--CODEGEN--\":3341:3406   */\n      swap1\n      pop\n        /* \"--CODEGEN--\":3335:3411   */\n      swap2\n      swap1\n      pop\n      jump\t// out\n        /* \"--CODEGEN--\":3418:3490   */\n    tag_53:\n      0x00\n        /* \"--CODEGEN--\":3480:3485   */\n      dup2\n        /* \"--CODEGEN--\":3469:3485   */\n      swap1\n      pop\n        /* \"--CODEGEN--\":3463:3490   */\n      swap2\n      swap1\n      pop\n      jump\t// out\n        /* \"--CODEGEN--\":3498:3766   */\n    tag_47:\n        /* \"--CODEGEN--\":3563:3564   */\n      0x00\n        /* \"--CODEGEN--\":3570:3671   */\n    tag_76:\n        /* \"--CODEGEN--\":3584:3590   */\n      dup4\n        /* \"--CODEGEN--\":3581:3582   */\n      dup2\n        /* \"--CODEGEN--\":3578:3591   */\n      lt\n        /* \"--CODEGEN--\":3570:3671   */\n      iszero\n      tag_78\n      jumpi\n        /* \"--CODEGEN--\":3660:3661   */\n      dup1\n        /* \"--CODEGEN--\":3655:3658   */\n      dup3\n        /* \"--CODEGEN--\":3651:3662   */\n      add\n        /* \"--CODEGEN--\":3645:3663   */\n      mload\n        /* \"--CODEGEN--\":3641:3642   */\n      dup2\n        /* \"--CODEGEN--\":3636:3639   */\n      dup5\n        /* \"--CODEGEN--\":3632:3643   */\n      add\n        /* \"--CODEGEN--\":3625:3664   */\n      mstore\n        /* \"--CODEGEN--\":3606:3608   */\n      0x20\n        /* \"--CODEGEN--\":3603:3604   */\n      dup2\n        /* \"--CODEGEN--\":3599:3609   */\n      add\n        /* \"--CODEGEN--\":3594:3609   */\n      swap1\n      pop\n        /* \"--CODEGEN--\":3570:3671   */\n      jump(tag_76)\n    tag_78:\n        /* \"--CODEGEN--\":3686:3692   */\n      dup4\n        /* \"--CODEGEN--\":3683:3684   */\n      dup2\n        /* \"--CODEGEN--\":3680:3693   */\n      gt\n        /* \"--CODEGEN--\":3677:3679   */\n      iszero\n      tag_79\n      jumpi\n        /* \"--CODEGEN--\":3751:3752   */\n      0x00\n        /* \"--CODEGEN--\":3742:3748   */\n      dup5\n        /* \"--CODEGEN--\":3737:3740   */\n      dup5\n        /* \"--CODEGEN--\":3733:3749   */\n      add\n        /* \"--CODEGEN--\":3726:3753   */\n      mstore\n        /* \"--CODEGEN--\":3677:3679   */\n    tag_79:\n        /* \"--CODEGEN--\":3547:3766   */\n      pop\n      pop\n      pop\n      pop\n      jump\t// out\n        /* \"--CODEGEN--\":3774:3871   */\n    tag_49:\n      0x00\n        /* \"--CODEGEN--\":3862:3864   */\n      0x1f\n        /* \"--CODEGEN--\":3858:3865   */\n      not\n        /* \"--CODEGEN--\":3853:3855   */\n      0x1f\n        /* \"--CODEGEN--\":3846:3851   */\n      dup4\n        /* \"--CODEGEN--\":3842:3856   */\n      add\n        /* \"--CODEGEN--\":3838:3866   */\n      and\n        /* \"--CODEGEN--\":3828:3866   */\n      swap1\n      pop\n        /* \"--CODEGEN--\":3822:3871   */\n      swap2\n      swap1\n      pop\n      jump\t// out\n        /* \"--CODEGEN--\":3879:3996   */\n    tag_28:\n        /* \"--CODEGEN--\":3948:3972   */\n      tag_82\n        /* \"--CODEGEN--\":3966:3971   */\n      dup2\n        /* \"--CODEGEN--\":3948:3972   */\n      tag_53\n      jump\t// in\n    tag_82:\n        /* \"--CODEGEN--\":3941:3946   */\n      dup2\n        /* \"--CODEGEN--\":3938:3973   */\n      eq\n        /* \"--CODEGEN--\":3928:3930   */\n      tag_83\n      jumpi\n        /* \"--CODEGEN--\":3987:3988   */\n      0x00\n        /* \"--CODEGEN--\":3984:3985   */\n      dup1\n        /* \"--CODEGEN--\":3977:3989   */\n      revert\n        /* \"--CODEGEN--\":3928:3930   */\n    tag_83:\n        /* \"--CODEGEN--\":3922:3996   */\n      pop\n      jump\t// out\n\n    auxdata: 0xa26469706673582212209df3bc97d9cc7ac9236011450f226801652adc34e12612190312c181a7fbf3da64736f6c634300060b0033\n}\n","bytecode":{"linkReferences":{},"object":"608060405234801561001057600080fd5b50610553806100206000396000f3fe608060405234801561001057600080fd5b50600436106100365760003560e01c8063180aedf31461003b5780639212051c14610074575b600080fd5b61005560048036038101906100509190610303565b610092565b60405161006b9a999897969594939291906103ad565b60405180910390f35b61007c6102e8565b6040516100899190610392565b60405180910390f35b6000602052806000526040600020600091509050806000015490806001015490806002018054600181600116156101000203166002900480601f01602080910402602001604051908101604052809291908181526020018280546001816001161561010002031660029004801561014a5780601f1061011f5761010080835404028352916020019161014a565b820191906000526020600020905b81548152906001019060200180831161012d57829003601f168201915b505050505090806003018054600181600116156101000203166002900480601f0160208091040260200160405190810160405280929190818152602001828054600181600116156101000203166002900480156101e85780601f106101bd576101008083540402835291602001916101e8565b820191906000526020600020905b8154815290600101906020018083116101cb57829003601f168201915b505050505090806004018054600181600116156101000203166002900480601f0160208091040260200160405190810160405280929190818152602001828054600181600116156101000203166002900480156102865780601f1061025b57610100808354040283529160200191610286565b820191906000526020600020905b81548152906001019060200180831161026957829003601f168201915b5050505050908060050160009054906101000a900460ff16908060050160019054906101000a900473ffffffffffffffffffffffffffffffffffffffff16908060060154908060070160009054906101000a900460ff1690806008015490508a565b60015481565b6000813590506102fd81610506565b92915050565b60006020828403121561031557600080fd5b6000610323848285016102ee565b91505092915050565b6103358161047a565b82525050565b6103448161048c565b82525050565b60006103558261045e565b61035f8185610469565b935061036f8185602086016104c2565b610378816104f5565b840191505092915050565b61038c816104b8565b82525050565b60006020820190506103a76000830184610383565b92915050565b6000610140820190506103c3600083018d610383565b6103d0602083018c610383565b81810360408301526103e2818b61034a565b905081810360608301526103f6818a61034a565b9050818103608083015261040a818961034a565b905061041960a083018861033b565b61042660c083018761032c565b61043360e0830186610383565b61044161010083018561033b565b61044f610120830184610383565b9b9a5050505050505050505050565b600081519050919050565b600082825260208201905092915050565b600061048582610498565b9050919050565b60008115159050919050565b600073ffffffffffffffffffffffffffffffffffffffff82169050919050565b6000819050919050565b60005b838110156104e05780820151818401526020810190506104c5565b838111156104ef576000848401525b50505050565b6000601f19601f8301169050919050565b61050f816104b8565b811461051a57600080fd5b5056fea26469706673582212209df3bc97d9cc7ac9236011450f226801652adc34e12612190312c181a7fbf3da64736f6c634300060b0033","opcodes":"PUSH1 0x80 PUSH1 0x40 MSTORE CALLVALUE DUP1 ISZERO PUSH2 0x10 JUMPI PUSH1 0x0 DUP1 REVERT JUMPDEST POP PUSH2 0x553 DUP1 PUSH2 0x20 PUSH1 0x0 CODECOPY PUSH1 0x0 RETURN INVALID PUSH1 0x80 PUSH1 0x40 MSTORE CALLVALUE DUP1 ISZERO PUSH2 0x10 JUMPI PUSH1 0x0 DUP1 REVERT JUMPDEST POP PUSH1 0x4 CALLDATASIZE LT PUSH2 0x36 JUMPI PUSH1 0x0 CALLDATALOAD PUSH1 0xE0 SHR DUP1 PUSH4 0x180AEDF3 EQ PUSH2 0x3B JUMPI DUP1 PUSH4 0x9212051C EQ PUSH2 0x74 JUMPI JUMPDEST PUSH1 0x0 DUP1 REVERT JUMPDEST PUSH2 0x55 PUSH1 0x4 DUP1 CALLDATASIZE SUB DUP2 ADD SWAP1 PUSH2 0x50 SWAP2 SWAP1 PUSH2 0x303 JUMP JUMPDEST PUSH2 0x92 JUMP JUMPDEST PUSH1 0x40 MLOAD PUSH2 0x6B SWAP11 SWAP10 SWAP9 SWAP8 SWAP7 SWAP6 SWAP5 SWAP4 SWAP3 SWAP2 SWAP1 PUSH2 0x3AD JUMP JUMPDEST PUSH1 0x40 MLOAD DUP1 SWAP2 SUB SWAP1 RETURN JUMPDEST PUSH2 0x7C PUSH2 0x2E8 JUMP JUMPDEST PUSH1 0x40 MLOAD PUSH2 0x89 SWAP2 SWAP1 PUSH2 0x392 JUMP JUMPDEST PUSH1 0x40 MLOAD DUP1 SWAP2 SUB SWAP1 RETURN JUMPDEST PUSH1 0x0 PUSH1 0x20 MSTORE DUP1 PUSH1 0x0 MSTORE PUSH1 0x40 PUSH1 0x0 KECCAK256 PUSH1 0x0 SWAP2 POP SWAP1 POP DUP1 PUSH1 0x0 ADD SLOAD SWAP1 DUP1 PUSH1 0x1 ADD SLOAD SWAP1 DUP1 PUSH1 0x2 ADD DUP1 SLOAD PUSH1 0x1 DUP2 PUSH1 0x1 AND ISZERO PUSH2 0x100 MUL SUB AND PUSH1 0x2 SWAP1 DIV DUP1 PUSH1 0x1F ADD PUSH1 0x20 DUP1 SWAP2 DIV MUL PUSH1 0x20 ADD PUSH1 0x40 MLOAD SWAP1 DUP2 ADD PUSH1 0x40 MSTORE DUP1 SWAP3 SWAP2 SWAP1 DUP2 DUP2 MSTORE PUSH1 0x20 ADD DUP3 DUP1 SLOAD PUSH1 0x1 DUP2 PUSH1 0x1 AND ISZERO PUSH2 0x100 MUL SUB AND PUSH1 0x2 SWAP1 DIV DUP1 ISZERO PUSH2 0x14A JUMPI DUP1 PUSH1 0x1F LT PUSH2 0x11F JUMPI PUSH2 0x100 DUP1 DUP4 SLOAD DIV MUL DUP4 MSTORE SWAP2 PUSH1 0x20 ADD SWAP2 PUSH2 0x14A JUMP JUMPDEST DUP3 ADD SWAP2 SWAP1 PUSH1 0x0 MSTORE PUSH1 0x20 PUSH1 0x0 KECCAK256 SWAP1 JUMPDEST DUP2 SLOAD DUP2 MSTORE SWAP1 PUSH1 0x1 ADD SWAP1 PUSH1 0x20 ADD DUP1 DUP4 GT PUSH2 0x12D JUMPI DUP3 SWAP1 SUB PUSH1 0x1F AND DUP3 ADD SWAP2 JUMPDEST POP POP POP POP POP SWAP1 DUP1 PUSH1 0x3 ADD DUP1 SLOAD PUSH1 0x1 DUP2 PUSH1 0x1 AND ISZERO PUSH2 0x100 MUL SUB AND PUSH1 0x2 SWAP1 DIV DUP1 PUSH1 0x1F ADD PUSH1 0x20 DUP1 SWAP2 DIV MUL PUSH1 0x20 ADD PUSH1 0x40 MLOAD SWAP1 DUP2 ADD PUSH1 0x40 MSTORE DUP1 SWAP3 SWAP2 SWAP1 DUP2 DUP2 MSTORE PUSH1 0x20 ADD DUP3 DUP1 SLOAD PUSH1 0x1 DUP2 PUSH1 0x1 AND ISZERO PUSH2 0x100 MUL SUB AND PUSH1 0x2 SWAP1 DIV DUP1 ISZERO PUSH2 0x1E8 JUMPI DUP1 PUSH1 0x1F LT PUSH2 0x1BD JUMPI PUSH2 0x100 DUP1 DUP4 SLOAD DIV MUL DUP4 MSTORE SWAP2 PUSH1 0x20 ADD SWAP2 PUSH2 0x1E8 JUMP JUMPDEST DUP3 ADD SWAP2 SWAP1 PUSH1 0x0 MSTORE PUSH1 0x20 PUSH1 0x0 KECCAK256 SWAP1 JUMPDEST DUP2 SLOAD DUP2 MSTORE SWAP1 PUSH1 0x1 ADD SWAP1 PUSH1 0x20 ADD DUP1 DUP4 GT PUSH2 0x1CB JUMPI DUP3 SWAP1 SUB PUSH1 0x1F AND DUP3 ADD SWAP2 JUMPDEST POP POP POP POP POP SWAP1 DUP1 PUSH1 0x4 ADD DUP1 SLOAD PUSH1 0x1 DUP2 PUSH1 0x1 AND ISZERO PUSH2 0x100 MUL SUB AND PUSH1 0x2 SWAP1 DIV DUP1 PUSH1 0x1F ADD PUSH1 0x20 DUP1 SWAP2 DIV MUL PUSH1 0x20 ADD PUSH1 0x40 MLOAD SWAP1 DUP2 ADD PUSH1 0x40 MSTORE DUP1 SWAP3 SWAP2 SWAP1 DUP2 DUP2 MSTORE PUSH1 0x20 ADD DUP3 DUP1 SLOAD PUSH1 0x1 DUP2 PUSH1 0x1 AND ISZERO PUSH2 0x100 MUL SUB AND PUSH1 0x2 SWAP1 DIV DUP1 ISZERO PUSH2 0x286 JUMPI DUP1 PUSH1 0x1F LT PUSH2 0x25B JUMPI PUSH2 0x100 DUP1 DUP4 SLOAD DIV MUL DUP4 MSTORE SWAP2 PUSH1 0x20 ADD SWAP2 PUSH2 0x286 JUMP JUMPDEST DUP3 ADD SWAP2 SWAP1 PUSH1 0x0 MSTORE PUSH1 0x20 PUSH1 0x0 KECCAK256 SWAP1 JUMPDEST DUP2 SLOAD DUP2 MSTORE SWAP1 PUSH1 0x1 ADD SWAP1 PUSH1 0x20 ADD DUP1 DUP4 GT PUSH2 0x269 JUMPI DUP3 SWAP1 SUB PUSH1 0x1F AND DUP3 ADD SWAP2 JUMPDEST POP POP POP POP POP SWAP1 DUP1 PUSH1 0x5 ADD PUSH1 0x0 SWAP1 SLOAD SWAP1 PUSH2 0x100 EXP SWAP1 DIV PUSH1 0xFF AND SWAP1 DUP1 PUSH1 0x5 ADD PUSH1 0x1 SWAP1 SLOAD SWAP1 PUSH2 0x100 EXP SWAP1 DIV PUSH20 0xFFFFFFFFFFFFFFFFFFFFFFFFFFFFFFFFFFFFFFFF AND SWAP1 DUP1 PUSH1 0x6 ADD SLOAD SWAP1 DUP1 PUSH1 0x7 ADD PUSH1 0x0 SWAP1 SLOAD SWAP1 PUSH2 0x100 EXP SWAP1 DIV PUSH1 0xFF AND SWAP1 DUP1 PUSH1 0x8 ADD SLOAD SWAP1 POP DUP11 JUMP JUMPDEST PUSH1 0x1 SLOAD DUP2 JUMP JUMPDEST PUSH1 0x0 DUP2 CALLDATALOAD SWAP1 POP PUSH2 0x2FD DUP2 PUSH2 0x506 JUMP JUMPDEST SWAP3 SWAP2 POP POP JUMP JUMPDEST PUSH1 0x0 PUSH1 0x20 DUP3 DUP5 SUB SLT ISZERO PUSH2 0x315 JUMPI PUSH1 0x0 DUP1 REVERT JUMPDEST PUSH1 0x0 PUSH2 0x323 DUP5 DUP3 DUP6 ADD PUSH2 0x2EE JUMP JUMPDEST SWAP2 POP POP SWAP3 SWAP2 POP POP JUMP JUMPDEST PUSH2 0x335 DUP2 PUSH2 0x47A JUMP JUMPDEST DUP3 MSTORE POP POP JUMP JUMPDEST PUSH2 0x344 DUP2 PUSH2 0x48C JUMP JUMPDEST DUP3 MSTORE POP POP JUMP JUMPDEST PUSH1 0x0 PUSH2 0x355 DUP3 PUSH2 0x45E JUMP JUMPDEST PUSH2 0x35F DUP2 DUP6 PUSH2 0x469 JUMP JUMPDEST SWAP4 POP PUSH2 0x36F DUP2 DUP6 PUSH1 0x20 DUP7 ADD PUSH2 0x4C2 JUMP JUMPDEST PUSH2 0x378 DUP2 PUSH2 0x4F5 JUMP JUMPDEST DUP5 ADD SWAP2 POP POP SWAP3 SWAP2 POP POP JUMP JUMPDEST PUSH2 0x38C DUP2 PUSH2 0x4B8 JUMP JUMPDEST DUP3 MSTORE POP POP JUMP JUMPDEST PUSH1 0x0 PUSH1 0x20 DUP3 ADD SWAP1 POP PUSH2 0x3A7 PUSH1 0x0 DUP4 ADD DUP5 PUSH2 0x383 JUMP JUMPDEST SWAP3 SWAP2 POP POP JUMP JUMPDEST PUSH1 0x0 PUSH2 0x140 DUP3 ADD SWAP1 POP PUSH2 0x3C3 PUSH1 0x0 DUP4 ADD DUP14 PUSH2 0x383 JUMP JUMPDEST PUSH2 0x3D0 PUSH1 0x20 DUP4 ADD DUP13 PUSH2 0x383 JUMP JUMPDEST DUP2 DUP2 SUB PUSH1 0x40 DUP4 ADD MSTORE PUSH2 0x3E2 DUP2 DUP12 PUSH2 0x34A JUMP JUMPDEST SWAP1 POP DUP2 DUP2 SUB PUSH1 0x60 DUP4 ADD MSTORE PUSH2 0x3F6 DUP2 DUP11 PUSH2 0x34A JUMP JUMPDEST SWAP1 POP DUP2 DUP2 SUB PUSH1 0x80 DUP4 ADD MSTORE PUSH2 0x40A DUP2 DUP10 PUSH2 0x34A JUMP JUMPDEST SWAP1 POP PUSH2 0x419 PUSH1 0xA0 DUP4 ADD DUP9 PUSH2 0x33B JUMP JUMPDEST PUSH2 0x426 PUSH1 0xC0 DUP4 ADD DUP8 PUSH2 0x32C JUMP JUMPDEST PUSH2 0x433 PUSH1 0xE0 DUP4 ADD DUP7 PUSH2 0x383 JUMP JUMPDEST PUSH2 0x441 PUSH2 0x100 DUP4 ADD DUP6 PUSH2 0x33B JUMP JUMPDEST PUSH2 0x44F PUSH2 0x120 DUP4 ADD DUP5 PUSH2 0x383 JUMP JUMPDEST SWAP12 SWAP11 POP POP POP POP POP POP POP POP POP POP POP JUMP JUMPDEST PUSH1 0x0 DUP2 MLOAD SWAP1 POP SWAP2 SWAP1 POP JUMP JUMPDEST PUSH1 0x0 DUP3 DUP3 MSTORE PUSH1 0x20 DUP3 ADD SWAP1 POP SWAP3 SWAP2 POP POP JUMP JUMPDEST PUSH1 0x0 PUSH2 0x485 DUP3 PUSH2 0x498 JUMP JUMPDEST SWAP1 POP SWAP2 SWAP1 POP JUMP JUMPDEST PUSH1 0x0 DUP2 ISZERO ISZERO SWAP1 POP SWAP2 SWAP1 POP JUMP JUMPDEST PUSH1 0x0 PUSH20 0xFFFFFFFFFFFFFFFFFFFFFFFFFFFFFFFFFFFFFFFF DUP3 AND SWAP1 POP SWAP2 SWAP1 POP JUMP JUMPDEST PUSH1 0x0 DUP2 SWAP1 POP SWAP2 SWAP1 POP JUMP JUMPDEST PUSH1 0x0 JUMPDEST DUP4 DUP2 LT ISZERO PUSH2 0x4E0 JUMPI DUP1 DUP3 ADD MLOAD DUP2 DUP5 ADD MSTORE PUSH1 0x20 DUP2 ADD SWAP1 POP PUSH2 0x4C5 JUMP JUMPDEST DUP4 DUP2 GT ISZERO PUSH2 0x4EF JUMPI PUSH1 0x0 DUP5 DUP5 ADD MSTORE JUMPDEST POP POP POP POP JUMP JUMPDEST PUSH1 0x0 PUSH1 0x1F NOT PUSH1 0x1F DUP4 ADD AND SWAP1 POP SWAP2 SWAP1 POP JUMP JUMPDEST PUSH2 0x50F DUP2 PUSH2 0x4B8 JUMP JUMPDEST DUP2 EQ PUSH2 0x51A JUMPI PUSH1 0x0 DUP1 REVERT JUMPDEST POP JUMP INVALID LOG2 PUSH5 0x6970667358 0x22 SLT KECCAK256 SWAP14 RETURN 0xBC SWAP8 0xD9 0xCC PUSH27 0xC9236011450F226801652ADC34E12612190312C181A7FBF3DA6473 PUSH16 0x6C634300060B00330000000000000000 "},"gasEstimates":{"creation":{"codeDepositCost":"272600","executionCost":"312","totalCost":"272912"},"external":{"jobs(uint256)":"infinite","numJobs()":"1129"}},"methodIdentifiers":{"jobs(uint256)":"180aedf3","numJobs()":"9212051c"}},"storageLayout":{"storage":[{"astId":2245,"contract":"JobStorage.sol:JobStorage","label":"jobs","offset":0,"slot":"0","type":"t_mapping(t_uint256,t_struct(Job)5134_storage)"},{"astId":2247,"contract":"JobStorage.sol:JobStorage","label":"numJobs","offset":0,"slot":"1","type":"t_uint256"}],"types":{"t_address":{"encoding":"inplace","label":"address","numberOfBytes":"20"},"t_bool":{"encoding":"inplace","label":"bool","numberOfBytes":"1"},"t_mapping(t_uint256,t_struct(Job)5134_storage)":{"encoding":"mapping","key":"t_uint256","label":"mapping(uint256 => struct Structs.Job)","numberOfBytes":"32","value":"t_struct(Job)5134_storage"},"t_string_storage":{"encoding":"bytes","label":"string","numberOfBytes":"32"},"t_struct(Job)5134_storage":{"encoding":"inplace","label":"struct Structs.Job","members":[{"astId":5115,"contract":"JobStorage.sol:JobStorage","label":"id","offset":0,"slot":"0","type":"t_uint256"},{"astId":5117,"contract":"JobStorage.sol:JobStorage","label":"epoch","offset":0,"slot":"1","type":"t_uint256"},{"astId":5119,"contract":"JobStorage.sol:JobStorage","label":"url","offset":0,"slot":"2","type":"t_string_storage"},{"astId":5121,"contract":"JobStorage.sol:JobStorage","label":"selector","offset":0,"slot":"3","type":"t_string_storage"},{"astId":5123,"contract":"JobStorage.sol:JobStorage","label":"name","offset":0,"slot":"4","type":"t_string_storage"},{"astId":5125,"contract":"JobStorage.sol:JobStorage","label":"repeat","offset":0,"slot":"5","type":"t_bool"},{"astId":5127,"contract":"JobStorage.sol:JobStorage","label":"creator","offset":1,"slot":"5","type":"t_address"},{"astId":5129,"contract":"JobStorage.sol:JobStorage","label":"credit","offset":0,"slot":"6","type":"t_uint256"},{"astId":5131,"contract":"JobStorage.sol:JobStorage","label":"fulfilled","offset":0,"slot":"7","type":"t_bool"},{"astId":5133,"contract":"JobStorage.sol:JobStorage","label":"result","offset":0,"slot":"8","type":"t_uint256"}],"numberOfBytes":"288"},"t_uint256":{"encoding":"inplace","label":"uint256","numberOfBytes":"32"}}},"userdoc":{"kind":"user","methods":{},"version":1}}