{"abi":[{"anonymous":false,"inputs":[{"indexed":true,"internalType":"bytes32","name":"role","type":"bytes32"},{"indexed":true,"internalType":"bytes32","name":"previousAdminRole","type":"bytes32"},{"indexed":true,"internalType":"bytes32","name":"newAdminRole","type":"bytes32"}],"name":"RoleAdminChanged","type":"event"},{"anonymous":false,"inputs":[{"indexed":true,"internalType":"bytes32","name":"role","type":"bytes32"},{"indexed":true,"internalType":"address","name":"account","type":"address"},{"indexed":true,"internalType":"address","name":"sender","type":"address"}],"name":"RoleGranted","type":"event"},{"anonymous":false,"inputs":[{"indexed":true,"internalType":"bytes32","name":"role","type":"bytes32"},{"indexed":true,"internalType":"address","name":"account","type":"address"},{"indexed":true,"internalType":"address","name":"sender","type":"address"}],"name":"RoleRevoked","type":"event"},{"anonymous":false,"inputs":[{"indexed":true,"internalType":"address","name":"account","type":"address"}],"name":"WriterAdded","type":"event"},{"anonymous":false,"inputs":[{"indexed":true,"internalType":"address","name":"account","type":"address"}],"name":"WriterRemoved","type":"event"},{"inputs":[],"name":"DEFAULT_ADMIN_ROLE","outputs":[{"internalType":"bytes32","name":"","type":"bytes32"}],"stateMutability":"view","type":"function"},{"inputs":[{"internalType":"address","name":"account","type":"address"}],"name":"addWriter","outputs":[],"stateMutability":"nonpayable","type":"function"},{"inputs":[{"internalType":"address","name":"_jobManagerAddress","type":"address"}],"name":"changeJobManagerAddress","outputs":[],"stateMutability":"nonpayable","type":"function"},{"inputs":[{"internalType":"bytes32","name":"role","type":"bytes32"}],"name":"getRoleAdmin","outputs":[{"internalType":"bytes32","name":"","type":"bytes32"}],"stateMutability":"view","type":"function"},{"inputs":[{"internalType":"bytes32","name":"role","type":"bytes32"},{"internalType":"uint256","name":"index","type":"uint256"}],"name":"getRoleMember","outputs":[{"internalType":"address","name":"","type":"address"}],"stateMutability":"view","type":"function"},{"inputs":[{"internalType":"bytes32","name":"role","type":"bytes32"}],"name":"getRoleMemberCount","outputs":[{"internalType":"uint256","name":"","type":"uint256"}],"stateMutability":"view","type":"function"},{"inputs":[{"internalType":"bytes32","name":"role","type":"bytes32"},{"internalType":"address","name":"account","type":"address"}],"name":"grantRole","outputs":[],"stateMutability":"nonpayable","type":"function"},{"inputs":[{"internalType":"bytes32","name":"role","type":"bytes32"},{"internalType":"address","name":"account","type":"address"}],"name":"hasRole","outputs":[{"internalType":"bool","name":"","type":"bool"}],"stateMutability":"view","type":"function"},{"inputs":[{"internalType":"address","name":"account","type":"address"}],"name":"isWriter","outputs":[{"internalType":"bool","name":"","type":"bool"}],"stateMutability":"view","type":"function"},{"inputs":[],"name":"jobManagerAddress","outputs":[{"internalType":"address","name":"","type":"address"}],"stateMutability":"view","type":"function"},{"inputs":[{"internalType":"bytes32","name":"role","type":"bytes32"},{"internalType":"address","name":"account","type":"address"}],"name":"renounceRole","outputs":[],"stateMutability":"nonpayable","type":"function"},{"inputs":[],"name":"renounceWriter","outputs":[],"stateMutability":"nonpayable","type":"function"},{"inputs":[{"internalType":"bytes32","name":"role","type":"bytes32"},{"internalType":"address","name":"account","type":"address"}],"name":"revokeRole","outputs":[],"stateMutability":"nonpayable","type":"function"}],"devdoc":{"kind":"dev","methods":{"getRoleAdmin(bytes32)":{"details":"Returns the admin role that controls `role`. See {grantRole} and {revokeRole}. To change a role's admin, use {_setRoleAdmin}."},"getRoleMember(bytes32,uint256)":{"details":"Returns one of the accounts that have `role`. `index` must be a value between 0 and {getRoleMemberCount}, non-inclusive. Role bearers are not sorted in any particular way, and their ordering may change at any point. WARNING: When using {getRoleMember} and {getRoleMemberCount}, make sure you perform all queries on the same block. See the following https://forum.openzeppelin.com/t/iterating-over-elements-on-enumerableset-in-openzeppelin-contracts/2296[forum post] for more information."},"getRoleMemberCount(bytes32)":{"details":"Returns the number of accounts that have `role`. Can be used together with {getRoleMember} to enumerate all bearers of a role."},"grantRole(bytes32,address)":{"details":"Grants `role` to `account`. If `account` had not been already granted `role`, emits a {RoleGranted} event. Requirements: - the caller must have ``role``'s admin role."},"hasRole(bytes32,address)":{"details":"Returns `true` if `account` has been granted `role`."},"renounceRole(bytes32,address)":{"details":"Revokes `role` from the calling account. Roles are often managed via {grantRole} and {revokeRole}: this function's purpose is to provide a mechanism for accounts to lose their privileges if they are compromised (such as when a trusted device is misplaced). If the calling account had been granted `role`, emits a {RoleRevoked} event. Requirements: - the caller must be `account`."},"revokeRole(bytes32,address)":{"details":"Revokes `role` from `account`. If `account` had been granted `role`, emits a {RoleRevoked} event. Requirements: - the caller must have ``role``'s admin role."}},"version":1},"evm":{"assembly":"    /* \"ResultProxy.sol\":93:313  contract ResultProxy is WriterRole {... */\n  mstore(0x40, 0x80)\n  callvalue\n  dup1\n  iszero\n  tag_1\n  jumpi\n  0x00\n  dup1\n  revert\ntag_1:\n  pop\n    /* \"Core/WriterRole.sol\":382:396   */\n  0x00\n    /* \"Core/WriterRole.sol\":426:436   */\n  caller\n    /* \"Core/WriterRole.sol\":409:437   */\n  add(0x20, mload(0x40))\n  dup1\n  dup3\n  0xffffffffffffffffffffffffffffffffffffffff\n  and\n  0xffffffffffffffffffffffffffffffffffffffff\n  and\n  0x60\n  shl\n  dup2\n  mstore\n  0x14\n  add\n  swap2\n  pop\n  pop\n  mload(0x40)\n  0x20\n  dup2\n  dup4\n  sub\n  sub\n  dup2\n  mstore\n  swap1\n  0x40\n  mstore\n    /* \"Core/WriterRole.sol\":399:438   */\n  dup1\n  mload\n  swap1\n  0x20\n  add\n  keccak256\n    /* \"Core/WriterRole.sol\":382:438   */\n  swap1\n  pop\n    /* \"Core/WriterRole.sol\":448:475   */\n  tag_4\n    /* \"Core/WriterRole.sol\":313:332   */\n  mload(0x40)\n  dup1\n  dup1\n  0x5772697465720000000000000000000000000000000000000000000000000000\n  dup2\n  mstore\n  pop\n  0x06\n  add\n  swap1\n  pop\n  mload(0x40)\n  dup1\n  swap2\n  sub\n  swap1\n  keccak256\n    /* \"Core/WriterRole.sol\":468:474   */\n  dup3\n    /* \"Core/WriterRole.sol\":448:461   */\n  shl(0x20, tag_5)\n    /* \"Core/WriterRole.sol\":448:475   */\n  0x20\n  shr\n  jump\t// in\ntag_4:\n    /* \"Core/WriterRole.sol\":485:513   */\n  tag_6\n    /* \"Core/WriterRole.sol\":313:332   */\n  mload(0x40)\n  dup1\n  dup1\n  0x5772697465720000000000000000000000000000000000000000000000000000\n  dup2\n  mstore\n  pop\n  0x06\n  add\n  swap1\n  pop\n  mload(0x40)\n  dup1\n  swap2\n  sub\n  swap1\n  keccak256\n    /* \"Core/WriterRole.sol\":502:512   */\n  caller\n    /* \"Core/WriterRole.sol\":485:495   */\n  shl(0x20, tag_7)\n    /* \"Core/WriterRole.sol\":485:513   */\n  0x20\n  shr\n  jump\t// in\ntag_6:\n    /* \"Core/WriterRole.sol\":348:520   */\n  pop\n    /* \"ResultProxy.sol\":93:313  contract ResultProxy is WriterRole {... */\n  jump(tag_8)\n    /* \"openzeppelin-solidity/contracts/access/AccessControl.sol\":6813:7009   */\ntag_5:\n    /* \"openzeppelin-solidity/contracts/access/AccessControl.sol\":6948:6957   */\n  dup1\n    /* \"openzeppelin-solidity/contracts/access/AccessControl.sol\":6924:6930   */\n  0x00\n    /* \"openzeppelin-solidity/contracts/access/AccessControl.sol\":6924:6936   */\n  dup1\n    /* \"openzeppelin-solidity/contracts/access/AccessControl.sol\":6931:6935   */\n  dup5\n    /* \"openzeppelin-solidity/contracts/access/AccessControl.sol\":6924:6936   */\n  dup2\n  mstore\n  0x20\n  add\n  swap1\n  dup2\n  mstore\n  0x20\n  add\n  0x00\n  keccak256\n    /* \"openzeppelin-solidity/contracts/access/AccessControl.sol\":6924:6946   */\n  0x02\n  add\n  sload\n    /* \"openzeppelin-solidity/contracts/access/AccessControl.sol\":6918:6922   */\n  dup4\n    /* \"openzeppelin-solidity/contracts/access/AccessControl.sol\":6901:6958   */\n  0xbd79b86ffe0ab8e8776151514217cd7cacd52c909f66475c3af44e129f0b00ff\n  mload(0x40)\n  mload(0x40)\n  dup1\n  swap2\n  sub\n  swap1\n  log4\n    /* \"openzeppelin-solidity/contracts/access/AccessControl.sol\":6993:7002   */\n  dup1\n    /* \"openzeppelin-solidity/contracts/access/AccessControl.sol\":6968:6974   */\n  0x00\n    /* \"openzeppelin-solidity/contracts/access/AccessControl.sol\":6968:6980   */\n  dup1\n    /* \"openzeppelin-solidity/contracts/access/AccessControl.sol\":6975:6979   */\n  dup5\n    /* \"openzeppelin-solidity/contracts/access/AccessControl.sol\":6968:6980   */\n  dup2\n  mstore\n  0x20\n  add\n  swap1\n  dup2\n  mstore\n  0x20\n  add\n  0x00\n  keccak256\n    /* \"openzeppelin-solidity/contracts/access/AccessControl.sol\":6968:6990   */\n  0x02\n  add\n    /* \"openzeppelin-solidity/contracts/access/AccessControl.sol\":6968:7002   */\n  dup2\n  swap1\n  sstore\n  pop\n    /* \"openzeppelin-solidity/contracts/access/AccessControl.sol\":6813:7009   */\n  pop\n  pop\n  jump\t// out\n    /* \"openzeppelin-solidity/contracts/access/AccessControl.sol\":6578:6688   */\ntag_7:\n    /* \"openzeppelin-solidity/contracts/access/AccessControl.sol\":6656:6681   */\n  tag_11\n    /* \"openzeppelin-solidity/contracts/access/AccessControl.sol\":6667:6671   */\n  dup3\n    /* \"openzeppelin-solidity/contracts/access/AccessControl.sol\":6673:6680   */\n  dup3\n    /* \"openzeppelin-solidity/contracts/access/AccessControl.sol\":6656:6666   */\n  shl(0x20, tag_12)\n    /* \"openzeppelin-solidity/contracts/access/AccessControl.sol\":6656:6681   */\n  0x20\n  shr\n  jump\t// in\ntag_11:\n    /* \"openzeppelin-solidity/contracts/access/AccessControl.sol\":6578:6688   */\n  pop\n  pop\n  jump\t// out\n    /* \"openzeppelin-solidity/contracts/access/AccessControl.sol\":7015:7199   */\ntag_12:\n    /* \"openzeppelin-solidity/contracts/access/AccessControl.sol\":7088:7121   */\n  tag_14\n    /* \"openzeppelin-solidity/contracts/access/AccessControl.sol\":7113:7120   */\n  dup2\n    /* \"openzeppelin-solidity/contracts/access/AccessControl.sol\":7088:7094   */\n  0x00\n    /* \"openzeppelin-solidity/contracts/access/AccessControl.sol\":7088:7100   */\n  dup1\n    /* \"openzeppelin-solidity/contracts/access/AccessControl.sol\":7095:7099   */\n  dup6\n    /* \"openzeppelin-solidity/contracts/access/AccessControl.sol\":7088:7100   */\n  dup2\n  mstore\n  0x20\n  add\n  swap1\n  dup2\n  mstore\n  0x20\n  add\n  0x00\n  keccak256\n    /* \"openzeppelin-solidity/contracts/access/AccessControl.sol\":7088:7108   */\n  0x00\n  add\n    /* \"openzeppelin-solidity/contracts/access/AccessControl.sol\":7088:7112   */\n  or(tag_0_54, shl(0x20, tag_15))\n  swap1\n    /* \"openzeppelin-solidity/contracts/access/AccessControl.sol\":7088:7121   */\n  swap2\n  swap1\n  0x20\n  shr\n  jump\t// in\ntag_14:\n    /* \"openzeppelin-solidity/contracts/access/AccessControl.sol\":7084:7193   */\n  iszero\n  tag_16\n  jumpi\n    /* \"openzeppelin-solidity/contracts/access/AccessControl.sol\":7169:7181   */\n  tag_17\n    /* \"openzeppelin-solidity/contracts/access/AccessControl.sol\":7169:7179   */\n  shl(0x20, tag_18)\n    /* \"openzeppelin-solidity/contracts/access/AccessControl.sol\":7169:7181   */\n  0x20\n  shr\n  jump\t// in\ntag_17:\n    /* \"openzeppelin-solidity/contracts/access/AccessControl.sol\":7142:7182   */\n  0xffffffffffffffffffffffffffffffffffffffff\n  and\n    /* \"openzeppelin-solidity/contracts/access/AccessControl.sol\":7160:7167   */\n  dup2\n    /* \"openzeppelin-solidity/contracts/access/AccessControl.sol\":7142:7182   */\n  0xffffffffffffffffffffffffffffffffffffffff\n  and\n    /* \"openzeppelin-solidity/contracts/access/AccessControl.sol\":7154:7158   */\n  dup4\n    /* \"openzeppelin-solidity/contracts/access/AccessControl.sol\":7142:7182   */\n  0x2f8788117e7eff1d82e926ec794901d17c78024a50270940304540a733656f0d\n  mload(0x40)\n  mload(0x40)\n  dup1\n  swap2\n  sub\n  swap1\n  log4\n    /* \"openzeppelin-solidity/contracts/access/AccessControl.sol\":7084:7193   */\ntag_16:\n    /* \"openzeppelin-solidity/contracts/access/AccessControl.sol\":7015:7199   */\n  pop\n  pop\n  jump\t// out\n    /* \"openzeppelin-solidity/contracts/utils/EnumerableSet.sol\":4864:5005   */\ntag_15:\n    /* \"openzeppelin-solidity/contracts/utils/EnumerableSet.sol\":4934:4938   */\n  0x00\n    /* \"openzeppelin-solidity/contracts/utils/EnumerableSet.sol\":4957:4998   */\n  tag_20\n    /* \"openzeppelin-solidity/contracts/utils/EnumerableSet.sol\":4962:4965   */\n  dup4\n    /* \"openzeppelin-solidity/contracts/utils/EnumerableSet.sol\":4962:4972   */\n  0x00\n  add\n    /* \"openzeppelin-solidity/contracts/utils/EnumerableSet.sol\":4990:4995   */\n  dup4\n    /* \"openzeppelin-solidity/contracts/utils/EnumerableSet.sol\":4982:4996   */\n  0xffffffffffffffffffffffffffffffffffffffff\n  and\n    /* \"openzeppelin-solidity/contracts/utils/EnumerableSet.sol\":4974:4997   */\n  0x00\n  shl\n    /* \"openzeppelin-solidity/contracts/utils/EnumerableSet.sol\":4957:4961   */\n  shl(0x20, tag_21)\n    /* \"openzeppelin-solidity/contracts/utils/EnumerableSet.sol\":4957:4998   */\n  0x20\n  shr\n  jump\t// in\ntag_20:\n    /* \"openzeppelin-solidity/contracts/utils/EnumerableSet.sol\":4950:4998   */\n  swap1\n  pop\n    /* \"openzeppelin-solidity/contracts/utils/EnumerableSet.sol\":4864:5005   */\n  swap3\n  swap2\n  pop\n  pop\n  jump\t// out\n    /* \"openzeppelin-solidity/contracts/GSN/Context.sol\":590:694   */\ntag_18:\n    /* \"openzeppelin-solidity/contracts/GSN/Context.sol\":643:658   */\n  0x00\n    /* \"openzeppelin-solidity/contracts/GSN/Context.sol\":677:687   */\n  caller\n    /* \"openzeppelin-solidity/contracts/GSN/Context.sol\":670:687   */\n  swap1\n  pop\n    /* \"openzeppelin-solidity/contracts/GSN/Context.sol\":590:694   */\n  swap1\n  jump\t// out\n    /* \"openzeppelin-solidity/contracts/utils/EnumerableSet.sol\":1611:2015   */\ntag_21:\n    /* \"openzeppelin-solidity/contracts/utils/EnumerableSet.sol\":1674:1678   */\n  0x00\n    /* \"openzeppelin-solidity/contracts/utils/EnumerableSet.sol\":1695:1716   */\n  tag_24\n    /* \"openzeppelin-solidity/contracts/utils/EnumerableSet.sol\":1705:1708   */\n  dup4\n    /* \"openzeppelin-solidity/contracts/utils/EnumerableSet.sol\":1710:1715   */\n  dup4\n    /* \"openzeppelin-solidity/contracts/utils/EnumerableSet.sol\":1695:1704   */\n  shl(0x20, tag_25)\n    /* \"openzeppelin-solidity/contracts/utils/EnumerableSet.sol\":1695:1716   */\n  0x20\n  shr\n  jump\t// in\ntag_24:\n    /* \"openzeppelin-solidity/contracts/utils/EnumerableSet.sol\":1690:2009   */\n  tag_26\n  jumpi\n    /* \"openzeppelin-solidity/contracts/utils/EnumerableSet.sol\":1732:1735   */\n  dup3\n    /* \"openzeppelin-solidity/contracts/utils/EnumerableSet.sol\":1732:1743   */\n  0x00\n  add\n    /* \"openzeppelin-solidity/contracts/utils/EnumerableSet.sol\":1749:1754   */\n  dup3\n    /* \"openzeppelin-solidity/contracts/utils/EnumerableSet.sol\":1732:1755   */\n  swap1\n  dup1\n  0x01\n  dup2\n  sload\n  add\n  dup1\n  dup3\n  sstore\n  dup1\n  swap2\n  pop\n  pop\n  0x01\n  swap1\n  sub\n  swap1\n  0x00\n  mstore\n  keccak256(0x00, 0x20)\n  add\n  0x00\n  swap1\n  swap2\n  swap1\n  swap2\n  swap1\n  swap2\n  pop\n  sstore\n    /* \"openzeppelin-solidity/contracts/utils/EnumerableSet.sol\":1912:1915   */\n  dup3\n    /* \"openzeppelin-solidity/contracts/utils/EnumerableSet.sol\":1912:1923   */\n  0x00\n  add\n    /* \"openzeppelin-solidity/contracts/utils/EnumerableSet.sol\":1912:1930   */\n  dup1\n  sload\n  swap1\n  pop\n    /* \"openzeppelin-solidity/contracts/utils/EnumerableSet.sol\":1890:1893   */\n  dup4\n    /* \"openzeppelin-solidity/contracts/utils/EnumerableSet.sol\":1890:1902   */\n  0x01\n  add\n    /* \"openzeppelin-solidity/contracts/utils/EnumerableSet.sol\":1890:1909   */\n  0x00\n    /* \"openzeppelin-solidity/contracts/utils/EnumerableSet.sol\":1903:1908   */\n  dup5\n    /* \"openzeppelin-solidity/contracts/utils/EnumerableSet.sol\":1890:1909   */\n  dup2\n  mstore\n  0x20\n  add\n  swap1\n  dup2\n  mstore\n  0x20\n  add\n  0x00\n  keccak256\n    /* \"openzeppelin-solidity/contracts/utils/EnumerableSet.sol\":1890:1930   */\n  dup2\n  swap1\n  sstore\n  pop\n    /* \"openzeppelin-solidity/contracts/utils/EnumerableSet.sol\":1951:1955   */\n  0x01\n    /* \"openzeppelin-solidity/contracts/utils/EnumerableSet.sol\":1944:1955   */\n  swap1\n  pop\n  jump(tag_23)\n    /* \"openzeppelin-solidity/contracts/utils/EnumerableSet.sol\":1690:2009   */\ntag_26:\n    /* \"openzeppelin-solidity/contracts/utils/EnumerableSet.sol\":1993:1998   */\n  0x00\n    /* \"openzeppelin-solidity/contracts/utils/EnumerableSet.sol\":1986:1998   */\n  swap1\n  pop\n    /* \"openzeppelin-solidity/contracts/utils/EnumerableSet.sol\":1611:2015   */\ntag_23:\n  swap3\n  swap2\n  pop\n  pop\n  jump\t// out\n    /* \"openzeppelin-solidity/contracts/utils/EnumerableSet.sol\":3776:3903   */\ntag_25:\n    /* \"openzeppelin-solidity/contracts/utils/EnumerableSet.sol\":3849:3853   */\n  0x00\n    /* \"openzeppelin-solidity/contracts/utils/EnumerableSet.sol\":3895:3896   */\n  dup1\n    /* \"openzeppelin-solidity/contracts/utils/EnumerableSet.sol\":3872:3875   */\n  dup4\n    /* \"openzeppelin-solidity/contracts/utils/EnumerableSet.sol\":3872:3884   */\n  0x01\n  add\n    /* \"openzeppelin-solidity/contracts/utils/EnumerableSet.sol\":3872:3891   */\n  0x00\n    /* \"openzeppelin-solidity/contracts/utils/EnumerableSet.sol\":3885:3890   */\n  dup5\n    /* \"openzeppelin-solidity/contracts/utils/EnumerableSet.sol\":3872:3891   */\n  dup2\n  mstore\n  0x20\n  add\n  swap1\n  dup2\n  mstore\n  0x20\n  add\n  0x00\n  keccak256\n  sload\n    /* \"openzeppelin-solidity/contracts/utils/EnumerableSet.sol\":3872:3896   */\n  eq\n  iszero\n    /* \"openzeppelin-solidity/contracts/utils/EnumerableSet.sol\":3865:3896   */\n  swap1\n  pop\n    /* \"openzeppelin-solidity/contracts/utils/EnumerableSet.sol\":3776:3903   */\n  swap3\n  swap2\n  pop\n  pop\n  jump\t// out\n    /* \"ResultProxy.sol\":93:313  contract ResultProxy is WriterRole {... */\ntag_8:\n  dataSize(sub_0)\n  dup1\n  dataOffset(sub_0)\n  0x00\n  codecopy\n  0x00\n  return\nstop\n\nsub_0: assembly {\n        /* \"ResultProxy.sol\":93:313  contract ResultProxy is WriterRole {... */\n      mstore(0x40, 0x80)\n      callvalue\n      dup1\n      iszero\n      tag_1\n      jumpi\n      0x00\n      dup1\n      revert\n    tag_1:\n      pop\n      jumpi(tag_2, lt(calldatasize, 0x04))\n      shr(0xe0, calldataload(0x00))\n      dup1\n      0xa217fddf\n      gt\n      tag_16\n      jumpi\n      dup1\n      0xd547741f\n      gt\n      tag_17\n      jumpi\n      dup1\n      0xd547741f\n      eq\n      tag_12\n      jumpi\n      dup1\n      0xda2824a8\n      eq\n      tag_13\n      jumpi\n      dup1\n      0xde13c46f\n      eq\n      tag_14\n      jumpi\n      dup1\n      0xdf4eb59c\n      eq\n      tag_15\n      jumpi\n      jump(tag_2)\n    tag_17:\n      dup1\n      0xa217fddf\n      eq\n      tag_9\n      jumpi\n      dup1\n      0xa5653345\n      eq\n      tag_10\n      jumpi\n      dup1\n      0xca15c873\n      eq\n      tag_11\n      jumpi\n      jump(tag_2)\n    tag_16:\n      dup1\n      0x248a9ca3\n      eq\n      tag_3\n      jumpi\n      dup1\n      0x2b29ba23\n      eq\n      tag_4\n      jumpi\n      dup1\n      0x2f2ff15d\n      eq\n      tag_5\n      jumpi\n      dup1\n      0x36568abe\n      eq\n      tag_6\n      jumpi\n      dup1\n      0x9010d07c\n      eq\n      tag_7\n      jumpi\n      dup1\n      0x91d14854\n      eq\n      tag_8\n      jumpi\n    tag_2:\n      0x00\n      dup1\n      revert\n        /* \"openzeppelin-solidity/contracts/access/AccessControl.sol\":4272:4384   */\n    tag_3:\n      tag_18\n      0x04\n      dup1\n      calldatasize\n      sub\n      0x20\n      dup2\n      lt\n      iszero\n      tag_19\n      jumpi\n      0x00\n      dup1\n      revert\n    tag_19:\n      dup2\n      add\n      swap1\n      dup1\n      dup1\n      calldataload\n      swap1\n      0x20\n      add\n      swap1\n      swap3\n      swap2\n      swap1\n      pop\n      pop\n      pop\n      tag_20\n      jump\t// in\n    tag_18:\n      mload(0x40)\n      dup1\n      dup3\n      dup2\n      mstore\n      0x20\n      add\n      swap2\n      pop\n      pop\n      mload(0x40)\n      dup1\n      swap2\n      sub\n      swap1\n      return\n        /* \"Core/WriterRole.sol\":667:774   */\n    tag_4:\n      tag_21\n      0x04\n      dup1\n      calldatasize\n      sub\n      0x20\n      dup2\n      lt\n      iszero\n      tag_22\n      jumpi\n      0x00\n      dup1\n      revert\n    tag_22:\n      dup2\n      add\n      swap1\n      dup1\n      dup1\n      calldataload\n      0xffffffffffffffffffffffffffffffffffffffff\n      and\n      swap1\n      0x20\n      add\n      swap1\n      swap3\n      swap2\n      swap1\n      pop\n      pop\n      pop\n      tag_23\n      jump\t// in\n    tag_21:\n      mload(0x40)\n      dup1\n      dup3\n      iszero\n      iszero\n      iszero\n      iszero\n      dup2\n      mstore\n      0x20\n      add\n      swap2\n      pop\n      pop\n      mload(0x40)\n      dup1\n      swap2\n      sub\n      swap1\n      return\n        /* \"openzeppelin-solidity/contracts/access/AccessControl.sol\":4634:4857   */\n    tag_5:\n      tag_24\n      0x04\n      dup1\n      calldatasize\n      sub\n      0x40\n      dup2\n      lt\n      iszero\n      tag_25\n      jumpi\n      0x00\n      dup1\n      revert\n    tag_25:\n      dup2\n      add\n      swap1\n      dup1\n      dup1\n      calldataload\n      swap1\n      0x20\n      add\n      swap1\n      swap3\n      swap2\n      swap1\n      dup1\n      calldataload\n      0xffffffffffffffffffffffffffffffffffffffff\n      and\n      swap1\n      0x20\n      add\n      swap1\n      swap3\n      swap2\n      swap1\n      pop\n      pop\n      pop\n      tag_26\n      jump\t// in\n    tag_24:\n      stop\n        /* \"openzeppelin-solidity/contracts/access/AccessControl.sol\":5808:6013   */\n    tag_6:\n      tag_27\n      0x04\n      dup1\n      calldatasize\n      sub\n      0x40\n      dup2\n      lt\n      iszero\n      tag_28\n      jumpi\n      0x00\n      dup1\n      revert\n    tag_28:\n      dup2\n      add\n      swap1\n      dup1\n      dup1\n      calldataload\n      swap1\n      0x20\n      add\n      swap1\n      swap3\n      swap2\n      swap1\n      dup1\n      calldataload\n      0xffffffffffffffffffffffffffffffffffffffff\n      and\n      swap1\n      0x20\n      add\n      swap1\n      swap3\n      swap2\n      swap1\n      pop\n      pop\n      pop\n      tag_29\n      jump\t// in\n    tag_27:\n      stop\n        /* \"openzeppelin-solidity/contracts/access/AccessControl.sol\":3955:4091   */\n    tag_7:\n      tag_30\n      0x04\n      dup1\n      calldatasize\n      sub\n      0x40\n      dup2\n      lt\n      iszero\n      tag_31\n      jumpi\n      0x00\n      dup1\n      revert\n    tag_31:\n      dup2\n      add\n      swap1\n      dup1\n      dup1\n      calldataload\n      swap1\n      0x20\n      add\n      swap1\n      swap3\n      swap2\n      swap1\n      dup1\n      calldataload\n      swap1\n      0x20\n      add\n      swap1\n      swap3\n      swap2\n      swap1\n      pop\n      pop\n      pop\n      tag_32\n      jump\t// in\n    tag_30:\n      mload(0x40)\n      dup1\n      dup3\n      0xffffffffffffffffffffffffffffffffffffffff\n      and\n      0xffffffffffffffffffffffffffffffffffffffff\n      and\n      dup2\n      mstore\n      0x20\n      add\n      swap2\n      pop\n      pop\n      mload(0x40)\n      dup1\n      swap2\n      sub\n      swap1\n      return\n        /* \"openzeppelin-solidity/contracts/access/AccessControl.sol\":2940:3077   */\n    tag_8:\n      tag_33\n      0x04\n      dup1\n      calldatasize\n      sub\n      0x40\n      dup2\n      lt\n      iszero\n      tag_34\n      jumpi\n      0x00\n      dup1\n      revert\n    tag_34:\n      dup2\n      add\n      swap1\n      dup1\n      dup1\n      calldataload\n      swap1\n      0x20\n      add\n      swap1\n      swap3\n      swap2\n      swap1\n      dup1\n      calldataload\n      0xffffffffffffffffffffffffffffffffffffffff\n      and\n      swap1\n      0x20\n      add\n      swap1\n      swap3\n      swap2\n      swap1\n      pop\n      pop\n      pop\n      tag_35\n      jump\t// in\n    tag_33:\n      mload(0x40)\n      dup1\n      dup3\n      iszero\n      iszero\n      iszero\n      iszero\n      dup2\n      mstore\n      0x20\n      add\n      swap2\n      pop\n      pop\n      mload(0x40)\n      dup1\n      swap2\n      sub\n      swap1\n      return\n        /* \"openzeppelin-solidity/contracts/access/AccessControl.sol\":1717:1766   */\n    tag_9:\n      tag_36\n      tag_37\n      jump\t// in\n    tag_36:\n      mload(0x40)\n      dup1\n      dup3\n      dup2\n      mstore\n      0x20\n      add\n      swap2\n      pop\n      pop\n      mload(0x40)\n      dup1\n      swap2\n      sub\n      swap1\n      return\n        /* \"ResultProxy.sol\":173:309  function changeJobManagerAddress(address _jobManagerAddress) external onlyWriter {... */\n    tag_10:\n      tag_38\n      0x04\n      dup1\n      calldatasize\n      sub\n      0x20\n      dup2\n      lt\n      iszero\n      tag_39\n      jumpi\n      0x00\n      dup1\n      revert\n    tag_39:\n      dup2\n      add\n      swap1\n      dup1\n      dup1\n      calldataload\n      0xffffffffffffffffffffffffffffffffffffffff\n      and\n      swap1\n      0x20\n      add\n      swap1\n      swap3\n      swap2\n      swap1\n      pop\n      pop\n      pop\n      tag_40\n      jump\t// in\n    tag_38:\n      stop\n        /* \"openzeppelin-solidity/contracts/access/AccessControl.sol\":3245:3370   */\n    tag_11:\n      tag_41\n      0x04\n      dup1\n      calldatasize\n      sub\n      0x20\n      dup2\n      lt\n      iszero\n      tag_42\n      jumpi\n      0x00\n      dup1\n      revert\n    tag_42:\n      dup2\n      add\n      swap1\n      dup1\n      dup1\n      calldataload\n      swap1\n      0x20\n      add\n      swap1\n      swap3\n      swap2\n      swap1\n      pop\n      pop\n      pop\n      tag_43\n      jump\t// in\n    tag_41:\n      mload(0x40)\n      dup1\n      dup3\n      dup2\n      mstore\n      0x20\n      add\n      swap2\n      pop\n      pop\n      mload(0x40)\n      dup1\n      swap2\n      sub\n      swap1\n      return\n        /* \"openzeppelin-solidity/contracts/access/AccessControl.sol\":5091:5317   */\n    tag_12:\n      tag_44\n      0x04\n      dup1\n      calldatasize\n      sub\n      0x40\n      dup2\n      lt\n      iszero\n      tag_45\n      jumpi\n      0x00\n      dup1\n      revert\n    tag_45:\n      dup2\n      add\n      swap1\n      dup1\n      dup1\n      calldataload\n      swap1\n      0x20\n      add\n      swap1\n      swap3\n      swap2\n      swap1\n      dup1\n      calldataload\n      0xffffffffffffffffffffffffffffffffffffffff\n      and\n      swap1\n      0x20\n      add\n      swap1\n      swap3\n      swap2\n      swap1\n      pop\n      pop\n      pop\n      tag_46\n      jump\t// in\n    tag_44:\n      stop\n        /* \"Core/WriterRole.sol\":784:874   */\n    tag_13:\n      tag_47\n      0x04\n      dup1\n      calldatasize\n      sub\n      0x20\n      dup2\n      lt\n      iszero\n      tag_48\n      jumpi\n      0x00\n      dup1\n      revert\n    tag_48:\n      dup2\n      add\n      swap1\n      dup1\n      dup1\n      calldataload\n      0xffffffffffffffffffffffffffffffffffffffff\n      and\n      swap1\n      0x20\n      add\n      swap1\n      swap3\n      swap2\n      swap1\n      pop\n      pop\n      pop\n      tag_49\n      jump\t// in\n    tag_47:\n      stop\n        /* \"ResultProxy.sol\":134:166  address public jobManagerAddress */\n    tag_14:\n      tag_50\n      tag_51\n      jump\t// in\n    tag_50:\n      mload(0x40)\n      dup1\n      dup3\n      0xffffffffffffffffffffffffffffffffffffffff\n      and\n      0xffffffffffffffffffffffffffffffffffffffff\n      and\n      dup2\n      mstore\n      0x20\n      add\n      swap2\n      pop\n      pop\n      mload(0x40)\n      dup1\n      swap2\n      sub\n      swap1\n      return\n        /* \"Core/WriterRole.sol\":880:955   */\n    tag_15:\n      tag_52\n      tag_53\n      jump\t// in\n    tag_52:\n      stop\n        /* \"openzeppelin-solidity/contracts/access/AccessControl.sol\":4272:4384   */\n    tag_20:\n        /* \"openzeppelin-solidity/contracts/access/AccessControl.sol\":4329:4336   */\n      0x00\n        /* \"openzeppelin-solidity/contracts/access/AccessControl.sol\":4355:4361   */\n      dup1\n        /* \"openzeppelin-solidity/contracts/access/AccessControl.sol\":4355:4367   */\n      0x00\n        /* \"openzeppelin-solidity/contracts/access/AccessControl.sol\":4362:4366   */\n      dup4\n        /* \"openzeppelin-solidity/contracts/access/AccessControl.sol\":4355:4367   */\n      dup2\n      mstore\n      0x20\n      add\n      swap1\n      dup2\n      mstore\n      0x20\n      add\n      0x00\n      keccak256\n        /* \"openzeppelin-solidity/contracts/access/AccessControl.sol\":4355:4377   */\n      0x02\n      add\n      sload\n        /* \"openzeppelin-solidity/contracts/access/AccessControl.sol\":4348:4377   */\n      swap1\n      pop\n        /* \"openzeppelin-solidity/contracts/access/AccessControl.sol\":4272:4384   */\n      swap2\n      swap1\n      pop\n      jump\t// out\n        /* \"Core/WriterRole.sol\":667:774   */\n    tag_23:\n        /* \"Core/WriterRole.sol\":723:727   */\n      0x00\n        /* \"Core/WriterRole.sol\":746:767   */\n      tag_57\n        /* \"Core/WriterRole.sol\":313:332   */\n      mload(0x40)\n      dup1\n      dup1\n      0x5772697465720000000000000000000000000000000000000000000000000000\n      dup2\n      mstore\n      pop\n      0x06\n      add\n      swap1\n      pop\n      mload(0x40)\n      dup1\n      swap2\n      sub\n      swap1\n      keccak256\n        /* \"Core/WriterRole.sol\":759:766   */\n      dup4\n        /* \"Core/WriterRole.sol\":746:753   */\n      tag_35\n        /* \"Core/WriterRole.sol\":746:767   */\n      jump\t// in\n    tag_57:\n        /* \"Core/WriterRole.sol\":739:767   */\n      swap1\n      pop\n        /* \"Core/WriterRole.sol\":667:774   */\n      swap2\n      swap1\n      pop\n      jump\t// out\n        /* \"openzeppelin-solidity/contracts/access/AccessControl.sol\":4634:4857   */\n    tag_26:\n        /* \"openzeppelin-solidity/contracts/access/AccessControl.sol\":4717:4762   */\n      tag_59\n        /* \"openzeppelin-solidity/contracts/access/AccessControl.sol\":4725:4731   */\n      0x00\n        /* \"openzeppelin-solidity/contracts/access/AccessControl.sol\":4725:4737   */\n      dup1\n        /* \"openzeppelin-solidity/contracts/access/AccessControl.sol\":4732:4736   */\n      dup5\n        /* \"openzeppelin-solidity/contracts/access/AccessControl.sol\":4725:4737   */\n      dup2\n      mstore\n      0x20\n      add\n      swap1\n      dup2\n      mstore\n      0x20\n      add\n      0x00\n      keccak256\n        /* \"openzeppelin-solidity/contracts/access/AccessControl.sol\":4725:4747   */\n      0x02\n      add\n      sload\n        /* \"openzeppelin-solidity/contracts/access/AccessControl.sol\":4749:4761   */\n      tag_60\n        /* \"openzeppelin-solidity/contracts/access/AccessControl.sol\":4749:4759   */\n      tag_61\n        /* \"openzeppelin-solidity/contracts/access/AccessControl.sol\":4749:4761   */\n      jump\t// in\n    tag_60:\n        /* \"openzeppelin-solidity/contracts/access/AccessControl.sol\":4717:4724   */\n      tag_35\n        /* \"openzeppelin-solidity/contracts/access/AccessControl.sol\":4717:4762   */\n      jump\t// in\n    tag_59:\n        /* \"openzeppelin-solidity/contracts/access/AccessControl.sol\":4709:4814   */\n      tag_62\n      jumpi\n      mload(0x40)\n      0x08c379a000000000000000000000000000000000000000000000000000000000\n      dup2\n      mstore\n      0x04\n      add\n      dup1\n      dup1\n      0x20\n      add\n      dup3\n      dup2\n      sub\n      dup3\n      mstore\n      0x2f\n      dup2\n      mstore\n      0x20\n      add\n      dup1\n      data_0ba7116025f1ef6b158a2bd2238e617f30e17c9e456917d901086ca4f8ad2811\n      0x2f\n      swap2\n      codecopy\n      0x40\n      add\n      swap2\n      pop\n      pop\n      mload(0x40)\n      dup1\n      swap2\n      sub\n      swap1\n      revert\n    tag_62:\n        /* \"openzeppelin-solidity/contracts/access/AccessControl.sol\":4825:4850   */\n      tag_63\n        /* \"openzeppelin-solidity/contracts/access/AccessControl.sol\":4836:4840   */\n      dup3\n        /* \"openzeppelin-solidity/contracts/access/AccessControl.sol\":4842:4849   */\n      dup3\n        /* \"openzeppelin-solidity/contracts/access/AccessControl.sol\":4825:4835   */\n      tag_64\n        /* \"openzeppelin-solidity/contracts/access/AccessControl.sol\":4825:4850   */\n      jump\t// in\n    tag_63:\n        /* \"openzeppelin-solidity/contracts/access/AccessControl.sol\":4634:4857   */\n      pop\n      pop\n      jump\t// out\n        /* \"openzeppelin-solidity/contracts/access/AccessControl.sol\":5808:6013   */\n    tag_29:\n        /* \"openzeppelin-solidity/contracts/access/AccessControl.sol\":5905:5917   */\n      tag_66\n        /* \"openzeppelin-solidity/contracts/access/AccessControl.sol\":5905:5915   */\n      tag_61\n        /* \"openzeppelin-solidity/contracts/access/AccessControl.sol\":5905:5917   */\n      jump\t// in\n    tag_66:\n        /* \"openzeppelin-solidity/contracts/access/AccessControl.sol\":5894:5917   */\n      0xffffffffffffffffffffffffffffffffffffffff\n      and\n        /* \"openzeppelin-solidity/contracts/access/AccessControl.sol\":5894:5901   */\n      dup2\n        /* \"openzeppelin-solidity/contracts/access/AccessControl.sol\":5894:5917   */\n      0xffffffffffffffffffffffffffffffffffffffff\n      and\n      eq\n        /* \"openzeppelin-solidity/contracts/access/AccessControl.sol\":5886:5969   */\n      tag_67\n      jumpi\n      mload(0x40)\n      0x08c379a000000000000000000000000000000000000000000000000000000000\n      dup2\n      mstore\n      0x04\n      add\n      dup1\n      dup1\n      0x20\n      add\n      dup3\n      dup2\n      sub\n      dup3\n      mstore\n      0x2f\n      dup2\n      mstore\n      0x20\n      add\n      dup1\n      data_fb06fa8ff2141e8ed74502f6792273793f25f0e9d3cf15344f3f5a0d4948fd4b\n      0x2f\n      swap2\n      codecopy\n      0x40\n      add\n      swap2\n      pop\n      pop\n      mload(0x40)\n      dup1\n      swap2\n      sub\n      swap1\n      revert\n    tag_67:\n        /* \"openzeppelin-solidity/contracts/access/AccessControl.sol\":5980:6006   */\n      tag_68\n        /* \"openzeppelin-solidity/contracts/access/AccessControl.sol\":5992:5996   */\n      dup3\n        /* \"openzeppelin-solidity/contracts/access/AccessControl.sol\":5998:6005   */\n      dup3\n        /* \"openzeppelin-solidity/contracts/access/AccessControl.sol\":5980:5991   */\n      tag_69\n        /* \"openzeppelin-solidity/contracts/access/AccessControl.sol\":5980:6006   */\n      jump\t// in\n    tag_68:\n        /* \"openzeppelin-solidity/contracts/access/AccessControl.sol\":5808:6013   */\n      pop\n      pop\n      jump\t// out\n        /* \"openzeppelin-solidity/contracts/access/AccessControl.sol\":3955:4091   */\n    tag_32:\n        /* \"openzeppelin-solidity/contracts/access/AccessControl.sol\":4028:4035   */\n      0x00\n        /* \"openzeppelin-solidity/contracts/access/AccessControl.sol\":4054:4084   */\n      tag_71\n        /* \"openzeppelin-solidity/contracts/access/AccessControl.sol\":4078:4083   */\n      dup3\n        /* \"openzeppelin-solidity/contracts/access/AccessControl.sol\":4054:4060   */\n      0x00\n        /* \"openzeppelin-solidity/contracts/access/AccessControl.sol\":4054:4066   */\n      dup1\n        /* \"openzeppelin-solidity/contracts/access/AccessControl.sol\":4061:4065   */\n      dup7\n        /* \"openzeppelin-solidity/contracts/access/AccessControl.sol\":4054:4066   */\n      dup2\n      mstore\n      0x20\n      add\n      swap1\n      dup2\n      mstore\n      0x20\n      add\n      0x00\n      keccak256\n        /* \"openzeppelin-solidity/contracts/access/AccessControl.sol\":4054:4074   */\n      0x00\n      add\n        /* \"openzeppelin-solidity/contracts/access/AccessControl.sol\":4054:4077   */\n      tag_72\n      swap1\n        /* \"openzeppelin-solidity/contracts/access/AccessControl.sol\":4054:4084   */\n      swap2\n      swap1\n      0xffffffff\n      and\n      jump\t// in\n    tag_71:\n        /* \"openzeppelin-solidity/contracts/access/AccessControl.sol\":4047:4084   */\n      swap1\n      pop\n        /* \"openzeppelin-solidity/contracts/access/AccessControl.sol\":3955:4091   */\n      swap3\n      swap2\n      pop\n      pop\n      jump\t// out\n        /* \"openzeppelin-solidity/contracts/access/AccessControl.sol\":2940:3077   */\n    tag_35:\n        /* \"openzeppelin-solidity/contracts/access/AccessControl.sol\":3009:3013   */\n      0x00\n        /* \"openzeppelin-solidity/contracts/access/AccessControl.sol\":3032:3070   */\n      tag_74\n        /* \"openzeppelin-solidity/contracts/access/AccessControl.sol\":3062:3069   */\n      dup3\n        /* \"openzeppelin-solidity/contracts/access/AccessControl.sol\":3032:3038   */\n      0x00\n        /* \"openzeppelin-solidity/contracts/access/AccessControl.sol\":3032:3044   */\n      dup1\n        /* \"openzeppelin-solidity/contracts/access/AccessControl.sol\":3039:3043   */\n      dup7\n        /* \"openzeppelin-solidity/contracts/access/AccessControl.sol\":3032:3044   */\n      dup2\n      mstore\n      0x20\n      add\n      swap1\n      dup2\n      mstore\n      0x20\n      add\n      0x00\n      keccak256\n        /* \"openzeppelin-solidity/contracts/access/AccessControl.sol\":3032:3052   */\n      0x00\n      add\n        /* \"openzeppelin-solidity/contracts/access/AccessControl.sol\":3032:3061   */\n      tag_75\n      swap1\n        /* \"openzeppelin-solidity/contracts/access/AccessControl.sol\":3032:3070   */\n      swap2\n      swap1\n      0xffffffff\n      and\n      jump\t// in\n    tag_74:\n        /* \"openzeppelin-solidity/contracts/access/AccessControl.sol\":3025:3070   */\n      swap1\n      pop\n        /* \"openzeppelin-solidity/contracts/access/AccessControl.sol\":2940:3077   */\n      swap3\n      swap2\n      pop\n      pop\n      jump\t// out\n        /* \"openzeppelin-solidity/contracts/access/AccessControl.sol\":1717:1766   */\n    tag_37:\n        /* \"openzeppelin-solidity/contracts/access/AccessControl.sol\":1762:1766   */\n      0x00\n        /* \"openzeppelin-solidity/contracts/access/AccessControl.sol\":1717:1766   */\n      dup1\n      shl\n      dup2\n      jump\t// out\n        /* \"ResultProxy.sol\":173:309  function changeJobManagerAddress(address _jobManagerAddress) external onlyWriter {... */\n    tag_40:\n        /* \"Core/WriterRole.sol\":570:590   */\n      tag_77\n        /* \"Core/WriterRole.sol\":579:589   */\n      caller\n        /* \"Core/WriterRole.sol\":570:578   */\n      tag_23\n        /* \"Core/WriterRole.sol\":570:590   */\n      jump\t// in\n    tag_77:\n        /* \"Core/WriterRole.sol\":562:643   */\n      tag_78\n      jumpi\n      mload(0x40)\n      0x08c379a000000000000000000000000000000000000000000000000000000000\n      dup2\n      mstore\n      0x04\n      add\n      dup1\n      dup1\n      0x20\n      add\n      dup3\n      dup2\n      sub\n      dup3\n      mstore\n      0x30\n      dup2\n      mstore\n      0x20\n      add\n      dup1\n      data_f20ff92c8e756ffc1953078d2fc56233ec718f46826625adaedf1c01a55de207\n      0x30\n      swap2\n      codecopy\n      0x40\n      add\n      swap2\n      pop\n      pop\n      mload(0x40)\n      dup1\n      swap2\n      sub\n      swap1\n      revert\n    tag_78:\n        /* \"ResultProxy.sol\":284:302  _jobManagerAddress */\n      dup1\n        /* \"ResultProxy.sol\":264:281  jobManagerAddress */\n      0x01\n      0x00\n        /* \"ResultProxy.sol\":264:302  jobManagerAddress = _jobManagerAddress */\n      0x0100\n      exp\n      dup2\n      sload\n      dup2\n      0xffffffffffffffffffffffffffffffffffffffff\n      mul\n      not\n      and\n      swap1\n      dup4\n      0xffffffffffffffffffffffffffffffffffffffff\n      and\n      mul\n      or\n      swap1\n      sstore\n      pop\n        /* \"ResultProxy.sol\":173:309  function changeJobManagerAddress(address _jobManagerAddress) external onlyWriter {... */\n      pop\n      jump\t// out\n        /* \"openzeppelin-solidity/contracts/access/AccessControl.sol\":3245:3370   */\n    tag_43:\n        /* \"openzeppelin-solidity/contracts/access/AccessControl.sol\":3308:3315   */\n      0x00\n        /* \"openzeppelin-solidity/contracts/access/AccessControl.sol\":3334:3363   */\n      tag_81\n        /* \"openzeppelin-solidity/contracts/access/AccessControl.sol\":3334:3340   */\n      0x00\n        /* \"openzeppelin-solidity/contracts/access/AccessControl.sol\":3334:3346   */\n      dup1\n        /* \"openzeppelin-solidity/contracts/access/AccessControl.sol\":3341:3345   */\n      dup5\n        /* \"openzeppelin-solidity/contracts/access/AccessControl.sol\":3334:3346   */\n      dup2\n      mstore\n      0x20\n      add\n      swap1\n      dup2\n      mstore\n      0x20\n      add\n      0x00\n      keccak256\n        /* \"openzeppelin-solidity/contracts/access/AccessControl.sol\":3334:3354   */\n      0x00\n      add\n        /* \"openzeppelin-solidity/contracts/access/AccessControl.sol\":3334:3361   */\n      tag_82\n        /* \"openzeppelin-solidity/contracts/access/AccessControl.sol\":3334:3363   */\n      jump\t// in\n    tag_81:\n        /* \"openzeppelin-solidity/contracts/access/AccessControl.sol\":3327:3363   */\n      swap1\n      pop\n        /* \"openzeppelin-solidity/contracts/access/AccessControl.sol\":3245:3370   */\n      swap2\n      swap1\n      pop\n      jump\t// out\n        /* \"openzeppelin-solidity/contracts/access/AccessControl.sol\":5091:5317   */\n    tag_46:\n        /* \"openzeppelin-solidity/contracts/access/AccessControl.sol\":5175:5220   */\n      tag_84\n        /* \"openzeppelin-solidity/contracts/access/AccessControl.sol\":5183:5189   */\n      0x00\n        /* \"openzeppelin-solidity/contracts/access/AccessControl.sol\":5183:5195   */\n      dup1\n        /* \"openzeppelin-solidity/contracts/access/AccessControl.sol\":5190:5194   */\n      dup5\n        /* \"openzeppelin-solidity/contracts/access/AccessControl.sol\":5183:5195   */\n      dup2\n      mstore\n      0x20\n      add\n      swap1\n      dup2\n      mstore\n      0x20\n      add\n      0x00\n      keccak256\n        /* \"openzeppelin-solidity/contracts/access/AccessControl.sol\":5183:5205   */\n      0x02\n      add\n      sload\n        /* \"openzeppelin-solidity/contracts/access/AccessControl.sol\":5207:5219   */\n      tag_85\n        /* \"openzeppelin-solidity/contracts/access/AccessControl.sol\":5207:5217   */\n      tag_61\n        /* \"openzeppelin-solidity/contracts/access/AccessControl.sol\":5207:5219   */\n      jump\t// in\n    tag_85:\n        /* \"openzeppelin-solidity/contracts/access/AccessControl.sol\":5175:5182   */\n      tag_35\n        /* \"openzeppelin-solidity/contracts/access/AccessControl.sol\":5175:5220   */\n      jump\t// in\n    tag_84:\n        /* \"openzeppelin-solidity/contracts/access/AccessControl.sol\":5167:5273   */\n      tag_86\n      jumpi\n      mload(0x40)\n      0x08c379a000000000000000000000000000000000000000000000000000000000\n      dup2\n      mstore\n      0x04\n      add\n      dup1\n      dup1\n      0x20\n      add\n      dup3\n      dup2\n      sub\n      dup3\n      mstore\n      0x30\n      dup2\n      mstore\n      0x20\n      add\n      dup1\n      data_64344570eab7406ca49d34d38bf2b2496dfda914405390c5057c8b0aabf798a3\n      0x30\n      swap2\n      codecopy\n      0x40\n      add\n      swap2\n      pop\n      pop\n      mload(0x40)\n      dup1\n      swap2\n      sub\n      swap1\n      revert\n    tag_86:\n        /* \"openzeppelin-solidity/contracts/access/AccessControl.sol\":5284:5310   */\n      tag_87\n        /* \"openzeppelin-solidity/contracts/access/AccessControl.sol\":5296:5300   */\n      dup3\n        /* \"openzeppelin-solidity/contracts/access/AccessControl.sol\":5302:5309   */\n      dup3\n        /* \"openzeppelin-solidity/contracts/access/AccessControl.sol\":5284:5295   */\n      tag_69\n        /* \"openzeppelin-solidity/contracts/access/AccessControl.sol\":5284:5310   */\n      jump\t// in\n    tag_87:\n        /* \"openzeppelin-solidity/contracts/access/AccessControl.sol\":5091:5317   */\n      pop\n      pop\n      jump\t// out\n        /* \"Core/WriterRole.sol\":784:874   */\n    tag_49:\n        /* \"Core/WriterRole.sol\":570:590   */\n      tag_89\n        /* \"Core/WriterRole.sol\":579:589   */\n      caller\n        /* \"Core/WriterRole.sol\":570:578   */\n      tag_23\n        /* \"Core/WriterRole.sol\":570:590   */\n      jump\t// in\n    tag_89:\n        /* \"Core/WriterRole.sol\":562:643   */\n      tag_90\n      jumpi\n      mload(0x40)\n      0x08c379a000000000000000000000000000000000000000000000000000000000\n      dup2\n      mstore\n      0x04\n      add\n      dup1\n      dup1\n      0x20\n      add\n      dup3\n      dup2\n      sub\n      dup3\n      mstore\n      0x30\n      dup2\n      mstore\n      0x20\n      add\n      dup1\n      data_f20ff92c8e756ffc1953078d2fc56233ec718f46826625adaedf1c01a55de207\n      0x30\n      swap2\n      codecopy\n      0x40\n      add\n      swap2\n      pop\n      pop\n      mload(0x40)\n      dup1\n      swap2\n      sub\n      swap1\n      revert\n    tag_90:\n        /* \"Core/WriterRole.sol\":848:867   */\n      tag_92\n        /* \"Core/WriterRole.sol\":859:866   */\n      dup2\n        /* \"Core/WriterRole.sol\":848:858   */\n      tag_93\n        /* \"Core/WriterRole.sol\":848:867   */\n      jump\t// in\n    tag_92:\n        /* \"Core/WriterRole.sol\":784:874   */\n      pop\n      jump\t// out\n        /* \"ResultProxy.sol\":134:166  address public jobManagerAddress */\n    tag_51:\n      0x01\n      0x00\n      swap1\n      sload\n      swap1\n      0x0100\n      exp\n      swap1\n      div\n      0xffffffffffffffffffffffffffffffffffffffff\n      and\n      dup2\n      jump\t// out\n        /* \"Core/WriterRole.sol\":880:955   */\n    tag_53:\n        /* \"Core/WriterRole.sol\":923:948   */\n      tag_95\n        /* \"Core/WriterRole.sol\":937:947   */\n      caller\n        /* \"Core/WriterRole.sol\":923:936   */\n      tag_96\n        /* \"Core/WriterRole.sol\":923:948   */\n      jump\t// in\n    tag_95:\n        /* \"Core/WriterRole.sol\":880:955   */\n      jump\t// out\n        /* \"openzeppelin-solidity/contracts/utils/EnumerableSet.sol\":4864:5005   */\n    tag_54:\n        /* \"openzeppelin-solidity/contracts/utils/EnumerableSet.sol\":4934:4938   */\n      0x00\n        /* \"openzeppelin-solidity/contracts/utils/EnumerableSet.sol\":4957:4998   */\n      tag_98\n        /* \"openzeppelin-solidity/contracts/utils/EnumerableSet.sol\":4962:4965   */\n      dup4\n        /* \"openzeppelin-solidity/contracts/utils/EnumerableSet.sol\":4962:4972   */\n      0x00\n      add\n        /* \"openzeppelin-solidity/contracts/utils/EnumerableSet.sol\":4990:4995   */\n      dup4\n        /* \"openzeppelin-solidity/contracts/utils/EnumerableSet.sol\":4982:4996   */\n      0xffffffffffffffffffffffffffffffffffffffff\n      and\n        /* \"openzeppelin-solidity/contracts/utils/EnumerableSet.sol\":4974:4997   */\n      0x00\n      shl\n        /* \"openzeppelin-solidity/contracts/utils/EnumerableSet.sol\":4957:4961   */\n      tag_99\n        /* \"openzeppelin-solidity/contracts/utils/EnumerableSet.sol\":4957:4998   */\n      jump\t// in\n    tag_98:\n        /* \"openzeppelin-solidity/contracts/utils/EnumerableSet.sol\":4950:4998   */\n      swap1\n      pop\n        /* \"openzeppelin-solidity/contracts/utils/EnumerableSet.sol\":4864:5005   */\n      swap3\n      swap2\n      pop\n      pop\n      jump\t// out\n        /* \"openzeppelin-solidity/contracts/GSN/Context.sol\":590:694   */\n    tag_61:\n        /* \"openzeppelin-solidity/contracts/GSN/Context.sol\":643:658   */\n      0x00\n        /* \"openzeppelin-solidity/contracts/GSN/Context.sol\":677:687   */\n      caller\n        /* \"openzeppelin-solidity/contracts/GSN/Context.sol\":670:687   */\n      swap1\n      pop\n        /* \"openzeppelin-solidity/contracts/GSN/Context.sol\":590:694   */\n      swap1\n      jump\t// out\n        /* \"openzeppelin-solidity/contracts/access/AccessControl.sol\":7015:7199   */\n    tag_64:\n        /* \"openzeppelin-solidity/contracts/access/AccessControl.sol\":7088:7121   */\n      tag_102\n        /* \"openzeppelin-solidity/contracts/access/AccessControl.sol\":7113:7120   */\n      dup2\n        /* \"openzeppelin-solidity/contracts/access/AccessControl.sol\":7088:7094   */\n      0x00\n        /* \"openzeppelin-solidity/contracts/access/AccessControl.sol\":7088:7100   */\n      dup1\n        /* \"openzeppelin-solidity/contracts/access/AccessControl.sol\":7095:7099   */\n      dup6\n        /* \"openzeppelin-solidity/contracts/access/AccessControl.sol\":7088:7100   */\n      dup2\n      mstore\n      0x20\n      add\n      swap1\n      dup2\n      mstore\n      0x20\n      add\n      0x00\n      keccak256\n        /* \"openzeppelin-solidity/contracts/access/AccessControl.sol\":7088:7108   */\n      0x00\n      add\n        /* \"openzeppelin-solidity/contracts/access/AccessControl.sol\":7088:7112   */\n      tag_54\n      swap1\n        /* \"openzeppelin-solidity/contracts/access/AccessControl.sol\":7088:7121   */\n      swap2\n      swap1\n      0xffffffff\n      and\n      jump\t// in\n    tag_102:\n        /* \"openzeppelin-solidity/contracts/access/AccessControl.sol\":7084:7193   */\n      iszero\n      tag_103\n      jumpi\n        /* \"openzeppelin-solidity/contracts/access/AccessControl.sol\":7169:7181   */\n      tag_104\n        /* \"openzeppelin-solidity/contracts/access/AccessControl.sol\":7169:7179   */\n      tag_61\n        /* \"openzeppelin-solidity/contracts/access/AccessControl.sol\":7169:7181   */\n      jump\t// in\n    tag_104:\n        /* \"openzeppelin-solidity/contracts/access/AccessControl.sol\":7142:7182   */\n      0xffffffffffffffffffffffffffffffffffffffff\n      and\n        /* \"openzeppelin-solidity/contracts/access/AccessControl.sol\":7160:7167   */\n      dup2\n        /* \"openzeppelin-solidity/contracts/access/AccessControl.sol\":7142:7182   */\n      0xffffffffffffffffffffffffffffffffffffffff\n      and\n        /* \"openzeppelin-solidity/contracts/access/AccessControl.sol\":7154:7158   */\n      dup4\n        /* \"openzeppelin-solidity/contracts/access/AccessControl.sol\":7142:7182   */\n      0x2f8788117e7eff1d82e926ec794901d17c78024a50270940304540a733656f0d\n      mload(0x40)\n      mload(0x40)\n      dup1\n      swap2\n      sub\n      swap1\n      log4\n        /* \"openzeppelin-solidity/contracts/access/AccessControl.sol\":7084:7193   */\n    tag_103:\n        /* \"openzeppelin-solidity/contracts/access/AccessControl.sol\":7015:7199   */\n      pop\n      pop\n      jump\t// out\n        /* \"openzeppelin-solidity/contracts/access/AccessControl.sol\":7205:7393   */\n    tag_69:\n        /* \"openzeppelin-solidity/contracts/access/AccessControl.sol\":7279:7315   */\n      tag_106\n        /* \"openzeppelin-solidity/contracts/access/AccessControl.sol\":7307:7314   */\n      dup2\n        /* \"openzeppelin-solidity/contracts/access/AccessControl.sol\":7279:7285   */\n      0x00\n        /* \"openzeppelin-solidity/contracts/access/AccessControl.sol\":7279:7291   */\n      dup1\n        /* \"openzeppelin-solidity/contracts/access/AccessControl.sol\":7286:7290   */\n      dup6\n        /* \"openzeppelin-solidity/contracts/access/AccessControl.sol\":7279:7291   */\n      dup2\n      mstore\n      0x20\n      add\n      swap1\n      dup2\n      mstore\n      0x20\n      add\n      0x00\n      keccak256\n        /* \"openzeppelin-solidity/contracts/access/AccessControl.sol\":7279:7299   */\n      0x00\n      add\n        /* \"openzeppelin-solidity/contracts/access/AccessControl.sol\":7279:7306   */\n      tag_107\n      swap1\n        /* \"openzeppelin-solidity/contracts/access/AccessControl.sol\":7279:7315   */\n      swap2\n      swap1\n      0xffffffff\n      and\n      jump\t// in\n    tag_106:\n        /* \"openzeppelin-solidity/contracts/access/AccessControl.sol\":7275:7387   */\n      iszero\n      tag_108\n      jumpi\n        /* \"openzeppelin-solidity/contracts/access/AccessControl.sol\":7363:7375   */\n      tag_109\n        /* \"openzeppelin-solidity/contracts/access/AccessControl.sol\":7363:7373   */\n      tag_61\n        /* \"openzeppelin-solidity/contracts/access/AccessControl.sol\":7363:7375   */\n      jump\t// in\n    tag_109:\n        /* \"openzeppelin-solidity/contracts/access/AccessControl.sol\":7336:7376   */\n      0xffffffffffffffffffffffffffffffffffffffff\n      and\n        /* \"openzeppelin-solidity/contracts/access/AccessControl.sol\":7354:7361   */\n      dup2\n        /* \"openzeppelin-solidity/contracts/access/AccessControl.sol\":7336:7376   */\n      0xffffffffffffffffffffffffffffffffffffffff\n      and\n        /* \"openzeppelin-solidity/contracts/access/AccessControl.sol\":7348:7352   */\n      dup4\n        /* \"openzeppelin-solidity/contracts/access/AccessControl.sol\":7336:7376   */\n      0xf6391f5c32d9c69d2a47ea670b442974b53935d1edc7fd64eb21e047a839171b\n      mload(0x40)\n      mload(0x40)\n      dup1\n      swap2\n      sub\n      swap1\n      log4\n        /* \"openzeppelin-solidity/contracts/access/AccessControl.sol\":7275:7387   */\n    tag_108:\n        /* \"openzeppelin-solidity/contracts/access/AccessControl.sol\":7205:7393   */\n      pop\n      pop\n      jump\t// out\n        /* \"openzeppelin-solidity/contracts/utils/EnumerableSet.sol\":6085:6232   */\n    tag_72:\n        /* \"openzeppelin-solidity/contracts/utils/EnumerableSet.sol\":6159:6166   */\n      0x00\n        /* \"openzeppelin-solidity/contracts/utils/EnumerableSet.sol\":6201:6223   */\n      tag_111\n        /* \"openzeppelin-solidity/contracts/utils/EnumerableSet.sol\":6205:6208   */\n      dup4\n        /* \"openzeppelin-solidity/contracts/utils/EnumerableSet.sol\":6205:6215   */\n      0x00\n      add\n        /* \"openzeppelin-solidity/contracts/utils/EnumerableSet.sol\":6217:6222   */\n      dup4\n        /* \"openzeppelin-solidity/contracts/utils/EnumerableSet.sol\":6201:6204   */\n      tag_112\n        /* \"openzeppelin-solidity/contracts/utils/EnumerableSet.sol\":6201:6223   */\n      jump\t// in\n    tag_111:\n        /* \"openzeppelin-solidity/contracts/utils/EnumerableSet.sol\":6193:6224   */\n      0x00\n      shr\n        /* \"openzeppelin-solidity/contracts/utils/EnumerableSet.sol\":6178:6225   */\n      swap1\n      pop\n        /* \"openzeppelin-solidity/contracts/utils/EnumerableSet.sol\":6085:6232   */\n      swap3\n      swap2\n      pop\n      pop\n      jump\t// out\n        /* \"openzeppelin-solidity/contracts/utils/EnumerableSet.sol\":5401:5557   */\n    tag_75:\n        /* \"openzeppelin-solidity/contracts/utils/EnumerableSet.sol\":5481:5485   */\n      0x00\n        /* \"openzeppelin-solidity/contracts/utils/EnumerableSet.sol\":5504:5550   */\n      tag_114\n        /* \"openzeppelin-solidity/contracts/utils/EnumerableSet.sol\":5514:5517   */\n      dup4\n        /* \"openzeppelin-solidity/contracts/utils/EnumerableSet.sol\":5514:5524   */\n      0x00\n      add\n        /* \"openzeppelin-solidity/contracts/utils/EnumerableSet.sol\":5542:5547   */\n      dup4\n        /* \"openzeppelin-solidity/contracts/utils/EnumerableSet.sol\":5534:5548   */\n      0xffffffffffffffffffffffffffffffffffffffff\n      and\n        /* \"openzeppelin-solidity/contracts/utils/EnumerableSet.sol\":5526:5549   */\n      0x00\n      shl\n        /* \"openzeppelin-solidity/contracts/utils/EnumerableSet.sol\":5504:5513   */\n      tag_115\n        /* \"openzeppelin-solidity/contracts/utils/EnumerableSet.sol\":5504:5550   */\n      jump\t// in\n    tag_114:\n        /* \"openzeppelin-solidity/contracts/utils/EnumerableSet.sol\":5497:5550   */\n      swap1\n      pop\n        /* \"openzeppelin-solidity/contracts/utils/EnumerableSet.sol\":5401:5557   */\n      swap3\n      swap2\n      pop\n      pop\n      jump\t// out\n        /* \"openzeppelin-solidity/contracts/utils/EnumerableSet.sol\":5638:5753   */\n    tag_82:\n        /* \"openzeppelin-solidity/contracts/utils/EnumerableSet.sol\":5701:5708   */\n      0x00\n        /* \"openzeppelin-solidity/contracts/utils/EnumerableSet.sol\":5727:5746   */\n      tag_117\n        /* \"openzeppelin-solidity/contracts/utils/EnumerableSet.sol\":5735:5738   */\n      dup3\n        /* \"openzeppelin-solidity/contracts/utils/EnumerableSet.sol\":5735:5745   */\n      0x00\n      add\n        /* \"openzeppelin-solidity/contracts/utils/EnumerableSet.sol\":5727:5734   */\n      tag_118\n        /* \"openzeppelin-solidity/contracts/utils/EnumerableSet.sol\":5727:5746   */\n      jump\t// in\n    tag_117:\n        /* \"openzeppelin-solidity/contracts/utils/EnumerableSet.sol\":5720:5746   */\n      swap1\n      pop\n        /* \"openzeppelin-solidity/contracts/utils/EnumerableSet.sol\":5638:5753   */\n      swap2\n      swap1\n      pop\n      jump\t// out\n        /* \"Core/WriterRole.sol\":965:1087   */\n    tag_93:\n        /* \"Core/WriterRole.sol\":1021:1045   */\n      tag_120\n        /* \"Core/WriterRole.sol\":313:332   */\n      mload(0x40)\n      dup1\n      dup1\n      0x5772697465720000000000000000000000000000000000000000000000000000\n      dup2\n      mstore\n      pop\n      0x06\n      add\n      swap1\n      pop\n      mload(0x40)\n      dup1\n      swap2\n      sub\n      swap1\n      keccak256\n        /* \"Core/WriterRole.sol\":1037:1044   */\n      dup3\n        /* \"Core/WriterRole.sol\":1021:1030   */\n      tag_26\n        /* \"Core/WriterRole.sol\":1021:1045   */\n      jump\t// in\n    tag_120:\n        /* \"Core/WriterRole.sol\":1072:1079   */\n      dup1\n        /* \"Core/WriterRole.sol\":1060:1080   */\n      0xffffffffffffffffffffffffffffffffffffffff\n      and\n      0x6ff3aa2ea7b53070f6d9d07a445d338d89e8edef44250ffa8be19f53910d4a2e\n      mload(0x40)\n      mload(0x40)\n      dup1\n      swap2\n      sub\n      swap1\n      log2\n        /* \"Core/WriterRole.sol\":965:1087   */\n      pop\n      jump\t// out\n        /* \"Core/WriterRole.sol\":1097:1227   */\n    tag_96:\n        /* \"Core/WriterRole.sol\":1156:1183   */\n      tag_122\n        /* \"Core/WriterRole.sol\":313:332   */\n      mload(0x40)\n      dup1\n      dup1\n      0x5772697465720000000000000000000000000000000000000000000000000000\n      dup2\n      mstore\n      pop\n      0x06\n      add\n      swap1\n      pop\n      mload(0x40)\n      dup1\n      swap2\n      sub\n      swap1\n      keccak256\n        /* \"Core/WriterRole.sol\":1175:1182   */\n      dup3\n        /* \"Core/WriterRole.sol\":1156:1168   */\n      tag_29\n        /* \"Core/WriterRole.sol\":1156:1183   */\n      jump\t// in\n    tag_122:\n        /* \"Core/WriterRole.sol\":1212:1219   */\n      dup1\n        /* \"Core/WriterRole.sol\":1198:1220   */\n      0xffffffffffffffffffffffffffffffffffffffff\n      and\n      0x86e5bbceda94081c32220d685f37cc4e3ea7bb0be2dfbf0cb703579505a5390e\n      mload(0x40)\n      mload(0x40)\n      dup1\n      swap2\n      sub\n      swap1\n      log2\n        /* \"Core/WriterRole.sol\":1097:1227   */\n      pop\n      jump\t// out\n        /* \"openzeppelin-solidity/contracts/utils/EnumerableSet.sol\":1611:2015   */\n    tag_99:\n        /* \"openzeppelin-solidity/contracts/utils/EnumerableSet.sol\":1674:1678   */\n      0x00\n        /* \"openzeppelin-solidity/contracts/utils/EnumerableSet.sol\":1695:1716   */\n      tag_124\n        /* \"openzeppelin-solidity/contracts/utils/EnumerableSet.sol\":1705:1708   */\n      dup4\n        /* \"openzeppelin-solidity/contracts/utils/EnumerableSet.sol\":1710:1715   */\n      dup4\n        /* \"openzeppelin-solidity/contracts/utils/EnumerableSet.sol\":1695:1704   */\n      tag_115\n        /* \"openzeppelin-solidity/contracts/utils/EnumerableSet.sol\":1695:1716   */\n      jump\t// in\n    tag_124:\n        /* \"openzeppelin-solidity/contracts/utils/EnumerableSet.sol\":1690:2009   */\n      tag_125\n      jumpi\n        /* \"openzeppelin-solidity/contracts/utils/EnumerableSet.sol\":1732:1735   */\n      dup3\n        /* \"openzeppelin-solidity/contracts/utils/EnumerableSet.sol\":1732:1743   */\n      0x00\n      add\n        /* \"openzeppelin-solidity/contracts/utils/EnumerableSet.sol\":1749:1754   */\n      dup3\n        /* \"openzeppelin-solidity/contracts/utils/EnumerableSet.sol\":1732:1755   */\n      swap1\n      dup1\n      0x01\n      dup2\n      sload\n      add\n      dup1\n      dup3\n      sstore\n      dup1\n      swap2\n      pop\n      pop\n      0x01\n      swap1\n      sub\n      swap1\n      0x00\n      mstore\n      keccak256(0x00, 0x20)\n      add\n      0x00\n      swap1\n      swap2\n      swap1\n      swap2\n      swap1\n      swap2\n      pop\n      sstore\n        /* \"openzeppelin-solidity/contracts/utils/EnumerableSet.sol\":1912:1915   */\n      dup3\n        /* \"openzeppelin-solidity/contracts/utils/EnumerableSet.sol\":1912:1923   */\n      0x00\n      add\n        /* \"openzeppelin-solidity/contracts/utils/EnumerableSet.sol\":1912:1930   */\n      dup1\n      sload\n      swap1\n      pop\n        /* \"openzeppelin-solidity/contracts/utils/EnumerableSet.sol\":1890:1893   */\n      dup4\n        /* \"openzeppelin-solidity/contracts/utils/EnumerableSet.sol\":1890:1902   */\n      0x01\n      add\n        /* \"openzeppelin-solidity/contracts/utils/EnumerableSet.sol\":1890:1909   */\n      0x00\n        /* \"openzeppelin-solidity/contracts/utils/EnumerableSet.sol\":1903:1908   */\n      dup5\n        /* \"openzeppelin-solidity/contracts/utils/EnumerableSet.sol\":1890:1909   */\n      dup2\n      mstore\n      0x20\n      add\n      swap1\n      dup2\n      mstore\n      0x20\n      add\n      0x00\n      keccak256\n        /* \"openzeppelin-solidity/contracts/utils/EnumerableSet.sol\":1890:1930   */\n      dup2\n      swap1\n      sstore\n      pop\n        /* \"openzeppelin-solidity/contracts/utils/EnumerableSet.sol\":1951:1955   */\n      0x01\n        /* \"openzeppelin-solidity/contracts/utils/EnumerableSet.sol\":1944:1955   */\n      swap1\n      pop\n      jump(tag_123)\n        /* \"openzeppelin-solidity/contracts/utils/EnumerableSet.sol\":1690:2009   */\n    tag_125:\n        /* \"openzeppelin-solidity/contracts/utils/EnumerableSet.sol\":1993:1998   */\n      0x00\n        /* \"openzeppelin-solidity/contracts/utils/EnumerableSet.sol\":1986:1998   */\n      swap1\n      pop\n        /* \"openzeppelin-solidity/contracts/utils/EnumerableSet.sol\":1611:2015   */\n    tag_123:\n      swap3\n      swap2\n      pop\n      pop\n      jump\t// out\n        /* \"openzeppelin-solidity/contracts/utils/EnumerableSet.sol\":5173:5320   */\n    tag_107:\n        /* \"openzeppelin-solidity/contracts/utils/EnumerableSet.sol\":5246:5250   */\n      0x00\n        /* \"openzeppelin-solidity/contracts/utils/EnumerableSet.sol\":5269:5313   */\n      tag_129\n        /* \"openzeppelin-solidity/contracts/utils/EnumerableSet.sol\":5277:5280   */\n      dup4\n        /* \"openzeppelin-solidity/contracts/utils/EnumerableSet.sol\":5277:5287   */\n      0x00\n      add\n        /* \"openzeppelin-solidity/contracts/utils/EnumerableSet.sol\":5305:5310   */\n      dup4\n        /* \"openzeppelin-solidity/contracts/utils/EnumerableSet.sol\":5297:5311   */\n      0xffffffffffffffffffffffffffffffffffffffff\n      and\n        /* \"openzeppelin-solidity/contracts/utils/EnumerableSet.sol\":5289:5312   */\n      0x00\n      shl\n        /* \"openzeppelin-solidity/contracts/utils/EnumerableSet.sol\":5269:5276   */\n      tag_130\n        /* \"openzeppelin-solidity/contracts/utils/EnumerableSet.sol\":5269:5313   */\n      jump\t// in\n    tag_129:\n        /* \"openzeppelin-solidity/contracts/utils/EnumerableSet.sol\":5262:5313   */\n      swap1\n      pop\n        /* \"openzeppelin-solidity/contracts/utils/EnumerableSet.sol\":5173:5320   */\n      swap3\n      swap2\n      pop\n      pop\n      jump\t// out\n        /* \"openzeppelin-solidity/contracts/utils/EnumerableSet.sol\":4423:4624   */\n    tag_112:\n        /* \"openzeppelin-solidity/contracts/utils/EnumerableSet.sol\":4490:4497   */\n      0x00\n        /* \"openzeppelin-solidity/contracts/utils/EnumerableSet.sol\":4538:4543   */\n      dup2\n        /* \"openzeppelin-solidity/contracts/utils/EnumerableSet.sol\":4517:4520   */\n      dup4\n        /* \"openzeppelin-solidity/contracts/utils/EnumerableSet.sol\":4517:4528   */\n      0x00\n      add\n        /* \"openzeppelin-solidity/contracts/utils/EnumerableSet.sol\":4517:4535   */\n      dup1\n      sload\n      swap1\n      pop\n        /* \"openzeppelin-solidity/contracts/utils/EnumerableSet.sol\":4517:4543   */\n      gt\n        /* \"openzeppelin-solidity/contracts/utils/EnumerableSet.sol\":4509:4582   */\n      tag_132\n      jumpi\n      mload(0x40)\n      0x08c379a000000000000000000000000000000000000000000000000000000000\n      dup2\n      mstore\n      0x04\n      add\n      dup1\n      dup1\n      0x20\n      add\n      dup3\n      dup2\n      sub\n      dup3\n      mstore\n      0x22\n      dup2\n      mstore\n      0x20\n      add\n      dup1\n      data_045d6834e6193a687012a3ad777f612279e549b6945364d9d2324f48610d3cbb\n      0x22\n      swap2\n      codecopy\n      0x40\n      add\n      swap2\n      pop\n      pop\n      mload(0x40)\n      dup1\n      swap2\n      sub\n      swap1\n      revert\n    tag_132:\n        /* \"openzeppelin-solidity/contracts/utils/EnumerableSet.sol\":4599:4602   */\n      dup3\n        /* \"openzeppelin-solidity/contracts/utils/EnumerableSet.sol\":4599:4610   */\n      0x00\n      add\n        /* \"openzeppelin-solidity/contracts/utils/EnumerableSet.sol\":4611:4616   */\n      dup3\n        /* \"openzeppelin-solidity/contracts/utils/EnumerableSet.sol\":4599:4617   */\n      dup2\n      sload\n      dup2\n      lt\n      tag_133\n      jumpi\n      invalid\n    tag_133:\n      swap1\n      0x00\n      mstore\n      keccak256(0x00, 0x20)\n      add\n      sload\n        /* \"openzeppelin-solidity/contracts/utils/EnumerableSet.sol\":4592:4617   */\n      swap1\n      pop\n        /* \"openzeppelin-solidity/contracts/utils/EnumerableSet.sol\":4423:4624   */\n      swap3\n      swap2\n      pop\n      pop\n      jump\t// out\n        /* \"openzeppelin-solidity/contracts/utils/EnumerableSet.sol\":3776:3903   */\n    tag_115:\n        /* \"openzeppelin-solidity/contracts/utils/EnumerableSet.sol\":3849:3853   */\n      0x00\n        /* \"openzeppelin-solidity/contracts/utils/EnumerableSet.sol\":3895:3896   */\n      dup1\n        /* \"openzeppelin-solidity/contracts/utils/EnumerableSet.sol\":3872:3875   */\n      dup4\n        /* \"openzeppelin-solidity/contracts/utils/EnumerableSet.sol\":3872:3884   */\n      0x01\n      add\n        /* \"openzeppelin-solidity/contracts/utils/EnumerableSet.sol\":3872:3891   */\n      0x00\n        /* \"openzeppelin-solidity/contracts/utils/EnumerableSet.sol\":3885:3890   */\n      dup5\n        /* \"openzeppelin-solidity/contracts/utils/EnumerableSet.sol\":3872:3891   */\n      dup2\n      mstore\n      0x20\n      add\n      swap1\n      dup2\n      mstore\n      0x20\n      add\n      0x00\n      keccak256\n      sload\n        /* \"openzeppelin-solidity/contracts/utils/EnumerableSet.sol\":3872:3896   */\n      eq\n      iszero\n        /* \"openzeppelin-solidity/contracts/utils/EnumerableSet.sol\":3865:3896   */\n      swap1\n      pop\n        /* \"openzeppelin-solidity/contracts/utils/EnumerableSet.sol\":3776:3903   */\n      swap3\n      swap2\n      pop\n      pop\n      jump\t// out\n        /* \"openzeppelin-solidity/contracts/utils/EnumerableSet.sol\":3984:4091   */\n    tag_118:\n        /* \"openzeppelin-solidity/contracts/utils/EnumerableSet.sol\":4040:4047   */\n      0x00\n        /* \"openzeppelin-solidity/contracts/utils/EnumerableSet.sol\":4066:4069   */\n      dup2\n        /* \"openzeppelin-solidity/contracts/utils/EnumerableSet.sol\":4066:4077   */\n      0x00\n      add\n        /* \"openzeppelin-solidity/contracts/utils/EnumerableSet.sol\":4066:4084   */\n      dup1\n      sload\n      swap1\n      pop\n        /* \"openzeppelin-solidity/contracts/utils/EnumerableSet.sol\":4059:4084   */\n      swap1\n      pop\n        /* \"openzeppelin-solidity/contracts/utils/EnumerableSet.sol\":3984:4091   */\n      swap2\n      swap1\n      pop\n      jump\t// out\n        /* \"openzeppelin-solidity/contracts/utils/EnumerableSet.sol\":2183:3695   */\n    tag_130:\n        /* \"openzeppelin-solidity/contracts/utils/EnumerableSet.sol\":2249:2253   */\n      0x00\n        /* \"openzeppelin-solidity/contracts/utils/EnumerableSet.sol\":2365:2383   */\n      dup1\n        /* \"openzeppelin-solidity/contracts/utils/EnumerableSet.sol\":2386:2389   */\n      dup4\n        /* \"openzeppelin-solidity/contracts/utils/EnumerableSet.sol\":2386:2398   */\n      0x01\n      add\n        /* \"openzeppelin-solidity/contracts/utils/EnumerableSet.sol\":2386:2405   */\n      0x00\n        /* \"openzeppelin-solidity/contracts/utils/EnumerableSet.sol\":2399:2404   */\n      dup5\n        /* \"openzeppelin-solidity/contracts/utils/EnumerableSet.sol\":2386:2405   */\n      dup2\n      mstore\n      0x20\n      add\n      swap1\n      dup2\n      mstore\n      0x20\n      add\n      0x00\n      keccak256\n      sload\n        /* \"openzeppelin-solidity/contracts/utils/EnumerableSet.sol\":2365:2405   */\n      swap1\n      pop\n        /* \"openzeppelin-solidity/contracts/utils/EnumerableSet.sol\":2434:2435   */\n      0x00\n        /* \"openzeppelin-solidity/contracts/utils/EnumerableSet.sol\":2420:2430   */\n      dup2\n        /* \"openzeppelin-solidity/contracts/utils/EnumerableSet.sol\":2420:2435   */\n      eq\n        /* \"openzeppelin-solidity/contracts/utils/EnumerableSet.sol\":2416:3689   */\n      tag_138\n      jumpi\n        /* \"openzeppelin-solidity/contracts/utils/EnumerableSet.sol\":2777:2798   */\n      0x00\n        /* \"openzeppelin-solidity/contracts/utils/EnumerableSet.sol\":2814:2815   */\n      0x01\n        /* \"openzeppelin-solidity/contracts/utils/EnumerableSet.sol\":2801:2811   */\n      dup3\n        /* \"openzeppelin-solidity/contracts/utils/EnumerableSet.sol\":2801:2815   */\n      sub\n        /* \"openzeppelin-solidity/contracts/utils/EnumerableSet.sol\":2777:2815   */\n      swap1\n      pop\n        /* \"openzeppelin-solidity/contracts/utils/EnumerableSet.sol\":2829:2846   */\n      0x00\n        /* \"openzeppelin-solidity/contracts/utils/EnumerableSet.sol\":2870:2871   */\n      0x01\n        /* \"openzeppelin-solidity/contracts/utils/EnumerableSet.sol\":2849:2852   */\n      dup7\n        /* \"openzeppelin-solidity/contracts/utils/EnumerableSet.sol\":2849:2860   */\n      0x00\n      add\n        /* \"openzeppelin-solidity/contracts/utils/EnumerableSet.sol\":2849:2867   */\n      dup1\n      sload\n      swap1\n      pop\n        /* \"openzeppelin-solidity/contracts/utils/EnumerableSet.sol\":2849:2871   */\n      sub\n        /* \"openzeppelin-solidity/contracts/utils/EnumerableSet.sol\":2829:2871   */\n      swap1\n      pop\n        /* \"openzeppelin-solidity/contracts/utils/EnumerableSet.sol\":3111:3128   */\n      0x00\n        /* \"openzeppelin-solidity/contracts/utils/EnumerableSet.sol\":3131:3134   */\n      dup7\n        /* \"openzeppelin-solidity/contracts/utils/EnumerableSet.sol\":3131:3142   */\n      0x00\n      add\n        /* \"openzeppelin-solidity/contracts/utils/EnumerableSet.sol\":3143:3152   */\n      dup3\n        /* \"openzeppelin-solidity/contracts/utils/EnumerableSet.sol\":3131:3153   */\n      dup2\n      sload\n      dup2\n      lt\n      tag_139\n      jumpi\n      invalid\n    tag_139:\n      swap1\n      0x00\n      mstore\n      keccak256(0x00, 0x20)\n      add\n      sload\n        /* \"openzeppelin-solidity/contracts/utils/EnumerableSet.sol\":3111:3153   */\n      swap1\n      pop\n        /* \"openzeppelin-solidity/contracts/utils/EnumerableSet.sol\":3274:3283   */\n      dup1\n        /* \"openzeppelin-solidity/contracts/utils/EnumerableSet.sol\":3245:3248   */\n      dup8\n        /* \"openzeppelin-solidity/contracts/utils/EnumerableSet.sol\":3245:3256   */\n      0x00\n      add\n        /* \"openzeppelin-solidity/contracts/utils/EnumerableSet.sol\":3257:3270   */\n      dup5\n        /* \"openzeppelin-solidity/contracts/utils/EnumerableSet.sol\":3245:3271   */\n      dup2\n      sload\n      dup2\n      lt\n      tag_141\n      jumpi\n      invalid\n    tag_141:\n      swap1\n      0x00\n      mstore\n      keccak256(0x00, 0x20)\n      add\n        /* \"openzeppelin-solidity/contracts/utils/EnumerableSet.sol\":3245:3283   */\n      dup2\n      swap1\n      sstore\n      pop\n        /* \"openzeppelin-solidity/contracts/utils/EnumerableSet.sol\":3391:3392   */\n      0x01\n        /* \"openzeppelin-solidity/contracts/utils/EnumerableSet.sol\":3375:3388   */\n      dup4\n        /* \"openzeppelin-solidity/contracts/utils/EnumerableSet.sol\":3375:3392   */\n      add\n        /* \"openzeppelin-solidity/contracts/utils/EnumerableSet.sol\":3349:3352   */\n      dup8\n        /* \"openzeppelin-solidity/contracts/utils/EnumerableSet.sol\":3349:3361   */\n      0x01\n      add\n        /* \"openzeppelin-solidity/contracts/utils/EnumerableSet.sol\":3349:3372   */\n      0x00\n        /* \"openzeppelin-solidity/contracts/utils/EnumerableSet.sol\":3362:3371   */\n      dup4\n        /* \"openzeppelin-solidity/contracts/utils/EnumerableSet.sol\":3349:3372   */\n      dup2\n      mstore\n      0x20\n      add\n      swap1\n      dup2\n      mstore\n      0x20\n      add\n      0x00\n      keccak256\n        /* \"openzeppelin-solidity/contracts/utils/EnumerableSet.sol\":3349:3392   */\n      dup2\n      swap1\n      sstore\n      pop\n        /* \"openzeppelin-solidity/contracts/utils/EnumerableSet.sol\":3498:3501   */\n      dup7\n        /* \"openzeppelin-solidity/contracts/utils/EnumerableSet.sol\":3498:3509   */\n      0x00\n      add\n        /* \"openzeppelin-solidity/contracts/utils/EnumerableSet.sol\":3498:3515   */\n      dup1\n      sload\n      dup1\n      tag_143\n      jumpi\n      invalid\n    tag_143:\n      0x01\n      swap1\n      sub\n      dup2\n      dup2\n      swap1\n      0x00\n      mstore\n      keccak256(0x00, 0x20)\n      add\n      0x00\n      swap1\n      sstore\n      swap1\n      sstore\n        /* \"openzeppelin-solidity/contracts/utils/EnumerableSet.sol\":3590:3593   */\n      dup7\n        /* \"openzeppelin-solidity/contracts/utils/EnumerableSet.sol\":3590:3602   */\n      0x01\n      add\n        /* \"openzeppelin-solidity/contracts/utils/EnumerableSet.sol\":3590:3609   */\n      0x00\n        /* \"openzeppelin-solidity/contracts/utils/EnumerableSet.sol\":3603:3608   */\n      dup8\n        /* \"openzeppelin-solidity/contracts/utils/EnumerableSet.sol\":3590:3609   */\n      dup2\n      mstore\n      0x20\n      add\n      swap1\n      dup2\n      mstore\n      0x20\n      add\n      0x00\n      keccak256\n        /* \"openzeppelin-solidity/contracts/utils/EnumerableSet.sol\":3583:3609   */\n      0x00\n      swap1\n      sstore\n        /* \"openzeppelin-solidity/contracts/utils/EnumerableSet.sol\":3631:3635   */\n      0x01\n        /* \"openzeppelin-solidity/contracts/utils/EnumerableSet.sol\":3624:3635   */\n      swap5\n      pop\n      pop\n      pop\n      pop\n      pop\n      jump(tag_137)\n        /* \"openzeppelin-solidity/contracts/utils/EnumerableSet.sol\":2416:3689   */\n    tag_138:\n        /* \"openzeppelin-solidity/contracts/utils/EnumerableSet.sol\":3673:3678   */\n      0x00\n        /* \"openzeppelin-solidity/contracts/utils/EnumerableSet.sol\":3666:3678   */\n      swap2\n      pop\n      pop\n        /* \"openzeppelin-solidity/contracts/utils/EnumerableSet.sol\":2183:3695   */\n    tag_137:\n      swap3\n      swap2\n      pop\n      pop\n      jump\t// out\n    stop\n    data_045d6834e6193a687012a3ad777f612279e549b6945364d9d2324f48610d3cbb 456e756d657261626c655365743a20696e646578206f7574206f6620626f756e6473\n    data_0ba7116025f1ef6b158a2bd2238e617f30e17c9e456917d901086ca4f8ad2811 416363657373436f6e74726f6c3a2073656e646572206d75737420626520616e2061646d696e20746f206772616e74\n    data_64344570eab7406ca49d34d38bf2b2496dfda914405390c5057c8b0aabf798a3 416363657373436f6e74726f6c3a2073656e646572206d75737420626520616e2061646d696e20746f207265766f6b65\n    data_f20ff92c8e756ffc1953078d2fc56233ec718f46826625adaedf1c01a55de207 577269746572526f6c653a2063616c6c657220646f6573206e6f742068617665207468652057726974657220726f6c65\n    data_fb06fa8ff2141e8ed74502f6792273793f25f0e9d3cf15344f3f5a0d4948fd4b 416363657373436f6e74726f6c3a2063616e206f6e6c792072656e6f756e636520726f6c657320666f722073656c66\n\n    auxdata: 0xa2646970667358221220ff411145ab21b4e7d1e9502056506ee1dd923684671867455fd3fe404e10088d64736f6c634300060b0033\n}\n","bytecode":{"linkReferences":{},"object":"60806040523480156200001157600080fd5b50600033604051602001808273ffffffffffffffffffffffffffffffffffffffff1673ffffffffffffffffffffffffffffffffffffffff1660601b8152601401915050604051602081830303815290604052805190602001209050620000b360405180807f577269746572000000000000000000000000000000000000000000000000000081525060060190506040518091039020826200010160201b60201c565b620000fa60405180807f577269746572000000000000000000000000000000000000000000000000000081525060060190506040518091039020336200016360201b60201c565b50620002f9565b8060008084815260200190815260200160002060020154837fbd79b86ffe0ab8e8776151514217cd7cacd52c909f66475c3af44e129f0b00ff60405160405180910390a480600080848152602001908152602001600020600201819055505050565b6200017582826200017960201b60201c565b5050565b620001a7816000808581526020019081526020016000206000016200021c60201b620008541790919060201c565b156200021857620001bd6200025460201b60201c565b73ffffffffffffffffffffffffffffffffffffffff168173ffffffffffffffffffffffffffffffffffffffff16837f2f8788117e7eff1d82e926ec794901d17c78024a50270940304540a733656f0d60405160405180910390a45b5050565b60006200024c836000018373ffffffffffffffffffffffffffffffffffffffff1660001b6200025c60201b60201c565b905092915050565b600033905090565b6000620002708383620002d660201b60201c565b620002cb578260000182908060018154018082558091505060019003906000526020600020016000909190919091505582600001805490508360010160008481526020019081526020016000208190555060019050620002d0565b600090505b92915050565b600080836001016000848152602001908152602001600020541415905092915050565b610e7080620003096000396000f3fe608060405234801561001057600080fd5b50600436106100cf5760003560e01c8063a217fddf1161008c578063d547741f11610066578063d547741f14610390578063da2824a8146103de578063de13c46f14610422578063df4eb59c1461046c576100cf565b8063a217fddf146102ec578063a56533451461030a578063ca15c8731461034e576100cf565b8063248a9ca3146100d45780632b29ba23146101165780632f2ff15d1461017257806336568abe146101c05780639010d07c1461020e57806391d1485414610286575b600080fd5b610100600480360360208110156100ea57600080fd5b8101908080359060200190929190505050610476565b6040518082815260200191505060405180910390f35b6101586004803603602081101561012c57600080fd5b81019080803573ffffffffffffffffffffffffffffffffffffffff169060200190929190505050610495565b604051808215151515815260200191505060405180910390f35b6101be6004803603604081101561018857600080fd5b8101908080359060200190929190803573ffffffffffffffffffffffffffffffffffffffff1690602001909291905050506104dd565b005b61020c600480360360408110156101d657600080fd5b8101908080359060200190929190803573ffffffffffffffffffffffffffffffffffffffff169060200190929190505050610566565b005b6102446004803603604081101561022457600080fd5b8101908080359060200190929190803590602001909291905050506105ff565b604051808273ffffffffffffffffffffffffffffffffffffffff1673ffffffffffffffffffffffffffffffffffffffff16815260200191505060405180910390f35b6102d26004803603604081101561029c57600080fd5b8101908080359060200190929190803573ffffffffffffffffffffffffffffffffffffffff169060200190929190505050610630565b604051808215151515815260200191505060405180910390f35b6102f4610661565b6040518082815260200191505060405180910390f35b61034c6004803603602081101561032057600080fd5b81019080803573ffffffffffffffffffffffffffffffffffffffff169060200190929190505050610668565b005b61037a6004803603602081101561036457600080fd5b810190808035906020019092919050505061070a565b6040518082815260200191505060405180910390f35b6103dc600480360360408110156103a657600080fd5b8101908080359060200190929190803573ffffffffffffffffffffffffffffffffffffffff169060200190929190505050610730565b005b610420600480360360208110156103f457600080fd5b81019080803573ffffffffffffffffffffffffffffffffffffffff1690602001909291905050506107b9565b005b61042a610823565b604051808273ffffffffffffffffffffffffffffffffffffffff1673ffffffffffffffffffffffffffffffffffffffff16815260200191505060405180910390f35b610474610849565b005b6000806000838152602001908152602001600020600201549050919050565b60006104d660405180807f57726974657200000000000000000000000000000000000000000000000000008152506006019050604051809103902083610630565b9050919050565b610503600080848152602001908152602001600020600201546104fe610884565b610630565b610558576040517f08c379a000000000000000000000000000000000000000000000000000000000815260040180806020018281038252602f815260200180610d7d602f913960400191505060405180910390fd5b610562828261088c565b5050565b61056e610884565b73ffffffffffffffffffffffffffffffffffffffff168173ffffffffffffffffffffffffffffffffffffffff16146105f1576040517f08c379a000000000000000000000000000000000000000000000000000000000815260040180806020018281038252602f815260200180610e0c602f913960400191505060405180910390fd5b6105fb828261091f565b5050565b6000610628826000808681526020019081526020016000206000016109b290919063ffffffff16565b905092915050565b6000610659826000808681526020019081526020016000206000016109cc90919063ffffffff16565b905092915050565b6000801b81565b61067133610495565b6106c6576040517f08c379a0000000000000000000000000000000000000000000000000000000008152600401808060200182810382526030815260200180610ddc6030913960400191505060405180910390fd5b80600160006101000a81548173ffffffffffffffffffffffffffffffffffffffff021916908373ffffffffffffffffffffffffffffffffffffffff16021790555050565b60006107296000808481526020019081526020016000206000016109fc565b9050919050565b61075660008084815260200190815260200160002060020154610751610884565b610630565b6107ab576040517f08c379a0000000000000000000000000000000000000000000000000000000008152600401808060200182810382526030815260200180610dac6030913960400191505060405180910390fd5b6107b5828261091f565b5050565b6107c233610495565b610817576040517f08c379a0000000000000000000000000000000000000000000000000000000008152600401808060200182810382526030815260200180610ddc6030913960400191505060405180910390fd5b61082081610a11565b50565b600160009054906101000a900473ffffffffffffffffffffffffffffffffffffffff1681565b61085233610a96565b565b600061087c836000018373ffffffffffffffffffffffffffffffffffffffff1660001b610b1b565b905092915050565b600033905090565b6108b38160008085815260200190815260200160002060000161085490919063ffffffff16565b1561091b576108c0610884565b73ffffffffffffffffffffffffffffffffffffffff168173ffffffffffffffffffffffffffffffffffffffff16837f2f8788117e7eff1d82e926ec794901d17c78024a50270940304540a733656f0d60405160405180910390a45b5050565b61094681600080858152602001908152602001600020600001610b8b90919063ffffffff16565b156109ae57610953610884565b73ffffffffffffffffffffffffffffffffffffffff168173ffffffffffffffffffffffffffffffffffffffff16837ff6391f5c32d9c69d2a47ea670b442974b53935d1edc7fd64eb21e047a839171b60405160405180910390a45b5050565b60006109c18360000183610bbb565b60001c905092915050565b60006109f4836000018373ffffffffffffffffffffffffffffffffffffffff1660001b610c3e565b905092915050565b6000610a0a82600001610c61565b9050919050565b610a5060405180807f577269746572000000000000000000000000000000000000000000000000000081525060060190506040518091039020826104dd565b8073ffffffffffffffffffffffffffffffffffffffff167f6ff3aa2ea7b53070f6d9d07a445d338d89e8edef44250ffa8be19f53910d4a2e60405160405180910390a250565b610ad560405180807f57726974657200000000000000000000000000000000000000000000000000008152506006019050604051809103902082610566565b8073ffffffffffffffffffffffffffffffffffffffff167f86e5bbceda94081c32220d685f37cc4e3ea7bb0be2dfbf0cb703579505a5390e60405160405180910390a250565b6000610b278383610c3e565b610b80578260000182908060018154018082558091505060019003906000526020600020016000909190919091505582600001805490508360010160008481526020019081526020016000208190555060019050610b85565b600090505b92915050565b6000610bb3836000018373ffffffffffffffffffffffffffffffffffffffff1660001b610c72565b905092915050565b600081836000018054905011610c1c576040517f08c379a0000000000000000000000000000000000000000000000000000000008152600401808060200182810382526022815260200180610d5b6022913960400191505060405180910390fd5b826000018281548110610c2b57fe5b9060005260206000200154905092915050565b600080836001016000848152602001908152602001600020541415905092915050565b600081600001805490509050919050565b60008083600101600084815260200190815260200160002054905060008114610d4e5760006001820390506000600186600001805490500390506000866000018281548110610cbd57fe5b9060005260206000200154905080876000018481548110610cda57fe5b9060005260206000200181905550600183018760010160008381526020019081526020016000208190555086600001805480610d1257fe5b60019003818190600052602060002001600090559055866001016000878152602001908152602001600020600090556001945050505050610d54565b60009150505b9291505056fe456e756d657261626c655365743a20696e646578206f7574206f6620626f756e6473416363657373436f6e74726f6c3a2073656e646572206d75737420626520616e2061646d696e20746f206772616e74416363657373436f6e74726f6c3a2073656e646572206d75737420626520616e2061646d696e20746f207265766f6b65577269746572526f6c653a2063616c6c657220646f6573206e6f742068617665207468652057726974657220726f6c65416363657373436f6e74726f6c3a2063616e206f6e6c792072656e6f756e636520726f6c657320666f722073656c66a2646970667358221220ff411145ab21b4e7d1e9502056506ee1dd923684671867455fd3fe404e10088d64736f6c634300060b0033","opcodes":"PUSH1 0x80 PUSH1 0x40 MSTORE CALLVALUE DUP1 ISZERO PUSH3 0x11 JUMPI PUSH1 0x0 DUP1 REVERT JUMPDEST POP PUSH1 0x0 CALLER PUSH1 0x40 MLOAD PUSH1 0x20 ADD DUP1 DUP3 PUSH20 0xFFFFFFFFFFFFFFFFFFFFFFFFFFFFFFFFFFFFFFFF AND PUSH20 0xFFFFFFFFFFFFFFFFFFFFFFFFFFFFFFFFFFFFFFFF AND PUSH1 0x60 SHL DUP2 MSTORE PUSH1 0x14 ADD SWAP2 POP POP PUSH1 0x40 MLOAD PUSH1 0x20 DUP2 DUP4 SUB SUB DUP2 MSTORE SWAP1 PUSH1 0x40 MSTORE DUP1 MLOAD SWAP1 PUSH1 0x20 ADD KECCAK256 SWAP1 POP PUSH3 0xB3 PUSH1 0x40 MLOAD DUP1 DUP1 PUSH32 0x5772697465720000000000000000000000000000000000000000000000000000 DUP2 MSTORE POP PUSH1 0x6 ADD SWAP1 POP PUSH1 0x40 MLOAD DUP1 SWAP2 SUB SWAP1 KECCAK256 DUP3 PUSH3 0x101 PUSH1 0x20 SHL PUSH1 0x20 SHR JUMP JUMPDEST PUSH3 0xFA PUSH1 0x40 MLOAD DUP1 DUP1 PUSH32 0x5772697465720000000000000000000000000000000000000000000000000000 DUP2 MSTORE POP PUSH1 0x6 ADD SWAP1 POP PUSH1 0x40 MLOAD DUP1 SWAP2 SUB SWAP1 KECCAK256 CALLER PUSH3 0x163 PUSH1 0x20 SHL PUSH1 0x20 SHR JUMP JUMPDEST POP PUSH3 0x2F9 JUMP JUMPDEST DUP1 PUSH1 0x0 DUP1 DUP5 DUP2 MSTORE PUSH1 0x20 ADD SWAP1 DUP2 MSTORE PUSH1 0x20 ADD PUSH1 0x0 KECCAK256 PUSH1 0x2 ADD SLOAD DUP4 PUSH32 0xBD79B86FFE0AB8E8776151514217CD7CACD52C909F66475C3AF44E129F0B00FF PUSH1 0x40 MLOAD PUSH1 0x40 MLOAD DUP1 SWAP2 SUB SWAP1 LOG4 DUP1 PUSH1 0x0 DUP1 DUP5 DUP2 MSTORE PUSH1 0x20 ADD SWAP1 DUP2 MSTORE PUSH1 0x20 ADD PUSH1 0x0 KECCAK256 PUSH1 0x2 ADD DUP2 SWAP1 SSTORE POP POP POP JUMP JUMPDEST PUSH3 0x175 DUP3 DUP3 PUSH3 0x179 PUSH1 0x20 SHL PUSH1 0x20 SHR JUMP JUMPDEST POP POP JUMP JUMPDEST PUSH3 0x1A7 DUP2 PUSH1 0x0 DUP1 DUP6 DUP2 MSTORE PUSH1 0x20 ADD SWAP1 DUP2 MSTORE PUSH1 0x20 ADD PUSH1 0x0 KECCAK256 PUSH1 0x0 ADD PUSH3 0x21C PUSH1 0x20 SHL PUSH3 0x854 OR SWAP1 SWAP2 SWAP1 PUSH1 0x20 SHR JUMP JUMPDEST ISZERO PUSH3 0x218 JUMPI PUSH3 0x1BD PUSH3 0x254 PUSH1 0x20 SHL PUSH1 0x20 SHR JUMP JUMPDEST PUSH20 0xFFFFFFFFFFFFFFFFFFFFFFFFFFFFFFFFFFFFFFFF AND DUP2 PUSH20 0xFFFFFFFFFFFFFFFFFFFFFFFFFFFFFFFFFFFFFFFF AND DUP4 PUSH32 0x2F8788117E7EFF1D82E926EC794901D17C78024A50270940304540A733656F0D PUSH1 0x40 MLOAD PUSH1 0x40 MLOAD DUP1 SWAP2 SUB SWAP1 LOG4 JUMPDEST POP POP JUMP JUMPDEST PUSH1 0x0 PUSH3 0x24C DUP4 PUSH1 0x0 ADD DUP4 PUSH20 0xFFFFFFFFFFFFFFFFFFFFFFFFFFFFFFFFFFFFFFFF AND PUSH1 0x0 SHL PUSH3 0x25C PUSH1 0x20 SHL PUSH1 0x20 SHR JUMP JUMPDEST SWAP1 POP SWAP3 SWAP2 POP POP JUMP JUMPDEST PUSH1 0x0 CALLER SWAP1 POP SWAP1 JUMP JUMPDEST PUSH1 0x0 PUSH3 0x270 DUP4 DUP4 PUSH3 0x2D6 PUSH1 0x20 SHL PUSH1 0x20 SHR JUMP JUMPDEST PUSH3 0x2CB JUMPI DUP3 PUSH1 0x0 ADD DUP3 SWAP1 DUP1 PUSH1 0x1 DUP2 SLOAD ADD DUP1 DUP3 SSTORE DUP1 SWAP2 POP POP PUSH1 0x1 SWAP1 SUB SWAP1 PUSH1 0x0 MSTORE PUSH1 0x20 PUSH1 0x0 KECCAK256 ADD PUSH1 0x0 SWAP1 SWAP2 SWAP1 SWAP2 SWAP1 SWAP2 POP SSTORE DUP3 PUSH1 0x0 ADD DUP1 SLOAD SWAP1 POP DUP4 PUSH1 0x1 ADD PUSH1 0x0 DUP5 DUP2 MSTORE PUSH1 0x20 ADD SWAP1 DUP2 MSTORE PUSH1 0x20 ADD PUSH1 0x0 KECCAK256 DUP2 SWAP1 SSTORE POP PUSH1 0x1 SWAP1 POP PUSH3 0x2D0 JUMP JUMPDEST PUSH1 0x0 SWAP1 POP JUMPDEST SWAP3 SWAP2 POP POP JUMP JUMPDEST PUSH1 0x0 DUP1 DUP4 PUSH1 0x1 ADD PUSH1 0x0 DUP5 DUP2 MSTORE PUSH1 0x20 ADD SWAP1 DUP2 MSTORE PUSH1 0x20 ADD PUSH1 0x0 KECCAK256 SLOAD EQ ISZERO SWAP1 POP SWAP3 SWAP2 POP POP JUMP JUMPDEST PUSH2 0xE70 DUP1 PUSH3 0x309 PUSH1 0x0 CODECOPY PUSH1 0x0 RETURN INVALID PUSH1 0x80 PUSH1 0x40 MSTORE CALLVALUE DUP1 ISZERO PUSH2 0x10 JUMPI PUSH1 0x0 DUP1 REVERT JUMPDEST POP PUSH1 0x4 CALLDATASIZE LT PUSH2 0xCF JUMPI PUSH1 0x0 CALLDATALOAD PUSH1 0xE0 SHR DUP1 PUSH4 0xA217FDDF GT PUSH2 0x8C JUMPI DUP1 PUSH4 0xD547741F GT PUSH2 0x66 JUMPI DUP1 PUSH4 0xD547741F EQ PUSH2 0x390 JUMPI DUP1 PUSH4 0xDA2824A8 EQ PUSH2 0x3DE JUMPI DUP1 PUSH4 0xDE13C46F EQ PUSH2 0x422 JUMPI DUP1 PUSH4 0xDF4EB59C EQ PUSH2 0x46C JUMPI PUSH2 0xCF JUMP JUMPDEST DUP1 PUSH4 0xA217FDDF EQ PUSH2 0x2EC JUMPI DUP1 PUSH4 0xA5653345 EQ PUSH2 0x30A JUMPI DUP1 PUSH4 0xCA15C873 EQ PUSH2 0x34E JUMPI PUSH2 0xCF JUMP JUMPDEST DUP1 PUSH4 0x248A9CA3 EQ PUSH2 0xD4 JUMPI DUP1 PUSH4 0x2B29BA23 EQ PUSH2 0x116 JUMPI DUP1 PUSH4 0x2F2FF15D EQ PUSH2 0x172 JUMPI DUP1 PUSH4 0x36568ABE EQ PUSH2 0x1C0 JUMPI DUP1 PUSH4 0x9010D07C EQ PUSH2 0x20E JUMPI DUP1 PUSH4 0x91D14854 EQ PUSH2 0x286 JUMPI JUMPDEST PUSH1 0x0 DUP1 REVERT JUMPDEST PUSH2 0x100 PUSH1 0x4 DUP1 CALLDATASIZE SUB PUSH1 0x20 DUP2 LT ISZERO PUSH2 0xEA JUMPI PUSH1 0x0 DUP1 REVERT JUMPDEST DUP2 ADD SWAP1 DUP1 DUP1 CALLDATALOAD SWAP1 PUSH1 0x20 ADD SWAP1 SWAP3 SWAP2 SWAP1 POP POP POP PUSH2 0x476 JUMP JUMPDEST PUSH1 0x40 MLOAD DUP1 DUP3 DUP2 MSTORE PUSH1 0x20 ADD SWAP2 POP POP PUSH1 0x40 MLOAD DUP1 SWAP2 SUB SWAP1 RETURN JUMPDEST PUSH2 0x158 PUSH1 0x4 DUP1 CALLDATASIZE SUB PUSH1 0x20 DUP2 LT ISZERO PUSH2 0x12C JUMPI PUSH1 0x0 DUP1 REVERT JUMPDEST DUP2 ADD SWAP1 DUP1 DUP1 CALLDATALOAD PUSH20 0xFFFFFFFFFFFFFFFFFFFFFFFFFFFFFFFFFFFFFFFF AND SWAP1 PUSH1 0x20 ADD SWAP1 SWAP3 SWAP2 SWAP1 POP POP POP PUSH2 0x495 JUMP JUMPDEST PUSH1 0x40 MLOAD DUP1 DUP3 ISZERO ISZERO ISZERO ISZERO DUP2 MSTORE PUSH1 0x20 ADD SWAP2 POP POP PUSH1 0x40 MLOAD DUP1 SWAP2 SUB SWAP1 RETURN JUMPDEST PUSH2 0x1BE PUSH1 0x4 DUP1 CALLDATASIZE SUB PUSH1 0x40 DUP2 LT ISZERO PUSH2 0x188 JUMPI PUSH1 0x0 DUP1 REVERT JUMPDEST DUP2 ADD SWAP1 DUP1 DUP1 CALLDATALOAD SWAP1 PUSH1 0x20 ADD SWAP1 SWAP3 SWAP2 SWAP1 DUP1 CALLDATALOAD PUSH20 0xFFFFFFFFFFFFFFFFFFFFFFFFFFFFFFFFFFFFFFFF AND SWAP1 PUSH1 0x20 ADD SWAP1 SWAP3 SWAP2 SWAP1 POP POP POP PUSH2 0x4DD JUMP JUMPDEST STOP JUMPDEST PUSH2 0x20C PUSH1 0x4 DUP1 CALLDATASIZE SUB PUSH1 0x40 DUP2 LT ISZERO PUSH2 0x1D6 JUMPI PUSH1 0x0 DUP1 REVERT JUMPDEST DUP2 ADD SWAP1 DUP1 DUP1 CALLDATALOAD SWAP1 PUSH1 0x20 ADD SWAP1 SWAP3 SWAP2 SWAP1 DUP1 CALLDATALOAD PUSH20 0xFFFFFFFFFFFFFFFFFFFFFFFFFFFFFFFFFFFFFFFF AND SWAP1 PUSH1 0x20 ADD SWAP1 SWAP3 SWAP2 SWAP1 POP POP POP PUSH2 0x566 JUMP JUMPDEST STOP JUMPDEST PUSH2 0x244 PUSH1 0x4 DUP1 CALLDATASIZE SUB PUSH1 0x40 DUP2 LT ISZERO PUSH2 0x224 JUMPI PUSH1 0x0 DUP1 REVERT JUMPDEST DUP2 ADD SWAP1 DUP1 DUP1 CALLDATALOAD SWAP1 PUSH1 0x20 ADD SWAP1 SWAP3 SWAP2 SWAP1 DUP1 CALLDATALOAD SWAP1 PUSH1 0x20 ADD SWAP1 SWAP3 SWAP2 SWAP1 POP POP POP PUSH2 0x5FF JUMP JUMPDEST PUSH1 0x40 MLOAD DUP1 DUP3 PUSH20 0xFFFFFFFFFFFFFFFFFFFFFFFFFFFFFFFFFFFFFFFF AND PUSH20 0xFFFFFFFFFFFFFFFFFFFFFFFFFFFFFFFFFFFFFFFF AND DUP2 MSTORE PUSH1 0x20 ADD SWAP2 POP POP PUSH1 0x40 MLOAD DUP1 SWAP2 SUB SWAP1 RETURN JUMPDEST PUSH2 0x2D2 PUSH1 0x4 DUP1 CALLDATASIZE SUB PUSH1 0x40 DUP2 LT ISZERO PUSH2 0x29C JUMPI PUSH1 0x0 DUP1 REVERT JUMPDEST DUP2 ADD SWAP1 DUP1 DUP1 CALLDATALOAD SWAP1 PUSH1 0x20 ADD SWAP1 SWAP3 SWAP2 SWAP1 DUP1 CALLDATALOAD PUSH20 0xFFFFFFFFFFFFFFFFFFFFFFFFFFFFFFFFFFFFFFFF AND SWAP1 PUSH1 0x20 ADD SWAP1 SWAP3 SWAP2 SWAP1 POP POP POP PUSH2 0x630 JUMP JUMPDEST PUSH1 0x40 MLOAD DUP1 DUP3 ISZERO ISZERO ISZERO ISZERO DUP2 MSTORE PUSH1 0x20 ADD SWAP2 POP POP PUSH1 0x40 MLOAD DUP1 SWAP2 SUB SWAP1 RETURN JUMPDEST PUSH2 0x2F4 PUSH2 0x661 JUMP JUMPDEST PUSH1 0x40 MLOAD DUP1 DUP3 DUP2 MSTORE PUSH1 0x20 ADD SWAP2 POP POP PUSH1 0x40 MLOAD DUP1 SWAP2 SUB SWAP1 RETURN JUMPDEST PUSH2 0x34C PUSH1 0x4 DUP1 CALLDATASIZE SUB PUSH1 0x20 DUP2 LT ISZERO PUSH2 0x320 JUMPI PUSH1 0x0 DUP1 REVERT JUMPDEST DUP2 ADD SWAP1 DUP1 DUP1 CALLDATALOAD PUSH20 0xFFFFFFFFFFFFFFFFFFFFFFFFFFFFFFFFFFFFFFFF AND SWAP1 PUSH1 0x20 ADD SWAP1 SWAP3 SWAP2 SWAP1 POP POP POP PUSH2 0x668 JUMP JUMPDEST STOP JUMPDEST PUSH2 0x37A PUSH1 0x4 DUP1 CALLDATASIZE SUB PUSH1 0x20 DUP2 LT ISZERO PUSH2 0x364 JUMPI PUSH1 0x0 DUP1 REVERT JUMPDEST DUP2 ADD SWAP1 DUP1 DUP1 CALLDATALOAD SWAP1 PUSH1 0x20 ADD SWAP1 SWAP3 SWAP2 SWAP1 POP POP POP PUSH2 0x70A JUMP JUMPDEST PUSH1 0x40 MLOAD DUP1 DUP3 DUP2 MSTORE PUSH1 0x20 ADD SWAP2 POP POP PUSH1 0x40 MLOAD DUP1 SWAP2 SUB SWAP1 RETURN JUMPDEST PUSH2 0x3DC PUSH1 0x4 DUP1 CALLDATASIZE SUB PUSH1 0x40 DUP2 LT ISZERO PUSH2 0x3A6 JUMPI PUSH1 0x0 DUP1 REVERT JUMPDEST DUP2 ADD SWAP1 DUP1 DUP1 CALLDATALOAD SWAP1 PUSH1 0x20 ADD SWAP1 SWAP3 SWAP2 SWAP1 DUP1 CALLDATALOAD PUSH20 0xFFFFFFFFFFFFFFFFFFFFFFFFFFFFFFFFFFFFFFFF AND SWAP1 PUSH1 0x20 ADD SWAP1 SWAP3 SWAP2 SWAP1 POP POP POP PUSH2 0x730 JUMP JUMPDEST STOP JUMPDEST PUSH2 0x420 PUSH1 0x4 DUP1 CALLDATASIZE SUB PUSH1 0x20 DUP2 LT ISZERO PUSH2 0x3F4 JUMPI PUSH1 0x0 DUP1 REVERT JUMPDEST DUP2 ADD SWAP1 DUP1 DUP1 CALLDATALOAD PUSH20 0xFFFFFFFFFFFFFFFFFFFFFFFFFFFFFFFFFFFFFFFF AND SWAP1 PUSH1 0x20 ADD SWAP1 SWAP3 SWAP2 SWAP1 POP POP POP PUSH2 0x7B9 JUMP JUMPDEST STOP JUMPDEST PUSH2 0x42A PUSH2 0x823 JUMP JUMPDEST PUSH1 0x40 MLOAD DUP1 DUP3 PUSH20 0xFFFFFFFFFFFFFFFFFFFFFFFFFFFFFFFFFFFFFFFF AND PUSH20 0xFFFFFFFFFFFFFFFFFFFFFFFFFFFFFFFFFFFFFFFF AND DUP2 MSTORE PUSH1 0x20 ADD SWAP2 POP POP PUSH1 0x40 MLOAD DUP1 SWAP2 SUB SWAP1 RETURN JUMPDEST PUSH2 0x474 PUSH2 0x849 JUMP JUMPDEST STOP JUMPDEST PUSH1 0x0 DUP1 PUSH1 0x0 DUP4 DUP2 MSTORE PUSH1 0x20 ADD SWAP1 DUP2 MSTORE PUSH1 0x20 ADD PUSH1 0x0 KECCAK256 PUSH1 0x2 ADD SLOAD SWAP1 POP SWAP2 SWAP1 POP JUMP JUMPDEST PUSH1 0x0 PUSH2 0x4D6 PUSH1 0x40 MLOAD DUP1 DUP1 PUSH32 0x5772697465720000000000000000000000000000000000000000000000000000 DUP2 MSTORE POP PUSH1 0x6 ADD SWAP1 POP PUSH1 0x40 MLOAD DUP1 SWAP2 SUB SWAP1 KECCAK256 DUP4 PUSH2 0x630 JUMP JUMPDEST SWAP1 POP SWAP2 SWAP1 POP JUMP JUMPDEST PUSH2 0x503 PUSH1 0x0 DUP1 DUP5 DUP2 MSTORE PUSH1 0x20 ADD SWAP1 DUP2 MSTORE PUSH1 0x20 ADD PUSH1 0x0 KECCAK256 PUSH1 0x2 ADD SLOAD PUSH2 0x4FE PUSH2 0x884 JUMP JUMPDEST PUSH2 0x630 JUMP JUMPDEST PUSH2 0x558 JUMPI PUSH1 0x40 MLOAD PUSH32 0x8C379A000000000000000000000000000000000000000000000000000000000 DUP2 MSTORE PUSH1 0x4 ADD DUP1 DUP1 PUSH1 0x20 ADD DUP3 DUP2 SUB DUP3 MSTORE PUSH1 0x2F DUP2 MSTORE PUSH1 0x20 ADD DUP1 PUSH2 0xD7D PUSH1 0x2F SWAP2 CODECOPY PUSH1 0x40 ADD SWAP2 POP POP PUSH1 0x40 MLOAD DUP1 SWAP2 SUB SWAP1 REVERT JUMPDEST PUSH2 0x562 DUP3 DUP3 PUSH2 0x88C JUMP JUMPDEST POP POP JUMP JUMPDEST PUSH2 0x56E PUSH2 0x884 JUMP JUMPDEST PUSH20 0xFFFFFFFFFFFFFFFFFFFFFFFFFFFFFFFFFFFFFFFF AND DUP2 PUSH20 0xFFFFFFFFFFFFFFFFFFFFFFFFFFFFFFFFFFFFFFFF AND EQ PUSH2 0x5F1 JUMPI PUSH1 0x40 MLOAD PUSH32 0x8C379A000000000000000000000000000000000000000000000000000000000 DUP2 MSTORE PUSH1 0x4 ADD DUP1 DUP1 PUSH1 0x20 ADD DUP3 DUP2 SUB DUP3 MSTORE PUSH1 0x2F DUP2 MSTORE PUSH1 0x20 ADD DUP1 PUSH2 0xE0C PUSH1 0x2F SWAP2 CODECOPY PUSH1 0x40 ADD SWAP2 POP POP PUSH1 0x40 MLOAD DUP1 SWAP2 SUB SWAP1 REVERT JUMPDEST PUSH2 0x5FB DUP3 DUP3 PUSH2 0x91F JUMP JUMPDEST POP POP JUMP JUMPDEST PUSH1 0x0 PUSH2 0x628 DUP3 PUSH1 0x0 DUP1 DUP7 DUP2 MSTORE PUSH1 0x20 ADD SWAP1 DUP2 MSTORE PUSH1 0x20 ADD PUSH1 0x0 KECCAK256 PUSH1 0x0 ADD PUSH2 0x9B2 SWAP1 SWAP2 SWAP1 PUSH4 0xFFFFFFFF AND JUMP JUMPDEST SWAP1 POP SWAP3 SWAP2 POP POP JUMP JUMPDEST PUSH1 0x0 PUSH2 0x659 DUP3 PUSH1 0x0 DUP1 DUP7 DUP2 MSTORE PUSH1 0x20 ADD SWAP1 DUP2 MSTORE PUSH1 0x20 ADD PUSH1 0x0 KECCAK256 PUSH1 0x0 ADD PUSH2 0x9CC SWAP1 SWAP2 SWAP1 PUSH4 0xFFFFFFFF AND JUMP JUMPDEST SWAP1 POP SWAP3 SWAP2 POP POP JUMP JUMPDEST PUSH1 0x0 DUP1 SHL DUP2 JUMP JUMPDEST PUSH2 0x671 CALLER PUSH2 0x495 JUMP JUMPDEST PUSH2 0x6C6 JUMPI PUSH1 0x40 MLOAD PUSH32 0x8C379A000000000000000000000000000000000000000000000000000000000 DUP2 MSTORE PUSH1 0x4 ADD DUP1 DUP1 PUSH1 0x20 ADD DUP3 DUP2 SUB DUP3 MSTORE PUSH1 0x30 DUP2 MSTORE PUSH1 0x20 ADD DUP1 PUSH2 0xDDC PUSH1 0x30 SWAP2 CODECOPY PUSH1 0x40 ADD SWAP2 POP POP PUSH1 0x40 MLOAD DUP1 SWAP2 SUB SWAP1 REVERT JUMPDEST DUP1 PUSH1 0x1 PUSH1 0x0 PUSH2 0x100 EXP DUP2 SLOAD DUP2 PUSH20 0xFFFFFFFFFFFFFFFFFFFFFFFFFFFFFFFFFFFFFFFF MUL NOT AND SWAP1 DUP4 PUSH20 0xFFFFFFFFFFFFFFFFFFFFFFFFFFFFFFFFFFFFFFFF AND MUL OR SWAP1 SSTORE POP POP JUMP JUMPDEST PUSH1 0x0 PUSH2 0x729 PUSH1 0x0 DUP1 DUP5 DUP2 MSTORE PUSH1 0x20 ADD SWAP1 DUP2 MSTORE PUSH1 0x20 ADD PUSH1 0x0 KECCAK256 PUSH1 0x0 ADD PUSH2 0x9FC JUMP JUMPDEST SWAP1 POP SWAP2 SWAP1 POP JUMP JUMPDEST PUSH2 0x756 PUSH1 0x0 DUP1 DUP5 DUP2 MSTORE PUSH1 0x20 ADD SWAP1 DUP2 MSTORE PUSH1 0x20 ADD PUSH1 0x0 KECCAK256 PUSH1 0x2 ADD SLOAD PUSH2 0x751 PUSH2 0x884 JUMP JUMPDEST PUSH2 0x630 JUMP JUMPDEST PUSH2 0x7AB JUMPI PUSH1 0x40 MLOAD PUSH32 0x8C379A000000000000000000000000000000000000000000000000000000000 DUP2 MSTORE PUSH1 0x4 ADD DUP1 DUP1 PUSH1 0x20 ADD DUP3 DUP2 SUB DUP3 MSTORE PUSH1 0x30 DUP2 MSTORE PUSH1 0x20 ADD DUP1 PUSH2 0xDAC PUSH1 0x30 SWAP2 CODECOPY PUSH1 0x40 ADD SWAP2 POP POP PUSH1 0x40 MLOAD DUP1 SWAP2 SUB SWAP1 REVERT JUMPDEST PUSH2 0x7B5 DUP3 DUP3 PUSH2 0x91F JUMP JUMPDEST POP POP JUMP JUMPDEST PUSH2 0x7C2 CALLER PUSH2 0x495 JUMP JUMPDEST PUSH2 0x817 JUMPI PUSH1 0x40 MLOAD PUSH32 0x8C379A000000000000000000000000000000000000000000000000000000000 DUP2 MSTORE PUSH1 0x4 ADD DUP1 DUP1 PUSH1 0x20 ADD DUP3 DUP2 SUB DUP3 MSTORE PUSH1 0x30 DUP2 MSTORE PUSH1 0x20 ADD DUP1 PUSH2 0xDDC PUSH1 0x30 SWAP2 CODECOPY PUSH1 0x40 ADD SWAP2 POP POP PUSH1 0x40 MLOAD DUP1 SWAP2 SUB SWAP1 REVERT JUMPDEST PUSH2 0x820 DUP2 PUSH2 0xA11 JUMP JUMPDEST POP JUMP JUMPDEST PUSH1 0x1 PUSH1 0x0 SWAP1 SLOAD SWAP1 PUSH2 0x100 EXP SWAP1 DIV PUSH20 0xFFFFFFFFFFFFFFFFFFFFFFFFFFFFFFFFFFFFFFFF AND DUP2 JUMP JUMPDEST PUSH2 0x852 CALLER PUSH2 0xA96 JUMP JUMPDEST JUMP JUMPDEST PUSH1 0x0 PUSH2 0x87C DUP4 PUSH1 0x0 ADD DUP4 PUSH20 0xFFFFFFFFFFFFFFFFFFFFFFFFFFFFFFFFFFFFFFFF AND PUSH1 0x0 SHL PUSH2 0xB1B JUMP JUMPDEST SWAP1 POP SWAP3 SWAP2 POP POP JUMP JUMPDEST PUSH1 0x0 CALLER SWAP1 POP SWAP1 JUMP JUMPDEST PUSH2 0x8B3 DUP2 PUSH1 0x0 DUP1 DUP6 DUP2 MSTORE PUSH1 0x20 ADD SWAP1 DUP2 MSTORE PUSH1 0x20 ADD PUSH1 0x0 KECCAK256 PUSH1 0x0 ADD PUSH2 0x854 SWAP1 SWAP2 SWAP1 PUSH4 0xFFFFFFFF AND JUMP JUMPDEST ISZERO PUSH2 0x91B JUMPI PUSH2 0x8C0 PUSH2 0x884 JUMP JUMPDEST PUSH20 0xFFFFFFFFFFFFFFFFFFFFFFFFFFFFFFFFFFFFFFFF AND DUP2 PUSH20 0xFFFFFFFFFFFFFFFFFFFFFFFFFFFFFFFFFFFFFFFF AND DUP4 PUSH32 0x2F8788117E7EFF1D82E926EC794901D17C78024A50270940304540A733656F0D PUSH1 0x40 MLOAD PUSH1 0x40 MLOAD DUP1 SWAP2 SUB SWAP1 LOG4 JUMPDEST POP POP JUMP JUMPDEST PUSH2 0x946 DUP2 PUSH1 0x0 DUP1 DUP6 DUP2 MSTORE PUSH1 0x20 ADD SWAP1 DUP2 MSTORE PUSH1 0x20 ADD PUSH1 0x0 KECCAK256 PUSH1 0x0 ADD PUSH2 0xB8B SWAP1 SWAP2 SWAP1 PUSH4 0xFFFFFFFF AND JUMP JUMPDEST ISZERO PUSH2 0x9AE JUMPI PUSH2 0x953 PUSH2 0x884 JUMP JUMPDEST PUSH20 0xFFFFFFFFFFFFFFFFFFFFFFFFFFFFFFFFFFFFFFFF AND DUP2 PUSH20 0xFFFFFFFFFFFFFFFFFFFFFFFFFFFFFFFFFFFFFFFF AND DUP4 PUSH32 0xF6391F5C32D9C69D2A47EA670B442974B53935D1EDC7FD64EB21E047A839171B PUSH1 0x40 MLOAD PUSH1 0x40 MLOAD DUP1 SWAP2 SUB SWAP1 LOG4 JUMPDEST POP POP JUMP JUMPDEST PUSH1 0x0 PUSH2 0x9C1 DUP4 PUSH1 0x0 ADD DUP4 PUSH2 0xBBB JUMP JUMPDEST PUSH1 0x0 SHR SWAP1 POP SWAP3 SWAP2 POP POP JUMP JUMPDEST PUSH1 0x0 PUSH2 0x9F4 DUP4 PUSH1 0x0 ADD DUP4 PUSH20 0xFFFFFFFFFFFFFFFFFFFFFFFFFFFFFFFFFFFFFFFF AND PUSH1 0x0 SHL PUSH2 0xC3E JUMP JUMPDEST SWAP1 POP SWAP3 SWAP2 POP POP JUMP JUMPDEST PUSH1 0x0 PUSH2 0xA0A DUP3 PUSH1 0x0 ADD PUSH2 0xC61 JUMP JUMPDEST SWAP1 POP SWAP2 SWAP1 POP JUMP JUMPDEST PUSH2 0xA50 PUSH1 0x40 MLOAD DUP1 DUP1 PUSH32 0x5772697465720000000000000000000000000000000000000000000000000000 DUP2 MSTORE POP PUSH1 0x6 ADD SWAP1 POP PUSH1 0x40 MLOAD DUP1 SWAP2 SUB SWAP1 KECCAK256 DUP3 PUSH2 0x4DD JUMP JUMPDEST DUP1 PUSH20 0xFFFFFFFFFFFFFFFFFFFFFFFFFFFFFFFFFFFFFFFF AND PUSH32 0x6FF3AA2EA7B53070F6D9D07A445D338D89E8EDEF44250FFA8BE19F53910D4A2E PUSH1 0x40 MLOAD PUSH1 0x40 MLOAD DUP1 SWAP2 SUB SWAP1 LOG2 POP JUMP JUMPDEST PUSH2 0xAD5 PUSH1 0x40 MLOAD DUP1 DUP1 PUSH32 0x5772697465720000000000000000000000000000000000000000000000000000 DUP2 MSTORE POP PUSH1 0x6 ADD SWAP1 POP PUSH1 0x40 MLOAD DUP1 SWAP2 SUB SWAP1 KECCAK256 DUP3 PUSH2 0x566 JUMP JUMPDEST DUP1 PUSH20 0xFFFFFFFFFFFFFFFFFFFFFFFFFFFFFFFFFFFFFFFF AND PUSH32 0x86E5BBCEDA94081C32220D685F37CC4E3EA7BB0BE2DFBF0CB703579505A5390E PUSH1 0x40 MLOAD PUSH1 0x40 MLOAD DUP1 SWAP2 SUB SWAP1 LOG2 POP JUMP JUMPDEST PUSH1 0x0 PUSH2 0xB27 DUP4 DUP4 PUSH2 0xC3E JUMP JUMPDEST PUSH2 0xB80 JUMPI DUP3 PUSH1 0x0 ADD DUP3 SWAP1 DUP1 PUSH1 0x1 DUP2 SLOAD ADD DUP1 DUP3 SSTORE DUP1 SWAP2 POP POP PUSH1 0x1 SWAP1 SUB SWAP1 PUSH1 0x0 MSTORE PUSH1 0x20 PUSH1 0x0 KECCAK256 ADD PUSH1 0x0 SWAP1 SWAP2 SWAP1 SWAP2 SWAP1 SWAP2 POP SSTORE DUP3 PUSH1 0x0 ADD DUP1 SLOAD SWAP1 POP DUP4 PUSH1 0x1 ADD PUSH1 0x0 DUP5 DUP2 MSTORE PUSH1 0x20 ADD SWAP1 DUP2 MSTORE PUSH1 0x20 ADD PUSH1 0x0 KECCAK256 DUP2 SWAP1 SSTORE POP PUSH1 0x1 SWAP1 POP PUSH2 0xB85 JUMP JUMPDEST PUSH1 0x0 SWAP1 POP JUMPDEST SWAP3 SWAP2 POP POP JUMP JUMPDEST PUSH1 0x0 PUSH2 0xBB3 DUP4 PUSH1 0x0 ADD DUP4 PUSH20 0xFFFFFFFFFFFFFFFFFFFFFFFFFFFFFFFFFFFFFFFF AND PUSH1 0x0 SHL PUSH2 0xC72 JUMP JUMPDEST SWAP1 POP SWAP3 SWAP2 POP POP JUMP JUMPDEST PUSH1 0x0 DUP2 DUP4 PUSH1 0x0 ADD DUP1 SLOAD SWAP1 POP GT PUSH2 0xC1C JUMPI PUSH1 0x40 MLOAD PUSH32 0x8C379A000000000000000000000000000000000000000000000000000000000 DUP2 MSTORE PUSH1 0x4 ADD DUP1 DUP1 PUSH1 0x20 ADD DUP3 DUP2 SUB DUP3 MSTORE PUSH1 0x22 DUP2 MSTORE PUSH1 0x20 ADD DUP1 PUSH2 0xD5B PUSH1 0x22 SWAP2 CODECOPY PUSH1 0x40 ADD SWAP2 POP POP PUSH1 0x40 MLOAD DUP1 SWAP2 SUB SWAP1 REVERT JUMPDEST DUP3 PUSH1 0x0 ADD DUP3 DUP2 SLOAD DUP2 LT PUSH2 0xC2B JUMPI INVALID JUMPDEST SWAP1 PUSH1 0x0 MSTORE PUSH1 0x20 PUSH1 0x0 KECCAK256 ADD SLOAD SWAP1 POP SWAP3 SWAP2 POP POP JUMP JUMPDEST PUSH1 0x0 DUP1 DUP4 PUSH1 0x1 ADD PUSH1 0x0 DUP5 DUP2 MSTORE PUSH1 0x20 ADD SWAP1 DUP2 MSTORE PUSH1 0x20 ADD PUSH1 0x0 KECCAK256 SLOAD EQ ISZERO SWAP1 POP SWAP3 SWAP2 POP POP JUMP JUMPDEST PUSH1 0x0 DUP2 PUSH1 0x0 ADD DUP1 SLOAD SWAP1 POP SWAP1 POP SWAP2 SWAP1 POP JUMP JUMPDEST PUSH1 0x0 DUP1 DUP4 PUSH1 0x1 ADD PUSH1 0x0 DUP5 DUP2 MSTORE PUSH1 0x20 ADD SWAP1 DUP2 MSTORE PUSH1 0x20 ADD PUSH1 0x0 KECCAK256 SLOAD SWAP1 POP PUSH1 0x0 DUP2 EQ PUSH2 0xD4E JUMPI PUSH1 0x0 PUSH1 0x1 DUP3 SUB SWAP1 POP PUSH1 0x0 PUSH1 0x1 DUP7 PUSH1 0x0 ADD DUP1 SLOAD SWAP1 POP SUB SWAP1 POP PUSH1 0x0 DUP7 PUSH1 0x0 ADD DUP3 DUP2 SLOAD DUP2 LT PUSH2 0xCBD JUMPI INVALID JUMPDEST SWAP1 PUSH1 0x0 MSTORE PUSH1 0x20 PUSH1 0x0 KECCAK256 ADD SLOAD SWAP1 POP DUP1 DUP8 PUSH1 0x0 ADD DUP5 DUP2 SLOAD DUP2 LT PUSH2 0xCDA JUMPI INVALID JUMPDEST SWAP1 PUSH1 0x0 MSTORE PUSH1 0x20 PUSH1 0x0 KECCAK256 ADD DUP2 SWAP1 SSTORE POP PUSH1 0x1 DUP4 ADD DUP8 PUSH1 0x1 ADD PUSH1 0x0 DUP4 DUP2 MSTORE PUSH1 0x20 ADD SWAP1 DUP2 MSTORE PUSH1 0x20 ADD PUSH1 0x0 KECCAK256 DUP2 SWAP1 SSTORE POP DUP7 PUSH1 0x0 ADD DUP1 SLOAD DUP1 PUSH2 0xD12 JUMPI INVALID JUMPDEST PUSH1 0x1 SWAP1 SUB DUP2 DUP2 SWAP1 PUSH1 0x0 MSTORE PUSH1 0x20 PUSH1 0x0 KECCAK256 ADD PUSH1 0x0 SWAP1 SSTORE SWAP1 SSTORE DUP7 PUSH1 0x1 ADD PUSH1 0x0 DUP8 DUP2 MSTORE PUSH1 0x20 ADD SWAP1 DUP2 MSTORE PUSH1 0x20 ADD PUSH1 0x0 KECCAK256 PUSH1 0x0 SWAP1 SSTORE PUSH1 0x1 SWAP5 POP POP POP POP POP PUSH2 0xD54 JUMP JUMPDEST PUSH1 0x0 SWAP2 POP POP JUMPDEST SWAP3 SWAP2 POP POP JUMP INVALID GASLIMIT PUSH15 0x756D657261626C655365743A20696E PUSH5 0x6578206F75 PUSH21 0x206F6620626F756E6473416363657373436F6E7472 PUSH16 0x6C3A2073656E646572206D7573742062 PUSH6 0x20616E206164 PUSH14 0x696E20746F206772616E74416363 PUSH6 0x7373436F6E74 PUSH19 0x6F6C3A2073656E646572206D75737420626520 PUSH2 0x6E20 PUSH2 0x646D PUSH10 0x6E20746F207265766F6B PUSH6 0x577269746572 MSTORE PUSH16 0x6C653A2063616C6C657220646F657320 PUSH15 0x6F7420686176652074686520577269 PUSH21 0x657220726F6C65416363657373436F6E74726F6C3A KECCAK256 PUSH4 0x616E206F PUSH15 0x6C792072656E6F756E636520726F6C PUSH6 0x7320666F7220 PUSH20 0x656C66A2646970667358221220FF411145AB21B4 0xE7 0xD1 0xE9 POP KECCAK256 JUMP POP PUSH15 0xE1DD923684671867455FD3FE404E10 ADDMOD DUP14 PUSH5 0x736F6C6343 STOP MOD SIGNEXTEND STOP CALLER "},"gasEstimates":{"creation":{"codeDepositCost":"739200","executionCost":"infinite","totalCost":"infinite"},"external":{"DEFAULT_ADMIN_ROLE()":"234","addWriter(address)":"infinite","changeJobManagerAddress(address)":"infinite","getRoleAdmin(bytes32)":"1185","getRoleMember(bytes32,uint256)":"infinite","getRoleMemberCount(bytes32)":"1357","grantRole(bytes32,address)":"infinite","hasRole(bytes32,address)":"infinite","isWriter(address)":"infinite","jobManagerAddress()":"1119","renounceRole(bytes32,address)":"infinite","renounceWriter()":"infinite","revokeRole(bytes32,address)":"infinite"}},"methodIdentifiers":{"DEFAULT_ADMIN_ROLE()":"a217fddf","addWriter(address)":"da2824a8","changeJobManagerAddress(address)":"a5653345","getRoleAdmin(bytes32)":"248a9ca3","getRoleMember(bytes32,uint256)":"9010d07c","getRoleMemberCount(bytes32)":"ca15c873","grantRole(bytes32,address)":"2f2ff15d","hasRole(bytes32,address)":"91d14854","isWriter(address)":"2b29ba23","jobManagerAddress()":"de13c46f","renounceRole(bytes32,address)":"36568abe","renounceWriter()":"df4eb59c","revokeRole(bytes32,address)":"d547741f"}},"storageLayout":{"storage":[{"astId":6043,"contract":"ResultProxy.sol:ResultProxy","label":"_roles","offset":0,"slot":"0","type":"t_mapping(t_bytes32,t_struct(RoleData)6039_storage)"},{"astId":2438,"contract":"ResultProxy.sol:ResultProxy","label":"jobManagerAddress","offset":0,"slot":"1","type":"t_address"}],"types":{"t_address":{"encoding":"inplace","label":"address","numberOfBytes":"20"},"t_array(t_bytes32)dyn_storage":{"base":"t_bytes32","encoding":"dynamic_array","label":"bytes32[]","numberOfBytes":"32"},"t_bytes32":{"encoding":"inplace","label":"bytes32","numberOfBytes":"32"},"t_mapping(t_bytes32,t_struct(RoleData)6039_storage)":{"encoding":"mapping","key":"t_bytes32","label":"mapping(bytes32 => struct AccessControl.RoleData)","numberOfBytes":"32","value":"t_struct(RoleData)6039_storage"},"t_mapping(t_bytes32,t_uint256)":{"encoding":"mapping","key":"t_bytes32","label":"mapping(bytes32 => uint256)","numberOfBytes":"32","value":"t_uint256"},"t_struct(AddressSet)6799_storage":{"encoding":"inplace","label":"struct EnumerableSet.AddressSet","members":[{"astId":6798,"contract":"ResultProxy.sol:ResultProxy","label":"_inner","offset":0,"slot":"0","type":"t_struct(Set)6619_storage"}],"numberOfBytes":"64"},"t_struct(RoleData)6039_storage":{"encoding":"inplace","label":"struct AccessControl.RoleData","members":[{"astId":6036,"contract":"ResultProxy.sol:ResultProxy","label":"members","offset":0,"slot":"0","type":"t_struct(AddressSet)6799_storage"},{"astId":6038,"contract":"ResultProxy.sol:ResultProxy","label":"adminRole","offset":0,"slot":"2","type":"t_bytes32"}],"numberOfBytes":"96"},"t_struct(Set)6619_storage":{"encoding":"inplace","label":"struct EnumerableSet.Set","members":[{"astId":6614,"contract":"ResultProxy.sol:ResultProxy","label":"_values","offset":0,"slot":"0","type":"t_array(t_bytes32)dyn_storage"},{"astId":6618,"contract":"ResultProxy.sol:ResultProxy","label":"_indexes","offset":0,"slot":"1","type":"t_mapping(t_bytes32,t_uint256)"}],"numberOfBytes":"64"},"t_uint256":{"encoding":"inplace","label":"uint256","numberOfBytes":"32"}}},"userdoc":{"kind":"user","methods":{},"version":1}}