{"abi":[{"inputs":[],"stateMutability":"nonpayable","type":"constructor"},{"anonymous":false,"inputs":[{"indexed":true,"internalType":"address","name":"owner","type":"address"},{"indexed":true,"internalType":"address","name":"spender","type":"address"},{"indexed":false,"internalType":"uint256","name":"value","type":"uint256"}],"name":"Approval","type":"event"},{"anonymous":false,"inputs":[{"indexed":true,"internalType":"address","name":"from","type":"address"},{"indexed":true,"internalType":"address","name":"to","type":"address"},{"indexed":false,"internalType":"uint256","name":"value","type":"uint256"}],"name":"Transfer","type":"event"},{"inputs":[],"name":"DECIMALS","outputs":[{"internalType":"uint8","name":"","type":"uint8"}],"stateMutability":"view","type":"function"},{"inputs":[],"name":"INITIAL_SUPPLY","outputs":[{"internalType":"uint256","name":"","type":"uint256"}],"stateMutability":"view","type":"function"},{"inputs":[{"internalType":"address","name":"owner","type":"address"},{"internalType":"address","name":"spender","type":"address"}],"name":"allowance","outputs":[{"internalType":"uint256","name":"","type":"uint256"}],"stateMutability":"view","type":"function"},{"inputs":[{"internalType":"address","name":"spender","type":"address"},{"internalType":"uint256","name":"amount","type":"uint256"}],"name":"approve","outputs":[{"internalType":"bool","name":"","type":"bool"}],"stateMutability":"nonpayable","type":"function"},{"inputs":[{"internalType":"address","name":"account","type":"address"}],"name":"balanceOf","outputs":[{"internalType":"uint256","name":"","type":"uint256"}],"stateMutability":"view","type":"function"},{"inputs":[],"name":"decimals","outputs":[{"internalType":"uint8","name":"","type":"uint8"}],"stateMutability":"view","type":"function"},{"inputs":[{"internalType":"address","name":"spender","type":"address"},{"internalType":"uint256","name":"subtractedValue","type":"uint256"}],"name":"decreaseAllowance","outputs":[{"internalType":"bool","name":"","type":"bool"}],"stateMutability":"nonpayable","type":"function"},{"inputs":[{"internalType":"address","name":"spender","type":"address"},{"internalType":"uint256","name":"addedValue","type":"uint256"}],"name":"increaseAllowance","outputs":[{"internalType":"bool","name":"","type":"bool"}],"stateMutability":"nonpayable","type":"function"},{"inputs":[{"internalType":"address","name":"account","type":"address"},{"internalType":"uint256","name":"amount","type":"uint256"}],"name":"mint","outputs":[{"internalType":"bool","name":"","type":"bool"}],"stateMutability":"nonpayable","type":"function"},{"inputs":[],"name":"name","outputs":[{"internalType":"string","name":"","type":"string"}],"stateMutability":"view","type":"function"},{"inputs":[],"name":"symbol","outputs":[{"internalType":"string","name":"","type":"string"}],"stateMutability":"view","type":"function"},{"inputs":[],"name":"totalSupply","outputs":[{"internalType":"uint256","name":"","type":"uint256"}],"stateMutability":"view","type":"function"},{"inputs":[{"internalType":"address","name":"recipient","type":"address"},{"internalType":"uint256","name":"amount","type":"uint256"}],"name":"transfer","outputs":[{"internalType":"bool","name":"","type":"bool"}],"stateMutability":"nonpayable","type":"function"},{"inputs":[{"internalType":"address","name":"sender","type":"address"},{"internalType":"address","name":"recipient","type":"address"},{"internalType":"uint256","name":"amount","type":"uint256"}],"name":"transferFrom","outputs":[{"internalType":"bool","name":"","type":"bool"}],"stateMutability":"nonpayable","type":"function"}],"devdoc":{"details":"Very simple ERC20 Token example, where all tokens are pre-assigned to the creator. Note they can later distribute these tokens as they wish using `transfer` and other `ERC20` functions.","kind":"dev","methods":{"allowance(address,address)":{"details":"See {IERC20-allowance}."},"approve(address,uint256)":{"details":"See {IERC20-approve}. Requirements: - `spender` cannot be the zero address."},"balanceOf(address)":{"details":"See {IERC20-balanceOf}."},"constructor":{"details":"Constructor that gives msg.sender all of existing tokens."},"decimals()":{"details":"Returns the number of decimals used to get its user representation. For example, if `decimals` equals `2`, a balance of `505` tokens should be displayed to a user as `5,05` (`505 / 10 ** 2`). Tokens usually opt for a value of 18, imitating the relationship between Ether and Wei. This is the value {ERC20} uses, unless {_setupDecimals} is called. NOTE: This information is only used for _display_ purposes: it in no way affects any of the arithmetic of the contract, including {IERC20-balanceOf} and {IERC20-transfer}."},"decreaseAllowance(address,uint256)":{"details":"Atomically decreases the allowance granted to `spender` by the caller. This is an alternative to {approve} that can be used as a mitigation for problems described in {IERC20-approve}. Emits an {Approval} event indicating the updated allowance. Requirements: - `spender` cannot be the zero address. - `spender` must have allowance for the caller of at least `subtractedValue`."},"increaseAllowance(address,uint256)":{"details":"Atomically increases the allowance granted to `spender` by the caller. This is an alternative to {approve} that can be used as a mitigation for problems described in {IERC20-approve}. Emits an {Approval} event indicating the updated allowance. Requirements: - `spender` cannot be the zero address."},"name()":{"details":"Returns the name of the token."},"symbol()":{"details":"Returns the symbol of the token, usually a shorter version of the name."},"totalSupply()":{"details":"See {IERC20-totalSupply}."},"transfer(address,uint256)":{"details":"See {IERC20-transfer}. Requirements: - `recipient` cannot be the zero address. - the caller must have a balance of at least `amount`."},"transferFrom(address,address,uint256)":{"details":"See {IERC20-transferFrom}. Emits an {Approval} event indicating the updated allowance. This is not required by the EIP. See the note at the beginning of {ERC20}; Requirements: - `sender` and `recipient` cannot be the zero address. - `sender` must have a balance of at least `amount`. - the caller must have allowance for ``sender``'s tokens of at least `amount`."}},"title":"SchellingCoin","version":1},"evm":{"assembly":"    /* \"SchellingCoin.sol\":359:899  contract SchellingCoin is ERC20 {... */\n  mstore(0x40, 0x80)\n    /* \"SchellingCoin.sol\":657:759  constructor () public ERC20(\"SchellingCoin\", \"SCH\") {... */\n  callvalue\n  dup1\n  iszero\n  tag_1\n  jumpi\n  0x00\n  dup1\n  revert\ntag_1:\n  pop\n    /* \"openzeppelin-solidity/contracts/token/ERC20/ERC20.sol\":2013:2154   */\n  mload(0x40)\n  dup1\n  0x40\n  add\n  0x40\n  mstore\n  dup1\n  0x0d\n  dup2\n  mstore\n  0x20\n  add\n  0x536368656c6c696e67436f696e00000000000000000000000000000000000000\n  dup2\n  mstore\n  pop\n  mload(0x40)\n  dup1\n  0x40\n  add\n  0x40\n  mstore\n  dup1\n  0x03\n  dup2\n  mstore\n  0x20\n  add\n  0x5343480000000000000000000000000000000000000000000000000000000000\n  dup2\n  mstore\n  pop\n    /* \"openzeppelin-solidity/contracts/token/ERC20/ERC20.sol\":2093:2097   */\n  dup2\n    /* \"openzeppelin-solidity/contracts/token/ERC20/ERC20.sol\":2085:2090   */\n  0x03\n    /* \"openzeppelin-solidity/contracts/token/ERC20/ERC20.sol\":2085:2097   */\n  swap1\n  dup1\n  mload\n  swap1\n  0x20\n  add\n  swap1\n  tag_5\n  swap3\n  swap2\n  swap1\n  tag_6\n  jump\t// in\ntag_5:\n  pop\n    /* \"openzeppelin-solidity/contracts/token/ERC20/ERC20.sol\":2117:2123   */\n  dup1\n    /* \"openzeppelin-solidity/contracts/token/ERC20/ERC20.sol\":2107:2114   */\n  0x04\n    /* \"openzeppelin-solidity/contracts/token/ERC20/ERC20.sol\":2107:2123   */\n  swap1\n  dup1\n  mload\n  swap1\n  0x20\n  add\n  swap1\n  tag_7\n  swap3\n  swap2\n  swap1\n  tag_6\n  jump\t// in\ntag_7:\n  pop\n    /* \"openzeppelin-solidity/contracts/token/ERC20/ERC20.sol\":2145:2147   */\n  0x12\n    /* \"openzeppelin-solidity/contracts/token/ERC20/ERC20.sol\":2133:2142   */\n  0x05\n  0x00\n    /* \"openzeppelin-solidity/contracts/token/ERC20/ERC20.sol\":2133:2147   */\n  0x0100\n  exp\n  dup2\n  sload\n  dup2\n  0xff\n  mul\n  not\n  and\n  swap1\n  dup4\n  0xff\n  and\n  mul\n  or\n  swap1\n  sstore\n  pop\n    /* \"openzeppelin-solidity/contracts/token/ERC20/ERC20.sol\":2013:2154   */\n  pop\n  pop\n    /* \"SchellingCoin.sol\":719:752  _mint(msg.sender, INITIAL_SUPPLY) */\n  tag_9\n    /* \"SchellingCoin.sol\":725:735  msg.sender */\n  caller\n    /* \"SchellingCoin.sol\":430:432  18 */\n  0x12\n    /* \"SchellingCoin.sol\":546:563  uint256(DECIMALS) */\n  0xff\n  and\n    /* \"SchellingCoin.sol\":540:542  10 */\n  0x0a\n    /* \"SchellingCoin.sol\":540:563  10 ** uint256(DECIMALS) */\n  exp\n    /* \"SchellingCoin.sol\":528:536  50000000 */\n  0x02faf080\n    /* \"SchellingCoin.sol\":528:564  50000000 * (10 ** uint256(DECIMALS)) */\n  mul\n    /* \"SchellingCoin.sol\":719:724  _mint */\n  shl(0x20, tag_10)\n    /* \"SchellingCoin.sol\":719:752  _mint(msg.sender, INITIAL_SUPPLY) */\n  0x20\n  shr\n  jump\t// in\ntag_9:\n    /* \"SchellingCoin.sol\":359:899  contract SchellingCoin is ERC20 {... */\n  jump(tag_11)\n    /* \"openzeppelin-solidity/contracts/token/ERC20/ERC20.sol\":7835:8205   */\ntag_10:\n    /* \"openzeppelin-solidity/contracts/token/ERC20/ERC20.sol\":7937:7938   */\n  0x00\n    /* \"openzeppelin-solidity/contracts/token/ERC20/ERC20.sol\":7918:7939   */\n  0xffffffffffffffffffffffffffffffffffffffff\n  and\n    /* \"openzeppelin-solidity/contracts/token/ERC20/ERC20.sol\":7918:7925   */\n  dup3\n    /* \"openzeppelin-solidity/contracts/token/ERC20/ERC20.sol\":7918:7939   */\n  0xffffffffffffffffffffffffffffffffffffffff\n  and\n  eq\n  iszero\n    /* \"openzeppelin-solidity/contracts/token/ERC20/ERC20.sol\":7910:7975   */\n  tag_13\n  jumpi\n  mload(0x40)\n  0x08c379a000000000000000000000000000000000000000000000000000000000\n  dup2\n  mstore\n  0x04\n  add\n  dup1\n  dup1\n  0x20\n  add\n  dup3\n  dup2\n  sub\n  dup3\n  mstore\n  0x1f\n  dup2\n  mstore\n  0x20\n  add\n  dup1\n  0x45524332303a206d696e7420746f20746865207a65726f206164647265737300\n  dup2\n  mstore\n  pop\n  0x20\n  add\n  swap2\n  pop\n  pop\n  mload(0x40)\n  dup1\n  swap2\n  sub\n  swap1\n  revert\ntag_13:\n    /* \"openzeppelin-solidity/contracts/token/ERC20/ERC20.sol\":7986:8035   */\n  tag_14\n    /* \"openzeppelin-solidity/contracts/token/ERC20/ERC20.sol\":8015:8016   */\n  0x00\n    /* \"openzeppelin-solidity/contracts/token/ERC20/ERC20.sol\":8019:8026   */\n  dup4\n    /* \"openzeppelin-solidity/contracts/token/ERC20/ERC20.sol\":8028:8034   */\n  dup4\n    /* \"openzeppelin-solidity/contracts/token/ERC20/ERC20.sol\":7986:8006   */\n  shl(0x20, tag_15)\n    /* \"openzeppelin-solidity/contracts/token/ERC20/ERC20.sol\":7986:8035   */\n  0x20\n  shr\n  jump\t// in\ntag_14:\n    /* \"openzeppelin-solidity/contracts/token/ERC20/ERC20.sol\":8061:8085   */\n  tag_16\n    /* \"openzeppelin-solidity/contracts/token/ERC20/ERC20.sol\":8078:8084   */\n  dup2\n    /* \"openzeppelin-solidity/contracts/token/ERC20/ERC20.sol\":8061:8073   */\n  sload(0x02)\n    /* \"openzeppelin-solidity/contracts/token/ERC20/ERC20.sol\":8061:8077   */\n  or(tag_0_64, shl(0x20, tag_17))\n  swap1\n    /* \"openzeppelin-solidity/contracts/token/ERC20/ERC20.sol\":8061:8085   */\n  swap2\n  swap1\n  0x20\n  shr\n  jump\t// in\ntag_16:\n    /* \"openzeppelin-solidity/contracts/token/ERC20/ERC20.sol\":8046:8058   */\n  0x02\n    /* \"openzeppelin-solidity/contracts/token/ERC20/ERC20.sol\":8046:8085   */\n  dup2\n  swap1\n  sstore\n  pop\n    /* \"openzeppelin-solidity/contracts/token/ERC20/ERC20.sol\":8116:8146   */\n  tag_18\n    /* \"openzeppelin-solidity/contracts/token/ERC20/ERC20.sol\":8139:8145   */\n  dup2\n    /* \"openzeppelin-solidity/contracts/token/ERC20/ERC20.sol\":8116:8125   */\n  0x00\n    /* \"openzeppelin-solidity/contracts/token/ERC20/ERC20.sol\":8116:8134   */\n  dup1\n    /* \"openzeppelin-solidity/contracts/token/ERC20/ERC20.sol\":8126:8133   */\n  dup6\n    /* \"openzeppelin-solidity/contracts/token/ERC20/ERC20.sol\":8116:8134   */\n  0xffffffffffffffffffffffffffffffffffffffff\n  and\n  0xffffffffffffffffffffffffffffffffffffffff\n  and\n  dup2\n  mstore\n  0x20\n  add\n  swap1\n  dup2\n  mstore\n  0x20\n  add\n  0x00\n  keccak256\n  sload\n    /* \"openzeppelin-solidity/contracts/token/ERC20/ERC20.sol\":8116:8138   */\n  or(tag_0_64, shl(0x20, tag_17))\n  swap1\n    /* \"openzeppelin-solidity/contracts/token/ERC20/ERC20.sol\":8116:8146   */\n  swap2\n  swap1\n  0x20\n  shr\n  jump\t// in\ntag_18:\n    /* \"openzeppelin-solidity/contracts/token/ERC20/ERC20.sol\":8095:8104   */\n  0x00\n    /* \"openzeppelin-solidity/contracts/token/ERC20/ERC20.sol\":8095:8113   */\n  dup1\n    /* \"openzeppelin-solidity/contracts/token/ERC20/ERC20.sol\":8105:8112   */\n  dup5\n    /* \"openzeppelin-solidity/contracts/token/ERC20/ERC20.sol\":8095:8113   */\n  0xffffffffffffffffffffffffffffffffffffffff\n  and\n  0xffffffffffffffffffffffffffffffffffffffff\n  and\n  dup2\n  mstore\n  0x20\n  add\n  swap1\n  dup2\n  mstore\n  0x20\n  add\n  0x00\n  keccak256\n    /* \"openzeppelin-solidity/contracts/token/ERC20/ERC20.sol\":8095:8146   */\n  dup2\n  swap1\n  sstore\n  pop\n    /* \"openzeppelin-solidity/contracts/token/ERC20/ERC20.sol\":8182:8189   */\n  dup2\n    /* \"openzeppelin-solidity/contracts/token/ERC20/ERC20.sol\":8161:8198   */\n  0xffffffffffffffffffffffffffffffffffffffff\n  and\n    /* \"openzeppelin-solidity/contracts/token/ERC20/ERC20.sol\":8178:8179   */\n  0x00\n    /* \"openzeppelin-solidity/contracts/token/ERC20/ERC20.sol\":8161:8198   */\n  0xffffffffffffffffffffffffffffffffffffffff\n  and\n  0xddf252ad1be2c89b69c2b068fc378daa952ba7f163c4a11628f55a4df523b3ef\n    /* \"openzeppelin-solidity/contracts/token/ERC20/ERC20.sol\":8191:8197   */\n  dup4\n    /* \"openzeppelin-solidity/contracts/token/ERC20/ERC20.sol\":8161:8198   */\n  mload(0x40)\n  dup1\n  dup3\n  dup2\n  mstore\n  0x20\n  add\n  swap2\n  pop\n  pop\n  mload(0x40)\n  dup1\n  swap2\n  sub\n  swap1\n  log3\n    /* \"openzeppelin-solidity/contracts/token/ERC20/ERC20.sol\":7835:8205   */\n  pop\n  pop\n  jump\t// out\n    /* \"openzeppelin-solidity/contracts/token/ERC20/ERC20.sol\":10697:10789   */\ntag_15:\n  pop\n  pop\n  pop\n  jump\t// out\n    /* \"openzeppelin-solidity/contracts/math/SafeMath.sol\":874:1050   */\ntag_17:\n    /* \"openzeppelin-solidity/contracts/math/SafeMath.sol\":932:939   */\n  0x00\n    /* \"openzeppelin-solidity/contracts/math/SafeMath.sol\":951:960   */\n  dup1\n    /* \"openzeppelin-solidity/contracts/math/SafeMath.sol\":967:968   */\n  dup3\n    /* \"openzeppelin-solidity/contracts/math/SafeMath.sol\":963:964   */\n  dup5\n    /* \"openzeppelin-solidity/contracts/math/SafeMath.sol\":963:968   */\n  add\n    /* \"openzeppelin-solidity/contracts/math/SafeMath.sol\":951:968   */\n  swap1\n  pop\n    /* \"openzeppelin-solidity/contracts/math/SafeMath.sol\":991:992   */\n  dup4\n    /* \"openzeppelin-solidity/contracts/math/SafeMath.sol\":986:987   */\n  dup2\n    /* \"openzeppelin-solidity/contracts/math/SafeMath.sol\":986:992   */\n  lt\n  iszero\n    /* \"openzeppelin-solidity/contracts/math/SafeMath.sol\":978:1024   */\n  tag_21\n  jumpi\n  mload(0x40)\n  0x08c379a000000000000000000000000000000000000000000000000000000000\n  dup2\n  mstore\n  0x04\n  add\n  dup1\n  dup1\n  0x20\n  add\n  dup3\n  dup2\n  sub\n  dup3\n  mstore\n  0x1b\n  dup2\n  mstore\n  0x20\n  add\n  dup1\n  0x536166654d6174683a206164646974696f6e206f766572666c6f770000000000\n  dup2\n  mstore\n  pop\n  0x20\n  add\n  swap2\n  pop\n  pop\n  mload(0x40)\n  dup1\n  swap2\n  sub\n  swap1\n  revert\ntag_21:\n    /* \"openzeppelin-solidity/contracts/math/SafeMath.sol\":1042:1043   */\n  dup1\n    /* \"openzeppelin-solidity/contracts/math/SafeMath.sol\":1035:1043   */\n  swap2\n  pop\n  pop\n    /* \"openzeppelin-solidity/contracts/math/SafeMath.sol\":874:1050   */\n  swap3\n  swap2\n  pop\n  pop\n  jump\t// out\n    /* \"SchellingCoin.sol\":359:899  contract SchellingCoin is ERC20 {... */\ntag_6:\n  dup3\n  dup1\n  sload\n  0x01\n  dup2\n  0x01\n  and\n  iszero\n  0x0100\n  mul\n  sub\n  and\n  0x02\n  swap1\n  div\n  swap1\n  0x00\n  mstore\n  keccak256(0x00, 0x20)\n  swap1\n  0x1f\n  add\n  0x20\n  swap1\n  div\n  dup2\n  add\n  swap3\n  dup3\n  0x1f\n  lt\n  tag_23\n  jumpi\n  dup1\n  mload\n  not(0xff)\n  and\n  dup4\n  dup1\n  add\n  or\n  dup6\n  sstore\n  jump(tag_22)\ntag_23:\n  dup3\n  dup1\n  add\n  0x01\n  add\n  dup6\n  sstore\n  dup3\n  iszero\n  tag_22\n  jumpi\n  swap2\n  dup3\n  add\ntag_24:\n  dup3\n  dup2\n  gt\n  iszero\n  tag_25\n  jumpi\n  dup3\n  mload\n  dup3\n  sstore\n  swap2\n  0x20\n  add\n  swap2\n  swap1\n  0x01\n  add\n  swap1\n  jump(tag_24)\ntag_25:\ntag_22:\n  pop\n  swap1\n  pop\n  tag_26\n  swap2\n  swap1\n  tag_27\n  jump\t// in\ntag_26:\n  pop\n  swap1\n  jump\t// out\ntag_27:\n  tag_28\n  swap2\n  swap1\ntag_29:\n  dup1\n  dup3\n  gt\n  iszero\n  tag_30\n  jumpi\n  0x00\n  dup2\n  0x00\n  swap1\n  sstore\n  pop\n  0x01\n  add\n  jump(tag_29)\ntag_30:\n  pop\n  swap1\n  jump\ntag_28:\n  swap1\n  jump\t// out\ntag_11:\n  dataSize(sub_0)\n  dup1\n  dataOffset(sub_0)\n  0x00\n  codecopy\n  0x00\n  return\nstop\n\nsub_0: assembly {\n        /* \"SchellingCoin.sol\":359:899  contract SchellingCoin is ERC20 {... */\n      mstore(0x40, 0x80)\n      callvalue\n      dup1\n      iszero\n      tag_1\n      jumpi\n      0x00\n      dup1\n      revert\n    tag_1:\n      pop\n      jumpi(tag_2, lt(calldatasize, 0x04))\n      shr(0xe0, calldataload(0x00))\n      dup1\n      0x39509351\n      gt\n      tag_17\n      jumpi\n      dup1\n      0x95d89b41\n      gt\n      tag_18\n      jumpi\n      dup1\n      0x95d89b41\n      eq\n      tag_13\n      jumpi\n      dup1\n      0xa457c2d7\n      eq\n      tag_14\n      jumpi\n      dup1\n      0xa9059cbb\n      eq\n      tag_15\n      jumpi\n      dup1\n      0xdd62ed3e\n      eq\n      tag_16\n      jumpi\n      jump(tag_2)\n    tag_18:\n      dup1\n      0x39509351\n      eq\n      tag_10\n      jumpi\n      dup1\n      0x40c10f19\n      eq\n      tag_11\n      jumpi\n      dup1\n      0x70a08231\n      eq\n      tag_12\n      jumpi\n      jump(tag_2)\n    tag_17:\n      dup1\n      0x23b872dd\n      gt\n      tag_19\n      jumpi\n      dup1\n      0x23b872dd\n      eq\n      tag_6\n      jumpi\n      dup1\n      0x2e0f2625\n      eq\n      tag_7\n      jumpi\n      dup1\n      0x2ff2e9dc\n      eq\n      tag_8\n      jumpi\n      dup1\n      0x313ce567\n      eq\n      tag_9\n      jumpi\n      jump(tag_2)\n    tag_19:\n      dup1\n      0x06fdde03\n      eq\n      tag_3\n      jumpi\n      dup1\n      0x095ea7b3\n      eq\n      tag_4\n      jumpi\n      dup1\n      0x18160ddd\n      eq\n      tag_5\n      jumpi\n    tag_2:\n      0x00\n      dup1\n      revert\n        /* \"openzeppelin-solidity/contracts/token/ERC20/ERC20.sol\":2219:2300   */\n    tag_3:\n      tag_20\n      tag_21\n      jump\t// in\n    tag_20:\n      mload(0x40)\n      dup1\n      dup1\n      0x20\n      add\n      dup3\n      dup2\n      sub\n      dup3\n      mstore\n      dup4\n      dup2\n      dup2\n      mload\n      dup2\n      mstore\n      0x20\n      add\n      swap2\n      pop\n      dup1\n      mload\n      swap1\n      0x20\n      add\n      swap1\n      dup1\n      dup4\n      dup4\n      0x00\n    tag_22:\n      dup4\n      dup2\n      lt\n      iszero\n      tag_24\n      jumpi\n      dup1\n      dup3\n      add\n      mload\n      dup2\n      dup5\n      add\n      mstore\n      0x20\n      dup2\n      add\n      swap1\n      pop\n      jump(tag_22)\n    tag_24:\n      pop\n      pop\n      pop\n      pop\n      swap1\n      pop\n      swap1\n      dup2\n      add\n      swap1\n      0x1f\n      and\n      dup1\n      iszero\n      tag_25\n      jumpi\n      dup1\n      dup3\n      sub\n      dup1\n      mload\n      0x01\n      dup4\n      0x20\n      sub\n      0x0100\n      exp\n      sub\n      not\n      and\n      dup2\n      mstore\n      0x20\n      add\n      swap2\n      pop\n    tag_25:\n      pop\n      swap3\n      pop\n      pop\n      pop\n      mload(0x40)\n      dup1\n      swap2\n      sub\n      swap1\n      return\n        /* \"openzeppelin-solidity/contracts/token/ERC20/ERC20.sol\":4255:4421   */\n    tag_4:\n      tag_26\n      0x04\n      dup1\n      calldatasize\n      sub\n      0x40\n      dup2\n      lt\n      iszero\n      tag_27\n      jumpi\n      0x00\n      dup1\n      revert\n    tag_27:\n      dup2\n      add\n      swap1\n      dup1\n      dup1\n      calldataload\n      0xffffffffffffffffffffffffffffffffffffffff\n      and\n      swap1\n      0x20\n      add\n      swap1\n      swap3\n      swap2\n      swap1\n      dup1\n      calldataload\n      swap1\n      0x20\n      add\n      swap1\n      swap3\n      swap2\n      swap1\n      pop\n      pop\n      pop\n      tag_28\n      jump\t// in\n    tag_26:\n      mload(0x40)\n      dup1\n      dup3\n      iszero\n      iszero\n      iszero\n      iszero\n      dup2\n      mstore\n      0x20\n      add\n      swap2\n      pop\n      pop\n      mload(0x40)\n      dup1\n      swap2\n      sub\n      swap1\n      return\n        /* \"openzeppelin-solidity/contracts/token/ERC20/ERC20.sol\":3262:3360   */\n    tag_5:\n      tag_29\n      tag_30\n      jump\t// in\n    tag_29:\n      mload(0x40)\n      dup1\n      dup3\n      dup2\n      mstore\n      0x20\n      add\n      swap2\n      pop\n      pop\n      mload(0x40)\n      dup1\n      swap2\n      sub\n      swap1\n      return\n        /* \"openzeppelin-solidity/contracts/token/ERC20/ERC20.sol\":4881:5198   */\n    tag_6:\n      tag_31\n      0x04\n      dup1\n      calldatasize\n      sub\n      0x60\n      dup2\n      lt\n      iszero\n      tag_32\n      jumpi\n      0x00\n      dup1\n      revert\n    tag_32:\n      dup2\n      add\n      swap1\n      dup1\n      dup1\n      calldataload\n      0xffffffffffffffffffffffffffffffffffffffff\n      and\n      swap1\n      0x20\n      add\n      swap1\n      swap3\n      swap2\n      swap1\n      dup1\n      calldataload\n      0xffffffffffffffffffffffffffffffffffffffff\n      and\n      swap1\n      0x20\n      add\n      swap1\n      swap3\n      swap2\n      swap1\n      dup1\n      calldataload\n      swap1\n      0x20\n      add\n      swap1\n      swap3\n      swap2\n      swap1\n      pop\n      pop\n      pop\n      tag_33\n      jump\t// in\n    tag_31:\n      mload(0x40)\n      dup1\n      dup3\n      iszero\n      iszero\n      iszero\n      iszero\n      dup2\n      mstore\n      0x20\n      add\n      swap2\n      pop\n      pop\n      mload(0x40)\n      dup1\n      swap2\n      sub\n      swap1\n      return\n        /* \"SchellingCoin.sol\":397:432  uint8 public constant DECIMALS = 18 */\n    tag_7:\n      tag_34\n      tag_35\n      jump\t// in\n    tag_34:\n      mload(0x40)\n      dup1\n      dup3\n      0xff\n      and\n      0xff\n      and\n      dup2\n      mstore\n      0x20\n      add\n      swap2\n      pop\n      pop\n      mload(0x40)\n      dup1\n      swap2\n      sub\n      swap1\n      return\n        /* \"SchellingCoin.sol\":487:564  uint256 public constant INITIAL_SUPPLY = 50000000 * (10 ** uint256(DECIMALS)) */\n    tag_8:\n      tag_36\n      tag_37\n      jump\t// in\n    tag_36:\n      mload(0x40)\n      dup1\n      dup3\n      dup2\n      mstore\n      0x20\n      add\n      swap2\n      pop\n      pop\n      mload(0x40)\n      dup1\n      swap2\n      sub\n      swap1\n      return\n        /* \"openzeppelin-solidity/contracts/token/ERC20/ERC20.sol\":3121:3202   */\n    tag_9:\n      tag_38\n      tag_39\n      jump\t// in\n    tag_38:\n      mload(0x40)\n      dup1\n      dup3\n      0xff\n      and\n      0xff\n      and\n      dup2\n      mstore\n      0x20\n      add\n      swap2\n      pop\n      pop\n      mload(0x40)\n      dup1\n      swap2\n      sub\n      swap1\n      return\n        /* \"openzeppelin-solidity/contracts/token/ERC20/ERC20.sol\":5593:5808   */\n    tag_10:\n      tag_40\n      0x04\n      dup1\n      calldatasize\n      sub\n      0x40\n      dup2\n      lt\n      iszero\n      tag_41\n      jumpi\n      0x00\n      dup1\n      revert\n    tag_41:\n      dup2\n      add\n      swap1\n      dup1\n      dup1\n      calldataload\n      0xffffffffffffffffffffffffffffffffffffffff\n      and\n      swap1\n      0x20\n      add\n      swap1\n      swap3\n      swap2\n      swap1\n      dup1\n      calldataload\n      swap1\n      0x20\n      add\n      swap1\n      swap3\n      swap2\n      swap1\n      pop\n      pop\n      pop\n      tag_42\n      jump\t// in\n    tag_40:\n      mload(0x40)\n      dup1\n      dup3\n      iszero\n      iszero\n      iszero\n      iszero\n      dup2\n      mstore\n      0x20\n      add\n      swap2\n      pop\n      pop\n      mload(0x40)\n      dup1\n      swap2\n      sub\n      swap1\n      return\n        /* \"SchellingCoin.sol\":765:896  function mint(address account, uint256 amount) external returns (bool) {... */\n    tag_11:\n      tag_43\n      0x04\n      dup1\n      calldatasize\n      sub\n      0x40\n      dup2\n      lt\n      iszero\n      tag_44\n      jumpi\n      0x00\n      dup1\n      revert\n    tag_44:\n      dup2\n      add\n      swap1\n      dup1\n      dup1\n      calldataload\n      0xffffffffffffffffffffffffffffffffffffffff\n      and\n      swap1\n      0x20\n      add\n      swap1\n      swap3\n      swap2\n      swap1\n      dup1\n      calldataload\n      swap1\n      0x20\n      add\n      swap1\n      swap3\n      swap2\n      swap1\n      pop\n      pop\n      pop\n      tag_45\n      jump\t// in\n    tag_43:\n      mload(0x40)\n      dup1\n      dup3\n      iszero\n      iszero\n      iszero\n      iszero\n      dup2\n      mstore\n      0x20\n      add\n      swap2\n      pop\n      pop\n      mload(0x40)\n      dup1\n      swap2\n      sub\n      swap1\n      return\n        /* \"openzeppelin-solidity/contracts/token/ERC20/ERC20.sol\":3418:3535   */\n    tag_12:\n      tag_46\n      0x04\n      dup1\n      calldatasize\n      sub\n      0x20\n      dup2\n      lt\n      iszero\n      tag_47\n      jumpi\n      0x00\n      dup1\n      revert\n    tag_47:\n      dup2\n      add\n      swap1\n      dup1\n      dup1\n      calldataload\n      0xffffffffffffffffffffffffffffffffffffffff\n      and\n      swap1\n      0x20\n      add\n      swap1\n      swap3\n      swap2\n      swap1\n      pop\n      pop\n      pop\n      tag_48\n      jump\t// in\n    tag_46:\n      mload(0x40)\n      dup1\n      dup3\n      dup2\n      mstore\n      0x20\n      add\n      swap2\n      pop\n      pop\n      mload(0x40)\n      dup1\n      swap2\n      sub\n      swap1\n      return\n        /* \"openzeppelin-solidity/contracts/token/ERC20/ERC20.sol\":2413:2498   */\n    tag_13:\n      tag_49\n      tag_50\n      jump\t// in\n    tag_49:\n      mload(0x40)\n      dup1\n      dup1\n      0x20\n      add\n      dup3\n      dup2\n      sub\n      dup3\n      mstore\n      dup4\n      dup2\n      dup2\n      mload\n      dup2\n      mstore\n      0x20\n      add\n      swap2\n      pop\n      dup1\n      mload\n      swap1\n      0x20\n      add\n      swap1\n      dup1\n      dup4\n      dup4\n      0x00\n    tag_51:\n      dup4\n      dup2\n      lt\n      iszero\n      tag_53\n      jumpi\n      dup1\n      dup3\n      add\n      mload\n      dup2\n      dup5\n      add\n      mstore\n      0x20\n      dup2\n      add\n      swap1\n      pop\n      jump(tag_51)\n    tag_53:\n      pop\n      pop\n      pop\n      pop\n      swap1\n      pop\n      swap1\n      dup2\n      add\n      swap1\n      0x1f\n      and\n      dup1\n      iszero\n      tag_54\n      jumpi\n      dup1\n      dup3\n      sub\n      dup1\n      mload\n      0x01\n      dup4\n      0x20\n      sub\n      0x0100\n      exp\n      sub\n      not\n      and\n      dup2\n      mstore\n      0x20\n      add\n      swap2\n      pop\n    tag_54:\n      pop\n      swap3\n      pop\n      pop\n      pop\n      mload(0x40)\n      dup1\n      swap2\n      sub\n      swap1\n      return\n        /* \"openzeppelin-solidity/contracts/token/ERC20/ERC20.sol\":6295:6561   */\n    tag_14:\n      tag_55\n      0x04\n      dup1\n      calldatasize\n      sub\n      0x40\n      dup2\n      lt\n      iszero\n      tag_56\n      jumpi\n      0x00\n      dup1\n      revert\n    tag_56:\n      dup2\n      add\n      swap1\n      dup1\n      dup1\n      calldataload\n      0xffffffffffffffffffffffffffffffffffffffff\n      and\n      swap1\n      0x20\n      add\n      swap1\n      swap3\n      swap2\n      swap1\n      dup1\n      calldataload\n      swap1\n      0x20\n      add\n      swap1\n      swap3\n      swap2\n      swap1\n      pop\n      pop\n      pop\n      tag_57\n      jump\t// in\n    tag_55:\n      mload(0x40)\n      dup1\n      dup3\n      iszero\n      iszero\n      iszero\n      iszero\n      dup2\n      mstore\n      0x20\n      add\n      swap2\n      pop\n      pop\n      mload(0x40)\n      dup1\n      swap2\n      sub\n      swap1\n      return\n        /* \"openzeppelin-solidity/contracts/token/ERC20/ERC20.sol\":3738:3910   */\n    tag_15:\n      tag_58\n      0x04\n      dup1\n      calldatasize\n      sub\n      0x40\n      dup2\n      lt\n      iszero\n      tag_59\n      jumpi\n      0x00\n      dup1\n      revert\n    tag_59:\n      dup2\n      add\n      swap1\n      dup1\n      dup1\n      calldataload\n      0xffffffffffffffffffffffffffffffffffffffff\n      and\n      swap1\n      0x20\n      add\n      swap1\n      swap3\n      swap2\n      swap1\n      dup1\n      calldataload\n      swap1\n      0x20\n      add\n      swap1\n      swap3\n      swap2\n      swap1\n      pop\n      pop\n      pop\n      tag_60\n      jump\t// in\n    tag_58:\n      mload(0x40)\n      dup1\n      dup3\n      iszero\n      iszero\n      iszero\n      iszero\n      dup2\n      mstore\n      0x20\n      add\n      swap2\n      pop\n      pop\n      mload(0x40)\n      dup1\n      swap2\n      sub\n      swap1\n      return\n        /* \"openzeppelin-solidity/contracts/token/ERC20/ERC20.sol\":3968:4117   */\n    tag_16:\n      tag_61\n      0x04\n      dup1\n      calldatasize\n      sub\n      0x40\n      dup2\n      lt\n      iszero\n      tag_62\n      jumpi\n      0x00\n      dup1\n      revert\n    tag_62:\n      dup2\n      add\n      swap1\n      dup1\n      dup1\n      calldataload\n      0xffffffffffffffffffffffffffffffffffffffff\n      and\n      swap1\n      0x20\n      add\n      swap1\n      swap3\n      swap2\n      swap1\n      dup1\n      calldataload\n      0xffffffffffffffffffffffffffffffffffffffff\n      and\n      swap1\n      0x20\n      add\n      swap1\n      swap3\n      swap2\n      swap1\n      pop\n      pop\n      pop\n      tag_63\n      jump\t// in\n    tag_61:\n      mload(0x40)\n      dup1\n      dup3\n      dup2\n      mstore\n      0x20\n      add\n      swap2\n      pop\n      pop\n      mload(0x40)\n      dup1\n      swap2\n      sub\n      swap1\n      return\n        /* \"openzeppelin-solidity/contracts/token/ERC20/ERC20.sol\":2219:2300   */\n    tag_21:\n        /* \"openzeppelin-solidity/contracts/token/ERC20/ERC20.sol\":2256:2269   */\n      0x60\n        /* \"openzeppelin-solidity/contracts/token/ERC20/ERC20.sol\":2288:2293   */\n      0x03\n        /* \"openzeppelin-solidity/contracts/token/ERC20/ERC20.sol\":2281:2293   */\n      dup1\n      sload\n      0x01\n      dup2\n      0x01\n      and\n      iszero\n      0x0100\n      mul\n      sub\n      and\n      0x02\n      swap1\n      div\n      dup1\n      0x1f\n      add\n      0x20\n      dup1\n      swap2\n      div\n      mul\n      0x20\n      add\n      mload(0x40)\n      swap1\n      dup2\n      add\n      0x40\n      mstore\n      dup1\n      swap3\n      swap2\n      swap1\n      dup2\n      dup2\n      mstore\n      0x20\n      add\n      dup3\n      dup1\n      sload\n      0x01\n      dup2\n      0x01\n      and\n      iszero\n      0x0100\n      mul\n      sub\n      and\n      0x02\n      swap1\n      div\n      dup1\n      iszero\n      tag_66\n      jumpi\n      dup1\n      0x1f\n      lt\n      tag_67\n      jumpi\n      0x0100\n      dup1\n      dup4\n      sload\n      div\n      mul\n      dup4\n      mstore\n      swap2\n      0x20\n      add\n      swap2\n      jump(tag_66)\n    tag_67:\n      dup3\n      add\n      swap2\n      swap1\n      0x00\n      mstore\n      keccak256(0x00, 0x20)\n      swap1\n    tag_68:\n      dup2\n      sload\n      dup2\n      mstore\n      swap1\n      0x01\n      add\n      swap1\n      0x20\n      add\n      dup1\n      dup4\n      gt\n      tag_68\n      jumpi\n      dup3\n      swap1\n      sub\n      0x1f\n      and\n      dup3\n      add\n      swap2\n    tag_66:\n      pop\n      pop\n      pop\n      pop\n      pop\n      swap1\n      pop\n        /* \"openzeppelin-solidity/contracts/token/ERC20/ERC20.sol\":2219:2300   */\n      swap1\n      jump\t// out\n        /* \"openzeppelin-solidity/contracts/token/ERC20/ERC20.sol\":4255:4421   */\n    tag_28:\n        /* \"openzeppelin-solidity/contracts/token/ERC20/ERC20.sol\":4338:4342   */\n      0x00\n        /* \"openzeppelin-solidity/contracts/token/ERC20/ERC20.sol\":4354:4393   */\n      tag_70\n        /* \"openzeppelin-solidity/contracts/token/ERC20/ERC20.sol\":4363:4375   */\n      tag_71\n        /* \"openzeppelin-solidity/contracts/token/ERC20/ERC20.sol\":4363:4373   */\n      tag_72\n        /* \"openzeppelin-solidity/contracts/token/ERC20/ERC20.sol\":4363:4375   */\n      jump\t// in\n    tag_71:\n        /* \"openzeppelin-solidity/contracts/token/ERC20/ERC20.sol\":4377:4384   */\n      dup5\n        /* \"openzeppelin-solidity/contracts/token/ERC20/ERC20.sol\":4386:4392   */\n      dup5\n        /* \"openzeppelin-solidity/contracts/token/ERC20/ERC20.sol\":4354:4362   */\n      tag_73\n        /* \"openzeppelin-solidity/contracts/token/ERC20/ERC20.sol\":4354:4393   */\n      jump\t// in\n    tag_70:\n        /* \"openzeppelin-solidity/contracts/token/ERC20/ERC20.sol\":4410:4414   */\n      0x01\n        /* \"openzeppelin-solidity/contracts/token/ERC20/ERC20.sol\":4403:4414   */\n      swap1\n      pop\n        /* \"openzeppelin-solidity/contracts/token/ERC20/ERC20.sol\":4255:4421   */\n      swap3\n      swap2\n      pop\n      pop\n      jump\t// out\n        /* \"openzeppelin-solidity/contracts/token/ERC20/ERC20.sol\":3262:3360   */\n    tag_30:\n        /* \"openzeppelin-solidity/contracts/token/ERC20/ERC20.sol\":3315:3322   */\n      0x00\n        /* \"openzeppelin-solidity/contracts/token/ERC20/ERC20.sol\":3341:3353   */\n      sload(0x02)\n        /* \"openzeppelin-solidity/contracts/token/ERC20/ERC20.sol\":3334:3353   */\n      swap1\n      pop\n        /* \"openzeppelin-solidity/contracts/token/ERC20/ERC20.sol\":3262:3360   */\n      swap1\n      jump\t// out\n        /* \"openzeppelin-solidity/contracts/token/ERC20/ERC20.sol\":4881:5198   */\n    tag_33:\n        /* \"openzeppelin-solidity/contracts/token/ERC20/ERC20.sol\":4987:4991   */\n      0x00\n        /* \"openzeppelin-solidity/contracts/token/ERC20/ERC20.sol\":5003:5039   */\n      tag_76\n        /* \"openzeppelin-solidity/contracts/token/ERC20/ERC20.sol\":5013:5019   */\n      dup5\n        /* \"openzeppelin-solidity/contracts/token/ERC20/ERC20.sol\":5021:5030   */\n      dup5\n        /* \"openzeppelin-solidity/contracts/token/ERC20/ERC20.sol\":5032:5038   */\n      dup5\n        /* \"openzeppelin-solidity/contracts/token/ERC20/ERC20.sol\":5003:5012   */\n      tag_77\n        /* \"openzeppelin-solidity/contracts/token/ERC20/ERC20.sol\":5003:5039   */\n      jump\t// in\n    tag_76:\n        /* \"openzeppelin-solidity/contracts/token/ERC20/ERC20.sol\":5049:5170   */\n      tag_78\n        /* \"openzeppelin-solidity/contracts/token/ERC20/ERC20.sol\":5058:5064   */\n      dup5\n        /* \"openzeppelin-solidity/contracts/token/ERC20/ERC20.sol\":5066:5078   */\n      tag_79\n        /* \"openzeppelin-solidity/contracts/token/ERC20/ERC20.sol\":5066:5076   */\n      tag_72\n        /* \"openzeppelin-solidity/contracts/token/ERC20/ERC20.sol\":5066:5078   */\n      jump\t// in\n    tag_79:\n        /* \"openzeppelin-solidity/contracts/token/ERC20/ERC20.sol\":5080:5169   */\n      tag_80\n        /* \"openzeppelin-solidity/contracts/token/ERC20/ERC20.sol\":5118:5124   */\n      dup6\n        /* \"openzeppelin-solidity/contracts/token/ERC20/ERC20.sol\":5080:5169   */\n      mload(0x40)\n      dup1\n      0x60\n      add\n      0x40\n      mstore\n      dup1\n      0x28\n      dup2\n      mstore\n      0x20\n      add\n      data_974d1b4421da69cc60b481194f0dad36a5bb4e23da810da7a7fb30cdba178330\n      0x28\n      swap2\n      codecopy\n        /* \"openzeppelin-solidity/contracts/token/ERC20/ERC20.sol\":5080:5091   */\n      0x01\n        /* \"openzeppelin-solidity/contracts/token/ERC20/ERC20.sol\":5080:5099   */\n      0x00\n        /* \"openzeppelin-solidity/contracts/token/ERC20/ERC20.sol\":5092:5098   */\n      dup12\n        /* \"openzeppelin-solidity/contracts/token/ERC20/ERC20.sol\":5080:5099   */\n      0xffffffffffffffffffffffffffffffffffffffff\n      and\n      0xffffffffffffffffffffffffffffffffffffffff\n      and\n      dup2\n      mstore\n      0x20\n      add\n      swap1\n      dup2\n      mstore\n      0x20\n      add\n      0x00\n      keccak256\n        /* \"openzeppelin-solidity/contracts/token/ERC20/ERC20.sol\":5080:5113   */\n      0x00\n        /* \"openzeppelin-solidity/contracts/token/ERC20/ERC20.sol\":5100:5112   */\n      tag_81\n        /* \"openzeppelin-solidity/contracts/token/ERC20/ERC20.sol\":5100:5110   */\n      tag_72\n        /* \"openzeppelin-solidity/contracts/token/ERC20/ERC20.sol\":5100:5112   */\n      jump\t// in\n    tag_81:\n        /* \"openzeppelin-solidity/contracts/token/ERC20/ERC20.sol\":5080:5113   */\n      0xffffffffffffffffffffffffffffffffffffffff\n      and\n      0xffffffffffffffffffffffffffffffffffffffff\n      and\n      dup2\n      mstore\n      0x20\n      add\n      swap1\n      dup2\n      mstore\n      0x20\n      add\n      0x00\n      keccak256\n      sload\n        /* \"openzeppelin-solidity/contracts/token/ERC20/ERC20.sol\":5080:5117   */\n      tag_82\n      swap1\n        /* \"openzeppelin-solidity/contracts/token/ERC20/ERC20.sol\":5080:5169   */\n      swap3\n      swap2\n      swap1\n      0xffffffff\n      and\n      jump\t// in\n    tag_80:\n        /* \"openzeppelin-solidity/contracts/token/ERC20/ERC20.sol\":5049:5057   */\n      tag_73\n        /* \"openzeppelin-solidity/contracts/token/ERC20/ERC20.sol\":5049:5170   */\n      jump\t// in\n    tag_78:\n        /* \"openzeppelin-solidity/contracts/token/ERC20/ERC20.sol\":5187:5191   */\n      0x01\n        /* \"openzeppelin-solidity/contracts/token/ERC20/ERC20.sol\":5180:5191   */\n      swap1\n      pop\n        /* \"openzeppelin-solidity/contracts/token/ERC20/ERC20.sol\":4881:5198   */\n      swap4\n      swap3\n      pop\n      pop\n      pop\n      jump\t// out\n        /* \"SchellingCoin.sol\":397:432  uint8 public constant DECIMALS = 18 */\n    tag_35:\n        /* \"SchellingCoin.sol\":430:432  18 */\n      0x12\n        /* \"SchellingCoin.sol\":397:432  uint8 public constant DECIMALS = 18 */\n      dup2\n      jump\t// out\n        /* \"SchellingCoin.sol\":487:564  uint256 public constant INITIAL_SUPPLY = 50000000 * (10 ** uint256(DECIMALS)) */\n    tag_37:\n        /* \"SchellingCoin.sol\":430:432  18 */\n      0x12\n        /* \"SchellingCoin.sol\":546:563  uint256(DECIMALS) */\n      0xff\n      and\n        /* \"SchellingCoin.sol\":540:542  10 */\n      0x0a\n        /* \"SchellingCoin.sol\":540:563  10 ** uint256(DECIMALS) */\n      exp\n        /* \"SchellingCoin.sol\":528:536  50000000 */\n      0x02faf080\n        /* \"SchellingCoin.sol\":528:564  50000000 * (10 ** uint256(DECIMALS)) */\n      mul\n        /* \"SchellingCoin.sol\":487:564  uint256 public constant INITIAL_SUPPLY = 50000000 * (10 ** uint256(DECIMALS)) */\n      dup2\n      jump\t// out\n        /* \"openzeppelin-solidity/contracts/token/ERC20/ERC20.sol\":3121:3202   */\n    tag_39:\n        /* \"openzeppelin-solidity/contracts/token/ERC20/ERC20.sol\":3162:3167   */\n      0x00\n        /* \"openzeppelin-solidity/contracts/token/ERC20/ERC20.sol\":3186:3195   */\n      0x05\n      0x00\n      swap1\n      sload\n      swap1\n      0x0100\n      exp\n      swap1\n      div\n      0xff\n      and\n        /* \"openzeppelin-solidity/contracts/token/ERC20/ERC20.sol\":3179:3195   */\n      swap1\n      pop\n        /* \"openzeppelin-solidity/contracts/token/ERC20/ERC20.sol\":3121:3202   */\n      swap1\n      jump\t// out\n        /* \"openzeppelin-solidity/contracts/token/ERC20/ERC20.sol\":5593:5808   */\n    tag_42:\n        /* \"openzeppelin-solidity/contracts/token/ERC20/ERC20.sol\":5681:5685   */\n      0x00\n        /* \"openzeppelin-solidity/contracts/token/ERC20/ERC20.sol\":5697:5780   */\n      tag_85\n        /* \"openzeppelin-solidity/contracts/token/ERC20/ERC20.sol\":5706:5718   */\n      tag_86\n        /* \"openzeppelin-solidity/contracts/token/ERC20/ERC20.sol\":5706:5716   */\n      tag_72\n        /* \"openzeppelin-solidity/contracts/token/ERC20/ERC20.sol\":5706:5718   */\n      jump\t// in\n    tag_86:\n        /* \"openzeppelin-solidity/contracts/token/ERC20/ERC20.sol\":5720:5727   */\n      dup5\n        /* \"openzeppelin-solidity/contracts/token/ERC20/ERC20.sol\":5729:5779   */\n      tag_87\n        /* \"openzeppelin-solidity/contracts/token/ERC20/ERC20.sol\":5768:5778   */\n      dup6\n        /* \"openzeppelin-solidity/contracts/token/ERC20/ERC20.sol\":5729:5740   */\n      0x01\n        /* \"openzeppelin-solidity/contracts/token/ERC20/ERC20.sol\":5729:5754   */\n      0x00\n        /* \"openzeppelin-solidity/contracts/token/ERC20/ERC20.sol\":5741:5753   */\n      tag_88\n        /* \"openzeppelin-solidity/contracts/token/ERC20/ERC20.sol\":5741:5751   */\n      tag_72\n        /* \"openzeppelin-solidity/contracts/token/ERC20/ERC20.sol\":5741:5753   */\n      jump\t// in\n    tag_88:\n        /* \"openzeppelin-solidity/contracts/token/ERC20/ERC20.sol\":5729:5754   */\n      0xffffffffffffffffffffffffffffffffffffffff\n      and\n      0xffffffffffffffffffffffffffffffffffffffff\n      and\n      dup2\n      mstore\n      0x20\n      add\n      swap1\n      dup2\n      mstore\n      0x20\n      add\n      0x00\n      keccak256\n        /* \"openzeppelin-solidity/contracts/token/ERC20/ERC20.sol\":5729:5763   */\n      0x00\n        /* \"openzeppelin-solidity/contracts/token/ERC20/ERC20.sol\":5755:5762   */\n      dup10\n        /* \"openzeppelin-solidity/contracts/token/ERC20/ERC20.sol\":5729:5763   */\n      0xffffffffffffffffffffffffffffffffffffffff\n      and\n      0xffffffffffffffffffffffffffffffffffffffff\n      and\n      dup2\n      mstore\n      0x20\n      add\n      swap1\n      dup2\n      mstore\n      0x20\n      add\n      0x00\n      keccak256\n      sload\n        /* \"openzeppelin-solidity/contracts/token/ERC20/ERC20.sol\":5729:5767   */\n      tag_64\n      swap1\n        /* \"openzeppelin-solidity/contracts/token/ERC20/ERC20.sol\":5729:5779   */\n      swap2\n      swap1\n      0xffffffff\n      and\n      jump\t// in\n    tag_87:\n        /* \"openzeppelin-solidity/contracts/token/ERC20/ERC20.sol\":5697:5705   */\n      tag_73\n        /* \"openzeppelin-solidity/contracts/token/ERC20/ERC20.sol\":5697:5780   */\n      jump\t// in\n    tag_85:\n        /* \"openzeppelin-solidity/contracts/token/ERC20/ERC20.sol\":5797:5801   */\n      0x01\n        /* \"openzeppelin-solidity/contracts/token/ERC20/ERC20.sol\":5790:5801   */\n      swap1\n      pop\n        /* \"openzeppelin-solidity/contracts/token/ERC20/ERC20.sol\":5593:5808   */\n      swap3\n      swap2\n      pop\n      pop\n      jump\t// out\n        /* \"SchellingCoin.sol\":765:896  function mint(address account, uint256 amount) external returns (bool) {... */\n    tag_45:\n        /* \"SchellingCoin.sol\":830:834  bool */\n      0x00\n        /* \"SchellingCoin.sol\":846:868  _mint(account, amount) */\n      tag_90\n        /* \"SchellingCoin.sol\":852:859  account */\n      dup4\n        /* \"SchellingCoin.sol\":861:867  amount */\n      dup4\n        /* \"SchellingCoin.sol\":846:851  _mint */\n      tag_91\n        /* \"SchellingCoin.sol\":846:868  _mint(account, amount) */\n      jump\t// in\n    tag_90:\n        /* \"SchellingCoin.sol\":885:889  true */\n      0x01\n        /* \"SchellingCoin.sol\":878:889  return true */\n      swap1\n      pop\n        /* \"SchellingCoin.sol\":765:896  function mint(address account, uint256 amount) external returns (bool) {... */\n      swap3\n      swap2\n      pop\n      pop\n      jump\t// out\n        /* \"openzeppelin-solidity/contracts/token/ERC20/ERC20.sol\":3418:3535   */\n    tag_48:\n        /* \"openzeppelin-solidity/contracts/token/ERC20/ERC20.sol\":3484:3491   */\n      0x00\n        /* \"openzeppelin-solidity/contracts/token/ERC20/ERC20.sol\":3510:3519   */\n      dup1\n        /* \"openzeppelin-solidity/contracts/token/ERC20/ERC20.sol\":3510:3528   */\n      0x00\n        /* \"openzeppelin-solidity/contracts/token/ERC20/ERC20.sol\":3520:3527   */\n      dup4\n        /* \"openzeppelin-solidity/contracts/token/ERC20/ERC20.sol\":3510:3528   */\n      0xffffffffffffffffffffffffffffffffffffffff\n      and\n      0xffffffffffffffffffffffffffffffffffffffff\n      and\n      dup2\n      mstore\n      0x20\n      add\n      swap1\n      dup2\n      mstore\n      0x20\n      add\n      0x00\n      keccak256\n      sload\n        /* \"openzeppelin-solidity/contracts/token/ERC20/ERC20.sol\":3503:3528   */\n      swap1\n      pop\n        /* \"openzeppelin-solidity/contracts/token/ERC20/ERC20.sol\":3418:3535   */\n      swap2\n      swap1\n      pop\n      jump\t// out\n        /* \"openzeppelin-solidity/contracts/token/ERC20/ERC20.sol\":2413:2498   */\n    tag_50:\n        /* \"openzeppelin-solidity/contracts/token/ERC20/ERC20.sol\":2452:2465   */\n      0x60\n        /* \"openzeppelin-solidity/contracts/token/ERC20/ERC20.sol\":2484:2491   */\n      0x04\n        /* \"openzeppelin-solidity/contracts/token/ERC20/ERC20.sol\":2477:2491   */\n      dup1\n      sload\n      0x01\n      dup2\n      0x01\n      and\n      iszero\n      0x0100\n      mul\n      sub\n      and\n      0x02\n      swap1\n      div\n      dup1\n      0x1f\n      add\n      0x20\n      dup1\n      swap2\n      div\n      mul\n      0x20\n      add\n      mload(0x40)\n      swap1\n      dup2\n      add\n      0x40\n      mstore\n      dup1\n      swap3\n      swap2\n      swap1\n      dup2\n      dup2\n      mstore\n      0x20\n      add\n      dup3\n      dup1\n      sload\n      0x01\n      dup2\n      0x01\n      and\n      iszero\n      0x0100\n      mul\n      sub\n      and\n      0x02\n      swap1\n      div\n      dup1\n      iszero\n      tag_94\n      jumpi\n      dup1\n      0x1f\n      lt\n      tag_95\n      jumpi\n      0x0100\n      dup1\n      dup4\n      sload\n      div\n      mul\n      dup4\n      mstore\n      swap2\n      0x20\n      add\n      swap2\n      jump(tag_94)\n    tag_95:\n      dup3\n      add\n      swap2\n      swap1\n      0x00\n      mstore\n      keccak256(0x00, 0x20)\n      swap1\n    tag_96:\n      dup2\n      sload\n      dup2\n      mstore\n      swap1\n      0x01\n      add\n      swap1\n      0x20\n      add\n      dup1\n      dup4\n      gt\n      tag_96\n      jumpi\n      dup3\n      swap1\n      sub\n      0x1f\n      and\n      dup3\n      add\n      swap2\n    tag_94:\n      pop\n      pop\n      pop\n      pop\n      pop\n      swap1\n      pop\n        /* \"openzeppelin-solidity/contracts/token/ERC20/ERC20.sol\":2413:2498   */\n      swap1\n      jump\t// out\n        /* \"openzeppelin-solidity/contracts/token/ERC20/ERC20.sol\":6295:6561   */\n    tag_57:\n        /* \"openzeppelin-solidity/contracts/token/ERC20/ERC20.sol\":6388:6392   */\n      0x00\n        /* \"openzeppelin-solidity/contracts/token/ERC20/ERC20.sol\":6404:6533   */\n      tag_98\n        /* \"openzeppelin-solidity/contracts/token/ERC20/ERC20.sol\":6413:6425   */\n      tag_99\n        /* \"openzeppelin-solidity/contracts/token/ERC20/ERC20.sol\":6413:6423   */\n      tag_72\n        /* \"openzeppelin-solidity/contracts/token/ERC20/ERC20.sol\":6413:6425   */\n      jump\t// in\n    tag_99:\n        /* \"openzeppelin-solidity/contracts/token/ERC20/ERC20.sol\":6427:6434   */\n      dup5\n        /* \"openzeppelin-solidity/contracts/token/ERC20/ERC20.sol\":6436:6532   */\n      tag_100\n        /* \"openzeppelin-solidity/contracts/token/ERC20/ERC20.sol\":6475:6490   */\n      dup6\n        /* \"openzeppelin-solidity/contracts/token/ERC20/ERC20.sol\":6436:6532   */\n      mload(0x40)\n      dup1\n      0x60\n      add\n      0x40\n      mstore\n      dup1\n      0x25\n      dup2\n      mstore\n      0x20\n      add\n      data_f8b476f7d28209d77d4a4ac1fe36b9f8259aa1bb6bddfa6e89de7e51615cf8a8\n      0x25\n      swap2\n      codecopy\n        /* \"openzeppelin-solidity/contracts/token/ERC20/ERC20.sol\":6436:6447   */\n      0x01\n        /* \"openzeppelin-solidity/contracts/token/ERC20/ERC20.sol\":6436:6461   */\n      0x00\n        /* \"openzeppelin-solidity/contracts/token/ERC20/ERC20.sol\":6448:6460   */\n      tag_101\n        /* \"openzeppelin-solidity/contracts/token/ERC20/ERC20.sol\":6448:6458   */\n      tag_72\n        /* \"openzeppelin-solidity/contracts/token/ERC20/ERC20.sol\":6448:6460   */\n      jump\t// in\n    tag_101:\n        /* \"openzeppelin-solidity/contracts/token/ERC20/ERC20.sol\":6436:6461   */\n      0xffffffffffffffffffffffffffffffffffffffff\n      and\n      0xffffffffffffffffffffffffffffffffffffffff\n      and\n      dup2\n      mstore\n      0x20\n      add\n      swap1\n      dup2\n      mstore\n      0x20\n      add\n      0x00\n      keccak256\n        /* \"openzeppelin-solidity/contracts/token/ERC20/ERC20.sol\":6436:6470   */\n      0x00\n        /* \"openzeppelin-solidity/contracts/token/ERC20/ERC20.sol\":6462:6469   */\n      dup11\n        /* \"openzeppelin-solidity/contracts/token/ERC20/ERC20.sol\":6436:6470   */\n      0xffffffffffffffffffffffffffffffffffffffff\n      and\n      0xffffffffffffffffffffffffffffffffffffffff\n      and\n      dup2\n      mstore\n      0x20\n      add\n      swap1\n      dup2\n      mstore\n      0x20\n      add\n      0x00\n      keccak256\n      sload\n        /* \"openzeppelin-solidity/contracts/token/ERC20/ERC20.sol\":6436:6474   */\n      tag_82\n      swap1\n        /* \"openzeppelin-solidity/contracts/token/ERC20/ERC20.sol\":6436:6532   */\n      swap3\n      swap2\n      swap1\n      0xffffffff\n      and\n      jump\t// in\n    tag_100:\n        /* \"openzeppelin-solidity/contracts/token/ERC20/ERC20.sol\":6404:6412   */\n      tag_73\n        /* \"openzeppelin-solidity/contracts/token/ERC20/ERC20.sol\":6404:6533   */\n      jump\t// in\n    tag_98:\n        /* \"openzeppelin-solidity/contracts/token/ERC20/ERC20.sol\":6550:6554   */\n      0x01\n        /* \"openzeppelin-solidity/contracts/token/ERC20/ERC20.sol\":6543:6554   */\n      swap1\n      pop\n        /* \"openzeppelin-solidity/contracts/token/ERC20/ERC20.sol\":6295:6561   */\n      swap3\n      swap2\n      pop\n      pop\n      jump\t// out\n        /* \"openzeppelin-solidity/contracts/token/ERC20/ERC20.sol\":3738:3910   */\n    tag_60:\n        /* \"openzeppelin-solidity/contracts/token/ERC20/ERC20.sol\":3824:3828   */\n      0x00\n        /* \"openzeppelin-solidity/contracts/token/ERC20/ERC20.sol\":3840:3882   */\n      tag_103\n        /* \"openzeppelin-solidity/contracts/token/ERC20/ERC20.sol\":3850:3862   */\n      tag_104\n        /* \"openzeppelin-solidity/contracts/token/ERC20/ERC20.sol\":3850:3860   */\n      tag_72\n        /* \"openzeppelin-solidity/contracts/token/ERC20/ERC20.sol\":3850:3862   */\n      jump\t// in\n    tag_104:\n        /* \"openzeppelin-solidity/contracts/token/ERC20/ERC20.sol\":3864:3873   */\n      dup5\n        /* \"openzeppelin-solidity/contracts/token/ERC20/ERC20.sol\":3875:3881   */\n      dup5\n        /* \"openzeppelin-solidity/contracts/token/ERC20/ERC20.sol\":3840:3849   */\n      tag_77\n        /* \"openzeppelin-solidity/contracts/token/ERC20/ERC20.sol\":3840:3882   */\n      jump\t// in\n    tag_103:\n        /* \"openzeppelin-solidity/contracts/token/ERC20/ERC20.sol\":3899:3903   */\n      0x01\n        /* \"openzeppelin-solidity/contracts/token/ERC20/ERC20.sol\":3892:3903   */\n      swap1\n      pop\n        /* \"openzeppelin-solidity/contracts/token/ERC20/ERC20.sol\":3738:3910   */\n      swap3\n      swap2\n      pop\n      pop\n      jump\t// out\n        /* \"openzeppelin-solidity/contracts/token/ERC20/ERC20.sol\":3968:4117   */\n    tag_63:\n        /* \"openzeppelin-solidity/contracts/token/ERC20/ERC20.sol\":4057:4064   */\n      0x00\n        /* \"openzeppelin-solidity/contracts/token/ERC20/ERC20.sol\":4083:4094   */\n      0x01\n        /* \"openzeppelin-solidity/contracts/token/ERC20/ERC20.sol\":4083:4101   */\n      0x00\n        /* \"openzeppelin-solidity/contracts/token/ERC20/ERC20.sol\":4095:4100   */\n      dup5\n        /* \"openzeppelin-solidity/contracts/token/ERC20/ERC20.sol\":4083:4101   */\n      0xffffffffffffffffffffffffffffffffffffffff\n      and\n      0xffffffffffffffffffffffffffffffffffffffff\n      and\n      dup2\n      mstore\n      0x20\n      add\n      swap1\n      dup2\n      mstore\n      0x20\n      add\n      0x00\n      keccak256\n        /* \"openzeppelin-solidity/contracts/token/ERC20/ERC20.sol\":4083:4110   */\n      0x00\n        /* \"openzeppelin-solidity/contracts/token/ERC20/ERC20.sol\":4102:4109   */\n      dup4\n        /* \"openzeppelin-solidity/contracts/token/ERC20/ERC20.sol\":4083:4110   */\n      0xffffffffffffffffffffffffffffffffffffffff\n      and\n      0xffffffffffffffffffffffffffffffffffffffff\n      and\n      dup2\n      mstore\n      0x20\n      add\n      swap1\n      dup2\n      mstore\n      0x20\n      add\n      0x00\n      keccak256\n      sload\n        /* \"openzeppelin-solidity/contracts/token/ERC20/ERC20.sol\":4076:4110   */\n      swap1\n      pop\n        /* \"openzeppelin-solidity/contracts/token/ERC20/ERC20.sol\":3968:4117   */\n      swap3\n      swap2\n      pop\n      pop\n      jump\t// out\n        /* \"openzeppelin-solidity/contracts/math/SafeMath.sol\":874:1050   */\n    tag_64:\n        /* \"openzeppelin-solidity/contracts/math/SafeMath.sol\":932:939   */\n      0x00\n        /* \"openzeppelin-solidity/contracts/math/SafeMath.sol\":951:960   */\n      dup1\n        /* \"openzeppelin-solidity/contracts/math/SafeMath.sol\":967:968   */\n      dup3\n        /* \"openzeppelin-solidity/contracts/math/SafeMath.sol\":963:964   */\n      dup5\n        /* \"openzeppelin-solidity/contracts/math/SafeMath.sol\":963:968   */\n      add\n        /* \"openzeppelin-solidity/contracts/math/SafeMath.sol\":951:968   */\n      swap1\n      pop\n        /* \"openzeppelin-solidity/contracts/math/SafeMath.sol\":991:992   */\n      dup4\n        /* \"openzeppelin-solidity/contracts/math/SafeMath.sol\":986:987   */\n      dup2\n        /* \"openzeppelin-solidity/contracts/math/SafeMath.sol\":986:992   */\n      lt\n      iszero\n        /* \"openzeppelin-solidity/contracts/math/SafeMath.sol\":978:1024   */\n      tag_107\n      jumpi\n      mload(0x40)\n      0x08c379a000000000000000000000000000000000000000000000000000000000\n      dup2\n      mstore\n      0x04\n      add\n      dup1\n      dup1\n      0x20\n      add\n      dup3\n      dup2\n      sub\n      dup3\n      mstore\n      0x1b\n      dup2\n      mstore\n      0x20\n      add\n      dup1\n      0x536166654d6174683a206164646974696f6e206f766572666c6f770000000000\n      dup2\n      mstore\n      pop\n      0x20\n      add\n      swap2\n      pop\n      pop\n      mload(0x40)\n      dup1\n      swap2\n      sub\n      swap1\n      revert\n    tag_107:\n        /* \"openzeppelin-solidity/contracts/math/SafeMath.sol\":1042:1043   */\n      dup1\n        /* \"openzeppelin-solidity/contracts/math/SafeMath.sol\":1035:1043   */\n      swap2\n      pop\n      pop\n        /* \"openzeppelin-solidity/contracts/math/SafeMath.sol\":874:1050   */\n      swap3\n      swap2\n      pop\n      pop\n      jump\t// out\n        /* \"openzeppelin-solidity/contracts/GSN/Context.sol\":590:694   */\n    tag_72:\n        /* \"openzeppelin-solidity/contracts/GSN/Context.sol\":643:658   */\n      0x00\n        /* \"openzeppelin-solidity/contracts/GSN/Context.sol\":677:687   */\n      caller\n        /* \"openzeppelin-solidity/contracts/GSN/Context.sol\":670:687   */\n      swap1\n      pop\n        /* \"openzeppelin-solidity/contracts/GSN/Context.sol\":590:694   */\n      swap1\n      jump\t// out\n        /* \"openzeppelin-solidity/contracts/token/ERC20/ERC20.sol\":9359:9699   */\n    tag_73:\n        /* \"openzeppelin-solidity/contracts/token/ERC20/ERC20.sol\":9477:9478   */\n      0x00\n        /* \"openzeppelin-solidity/contracts/token/ERC20/ERC20.sol\":9460:9479   */\n      0xffffffffffffffffffffffffffffffffffffffff\n      and\n        /* \"openzeppelin-solidity/contracts/token/ERC20/ERC20.sol\":9460:9465   */\n      dup4\n        /* \"openzeppelin-solidity/contracts/token/ERC20/ERC20.sol\":9460:9479   */\n      0xffffffffffffffffffffffffffffffffffffffff\n      and\n      eq\n      iszero\n        /* \"openzeppelin-solidity/contracts/token/ERC20/ERC20.sol\":9452:9520   */\n      tag_110\n      jumpi\n      mload(0x40)\n      0x08c379a000000000000000000000000000000000000000000000000000000000\n      dup2\n      mstore\n      0x04\n      add\n      dup1\n      dup1\n      0x20\n      add\n      dup3\n      dup2\n      sub\n      dup3\n      mstore\n      0x24\n      dup2\n      mstore\n      0x20\n      add\n      dup1\n      data_c953f4879035ed60e766b34720f656aab5c697b141d924c283124ecedb91c208\n      0x24\n      swap2\n      codecopy\n      0x40\n      add\n      swap2\n      pop\n      pop\n      mload(0x40)\n      dup1\n      swap2\n      sub\n      swap1\n      revert\n    tag_110:\n        /* \"openzeppelin-solidity/contracts/token/ERC20/ERC20.sol\":9557:9558   */\n      0x00\n        /* \"openzeppelin-solidity/contracts/token/ERC20/ERC20.sol\":9538:9559   */\n      0xffffffffffffffffffffffffffffffffffffffff\n      and\n        /* \"openzeppelin-solidity/contracts/token/ERC20/ERC20.sol\":9538:9545   */\n      dup3\n        /* \"openzeppelin-solidity/contracts/token/ERC20/ERC20.sol\":9538:9559   */\n      0xffffffffffffffffffffffffffffffffffffffff\n      and\n      eq\n      iszero\n        /* \"openzeppelin-solidity/contracts/token/ERC20/ERC20.sol\":9530:9598   */\n      tag_111\n      jumpi\n      mload(0x40)\n      0x08c379a000000000000000000000000000000000000000000000000000000000\n      dup2\n      mstore\n      0x04\n      add\n      dup1\n      dup1\n      0x20\n      add\n      dup3\n      dup2\n      sub\n      dup3\n      mstore\n      0x22\n      dup2\n      mstore\n      0x20\n      add\n      dup1\n      data_24883cc5fe64ace9d0df1893501ecb93c77180f0ff69cca79affb3c316dc8029\n      0x22\n      swap2\n      codecopy\n      0x40\n      add\n      swap2\n      pop\n      pop\n      mload(0x40)\n      dup1\n      swap2\n      sub\n      swap1\n      revert\n    tag_111:\n        /* \"openzeppelin-solidity/contracts/token/ERC20/ERC20.sol\":9639:9645   */\n      dup1\n        /* \"openzeppelin-solidity/contracts/token/ERC20/ERC20.sol\":9609:9620   */\n      0x01\n        /* \"openzeppelin-solidity/contracts/token/ERC20/ERC20.sol\":9609:9627   */\n      0x00\n        /* \"openzeppelin-solidity/contracts/token/ERC20/ERC20.sol\":9621:9626   */\n      dup6\n        /* \"openzeppelin-solidity/contracts/token/ERC20/ERC20.sol\":9609:9627   */\n      0xffffffffffffffffffffffffffffffffffffffff\n      and\n      0xffffffffffffffffffffffffffffffffffffffff\n      and\n      dup2\n      mstore\n      0x20\n      add\n      swap1\n      dup2\n      mstore\n      0x20\n      add\n      0x00\n      keccak256\n        /* \"openzeppelin-solidity/contracts/token/ERC20/ERC20.sol\":9609:9636   */\n      0x00\n        /* \"openzeppelin-solidity/contracts/token/ERC20/ERC20.sol\":9628:9635   */\n      dup5\n        /* \"openzeppelin-solidity/contracts/token/ERC20/ERC20.sol\":9609:9636   */\n      0xffffffffffffffffffffffffffffffffffffffff\n      and\n      0xffffffffffffffffffffffffffffffffffffffff\n      and\n      dup2\n      mstore\n      0x20\n      add\n      swap1\n      dup2\n      mstore\n      0x20\n      add\n      0x00\n      keccak256\n        /* \"openzeppelin-solidity/contracts/token/ERC20/ERC20.sol\":9609:9645   */\n      dup2\n      swap1\n      sstore\n      pop\n        /* \"openzeppelin-solidity/contracts/token/ERC20/ERC20.sol\":9676:9683   */\n      dup2\n        /* \"openzeppelin-solidity/contracts/token/ERC20/ERC20.sol\":9660:9692   */\n      0xffffffffffffffffffffffffffffffffffffffff\n      and\n        /* \"openzeppelin-solidity/contracts/token/ERC20/ERC20.sol\":9669:9674   */\n      dup4\n        /* \"openzeppelin-solidity/contracts/token/ERC20/ERC20.sol\":9660:9692   */\n      0xffffffffffffffffffffffffffffffffffffffff\n      and\n      0x8c5be1e5ebec7d5bd14f71427d1e84f3dd0314c0f7b2291e5b200ac8c7c3b925\n        /* \"openzeppelin-solidity/contracts/token/ERC20/ERC20.sol\":9685:9691   */\n      dup4\n        /* \"openzeppelin-solidity/contracts/token/ERC20/ERC20.sol\":9660:9692   */\n      mload(0x40)\n      dup1\n      dup3\n      dup2\n      mstore\n      0x20\n      add\n      swap2\n      pop\n      pop\n      mload(0x40)\n      dup1\n      swap2\n      sub\n      swap1\n      log3\n        /* \"openzeppelin-solidity/contracts/token/ERC20/ERC20.sol\":9359:9699   */\n      pop\n      pop\n      pop\n      jump\t// out\n        /* \"openzeppelin-solidity/contracts/token/ERC20/ERC20.sol\":7035:7565   */\n    tag_77:\n        /* \"openzeppelin-solidity/contracts/token/ERC20/ERC20.sol\":7158:7159   */\n      0x00\n        /* \"openzeppelin-solidity/contracts/token/ERC20/ERC20.sol\":7140:7160   */\n      0xffffffffffffffffffffffffffffffffffffffff\n      and\n        /* \"openzeppelin-solidity/contracts/token/ERC20/ERC20.sol\":7140:7146   */\n      dup4\n        /* \"openzeppelin-solidity/contracts/token/ERC20/ERC20.sol\":7140:7160   */\n      0xffffffffffffffffffffffffffffffffffffffff\n      and\n      eq\n      iszero\n        /* \"openzeppelin-solidity/contracts/token/ERC20/ERC20.sol\":7132:7202   */\n      tag_113\n      jumpi\n      mload(0x40)\n      0x08c379a000000000000000000000000000000000000000000000000000000000\n      dup2\n      mstore\n      0x04\n      add\n      dup1\n      dup1\n      0x20\n      add\n      dup3\n      dup2\n      sub\n      dup3\n      mstore\n      0x25\n      dup2\n      mstore\n      0x20\n      add\n      dup1\n      data_baecc556b46f4ed0f2b4cb599d60785ac8563dd2dc0a5bf12edea1c39e5e1fea\n      0x25\n      swap2\n      codecopy\n      0x40\n      add\n      swap2\n      pop\n      pop\n      mload(0x40)\n      dup1\n      swap2\n      sub\n      swap1\n      revert\n    tag_113:\n        /* \"openzeppelin-solidity/contracts/token/ERC20/ERC20.sol\":7241:7242   */\n      0x00\n        /* \"openzeppelin-solidity/contracts/token/ERC20/ERC20.sol\":7220:7243   */\n      0xffffffffffffffffffffffffffffffffffffffff\n      and\n        /* \"openzeppelin-solidity/contracts/token/ERC20/ERC20.sol\":7220:7229   */\n      dup3\n        /* \"openzeppelin-solidity/contracts/token/ERC20/ERC20.sol\":7220:7243   */\n      0xffffffffffffffffffffffffffffffffffffffff\n      and\n      eq\n      iszero\n        /* \"openzeppelin-solidity/contracts/token/ERC20/ERC20.sol\":7212:7283   */\n      tag_114\n      jumpi\n      mload(0x40)\n      0x08c379a000000000000000000000000000000000000000000000000000000000\n      dup2\n      mstore\n      0x04\n      add\n      dup1\n      dup1\n      0x20\n      add\n      dup3\n      dup2\n      sub\n      dup3\n      mstore\n      0x23\n      dup2\n      mstore\n      0x20\n      add\n      dup1\n      data_0557e210f7a69a685100a7e4e3d0a7024c546085cee28910fd17d0b081d9516f\n      0x23\n      swap2\n      codecopy\n      0x40\n      add\n      swap2\n      pop\n      pop\n      mload(0x40)\n      dup1\n      swap2\n      sub\n      swap1\n      revert\n    tag_114:\n        /* \"openzeppelin-solidity/contracts/token/ERC20/ERC20.sol\":7294:7341   */\n      tag_115\n        /* \"openzeppelin-solidity/contracts/token/ERC20/ERC20.sol\":7315:7321   */\n      dup4\n        /* \"openzeppelin-solidity/contracts/token/ERC20/ERC20.sol\":7323:7332   */\n      dup4\n        /* \"openzeppelin-solidity/contracts/token/ERC20/ERC20.sol\":7334:7340   */\n      dup4\n        /* \"openzeppelin-solidity/contracts/token/ERC20/ERC20.sol\":7294:7314   */\n      tag_116\n        /* \"openzeppelin-solidity/contracts/token/ERC20/ERC20.sol\":7294:7341   */\n      jump\t// in\n    tag_115:\n        /* \"openzeppelin-solidity/contracts/token/ERC20/ERC20.sol\":7372:7443   */\n      tag_117\n        /* \"openzeppelin-solidity/contracts/token/ERC20/ERC20.sol\":7394:7400   */\n      dup2\n        /* \"openzeppelin-solidity/contracts/token/ERC20/ERC20.sol\":7372:7443   */\n      mload(0x40)\n      dup1\n      0x60\n      add\n      0x40\n      mstore\n      dup1\n      0x26\n      dup2\n      mstore\n      0x20\n      add\n      data_4107e8a8b9e94bf8ff83080ddec1c0bffe897ebc2241b89d44f66b3d274088b6\n      0x26\n      swap2\n      codecopy\n        /* \"openzeppelin-solidity/contracts/token/ERC20/ERC20.sol\":7372:7381   */\n      0x00\n        /* \"openzeppelin-solidity/contracts/token/ERC20/ERC20.sol\":7372:7389   */\n      dup1\n        /* \"openzeppelin-solidity/contracts/token/ERC20/ERC20.sol\":7382:7388   */\n      dup8\n        /* \"openzeppelin-solidity/contracts/token/ERC20/ERC20.sol\":7372:7389   */\n      0xffffffffffffffffffffffffffffffffffffffff\n      and\n      0xffffffffffffffffffffffffffffffffffffffff\n      and\n      dup2\n      mstore\n      0x20\n      add\n      swap1\n      dup2\n      mstore\n      0x20\n      add\n      0x00\n      keccak256\n      sload\n        /* \"openzeppelin-solidity/contracts/token/ERC20/ERC20.sol\":7372:7393   */\n      tag_82\n      swap1\n        /* \"openzeppelin-solidity/contracts/token/ERC20/ERC20.sol\":7372:7443   */\n      swap3\n      swap2\n      swap1\n      0xffffffff\n      and\n      jump\t// in\n    tag_117:\n        /* \"openzeppelin-solidity/contracts/token/ERC20/ERC20.sol\":7352:7361   */\n      0x00\n        /* \"openzeppelin-solidity/contracts/token/ERC20/ERC20.sol\":7352:7369   */\n      dup1\n        /* \"openzeppelin-solidity/contracts/token/ERC20/ERC20.sol\":7362:7368   */\n      dup6\n        /* \"openzeppelin-solidity/contracts/token/ERC20/ERC20.sol\":7352:7369   */\n      0xffffffffffffffffffffffffffffffffffffffff\n      and\n      0xffffffffffffffffffffffffffffffffffffffff\n      and\n      dup2\n      mstore\n      0x20\n      add\n      swap1\n      dup2\n      mstore\n      0x20\n      add\n      0x00\n      keccak256\n        /* \"openzeppelin-solidity/contracts/token/ERC20/ERC20.sol\":7352:7443   */\n      dup2\n      swap1\n      sstore\n      pop\n        /* \"openzeppelin-solidity/contracts/token/ERC20/ERC20.sol\":7476:7508   */\n      tag_118\n        /* \"openzeppelin-solidity/contracts/token/ERC20/ERC20.sol\":7501:7507   */\n      dup2\n        /* \"openzeppelin-solidity/contracts/token/ERC20/ERC20.sol\":7476:7485   */\n      0x00\n        /* \"openzeppelin-solidity/contracts/token/ERC20/ERC20.sol\":7476:7496   */\n      dup1\n        /* \"openzeppelin-solidity/contracts/token/ERC20/ERC20.sol\":7486:7495   */\n      dup6\n        /* \"openzeppelin-solidity/contracts/token/ERC20/ERC20.sol\":7476:7496   */\n      0xffffffffffffffffffffffffffffffffffffffff\n      and\n      0xffffffffffffffffffffffffffffffffffffffff\n      and\n      dup2\n      mstore\n      0x20\n      add\n      swap1\n      dup2\n      mstore\n      0x20\n      add\n      0x00\n      keccak256\n      sload\n        /* \"openzeppelin-solidity/contracts/token/ERC20/ERC20.sol\":7476:7500   */\n      tag_64\n      swap1\n        /* \"openzeppelin-solidity/contracts/token/ERC20/ERC20.sol\":7476:7508   */\n      swap2\n      swap1\n      0xffffffff\n      and\n      jump\t// in\n    tag_118:\n        /* \"openzeppelin-solidity/contracts/token/ERC20/ERC20.sol\":7453:7462   */\n      0x00\n        /* \"openzeppelin-solidity/contracts/token/ERC20/ERC20.sol\":7453:7473   */\n      dup1\n        /* \"openzeppelin-solidity/contracts/token/ERC20/ERC20.sol\":7463:7472   */\n      dup5\n        /* \"openzeppelin-solidity/contracts/token/ERC20/ERC20.sol\":7453:7473   */\n      0xffffffffffffffffffffffffffffffffffffffff\n      and\n      0xffffffffffffffffffffffffffffffffffffffff\n      and\n      dup2\n      mstore\n      0x20\n      add\n      swap1\n      dup2\n      mstore\n      0x20\n      add\n      0x00\n      keccak256\n        /* \"openzeppelin-solidity/contracts/token/ERC20/ERC20.sol\":7453:7508   */\n      dup2\n      swap1\n      sstore\n      pop\n        /* \"openzeppelin-solidity/contracts/token/ERC20/ERC20.sol\":7540:7549   */\n      dup2\n        /* \"openzeppelin-solidity/contracts/token/ERC20/ERC20.sol\":7523:7558   */\n      0xffffffffffffffffffffffffffffffffffffffff\n      and\n        /* \"openzeppelin-solidity/contracts/token/ERC20/ERC20.sol\":7532:7538   */\n      dup4\n        /* \"openzeppelin-solidity/contracts/token/ERC20/ERC20.sol\":7523:7558   */\n      0xffffffffffffffffffffffffffffffffffffffff\n      and\n      0xddf252ad1be2c89b69c2b068fc378daa952ba7f163c4a11628f55a4df523b3ef\n        /* \"openzeppelin-solidity/contracts/token/ERC20/ERC20.sol\":7551:7557   */\n      dup4\n        /* \"openzeppelin-solidity/contracts/token/ERC20/ERC20.sol\":7523:7558   */\n      mload(0x40)\n      dup1\n      dup3\n      dup2\n      mstore\n      0x20\n      add\n      swap2\n      pop\n      pop\n      mload(0x40)\n      dup1\n      swap2\n      sub\n      swap1\n      log3\n        /* \"openzeppelin-solidity/contracts/token/ERC20/ERC20.sol\":7035:7565   */\n      pop\n      pop\n      pop\n      jump\t// out\n        /* \"openzeppelin-solidity/contracts/math/SafeMath.sol\":1746:1933   */\n    tag_82:\n        /* \"openzeppelin-solidity/contracts/math/SafeMath.sol\":1832:1839   */\n      0x00\n        /* \"openzeppelin-solidity/contracts/math/SafeMath.sol\":1864:1865   */\n      dup4\n        /* \"openzeppelin-solidity/contracts/math/SafeMath.sol\":1859:1860   */\n      dup4\n        /* \"openzeppelin-solidity/contracts/math/SafeMath.sol\":1859:1865   */\n      gt\n      iszero\n        /* \"openzeppelin-solidity/contracts/math/SafeMath.sol\":1867:1879   */\n      dup3\n        /* \"openzeppelin-solidity/contracts/math/SafeMath.sol\":1851:1880   */\n      swap1\n      tag_120\n      jumpi\n      mload(0x40)\n      0x08c379a000000000000000000000000000000000000000000000000000000000\n      dup2\n      mstore\n      0x04\n      add\n      dup1\n      dup1\n      0x20\n      add\n      dup3\n      dup2\n      sub\n      dup3\n      mstore\n      dup4\n      dup2\n      dup2\n      mload\n      dup2\n      mstore\n      0x20\n      add\n      swap2\n      pop\n      dup1\n      mload\n      swap1\n      0x20\n      add\n      swap1\n      dup1\n      dup4\n      dup4\n      0x00\n    tag_121:\n      dup4\n      dup2\n      lt\n      iszero\n      tag_123\n      jumpi\n      dup1\n      dup3\n      add\n      mload\n      dup2\n      dup5\n      add\n      mstore\n      0x20\n      dup2\n      add\n      swap1\n      pop\n      jump(tag_121)\n    tag_123:\n      pop\n      pop\n      pop\n      pop\n      swap1\n      pop\n      swap1\n      dup2\n      add\n      swap1\n      0x1f\n      and\n      dup1\n      iszero\n      tag_124\n      jumpi\n      dup1\n      dup3\n      sub\n      dup1\n      mload\n      0x01\n      dup4\n      0x20\n      sub\n      0x0100\n      exp\n      sub\n      not\n      and\n      dup2\n      mstore\n      0x20\n      add\n      swap2\n      pop\n    tag_124:\n      pop\n      swap3\n      pop\n      pop\n      pop\n      mload(0x40)\n      dup1\n      swap2\n      sub\n      swap1\n      revert\n    tag_120:\n      pop\n        /* \"openzeppelin-solidity/contracts/math/SafeMath.sol\":1890:1899   */\n      0x00\n        /* \"openzeppelin-solidity/contracts/math/SafeMath.sol\":1906:1907   */\n      dup4\n        /* \"openzeppelin-solidity/contracts/math/SafeMath.sol\":1902:1903   */\n      dup6\n        /* \"openzeppelin-solidity/contracts/math/SafeMath.sol\":1902:1907   */\n      sub\n        /* \"openzeppelin-solidity/contracts/math/SafeMath.sol\":1890:1907   */\n      swap1\n      pop\n        /* \"openzeppelin-solidity/contracts/math/SafeMath.sol\":1925:1926   */\n      dup1\n        /* \"openzeppelin-solidity/contracts/math/SafeMath.sol\":1918:1926   */\n      swap2\n      pop\n      pop\n        /* \"openzeppelin-solidity/contracts/math/SafeMath.sol\":1746:1933   */\n      swap4\n      swap3\n      pop\n      pop\n      pop\n      jump\t// out\n        /* \"openzeppelin-solidity/contracts/token/ERC20/ERC20.sol\":7835:8205   */\n    tag_91:\n        /* \"openzeppelin-solidity/contracts/token/ERC20/ERC20.sol\":7937:7938   */\n      0x00\n        /* \"openzeppelin-solidity/contracts/token/ERC20/ERC20.sol\":7918:7939   */\n      0xffffffffffffffffffffffffffffffffffffffff\n      and\n        /* \"openzeppelin-solidity/contracts/token/ERC20/ERC20.sol\":7918:7925   */\n      dup3\n        /* \"openzeppelin-solidity/contracts/token/ERC20/ERC20.sol\":7918:7939   */\n      0xffffffffffffffffffffffffffffffffffffffff\n      and\n      eq\n      iszero\n        /* \"openzeppelin-solidity/contracts/token/ERC20/ERC20.sol\":7910:7975   */\n      tag_126\n      jumpi\n      mload(0x40)\n      0x08c379a000000000000000000000000000000000000000000000000000000000\n      dup2\n      mstore\n      0x04\n      add\n      dup1\n      dup1\n      0x20\n      add\n      dup3\n      dup2\n      sub\n      dup3\n      mstore\n      0x1f\n      dup2\n      mstore\n      0x20\n      add\n      dup1\n      0x45524332303a206d696e7420746f20746865207a65726f206164647265737300\n      dup2\n      mstore\n      pop\n      0x20\n      add\n      swap2\n      pop\n      pop\n      mload(0x40)\n      dup1\n      swap2\n      sub\n      swap1\n      revert\n    tag_126:\n        /* \"openzeppelin-solidity/contracts/token/ERC20/ERC20.sol\":7986:8035   */\n      tag_127\n        /* \"openzeppelin-solidity/contracts/token/ERC20/ERC20.sol\":8015:8016   */\n      0x00\n        /* \"openzeppelin-solidity/contracts/token/ERC20/ERC20.sol\":8019:8026   */\n      dup4\n        /* \"openzeppelin-solidity/contracts/token/ERC20/ERC20.sol\":8028:8034   */\n      dup4\n        /* \"openzeppelin-solidity/contracts/token/ERC20/ERC20.sol\":7986:8006   */\n      tag_116\n        /* \"openzeppelin-solidity/contracts/token/ERC20/ERC20.sol\":7986:8035   */\n      jump\t// in\n    tag_127:\n        /* \"openzeppelin-solidity/contracts/token/ERC20/ERC20.sol\":8061:8085   */\n      tag_128\n        /* \"openzeppelin-solidity/contracts/token/ERC20/ERC20.sol\":8078:8084   */\n      dup2\n        /* \"openzeppelin-solidity/contracts/token/ERC20/ERC20.sol\":8061:8073   */\n      sload(0x02)\n        /* \"openzeppelin-solidity/contracts/token/ERC20/ERC20.sol\":8061:8077   */\n      tag_64\n      swap1\n        /* \"openzeppelin-solidity/contracts/token/ERC20/ERC20.sol\":8061:8085   */\n      swap2\n      swap1\n      0xffffffff\n      and\n      jump\t// in\n    tag_128:\n        /* \"openzeppelin-solidity/contracts/token/ERC20/ERC20.sol\":8046:8058   */\n      0x02\n        /* \"openzeppelin-solidity/contracts/token/ERC20/ERC20.sol\":8046:8085   */\n      dup2\n      swap1\n      sstore\n      pop\n        /* \"openzeppelin-solidity/contracts/token/ERC20/ERC20.sol\":8116:8146   */\n      tag_129\n        /* \"openzeppelin-solidity/contracts/token/ERC20/ERC20.sol\":8139:8145   */\n      dup2\n        /* \"openzeppelin-solidity/contracts/token/ERC20/ERC20.sol\":8116:8125   */\n      0x00\n        /* \"openzeppelin-solidity/contracts/token/ERC20/ERC20.sol\":8116:8134   */\n      dup1\n        /* \"openzeppelin-solidity/contracts/token/ERC20/ERC20.sol\":8126:8133   */\n      dup6\n        /* \"openzeppelin-solidity/contracts/token/ERC20/ERC20.sol\":8116:8134   */\n      0xffffffffffffffffffffffffffffffffffffffff\n      and\n      0xffffffffffffffffffffffffffffffffffffffff\n      and\n      dup2\n      mstore\n      0x20\n      add\n      swap1\n      dup2\n      mstore\n      0x20\n      add\n      0x00\n      keccak256\n      sload\n        /* \"openzeppelin-solidity/contracts/token/ERC20/ERC20.sol\":8116:8138   */\n      tag_64\n      swap1\n        /* \"openzeppelin-solidity/contracts/token/ERC20/ERC20.sol\":8116:8146   */\n      swap2\n      swap1\n      0xffffffff\n      and\n      jump\t// in\n    tag_129:\n        /* \"openzeppelin-solidity/contracts/token/ERC20/ERC20.sol\":8095:8104   */\n      0x00\n        /* \"openzeppelin-solidity/contracts/token/ERC20/ERC20.sol\":8095:8113   */\n      dup1\n        /* \"openzeppelin-solidity/contracts/token/ERC20/ERC20.sol\":8105:8112   */\n      dup5\n        /* \"openzeppelin-solidity/contracts/token/ERC20/ERC20.sol\":8095:8113   */\n      0xffffffffffffffffffffffffffffffffffffffff\n      and\n      0xffffffffffffffffffffffffffffffffffffffff\n      and\n      dup2\n      mstore\n      0x20\n      add\n      swap1\n      dup2\n      mstore\n      0x20\n      add\n      0x00\n      keccak256\n        /* \"openzeppelin-solidity/contracts/token/ERC20/ERC20.sol\":8095:8146   */\n      dup2\n      swap1\n      sstore\n      pop\n        /* \"openzeppelin-solidity/contracts/token/ERC20/ERC20.sol\":8182:8189   */\n      dup2\n        /* \"openzeppelin-solidity/contracts/token/ERC20/ERC20.sol\":8161:8198   */\n      0xffffffffffffffffffffffffffffffffffffffff\n      and\n        /* \"openzeppelin-solidity/contracts/token/ERC20/ERC20.sol\":8178:8179   */\n      0x00\n        /* \"openzeppelin-solidity/contracts/token/ERC20/ERC20.sol\":8161:8198   */\n      0xffffffffffffffffffffffffffffffffffffffff\n      and\n      0xddf252ad1be2c89b69c2b068fc378daa952ba7f163c4a11628f55a4df523b3ef\n        /* \"openzeppelin-solidity/contracts/token/ERC20/ERC20.sol\":8191:8197   */\n      dup4\n        /* \"openzeppelin-solidity/contracts/token/ERC20/ERC20.sol\":8161:8198   */\n      mload(0x40)\n      dup1\n      dup3\n      dup2\n      mstore\n      0x20\n      add\n      swap2\n      pop\n      pop\n      mload(0x40)\n      dup1\n      swap2\n      sub\n      swap1\n      log3\n        /* \"openzeppelin-solidity/contracts/token/ERC20/ERC20.sol\":7835:8205   */\n      pop\n      pop\n      jump\t// out\n        /* \"openzeppelin-solidity/contracts/token/ERC20/ERC20.sol\":10697:10789   */\n    tag_116:\n      pop\n      pop\n      pop\n      jump\t// out\n    stop\n    data_0557e210f7a69a685100a7e4e3d0a7024c546085cee28910fd17d0b081d9516f 45524332303a207472616e7366657220746f20746865207a65726f2061646472657373\n    data_24883cc5fe64ace9d0df1893501ecb93c77180f0ff69cca79affb3c316dc8029 45524332303a20617070726f766520746f20746865207a65726f2061646472657373\n    data_4107e8a8b9e94bf8ff83080ddec1c0bffe897ebc2241b89d44f66b3d274088b6 45524332303a207472616e7366657220616d6f756e7420657863656564732062616c616e6365\n    data_974d1b4421da69cc60b481194f0dad36a5bb4e23da810da7a7fb30cdba178330 45524332303a207472616e7366657220616d6f756e74206578636565647320616c6c6f77616e6365\n    data_baecc556b46f4ed0f2b4cb599d60785ac8563dd2dc0a5bf12edea1c39e5e1fea 45524332303a207472616e736665722066726f6d20746865207a65726f2061646472657373\n    data_c953f4879035ed60e766b34720f656aab5c697b141d924c283124ecedb91c208 45524332303a20617070726f76652066726f6d20746865207a65726f2061646472657373\n    data_f8b476f7d28209d77d4a4ac1fe36b9f8259aa1bb6bddfa6e89de7e51615cf8a8 45524332303a2064656372656173656420616c6c6f77616e63652062656c6f77207a65726f\n\n    auxdata: 0xa2646970667358221220aae12524fbb199157d27b7cf49b0b8156b77125ed9fad68e32fca643eee160c664736f6c634300060b0033\n}\n","bytecode":{"linkReferences":{},"object":"60806040523480156200001157600080fd5b506040518060400160405280600d81526020017f536368656c6c696e67436f696e000000000000000000000000000000000000008152506040518060400160405280600381526020017f53434800000000000000000000000000000000000000000000000000000000008152508160039080519060200190620000969291906200035f565b508060049080519060200190620000af9291906200035f565b506012600560006101000a81548160ff021916908360ff1602179055505050620000ed33601260ff16600a0a6302faf08002620000f360201b60201c565b6200040e565b600073ffffffffffffffffffffffffffffffffffffffff168273ffffffffffffffffffffffffffffffffffffffff16141562000197576040517f08c379a000000000000000000000000000000000000000000000000000000000815260040180806020018281038252601f8152602001807f45524332303a206d696e7420746f20746865207a65726f20616464726573730081525060200191505060405180910390fd5b620001ab60008383620002d160201b60201c565b620001c781600254620002d660201b62000ac21790919060201c565b60028190555062000225816000808573ffffffffffffffffffffffffffffffffffffffff1673ffffffffffffffffffffffffffffffffffffffff16815260200190815260200160002054620002d660201b62000ac21790919060201c565b6000808473ffffffffffffffffffffffffffffffffffffffff1673ffffffffffffffffffffffffffffffffffffffff168152602001908152602001600020819055508173ffffffffffffffffffffffffffffffffffffffff16600073ffffffffffffffffffffffffffffffffffffffff167fddf252ad1be2c89b69c2b068fc378daa952ba7f163c4a11628f55a4df523b3ef836040518082815260200191505060405180910390a35050565b505050565b60008082840190508381101562000355576040517f08c379a000000000000000000000000000000000000000000000000000000000815260040180806020018281038252601b8152602001807f536166654d6174683a206164646974696f6e206f766572666c6f77000000000081525060200191505060405180910390fd5b8091505092915050565b828054600181600116156101000203166002900490600052602060002090601f016020900481019282601f10620003a257805160ff1916838001178555620003d3565b82800160010185558215620003d3579182015b82811115620003d2578251825591602001919060010190620003b5565b5b509050620003e29190620003e6565b5090565b6200040b91905b8082111562000407576000816000905550600101620003ed565b5090565b90565b6113cd806200041e6000396000f3fe608060405234801561001057600080fd5b50600436106100ea5760003560e01c8063395093511161008c57806395d89b411161006657806395d89b4114610406578063a457c2d714610489578063a9059cbb146104ef578063dd62ed3e14610555576100ea565b806339509351146102e257806340c10f191461034857806370a08231146103ae576100ea565b806323b872dd116100c857806323b872dd146101f65780632e0f26251461027c5780632ff2e9dc146102a0578063313ce567146102be576100ea565b806306fdde03146100ef578063095ea7b31461017257806318160ddd146101d8575b600080fd5b6100f76105cd565b6040518080602001828103825283818151815260200191508051906020019080838360005b8381101561013757808201518184015260208101905061011c565b50505050905090810190601f1680156101645780820380516001836020036101000a031916815260200191505b509250505060405180910390f35b6101be6004803603604081101561018857600080fd5b81019080803573ffffffffffffffffffffffffffffffffffffffff1690602001909291908035906020019092919050505061066f565b604051808215151515815260200191505060405180910390f35b6101e061068d565b6040518082815260200191505060405180910390f35b6102626004803603606081101561020c57600080fd5b81019080803573ffffffffffffffffffffffffffffffffffffffff169060200190929190803573ffffffffffffffffffffffffffffffffffffffff16906020019092919080359060200190929190505050610697565b604051808215151515815260200191505060405180910390f35b610284610770565b604051808260ff1660ff16815260200191505060405180910390f35b6102a8610775565b6040518082815260200191505060405180910390f35b6102c6610786565b604051808260ff1660ff16815260200191505060405180910390f35b61032e600480360360408110156102f857600080fd5b81019080803573ffffffffffffffffffffffffffffffffffffffff1690602001909291908035906020019092919050505061079d565b604051808215151515815260200191505060405180910390f35b6103946004803603604081101561035e57600080fd5b81019080803573ffffffffffffffffffffffffffffffffffffffff16906020019092919080359060200190929190505050610850565b604051808215151515815260200191505060405180910390f35b6103f0600480360360208110156103c457600080fd5b81019080803573ffffffffffffffffffffffffffffffffffffffff169060200190929190505050610866565b6040518082815260200191505060405180910390f35b61040e6108ae565b6040518080602001828103825283818151815260200191508051906020019080838360005b8381101561044e578082015181840152602081019050610433565b50505050905090810190601f16801561047b5780820380516001836020036101000a031916815260200191505b509250505060405180910390f35b6104d56004803603604081101561049f57600080fd5b81019080803573ffffffffffffffffffffffffffffffffffffffff16906020019092919080359060200190929190505050610950565b604051808215151515815260200191505060405180910390f35b61053b6004803603604081101561050557600080fd5b81019080803573ffffffffffffffffffffffffffffffffffffffff16906020019092919080359060200190929190505050610a1d565b604051808215151515815260200191505060405180910390f35b6105b76004803603604081101561056b57600080fd5b81019080803573ffffffffffffffffffffffffffffffffffffffff169060200190929190803573ffffffffffffffffffffffffffffffffffffffff169060200190929190505050610a3b565b6040518082815260200191505060405180910390f35b606060038054600181600116156101000203166002900480601f0160208091040260200160405190810160405280929190818152602001828054600181600116156101000203166002900480156106655780601f1061063a57610100808354040283529160200191610665565b820191906000526020600020905b81548152906001019060200180831161064857829003601f168201915b5050505050905090565b600061068361067c610b4a565b8484610b52565b6001905092915050565b6000600254905090565b60006106a4848484610d49565b610765846106b0610b4a565b6107608560405180606001604052806028815260200161130260289139600160008b73ffffffffffffffffffffffffffffffffffffffff1673ffffffffffffffffffffffffffffffffffffffff1681526020019081526020016000206000610716610b4a565b73ffffffffffffffffffffffffffffffffffffffff1673ffffffffffffffffffffffffffffffffffffffff1681526020019081526020016000205461100a9092919063ffffffff16565b610b52565b600190509392505050565b601281565b601260ff16600a0a6302faf0800281565b6000600560009054906101000a900460ff16905090565b60006108466107aa610b4a565b8461084185600160006107bb610b4a565b73ffffffffffffffffffffffffffffffffffffffff1673ffffffffffffffffffffffffffffffffffffffff16815260200190815260200160002060008973ffffffffffffffffffffffffffffffffffffffff1673ffffffffffffffffffffffffffffffffffffffff16815260200190815260200160002054610ac290919063ffffffff16565b610b52565b6001905092915050565b600061085c83836110ca565b6001905092915050565b60008060008373ffffffffffffffffffffffffffffffffffffffff1673ffffffffffffffffffffffffffffffffffffffff168152602001908152602001600020549050919050565b606060048054600181600116156101000203166002900480601f0160208091040260200160405190810160405280929190818152602001828054600181600116156101000203166002900480156109465780601f1061091b57610100808354040283529160200191610946565b820191906000526020600020905b81548152906001019060200180831161092957829003601f168201915b5050505050905090565b6000610a1361095d610b4a565b84610a0e856040518060600160405280602581526020016113736025913960016000610987610b4a565b73ffffffffffffffffffffffffffffffffffffffff1673ffffffffffffffffffffffffffffffffffffffff16815260200190815260200160002060008a73ffffffffffffffffffffffffffffffffffffffff1673ffffffffffffffffffffffffffffffffffffffff1681526020019081526020016000205461100a9092919063ffffffff16565b610b52565b6001905092915050565b6000610a31610a2a610b4a565b8484610d49565b6001905092915050565b6000600160008473ffffffffffffffffffffffffffffffffffffffff1673ffffffffffffffffffffffffffffffffffffffff16815260200190815260200160002060008373ffffffffffffffffffffffffffffffffffffffff1673ffffffffffffffffffffffffffffffffffffffff16815260200190815260200160002054905092915050565b600080828401905083811015610b40576040517f08c379a000000000000000000000000000000000000000000000000000000000815260040180806020018281038252601b8152602001807f536166654d6174683a206164646974696f6e206f766572666c6f77000000000081525060200191505060405180910390fd5b8091505092915050565b600033905090565b600073ffffffffffffffffffffffffffffffffffffffff168373ffffffffffffffffffffffffffffffffffffffff161415610bd8576040517f08c379a000000000000000000000000000000000000000000000000000000000815260040180806020018281038252602481526020018061134f6024913960400191505060405180910390fd5b600073ffffffffffffffffffffffffffffffffffffffff168273ffffffffffffffffffffffffffffffffffffffff161415610c5e576040517f08c379a00000000000000000000000000000000000000000000000000000000081526004018080602001828103825260228152602001806112ba6022913960400191505060405180910390fd5b80600160008573ffffffffffffffffffffffffffffffffffffffff1673ffffffffffffffffffffffffffffffffffffffff16815260200190815260200160002060008473ffffffffffffffffffffffffffffffffffffffff1673ffffffffffffffffffffffffffffffffffffffff168152602001908152602001600020819055508173ffffffffffffffffffffffffffffffffffffffff168373ffffffffffffffffffffffffffffffffffffffff167f8c5be1e5ebec7d5bd14f71427d1e84f3dd0314c0f7b2291e5b200ac8c7c3b925836040518082815260200191505060405180910390a3505050565b600073ffffffffffffffffffffffffffffffffffffffff168373ffffffffffffffffffffffffffffffffffffffff161415610dcf576040517f08c379a000000000000000000000000000000000000000000000000000000000815260040180806020018281038252602581526020018061132a6025913960400191505060405180910390fd5b600073ffffffffffffffffffffffffffffffffffffffff168273ffffffffffffffffffffffffffffffffffffffff161415610e55576040517f08c379a00000000000000000000000000000000000000000000000000000000081526004018080602001828103825260238152602001806112976023913960400191505060405180910390fd5b610e60838383611291565b610ecb816040518060600160405280602681526020016112dc602691396000808773ffffffffffffffffffffffffffffffffffffffff1673ffffffffffffffffffffffffffffffffffffffff1681526020019081526020016000205461100a9092919063ffffffff16565b6000808573ffffffffffffffffffffffffffffffffffffffff1673ffffffffffffffffffffffffffffffffffffffff16815260200190815260200160002081905550610f5e816000808573ffffffffffffffffffffffffffffffffffffffff1673ffffffffffffffffffffffffffffffffffffffff16815260200190815260200160002054610ac290919063ffffffff16565b6000808473ffffffffffffffffffffffffffffffffffffffff1673ffffffffffffffffffffffffffffffffffffffff168152602001908152602001600020819055508173ffffffffffffffffffffffffffffffffffffffff168373ffffffffffffffffffffffffffffffffffffffff167fddf252ad1be2c89b69c2b068fc378daa952ba7f163c4a11628f55a4df523b3ef836040518082815260200191505060405180910390a3505050565b60008383111582906110b7576040517f08c379a00000000000000000000000000000000000000000000000000000000081526004018080602001828103825283818151815260200191508051906020019080838360005b8381101561107c578082015181840152602081019050611061565b50505050905090810190601f1680156110a95780820380516001836020036101000a031916815260200191505b509250505060405180910390fd5b5060008385039050809150509392505050565b600073ffffffffffffffffffffffffffffffffffffffff168273ffffffffffffffffffffffffffffffffffffffff16141561116d576040517f08c379a000000000000000000000000000000000000000000000000000000000815260040180806020018281038252601f8152602001807f45524332303a206d696e7420746f20746865207a65726f20616464726573730081525060200191505060405180910390fd5b61117960008383611291565b61118e81600254610ac290919063ffffffff16565b6002819055506111e5816000808573ffffffffffffffffffffffffffffffffffffffff1673ffffffffffffffffffffffffffffffffffffffff16815260200190815260200160002054610ac290919063ffffffff16565b6000808473ffffffffffffffffffffffffffffffffffffffff1673ffffffffffffffffffffffffffffffffffffffff168152602001908152602001600020819055508173ffffffffffffffffffffffffffffffffffffffff16600073ffffffffffffffffffffffffffffffffffffffff167fddf252ad1be2c89b69c2b068fc378daa952ba7f163c4a11628f55a4df523b3ef836040518082815260200191505060405180910390a35050565b50505056fe45524332303a207472616e7366657220746f20746865207a65726f206164647265737345524332303a20617070726f766520746f20746865207a65726f206164647265737345524332303a207472616e7366657220616d6f756e7420657863656564732062616c616e636545524332303a207472616e7366657220616d6f756e74206578636565647320616c6c6f77616e636545524332303a207472616e736665722066726f6d20746865207a65726f206164647265737345524332303a20617070726f76652066726f6d20746865207a65726f206164647265737345524332303a2064656372656173656420616c6c6f77616e63652062656c6f77207a65726fa2646970667358221220aae12524fbb199157d27b7cf49b0b8156b77125ed9fad68e32fca643eee160c664736f6c634300060b0033","opcodes":"PUSH1 0x80 PUSH1 0x40 MSTORE CALLVALUE DUP1 ISZERO PUSH3 0x11 JUMPI PUSH1 0x0 DUP1 REVERT JUMPDEST POP PUSH1 0x40 MLOAD DUP1 PUSH1 0x40 ADD PUSH1 0x40 MSTORE DUP1 PUSH1 0xD DUP2 MSTORE PUSH1 0x20 ADD PUSH32 0x536368656C6C696E67436F696E00000000000000000000000000000000000000 DUP2 MSTORE POP PUSH1 0x40 MLOAD DUP1 PUSH1 0x40 ADD PUSH1 0x40 MSTORE DUP1 PUSH1 0x3 DUP2 MSTORE PUSH1 0x20 ADD PUSH32 0x5343480000000000000000000000000000000000000000000000000000000000 DUP2 MSTORE POP DUP2 PUSH1 0x3 SWAP1 DUP1 MLOAD SWAP1 PUSH1 0x20 ADD SWAP1 PUSH3 0x96 SWAP3 SWAP2 SWAP1 PUSH3 0x35F JUMP JUMPDEST POP DUP1 PUSH1 0x4 SWAP1 DUP1 MLOAD SWAP1 PUSH1 0x20 ADD SWAP1 PUSH3 0xAF SWAP3 SWAP2 SWAP1 PUSH3 0x35F JUMP JUMPDEST POP PUSH1 0x12 PUSH1 0x5 PUSH1 0x0 PUSH2 0x100 EXP DUP2 SLOAD DUP2 PUSH1 0xFF MUL NOT AND SWAP1 DUP4 PUSH1 0xFF AND MUL OR SWAP1 SSTORE POP POP POP PUSH3 0xED CALLER PUSH1 0x12 PUSH1 0xFF AND PUSH1 0xA EXP PUSH4 0x2FAF080 MUL PUSH3 0xF3 PUSH1 0x20 SHL PUSH1 0x20 SHR JUMP JUMPDEST PUSH3 0x40E JUMP JUMPDEST PUSH1 0x0 PUSH20 0xFFFFFFFFFFFFFFFFFFFFFFFFFFFFFFFFFFFFFFFF AND DUP3 PUSH20 0xFFFFFFFFFFFFFFFFFFFFFFFFFFFFFFFFFFFFFFFF AND EQ ISZERO PUSH3 0x197 JUMPI PUSH1 0x40 MLOAD PUSH32 0x8C379A000000000000000000000000000000000000000000000000000000000 DUP2 MSTORE PUSH1 0x4 ADD DUP1 DUP1 PUSH1 0x20 ADD DUP3 DUP2 SUB DUP3 MSTORE PUSH1 0x1F DUP2 MSTORE PUSH1 0x20 ADD DUP1 PUSH32 0x45524332303A206D696E7420746F20746865207A65726F206164647265737300 DUP2 MSTORE POP PUSH1 0x20 ADD SWAP2 POP POP PUSH1 0x40 MLOAD DUP1 SWAP2 SUB SWAP1 REVERT JUMPDEST PUSH3 0x1AB PUSH1 0x0 DUP4 DUP4 PUSH3 0x2D1 PUSH1 0x20 SHL PUSH1 0x20 SHR JUMP JUMPDEST PUSH3 0x1C7 DUP2 PUSH1 0x2 SLOAD PUSH3 0x2D6 PUSH1 0x20 SHL PUSH3 0xAC2 OR SWAP1 SWAP2 SWAP1 PUSH1 0x20 SHR JUMP JUMPDEST PUSH1 0x2 DUP2 SWAP1 SSTORE POP PUSH3 0x225 DUP2 PUSH1 0x0 DUP1 DUP6 PUSH20 0xFFFFFFFFFFFFFFFFFFFFFFFFFFFFFFFFFFFFFFFF AND PUSH20 0xFFFFFFFFFFFFFFFFFFFFFFFFFFFFFFFFFFFFFFFF AND DUP2 MSTORE PUSH1 0x20 ADD SWAP1 DUP2 MSTORE PUSH1 0x20 ADD PUSH1 0x0 KECCAK256 SLOAD PUSH3 0x2D6 PUSH1 0x20 SHL PUSH3 0xAC2 OR SWAP1 SWAP2 SWAP1 PUSH1 0x20 SHR JUMP JUMPDEST PUSH1 0x0 DUP1 DUP5 PUSH20 0xFFFFFFFFFFFFFFFFFFFFFFFFFFFFFFFFFFFFFFFF AND PUSH20 0xFFFFFFFFFFFFFFFFFFFFFFFFFFFFFFFFFFFFFFFF AND DUP2 MSTORE PUSH1 0x20 ADD SWAP1 DUP2 MSTORE PUSH1 0x20 ADD PUSH1 0x0 KECCAK256 DUP2 SWAP1 SSTORE POP DUP2 PUSH20 0xFFFFFFFFFFFFFFFFFFFFFFFFFFFFFFFFFFFFFFFF AND PUSH1 0x0 PUSH20 0xFFFFFFFFFFFFFFFFFFFFFFFFFFFFFFFFFFFFFFFF AND PUSH32 0xDDF252AD1BE2C89B69C2B068FC378DAA952BA7F163C4A11628F55A4DF523B3EF DUP4 PUSH1 0x40 MLOAD DUP1 DUP3 DUP2 MSTORE PUSH1 0x20 ADD SWAP2 POP POP PUSH1 0x40 MLOAD DUP1 SWAP2 SUB SWAP1 LOG3 POP POP JUMP JUMPDEST POP POP POP JUMP JUMPDEST PUSH1 0x0 DUP1 DUP3 DUP5 ADD SWAP1 POP DUP4 DUP2 LT ISZERO PUSH3 0x355 JUMPI PUSH1 0x40 MLOAD PUSH32 0x8C379A000000000000000000000000000000000000000000000000000000000 DUP2 MSTORE PUSH1 0x4 ADD DUP1 DUP1 PUSH1 0x20 ADD DUP3 DUP2 SUB DUP3 MSTORE PUSH1 0x1B DUP2 MSTORE PUSH1 0x20 ADD DUP1 PUSH32 0x536166654D6174683A206164646974696F6E206F766572666C6F770000000000 DUP2 MSTORE POP PUSH1 0x20 ADD SWAP2 POP POP PUSH1 0x40 MLOAD DUP1 SWAP2 SUB SWAP1 REVERT JUMPDEST DUP1 SWAP2 POP POP SWAP3 SWAP2 POP POP JUMP JUMPDEST DUP3 DUP1 SLOAD PUSH1 0x1 DUP2 PUSH1 0x1 AND ISZERO PUSH2 0x100 MUL SUB AND PUSH1 0x2 SWAP1 DIV SWAP1 PUSH1 0x0 MSTORE PUSH1 0x20 PUSH1 0x0 KECCAK256 SWAP1 PUSH1 0x1F ADD PUSH1 0x20 SWAP1 DIV DUP2 ADD SWAP3 DUP3 PUSH1 0x1F LT PUSH3 0x3A2 JUMPI DUP1 MLOAD PUSH1 0xFF NOT AND DUP4 DUP1 ADD OR DUP6 SSTORE PUSH3 0x3D3 JUMP JUMPDEST DUP3 DUP1 ADD PUSH1 0x1 ADD DUP6 SSTORE DUP3 ISZERO PUSH3 0x3D3 JUMPI SWAP2 DUP3 ADD JUMPDEST DUP3 DUP2 GT ISZERO PUSH3 0x3D2 JUMPI DUP3 MLOAD DUP3 SSTORE SWAP2 PUSH1 0x20 ADD SWAP2 SWAP1 PUSH1 0x1 ADD SWAP1 PUSH3 0x3B5 JUMP JUMPDEST JUMPDEST POP SWAP1 POP PUSH3 0x3E2 SWAP2 SWAP1 PUSH3 0x3E6 JUMP JUMPDEST POP SWAP1 JUMP JUMPDEST PUSH3 0x40B SWAP2 SWAP1 JUMPDEST DUP1 DUP3 GT ISZERO PUSH3 0x407 JUMPI PUSH1 0x0 DUP2 PUSH1 0x0 SWAP1 SSTORE POP PUSH1 0x1 ADD PUSH3 0x3ED JUMP JUMPDEST POP SWAP1 JUMP JUMPDEST SWAP1 JUMP JUMPDEST PUSH2 0x13CD DUP1 PUSH3 0x41E PUSH1 0x0 CODECOPY PUSH1 0x0 RETURN INVALID PUSH1 0x80 PUSH1 0x40 MSTORE CALLVALUE DUP1 ISZERO PUSH2 0x10 JUMPI PUSH1 0x0 DUP1 REVERT JUMPDEST POP PUSH1 0x4 CALLDATASIZE LT PUSH2 0xEA JUMPI PUSH1 0x0 CALLDATALOAD PUSH1 0xE0 SHR DUP1 PUSH4 0x39509351 GT PUSH2 0x8C JUMPI DUP1 PUSH4 0x95D89B41 GT PUSH2 0x66 JUMPI DUP1 PUSH4 0x95D89B41 EQ PUSH2 0x406 JUMPI DUP1 PUSH4 0xA457C2D7 EQ PUSH2 0x489 JUMPI DUP1 PUSH4 0xA9059CBB EQ PUSH2 0x4EF JUMPI DUP1 PUSH4 0xDD62ED3E EQ PUSH2 0x555 JUMPI PUSH2 0xEA JUMP JUMPDEST DUP1 PUSH4 0x39509351 EQ PUSH2 0x2E2 JUMPI DUP1 PUSH4 0x40C10F19 EQ PUSH2 0x348 JUMPI DUP1 PUSH4 0x70A08231 EQ PUSH2 0x3AE JUMPI PUSH2 0xEA JUMP JUMPDEST DUP1 PUSH4 0x23B872DD GT PUSH2 0xC8 JUMPI DUP1 PUSH4 0x23B872DD EQ PUSH2 0x1F6 JUMPI DUP1 PUSH4 0x2E0F2625 EQ PUSH2 0x27C JUMPI DUP1 PUSH4 0x2FF2E9DC EQ PUSH2 0x2A0 JUMPI DUP1 PUSH4 0x313CE567 EQ PUSH2 0x2BE JUMPI PUSH2 0xEA JUMP JUMPDEST DUP1 PUSH4 0x6FDDE03 EQ PUSH2 0xEF JUMPI DUP1 PUSH4 0x95EA7B3 EQ PUSH2 0x172 JUMPI DUP1 PUSH4 0x18160DDD EQ PUSH2 0x1D8 JUMPI JUMPDEST PUSH1 0x0 DUP1 REVERT JUMPDEST PUSH2 0xF7 PUSH2 0x5CD JUMP JUMPDEST PUSH1 0x40 MLOAD DUP1 DUP1 PUSH1 0x20 ADD DUP3 DUP2 SUB DUP3 MSTORE DUP4 DUP2 DUP2 MLOAD DUP2 MSTORE PUSH1 0x20 ADD SWAP2 POP DUP1 MLOAD SWAP1 PUSH1 0x20 ADD SWAP1 DUP1 DUP4 DUP4 PUSH1 0x0 JUMPDEST DUP4 DUP2 LT ISZERO PUSH2 0x137 JUMPI DUP1 DUP3 ADD MLOAD DUP2 DUP5 ADD MSTORE PUSH1 0x20 DUP2 ADD SWAP1 POP PUSH2 0x11C JUMP JUMPDEST POP POP POP POP SWAP1 POP SWAP1 DUP2 ADD SWAP1 PUSH1 0x1F AND DUP1 ISZERO PUSH2 0x164 JUMPI DUP1 DUP3 SUB DUP1 MLOAD PUSH1 0x1 DUP4 PUSH1 0x20 SUB PUSH2 0x100 EXP SUB NOT AND DUP2 MSTORE PUSH1 0x20 ADD SWAP2 POP JUMPDEST POP SWAP3 POP POP POP PUSH1 0x40 MLOAD DUP1 SWAP2 SUB SWAP1 RETURN JUMPDEST PUSH2 0x1BE PUSH1 0x4 DUP1 CALLDATASIZE SUB PUSH1 0x40 DUP2 LT ISZERO PUSH2 0x188 JUMPI PUSH1 0x0 DUP1 REVERT JUMPDEST DUP2 ADD SWAP1 DUP1 DUP1 CALLDATALOAD PUSH20 0xFFFFFFFFFFFFFFFFFFFFFFFFFFFFFFFFFFFFFFFF AND SWAP1 PUSH1 0x20 ADD SWAP1 SWAP3 SWAP2 SWAP1 DUP1 CALLDATALOAD SWAP1 PUSH1 0x20 ADD SWAP1 SWAP3 SWAP2 SWAP1 POP POP POP PUSH2 0x66F JUMP JUMPDEST PUSH1 0x40 MLOAD DUP1 DUP3 ISZERO ISZERO ISZERO ISZERO DUP2 MSTORE PUSH1 0x20 ADD SWAP2 POP POP PUSH1 0x40 MLOAD DUP1 SWAP2 SUB SWAP1 RETURN JUMPDEST PUSH2 0x1E0 PUSH2 0x68D JUMP JUMPDEST PUSH1 0x40 MLOAD DUP1 DUP3 DUP2 MSTORE PUSH1 0x20 ADD SWAP2 POP POP PUSH1 0x40 MLOAD DUP1 SWAP2 SUB SWAP1 RETURN JUMPDEST PUSH2 0x262 PUSH1 0x4 DUP1 CALLDATASIZE SUB PUSH1 0x60 DUP2 LT ISZERO PUSH2 0x20C JUMPI PUSH1 0x0 DUP1 REVERT JUMPDEST DUP2 ADD SWAP1 DUP1 DUP1 CALLDATALOAD PUSH20 0xFFFFFFFFFFFFFFFFFFFFFFFFFFFFFFFFFFFFFFFF AND SWAP1 PUSH1 0x20 ADD SWAP1 SWAP3 SWAP2 SWAP1 DUP1 CALLDATALOAD PUSH20 0xFFFFFFFFFFFFFFFFFFFFFFFFFFFFFFFFFFFFFFFF AND SWAP1 PUSH1 0x20 ADD SWAP1 SWAP3 SWAP2 SWAP1 DUP1 CALLDATALOAD SWAP1 PUSH1 0x20 ADD SWAP1 SWAP3 SWAP2 SWAP1 POP POP POP PUSH2 0x697 JUMP JUMPDEST PUSH1 0x40 MLOAD DUP1 DUP3 ISZERO ISZERO ISZERO ISZERO DUP2 MSTORE PUSH1 0x20 ADD SWAP2 POP POP PUSH1 0x40 MLOAD DUP1 SWAP2 SUB SWAP1 RETURN JUMPDEST PUSH2 0x284 PUSH2 0x770 JUMP JUMPDEST PUSH1 0x40 MLOAD DUP1 DUP3 PUSH1 0xFF AND PUSH1 0xFF AND DUP2 MSTORE PUSH1 0x20 ADD SWAP2 POP POP PUSH1 0x40 MLOAD DUP1 SWAP2 SUB SWAP1 RETURN JUMPDEST PUSH2 0x2A8 PUSH2 0x775 JUMP JUMPDEST PUSH1 0x40 MLOAD DUP1 DUP3 DUP2 MSTORE PUSH1 0x20 ADD SWAP2 POP POP PUSH1 0x40 MLOAD DUP1 SWAP2 SUB SWAP1 RETURN JUMPDEST PUSH2 0x2C6 PUSH2 0x786 JUMP JUMPDEST PUSH1 0x40 MLOAD DUP1 DUP3 PUSH1 0xFF AND PUSH1 0xFF AND DUP2 MSTORE PUSH1 0x20 ADD SWAP2 POP POP PUSH1 0x40 MLOAD DUP1 SWAP2 SUB SWAP1 RETURN JUMPDEST PUSH2 0x32E PUSH1 0x4 DUP1 CALLDATASIZE SUB PUSH1 0x40 DUP2 LT ISZERO PUSH2 0x2F8 JUMPI PUSH1 0x0 DUP1 REVERT JUMPDEST DUP2 ADD SWAP1 DUP1 DUP1 CALLDATALOAD PUSH20 0xFFFFFFFFFFFFFFFFFFFFFFFFFFFFFFFFFFFFFFFF AND SWAP1 PUSH1 0x20 ADD SWAP1 SWAP3 SWAP2 SWAP1 DUP1 CALLDATALOAD SWAP1 PUSH1 0x20 ADD SWAP1 SWAP3 SWAP2 SWAP1 POP POP POP PUSH2 0x79D JUMP JUMPDEST PUSH1 0x40 MLOAD DUP1 DUP3 ISZERO ISZERO ISZERO ISZERO DUP2 MSTORE PUSH1 0x20 ADD SWAP2 POP POP PUSH1 0x40 MLOAD DUP1 SWAP2 SUB SWAP1 RETURN JUMPDEST PUSH2 0x394 PUSH1 0x4 DUP1 CALLDATASIZE SUB PUSH1 0x40 DUP2 LT ISZERO PUSH2 0x35E JUMPI PUSH1 0x0 DUP1 REVERT JUMPDEST DUP2 ADD SWAP1 DUP1 DUP1 CALLDATALOAD PUSH20 0xFFFFFFFFFFFFFFFFFFFFFFFFFFFFFFFFFFFFFFFF AND SWAP1 PUSH1 0x20 ADD SWAP1 SWAP3 SWAP2 SWAP1 DUP1 CALLDATALOAD SWAP1 PUSH1 0x20 ADD SWAP1 SWAP3 SWAP2 SWAP1 POP POP POP PUSH2 0x850 JUMP JUMPDEST PUSH1 0x40 MLOAD DUP1 DUP3 ISZERO ISZERO ISZERO ISZERO DUP2 MSTORE PUSH1 0x20 ADD SWAP2 POP POP PUSH1 0x40 MLOAD DUP1 SWAP2 SUB SWAP1 RETURN JUMPDEST PUSH2 0x3F0 PUSH1 0x4 DUP1 CALLDATASIZE SUB PUSH1 0x20 DUP2 LT ISZERO PUSH2 0x3C4 JUMPI PUSH1 0x0 DUP1 REVERT JUMPDEST DUP2 ADD SWAP1 DUP1 DUP1 CALLDATALOAD PUSH20 0xFFFFFFFFFFFFFFFFFFFFFFFFFFFFFFFFFFFFFFFF AND SWAP1 PUSH1 0x20 ADD SWAP1 SWAP3 SWAP2 SWAP1 POP POP POP PUSH2 0x866 JUMP JUMPDEST PUSH1 0x40 MLOAD DUP1 DUP3 DUP2 MSTORE PUSH1 0x20 ADD SWAP2 POP POP PUSH1 0x40 MLOAD DUP1 SWAP2 SUB SWAP1 RETURN JUMPDEST PUSH2 0x40E PUSH2 0x8AE JUMP JUMPDEST PUSH1 0x40 MLOAD DUP1 DUP1 PUSH1 0x20 ADD DUP3 DUP2 SUB DUP3 MSTORE DUP4 DUP2 DUP2 MLOAD DUP2 MSTORE PUSH1 0x20 ADD SWAP2 POP DUP1 MLOAD SWAP1 PUSH1 0x20 ADD SWAP1 DUP1 DUP4 DUP4 PUSH1 0x0 JUMPDEST DUP4 DUP2 LT ISZERO PUSH2 0x44E JUMPI DUP1 DUP3 ADD MLOAD DUP2 DUP5 ADD MSTORE PUSH1 0x20 DUP2 ADD SWAP1 POP PUSH2 0x433 JUMP JUMPDEST POP POP POP POP SWAP1 POP SWAP1 DUP2 ADD SWAP1 PUSH1 0x1F AND DUP1 ISZERO PUSH2 0x47B JUMPI DUP1 DUP3 SUB DUP1 MLOAD PUSH1 0x1 DUP4 PUSH1 0x20 SUB PUSH2 0x100 EXP SUB NOT AND DUP2 MSTORE PUSH1 0x20 ADD SWAP2 POP JUMPDEST POP SWAP3 POP POP POP PUSH1 0x40 MLOAD DUP1 SWAP2 SUB SWAP1 RETURN JUMPDEST PUSH2 0x4D5 PUSH1 0x4 DUP1 CALLDATASIZE SUB PUSH1 0x40 DUP2 LT ISZERO PUSH2 0x49F JUMPI PUSH1 0x0 DUP1 REVERT JUMPDEST DUP2 ADD SWAP1 DUP1 DUP1 CALLDATALOAD PUSH20 0xFFFFFFFFFFFFFFFFFFFFFFFFFFFFFFFFFFFFFFFF AND SWAP1 PUSH1 0x20 ADD SWAP1 SWAP3 SWAP2 SWAP1 DUP1 CALLDATALOAD SWAP1 PUSH1 0x20 ADD SWAP1 SWAP3 SWAP2 SWAP1 POP POP POP PUSH2 0x950 JUMP JUMPDEST PUSH1 0x40 MLOAD DUP1 DUP3 ISZERO ISZERO ISZERO ISZERO DUP2 MSTORE PUSH1 0x20 ADD SWAP2 POP POP PUSH1 0x40 MLOAD DUP1 SWAP2 SUB SWAP1 RETURN JUMPDEST PUSH2 0x53B PUSH1 0x4 DUP1 CALLDATASIZE SUB PUSH1 0x40 DUP2 LT ISZERO PUSH2 0x505 JUMPI PUSH1 0x0 DUP1 REVERT JUMPDEST DUP2 ADD SWAP1 DUP1 DUP1 CALLDATALOAD PUSH20 0xFFFFFFFFFFFFFFFFFFFFFFFFFFFFFFFFFFFFFFFF AND SWAP1 PUSH1 0x20 ADD SWAP1 SWAP3 SWAP2 SWAP1 DUP1 CALLDATALOAD SWAP1 PUSH1 0x20 ADD SWAP1 SWAP3 SWAP2 SWAP1 POP POP POP PUSH2 0xA1D JUMP JUMPDEST PUSH1 0x40 MLOAD DUP1 DUP3 ISZERO ISZERO ISZERO ISZERO DUP2 MSTORE PUSH1 0x20 ADD SWAP2 POP POP PUSH1 0x40 MLOAD DUP1 SWAP2 SUB SWAP1 RETURN JUMPDEST PUSH2 0x5B7 PUSH1 0x4 DUP1 CALLDATASIZE SUB PUSH1 0x40 DUP2 LT ISZERO PUSH2 0x56B JUMPI PUSH1 0x0 DUP1 REVERT JUMPDEST DUP2 ADD SWAP1 DUP1 DUP1 CALLDATALOAD PUSH20 0xFFFFFFFFFFFFFFFFFFFFFFFFFFFFFFFFFFFFFFFF AND SWAP1 PUSH1 0x20 ADD SWAP1 SWAP3 SWAP2 SWAP1 DUP1 CALLDATALOAD PUSH20 0xFFFFFFFFFFFFFFFFFFFFFFFFFFFFFFFFFFFFFFFF AND SWAP1 PUSH1 0x20 ADD SWAP1 SWAP3 SWAP2 SWAP1 POP POP POP PUSH2 0xA3B JUMP JUMPDEST PUSH1 0x40 MLOAD DUP1 DUP3 DUP2 MSTORE PUSH1 0x20 ADD SWAP2 POP POP PUSH1 0x40 MLOAD DUP1 SWAP2 SUB SWAP1 RETURN JUMPDEST PUSH1 0x60 PUSH1 0x3 DUP1 SLOAD PUSH1 0x1 DUP2 PUSH1 0x1 AND ISZERO PUSH2 0x100 MUL SUB AND PUSH1 0x2 SWAP1 DIV DUP1 PUSH1 0x1F ADD PUSH1 0x20 DUP1 SWAP2 DIV MUL PUSH1 0x20 ADD PUSH1 0x40 MLOAD SWAP1 DUP2 ADD PUSH1 0x40 MSTORE DUP1 SWAP3 SWAP2 SWAP1 DUP2 DUP2 MSTORE PUSH1 0x20 ADD DUP3 DUP1 SLOAD PUSH1 0x1 DUP2 PUSH1 0x1 AND ISZERO PUSH2 0x100 MUL SUB AND PUSH1 0x2 SWAP1 DIV DUP1 ISZERO PUSH2 0x665 JUMPI DUP1 PUSH1 0x1F LT PUSH2 0x63A JUMPI PUSH2 0x100 DUP1 DUP4 SLOAD DIV MUL DUP4 MSTORE SWAP2 PUSH1 0x20 ADD SWAP2 PUSH2 0x665 JUMP JUMPDEST DUP3 ADD SWAP2 SWAP1 PUSH1 0x0 MSTORE PUSH1 0x20 PUSH1 0x0 KECCAK256 SWAP1 JUMPDEST DUP2 SLOAD DUP2 MSTORE SWAP1 PUSH1 0x1 ADD SWAP1 PUSH1 0x20 ADD DUP1 DUP4 GT PUSH2 0x648 JUMPI DUP3 SWAP1 SUB PUSH1 0x1F AND DUP3 ADD SWAP2 JUMPDEST POP POP POP POP POP SWAP1 POP SWAP1 JUMP JUMPDEST PUSH1 0x0 PUSH2 0x683 PUSH2 0x67C PUSH2 0xB4A JUMP JUMPDEST DUP5 DUP5 PUSH2 0xB52 JUMP JUMPDEST PUSH1 0x1 SWAP1 POP SWAP3 SWAP2 POP POP JUMP JUMPDEST PUSH1 0x0 PUSH1 0x2 SLOAD SWAP1 POP SWAP1 JUMP JUMPDEST PUSH1 0x0 PUSH2 0x6A4 DUP5 DUP5 DUP5 PUSH2 0xD49 JUMP JUMPDEST PUSH2 0x765 DUP5 PUSH2 0x6B0 PUSH2 0xB4A JUMP JUMPDEST PUSH2 0x760 DUP6 PUSH1 0x40 MLOAD DUP1 PUSH1 0x60 ADD PUSH1 0x40 MSTORE DUP1 PUSH1 0x28 DUP2 MSTORE PUSH1 0x20 ADD PUSH2 0x1302 PUSH1 0x28 SWAP2 CODECOPY PUSH1 0x1 PUSH1 0x0 DUP12 PUSH20 0xFFFFFFFFFFFFFFFFFFFFFFFFFFFFFFFFFFFFFFFF AND PUSH20 0xFFFFFFFFFFFFFFFFFFFFFFFFFFFFFFFFFFFFFFFF AND DUP2 MSTORE PUSH1 0x20 ADD SWAP1 DUP2 MSTORE PUSH1 0x20 ADD PUSH1 0x0 KECCAK256 PUSH1 0x0 PUSH2 0x716 PUSH2 0xB4A JUMP JUMPDEST PUSH20 0xFFFFFFFFFFFFFFFFFFFFFFFFFFFFFFFFFFFFFFFF AND PUSH20 0xFFFFFFFFFFFFFFFFFFFFFFFFFFFFFFFFFFFFFFFF AND DUP2 MSTORE PUSH1 0x20 ADD SWAP1 DUP2 MSTORE PUSH1 0x20 ADD PUSH1 0x0 KECCAK256 SLOAD PUSH2 0x100A SWAP1 SWAP3 SWAP2 SWAP1 PUSH4 0xFFFFFFFF AND JUMP JUMPDEST PUSH2 0xB52 JUMP JUMPDEST PUSH1 0x1 SWAP1 POP SWAP4 SWAP3 POP POP POP JUMP JUMPDEST PUSH1 0x12 DUP2 JUMP JUMPDEST PUSH1 0x12 PUSH1 0xFF AND PUSH1 0xA EXP PUSH4 0x2FAF080 MUL DUP2 JUMP JUMPDEST PUSH1 0x0 PUSH1 0x5 PUSH1 0x0 SWAP1 SLOAD SWAP1 PUSH2 0x100 EXP SWAP1 DIV PUSH1 0xFF AND SWAP1 POP SWAP1 JUMP JUMPDEST PUSH1 0x0 PUSH2 0x846 PUSH2 0x7AA PUSH2 0xB4A JUMP JUMPDEST DUP5 PUSH2 0x841 DUP6 PUSH1 0x1 PUSH1 0x0 PUSH2 0x7BB PUSH2 0xB4A JUMP JUMPDEST PUSH20 0xFFFFFFFFFFFFFFFFFFFFFFFFFFFFFFFFFFFFFFFF AND PUSH20 0xFFFFFFFFFFFFFFFFFFFFFFFFFFFFFFFFFFFFFFFF AND DUP2 MSTORE PUSH1 0x20 ADD SWAP1 DUP2 MSTORE PUSH1 0x20 ADD PUSH1 0x0 KECCAK256 PUSH1 0x0 DUP10 PUSH20 0xFFFFFFFFFFFFFFFFFFFFFFFFFFFFFFFFFFFFFFFF AND PUSH20 0xFFFFFFFFFFFFFFFFFFFFFFFFFFFFFFFFFFFFFFFF AND DUP2 MSTORE PUSH1 0x20 ADD SWAP1 DUP2 MSTORE PUSH1 0x20 ADD PUSH1 0x0 KECCAK256 SLOAD PUSH2 0xAC2 SWAP1 SWAP2 SWAP1 PUSH4 0xFFFFFFFF AND JUMP JUMPDEST PUSH2 0xB52 JUMP JUMPDEST PUSH1 0x1 SWAP1 POP SWAP3 SWAP2 POP POP JUMP JUMPDEST PUSH1 0x0 PUSH2 0x85C DUP4 DUP4 PUSH2 0x10CA JUMP JUMPDEST PUSH1 0x1 SWAP1 POP SWAP3 SWAP2 POP POP JUMP JUMPDEST PUSH1 0x0 DUP1 PUSH1 0x0 DUP4 PUSH20 0xFFFFFFFFFFFFFFFFFFFFFFFFFFFFFFFFFFFFFFFF AND PUSH20 0xFFFFFFFFFFFFFFFFFFFFFFFFFFFFFFFFFFFFFFFF AND DUP2 MSTORE PUSH1 0x20 ADD SWAP1 DUP2 MSTORE PUSH1 0x20 ADD PUSH1 0x0 KECCAK256 SLOAD SWAP1 POP SWAP2 SWAP1 POP JUMP JUMPDEST PUSH1 0x60 PUSH1 0x4 DUP1 SLOAD PUSH1 0x1 DUP2 PUSH1 0x1 AND ISZERO PUSH2 0x100 MUL SUB AND PUSH1 0x2 SWAP1 DIV DUP1 PUSH1 0x1F ADD PUSH1 0x20 DUP1 SWAP2 DIV MUL PUSH1 0x20 ADD PUSH1 0x40 MLOAD SWAP1 DUP2 ADD PUSH1 0x40 MSTORE DUP1 SWAP3 SWAP2 SWAP1 DUP2 DUP2 MSTORE PUSH1 0x20 ADD DUP3 DUP1 SLOAD PUSH1 0x1 DUP2 PUSH1 0x1 AND ISZERO PUSH2 0x100 MUL SUB AND PUSH1 0x2 SWAP1 DIV DUP1 ISZERO PUSH2 0x946 JUMPI DUP1 PUSH1 0x1F LT PUSH2 0x91B JUMPI PUSH2 0x100 DUP1 DUP4 SLOAD DIV MUL DUP4 MSTORE SWAP2 PUSH1 0x20 ADD SWAP2 PUSH2 0x946 JUMP JUMPDEST DUP3 ADD SWAP2 SWAP1 PUSH1 0x0 MSTORE PUSH1 0x20 PUSH1 0x0 KECCAK256 SWAP1 JUMPDEST DUP2 SLOAD DUP2 MSTORE SWAP1 PUSH1 0x1 ADD SWAP1 PUSH1 0x20 ADD DUP1 DUP4 GT PUSH2 0x929 JUMPI DUP3 SWAP1 SUB PUSH1 0x1F AND DUP3 ADD SWAP2 JUMPDEST POP POP POP POP POP SWAP1 POP SWAP1 JUMP JUMPDEST PUSH1 0x0 PUSH2 0xA13 PUSH2 0x95D PUSH2 0xB4A JUMP JUMPDEST DUP5 PUSH2 0xA0E DUP6 PUSH1 0x40 MLOAD DUP1 PUSH1 0x60 ADD PUSH1 0x40 MSTORE DUP1 PUSH1 0x25 DUP2 MSTORE PUSH1 0x20 ADD PUSH2 0x1373 PUSH1 0x25 SWAP2 CODECOPY PUSH1 0x1 PUSH1 0x0 PUSH2 0x987 PUSH2 0xB4A JUMP JUMPDEST PUSH20 0xFFFFFFFFFFFFFFFFFFFFFFFFFFFFFFFFFFFFFFFF AND PUSH20 0xFFFFFFFFFFFFFFFFFFFFFFFFFFFFFFFFFFFFFFFF AND DUP2 MSTORE PUSH1 0x20 ADD SWAP1 DUP2 MSTORE PUSH1 0x20 ADD PUSH1 0x0 KECCAK256 PUSH1 0x0 DUP11 PUSH20 0xFFFFFFFFFFFFFFFFFFFFFFFFFFFFFFFFFFFFFFFF AND PUSH20 0xFFFFFFFFFFFFFFFFFFFFFFFFFFFFFFFFFFFFFFFF AND DUP2 MSTORE PUSH1 0x20 ADD SWAP1 DUP2 MSTORE PUSH1 0x20 ADD PUSH1 0x0 KECCAK256 SLOAD PUSH2 0x100A SWAP1 SWAP3 SWAP2 SWAP1 PUSH4 0xFFFFFFFF AND JUMP JUMPDEST PUSH2 0xB52 JUMP JUMPDEST PUSH1 0x1 SWAP1 POP SWAP3 SWAP2 POP POP JUMP JUMPDEST PUSH1 0x0 PUSH2 0xA31 PUSH2 0xA2A PUSH2 0xB4A JUMP JUMPDEST DUP5 DUP5 PUSH2 0xD49 JUMP JUMPDEST PUSH1 0x1 SWAP1 POP SWAP3 SWAP2 POP POP JUMP JUMPDEST PUSH1 0x0 PUSH1 0x1 PUSH1 0x0 DUP5 PUSH20 0xFFFFFFFFFFFFFFFFFFFFFFFFFFFFFFFFFFFFFFFF AND PUSH20 0xFFFFFFFFFFFFFFFFFFFFFFFFFFFFFFFFFFFFFFFF AND DUP2 MSTORE PUSH1 0x20 ADD SWAP1 DUP2 MSTORE PUSH1 0x20 ADD PUSH1 0x0 KECCAK256 PUSH1 0x0 DUP4 PUSH20 0xFFFFFFFFFFFFFFFFFFFFFFFFFFFFFFFFFFFFFFFF AND PUSH20 0xFFFFFFFFFFFFFFFFFFFFFFFFFFFFFFFFFFFFFFFF AND DUP2 MSTORE PUSH1 0x20 ADD SWAP1 DUP2 MSTORE PUSH1 0x20 ADD PUSH1 0x0 KECCAK256 SLOAD SWAP1 POP SWAP3 SWAP2 POP POP JUMP JUMPDEST PUSH1 0x0 DUP1 DUP3 DUP5 ADD SWAP1 POP DUP4 DUP2 LT ISZERO PUSH2 0xB40 JUMPI PUSH1 0x40 MLOAD PUSH32 0x8C379A000000000000000000000000000000000000000000000000000000000 DUP2 MSTORE PUSH1 0x4 ADD DUP1 DUP1 PUSH1 0x20 ADD DUP3 DUP2 SUB DUP3 MSTORE PUSH1 0x1B DUP2 MSTORE PUSH1 0x20 ADD DUP1 PUSH32 0x536166654D6174683A206164646974696F6E206F766572666C6F770000000000 DUP2 MSTORE POP PUSH1 0x20 ADD SWAP2 POP POP PUSH1 0x40 MLOAD DUP1 SWAP2 SUB SWAP1 REVERT JUMPDEST DUP1 SWAP2 POP POP SWAP3 SWAP2 POP POP JUMP JUMPDEST PUSH1 0x0 CALLER SWAP1 POP SWAP1 JUMP JUMPDEST PUSH1 0x0 PUSH20 0xFFFFFFFFFFFFFFFFFFFFFFFFFFFFFFFFFFFFFFFF AND DUP4 PUSH20 0xFFFFFFFFFFFFFFFFFFFFFFFFFFFFFFFFFFFFFFFF AND EQ ISZERO PUSH2 0xBD8 JUMPI PUSH1 0x40 MLOAD PUSH32 0x8C379A000000000000000000000000000000000000000000000000000000000 DUP2 MSTORE PUSH1 0x4 ADD DUP1 DUP1 PUSH1 0x20 ADD DUP3 DUP2 SUB DUP3 MSTORE PUSH1 0x24 DUP2 MSTORE PUSH1 0x20 ADD DUP1 PUSH2 0x134F PUSH1 0x24 SWAP2 CODECOPY PUSH1 0x40 ADD SWAP2 POP POP PUSH1 0x40 MLOAD DUP1 SWAP2 SUB SWAP1 REVERT JUMPDEST PUSH1 0x0 PUSH20 0xFFFFFFFFFFFFFFFFFFFFFFFFFFFFFFFFFFFFFFFF AND DUP3 PUSH20 0xFFFFFFFFFFFFFFFFFFFFFFFFFFFFFFFFFFFFFFFF AND EQ ISZERO PUSH2 0xC5E JUMPI PUSH1 0x40 MLOAD PUSH32 0x8C379A000000000000000000000000000000000000000000000000000000000 DUP2 MSTORE PUSH1 0x4 ADD DUP1 DUP1 PUSH1 0x20 ADD DUP3 DUP2 SUB DUP3 MSTORE PUSH1 0x22 DUP2 MSTORE PUSH1 0x20 ADD DUP1 PUSH2 0x12BA PUSH1 0x22 SWAP2 CODECOPY PUSH1 0x40 ADD SWAP2 POP POP PUSH1 0x40 MLOAD DUP1 SWAP2 SUB SWAP1 REVERT JUMPDEST DUP1 PUSH1 0x1 PUSH1 0x0 DUP6 PUSH20 0xFFFFFFFFFFFFFFFFFFFFFFFFFFFFFFFFFFFFFFFF AND PUSH20 0xFFFFFFFFFFFFFFFFFFFFFFFFFFFFFFFFFFFFFFFF AND DUP2 MSTORE PUSH1 0x20 ADD SWAP1 DUP2 MSTORE PUSH1 0x20 ADD PUSH1 0x0 KECCAK256 PUSH1 0x0 DUP5 PUSH20 0xFFFFFFFFFFFFFFFFFFFFFFFFFFFFFFFFFFFFFFFF AND PUSH20 0xFFFFFFFFFFFFFFFFFFFFFFFFFFFFFFFFFFFFFFFF AND DUP2 MSTORE PUSH1 0x20 ADD SWAP1 DUP2 MSTORE PUSH1 0x20 ADD PUSH1 0x0 KECCAK256 DUP2 SWAP1 SSTORE POP DUP2 PUSH20 0xFFFFFFFFFFFFFFFFFFFFFFFFFFFFFFFFFFFFFFFF AND DUP4 PUSH20 0xFFFFFFFFFFFFFFFFFFFFFFFFFFFFFFFFFFFFFFFF AND PUSH32 0x8C5BE1E5EBEC7D5BD14F71427D1E84F3DD0314C0F7B2291E5B200AC8C7C3B925 DUP4 PUSH1 0x40 MLOAD DUP1 DUP3 DUP2 MSTORE PUSH1 0x20 ADD SWAP2 POP POP PUSH1 0x40 MLOAD DUP1 SWAP2 SUB SWAP1 LOG3 POP POP POP JUMP JUMPDEST PUSH1 0x0 PUSH20 0xFFFFFFFFFFFFFFFFFFFFFFFFFFFFFFFFFFFFFFFF AND DUP4 PUSH20 0xFFFFFFFFFFFFFFFFFFFFFFFFFFFFFFFFFFFFFFFF AND EQ ISZERO PUSH2 0xDCF JUMPI PUSH1 0x40 MLOAD PUSH32 0x8C379A000000000000000000000000000000000000000000000000000000000 DUP2 MSTORE PUSH1 0x4 ADD DUP1 DUP1 PUSH1 0x20 ADD DUP3 DUP2 SUB DUP3 MSTORE PUSH1 0x25 DUP2 MSTORE PUSH1 0x20 ADD DUP1 PUSH2 0x132A PUSH1 0x25 SWAP2 CODECOPY PUSH1 0x40 ADD SWAP2 POP POP PUSH1 0x40 MLOAD DUP1 SWAP2 SUB SWAP1 REVERT JUMPDEST PUSH1 0x0 PUSH20 0xFFFFFFFFFFFFFFFFFFFFFFFFFFFFFFFFFFFFFFFF AND DUP3 PUSH20 0xFFFFFFFFFFFFFFFFFFFFFFFFFFFFFFFFFFFFFFFF AND EQ ISZERO PUSH2 0xE55 JUMPI PUSH1 0x40 MLOAD PUSH32 0x8C379A000000000000000000000000000000000000000000000000000000000 DUP2 MSTORE PUSH1 0x4 ADD DUP1 DUP1 PUSH1 0x20 ADD DUP3 DUP2 SUB DUP3 MSTORE PUSH1 0x23 DUP2 MSTORE PUSH1 0x20 ADD DUP1 PUSH2 0x1297 PUSH1 0x23 SWAP2 CODECOPY PUSH1 0x40 ADD SWAP2 POP POP PUSH1 0x40 MLOAD DUP1 SWAP2 SUB SWAP1 REVERT JUMPDEST PUSH2 0xE60 DUP4 DUP4 DUP4 PUSH2 0x1291 JUMP JUMPDEST PUSH2 0xECB DUP2 PUSH1 0x40 MLOAD DUP1 PUSH1 0x60 ADD PUSH1 0x40 MSTORE DUP1 PUSH1 0x26 DUP2 MSTORE PUSH1 0x20 ADD PUSH2 0x12DC PUSH1 0x26 SWAP2 CODECOPY PUSH1 0x0 DUP1 DUP8 PUSH20 0xFFFFFFFFFFFFFFFFFFFFFFFFFFFFFFFFFFFFFFFF AND PUSH20 0xFFFFFFFFFFFFFFFFFFFFFFFFFFFFFFFFFFFFFFFF AND DUP2 MSTORE PUSH1 0x20 ADD SWAP1 DUP2 MSTORE PUSH1 0x20 ADD PUSH1 0x0 KECCAK256 SLOAD PUSH2 0x100A SWAP1 SWAP3 SWAP2 SWAP1 PUSH4 0xFFFFFFFF AND JUMP JUMPDEST PUSH1 0x0 DUP1 DUP6 PUSH20 0xFFFFFFFFFFFFFFFFFFFFFFFFFFFFFFFFFFFFFFFF AND PUSH20 0xFFFFFFFFFFFFFFFFFFFFFFFFFFFFFFFFFFFFFFFF AND DUP2 MSTORE PUSH1 0x20 ADD SWAP1 DUP2 MSTORE PUSH1 0x20 ADD PUSH1 0x0 KECCAK256 DUP2 SWAP1 SSTORE POP PUSH2 0xF5E DUP2 PUSH1 0x0 DUP1 DUP6 PUSH20 0xFFFFFFFFFFFFFFFFFFFFFFFFFFFFFFFFFFFFFFFF AND PUSH20 0xFFFFFFFFFFFFFFFFFFFFFFFFFFFFFFFFFFFFFFFF AND DUP2 MSTORE PUSH1 0x20 ADD SWAP1 DUP2 MSTORE PUSH1 0x20 ADD PUSH1 0x0 KECCAK256 SLOAD PUSH2 0xAC2 SWAP1 SWAP2 SWAP1 PUSH4 0xFFFFFFFF AND JUMP JUMPDEST PUSH1 0x0 DUP1 DUP5 PUSH20 0xFFFFFFFFFFFFFFFFFFFFFFFFFFFFFFFFFFFFFFFF AND PUSH20 0xFFFFFFFFFFFFFFFFFFFFFFFFFFFFFFFFFFFFFFFF AND DUP2 MSTORE PUSH1 0x20 ADD SWAP1 DUP2 MSTORE PUSH1 0x20 ADD PUSH1 0x0 KECCAK256 DUP2 SWAP1 SSTORE POP DUP2 PUSH20 0xFFFFFFFFFFFFFFFFFFFFFFFFFFFFFFFFFFFFFFFF AND DUP4 PUSH20 0xFFFFFFFFFFFFFFFFFFFFFFFFFFFFFFFFFFFFFFFF AND PUSH32 0xDDF252AD1BE2C89B69C2B068FC378DAA952BA7F163C4A11628F55A4DF523B3EF DUP4 PUSH1 0x40 MLOAD DUP1 DUP3 DUP2 MSTORE PUSH1 0x20 ADD SWAP2 POP POP PUSH1 0x40 MLOAD DUP1 SWAP2 SUB SWAP1 LOG3 POP POP POP JUMP JUMPDEST PUSH1 0x0 DUP4 DUP4 GT ISZERO DUP3 SWAP1 PUSH2 0x10B7 JUMPI PUSH1 0x40 MLOAD PUSH32 0x8C379A000000000000000000000000000000000000000000000000000000000 DUP2 MSTORE PUSH1 0x4 ADD DUP1 DUP1 PUSH1 0x20 ADD DUP3 DUP2 SUB DUP3 MSTORE DUP4 DUP2 DUP2 MLOAD DUP2 MSTORE PUSH1 0x20 ADD SWAP2 POP DUP1 MLOAD SWAP1 PUSH1 0x20 ADD SWAP1 DUP1 DUP4 DUP4 PUSH1 0x0 JUMPDEST DUP4 DUP2 LT ISZERO PUSH2 0x107C JUMPI DUP1 DUP3 ADD MLOAD DUP2 DUP5 ADD MSTORE PUSH1 0x20 DUP2 ADD SWAP1 POP PUSH2 0x1061 JUMP JUMPDEST POP POP POP POP SWAP1 POP SWAP1 DUP2 ADD SWAP1 PUSH1 0x1F AND DUP1 ISZERO PUSH2 0x10A9 JUMPI DUP1 DUP3 SUB DUP1 MLOAD PUSH1 0x1 DUP4 PUSH1 0x20 SUB PUSH2 0x100 EXP SUB NOT AND DUP2 MSTORE PUSH1 0x20 ADD SWAP2 POP JUMPDEST POP SWAP3 POP POP POP PUSH1 0x40 MLOAD DUP1 SWAP2 SUB SWAP1 REVERT JUMPDEST POP PUSH1 0x0 DUP4 DUP6 SUB SWAP1 POP DUP1 SWAP2 POP POP SWAP4 SWAP3 POP POP POP JUMP JUMPDEST PUSH1 0x0 PUSH20 0xFFFFFFFFFFFFFFFFFFFFFFFFFFFFFFFFFFFFFFFF AND DUP3 PUSH20 0xFFFFFFFFFFFFFFFFFFFFFFFFFFFFFFFFFFFFFFFF AND EQ ISZERO PUSH2 0x116D JUMPI PUSH1 0x40 MLOAD PUSH32 0x8C379A000000000000000000000000000000000000000000000000000000000 DUP2 MSTORE PUSH1 0x4 ADD DUP1 DUP1 PUSH1 0x20 ADD DUP3 DUP2 SUB DUP3 MSTORE PUSH1 0x1F DUP2 MSTORE PUSH1 0x20 ADD DUP1 PUSH32 0x45524332303A206D696E7420746F20746865207A65726F206164647265737300 DUP2 MSTORE POP PUSH1 0x20 ADD SWAP2 POP POP PUSH1 0x40 MLOAD DUP1 SWAP2 SUB SWAP1 REVERT JUMPDEST PUSH2 0x1179 PUSH1 0x0 DUP4 DUP4 PUSH2 0x1291 JUMP JUMPDEST PUSH2 0x118E DUP2 PUSH1 0x2 SLOAD PUSH2 0xAC2 SWAP1 SWAP2 SWAP1 PUSH4 0xFFFFFFFF AND JUMP JUMPDEST PUSH1 0x2 DUP2 SWAP1 SSTORE POP PUSH2 0x11E5 DUP2 PUSH1 0x0 DUP1 DUP6 PUSH20 0xFFFFFFFFFFFFFFFFFFFFFFFFFFFFFFFFFFFFFFFF AND PUSH20 0xFFFFFFFFFFFFFFFFFFFFFFFFFFFFFFFFFFFFFFFF AND DUP2 MSTORE PUSH1 0x20 ADD SWAP1 DUP2 MSTORE PUSH1 0x20 ADD PUSH1 0x0 KECCAK256 SLOAD PUSH2 0xAC2 SWAP1 SWAP2 SWAP1 PUSH4 0xFFFFFFFF AND JUMP JUMPDEST PUSH1 0x0 DUP1 DUP5 PUSH20 0xFFFFFFFFFFFFFFFFFFFFFFFFFFFFFFFFFFFFFFFF AND PUSH20 0xFFFFFFFFFFFFFFFFFFFFFFFFFFFFFFFFFFFFFFFF AND DUP2 MSTORE PUSH1 0x20 ADD SWAP1 DUP2 MSTORE PUSH1 0x20 ADD PUSH1 0x0 KECCAK256 DUP2 SWAP1 SSTORE POP DUP2 PUSH20 0xFFFFFFFFFFFFFFFFFFFFFFFFFFFFFFFFFFFFFFFF AND PUSH1 0x0 PUSH20 0xFFFFFFFFFFFFFFFFFFFFFFFFFFFFFFFFFFFFFFFF AND PUSH32 0xDDF252AD1BE2C89B69C2B068FC378DAA952BA7F163C4A11628F55A4DF523B3EF DUP4 PUSH1 0x40 MLOAD DUP1 DUP3 DUP2 MSTORE PUSH1 0x20 ADD SWAP2 POP POP PUSH1 0x40 MLOAD DUP1 SWAP2 SUB SWAP1 LOG3 POP POP JUMP JUMPDEST POP POP POP JUMP INVALID GASLIMIT MSTORE NUMBER ORIGIN ADDRESS GASPRICE KECCAK256 PUSH21 0x72616E7366657220746F20746865207A65726F2061 PUSH5 0x6472657373 GASLIMIT MSTORE NUMBER ORIGIN ADDRESS GASPRICE KECCAK256 PUSH2 0x7070 PUSH19 0x6F766520746F20746865207A65726F20616464 PUSH19 0x65737345524332303A207472616E7366657220 PUSH2 0x6D6F PUSH22 0x6E7420657863656564732062616C616E636545524332 ADDRESS GASPRICE KECCAK256 PUSH21 0x72616E7366657220616D6F756E7420657863656564 PUSH20 0x20616C6C6F77616E636545524332303A20747261 PUSH15 0x736665722066726F6D20746865207A PUSH6 0x726F20616464 PUSH19 0x65737345524332303A20617070726F76652066 PUSH19 0x6F6D20746865207A65726F2061646472657373 GASLIMIT MSTORE NUMBER ORIGIN ADDRESS GASPRICE KECCAK256 PUSH5 0x6563726561 PUSH20 0x656420616C6C6F77616E63652062656C6F77207A PUSH6 0x726FA2646970 PUSH7 0x7358221220AAE1 0x25 0x24 0xFB 0xB1 SWAP10 ISZERO PUSH30 0x27B7CF49B0B8156B77125ED9FAD68E32FCA643EEE160C664736F6C634300 MOD SIGNEXTEND STOP CALLER "},"gasEstimates":{"creation":{"codeDepositCost":"1013800","executionCost":"infinite","totalCost":"infinite"},"external":{"DECIMALS()":"262","INITIAL_SUPPLY()":"349","allowance(address,address)":"1409","approve(address,uint256)":"infinite","balanceOf(address)":"1263","decimals()":"1150","decreaseAllowance(address,uint256)":"infinite","increaseAllowance(address,uint256)":"infinite","mint(address,uint256)":"infinite","name()":"infinite","symbol()":"infinite","totalSupply()":"1081","transfer(address,uint256)":"infinite","transferFrom(address,address,uint256)":"infinite"}},"methodIdentifiers":{"DECIMALS()":"2e0f2625","INITIAL_SUPPLY()":"2ff2e9dc","allowance(address,address)":"dd62ed3e","approve(address,uint256)":"095ea7b3","balanceOf(address)":"70a08231","decimals()":"313ce567","decreaseAllowance(address,uint256)":"a457c2d7","increaseAllowance(address,uint256)":"39509351","mint(address,uint256)":"40c10f19","name()":"06fdde03","symbol()":"95d89b41","totalSupply()":"18160ddd","transfer(address,uint256)":"a9059cbb","transferFrom(address,address,uint256)":"23b872dd"}},"storageLayout":{"storage":[{"astId":5198,"contract":"SchellingCoin.sol:SchellingCoin","label":"_balances","offset":0,"slot":"0","type":"t_mapping(t_address,t_uint256)"},{"astId":5204,"contract":"SchellingCoin.sol:SchellingCoin","label":"_allowances","offset":0,"slot":"1","type":"t_mapping(t_address,t_mapping(t_address,t_uint256))"},{"astId":5206,"contract":"SchellingCoin.sol:SchellingCoin","label":"_totalSupply","offset":0,"slot":"2","type":"t_uint256"},{"astId":5208,"contract":"SchellingCoin.sol:SchellingCoin","label":"_name","offset":0,"slot":"3","type":"t_string_storage"},{"astId":5210,"contract":"SchellingCoin.sol:SchellingCoin","label":"_symbol","offset":0,"slot":"4","type":"t_string_storage"},{"astId":5212,"contract":"SchellingCoin.sol:SchellingCoin","label":"_decimals","offset":0,"slot":"5","type":"t_uint8"}],"types":{"t_address":{"encoding":"inplace","label":"address","numberOfBytes":"20"},"t_mapping(t_address,t_mapping(t_address,t_uint256))":{"encoding":"mapping","key":"t_address","label":"mapping(address => mapping(address => uint256))","numberOfBytes":"32","value":"t_mapping(t_address,t_uint256)"},"t_mapping(t_address,t_uint256)":{"encoding":"mapping","key":"t_address","label":"mapping(address => uint256)","numberOfBytes":"32","value":"t_uint256"},"t_string_storage":{"encoding":"bytes","label":"string","numberOfBytes":"32"},"t_uint256":{"encoding":"inplace","label":"uint256","numberOfBytes":"32"},"t_uint8":{"encoding":"inplace","label":"uint8","numberOfBytes":"1"}}},"userdoc":{"kind":"user","methods":{},"version":1}}