{"abi":[{"anonymous":false,"inputs":[{"indexed":false,"internalType":"uint256","name":"a","type":"uint256"}],"name":"DebugUint256","type":"event"},{"anonymous":false,"inputs":[{"indexed":false,"internalType":"uint256","name":"epoch","type":"uint256"},{"indexed":false,"internalType":"uint256","name":"prevRewardPool","type":"uint256"},{"indexed":false,"internalType":"uint256","name":"rewardPool","type":"uint256"},{"indexed":false,"internalType":"uint256","name":"timestamp","type":"uint256"}],"name":"RewardPoolChange","type":"event"},{"anonymous":false,"inputs":[{"indexed":true,"internalType":"bytes32","name":"role","type":"bytes32"},{"indexed":true,"internalType":"bytes32","name":"previousAdminRole","type":"bytes32"},{"indexed":true,"internalType":"bytes32","name":"newAdminRole","type":"bytes32"}],"name":"RoleAdminChanged","type":"event"},{"anonymous":false,"inputs":[{"indexed":true,"internalType":"bytes32","name":"role","type":"bytes32"},{"indexed":true,"internalType":"address","name":"account","type":"address"},{"indexed":true,"internalType":"address","name":"sender","type":"address"}],"name":"RoleGranted","type":"event"},{"anonymous":false,"inputs":[{"indexed":true,"internalType":"bytes32","name":"role","type":"bytes32"},{"indexed":true,"internalType":"address","name":"account","type":"address"},{"indexed":true,"internalType":"address","name":"sender","type":"address"}],"name":"RoleRevoked","type":"event"},{"anonymous":false,"inputs":[{"indexed":true,"internalType":"uint256","name":"stakerId","type":"uint256"},{"indexed":false,"internalType":"uint256","name":"previousStake","type":"uint256"},{"indexed":false,"internalType":"uint256","name":"newStake","type":"uint256"},{"indexed":false,"internalType":"string","name":"reason","type":"string"},{"indexed":false,"internalType":"uint256","name":"epoch","type":"uint256"},{"indexed":false,"internalType":"uint256","name":"timestamp","type":"uint256"}],"name":"StakeChange","type":"event"},{"anonymous":false,"inputs":[{"indexed":false,"internalType":"uint256","name":"epoch","type":"uint256"},{"indexed":false,"internalType":"uint256","name":"prevStakeGettingReward","type":"uint256"},{"indexed":false,"internalType":"uint256","name":"stakeGettingReward","type":"uint256"},{"indexed":false,"internalType":"uint256","name":"timestamp","type":"uint256"}],"name":"StakeGettingRewardChange","type":"event"},{"anonymous":false,"inputs":[{"indexed":false,"internalType":"uint256","name":"epoch","type":"uint256"},{"indexed":true,"internalType":"uint256","name":"stakerId","type":"uint256"},{"indexed":false,"internalType":"uint256","name":"previousStake","type":"uint256"},{"indexed":false,"internalType":"uint256","name":"newStake","type":"uint256"},{"indexed":false,"internalType":"uint256","name":"timestamp","type":"uint256"}],"name":"Staked","type":"event"},{"anonymous":false,"inputs":[{"indexed":false,"internalType":"uint256","name":"epoch","type":"uint256"},{"indexed":true,"internalType":"uint256","name":"stakerId","type":"uint256"},{"indexed":false,"internalType":"uint256","name":"amount","type":"uint256"},{"indexed":false,"internalType":"uint256","name":"newStake","type":"uint256"},{"indexed":false,"internalType":"uint256","name":"timestamp","type":"uint256"}],"name":"Unstaked","type":"event"},{"anonymous":false,"inputs":[{"indexed":false,"internalType":"uint256","name":"epoch","type":"uint256"},{"indexed":true,"internalType":"uint256","name":"stakerId","type":"uint256"},{"indexed":false,"internalType":"uint256","name":"amount","type":"uint256"},{"indexed":false,"internalType":"uint256","name":"newStake","type":"uint256"},{"indexed":false,"internalType":"uint256","name":"timestamp","type":"uint256"}],"name":"Withdrew","type":"event"},{"anonymous":false,"inputs":[{"indexed":true,"internalType":"address","name":"account","type":"address"}],"name":"WriterAdded","type":"event"},{"anonymous":false,"inputs":[{"indexed":true,"internalType":"address","name":"account","type":"address"}],"name":"WriterRemoved","type":"event"},{"inputs":[],"name":"DEFAULT_ADMIN_ROLE","outputs":[{"internalType":"bytes32","name":"","type":"bytes32"}],"stateMutability":"view","type":"function"},{"inputs":[{"internalType":"address","name":"account","type":"address"}],"name":"addWriter","outputs":[],"stateMutability":"nonpayable","type":"function"},{"inputs":[],"name":"blockManager","outputs":[{"internalType":"contract IBlockManager","name":"","type":"address"}],"stateMutability":"view","type":"function"},{"inputs":[{"internalType":"uint256","name":"epochs","type":"uint256"},{"internalType":"uint256","name":"stakeValue","type":"uint256"}],"name":"calculateInactivityPenalties","outputs":[{"internalType":"uint256","name":"","type":"uint256"}],"stateMutability":"pure","type":"function"},{"inputs":[],"name":"getNumStakers","outputs":[{"internalType":"uint256","name":"","type":"uint256"}],"stateMutability":"view","type":"function"},{"inputs":[],"name":"getRewardPool","outputs":[{"internalType":"uint256","name":"","type":"uint256"}],"stateMutability":"view","type":"function"},{"inputs":[{"internalType":"bytes32","name":"role","type":"bytes32"}],"name":"getRoleAdmin","outputs":[{"internalType":"bytes32","name":"","type":"bytes32"}],"stateMutability":"view","type":"function"},{"inputs":[{"internalType":"bytes32","name":"role","type":"bytes32"},{"internalType":"uint256","name":"index","type":"uint256"}],"name":"getRoleMember","outputs":[{"internalType":"address","name":"","type":"address"}],"stateMutability":"view","type":"function"},{"inputs":[{"internalType":"bytes32","name":"role","type":"bytes32"}],"name":"getRoleMemberCount","outputs":[{"internalType":"uint256","name":"","type":"uint256"}],"stateMutability":"view","type":"function"},{"inputs":[],"name":"getStakeGettingReward","outputs":[{"internalType":"uint256","name":"","type":"uint256"}],"stateMutability":"view","type":"function"},{"inputs":[{"internalType":"uint256","name":"_id","type":"uint256"}],"name":"getStaker","outputs":[{"components":[{"internalType":"uint256","name":"id","type":"uint256"},{"internalType":"address","name":"_address","type":"address"},{"internalType":"uint256","name":"stake","type":"uint256"},{"internalType":"uint256","name":"epochStaked","type":"uint256"},{"internalType":"uint256","name":"epochLastCommitted","type":"uint256"},{"internalType":"uint256","name":"epochLastRevealed","type":"uint256"},{"internalType":"uint256","name":"unstakeAfter","type":"uint256"},{"internalType":"uint256","name":"withdrawAfter","type":"uint256"}],"internalType":"struct Structs.Staker","name":"staker","type":"tuple"}],"stateMutability":"view","type":"function"},{"inputs":[{"internalType":"address","name":"_address","type":"address"}],"name":"getStakerId","outputs":[{"internalType":"uint256","name":"","type":"uint256"}],"stateMutability":"view","type":"function"},{"inputs":[{"internalType":"uint256","name":"stakerId","type":"uint256"},{"internalType":"uint256","name":"epoch","type":"uint256"}],"name":"giveBlockReward","outputs":[],"stateMutability":"nonpayable","type":"function"},{"inputs":[{"internalType":"uint256","name":"stakerId","type":"uint256"},{"internalType":"uint256","name":"epoch","type":"uint256"}],"name":"givePenalties","outputs":[],"stateMutability":"nonpayable","type":"function"},{"inputs":[{"internalType":"uint256","name":"stakerId","type":"uint256"},{"internalType":"uint256","name":"epoch","type":"uint256"}],"name":"giveRewards","outputs":[],"stateMutability":"nonpayable","type":"function"},{"inputs":[{"internalType":"bytes32","name":"role","type":"bytes32"},{"internalType":"address","name":"account","type":"address"}],"name":"grantRole","outputs":[],"stateMutability":"nonpayable","type":"function"},{"inputs":[{"internalType":"bytes32","name":"role","type":"bytes32"},{"internalType":"address","name":"account","type":"address"}],"name":"hasRole","outputs":[{"internalType":"bool","name":"","type":"bool"}],"stateMutability":"view","type":"function"},{"inputs":[{"internalType":"address","name":"_schAddress","type":"address"},{"internalType":"address","name":"_voteManagerAddress","type":"address"},{"internalType":"address","name":"_blockManagerAddress","type":"address"},{"internalType":"address","name":"_stateManagerAddress","type":"address"}],"name":"init","outputs":[],"stateMutability":"nonpayable","type":"function"},{"inputs":[{"internalType":"address","name":"account","type":"address"}],"name":"isWriter","outputs":[{"internalType":"bool","name":"","type":"bool"}],"stateMutability":"view","type":"function"},{"inputs":[],"name":"numStakers","outputs":[{"internalType":"uint256","name":"","type":"uint256"}],"stateMutability":"view","type":"function"},{"inputs":[{"internalType":"bytes32","name":"role","type":"bytes32"},{"internalType":"address","name":"account","type":"address"}],"name":"renounceRole","outputs":[],"stateMutability":"nonpayable","type":"function"},{"inputs":[],"name":"renounceWriter","outputs":[],"stateMutability":"nonpayable","type":"function"},{"inputs":[{"internalType":"bytes32","name":"role","type":"bytes32"},{"internalType":"address","name":"account","type":"address"}],"name":"revokeRole","outputs":[],"stateMutability":"nonpayable","type":"function"},{"inputs":[],"name":"rewardPool","outputs":[{"internalType":"uint256","name":"","type":"uint256"}],"stateMutability":"view","type":"function"},{"inputs":[],"name":"sch","outputs":[{"internalType":"contract SchellingCoin","name":"","type":"address"}],"stateMutability":"view","type":"function"},{"inputs":[{"internalType":"uint256","name":"_id","type":"uint256"},{"internalType":"uint256","name":"_epochLastRevealed","type":"uint256"}],"name":"setStakerEpochLastRevealed","outputs":[],"stateMutability":"nonpayable","type":"function"},{"inputs":[{"internalType":"uint256","name":"_id","type":"uint256"},{"internalType":"uint256","name":"_stake","type":"uint256"},{"internalType":"string","name":"_reason","type":"string"},{"internalType":"uint256","name":"_epoch","type":"uint256"}],"name":"setStakerStake","outputs":[],"stateMutability":"nonpayable","type":"function"},{"inputs":[{"internalType":"uint256","name":"id","type":"uint256"},{"internalType":"address","name":"bountyHunter","type":"address"},{"internalType":"uint256","name":"epoch","type":"uint256"}],"name":"slash","outputs":[],"stateMutability":"nonpayable","type":"function"},{"inputs":[{"internalType":"uint256","name":"epoch","type":"uint256"},{"internalType":"uint256","name":"amount","type":"uint256"}],"name":"stake","outputs":[],"stateMutability":"nonpayable","type":"function"},{"inputs":[],"name":"stakeGettingReward","outputs":[{"internalType":"uint256","name":"","type":"uint256"}],"stateMutability":"view","type":"function"},{"inputs":[{"internalType":"address","name":"","type":"address"}],"name":"stakerIds","outputs":[{"internalType":"uint256","name":"","type":"uint256"}],"stateMutability":"view","type":"function"},{"inputs":[{"internalType":"uint256","name":"","type":"uint256"}],"name":"stakers","outputs":[{"internalType":"uint256","name":"id","type":"uint256"},{"internalType":"address","name":"_address","type":"address"},{"internalType":"uint256","name":"stake","type":"uint256"},{"internalType":"uint256","name":"epochStaked","type":"uint256"},{"internalType":"uint256","name":"epochLastCommitted","type":"uint256"},{"internalType":"uint256","name":"epochLastRevealed","type":"uint256"},{"internalType":"uint256","name":"unstakeAfter","type":"uint256"},{"internalType":"uint256","name":"withdrawAfter","type":"uint256"}],"stateMutability":"view","type":"function"},{"inputs":[],"name":"stateManager","outputs":[{"internalType":"contract IStateManager","name":"","type":"address"}],"stateMutability":"view","type":"function"},{"inputs":[{"internalType":"uint256","name":"epoch","type":"uint256"}],"name":"unstake","outputs":[],"stateMutability":"nonpayable","type":"function"},{"inputs":[{"internalType":"uint256","name":"stakerId","type":"uint256"}],"name":"updateCommitmentEpoch","outputs":[],"stateMutability":"nonpayable","type":"function"},{"inputs":[],"name":"voteManager","outputs":[{"internalType":"contract IVoteManager","name":"","type":"address"}],"stateMutability":"view","type":"function"},{"inputs":[{"internalType":"uint256","name":"epoch","type":"uint256"}],"name":"withdraw","outputs":[],"stateMutability":"nonpayable","type":"function"}],"devdoc":{"kind":"dev","methods":{"calculateInactivityPenalties(uint256,uint256)":{"params":{"epochs":"The difference of epochs where the staker was inactive","stakeValue":"The Stake that staker had in last epoch"}},"getNumStakers()":{"returns":{"_0":"The number of stakers in the razor network"}},"getRewardPool()":{"returns":{"_0":"The rewardpool"}},"getRoleAdmin(bytes32)":{"details":"Returns the admin role that controls `role`. See {grantRole} and {revokeRole}. To change a role's admin, use {_setRoleAdmin}."},"getRoleMember(bytes32,uint256)":{"details":"Returns one of the accounts that have `role`. `index` must be a value between 0 and {getRoleMemberCount}, non-inclusive. Role bearers are not sorted in any particular way, and their ordering may change at any point. WARNING: When using {getRoleMember} and {getRoleMemberCount}, make sure you perform all queries on the same block. See the following https://forum.openzeppelin.com/t/iterating-over-elements-on-enumerableset-in-openzeppelin-contracts/2296[forum post] for more information."},"getRoleMemberCount(bytes32)":{"details":"Returns the number of accounts that have `role`. Can be used together with {getRoleMember} to enumerate all bearers of a role."},"getStakeGettingReward()":{"returns":{"_0":"The stakeGettingReward value"}},"getStaker(uint256)":{"params":{"_id":"The staker ID"},"returns":{"staker":"The Struct of staker information"}},"getStakerId(address)":{"params":{"_address":"Address of the staker"},"returns":{"_0":"The staker ID"}},"giveBlockReward(uint256,uint256)":{"params":{"stakerId":"The ID of the staker"}},"givePenalties(uint256,uint256)":{"params":{"epoch":"the epoch value todo reduce complexity","stakerId":"The id of staker currently in consideration"}},"giveRewards(uint256,uint256)":{"params":{"epoch":"The epoch number for which reveal has been called","stakerId":"The staker id"}},"grantRole(bytes32,address)":{"details":"Grants `role` to `account`. If `account` had not been already granted `role`, emits a {RoleGranted} event. Requirements: - the caller must have ``role``'s admin role."},"hasRole(bytes32,address)":{"details":"Returns `true` if `account` has been granted `role`."},"init(address,address,address,address)":{"params":{"_blockManagerAddress":"The address of the BlockManager contract","_schAddress":"The address of the Schelling token ERC20 contract","_stateManagerAddress":"The address of the StateManager contract todo disable after init","_voteManagerAddress":"The address of the VoteManager contract"}},"renounceRole(bytes32,address)":{"details":"Revokes `role` from the calling account. Roles are often managed via {grantRole} and {revokeRole}: this function's purpose is to provide a mechanism for accounts to lose their privileges if they are compromised (such as when a trusted device is misplaced). If the calling account had been granted `role`, emits a {RoleRevoked} event. Requirements: - the caller must be `account`."},"revokeRole(bytes32,address)":{"details":"Revokes `role` from `account`. If `account` had been granted `role`, emits a {RoleRevoked} event. Requirements: - the caller must have ``role``'s admin role."},"setStakerEpochLastRevealed(uint256,uint256)":{"params":{"_epochLastRevealed":"The number of epoch that staker revealed asset values","_id":"The ID of the staker"}},"setStakerStake(uint256,uint256,string,uint256)":{"params":{"_id":"The ID of the staker","_stake":"The amount of schelling tokens that staker stakes"}},"slash(uint256,address,uint256)":{"params":{"bountyHunter":"The address of the bounty hunter","id":"The ID of the staker who is penalised"}},"stake(uint256,uint256)":{"params":{"amount":"The amount of schelling tokens Staker stakes","epoch":"The Epoch value for which staker is requesting to stake"}},"unstake(uint256)":{"params":{"epoch":"The Epoch value for which staker is requesting to unstake"}},"updateCommitmentEpoch(uint256)":{"params":{"stakerId":"The ID of the staker"}},"withdraw(uint256)":{"params":{"epoch":"The Epoch value for which staker is requesting a withdraw"}}},"title":"StakeManager","version":1},"evm":{"assembly":"    /* \"StakeManager.sol\":502:18683  contract StakeManager is Utils, WriterRole, StakeStorage {... */\n  mstore(0x40, 0x80)\n    /* \"StakeStorage.sol\":290:291  0 */\n  0x00\n    /* \"StakeStorage.sol\":262:291  uint256 public numStakers = 0 */\n  0x03\n  sstore\n    /* \"StakeStorage.sol\":358:359  0 */\n  0x00\n    /* \"StakeStorage.sol\":330:359  uint256 public rewardPool = 0 */\n  0x04\n  sstore\n    /* \"StakeStorage.sol\":401:402  0 */\n  0x00\n    /* \"StakeStorage.sol\":365:402  uint256 public stakeGettingReward = 0 */\n  0x05\n  sstore\n    /* \"StakeManager.sol\":502:18683  contract StakeManager is Utils, WriterRole, StakeStorage {... */\n  callvalue\n  dup1\n  iszero\n  tag_1\n  jumpi\n  0x00\n  dup1\n  revert\ntag_1:\n  pop\n    /* \"WriterRole.sol\":382:396  bytes32 _admin */\n  0x00\n    /* \"WriterRole.sol\":426:436  msg.sender */\n  caller\n    /* \"WriterRole.sol\":409:437  abi.encodePacked(msg.sender) */\n  add(0x20, mload(0x40))\n  tag_4\n  swap2\n  swap1\n  tag_5\n  jump\t// in\ntag_4:\n  mload(0x40)\n  0x20\n  dup2\n  dup4\n  sub\n  sub\n  dup2\n  mstore\n  swap1\n  0x40\n  mstore\n    /* \"WriterRole.sol\":399:438  keccak256(abi.encodePacked(msg.sender)) */\n  dup1\n  mload\n  swap1\n  0x20\n  add\n  keccak256\n    /* \"WriterRole.sol\":382:438  bytes32 _admin = keccak256(abi.encodePacked(msg.sender)) */\n  swap1\n  pop\n    /* \"WriterRole.sol\":448:475  _setRoleAdmin(role, _admin) */\n  tag_6\n    /* \"WriterRole.sol\":313:332  keccak256(\"Writer\") */\n  mload(0x40)\n  tag_7\n  swap1\n  tag_8\n  jump\t// in\ntag_7:\n  mload(0x40)\n  dup1\n  swap2\n  sub\n  swap1\n  keccak256\n    /* \"WriterRole.sol\":468:474  _admin */\n  dup3\n    /* \"WriterRole.sol\":448:461  _setRoleAdmin */\n  shl(0x20, tag_9)\n    /* \"WriterRole.sol\":448:475  _setRoleAdmin(role, _admin) */\n  0x20\n  shr\n  jump\t// in\ntag_6:\n    /* \"WriterRole.sol\":485:513  _setupRole(role, msg.sender) */\n  tag_10\n    /* \"WriterRole.sol\":313:332  keccak256(\"Writer\") */\n  mload(0x40)\n  tag_11\n  swap1\n  tag_8\n  jump\t// in\ntag_11:\n  mload(0x40)\n  dup1\n  swap2\n  sub\n  swap1\n  keccak256\n    /* \"WriterRole.sol\":502:512  msg.sender */\n  caller\n    /* \"WriterRole.sol\":485:495  _setupRole */\n  shl(0x20, tag_12)\n    /* \"WriterRole.sol\":485:513  _setupRole(role, msg.sender) */\n  0x20\n  shr\n  jump\t// in\ntag_10:\n    /* \"WriterRole.sol\":348:520  constructor () internal {... */\n  pop\n    /* \"StakeManager.sol\":502:18683  contract StakeManager is Utils, WriterRole, StakeStorage {... */\n  jump(tag_13)\n    /* \"openzeppelin-solidity/contracts/access/AccessControl.sol\":6813:7009   */\ntag_9:\n    /* \"openzeppelin-solidity/contracts/access/AccessControl.sol\":6948:6957   */\n  dup1\n    /* \"openzeppelin-solidity/contracts/access/AccessControl.sol\":6924:6930   */\n  0x00\n    /* \"openzeppelin-solidity/contracts/access/AccessControl.sol\":6924:6936   */\n  dup1\n    /* \"openzeppelin-solidity/contracts/access/AccessControl.sol\":6931:6935   */\n  dup5\n    /* \"openzeppelin-solidity/contracts/access/AccessControl.sol\":6924:6936   */\n  dup2\n  mstore\n  0x20\n  add\n  swap1\n  dup2\n  mstore\n  0x20\n  add\n  0x00\n  keccak256\n    /* \"openzeppelin-solidity/contracts/access/AccessControl.sol\":6924:6946   */\n  0x02\n  add\n  sload\n    /* \"openzeppelin-solidity/contracts/access/AccessControl.sol\":6918:6922   */\n  dup4\n    /* \"openzeppelin-solidity/contracts/access/AccessControl.sol\":6901:6958   */\n  0xbd79b86ffe0ab8e8776151514217cd7cacd52c909f66475c3af44e129f0b00ff\n  mload(0x40)\n  mload(0x40)\n  dup1\n  swap2\n  sub\n  swap1\n  log4\n    /* \"openzeppelin-solidity/contracts/access/AccessControl.sol\":6993:7002   */\n  dup1\n    /* \"openzeppelin-solidity/contracts/access/AccessControl.sol\":6968:6974   */\n  0x00\n    /* \"openzeppelin-solidity/contracts/access/AccessControl.sol\":6968:6980   */\n  dup1\n    /* \"openzeppelin-solidity/contracts/access/AccessControl.sol\":6975:6979   */\n  dup5\n    /* \"openzeppelin-solidity/contracts/access/AccessControl.sol\":6968:6980   */\n  dup2\n  mstore\n  0x20\n  add\n  swap1\n  dup2\n  mstore\n  0x20\n  add\n  0x00\n  keccak256\n    /* \"openzeppelin-solidity/contracts/access/AccessControl.sol\":6968:6990   */\n  0x02\n  add\n    /* \"openzeppelin-solidity/contracts/access/AccessControl.sol\":6968:7002   */\n  dup2\n  swap1\n  sstore\n  pop\n    /* \"openzeppelin-solidity/contracts/access/AccessControl.sol\":6813:7009   */\n  pop\n  pop\n  jump\t// out\n    /* \"openzeppelin-solidity/contracts/access/AccessControl.sol\":6578:6688   */\ntag_12:\n    /* \"openzeppelin-solidity/contracts/access/AccessControl.sol\":6656:6681   */\n  tag_16\n    /* \"openzeppelin-solidity/contracts/access/AccessControl.sol\":6667:6671   */\n  dup3\n    /* \"openzeppelin-solidity/contracts/access/AccessControl.sol\":6673:6680   */\n  dup3\n    /* \"openzeppelin-solidity/contracts/access/AccessControl.sol\":6656:6666   */\n  shl(0x20, tag_17)\n    /* \"openzeppelin-solidity/contracts/access/AccessControl.sol\":6656:6681   */\n  0x20\n  shr\n  jump\t// in\ntag_16:\n    /* \"openzeppelin-solidity/contracts/access/AccessControl.sol\":6578:6688   */\n  pop\n  pop\n  jump\t// out\n    /* \"openzeppelin-solidity/contracts/access/AccessControl.sol\":7015:7199   */\ntag_17:\n    /* \"openzeppelin-solidity/contracts/access/AccessControl.sol\":7088:7121   */\n  tag_19\n    /* \"openzeppelin-solidity/contracts/access/AccessControl.sol\":7113:7120   */\n  dup2\n    /* \"openzeppelin-solidity/contracts/access/AccessControl.sol\":7088:7094   */\n  0x00\n    /* \"openzeppelin-solidity/contracts/access/AccessControl.sol\":7088:7100   */\n  dup1\n    /* \"openzeppelin-solidity/contracts/access/AccessControl.sol\":7095:7099   */\n  dup6\n    /* \"openzeppelin-solidity/contracts/access/AccessControl.sol\":7088:7100   */\n  dup2\n  mstore\n  0x20\n  add\n  swap1\n  dup2\n  mstore\n  0x20\n  add\n  0x00\n  keccak256\n    /* \"openzeppelin-solidity/contracts/access/AccessControl.sol\":7088:7108   */\n  0x00\n  add\n    /* \"openzeppelin-solidity/contracts/access/AccessControl.sol\":7088:7112   */\n  or(tag_0_186, shl(0x20, tag_20))\n  swap1\n    /* \"openzeppelin-solidity/contracts/access/AccessControl.sol\":7088:7121   */\n  swap2\n  swap1\n  0x20\n  shr\n  jump\t// in\ntag_19:\n    /* \"openzeppelin-solidity/contracts/access/AccessControl.sol\":7084:7193   */\n  iszero\n  tag_21\n  jumpi\n    /* \"openzeppelin-solidity/contracts/access/AccessControl.sol\":7169:7181   */\n  tag_22\n    /* \"openzeppelin-solidity/contracts/access/AccessControl.sol\":7169:7179   */\n  shl(0x20, tag_23)\n    /* \"openzeppelin-solidity/contracts/access/AccessControl.sol\":7169:7181   */\n  0x20\n  shr\n  jump\t// in\ntag_22:\n    /* \"openzeppelin-solidity/contracts/access/AccessControl.sol\":7142:7182   */\n  0xffffffffffffffffffffffffffffffffffffffff\n  and\n    /* \"openzeppelin-solidity/contracts/access/AccessControl.sol\":7160:7167   */\n  dup2\n    /* \"openzeppelin-solidity/contracts/access/AccessControl.sol\":7142:7182   */\n  0xffffffffffffffffffffffffffffffffffffffff\n  and\n    /* \"openzeppelin-solidity/contracts/access/AccessControl.sol\":7154:7158   */\n  dup4\n    /* \"openzeppelin-solidity/contracts/access/AccessControl.sol\":7142:7182   */\n  0x2f8788117e7eff1d82e926ec794901d17c78024a50270940304540a733656f0d\n  mload(0x40)\n  mload(0x40)\n  dup1\n  swap2\n  sub\n  swap1\n  log4\n    /* \"openzeppelin-solidity/contracts/access/AccessControl.sol\":7084:7193   */\ntag_21:\n    /* \"openzeppelin-solidity/contracts/access/AccessControl.sol\":7015:7199   */\n  pop\n  pop\n  jump\t// out\n    /* \"openzeppelin-solidity/contracts/utils/EnumerableSet.sol\":4864:5005   */\ntag_20:\n    /* \"openzeppelin-solidity/contracts/utils/EnumerableSet.sol\":4934:4938   */\n  0x00\n    /* \"openzeppelin-solidity/contracts/utils/EnumerableSet.sol\":4957:4998   */\n  tag_25\n    /* \"openzeppelin-solidity/contracts/utils/EnumerableSet.sol\":4962:4965   */\n  dup4\n    /* \"openzeppelin-solidity/contracts/utils/EnumerableSet.sol\":4962:4972   */\n  0x00\n  add\n    /* \"openzeppelin-solidity/contracts/utils/EnumerableSet.sol\":4990:4995   */\n  dup4\n    /* \"openzeppelin-solidity/contracts/utils/EnumerableSet.sol\":4982:4996   */\n  0xffffffffffffffffffffffffffffffffffffffff\n  and\n    /* \"openzeppelin-solidity/contracts/utils/EnumerableSet.sol\":4974:4997   */\n  0x00\n  shl\n    /* \"openzeppelin-solidity/contracts/utils/EnumerableSet.sol\":4957:4961   */\n  shl(0x20, tag_26)\n    /* \"openzeppelin-solidity/contracts/utils/EnumerableSet.sol\":4957:4998   */\n  0x20\n  shr\n  jump\t// in\ntag_25:\n    /* \"openzeppelin-solidity/contracts/utils/EnumerableSet.sol\":4950:4998   */\n  swap1\n  pop\n    /* \"openzeppelin-solidity/contracts/utils/EnumerableSet.sol\":4864:5005   */\n  swap3\n  swap2\n  pop\n  pop\n  jump\t// out\n    /* \"openzeppelin-solidity/contracts/GSN/Context.sol\":590:694   */\ntag_23:\n    /* \"openzeppelin-solidity/contracts/GSN/Context.sol\":643:658   */\n  0x00\n    /* \"openzeppelin-solidity/contracts/GSN/Context.sol\":677:687   */\n  caller\n    /* \"openzeppelin-solidity/contracts/GSN/Context.sol\":670:687   */\n  swap1\n  pop\n    /* \"openzeppelin-solidity/contracts/GSN/Context.sol\":590:694   */\n  swap1\n  jump\t// out\n    /* \"openzeppelin-solidity/contracts/utils/EnumerableSet.sol\":1611:2015   */\ntag_26:\n    /* \"openzeppelin-solidity/contracts/utils/EnumerableSet.sol\":1674:1678   */\n  0x00\n    /* \"openzeppelin-solidity/contracts/utils/EnumerableSet.sol\":1695:1716   */\n  tag_29\n    /* \"openzeppelin-solidity/contracts/utils/EnumerableSet.sol\":1705:1708   */\n  dup4\n    /* \"openzeppelin-solidity/contracts/utils/EnumerableSet.sol\":1710:1715   */\n  dup4\n    /* \"openzeppelin-solidity/contracts/utils/EnumerableSet.sol\":1695:1704   */\n  shl(0x20, tag_30)\n    /* \"openzeppelin-solidity/contracts/utils/EnumerableSet.sol\":1695:1716   */\n  0x20\n  shr\n  jump\t// in\ntag_29:\n    /* \"openzeppelin-solidity/contracts/utils/EnumerableSet.sol\":1690:2009   */\n  tag_31\n  jumpi\n    /* \"openzeppelin-solidity/contracts/utils/EnumerableSet.sol\":1732:1735   */\n  dup3\n    /* \"openzeppelin-solidity/contracts/utils/EnumerableSet.sol\":1732:1743   */\n  0x00\n  add\n    /* \"openzeppelin-solidity/contracts/utils/EnumerableSet.sol\":1749:1754   */\n  dup3\n    /* \"openzeppelin-solidity/contracts/utils/EnumerableSet.sol\":1732:1755   */\n  swap1\n  dup1\n  0x01\n  dup2\n  sload\n  add\n  dup1\n  dup3\n  sstore\n  dup1\n  swap2\n  pop\n  pop\n  0x01\n  swap1\n  sub\n  swap1\n  0x00\n  mstore\n  keccak256(0x00, 0x20)\n  add\n  0x00\n  swap1\n  swap2\n  swap1\n  swap2\n  swap1\n  swap2\n  pop\n  sstore\n    /* \"openzeppelin-solidity/contracts/utils/EnumerableSet.sol\":1912:1915   */\n  dup3\n    /* \"openzeppelin-solidity/contracts/utils/EnumerableSet.sol\":1912:1923   */\n  0x00\n  add\n    /* \"openzeppelin-solidity/contracts/utils/EnumerableSet.sol\":1912:1930   */\n  dup1\n  sload\n  swap1\n  pop\n    /* \"openzeppelin-solidity/contracts/utils/EnumerableSet.sol\":1890:1893   */\n  dup4\n    /* \"openzeppelin-solidity/contracts/utils/EnumerableSet.sol\":1890:1902   */\n  0x01\n  add\n    /* \"openzeppelin-solidity/contracts/utils/EnumerableSet.sol\":1890:1909   */\n  0x00\n    /* \"openzeppelin-solidity/contracts/utils/EnumerableSet.sol\":1903:1908   */\n  dup5\n    /* \"openzeppelin-solidity/contracts/utils/EnumerableSet.sol\":1890:1909   */\n  dup2\n  mstore\n  0x20\n  add\n  swap1\n  dup2\n  mstore\n  0x20\n  add\n  0x00\n  keccak256\n    /* \"openzeppelin-solidity/contracts/utils/EnumerableSet.sol\":1890:1930   */\n  dup2\n  swap1\n  sstore\n  pop\n    /* \"openzeppelin-solidity/contracts/utils/EnumerableSet.sol\":1951:1955   */\n  0x01\n    /* \"openzeppelin-solidity/contracts/utils/EnumerableSet.sol\":1944:1955   */\n  swap1\n  pop\n  jump(tag_28)\n    /* \"openzeppelin-solidity/contracts/utils/EnumerableSet.sol\":1690:2009   */\ntag_31:\n    /* \"openzeppelin-solidity/contracts/utils/EnumerableSet.sol\":1993:1998   */\n  0x00\n    /* \"openzeppelin-solidity/contracts/utils/EnumerableSet.sol\":1986:1998   */\n  swap1\n  pop\n    /* \"openzeppelin-solidity/contracts/utils/EnumerableSet.sol\":1611:2015   */\ntag_28:\n  swap3\n  swap2\n  pop\n  pop\n  jump\t// out\n    /* \"openzeppelin-solidity/contracts/utils/EnumerableSet.sol\":3776:3903   */\ntag_30:\n    /* \"openzeppelin-solidity/contracts/utils/EnumerableSet.sol\":3849:3853   */\n  0x00\n    /* \"openzeppelin-solidity/contracts/utils/EnumerableSet.sol\":3895:3896   */\n  dup1\n    /* \"openzeppelin-solidity/contracts/utils/EnumerableSet.sol\":3872:3875   */\n  dup4\n    /* \"openzeppelin-solidity/contracts/utils/EnumerableSet.sol\":3872:3884   */\n  0x01\n  add\n    /* \"openzeppelin-solidity/contracts/utils/EnumerableSet.sol\":3872:3891   */\n  0x00\n    /* \"openzeppelin-solidity/contracts/utils/EnumerableSet.sol\":3885:3890   */\n  dup5\n    /* \"openzeppelin-solidity/contracts/utils/EnumerableSet.sol\":3872:3891   */\n  dup2\n  mstore\n  0x20\n  add\n  swap1\n  dup2\n  mstore\n  0x20\n  add\n  0x00\n  keccak256\n  sload\n    /* \"openzeppelin-solidity/contracts/utils/EnumerableSet.sol\":3872:3896   */\n  eq\n  iszero\n    /* \"openzeppelin-solidity/contracts/utils/EnumerableSet.sol\":3865:3896   */\n  swap1\n  pop\n    /* \"openzeppelin-solidity/contracts/utils/EnumerableSet.sol\":3776:3903   */\n  swap3\n  swap2\n  pop\n  pop\n  jump\t// out\n    /* \"--CODEGEN--\":5:189   */\ntag_36:\n    /* \"--CODEGEN--\":122:183   */\n  tag_38\n    /* \"--CODEGEN--\":150:182   */\n  tag_39\n    /* \"--CODEGEN--\":176:181   */\n  dup3\n    /* \"--CODEGEN--\":150:182   */\n  tag_40\n  jump\t// in\ntag_39:\n    /* \"--CODEGEN--\":122:183   */\n  tag_41\n  jump\t// in\ntag_38:\n    /* \"--CODEGEN--\":117:120   */\n  dup3\n    /* \"--CODEGEN--\":110:184   */\n  mstore\n    /* \"--CODEGEN--\":104:189   */\n  pop\n  pop\n  jump\t// out\n    /* \"--CODEGEN--\":197:537   */\ntag_42:\n  0x00\n    /* \"--CODEGEN--\":375:459   */\n  tag_44\n    /* \"--CODEGEN--\":457:458   */\n  0x06\n    /* \"--CODEGEN--\":452:455   */\n  dup4\n    /* \"--CODEGEN--\":375:459   */\n  tag_45\n  jump\t// in\ntag_44:\n    /* \"--CODEGEN--\":368:459   */\n  swap2\n  pop\n    /* \"--CODEGEN--\":492:500   */\n  0x5772697465720000000000000000000000000000000000000000000000000000\n    /* \"--CODEGEN--\":488:489   */\n  0x00\n    /* \"--CODEGEN--\":483:486   */\n  dup4\n    /* \"--CODEGEN--\":479:490   */\n  add\n    /* \"--CODEGEN--\":472:501   */\n  mstore\n    /* \"--CODEGEN--\":529:530   */\n  0x06\n    /* \"--CODEGEN--\":524:527   */\n  dup3\n    /* \"--CODEGEN--\":520:531   */\n  add\n    /* \"--CODEGEN--\":513:531   */\n  swap1\n  pop\n    /* \"--CODEGEN--\":361:537   */\n  swap2\n  swap1\n  pop\n  jump\t// out\n    /* \"--CODEGEN--\":545:830   */\ntag_5:\n  0x00\n    /* \"--CODEGEN--\":689:780   */\n  tag_47\n    /* \"--CODEGEN--\":776:779   */\n  dup3\n    /* \"--CODEGEN--\":767:773   */\n  dup5\n    /* \"--CODEGEN--\":689:780   */\n  tag_36\n  jump\t// in\ntag_47:\n    /* \"--CODEGEN--\":802:804   */\n  0x14\n    /* \"--CODEGEN--\":797:800   */\n  dup3\n    /* \"--CODEGEN--\":793:805   */\n  add\n    /* \"--CODEGEN--\":786:805   */\n  swap2\n  pop\n    /* \"--CODEGEN--\":822:825   */\n  dup2\n    /* \"--CODEGEN--\":815:825   */\n  swap1\n  pop\n    /* \"--CODEGEN--\":677:830   */\n  swap3\n  swap2\n  pop\n  pop\n  jump\t// out\n    /* \"--CODEGEN--\":837:1218   */\ntag_8:\n  0x00\n    /* \"--CODEGEN--\":1045:1193   */\n  tag_49\n    /* \"--CODEGEN--\":1189:1192   */\n  dup3\n    /* \"--CODEGEN--\":1045:1193   */\n  tag_42\n  jump\t// in\ntag_49:\n    /* \"--CODEGEN--\":1038:1193   */\n  swap2\n  pop\n    /* \"--CODEGEN--\":1210:1213   */\n  dup2\n    /* \"--CODEGEN--\":1203:1213   */\n  swap1\n  pop\n    /* \"--CODEGEN--\":1026:1218   */\n  swap2\n  swap1\n  pop\n  jump\t// out\n    /* \"--CODEGEN--\":1226:1371   */\ntag_45:\n  0x00\n    /* \"--CODEGEN--\":1362:1365   */\n  dup2\n    /* \"--CODEGEN--\":1347:1365   */\n  swap1\n  pop\n    /* \"--CODEGEN--\":1340:1371   */\n  swap3\n  swap2\n  pop\n  pop\n  jump\t// out\n    /* \"--CODEGEN--\":1379:1478   */\ntag_40:\n  0x00\n    /* \"--CODEGEN--\":1449:1473   */\n  tag_52\n    /* \"--CODEGEN--\":1467:1472   */\n  dup3\n    /* \"--CODEGEN--\":1449:1473   */\n  tag_53\n  jump\t// in\ntag_52:\n    /* \"--CODEGEN--\":1438:1473   */\n  swap1\n  pop\n    /* \"--CODEGEN--\":1432:1478   */\n  swap2\n  swap1\n  pop\n  jump\t// out\n    /* \"--CODEGEN--\":1485:1606   */\ntag_53:\n  0x00\n    /* \"--CODEGEN--\":1558:1600   */\n  0xffffffffffffffffffffffffffffffffffffffff\n    /* \"--CODEGEN--\":1551:1556   */\n  dup3\n    /* \"--CODEGEN--\":1547:1601   */\n  and\n    /* \"--CODEGEN--\":1536:1601   */\n  swap1\n  pop\n    /* \"--CODEGEN--\":1530:1606   */\n  swap2\n  swap1\n  pop\n  jump\t// out\n    /* \"--CODEGEN--\":1613:1716   */\ntag_41:\n  0x00\n    /* \"--CODEGEN--\":1685:1711   */\n  tag_56\n    /* \"--CODEGEN--\":1705:1710   */\n  dup3\n    /* \"--CODEGEN--\":1685:1711   */\n  tag_57\n  jump\t// in\ntag_56:\n    /* \"--CODEGEN--\":1674:1711   */\n  swap1\n  pop\n    /* \"--CODEGEN--\":1668:1716   */\n  swap2\n  swap1\n  pop\n  jump\t// out\n    /* \"--CODEGEN--\":1723:1812   */\ntag_57:\n  0x00\n    /* \"--CODEGEN--\":1787:1807   */\n  tag_59\n    /* \"--CODEGEN--\":1801:1806   */\n  dup3\n    /* \"--CODEGEN--\":1787:1807   */\n  tag_60\n  jump\t// in\ntag_59:\n    /* \"--CODEGEN--\":1776:1807   */\n  swap1\n  pop\n    /* \"--CODEGEN--\":1770:1812   */\n  swap2\n  swap1\n  pop\n  jump\t// out\n    /* \"--CODEGEN--\":1819:1913   */\ntag_60:\n  0x00\n    /* \"--CODEGEN--\":1897:1902   */\n  dup2\n    /* \"--CODEGEN--\":1893:1895   */\n  0x60\n    /* \"--CODEGEN--\":1889:1903   */\n  shl\n    /* \"--CODEGEN--\":1867:1903   */\n  swap1\n  pop\n    /* \"--CODEGEN--\":1861:1913   */\n  swap2\n  swap1\n  pop\n  jump\t// out\n    /* \"StakeManager.sol\":502:18683  contract StakeManager is Utils, WriterRole, StakeStorage {... */\ntag_13:\n  dataSize(sub_0)\n  dup1\n  dataOffset(sub_0)\n  0x00\n  codecopy\n  0x00\n  return\nstop\n\nsub_0: assembly {\n        /* \"StakeManager.sol\":502:18683  contract StakeManager is Utils, WriterRole, StakeStorage {... */\n      mstore(0x40, 0x80)\n      callvalue\n      dup1\n      iszero\n      tag_1\n      jumpi\n      0x00\n      dup1\n      revert\n    tag_1:\n      pop\n      jumpi(tag_2, lt(calldatasize, 0x04))\n      shr(0xe0, calldataload(0x00))\n      dup1\n      0x6c8b052a\n      gt\n      tag_40\n      jumpi\n      dup1\n      0xc584bb9f\n      gt\n      tag_41\n      jumpi\n      dup1\n      0xda2824a8\n      gt\n      tag_42\n      jumpi\n      dup1\n      0xda2824a8\n      eq\n      tag_35\n      jumpi\n      dup1\n      0xdf4eb59c\n      eq\n      tag_36\n      jumpi\n      dup1\n      0xe3c998fe\n      eq\n      tag_37\n      jumpi\n      dup1\n      0xfabb9890\n      eq\n      tag_38\n      jumpi\n      dup1\n      0xfd5e6dd1\n      eq\n      tag_39\n      jumpi\n      jump(tag_2)\n    tag_42:\n      dup1\n      0xc584bb9f\n      eq\n      tag_30\n      jumpi\n      dup1\n      0xc8ae0d7d\n      eq\n      tag_31\n      jumpi\n      dup1\n      0xca15c873\n      eq\n      tag_32\n      jumpi\n      dup1\n      0xd547741f\n      eq\n      tag_33\n      jumpi\n      dup1\n      0xd9169b32\n      eq\n      tag_34\n      jumpi\n      jump(tag_2)\n    tag_41:\n      dup1\n      0x91d14854\n      gt\n      tag_43\n      jumpi\n      dup1\n      0x91d14854\n      eq\n      tag_25\n      jumpi\n      dup1\n      0x9864f70a\n      eq\n      tag_26\n      jumpi\n      dup1\n      0xa217fddf\n      eq\n      tag_27\n      jumpi\n      dup1\n      0xa8a3e96f\n      eq\n      tag_28\n      jumpi\n      dup1\n      0xbc788d46\n      eq\n      tag_29\n      jumpi\n      jump(tag_2)\n    tag_43:\n      dup1\n      0x6c8b052a\n      eq\n      tag_21\n      jumpi\n      dup1\n      0x746c8b65\n      eq\n      tag_22\n      jumpi\n      dup1\n      0x7b0472f0\n      eq\n      tag_23\n      jumpi\n      dup1\n      0x9010d07c\n      eq\n      tag_24\n      jumpi\n      jump(tag_2)\n    tag_40:\n      dup1\n      0x2e17de78\n      gt\n      tag_44\n      jumpi\n      dup1\n      0x36568abe\n      gt\n      tag_45\n      jumpi\n      dup1\n      0x36568abe\n      eq\n      tag_16\n      jumpi\n      dup1\n      0x42c1e587\n      eq\n      tag_17\n      jumpi\n      dup1\n      0x54eae15e\n      eq\n      tag_18\n      jumpi\n      dup1\n      0x6022a485\n      eq\n      tag_19\n      jumpi\n      dup1\n      0x66666aa9\n      eq\n      tag_20\n      jumpi\n      jump(tag_2)\n    tag_45:\n      dup1\n      0x2e17de78\n      eq\n      tag_12\n      jumpi\n      dup1\n      0x2e1a7d4d\n      eq\n      tag_13\n      jumpi\n      dup1\n      0x2e716fb1\n      eq\n      tag_14\n      jumpi\n      dup1\n      0x2f2ff15d\n      eq\n      tag_15\n      jumpi\n      jump(tag_2)\n    tag_44:\n      dup1\n      0x1a69f008\n      gt\n      tag_46\n      jumpi\n      dup1\n      0x1a69f008\n      eq\n      tag_7\n      jumpi\n      dup1\n      0x1ad54991\n      eq\n      tag_8\n      jumpi\n      dup1\n      0x1b8b13a7\n      eq\n      tag_9\n      jumpi\n      dup1\n      0x248a9ca3\n      eq\n      tag_10\n      jumpi\n      dup1\n      0x2b29ba23\n      eq\n      tag_11\n      jumpi\n      jump(tag_2)\n    tag_46:\n      dup1\n      0x06552ff3\n      eq\n      tag_3\n      jumpi\n      dup1\n      0x0ec88d3f\n      eq\n      tag_4\n      jumpi\n      dup1\n      0x0f91ce19\n      eq\n      tag_5\n      jumpi\n      dup1\n      0x188dc83b\n      eq\n      tag_6\n      jumpi\n    tag_2:\n      0x00\n      dup1\n      revert\n        /* \"StakeManager.sol\":1341:1709  function init (address _schAddress, address _voteManagerAddress,... */\n    tag_3:\n      tag_47\n      0x04\n      dup1\n      calldatasize\n      sub\n      dup2\n      add\n      swap1\n      tag_48\n      swap2\n      swap1\n      tag_49\n      jump\t// in\n    tag_48:\n      tag_50\n      jump\t// in\n    tag_47:\n      stop\n        /* \"StakeStorage.sol\":365:402  uint256 public stakeGettingReward = 0 */\n    tag_4:\n      tag_51\n      tag_52\n      jump\t// in\n    tag_51:\n      mload(0x40)\n      tag_53\n      swap2\n      swap1\n      tag_54\n      jump\t// in\n    tag_53:\n      mload(0x40)\n      dup1\n      swap2\n      sub\n      swap1\n      return\n        /* \"StakeManager.sol\":11865:12302  function slash (uint256 id, address bountyHunter, uint256 epoch) external onlyWriter {... */\n    tag_5:\n      tag_55\n      0x04\n      dup1\n      calldatasize\n      sub\n      dup2\n      add\n      swap1\n      tag_56\n      swap2\n      swap1\n      tag_57\n      jump\t// in\n    tag_56:\n      tag_58\n      jump\t// in\n    tag_55:\n      stop\n        /* \"StakeManager.sol\":2750:2898  function updateCommitmentEpoch(uint256 stakerId) external onlyWriter {... */\n    tag_6:\n      tag_59\n      0x04\n      dup1\n      calldatasize\n      sub\n      dup2\n      add\n      swap1\n      tag_60\n      swap2\n      swap1\n      tag_61\n      jump\t// in\n    tag_60:\n      tag_62\n      jump\t// in\n    tag_59:\n      stop\n        /* \"StakeManager.sol\":13371:13948  function calculateInactivityPenalties(uint256 epochs, uint256 stakeValue) public pure returns(uint256) {... */\n    tag_7:\n      tag_63\n      0x04\n      dup1\n      calldatasize\n      sub\n      dup2\n      add\n      swap1\n      tag_64\n      swap2\n      swap1\n      tag_65\n      jump\t// in\n    tag_64:\n      tag_66\n      jump\t// in\n    tag_63:\n      mload(0x40)\n      tag_67\n      swap2\n      swap1\n      tag_54\n      jump\t// in\n    tag_67:\n      mload(0x40)\n      dup1\n      swap2\n      sub\n      swap1\n      return\n        /* \"StakeManager.sol\":13049:13156  function getStakeGettingReward() external view returns(uint256) {... */\n    tag_8:\n      tag_68\n      tag_69\n      jump\t// in\n    tag_68:\n      mload(0x40)\n      tag_70\n      swap2\n      swap1\n      tag_54\n      jump\t// in\n    tag_70:\n      mload(0x40)\n      dup1\n      swap2\n      sub\n      swap1\n      return\n        /* \"StakeManager.sol\":12907:12998  function getRewardPool() external view returns(uint256) {... */\n    tag_9:\n      tag_71\n      tag_72\n      jump\t// in\n    tag_71:\n      mload(0x40)\n      tag_73\n      swap2\n      swap1\n      tag_54\n      jump\t// in\n    tag_73:\n      mload(0x40)\n      dup1\n      swap2\n      sub\n      swap1\n      return\n        /* \"openzeppelin-solidity/contracts/access/AccessControl.sol\":4272:4384   */\n    tag_10:\n      tag_74\n      0x04\n      dup1\n      calldatasize\n      sub\n      dup2\n      add\n      swap1\n      tag_75\n      swap2\n      swap1\n      tag_76\n      jump\t// in\n    tag_75:\n      tag_77\n      jump\t// in\n    tag_74:\n      mload(0x40)\n      tag_78\n      swap2\n      swap1\n      tag_79\n      jump\t// in\n    tag_78:\n      mload(0x40)\n      dup1\n      swap2\n      sub\n      swap1\n      return\n        /* \"WriterRole.sol\":667:774  function isWriter(address account) public view returns (bool) {... */\n    tag_11:\n      tag_80\n      0x04\n      dup1\n      calldatasize\n      sub\n      dup2\n      add\n      swap1\n      tag_81\n      swap2\n      swap1\n      tag_82\n      jump\t// in\n    tag_81:\n      tag_83\n      jump\t// in\n    tag_80:\n      mload(0x40)\n      tag_84\n      swap2\n      swap1\n      tag_85\n      jump\t// in\n    tag_84:\n      mload(0x40)\n      dup1\n      swap2\n      sub\n      swap1\n      return\n        /* \"StakeManager.sol\":5200:5779  function unstake (uint256 epoch) external checkEpoch(epoch)  checkState(Constants.commit()) {... */\n    tag_12:\n      tag_86\n      0x04\n      dup1\n      calldatasize\n      sub\n      dup2\n      add\n      swap1\n      tag_87\n      swap2\n      swap1\n      tag_61\n      jump\t// in\n    tag_87:\n      tag_88\n      jump\t// in\n    tag_86:\n      stop\n        /* \"StakeManager.sol\":6053:7151  function withdraw (uint256 epoch) external checkEpoch(epoch) checkState(Constants.commit()) {... */\n    tag_13:\n      tag_89\n      0x04\n      dup1\n      calldatasize\n      sub\n      dup2\n      add\n      swap1\n      tag_90\n      swap2\n      swap1\n      tag_61\n      jump\t// in\n    tag_90:\n      tag_91\n      jump\t// in\n    tag_89:\n      stop\n        /* \"StakeManager.sol\":703:736  IStateManager public stateManager */\n    tag_14:\n      tag_92\n      tag_93\n      jump\t// in\n    tag_92:\n      mload(0x40)\n      tag_94\n      swap2\n      swap1\n      tag_95\n      jump\t// in\n    tag_94:\n      mload(0x40)\n      dup1\n      swap2\n      sub\n      swap1\n      return\n        /* \"openzeppelin-solidity/contracts/access/AccessControl.sol\":4634:4857   */\n    tag_15:\n      tag_96\n      0x04\n      dup1\n      calldatasize\n      sub\n      dup2\n      add\n      swap1\n      tag_97\n      swap2\n      swap1\n      tag_98\n      jump\t// in\n    tag_97:\n      tag_99\n      jump\t// in\n    tag_96:\n      stop\n        /* \"openzeppelin-solidity/contracts/access/AccessControl.sol\":5808:6013   */\n    tag_16:\n      tag_100\n      0x04\n      dup1\n      calldatasize\n      sub\n      dup2\n      add\n      swap1\n      tag_101\n      swap2\n      swap1\n      tag_98\n      jump\t// in\n    tag_101:\n      tag_102\n      jump\t// in\n    tag_100:\n      stop\n        /* \"StakeManager.sol\":627:658  IVoteManager public voteManager */\n    tag_17:\n      tag_103\n      tag_104\n      jump\t// in\n    tag_103:\n      mload(0x40)\n      tag_105\n      swap2\n      swap1\n      tag_106\n      jump\t// in\n    tag_105:\n      mload(0x40)\n      dup1\n      swap2\n      sub\n      swap1\n      return\n        /* \"StakeManager.sol\":7391:7516  function givePenalties (uint256 stakerId, uint256 epoch) external onlyWriter {... */\n    tag_18:\n      tag_107\n      0x04\n      dup1\n      calldatasize\n      sub\n      dup2\n      add\n      swap1\n      tag_108\n      swap2\n      swap1\n      tag_65\n      jump\t// in\n    tag_108:\n      tag_109\n      jump\t// in\n    tag_107:\n      stop\n        /* \"StakeManager.sol\":12384:12498  function getStakerId(address _address) external view returns(uint256) {... */\n    tag_19:\n      tag_110\n      0x04\n      dup1\n      calldatasize\n      sub\n      dup2\n      add\n      swap1\n      tag_111\n      swap2\n      swap1\n      tag_82\n      jump\t// in\n    tag_111:\n      tag_112\n      jump\t// in\n    tag_110:\n      mload(0x40)\n      tag_113\n      swap2\n      swap1\n      tag_54\n      jump\t// in\n    tag_113:\n      mload(0x40)\n      dup1\n      swap2\n      sub\n      swap1\n      return\n        /* \"StakeStorage.sol\":330:359  uint256 public rewardPool = 0 */\n    tag_20:\n      tag_114\n      tag_115\n      jump\t// in\n    tag_114:\n      mload(0x40)\n      tag_116\n      swap2\n      swap1\n      tag_54\n      jump\t// in\n    tag_116:\n      mload(0x40)\n      dup1\n      swap2\n      sub\n      swap1\n      return\n        /* \"StakeStorage.sol\":262:291  uint256 public numStakers = 0 */\n    tag_21:\n      tag_117\n      tag_118\n      jump\t// in\n    tag_117:\n      mload(0x40)\n      tag_119\n      swap2\n      swap1\n      tag_54\n      jump\t// in\n    tag_119:\n      mload(0x40)\n      dup1\n      swap2\n      sub\n      swap1\n      return\n        /* \"StakeManager.sol\":7791:8514  function giveBlockReward(uint256 stakerId, uint256 epoch) external onlyWriter {... */\n    tag_22:\n      tag_120\n      0x04\n      dup1\n      calldatasize\n      sub\n      dup2\n      add\n      swap1\n      tag_121\n      swap2\n      swap1\n      tag_65\n      jump\t// in\n    tag_121:\n      tag_122\n      jump\t// in\n    tag_120:\n      stop\n        /* \"StakeManager.sol\":3311:4838  function stake (uint256 epoch, uint256 amount) external checkEpoch(epoch) checkState(Constants.commit()) {... */\n    tag_23:\n      tag_123\n      0x04\n      dup1\n      calldatasize\n      sub\n      dup2\n      add\n      swap1\n      tag_124\n      swap2\n      swap1\n      tag_65\n      jump\t// in\n    tag_124:\n      tag_125\n      jump\t// in\n    tag_123:\n      stop\n        /* \"openzeppelin-solidity/contracts/access/AccessControl.sol\":3955:4091   */\n    tag_24:\n      tag_126\n      0x04\n      dup1\n      calldatasize\n      sub\n      dup2\n      add\n      swap1\n      tag_127\n      swap2\n      swap1\n      tag_128\n      jump\t// in\n    tag_127:\n      tag_129\n      jump\t// in\n    tag_126:\n      mload(0x40)\n      tag_130\n      swap2\n      swap1\n      tag_131\n      jump\t// in\n    tag_130:\n      mload(0x40)\n      dup1\n      swap2\n      sub\n      swap1\n      return\n        /* \"openzeppelin-solidity/contracts/access/AccessControl.sol\":2940:3077   */\n    tag_25:\n      tag_132\n      0x04\n      dup1\n      calldatasize\n      sub\n      dup2\n      add\n      swap1\n      tag_133\n      swap2\n      swap1\n      tag_98\n      jump\t// in\n    tag_133:\n      tag_134\n      jump\t// in\n    tag_132:\n      mload(0x40)\n      tag_135\n      swap2\n      swap1\n      tag_85\n      jump\t// in\n    tag_135:\n      mload(0x40)\n      dup1\n      swap2\n      sub\n      swap1\n      return\n        /* \"StakeManager.sol\":2534:2699  function setStakerEpochLastRevealed(uint256 _id, uint256 _epochLastRevealed) external onlyWriter {... */\n    tag_26:\n      tag_136\n      0x04\n      dup1\n      calldatasize\n      sub\n      dup2\n      add\n      swap1\n      tag_137\n      swap2\n      swap1\n      tag_65\n      jump\t// in\n    tag_137:\n      tag_138\n      jump\t// in\n    tag_136:\n      stop\n        /* \"openzeppelin-solidity/contracts/access/AccessControl.sol\":1717:1766   */\n    tag_27:\n      tag_139\n      tag_140\n      jump\t// in\n    tag_139:\n      mload(0x40)\n      tag_141\n      swap2\n      swap1\n      tag_79\n      jump\t// in\n    tag_141:\n      mload(0x40)\n      dup1\n      swap2\n      sub\n      swap1\n      return\n        /* \"StakeManager.sol\":2224:2400  function setStakerStake(uint256 _id, uint256 _stake, string calldata _reason, uint256 _epoch) external onlyWriter {... */\n    tag_28:\n      tag_142\n      0x04\n      dup1\n      calldatasize\n      sub\n      dup2\n      add\n      swap1\n      tag_143\n      swap2\n      swap1\n      tag_144\n      jump\t// in\n    tag_143:\n      tag_145\n      jump\t// in\n    tag_142:\n      stop\n        /* \"StakeManager.sol\":12779:12870  function getNumStakers() external view returns(uint256) {... */\n    tag_29:\n      tag_146\n      tag_147\n      jump\t// in\n    tag_146:\n      mload(0x40)\n      tag_148\n      swap2\n      swap1\n      tag_54\n      jump\t// in\n    tag_148:\n      mload(0x40)\n      dup1\n      swap2\n      sub\n      swap1\n      return\n        /* \"StakeManager.sol\":597:621  SchellingCoin public sch */\n    tag_30:\n      tag_149\n      tag_150\n      jump\t// in\n    tag_149:\n      mload(0x40)\n      tag_151\n      swap2\n      swap1\n      tag_152\n      jump\t// in\n    tag_151:\n      mload(0x40)\n      dup1\n      swap2\n      sub\n      swap1\n      return\n        /* \"StakeStorage.sol\":155:200  mapping (address => uint256) public stakerIds */\n    tag_31:\n      tag_153\n      0x04\n      dup1\n      calldatasize\n      sub\n      dup2\n      add\n      swap1\n      tag_154\n      swap2\n      swap1\n      tag_82\n      jump\t// in\n    tag_154:\n      tag_155\n      jump\t// in\n    tag_153:\n      mload(0x40)\n      tag_156\n      swap2\n      swap1\n      tag_54\n      jump\t// in\n    tag_156:\n      mload(0x40)\n      dup1\n      swap2\n      sub\n      swap1\n      return\n        /* \"openzeppelin-solidity/contracts/access/AccessControl.sol\":3245:3370   */\n    tag_32:\n      tag_157\n      0x04\n      dup1\n      calldatasize\n      sub\n      dup2\n      add\n      swap1\n      tag_158\n      swap2\n      swap1\n      tag_76\n      jump\t// in\n    tag_158:\n      tag_159\n      jump\t// in\n    tag_157:\n      mload(0x40)\n      tag_160\n      swap2\n      swap1\n      tag_54\n      jump\t// in\n    tag_160:\n      mload(0x40)\n      dup1\n      swap2\n      sub\n      swap1\n      return\n        /* \"openzeppelin-solidity/contracts/access/AccessControl.sol\":5091:5317   */\n    tag_33:\n      tag_161\n      0x04\n      dup1\n      calldatasize\n      sub\n      dup2\n      add\n      swap1\n      tag_162\n      swap2\n      swap1\n      tag_98\n      jump\t// in\n    tag_162:\n      tag_163\n      jump\t// in\n    tag_161:\n      stop\n        /* \"StakeManager.sol\":664:697  IBlockManager public blockManager */\n    tag_34:\n      tag_164\n      tag_165\n      jump\t// in\n    tag_164:\n      mload(0x40)\n      tag_166\n      swap2\n      swap1\n      tag_167\n      jump\t// in\n    tag_166:\n      mload(0x40)\n      dup1\n      swap2\n      sub\n      swap1\n      return\n        /* \"WriterRole.sol\":784:874  function addWriter(address account) public onlyWriter {... */\n    tag_35:\n      tag_168\n      0x04\n      dup1\n      calldatasize\n      sub\n      dup2\n      add\n      swap1\n      tag_169\n      swap2\n      swap1\n      tag_82\n      jump\t// in\n    tag_169:\n      tag_170\n      jump\t// in\n    tag_168:\n      stop\n        /* \"WriterRole.sol\":880:955  function renounceWriter() public {... */\n    tag_36:\n      tag_171\n      tag_172\n      jump\t// in\n    tag_171:\n      stop\n        /* \"StakeManager.sol\":12593:12714  function getStaker(uint256 _id) external view returns(Structs.Staker memory staker) {... */\n    tag_37:\n      tag_173\n      0x04\n      dup1\n      calldatasize\n      sub\n      dup2\n      add\n      swap1\n      tag_174\n      swap2\n      swap1\n      tag_61\n      jump\t// in\n    tag_174:\n      tag_175\n      jump\t// in\n    tag_173:\n      mload(0x40)\n      tag_176\n      swap2\n      swap1\n      tag_177\n      jump\t// in\n    tag_176:\n      mload(0x40)\n      dup1\n      swap2\n      sub\n      swap1\n      return\n        /* \"StakeManager.sol\":8858:11510  function giveRewards (uint256 stakerId, uint256 epoch) external onlyWriter {... */\n    tag_38:\n      tag_178\n      0x04\n      dup1\n      calldatasize\n      sub\n      dup2\n      add\n      swap1\n      tag_179\n      swap2\n      swap1\n      tag_65\n      jump\t// in\n    tag_179:\n      tag_180\n      jump\t// in\n    tag_178:\n      stop\n        /* \"StakeStorage.sol\":206:256  mapping (uint256 => Structs.Staker) public stakers */\n    tag_39:\n      tag_181\n      0x04\n      dup1\n      calldatasize\n      sub\n      dup2\n      add\n      swap1\n      tag_182\n      swap2\n      swap1\n      tag_61\n      jump\t// in\n    tag_182:\n      tag_183\n      jump\t// in\n    tag_181:\n      mload(0x40)\n      tag_184\n      swap9\n      swap8\n      swap7\n      swap6\n      swap5\n      swap4\n      swap3\n      swap2\n      swap1\n      tag_185\n      jump\t// in\n    tag_184:\n      mload(0x40)\n      dup1\n      swap2\n      sub\n      swap1\n      return\n        /* \"StakeManager.sol\":1341:1709  function init (address _schAddress, address _voteManagerAddress,... */\n    tag_50:\n        /* \"StakeManager.sol\":1513:1524  _schAddress */\n      dup4\n        /* \"StakeManager.sol\":1493:1496  sch */\n      0x06\n      0x00\n        /* \"StakeManager.sol\":1493:1525  sch = SchellingCoin(_schAddress) */\n      0x0100\n      exp\n      dup2\n      sload\n      dup2\n      0xffffffffffffffffffffffffffffffffffffffff\n      mul\n      not\n      and\n      swap1\n      dup4\n      0xffffffffffffffffffffffffffffffffffffffff\n      and\n      mul\n      or\n      swap1\n      sstore\n      pop\n        /* \"StakeManager.sol\":1562:1581  _voteManagerAddress */\n      dup3\n        /* \"StakeManager.sol\":1535:1546  voteManager */\n      0x07\n      0x00\n        /* \"StakeManager.sol\":1535:1582  voteManager = IVoteManager(_voteManagerAddress) */\n      0x0100\n      exp\n      dup2\n      sload\n      dup2\n      0xffffffffffffffffffffffffffffffffffffffff\n      mul\n      not\n      and\n      swap1\n      dup4\n      0xffffffffffffffffffffffffffffffffffffffff\n      and\n      mul\n      or\n      swap1\n      sstore\n      pop\n        /* \"StakeManager.sol\":1621:1641  _blockManagerAddress */\n      dup2\n        /* \"StakeManager.sol\":1592:1604  blockManager */\n      0x08\n      0x00\n        /* \"StakeManager.sol\":1592:1642  blockManager = IBlockManager(_blockManagerAddress) */\n      0x0100\n      exp\n      dup2\n      sload\n      dup2\n      0xffffffffffffffffffffffffffffffffffffffff\n      mul\n      not\n      and\n      swap1\n      dup4\n      0xffffffffffffffffffffffffffffffffffffffff\n      and\n      mul\n      or\n      swap1\n      sstore\n      pop\n        /* \"StakeManager.sol\":1681:1701  _stateManagerAddress */\n      dup1\n        /* \"StakeManager.sol\":1652:1664  stateManager */\n      0x09\n      0x00\n        /* \"StakeManager.sol\":1652:1702  stateManager = IStateManager(_stateManagerAddress) */\n      0x0100\n      exp\n      dup2\n      sload\n      dup2\n      0xffffffffffffffffffffffffffffffffffffffff\n      mul\n      not\n      and\n      swap1\n      dup4\n      0xffffffffffffffffffffffffffffffffffffffff\n      and\n      mul\n      or\n      swap1\n      sstore\n      pop\n        /* \"StakeManager.sol\":1341:1709  function init (address _schAddress, address _voteManagerAddress,... */\n      pop\n      pop\n      pop\n      pop\n      jump\t// out\n        /* \"StakeStorage.sol\":365:402  uint256 public stakeGettingReward = 0 */\n    tag_52:\n      sload(0x05)\n      dup2\n      jump\t// out\n        /* \"StakeManager.sol\":11865:12302  function slash (uint256 id, address bountyHunter, uint256 epoch) external onlyWriter {... */\n    tag_58:\n        /* \"WriterRole.sol\":570:590  isWriter(msg.sender) */\n      tag_189\n        /* \"WriterRole.sol\":579:589  msg.sender */\n      caller\n        /* \"WriterRole.sol\":570:578  isWriter */\n      tag_83\n        /* \"WriterRole.sol\":570:590  isWriter(msg.sender) */\n      jump\t// in\n    tag_189:\n        /* \"WriterRole.sol\":562:643  require(isWriter(msg.sender), \"WriterRole: caller does not have the Writer role\") */\n      tag_190\n      jumpi\n      mload(0x40)\n      0x08c379a000000000000000000000000000000000000000000000000000000000\n      dup2\n      mstore\n      0x04\n      add\n      tag_191\n      swap1\n      tag_192\n      jump\t// in\n    tag_191:\n      mload(0x40)\n      dup1\n      swap2\n      sub\n      swap1\n      revert\n    tag_190:\n        /* \"StakeManager.sol\":12018:12035  uint256 halfStake */\n      0x00\n        /* \"StakeManager.sol\":12038:12062  stakers[id].stake.div(2) */\n      tag_194\n        /* \"StakeManager.sol\":12060:12061  2 */\n      0x02\n        /* \"StakeManager.sol\":12038:12045  stakers */\n      dup1\n        /* \"StakeManager.sol\":12038:12049  stakers[id] */\n      0x00\n        /* \"StakeManager.sol\":12046:12048  id */\n      dup8\n        /* \"StakeManager.sol\":12038:12049  stakers[id] */\n      dup2\n      mstore\n      0x20\n      add\n      swap1\n      dup2\n      mstore\n      0x20\n      add\n      0x00\n      keccak256\n        /* \"StakeManager.sol\":12038:12055  stakers[id].stake */\n      0x02\n      add\n      sload\n        /* \"StakeManager.sol\":12038:12059  stakers[id].stake.div */\n      tag_195\n      swap1\n        /* \"StakeManager.sol\":12038:12062  stakers[id].stake.div(2) */\n      swap2\n      swap1\n      0xffffffff\n      and\n      jump\t// in\n    tag_194:\n        /* \"StakeManager.sol\":12018:12062  uint256 halfStake = stakers[id].stake.div(2) */\n      swap1\n      pop\n        /* \"StakeManager.sol\":12072:12112  _setStakerStake(id, 0, \"Slashed\", epoch) */\n      tag_196\n        /* \"StakeManager.sol\":12088:12090  id */\n      dup5\n        /* \"StakeManager.sol\":12092:12093  0 */\n      0x00\n        /* \"StakeManager.sol\":12072:12112  _setStakerStake(id, 0, \"Slashed\", epoch) */\n      mload(0x40)\n      dup1\n      0x40\n      add\n      0x40\n      mstore\n      dup1\n      0x07\n      dup2\n      mstore\n      0x20\n      add\n      0x536c617368656400000000000000000000000000000000000000000000000000\n      dup2\n      mstore\n      pop\n        /* \"StakeManager.sol\":12106:12111  epoch */\n      dup6\n        /* \"StakeManager.sol\":12072:12087  _setStakerStake */\n      tag_197\n        /* \"StakeManager.sol\":12072:12112  _setStakerStake(id, 0, \"Slashed\", epoch) */\n      jump\t// in\n    tag_196:\n        /* \"StakeManager.sol\":12138:12139  1 */\n      0x01\n        /* \"StakeManager.sol\":12126:12135  halfStake */\n      dup2\n        /* \"StakeManager.sol\":12126:12139  halfStake > 1 */\n      gt\n        /* \"StakeManager.sol\":12122:12296  if (halfStake > 1) {... */\n      iszero\n      tag_198\n      jumpi\n        /* \"StakeManager.sol\":12218:12221  sch */\n      0x06\n      0x00\n      swap1\n      sload\n      swap1\n      0x0100\n      exp\n      swap1\n      div\n      0xffffffffffffffffffffffffffffffffffffffff\n      and\n        /* \"StakeManager.sol\":12218:12230  sch.transfer */\n      0xffffffffffffffffffffffffffffffffffffffff\n      and\n      0xa9059cbb\n        /* \"StakeManager.sol\":12231:12243  bountyHunter */\n      dup5\n        /* \"StakeManager.sol\":12245:12254  halfStake */\n      dup4\n        /* \"StakeManager.sol\":12218:12255  sch.transfer(bountyHunter, halfStake) */\n      mload(0x40)\n      dup4\n      0xffffffff\n      and\n      0xe0\n      shl\n      dup2\n      mstore\n      0x04\n      add\n      tag_199\n      swap3\n      swap2\n      swap1\n      tag_200\n      jump\t// in\n    tag_199:\n      0x20\n      mload(0x40)\n      dup1\n      dup4\n      sub\n      dup2\n      0x00\n      dup8\n      dup1\n      extcodesize\n      iszero\n      dup1\n      iszero\n      tag_201\n      jumpi\n      0x00\n      dup1\n      revert\n    tag_201:\n      pop\n      gas\n      call\n      iszero\n      dup1\n      iszero\n      tag_203\n      jumpi\n      returndatasize\n      0x00\n      dup1\n      returndatacopy\n      revert(0x00, returndatasize)\n    tag_203:\n      pop\n      pop\n      pop\n      pop\n      mload(0x40)\n      returndatasize\n      not(0x1f)\n      0x1f\n      dup3\n      add\n      and\n      dup3\n      add\n      dup1\n      0x40\n      mstore\n      pop\n      dup2\n      add\n      swap1\n      tag_204\n      swap2\n      swap1\n      tag_205\n      jump\t// in\n    tag_204:\n        /* \"StakeManager.sol\":12210:12285  require(sch.transfer(bountyHunter, halfStake), \"failed to transfer bounty\") */\n      tag_206\n      jumpi\n      mload(0x40)\n      0x08c379a000000000000000000000000000000000000000000000000000000000\n      dup2\n      mstore\n      0x04\n      add\n      tag_207\n      swap1\n      tag_208\n      jump\t// in\n    tag_207:\n      mload(0x40)\n      dup1\n      swap2\n      sub\n      swap1\n      revert\n    tag_206:\n        /* \"StakeManager.sol\":12122:12296  if (halfStake > 1) {... */\n    tag_198:\n        /* \"WriterRole.sol\":653:654  _ */\n      pop\n        /* \"StakeManager.sol\":11865:12302  function slash (uint256 id, address bountyHunter, uint256 epoch) external onlyWriter {... */\n      pop\n      pop\n      pop\n      jump\t// out\n        /* \"StakeManager.sol\":2750:2898  function updateCommitmentEpoch(uint256 stakerId) external onlyWriter {... */\n    tag_62:\n        /* \"WriterRole.sol\":570:590  isWriter(msg.sender) */\n      tag_210\n        /* \"WriterRole.sol\":579:589  msg.sender */\n      caller\n        /* \"WriterRole.sol\":570:578  isWriter */\n      tag_83\n        /* \"WriterRole.sol\":570:590  isWriter(msg.sender) */\n      jump\t// in\n    tag_210:\n        /* \"WriterRole.sol\":562:643  require(isWriter(msg.sender), \"WriterRole: caller does not have the Writer role\") */\n      tag_211\n      jumpi\n      mload(0x40)\n      0x08c379a000000000000000000000000000000000000000000000000000000000\n      dup2\n      mstore\n      0x04\n      add\n      tag_212\n      swap1\n      tag_192\n      jump\t// in\n    tag_212:\n      mload(0x40)\n      dup1\n      swap2\n      sub\n      swap1\n      revert\n    tag_211:\n        /* \"StakeManager.sol\":2868:2880  stateManager */\n      0x09\n      0x00\n      swap1\n      sload\n      swap1\n      0x0100\n      exp\n      swap1\n      div\n      0xffffffffffffffffffffffffffffffffffffffff\n      and\n        /* \"StakeManager.sol\":2868:2889  stateManager.getEpoch */\n      0xffffffffffffffffffffffffffffffffffffffff\n      and\n      0x757991a8\n        /* \"StakeManager.sol\":2868:2891  stateManager.getEpoch() */\n      mload(0x40)\n      dup2\n      0xffffffff\n      and\n      0xe0\n      shl\n      dup2\n      mstore\n      0x04\n      add\n      0x20\n      mload(0x40)\n      dup1\n      dup4\n      sub\n      dup2\n      dup7\n      dup1\n      extcodesize\n      iszero\n      dup1\n      iszero\n      tag_214\n      jumpi\n      0x00\n      dup1\n      revert\n    tag_214:\n      pop\n      gas\n      staticcall\n      iszero\n      dup1\n      iszero\n      tag_216\n      jumpi\n      returndatasize\n      0x00\n      dup1\n      returndatacopy\n      revert(0x00, returndatasize)\n    tag_216:\n      pop\n      pop\n      pop\n      pop\n      mload(0x40)\n      returndatasize\n      not(0x1f)\n      0x1f\n      dup3\n      add\n      and\n      dup3\n      add\n      dup1\n      0x40\n      mstore\n      pop\n      dup2\n      add\n      swap1\n      tag_217\n      swap2\n      swap1\n      tag_218\n      jump\t// in\n    tag_217:\n        /* \"StakeManager.sol\":2829:2836  stakers */\n      0x02\n        /* \"StakeManager.sol\":2829:2846  stakers[stakerId] */\n      0x00\n        /* \"StakeManager.sol\":2837:2845  stakerId */\n      dup4\n        /* \"StakeManager.sol\":2829:2846  stakers[stakerId] */\n      dup2\n      mstore\n      0x20\n      add\n      swap1\n      dup2\n      mstore\n      0x20\n      add\n      0x00\n      keccak256\n        /* \"StakeManager.sol\":2829:2865  stakers[stakerId].epochLastCommitted */\n      0x04\n      add\n        /* \"StakeManager.sol\":2829:2891  stakers[stakerId].epochLastCommitted = stateManager.getEpoch() */\n      dup2\n      swap1\n      sstore\n      pop\n        /* \"StakeManager.sol\":2750:2898  function updateCommitmentEpoch(uint256 stakerId) external onlyWriter {... */\n      pop\n      jump\t// out\n        /* \"StakeManager.sol\":13371:13948  function calculateInactivityPenalties(uint256 epochs, uint256 stakeValue) public pure returns(uint256) {... */\n    tag_66:\n        /* \"StakeManager.sol\":13465:13472  uint256 */\n      0x00\n        /* \"StakeManager.sol\":13560:13562  10 */\n      0x0a\n        /* \"StakeManager.sol\":13551:13557  epochs */\n      dup4\n        /* \"StakeManager.sol\":13551:13562  epochs < 10 */\n      lt\n        /* \"StakeManager.sol\":13547:13607  if (epochs < 10) {... */\n      iszero\n      tag_220\n      jumpi\n        /* \"StakeManager.sol\":13585:13595  stakeValue */\n      dup2\n        /* \"StakeManager.sol\":13578:13596  return(stakeValue) */\n      swap1\n      pop\n      jump(tag_219)\n        /* \"StakeManager.sol\":13547:13607  if (epochs < 10) {... */\n    tag_220:\n        /* \"StakeManager.sol\":13674:13689  uint256 penalty */\n      0x00\n        /* \"StakeManager.sol\":13692:13810  (epochs.sub(1)).mul((stakeValue.mul(Constants.penaltyNotRevealNum())).div(... */\n      tag_221\n        /* \"StakeManager.sol\":13712:13809  (stakeValue.mul(Constants.penaltyNotRevealNum())).div(... */\n      tag_222\n        /* \"StakeManager.sol\":13775:13784  Constants */\n      linkerSymbol(\"e861534859442f2de25279a5ccd1626413b62699ca8b37407da3a6bf3bbbfee5\")\n        /* \"StakeManager.sol\":13775:13806  Constants.penaltyNotRevealDenom */\n      0xb1cc4500\n        /* \"StakeManager.sol\":13775:13808  Constants.penaltyNotRevealDenom() */\n      mload(0x40)\n      dup2\n      0xffffffff\n      and\n      0xe0\n      shl\n      dup2\n      mstore\n      0x04\n      add\n      0x20\n      mload(0x40)\n      dup1\n      dup4\n      sub\n      dup2\n      dup7\n      dup1\n      extcodesize\n      iszero\n      dup1\n      iszero\n      tag_223\n      jumpi\n      0x00\n      dup1\n      revert\n    tag_223:\n      pop\n      gas\n      delegatecall\n      iszero\n      dup1\n      iszero\n      tag_225\n      jumpi\n      returndatasize\n      0x00\n      dup1\n      returndatacopy\n      revert(0x00, returndatasize)\n    tag_225:\n      pop\n      pop\n      pop\n      pop\n      mload(0x40)\n      returndatasize\n      not(0x1f)\n      0x1f\n      dup3\n      add\n      and\n      dup3\n      add\n      dup1\n      0x40\n      mstore\n      pop\n      dup2\n      add\n      swap1\n      tag_226\n      swap2\n      swap1\n      tag_218\n      jump\t// in\n    tag_226:\n        /* \"StakeManager.sol\":13713:13760  stakeValue.mul(Constants.penaltyNotRevealNum()) */\n      tag_227\n        /* \"StakeManager.sol\":13728:13737  Constants */\n      linkerSymbol(\"e861534859442f2de25279a5ccd1626413b62699ca8b37407da3a6bf3bbbfee5\")\n        /* \"StakeManager.sol\":13728:13757  Constants.penaltyNotRevealNum */\n      0xa86f5a3f\n        /* \"StakeManager.sol\":13728:13759  Constants.penaltyNotRevealNum() */\n      mload(0x40)\n      dup2\n      0xffffffff\n      and\n      0xe0\n      shl\n      dup2\n      mstore\n      0x04\n      add\n      0x20\n      mload(0x40)\n      dup1\n      dup4\n      sub\n      dup2\n      dup7\n      dup1\n      extcodesize\n      iszero\n      dup1\n      iszero\n      tag_228\n      jumpi\n      0x00\n      dup1\n      revert\n    tag_228:\n      pop\n      gas\n      delegatecall\n      iszero\n      dup1\n      iszero\n      tag_230\n      jumpi\n      returndatasize\n      0x00\n      dup1\n      returndatacopy\n      revert(0x00, returndatasize)\n    tag_230:\n      pop\n      pop\n      pop\n      pop\n      mload(0x40)\n      returndatasize\n      not(0x1f)\n      0x1f\n      dup3\n      add\n      and\n      dup3\n      add\n      dup1\n      0x40\n      mstore\n      pop\n      dup2\n      add\n      swap1\n      tag_231\n      swap2\n      swap1\n      tag_218\n      jump\t// in\n    tag_231:\n        /* \"StakeManager.sol\":13713:13723  stakeValue */\n      dup8\n        /* \"StakeManager.sol\":13713:13727  stakeValue.mul */\n      tag_232\n      swap1\n        /* \"StakeManager.sol\":13713:13760  stakeValue.mul(Constants.penaltyNotRevealNum()) */\n      swap2\n      swap1\n      0xffffffff\n      and\n      jump\t// in\n    tag_227:\n        /* \"StakeManager.sol\":13712:13765  (stakeValue.mul(Constants.penaltyNotRevealNum())).div */\n      tag_195\n      swap1\n        /* \"StakeManager.sol\":13712:13809  (stakeValue.mul(Constants.penaltyNotRevealNum())).div(... */\n      swap2\n      swap1\n      0xffffffff\n      and\n      jump\t// in\n    tag_222:\n        /* \"StakeManager.sol\":13693:13706  epochs.sub(1) */\n      tag_233\n        /* \"StakeManager.sol\":13704:13705  1 */\n      0x01\n        /* \"StakeManager.sol\":13693:13699  epochs */\n      dup8\n        /* \"StakeManager.sol\":13693:13703  epochs.sub */\n      tag_234\n      swap1\n        /* \"StakeManager.sol\":13693:13706  epochs.sub(1) */\n      swap2\n      swap1\n      0xffffffff\n      and\n      jump\t// in\n    tag_233:\n        /* \"StakeManager.sol\":13692:13711  (epochs.sub(1)).mul */\n      tag_232\n      swap1\n        /* \"StakeManager.sol\":13692:13810  (epochs.sub(1)).mul((stakeValue.mul(Constants.penaltyNotRevealNum())).div(... */\n      swap2\n      swap1\n      0xffffffff\n      and\n      jump\t// in\n    tag_221:\n        /* \"StakeManager.sol\":13674:13810  uint256 penalty = (epochs.sub(1)).mul((stakeValue.mul(Constants.penaltyNotRevealNum())).div(... */\n      swap1\n      pop\n        /* \"StakeManager.sol\":13834:13844  stakeValue */\n      dup3\n        /* \"StakeManager.sol\":13824:13831  penalty */\n      dup2\n        /* \"StakeManager.sol\":13824:13844  penalty < stakeValue */\n      lt\n        /* \"StakeManager.sol\":13820:13942  if (penalty < stakeValue) {... */\n      iszero\n      tag_235\n      jumpi\n        /* \"StakeManager.sol\":13867:13890  stakeValue.sub(penalty) */\n      tag_236\n        /* \"StakeManager.sol\":13882:13889  penalty */\n      dup2\n        /* \"StakeManager.sol\":13867:13877  stakeValue */\n      dup5\n        /* \"StakeManager.sol\":13867:13881  stakeValue.sub */\n      tag_234\n      swap1\n        /* \"StakeManager.sol\":13867:13890  stakeValue.sub(penalty) */\n      swap2\n      swap1\n      0xffffffff\n      and\n      jump\t// in\n    tag_236:\n        /* \"StakeManager.sol\":13860:13891  return(stakeValue.sub(penalty)) */\n      swap2\n      pop\n      pop\n      jump(tag_219)\n        /* \"StakeManager.sol\":13820:13942  if (penalty < stakeValue) {... */\n    tag_235:\n        /* \"StakeManager.sol\":13929:13930  0 */\n      0x00\n        /* \"StakeManager.sol\":13922:13931  return(0) */\n      swap2\n      pop\n      pop\n        /* \"StakeManager.sol\":13371:13948  function calculateInactivityPenalties(uint256 epochs, uint256 stakeValue) public pure returns(uint256) {... */\n    tag_219:\n      swap3\n      swap2\n      pop\n      pop\n      jump\t// out\n        /* \"StakeManager.sol\":13049:13156  function getStakeGettingReward() external view returns(uint256) {... */\n    tag_69:\n        /* \"StakeManager.sol\":13104:13111  uint256 */\n      0x00\n        /* \"StakeManager.sol\":13130:13148  stakeGettingReward */\n      sload(0x05)\n        /* \"StakeManager.sol\":13123:13149  return(stakeGettingReward) */\n      swap1\n      pop\n        /* \"StakeManager.sol\":13049:13156  function getStakeGettingReward() external view returns(uint256) {... */\n      swap1\n      jump\t// out\n        /* \"StakeManager.sol\":12907:12998  function getRewardPool() external view returns(uint256) {... */\n    tag_72:\n        /* \"StakeManager.sol\":12954:12961  uint256 */\n      0x00\n        /* \"StakeManager.sol\":12980:12990  rewardPool */\n      sload(0x04)\n        /* \"StakeManager.sol\":12973:12991  return(rewardPool) */\n      swap1\n      pop\n        /* \"StakeManager.sol\":12907:12998  function getRewardPool() external view returns(uint256) {... */\n      swap1\n      jump\t// out\n        /* \"openzeppelin-solidity/contracts/access/AccessControl.sol\":4272:4384   */\n    tag_77:\n        /* \"openzeppelin-solidity/contracts/access/AccessControl.sol\":4329:4336   */\n      0x00\n        /* \"openzeppelin-solidity/contracts/access/AccessControl.sol\":4355:4361   */\n      dup1\n        /* \"openzeppelin-solidity/contracts/access/AccessControl.sol\":4355:4367   */\n      0x00\n        /* \"openzeppelin-solidity/contracts/access/AccessControl.sol\":4362:4366   */\n      dup4\n        /* \"openzeppelin-solidity/contracts/access/AccessControl.sol\":4355:4367   */\n      dup2\n      mstore\n      0x20\n      add\n      swap1\n      dup2\n      mstore\n      0x20\n      add\n      0x00\n      keccak256\n        /* \"openzeppelin-solidity/contracts/access/AccessControl.sol\":4355:4377   */\n      0x02\n      add\n      sload\n        /* \"openzeppelin-solidity/contracts/access/AccessControl.sol\":4348:4377   */\n      swap1\n      pop\n        /* \"openzeppelin-solidity/contracts/access/AccessControl.sol\":4272:4384   */\n      swap2\n      swap1\n      pop\n      jump\t// out\n        /* \"WriterRole.sol\":667:774  function isWriter(address account) public view returns (bool) {... */\n    tag_83:\n        /* \"WriterRole.sol\":723:727  bool */\n      0x00\n        /* \"WriterRole.sol\":746:767  hasRole(role,account) */\n      tag_242\n        /* \"WriterRole.sol\":313:332  keccak256(\"Writer\") */\n      mload(0x40)\n      tag_243\n      swap1\n      tag_244\n      jump\t// in\n    tag_243:\n      mload(0x40)\n      dup1\n      swap2\n      sub\n      swap1\n      keccak256\n        /* \"WriterRole.sol\":759:766  account */\n      dup4\n        /* \"WriterRole.sol\":746:753  hasRole */\n      tag_134\n        /* \"WriterRole.sol\":746:767  hasRole(role,account) */\n      jump\t// in\n    tag_242:\n        /* \"WriterRole.sol\":739:767  return hasRole(role,account) */\n      swap1\n      pop\n        /* \"WriterRole.sol\":667:774  function isWriter(address account) public view returns (bool) {... */\n      swap2\n      swap1\n      pop\n      jump\t// out\n        /* \"StakeManager.sol\":5200:5779  function unstake (uint256 epoch) external checkEpoch(epoch)  checkState(Constants.commit()) {... */\n    tag_88:\n        /* \"StakeManager.sol\":5253:5258  epoch */\n      dup1\n        /* \"StakeManager.sol\":806:818  stateManager */\n      0x09\n      0x00\n      swap1\n      sload\n      swap1\n      0x0100\n      exp\n      swap1\n      div\n      0xffffffffffffffffffffffffffffffffffffffff\n      and\n        /* \"StakeManager.sol\":806:827  stateManager.getEpoch */\n      0xffffffffffffffffffffffffffffffffffffffff\n      and\n      0x757991a8\n        /* \"StakeManager.sol\":806:829  stateManager.getEpoch() */\n      mload(0x40)\n      dup2\n      0xffffffff\n      and\n      0xe0\n      shl\n      dup2\n      mstore\n      0x04\n      add\n      0x20\n      mload(0x40)\n      dup1\n      dup4\n      sub\n      dup2\n      dup7\n      dup1\n      extcodesize\n      iszero\n      dup1\n      iszero\n      tag_246\n      jumpi\n      0x00\n      dup1\n      revert\n    tag_246:\n      pop\n      gas\n      staticcall\n      iszero\n      dup1\n      iszero\n      tag_248\n      jumpi\n      returndatasize\n      0x00\n      dup1\n      returndatacopy\n      revert(0x00, returndatasize)\n    tag_248:\n      pop\n      pop\n      pop\n      pop\n      mload(0x40)\n      returndatasize\n      not(0x1f)\n      0x1f\n      dup3\n      add\n      and\n      dup3\n      add\n      dup1\n      0x40\n      mstore\n      pop\n      dup2\n      add\n      swap1\n      tag_249\n      swap2\n      swap1\n      tag_218\n      jump\t// in\n    tag_249:\n        /* \"StakeManager.sol\":797:802  epoch */\n      dup2\n        /* \"StakeManager.sol\":797:829  epoch == stateManager.getEpoch() */\n      eq\n        /* \"StakeManager.sol\":789:849  require(epoch == stateManager.getEpoch(), \"incorrect epoch\") */\n      tag_250\n      jumpi\n      mload(0x40)\n      0x08c379a000000000000000000000000000000000000000000000000000000000\n      dup2\n      mstore\n      0x04\n      add\n      tag_251\n      swap1\n      tag_252\n      jump\t// in\n    tag_251:\n      mload(0x40)\n      dup1\n      swap2\n      sub\n      swap1\n      revert\n    tag_250:\n        /* \"StakeManager.sol\":5272:5281  Constants */\n      linkerSymbol(\"e861534859442f2de25279a5ccd1626413b62699ca8b37407da3a6bf3bbbfee5\")\n        /* \"StakeManager.sol\":5272:5288  Constants.commit */\n      0x3c7a3aff\n        /* \"StakeManager.sol\":5272:5290  Constants.commit() */\n      mload(0x40)\n      dup2\n      0xffffffff\n      and\n      0xe0\n      shl\n      dup2\n      mstore\n      0x04\n      add\n      0x20\n      mload(0x40)\n      dup1\n      dup4\n      sub\n      dup2\n      dup7\n      dup1\n      extcodesize\n      iszero\n      dup1\n      iszero\n      tag_253\n      jumpi\n      0x00\n      dup1\n      revert\n    tag_253:\n      pop\n      gas\n      delegatecall\n      iszero\n      dup1\n      iszero\n      tag_255\n      jumpi\n      returndatasize\n      0x00\n      dup1\n      returndatacopy\n      revert(0x00, returndatasize)\n    tag_255:\n      pop\n      pop\n      pop\n      pop\n      mload(0x40)\n      returndatasize\n      not(0x1f)\n      0x1f\n      dup3\n      add\n      and\n      dup3\n      add\n      dup1\n      0x40\n      mstore\n      pop\n      dup2\n      add\n      swap1\n      tag_256\n      swap2\n      swap1\n      tag_257\n      jump\t// in\n    tag_256:\n        /* \"StakeManager.sol\":873:997  modifier checkState (uint256 state) {... */\n      0xff\n      and\n        /* \"StakeManager.sol\":936:948  stateManager */\n      0x09\n      0x00\n      swap1\n      sload\n      swap1\n      0x0100\n      exp\n      swap1\n      div\n      0xffffffffffffffffffffffffffffffffffffffff\n      and\n        /* \"StakeManager.sol\":936:957  stateManager.getState */\n      0xffffffffffffffffffffffffffffffffffffffff\n      and\n      0x1865c57d\n        /* \"StakeManager.sol\":936:959  stateManager.getState() */\n      mload(0x40)\n      dup2\n      0xffffffff\n      and\n      0xe0\n      shl\n      dup2\n      mstore\n      0x04\n      add\n      0x20\n      mload(0x40)\n      dup1\n      dup4\n      sub\n      dup2\n      dup7\n      dup1\n      extcodesize\n      iszero\n      dup1\n      iszero\n      tag_259\n      jumpi\n      0x00\n      dup1\n      revert\n    tag_259:\n      pop\n      gas\n      staticcall\n      iszero\n      dup1\n      iszero\n      tag_261\n      jumpi\n      returndatasize\n      0x00\n      dup1\n      returndatacopy\n      revert(0x00, returndatasize)\n    tag_261:\n      pop\n      pop\n      pop\n      pop\n      mload(0x40)\n      returndatasize\n      not(0x1f)\n      0x1f\n      dup3\n      add\n      and\n      dup3\n      add\n      dup1\n      0x40\n      mstore\n      pop\n      dup2\n      add\n      swap1\n      tag_262\n      swap2\n      swap1\n      tag_218\n      jump\t// in\n    tag_262:\n        /* \"StakeManager.sol\":927:932  state */\n      dup2\n        /* \"StakeManager.sol\":927:959  state == stateManager.getState() */\n      eq\n        /* \"StakeManager.sol\":919:979  require(state == stateManager.getState(), \"incorrect state\") */\n      tag_263\n      jumpi\n      mload(0x40)\n      0x08c379a000000000000000000000000000000000000000000000000000000000\n      dup2\n      mstore\n      0x04\n      add\n      tag_264\n      swap1\n      tag_265\n      jump\t// in\n    tag_264:\n      mload(0x40)\n      dup1\n      swap2\n      sub\n      swap1\n      revert\n    tag_263:\n        /* \"StakeManager.sol\":5302:5318  uint256 stakerId */\n      0x00\n        /* \"StakeManager.sol\":5321:5330  stakerIds */\n      0x01\n        /* \"StakeManager.sol\":5321:5342  stakerIds[msg.sender] */\n      0x00\n        /* \"StakeManager.sol\":5331:5341  msg.sender */\n      caller\n        /* \"StakeManager.sol\":5321:5342  stakerIds[msg.sender] */\n      0xffffffffffffffffffffffffffffffffffffffff\n      and\n      0xffffffffffffffffffffffffffffffffffffffff\n      and\n      dup2\n      mstore\n      0x20\n      add\n      swap1\n      dup2\n      mstore\n      0x20\n      add\n      0x00\n      keccak256\n      sload\n        /* \"StakeManager.sol\":5302:5342  uint256 stakerId = stakerIds[msg.sender] */\n      swap1\n      pop\n        /* \"StakeManager.sol\":5352:5381  Structs.Staker storage staker */\n      0x00\n        /* \"StakeManager.sol\":5384:5391  stakers */\n      0x02\n        /* \"StakeManager.sol\":5384:5401  stakers[stakerId] */\n      0x00\n        /* \"StakeManager.sol\":5392:5400  stakerId */\n      dup4\n        /* \"StakeManager.sol\":5384:5401  stakers[stakerId] */\n      dup2\n      mstore\n      0x20\n      add\n      swap1\n      dup2\n      mstore\n      0x20\n      add\n      0x00\n      keccak256\n        /* \"StakeManager.sol\":5352:5401  Structs.Staker storage staker = stakers[stakerId] */\n      swap1\n      pop\n        /* \"StakeManager.sol\":5432:5433  0 */\n      0x00\n        /* \"StakeManager.sol\":5419:5425  staker */\n      dup2\n        /* \"StakeManager.sol\":5419:5428  staker.id */\n      0x00\n      add\n      sload\n        /* \"StakeManager.sol\":5419:5433  staker.id != 0 */\n      eq\n      iszero\n        /* \"StakeManager.sol\":5411:5451  require(staker.id != 0, \"staker.id = 0\") */\n      tag_267\n      jumpi\n      mload(0x40)\n      0x08c379a000000000000000000000000000000000000000000000000000000000\n      dup2\n      mstore\n      0x04\n      add\n      tag_268\n      swap1\n      tag_269\n      jump\t// in\n    tag_268:\n      mload(0x40)\n      dup1\n      swap2\n      sub\n      swap1\n      revert\n    tag_267:\n        /* \"StakeManager.sol\":5484:5485  0 */\n      0x00\n        /* \"StakeManager.sol\":5469:5475  staker */\n      dup2\n        /* \"StakeManager.sol\":5469:5481  staker.stake */\n      0x02\n      add\n      sload\n        /* \"StakeManager.sol\":5469:5485  staker.stake > 0 */\n      gt\n        /* \"StakeManager.sol\":5461:5507  require(staker.stake > 0, \"Nonpositive stake\") */\n      tag_270\n      jumpi\n      mload(0x40)\n      0x08c379a000000000000000000000000000000000000000000000000000000000\n      dup2\n      mstore\n      0x04\n      add\n      tag_271\n      swap1\n      tag_272\n      jump\t// in\n    tag_271:\n      mload(0x40)\n      dup1\n      swap2\n      sub\n      swap1\n      revert\n    tag_270:\n        /* \"StakeManager.sol\":5548:5553  epoch */\n      dup5\n        /* \"StakeManager.sol\":5525:5531  staker */\n      dup2\n        /* \"StakeManager.sol\":5525:5544  staker.unstakeAfter */\n      0x06\n      add\n      sload\n        /* \"StakeManager.sol\":5525:5553  staker.unstakeAfter <= epoch */\n      gt\n      iszero\n        /* \"StakeManager.sol\":5525:5581  staker.unstakeAfter <= epoch && staker.unstakeAfter != 0 */\n      dup1\n      iszero\n      tag_273\n      jumpi\n      pop\n        /* \"StakeManager.sol\":5580:5581  0 */\n      0x00\n        /* \"StakeManager.sol\":5557:5563  staker */\n      dup2\n        /* \"StakeManager.sol\":5557:5576  staker.unstakeAfter */\n      0x06\n      add\n      sload\n        /* \"StakeManager.sol\":5557:5581  staker.unstakeAfter != 0 */\n      eq\n      iszero\n        /* \"StakeManager.sol\":5525:5581  staker.unstakeAfter <= epoch && staker.unstakeAfter != 0 */\n    tag_273:\n        /* \"StakeManager.sol\":5517:5592  require(staker.unstakeAfter <= epoch && staker.unstakeAfter != 0, \"locked\") */\n      tag_274\n      jumpi\n      mload(0x40)\n      0x08c379a000000000000000000000000000000000000000000000000000000000\n      dup2\n      mstore\n      0x04\n      add\n      tag_275\n      swap1\n      tag_276\n      jump\t// in\n    tag_275:\n      mload(0x40)\n      dup1\n      swap2\n      sub\n      swap1\n      revert\n    tag_274:\n        /* \"StakeManager.sol\":5624:5625  0 */\n      0x00\n        /* \"StakeManager.sol\":5602:5608  staker */\n      dup2\n        /* \"StakeManager.sol\":5602:5621  staker.unstakeAfter */\n      0x06\n      add\n        /* \"StakeManager.sol\":5602:5625  staker.unstakeAfter = 0 */\n      dup2\n      swap1\n      sstore\n      pop\n        /* \"StakeManager.sol\":5658:5699  epoch.add(Constants.withdrawLockPeriod()) */\n      tag_277\n        /* \"StakeManager.sol\":5668:5677  Constants */\n      linkerSymbol(\"e861534859442f2de25279a5ccd1626413b62699ca8b37407da3a6bf3bbbfee5\")\n        /* \"StakeManager.sol\":5668:5696  Constants.withdrawLockPeriod */\n      0x2628490f\n        /* \"StakeManager.sol\":5668:5698  Constants.withdrawLockPeriod() */\n      mload(0x40)\n      dup2\n      0xffffffff\n      and\n      0xe0\n      shl\n      dup2\n      mstore\n      0x04\n      add\n      0x20\n      mload(0x40)\n      dup1\n      dup4\n      sub\n      dup2\n      dup7\n      dup1\n      extcodesize\n      iszero\n      dup1\n      iszero\n      tag_278\n      jumpi\n      0x00\n      dup1\n      revert\n    tag_278:\n      pop\n      gas\n      delegatecall\n      iszero\n      dup1\n      iszero\n      tag_280\n      jumpi\n      returndatasize\n      0x00\n      dup1\n      returndatacopy\n      revert(0x00, returndatasize)\n    tag_280:\n      pop\n      pop\n      pop\n      pop\n      mload(0x40)\n      returndatasize\n      not(0x1f)\n      0x1f\n      dup3\n      add\n      and\n      dup3\n      add\n      dup1\n      0x40\n      mstore\n      pop\n      dup2\n      add\n      swap1\n      tag_281\n      swap2\n      swap1\n      tag_218\n      jump\t// in\n    tag_281:\n        /* \"StakeManager.sol\":5658:5663  epoch */\n      dup7\n        /* \"StakeManager.sol\":5658:5667  epoch.add */\n      tag_282\n      swap1\n        /* \"StakeManager.sol\":5658:5699  epoch.add(Constants.withdrawLockPeriod()) */\n      swap2\n      swap1\n      0xffffffff\n      and\n      jump\t// in\n    tag_277:\n        /* \"StakeManager.sol\":5635:5641  staker */\n      dup2\n        /* \"StakeManager.sol\":5635:5655  staker.withdrawAfter */\n      0x07\n      add\n        /* \"StakeManager.sol\":5635:5699  staker.withdrawAfter = epoch.add(Constants.withdrawLockPeriod()) */\n      dup2\n      swap1\n      sstore\n      pop\n        /* \"StakeManager.sol\":5730:5738  stakerId */\n      dup2\n        /* \"StakeManager.sol\":5714:5772  Unstaked(epoch, stakerId, staker.stake, staker.stake, now) */\n      0x0cfbc484edc798d2584502ca0d64e7e9514b8dd091d96a2a5b4deb58478da19e\n        /* \"StakeManager.sol\":5723:5728  epoch */\n      dup7\n        /* \"StakeManager.sol\":5740:5746  staker */\n      dup4\n        /* \"StakeManager.sol\":5740:5752  staker.stake */\n      0x02\n      add\n      sload\n        /* \"StakeManager.sol\":5754:5760  staker */\n      dup5\n        /* \"StakeManager.sol\":5754:5766  staker.stake */\n      0x02\n      add\n      sload\n        /* \"StakeManager.sol\":5768:5771  now */\n      timestamp\n        /* \"StakeManager.sol\":5714:5772  Unstaked(epoch, stakerId, staker.stake, staker.stake, now) */\n      mload(0x40)\n      tag_283\n      swap5\n      swap4\n      swap3\n      swap2\n      swap1\n      tag_284\n      jump\t// in\n    tag_283:\n      mload(0x40)\n      dup1\n      swap2\n      sub\n      swap1\n      log2\n        /* \"StakeManager.sol\":989:990  _ */\n      pop\n      pop\n        /* \"StakeManager.sol\":859:860  _ */\n      pop\n        /* \"StakeManager.sol\":5200:5779  function unstake (uint256 epoch) external checkEpoch(epoch)  checkState(Constants.commit()) {... */\n      pop\n      pop\n      jump\t// out\n        /* \"StakeManager.sol\":6053:7151  function withdraw (uint256 epoch) external checkEpoch(epoch) checkState(Constants.commit()) {... */\n    tag_91:\n        /* \"StakeManager.sol\":6107:6112  epoch */\n      dup1\n        /* \"StakeManager.sol\":806:818  stateManager */\n      0x09\n      0x00\n      swap1\n      sload\n      swap1\n      0x0100\n      exp\n      swap1\n      div\n      0xffffffffffffffffffffffffffffffffffffffff\n      and\n        /* \"StakeManager.sol\":806:827  stateManager.getEpoch */\n      0xffffffffffffffffffffffffffffffffffffffff\n      and\n      0x757991a8\n        /* \"StakeManager.sol\":806:829  stateManager.getEpoch() */\n      mload(0x40)\n      dup2\n      0xffffffff\n      and\n      0xe0\n      shl\n      dup2\n      mstore\n      0x04\n      add\n      0x20\n      mload(0x40)\n      dup1\n      dup4\n      sub\n      dup2\n      dup7\n      dup1\n      extcodesize\n      iszero\n      dup1\n      iszero\n      tag_286\n      jumpi\n      0x00\n      dup1\n      revert\n    tag_286:\n      pop\n      gas\n      staticcall\n      iszero\n      dup1\n      iszero\n      tag_288\n      jumpi\n      returndatasize\n      0x00\n      dup1\n      returndatacopy\n      revert(0x00, returndatasize)\n    tag_288:\n      pop\n      pop\n      pop\n      pop\n      mload(0x40)\n      returndatasize\n      not(0x1f)\n      0x1f\n      dup3\n      add\n      and\n      dup3\n      add\n      dup1\n      0x40\n      mstore\n      pop\n      dup2\n      add\n      swap1\n      tag_289\n      swap2\n      swap1\n      tag_218\n      jump\t// in\n    tag_289:\n        /* \"StakeManager.sol\":797:802  epoch */\n      dup2\n        /* \"StakeManager.sol\":797:829  epoch == stateManager.getEpoch() */\n      eq\n        /* \"StakeManager.sol\":789:849  require(epoch == stateManager.getEpoch(), \"incorrect epoch\") */\n      tag_290\n      jumpi\n      mload(0x40)\n      0x08c379a000000000000000000000000000000000000000000000000000000000\n      dup2\n      mstore\n      0x04\n      add\n      tag_291\n      swap1\n      tag_252\n      jump\t// in\n    tag_291:\n      mload(0x40)\n      dup1\n      swap2\n      sub\n      swap1\n      revert\n    tag_290:\n        /* \"StakeManager.sol\":6125:6134  Constants */\n      linkerSymbol(\"e861534859442f2de25279a5ccd1626413b62699ca8b37407da3a6bf3bbbfee5\")\n        /* \"StakeManager.sol\":6125:6141  Constants.commit */\n      0x3c7a3aff\n        /* \"StakeManager.sol\":6125:6143  Constants.commit() */\n      mload(0x40)\n      dup2\n      0xffffffff\n      and\n      0xe0\n      shl\n      dup2\n      mstore\n      0x04\n      add\n      0x20\n      mload(0x40)\n      dup1\n      dup4\n      sub\n      dup2\n      dup7\n      dup1\n      extcodesize\n      iszero\n      dup1\n      iszero\n      tag_292\n      jumpi\n      0x00\n      dup1\n      revert\n    tag_292:\n      pop\n      gas\n      delegatecall\n      iszero\n      dup1\n      iszero\n      tag_294\n      jumpi\n      returndatasize\n      0x00\n      dup1\n      returndatacopy\n      revert(0x00, returndatasize)\n    tag_294:\n      pop\n      pop\n      pop\n      pop\n      mload(0x40)\n      returndatasize\n      not(0x1f)\n      0x1f\n      dup3\n      add\n      and\n      dup3\n      add\n      dup1\n      0x40\n      mstore\n      pop\n      dup2\n      add\n      swap1\n      tag_295\n      swap2\n      swap1\n      tag_257\n      jump\t// in\n    tag_295:\n        /* \"StakeManager.sol\":873:997  modifier checkState (uint256 state) {... */\n      0xff\n      and\n        /* \"StakeManager.sol\":936:948  stateManager */\n      0x09\n      0x00\n      swap1\n      sload\n      swap1\n      0x0100\n      exp\n      swap1\n      div\n      0xffffffffffffffffffffffffffffffffffffffff\n      and\n        /* \"StakeManager.sol\":936:957  stateManager.getState */\n      0xffffffffffffffffffffffffffffffffffffffff\n      and\n      0x1865c57d\n        /* \"StakeManager.sol\":936:959  stateManager.getState() */\n      mload(0x40)\n      dup2\n      0xffffffff\n      and\n      0xe0\n      shl\n      dup2\n      mstore\n      0x04\n      add\n      0x20\n      mload(0x40)\n      dup1\n      dup4\n      sub\n      dup2\n      dup7\n      dup1\n      extcodesize\n      iszero\n      dup1\n      iszero\n      tag_297\n      jumpi\n      0x00\n      dup1\n      revert\n    tag_297:\n      pop\n      gas\n      staticcall\n      iszero\n      dup1\n      iszero\n      tag_299\n      jumpi\n      returndatasize\n      0x00\n      dup1\n      returndatacopy\n      revert(0x00, returndatasize)\n    tag_299:\n      pop\n      pop\n      pop\n      pop\n      mload(0x40)\n      returndatasize\n      not(0x1f)\n      0x1f\n      dup3\n      add\n      and\n      dup3\n      add\n      dup1\n      0x40\n      mstore\n      pop\n      dup2\n      add\n      swap1\n      tag_300\n      swap2\n      swap1\n      tag_218\n      jump\t// in\n    tag_300:\n        /* \"StakeManager.sol\":927:932  state */\n      dup2\n        /* \"StakeManager.sol\":927:959  state == stateManager.getState() */\n      eq\n        /* \"StakeManager.sol\":919:979  require(state == stateManager.getState(), \"incorrect state\") */\n      tag_301\n      jumpi\n      mload(0x40)\n      0x08c379a000000000000000000000000000000000000000000000000000000000\n      dup2\n      mstore\n      0x04\n      add\n      tag_302\n      swap1\n      tag_265\n      jump\t// in\n    tag_302:\n      mload(0x40)\n      dup1\n      swap2\n      sub\n      swap1\n      revert\n    tag_301:\n        /* \"StakeManager.sol\":6155:6171  uint256 stakerId */\n      0x00\n        /* \"StakeManager.sol\":6174:6183  stakerIds */\n      0x01\n        /* \"StakeManager.sol\":6174:6195  stakerIds[msg.sender] */\n      0x00\n        /* \"StakeManager.sol\":6184:6194  msg.sender */\n      caller\n        /* \"StakeManager.sol\":6174:6195  stakerIds[msg.sender] */\n      0xffffffffffffffffffffffffffffffffffffffff\n      and\n      0xffffffffffffffffffffffffffffffffffffffff\n      and\n      dup2\n      mstore\n      0x20\n      add\n      swap1\n      dup2\n      mstore\n      0x20\n      add\n      0x00\n      keccak256\n      sload\n        /* \"StakeManager.sol\":6155:6195  uint256 stakerId = stakerIds[msg.sender] */\n      swap1\n      pop\n        /* \"StakeManager.sol\":6205:6234  Structs.Staker storage staker */\n      0x00\n        /* \"StakeManager.sol\":6237:6244  stakers */\n      0x02\n        /* \"StakeManager.sol\":6237:6254  stakers[stakerId] */\n      0x00\n        /* \"StakeManager.sol\":6245:6253  stakerId */\n      dup4\n        /* \"StakeManager.sol\":6237:6254  stakers[stakerId] */\n      dup2\n      mstore\n      0x20\n      add\n      swap1\n      dup2\n      mstore\n      0x20\n      add\n      0x00\n      keccak256\n        /* \"StakeManager.sol\":6205:6254  Structs.Staker storage staker = stakers[stakerId] */\n      swap1\n      pop\n        /* \"StakeManager.sol\":6285:6286  0 */\n      0x00\n        /* \"StakeManager.sol\":6272:6278  staker */\n      dup2\n        /* \"StakeManager.sol\":6272:6281  staker.id */\n      0x00\n      add\n      sload\n        /* \"StakeManager.sol\":6272:6286  staker.id != 0 */\n      eq\n      iszero\n        /* \"StakeManager.sol\":6264:6310  require(staker.id != 0, \"staker doesnt exist\") */\n      tag_304\n      jumpi\n      mload(0x40)\n      0x08c379a000000000000000000000000000000000000000000000000000000000\n      dup2\n      mstore\n      0x04\n      add\n      tag_305\n      swap1\n      tag_306\n      jump\t// in\n    tag_305:\n      mload(0x40)\n      dup1\n      swap2\n      sub\n      swap1\n      revert\n    tag_304:\n        /* \"StakeManager.sol\":6356:6368  epoch.sub(1) */\n      tag_307\n        /* \"StakeManager.sol\":6366:6367  1 */\n      0x01\n        /* \"StakeManager.sol\":6356:6361  epoch */\n      dup7\n        /* \"StakeManager.sol\":6356:6365  epoch.sub */\n      tag_234\n      swap1\n        /* \"StakeManager.sol\":6356:6368  epoch.sub(1) */\n      swap2\n      swap1\n      0xffffffff\n      and\n      jump\t// in\n    tag_307:\n        /* \"StakeManager.sol\":6328:6334  staker */\n      dup2\n        /* \"StakeManager.sol\":6328:6352  staker.epochLastRevealed */\n      0x05\n      add\n      sload\n        /* \"StakeManager.sol\":6328:6368  staker.epochLastRevealed == epoch.sub(1) */\n      eq\n        /* \"StakeManager.sol\":6320:6399  require(staker.epochLastRevealed == epoch.sub(1), \"Didnt reveal in last epoch\") */\n      tag_308\n      jumpi\n      mload(0x40)\n      0x08c379a000000000000000000000000000000000000000000000000000000000\n      dup2\n      mstore\n      0x04\n      add\n      tag_309\n      swap1\n      tag_310\n      jump\t// in\n    tag_309:\n      mload(0x40)\n      dup1\n      swap2\n      sub\n      swap1\n      revert\n    tag_308:\n        /* \"StakeManager.sol\":6440:6441  0 */\n      0x00\n        /* \"StakeManager.sol\":6417:6423  staker */\n      dup2\n        /* \"StakeManager.sol\":6417:6436  staker.unstakeAfter */\n      0x06\n      add\n      sload\n        /* \"StakeManager.sol\":6417:6441  staker.unstakeAfter == 0 */\n      eq\n        /* \"StakeManager.sol\":6409:6461  require(staker.unstakeAfter == 0, \"Did not unstake\") */\n      tag_311\n      jumpi\n      mload(0x40)\n      0x08c379a000000000000000000000000000000000000000000000000000000000\n      dup2\n      mstore\n      0x04\n      add\n      tag_312\n      swap1\n      tag_313\n      jump\t// in\n    tag_312:\n      mload(0x40)\n      dup1\n      swap2\n      sub\n      swap1\n      revert\n    tag_311:\n        /* \"StakeManager.sol\":6504:6509  epoch */\n      dup5\n        /* \"StakeManager.sol\":6480:6486  staker */\n      dup2\n        /* \"StakeManager.sol\":6480:6500  staker.withdrawAfter */\n      0x07\n      add\n      sload\n        /* \"StakeManager.sol\":6480:6509  staker.withdrawAfter <= epoch */\n      gt\n      iszero\n        /* \"StakeManager.sol\":6479:6539  (staker.withdrawAfter <= epoch) && staker.withdrawAfter != 0 */\n      dup1\n      iszero\n      tag_314\n      jumpi\n      pop\n        /* \"StakeManager.sol\":6538:6539  0 */\n      0x00\n        /* \"StakeManager.sol\":6514:6520  staker */\n      dup2\n        /* \"StakeManager.sol\":6514:6534  staker.withdrawAfter */\n      0x07\n      add\n      sload\n        /* \"StakeManager.sol\":6514:6539  staker.withdrawAfter != 0 */\n      eq\n      iszero\n        /* \"StakeManager.sol\":6479:6539  (staker.withdrawAfter <= epoch) && staker.withdrawAfter != 0 */\n    tag_314:\n        /* \"StakeManager.sol\":6471:6570  require((staker.withdrawAfter <= epoch) && staker.withdrawAfter != 0, \"Withdraw epoch not reached\") */\n      tag_315\n      jumpi\n      mload(0x40)\n      0x08c379a000000000000000000000000000000000000000000000000000000000\n      dup2\n      mstore\n      0x04\n      add\n      tag_316\n      swap1\n      tag_317\n      jump\t// in\n    tag_316:\n      mload(0x40)\n      dup1\n      swap2\n      sub\n      swap1\n      revert\n    tag_315:\n        /* \"StakeManager.sol\":6634:6637  0x0 */\n      0x00\n        /* \"StakeManager.sol\":6588:6637  voteManager.getCommitment(epoch, stakerId) == 0x0 */\n      dup1\n      shl\n        /* \"StakeManager.sol\":6588:6599  voteManager */\n      0x07\n      0x00\n      swap1\n      sload\n      swap1\n      0x0100\n      exp\n      swap1\n      div\n      0xffffffffffffffffffffffffffffffffffffffff\n      and\n        /* \"StakeManager.sol\":6588:6613  voteManager.getCommitment */\n      0xffffffffffffffffffffffffffffffffffffffff\n      and\n      0x7164f0d6\n        /* \"StakeManager.sol\":6614:6619  epoch */\n      dup8\n        /* \"StakeManager.sol\":6621:6629  stakerId */\n      dup6\n        /* \"StakeManager.sol\":6588:6630  voteManager.getCommitment(epoch, stakerId) */\n      mload(0x40)\n      dup4\n      0xffffffff\n      and\n      0xe0\n      shl\n      dup2\n      mstore\n      0x04\n      add\n      tag_318\n      swap3\n      swap2\n      swap1\n      tag_319\n      jump\t// in\n    tag_318:\n      0x20\n      mload(0x40)\n      dup1\n      dup4\n      sub\n      dup2\n      dup7\n      dup1\n      extcodesize\n      iszero\n      dup1\n      iszero\n      tag_320\n      jumpi\n      0x00\n      dup1\n      revert\n    tag_320:\n      pop\n      gas\n      staticcall\n      iszero\n      dup1\n      iszero\n      tag_322\n      jumpi\n      returndatasize\n      0x00\n      dup1\n      returndatacopy\n      revert(0x00, returndatasize)\n    tag_322:\n      pop\n      pop\n      pop\n      pop\n      mload(0x40)\n      returndatasize\n      not(0x1f)\n      0x1f\n      dup3\n      add\n      and\n      dup3\n      add\n      dup1\n      0x40\n      mstore\n      pop\n      dup2\n      add\n      swap1\n      tag_323\n      swap2\n      swap1\n      tag_324\n      jump\t// in\n    tag_323:\n        /* \"StakeManager.sol\":6588:6637  voteManager.getCommitment(epoch, stakerId) == 0x0 */\n      eq\n        /* \"StakeManager.sol\":6580:6684  require(voteManager.getCommitment(epoch, stakerId) == 0x0, \"already commited this epoch. Cant withdraw\") */\n      tag_325\n      jumpi\n      mload(0x40)\n      0x08c379a000000000000000000000000000000000000000000000000000000000\n      dup2\n      mstore\n      0x04\n      add\n      tag_326\n      swap1\n      tag_327\n      jump\t// in\n    tag_326:\n      mload(0x40)\n      dup1\n      swap2\n      sub\n      swap1\n      revert\n    tag_325:\n        /* \"StakeManager.sol\":6694:6726  _givePenalties(staker.id, epoch) */\n      tag_328\n        /* \"StakeManager.sol\":6709:6715  staker */\n      dup2\n        /* \"StakeManager.sol\":6709:6718  staker.id */\n      0x00\n      add\n      sload\n        /* \"StakeManager.sol\":6720:6725  epoch */\n      dup7\n        /* \"StakeManager.sol\":6694:6708  _givePenalties */\n      tag_329\n        /* \"StakeManager.sol\":6694:6726  _givePenalties(staker.id, epoch) */\n      jump\t// in\n    tag_328:\n        /* \"StakeManager.sol\":6759:6760  0 */\n      0x00\n        /* \"StakeManager.sol\":6744:6750  staker */\n      dup2\n        /* \"StakeManager.sol\":6744:6756  staker.stake */\n      0x02\n      add\n      sload\n        /* \"StakeManager.sol\":6744:6760  staker.stake > 0 */\n      gt\n        /* \"StakeManager.sol\":6736:6782  require(staker.stake > 0, \"Nonpositive Stake\") */\n      tag_330\n      jumpi\n      mload(0x40)\n      0x08c379a000000000000000000000000000000000000000000000000000000000\n      dup2\n      mstore\n      0x04\n      add\n      tag_331\n      swap1\n      tag_332\n      jump\t// in\n    tag_331:\n      mload(0x40)\n      dup1\n      swap2\n      sub\n      swap1\n      revert\n    tag_330:\n        /* \"StakeManager.sol\":6915:6933  uint256 toTransfer */\n      0x00\n        /* \"StakeManager.sol\":6936:6943  stakers */\n      0x02\n        /* \"StakeManager.sol\":6936:6953  stakers[stakerId] */\n      0x00\n        /* \"StakeManager.sol\":6944:6952  stakerId */\n      dup5\n        /* \"StakeManager.sol\":6936:6953  stakers[stakerId] */\n      dup2\n      mstore\n      0x20\n      add\n      swap1\n      dup2\n      mstore\n      0x20\n      add\n      0x00\n      keccak256\n        /* \"StakeManager.sol\":6936:6959  stakers[stakerId].stake */\n      0x02\n      add\n      sload\n        /* \"StakeManager.sol\":6915:6959  uint256 toTransfer = stakers[stakerId].stake */\n      swap1\n      pop\n        /* \"StakeManager.sol\":6995:6996  0 */\n      0x00\n        /* \"StakeManager.sol\":6969:6976  stakers */\n      0x02\n        /* \"StakeManager.sol\":6969:6986  stakers[stakerId] */\n      0x00\n        /* \"StakeManager.sol\":6977:6985  stakerId */\n      dup6\n        /* \"StakeManager.sol\":6969:6986  stakers[stakerId] */\n      dup2\n      mstore\n      0x20\n      add\n      swap1\n      dup2\n      mstore\n      0x20\n      add\n      0x00\n      keccak256\n        /* \"StakeManager.sol\":6969:6992  stakers[stakerId].stake */\n      0x02\n      add\n        /* \"StakeManager.sol\":6969:6996  stakers[stakerId].stake = 0 */\n      dup2\n      swap1\n      sstore\n      pop\n        /* \"StakeManager.sol\":7027:7035  stakerId */\n      dup3\n        /* \"StakeManager.sol\":7011:7069  Withdrew(epoch, stakerId, stakers[stakerId].stake, 0, now) */\n      0x0a6fecee2c95fc6b4c7f291e3435a3a832bcd700c2a7ffdedd8c909d56dfa49f\n        /* \"StakeManager.sol\":7020:7025  epoch */\n      dup8\n        /* \"StakeManager.sol\":7037:7044  stakers */\n      0x02\n        /* \"StakeManager.sol\":7037:7054  stakers[stakerId] */\n      0x00\n        /* \"StakeManager.sol\":7045:7053  stakerId */\n      dup8\n        /* \"StakeManager.sol\":7037:7054  stakers[stakerId] */\n      dup2\n      mstore\n      0x20\n      add\n      swap1\n      dup2\n      mstore\n      0x20\n      add\n      0x00\n      keccak256\n        /* \"StakeManager.sol\":7037:7060  stakers[stakerId].stake */\n      0x02\n      add\n      sload\n        /* \"StakeManager.sol\":7062:7063  0 */\n      0x00\n        /* \"StakeManager.sol\":7065:7068  now */\n      timestamp\n        /* \"StakeManager.sol\":7011:7069  Withdrew(epoch, stakerId, stakers[stakerId].stake, 0, now) */\n      mload(0x40)\n      tag_333\n      swap5\n      swap4\n      swap3\n      swap2\n      swap1\n      tag_334\n      jump\t// in\n    tag_333:\n      mload(0x40)\n      dup1\n      swap2\n      sub\n      swap1\n      log2\n        /* \"StakeManager.sol\":7087:7090  sch */\n      0x06\n      0x00\n      swap1\n      sload\n      swap1\n      0x0100\n      exp\n      swap1\n      div\n      0xffffffffffffffffffffffffffffffffffffffff\n      and\n        /* \"StakeManager.sol\":7087:7099  sch.transfer */\n      0xffffffffffffffffffffffffffffffffffffffff\n      and\n      0xa9059cbb\n        /* \"StakeManager.sol\":7100:7110  msg.sender */\n      caller\n        /* \"StakeManager.sol\":7112:7122  toTransfer */\n      dup4\n        /* \"StakeManager.sol\":7087:7123  sch.transfer(msg.sender, toTransfer) */\n      mload(0x40)\n      dup4\n      0xffffffff\n      and\n      0xe0\n      shl\n      dup2\n      mstore\n      0x04\n      add\n      tag_335\n      swap3\n      swap2\n      swap1\n      tag_336\n      jump\t// in\n    tag_335:\n      0x20\n      mload(0x40)\n      dup1\n      dup4\n      sub\n      dup2\n      0x00\n      dup8\n      dup1\n      extcodesize\n      iszero\n      dup1\n      iszero\n      tag_337\n      jumpi\n      0x00\n      dup1\n      revert\n    tag_337:\n      pop\n      gas\n      call\n      iszero\n      dup1\n      iszero\n      tag_339\n      jumpi\n      returndatasize\n      0x00\n      dup1\n      returndatacopy\n      revert(0x00, returndatasize)\n    tag_339:\n      pop\n      pop\n      pop\n      pop\n      mload(0x40)\n      returndatasize\n      not(0x1f)\n      0x1f\n      dup3\n      add\n      and\n      dup3\n      add\n      dup1\n      0x40\n      mstore\n      pop\n      dup2\n      add\n      swap1\n      tag_340\n      swap2\n      swap1\n      tag_205\n      jump\t// in\n    tag_340:\n        /* \"StakeManager.sol\":7079:7144  require(sch.transfer(msg.sender, toTransfer), \"couldnt transfer\") */\n      tag_341\n      jumpi\n      mload(0x40)\n      0x08c379a000000000000000000000000000000000000000000000000000000000\n      dup2\n      mstore\n      0x04\n      add\n      tag_342\n      swap1\n      tag_343\n      jump\t// in\n    tag_342:\n      mload(0x40)\n      dup1\n      swap2\n      sub\n      swap1\n      revert\n    tag_341:\n        /* \"StakeManager.sol\":989:990  _ */\n      pop\n      pop\n      pop\n        /* \"StakeManager.sol\":859:860  _ */\n      pop\n        /* \"StakeManager.sol\":6053:7151  function withdraw (uint256 epoch) external checkEpoch(epoch) checkState(Constants.commit()) {... */\n      pop\n      pop\n      jump\t// out\n        /* \"StakeManager.sol\":703:736  IStateManager public stateManager */\n    tag_93:\n      0x09\n      0x00\n      swap1\n      sload\n      swap1\n      0x0100\n      exp\n      swap1\n      div\n      0xffffffffffffffffffffffffffffffffffffffff\n      and\n      dup2\n      jump\t// out\n        /* \"openzeppelin-solidity/contracts/access/AccessControl.sol\":4634:4857   */\n    tag_99:\n        /* \"openzeppelin-solidity/contracts/access/AccessControl.sol\":4717:4762   */\n      tag_345\n        /* \"openzeppelin-solidity/contracts/access/AccessControl.sol\":4725:4731   */\n      0x00\n        /* \"openzeppelin-solidity/contracts/access/AccessControl.sol\":4725:4737   */\n      dup1\n        /* \"openzeppelin-solidity/contracts/access/AccessControl.sol\":4732:4736   */\n      dup5\n        /* \"openzeppelin-solidity/contracts/access/AccessControl.sol\":4725:4737   */\n      dup2\n      mstore\n      0x20\n      add\n      swap1\n      dup2\n      mstore\n      0x20\n      add\n      0x00\n      keccak256\n        /* \"openzeppelin-solidity/contracts/access/AccessControl.sol\":4725:4747   */\n      0x02\n      add\n      sload\n        /* \"openzeppelin-solidity/contracts/access/AccessControl.sol\":4749:4761   */\n      tag_346\n        /* \"openzeppelin-solidity/contracts/access/AccessControl.sol\":4749:4759   */\n      tag_347\n        /* \"openzeppelin-solidity/contracts/access/AccessControl.sol\":4749:4761   */\n      jump\t// in\n    tag_346:\n        /* \"openzeppelin-solidity/contracts/access/AccessControl.sol\":4717:4724   */\n      tag_134\n        /* \"openzeppelin-solidity/contracts/access/AccessControl.sol\":4717:4762   */\n      jump\t// in\n    tag_345:\n        /* \"openzeppelin-solidity/contracts/access/AccessControl.sol\":4709:4814   */\n      tag_348\n      jumpi\n      mload(0x40)\n      0x08c379a000000000000000000000000000000000000000000000000000000000\n      dup2\n      mstore\n      0x04\n      add\n      tag_349\n      swap1\n      tag_350\n      jump\t// in\n    tag_349:\n      mload(0x40)\n      dup1\n      swap2\n      sub\n      swap1\n      revert\n    tag_348:\n        /* \"openzeppelin-solidity/contracts/access/AccessControl.sol\":4825:4850   */\n      tag_351\n        /* \"openzeppelin-solidity/contracts/access/AccessControl.sol\":4836:4840   */\n      dup3\n        /* \"openzeppelin-solidity/contracts/access/AccessControl.sol\":4842:4849   */\n      dup3\n        /* \"openzeppelin-solidity/contracts/access/AccessControl.sol\":4825:4835   */\n      tag_352\n        /* \"openzeppelin-solidity/contracts/access/AccessControl.sol\":4825:4850   */\n      jump\t// in\n    tag_351:\n        /* \"openzeppelin-solidity/contracts/access/AccessControl.sol\":4634:4857   */\n      pop\n      pop\n      jump\t// out\n        /* \"openzeppelin-solidity/contracts/access/AccessControl.sol\":5808:6013   */\n    tag_102:\n        /* \"openzeppelin-solidity/contracts/access/AccessControl.sol\":5905:5917   */\n      tag_354\n        /* \"openzeppelin-solidity/contracts/access/AccessControl.sol\":5905:5915   */\n      tag_347\n        /* \"openzeppelin-solidity/contracts/access/AccessControl.sol\":5905:5917   */\n      jump\t// in\n    tag_354:\n        /* \"openzeppelin-solidity/contracts/access/AccessControl.sol\":5894:5917   */\n      0xffffffffffffffffffffffffffffffffffffffff\n      and\n        /* \"openzeppelin-solidity/contracts/access/AccessControl.sol\":5894:5901   */\n      dup2\n        /* \"openzeppelin-solidity/contracts/access/AccessControl.sol\":5894:5917   */\n      0xffffffffffffffffffffffffffffffffffffffff\n      and\n      eq\n        /* \"openzeppelin-solidity/contracts/access/AccessControl.sol\":5886:5969   */\n      tag_355\n      jumpi\n      mload(0x40)\n      0x08c379a000000000000000000000000000000000000000000000000000000000\n      dup2\n      mstore\n      0x04\n      add\n      tag_356\n      swap1\n      tag_357\n      jump\t// in\n    tag_356:\n      mload(0x40)\n      dup1\n      swap2\n      sub\n      swap1\n      revert\n    tag_355:\n        /* \"openzeppelin-solidity/contracts/access/AccessControl.sol\":5980:6006   */\n      tag_358\n        /* \"openzeppelin-solidity/contracts/access/AccessControl.sol\":5992:5996   */\n      dup3\n        /* \"openzeppelin-solidity/contracts/access/AccessControl.sol\":5998:6005   */\n      dup3\n        /* \"openzeppelin-solidity/contracts/access/AccessControl.sol\":5980:5991   */\n      tag_359\n        /* \"openzeppelin-solidity/contracts/access/AccessControl.sol\":5980:6006   */\n      jump\t// in\n    tag_358:\n        /* \"openzeppelin-solidity/contracts/access/AccessControl.sol\":5808:6013   */\n      pop\n      pop\n      jump\t// out\n        /* \"StakeManager.sol\":627:658  IVoteManager public voteManager */\n    tag_104:\n      0x07\n      0x00\n      swap1\n      sload\n      swap1\n      0x0100\n      exp\n      swap1\n      div\n      0xffffffffffffffffffffffffffffffffffffffff\n      and\n      dup2\n      jump\t// out\n        /* \"StakeManager.sol\":7391:7516  function givePenalties (uint256 stakerId, uint256 epoch) external onlyWriter {... */\n    tag_109:\n        /* \"WriterRole.sol\":570:590  isWriter(msg.sender) */\n      tag_361\n        /* \"WriterRole.sol\":579:589  msg.sender */\n      caller\n        /* \"WriterRole.sol\":570:578  isWriter */\n      tag_83\n        /* \"WriterRole.sol\":570:590  isWriter(msg.sender) */\n      jump\t// in\n    tag_361:\n        /* \"WriterRole.sol\":562:643  require(isWriter(msg.sender), \"WriterRole: caller does not have the Writer role\") */\n      tag_362\n      jumpi\n      mload(0x40)\n      0x08c379a000000000000000000000000000000000000000000000000000000000\n      dup2\n      mstore\n      0x04\n      add\n      tag_363\n      swap1\n      tag_192\n      jump\t// in\n    tag_363:\n      mload(0x40)\n      dup1\n      swap2\n      sub\n      swap1\n      revert\n    tag_362:\n        /* \"StakeManager.sol\":7478:7509  _givePenalties(stakerId, epoch) */\n      tag_365\n        /* \"StakeManager.sol\":7493:7501  stakerId */\n      dup3\n        /* \"StakeManager.sol\":7503:7508  epoch */\n      dup3\n        /* \"StakeManager.sol\":7478:7492  _givePenalties */\n      tag_329\n        /* \"StakeManager.sol\":7478:7509  _givePenalties(stakerId, epoch) */\n      jump\t// in\n    tag_365:\n        /* \"StakeManager.sol\":7391:7516  function givePenalties (uint256 stakerId, uint256 epoch) external onlyWriter {... */\n      pop\n      pop\n      jump\t// out\n        /* \"StakeManager.sol\":12384:12498  function getStakerId(address _address) external view returns(uint256) {... */\n    tag_112:\n        /* \"StakeManager.sol\":12445:12452  uint256 */\n      0x00\n        /* \"StakeManager.sol\":12471:12480  stakerIds */\n      0x01\n        /* \"StakeManager.sol\":12471:12490  stakerIds[_address] */\n      0x00\n        /* \"StakeManager.sol\":12481:12489  _address */\n      dup4\n        /* \"StakeManager.sol\":12471:12490  stakerIds[_address] */\n      0xffffffffffffffffffffffffffffffffffffffff\n      and\n      0xffffffffffffffffffffffffffffffffffffffff\n      and\n      dup2\n      mstore\n      0x20\n      add\n      swap1\n      dup2\n      mstore\n      0x20\n      add\n      0x00\n      keccak256\n      sload\n        /* \"StakeManager.sol\":12464:12491  return(stakerIds[_address]) */\n      swap1\n      pop\n        /* \"StakeManager.sol\":12384:12498  function getStakerId(address _address) external view returns(uint256) {... */\n      swap2\n      swap1\n      pop\n      jump\t// out\n        /* \"StakeStorage.sol\":330:359  uint256 public rewardPool = 0 */\n    tag_115:\n      sload(0x04)\n      dup2\n      jump\t// out\n        /* \"StakeStorage.sol\":262:291  uint256 public numStakers = 0 */\n    tag_118:\n      sload(0x03)\n      dup2\n      jump\t// out\n        /* \"StakeManager.sol\":7791:8514  function giveBlockReward(uint256 stakerId, uint256 epoch) external onlyWriter {... */\n    tag_122:\n        /* \"WriterRole.sol\":570:590  isWriter(msg.sender) */\n      tag_368\n        /* \"WriterRole.sol\":579:589  msg.sender */\n      caller\n        /* \"WriterRole.sol\":570:578  isWriter */\n      tag_83\n        /* \"WriterRole.sol\":570:590  isWriter(msg.sender) */\n      jump\t// in\n    tag_368:\n        /* \"WriterRole.sol\":562:643  require(isWriter(msg.sender), \"WriterRole: caller does not have the Writer role\") */\n      tag_369\n      jumpi\n      mload(0x40)\n      0x08c379a000000000000000000000000000000000000000000000000000000000\n      dup2\n      mstore\n      0x04\n      add\n      tag_370\n      swap1\n      tag_192\n      jump\t// in\n    tag_370:\n      mload(0x40)\n      dup1\n      swap2\n      sub\n      swap1\n      revert\n    tag_369:\n        /* \"StakeManager.sol\":7909:7910  0 */\n      0x00\n        /* \"StakeManager.sol\":7883:7892  Constants */\n      linkerSymbol(\"e861534859442f2de25279a5ccd1626413b62699ca8b37407da3a6bf3bbbfee5\")\n        /* \"StakeManager.sol\":7883:7904  Constants.blockReward */\n      0x0ac168a1\n        /* \"StakeManager.sol\":7883:7906  Constants.blockReward() */\n      mload(0x40)\n      dup2\n      0xffffffff\n      and\n      0xe0\n      shl\n      dup2\n      mstore\n      0x04\n      add\n      0x20\n      mload(0x40)\n      dup1\n      dup4\n      sub\n      dup2\n      dup7\n      dup1\n      extcodesize\n      iszero\n      dup1\n      iszero\n      tag_372\n      jumpi\n      0x00\n      dup1\n      revert\n    tag_372:\n      pop\n      gas\n      delegatecall\n      iszero\n      dup1\n      iszero\n      tag_374\n      jumpi\n      returndatasize\n      0x00\n      dup1\n      returndatacopy\n      revert(0x00, returndatasize)\n    tag_374:\n      pop\n      pop\n      pop\n      pop\n      mload(0x40)\n      returndatasize\n      not(0x1f)\n      0x1f\n      dup3\n      add\n      and\n      dup3\n      add\n      dup1\n      0x40\n      mstore\n      pop\n      dup2\n      add\n      swap1\n      tag_375\n      swap2\n      swap1\n      tag_218\n      jump\t// in\n    tag_375:\n        /* \"StakeManager.sol\":7883:7910  Constants.blockReward() > 0 */\n      gt\n        /* \"StakeManager.sol\":7879:8319  if (Constants.blockReward() > 0) {... */\n      iszero\n      tag_376\n      jumpi\n        /* \"StakeManager.sol\":7926:7942  uint256 newStake */\n      0x00\n        /* \"StakeManager.sol\":7945:7997  stakers[stakerId].stake.add(Constants.blockReward()) */\n      tag_377\n        /* \"StakeManager.sol\":7973:7982  Constants */\n      linkerSymbol(\"e861534859442f2de25279a5ccd1626413b62699ca8b37407da3a6bf3bbbfee5\")\n        /* \"StakeManager.sol\":7973:7994  Constants.blockReward */\n      0x0ac168a1\n        /* \"StakeManager.sol\":7973:7996  Constants.blockReward() */\n      mload(0x40)\n      dup2\n      0xffffffff\n      and\n      0xe0\n      shl\n      dup2\n      mstore\n      0x04\n      add\n      0x20\n      mload(0x40)\n      dup1\n      dup4\n      sub\n      dup2\n      dup7\n      dup1\n      extcodesize\n      iszero\n      dup1\n      iszero\n      tag_378\n      jumpi\n      0x00\n      dup1\n      revert\n    tag_378:\n      pop\n      gas\n      delegatecall\n      iszero\n      dup1\n      iszero\n      tag_380\n      jumpi\n      returndatasize\n      0x00\n      dup1\n      returndatacopy\n      revert(0x00, returndatasize)\n    tag_380:\n      pop\n      pop\n      pop\n      pop\n      mload(0x40)\n      returndatasize\n      not(0x1f)\n      0x1f\n      dup3\n      add\n      and\n      dup3\n      add\n      dup1\n      0x40\n      mstore\n      pop\n      dup2\n      add\n      swap1\n      tag_381\n      swap2\n      swap1\n      tag_218\n      jump\t// in\n    tag_381:\n        /* \"StakeManager.sol\":7945:7952  stakers */\n      0x02\n        /* \"StakeManager.sol\":7945:7962  stakers[stakerId] */\n      0x00\n        /* \"StakeManager.sol\":7953:7961  stakerId */\n      dup7\n        /* \"StakeManager.sol\":7945:7962  stakers[stakerId] */\n      dup2\n      mstore\n      0x20\n      add\n      swap1\n      dup2\n      mstore\n      0x20\n      add\n      0x00\n      keccak256\n        /* \"StakeManager.sol\":7945:7968  stakers[stakerId].stake */\n      0x02\n      add\n      sload\n        /* \"StakeManager.sol\":7945:7972  stakers[stakerId].stake.add */\n      tag_282\n      swap1\n        /* \"StakeManager.sol\":7945:7997  stakers[stakerId].stake.add(Constants.blockReward()) */\n      swap2\n      swap1\n      0xffffffff\n      and\n      jump\t// in\n    tag_377:\n        /* \"StakeManager.sol\":7926:7997  uint256 newStake = stakers[stakerId].stake.add(Constants.blockReward()) */\n      swap1\n      pop\n        /* \"StakeManager.sol\":8011:8069  _setStakerStake(stakerId, newStake, \"Block Reward\", epoch) */\n      tag_382\n        /* \"StakeManager.sol\":8027:8035  stakerId */\n      dup4\n        /* \"StakeManager.sol\":8037:8045  newStake */\n      dup3\n        /* \"StakeManager.sol\":8011:8069  _setStakerStake(stakerId, newStake, \"Block Reward\", epoch) */\n      mload(0x40)\n      dup1\n      0x40\n      add\n      0x40\n      mstore\n      dup1\n      0x0c\n      dup2\n      mstore\n      0x20\n      add\n      0x426c6f636b205265776172640000000000000000000000000000000000000000\n      dup2\n      mstore\n      pop\n        /* \"StakeManager.sol\":8063:8068  epoch */\n      dup6\n        /* \"StakeManager.sol\":8011:8026  _setStakerStake */\n      tag_197\n        /* \"StakeManager.sol\":8011:8069  _setStakerStake(stakerId, newStake, \"Block Reward\", epoch) */\n      jump\t// in\n    tag_382:\n        /* \"StakeManager.sol\":8259:8262  sch */\n      0x06\n      0x00\n      swap1\n      sload\n      swap1\n      0x0100\n      exp\n      swap1\n      div\n      0xffffffffffffffffffffffffffffffffffffffff\n      and\n        /* \"StakeManager.sol\":8259:8267  sch.mint */\n      0xffffffffffffffffffffffffffffffffffffffff\n      and\n      0x40c10f19\n        /* \"StakeManager.sol\":8276:8280  this */\n      address\n        /* \"StakeManager.sol\":8283:8292  Constants */\n      linkerSymbol(\"e861534859442f2de25279a5ccd1626413b62699ca8b37407da3a6bf3bbbfee5\")\n        /* \"StakeManager.sol\":8283:8304  Constants.blockReward */\n      0x0ac168a1\n        /* \"StakeManager.sol\":8283:8306  Constants.blockReward() */\n      mload(0x40)\n      dup2\n      0xffffffff\n      and\n      0xe0\n      shl\n      dup2\n      mstore\n      0x04\n      add\n      0x20\n      mload(0x40)\n      dup1\n      dup4\n      sub\n      dup2\n      dup7\n      dup1\n      extcodesize\n      iszero\n      dup1\n      iszero\n      tag_383\n      jumpi\n      0x00\n      dup1\n      revert\n    tag_383:\n      pop\n      gas\n      delegatecall\n      iszero\n      dup1\n      iszero\n      tag_385\n      jumpi\n      returndatasize\n      0x00\n      dup1\n      returndatacopy\n      revert(0x00, returndatasize)\n    tag_385:\n      pop\n      pop\n      pop\n      pop\n      mload(0x40)\n      returndatasize\n      not(0x1f)\n      0x1f\n      dup3\n      add\n      and\n      dup3\n      add\n      dup1\n      0x40\n      mstore\n      pop\n      dup2\n      add\n      swap1\n      tag_386\n      swap2\n      swap1\n      tag_218\n      jump\t// in\n    tag_386:\n        /* \"StakeManager.sol\":8259:8307  sch.mint(address(this), Constants.blockReward()) */\n      mload(0x40)\n      dup4\n      0xffffffff\n      and\n      0xe0\n      shl\n      dup2\n      mstore\n      0x04\n      add\n      tag_387\n      swap3\n      swap2\n      swap1\n      tag_200\n      jump\t// in\n    tag_387:\n      0x20\n      mload(0x40)\n      dup1\n      dup4\n      sub\n      dup2\n      0x00\n      dup8\n      dup1\n      extcodesize\n      iszero\n      dup1\n      iszero\n      tag_388\n      jumpi\n      0x00\n      dup1\n      revert\n    tag_388:\n      pop\n      gas\n      call\n      iszero\n      dup1\n      iszero\n      tag_390\n      jumpi\n      returndatasize\n      0x00\n      dup1\n      returndatacopy\n      revert(0x00, returndatasize)\n    tag_390:\n      pop\n      pop\n      pop\n      pop\n      mload(0x40)\n      returndatasize\n      not(0x1f)\n      0x1f\n      dup3\n      add\n      and\n      dup3\n      add\n      dup1\n      0x40\n      mstore\n      pop\n      dup2\n      add\n      swap1\n      tag_391\n      swap2\n      swap1\n      tag_205\n      jump\t// in\n    tag_391:\n        /* \"StakeManager.sol\":8251:8308  require(sch.mint(address(this), Constants.blockReward())) */\n      tag_392\n      jumpi\n      0x00\n      dup1\n      revert\n    tag_392:\n        /* \"StakeManager.sol\":7879:8319  if (Constants.blockReward() > 0) {... */\n      pop\n    tag_376:\n        /* \"StakeManager.sol\":8328:8358  uint256 prevStakeGettingReward */\n      0x00\n        /* \"StakeManager.sol\":8361:8379  stakeGettingReward */\n      sload(0x05)\n        /* \"StakeManager.sol\":8328:8379  uint256 prevStakeGettingReward = stakeGettingReward */\n      swap1\n      pop\n        /* \"StakeManager.sol\":8410:8411  0 */\n      0x00\n        /* \"StakeManager.sol\":8389:8407  stakeGettingReward */\n      0x05\n        /* \"StakeManager.sol\":8389:8411  stakeGettingReward = 0 */\n      dup2\n      swap1\n      sstore\n      pop\n        /* \"StakeManager.sol\":8426:8506  StakeGettingRewardChange(epoch, prevStakeGettingReward, stakeGettingReward, now) */\n      0xeee26d3c1e406e24904d3748e49da85096c92ac1a6ad38f3fe8a404f85212dd1\n        /* \"StakeManager.sol\":8451:8456  epoch */\n      dup3\n        /* \"StakeManager.sol\":8458:8480  prevStakeGettingReward */\n      dup3\n        /* \"StakeManager.sol\":8482:8500  stakeGettingReward */\n      sload(0x05)\n        /* \"StakeManager.sol\":8502:8505  now */\n      timestamp\n        /* \"StakeManager.sol\":8426:8506  StakeGettingRewardChange(epoch, prevStakeGettingReward, stakeGettingReward, now) */\n      mload(0x40)\n      tag_393\n      swap5\n      swap4\n      swap3\n      swap2\n      swap1\n      tag_284\n      jump\t// in\n    tag_393:\n      mload(0x40)\n      dup1\n      swap2\n      sub\n      swap1\n      log1\n        /* \"WriterRole.sol\":653:654  _ */\n      pop\n        /* \"StakeManager.sol\":7791:8514  function giveBlockReward(uint256 stakerId, uint256 epoch) external onlyWriter {... */\n      pop\n      pop\n      jump\t// out\n        /* \"StakeManager.sol\":3311:4838  function stake (uint256 epoch, uint256 amount) external checkEpoch(epoch) checkState(Constants.commit()) {... */\n    tag_125:\n        /* \"StakeManager.sol\":3378:3383  epoch */\n      dup2\n        /* \"StakeManager.sol\":806:818  stateManager */\n      0x09\n      0x00\n      swap1\n      sload\n      swap1\n      0x0100\n      exp\n      swap1\n      div\n      0xffffffffffffffffffffffffffffffffffffffff\n      and\n        /* \"StakeManager.sol\":806:827  stateManager.getEpoch */\n      0xffffffffffffffffffffffffffffffffffffffff\n      and\n      0x757991a8\n        /* \"StakeManager.sol\":806:829  stateManager.getEpoch() */\n      mload(0x40)\n      dup2\n      0xffffffff\n      and\n      0xe0\n      shl\n      dup2\n      mstore\n      0x04\n      add\n      0x20\n      mload(0x40)\n      dup1\n      dup4\n      sub\n      dup2\n      dup7\n      dup1\n      extcodesize\n      iszero\n      dup1\n      iszero\n      tag_395\n      jumpi\n      0x00\n      dup1\n      revert\n    tag_395:\n      pop\n      gas\n      staticcall\n      iszero\n      dup1\n      iszero\n      tag_397\n      jumpi\n      returndatasize\n      0x00\n      dup1\n      returndatacopy\n      revert(0x00, returndatasize)\n    tag_397:\n      pop\n      pop\n      pop\n      pop\n      mload(0x40)\n      returndatasize\n      not(0x1f)\n      0x1f\n      dup3\n      add\n      and\n      dup3\n      add\n      dup1\n      0x40\n      mstore\n      pop\n      dup2\n      add\n      swap1\n      tag_398\n      swap2\n      swap1\n      tag_218\n      jump\t// in\n    tag_398:\n        /* \"StakeManager.sol\":797:802  epoch */\n      dup2\n        /* \"StakeManager.sol\":797:829  epoch == stateManager.getEpoch() */\n      eq\n        /* \"StakeManager.sol\":789:849  require(epoch == stateManager.getEpoch(), \"incorrect epoch\") */\n      tag_399\n      jumpi\n      mload(0x40)\n      0x08c379a000000000000000000000000000000000000000000000000000000000\n      dup2\n      mstore\n      0x04\n      add\n      tag_400\n      swap1\n      tag_252\n      jump\t// in\n    tag_400:\n      mload(0x40)\n      dup1\n      swap2\n      sub\n      swap1\n      revert\n    tag_399:\n        /* \"StakeManager.sol\":3396:3405  Constants */\n      linkerSymbol(\"e861534859442f2de25279a5ccd1626413b62699ca8b37407da3a6bf3bbbfee5\")\n        /* \"StakeManager.sol\":3396:3412  Constants.commit */\n      0x3c7a3aff\n        /* \"StakeManager.sol\":3396:3414  Constants.commit() */\n      mload(0x40)\n      dup2\n      0xffffffff\n      and\n      0xe0\n      shl\n      dup2\n      mstore\n      0x04\n      add\n      0x20\n      mload(0x40)\n      dup1\n      dup4\n      sub\n      dup2\n      dup7\n      dup1\n      extcodesize\n      iszero\n      dup1\n      iszero\n      tag_401\n      jumpi\n      0x00\n      dup1\n      revert\n    tag_401:\n      pop\n      gas\n      delegatecall\n      iszero\n      dup1\n      iszero\n      tag_403\n      jumpi\n      returndatasize\n      0x00\n      dup1\n      returndatacopy\n      revert(0x00, returndatasize)\n    tag_403:\n      pop\n      pop\n      pop\n      pop\n      mload(0x40)\n      returndatasize\n      not(0x1f)\n      0x1f\n      dup3\n      add\n      and\n      dup3\n      add\n      dup1\n      0x40\n      mstore\n      pop\n      dup2\n      add\n      swap1\n      tag_404\n      swap2\n      swap1\n      tag_257\n      jump\t// in\n    tag_404:\n        /* \"StakeManager.sol\":873:997  modifier checkState (uint256 state) {... */\n      0xff\n      and\n        /* \"StakeManager.sol\":936:948  stateManager */\n      0x09\n      0x00\n      swap1\n      sload\n      swap1\n      0x0100\n      exp\n      swap1\n      div\n      0xffffffffffffffffffffffffffffffffffffffff\n      and\n        /* \"StakeManager.sol\":936:957  stateManager.getState */\n      0xffffffffffffffffffffffffffffffffffffffff\n      and\n      0x1865c57d\n        /* \"StakeManager.sol\":936:959  stateManager.getState() */\n      mload(0x40)\n      dup2\n      0xffffffff\n      and\n      0xe0\n      shl\n      dup2\n      mstore\n      0x04\n      add\n      0x20\n      mload(0x40)\n      dup1\n      dup4\n      sub\n      dup2\n      dup7\n      dup1\n      extcodesize\n      iszero\n      dup1\n      iszero\n      tag_406\n      jumpi\n      0x00\n      dup1\n      revert\n    tag_406:\n      pop\n      gas\n      staticcall\n      iszero\n      dup1\n      iszero\n      tag_408\n      jumpi\n      returndatasize\n      0x00\n      dup1\n      returndatacopy\n      revert(0x00, returndatasize)\n    tag_408:\n      pop\n      pop\n      pop\n      pop\n      mload(0x40)\n      returndatasize\n      not(0x1f)\n      0x1f\n      dup3\n      add\n      and\n      dup3\n      add\n      dup1\n      0x40\n      mstore\n      pop\n      dup2\n      add\n      swap1\n      tag_409\n      swap2\n      swap1\n      tag_218\n      jump\t// in\n    tag_409:\n        /* \"StakeManager.sol\":927:932  state */\n      dup2\n        /* \"StakeManager.sol\":927:959  state == stateManager.getState() */\n      eq\n        /* \"StakeManager.sol\":919:979  require(state == stateManager.getState(), \"incorrect state\") */\n      tag_410\n      jumpi\n      mload(0x40)\n      0x08c379a000000000000000000000000000000000000000000000000000000000\n      dup2\n      mstore\n      0x04\n      add\n      tag_411\n      swap1\n      tag_265\n      jump\t// in\n    tag_411:\n      mload(0x40)\n      dup1\n      swap2\n      sub\n      swap1\n      revert\n    tag_410:\n        /* \"StakeManager.sol\":3505:3514  Constants */\n      linkerSymbol(\"e861534859442f2de25279a5ccd1626413b62699ca8b37407da3a6bf3bbbfee5\")\n        /* \"StakeManager.sol\":3505:3521  Constants.reveal */\n      0xa475b5dd\n        /* \"StakeManager.sol\":3505:3523  Constants.reveal() */\n      mload(0x40)\n      dup2\n      0xffffffff\n      and\n      0xe0\n      shl\n      dup2\n      mstore\n      0x04\n      add\n      0x20\n      mload(0x40)\n      dup1\n      dup4\n      sub\n      dup2\n      dup7\n      dup1\n      extcodesize\n      iszero\n      dup1\n      iszero\n      tag_413\n      jumpi\n      0x00\n      dup1\n      revert\n    tag_413:\n      pop\n      gas\n      delegatecall\n      iszero\n      dup1\n      iszero\n      tag_415\n      jumpi\n      returndatasize\n      0x00\n      dup1\n      returndatacopy\n      revert(0x00, returndatasize)\n    tag_415:\n      pop\n      pop\n      pop\n      pop\n      mload(0x40)\n      returndatasize\n      not(0x1f)\n      0x1f\n      dup3\n      add\n      and\n      dup3\n      add\n      dup1\n      0x40\n      mstore\n      pop\n      dup2\n      add\n      swap1\n      tag_416\n      swap2\n      swap1\n      tag_257\n      jump\t// in\n    tag_416:\n        /* \"StakeManager.sol\":3478:3523  stateManager.getState() != Constants.reveal() */\n      0xff\n      and\n        /* \"StakeManager.sol\":3478:3490  stateManager */\n      0x09\n      0x00\n      swap1\n      sload\n      swap1\n      0x0100\n      exp\n      swap1\n      div\n      0xffffffffffffffffffffffffffffffffffffffff\n      and\n        /* \"StakeManager.sol\":3478:3499  stateManager.getState */\n      0xffffffffffffffffffffffffffffffffffffffff\n      and\n      0x1865c57d\n        /* \"StakeManager.sol\":3478:3501  stateManager.getState() */\n      mload(0x40)\n      dup2\n      0xffffffff\n      and\n      0xe0\n      shl\n      dup2\n      mstore\n      0x04\n      add\n      0x20\n      mload(0x40)\n      dup1\n      dup4\n      sub\n      dup2\n      dup7\n      dup1\n      extcodesize\n      iszero\n      dup1\n      iszero\n      tag_417\n      jumpi\n      0x00\n      dup1\n      revert\n    tag_417:\n      pop\n      gas\n      staticcall\n      iszero\n      dup1\n      iszero\n      tag_419\n      jumpi\n      returndatasize\n      0x00\n      dup1\n      returndatacopy\n      revert(0x00, returndatasize)\n    tag_419:\n      pop\n      pop\n      pop\n      pop\n      mload(0x40)\n      returndatasize\n      not(0x1f)\n      0x1f\n      dup3\n      add\n      and\n      dup3\n      add\n      dup1\n      0x40\n      mstore\n      pop\n      dup2\n      add\n      swap1\n      tag_420\n      swap2\n      swap1\n      tag_218\n      jump\t// in\n    tag_420:\n        /* \"StakeManager.sol\":3478:3523  stateManager.getState() != Constants.reveal() */\n      eq\n      iszero\n        /* \"StakeManager.sol\":3470:3543  require(stateManager.getState() != Constants.reveal(), \"Incorrect state\") */\n      tag_421\n      jumpi\n      mload(0x40)\n      0x08c379a000000000000000000000000000000000000000000000000000000000\n      dup2\n      mstore\n      0x04\n      add\n      tag_422\n      swap1\n      tag_423\n      jump\t// in\n    tag_422:\n      mload(0x40)\n      dup1\n      swap2\n      sub\n      swap1\n      revert\n    tag_421:\n        /* \"StakeManager.sol\":3571:3580  Constants */\n      linkerSymbol(\"e861534859442f2de25279a5ccd1626413b62699ca8b37407da3a6bf3bbbfee5\")\n        /* \"StakeManager.sol\":3571:3589  Constants.minStake */\n      0x375b3c0a\n        /* \"StakeManager.sol\":3571:3591  Constants.minStake() */\n      mload(0x40)\n      dup2\n      0xffffffff\n      and\n      0xe0\n      shl\n      dup2\n      mstore\n      0x04\n      add\n      0x20\n      mload(0x40)\n      dup1\n      dup4\n      sub\n      dup2\n      dup7\n      dup1\n      extcodesize\n      iszero\n      dup1\n      iszero\n      tag_424\n      jumpi\n      0x00\n      dup1\n      revert\n    tag_424:\n      pop\n      gas\n      delegatecall\n      iszero\n      dup1\n      iszero\n      tag_426\n      jumpi\n      returndatasize\n      0x00\n      dup1\n      returndatacopy\n      revert(0x00, returndatasize)\n    tag_426:\n      pop\n      pop\n      pop\n      pop\n      mload(0x40)\n      returndatasize\n      not(0x1f)\n      0x1f\n      dup3\n      add\n      and\n      dup3\n      add\n      dup1\n      0x40\n      mstore\n      pop\n      dup2\n      add\n      swap1\n      tag_427\n      swap2\n      swap1\n      tag_218\n      jump\t// in\n    tag_427:\n        /* \"StakeManager.sol\":3561:3567  amount */\n      dup4\n        /* \"StakeManager.sol\":3561:3591  amount >= Constants.minStake() */\n      lt\n      iszero\n        /* \"StakeManager.sol\":3553:3645  require(amount >= Constants.minStake(), \"staked amount is less than minimum stake required\") */\n      tag_428\n      jumpi\n      mload(0x40)\n      0x08c379a000000000000000000000000000000000000000000000000000000000\n      dup2\n      mstore\n      0x04\n      add\n      tag_429\n      swap1\n      tag_430\n      jump\t// in\n    tag_429:\n      mload(0x40)\n      dup1\n      swap2\n      sub\n      swap1\n      revert\n    tag_428:\n        /* \"StakeManager.sol\":3663:3666  sch */\n      0x06\n      0x00\n      swap1\n      sload\n      swap1\n      0x0100\n      exp\n      swap1\n      div\n      0xffffffffffffffffffffffffffffffffffffffff\n      and\n        /* \"StakeManager.sol\":3663:3679  sch.transferFrom */\n      0xffffffffffffffffffffffffffffffffffffffff\n      and\n      0x23b872dd\n        /* \"StakeManager.sol\":3680:3690  msg.sender */\n      caller\n        /* \"StakeManager.sol\":3700:3704  this */\n      address\n        /* \"StakeManager.sol\":3707:3713  amount */\n      dup7\n        /* \"StakeManager.sol\":3663:3714  sch.transferFrom(msg.sender, address(this), amount) */\n      mload(0x40)\n      dup5\n      0xffffffff\n      and\n      0xe0\n      shl\n      dup2\n      mstore\n      0x04\n      add\n      tag_431\n      swap4\n      swap3\n      swap2\n      swap1\n      tag_432\n      jump\t// in\n    tag_431:\n      0x20\n      mload(0x40)\n      dup1\n      dup4\n      sub\n      dup2\n      0x00\n      dup8\n      dup1\n      extcodesize\n      iszero\n      dup1\n      iszero\n      tag_433\n      jumpi\n      0x00\n      dup1\n      revert\n    tag_433:\n      pop\n      gas\n      call\n      iszero\n      dup1\n      iszero\n      tag_435\n      jumpi\n      returndatasize\n      0x00\n      dup1\n      returndatacopy\n      revert(0x00, returndatasize)\n    tag_435:\n      pop\n      pop\n      pop\n      pop\n      mload(0x40)\n      returndatasize\n      not(0x1f)\n      0x1f\n      dup3\n      add\n      and\n      dup3\n      add\n      dup1\n      0x40\n      mstore\n      pop\n      dup2\n      add\n      swap1\n      tag_436\n      swap2\n      swap1\n      tag_205\n      jump\t// in\n    tag_436:\n        /* \"StakeManager.sol\":3655:3738  require(sch.transferFrom(msg.sender, address(this), amount), \"sch transfer failed\") */\n      tag_437\n      jumpi\n      mload(0x40)\n      0x08c379a000000000000000000000000000000000000000000000000000000000\n      dup2\n      mstore\n      0x04\n      add\n      tag_438\n      swap1\n      tag_439\n      jump\t// in\n    tag_438:\n      mload(0x40)\n      dup1\n      swap2\n      sub\n      swap1\n      revert\n    tag_437:\n        /* \"StakeManager.sol\":3748:3764  uint256 stakerId */\n      0x00\n        /* \"StakeManager.sol\":3767:3776  stakerIds */\n      0x01\n        /* \"StakeManager.sol\":3767:3788  stakerIds[msg.sender] */\n      0x00\n        /* \"StakeManager.sol\":3777:3787  msg.sender */\n      caller\n        /* \"StakeManager.sol\":3767:3788  stakerIds[msg.sender] */\n      0xffffffffffffffffffffffffffffffffffffffff\n      and\n      0xffffffffffffffffffffffffffffffffffffffff\n      and\n      dup2\n      mstore\n      0x20\n      add\n      swap1\n      dup2\n      mstore\n      0x20\n      add\n      0x00\n      keccak256\n      sload\n        /* \"StakeManager.sol\":3748:3788  uint256 stakerId = stakerIds[msg.sender] */\n      swap1\n      pop\n        /* \"StakeManager.sol\":3798:3819  uint256 previousStake */\n      0x00\n        /* \"StakeManager.sol\":3822:3829  stakers */\n      0x02\n        /* \"StakeManager.sol\":3822:3839  stakers[stakerId] */\n      0x00\n        /* \"StakeManager.sol\":3830:3838  stakerId */\n      dup4\n        /* \"StakeManager.sol\":3822:3839  stakers[stakerId] */\n      dup2\n      mstore\n      0x20\n      add\n      swap1\n      dup2\n      mstore\n      0x20\n      add\n      0x00\n      keccak256\n        /* \"StakeManager.sol\":3822:3845  stakers[stakerId].stake */\n      0x02\n      add\n      sload\n        /* \"StakeManager.sol\":3798:3845  uint256 previousStake = stakers[stakerId].stake */\n      swap1\n      pop\n        /* \"StakeManager.sol\":3871:3872  0 */\n      0x00\n        /* \"StakeManager.sol\":3859:3867  stakerId */\n      dup3\n        /* \"StakeManager.sol\":3859:3872  stakerId == 0 */\n      eq\n        /* \"StakeManager.sol\":3855:4701  if (stakerId == 0) {... */\n      iszero\n      tag_440\n      jumpi\n        /* \"StakeManager.sol\":3901:3918  numStakers.add(1) */\n      tag_441\n        /* \"StakeManager.sol\":3916:3917  1 */\n      0x01\n        /* \"StakeManager.sol\":3901:3911  numStakers */\n      sload(0x03)\n        /* \"StakeManager.sol\":3901:3915  numStakers.add */\n      tag_282\n      swap1\n        /* \"StakeManager.sol\":3901:3918  numStakers.add(1) */\n      swap2\n      swap1\n      0xffffffff\n      and\n      jump\t// in\n    tag_441:\n        /* \"StakeManager.sol\":3888:3898  numStakers */\n      0x03\n        /* \"StakeManager.sol\":3888:3918  numStakers = numStakers.add(1) */\n      dup2\n      swap1\n      sstore\n      pop\n        /* \"StakeManager.sol\":3954:4070  Structs.Staker(numStakers, msg.sender, amount, epoch, 0, 0,... */\n      mload(0x40)\n      dup1\n      0x0100\n      add\n      0x40\n      mstore\n      dup1\n        /* \"StakeManager.sol\":3969:3979  numStakers */\n      sload(0x03)\n        /* \"StakeManager.sol\":3954:4070  Structs.Staker(numStakers, msg.sender, amount, epoch, 0, 0,... */\n      dup2\n      mstore\n      0x20\n      add\n        /* \"StakeManager.sol\":3981:3991  msg.sender */\n      caller\n        /* \"StakeManager.sol\":3954:4070  Structs.Staker(numStakers, msg.sender, amount, epoch, 0, 0,... */\n      0xffffffffffffffffffffffffffffffffffffffff\n      and\n      dup2\n      mstore\n      0x20\n      add\n        /* \"StakeManager.sol\":3993:3999  amount */\n      dup7\n        /* \"StakeManager.sol\":3954:4070  Structs.Staker(numStakers, msg.sender, amount, epoch, 0, 0,... */\n      dup2\n      mstore\n      0x20\n      add\n        /* \"StakeManager.sol\":4001:4006  epoch */\n      dup8\n        /* \"StakeManager.sol\":3954:4070  Structs.Staker(numStakers, msg.sender, amount, epoch, 0, 0,... */\n      dup2\n      mstore\n      0x20\n      add\n        /* \"StakeManager.sol\":4008:4009  0 */\n      0x00\n        /* \"StakeManager.sol\":3954:4070  Structs.Staker(numStakers, msg.sender, amount, epoch, 0, 0,... */\n      dup2\n      mstore\n      0x20\n      add\n        /* \"StakeManager.sol\":4011:4012  0 */\n      0x00\n        /* \"StakeManager.sol\":3954:4070  Structs.Staker(numStakers, msg.sender, amount, epoch, 0, 0,... */\n      dup2\n      mstore\n      0x20\n      add\n        /* \"StakeManager.sol\":4026:4066  epoch.add(Constants.unstakeLockPeriod()) */\n      tag_442\n        /* \"StakeManager.sol\":4036:4045  Constants */\n      linkerSymbol(\"e861534859442f2de25279a5ccd1626413b62699ca8b37407da3a6bf3bbbfee5\")\n        /* \"StakeManager.sol\":4036:4063  Constants.unstakeLockPeriod */\n      0x26bf1c03\n        /* \"StakeManager.sol\":4036:4065  Constants.unstakeLockPeriod() */\n      mload(0x40)\n      dup2\n      0xffffffff\n      and\n      0xe0\n      shl\n      dup2\n      mstore\n      0x04\n      add\n      0x20\n      mload(0x40)\n      dup1\n      dup4\n      sub\n      dup2\n      dup7\n      dup1\n      extcodesize\n      iszero\n      dup1\n      iszero\n      tag_443\n      jumpi\n      0x00\n      dup1\n      revert\n    tag_443:\n      pop\n      gas\n      delegatecall\n      iszero\n      dup1\n      iszero\n      tag_445\n      jumpi\n      returndatasize\n      0x00\n      dup1\n      returndatacopy\n      revert(0x00, returndatasize)\n    tag_445:\n      pop\n      pop\n      pop\n      pop\n      mload(0x40)\n      returndatasize\n      not(0x1f)\n      0x1f\n      dup3\n      add\n      and\n      dup3\n      add\n      dup1\n      0x40\n      mstore\n      pop\n      dup2\n      add\n      swap1\n      tag_446\n      swap2\n      swap1\n      tag_218\n      jump\t// in\n    tag_446:\n        /* \"StakeManager.sol\":4026:4031  epoch */\n      dup10\n        /* \"StakeManager.sol\":4026:4035  epoch.add */\n      tag_282\n      swap1\n        /* \"StakeManager.sol\":4026:4066  epoch.add(Constants.unstakeLockPeriod()) */\n      swap2\n      swap1\n      0xffffffff\n      and\n      jump\t// in\n    tag_442:\n        /* \"StakeManager.sol\":3954:4070  Structs.Staker(numStakers, msg.sender, amount, epoch, 0, 0,... */\n      dup2\n      mstore\n      0x20\n      add\n        /* \"StakeManager.sol\":4068:4069  0 */\n      0x00\n        /* \"StakeManager.sol\":3954:4070  Structs.Staker(numStakers, msg.sender, amount, epoch, 0, 0,... */\n      dup2\n      mstore\n      pop\n        /* \"StakeManager.sol\":3932:3939  stakers */\n      0x02\n        /* \"StakeManager.sol\":3932:3951  stakers[numStakers] */\n      0x00\n        /* \"StakeManager.sol\":3940:3950  numStakers */\n      sload(0x03)\n        /* \"StakeManager.sol\":3932:3951  stakers[numStakers] */\n      dup2\n      mstore\n      0x20\n      add\n      swap1\n      dup2\n      mstore\n      0x20\n      add\n      0x00\n      keccak256\n        /* \"StakeManager.sol\":3932:4070  stakers[numStakers] = Structs.Staker(numStakers, msg.sender, amount, epoch, 0, 0,... */\n      0x00\n      dup3\n      add\n      mload\n      dup2\n      0x00\n      add\n      sstore\n      0x20\n      dup3\n      add\n      mload\n      dup2\n      0x01\n      add\n      exp(0x0100, 0x00)\n      dup2\n      sload\n      dup2\n      0xffffffffffffffffffffffffffffffffffffffff\n      mul\n      not\n      and\n      swap1\n      dup4\n      0xffffffffffffffffffffffffffffffffffffffff\n      and\n      mul\n      or\n      swap1\n      sstore\n      pop\n      0x40\n      dup3\n      add\n      mload\n      dup2\n      0x02\n      add\n      sstore\n      0x60\n      dup3\n      add\n      mload\n      dup2\n      0x03\n      add\n      sstore\n      0x80\n      dup3\n      add\n      mload\n      dup2\n      0x04\n      add\n      sstore\n      0xa0\n      dup3\n      add\n      mload\n      dup2\n      0x05\n      add\n      sstore\n      0xc0\n      dup3\n      add\n      mload\n      dup2\n      0x06\n      add\n      sstore\n      0xe0\n      dup3\n      add\n      mload\n      dup2\n      0x07\n      add\n      sstore\n      swap1\n      pop\n      pop\n        /* \"StakeManager.sol\":4095:4105  numStakers */\n      sload(0x03)\n        /* \"StakeManager.sol\":4084:4105  stakerId = numStakers */\n      swap2\n      pop\n        /* \"StakeManager.sol\":4143:4151  stakerId */\n      dup2\n        /* \"StakeManager.sol\":4119:4128  stakerIds */\n      0x01\n        /* \"StakeManager.sol\":4119:4140  stakerIds[msg.sender] */\n      0x00\n        /* \"StakeManager.sol\":4129:4139  msg.sender */\n      caller\n        /* \"StakeManager.sol\":4119:4140  stakerIds[msg.sender] */\n      0xffffffffffffffffffffffffffffffffffffffff\n      and\n      0xffffffffffffffffffffffffffffffffffffffff\n      and\n      dup2\n      mstore\n      0x20\n      add\n      swap1\n      dup2\n      mstore\n      0x20\n      add\n      0x00\n      keccak256\n        /* \"StakeManager.sol\":4119:4151  stakerIds[msg.sender] = stakerId */\n      dup2\n      swap1\n      sstore\n      pop\n        /* \"StakeManager.sol\":3855:4701  if (stakerId == 0) {... */\n      jump(tag_447)\n    tag_440:\n        /* \"StakeManager.sol\":4515:4550  stakers[stakerId].stake.add(amount) */\n      tag_448\n        /* \"StakeManager.sol\":4543:4549  amount */\n      dup6\n        /* \"StakeManager.sol\":4515:4522  stakers */\n      0x02\n        /* \"StakeManager.sol\":4515:4532  stakers[stakerId] */\n      0x00\n        /* \"StakeManager.sol\":4523:4531  stakerId */\n      dup6\n        /* \"StakeManager.sol\":4515:4532  stakers[stakerId] */\n      dup2\n      mstore\n      0x20\n      add\n      swap1\n      dup2\n      mstore\n      0x20\n      add\n      0x00\n      keccak256\n        /* \"StakeManager.sol\":4515:4538  stakers[stakerId].stake */\n      0x02\n      add\n      sload\n        /* \"StakeManager.sol\":4515:4542  stakers[stakerId].stake.add */\n      tag_282\n      swap1\n        /* \"StakeManager.sol\":4515:4550  stakers[stakerId].stake.add(amount) */\n      swap2\n      swap1\n      0xffffffff\n      and\n      jump\t// in\n    tag_448:\n        /* \"StakeManager.sol\":4489:4496  stakers */\n      0x02\n        /* \"StakeManager.sol\":4489:4506  stakers[stakerId] */\n      0x00\n        /* \"StakeManager.sol\":4497:4505  stakerId */\n      dup5\n        /* \"StakeManager.sol\":4489:4506  stakers[stakerId] */\n      dup2\n      mstore\n      0x20\n      add\n      swap1\n      dup2\n      mstore\n      0x20\n      add\n      0x00\n      keccak256\n        /* \"StakeManager.sol\":4489:4512  stakers[stakerId].stake */\n      0x02\n      add\n        /* \"StakeManager.sol\":4489:4550  stakers[stakerId].stake = stakers[stakerId].stake.add(amount) */\n      dup2\n      swap1\n      sstore\n      pop\n        /* \"StakeManager.sol\":4599:4639  epoch.add(Constants.unstakeLockPeriod()) */\n      tag_449\n        /* \"StakeManager.sol\":4609:4618  Constants */\n      linkerSymbol(\"e861534859442f2de25279a5ccd1626413b62699ca8b37407da3a6bf3bbbfee5\")\n        /* \"StakeManager.sol\":4609:4636  Constants.unstakeLockPeriod */\n      0x26bf1c03\n        /* \"StakeManager.sol\":4609:4638  Constants.unstakeLockPeriod() */\n      mload(0x40)\n      dup2\n      0xffffffff\n      and\n      0xe0\n      shl\n      dup2\n      mstore\n      0x04\n      add\n      0x20\n      mload(0x40)\n      dup1\n      dup4\n      sub\n      dup2\n      dup7\n      dup1\n      extcodesize\n      iszero\n      dup1\n      iszero\n      tag_450\n      jumpi\n      0x00\n      dup1\n      revert\n    tag_450:\n      pop\n      gas\n      delegatecall\n      iszero\n      dup1\n      iszero\n      tag_452\n      jumpi\n      returndatasize\n      0x00\n      dup1\n      returndatacopy\n      revert(0x00, returndatasize)\n    tag_452:\n      pop\n      pop\n      pop\n      pop\n      mload(0x40)\n      returndatasize\n      not(0x1f)\n      0x1f\n      dup3\n      add\n      and\n      dup3\n      add\n      dup1\n      0x40\n      mstore\n      pop\n      dup2\n      add\n      swap1\n      tag_453\n      swap2\n      swap1\n      tag_218\n      jump\t// in\n    tag_453:\n        /* \"StakeManager.sol\":4599:4604  epoch */\n      dup8\n        /* \"StakeManager.sol\":4599:4608  epoch.add */\n      tag_282\n      swap1\n        /* \"StakeManager.sol\":4599:4639  epoch.add(Constants.unstakeLockPeriod()) */\n      swap2\n      swap1\n      0xffffffff\n      and\n      jump\t// in\n    tag_449:\n        /* \"StakeManager.sol\":4564:4571  stakers */\n      0x02\n        /* \"StakeManager.sol\":4564:4583  stakers[numStakers] */\n      0x00\n        /* \"StakeManager.sol\":4572:4582  numStakers */\n      sload(0x03)\n        /* \"StakeManager.sol\":4564:4583  stakers[numStakers] */\n      dup2\n      mstore\n      0x20\n      add\n      swap1\n      dup2\n      mstore\n      0x20\n      add\n      0x00\n      keccak256\n        /* \"StakeManager.sol\":4564:4596  stakers[numStakers].unstakeAfter */\n      0x06\n      add\n        /* \"StakeManager.sol\":4564:4639  stakers[numStakers].unstakeAfter = epoch.add(Constants.unstakeLockPeriod()) */\n      dup2\n      swap1\n      sstore\n      pop\n        /* \"StakeManager.sol\":4689:4690  0 */\n      0x00\n        /* \"StakeManager.sol\":4653:4660  stakers */\n      0x02\n        /* \"StakeManager.sol\":4653:4672  stakers[numStakers] */\n      0x00\n        /* \"StakeManager.sol\":4661:4671  numStakers */\n      sload(0x03)\n        /* \"StakeManager.sol\":4653:4672  stakers[numStakers] */\n      dup2\n      mstore\n      0x20\n      add\n      swap1\n      dup2\n      mstore\n      0x20\n      add\n      0x00\n      keccak256\n        /* \"StakeManager.sol\":4653:4686  stakers[numStakers].withdrawAfter */\n      0x07\n      add\n        /* \"StakeManager.sol\":4653:4690  stakers[numStakers].withdrawAfter = 0 */\n      dup2\n      swap1\n      sstore\n      pop\n        /* \"StakeManager.sol\":3855:4701  if (stakerId == 0) {... */\n    tag_447:\n        /* \"StakeManager.sol\":4777:4785  stakerId */\n      dup2\n        /* \"StakeManager.sol\":4763:4831  Staked(epoch, stakerId, previousStake, stakers[stakerId].stake, now) */\n      0x52d3b6bf695a499d39fcdb47e3b450c09f2f6aa091ca8809cc51c00e705996cc\n        /* \"StakeManager.sol\":4770:4775  epoch */\n      dup8\n        /* \"StakeManager.sol\":4787:4800  previousStake */\n      dup4\n        /* \"StakeManager.sol\":4802:4809  stakers */\n      0x02\n        /* \"StakeManager.sol\":4802:4819  stakers[stakerId] */\n      0x00\n        /* \"StakeManager.sol\":4810:4818  stakerId */\n      dup8\n        /* \"StakeManager.sol\":4802:4819  stakers[stakerId] */\n      dup2\n      mstore\n      0x20\n      add\n      swap1\n      dup2\n      mstore\n      0x20\n      add\n      0x00\n      keccak256\n        /* \"StakeManager.sol\":4802:4825  stakers[stakerId].stake */\n      0x02\n      add\n      sload\n        /* \"StakeManager.sol\":4827:4830  now */\n      timestamp\n        /* \"StakeManager.sol\":4763:4831  Staked(epoch, stakerId, previousStake, stakers[stakerId].stake, now) */\n      mload(0x40)\n      tag_454\n      swap5\n      swap4\n      swap3\n      swap2\n      swap1\n      tag_284\n      jump\t// in\n    tag_454:\n      mload(0x40)\n      dup1\n      swap2\n      sub\n      swap1\n      log2\n        /* \"StakeManager.sol\":989:990  _ */\n      pop\n      pop\n        /* \"StakeManager.sol\":859:860  _ */\n      pop\n        /* \"StakeManager.sol\":3311:4838  function stake (uint256 epoch, uint256 amount) external checkEpoch(epoch) checkState(Constants.commit()) {... */\n      pop\n      pop\n      pop\n      jump\t// out\n        /* \"openzeppelin-solidity/contracts/access/AccessControl.sol\":3955:4091   */\n    tag_129:\n        /* \"openzeppelin-solidity/contracts/access/AccessControl.sol\":4028:4035   */\n      0x00\n        /* \"openzeppelin-solidity/contracts/access/AccessControl.sol\":4054:4084   */\n      tag_456\n        /* \"openzeppelin-solidity/contracts/access/AccessControl.sol\":4078:4083   */\n      dup3\n        /* \"openzeppelin-solidity/contracts/access/AccessControl.sol\":4054:4060   */\n      0x00\n        /* \"openzeppelin-solidity/contracts/access/AccessControl.sol\":4054:4066   */\n      dup1\n        /* \"openzeppelin-solidity/contracts/access/AccessControl.sol\":4061:4065   */\n      dup7\n        /* \"openzeppelin-solidity/contracts/access/AccessControl.sol\":4054:4066   */\n      dup2\n      mstore\n      0x20\n      add\n      swap1\n      dup2\n      mstore\n      0x20\n      add\n      0x00\n      keccak256\n        /* \"openzeppelin-solidity/contracts/access/AccessControl.sol\":4054:4074   */\n      0x00\n      add\n        /* \"openzeppelin-solidity/contracts/access/AccessControl.sol\":4054:4077   */\n      tag_457\n      swap1\n        /* \"openzeppelin-solidity/contracts/access/AccessControl.sol\":4054:4084   */\n      swap2\n      swap1\n      0xffffffff\n      and\n      jump\t// in\n    tag_456:\n        /* \"openzeppelin-solidity/contracts/access/AccessControl.sol\":4047:4084   */\n      swap1\n      pop\n        /* \"openzeppelin-solidity/contracts/access/AccessControl.sol\":3955:4091   */\n      swap3\n      swap2\n      pop\n      pop\n      jump\t// out\n        /* \"openzeppelin-solidity/contracts/access/AccessControl.sol\":2940:3077   */\n    tag_134:\n        /* \"openzeppelin-solidity/contracts/access/AccessControl.sol\":3009:3013   */\n      0x00\n        /* \"openzeppelin-solidity/contracts/access/AccessControl.sol\":3032:3070   */\n      tag_459\n        /* \"openzeppelin-solidity/contracts/access/AccessControl.sol\":3062:3069   */\n      dup3\n        /* \"openzeppelin-solidity/contracts/access/AccessControl.sol\":3032:3038   */\n      0x00\n        /* \"openzeppelin-solidity/contracts/access/AccessControl.sol\":3032:3044   */\n      dup1\n        /* \"openzeppelin-solidity/contracts/access/AccessControl.sol\":3039:3043   */\n      dup7\n        /* \"openzeppelin-solidity/contracts/access/AccessControl.sol\":3032:3044   */\n      dup2\n      mstore\n      0x20\n      add\n      swap1\n      dup2\n      mstore\n      0x20\n      add\n      0x00\n      keccak256\n        /* \"openzeppelin-solidity/contracts/access/AccessControl.sol\":3032:3052   */\n      0x00\n      add\n        /* \"openzeppelin-solidity/contracts/access/AccessControl.sol\":3032:3061   */\n      tag_460\n      swap1\n        /* \"openzeppelin-solidity/contracts/access/AccessControl.sol\":3032:3070   */\n      swap2\n      swap1\n      0xffffffff\n      and\n      jump\t// in\n    tag_459:\n        /* \"openzeppelin-solidity/contracts/access/AccessControl.sol\":3025:3070   */\n      swap1\n      pop\n        /* \"openzeppelin-solidity/contracts/access/AccessControl.sol\":2940:3077   */\n      swap3\n      swap2\n      pop\n      pop\n      jump\t// out\n        /* \"StakeManager.sol\":2534:2699  function setStakerEpochLastRevealed(uint256 _id, uint256 _epochLastRevealed) external onlyWriter {... */\n    tag_138:\n        /* \"WriterRole.sol\":570:590  isWriter(msg.sender) */\n      tag_462\n        /* \"WriterRole.sol\":579:589  msg.sender */\n      caller\n        /* \"WriterRole.sol\":570:578  isWriter */\n      tag_83\n        /* \"WriterRole.sol\":570:590  isWriter(msg.sender) */\n      jump\t// in\n    tag_462:\n        /* \"WriterRole.sol\":562:643  require(isWriter(msg.sender), \"WriterRole: caller does not have the Writer role\") */\n      tag_463\n      jumpi\n      mload(0x40)\n      0x08c379a000000000000000000000000000000000000000000000000000000000\n      dup2\n      mstore\n      0x04\n      add\n      tag_464\n      swap1\n      tag_192\n      jump\t// in\n    tag_464:\n      mload(0x40)\n      dup1\n      swap2\n      sub\n      swap1\n      revert\n    tag_463:\n        /* \"StakeManager.sol\":2674:2692  _epochLastRevealed */\n      dup1\n        /* \"StakeManager.sol\":2641:2648  stakers */\n      0x02\n        /* \"StakeManager.sol\":2641:2653  stakers[_id] */\n      0x00\n        /* \"StakeManager.sol\":2649:2652  _id */\n      dup5\n        /* \"StakeManager.sol\":2641:2653  stakers[_id] */\n      dup2\n      mstore\n      0x20\n      add\n      swap1\n      dup2\n      mstore\n      0x20\n      add\n      0x00\n      keccak256\n        /* \"StakeManager.sol\":2641:2671  stakers[_id].epochLastRevealed */\n      0x05\n      add\n        /* \"StakeManager.sol\":2641:2692  stakers[_id].epochLastRevealed = _epochLastRevealed */\n      dup2\n      swap1\n      sstore\n      pop\n        /* \"StakeManager.sol\":2534:2699  function setStakerEpochLastRevealed(uint256 _id, uint256 _epochLastRevealed) external onlyWriter {... */\n      pop\n      pop\n      jump\t// out\n        /* \"openzeppelin-solidity/contracts/access/AccessControl.sol\":1717:1766   */\n    tag_140:\n        /* \"openzeppelin-solidity/contracts/access/AccessControl.sol\":1762:1766   */\n      0x00\n        /* \"openzeppelin-solidity/contracts/access/AccessControl.sol\":1717:1766   */\n      dup1\n      shl\n      dup2\n      jump\t// out\n        /* \"StakeManager.sol\":2224:2400  function setStakerStake(uint256 _id, uint256 _stake, string calldata _reason, uint256 _epoch) external onlyWriter {... */\n    tag_145:\n        /* \"WriterRole.sol\":570:590  isWriter(msg.sender) */\n      tag_467\n        /* \"WriterRole.sol\":579:589  msg.sender */\n      caller\n        /* \"WriterRole.sol\":570:578  isWriter */\n      tag_83\n        /* \"WriterRole.sol\":570:590  isWriter(msg.sender) */\n      jump\t// in\n    tag_467:\n        /* \"WriterRole.sol\":562:643  require(isWriter(msg.sender), \"WriterRole: caller does not have the Writer role\") */\n      tag_468\n      jumpi\n      mload(0x40)\n      0x08c379a000000000000000000000000000000000000000000000000000000000\n      dup2\n      mstore\n      0x04\n      add\n      tag_469\n      swap1\n      tag_192\n      jump\t// in\n    tag_469:\n      mload(0x40)\n      dup1\n      swap2\n      sub\n      swap1\n      revert\n    tag_468:\n        /* \"StakeManager.sol\":2348:2393  _setStakerStake(_id, _stake, _reason, _epoch) */\n      tag_471\n        /* \"StakeManager.sol\":2364:2367  _id */\n      dup6\n        /* \"StakeManager.sol\":2369:2375  _stake */\n      dup6\n        /* \"StakeManager.sol\":2377:2384  _reason */\n      dup6\n      dup6\n        /* \"StakeManager.sol\":2348:2393  _setStakerStake(_id, _stake, _reason, _epoch) */\n      dup1\n      dup1\n      0x1f\n      add\n      0x20\n      dup1\n      swap2\n      div\n      mul\n      0x20\n      add\n      mload(0x40)\n      swap1\n      dup2\n      add\n      0x40\n      mstore\n      dup1\n      swap4\n      swap3\n      swap2\n      swap1\n      dup2\n      dup2\n      mstore\n      0x20\n      add\n      dup4\n      dup4\n      dup1\n      dup3\n      dup5\n      calldatacopy\n      0x00\n      dup2\n      dup5\n      add\n      mstore\n      not(0x1f)\n      0x1f\n      dup3\n      add\n      and\n      swap1\n      pop\n      dup1\n      dup4\n      add\n      swap3\n      pop\n      pop\n      pop\n      pop\n      pop\n      pop\n      pop\n        /* \"StakeManager.sol\":2386:2392  _epoch */\n      dup5\n        /* \"StakeManager.sol\":2348:2363  _setStakerStake */\n      tag_197\n        /* \"StakeManager.sol\":2348:2393  _setStakerStake(_id, _stake, _reason, _epoch) */\n      jump\t// in\n    tag_471:\n        /* \"StakeManager.sol\":2224:2400  function setStakerStake(uint256 _id, uint256 _stake, string calldata _reason, uint256 _epoch) external onlyWriter {... */\n      pop\n      pop\n      pop\n      pop\n      pop\n      jump\t// out\n        /* \"StakeManager.sol\":12779:12870  function getNumStakers() external view returns(uint256) {... */\n    tag_147:\n        /* \"StakeManager.sol\":12826:12833  uint256 */\n      0x00\n        /* \"StakeManager.sol\":12852:12862  numStakers */\n      sload(0x03)\n        /* \"StakeManager.sol\":12845:12863  return(numStakers) */\n      swap1\n      pop\n        /* \"StakeManager.sol\":12779:12870  function getNumStakers() external view returns(uint256) {... */\n      swap1\n      jump\t// out\n        /* \"StakeManager.sol\":597:621  SchellingCoin public sch */\n    tag_150:\n      0x06\n      0x00\n      swap1\n      sload\n      swap1\n      0x0100\n      exp\n      swap1\n      div\n      0xffffffffffffffffffffffffffffffffffffffff\n      and\n      dup2\n      jump\t// out\n        /* \"StakeStorage.sol\":155:200  mapping (address => uint256) public stakerIds */\n    tag_155:\n      mstore(0x20, 0x01)\n      dup1\n      0x00\n      mstore\n      keccak256(0x00, 0x40)\n      0x00\n      swap2\n      pop\n      swap1\n      pop\n      sload\n      dup2\n      jump\t// out\n        /* \"openzeppelin-solidity/contracts/access/AccessControl.sol\":3245:3370   */\n    tag_159:\n        /* \"openzeppelin-solidity/contracts/access/AccessControl.sol\":3308:3315   */\n      0x00\n        /* \"openzeppelin-solidity/contracts/access/AccessControl.sol\":3334:3363   */\n      tag_474\n        /* \"openzeppelin-solidity/contracts/access/AccessControl.sol\":3334:3340   */\n      0x00\n        /* \"openzeppelin-solidity/contracts/access/AccessControl.sol\":3334:3346   */\n      dup1\n        /* \"openzeppelin-solidity/contracts/access/AccessControl.sol\":3341:3345   */\n      dup5\n        /* \"openzeppelin-solidity/contracts/access/AccessControl.sol\":3334:3346   */\n      dup2\n      mstore\n      0x20\n      add\n      swap1\n      dup2\n      mstore\n      0x20\n      add\n      0x00\n      keccak256\n        /* \"openzeppelin-solidity/contracts/access/AccessControl.sol\":3334:3354   */\n      0x00\n      add\n        /* \"openzeppelin-solidity/contracts/access/AccessControl.sol\":3334:3361   */\n      tag_475\n        /* \"openzeppelin-solidity/contracts/access/AccessControl.sol\":3334:3363   */\n      jump\t// in\n    tag_474:\n        /* \"openzeppelin-solidity/contracts/access/AccessControl.sol\":3327:3363   */\n      swap1\n      pop\n        /* \"openzeppelin-solidity/contracts/access/AccessControl.sol\":3245:3370   */\n      swap2\n      swap1\n      pop\n      jump\t// out\n        /* \"openzeppelin-solidity/contracts/access/AccessControl.sol\":5091:5317   */\n    tag_163:\n        /* \"openzeppelin-solidity/contracts/access/AccessControl.sol\":5175:5220   */\n      tag_477\n        /* \"openzeppelin-solidity/contracts/access/AccessControl.sol\":5183:5189   */\n      0x00\n        /* \"openzeppelin-solidity/contracts/access/AccessControl.sol\":5183:5195   */\n      dup1\n        /* \"openzeppelin-solidity/contracts/access/AccessControl.sol\":5190:5194   */\n      dup5\n        /* \"openzeppelin-solidity/contracts/access/AccessControl.sol\":5183:5195   */\n      dup2\n      mstore\n      0x20\n      add\n      swap1\n      dup2\n      mstore\n      0x20\n      add\n      0x00\n      keccak256\n        /* \"openzeppelin-solidity/contracts/access/AccessControl.sol\":5183:5205   */\n      0x02\n      add\n      sload\n        /* \"openzeppelin-solidity/contracts/access/AccessControl.sol\":5207:5219   */\n      tag_478\n        /* \"openzeppelin-solidity/contracts/access/AccessControl.sol\":5207:5217   */\n      tag_347\n        /* \"openzeppelin-solidity/contracts/access/AccessControl.sol\":5207:5219   */\n      jump\t// in\n    tag_478:\n        /* \"openzeppelin-solidity/contracts/access/AccessControl.sol\":5175:5182   */\n      tag_134\n        /* \"openzeppelin-solidity/contracts/access/AccessControl.sol\":5175:5220   */\n      jump\t// in\n    tag_477:\n        /* \"openzeppelin-solidity/contracts/access/AccessControl.sol\":5167:5273   */\n      tag_479\n      jumpi\n      mload(0x40)\n      0x08c379a000000000000000000000000000000000000000000000000000000000\n      dup2\n      mstore\n      0x04\n      add\n      tag_480\n      swap1\n      tag_481\n      jump\t// in\n    tag_480:\n      mload(0x40)\n      dup1\n      swap2\n      sub\n      swap1\n      revert\n    tag_479:\n        /* \"openzeppelin-solidity/contracts/access/AccessControl.sol\":5284:5310   */\n      tag_482\n        /* \"openzeppelin-solidity/contracts/access/AccessControl.sol\":5296:5300   */\n      dup3\n        /* \"openzeppelin-solidity/contracts/access/AccessControl.sol\":5302:5309   */\n      dup3\n        /* \"openzeppelin-solidity/contracts/access/AccessControl.sol\":5284:5295   */\n      tag_359\n        /* \"openzeppelin-solidity/contracts/access/AccessControl.sol\":5284:5310   */\n      jump\t// in\n    tag_482:\n        /* \"openzeppelin-solidity/contracts/access/AccessControl.sol\":5091:5317   */\n      pop\n      pop\n      jump\t// out\n        /* \"StakeManager.sol\":664:697  IBlockManager public blockManager */\n    tag_165:\n      0x08\n      0x00\n      swap1\n      sload\n      swap1\n      0x0100\n      exp\n      swap1\n      div\n      0xffffffffffffffffffffffffffffffffffffffff\n      and\n      dup2\n      jump\t// out\n        /* \"WriterRole.sol\":784:874  function addWriter(address account) public onlyWriter {... */\n    tag_170:\n        /* \"WriterRole.sol\":570:590  isWriter(msg.sender) */\n      tag_484\n        /* \"WriterRole.sol\":579:589  msg.sender */\n      caller\n        /* \"WriterRole.sol\":570:578  isWriter */\n      tag_83\n        /* \"WriterRole.sol\":570:590  isWriter(msg.sender) */\n      jump\t// in\n    tag_484:\n        /* \"WriterRole.sol\":562:643  require(isWriter(msg.sender), \"WriterRole: caller does not have the Writer role\") */\n      tag_485\n      jumpi\n      mload(0x40)\n      0x08c379a000000000000000000000000000000000000000000000000000000000\n      dup2\n      mstore\n      0x04\n      add\n      tag_486\n      swap1\n      tag_192\n      jump\t// in\n    tag_486:\n      mload(0x40)\n      dup1\n      swap2\n      sub\n      swap1\n      revert\n    tag_485:\n        /* \"WriterRole.sol\":848:867  _addWriter(account) */\n      tag_488\n        /* \"WriterRole.sol\":859:866  account */\n      dup2\n        /* \"WriterRole.sol\":848:858  _addWriter */\n      tag_489\n        /* \"WriterRole.sol\":848:867  _addWriter(account) */\n      jump\t// in\n    tag_488:\n        /* \"WriterRole.sol\":784:874  function addWriter(address account) public onlyWriter {... */\n      pop\n      jump\t// out\n        /* \"WriterRole.sol\":880:955  function renounceWriter() public {... */\n    tag_172:\n        /* \"WriterRole.sol\":923:948  _removeWriter(msg.sender) */\n      tag_491\n        /* \"WriterRole.sol\":937:947  msg.sender */\n      caller\n        /* \"WriterRole.sol\":923:936  _removeWriter */\n      tag_492\n        /* \"WriterRole.sol\":923:948  _removeWriter(msg.sender) */\n      jump\t// in\n    tag_491:\n        /* \"WriterRole.sol\":880:955  function renounceWriter() public {... */\n      jump\t// out\n        /* \"StakeManager.sol\":12593:12714  function getStaker(uint256 _id) external view returns(Structs.Staker memory staker) {... */\n    tag_175:\n        /* \"StakeManager.sol\":12647:12675  Structs.Staker memory staker */\n      tag_493\n      tag_494\n      jump\t// in\n    tag_493:\n        /* \"StakeManager.sol\":12694:12701  stakers */\n      0x02\n        /* \"StakeManager.sol\":12694:12706  stakers[_id] */\n      0x00\n        /* \"StakeManager.sol\":12702:12705  _id */\n      dup4\n        /* \"StakeManager.sol\":12694:12706  stakers[_id] */\n      dup2\n      mstore\n      0x20\n      add\n      swap1\n      dup2\n      mstore\n      0x20\n      add\n      0x00\n      keccak256\n        /* \"StakeManager.sol\":12687:12707  return(stakers[_id]) */\n      mload(0x40)\n      dup1\n      0x0100\n      add\n      0x40\n      mstore\n      swap1\n      dup2\n      0x00\n      dup3\n      add\n      sload\n      dup2\n      mstore\n      0x20\n      add\n      0x01\n      dup3\n      add\n      0x00\n      swap1\n      sload\n      swap1\n      0x0100\n      exp\n      swap1\n      div\n      0xffffffffffffffffffffffffffffffffffffffff\n      and\n      0xffffffffffffffffffffffffffffffffffffffff\n      and\n      0xffffffffffffffffffffffffffffffffffffffff\n      and\n      dup2\n      mstore\n      0x20\n      add\n      0x02\n      dup3\n      add\n      sload\n      dup2\n      mstore\n      0x20\n      add\n      0x03\n      dup3\n      add\n      sload\n      dup2\n      mstore\n      0x20\n      add\n      0x04\n      dup3\n      add\n      sload\n      dup2\n      mstore\n      0x20\n      add\n      0x05\n      dup3\n      add\n      sload\n      dup2\n      mstore\n      0x20\n      add\n      0x06\n      dup3\n      add\n      sload\n      dup2\n      mstore\n      0x20\n      add\n      0x07\n      dup3\n      add\n      sload\n      dup2\n      mstore\n      pop\n      pop\n      swap1\n      pop\n        /* \"StakeManager.sol\":12593:12714  function getStaker(uint256 _id) external view returns(Structs.Staker memory staker) {... */\n      swap2\n      swap1\n      pop\n      jump\t// out\n        /* \"StakeManager.sol\":8858:11510  function giveRewards (uint256 stakerId, uint256 epoch) external onlyWriter {... */\n    tag_180:\n        /* \"WriterRole.sol\":570:590  isWriter(msg.sender) */\n      tag_497\n        /* \"WriterRole.sol\":579:589  msg.sender */\n      caller\n        /* \"WriterRole.sol\":570:578  isWriter */\n      tag_83\n        /* \"WriterRole.sol\":570:590  isWriter(msg.sender) */\n      jump\t// in\n    tag_497:\n        /* \"WriterRole.sol\":562:643  require(isWriter(msg.sender), \"WriterRole: caller does not have the Writer role\") */\n      tag_498\n      jumpi\n      mload(0x40)\n      0x08c379a000000000000000000000000000000000000000000000000000000000\n      dup2\n      mstore\n      0x04\n      add\n      tag_499\n      swap1\n      tag_192\n      jump\t// in\n    tag_499:\n      mload(0x40)\n      dup1\n      swap2\n      sub\n      swap1\n      revert\n    tag_498:\n        /* \"StakeManager.sol\":8969:8970  0 */\n      0x00\n        /* \"StakeManager.sol\":8947:8965  stakeGettingReward */\n      sload(0x05)\n        /* \"StakeManager.sol\":8947:8970  stakeGettingReward == 0 */\n      eq\n        /* \"StakeManager.sol\":8943:8979  if (stakeGettingReward == 0) return; */\n      iszero\n      tag_501\n      jumpi\n        /* \"StakeManager.sol\":8972:8979  return; */\n      jump(tag_500)\n        /* \"StakeManager.sol\":8943:8979  if (stakeGettingReward == 0) return; */\n    tag_501:\n        /* \"StakeManager.sol\":8988:9020  Structs.Staker memory thisStaker */\n      tag_502\n      tag_494\n      jump\t// in\n    tag_502:\n        /* \"StakeManager.sol\":9023:9030  stakers */\n      0x02\n        /* \"StakeManager.sol\":9023:9040  stakers[stakerId] */\n      0x00\n        /* \"StakeManager.sol\":9031:9039  stakerId */\n      dup5\n        /* \"StakeManager.sol\":9023:9040  stakers[stakerId] */\n      dup2\n      mstore\n      0x20\n      add\n      swap1\n      dup2\n      mstore\n      0x20\n      add\n      0x00\n      keccak256\n        /* \"StakeManager.sol\":8988:9040  Structs.Staker memory thisStaker = stakers[stakerId] */\n      mload(0x40)\n      dup1\n      0x0100\n      add\n      0x40\n      mstore\n      swap1\n      dup2\n      0x00\n      dup3\n      add\n      sload\n      dup2\n      mstore\n      0x20\n      add\n      0x01\n      dup3\n      add\n      0x00\n      swap1\n      sload\n      swap1\n      0x0100\n      exp\n      swap1\n      div\n      0xffffffffffffffffffffffffffffffffffffffff\n      and\n      0xffffffffffffffffffffffffffffffffffffffff\n      and\n      0xffffffffffffffffffffffffffffffffffffffff\n      and\n      dup2\n      mstore\n      0x20\n      add\n      0x02\n      dup3\n      add\n      sload\n      dup2\n      mstore\n      0x20\n      add\n      0x03\n      dup3\n      add\n      sload\n      dup2\n      mstore\n      0x20\n      add\n      0x04\n      dup3\n      add\n      sload\n      dup2\n      mstore\n      0x20\n      add\n      0x05\n      dup3\n      add\n      sload\n      dup2\n      mstore\n      0x20\n      add\n      0x06\n      dup3\n      add\n      sload\n      dup2\n      mstore\n      0x20\n      add\n      0x07\n      dup3\n      add\n      sload\n      dup2\n      mstore\n      pop\n      pop\n      swap1\n      pop\n        /* \"StakeManager.sol\":9050:9075  uint256 epochLastRevealed */\n      0x00\n        /* \"StakeManager.sol\":9078:9088  thisStaker */\n      dup2\n        /* \"StakeManager.sol\":9078:9106  thisStaker.epochLastRevealed */\n      0xa0\n      add\n      mload\n        /* \"StakeManager.sol\":9050:9106  uint256 epochLastRevealed = thisStaker.epochLastRevealed */\n      swap1\n      pop\n        /* \"StakeManager.sol\":9278:9279  1 */\n      0x01\n        /* \"StakeManager.sol\":9256:9273  epochLastRevealed */\n      dup2\n        /* \"StakeManager.sol\":9248:9253  epoch */\n      dup5\n        /* \"StakeManager.sol\":9248:9273  epoch - epochLastRevealed */\n      sub\n        /* \"StakeManager.sol\":9247:9279  (epoch - epochLastRevealed) != 1 */\n      eq\n        /* \"StakeManager.sol\":9243:9288  if ((epoch - epochLastRevealed) != 1) return; */\n      tag_503\n      jumpi\n        /* \"StakeManager.sol\":9281:9288  return; */\n      pop\n      pop\n      jump(tag_500)\n        /* \"StakeManager.sol\":9243:9288  if ((epoch - epochLastRevealed) != 1) return; */\n    tag_503:\n        /* \"StakeManager.sol\":9297:9330  uint256[] memory mediansLastEpoch */\n      0x60\n        /* \"StakeManager.sol\":9333:9345  blockManager */\n      0x08\n      0x00\n      swap1\n      sload\n      swap1\n      0x0100\n      exp\n      swap1\n      div\n      0xffffffffffffffffffffffffffffffffffffffff\n      and\n        /* \"StakeManager.sol\":9333:9361  blockManager.getBlockMedians */\n      0xffffffffffffffffffffffffffffffffffffffff\n      and\n      0x378ab9a9\n        /* \"StakeManager.sol\":9362:9379  epochLastRevealed */\n      dup4\n        /* \"StakeManager.sol\":9333:9380  blockManager.getBlockMedians(epochLastRevealed) */\n      mload(0x40)\n      dup3\n      0xffffffff\n      and\n      0xe0\n      shl\n      dup2\n      mstore\n      0x04\n      add\n      tag_504\n      swap2\n      swap1\n      tag_54\n      jump\t// in\n    tag_504:\n      0x00\n      mload(0x40)\n      dup1\n      dup4\n      sub\n      dup2\n      dup7\n      dup1\n      extcodesize\n      iszero\n      dup1\n      iszero\n      tag_505\n      jumpi\n      0x00\n      dup1\n      revert\n    tag_505:\n      pop\n      gas\n      staticcall\n      iszero\n      dup1\n      iszero\n      tag_507\n      jumpi\n      returndatasize\n      0x00\n      dup1\n      returndatacopy\n      revert(0x00, returndatasize)\n    tag_507:\n      pop\n      pop\n      pop\n      pop\n      mload(0x40)\n      returndatasize\n      0x00\n      dup3\n      returndatacopy\n      returndatasize\n      not(0x1f)\n      0x1f\n      dup3\n      add\n      and\n      dup3\n      add\n      dup1\n      0x40\n      mstore\n      pop\n      dup2\n      add\n      swap1\n      tag_508\n      swap2\n      swap1\n      tag_509\n      jump\t// in\n    tag_508:\n        /* \"StakeManager.sol\":9297:9380  uint256[] memory mediansLastEpoch = blockManager.getBlockMedians(epochLastRevealed) */\n      swap1\n      pop\n        /* \"StakeManager.sol\":9390:9428  uint256[] memory lowerCutoffsLastEpoch */\n      0x60\n        /* \"StakeManager.sol\":9431:9443  blockManager */\n      0x08\n      0x00\n      swap1\n      sload\n      swap1\n      0x0100\n      exp\n      swap1\n      div\n      0xffffffffffffffffffffffffffffffffffffffff\n      and\n        /* \"StakeManager.sol\":9431:9459  blockManager.getLowerCutoffs */\n      0xffffffffffffffffffffffffffffffffffffffff\n      and\n      0xd2a4669a\n        /* \"StakeManager.sol\":9460:9477  epochLastRevealed */\n      dup5\n        /* \"StakeManager.sol\":9431:9478  blockManager.getLowerCutoffs(epochLastRevealed) */\n      mload(0x40)\n      dup3\n      0xffffffff\n      and\n      0xe0\n      shl\n      dup2\n      mstore\n      0x04\n      add\n      tag_510\n      swap2\n      swap1\n      tag_54\n      jump\t// in\n    tag_510:\n      0x00\n      mload(0x40)\n      dup1\n      dup4\n      sub\n      dup2\n      dup7\n      dup1\n      extcodesize\n      iszero\n      dup1\n      iszero\n      tag_511\n      jumpi\n      0x00\n      dup1\n      revert\n    tag_511:\n      pop\n      gas\n      staticcall\n      iszero\n      dup1\n      iszero\n      tag_513\n      jumpi\n      returndatasize\n      0x00\n      dup1\n      returndatacopy\n      revert(0x00, returndatasize)\n    tag_513:\n      pop\n      pop\n      pop\n      pop\n      mload(0x40)\n      returndatasize\n      0x00\n      dup3\n      returndatacopy\n      returndatasize\n      not(0x1f)\n      0x1f\n      dup3\n      add\n      and\n      dup3\n      add\n      dup1\n      0x40\n      mstore\n      pop\n      dup2\n      add\n      swap1\n      tag_514\n      swap2\n      swap1\n      tag_509\n      jump\t// in\n    tag_514:\n        /* \"StakeManager.sol\":9390:9478  uint256[] memory lowerCutoffsLastEpoch = blockManager.getLowerCutoffs(epochLastRevealed) */\n      swap1\n      pop\n        /* \"StakeManager.sol\":9488:9527  uint256[] memory higherCutoffsLastEpoch */\n      0x60\n        /* \"StakeManager.sol\":9530:9542  blockManager */\n      0x08\n      0x00\n      swap1\n      sload\n      swap1\n      0x0100\n      exp\n      swap1\n      div\n      0xffffffffffffffffffffffffffffffffffffffff\n      and\n        /* \"StakeManager.sol\":9530:9559  blockManager.getHigherCutoffs */\n      0xffffffffffffffffffffffffffffffffffffffff\n      and\n      0xfae4425d\n        /* \"StakeManager.sol\":9560:9577  epochLastRevealed */\n      dup6\n        /* \"StakeManager.sol\":9530:9578  blockManager.getHigherCutoffs(epochLastRevealed) */\n      mload(0x40)\n      dup3\n      0xffffffff\n      and\n      0xe0\n      shl\n      dup2\n      mstore\n      0x04\n      add\n      tag_515\n      swap2\n      swap1\n      tag_54\n      jump\t// in\n    tag_515:\n      0x00\n      mload(0x40)\n      dup1\n      dup4\n      sub\n      dup2\n      dup7\n      dup1\n      extcodesize\n      iszero\n      dup1\n      iszero\n      tag_516\n      jumpi\n      0x00\n      dup1\n      revert\n    tag_516:\n      pop\n      gas\n      staticcall\n      iszero\n      dup1\n      iszero\n      tag_518\n      jumpi\n      returndatasize\n      0x00\n      dup1\n      returndatacopy\n      revert(0x00, returndatasize)\n    tag_518:\n      pop\n      pop\n      pop\n      pop\n      mload(0x40)\n      returndatasize\n      0x00\n      dup3\n      returndatacopy\n      returndatasize\n      not(0x1f)\n      0x1f\n      dup3\n      add\n      and\n      dup3\n      add\n      dup1\n      0x40\n      mstore\n      pop\n      dup2\n      add\n      swap1\n      tag_519\n      swap2\n      swap1\n      tag_509\n      jump\t// in\n    tag_519:\n        /* \"StakeManager.sol\":9488:9578  uint256[] memory higherCutoffsLastEpoch = blockManager.getHigherCutoffs(epochLastRevealed) */\n      swap1\n      pop\n        /* \"StakeManager.sol\":9673:9674  0 */\n      0x00\n        /* \"StakeManager.sol\":9642:9663  lowerCutoffsLastEpoch */\n      dup3\n        /* \"StakeManager.sol\":9642:9670  lowerCutoffsLastEpoch.length */\n      mload\n        /* \"StakeManager.sol\":9642:9674  lowerCutoffsLastEpoch.length > 0 */\n      gt\n        /* \"StakeManager.sol\":9638:11504  if (lowerCutoffsLastEpoch.length > 0) {... */\n      iszero\n      tag_520\n      jumpi\n        /* \"StakeManager.sol\":9841:9859  uint256 rewardable */\n      0x00\n        /* \"StakeManager.sol\":9862:9863  0 */\n      dup1\n        /* \"StakeManager.sol\":9841:9863  uint256 rewardable = 0 */\n      swap1\n      pop\n        /* \"StakeManager.sol\":9882:9891  uint256 i */\n      0x00\n        /* \"StakeManager.sol\":9894:9895  0 */\n      dup1\n        /* \"StakeManager.sol\":9882:9895  uint256 i = 0 */\n      swap1\n      pop\n        /* \"StakeManager.sol\":9877:10563  for (uint256 i = 0; i < lowerCutoffsLastEpoch.length; i++) {... */\n    tag_521:\n        /* \"StakeManager.sol\":9901:9922  lowerCutoffsLastEpoch */\n      dup4\n        /* \"StakeManager.sol\":9901:9929  lowerCutoffsLastEpoch.length */\n      mload\n        /* \"StakeManager.sol\":9897:9898  i */\n      dup2\n        /* \"StakeManager.sol\":9897:9929  i < lowerCutoffsLastEpoch.length */\n      lt\n        /* \"StakeManager.sol\":9877:10563  for (uint256 i = 0; i < lowerCutoffsLastEpoch.length; i++) {... */\n      iszero\n      tag_522\n      jumpi\n        /* \"StakeManager.sol\":9954:9975  uint256 voteLastEpoch */\n      0x00\n        /* \"StakeManager.sol\":9978:9989  voteManager */\n      0x07\n      0x00\n      swap1\n      sload\n      swap1\n      0x0100\n      exp\n      swap1\n      div\n      0xffffffffffffffffffffffffffffffffffffffff\n      and\n        /* \"StakeManager.sol\":9978:9997  voteManager.getVote */\n      0xffffffffffffffffffffffffffffffffffffffff\n      and\n      0x8ce7ff4a\n        /* \"StakeManager.sol\":9998:10015  epochLastRevealed */\n      dup9\n        /* \"StakeManager.sol\":10017:10027  thisStaker */\n      dup11\n        /* \"StakeManager.sol\":10017:10030  thisStaker.id */\n      0x00\n      add\n      mload\n        /* \"StakeManager.sol\":10032:10033  i */\n      dup6\n        /* \"StakeManager.sol\":9978:10034  voteManager.getVote(epochLastRevealed, thisStaker.id, i) */\n      mload(0x40)\n      dup5\n      0xffffffff\n      and\n      0xe0\n      shl\n      dup2\n      mstore\n      0x04\n      add\n      tag_524\n      swap4\n      swap3\n      swap2\n      swap1\n      tag_525\n      jump\t// in\n    tag_524:\n      0x40\n      dup1\n      mload\n      dup1\n      dup4\n      sub\n      dup2\n      dup7\n      dup1\n      extcodesize\n      iszero\n      dup1\n      iszero\n      tag_526\n      jumpi\n      0x00\n      dup1\n      revert\n    tag_526:\n      pop\n      gas\n      staticcall\n      iszero\n      dup1\n      iszero\n      tag_528\n      jumpi\n      returndatasize\n      0x00\n      dup1\n      returndatacopy\n      revert(0x00, returndatasize)\n    tag_528:\n      pop\n      pop\n      pop\n      pop\n      mload(0x40)\n      returndatasize\n      not(0x1f)\n      0x1f\n      dup3\n      add\n      and\n      dup3\n      add\n      dup1\n      0x40\n      mstore\n      pop\n      dup2\n      add\n      swap1\n      tag_529\n      swap2\n      swap1\n      tag_530\n      jump\t// in\n    tag_529:\n        /* \"StakeManager.sol\":9978:10040  voteManager.getVote(epochLastRevealed, thisStaker.id, i).value */\n      0x00\n      add\n      mload\n        /* \"StakeManager.sol\":9954:10040  uint256 voteLastEpoch = voteManager.getVote(epochLastRevealed, thisStaker.id, i).value */\n      swap1\n      pop\n        /* \"StakeManager.sol\":10058:10081  uint256 medianLastEpoch */\n      0x00\n        /* \"StakeManager.sol\":10084:10100  mediansLastEpoch */\n      dup7\n        /* \"StakeManager.sol\":10101:10102  i */\n      dup4\n        /* \"StakeManager.sol\":10084:10103  mediansLastEpoch[i] */\n      dup2\n      mload\n      dup2\n      lt\n      tag_531\n      jumpi\n      invalid\n    tag_531:\n      0x20\n      mul\n      0x20\n      add\n      add\n      mload\n        /* \"StakeManager.sol\":10058:10103  uint256 medianLastEpoch = mediansLastEpoch[i] */\n      swap1\n      pop\n        /* \"StakeManager.sol\":10121:10149  uint256 lowerCutoffLastEpoch */\n      0x00\n        /* \"StakeManager.sol\":10152:10173  lowerCutoffsLastEpoch */\n      dup7\n        /* \"StakeManager.sol\":10174:10175  i */\n      dup5\n        /* \"StakeManager.sol\":10152:10176  lowerCutoffsLastEpoch[i] */\n      dup2\n      mload\n      dup2\n      lt\n      tag_532\n      jumpi\n      invalid\n    tag_532:\n      0x20\n      mul\n      0x20\n      add\n      add\n      mload\n        /* \"StakeManager.sol\":10121:10176  uint256 lowerCutoffLastEpoch = lowerCutoffsLastEpoch[i] */\n      swap1\n      pop\n        /* \"StakeManager.sol\":10194:10223  uint256 higherCutoffLastEpoch */\n      0x00\n        /* \"StakeManager.sol\":10226:10248  higherCutoffsLastEpoch */\n      dup7\n        /* \"StakeManager.sol\":10249:10250  i */\n      dup6\n        /* \"StakeManager.sol\":10226:10251  higherCutoffsLastEpoch[i] */\n      dup2\n      mload\n      dup2\n      lt\n      tag_533\n      jumpi\n      invalid\n    tag_533:\n      0x20\n      mul\n      0x20\n      add\n      add\n      mload\n        /* \"StakeManager.sol\":10194:10251  uint256 higherCutoffLastEpoch = higherCutoffsLastEpoch[i] */\n      swap1\n      pop\n        /* \"StakeManager.sol\":10340:10355  medianLastEpoch */\n      dup3\n        /* \"StakeManager.sol\":10323:10336  voteLastEpoch */\n      dup5\n        /* \"StakeManager.sol\":10323:10355  voteLastEpoch == medianLastEpoch */\n      eq\n        /* \"StakeManager.sol\":10322:10479  (voteLastEpoch == medianLastEpoch) ||... */\n      dup1\n      tag_534\n      jumpi\n      pop\n        /* \"StakeManager.sol\":10394:10414  lowerCutoffLastEpoch */\n      dup2\n        /* \"StakeManager.sol\":10378:10391  voteLastEpoch */\n      dup5\n        /* \"StakeManager.sol\":10378:10414  voteLastEpoch > lowerCutoffLastEpoch */\n      gt\n        /* \"StakeManager.sol\":10377:10478  (voteLastEpoch > lowerCutoffLastEpoch) ||... */\n      dup1\n      tag_535\n      jumpi\n      pop\n        /* \"StakeManager.sol\":10456:10477  higherCutoffLastEpoch */\n      dup1\n        /* \"StakeManager.sol\":10440:10453  voteLastEpoch */\n      dup5\n        /* \"StakeManager.sol\":10440:10477  voteLastEpoch < higherCutoffLastEpoch */\n      lt\n        /* \"StakeManager.sol\":10377:10478  (voteLastEpoch > lowerCutoffLastEpoch) ||... */\n    tag_535:\n        /* \"StakeManager.sol\":10322:10479  (voteLastEpoch == medianLastEpoch) ||... */\n    tag_534:\n        /* \"StakeManager.sol\":10318:10549  if ((voteLastEpoch == medianLastEpoch) ||... */\n      iszero\n      tag_536\n      jumpi\n        /* \"StakeManager.sol\":10529:10530  1 */\n      0x01\n        /* \"StakeManager.sol\":10516:10526  rewardable */\n      dup7\n        /* \"StakeManager.sol\":10516:10530  rewardable + 1 */\n      add\n        /* \"StakeManager.sol\":10503:10530  rewardable = rewardable + 1 */\n      swap6\n      pop\n        /* \"StakeManager.sol\":10318:10549  if ((voteLastEpoch == medianLastEpoch) ||... */\n    tag_536:\n        /* \"StakeManager.sol\":9877:10563  for (uint256 i = 0; i < lowerCutoffsLastEpoch.length; i++) {... */\n      pop\n      pop\n      pop\n      pop\n        /* \"StakeManager.sol\":9931:9934  i++ */\n      dup1\n      dup1\n      0x01\n      add\n      swap2\n      pop\n      pop\n        /* \"StakeManager.sol\":9877:10563  for (uint256 i = 0; i < lowerCutoffsLastEpoch.length; i++) {... */\n      jump(tag_521)\n    tag_522:\n      pop\n        /* \"StakeManager.sol\":10703:10717  uint256 reward */\n      0x00\n        /* \"StakeManager.sol\":10794:10815  lowerCutoffsLastEpoch */\n      dup4\n        /* \"StakeManager.sol\":10794:10822  lowerCutoffsLastEpoch.length */\n      mload\n        /* \"StakeManager.sol\":10775:10793  stakeGettingReward */\n      sload(0x05)\n        /* \"StakeManager.sol\":10775:10822  stakeGettingReward*lowerCutoffsLastEpoch.length */\n      mul\n        /* \"StakeManager.sol\":10749:10759  rewardable */\n      dup3\n        /* \"StakeManager.sol\":10738:10748  rewardPool */\n      sload(0x04)\n        /* \"StakeManager.sol\":10721:10731  thisStaker */\n      dup10\n        /* \"StakeManager.sol\":10721:10737  thisStaker.stake */\n      0x40\n      add\n      mload\n        /* \"StakeManager.sol\":10721:10748  thisStaker.stake*rewardPool */\n      mul\n        /* \"StakeManager.sol\":10721:10759  thisStaker.stake*rewardPool*rewardable */\n      mul\n        /* \"StakeManager.sol\":10720:10823  (thisStaker.stake*rewardPool*rewardable)/... */\n      dup2\n      tag_537\n      jumpi\n      invalid\n    tag_537:\n      div\n        /* \"StakeManager.sol\":10703:10823  uint256 reward = (thisStaker.stake*rewardPool*rewardable)/... */\n      swap1\n      pop\n        /* \"StakeManager.sol\":10850:10851  0 */\n      0x00\n        /* \"StakeManager.sol\":10841:10847  reward */\n      dup2\n        /* \"StakeManager.sol\":10841:10851  reward > 0 */\n      gt\n        /* \"StakeManager.sol\":10837:11494  if (reward > 0) {... */\n      iszero\n      tag_538\n      jumpi\n        /* \"StakeManager.sol\":10871:10901  uint256 prevStakeGettingReward */\n      0x00\n        /* \"StakeManager.sol\":10904:10922  stakeGettingReward */\n      sload(0x05)\n        /* \"StakeManager.sol\":10871:10922  uint256 prevStakeGettingReward = stakeGettingReward */\n      swap1\n      pop\n        /* \"StakeManager.sol\":10983:10993  thisStaker */\n      dup8\n        /* \"StakeManager.sol\":10983:10999  thisStaker.stake */\n      0x40\n      add\n      mload\n        /* \"StakeManager.sol\":10961:10979  stakeGettingReward */\n      sload(0x05)\n        /* \"StakeManager.sol\":10961:10999  stakeGettingReward >= thisStaker.stake */\n      lt\n      iszero\n        /* \"StakeManager.sol\":10961:11046  stakeGettingReward >= thisStaker.stake ? stakeGettingReward.sub(thisStaker.stake) : 0 */\n      tag_539\n      jumpi\n        /* \"StakeManager.sol\":11045:11046  0 */\n      0x00\n        /* \"StakeManager.sol\":10961:11046  stakeGettingReward >= thisStaker.stake ? stakeGettingReward.sub(thisStaker.stake) : 0 */\n      jump(tag_540)\n    tag_539:\n        /* \"StakeManager.sol\":11002:11042  stakeGettingReward.sub(thisStaker.stake) */\n      tag_541\n        /* \"StakeManager.sol\":11025:11035  thisStaker */\n      dup9\n        /* \"StakeManager.sol\":11025:11041  thisStaker.stake */\n      0x40\n      add\n      mload\n        /* \"StakeManager.sol\":11002:11020  stakeGettingReward */\n      sload(0x05)\n        /* \"StakeManager.sol\":11002:11024  stakeGettingReward.sub */\n      tag_234\n      swap1\n        /* \"StakeManager.sol\":11002:11042  stakeGettingReward.sub(thisStaker.stake) */\n      swap2\n      swap1\n      0xffffffff\n      and\n      jump\t// in\n    tag_541:\n        /* \"StakeManager.sol\":10961:11046  stakeGettingReward >= thisStaker.stake ? stakeGettingReward.sub(thisStaker.stake) : 0 */\n    tag_540:\n        /* \"StakeManager.sol\":10940:10958  stakeGettingReward */\n      0x05\n        /* \"StakeManager.sol\":10940:11046  stakeGettingReward = stakeGettingReward >= thisStaker.stake ? stakeGettingReward.sub(thisStaker.stake) : 0 */\n      dup2\n      swap1\n      sstore\n      pop\n        /* \"StakeManager.sol\":11069:11149  StakeGettingRewardChange(epoch, prevStakeGettingReward, stakeGettingReward, now) */\n      0xeee26d3c1e406e24904d3748e49da85096c92ac1a6ad38f3fe8a404f85212dd1\n        /* \"StakeManager.sol\":11094:11099  epoch */\n      dup10\n        /* \"StakeManager.sol\":11101:11123  prevStakeGettingReward */\n      dup3\n        /* \"StakeManager.sol\":11125:11143  stakeGettingReward */\n      sload(0x05)\n        /* \"StakeManager.sol\":11145:11148  now */\n      timestamp\n        /* \"StakeManager.sol\":11069:11149  StakeGettingRewardChange(epoch, prevStakeGettingReward, stakeGettingReward, now) */\n      mload(0x40)\n      tag_542\n      swap5\n      swap4\n      swap3\n      swap2\n      swap1\n      tag_284\n      jump\t// in\n    tag_542:\n      mload(0x40)\n      dup1\n      swap2\n      sub\n      swap1\n      log1\n        /* \"StakeManager.sol\":11167:11183  uint256 newStake */\n      0x00\n        /* \"StakeManager.sol\":11205:11211  reward */\n      dup3\n        /* \"StakeManager.sol\":11186:11196  thisStaker */\n      dup10\n        /* \"StakeManager.sol\":11186:11202  thisStaker.stake */\n      0x40\n      add\n      mload\n        /* \"StakeManager.sol\":11186:11211  thisStaker.stake + reward */\n      add\n        /* \"StakeManager.sol\":11167:11211  uint256 newStake = thisStaker.stake + reward */\n      swap1\n      pop\n        /* \"StakeManager.sol\":11229:11251  uint256 prevRewardPool */\n      0x00\n        /* \"StakeManager.sol\":11254:11264  rewardPool */\n      sload(0x04)\n        /* \"StakeManager.sol\":11229:11264  uint256 prevRewardPool = rewardPool */\n      swap1\n      pop\n        /* \"StakeManager.sol\":11295:11317  rewardPool.sub(reward) */\n      tag_543\n        /* \"StakeManager.sol\":11310:11316  reward */\n      dup5\n        /* \"StakeManager.sol\":11295:11305  rewardPool */\n      sload(0x04)\n        /* \"StakeManager.sol\":11295:11309  rewardPool.sub */\n      tag_234\n      swap1\n        /* \"StakeManager.sol\":11295:11317  rewardPool.sub(reward) */\n      swap2\n      swap1\n      0xffffffff\n      and\n      jump\t// in\n    tag_543:\n        /* \"StakeManager.sol\":11282:11292  rewardPool */\n      0x04\n        /* \"StakeManager.sol\":11282:11317  rewardPool = rewardPool.sub(reward) */\n      dup2\n      swap1\n      sstore\n      pop\n        /* \"StakeManager.sol\":11340:11396  RewardPoolChange(epoch, prevRewardPool, rewardPool, now) */\n      0xf7157643fd549e213a0105625da6b3bf58c86068ccb954a4449e18bf9427bff4\n        /* \"StakeManager.sol\":11357:11362  epoch */\n      dup12\n        /* \"StakeManager.sol\":11364:11378  prevRewardPool */\n      dup3\n        /* \"StakeManager.sol\":11380:11390  rewardPool */\n      sload(0x04)\n        /* \"StakeManager.sol\":11392:11395  now */\n      timestamp\n        /* \"StakeManager.sol\":11340:11396  RewardPoolChange(epoch, prevRewardPool, rewardPool, now) */\n      mload(0x40)\n      tag_544\n      swap5\n      swap4\n      swap3\n      swap2\n      swap1\n      tag_284\n      jump\t// in\n    tag_544:\n      mload(0x40)\n      dup1\n      swap2\n      sub\n      swap1\n      log1\n        /* \"StakeManager.sol\":11414:11479  _setStakerStake(thisStaker.id, newStake, \"Voting Rewards\", epoch) */\n      tag_545\n        /* \"StakeManager.sol\":11430:11440  thisStaker */\n      dup11\n        /* \"StakeManager.sol\":11430:11443  thisStaker.id */\n      0x00\n      add\n      mload\n        /* \"StakeManager.sol\":11445:11453  newStake */\n      dup4\n        /* \"StakeManager.sol\":11414:11479  _setStakerStake(thisStaker.id, newStake, \"Voting Rewards\", epoch) */\n      mload(0x40)\n      dup1\n      0x40\n      add\n      0x40\n      mstore\n      dup1\n      0x0e\n      dup2\n      mstore\n      0x20\n      add\n      0x566f74696e672052657761726473000000000000000000000000000000000000\n      dup2\n      mstore\n      pop\n        /* \"StakeManager.sol\":11473:11478  epoch */\n      dup15\n        /* \"StakeManager.sol\":11414:11429  _setStakerStake */\n      tag_197\n        /* \"StakeManager.sol\":11414:11479  _setStakerStake(thisStaker.id, newStake, \"Voting Rewards\", epoch) */\n      jump\t// in\n    tag_545:\n        /* \"StakeManager.sol\":10837:11494  if (reward > 0) {... */\n      pop\n      pop\n      pop\n    tag_538:\n        /* \"StakeManager.sol\":9638:11504  if (lowerCutoffsLastEpoch.length > 0) {... */\n      pop\n      pop\n    tag_520:\n        /* \"WriterRole.sol\":653:654  _ */\n      pop\n      pop\n      pop\n      pop\n      pop\n    tag_500:\n        /* \"StakeManager.sol\":8858:11510  function giveRewards (uint256 stakerId, uint256 epoch) external onlyWriter {... */\n      pop\n      pop\n      jump\t// out\n        /* \"StakeStorage.sol\":206:256  mapping (uint256 => Structs.Staker) public stakers */\n    tag_183:\n      mstore(0x20, 0x02)\n      dup1\n      0x00\n      mstore\n      keccak256(0x00, 0x40)\n      0x00\n      swap2\n      pop\n      swap1\n      pop\n      dup1\n      0x00\n      add\n      sload\n      swap1\n      dup1\n      0x01\n      add\n      0x00\n      swap1\n      sload\n      swap1\n      0x0100\n      exp\n      swap1\n      div\n      0xffffffffffffffffffffffffffffffffffffffff\n      and\n      swap1\n      dup1\n      0x02\n      add\n      sload\n      swap1\n      dup1\n      0x03\n      add\n      sload\n      swap1\n      dup1\n      0x04\n      add\n      sload\n      swap1\n      dup1\n      0x05\n      add\n      sload\n      swap1\n      dup1\n      0x06\n      add\n      sload\n      swap1\n      dup1\n      0x07\n      add\n      sload\n      swap1\n      pop\n      dup9\n      jump\t// out\n        /* \"openzeppelin-solidity/contracts/utils/EnumerableSet.sol\":4864:5005   */\n    tag_186:\n        /* \"openzeppelin-solidity/contracts/utils/EnumerableSet.sol\":4934:4938   */\n      0x00\n        /* \"openzeppelin-solidity/contracts/utils/EnumerableSet.sol\":4957:4998   */\n      tag_547\n        /* \"openzeppelin-solidity/contracts/utils/EnumerableSet.sol\":4962:4965   */\n      dup4\n        /* \"openzeppelin-solidity/contracts/utils/EnumerableSet.sol\":4962:4972   */\n      0x00\n      add\n        /* \"openzeppelin-solidity/contracts/utils/EnumerableSet.sol\":4990:4995   */\n      dup4\n        /* \"openzeppelin-solidity/contracts/utils/EnumerableSet.sol\":4982:4996   */\n      0xffffffffffffffffffffffffffffffffffffffff\n      and\n        /* \"openzeppelin-solidity/contracts/utils/EnumerableSet.sol\":4974:4997   */\n      0x00\n      shl\n        /* \"openzeppelin-solidity/contracts/utils/EnumerableSet.sol\":4957:4961   */\n      tag_548\n        /* \"openzeppelin-solidity/contracts/utils/EnumerableSet.sol\":4957:4998   */\n      jump\t// in\n    tag_547:\n        /* \"openzeppelin-solidity/contracts/utils/EnumerableSet.sol\":4950:4998   */\n      swap1\n      pop\n        /* \"openzeppelin-solidity/contracts/utils/EnumerableSet.sol\":4864:5005   */\n      swap3\n      swap2\n      pop\n      pop\n      jump\t// out\n        /* \"openzeppelin-solidity/contracts/math/SafeMath.sol\":3101:3231   */\n    tag_195:\n        /* \"openzeppelin-solidity/contracts/math/SafeMath.sol\":3159:3166   */\n      0x00\n        /* \"openzeppelin-solidity/contracts/math/SafeMath.sol\":3185:3224   */\n      tag_550\n        /* \"openzeppelin-solidity/contracts/math/SafeMath.sol\":3189:3190   */\n      dup4\n        /* \"openzeppelin-solidity/contracts/math/SafeMath.sol\":3192:3193   */\n      dup4\n        /* \"openzeppelin-solidity/contracts/math/SafeMath.sol\":3185:3224   */\n      mload(0x40)\n      dup1\n      0x40\n      add\n      0x40\n      mstore\n      dup1\n      0x1a\n      dup2\n      mstore\n      0x20\n      add\n      0x536166654d6174683a206469766973696f6e206279207a65726f000000000000\n      dup2\n      mstore\n      pop\n        /* \"openzeppelin-solidity/contracts/math/SafeMath.sol\":3185:3188   */\n      tag_551\n        /* \"openzeppelin-solidity/contracts/math/SafeMath.sol\":3185:3224   */\n      jump\t// in\n    tag_550:\n        /* \"openzeppelin-solidity/contracts/math/SafeMath.sol\":3178:3224   */\n      swap1\n      pop\n        /* \"openzeppelin-solidity/contracts/math/SafeMath.sol\":3101:3231   */\n      swap3\n      swap2\n      pop\n      pop\n      jump\t// out\n        /* \"StakeManager.sol\":14156:14430  function _setStakerStake(uint256 _id, uint256 _stake, string memory _reason, uint256 _epoch) internal {... */\n    tag_197:\n        /* \"StakeManager.sol\":14268:14289  uint256 previousStake */\n      0x00\n        /* \"StakeManager.sol\":14292:14299  stakers */\n      0x02\n        /* \"StakeManager.sol\":14292:14304  stakers[_id] */\n      0x00\n        /* \"StakeManager.sol\":14300:14303  _id */\n      dup7\n        /* \"StakeManager.sol\":14292:14304  stakers[_id] */\n      dup2\n      mstore\n      0x20\n      add\n      swap1\n      dup2\n      mstore\n      0x20\n      add\n      0x00\n      keccak256\n        /* \"StakeManager.sol\":14292:14310  stakers[_id].stake */\n      0x02\n      add\n      sload\n        /* \"StakeManager.sol\":14268:14310  uint256 previousStake = stakers[_id].stake */\n      swap1\n      pop\n        /* \"StakeManager.sol\":14341:14347  _stake */\n      dup4\n        /* \"StakeManager.sol\":14320:14327  stakers */\n      0x02\n        /* \"StakeManager.sol\":14320:14332  stakers[_id] */\n      0x00\n        /* \"StakeManager.sol\":14328:14331  _id */\n      dup8\n        /* \"StakeManager.sol\":14320:14332  stakers[_id] */\n      dup2\n      mstore\n      0x20\n      add\n      swap1\n      dup2\n      mstore\n      0x20\n      add\n      0x00\n      keccak256\n        /* \"StakeManager.sol\":14320:14338  stakers[_id].stake */\n      0x02\n      add\n        /* \"StakeManager.sol\":14320:14347  stakers[_id].stake = _stake */\n      dup2\n      swap1\n      sstore\n      pop\n        /* \"StakeManager.sol\":14374:14377  _id */\n      dup5\n        /* \"StakeManager.sol\":14362:14423  StakeChange(_id, previousStake, _stake, _reason, _epoch, now) */\n      0xab9982d99de79485b3cd6d1e72c881fd0342f42f1cbc7d220d4f373b97c4f363\n        /* \"StakeManager.sol\":14379:14392  previousStake */\n      dup3\n        /* \"StakeManager.sol\":14394:14400  _stake */\n      dup7\n        /* \"StakeManager.sol\":14402:14409  _reason */\n      dup7\n        /* \"StakeManager.sol\":14411:14417  _epoch */\n      dup7\n        /* \"StakeManager.sol\":14419:14422  now */\n      timestamp\n        /* \"StakeManager.sol\":14362:14423  StakeChange(_id, previousStake, _stake, _reason, _epoch, now) */\n      mload(0x40)\n      tag_553\n      swap6\n      swap5\n      swap4\n      swap3\n      swap2\n      swap1\n      tag_554\n      jump\t// in\n    tag_553:\n      mload(0x40)\n      dup1\n      swap2\n      sub\n      swap1\n      log2\n        /* \"StakeManager.sol\":14156:14430  function _setStakerStake(uint256 _id, uint256 _stake, string memory _reason, uint256 _epoch) internal {... */\n      pop\n      pop\n      pop\n      pop\n      pop\n      jump\t// out\n        /* \"openzeppelin-solidity/contracts/math/SafeMath.sol\":2180:2639   */\n    tag_232:\n        /* \"openzeppelin-solidity/contracts/math/SafeMath.sol\":2238:2245   */\n      0x00\n        /* \"openzeppelin-solidity/contracts/math/SafeMath.sol\":2484:2485   */\n      dup1\n        /* \"openzeppelin-solidity/contracts/math/SafeMath.sol\":2479:2480   */\n      dup4\n        /* \"openzeppelin-solidity/contracts/math/SafeMath.sol\":2479:2485   */\n      eq\n        /* \"openzeppelin-solidity/contracts/math/SafeMath.sol\":2475:2520   */\n      iszero\n      tag_556\n      jumpi\n        /* \"openzeppelin-solidity/contracts/math/SafeMath.sol\":2508:2509   */\n      0x00\n        /* \"openzeppelin-solidity/contracts/math/SafeMath.sol\":2501:2509   */\n      swap1\n      pop\n      jump(tag_555)\n        /* \"openzeppelin-solidity/contracts/math/SafeMath.sol\":2475:2520   */\n    tag_556:\n        /* \"openzeppelin-solidity/contracts/math/SafeMath.sol\":2530:2539   */\n      0x00\n        /* \"openzeppelin-solidity/contracts/math/SafeMath.sol\":2546:2547   */\n      dup3\n        /* \"openzeppelin-solidity/contracts/math/SafeMath.sol\":2542:2543   */\n      dup5\n        /* \"openzeppelin-solidity/contracts/math/SafeMath.sol\":2542:2547   */\n      mul\n        /* \"openzeppelin-solidity/contracts/math/SafeMath.sol\":2530:2547   */\n      swap1\n      pop\n        /* \"openzeppelin-solidity/contracts/math/SafeMath.sol\":2574:2575   */\n      dup3\n        /* \"openzeppelin-solidity/contracts/math/SafeMath.sol\":2569:2570   */\n      dup5\n        /* \"openzeppelin-solidity/contracts/math/SafeMath.sol\":2565:2566   */\n      dup3\n        /* \"openzeppelin-solidity/contracts/math/SafeMath.sol\":2565:2570   */\n      dup2\n      tag_557\n      jumpi\n      invalid\n    tag_557:\n      div\n        /* \"openzeppelin-solidity/contracts/math/SafeMath.sol\":2565:2575   */\n      eq\n        /* \"openzeppelin-solidity/contracts/math/SafeMath.sol\":2557:2613   */\n      tag_558\n      jumpi\n      mload(0x40)\n      0x08c379a000000000000000000000000000000000000000000000000000000000\n      dup2\n      mstore\n      0x04\n      add\n      tag_559\n      swap1\n      tag_560\n      jump\t// in\n    tag_559:\n      mload(0x40)\n      dup1\n      swap2\n      sub\n      swap1\n      revert\n    tag_558:\n        /* \"openzeppelin-solidity/contracts/math/SafeMath.sol\":2631:2632   */\n      dup1\n        /* \"openzeppelin-solidity/contracts/math/SafeMath.sol\":2624:2632   */\n      swap2\n      pop\n      pop\n        /* \"openzeppelin-solidity/contracts/math/SafeMath.sol\":2180:2639   */\n    tag_555:\n      swap3\n      swap2\n      pop\n      pop\n      jump\t// out\n        /* \"openzeppelin-solidity/contracts/math/SafeMath.sol\":1321:1455   */\n    tag_234:\n        /* \"openzeppelin-solidity/contracts/math/SafeMath.sol\":1379:1386   */\n      0x00\n        /* \"openzeppelin-solidity/contracts/math/SafeMath.sol\":1405:1448   */\n      tag_562\n        /* \"openzeppelin-solidity/contracts/math/SafeMath.sol\":1409:1410   */\n      dup4\n        /* \"openzeppelin-solidity/contracts/math/SafeMath.sol\":1412:1413   */\n      dup4\n        /* \"openzeppelin-solidity/contracts/math/SafeMath.sol\":1405:1448   */\n      mload(0x40)\n      dup1\n      0x40\n      add\n      0x40\n      mstore\n      dup1\n      0x1e\n      dup2\n      mstore\n      0x20\n      add\n      0x536166654d6174683a207375627472616374696f6e206f766572666c6f770000\n      dup2\n      mstore\n      pop\n        /* \"openzeppelin-solidity/contracts/math/SafeMath.sol\":1405:1408   */\n      tag_563\n        /* \"openzeppelin-solidity/contracts/math/SafeMath.sol\":1405:1448   */\n      jump\t// in\n    tag_562:\n        /* \"openzeppelin-solidity/contracts/math/SafeMath.sol\":1398:1448   */\n      swap1\n      pop\n        /* \"openzeppelin-solidity/contracts/math/SafeMath.sol\":1321:1455   */\n      swap3\n      swap2\n      pop\n      pop\n      jump\t// out\n        /* \"openzeppelin-solidity/contracts/math/SafeMath.sol\":874:1050   */\n    tag_282:\n        /* \"openzeppelin-solidity/contracts/math/SafeMath.sol\":932:939   */\n      0x00\n        /* \"openzeppelin-solidity/contracts/math/SafeMath.sol\":951:960   */\n      dup1\n        /* \"openzeppelin-solidity/contracts/math/SafeMath.sol\":967:968   */\n      dup3\n        /* \"openzeppelin-solidity/contracts/math/SafeMath.sol\":963:964   */\n      dup5\n        /* \"openzeppelin-solidity/contracts/math/SafeMath.sol\":963:968   */\n      add\n        /* \"openzeppelin-solidity/contracts/math/SafeMath.sol\":951:968   */\n      swap1\n      pop\n        /* \"openzeppelin-solidity/contracts/math/SafeMath.sol\":991:992   */\n      dup4\n        /* \"openzeppelin-solidity/contracts/math/SafeMath.sol\":986:987   */\n      dup2\n        /* \"openzeppelin-solidity/contracts/math/SafeMath.sol\":986:992   */\n      lt\n      iszero\n        /* \"openzeppelin-solidity/contracts/math/SafeMath.sol\":978:1024   */\n      tag_565\n      jumpi\n      mload(0x40)\n      0x08c379a000000000000000000000000000000000000000000000000000000000\n      dup2\n      mstore\n      0x04\n      add\n      tag_566\n      swap1\n      tag_567\n      jump\t// in\n    tag_566:\n      mload(0x40)\n      dup1\n      swap2\n      sub\n      swap1\n      revert\n    tag_565:\n        /* \"openzeppelin-solidity/contracts/math/SafeMath.sol\":1042:1043   */\n      dup1\n        /* \"openzeppelin-solidity/contracts/math/SafeMath.sol\":1035:1043   */\n      swap2\n      pop\n      pop\n        /* \"openzeppelin-solidity/contracts/math/SafeMath.sol\":874:1050   */\n      swap3\n      swap2\n      pop\n      pop\n      jump\t// out\n        /* \"StakeManager.sol\":15780:18049  function _givePenalties (uint256 stakerId, uint256 epoch) internal {... */\n    tag_329:\n        /* \"StakeManager.sol\":15857:15898  _giveInactivityPenalties(stakerId, epoch) */\n      tag_569\n        /* \"StakeManager.sol\":15882:15890  stakerId */\n      dup3\n        /* \"StakeManager.sol\":15892:15897  epoch */\n      dup3\n        /* \"StakeManager.sol\":15857:15881  _giveInactivityPenalties */\n      tag_570\n        /* \"StakeManager.sol\":15857:15898  _giveInactivityPenalties(stakerId, epoch) */\n      jump\t// in\n    tag_569:\n        /* \"StakeManager.sol\":15908:15941  Structs.Staker storage thisStaker */\n      0x00\n        /* \"StakeManager.sol\":15944:15951  stakers */\n      0x02\n        /* \"StakeManager.sol\":15944:15961  stakers[stakerId] */\n      0x00\n        /* \"StakeManager.sol\":15952:15960  stakerId */\n      dup5\n        /* \"StakeManager.sol\":15944:15961  stakers[stakerId] */\n      dup2\n      mstore\n      0x20\n      add\n      swap1\n      dup2\n      mstore\n      0x20\n      add\n      0x00\n      keccak256\n        /* \"StakeManager.sol\":15908:15961  Structs.Staker storage thisStaker = stakers[stakerId] */\n      swap1\n      pop\n        /* \"StakeManager.sol\":15971:15992  uint256 previousStake */\n      0x00\n        /* \"StakeManager.sol\":15995:16005  thisStaker */\n      dup2\n        /* \"StakeManager.sol\":15995:16011  thisStaker.stake */\n      0x02\n      add\n      sload\n        /* \"StakeManager.sol\":15971:16011  uint256 previousStake = thisStaker.stake */\n      swap1\n      pop\n        /* \"StakeManager.sol\":16021:16046  uint256 epochLastRevealed */\n      0x00\n        /* \"StakeManager.sol\":16049:16059  thisStaker */\n      dup3\n        /* \"StakeManager.sol\":16049:16077  thisStaker.epochLastRevealed */\n      0x05\n      add\n      sload\n        /* \"StakeManager.sol\":16021:16077  uint256 epochLastRevealed = thisStaker.epochLastRevealed */\n      swap1\n      pop\n        /* \"StakeManager.sol\":16088:16115  Structs.Block memory _block */\n      tag_571\n      tag_572\n      jump\t// in\n    tag_571:\n        /* \"StakeManager.sol\":16118:16130  blockManager */\n      0x08\n      0x00\n      swap1\n      sload\n      swap1\n      0x0100\n      exp\n      swap1\n      div\n      0xffffffffffffffffffffffffffffffffffffffff\n      and\n        /* \"StakeManager.sol\":16118:16139  blockManager.getBlock */\n      0xffffffffffffffffffffffffffffffffffffffff\n      and\n      0x04c07569\n        /* \"StakeManager.sol\":16140:16157  epochLastRevealed */\n      dup4\n        /* \"StakeManager.sol\":16118:16158  blockManager.getBlock(epochLastRevealed) */\n      mload(0x40)\n      dup3\n      0xffffffff\n      and\n      0xe0\n      shl\n      dup2\n      mstore\n      0x04\n      add\n      tag_573\n      swap2\n      swap1\n      tag_54\n      jump\t// in\n    tag_573:\n      0x00\n      mload(0x40)\n      dup1\n      dup4\n      sub\n      dup2\n      dup7\n      dup1\n      extcodesize\n      iszero\n      dup1\n      iszero\n      tag_574\n      jumpi\n      0x00\n      dup1\n      revert\n    tag_574:\n      pop\n      gas\n      staticcall\n      iszero\n      dup1\n      iszero\n      tag_576\n      jumpi\n      returndatasize\n      0x00\n      dup1\n      returndatacopy\n      revert(0x00, returndatasize)\n    tag_576:\n      pop\n      pop\n      pop\n      pop\n      mload(0x40)\n      returndatasize\n      0x00\n      dup3\n      returndatacopy\n      returndatasize\n      not(0x1f)\n      0x1f\n      dup3\n      add\n      and\n      dup3\n      add\n      dup1\n      0x40\n      mstore\n      pop\n      dup2\n      add\n      swap1\n      tag_577\n      swap2\n      swap1\n      tag_578\n      jump\t// in\n    tag_577:\n        /* \"StakeManager.sol\":16088:16158  Structs.Block memory _block = blockManager.getBlock(epochLastRevealed) */\n      swap1\n      pop\n        /* \"StakeManager.sol\":16169:16207  uint256[] memory lowerCutoffsLastEpoch */\n      0x60\n        /* \"StakeManager.sol\":16210:16216  _block */\n      dup2\n        /* \"StakeManager.sol\":16210:16229  _block.lowerCutoffs */\n      0x60\n      add\n      mload\n        /* \"StakeManager.sol\":16169:16229  uint256[] memory lowerCutoffsLastEpoch = _block.lowerCutoffs */\n      swap1\n      pop\n        /* \"StakeManager.sol\":16239:16278  uint256[] memory higherCutoffsLastEpoch */\n      0x60\n        /* \"StakeManager.sol\":16281:16287  _block */\n      dup3\n        /* \"StakeManager.sol\":16281:16301  _block.higherCutoffs */\n      0x80\n      add\n      mload\n        /* \"StakeManager.sol\":16239:16301  uint256[] memory higherCutoffsLastEpoch = _block.higherCutoffs */\n      swap1\n      pop\n        /* \"StakeManager.sol\":16311:16344  uint256[] memory mediansLastEpoch */\n      0x60\n        /* \"StakeManager.sol\":16347:16353  _block */\n      dup4\n        /* \"StakeManager.sol\":16347:16361  _block.medians */\n      0x40\n      add\n      mload\n        /* \"StakeManager.sol\":16311:16361  uint256[] memory mediansLastEpoch = _block.medians */\n      swap1\n      pop\n        /* \"StakeManager.sol\":16407:16408  0 */\n      0x00\n        /* \"StakeManager.sol\":16376:16397  lowerCutoffsLastEpoch */\n      dup4\n        /* \"StakeManager.sol\":16376:16404  lowerCutoffsLastEpoch.length */\n      mload\n        /* \"StakeManager.sol\":16376:16408  lowerCutoffsLastEpoch.length > 0 */\n      gt\n        /* \"StakeManager.sol\":16372:18043  if (lowerCutoffsLastEpoch.length > 0) {... */\n      iszero\n      tag_579\n      jumpi\n        /* \"StakeManager.sol\":16424:16439  uint256 penalty */\n      0x00\n        /* \"StakeManager.sol\":16442:16443  0 */\n      dup1\n        /* \"StakeManager.sol\":16424:16443  uint256 penalty = 0 */\n      swap1\n      pop\n        /* \"StakeManager.sol\":16462:16471  uint256 i */\n      0x00\n        /* \"StakeManager.sol\":16474:16475  0 */\n      dup1\n        /* \"StakeManager.sol\":16462:16475  uint256 i = 0 */\n      swap1\n      pop\n        /* \"StakeManager.sol\":16457:17297  for (uint256 i = 0; i < lowerCutoffsLastEpoch.length; i++) {... */\n    tag_580:\n        /* \"StakeManager.sol\":16481:16502  lowerCutoffsLastEpoch */\n      dup5\n        /* \"StakeManager.sol\":16481:16509  lowerCutoffsLastEpoch.length */\n      mload\n        /* \"StakeManager.sol\":16477:16478  i */\n      dup2\n        /* \"StakeManager.sol\":16477:16509  i < lowerCutoffsLastEpoch.length */\n      lt\n        /* \"StakeManager.sol\":16457:17297  for (uint256 i = 0; i < lowerCutoffsLastEpoch.length; i++) {... */\n      iszero\n      tag_581\n      jumpi\n        /* \"StakeManager.sol\":16534:16555  uint256 voteLastEpoch */\n      0x00\n        /* \"StakeManager.sol\":16558:16569  voteManager */\n      0x07\n      0x00\n      swap1\n      sload\n      swap1\n      0x0100\n      exp\n      swap1\n      div\n      0xffffffffffffffffffffffffffffffffffffffff\n      and\n        /* \"StakeManager.sol\":16558:16577  voteManager.getVote */\n      0xffffffffffffffffffffffffffffffffffffffff\n      and\n      0x8ce7ff4a\n        /* \"StakeManager.sol\":16578:16595  epochLastRevealed */\n      dup10\n        /* \"StakeManager.sol\":16597:16607  thisStaker */\n      dup13\n        /* \"StakeManager.sol\":16597:16610  thisStaker.id */\n      0x00\n      add\n      sload\n        /* \"StakeManager.sol\":16612:16613  i */\n      dup6\n        /* \"StakeManager.sol\":16558:16614  voteManager.getVote(epochLastRevealed, thisStaker.id, i) */\n      mload(0x40)\n      dup5\n      0xffffffff\n      and\n      0xe0\n      shl\n      dup2\n      mstore\n      0x04\n      add\n      tag_583\n      swap4\n      swap3\n      swap2\n      swap1\n      tag_525\n      jump\t// in\n    tag_583:\n      0x40\n      dup1\n      mload\n      dup1\n      dup4\n      sub\n      dup2\n      dup7\n      dup1\n      extcodesize\n      iszero\n      dup1\n      iszero\n      tag_584\n      jumpi\n      0x00\n      dup1\n      revert\n    tag_584:\n      pop\n      gas\n      staticcall\n      iszero\n      dup1\n      iszero\n      tag_586\n      jumpi\n      returndatasize\n      0x00\n      dup1\n      returndatacopy\n      revert(0x00, returndatasize)\n    tag_586:\n      pop\n      pop\n      pop\n      pop\n      mload(0x40)\n      returndatasize\n      not(0x1f)\n      0x1f\n      dup3\n      add\n      and\n      dup3\n      add\n      dup1\n      0x40\n      mstore\n      pop\n      dup2\n      add\n      swap1\n      tag_587\n      swap2\n      swap1\n      tag_530\n      jump\t// in\n    tag_587:\n        /* \"StakeManager.sol\":16558:16620  voteManager.getVote(epochLastRevealed, thisStaker.id, i).value */\n      0x00\n      add\n      mload\n        /* \"StakeManager.sol\":16534:16620  uint256 voteLastEpoch = voteManager.getVote(epochLastRevealed, thisStaker.id, i).value */\n      swap1\n      pop\n        /* \"StakeManager.sol\":16638:16666  uint256 lowerCutoffLastEpoch */\n      0x00\n        /* \"StakeManager.sol\":16669:16690  lowerCutoffsLastEpoch */\n      dup7\n        /* \"StakeManager.sol\":16691:16692  i */\n      dup4\n        /* \"StakeManager.sol\":16669:16693  lowerCutoffsLastEpoch[i] */\n      dup2\n      mload\n      dup2\n      lt\n      tag_588\n      jumpi\n      invalid\n    tag_588:\n      0x20\n      mul\n      0x20\n      add\n      add\n      mload\n        /* \"StakeManager.sol\":16638:16693  uint256 lowerCutoffLastEpoch = lowerCutoffsLastEpoch[i] */\n      swap1\n      pop\n        /* \"StakeManager.sol\":16711:16740  uint256 higherCutoffLastEpoch */\n      0x00\n        /* \"StakeManager.sol\":16743:16765  higherCutoffsLastEpoch */\n      dup7\n        /* \"StakeManager.sol\":16766:16767  i */\n      dup5\n        /* \"StakeManager.sol\":16743:16768  higherCutoffsLastEpoch[i] */\n      dup2\n      mload\n      dup2\n      lt\n      tag_589\n      jumpi\n      invalid\n    tag_589:\n      0x20\n      mul\n      0x20\n      add\n      add\n      mload\n        /* \"StakeManager.sol\":16711:16768  uint256 higherCutoffLastEpoch = higherCutoffsLastEpoch[i] */\n      swap1\n      pop\n        /* \"StakeManager.sol\":16786:16809  uint256 medianLastEpoch */\n      0x00\n        /* \"StakeManager.sol\":16812:16828  mediansLastEpoch */\n      dup7\n        /* \"StakeManager.sol\":16829:16830  i */\n      dup6\n        /* \"StakeManager.sol\":16812:16831  mediansLastEpoch[i] */\n      dup2\n      mload\n      dup2\n      lt\n      tag_590\n      jumpi\n      invalid\n    tag_590:\n      0x20\n      mul\n      0x20\n      add\n      add\n      mload\n        /* \"StakeManager.sol\":16786:16831  uint256 medianLastEpoch = mediansLastEpoch[i] */\n      swap1\n      pop\n        /* \"StakeManager.sol\":16872:16892  lowerCutoffLastEpoch */\n      dup3\n        /* \"StakeManager.sol\":16856:16869  voteLastEpoch */\n      dup5\n        /* \"StakeManager.sol\":16856:16892  voteLastEpoch < lowerCutoffLastEpoch */\n      lt\n        /* \"StakeManager.sol\":16855:16956  (voteLastEpoch < lowerCutoffLastEpoch) ||... */\n      dup1\n      tag_591\n      jumpi\n      pop\n        /* \"StakeManager.sol\":16934:16955  higherCutoffLastEpoch */\n      dup2\n        /* \"StakeManager.sol\":16918:16931  voteLastEpoch */\n      dup5\n        /* \"StakeManager.sol\":16918:16955  voteLastEpoch > higherCutoffLastEpoch */\n      gt\n        /* \"StakeManager.sol\":16855:16956  (voteLastEpoch < lowerCutoffLastEpoch) ||... */\n    tag_591:\n        /* \"StakeManager.sol\":16850:17283  if (((voteLastEpoch < lowerCutoffLastEpoch) ||... */\n      iszero\n      tag_592\n      jumpi\n        /* \"StakeManager.sol\":17232:17241  Constants */\n      linkerSymbol(\"e861534859442f2de25279a5ccd1626413b62699ca8b37407da3a6bf3bbbfee5\")\n        /* \"StakeManager.sol\":17232:17261  Constants.exposureDenominator */\n      0x3002c9ac\n        /* \"StakeManager.sol\":17232:17263  Constants.exposureDenominator() */\n      mload(0x40)\n      dup2\n      0xffffffff\n      and\n      0xe0\n      shl\n      dup2\n      mstore\n      0x04\n      add\n      0x20\n      mload(0x40)\n      dup1\n      dup4\n      sub\n      dup2\n      dup7\n      dup1\n      extcodesize\n      iszero\n      dup1\n      iszero\n      tag_593\n      jumpi\n      0x00\n      dup1\n      revert\n    tag_593:\n      pop\n      gas\n      delegatecall\n      iszero\n      dup1\n      iszero\n      tag_595\n      jumpi\n      returndatasize\n      0x00\n      dup1\n      returndatacopy\n      revert(0x00, returndatasize)\n    tag_595:\n      pop\n      pop\n      pop\n      pop\n      mload(0x40)\n      returndatasize\n      not(0x1f)\n      0x1f\n      dup3\n      add\n      and\n      dup3\n      add\n      dup1\n      0x40\n      mstore\n      pop\n      dup2\n      add\n      swap1\n      tag_596\n      swap2\n      swap1\n      tag_218\n      jump\t// in\n    tag_596:\n        /* \"StakeManager.sol\":17218:17231  previousStake */\n      dup13\n        /* \"StakeManager.sol\":17218:17263  previousStake/Constants.exposureDenominator() */\n      dup2\n      tag_597\n      jumpi\n      invalid\n    tag_597:\n      div\n        /* \"StakeManager.sol\":17207:17214  penalty */\n      dup7\n        /* \"StakeManager.sol\":17207:17264  penalty + (previousStake/Constants.exposureDenominator()) */\n      add\n        /* \"StakeManager.sol\":17197:17264  penalty = penalty + (previousStake/Constants.exposureDenominator()) */\n      swap6\n      pop\n        /* \"StakeManager.sol\":16850:17283  if (((voteLastEpoch < lowerCutoffLastEpoch) ||... */\n    tag_592:\n        /* \"StakeManager.sol\":16457:17297  for (uint256 i = 0; i < lowerCutoffsLastEpoch.length; i++) {... */\n      pop\n      pop\n      pop\n      pop\n        /* \"StakeManager.sol\":16511:16514  i++ */\n      dup1\n      dup1\n      0x01\n      add\n      swap2\n      pop\n      pop\n        /* \"StakeManager.sol\":16457:17297  for (uint256 i = 0; i < lowerCutoffsLastEpoch.length; i++) {... */\n      jump(tag_580)\n    tag_581:\n      pop\n        /* \"StakeManager.sol\":17325:17326  0 */\n      0x00\n        /* \"StakeManager.sol\":17315:17322  penalty */\n      dup2\n        /* \"StakeManager.sol\":17315:17326  penalty > 0 */\n      gt\n        /* \"StakeManager.sol\":17311:18033  if (penalty > 0) {... */\n      iszero\n      tag_598\n      jumpi\n        /* \"StakeManager.sol\":17367:17380  previousStake */\n      dup7\n        /* \"StakeManager.sol\":17357:17364  penalty */\n      dup2\n        /* \"StakeManager.sol\":17357:17380  penalty > previousStake */\n      gt\n        /* \"StakeManager.sol\":17356:17407  (penalty > previousStake) ? previousStake : penalty */\n      tag_599\n      jumpi\n        /* \"StakeManager.sol\":17400:17407  penalty */\n      dup1\n        /* \"StakeManager.sol\":17356:17407  (penalty > previousStake) ? previousStake : penalty */\n      jump(tag_600)\n    tag_599:\n        /* \"StakeManager.sol\":17384:17397  previousStake */\n      dup7\n        /* \"StakeManager.sol\":17356:17407  (penalty > previousStake) ? previousStake : penalty */\n    tag_600:\n        /* \"StakeManager.sol\":17346:17407  penalty = (penalty > previousStake) ? previousStake : penalty */\n      swap1\n      pop\n        /* \"StakeManager.sol\":17425:17510  _setStakerStake(thisStaker.id, (previousStake.sub(penalty)), \"Voting Penalty\", epoch) */\n      tag_601\n        /* \"StakeManager.sol\":17441:17451  thisStaker */\n      dup9\n        /* \"StakeManager.sol\":17441:17454  thisStaker.id */\n      0x00\n      add\n      sload\n        /* \"StakeManager.sol\":17457:17483  previousStake.sub(penalty) */\n      tag_602\n        /* \"StakeManager.sol\":17475:17482  penalty */\n      dup4\n        /* \"StakeManager.sol\":17457:17470  previousStake */\n      dup11\n        /* \"StakeManager.sol\":17457:17474  previousStake.sub */\n      tag_234\n      swap1\n        /* \"StakeManager.sol\":17457:17483  previousStake.sub(penalty) */\n      swap2\n      swap1\n      0xffffffff\n      and\n      jump\t// in\n    tag_602:\n        /* \"StakeManager.sol\":17425:17510  _setStakerStake(thisStaker.id, (previousStake.sub(penalty)), \"Voting Penalty\", epoch) */\n      mload(0x40)\n      dup1\n      0x40\n      add\n      0x40\n      mstore\n      dup1\n      0x0e\n      dup2\n      mstore\n      0x20\n      add\n      0x566f74696e672050656e616c7479000000000000000000000000000000000000\n      dup2\n      mstore\n      pop\n        /* \"StakeManager.sol\":17504:17509  epoch */\n      dup13\n        /* \"StakeManager.sol\":17425:17440  _setStakerStake */\n      tag_197\n        /* \"StakeManager.sol\":17425:17510  _setStakerStake(thisStaker.id, (previousStake.sub(penalty)), \"Voting Penalty\", epoch) */\n      jump\t// in\n    tag_601:\n        /* \"StakeManager.sol\":17528:17550  uint256 prevRewardPool */\n      0x00\n        /* \"StakeManager.sol\":17553:17563  rewardPool */\n      sload(0x04)\n        /* \"StakeManager.sol\":17528:17563  uint256 prevRewardPool = rewardPool */\n      swap1\n      pop\n        /* \"StakeManager.sol\":17594:17617  rewardPool.add(penalty) */\n      tag_603\n        /* \"StakeManager.sol\":17609:17616  penalty */\n      dup3\n        /* \"StakeManager.sol\":17594:17604  rewardPool */\n      sload(0x04)\n        /* \"StakeManager.sol\":17594:17608  rewardPool.add */\n      tag_282\n      swap1\n        /* \"StakeManager.sol\":17594:17617  rewardPool.add(penalty) */\n      swap2\n      swap1\n      0xffffffff\n      and\n      jump\t// in\n    tag_603:\n        /* \"StakeManager.sol\":17581:17591  rewardPool */\n      0x04\n        /* \"StakeManager.sol\":17581:17617  rewardPool = rewardPool.add(penalty) */\n      dup2\n      swap1\n      sstore\n      pop\n        /* \"StakeManager.sol\":17640:17696  RewardPoolChange(epoch, prevRewardPool, rewardPool, now) */\n      0xf7157643fd549e213a0105625da6b3bf58c86068ccb954a4449e18bf9427bff4\n        /* \"StakeManager.sol\":17657:17662  epoch */\n      dup11\n        /* \"StakeManager.sol\":17664:17678  prevRewardPool */\n      dup3\n        /* \"StakeManager.sol\":17680:17690  rewardPool */\n      sload(0x04)\n        /* \"StakeManager.sol\":17692:17695  now */\n      timestamp\n        /* \"StakeManager.sol\":17640:17696  RewardPoolChange(epoch, prevRewardPool, rewardPool, now) */\n      mload(0x40)\n      tag_604\n      swap5\n      swap4\n      swap3\n      swap2\n      swap1\n      tag_284\n      jump\t// in\n    tag_604:\n      mload(0x40)\n      dup1\n      swap2\n      sub\n      swap1\n      log1\n        /* \"StakeManager.sol\":17311:18033  if (penalty > 0) {... */\n      pop\n      jump(tag_605)\n    tag_598:\n        /* \"StakeManager.sol\":17777:17807  uint256 prevStakeGettingReward */\n      0x00\n        /* \"StakeManager.sol\":17810:17828  stakeGettingReward */\n      sload(0x05)\n        /* \"StakeManager.sol\":17777:17828  uint256 prevStakeGettingReward = stakeGettingReward */\n      swap1\n      pop\n        /* \"StakeManager.sol\":17867:17904  stakeGettingReward.add(previousStake) */\n      tag_606\n        /* \"StakeManager.sol\":17890:17903  previousStake */\n      dup9\n        /* \"StakeManager.sol\":17867:17885  stakeGettingReward */\n      sload(0x05)\n        /* \"StakeManager.sol\":17867:17889  stakeGettingReward.add */\n      tag_282\n      swap1\n        /* \"StakeManager.sol\":17867:17904  stakeGettingReward.add(previousStake) */\n      swap2\n      swap1\n      0xffffffff\n      and\n      jump\t// in\n    tag_606:\n        /* \"StakeManager.sol\":17846:17864  stakeGettingReward */\n      0x05\n        /* \"StakeManager.sol\":17846:17904  stakeGettingReward = stakeGettingReward.add(previousStake) */\n      dup2\n      swap1\n      sstore\n      pop\n        /* \"StakeManager.sol\":17938:18018  StakeGettingRewardChange(epoch, prevStakeGettingReward, stakeGettingReward, now) */\n      0xeee26d3c1e406e24904d3748e49da85096c92ac1a6ad38f3fe8a404f85212dd1\n        /* \"StakeManager.sol\":17963:17968  epoch */\n      dup11\n        /* \"StakeManager.sol\":17970:17992  prevStakeGettingReward */\n      dup3\n        /* \"StakeManager.sol\":17994:18012  stakeGettingReward */\n      sload(0x05)\n        /* \"StakeManager.sol\":18014:18017  now */\n      timestamp\n        /* \"StakeManager.sol\":17938:18018  StakeGettingRewardChange(epoch, prevStakeGettingReward, stakeGettingReward, now) */\n      mload(0x40)\n      tag_607\n      swap5\n      swap4\n      swap3\n      swap2\n      swap1\n      tag_284\n      jump\t// in\n    tag_607:\n      mload(0x40)\n      dup1\n      swap2\n      sub\n      swap1\n      log1\n        /* \"StakeManager.sol\":17311:18033  if (penalty > 0) {... */\n      pop\n    tag_605:\n        /* \"StakeManager.sol\":16372:18043  if (lowerCutoffsLastEpoch.length > 0) {... */\n      pop\n    tag_579:\n        /* \"StakeManager.sol\":15780:18049  function _givePenalties (uint256 stakerId, uint256 epoch) internal {... */\n      pop\n      pop\n      pop\n      pop\n      pop\n      pop\n      pop\n      pop\n      pop\n      jump\t// out\n        /* \"openzeppelin-solidity/contracts/GSN/Context.sol\":590:694   */\n    tag_347:\n        /* \"openzeppelin-solidity/contracts/GSN/Context.sol\":643:658   */\n      0x00\n        /* \"openzeppelin-solidity/contracts/GSN/Context.sol\":677:687   */\n      caller\n        /* \"openzeppelin-solidity/contracts/GSN/Context.sol\":670:687   */\n      swap1\n      pop\n        /* \"openzeppelin-solidity/contracts/GSN/Context.sol\":590:694   */\n      swap1\n      jump\t// out\n        /* \"openzeppelin-solidity/contracts/access/AccessControl.sol\":7015:7199   */\n    tag_352:\n        /* \"openzeppelin-solidity/contracts/access/AccessControl.sol\":7088:7121   */\n      tag_610\n        /* \"openzeppelin-solidity/contracts/access/AccessControl.sol\":7113:7120   */\n      dup2\n        /* \"openzeppelin-solidity/contracts/access/AccessControl.sol\":7088:7094   */\n      0x00\n        /* \"openzeppelin-solidity/contracts/access/AccessControl.sol\":7088:7100   */\n      dup1\n        /* \"openzeppelin-solidity/contracts/access/AccessControl.sol\":7095:7099   */\n      dup6\n        /* \"openzeppelin-solidity/contracts/access/AccessControl.sol\":7088:7100   */\n      dup2\n      mstore\n      0x20\n      add\n      swap1\n      dup2\n      mstore\n      0x20\n      add\n      0x00\n      keccak256\n        /* \"openzeppelin-solidity/contracts/access/AccessControl.sol\":7088:7108   */\n      0x00\n      add\n        /* \"openzeppelin-solidity/contracts/access/AccessControl.sol\":7088:7112   */\n      tag_186\n      swap1\n        /* \"openzeppelin-solidity/contracts/access/AccessControl.sol\":7088:7121   */\n      swap2\n      swap1\n      0xffffffff\n      and\n      jump\t// in\n    tag_610:\n        /* \"openzeppelin-solidity/contracts/access/AccessControl.sol\":7084:7193   */\n      iszero\n      tag_611\n      jumpi\n        /* \"openzeppelin-solidity/contracts/access/AccessControl.sol\":7169:7181   */\n      tag_612\n        /* \"openzeppelin-solidity/contracts/access/AccessControl.sol\":7169:7179   */\n      tag_347\n        /* \"openzeppelin-solidity/contracts/access/AccessControl.sol\":7169:7181   */\n      jump\t// in\n    tag_612:\n        /* \"openzeppelin-solidity/contracts/access/AccessControl.sol\":7142:7182   */\n      0xffffffffffffffffffffffffffffffffffffffff\n      and\n        /* \"openzeppelin-solidity/contracts/access/AccessControl.sol\":7160:7167   */\n      dup2\n        /* \"openzeppelin-solidity/contracts/access/AccessControl.sol\":7142:7182   */\n      0xffffffffffffffffffffffffffffffffffffffff\n      and\n        /* \"openzeppelin-solidity/contracts/access/AccessControl.sol\":7154:7158   */\n      dup4\n        /* \"openzeppelin-solidity/contracts/access/AccessControl.sol\":7142:7182   */\n      0x2f8788117e7eff1d82e926ec794901d17c78024a50270940304540a733656f0d\n      mload(0x40)\n      mload(0x40)\n      dup1\n      swap2\n      sub\n      swap1\n      log4\n        /* \"openzeppelin-solidity/contracts/access/AccessControl.sol\":7084:7193   */\n    tag_611:\n        /* \"openzeppelin-solidity/contracts/access/AccessControl.sol\":7015:7199   */\n      pop\n      pop\n      jump\t// out\n        /* \"openzeppelin-solidity/contracts/access/AccessControl.sol\":7205:7393   */\n    tag_359:\n        /* \"openzeppelin-solidity/contracts/access/AccessControl.sol\":7279:7315   */\n      tag_614\n        /* \"openzeppelin-solidity/contracts/access/AccessControl.sol\":7307:7314   */\n      dup2\n        /* \"openzeppelin-solidity/contracts/access/AccessControl.sol\":7279:7285   */\n      0x00\n        /* \"openzeppelin-solidity/contracts/access/AccessControl.sol\":7279:7291   */\n      dup1\n        /* \"openzeppelin-solidity/contracts/access/AccessControl.sol\":7286:7290   */\n      dup6\n        /* \"openzeppelin-solidity/contracts/access/AccessControl.sol\":7279:7291   */\n      dup2\n      mstore\n      0x20\n      add\n      swap1\n      dup2\n      mstore\n      0x20\n      add\n      0x00\n      keccak256\n        /* \"openzeppelin-solidity/contracts/access/AccessControl.sol\":7279:7299   */\n      0x00\n      add\n        /* \"openzeppelin-solidity/contracts/access/AccessControl.sol\":7279:7306   */\n      tag_615\n      swap1\n        /* \"openzeppelin-solidity/contracts/access/AccessControl.sol\":7279:7315   */\n      swap2\n      swap1\n      0xffffffff\n      and\n      jump\t// in\n    tag_614:\n        /* \"openzeppelin-solidity/contracts/access/AccessControl.sol\":7275:7387   */\n      iszero\n      tag_616\n      jumpi\n        /* \"openzeppelin-solidity/contracts/access/AccessControl.sol\":7363:7375   */\n      tag_617\n        /* \"openzeppelin-solidity/contracts/access/AccessControl.sol\":7363:7373   */\n      tag_347\n        /* \"openzeppelin-solidity/contracts/access/AccessControl.sol\":7363:7375   */\n      jump\t// in\n    tag_617:\n        /* \"openzeppelin-solidity/contracts/access/AccessControl.sol\":7336:7376   */\n      0xffffffffffffffffffffffffffffffffffffffff\n      and\n        /* \"openzeppelin-solidity/contracts/access/AccessControl.sol\":7354:7361   */\n      dup2\n        /* \"openzeppelin-solidity/contracts/access/AccessControl.sol\":7336:7376   */\n      0xffffffffffffffffffffffffffffffffffffffff\n      and\n        /* \"openzeppelin-solidity/contracts/access/AccessControl.sol\":7348:7352   */\n      dup4\n        /* \"openzeppelin-solidity/contracts/access/AccessControl.sol\":7336:7376   */\n      0xf6391f5c32d9c69d2a47ea670b442974b53935d1edc7fd64eb21e047a839171b\n      mload(0x40)\n      mload(0x40)\n      dup1\n      swap2\n      sub\n      swap1\n      log4\n        /* \"openzeppelin-solidity/contracts/access/AccessControl.sol\":7275:7387   */\n    tag_616:\n        /* \"openzeppelin-solidity/contracts/access/AccessControl.sol\":7205:7393   */\n      pop\n      pop\n      jump\t// out\n        /* \"openzeppelin-solidity/contracts/utils/EnumerableSet.sol\":6085:6232   */\n    tag_457:\n        /* \"openzeppelin-solidity/contracts/utils/EnumerableSet.sol\":6159:6166   */\n      0x00\n        /* \"openzeppelin-solidity/contracts/utils/EnumerableSet.sol\":6201:6223   */\n      tag_619\n        /* \"openzeppelin-solidity/contracts/utils/EnumerableSet.sol\":6205:6208   */\n      dup4\n        /* \"openzeppelin-solidity/contracts/utils/EnumerableSet.sol\":6205:6215   */\n      0x00\n      add\n        /* \"openzeppelin-solidity/contracts/utils/EnumerableSet.sol\":6217:6222   */\n      dup4\n        /* \"openzeppelin-solidity/contracts/utils/EnumerableSet.sol\":6201:6204   */\n      tag_620\n        /* \"openzeppelin-solidity/contracts/utils/EnumerableSet.sol\":6201:6223   */\n      jump\t// in\n    tag_619:\n        /* \"openzeppelin-solidity/contracts/utils/EnumerableSet.sol\":6193:6224   */\n      0x00\n      shr\n        /* \"openzeppelin-solidity/contracts/utils/EnumerableSet.sol\":6178:6225   */\n      swap1\n      pop\n        /* \"openzeppelin-solidity/contracts/utils/EnumerableSet.sol\":6085:6232   */\n      swap3\n      swap2\n      pop\n      pop\n      jump\t// out\n        /* \"openzeppelin-solidity/contracts/utils/EnumerableSet.sol\":5401:5557   */\n    tag_460:\n        /* \"openzeppelin-solidity/contracts/utils/EnumerableSet.sol\":5481:5485   */\n      0x00\n        /* \"openzeppelin-solidity/contracts/utils/EnumerableSet.sol\":5504:5550   */\n      tag_622\n        /* \"openzeppelin-solidity/contracts/utils/EnumerableSet.sol\":5514:5517   */\n      dup4\n        /* \"openzeppelin-solidity/contracts/utils/EnumerableSet.sol\":5514:5524   */\n      0x00\n      add\n        /* \"openzeppelin-solidity/contracts/utils/EnumerableSet.sol\":5542:5547   */\n      dup4\n        /* \"openzeppelin-solidity/contracts/utils/EnumerableSet.sol\":5534:5548   */\n      0xffffffffffffffffffffffffffffffffffffffff\n      and\n        /* \"openzeppelin-solidity/contracts/utils/EnumerableSet.sol\":5526:5549   */\n      0x00\n      shl\n        /* \"openzeppelin-solidity/contracts/utils/EnumerableSet.sol\":5504:5513   */\n      tag_623\n        /* \"openzeppelin-solidity/contracts/utils/EnumerableSet.sol\":5504:5550   */\n      jump\t// in\n    tag_622:\n        /* \"openzeppelin-solidity/contracts/utils/EnumerableSet.sol\":5497:5550   */\n      swap1\n      pop\n        /* \"openzeppelin-solidity/contracts/utils/EnumerableSet.sol\":5401:5557   */\n      swap3\n      swap2\n      pop\n      pop\n      jump\t// out\n        /* \"openzeppelin-solidity/contracts/utils/EnumerableSet.sol\":5638:5753   */\n    tag_475:\n        /* \"openzeppelin-solidity/contracts/utils/EnumerableSet.sol\":5701:5708   */\n      0x00\n        /* \"openzeppelin-solidity/contracts/utils/EnumerableSet.sol\":5727:5746   */\n      tag_625\n        /* \"openzeppelin-solidity/contracts/utils/EnumerableSet.sol\":5735:5738   */\n      dup3\n        /* \"openzeppelin-solidity/contracts/utils/EnumerableSet.sol\":5735:5745   */\n      0x00\n      add\n        /* \"openzeppelin-solidity/contracts/utils/EnumerableSet.sol\":5727:5734   */\n      tag_626\n        /* \"openzeppelin-solidity/contracts/utils/EnumerableSet.sol\":5727:5746   */\n      jump\t// in\n    tag_625:\n        /* \"openzeppelin-solidity/contracts/utils/EnumerableSet.sol\":5720:5746   */\n      swap1\n      pop\n        /* \"openzeppelin-solidity/contracts/utils/EnumerableSet.sol\":5638:5753   */\n      swap2\n      swap1\n      pop\n      jump\t// out\n        /* \"WriterRole.sol\":965:1087  function _addWriter(address account) internal {... */\n    tag_489:\n        /* \"WriterRole.sol\":1021:1045  grantRole(role, account) */\n      tag_628\n        /* \"WriterRole.sol\":313:332  keccak256(\"Writer\") */\n      mload(0x40)\n      tag_629\n      swap1\n      tag_244\n      jump\t// in\n    tag_629:\n      mload(0x40)\n      dup1\n      swap2\n      sub\n      swap1\n      keccak256\n        /* \"WriterRole.sol\":1037:1044  account */\n      dup3\n        /* \"WriterRole.sol\":1021:1030  grantRole */\n      tag_99\n        /* \"WriterRole.sol\":1021:1045  grantRole(role, account) */\n      jump\t// in\n    tag_628:\n        /* \"WriterRole.sol\":1072:1079  account */\n      dup1\n        /* \"WriterRole.sol\":1060:1080  WriterAdded(account) */\n      0xffffffffffffffffffffffffffffffffffffffff\n      and\n      0x6ff3aa2ea7b53070f6d9d07a445d338d89e8edef44250ffa8be19f53910d4a2e\n      mload(0x40)\n      mload(0x40)\n      dup1\n      swap2\n      sub\n      swap1\n      log2\n        /* \"WriterRole.sol\":965:1087  function _addWriter(address account) internal {... */\n      pop\n      jump\t// out\n        /* \"WriterRole.sol\":1097:1227  function _removeWriter(address account) internal {... */\n    tag_492:\n        /* \"WriterRole.sol\":1156:1183  renounceRole(role, account) */\n      tag_631\n        /* \"WriterRole.sol\":313:332  keccak256(\"Writer\") */\n      mload(0x40)\n      tag_632\n      swap1\n      tag_244\n      jump\t// in\n    tag_632:\n      mload(0x40)\n      dup1\n      swap2\n      sub\n      swap1\n      keccak256\n        /* \"WriterRole.sol\":1175:1182  account */\n      dup3\n        /* \"WriterRole.sol\":1156:1168  renounceRole */\n      tag_102\n        /* \"WriterRole.sol\":1156:1183  renounceRole(role, account) */\n      jump\t// in\n    tag_631:\n        /* \"WriterRole.sol\":1212:1219  account */\n      dup1\n        /* \"WriterRole.sol\":1198:1220  WriterRemoved(account) */\n      0xffffffffffffffffffffffffffffffffffffffff\n      and\n      0x86e5bbceda94081c32220d685f37cc4e3ea7bb0be2dfbf0cb703579505a5390e\n      mload(0x40)\n      mload(0x40)\n      dup1\n      swap2\n      sub\n      swap1\n      log2\n        /* \"WriterRole.sol\":1097:1227  function _removeWriter(address account) internal {... */\n      pop\n      jump\t// out\n        /* \"openzeppelin-solidity/contracts/utils/EnumerableSet.sol\":1611:2015   */\n    tag_548:\n        /* \"openzeppelin-solidity/contracts/utils/EnumerableSet.sol\":1674:1678   */\n      0x00\n        /* \"openzeppelin-solidity/contracts/utils/EnumerableSet.sol\":1695:1716   */\n      tag_634\n        /* \"openzeppelin-solidity/contracts/utils/EnumerableSet.sol\":1705:1708   */\n      dup4\n        /* \"openzeppelin-solidity/contracts/utils/EnumerableSet.sol\":1710:1715   */\n      dup4\n        /* \"openzeppelin-solidity/contracts/utils/EnumerableSet.sol\":1695:1704   */\n      tag_623\n        /* \"openzeppelin-solidity/contracts/utils/EnumerableSet.sol\":1695:1716   */\n      jump\t// in\n    tag_634:\n        /* \"openzeppelin-solidity/contracts/utils/EnumerableSet.sol\":1690:2009   */\n      tag_635\n      jumpi\n        /* \"openzeppelin-solidity/contracts/utils/EnumerableSet.sol\":1732:1735   */\n      dup3\n        /* \"openzeppelin-solidity/contracts/utils/EnumerableSet.sol\":1732:1743   */\n      0x00\n      add\n        /* \"openzeppelin-solidity/contracts/utils/EnumerableSet.sol\":1749:1754   */\n      dup3\n        /* \"openzeppelin-solidity/contracts/utils/EnumerableSet.sol\":1732:1755   */\n      swap1\n      dup1\n      0x01\n      dup2\n      sload\n      add\n      dup1\n      dup3\n      sstore\n      dup1\n      swap2\n      pop\n      pop\n      0x01\n      swap1\n      sub\n      swap1\n      0x00\n      mstore\n      keccak256(0x00, 0x20)\n      add\n      0x00\n      swap1\n      swap2\n      swap1\n      swap2\n      swap1\n      swap2\n      pop\n      sstore\n        /* \"openzeppelin-solidity/contracts/utils/EnumerableSet.sol\":1912:1915   */\n      dup3\n        /* \"openzeppelin-solidity/contracts/utils/EnumerableSet.sol\":1912:1923   */\n      0x00\n      add\n        /* \"openzeppelin-solidity/contracts/utils/EnumerableSet.sol\":1912:1930   */\n      dup1\n      sload\n      swap1\n      pop\n        /* \"openzeppelin-solidity/contracts/utils/EnumerableSet.sol\":1890:1893   */\n      dup4\n        /* \"openzeppelin-solidity/contracts/utils/EnumerableSet.sol\":1890:1902   */\n      0x01\n      add\n        /* \"openzeppelin-solidity/contracts/utils/EnumerableSet.sol\":1890:1909   */\n      0x00\n        /* \"openzeppelin-solidity/contracts/utils/EnumerableSet.sol\":1903:1908   */\n      dup5\n        /* \"openzeppelin-solidity/contracts/utils/EnumerableSet.sol\":1890:1909   */\n      dup2\n      mstore\n      0x20\n      add\n      swap1\n      dup2\n      mstore\n      0x20\n      add\n      0x00\n      keccak256\n        /* \"openzeppelin-solidity/contracts/utils/EnumerableSet.sol\":1890:1930   */\n      dup2\n      swap1\n      sstore\n      pop\n        /* \"openzeppelin-solidity/contracts/utils/EnumerableSet.sol\":1951:1955   */\n      0x01\n        /* \"openzeppelin-solidity/contracts/utils/EnumerableSet.sol\":1944:1955   */\n      swap1\n      pop\n      jump(tag_633)\n        /* \"openzeppelin-solidity/contracts/utils/EnumerableSet.sol\":1690:2009   */\n    tag_635:\n        /* \"openzeppelin-solidity/contracts/utils/EnumerableSet.sol\":1993:1998   */\n      0x00\n        /* \"openzeppelin-solidity/contracts/utils/EnumerableSet.sol\":1986:1998   */\n      swap1\n      pop\n        /* \"openzeppelin-solidity/contracts/utils/EnumerableSet.sol\":1611:2015   */\n    tag_633:\n      swap3\n      swap2\n      pop\n      pop\n      jump\t// out\n        /* \"openzeppelin-solidity/contracts/math/SafeMath.sol\":3713:3985   */\n    tag_551:\n        /* \"openzeppelin-solidity/contracts/math/SafeMath.sol\":3799:3806   */\n      0x00\n        /* \"openzeppelin-solidity/contracts/math/SafeMath.sol\":3830:3831   */\n      dup1\n        /* \"openzeppelin-solidity/contracts/math/SafeMath.sol\":3826:3827   */\n      dup4\n        /* \"openzeppelin-solidity/contracts/math/SafeMath.sol\":3826:3831   */\n      gt\n        /* \"openzeppelin-solidity/contracts/math/SafeMath.sol\":3833:3845   */\n      dup3\n        /* \"openzeppelin-solidity/contracts/math/SafeMath.sol\":3818:3846   */\n      swap1\n      tag_639\n      jumpi\n      mload(0x40)\n      0x08c379a000000000000000000000000000000000000000000000000000000000\n      dup2\n      mstore\n      0x04\n      add\n      tag_640\n      swap2\n      swap1\n      tag_641\n      jump\t// in\n    tag_640:\n      mload(0x40)\n      dup1\n      swap2\n      sub\n      swap1\n      revert\n    tag_639:\n      pop\n        /* \"openzeppelin-solidity/contracts/math/SafeMath.sol\":3856:3865   */\n      0x00\n        /* \"openzeppelin-solidity/contracts/math/SafeMath.sol\":3872:3873   */\n      dup4\n        /* \"openzeppelin-solidity/contracts/math/SafeMath.sol\":3868:3869   */\n      dup6\n        /* \"openzeppelin-solidity/contracts/math/SafeMath.sol\":3868:3873   */\n      dup2\n      tag_642\n      jumpi\n      invalid\n    tag_642:\n      div\n        /* \"openzeppelin-solidity/contracts/math/SafeMath.sol\":3856:3873   */\n      swap1\n      pop\n        /* \"openzeppelin-solidity/contracts/math/SafeMath.sol\":3977:3978   */\n      dup1\n        /* \"openzeppelin-solidity/contracts/math/SafeMath.sol\":3970:3978   */\n      swap2\n      pop\n      pop\n        /* \"openzeppelin-solidity/contracts/math/SafeMath.sol\":3713:3985   */\n      swap4\n      swap3\n      pop\n      pop\n      pop\n      jump\t// out\n        /* \"openzeppelin-solidity/contracts/math/SafeMath.sol\":1746:1933   */\n    tag_563:\n        /* \"openzeppelin-solidity/contracts/math/SafeMath.sol\":1832:1839   */\n      0x00\n        /* \"openzeppelin-solidity/contracts/math/SafeMath.sol\":1864:1865   */\n      dup4\n        /* \"openzeppelin-solidity/contracts/math/SafeMath.sol\":1859:1860   */\n      dup4\n        /* \"openzeppelin-solidity/contracts/math/SafeMath.sol\":1859:1865   */\n      gt\n      iszero\n        /* \"openzeppelin-solidity/contracts/math/SafeMath.sol\":1867:1879   */\n      dup3\n        /* \"openzeppelin-solidity/contracts/math/SafeMath.sol\":1851:1880   */\n      swap1\n      tag_644\n      jumpi\n      mload(0x40)\n      0x08c379a000000000000000000000000000000000000000000000000000000000\n      dup2\n      mstore\n      0x04\n      add\n      tag_645\n      swap2\n      swap1\n      tag_641\n      jump\t// in\n    tag_645:\n      mload(0x40)\n      dup1\n      swap2\n      sub\n      swap1\n      revert\n    tag_644:\n      pop\n        /* \"openzeppelin-solidity/contracts/math/SafeMath.sol\":1890:1899   */\n      0x00\n        /* \"openzeppelin-solidity/contracts/math/SafeMath.sol\":1906:1907   */\n      dup4\n        /* \"openzeppelin-solidity/contracts/math/SafeMath.sol\":1902:1903   */\n      dup6\n        /* \"openzeppelin-solidity/contracts/math/SafeMath.sol\":1902:1907   */\n      sub\n        /* \"openzeppelin-solidity/contracts/math/SafeMath.sol\":1890:1907   */\n      swap1\n      pop\n        /* \"openzeppelin-solidity/contracts/math/SafeMath.sol\":1925:1926   */\n      dup1\n        /* \"openzeppelin-solidity/contracts/math/SafeMath.sol\":1918:1926   */\n      swap2\n      pop\n      pop\n        /* \"openzeppelin-solidity/contracts/math/SafeMath.sol\":1746:1933   */\n      swap4\n      swap3\n      pop\n      pop\n      pop\n      jump\t// out\n        /* \"StakeManager.sol\":14764:15775  function _giveInactivityPenalties(uint256 stakerId, uint256 epoch) internal {... */\n    tag_570:\n        /* \"StakeManager.sol\":14850:14882  Structs.Staker memory thisStaker */\n      tag_647\n      tag_494\n      jump\t// in\n    tag_647:\n        /* \"StakeManager.sol\":14885:14892  stakers */\n      0x02\n        /* \"StakeManager.sol\":14885:14902  stakers[stakerId] */\n      0x00\n        /* \"StakeManager.sol\":14893:14901  stakerId */\n      dup5\n        /* \"StakeManager.sol\":14885:14902  stakers[stakerId] */\n      dup2\n      mstore\n      0x20\n      add\n      swap1\n      dup2\n      mstore\n      0x20\n      add\n      0x00\n      keccak256\n        /* \"StakeManager.sol\":14850:14902  Structs.Staker memory thisStaker = stakers[stakerId] */\n      mload(0x40)\n      dup1\n      0x0100\n      add\n      0x40\n      mstore\n      swap1\n      dup2\n      0x00\n      dup3\n      add\n      sload\n      dup2\n      mstore\n      0x20\n      add\n      0x01\n      dup3\n      add\n      0x00\n      swap1\n      sload\n      swap1\n      0x0100\n      exp\n      swap1\n      div\n      0xffffffffffffffffffffffffffffffffffffffff\n      and\n      0xffffffffffffffffffffffffffffffffffffffff\n      and\n      0xffffffffffffffffffffffffffffffffffffffff\n      and\n      dup2\n      mstore\n      0x20\n      add\n      0x02\n      dup3\n      add\n      sload\n      dup2\n      mstore\n      0x20\n      add\n      0x03\n      dup3\n      add\n      sload\n      dup2\n      mstore\n      0x20\n      add\n      0x04\n      dup3\n      add\n      sload\n      dup2\n      mstore\n      0x20\n      add\n      0x05\n      dup3\n      add\n      sload\n      dup2\n      mstore\n      0x20\n      add\n      0x06\n      dup3\n      add\n      sload\n      dup2\n      mstore\n      0x20\n      add\n      0x07\n      dup3\n      add\n      sload\n      dup2\n      mstore\n      pop\n      pop\n      swap1\n      pop\n        /* \"StakeManager.sol\":14913:14936  uint256 epochLastActive */\n      0x00\n        /* \"StakeManager.sol\":14964:14974  thisStaker */\n      dup2\n        /* \"StakeManager.sol\":14964:14992  thisStaker.epochLastRevealed */\n      0xa0\n      add\n      mload\n        /* \"StakeManager.sol\":14939:14949  thisStaker */\n      dup3\n        /* \"StakeManager.sol\":14939:14961  thisStaker.epochStaked */\n      0x60\n      add\n      mload\n        /* \"StakeManager.sol\":14939:14992  thisStaker.epochStaked < thisStaker.epochLastRevealed */\n      lt\n        /* \"StakeManager.sol\":14939:15112  thisStaker.epochStaked < thisStaker.epochLastRevealed ?... */\n      tag_648\n      jumpi\n        /* \"StakeManager.sol\":15090:15100  thisStaker */\n      dup2\n        /* \"StakeManager.sol\":15090:15112  thisStaker.epochStaked */\n      0x60\n      add\n      mload\n        /* \"StakeManager.sol\":14939:15112  thisStaker.epochStaked < thisStaker.epochLastRevealed ?... */\n      jump(tag_649)\n    tag_648:\n        /* \"StakeManager.sol\":15027:15037  thisStaker */\n      dup2\n        /* \"StakeManager.sol\":15027:15055  thisStaker.epochLastRevealed */\n      0xa0\n      add\n      mload\n        /* \"StakeManager.sol\":14939:15112  thisStaker.epochStaked < thisStaker.epochLastRevealed ?... */\n    tag_649:\n        /* \"StakeManager.sol\":14913:15112  uint256 epochLastActive = thisStaker.epochStaked < thisStaker.epochLastRevealed ?... */\n      swap1\n      pop\n        /* \"StakeManager.sol\":15187:15209  uint256 penalizeEpochs */\n      0x00\n        /* \"StakeManager.sol\":15212:15238  epoch.sub(epochLastActive) */\n      tag_650\n        /* \"StakeManager.sol\":15222:15237  epochLastActive */\n      dup3\n        /* \"StakeManager.sol\":15212:15217  epoch */\n      dup6\n        /* \"StakeManager.sol\":15212:15221  epoch.sub */\n      tag_234\n      swap1\n        /* \"StakeManager.sol\":15212:15238  epoch.sub(epochLastActive) */\n      swap2\n      swap1\n      0xffffffff\n      and\n      jump\t// in\n    tag_650:\n        /* \"StakeManager.sol\":15187:15238  uint256 penalizeEpochs = epoch.sub(epochLastActive) */\n      swap1\n      pop\n        /* \"StakeManager.sol\":15248:15269  uint256 previousStake */\n      0x00\n        /* \"StakeManager.sol\":15272:15282  thisStaker */\n      dup4\n        /* \"StakeManager.sol\":15272:15288  thisStaker.stake */\n      0x40\n      add\n      mload\n        /* \"StakeManager.sol\":15248:15288  uint256 previousStake = thisStaker.stake */\n      swap1\n      pop\n        /* \"StakeManager.sol\":15347:15367  uint256 currentStake */\n      0x00\n        /* \"StakeManager.sol\":15370:15429  calculateInactivityPenalties(penalizeEpochs, previousStake) */\n      tag_651\n        /* \"StakeManager.sol\":15399:15413  penalizeEpochs */\n      dup4\n        /* \"StakeManager.sol\":15415:15428  previousStake */\n      dup4\n        /* \"StakeManager.sol\":15370:15398  calculateInactivityPenalties */\n      tag_66\n        /* \"StakeManager.sol\":15370:15429  calculateInactivityPenalties(penalizeEpochs, previousStake) */\n      jump\t// in\n    tag_651:\n        /* \"StakeManager.sol\":15347:15429  uint256 currentStake = calculateInactivityPenalties(penalizeEpochs, previousStake) */\n      swap1\n      pop\n        /* \"StakeManager.sol\":15458:15471  previousStake */\n      dup2\n        /* \"StakeManager.sol\":15443:15455  currentStake */\n      dup2\n        /* \"StakeManager.sol\":15443:15471  currentStake < previousStake */\n      lt\n        /* \"StakeManager.sol\":15439:15769  if (currentStake < previousStake) {... */\n      iszero\n      tag_652\n      jumpi\n        /* \"StakeManager.sol\":15487:15560  _setStakerStake(thisStaker.id, currentStake, \"Inactivity Penalty\", epoch) */\n      tag_653\n        /* \"StakeManager.sol\":15503:15513  thisStaker */\n      dup6\n        /* \"StakeManager.sol\":15503:15516  thisStaker.id */\n      0x00\n      add\n      mload\n        /* \"StakeManager.sol\":15518:15530  currentStake */\n      dup3\n        /* \"StakeManager.sol\":15487:15560  _setStakerStake(thisStaker.id, currentStake, \"Inactivity Penalty\", epoch) */\n      mload(0x40)\n      dup1\n      0x40\n      add\n      0x40\n      mstore\n      dup1\n      0x12\n      dup2\n      mstore\n      0x20\n      add\n      0x496e61637469766974792050656e616c74790000000000000000000000000000\n      dup2\n      mstore\n      pop\n        /* \"StakeManager.sol\":15554:15559  epoch */\n      dup10\n        /* \"StakeManager.sol\":15487:15502  _setStakerStake */\n      tag_197\n        /* \"StakeManager.sol\":15487:15560  _setStakerStake(thisStaker.id, currentStake, \"Inactivity Penalty\", epoch) */\n      jump\t// in\n    tag_653:\n        /* \"StakeManager.sol\":15574:15596  uint256 prevRewardPool */\n      0x00\n        /* \"StakeManager.sol\":15599:15609  rewardPool */\n      sload(0x04)\n        /* \"StakeManager.sol\":15574:15609  uint256 prevRewardPool = rewardPool */\n      swap1\n      pop\n        /* \"StakeManager.sol\":15636:15683  rewardPool.add(previousStake.sub(currentStake)) */\n      tag_654\n        /* \"StakeManager.sol\":15651:15682  previousStake.sub(currentStake) */\n      tag_655\n        /* \"StakeManager.sol\":15669:15681  currentStake */\n      dup4\n        /* \"StakeManager.sol\":15651:15664  previousStake */\n      dup6\n        /* \"StakeManager.sol\":15651:15668  previousStake.sub */\n      tag_234\n      swap1\n        /* \"StakeManager.sol\":15651:15682  previousStake.sub(currentStake) */\n      swap2\n      swap1\n      0xffffffff\n      and\n      jump\t// in\n    tag_655:\n        /* \"StakeManager.sol\":15636:15646  rewardPool */\n      sload(0x04)\n        /* \"StakeManager.sol\":15636:15650  rewardPool.add */\n      tag_282\n      swap1\n        /* \"StakeManager.sol\":15636:15683  rewardPool.add(previousStake.sub(currentStake)) */\n      swap2\n      swap1\n      0xffffffff\n      and\n      jump\t// in\n    tag_654:\n        /* \"StakeManager.sol\":15623:15633  rewardPool */\n      0x04\n        /* \"StakeManager.sol\":15623:15683  rewardPool = rewardPool.add(previousStake.sub(currentStake)) */\n      dup2\n      swap1\n      sstore\n      pop\n        /* \"StakeManager.sol\":15702:15758  RewardPoolChange(epoch, prevRewardPool, rewardPool, now) */\n      0xf7157643fd549e213a0105625da6b3bf58c86068ccb954a4449e18bf9427bff4\n        /* \"StakeManager.sol\":15719:15724  epoch */\n      dup8\n        /* \"StakeManager.sol\":15726:15740  prevRewardPool */\n      dup3\n        /* \"StakeManager.sol\":15742:15752  rewardPool */\n      sload(0x04)\n        /* \"StakeManager.sol\":15754:15757  now */\n      timestamp\n        /* \"StakeManager.sol\":15702:15758  RewardPoolChange(epoch, prevRewardPool, rewardPool, now) */\n      mload(0x40)\n      tag_656\n      swap5\n      swap4\n      swap3\n      swap2\n      swap1\n      tag_284\n      jump\t// in\n    tag_656:\n      mload(0x40)\n      dup1\n      swap2\n      sub\n      swap1\n      log1\n        /* \"StakeManager.sol\":15439:15769  if (currentStake < previousStake) {... */\n      pop\n    tag_652:\n        /* \"StakeManager.sol\":14764:15775  function _giveInactivityPenalties(uint256 stakerId, uint256 epoch) internal {... */\n      pop\n      pop\n      pop\n      pop\n      pop\n      pop\n      pop\n      jump\t// out\n        /* \"openzeppelin-solidity/contracts/utils/EnumerableSet.sol\":5173:5320   */\n    tag_615:\n        /* \"openzeppelin-solidity/contracts/utils/EnumerableSet.sol\":5246:5250   */\n      0x00\n        /* \"openzeppelin-solidity/contracts/utils/EnumerableSet.sol\":5269:5313   */\n      tag_658\n        /* \"openzeppelin-solidity/contracts/utils/EnumerableSet.sol\":5277:5280   */\n      dup4\n        /* \"openzeppelin-solidity/contracts/utils/EnumerableSet.sol\":5277:5287   */\n      0x00\n      add\n        /* \"openzeppelin-solidity/contracts/utils/EnumerableSet.sol\":5305:5310   */\n      dup4\n        /* \"openzeppelin-solidity/contracts/utils/EnumerableSet.sol\":5297:5311   */\n      0xffffffffffffffffffffffffffffffffffffffff\n      and\n        /* \"openzeppelin-solidity/contracts/utils/EnumerableSet.sol\":5289:5312   */\n      0x00\n      shl\n        /* \"openzeppelin-solidity/contracts/utils/EnumerableSet.sol\":5269:5276   */\n      tag_659\n        /* \"openzeppelin-solidity/contracts/utils/EnumerableSet.sol\":5269:5313   */\n      jump\t// in\n    tag_658:\n        /* \"openzeppelin-solidity/contracts/utils/EnumerableSet.sol\":5262:5313   */\n      swap1\n      pop\n        /* \"openzeppelin-solidity/contracts/utils/EnumerableSet.sol\":5173:5320   */\n      swap3\n      swap2\n      pop\n      pop\n      jump\t// out\n        /* \"openzeppelin-solidity/contracts/utils/EnumerableSet.sol\":4423:4624   */\n    tag_620:\n        /* \"openzeppelin-solidity/contracts/utils/EnumerableSet.sol\":4490:4497   */\n      0x00\n        /* \"openzeppelin-solidity/contracts/utils/EnumerableSet.sol\":4538:4543   */\n      dup2\n        /* \"openzeppelin-solidity/contracts/utils/EnumerableSet.sol\":4517:4520   */\n      dup4\n        /* \"openzeppelin-solidity/contracts/utils/EnumerableSet.sol\":4517:4528   */\n      0x00\n      add\n        /* \"openzeppelin-solidity/contracts/utils/EnumerableSet.sol\":4517:4535   */\n      dup1\n      sload\n      swap1\n      pop\n        /* \"openzeppelin-solidity/contracts/utils/EnumerableSet.sol\":4517:4543   */\n      gt\n        /* \"openzeppelin-solidity/contracts/utils/EnumerableSet.sol\":4509:4582   */\n      tag_661\n      jumpi\n      mload(0x40)\n      0x08c379a000000000000000000000000000000000000000000000000000000000\n      dup2\n      mstore\n      0x04\n      add\n      tag_662\n      swap1\n      tag_663\n      jump\t// in\n    tag_662:\n      mload(0x40)\n      dup1\n      swap2\n      sub\n      swap1\n      revert\n    tag_661:\n        /* \"openzeppelin-solidity/contracts/utils/EnumerableSet.sol\":4599:4602   */\n      dup3\n        /* \"openzeppelin-solidity/contracts/utils/EnumerableSet.sol\":4599:4610   */\n      0x00\n      add\n        /* \"openzeppelin-solidity/contracts/utils/EnumerableSet.sol\":4611:4616   */\n      dup3\n        /* \"openzeppelin-solidity/contracts/utils/EnumerableSet.sol\":4599:4617   */\n      dup2\n      sload\n      dup2\n      lt\n      tag_664\n      jumpi\n      invalid\n    tag_664:\n      swap1\n      0x00\n      mstore\n      keccak256(0x00, 0x20)\n      add\n      sload\n        /* \"openzeppelin-solidity/contracts/utils/EnumerableSet.sol\":4592:4617   */\n      swap1\n      pop\n        /* \"openzeppelin-solidity/contracts/utils/EnumerableSet.sol\":4423:4624   */\n      swap3\n      swap2\n      pop\n      pop\n      jump\t// out\n        /* \"openzeppelin-solidity/contracts/utils/EnumerableSet.sol\":3776:3903   */\n    tag_623:\n        /* \"openzeppelin-solidity/contracts/utils/EnumerableSet.sol\":3849:3853   */\n      0x00\n        /* \"openzeppelin-solidity/contracts/utils/EnumerableSet.sol\":3895:3896   */\n      dup1\n        /* \"openzeppelin-solidity/contracts/utils/EnumerableSet.sol\":3872:3875   */\n      dup4\n        /* \"openzeppelin-solidity/contracts/utils/EnumerableSet.sol\":3872:3884   */\n      0x01\n      add\n        /* \"openzeppelin-solidity/contracts/utils/EnumerableSet.sol\":3872:3891   */\n      0x00\n        /* \"openzeppelin-solidity/contracts/utils/EnumerableSet.sol\":3885:3890   */\n      dup5\n        /* \"openzeppelin-solidity/contracts/utils/EnumerableSet.sol\":3872:3891   */\n      dup2\n      mstore\n      0x20\n      add\n      swap1\n      dup2\n      mstore\n      0x20\n      add\n      0x00\n      keccak256\n      sload\n        /* \"openzeppelin-solidity/contracts/utils/EnumerableSet.sol\":3872:3896   */\n      eq\n      iszero\n        /* \"openzeppelin-solidity/contracts/utils/EnumerableSet.sol\":3865:3896   */\n      swap1\n      pop\n        /* \"openzeppelin-solidity/contracts/utils/EnumerableSet.sol\":3776:3903   */\n      swap3\n      swap2\n      pop\n      pop\n      jump\t// out\n        /* \"openzeppelin-solidity/contracts/utils/EnumerableSet.sol\":3984:4091   */\n    tag_626:\n        /* \"openzeppelin-solidity/contracts/utils/EnumerableSet.sol\":4040:4047   */\n      0x00\n        /* \"openzeppelin-solidity/contracts/utils/EnumerableSet.sol\":4066:4069   */\n      dup2\n        /* \"openzeppelin-solidity/contracts/utils/EnumerableSet.sol\":4066:4077   */\n      0x00\n      add\n        /* \"openzeppelin-solidity/contracts/utils/EnumerableSet.sol\":4066:4084   */\n      dup1\n      sload\n      swap1\n      pop\n        /* \"openzeppelin-solidity/contracts/utils/EnumerableSet.sol\":4059:4084   */\n      swap1\n      pop\n        /* \"openzeppelin-solidity/contracts/utils/EnumerableSet.sol\":3984:4091   */\n      swap2\n      swap1\n      pop\n      jump\t// out\n        /* \"openzeppelin-solidity/contracts/utils/EnumerableSet.sol\":2183:3695   */\n    tag_659:\n        /* \"openzeppelin-solidity/contracts/utils/EnumerableSet.sol\":2249:2253   */\n      0x00\n        /* \"openzeppelin-solidity/contracts/utils/EnumerableSet.sol\":2365:2383   */\n      dup1\n        /* \"openzeppelin-solidity/contracts/utils/EnumerableSet.sol\":2386:2389   */\n      dup4\n        /* \"openzeppelin-solidity/contracts/utils/EnumerableSet.sol\":2386:2398   */\n      0x01\n      add\n        /* \"openzeppelin-solidity/contracts/utils/EnumerableSet.sol\":2386:2405   */\n      0x00\n        /* \"openzeppelin-solidity/contracts/utils/EnumerableSet.sol\":2399:2404   */\n      dup5\n        /* \"openzeppelin-solidity/contracts/utils/EnumerableSet.sol\":2386:2405   */\n      dup2\n      mstore\n      0x20\n      add\n      swap1\n      dup2\n      mstore\n      0x20\n      add\n      0x00\n      keccak256\n      sload\n        /* \"openzeppelin-solidity/contracts/utils/EnumerableSet.sol\":2365:2405   */\n      swap1\n      pop\n        /* \"openzeppelin-solidity/contracts/utils/EnumerableSet.sol\":2434:2435   */\n      0x00\n        /* \"openzeppelin-solidity/contracts/utils/EnumerableSet.sol\":2420:2430   */\n      dup2\n        /* \"openzeppelin-solidity/contracts/utils/EnumerableSet.sol\":2420:2435   */\n      eq\n        /* \"openzeppelin-solidity/contracts/utils/EnumerableSet.sol\":2416:3689   */\n      tag_669\n      jumpi\n        /* \"openzeppelin-solidity/contracts/utils/EnumerableSet.sol\":2777:2798   */\n      0x00\n        /* \"openzeppelin-solidity/contracts/utils/EnumerableSet.sol\":2814:2815   */\n      0x01\n        /* \"openzeppelin-solidity/contracts/utils/EnumerableSet.sol\":2801:2811   */\n      dup3\n        /* \"openzeppelin-solidity/contracts/utils/EnumerableSet.sol\":2801:2815   */\n      sub\n        /* \"openzeppelin-solidity/contracts/utils/EnumerableSet.sol\":2777:2815   */\n      swap1\n      pop\n        /* \"openzeppelin-solidity/contracts/utils/EnumerableSet.sol\":2829:2846   */\n      0x00\n        /* \"openzeppelin-solidity/contracts/utils/EnumerableSet.sol\":2870:2871   */\n      0x01\n        /* \"openzeppelin-solidity/contracts/utils/EnumerableSet.sol\":2849:2852   */\n      dup7\n        /* \"openzeppelin-solidity/contracts/utils/EnumerableSet.sol\":2849:2860   */\n      0x00\n      add\n        /* \"openzeppelin-solidity/contracts/utils/EnumerableSet.sol\":2849:2867   */\n      dup1\n      sload\n      swap1\n      pop\n        /* \"openzeppelin-solidity/contracts/utils/EnumerableSet.sol\":2849:2871   */\n      sub\n        /* \"openzeppelin-solidity/contracts/utils/EnumerableSet.sol\":2829:2871   */\n      swap1\n      pop\n        /* \"openzeppelin-solidity/contracts/utils/EnumerableSet.sol\":3111:3128   */\n      0x00\n        /* \"openzeppelin-solidity/contracts/utils/EnumerableSet.sol\":3131:3134   */\n      dup7\n        /* \"openzeppelin-solidity/contracts/utils/EnumerableSet.sol\":3131:3142   */\n      0x00\n      add\n        /* \"openzeppelin-solidity/contracts/utils/EnumerableSet.sol\":3143:3152   */\n      dup3\n        /* \"openzeppelin-solidity/contracts/utils/EnumerableSet.sol\":3131:3153   */\n      dup2\n      sload\n      dup2\n      lt\n      tag_670\n      jumpi\n      invalid\n    tag_670:\n      swap1\n      0x00\n      mstore\n      keccak256(0x00, 0x20)\n      add\n      sload\n        /* \"openzeppelin-solidity/contracts/utils/EnumerableSet.sol\":3111:3153   */\n      swap1\n      pop\n        /* \"openzeppelin-solidity/contracts/utils/EnumerableSet.sol\":3274:3283   */\n      dup1\n        /* \"openzeppelin-solidity/contracts/utils/EnumerableSet.sol\":3245:3248   */\n      dup8\n        /* \"openzeppelin-solidity/contracts/utils/EnumerableSet.sol\":3245:3256   */\n      0x00\n      add\n        /* \"openzeppelin-solidity/contracts/utils/EnumerableSet.sol\":3257:3270   */\n      dup5\n        /* \"openzeppelin-solidity/contracts/utils/EnumerableSet.sol\":3245:3271   */\n      dup2\n      sload\n      dup2\n      lt\n      tag_672\n      jumpi\n      invalid\n    tag_672:\n      swap1\n      0x00\n      mstore\n      keccak256(0x00, 0x20)\n      add\n        /* \"openzeppelin-solidity/contracts/utils/EnumerableSet.sol\":3245:3283   */\n      dup2\n      swap1\n      sstore\n      pop\n        /* \"openzeppelin-solidity/contracts/utils/EnumerableSet.sol\":3391:3392   */\n      0x01\n        /* \"openzeppelin-solidity/contracts/utils/EnumerableSet.sol\":3375:3388   */\n      dup4\n        /* \"openzeppelin-solidity/contracts/utils/EnumerableSet.sol\":3375:3392   */\n      add\n        /* \"openzeppelin-solidity/contracts/utils/EnumerableSet.sol\":3349:3352   */\n      dup8\n        /* \"openzeppelin-solidity/contracts/utils/EnumerableSet.sol\":3349:3361   */\n      0x01\n      add\n        /* \"openzeppelin-solidity/contracts/utils/EnumerableSet.sol\":3349:3372   */\n      0x00\n        /* \"openzeppelin-solidity/contracts/utils/EnumerableSet.sol\":3362:3371   */\n      dup4\n        /* \"openzeppelin-solidity/contracts/utils/EnumerableSet.sol\":3349:3372   */\n      dup2\n      mstore\n      0x20\n      add\n      swap1\n      dup2\n      mstore\n      0x20\n      add\n      0x00\n      keccak256\n        /* \"openzeppelin-solidity/contracts/utils/EnumerableSet.sol\":3349:3392   */\n      dup2\n      swap1\n      sstore\n      pop\n        /* \"openzeppelin-solidity/contracts/utils/EnumerableSet.sol\":3498:3501   */\n      dup7\n        /* \"openzeppelin-solidity/contracts/utils/EnumerableSet.sol\":3498:3509   */\n      0x00\n      add\n        /* \"openzeppelin-solidity/contracts/utils/EnumerableSet.sol\":3498:3515   */\n      dup1\n      sload\n      dup1\n      tag_674\n      jumpi\n      invalid\n    tag_674:\n      0x01\n      swap1\n      sub\n      dup2\n      dup2\n      swap1\n      0x00\n      mstore\n      keccak256(0x00, 0x20)\n      add\n      0x00\n      swap1\n      sstore\n      swap1\n      sstore\n        /* \"openzeppelin-solidity/contracts/utils/EnumerableSet.sol\":3590:3593   */\n      dup7\n        /* \"openzeppelin-solidity/contracts/utils/EnumerableSet.sol\":3590:3602   */\n      0x01\n      add\n        /* \"openzeppelin-solidity/contracts/utils/EnumerableSet.sol\":3590:3609   */\n      0x00\n        /* \"openzeppelin-solidity/contracts/utils/EnumerableSet.sol\":3603:3608   */\n      dup8\n        /* \"openzeppelin-solidity/contracts/utils/EnumerableSet.sol\":3590:3609   */\n      dup2\n      mstore\n      0x20\n      add\n      swap1\n      dup2\n      mstore\n      0x20\n      add\n      0x00\n      keccak256\n        /* \"openzeppelin-solidity/contracts/utils/EnumerableSet.sol\":3583:3609   */\n      0x00\n      swap1\n      sstore\n        /* \"openzeppelin-solidity/contracts/utils/EnumerableSet.sol\":3631:3635   */\n      0x01\n        /* \"openzeppelin-solidity/contracts/utils/EnumerableSet.sol\":3624:3635   */\n      swap5\n      pop\n      pop\n      pop\n      pop\n      pop\n      jump(tag_668)\n        /* \"openzeppelin-solidity/contracts/utils/EnumerableSet.sol\":2416:3689   */\n    tag_669:\n        /* \"openzeppelin-solidity/contracts/utils/EnumerableSet.sol\":3673:3678   */\n      0x00\n        /* \"openzeppelin-solidity/contracts/utils/EnumerableSet.sol\":3666:3678   */\n      swap2\n      pop\n      pop\n        /* \"openzeppelin-solidity/contracts/utils/EnumerableSet.sol\":2183:3695   */\n    tag_668:\n      swap3\n      swap2\n      pop\n      pop\n      jump\t// out\n    tag_494:\n      mload(0x40)\n      dup1\n      0x0100\n      add\n      0x40\n      mstore\n      dup1\n      0x00\n      dup2\n      mstore\n      0x20\n      add\n      and(0xffffffffffffffffffffffffffffffffffffffff, 0x00)\n      dup2\n      mstore\n      0x20\n      add\n      0x00\n      dup2\n      mstore\n      0x20\n      add\n      0x00\n      dup2\n      mstore\n      0x20\n      add\n      0x00\n      dup2\n      mstore\n      0x20\n      add\n      0x00\n      dup2\n      mstore\n      0x20\n      add\n      0x00\n      dup2\n      mstore\n      0x20\n      add\n      0x00\n      dup2\n      mstore\n      pop\n      swap1\n      jump\t// out\n    tag_572:\n      mload(0x40)\n      dup1\n      0x0100\n      add\n      0x40\n      mstore\n      dup1\n      0x00\n      dup2\n      mstore\n      0x20\n      add\n      0x60\n      dup2\n      mstore\n      0x20\n      add\n      0x60\n      dup2\n      mstore\n      0x20\n      add\n      0x60\n      dup2\n      mstore\n      0x20\n      add\n      0x60\n      dup2\n      mstore\n      0x20\n      add\n      0x00\n      dup2\n      mstore\n      0x20\n      add\n      0x00\n      dup2\n      mstore\n      0x20\n      add\n      iszero(iszero(0x00))\n      dup2\n      mstore\n      pop\n      swap1\n      jump\t// out\n        /* \"--CODEGEN--\":5:135   */\n    tag_678:\n      0x00\n        /* \"--CODEGEN--\":85:91   */\n      dup2\n        /* \"--CODEGEN--\":72:92   */\n      calldataload\n        /* \"--CODEGEN--\":63:92   */\n      swap1\n      pop\n        /* \"--CODEGEN--\":97:130   */\n      tag_680\n        /* \"--CODEGEN--\":124:129   */\n      dup2\n        /* \"--CODEGEN--\":97:130   */\n      tag_681\n      jump\t// in\n    tag_680:\n        /* \"--CODEGEN--\":57:135   */\n      swap3\n      swap2\n      pop\n      pop\n      jump\t// out\n        /* \"--CODEGEN--\":160:882   */\n    tag_682:\n      0x00\n        /* \"--CODEGEN--\":288:291   */\n      dup3\n        /* \"--CODEGEN--\":281:285   */\n      0x1f\n        /* \"--CODEGEN--\":273:279   */\n      dup4\n        /* \"--CODEGEN--\":269:286   */\n      add\n        /* \"--CODEGEN--\":265:292   */\n      slt\n        /* \"--CODEGEN--\":255:257   */\n      tag_684\n      jumpi\n        /* \"--CODEGEN--\":306:307   */\n      0x00\n        /* \"--CODEGEN--\":303:304   */\n      dup1\n        /* \"--CODEGEN--\":296:308   */\n      revert\n        /* \"--CODEGEN--\":255:257   */\n    tag_684:\n        /* \"--CODEGEN--\":336:342   */\n      dup2\n        /* \"--CODEGEN--\":330:343   */\n      mload\n        /* \"--CODEGEN--\":358:438   */\n      tag_685\n        /* \"--CODEGEN--\":373:437   */\n      tag_686\n        /* \"--CODEGEN--\":430:436   */\n      dup3\n        /* \"--CODEGEN--\":373:437   */\n      tag_687\n      jump\t// in\n    tag_686:\n        /* \"--CODEGEN--\":358:438   */\n      tag_688\n      jump\t// in\n    tag_685:\n        /* \"--CODEGEN--\":349:438   */\n      swap2\n      pop\n        /* \"--CODEGEN--\":455:460   */\n      dup2\n        /* \"--CODEGEN--\":480:486   */\n      dup2\n        /* \"--CODEGEN--\":473:478   */\n      dup4\n        /* \"--CODEGEN--\":466:487   */\n      mstore\n        /* \"--CODEGEN--\":510:514   */\n      0x20\n        /* \"--CODEGEN--\":502:508   */\n      dup5\n        /* \"--CODEGEN--\":498:515   */\n      add\n        /* \"--CODEGEN--\":488:515   */\n      swap4\n      pop\n        /* \"--CODEGEN--\":532:536   */\n      0x20\n        /* \"--CODEGEN--\":527:530   */\n      dup2\n        /* \"--CODEGEN--\":523:537   */\n      add\n        /* \"--CODEGEN--\":516:537   */\n      swap1\n      pop\n        /* \"--CODEGEN--\":585:591   */\n      dup4\n        /* \"--CODEGEN--\":632:635   */\n      dup6\n        /* \"--CODEGEN--\":624:628   */\n      0x20\n        /* \"--CODEGEN--\":616:622   */\n      dup5\n        /* \"--CODEGEN--\":612:629   */\n      mul\n        /* \"--CODEGEN--\":607:610   */\n      dup3\n        /* \"--CODEGEN--\":603:630   */\n      add\n        /* \"--CODEGEN--\":600:636   */\n      gt\n        /* \"--CODEGEN--\":597:599   */\n      iszero\n      tag_689\n      jumpi\n        /* \"--CODEGEN--\":649:650   */\n      0x00\n        /* \"--CODEGEN--\":646:647   */\n      dup1\n        /* \"--CODEGEN--\":639:651   */\n      revert\n        /* \"--CODEGEN--\":597:599   */\n    tag_689:\n        /* \"--CODEGEN--\":674:675   */\n      0x00\n        /* \"--CODEGEN--\":659:876   */\n    tag_690:\n        /* \"--CODEGEN--\":684:690   */\n      dup4\n        /* \"--CODEGEN--\":681:682   */\n      dup2\n        /* \"--CODEGEN--\":678:691   */\n      lt\n        /* \"--CODEGEN--\":659:876   */\n      iszero\n      tag_692\n      jumpi\n        /* \"--CODEGEN--\":742:745   */\n      dup2\n        /* \"--CODEGEN--\":764:812   */\n      tag_693\n        /* \"--CODEGEN--\":808:811   */\n      dup9\n        /* \"--CODEGEN--\":796:806   */\n      dup3\n        /* \"--CODEGEN--\":764:812   */\n      tag_694\n      jump\t// in\n    tag_693:\n        /* \"--CODEGEN--\":759:762   */\n      dup5\n        /* \"--CODEGEN--\":752:813   */\n      mstore\n        /* \"--CODEGEN--\":836:840   */\n      0x20\n        /* \"--CODEGEN--\":831:834   */\n      dup5\n        /* \"--CODEGEN--\":827:841   */\n      add\n        /* \"--CODEGEN--\":820:841   */\n      swap4\n      pop\n        /* \"--CODEGEN--\":864:868   */\n      0x20\n        /* \"--CODEGEN--\":859:862   */\n      dup4\n        /* \"--CODEGEN--\":855:869   */\n      add\n        /* \"--CODEGEN--\":848:869   */\n      swap3\n      pop\n        /* \"--CODEGEN--\":716:876   */\n      pop\n        /* \"--CODEGEN--\":706:707   */\n      0x01\n        /* \"--CODEGEN--\":703:704   */\n      dup2\n        /* \"--CODEGEN--\":699:708   */\n      add\n        /* \"--CODEGEN--\":694:708   */\n      swap1\n      pop\n        /* \"--CODEGEN--\":659:876   */\n      jump(tag_690)\n    tag_692:\n        /* \"--CODEGEN--\":663:677   */\n      pop\n        /* \"--CODEGEN--\":248:882   */\n      pop\n      pop\n      pop\n      swap3\n      swap2\n      pop\n      pop\n      jump\t// out\n        /* \"--CODEGEN--\":890:1018   */\n    tag_695:\n      0x00\n        /* \"--CODEGEN--\":971:977   */\n      dup2\n        /* \"--CODEGEN--\":965:978   */\n      mload\n        /* \"--CODEGEN--\":956:978   */\n      swap1\n      pop\n        /* \"--CODEGEN--\":983:1013   */\n      tag_697\n        /* \"--CODEGEN--\":1007:1012   */\n      dup2\n        /* \"--CODEGEN--\":983:1013   */\n      tag_698\n      jump\t// in\n    tag_697:\n        /* \"--CODEGEN--\":950:1018   */\n      swap3\n      swap2\n      pop\n      pop\n      jump\t// out\n        /* \"--CODEGEN--\":1025:1155   */\n    tag_699:\n      0x00\n        /* \"--CODEGEN--\":1105:1111   */\n      dup2\n        /* \"--CODEGEN--\":1092:1112   */\n      calldataload\n        /* \"--CODEGEN--\":1083:1112   */\n      swap1\n      pop\n        /* \"--CODEGEN--\":1117:1150   */\n      tag_701\n        /* \"--CODEGEN--\":1144:1149   */\n      dup2\n        /* \"--CODEGEN--\":1117:1150   */\n      tag_702\n      jump\t// in\n    tag_701:\n        /* \"--CODEGEN--\":1077:1155   */\n      swap3\n      swap2\n      pop\n      pop\n      jump\t// out\n        /* \"--CODEGEN--\":1162:1296   */\n    tag_703:\n      0x00\n        /* \"--CODEGEN--\":1246:1252   */\n      dup2\n        /* \"--CODEGEN--\":1240:1253   */\n      mload\n        /* \"--CODEGEN--\":1231:1253   */\n      swap1\n      pop\n        /* \"--CODEGEN--\":1258:1291   */\n      tag_705\n        /* \"--CODEGEN--\":1285:1290   */\n      dup2\n        /* \"--CODEGEN--\":1258:1291   */\n      tag_702\n      jump\t// in\n    tag_705:\n        /* \"--CODEGEN--\":1225:1296   */\n      swap3\n      swap2\n      pop\n      pop\n      jump\t// out\n        /* \"--CODEGEN--\":1318:1655   */\n    tag_706:\n      0x00\n      dup1\n        /* \"--CODEGEN--\":1433:1436   */\n      dup4\n        /* \"--CODEGEN--\":1426:1430   */\n      0x1f\n        /* \"--CODEGEN--\":1418:1424   */\n      dup5\n        /* \"--CODEGEN--\":1414:1431   */\n      add\n        /* \"--CODEGEN--\":1410:1437   */\n      slt\n        /* \"--CODEGEN--\":1400:1402   */\n      tag_708\n      jumpi\n        /* \"--CODEGEN--\":1451:1452   */\n      0x00\n        /* \"--CODEGEN--\":1448:1449   */\n      dup1\n        /* \"--CODEGEN--\":1441:1453   */\n      revert\n        /* \"--CODEGEN--\":1400:1402   */\n    tag_708:\n        /* \"--CODEGEN--\":1484:1490   */\n      dup3\n        /* \"--CODEGEN--\":1471:1491   */\n      calldataload\n        /* \"--CODEGEN--\":1461:1491   */\n      swap1\n      pop\n        /* \"--CODEGEN--\":1511:1529   */\n      0xffffffffffffffff\n        /* \"--CODEGEN--\":1503:1509   */\n      dup2\n        /* \"--CODEGEN--\":1500:1530   */\n      gt\n        /* \"--CODEGEN--\":1497:1499   */\n      iszero\n      tag_709\n      jumpi\n        /* \"--CODEGEN--\":1543:1544   */\n      0x00\n        /* \"--CODEGEN--\":1540:1541   */\n      dup1\n        /* \"--CODEGEN--\":1533:1545   */\n      revert\n        /* \"--CODEGEN--\":1497:1499   */\n    tag_709:\n        /* \"--CODEGEN--\":1577:1581   */\n      0x20\n        /* \"--CODEGEN--\":1569:1575   */\n      dup4\n        /* \"--CODEGEN--\":1565:1582   */\n      add\n        /* \"--CODEGEN--\":1553:1582   */\n      swap2\n      pop\n        /* \"--CODEGEN--\":1628:1631   */\n      dup4\n        /* \"--CODEGEN--\":1620:1624   */\n      0x01\n        /* \"--CODEGEN--\":1612:1618   */\n      dup3\n        /* \"--CODEGEN--\":1608:1625   */\n      mul\n        /* \"--CODEGEN--\":1598:1606   */\n      dup4\n        /* \"--CODEGEN--\":1594:1626   */\n      add\n        /* \"--CODEGEN--\":1591:1632   */\n      gt\n        /* \"--CODEGEN--\":1588:1590   */\n      iszero\n      tag_710\n      jumpi\n        /* \"--CODEGEN--\":1645:1646   */\n      0x00\n        /* \"--CODEGEN--\":1642:1643   */\n      dup1\n        /* \"--CODEGEN--\":1635:1647   */\n      revert\n        /* \"--CODEGEN--\":1588:1590   */\n    tag_710:\n        /* \"--CODEGEN--\":1393:1655   */\n      swap3\n      pop\n      swap3\n      swap1\n      pop\n      jump\t// out\n        /* \"--CODEGEN--\":1690:3581   */\n    tag_711:\n      0x00\n        /* \"--CODEGEN--\":1813:1819   */\n      0x0100\n        /* \"--CODEGEN--\":1801:1810   */\n      dup3\n        /* \"--CODEGEN--\":1796:1799   */\n      dup5\n        /* \"--CODEGEN--\":1792:1811   */\n      sub\n        /* \"--CODEGEN--\":1788:1820   */\n      slt\n        /* \"--CODEGEN--\":1785:1787   */\n      iszero\n      tag_713\n      jumpi\n        /* \"--CODEGEN--\":1833:1834   */\n      0x00\n        /* \"--CODEGEN--\":1830:1831   */\n      dup1\n        /* \"--CODEGEN--\":1823:1835   */\n      revert\n        /* \"--CODEGEN--\":1785:1787   */\n    tag_713:\n        /* \"--CODEGEN--\":1851:1873   */\n      tag_714\n        /* \"--CODEGEN--\":1866:1872   */\n      0x0100\n        /* \"--CODEGEN--\":1851:1873   */\n      tag_688\n      jump\t// in\n    tag_714:\n        /* \"--CODEGEN--\":1842:1873   */\n      swap1\n      pop\n        /* \"--CODEGEN--\":1929:1930   */\n      0x00\n        /* \"--CODEGEN--\":1961:2021   */\n      tag_715\n        /* \"--CODEGEN--\":2017:2020   */\n      dup5\n        /* \"--CODEGEN--\":2008:2014   */\n      dup3\n        /* \"--CODEGEN--\":1997:2006   */\n      dup6\n        /* \"--CODEGEN--\":1993:2015   */\n      add\n        /* \"--CODEGEN--\":1961:2021   */\n      tag_694\n      jump\t// in\n    tag_715:\n        /* \"--CODEGEN--\":1954:1958   */\n      0x00\n        /* \"--CODEGEN--\":1947:1952   */\n      dup4\n        /* \"--CODEGEN--\":1943:1959   */\n      add\n        /* \"--CODEGEN--\":1936:2022   */\n      mstore\n        /* \"--CODEGEN--\":1883:2033   */\n      pop\n        /* \"--CODEGEN--\":2106:2108   */\n      0x20\n        /* \"--CODEGEN--\":2095:2104   */\n      dup3\n        /* \"--CODEGEN--\":2091:2109   */\n      add\n        /* \"--CODEGEN--\":2085:2110   */\n      mload\n        /* \"--CODEGEN--\":2130:2148   */\n      0xffffffffffffffff\n        /* \"--CODEGEN--\":2122:2128   */\n      dup2\n        /* \"--CODEGEN--\":2119:2149   */\n      gt\n        /* \"--CODEGEN--\":2116:2118   */\n      iszero\n      tag_716\n      jumpi\n        /* \"--CODEGEN--\":2162:2163   */\n      0x00\n        /* \"--CODEGEN--\":2159:2160   */\n      dup1\n        /* \"--CODEGEN--\":2152:2164   */\n      revert\n        /* \"--CODEGEN--\":2116:2118   */\n    tag_716:\n        /* \"--CODEGEN--\":2197:2282   */\n      tag_717\n        /* \"--CODEGEN--\":2278:2281   */\n      dup5\n        /* \"--CODEGEN--\":2269:2275   */\n      dup3\n        /* \"--CODEGEN--\":2258:2267   */\n      dup6\n        /* \"--CODEGEN--\":2254:2276   */\n      add\n        /* \"--CODEGEN--\":2197:2282   */\n      tag_682\n      jump\t// in\n    tag_717:\n        /* \"--CODEGEN--\":2190:2194   */\n      0x20\n        /* \"--CODEGEN--\":2183:2188   */\n      dup4\n        /* \"--CODEGEN--\":2179:2195   */\n      add\n        /* \"--CODEGEN--\":2172:2283   */\n      mstore\n        /* \"--CODEGEN--\":2043:2294   */\n      pop\n        /* \"--CODEGEN--\":2368:2370   */\n      0x40\n        /* \"--CODEGEN--\":2357:2366   */\n      dup3\n        /* \"--CODEGEN--\":2353:2371   */\n      add\n        /* \"--CODEGEN--\":2347:2372   */\n      mload\n        /* \"--CODEGEN--\":2392:2410   */\n      0xffffffffffffffff\n        /* \"--CODEGEN--\":2384:2390   */\n      dup2\n        /* \"--CODEGEN--\":2381:2411   */\n      gt\n        /* \"--CODEGEN--\":2378:2380   */\n      iszero\n      tag_718\n      jumpi\n        /* \"--CODEGEN--\":2424:2425   */\n      0x00\n        /* \"--CODEGEN--\":2421:2422   */\n      dup1\n        /* \"--CODEGEN--\":2414:2426   */\n      revert\n        /* \"--CODEGEN--\":2378:2380   */\n    tag_718:\n        /* \"--CODEGEN--\":2459:2544   */\n      tag_719\n        /* \"--CODEGEN--\":2540:2543   */\n      dup5\n        /* \"--CODEGEN--\":2531:2537   */\n      dup3\n        /* \"--CODEGEN--\":2520:2529   */\n      dup6\n        /* \"--CODEGEN--\":2516:2538   */\n      add\n        /* \"--CODEGEN--\":2459:2544   */\n      tag_682\n      jump\t// in\n    tag_719:\n        /* \"--CODEGEN--\":2452:2456   */\n      0x40\n        /* \"--CODEGEN--\":2445:2450   */\n      dup4\n        /* \"--CODEGEN--\":2441:2457   */\n      add\n        /* \"--CODEGEN--\":2434:2545   */\n      mstore\n        /* \"--CODEGEN--\":2304:2556   */\n      pop\n        /* \"--CODEGEN--\":2635:2637   */\n      0x60\n        /* \"--CODEGEN--\":2624:2633   */\n      dup3\n        /* \"--CODEGEN--\":2620:2638   */\n      add\n        /* \"--CODEGEN--\":2614:2639   */\n      mload\n        /* \"--CODEGEN--\":2659:2677   */\n      0xffffffffffffffff\n        /* \"--CODEGEN--\":2651:2657   */\n      dup2\n        /* \"--CODEGEN--\":2648:2678   */\n      gt\n        /* \"--CODEGEN--\":2645:2647   */\n      iszero\n      tag_720\n      jumpi\n        /* \"--CODEGEN--\":2691:2692   */\n      0x00\n        /* \"--CODEGEN--\":2688:2689   */\n      dup1\n        /* \"--CODEGEN--\":2681:2693   */\n      revert\n        /* \"--CODEGEN--\":2645:2647   */\n    tag_720:\n        /* \"--CODEGEN--\":2726:2811   */\n      tag_721\n        /* \"--CODEGEN--\":2807:2810   */\n      dup5\n        /* \"--CODEGEN--\":2798:2804   */\n      dup3\n        /* \"--CODEGEN--\":2787:2796   */\n      dup6\n        /* \"--CODEGEN--\":2783:2805   */\n      add\n        /* \"--CODEGEN--\":2726:2811   */\n      tag_682\n      jump\t// in\n    tag_721:\n        /* \"--CODEGEN--\":2719:2723   */\n      0x60\n        /* \"--CODEGEN--\":2712:2717   */\n      dup4\n        /* \"--CODEGEN--\":2708:2724   */\n      add\n        /* \"--CODEGEN--\":2701:2812   */\n      mstore\n        /* \"--CODEGEN--\":2566:2823   */\n      pop\n        /* \"--CODEGEN--\":2903:2906   */\n      0x80\n        /* \"--CODEGEN--\":2892:2901   */\n      dup3\n        /* \"--CODEGEN--\":2888:2907   */\n      add\n        /* \"--CODEGEN--\":2882:2908   */\n      mload\n        /* \"--CODEGEN--\":2928:2946   */\n      0xffffffffffffffff\n        /* \"--CODEGEN--\":2920:2926   */\n      dup2\n        /* \"--CODEGEN--\":2917:2947   */\n      gt\n        /* \"--CODEGEN--\":2914:2916   */\n      iszero\n      tag_722\n      jumpi\n        /* \"--CODEGEN--\":2960:2961   */\n      0x00\n        /* \"--CODEGEN--\":2957:2958   */\n      dup1\n        /* \"--CODEGEN--\":2950:2962   */\n      revert\n        /* \"--CODEGEN--\":2914:2916   */\n    tag_722:\n        /* \"--CODEGEN--\":2995:3080   */\n      tag_723\n        /* \"--CODEGEN--\":3076:3079   */\n      dup5\n        /* \"--CODEGEN--\":3067:3073   */\n      dup3\n        /* \"--CODEGEN--\":3056:3065   */\n      dup6\n        /* \"--CODEGEN--\":3052:3074   */\n      add\n        /* \"--CODEGEN--\":2995:3080   */\n      tag_682\n      jump\t// in\n    tag_723:\n        /* \"--CODEGEN--\":2988:2992   */\n      0x80\n        /* \"--CODEGEN--\":2981:2986   */\n      dup4\n        /* \"--CODEGEN--\":2977:2993   */\n      add\n        /* \"--CODEGEN--\":2970:3081   */\n      mstore\n        /* \"--CODEGEN--\":2833:3092   */\n      pop\n        /* \"--CODEGEN--\":3147:3150   */\n      0xa0\n        /* \"--CODEGEN--\":3181:3241   */\n      tag_724\n        /* \"--CODEGEN--\":3237:3240   */\n      dup5\n        /* \"--CODEGEN--\":3228:3234   */\n      dup3\n        /* \"--CODEGEN--\":3217:3226   */\n      dup6\n        /* \"--CODEGEN--\":3213:3235   */\n      add\n        /* \"--CODEGEN--\":3181:3241   */\n      tag_694\n      jump\t// in\n    tag_724:\n        /* \"--CODEGEN--\":3174:3178   */\n      0xa0\n        /* \"--CODEGEN--\":3167:3172   */\n      dup4\n        /* \"--CODEGEN--\":3163:3179   */\n      add\n        /* \"--CODEGEN--\":3156:3242   */\n      mstore\n        /* \"--CODEGEN--\":3102:3253   */\n      pop\n        /* \"--CODEGEN--\":3311:3314   */\n      0xc0\n        /* \"--CODEGEN--\":3345:3405   */\n      tag_725\n        /* \"--CODEGEN--\":3401:3404   */\n      dup5\n        /* \"--CODEGEN--\":3392:3398   */\n      dup3\n        /* \"--CODEGEN--\":3381:3390   */\n      dup6\n        /* \"--CODEGEN--\":3377:3399   */\n      add\n        /* \"--CODEGEN--\":3345:3405   */\n      tag_694\n      jump\t// in\n    tag_725:\n        /* \"--CODEGEN--\":3338:3342   */\n      0xc0\n        /* \"--CODEGEN--\":3331:3336   */\n      dup4\n        /* \"--CODEGEN--\":3327:3343   */\n      add\n        /* \"--CODEGEN--\":3320:3406   */\n      mstore\n        /* \"--CODEGEN--\":3263:3417   */\n      pop\n        /* \"--CODEGEN--\":3468:3471   */\n      0xe0\n        /* \"--CODEGEN--\":3502:3559   */\n      tag_726\n        /* \"--CODEGEN--\":3555:3558   */\n      dup5\n        /* \"--CODEGEN--\":3546:3552   */\n      dup3\n        /* \"--CODEGEN--\":3535:3544   */\n      dup6\n        /* \"--CODEGEN--\":3531:3553   */\n      add\n        /* \"--CODEGEN--\":3502:3559   */\n      tag_695\n      jump\t// in\n    tag_726:\n        /* \"--CODEGEN--\":3495:3499   */\n      0xe0\n        /* \"--CODEGEN--\":3488:3493   */\n      dup4\n        /* \"--CODEGEN--\":3484:3500   */\n      add\n        /* \"--CODEGEN--\":3477:3560   */\n      mstore\n        /* \"--CODEGEN--\":3427:3571   */\n      pop\n        /* \"--CODEGEN--\":1779:3581   */\n      swap3\n      swap2\n      pop\n      pop\n      jump\t// out\n        /* \"--CODEGEN--\":3614:4114   */\n    tag_727:\n      0x00\n        /* \"--CODEGEN--\":3736:3740   */\n      0x40\n        /* \"--CODEGEN--\":3724:3733   */\n      dup3\n        /* \"--CODEGEN--\":3719:3722   */\n      dup5\n        /* \"--CODEGEN--\":3715:3734   */\n      sub\n        /* \"--CODEGEN--\":3711:3741   */\n      slt\n        /* \"--CODEGEN--\":3708:3710   */\n      iszero\n      tag_729\n      jumpi\n        /* \"--CODEGEN--\":3754:3755   */\n      0x00\n        /* \"--CODEGEN--\":3751:3752   */\n      dup1\n        /* \"--CODEGEN--\":3744:3756   */\n      revert\n        /* \"--CODEGEN--\":3708:3710   */\n    tag_729:\n        /* \"--CODEGEN--\":3772:3792   */\n      tag_730\n        /* \"--CODEGEN--\":3787:3791   */\n      0x40\n        /* \"--CODEGEN--\":3772:3792   */\n      tag_688\n      jump\t// in\n    tag_730:\n        /* \"--CODEGEN--\":3763:3792   */\n      swap1\n      pop\n        /* \"--CODEGEN--\":3843:3844   */\n      0x00\n        /* \"--CODEGEN--\":3875:3935   */\n      tag_731\n        /* \"--CODEGEN--\":3931:3934   */\n      dup5\n        /* \"--CODEGEN--\":3922:3928   */\n      dup3\n        /* \"--CODEGEN--\":3911:3920   */\n      dup6\n        /* \"--CODEGEN--\":3907:3929   */\n      add\n        /* \"--CODEGEN--\":3875:3935   */\n      tag_694\n      jump\t// in\n    tag_731:\n        /* \"--CODEGEN--\":3868:3872   */\n      0x00\n        /* \"--CODEGEN--\":3861:3866   */\n      dup4\n        /* \"--CODEGEN--\":3857:3873   */\n      add\n        /* \"--CODEGEN--\":3850:3936   */\n      mstore\n        /* \"--CODEGEN--\":3802:3947   */\n      pop\n        /* \"--CODEGEN--\":3999:4001   */\n      0x20\n        /* \"--CODEGEN--\":4032:4092   */\n      tag_732\n        /* \"--CODEGEN--\":4088:4091   */\n      dup5\n        /* \"--CODEGEN--\":4079:4085   */\n      dup3\n        /* \"--CODEGEN--\":4068:4077   */\n      dup6\n        /* \"--CODEGEN--\":4064:4086   */\n      add\n        /* \"--CODEGEN--\":4032:4092   */\n      tag_694\n      jump\t// in\n    tag_732:\n        /* \"--CODEGEN--\":4025:4029   */\n      0x20\n        /* \"--CODEGEN--\":4018:4023   */\n      dup4\n        /* \"--CODEGEN--\":4014:4030   */\n      add\n        /* \"--CODEGEN--\":4007:4093   */\n      mstore\n        /* \"--CODEGEN--\":3957:4104   */\n      pop\n        /* \"--CODEGEN--\":3702:4114   */\n      swap3\n      swap2\n      pop\n      pop\n      jump\t// out\n        /* \"--CODEGEN--\":4121:4251   */\n    tag_733:\n      0x00\n        /* \"--CODEGEN--\":4201:4207   */\n      dup2\n        /* \"--CODEGEN--\":4188:4208   */\n      calldataload\n        /* \"--CODEGEN--\":4179:4208   */\n      swap1\n      pop\n        /* \"--CODEGEN--\":4213:4246   */\n      tag_735\n        /* \"--CODEGEN--\":4240:4245   */\n      dup2\n        /* \"--CODEGEN--\":4213:4246   */\n      tag_736\n      jump\t// in\n    tag_735:\n        /* \"--CODEGEN--\":4173:4251   */\n      swap3\n      swap2\n      pop\n      pop\n      jump\t// out\n        /* \"--CODEGEN--\":4258:4392   */\n    tag_694:\n      0x00\n        /* \"--CODEGEN--\":4342:4348   */\n      dup2\n        /* \"--CODEGEN--\":4336:4349   */\n      mload\n        /* \"--CODEGEN--\":4327:4349   */\n      swap1\n      pop\n        /* \"--CODEGEN--\":4354:4387   */\n      tag_738\n        /* \"--CODEGEN--\":4381:4386   */\n      dup2\n        /* \"--CODEGEN--\":4354:4387   */\n      tag_736\n      jump\t// in\n    tag_738:\n        /* \"--CODEGEN--\":4321:4392   */\n      swap3\n      swap2\n      pop\n      pop\n      jump\t// out\n        /* \"--CODEGEN--\":4399:4529   */\n    tag_739:\n      0x00\n        /* \"--CODEGEN--\":4481:4487   */\n      dup2\n        /* \"--CODEGEN--\":4475:4488   */\n      mload\n        /* \"--CODEGEN--\":4466:4488   */\n      swap1\n      pop\n        /* \"--CODEGEN--\":4493:4524   */\n      tag_741\n        /* \"--CODEGEN--\":4518:4523   */\n      dup2\n        /* \"--CODEGEN--\":4493:4524   */\n      tag_742\n      jump\t// in\n    tag_741:\n        /* \"--CODEGEN--\":4460:4529   */\n      swap3\n      swap2\n      pop\n      pop\n      jump\t// out\n        /* \"--CODEGEN--\":4536:4777   */\n    tag_82:\n      0x00\n        /* \"--CODEGEN--\":4640:4642   */\n      0x20\n        /* \"--CODEGEN--\":4628:4637   */\n      dup3\n        /* \"--CODEGEN--\":4619:4626   */\n      dup5\n        /* \"--CODEGEN--\":4615:4638   */\n      sub\n        /* \"--CODEGEN--\":4611:4643   */\n      slt\n        /* \"--CODEGEN--\":4608:4610   */\n      iszero\n      tag_744\n      jumpi\n        /* \"--CODEGEN--\":4656:4657   */\n      0x00\n        /* \"--CODEGEN--\":4653:4654   */\n      dup1\n        /* \"--CODEGEN--\":4646:4658   */\n      revert\n        /* \"--CODEGEN--\":4608:4610   */\n    tag_744:\n        /* \"--CODEGEN--\":4691:4692   */\n      0x00\n        /* \"--CODEGEN--\":4708:4761   */\n      tag_745\n        /* \"--CODEGEN--\":4753:4760   */\n      dup5\n        /* \"--CODEGEN--\":4744:4750   */\n      dup3\n        /* \"--CODEGEN--\":4733:4742   */\n      dup6\n        /* \"--CODEGEN--\":4729:4751   */\n      add\n        /* \"--CODEGEN--\":4708:4761   */\n      tag_678\n      jump\t// in\n    tag_745:\n        /* \"--CODEGEN--\":4698:4761   */\n      swap2\n      pop\n        /* \"--CODEGEN--\":4670:4767   */\n      pop\n        /* \"--CODEGEN--\":4602:4777   */\n      swap3\n      swap2\n      pop\n      pop\n      jump\t// out\n        /* \"--CODEGEN--\":4784:5401   */\n    tag_49:\n      0x00\n      dup1\n      0x00\n      dup1\n        /* \"--CODEGEN--\":4939:4942   */\n      0x80\n        /* \"--CODEGEN--\":4927:4936   */\n      dup6\n        /* \"--CODEGEN--\":4918:4925   */\n      dup8\n        /* \"--CODEGEN--\":4914:4937   */\n      sub\n        /* \"--CODEGEN--\":4910:4943   */\n      slt\n        /* \"--CODEGEN--\":4907:4909   */\n      iszero\n      tag_747\n      jumpi\n        /* \"--CODEGEN--\":4956:4957   */\n      0x00\n        /* \"--CODEGEN--\":4953:4954   */\n      dup1\n        /* \"--CODEGEN--\":4946:4958   */\n      revert\n        /* \"--CODEGEN--\":4907:4909   */\n    tag_747:\n        /* \"--CODEGEN--\":4991:4992   */\n      0x00\n        /* \"--CODEGEN--\":5008:5061   */\n      tag_748\n        /* \"--CODEGEN--\":5053:5060   */\n      dup8\n        /* \"--CODEGEN--\":5044:5050   */\n      dup3\n        /* \"--CODEGEN--\":5033:5042   */\n      dup9\n        /* \"--CODEGEN--\":5029:5051   */\n      add\n        /* \"--CODEGEN--\":5008:5061   */\n      tag_678\n      jump\t// in\n    tag_748:\n        /* \"--CODEGEN--\":4998:5061   */\n      swap5\n      pop\n        /* \"--CODEGEN--\":4970:5067   */\n      pop\n        /* \"--CODEGEN--\":5098:5100   */\n      0x20\n        /* \"--CODEGEN--\":5116:5169   */\n      tag_749\n        /* \"--CODEGEN--\":5161:5168   */\n      dup8\n        /* \"--CODEGEN--\":5152:5158   */\n      dup3\n        /* \"--CODEGEN--\":5141:5150   */\n      dup9\n        /* \"--CODEGEN--\":5137:5159   */\n      add\n        /* \"--CODEGEN--\":5116:5169   */\n      tag_678\n      jump\t// in\n    tag_749:\n        /* \"--CODEGEN--\":5106:5169   */\n      swap4\n      pop\n        /* \"--CODEGEN--\":5077:5175   */\n      pop\n        /* \"--CODEGEN--\":5206:5208   */\n      0x40\n        /* \"--CODEGEN--\":5224:5277   */\n      tag_750\n        /* \"--CODEGEN--\":5269:5276   */\n      dup8\n        /* \"--CODEGEN--\":5260:5266   */\n      dup3\n        /* \"--CODEGEN--\":5249:5258   */\n      dup9\n        /* \"--CODEGEN--\":5245:5267   */\n      add\n        /* \"--CODEGEN--\":5224:5277   */\n      tag_678\n      jump\t// in\n    tag_750:\n        /* \"--CODEGEN--\":5214:5277   */\n      swap3\n      pop\n        /* \"--CODEGEN--\":5185:5283   */\n      pop\n        /* \"--CODEGEN--\":5314:5316   */\n      0x60\n        /* \"--CODEGEN--\":5332:5385   */\n      tag_751\n        /* \"--CODEGEN--\":5377:5384   */\n      dup8\n        /* \"--CODEGEN--\":5368:5374   */\n      dup3\n        /* \"--CODEGEN--\":5357:5366   */\n      dup9\n        /* \"--CODEGEN--\":5353:5375   */\n      add\n        /* \"--CODEGEN--\":5332:5385   */\n      tag_678\n      jump\t// in\n    tag_751:\n        /* \"--CODEGEN--\":5322:5385   */\n      swap2\n      pop\n        /* \"--CODEGEN--\":5293:5391   */\n      pop\n        /* \"--CODEGEN--\":4901:5401   */\n      swap3\n      swap6\n      swap2\n      swap5\n      pop\n      swap3\n      pop\n      jump\t// out\n        /* \"--CODEGEN--\":5408:5800   */\n    tag_509:\n      0x00\n        /* \"--CODEGEN--\":5548:5550   */\n      0x20\n        /* \"--CODEGEN--\":5536:5545   */\n      dup3\n        /* \"--CODEGEN--\":5527:5534   */\n      dup5\n        /* \"--CODEGEN--\":5523:5546   */\n      sub\n        /* \"--CODEGEN--\":5519:5551   */\n      slt\n        /* \"--CODEGEN--\":5516:5518   */\n      iszero\n      tag_753\n      jumpi\n        /* \"--CODEGEN--\":5564:5565   */\n      0x00\n        /* \"--CODEGEN--\":5561:5562   */\n      dup1\n        /* \"--CODEGEN--\":5554:5566   */\n      revert\n        /* \"--CODEGEN--\":5516:5518   */\n    tag_753:\n        /* \"--CODEGEN--\":5620:5621   */\n      0x00\n        /* \"--CODEGEN--\":5609:5618   */\n      dup3\n        /* \"--CODEGEN--\":5605:5622   */\n      add\n        /* \"--CODEGEN--\":5599:5623   */\n      mload\n        /* \"--CODEGEN--\":5643:5661   */\n      0xffffffffffffffff\n        /* \"--CODEGEN--\":5635:5641   */\n      dup2\n        /* \"--CODEGEN--\":5632:5662   */\n      gt\n        /* \"--CODEGEN--\":5629:5631   */\n      iszero\n      tag_754\n      jumpi\n        /* \"--CODEGEN--\":5675:5676   */\n      0x00\n        /* \"--CODEGEN--\":5672:5673   */\n      dup1\n        /* \"--CODEGEN--\":5665:5677   */\n      revert\n        /* \"--CODEGEN--\":5629:5631   */\n    tag_754:\n        /* \"--CODEGEN--\":5695:5784   */\n      tag_755\n        /* \"--CODEGEN--\":5776:5783   */\n      dup5\n        /* \"--CODEGEN--\":5767:5773   */\n      dup3\n        /* \"--CODEGEN--\":5756:5765   */\n      dup6\n        /* \"--CODEGEN--\":5752:5774   */\n      add\n        /* \"--CODEGEN--\":5695:5784   */\n      tag_682\n      jump\t// in\n    tag_755:\n        /* \"--CODEGEN--\":5685:5784   */\n      swap2\n      pop\n        /* \"--CODEGEN--\":5578:5790   */\n      pop\n        /* \"--CODEGEN--\":5510:5800   */\n      swap3\n      swap2\n      pop\n      pop\n      jump\t// out\n        /* \"--CODEGEN--\":5807:6064   */\n    tag_205:\n      0x00\n        /* \"--CODEGEN--\":5919:5921   */\n      0x20\n        /* \"--CODEGEN--\":5907:5916   */\n      dup3\n        /* \"--CODEGEN--\":5898:5905   */\n      dup5\n        /* \"--CODEGEN--\":5894:5917   */\n      sub\n        /* \"--CODEGEN--\":5890:5922   */\n      slt\n        /* \"--CODEGEN--\":5887:5889   */\n      iszero\n      tag_757\n      jumpi\n        /* \"--CODEGEN--\":5935:5936   */\n      0x00\n        /* \"--CODEGEN--\":5932:5933   */\n      dup1\n        /* \"--CODEGEN--\":5925:5937   */\n      revert\n        /* \"--CODEGEN--\":5887:5889   */\n    tag_757:\n        /* \"--CODEGEN--\":5970:5971   */\n      0x00\n        /* \"--CODEGEN--\":5987:6048   */\n      tag_758\n        /* \"--CODEGEN--\":6040:6047   */\n      dup5\n        /* \"--CODEGEN--\":6031:6037   */\n      dup3\n        /* \"--CODEGEN--\":6020:6029   */\n      dup6\n        /* \"--CODEGEN--\":6016:6038   */\n      add\n        /* \"--CODEGEN--\":5987:6048   */\n      tag_695\n      jump\t// in\n    tag_758:\n        /* \"--CODEGEN--\":5977:6048   */\n      swap2\n      pop\n        /* \"--CODEGEN--\":5949:6054   */\n      pop\n        /* \"--CODEGEN--\":5881:6064   */\n      swap3\n      swap2\n      pop\n      pop\n      jump\t// out\n        /* \"--CODEGEN--\":6071:6312   */\n    tag_76:\n      0x00\n        /* \"--CODEGEN--\":6175:6177   */\n      0x20\n        /* \"--CODEGEN--\":6163:6172   */\n      dup3\n        /* \"--CODEGEN--\":6154:6161   */\n      dup5\n        /* \"--CODEGEN--\":6150:6173   */\n      sub\n        /* \"--CODEGEN--\":6146:6178   */\n      slt\n        /* \"--CODEGEN--\":6143:6145   */\n      iszero\n      tag_760\n      jumpi\n        /* \"--CODEGEN--\":6191:6192   */\n      0x00\n        /* \"--CODEGEN--\":6188:6189   */\n      dup1\n        /* \"--CODEGEN--\":6181:6193   */\n      revert\n        /* \"--CODEGEN--\":6143:6145   */\n    tag_760:\n        /* \"--CODEGEN--\":6226:6227   */\n      0x00\n        /* \"--CODEGEN--\":6243:6296   */\n      tag_761\n        /* \"--CODEGEN--\":6288:6295   */\n      dup5\n        /* \"--CODEGEN--\":6279:6285   */\n      dup3\n        /* \"--CODEGEN--\":6268:6277   */\n      dup6\n        /* \"--CODEGEN--\":6264:6286   */\n      add\n        /* \"--CODEGEN--\":6243:6296   */\n      tag_699\n      jump\t// in\n    tag_761:\n        /* \"--CODEGEN--\":6233:6296   */\n      swap2\n      pop\n        /* \"--CODEGEN--\":6205:6302   */\n      pop\n        /* \"--CODEGEN--\":6137:6312   */\n      swap3\n      swap2\n      pop\n      pop\n      jump\t// out\n        /* \"--CODEGEN--\":6319:6582   */\n    tag_324:\n      0x00\n        /* \"--CODEGEN--\":6434:6436   */\n      0x20\n        /* \"--CODEGEN--\":6422:6431   */\n      dup3\n        /* \"--CODEGEN--\":6413:6420   */\n      dup5\n        /* \"--CODEGEN--\":6409:6432   */\n      sub\n        /* \"--CODEGEN--\":6405:6437   */\n      slt\n        /* \"--CODEGEN--\":6402:6404   */\n      iszero\n      tag_763\n      jumpi\n        /* \"--CODEGEN--\":6450:6451   */\n      0x00\n        /* \"--CODEGEN--\":6447:6448   */\n      dup1\n        /* \"--CODEGEN--\":6440:6452   */\n      revert\n        /* \"--CODEGEN--\":6402:6404   */\n    tag_763:\n        /* \"--CODEGEN--\":6485:6486   */\n      0x00\n        /* \"--CODEGEN--\":6502:6566   */\n      tag_764\n        /* \"--CODEGEN--\":6558:6565   */\n      dup5\n        /* \"--CODEGEN--\":6549:6555   */\n      dup3\n        /* \"--CODEGEN--\":6538:6547   */\n      dup6\n        /* \"--CODEGEN--\":6534:6556   */\n      add\n        /* \"--CODEGEN--\":6502:6566   */\n      tag_703\n      jump\t// in\n    tag_764:\n        /* \"--CODEGEN--\":6492:6566   */\n      swap2\n      pop\n        /* \"--CODEGEN--\":6464:6572   */\n      pop\n        /* \"--CODEGEN--\":6396:6582   */\n      swap3\n      swap2\n      pop\n      pop\n      jump\t// out\n        /* \"--CODEGEN--\":6589:6955   */\n    tag_98:\n      0x00\n      dup1\n        /* \"--CODEGEN--\":6710:6712   */\n      0x40\n        /* \"--CODEGEN--\":6698:6707   */\n      dup4\n        /* \"--CODEGEN--\":6689:6696   */\n      dup6\n        /* \"--CODEGEN--\":6685:6708   */\n      sub\n        /* \"--CODEGEN--\":6681:6713   */\n      slt\n        /* \"--CODEGEN--\":6678:6680   */\n      iszero\n      tag_766\n      jumpi\n        /* \"--CODEGEN--\":6726:6727   */\n      0x00\n        /* \"--CODEGEN--\":6723:6724   */\n      dup1\n        /* \"--CODEGEN--\":6716:6728   */\n      revert\n        /* \"--CODEGEN--\":6678:6680   */\n    tag_766:\n        /* \"--CODEGEN--\":6761:6762   */\n      0x00\n        /* \"--CODEGEN--\":6778:6831   */\n      tag_767\n        /* \"--CODEGEN--\":6823:6830   */\n      dup6\n        /* \"--CODEGEN--\":6814:6820   */\n      dup3\n        /* \"--CODEGEN--\":6803:6812   */\n      dup7\n        /* \"--CODEGEN--\":6799:6821   */\n      add\n        /* \"--CODEGEN--\":6778:6831   */\n      tag_699\n      jump\t// in\n    tag_767:\n        /* \"--CODEGEN--\":6768:6831   */\n      swap3\n      pop\n        /* \"--CODEGEN--\":6740:6837   */\n      pop\n        /* \"--CODEGEN--\":6868:6870   */\n      0x20\n        /* \"--CODEGEN--\":6886:6939   */\n      tag_768\n        /* \"--CODEGEN--\":6931:6938   */\n      dup6\n        /* \"--CODEGEN--\":6922:6928   */\n      dup3\n        /* \"--CODEGEN--\":6911:6920   */\n      dup7\n        /* \"--CODEGEN--\":6907:6929   */\n      add\n        /* \"--CODEGEN--\":6886:6939   */\n      tag_678\n      jump\t// in\n    tag_768:\n        /* \"--CODEGEN--\":6876:6939   */\n      swap2\n      pop\n        /* \"--CODEGEN--\":6847:6945   */\n      pop\n        /* \"--CODEGEN--\":6672:6955   */\n      swap3\n      pop\n      swap3\n      swap1\n      pop\n      jump\t// out\n        /* \"--CODEGEN--\":6962:7328   */\n    tag_128:\n      0x00\n      dup1\n        /* \"--CODEGEN--\":7083:7085   */\n      0x40\n        /* \"--CODEGEN--\":7071:7080   */\n      dup4\n        /* \"--CODEGEN--\":7062:7069   */\n      dup6\n        /* \"--CODEGEN--\":7058:7081   */\n      sub\n        /* \"--CODEGEN--\":7054:7086   */\n      slt\n        /* \"--CODEGEN--\":7051:7053   */\n      iszero\n      tag_770\n      jumpi\n        /* \"--CODEGEN--\":7099:7100   */\n      0x00\n        /* \"--CODEGEN--\":7096:7097   */\n      dup1\n        /* \"--CODEGEN--\":7089:7101   */\n      revert\n        /* \"--CODEGEN--\":7051:7053   */\n    tag_770:\n        /* \"--CODEGEN--\":7134:7135   */\n      0x00\n        /* \"--CODEGEN--\":7151:7204   */\n      tag_771\n        /* \"--CODEGEN--\":7196:7203   */\n      dup6\n        /* \"--CODEGEN--\":7187:7193   */\n      dup3\n        /* \"--CODEGEN--\":7176:7185   */\n      dup7\n        /* \"--CODEGEN--\":7172:7194   */\n      add\n        /* \"--CODEGEN--\":7151:7204   */\n      tag_699\n      jump\t// in\n    tag_771:\n        /* \"--CODEGEN--\":7141:7204   */\n      swap3\n      pop\n        /* \"--CODEGEN--\":7113:7210   */\n      pop\n        /* \"--CODEGEN--\":7241:7243   */\n      0x20\n        /* \"--CODEGEN--\":7259:7312   */\n      tag_772\n        /* \"--CODEGEN--\":7304:7311   */\n      dup6\n        /* \"--CODEGEN--\":7295:7301   */\n      dup3\n        /* \"--CODEGEN--\":7284:7293   */\n      dup7\n        /* \"--CODEGEN--\":7280:7302   */\n      add\n        /* \"--CODEGEN--\":7259:7312   */\n      tag_733\n      jump\t// in\n    tag_772:\n        /* \"--CODEGEN--\":7249:7312   */\n      swap2\n      pop\n        /* \"--CODEGEN--\":7220:7318   */\n      pop\n        /* \"--CODEGEN--\":7045:7328   */\n      swap3\n      pop\n      swap3\n      swap1\n      pop\n      jump\t// out\n        /* \"--CODEGEN--\":7335:7723   */\n    tag_578:\n      0x00\n        /* \"--CODEGEN--\":7473:7475   */\n      0x20\n        /* \"--CODEGEN--\":7461:7470   */\n      dup3\n        /* \"--CODEGEN--\":7452:7459   */\n      dup5\n        /* \"--CODEGEN--\":7448:7471   */\n      sub\n        /* \"--CODEGEN--\":7444:7476   */\n      slt\n        /* \"--CODEGEN--\":7441:7443   */\n      iszero\n      tag_774\n      jumpi\n        /* \"--CODEGEN--\":7489:7490   */\n      0x00\n        /* \"--CODEGEN--\":7486:7487   */\n      dup1\n        /* \"--CODEGEN--\":7479:7491   */\n      revert\n        /* \"--CODEGEN--\":7441:7443   */\n    tag_774:\n        /* \"--CODEGEN--\":7545:7546   */\n      0x00\n        /* \"--CODEGEN--\":7534:7543   */\n      dup3\n        /* \"--CODEGEN--\":7530:7547   */\n      add\n        /* \"--CODEGEN--\":7524:7548   */\n      mload\n        /* \"--CODEGEN--\":7568:7586   */\n      0xffffffffffffffff\n        /* \"--CODEGEN--\":7560:7566   */\n      dup2\n        /* \"--CODEGEN--\":7557:7587   */\n      gt\n        /* \"--CODEGEN--\":7554:7556   */\n      iszero\n      tag_775\n      jumpi\n        /* \"--CODEGEN--\":7600:7601   */\n      0x00\n        /* \"--CODEGEN--\":7597:7598   */\n      dup1\n        /* \"--CODEGEN--\":7590:7602   */\n      revert\n        /* \"--CODEGEN--\":7554:7556   */\n    tag_775:\n        /* \"--CODEGEN--\":7620:7707   */\n      tag_776\n        /* \"--CODEGEN--\":7699:7706   */\n      dup5\n        /* \"--CODEGEN--\":7690:7696   */\n      dup3\n        /* \"--CODEGEN--\":7679:7688   */\n      dup6\n        /* \"--CODEGEN--\":7675:7697   */\n      add\n        /* \"--CODEGEN--\":7620:7707   */\n      tag_711\n      jump\t// in\n    tag_776:\n        /* \"--CODEGEN--\":7610:7707   */\n      swap2\n      pop\n        /* \"--CODEGEN--\":7503:7713   */\n      pop\n        /* \"--CODEGEN--\":7435:7723   */\n      swap3\n      swap2\n      pop\n      pop\n      jump\t// out\n        /* \"--CODEGEN--\":7730:8037   */\n    tag_530:\n      0x00\n        /* \"--CODEGEN--\":7867:7869   */\n      0x40\n        /* \"--CODEGEN--\":7855:7864   */\n      dup3\n        /* \"--CODEGEN--\":7846:7853   */\n      dup5\n        /* \"--CODEGEN--\":7842:7865   */\n      sub\n        /* \"--CODEGEN--\":7838:7870   */\n      slt\n        /* \"--CODEGEN--\":7835:7837   */\n      iszero\n      tag_778\n      jumpi\n        /* \"--CODEGEN--\":7883:7884   */\n      0x00\n        /* \"--CODEGEN--\":7880:7881   */\n      dup1\n        /* \"--CODEGEN--\":7873:7885   */\n      revert\n        /* \"--CODEGEN--\":7835:7837   */\n    tag_778:\n        /* \"--CODEGEN--\":7918:7919   */\n      0x00\n        /* \"--CODEGEN--\":7935:8021   */\n      tag_779\n        /* \"--CODEGEN--\":8013:8020   */\n      dup5\n        /* \"--CODEGEN--\":8004:8010   */\n      dup3\n        /* \"--CODEGEN--\":7993:8002   */\n      dup6\n        /* \"--CODEGEN--\":7989:8011   */\n      add\n        /* \"--CODEGEN--\":7935:8021   */\n      tag_727\n      jump\t// in\n    tag_779:\n        /* \"--CODEGEN--\":7925:8021   */\n      swap2\n      pop\n        /* \"--CODEGEN--\":7897:8027   */\n      pop\n        /* \"--CODEGEN--\":7829:8037   */\n      swap3\n      swap2\n      pop\n      pop\n      jump\t// out\n        /* \"--CODEGEN--\":8044:8285   */\n    tag_61:\n      0x00\n        /* \"--CODEGEN--\":8148:8150   */\n      0x20\n        /* \"--CODEGEN--\":8136:8145   */\n      dup3\n        /* \"--CODEGEN--\":8127:8134   */\n      dup5\n        /* \"--CODEGEN--\":8123:8146   */\n      sub\n        /* \"--CODEGEN--\":8119:8151   */\n      slt\n        /* \"--CODEGEN--\":8116:8118   */\n      iszero\n      tag_781\n      jumpi\n        /* \"--CODEGEN--\":8164:8165   */\n      0x00\n        /* \"--CODEGEN--\":8161:8162   */\n      dup1\n        /* \"--CODEGEN--\":8154:8166   */\n      revert\n        /* \"--CODEGEN--\":8116:8118   */\n    tag_781:\n        /* \"--CODEGEN--\":8199:8200   */\n      0x00\n        /* \"--CODEGEN--\":8216:8269   */\n      tag_782\n        /* \"--CODEGEN--\":8261:8268   */\n      dup5\n        /* \"--CODEGEN--\":8252:8258   */\n      dup3\n        /* \"--CODEGEN--\":8241:8250   */\n      dup6\n        /* \"--CODEGEN--\":8237:8259   */\n      add\n        /* \"--CODEGEN--\":8216:8269   */\n      tag_733\n      jump\t// in\n    tag_782:\n        /* \"--CODEGEN--\":8206:8269   */\n      swap2\n      pop\n        /* \"--CODEGEN--\":8178:8275   */\n      pop\n        /* \"--CODEGEN--\":8110:8285   */\n      swap3\n      swap2\n      pop\n      pop\n      jump\t// out\n        /* \"--CODEGEN--\":8292:8555   */\n    tag_218:\n      0x00\n        /* \"--CODEGEN--\":8407:8409   */\n      0x20\n        /* \"--CODEGEN--\":8395:8404   */\n      dup3\n        /* \"--CODEGEN--\":8386:8393   */\n      dup5\n        /* \"--CODEGEN--\":8382:8405   */\n      sub\n        /* \"--CODEGEN--\":8378:8410   */\n      slt\n        /* \"--CODEGEN--\":8375:8377   */\n      iszero\n      tag_784\n      jumpi\n        /* \"--CODEGEN--\":8423:8424   */\n      0x00\n        /* \"--CODEGEN--\":8420:8421   */\n      dup1\n        /* \"--CODEGEN--\":8413:8425   */\n      revert\n        /* \"--CODEGEN--\":8375:8377   */\n    tag_784:\n        /* \"--CODEGEN--\":8458:8459   */\n      0x00\n        /* \"--CODEGEN--\":8475:8539   */\n      tag_785\n        /* \"--CODEGEN--\":8531:8538   */\n      dup5\n        /* \"--CODEGEN--\":8522:8528   */\n      dup3\n        /* \"--CODEGEN--\":8511:8520   */\n      dup6\n        /* \"--CODEGEN--\":8507:8529   */\n      add\n        /* \"--CODEGEN--\":8475:8539   */\n      tag_694\n      jump\t// in\n    tag_785:\n        /* \"--CODEGEN--\":8465:8539   */\n      swap2\n      pop\n        /* \"--CODEGEN--\":8437:8545   */\n      pop\n        /* \"--CODEGEN--\":8369:8555   */\n      swap3\n      swap2\n      pop\n      pop\n      jump\t// out\n        /* \"--CODEGEN--\":8562:9053   */\n    tag_57:\n      0x00\n      dup1\n      0x00\n        /* \"--CODEGEN--\":8700:8702   */\n      0x60\n        /* \"--CODEGEN--\":8688:8697   */\n      dup5\n        /* \"--CODEGEN--\":8679:8686   */\n      dup7\n        /* \"--CODEGEN--\":8675:8698   */\n      sub\n        /* \"--CODEGEN--\":8671:8703   */\n      slt\n        /* \"--CODEGEN--\":8668:8670   */\n      iszero\n      tag_787\n      jumpi\n        /* \"--CODEGEN--\":8716:8717   */\n      0x00\n        /* \"--CODEGEN--\":8713:8714   */\n      dup1\n        /* \"--CODEGEN--\":8706:8718   */\n      revert\n        /* \"--CODEGEN--\":8668:8670   */\n    tag_787:\n        /* \"--CODEGEN--\":8751:8752   */\n      0x00\n        /* \"--CODEGEN--\":8768:8821   */\n      tag_788\n        /* \"--CODEGEN--\":8813:8820   */\n      dup7\n        /* \"--CODEGEN--\":8804:8810   */\n      dup3\n        /* \"--CODEGEN--\":8793:8802   */\n      dup8\n        /* \"--CODEGEN--\":8789:8811   */\n      add\n        /* \"--CODEGEN--\":8768:8821   */\n      tag_733\n      jump\t// in\n    tag_788:\n        /* \"--CODEGEN--\":8758:8821   */\n      swap4\n      pop\n        /* \"--CODEGEN--\":8730:8827   */\n      pop\n        /* \"--CODEGEN--\":8858:8860   */\n      0x20\n        /* \"--CODEGEN--\":8876:8929   */\n      tag_789\n        /* \"--CODEGEN--\":8921:8928   */\n      dup7\n        /* \"--CODEGEN--\":8912:8918   */\n      dup3\n        /* \"--CODEGEN--\":8901:8910   */\n      dup8\n        /* \"--CODEGEN--\":8897:8919   */\n      add\n        /* \"--CODEGEN--\":8876:8929   */\n      tag_678\n      jump\t// in\n    tag_789:\n        /* \"--CODEGEN--\":8866:8929   */\n      swap3\n      pop\n        /* \"--CODEGEN--\":8837:8935   */\n      pop\n        /* \"--CODEGEN--\":8966:8968   */\n      0x40\n        /* \"--CODEGEN--\":8984:9037   */\n      tag_790\n        /* \"--CODEGEN--\":9029:9036   */\n      dup7\n        /* \"--CODEGEN--\":9020:9026   */\n      dup3\n        /* \"--CODEGEN--\":9009:9018   */\n      dup8\n        /* \"--CODEGEN--\":9005:9027   */\n      add\n        /* \"--CODEGEN--\":8984:9037   */\n      tag_733\n      jump\t// in\n    tag_790:\n        /* \"--CODEGEN--\":8974:9037   */\n      swap2\n      pop\n        /* \"--CODEGEN--\":8945:9043   */\n      pop\n        /* \"--CODEGEN--\":8662:9053   */\n      swap3\n      pop\n      swap3\n      pop\n      swap3\n      jump\t// out\n        /* \"--CODEGEN--\":9060:9426   */\n    tag_65:\n      0x00\n      dup1\n        /* \"--CODEGEN--\":9181:9183   */\n      0x40\n        /* \"--CODEGEN--\":9169:9178   */\n      dup4\n        /* \"--CODEGEN--\":9160:9167   */\n      dup6\n        /* \"--CODEGEN--\":9156:9179   */\n      sub\n        /* \"--CODEGEN--\":9152:9184   */\n      slt\n        /* \"--CODEGEN--\":9149:9151   */\n      iszero\n      tag_792\n      jumpi\n        /* \"--CODEGEN--\":9197:9198   */\n      0x00\n        /* \"--CODEGEN--\":9194:9195   */\n      dup1\n        /* \"--CODEGEN--\":9187:9199   */\n      revert\n        /* \"--CODEGEN--\":9149:9151   */\n    tag_792:\n        /* \"--CODEGEN--\":9232:9233   */\n      0x00\n        /* \"--CODEGEN--\":9249:9302   */\n      tag_793\n        /* \"--CODEGEN--\":9294:9301   */\n      dup6\n        /* \"--CODEGEN--\":9285:9291   */\n      dup3\n        /* \"--CODEGEN--\":9274:9283   */\n      dup7\n        /* \"--CODEGEN--\":9270:9292   */\n      add\n        /* \"--CODEGEN--\":9249:9302   */\n      tag_733\n      jump\t// in\n    tag_793:\n        /* \"--CODEGEN--\":9239:9302   */\n      swap3\n      pop\n        /* \"--CODEGEN--\":9211:9308   */\n      pop\n        /* \"--CODEGEN--\":9339:9341   */\n      0x20\n        /* \"--CODEGEN--\":9357:9410   */\n      tag_794\n        /* \"--CODEGEN--\":9402:9409   */\n      dup6\n        /* \"--CODEGEN--\":9393:9399   */\n      dup3\n        /* \"--CODEGEN--\":9382:9391   */\n      dup7\n        /* \"--CODEGEN--\":9378:9400   */\n      add\n        /* \"--CODEGEN--\":9357:9410   */\n      tag_733\n      jump\t// in\n    tag_794:\n        /* \"--CODEGEN--\":9347:9410   */\n      swap2\n      pop\n        /* \"--CODEGEN--\":9318:9416   */\n      pop\n        /* \"--CODEGEN--\":9143:9426   */\n      swap3\n      pop\n      swap3\n      swap1\n      pop\n      jump\t// out\n        /* \"--CODEGEN--\":9433:10176   */\n    tag_144:\n      0x00\n      dup1\n      0x00\n      dup1\n      0x00\n        /* \"--CODEGEN--\":9608:9611   */\n      0x80\n        /* \"--CODEGEN--\":9596:9605   */\n      dup7\n        /* \"--CODEGEN--\":9587:9594   */\n      dup9\n        /* \"--CODEGEN--\":9583:9606   */\n      sub\n        /* \"--CODEGEN--\":9579:9612   */\n      slt\n        /* \"--CODEGEN--\":9576:9578   */\n      iszero\n      tag_796\n      jumpi\n        /* \"--CODEGEN--\":9625:9626   */\n      0x00\n        /* \"--CODEGEN--\":9622:9623   */\n      dup1\n        /* \"--CODEGEN--\":9615:9627   */\n      revert\n        /* \"--CODEGEN--\":9576:9578   */\n    tag_796:\n        /* \"--CODEGEN--\":9660:9661   */\n      0x00\n        /* \"--CODEGEN--\":9677:9730   */\n      tag_797\n        /* \"--CODEGEN--\":9722:9729   */\n      dup9\n        /* \"--CODEGEN--\":9713:9719   */\n      dup3\n        /* \"--CODEGEN--\":9702:9711   */\n      dup10\n        /* \"--CODEGEN--\":9698:9720   */\n      add\n        /* \"--CODEGEN--\":9677:9730   */\n      tag_733\n      jump\t// in\n    tag_797:\n        /* \"--CODEGEN--\":9667:9730   */\n      swap6\n      pop\n        /* \"--CODEGEN--\":9639:9736   */\n      pop\n        /* \"--CODEGEN--\":9767:9769   */\n      0x20\n        /* \"--CODEGEN--\":9785:9838   */\n      tag_798\n        /* \"--CODEGEN--\":9830:9837   */\n      dup9\n        /* \"--CODEGEN--\":9821:9827   */\n      dup3\n        /* \"--CODEGEN--\":9810:9819   */\n      dup10\n        /* \"--CODEGEN--\":9806:9828   */\n      add\n        /* \"--CODEGEN--\":9785:9838   */\n      tag_733\n      jump\t// in\n    tag_798:\n        /* \"--CODEGEN--\":9775:9838   */\n      swap5\n      pop\n        /* \"--CODEGEN--\":9746:9844   */\n      pop\n        /* \"--CODEGEN--\":9903:9905   */\n      0x40\n        /* \"--CODEGEN--\":9892:9901   */\n      dup7\n        /* \"--CODEGEN--\":9888:9906   */\n      add\n        /* \"--CODEGEN--\":9875:9907   */\n      calldataload\n        /* \"--CODEGEN--\":9927:9945   */\n      0xffffffffffffffff\n        /* \"--CODEGEN--\":9919:9925   */\n      dup2\n        /* \"--CODEGEN--\":9916:9946   */\n      gt\n        /* \"--CODEGEN--\":9913:9915   */\n      iszero\n      tag_799\n      jumpi\n        /* \"--CODEGEN--\":9959:9960   */\n      0x00\n        /* \"--CODEGEN--\":9956:9957   */\n      dup1\n        /* \"--CODEGEN--\":9949:9961   */\n      revert\n        /* \"--CODEGEN--\":9913:9915   */\n    tag_799:\n        /* \"--CODEGEN--\":9987:10052   */\n      tag_800\n        /* \"--CODEGEN--\":10044:10051   */\n      dup9\n        /* \"--CODEGEN--\":10035:10041   */\n      dup3\n        /* \"--CODEGEN--\":10024:10033   */\n      dup10\n        /* \"--CODEGEN--\":10020:10042   */\n      add\n        /* \"--CODEGEN--\":9987:10052   */\n      tag_706\n      jump\t// in\n    tag_800:\n        /* \"--CODEGEN--\":9969:10052   */\n      swap4\n      pop\n      swap4\n      pop\n        /* \"--CODEGEN--\":9854:10058   */\n      pop\n        /* \"--CODEGEN--\":10089:10091   */\n      0x60\n        /* \"--CODEGEN--\":10107:10160   */\n      tag_801\n        /* \"--CODEGEN--\":10152:10159   */\n      dup9\n        /* \"--CODEGEN--\":10143:10149   */\n      dup3\n        /* \"--CODEGEN--\":10132:10141   */\n      dup10\n        /* \"--CODEGEN--\":10128:10150   */\n      add\n        /* \"--CODEGEN--\":10107:10160   */\n      tag_733\n      jump\t// in\n    tag_801:\n        /* \"--CODEGEN--\":10097:10160   */\n      swap2\n      pop\n        /* \"--CODEGEN--\":10068:10166   */\n      pop\n        /* \"--CODEGEN--\":9570:10176   */\n      swap3\n      swap6\n      pop\n      swap3\n      swap6\n      swap1\n      swap4\n      pop\n      jump\t// out\n        /* \"--CODEGEN--\":10183:10442   */\n    tag_257:\n      0x00\n        /* \"--CODEGEN--\":10296:10298   */\n      0x20\n        /* \"--CODEGEN--\":10284:10293   */\n      dup3\n        /* \"--CODEGEN--\":10275:10282   */\n      dup5\n        /* \"--CODEGEN--\":10271:10294   */\n      sub\n        /* \"--CODEGEN--\":10267:10299   */\n      slt\n        /* \"--CODEGEN--\":10264:10266   */\n      iszero\n      tag_803\n      jumpi\n        /* \"--CODEGEN--\":10312:10313   */\n      0x00\n        /* \"--CODEGEN--\":10309:10310   */\n      dup1\n        /* \"--CODEGEN--\":10302:10314   */\n      revert\n        /* \"--CODEGEN--\":10264:10266   */\n    tag_803:\n        /* \"--CODEGEN--\":10347:10348   */\n      0x00\n        /* \"--CODEGEN--\":10364:10426   */\n      tag_804\n        /* \"--CODEGEN--\":10418:10425   */\n      dup5\n        /* \"--CODEGEN--\":10409:10415   */\n      dup3\n        /* \"--CODEGEN--\":10398:10407   */\n      dup6\n        /* \"--CODEGEN--\":10394:10416   */\n      add\n        /* \"--CODEGEN--\":10364:10426   */\n      tag_739\n      jump\t// in\n    tag_804:\n        /* \"--CODEGEN--\":10354:10426   */\n      swap2\n      pop\n        /* \"--CODEGEN--\":10326:10432   */\n      pop\n        /* \"--CODEGEN--\":10258:10442   */\n      swap3\n      swap2\n      pop\n      pop\n      jump\t// out\n        /* \"--CODEGEN--\":10449:10591   */\n    tag_805:\n        /* \"--CODEGEN--\":10540:10585   */\n      tag_807\n        /* \"--CODEGEN--\":10579:10584   */\n      dup2\n        /* \"--CODEGEN--\":10540:10585   */\n      tag_808\n      jump\t// in\n    tag_807:\n        /* \"--CODEGEN--\":10535:10538   */\n      dup3\n        /* \"--CODEGEN--\":10528:10586   */\n      mstore\n        /* \"--CODEGEN--\":10522:10591   */\n      pop\n      pop\n      jump\t// out\n        /* \"--CODEGEN--\":10598:10701   */\n    tag_809:\n        /* \"--CODEGEN--\":10671:10695   */\n      tag_811\n        /* \"--CODEGEN--\":10689:10694   */\n      dup2\n        /* \"--CODEGEN--\":10671:10695   */\n      tag_812\n      jump\t// in\n    tag_811:\n        /* \"--CODEGEN--\":10666:10669   */\n      dup3\n        /* \"--CODEGEN--\":10659:10696   */\n      mstore\n        /* \"--CODEGEN--\":10653:10701   */\n      pop\n      pop\n      jump\t// out\n        /* \"--CODEGEN--\":10708:10821   */\n    tag_813:\n        /* \"--CODEGEN--\":10791:10815   */\n      tag_815\n        /* \"--CODEGEN--\":10809:10814   */\n      dup2\n        /* \"--CODEGEN--\":10791:10815   */\n      tag_812\n      jump\t// in\n    tag_815:\n        /* \"--CODEGEN--\":10786:10789   */\n      dup3\n        /* \"--CODEGEN--\":10779:10816   */\n      mstore\n        /* \"--CODEGEN--\":10773:10821   */\n      pop\n      pop\n      jump\t// out\n        /* \"--CODEGEN--\":10828:10932   */\n    tag_816:\n        /* \"--CODEGEN--\":10905:10926   */\n      tag_818\n        /* \"--CODEGEN--\":10920:10925   */\n      dup2\n        /* \"--CODEGEN--\":10905:10926   */\n      tag_819\n      jump\t// in\n    tag_818:\n        /* \"--CODEGEN--\":10900:10903   */\n      dup3\n        /* \"--CODEGEN--\":10893:10927   */\n      mstore\n        /* \"--CODEGEN--\":10887:10932   */\n      pop\n      pop\n      jump\t// out\n        /* \"--CODEGEN--\":10939:11052   */\n    tag_820:\n        /* \"--CODEGEN--\":11022:11046   */\n      tag_822\n        /* \"--CODEGEN--\":11040:11045   */\n      dup2\n        /* \"--CODEGEN--\":11022:11046   */\n      tag_823\n      jump\t// in\n    tag_822:\n        /* \"--CODEGEN--\":11017:11020   */\n      dup3\n        /* \"--CODEGEN--\":11010:11047   */\n      mstore\n        /* \"--CODEGEN--\":11004:11052   */\n      pop\n      pop\n      jump\t// out\n        /* \"--CODEGEN--\":11059:11229   */\n    tag_824:\n        /* \"--CODEGEN--\":11164:11223   */\n      tag_826\n        /* \"--CODEGEN--\":11217:11222   */\n      dup2\n        /* \"--CODEGEN--\":11164:11223   */\n      tag_827\n      jump\t// in\n    tag_826:\n        /* \"--CODEGEN--\":11159:11162   */\n      dup3\n        /* \"--CODEGEN--\":11152:11224   */\n      mstore\n        /* \"--CODEGEN--\":11146:11229   */\n      pop\n      pop\n      jump\t// out\n        /* \"--CODEGEN--\":11236:11406   */\n    tag_828:\n        /* \"--CODEGEN--\":11341:11400   */\n      tag_830\n        /* \"--CODEGEN--\":11394:11399   */\n      dup2\n        /* \"--CODEGEN--\":11341:11400   */\n      tag_831\n      jump\t// in\n    tag_830:\n        /* \"--CODEGEN--\":11336:11339   */\n      dup3\n        /* \"--CODEGEN--\":11329:11401   */\n      mstore\n        /* \"--CODEGEN--\":11323:11406   */\n      pop\n      pop\n      jump\t// out\n        /* \"--CODEGEN--\":11413:11581   */\n    tag_832:\n        /* \"--CODEGEN--\":11517:11575   */\n      tag_834\n        /* \"--CODEGEN--\":11569:11574   */\n      dup2\n        /* \"--CODEGEN--\":11517:11575   */\n      tag_835\n      jump\t// in\n    tag_834:\n        /* \"--CODEGEN--\":11512:11515   */\n      dup3\n        /* \"--CODEGEN--\":11505:11576   */\n      mstore\n        /* \"--CODEGEN--\":11499:11581   */\n      pop\n      pop\n      jump\t// out\n        /* \"--CODEGEN--\":11588:11758   */\n    tag_836:\n        /* \"--CODEGEN--\":11693:11752   */\n      tag_838\n        /* \"--CODEGEN--\":11746:11751   */\n      dup2\n        /* \"--CODEGEN--\":11693:11752   */\n      tag_839\n      jump\t// in\n    tag_838:\n        /* \"--CODEGEN--\":11688:11691   */\n      dup3\n        /* \"--CODEGEN--\":11681:11753   */\n      mstore\n        /* \"--CODEGEN--\":11675:11758   */\n      pop\n      pop\n      jump\t// out\n        /* \"--CODEGEN--\":11765:11907   */\n    tag_840:\n        /* \"--CODEGEN--\":11856:11901   */\n      tag_842\n        /* \"--CODEGEN--\":11895:11900   */\n      dup2\n        /* \"--CODEGEN--\":11856:11901   */\n      tag_843\n      jump\t// in\n    tag_842:\n        /* \"--CODEGEN--\":11851:11854   */\n      dup3\n        /* \"--CODEGEN--\":11844:11902   */\n      mstore\n        /* \"--CODEGEN--\":11838:11907   */\n      pop\n      pop\n      jump\t// out\n        /* \"--CODEGEN--\":11914:12261   */\n    tag_844:\n      0x00\n        /* \"--CODEGEN--\":12026:12065   */\n      tag_846\n        /* \"--CODEGEN--\":12059:12064   */\n      dup3\n        /* \"--CODEGEN--\":12026:12065   */\n      tag_847\n      jump\t// in\n    tag_846:\n        /* \"--CODEGEN--\":12077:12148   */\n      tag_848\n        /* \"--CODEGEN--\":12141:12147   */\n      dup2\n        /* \"--CODEGEN--\":12136:12139   */\n      dup6\n        /* \"--CODEGEN--\":12077:12148   */\n      tag_849\n      jump\t// in\n    tag_848:\n        /* \"--CODEGEN--\":12070:12148   */\n      swap4\n      pop\n        /* \"--CODEGEN--\":12153:12205   */\n      tag_850\n        /* \"--CODEGEN--\":12198:12204   */\n      dup2\n        /* \"--CODEGEN--\":12193:12196   */\n      dup6\n        /* \"--CODEGEN--\":12186:12190   */\n      0x20\n        /* \"--CODEGEN--\":12179:12184   */\n      dup7\n        /* \"--CODEGEN--\":12175:12191   */\n      add\n        /* \"--CODEGEN--\":12153:12205   */\n      tag_851\n      jump\t// in\n    tag_850:\n        /* \"--CODEGEN--\":12226:12255   */\n      tag_852\n        /* \"--CODEGEN--\":12248:12254   */\n      dup2\n        /* \"--CODEGEN--\":12226:12255   */\n      tag_853\n      jump\t// in\n    tag_852:\n        /* \"--CODEGEN--\":12221:12224   */\n      dup5\n        /* \"--CODEGEN--\":12217:12256   */\n      add\n        /* \"--CODEGEN--\":12210:12256   */\n      swap2\n      pop\n        /* \"--CODEGEN--\":12006:12261   */\n      pop\n      swap3\n      swap2\n      pop\n      pop\n      jump\t// out\n        /* \"--CODEGEN--\":12269:12640   */\n    tag_854:\n      0x00\n        /* \"--CODEGEN--\":12429:12496   */\n      tag_856\n        /* \"--CODEGEN--\":12493:12495   */\n      0x22\n        /* \"--CODEGEN--\":12488:12491   */\n      dup4\n        /* \"--CODEGEN--\":12429:12496   */\n      tag_849\n      jump\t// in\n    tag_856:\n        /* \"--CODEGEN--\":12422:12496   */\n      swap2\n      pop\n        /* \"--CODEGEN--\":12529:12563   */\n      0x456e756d657261626c655365743a20696e646578206f7574206f6620626f756e\n        /* \"--CODEGEN--\":12525:12526   */\n      0x00\n        /* \"--CODEGEN--\":12520:12523   */\n      dup4\n        /* \"--CODEGEN--\":12516:12527   */\n      add\n        /* \"--CODEGEN--\":12509:12564   */\n      mstore\n        /* \"--CODEGEN--\":12598:12602   */\n      0x6473000000000000000000000000000000000000000000000000000000000000\n        /* \"--CODEGEN--\":12593:12595   */\n      0x20\n        /* \"--CODEGEN--\":12588:12591   */\n      dup4\n        /* \"--CODEGEN--\":12584:12596   */\n      add\n        /* \"--CODEGEN--\":12577:12603   */\n      mstore\n        /* \"--CODEGEN--\":12631:12633   */\n      0x40\n        /* \"--CODEGEN--\":12626:12629   */\n      dup3\n        /* \"--CODEGEN--\":12622:12634   */\n      add\n        /* \"--CODEGEN--\":12615:12634   */\n      swap1\n      pop\n        /* \"--CODEGEN--\":12415:12640   */\n      swap2\n      swap1\n      pop\n      jump\t// out\n        /* \"--CODEGEN--\":12649:13033   */\n    tag_857:\n      0x00\n        /* \"--CODEGEN--\":12809:12876   */\n      tag_859\n        /* \"--CODEGEN--\":12873:12875   */\n      0x2f\n        /* \"--CODEGEN--\":12868:12871   */\n      dup4\n        /* \"--CODEGEN--\":12809:12876   */\n      tag_849\n      jump\t// in\n    tag_859:\n        /* \"--CODEGEN--\":12802:12876   */\n      swap2\n      pop\n        /* \"--CODEGEN--\":12909:12943   */\n      0x416363657373436f6e74726f6c3a2073656e646572206d75737420626520616e\n        /* \"--CODEGEN--\":12905:12906   */\n      0x00\n        /* \"--CODEGEN--\":12900:12903   */\n      dup4\n        /* \"--CODEGEN--\":12896:12907   */\n      add\n        /* \"--CODEGEN--\":12889:12944   */\n      mstore\n        /* \"--CODEGEN--\":12978:12995   */\n      0x2061646d696e20746f206772616e740000000000000000000000000000000000\n        /* \"--CODEGEN--\":12973:12975   */\n      0x20\n        /* \"--CODEGEN--\":12968:12971   */\n      dup4\n        /* \"--CODEGEN--\":12964:12976   */\n      add\n        /* \"--CODEGEN--\":12957:12996   */\n      mstore\n        /* \"--CODEGEN--\":13024:13026   */\n      0x40\n        /* \"--CODEGEN--\":13019:13022   */\n      dup3\n        /* \"--CODEGEN--\":13015:13027   */\n      add\n        /* \"--CODEGEN--\":13008:13027   */\n      swap1\n      pop\n        /* \"--CODEGEN--\":12795:13033   */\n      swap2\n      swap1\n      pop\n      jump\t// out\n        /* \"--CODEGEN--\":13042:13368   */\n    tag_860:\n      0x00\n        /* \"--CODEGEN--\":13202:13269   */\n      tag_862\n        /* \"--CODEGEN--\":13266:13268   */\n      0x1a\n        /* \"--CODEGEN--\":13261:13264   */\n      dup4\n        /* \"--CODEGEN--\":13202:13269   */\n      tag_849\n      jump\t// in\n    tag_862:\n        /* \"--CODEGEN--\":13195:13269   */\n      swap2\n      pop\n        /* \"--CODEGEN--\":13302:13330   */\n      0x57697468647261772065706f6368206e6f742072656163686564000000000000\n        /* \"--CODEGEN--\":13298:13299   */\n      0x00\n        /* \"--CODEGEN--\":13293:13296   */\n      dup4\n        /* \"--CODEGEN--\":13289:13300   */\n      add\n        /* \"--CODEGEN--\":13282:13331   */\n      mstore\n        /* \"--CODEGEN--\":13359:13361   */\n      0x20\n        /* \"--CODEGEN--\":13354:13357   */\n      dup3\n        /* \"--CODEGEN--\":13350:13362   */\n      add\n        /* \"--CODEGEN--\":13343:13362   */\n      swap1\n      pop\n        /* \"--CODEGEN--\":13188:13368   */\n      swap2\n      swap1\n      pop\n      jump\t// out\n        /* \"--CODEGEN--\":13377:13704   */\n    tag_863:\n      0x00\n        /* \"--CODEGEN--\":13537:13604   */\n      tag_865\n        /* \"--CODEGEN--\":13601:13603   */\n      0x1b\n        /* \"--CODEGEN--\":13596:13599   */\n      dup4\n        /* \"--CODEGEN--\":13537:13604   */\n      tag_849\n      jump\t// in\n    tag_865:\n        /* \"--CODEGEN--\":13530:13604   */\n      swap2\n      pop\n        /* \"--CODEGEN--\":13637:13666   */\n      0x536166654d6174683a206164646974696f6e206f766572666c6f770000000000\n        /* \"--CODEGEN--\":13633:13634   */\n      0x00\n        /* \"--CODEGEN--\":13628:13631   */\n      dup4\n        /* \"--CODEGEN--\":13624:13635   */\n      add\n        /* \"--CODEGEN--\":13617:13667   */\n      mstore\n        /* \"--CODEGEN--\":13695:13697   */\n      0x20\n        /* \"--CODEGEN--\":13690:13693   */\n      dup3\n        /* \"--CODEGEN--\":13686:13698   */\n      add\n        /* \"--CODEGEN--\":13679:13698   */\n      swap1\n      pop\n        /* \"--CODEGEN--\":13523:13704   */\n      swap2\n      swap1\n      pop\n      jump\t// out\n        /* \"--CODEGEN--\":13713:14038   */\n    tag_866:\n      0x00\n        /* \"--CODEGEN--\":13873:13940   */\n      tag_868\n        /* \"--CODEGEN--\":13937:13939   */\n      0x19\n        /* \"--CODEGEN--\":13932:13935   */\n      dup4\n        /* \"--CODEGEN--\":13873:13940   */\n      tag_849\n      jump\t// in\n    tag_868:\n        /* \"--CODEGEN--\":13866:13940   */\n      swap2\n      pop\n        /* \"--CODEGEN--\":13973:14000   */\n      0x6661696c656420746f207472616e7366657220626f756e747900000000000000\n        /* \"--CODEGEN--\":13969:13970   */\n      0x00\n        /* \"--CODEGEN--\":13964:13967   */\n      dup4\n        /* \"--CODEGEN--\":13960:13971   */\n      add\n        /* \"--CODEGEN--\":13953:14001   */\n      mstore\n        /* \"--CODEGEN--\":14029:14031   */\n      0x20\n        /* \"--CODEGEN--\":14024:14027   */\n      dup3\n        /* \"--CODEGEN--\":14020:14032   */\n      add\n        /* \"--CODEGEN--\":14013:14032   */\n      swap1\n      pop\n        /* \"--CODEGEN--\":13859:14038   */\n      swap2\n      swap1\n      pop\n      jump\t// out\n        /* \"--CODEGEN--\":14047:14432   */\n    tag_869:\n      0x00\n        /* \"--CODEGEN--\":14207:14274   */\n      tag_871\n        /* \"--CODEGEN--\":14271:14273   */\n      0x30\n        /* \"--CODEGEN--\":14266:14269   */\n      dup4\n        /* \"--CODEGEN--\":14207:14274   */\n      tag_849\n      jump\t// in\n    tag_871:\n        /* \"--CODEGEN--\":14200:14274   */\n      swap2\n      pop\n        /* \"--CODEGEN--\":14307:14341   */\n      0x416363657373436f6e74726f6c3a2073656e646572206d75737420626520616e\n        /* \"--CODEGEN--\":14303:14304   */\n      0x00\n        /* \"--CODEGEN--\":14298:14301   */\n      dup4\n        /* \"--CODEGEN--\":14294:14305   */\n      add\n        /* \"--CODEGEN--\":14287:14342   */\n      mstore\n        /* \"--CODEGEN--\":14376:14394   */\n      0x2061646d696e20746f207265766f6b6500000000000000000000000000000000\n        /* \"--CODEGEN--\":14371:14373   */\n      0x20\n        /* \"--CODEGEN--\":14366:14369   */\n      dup4\n        /* \"--CODEGEN--\":14362:14374   */\n      add\n        /* \"--CODEGEN--\":14355:14395   */\n      mstore\n        /* \"--CODEGEN--\":14423:14425   */\n      0x40\n        /* \"--CODEGEN--\":14418:14421   */\n      dup3\n        /* \"--CODEGEN--\":14414:14426   */\n      add\n        /* \"--CODEGEN--\":14407:14426   */\n      swap1\n      pop\n        /* \"--CODEGEN--\":14193:14432   */\n      swap2\n      swap1\n      pop\n      jump\t// out\n        /* \"--CODEGEN--\":14441:14758   */\n    tag_872:\n      0x00\n        /* \"--CODEGEN--\":14601:14668   */\n      tag_874\n        /* \"--CODEGEN--\":14665:14667   */\n      0x11\n        /* \"--CODEGEN--\":14660:14663   */\n      dup4\n        /* \"--CODEGEN--\":14601:14668   */\n      tag_849\n      jump\t// in\n    tag_874:\n        /* \"--CODEGEN--\":14594:14668   */\n      swap2\n      pop\n        /* \"--CODEGEN--\":14701:14720   */\n      0x4e6f6e706f736974697665207374616b65000000000000000000000000000000\n        /* \"--CODEGEN--\":14697:14698   */\n      0x00\n        /* \"--CODEGEN--\":14692:14695   */\n      dup4\n        /* \"--CODEGEN--\":14688:14699   */\n      add\n        /* \"--CODEGEN--\":14681:14721   */\n      mstore\n        /* \"--CODEGEN--\":14749:14751   */\n      0x20\n        /* \"--CODEGEN--\":14744:14747   */\n      dup3\n        /* \"--CODEGEN--\":14740:14752   */\n      add\n        /* \"--CODEGEN--\":14733:14752   */\n      swap1\n      pop\n        /* \"--CODEGEN--\":14587:14758   */\n      swap2\n      swap1\n      pop\n      jump\t// out\n        /* \"--CODEGEN--\":14767:15086   */\n    tag_875:\n      0x00\n        /* \"--CODEGEN--\":14927:14994   */\n      tag_877\n        /* \"--CODEGEN--\":14991:14993   */\n      0x13\n        /* \"--CODEGEN--\":14986:14989   */\n      dup4\n        /* \"--CODEGEN--\":14927:14994   */\n      tag_849\n      jump\t// in\n    tag_877:\n        /* \"--CODEGEN--\":14920:14994   */\n      swap2\n      pop\n        /* \"--CODEGEN--\":15027:15048   */\n      0x736368207472616e73666572206661696c656400000000000000000000000000\n        /* \"--CODEGEN--\":15023:15024   */\n      0x00\n        /* \"--CODEGEN--\":15018:15021   */\n      dup4\n        /* \"--CODEGEN--\":15014:15025   */\n      add\n        /* \"--CODEGEN--\":15007:15049   */\n      mstore\n        /* \"--CODEGEN--\":15077:15079   */\n      0x20\n        /* \"--CODEGEN--\":15072:15075   */\n      dup3\n        /* \"--CODEGEN--\":15068:15080   */\n      add\n        /* \"--CODEGEN--\":15061:15080   */\n      swap1\n      pop\n        /* \"--CODEGEN--\":14913:15086   */\n      swap2\n      swap1\n      pop\n      jump\t// out\n        /* \"--CODEGEN--\":15095:15435   */\n    tag_878:\n      0x00\n        /* \"--CODEGEN--\":15273:15357   */\n      tag_880\n        /* \"--CODEGEN--\":15355:15356   */\n      0x06\n        /* \"--CODEGEN--\":15350:15353   */\n      dup4\n        /* \"--CODEGEN--\":15273:15357   */\n      tag_881\n      jump\t// in\n    tag_880:\n        /* \"--CODEGEN--\":15266:15357   */\n      swap2\n      pop\n        /* \"--CODEGEN--\":15390:15398   */\n      0x5772697465720000000000000000000000000000000000000000000000000000\n        /* \"--CODEGEN--\":15386:15387   */\n      0x00\n        /* \"--CODEGEN--\":15381:15384   */\n      dup4\n        /* \"--CODEGEN--\":15377:15388   */\n      add\n        /* \"--CODEGEN--\":15370:15399   */\n      mstore\n        /* \"--CODEGEN--\":15427:15428   */\n      0x06\n        /* \"--CODEGEN--\":15422:15425   */\n      dup3\n        /* \"--CODEGEN--\":15418:15429   */\n      add\n        /* \"--CODEGEN--\":15411:15429   */\n      swap1\n      pop\n        /* \"--CODEGEN--\":15259:15435   */\n      swap2\n      swap1\n      pop\n      jump\t// out\n        /* \"--CODEGEN--\":15444:15760   */\n    tag_882:\n      0x00\n        /* \"--CODEGEN--\":15604:15671   */\n      tag_884\n        /* \"--CODEGEN--\":15668:15670   */\n      0x10\n        /* \"--CODEGEN--\":15663:15666   */\n      dup4\n        /* \"--CODEGEN--\":15604:15671   */\n      tag_849\n      jump\t// in\n    tag_884:\n        /* \"--CODEGEN--\":15597:15671   */\n      swap2\n      pop\n        /* \"--CODEGEN--\":15704:15722   */\n      0x636f756c646e74207472616e7366657200000000000000000000000000000000\n        /* \"--CODEGEN--\":15700:15701   */\n      0x00\n        /* \"--CODEGEN--\":15695:15698   */\n      dup4\n        /* \"--CODEGEN--\":15691:15702   */\n      add\n        /* \"--CODEGEN--\":15684:15723   */\n      mstore\n        /* \"--CODEGEN--\":15751:15753   */\n      0x20\n        /* \"--CODEGEN--\":15746:15749   */\n      dup3\n        /* \"--CODEGEN--\":15742:15754   */\n      add\n        /* \"--CODEGEN--\":15735:15754   */\n      swap1\n      pop\n        /* \"--CODEGEN--\":15590:15760   */\n      swap2\n      swap1\n      pop\n      jump\t// out\n        /* \"--CODEGEN--\":15769:16139   */\n    tag_885:\n      0x00\n        /* \"--CODEGEN--\":15929:15996   */\n      tag_887\n        /* \"--CODEGEN--\":15993:15995   */\n      0x21\n        /* \"--CODEGEN--\":15988:15991   */\n      dup4\n        /* \"--CODEGEN--\":15929:15996   */\n      tag_849\n      jump\t// in\n    tag_887:\n        /* \"--CODEGEN--\":15922:15996   */\n      swap2\n      pop\n        /* \"--CODEGEN--\":16029:16063   */\n      0x536166654d6174683a206d756c7469706c69636174696f6e206f766572666c6f\n        /* \"--CODEGEN--\":16025:16026   */\n      0x00\n        /* \"--CODEGEN--\":16020:16023   */\n      dup4\n        /* \"--CODEGEN--\":16016:16027   */\n      add\n        /* \"--CODEGEN--\":16009:16064   */\n      mstore\n        /* \"--CODEGEN--\":16098:16101   */\n      0x7700000000000000000000000000000000000000000000000000000000000000\n        /* \"--CODEGEN--\":16093:16095   */\n      0x20\n        /* \"--CODEGEN--\":16088:16091   */\n      dup4\n        /* \"--CODEGEN--\":16084:16096   */\n      add\n        /* \"--CODEGEN--\":16077:16102   */\n      mstore\n        /* \"--CODEGEN--\":16130:16132   */\n      0x40\n        /* \"--CODEGEN--\":16125:16128   */\n      dup3\n        /* \"--CODEGEN--\":16121:16133   */\n      add\n        /* \"--CODEGEN--\":16114:16133   */\n      swap1\n      pop\n        /* \"--CODEGEN--\":15915:16139   */\n      swap2\n      swap1\n      pop\n      jump\t// out\n        /* \"--CODEGEN--\":16148:16463   */\n    tag_888:\n      0x00\n        /* \"--CODEGEN--\":16308:16375   */\n      tag_890\n        /* \"--CODEGEN--\":16372:16374   */\n      0x0f\n        /* \"--CODEGEN--\":16367:16370   */\n      dup4\n        /* \"--CODEGEN--\":16308:16375   */\n      tag_849\n      jump\t// in\n    tag_890:\n        /* \"--CODEGEN--\":16301:16375   */\n      swap2\n      pop\n        /* \"--CODEGEN--\":16408:16425   */\n      0x696e636f72726563742065706f63680000000000000000000000000000000000\n        /* \"--CODEGEN--\":16404:16405   */\n      0x00\n        /* \"--CODEGEN--\":16399:16402   */\n      dup4\n        /* \"--CODEGEN--\":16395:16406   */\n      add\n        /* \"--CODEGEN--\":16388:16426   */\n      mstore\n        /* \"--CODEGEN--\":16454:16456   */\n      0x20\n        /* \"--CODEGEN--\":16449:16452   */\n      dup3\n        /* \"--CODEGEN--\":16445:16457   */\n      add\n        /* \"--CODEGEN--\":16438:16457   */\n      swap1\n      pop\n        /* \"--CODEGEN--\":16294:16463   */\n      swap2\n      swap1\n      pop\n      jump\t// out\n        /* \"--CODEGEN--\":16472:16798   */\n    tag_891:\n      0x00\n        /* \"--CODEGEN--\":16632:16699   */\n      tag_893\n        /* \"--CODEGEN--\":16696:16698   */\n      0x1a\n        /* \"--CODEGEN--\":16691:16694   */\n      dup4\n        /* \"--CODEGEN--\":16632:16699   */\n      tag_849\n      jump\t// in\n    tag_893:\n        /* \"--CODEGEN--\":16625:16699   */\n      swap2\n      pop\n        /* \"--CODEGEN--\":16732:16760   */\n      0x4469646e742072657665616c20696e206c6173742065706f6368000000000000\n        /* \"--CODEGEN--\":16728:16729   */\n      0x00\n        /* \"--CODEGEN--\":16723:16726   */\n      dup4\n        /* \"--CODEGEN--\":16719:16730   */\n      add\n        /* \"--CODEGEN--\":16712:16761   */\n      mstore\n        /* \"--CODEGEN--\":16789:16791   */\n      0x20\n        /* \"--CODEGEN--\":16784:16787   */\n      dup3\n        /* \"--CODEGEN--\":16780:16792   */\n      add\n        /* \"--CODEGEN--\":16773:16792   */\n      swap1\n      pop\n        /* \"--CODEGEN--\":16618:16798   */\n      swap2\n      swap1\n      pop\n      jump\t// out\n        /* \"--CODEGEN--\":16807:17126   */\n    tag_894:\n      0x00\n        /* \"--CODEGEN--\":16967:17034   */\n      tag_896\n        /* \"--CODEGEN--\":17031:17033   */\n      0x13\n        /* \"--CODEGEN--\":17026:17029   */\n      dup4\n        /* \"--CODEGEN--\":16967:17034   */\n      tag_849\n      jump\t// in\n    tag_896:\n        /* \"--CODEGEN--\":16960:17034   */\n      swap2\n      pop\n        /* \"--CODEGEN--\":17067:17088   */\n      0x7374616b657220646f65736e7420657869737400000000000000000000000000\n        /* \"--CODEGEN--\":17063:17064   */\n      0x00\n        /* \"--CODEGEN--\":17058:17061   */\n      dup4\n        /* \"--CODEGEN--\":17054:17065   */\n      add\n        /* \"--CODEGEN--\":17047:17089   */\n      mstore\n        /* \"--CODEGEN--\":17117:17119   */\n      0x20\n        /* \"--CODEGEN--\":17112:17115   */\n      dup3\n        /* \"--CODEGEN--\":17108:17120   */\n      add\n        /* \"--CODEGEN--\":17101:17120   */\n      swap1\n      pop\n        /* \"--CODEGEN--\":16953:17126   */\n      swap2\n      swap1\n      pop\n      jump\t// out\n        /* \"--CODEGEN--\":17135:17440   */\n    tag_897:\n      0x00\n        /* \"--CODEGEN--\":17295:17361   */\n      tag_899\n        /* \"--CODEGEN--\":17359:17360   */\n      0x06\n        /* \"--CODEGEN--\":17354:17357   */\n      dup4\n        /* \"--CODEGEN--\":17295:17361   */\n      tag_849\n      jump\t// in\n    tag_899:\n        /* \"--CODEGEN--\":17288:17361   */\n      swap2\n      pop\n        /* \"--CODEGEN--\":17394:17402   */\n      0x6c6f636b65640000000000000000000000000000000000000000000000000000\n        /* \"--CODEGEN--\":17390:17391   */\n      0x00\n        /* \"--CODEGEN--\":17385:17388   */\n      dup4\n        /* \"--CODEGEN--\":17381:17392   */\n      add\n        /* \"--CODEGEN--\":17374:17403   */\n      mstore\n        /* \"--CODEGEN--\":17431:17433   */\n      0x20\n        /* \"--CODEGEN--\":17426:17429   */\n      dup3\n        /* \"--CODEGEN--\":17422:17434   */\n      add\n        /* \"--CODEGEN--\":17415:17434   */\n      swap1\n      pop\n        /* \"--CODEGEN--\":17281:17440   */\n      swap2\n      swap1\n      pop\n      jump\t// out\n        /* \"--CODEGEN--\":17449:17762   */\n    tag_900:\n      0x00\n        /* \"--CODEGEN--\":17609:17676   */\n      tag_902\n        /* \"--CODEGEN--\":17673:17675   */\n      0x0d\n        /* \"--CODEGEN--\":17668:17671   */\n      dup4\n        /* \"--CODEGEN--\":17609:17676   */\n      tag_849\n      jump\t// in\n    tag_902:\n        /* \"--CODEGEN--\":17602:17676   */\n      swap2\n      pop\n        /* \"--CODEGEN--\":17709:17724   */\n      0x7374616b65722e6964203d203000000000000000000000000000000000000000\n        /* \"--CODEGEN--\":17705:17706   */\n      0x00\n        /* \"--CODEGEN--\":17700:17703   */\n      dup4\n        /* \"--CODEGEN--\":17696:17707   */\n      add\n        /* \"--CODEGEN--\":17689:17725   */\n      mstore\n        /* \"--CODEGEN--\":17753:17755   */\n      0x20\n        /* \"--CODEGEN--\":17748:17751   */\n      dup3\n        /* \"--CODEGEN--\":17744:17756   */\n      add\n        /* \"--CODEGEN--\":17737:17756   */\n      swap1\n      pop\n        /* \"--CODEGEN--\":17595:17762   */\n      swap2\n      swap1\n      pop\n      jump\t// out\n        /* \"--CODEGEN--\":17771:18086   */\n    tag_903:\n      0x00\n        /* \"--CODEGEN--\":17931:17998   */\n      tag_905\n        /* \"--CODEGEN--\":17995:17997   */\n      0x0f\n        /* \"--CODEGEN--\":17990:17993   */\n      dup4\n        /* \"--CODEGEN--\":17931:17998   */\n      tag_849\n      jump\t// in\n    tag_905:\n        /* \"--CODEGEN--\":17924:17998   */\n      swap2\n      pop\n        /* \"--CODEGEN--\":18031:18048   */\n      0x496e636f72726563742073746174650000000000000000000000000000000000\n        /* \"--CODEGEN--\":18027:18028   */\n      0x00\n        /* \"--CODEGEN--\":18022:18025   */\n      dup4\n        /* \"--CODEGEN--\":18018:18029   */\n      add\n        /* \"--CODEGEN--\":18011:18049   */\n      mstore\n        /* \"--CODEGEN--\":18077:18079   */\n      0x20\n        /* \"--CODEGEN--\":18072:18075   */\n      dup3\n        /* \"--CODEGEN--\":18068:18080   */\n      add\n        /* \"--CODEGEN--\":18061:18080   */\n      swap1\n      pop\n        /* \"--CODEGEN--\":17917:18086   */\n      swap2\n      swap1\n      pop\n      jump\t// out\n        /* \"--CODEGEN--\":18095:18474   */\n    tag_906:\n      0x00\n        /* \"--CODEGEN--\":18255:18322   */\n      tag_908\n        /* \"--CODEGEN--\":18319:18321   */\n      0x2a\n        /* \"--CODEGEN--\":18314:18317   */\n      dup4\n        /* \"--CODEGEN--\":18255:18322   */\n      tag_849\n      jump\t// in\n    tag_908:\n        /* \"--CODEGEN--\":18248:18322   */\n      swap2\n      pop\n        /* \"--CODEGEN--\":18355:18389   */\n      0x616c726561647920636f6d6d6974656420746869732065706f63682e2043616e\n        /* \"--CODEGEN--\":18351:18352   */\n      0x00\n        /* \"--CODEGEN--\":18346:18349   */\n      dup4\n        /* \"--CODEGEN--\":18342:18353   */\n      add\n        /* \"--CODEGEN--\":18335:18390   */\n      mstore\n        /* \"--CODEGEN--\":18424:18436   */\n      0x7420776974686472617700000000000000000000000000000000000000000000\n        /* \"--CODEGEN--\":18419:18421   */\n      0x20\n        /* \"--CODEGEN--\":18414:18417   */\n      dup4\n        /* \"--CODEGEN--\":18410:18422   */\n      add\n        /* \"--CODEGEN--\":18403:18437   */\n      mstore\n        /* \"--CODEGEN--\":18465:18467   */\n      0x40\n        /* \"--CODEGEN--\":18460:18463   */\n      dup3\n        /* \"--CODEGEN--\":18456:18468   */\n      add\n        /* \"--CODEGEN--\":18449:18468   */\n      swap1\n      pop\n        /* \"--CODEGEN--\":18241:18474   */\n      swap2\n      swap1\n      pop\n      jump\t// out\n        /* \"--CODEGEN--\":18483:18798   */\n    tag_909:\n      0x00\n        /* \"--CODEGEN--\":18643:18710   */\n      tag_911\n        /* \"--CODEGEN--\":18707:18709   */\n      0x0f\n        /* \"--CODEGEN--\":18702:18705   */\n      dup4\n        /* \"--CODEGEN--\":18643:18710   */\n      tag_849\n      jump\t// in\n    tag_911:\n        /* \"--CODEGEN--\":18636:18710   */\n      swap2\n      pop\n        /* \"--CODEGEN--\":18743:18760   */\n      0x446964206e6f7420756e7374616b650000000000000000000000000000000000\n        /* \"--CODEGEN--\":18739:18740   */\n      0x00\n        /* \"--CODEGEN--\":18734:18737   */\n      dup4\n        /* \"--CODEGEN--\":18730:18741   */\n      add\n        /* \"--CODEGEN--\":18723:18761   */\n      mstore\n        /* \"--CODEGEN--\":18789:18791   */\n      0x20\n        /* \"--CODEGEN--\":18784:18787   */\n      dup3\n        /* \"--CODEGEN--\":18780:18792   */\n      add\n        /* \"--CODEGEN--\":18773:18792   */\n      swap1\n      pop\n        /* \"--CODEGEN--\":18629:18798   */\n      swap2\n      swap1\n      pop\n      jump\t// out\n        /* \"--CODEGEN--\":18807:19122   */\n    tag_912:\n      0x00\n        /* \"--CODEGEN--\":18967:19034   */\n      tag_914\n        /* \"--CODEGEN--\":19031:19033   */\n      0x0f\n        /* \"--CODEGEN--\":19026:19029   */\n      dup4\n        /* \"--CODEGEN--\":18967:19034   */\n      tag_849\n      jump\t// in\n    tag_914:\n        /* \"--CODEGEN--\":18960:19034   */\n      swap2\n      pop\n        /* \"--CODEGEN--\":19067:19084   */\n      0x696e636f72726563742073746174650000000000000000000000000000000000\n        /* \"--CODEGEN--\":19063:19064   */\n      0x00\n        /* \"--CODEGEN--\":19058:19061   */\n      dup4\n        /* \"--CODEGEN--\":19054:19065   */\n      add\n        /* \"--CODEGEN--\":19047:19085   */\n      mstore\n        /* \"--CODEGEN--\":19113:19115   */\n      0x20\n        /* \"--CODEGEN--\":19108:19111   */\n      dup3\n        /* \"--CODEGEN--\":19104:19116   */\n      add\n        /* \"--CODEGEN--\":19097:19116   */\n      swap1\n      pop\n        /* \"--CODEGEN--\":18953:19122   */\n      swap2\n      swap1\n      pop\n      jump\t// out\n        /* \"--CODEGEN--\":19131:19516   */\n    tag_915:\n      0x00\n        /* \"--CODEGEN--\":19291:19358   */\n      tag_917\n        /* \"--CODEGEN--\":19355:19357   */\n      0x30\n        /* \"--CODEGEN--\":19350:19353   */\n      dup4\n        /* \"--CODEGEN--\":19291:19358   */\n      tag_849\n      jump\t// in\n    tag_917:\n        /* \"--CODEGEN--\":19284:19358   */\n      swap2\n      pop\n        /* \"--CODEGEN--\":19391:19425   */\n      0x577269746572526f6c653a2063616c6c657220646f6573206e6f742068617665\n        /* \"--CODEGEN--\":19387:19388   */\n      0x00\n        /* \"--CODEGEN--\":19382:19385   */\n      dup4\n        /* \"--CODEGEN--\":19378:19389   */\n      add\n        /* \"--CODEGEN--\":19371:19426   */\n      mstore\n        /* \"--CODEGEN--\":19460:19478   */\n      0x207468652057726974657220726f6c6500000000000000000000000000000000\n        /* \"--CODEGEN--\":19455:19457   */\n      0x20\n        /* \"--CODEGEN--\":19450:19453   */\n      dup4\n        /* \"--CODEGEN--\":19446:19458   */\n      add\n        /* \"--CODEGEN--\":19439:19479   */\n      mstore\n        /* \"--CODEGEN--\":19507:19509   */\n      0x40\n        /* \"--CODEGEN--\":19502:19505   */\n      dup3\n        /* \"--CODEGEN--\":19498:19510   */\n      add\n        /* \"--CODEGEN--\":19491:19510   */\n      swap1\n      pop\n        /* \"--CODEGEN--\":19277:19516   */\n      swap2\n      swap1\n      pop\n      jump\t// out\n        /* \"--CODEGEN--\":19525:19842   */\n    tag_918:\n      0x00\n        /* \"--CODEGEN--\":19685:19752   */\n      tag_920\n        /* \"--CODEGEN--\":19749:19751   */\n      0x11\n        /* \"--CODEGEN--\":19744:19747   */\n      dup4\n        /* \"--CODEGEN--\":19685:19752   */\n      tag_849\n      jump\t// in\n    tag_920:\n        /* \"--CODEGEN--\":19678:19752   */\n      swap2\n      pop\n        /* \"--CODEGEN--\":19785:19804   */\n      0x4e6f6e706f736974697665205374616b65000000000000000000000000000000\n        /* \"--CODEGEN--\":19781:19782   */\n      0x00\n        /* \"--CODEGEN--\":19776:19779   */\n      dup4\n        /* \"--CODEGEN--\":19772:19783   */\n      add\n        /* \"--CODEGEN--\":19765:19805   */\n      mstore\n        /* \"--CODEGEN--\":19833:19835   */\n      0x20\n        /* \"--CODEGEN--\":19828:19831   */\n      dup3\n        /* \"--CODEGEN--\":19824:19836   */\n      add\n        /* \"--CODEGEN--\":19817:19836   */\n      swap1\n      pop\n        /* \"--CODEGEN--\":19671:19842   */\n      swap2\n      swap1\n      pop\n      jump\t// out\n        /* \"--CODEGEN--\":19851:20235   */\n    tag_921:\n      0x00\n        /* \"--CODEGEN--\":20011:20078   */\n      tag_923\n        /* \"--CODEGEN--\":20075:20077   */\n      0x2f\n        /* \"--CODEGEN--\":20070:20073   */\n      dup4\n        /* \"--CODEGEN--\":20011:20078   */\n      tag_849\n      jump\t// in\n    tag_923:\n        /* \"--CODEGEN--\":20004:20078   */\n      swap2\n      pop\n        /* \"--CODEGEN--\":20111:20145   */\n      0x416363657373436f6e74726f6c3a2063616e206f6e6c792072656e6f756e6365\n        /* \"--CODEGEN--\":20107:20108   */\n      0x00\n        /* \"--CODEGEN--\":20102:20105   */\n      dup4\n        /* \"--CODEGEN--\":20098:20109   */\n      add\n        /* \"--CODEGEN--\":20091:20146   */\n      mstore\n        /* \"--CODEGEN--\":20180:20197   */\n      0x20726f6c657320666f722073656c660000000000000000000000000000000000\n        /* \"--CODEGEN--\":20175:20177   */\n      0x20\n        /* \"--CODEGEN--\":20170:20173   */\n      dup4\n        /* \"--CODEGEN--\":20166:20178   */\n      add\n        /* \"--CODEGEN--\":20159:20198   */\n      mstore\n        /* \"--CODEGEN--\":20226:20228   */\n      0x40\n        /* \"--CODEGEN--\":20221:20224   */\n      dup3\n        /* \"--CODEGEN--\":20217:20229   */\n      add\n        /* \"--CODEGEN--\":20210:20229   */\n      swap1\n      pop\n        /* \"--CODEGEN--\":19997:20235   */\n      swap2\n      swap1\n      pop\n      jump\t// out\n        /* \"--CODEGEN--\":20244:20630   */\n    tag_924:\n      0x00\n        /* \"--CODEGEN--\":20404:20471   */\n      tag_926\n        /* \"--CODEGEN--\":20468:20470   */\n      0x31\n        /* \"--CODEGEN--\":20463:20466   */\n      dup4\n        /* \"--CODEGEN--\":20404:20471   */\n      tag_849\n      jump\t// in\n    tag_926:\n        /* \"--CODEGEN--\":20397:20471   */\n      swap2\n      pop\n        /* \"--CODEGEN--\":20504:20538   */\n      0x7374616b656420616d6f756e74206973206c657373207468616e206d696e696d\n        /* \"--CODEGEN--\":20500:20501   */\n      0x00\n        /* \"--CODEGEN--\":20495:20498   */\n      dup4\n        /* \"--CODEGEN--\":20491:20502   */\n      add\n        /* \"--CODEGEN--\":20484:20539   */\n      mstore\n        /* \"--CODEGEN--\":20573:20592   */\n      0x756d207374616b65207265717569726564000000000000000000000000000000\n        /* \"--CODEGEN--\":20568:20570   */\n      0x20\n        /* \"--CODEGEN--\":20563:20566   */\n      dup4\n        /* \"--CODEGEN--\":20559:20571   */\n      add\n        /* \"--CODEGEN--\":20552:20593   */\n      mstore\n        /* \"--CODEGEN--\":20621:20623   */\n      0x40\n        /* \"--CODEGEN--\":20616:20619   */\n      dup3\n        /* \"--CODEGEN--\":20612:20624   */\n      add\n        /* \"--CODEGEN--\":20605:20624   */\n      swap1\n      pop\n        /* \"--CODEGEN--\":20390:20630   */\n      swap2\n      swap1\n      pop\n      jump\t// out\n        /* \"--CODEGEN--\":20691:22145   */\n    tag_927:\n        /* \"--CODEGEN--\":20832:20838   */\n      0x0100\n        /* \"--CODEGEN--\":20827:20830   */\n      dup3\n        /* \"--CODEGEN--\":20823:20839   */\n      add\n        /* \"--CODEGEN--\":20915:20919   */\n      0x00\n        /* \"--CODEGEN--\":20908:20913   */\n      dup3\n        /* \"--CODEGEN--\":20904:20920   */\n      add\n        /* \"--CODEGEN--\":20898:20921   */\n      mload\n        /* \"--CODEGEN--\":20927:20990   */\n      tag_929\n        /* \"--CODEGEN--\":20984:20988   */\n      0x00\n        /* \"--CODEGEN--\":20979:20982   */\n      dup6\n        /* \"--CODEGEN--\":20975:20989   */\n      add\n        /* \"--CODEGEN--\":20961:20973   */\n      dup3\n        /* \"--CODEGEN--\":20927:20990   */\n      tag_930\n      jump\t// in\n    tag_929:\n        /* \"--CODEGEN--\":20854:20996   */\n      pop\n        /* \"--CODEGEN--\":21073:21077   */\n      0x20\n        /* \"--CODEGEN--\":21066:21071   */\n      dup3\n        /* \"--CODEGEN--\":21062:21078   */\n      add\n        /* \"--CODEGEN--\":21056:21079   */\n      mload\n        /* \"--CODEGEN--\":21085:21148   */\n      tag_931\n        /* \"--CODEGEN--\":21142:21146   */\n      0x20\n        /* \"--CODEGEN--\":21137:21140   */\n      dup6\n        /* \"--CODEGEN--\":21133:21147   */\n      add\n        /* \"--CODEGEN--\":21119:21131   */\n      dup3\n        /* \"--CODEGEN--\":21085:21148   */\n      tag_809\n      jump\t// in\n    tag_931:\n        /* \"--CODEGEN--\":21006:21154   */\n      pop\n        /* \"--CODEGEN--\":21228:21232   */\n      0x40\n        /* \"--CODEGEN--\":21221:21226   */\n      dup3\n        /* \"--CODEGEN--\":21217:21233   */\n      add\n        /* \"--CODEGEN--\":21211:21234   */\n      mload\n        /* \"--CODEGEN--\":21240:21303   */\n      tag_932\n        /* \"--CODEGEN--\":21297:21301   */\n      0x40\n        /* \"--CODEGEN--\":21292:21295   */\n      dup6\n        /* \"--CODEGEN--\":21288:21302   */\n      add\n        /* \"--CODEGEN--\":21274:21286   */\n      dup3\n        /* \"--CODEGEN--\":21240:21303   */\n      tag_930\n      jump\t// in\n    tag_932:\n        /* \"--CODEGEN--\":21164:21309   */\n      pop\n        /* \"--CODEGEN--\":21389:21393   */\n      0x60\n        /* \"--CODEGEN--\":21382:21387   */\n      dup3\n        /* \"--CODEGEN--\":21378:21394   */\n      add\n        /* \"--CODEGEN--\":21372:21395   */\n      mload\n        /* \"--CODEGEN--\":21401:21464   */\n      tag_933\n        /* \"--CODEGEN--\":21458:21462   */\n      0x60\n        /* \"--CODEGEN--\":21453:21456   */\n      dup6\n        /* \"--CODEGEN--\":21449:21463   */\n      add\n        /* \"--CODEGEN--\":21435:21447   */\n      dup3\n        /* \"--CODEGEN--\":21401:21464   */\n      tag_930\n      jump\t// in\n    tag_933:\n        /* \"--CODEGEN--\":21319:21470   */\n      pop\n        /* \"--CODEGEN--\":21557:21561   */\n      0x80\n        /* \"--CODEGEN--\":21550:21555   */\n      dup3\n        /* \"--CODEGEN--\":21546:21562   */\n      add\n        /* \"--CODEGEN--\":21540:21563   */\n      mload\n        /* \"--CODEGEN--\":21569:21632   */\n      tag_934\n        /* \"--CODEGEN--\":21626:21630   */\n      0x80\n        /* \"--CODEGEN--\":21621:21624   */\n      dup6\n        /* \"--CODEGEN--\":21617:21631   */\n      add\n        /* \"--CODEGEN--\":21603:21615   */\n      dup3\n        /* \"--CODEGEN--\":21569:21632   */\n      tag_930\n      jump\t// in\n    tag_934:\n        /* \"--CODEGEN--\":21480:21638   */\n      pop\n        /* \"--CODEGEN--\":21724:21728   */\n      0xa0\n        /* \"--CODEGEN--\":21717:21722   */\n      dup3\n        /* \"--CODEGEN--\":21713:21729   */\n      add\n        /* \"--CODEGEN--\":21707:21730   */\n      mload\n        /* \"--CODEGEN--\":21736:21799   */\n      tag_935\n        /* \"--CODEGEN--\":21793:21797   */\n      0xa0\n        /* \"--CODEGEN--\":21788:21791   */\n      dup6\n        /* \"--CODEGEN--\":21784:21798   */\n      add\n        /* \"--CODEGEN--\":21770:21782   */\n      dup3\n        /* \"--CODEGEN--\":21736:21799   */\n      tag_930\n      jump\t// in\n    tag_935:\n        /* \"--CODEGEN--\":21648:21805   */\n      pop\n        /* \"--CODEGEN--\":21886:21890   */\n      0xc0\n        /* \"--CODEGEN--\":21879:21884   */\n      dup3\n        /* \"--CODEGEN--\":21875:21891   */\n      add\n        /* \"--CODEGEN--\":21869:21892   */\n      mload\n        /* \"--CODEGEN--\":21898:21961   */\n      tag_936\n        /* \"--CODEGEN--\":21955:21959   */\n      0xc0\n        /* \"--CODEGEN--\":21950:21953   */\n      dup6\n        /* \"--CODEGEN--\":21946:21960   */\n      add\n        /* \"--CODEGEN--\":21932:21944   */\n      dup3\n        /* \"--CODEGEN--\":21898:21961   */\n      tag_930\n      jump\t// in\n    tag_936:\n        /* \"--CODEGEN--\":21815:21967   */\n      pop\n        /* \"--CODEGEN--\":22049:22053   */\n      0xe0\n        /* \"--CODEGEN--\":22042:22047   */\n      dup3\n        /* \"--CODEGEN--\":22038:22054   */\n      add\n        /* \"--CODEGEN--\":22032:22055   */\n      mload\n        /* \"--CODEGEN--\":22061:22124   */\n      tag_937\n        /* \"--CODEGEN--\":22118:22122   */\n      0xe0\n        /* \"--CODEGEN--\":22113:22116   */\n      dup6\n        /* \"--CODEGEN--\":22109:22123   */\n      add\n        /* \"--CODEGEN--\":22095:22107   */\n      dup3\n        /* \"--CODEGEN--\":22061:22124   */\n      tag_930\n      jump\t// in\n    tag_937:\n        /* \"--CODEGEN--\":21977:22130   */\n      pop\n        /* \"--CODEGEN--\":20805:22145   */\n      pop\n      pop\n      pop\n      jump\t// out\n        /* \"--CODEGEN--\":22152:22255   */\n    tag_930:\n        /* \"--CODEGEN--\":22225:22249   */\n      tag_939\n        /* \"--CODEGEN--\":22243:22248   */\n      dup2\n        /* \"--CODEGEN--\":22225:22249   */\n      tag_940\n      jump\t// in\n    tag_939:\n        /* \"--CODEGEN--\":22220:22223   */\n      dup3\n        /* \"--CODEGEN--\":22213:22250   */\n      mstore\n        /* \"--CODEGEN--\":22207:22255   */\n      pop\n      pop\n      jump\t// out\n        /* \"--CODEGEN--\":22262:22375   */\n    tag_941:\n        /* \"--CODEGEN--\":22345:22369   */\n      tag_943\n        /* \"--CODEGEN--\":22363:22368   */\n      dup2\n        /* \"--CODEGEN--\":22345:22369   */\n      tag_940\n      jump\t// in\n    tag_943:\n        /* \"--CODEGEN--\":22340:22343   */\n      dup3\n        /* \"--CODEGEN--\":22333:22370   */\n      mstore\n        /* \"--CODEGEN--\":22327:22375   */\n      pop\n      pop\n      jump\t// out\n        /* \"--CODEGEN--\":22382:22763   */\n    tag_244:\n      0x00\n        /* \"--CODEGEN--\":22590:22738   */\n      tag_945\n        /* \"--CODEGEN--\":22734:22737   */\n      dup3\n        /* \"--CODEGEN--\":22590:22738   */\n      tag_878\n      jump\t// in\n    tag_945:\n        /* \"--CODEGEN--\":22583:22738   */\n      swap2\n      pop\n        /* \"--CODEGEN--\":22755:22758   */\n      dup2\n        /* \"--CODEGEN--\":22748:22758   */\n      swap1\n      pop\n        /* \"--CODEGEN--\":22571:22763   */\n      swap2\n      swap1\n      pop\n      jump\t// out\n        /* \"--CODEGEN--\":22770:22992   */\n    tag_131:\n      0x00\n        /* \"--CODEGEN--\":22897:22899   */\n      0x20\n        /* \"--CODEGEN--\":22886:22895   */\n      dup3\n        /* \"--CODEGEN--\":22882:22900   */\n      add\n        /* \"--CODEGEN--\":22874:22900   */\n      swap1\n      pop\n        /* \"--CODEGEN--\":22911:22982   */\n      tag_947\n        /* \"--CODEGEN--\":22979:22980   */\n      0x00\n        /* \"--CODEGEN--\":22968:22977   */\n      dup4\n        /* \"--CODEGEN--\":22964:22981   */\n      add\n        /* \"--CODEGEN--\":22955:22961   */\n      dup5\n        /* \"--CODEGEN--\":22911:22982   */\n      tag_813\n      jump\t// in\n    tag_947:\n        /* \"--CODEGEN--\":22868:22992   */\n      swap3\n      swap2\n      pop\n      pop\n      jump\t// out\n        /* \"--CODEGEN--\":22999:23459   */\n    tag_432:\n      0x00\n        /* \"--CODEGEN--\":23190:23192   */\n      0x60\n        /* \"--CODEGEN--\":23179:23188   */\n      dup3\n        /* \"--CODEGEN--\":23175:23193   */\n      add\n        /* \"--CODEGEN--\":23167:23193   */\n      swap1\n      pop\n        /* \"--CODEGEN--\":23204:23283   */\n      tag_949\n        /* \"--CODEGEN--\":23280:23281   */\n      0x00\n        /* \"--CODEGEN--\":23269:23278   */\n      dup4\n        /* \"--CODEGEN--\":23265:23282   */\n      add\n        /* \"--CODEGEN--\":23256:23262   */\n      dup7\n        /* \"--CODEGEN--\":23204:23283   */\n      tag_805\n      jump\t// in\n    tag_949:\n        /* \"--CODEGEN--\":23294:23366   */\n      tag_950\n        /* \"--CODEGEN--\":23362:23364   */\n      0x20\n        /* \"--CODEGEN--\":23351:23360   */\n      dup4\n        /* \"--CODEGEN--\":23347:23365   */\n      add\n        /* \"--CODEGEN--\":23338:23344   */\n      dup6\n        /* \"--CODEGEN--\":23294:23366   */\n      tag_813\n      jump\t// in\n    tag_950:\n        /* \"--CODEGEN--\":23377:23449   */\n      tag_951\n        /* \"--CODEGEN--\":23445:23447   */\n      0x40\n        /* \"--CODEGEN--\":23434:23443   */\n      dup4\n        /* \"--CODEGEN--\":23430:23448   */\n      add\n        /* \"--CODEGEN--\":23421:23427   */\n      dup5\n        /* \"--CODEGEN--\":23377:23449   */\n      tag_941\n      jump\t// in\n    tag_951:\n        /* \"--CODEGEN--\":23161:23459   */\n      swap5\n      swap4\n      pop\n      pop\n      pop\n      pop\n      jump\t// out\n        /* \"--CODEGEN--\":23466:23815   */\n    tag_336:\n      0x00\n        /* \"--CODEGEN--\":23629:23631   */\n      0x40\n        /* \"--CODEGEN--\":23618:23627   */\n      dup3\n        /* \"--CODEGEN--\":23614:23632   */\n      add\n        /* \"--CODEGEN--\":23606:23632   */\n      swap1\n      pop\n        /* \"--CODEGEN--\":23643:23722   */\n      tag_953\n        /* \"--CODEGEN--\":23719:23720   */\n      0x00\n        /* \"--CODEGEN--\":23708:23717   */\n      dup4\n        /* \"--CODEGEN--\":23704:23721   */\n      add\n        /* \"--CODEGEN--\":23695:23701   */\n      dup6\n        /* \"--CODEGEN--\":23643:23722   */\n      tag_805\n      jump\t// in\n    tag_953:\n        /* \"--CODEGEN--\":23733:23805   */\n      tag_954\n        /* \"--CODEGEN--\":23801:23803   */\n      0x20\n        /* \"--CODEGEN--\":23790:23799   */\n      dup4\n        /* \"--CODEGEN--\":23786:23804   */\n      add\n        /* \"--CODEGEN--\":23777:23783   */\n      dup5\n        /* \"--CODEGEN--\":23733:23805   */\n      tag_941\n      jump\t// in\n    tag_954:\n        /* \"--CODEGEN--\":23600:23815   */\n      swap4\n      swap3\n      pop\n      pop\n      pop\n      jump\t// out\n        /* \"--CODEGEN--\":23822:24155   */\n    tag_200:\n      0x00\n        /* \"--CODEGEN--\":23977:23979   */\n      0x40\n        /* \"--CODEGEN--\":23966:23975   */\n      dup3\n        /* \"--CODEGEN--\":23962:23980   */\n      add\n        /* \"--CODEGEN--\":23954:23980   */\n      swap1\n      pop\n        /* \"--CODEGEN--\":23991:24062   */\n      tag_956\n        /* \"--CODEGEN--\":24059:24060   */\n      0x00\n        /* \"--CODEGEN--\":24048:24057   */\n      dup4\n        /* \"--CODEGEN--\":24044:24061   */\n      add\n        /* \"--CODEGEN--\":24035:24041   */\n      dup6\n        /* \"--CODEGEN--\":23991:24062   */\n      tag_813\n      jump\t// in\n    tag_956:\n        /* \"--CODEGEN--\":24073:24145   */\n      tag_957\n        /* \"--CODEGEN--\":24141:24143   */\n      0x20\n        /* \"--CODEGEN--\":24130:24139   */\n      dup4\n        /* \"--CODEGEN--\":24126:24144   */\n      add\n        /* \"--CODEGEN--\":24117:24123   */\n      dup5\n        /* \"--CODEGEN--\":24073:24145   */\n      tag_941\n      jump\t// in\n    tag_957:\n        /* \"--CODEGEN--\":23948:24155   */\n      swap4\n      swap3\n      pop\n      pop\n      pop\n      jump\t// out\n        /* \"--CODEGEN--\":24162:24372   */\n    tag_85:\n      0x00\n        /* \"--CODEGEN--\":24283:24285   */\n      0x20\n        /* \"--CODEGEN--\":24272:24281   */\n      dup3\n        /* \"--CODEGEN--\":24268:24286   */\n      add\n        /* \"--CODEGEN--\":24260:24286   */\n      swap1\n      pop\n        /* \"--CODEGEN--\":24297:24362   */\n      tag_959\n        /* \"--CODEGEN--\":24359:24360   */\n      0x00\n        /* \"--CODEGEN--\":24348:24357   */\n      dup4\n        /* \"--CODEGEN--\":24344:24361   */\n      add\n        /* \"--CODEGEN--\":24335:24341   */\n      dup5\n        /* \"--CODEGEN--\":24297:24362   */\n      tag_816\n      jump\t// in\n    tag_959:\n        /* \"--CODEGEN--\":24254:24372   */\n      swap3\n      swap2\n      pop\n      pop\n      jump\t// out\n        /* \"--CODEGEN--\":24379:24601   */\n    tag_79:\n      0x00\n        /* \"--CODEGEN--\":24506:24508   */\n      0x20\n        /* \"--CODEGEN--\":24495:24504   */\n      dup3\n        /* \"--CODEGEN--\":24491:24509   */\n      add\n        /* \"--CODEGEN--\":24483:24509   */\n      swap1\n      pop\n        /* \"--CODEGEN--\":24520:24591   */\n      tag_961\n        /* \"--CODEGEN--\":24588:24589   */\n      0x00\n        /* \"--CODEGEN--\":24577:24586   */\n      dup4\n        /* \"--CODEGEN--\":24573:24590   */\n      add\n        /* \"--CODEGEN--\":24564:24570   */\n      dup5\n        /* \"--CODEGEN--\":24520:24591   */\n      tag_820\n      jump\t// in\n    tag_961:\n        /* \"--CODEGEN--\":24477:24601   */\n      swap3\n      swap2\n      pop\n      pop\n      jump\t// out\n        /* \"--CODEGEN--\":24608:24874   */\n    tag_167:\n      0x00\n        /* \"--CODEGEN--\":24757:24759   */\n      0x20\n        /* \"--CODEGEN--\":24746:24755   */\n      dup3\n        /* \"--CODEGEN--\":24742:24760   */\n      add\n        /* \"--CODEGEN--\":24734:24760   */\n      swap1\n      pop\n        /* \"--CODEGEN--\":24771:24864   */\n      tag_963\n        /* \"--CODEGEN--\":24861:24862   */\n      0x00\n        /* \"--CODEGEN--\":24850:24859   */\n      dup4\n        /* \"--CODEGEN--\":24846:24863   */\n      add\n        /* \"--CODEGEN--\":24837:24843   */\n      dup5\n        /* \"--CODEGEN--\":24771:24864   */\n      tag_824\n      jump\t// in\n    tag_963:\n        /* \"--CODEGEN--\":24728:24874   */\n      swap3\n      swap2\n      pop\n      pop\n      jump\t// out\n        /* \"--CODEGEN--\":24881:25147   */\n    tag_95:\n      0x00\n        /* \"--CODEGEN--\":25030:25032   */\n      0x20\n        /* \"--CODEGEN--\":25019:25028   */\n      dup3\n        /* \"--CODEGEN--\":25015:25033   */\n      add\n        /* \"--CODEGEN--\":25007:25033   */\n      swap1\n      pop\n        /* \"--CODEGEN--\":25044:25137   */\n      tag_965\n        /* \"--CODEGEN--\":25134:25135   */\n      0x00\n        /* \"--CODEGEN--\":25123:25132   */\n      dup4\n        /* \"--CODEGEN--\":25119:25136   */\n      add\n        /* \"--CODEGEN--\":25110:25116   */\n      dup5\n        /* \"--CODEGEN--\":25044:25137   */\n      tag_828\n      jump\t// in\n    tag_965:\n        /* \"--CODEGEN--\":25001:25147   */\n      swap3\n      swap2\n      pop\n      pop\n      jump\t// out\n        /* \"--CODEGEN--\":25154:25418   */\n    tag_106:\n      0x00\n        /* \"--CODEGEN--\":25302:25304   */\n      0x20\n        /* \"--CODEGEN--\":25291:25300   */\n      dup3\n        /* \"--CODEGEN--\":25287:25305   */\n      add\n        /* \"--CODEGEN--\":25279:25305   */\n      swap1\n      pop\n        /* \"--CODEGEN--\":25316:25408   */\n      tag_967\n        /* \"--CODEGEN--\":25405:25406   */\n      0x00\n        /* \"--CODEGEN--\":25394:25403   */\n      dup4\n        /* \"--CODEGEN--\":25390:25407   */\n      add\n        /* \"--CODEGEN--\":25381:25387   */\n      dup5\n        /* \"--CODEGEN--\":25316:25408   */\n      tag_832\n      jump\t// in\n    tag_967:\n        /* \"--CODEGEN--\":25273:25418   */\n      swap3\n      swap2\n      pop\n      pop\n      jump\t// out\n        /* \"--CODEGEN--\":25425:25691   */\n    tag_152:\n      0x00\n        /* \"--CODEGEN--\":25574:25576   */\n      0x20\n        /* \"--CODEGEN--\":25563:25572   */\n      dup3\n        /* \"--CODEGEN--\":25559:25577   */\n      add\n        /* \"--CODEGEN--\":25551:25577   */\n      swap1\n      pop\n        /* \"--CODEGEN--\":25588:25681   */\n      tag_969\n        /* \"--CODEGEN--\":25678:25679   */\n      0x00\n        /* \"--CODEGEN--\":25667:25676   */\n      dup4\n        /* \"--CODEGEN--\":25663:25680   */\n      add\n        /* \"--CODEGEN--\":25654:25660   */\n      dup5\n        /* \"--CODEGEN--\":25588:25681   */\n      tag_836\n      jump\t// in\n    tag_969:\n        /* \"--CODEGEN--\":25545:25691   */\n      swap3\n      swap2\n      pop\n      pop\n      jump\t// out\n        /* \"--CODEGEN--\":25698:26008   */\n    tag_641:\n      0x00\n        /* \"--CODEGEN--\":25845:25847   */\n      0x20\n        /* \"--CODEGEN--\":25834:25843   */\n      dup3\n        /* \"--CODEGEN--\":25830:25848   */\n      add\n        /* \"--CODEGEN--\":25822:25848   */\n      swap1\n      pop\n        /* \"--CODEGEN--\":25895:25904   */\n      dup2\n        /* \"--CODEGEN--\":25889:25893   */\n      dup2\n        /* \"--CODEGEN--\":25885:25905   */\n      sub\n        /* \"--CODEGEN--\":25881:25882   */\n      0x00\n        /* \"--CODEGEN--\":25870:25879   */\n      dup4\n        /* \"--CODEGEN--\":25866:25883   */\n      add\n        /* \"--CODEGEN--\":25859:25906   */\n      mstore\n        /* \"--CODEGEN--\":25920:25998   */\n      tag_971\n        /* \"--CODEGEN--\":25993:25997   */\n      dup2\n        /* \"--CODEGEN--\":25984:25990   */\n      dup5\n        /* \"--CODEGEN--\":25920:25998   */\n      tag_844\n      jump\t// in\n    tag_971:\n        /* \"--CODEGEN--\":25912:25998   */\n      swap1\n      pop\n        /* \"--CODEGEN--\":25816:26008   */\n      swap3\n      swap2\n      pop\n      pop\n      jump\t// out\n        /* \"--CODEGEN--\":26015:26431   */\n    tag_663:\n      0x00\n        /* \"--CODEGEN--\":26215:26217   */\n      0x20\n        /* \"--CODEGEN--\":26204:26213   */\n      dup3\n        /* \"--CODEGEN--\":26200:26218   */\n      add\n        /* \"--CODEGEN--\":26192:26218   */\n      swap1\n      pop\n        /* \"--CODEGEN--\":26265:26274   */\n      dup2\n        /* \"--CODEGEN--\":26259:26263   */\n      dup2\n        /* \"--CODEGEN--\":26255:26275   */\n      sub\n        /* \"--CODEGEN--\":26251:26252   */\n      0x00\n        /* \"--CODEGEN--\":26240:26249   */\n      dup4\n        /* \"--CODEGEN--\":26236:26253   */\n      add\n        /* \"--CODEGEN--\":26229:26276   */\n      mstore\n        /* \"--CODEGEN--\":26290:26421   */\n      tag_973\n        /* \"--CODEGEN--\":26416:26420   */\n      dup2\n        /* \"--CODEGEN--\":26290:26421   */\n      tag_854\n      jump\t// in\n    tag_973:\n        /* \"--CODEGEN--\":26282:26421   */\n      swap1\n      pop\n        /* \"--CODEGEN--\":26186:26431   */\n      swap2\n      swap1\n      pop\n      jump\t// out\n        /* \"--CODEGEN--\":26438:26854   */\n    tag_350:\n      0x00\n        /* \"--CODEGEN--\":26638:26640   */\n      0x20\n        /* \"--CODEGEN--\":26627:26636   */\n      dup3\n        /* \"--CODEGEN--\":26623:26641   */\n      add\n        /* \"--CODEGEN--\":26615:26641   */\n      swap1\n      pop\n        /* \"--CODEGEN--\":26688:26697   */\n      dup2\n        /* \"--CODEGEN--\":26682:26686   */\n      dup2\n        /* \"--CODEGEN--\":26678:26698   */\n      sub\n        /* \"--CODEGEN--\":26674:26675   */\n      0x00\n        /* \"--CODEGEN--\":26663:26672   */\n      dup4\n        /* \"--CODEGEN--\":26659:26676   */\n      add\n        /* \"--CODEGEN--\":26652:26699   */\n      mstore\n        /* \"--CODEGEN--\":26713:26844   */\n      tag_975\n        /* \"--CODEGEN--\":26839:26843   */\n      dup2\n        /* \"--CODEGEN--\":26713:26844   */\n      tag_857\n      jump\t// in\n    tag_975:\n        /* \"--CODEGEN--\":26705:26844   */\n      swap1\n      pop\n        /* \"--CODEGEN--\":26609:26854   */\n      swap2\n      swap1\n      pop\n      jump\t// out\n        /* \"--CODEGEN--\":26861:27277   */\n    tag_317:\n      0x00\n        /* \"--CODEGEN--\":27061:27063   */\n      0x20\n        /* \"--CODEGEN--\":27050:27059   */\n      dup3\n        /* \"--CODEGEN--\":27046:27064   */\n      add\n        /* \"--CODEGEN--\":27038:27064   */\n      swap1\n      pop\n        /* \"--CODEGEN--\":27111:27120   */\n      dup2\n        /* \"--CODEGEN--\":27105:27109   */\n      dup2\n        /* \"--CODEGEN--\":27101:27121   */\n      sub\n        /* \"--CODEGEN--\":27097:27098   */\n      0x00\n        /* \"--CODEGEN--\":27086:27095   */\n      dup4\n        /* \"--CODEGEN--\":27082:27099   */\n      add\n        /* \"--CODEGEN--\":27075:27122   */\n      mstore\n        /* \"--CODEGEN--\":27136:27267   */\n      tag_977\n        /* \"--CODEGEN--\":27262:27266   */\n      dup2\n        /* \"--CODEGEN--\":27136:27267   */\n      tag_860\n      jump\t// in\n    tag_977:\n        /* \"--CODEGEN--\":27128:27267   */\n      swap1\n      pop\n        /* \"--CODEGEN--\":27032:27277   */\n      swap2\n      swap1\n      pop\n      jump\t// out\n        /* \"--CODEGEN--\":27284:27700   */\n    tag_567:\n      0x00\n        /* \"--CODEGEN--\":27484:27486   */\n      0x20\n        /* \"--CODEGEN--\":27473:27482   */\n      dup3\n        /* \"--CODEGEN--\":27469:27487   */\n      add\n        /* \"--CODEGEN--\":27461:27487   */\n      swap1\n      pop\n        /* \"--CODEGEN--\":27534:27543   */\n      dup2\n        /* \"--CODEGEN--\":27528:27532   */\n      dup2\n        /* \"--CODEGEN--\":27524:27544   */\n      sub\n        /* \"--CODEGEN--\":27520:27521   */\n      0x00\n        /* \"--CODEGEN--\":27509:27518   */\n      dup4\n        /* \"--CODEGEN--\":27505:27522   */\n      add\n        /* \"--CODEGEN--\":27498:27545   */\n      mstore\n        /* \"--CODEGEN--\":27559:27690   */\n      tag_979\n        /* \"--CODEGEN--\":27685:27689   */\n      dup2\n        /* \"--CODEGEN--\":27559:27690   */\n      tag_863\n      jump\t// in\n    tag_979:\n        /* \"--CODEGEN--\":27551:27690   */\n      swap1\n      pop\n        /* \"--CODEGEN--\":27455:27700   */\n      swap2\n      swap1\n      pop\n      jump\t// out\n        /* \"--CODEGEN--\":27707:28123   */\n    tag_208:\n      0x00\n        /* \"--CODEGEN--\":27907:27909   */\n      0x20\n        /* \"--CODEGEN--\":27896:27905   */\n      dup3\n        /* \"--CODEGEN--\":27892:27910   */\n      add\n        /* \"--CODEGEN--\":27884:27910   */\n      swap1\n      pop\n        /* \"--CODEGEN--\":27957:27966   */\n      dup2\n        /* \"--CODEGEN--\":27951:27955   */\n      dup2\n        /* \"--CODEGEN--\":27947:27967   */\n      sub\n        /* \"--CODEGEN--\":27943:27944   */\n      0x00\n        /* \"--CODEGEN--\":27932:27941   */\n      dup4\n        /* \"--CODEGEN--\":27928:27945   */\n      add\n        /* \"--CODEGEN--\":27921:27968   */\n      mstore\n        /* \"--CODEGEN--\":27982:28113   */\n      tag_981\n        /* \"--CODEGEN--\":28108:28112   */\n      dup2\n        /* \"--CODEGEN--\":27982:28113   */\n      tag_866\n      jump\t// in\n    tag_981:\n        /* \"--CODEGEN--\":27974:28113   */\n      swap1\n      pop\n        /* \"--CODEGEN--\":27878:28123   */\n      swap2\n      swap1\n      pop\n      jump\t// out\n        /* \"--CODEGEN--\":28130:28546   */\n    tag_481:\n      0x00\n        /* \"--CODEGEN--\":28330:28332   */\n      0x20\n        /* \"--CODEGEN--\":28319:28328   */\n      dup3\n        /* \"--CODEGEN--\":28315:28333   */\n      add\n        /* \"--CODEGEN--\":28307:28333   */\n      swap1\n      pop\n        /* \"--CODEGEN--\":28380:28389   */\n      dup2\n        /* \"--CODEGEN--\":28374:28378   */\n      dup2\n        /* \"--CODEGEN--\":28370:28390   */\n      sub\n        /* \"--CODEGEN--\":28366:28367   */\n      0x00\n        /* \"--CODEGEN--\":28355:28364   */\n      dup4\n        /* \"--CODEGEN--\":28351:28368   */\n      add\n        /* \"--CODEGEN--\":28344:28391   */\n      mstore\n        /* \"--CODEGEN--\":28405:28536   */\n      tag_983\n        /* \"--CODEGEN--\":28531:28535   */\n      dup2\n        /* \"--CODEGEN--\":28405:28536   */\n      tag_869\n      jump\t// in\n    tag_983:\n        /* \"--CODEGEN--\":28397:28536   */\n      swap1\n      pop\n        /* \"--CODEGEN--\":28301:28546   */\n      swap2\n      swap1\n      pop\n      jump\t// out\n        /* \"--CODEGEN--\":28553:28969   */\n    tag_272:\n      0x00\n        /* \"--CODEGEN--\":28753:28755   */\n      0x20\n        /* \"--CODEGEN--\":28742:28751   */\n      dup3\n        /* \"--CODEGEN--\":28738:28756   */\n      add\n        /* \"--CODEGEN--\":28730:28756   */\n      swap1\n      pop\n        /* \"--CODEGEN--\":28803:28812   */\n      dup2\n        /* \"--CODEGEN--\":28797:28801   */\n      dup2\n        /* \"--CODEGEN--\":28793:28813   */\n      sub\n        /* \"--CODEGEN--\":28789:28790   */\n      0x00\n        /* \"--CODEGEN--\":28778:28787   */\n      dup4\n        /* \"--CODEGEN--\":28774:28791   */\n      add\n        /* \"--CODEGEN--\":28767:28814   */\n      mstore\n        /* \"--CODEGEN--\":28828:28959   */\n      tag_985\n        /* \"--CODEGEN--\":28954:28958   */\n      dup2\n        /* \"--CODEGEN--\":28828:28959   */\n      tag_872\n      jump\t// in\n    tag_985:\n        /* \"--CODEGEN--\":28820:28959   */\n      swap1\n      pop\n        /* \"--CODEGEN--\":28724:28969   */\n      swap2\n      swap1\n      pop\n      jump\t// out\n        /* \"--CODEGEN--\":28976:29392   */\n    tag_439:\n      0x00\n        /* \"--CODEGEN--\":29176:29178   */\n      0x20\n        /* \"--CODEGEN--\":29165:29174   */\n      dup3\n        /* \"--CODEGEN--\":29161:29179   */\n      add\n        /* \"--CODEGEN--\":29153:29179   */\n      swap1\n      pop\n        /* \"--CODEGEN--\":29226:29235   */\n      dup2\n        /* \"--CODEGEN--\":29220:29224   */\n      dup2\n        /* \"--CODEGEN--\":29216:29236   */\n      sub\n        /* \"--CODEGEN--\":29212:29213   */\n      0x00\n        /* \"--CODEGEN--\":29201:29210   */\n      dup4\n        /* \"--CODEGEN--\":29197:29214   */\n      add\n        /* \"--CODEGEN--\":29190:29237   */\n      mstore\n        /* \"--CODEGEN--\":29251:29382   */\n      tag_987\n        /* \"--CODEGEN--\":29377:29381   */\n      dup2\n        /* \"--CODEGEN--\":29251:29382   */\n      tag_875\n      jump\t// in\n    tag_987:\n        /* \"--CODEGEN--\":29243:29382   */\n      swap1\n      pop\n        /* \"--CODEGEN--\":29147:29392   */\n      swap2\n      swap1\n      pop\n      jump\t// out\n        /* \"--CODEGEN--\":29399:29815   */\n    tag_343:\n      0x00\n        /* \"--CODEGEN--\":29599:29601   */\n      0x20\n        /* \"--CODEGEN--\":29588:29597   */\n      dup3\n        /* \"--CODEGEN--\":29584:29602   */\n      add\n        /* \"--CODEGEN--\":29576:29602   */\n      swap1\n      pop\n        /* \"--CODEGEN--\":29649:29658   */\n      dup2\n        /* \"--CODEGEN--\":29643:29647   */\n      dup2\n        /* \"--CODEGEN--\":29639:29659   */\n      sub\n        /* \"--CODEGEN--\":29635:29636   */\n      0x00\n        /* \"--CODEGEN--\":29624:29633   */\n      dup4\n        /* \"--CODEGEN--\":29620:29637   */\n      add\n        /* \"--CODEGEN--\":29613:29660   */\n      mstore\n        /* \"--CODEGEN--\":29674:29805   */\n      tag_989\n        /* \"--CODEGEN--\":29800:29804   */\n      dup2\n        /* \"--CODEGEN--\":29674:29805   */\n      tag_882\n      jump\t// in\n    tag_989:\n        /* \"--CODEGEN--\":29666:29805   */\n      swap1\n      pop\n        /* \"--CODEGEN--\":29570:29815   */\n      swap2\n      swap1\n      pop\n      jump\t// out\n        /* \"--CODEGEN--\":29822:30238   */\n    tag_560:\n      0x00\n        /* \"--CODEGEN--\":30022:30024   */\n      0x20\n        /* \"--CODEGEN--\":30011:30020   */\n      dup3\n        /* \"--CODEGEN--\":30007:30025   */\n      add\n        /* \"--CODEGEN--\":29999:30025   */\n      swap1\n      pop\n        /* \"--CODEGEN--\":30072:30081   */\n      dup2\n        /* \"--CODEGEN--\":30066:30070   */\n      dup2\n        /* \"--CODEGEN--\":30062:30082   */\n      sub\n        /* \"--CODEGEN--\":30058:30059   */\n      0x00\n        /* \"--CODEGEN--\":30047:30056   */\n      dup4\n        /* \"--CODEGEN--\":30043:30060   */\n      add\n        /* \"--CODEGEN--\":30036:30083   */\n      mstore\n        /* \"--CODEGEN--\":30097:30228   */\n      tag_991\n        /* \"--CODEGEN--\":30223:30227   */\n      dup2\n        /* \"--CODEGEN--\":30097:30228   */\n      tag_885\n      jump\t// in\n    tag_991:\n        /* \"--CODEGEN--\":30089:30228   */\n      swap1\n      pop\n        /* \"--CODEGEN--\":29993:30238   */\n      swap2\n      swap1\n      pop\n      jump\t// out\n        /* \"--CODEGEN--\":30245:30661   */\n    tag_252:\n      0x00\n        /* \"--CODEGEN--\":30445:30447   */\n      0x20\n        /* \"--CODEGEN--\":30434:30443   */\n      dup3\n        /* \"--CODEGEN--\":30430:30448   */\n      add\n        /* \"--CODEGEN--\":30422:30448   */\n      swap1\n      pop\n        /* \"--CODEGEN--\":30495:30504   */\n      dup2\n        /* \"--CODEGEN--\":30489:30493   */\n      dup2\n        /* \"--CODEGEN--\":30485:30505   */\n      sub\n        /* \"--CODEGEN--\":30481:30482   */\n      0x00\n        /* \"--CODEGEN--\":30470:30479   */\n      dup4\n        /* \"--CODEGEN--\":30466:30483   */\n      add\n        /* \"--CODEGEN--\":30459:30506   */\n      mstore\n        /* \"--CODEGEN--\":30520:30651   */\n      tag_993\n        /* \"--CODEGEN--\":30646:30650   */\n      dup2\n        /* \"--CODEGEN--\":30520:30651   */\n      tag_888\n      jump\t// in\n    tag_993:\n        /* \"--CODEGEN--\":30512:30651   */\n      swap1\n      pop\n        /* \"--CODEGEN--\":30416:30661   */\n      swap2\n      swap1\n      pop\n      jump\t// out\n        /* \"--CODEGEN--\":30668:31084   */\n    tag_310:\n      0x00\n        /* \"--CODEGEN--\":30868:30870   */\n      0x20\n        /* \"--CODEGEN--\":30857:30866   */\n      dup3\n        /* \"--CODEGEN--\":30853:30871   */\n      add\n        /* \"--CODEGEN--\":30845:30871   */\n      swap1\n      pop\n        /* \"--CODEGEN--\":30918:30927   */\n      dup2\n        /* \"--CODEGEN--\":30912:30916   */\n      dup2\n        /* \"--CODEGEN--\":30908:30928   */\n      sub\n        /* \"--CODEGEN--\":30904:30905   */\n      0x00\n        /* \"--CODEGEN--\":30893:30902   */\n      dup4\n        /* \"--CODEGEN--\":30889:30906   */\n      add\n        /* \"--CODEGEN--\":30882:30929   */\n      mstore\n        /* \"--CODEGEN--\":30943:31074   */\n      tag_995\n        /* \"--CODEGEN--\":31069:31073   */\n      dup2\n        /* \"--CODEGEN--\":30943:31074   */\n      tag_891\n      jump\t// in\n    tag_995:\n        /* \"--CODEGEN--\":30935:31074   */\n      swap1\n      pop\n        /* \"--CODEGEN--\":30839:31084   */\n      swap2\n      swap1\n      pop\n      jump\t// out\n        /* \"--CODEGEN--\":31091:31507   */\n    tag_306:\n      0x00\n        /* \"--CODEGEN--\":31291:31293   */\n      0x20\n        /* \"--CODEGEN--\":31280:31289   */\n      dup3\n        /* \"--CODEGEN--\":31276:31294   */\n      add\n        /* \"--CODEGEN--\":31268:31294   */\n      swap1\n      pop\n        /* \"--CODEGEN--\":31341:31350   */\n      dup2\n        /* \"--CODEGEN--\":31335:31339   */\n      dup2\n        /* \"--CODEGEN--\":31331:31351   */\n      sub\n        /* \"--CODEGEN--\":31327:31328   */\n      0x00\n        /* \"--CODEGEN--\":31316:31325   */\n      dup4\n        /* \"--CODEGEN--\":31312:31329   */\n      add\n        /* \"--CODEGEN--\":31305:31352   */\n      mstore\n        /* \"--CODEGEN--\":31366:31497   */\n      tag_997\n        /* \"--CODEGEN--\":31492:31496   */\n      dup2\n        /* \"--CODEGEN--\":31366:31497   */\n      tag_894\n      jump\t// in\n    tag_997:\n        /* \"--CODEGEN--\":31358:31497   */\n      swap1\n      pop\n        /* \"--CODEGEN--\":31262:31507   */\n      swap2\n      swap1\n      pop\n      jump\t// out\n        /* \"--CODEGEN--\":31514:31930   */\n    tag_276:\n      0x00\n        /* \"--CODEGEN--\":31714:31716   */\n      0x20\n        /* \"--CODEGEN--\":31703:31712   */\n      dup3\n        /* \"--CODEGEN--\":31699:31717   */\n      add\n        /* \"--CODEGEN--\":31691:31717   */\n      swap1\n      pop\n        /* \"--CODEGEN--\":31764:31773   */\n      dup2\n        /* \"--CODEGEN--\":31758:31762   */\n      dup2\n        /* \"--CODEGEN--\":31754:31774   */\n      sub\n        /* \"--CODEGEN--\":31750:31751   */\n      0x00\n        /* \"--CODEGEN--\":31739:31748   */\n      dup4\n        /* \"--CODEGEN--\":31735:31752   */\n      add\n        /* \"--CODEGEN--\":31728:31775   */\n      mstore\n        /* \"--CODEGEN--\":31789:31920   */\n      tag_999\n        /* \"--CODEGEN--\":31915:31919   */\n      dup2\n        /* \"--CODEGEN--\":31789:31920   */\n      tag_897\n      jump\t// in\n    tag_999:\n        /* \"--CODEGEN--\":31781:31920   */\n      swap1\n      pop\n        /* \"--CODEGEN--\":31685:31930   */\n      swap2\n      swap1\n      pop\n      jump\t// out\n        /* \"--CODEGEN--\":31937:32353   */\n    tag_269:\n      0x00\n        /* \"--CODEGEN--\":32137:32139   */\n      0x20\n        /* \"--CODEGEN--\":32126:32135   */\n      dup3\n        /* \"--CODEGEN--\":32122:32140   */\n      add\n        /* \"--CODEGEN--\":32114:32140   */\n      swap1\n      pop\n        /* \"--CODEGEN--\":32187:32196   */\n      dup2\n        /* \"--CODEGEN--\":32181:32185   */\n      dup2\n        /* \"--CODEGEN--\":32177:32197   */\n      sub\n        /* \"--CODEGEN--\":32173:32174   */\n      0x00\n        /* \"--CODEGEN--\":32162:32171   */\n      dup4\n        /* \"--CODEGEN--\":32158:32175   */\n      add\n        /* \"--CODEGEN--\":32151:32198   */\n      mstore\n        /* \"--CODEGEN--\":32212:32343   */\n      tag_1001\n        /* \"--CODEGEN--\":32338:32342   */\n      dup2\n        /* \"--CODEGEN--\":32212:32343   */\n      tag_900\n      jump\t// in\n    tag_1001:\n        /* \"--CODEGEN--\":32204:32343   */\n      swap1\n      pop\n        /* \"--CODEGEN--\":32108:32353   */\n      swap2\n      swap1\n      pop\n      jump\t// out\n        /* \"--CODEGEN--\":32360:32776   */\n    tag_423:\n      0x00\n        /* \"--CODEGEN--\":32560:32562   */\n      0x20\n        /* \"--CODEGEN--\":32549:32558   */\n      dup3\n        /* \"--CODEGEN--\":32545:32563   */\n      add\n        /* \"--CODEGEN--\":32537:32563   */\n      swap1\n      pop\n        /* \"--CODEGEN--\":32610:32619   */\n      dup2\n        /* \"--CODEGEN--\":32604:32608   */\n      dup2\n        /* \"--CODEGEN--\":32600:32620   */\n      sub\n        /* \"--CODEGEN--\":32596:32597   */\n      0x00\n        /* \"--CODEGEN--\":32585:32594   */\n      dup4\n        /* \"--CODEGEN--\":32581:32598   */\n      add\n        /* \"--CODEGEN--\":32574:32621   */\n      mstore\n        /* \"--CODEGEN--\":32635:32766   */\n      tag_1003\n        /* \"--CODEGEN--\":32761:32765   */\n      dup2\n        /* \"--CODEGEN--\":32635:32766   */\n      tag_903\n      jump\t// in\n    tag_1003:\n        /* \"--CODEGEN--\":32627:32766   */\n      swap1\n      pop\n        /* \"--CODEGEN--\":32531:32776   */\n      swap2\n      swap1\n      pop\n      jump\t// out\n        /* \"--CODEGEN--\":32783:33199   */\n    tag_327:\n      0x00\n        /* \"--CODEGEN--\":32983:32985   */\n      0x20\n        /* \"--CODEGEN--\":32972:32981   */\n      dup3\n        /* \"--CODEGEN--\":32968:32986   */\n      add\n        /* \"--CODEGEN--\":32960:32986   */\n      swap1\n      pop\n        /* \"--CODEGEN--\":33033:33042   */\n      dup2\n        /* \"--CODEGEN--\":33027:33031   */\n      dup2\n        /* \"--CODEGEN--\":33023:33043   */\n      sub\n        /* \"--CODEGEN--\":33019:33020   */\n      0x00\n        /* \"--CODEGEN--\":33008:33017   */\n      dup4\n        /* \"--CODEGEN--\":33004:33021   */\n      add\n        /* \"--CODEGEN--\":32997:33044   */\n      mstore\n        /* \"--CODEGEN--\":33058:33189   */\n      tag_1005\n        /* \"--CODEGEN--\":33184:33188   */\n      dup2\n        /* \"--CODEGEN--\":33058:33189   */\n      tag_906\n      jump\t// in\n    tag_1005:\n        /* \"--CODEGEN--\":33050:33189   */\n      swap1\n      pop\n        /* \"--CODEGEN--\":32954:33199   */\n      swap2\n      swap1\n      pop\n      jump\t// out\n        /* \"--CODEGEN--\":33206:33622   */\n    tag_313:\n      0x00\n        /* \"--CODEGEN--\":33406:33408   */\n      0x20\n        /* \"--CODEGEN--\":33395:33404   */\n      dup3\n        /* \"--CODEGEN--\":33391:33409   */\n      add\n        /* \"--CODEGEN--\":33383:33409   */\n      swap1\n      pop\n        /* \"--CODEGEN--\":33456:33465   */\n      dup2\n        /* \"--CODEGEN--\":33450:33454   */\n      dup2\n        /* \"--CODEGEN--\":33446:33466   */\n      sub\n        /* \"--CODEGEN--\":33442:33443   */\n      0x00\n        /* \"--CODEGEN--\":33431:33440   */\n      dup4\n        /* \"--CODEGEN--\":33427:33444   */\n      add\n        /* \"--CODEGEN--\":33420:33467   */\n      mstore\n        /* \"--CODEGEN--\":33481:33612   */\n      tag_1007\n        /* \"--CODEGEN--\":33607:33611   */\n      dup2\n        /* \"--CODEGEN--\":33481:33612   */\n      tag_909\n      jump\t// in\n    tag_1007:\n        /* \"--CODEGEN--\":33473:33612   */\n      swap1\n      pop\n        /* \"--CODEGEN--\":33377:33622   */\n      swap2\n      swap1\n      pop\n      jump\t// out\n        /* \"--CODEGEN--\":33629:34045   */\n    tag_265:\n      0x00\n        /* \"--CODEGEN--\":33829:33831   */\n      0x20\n        /* \"--CODEGEN--\":33818:33827   */\n      dup3\n        /* \"--CODEGEN--\":33814:33832   */\n      add\n        /* \"--CODEGEN--\":33806:33832   */\n      swap1\n      pop\n        /* \"--CODEGEN--\":33879:33888   */\n      dup2\n        /* \"--CODEGEN--\":33873:33877   */\n      dup2\n        /* \"--CODEGEN--\":33869:33889   */\n      sub\n        /* \"--CODEGEN--\":33865:33866   */\n      0x00\n        /* \"--CODEGEN--\":33854:33863   */\n      dup4\n        /* \"--CODEGEN--\":33850:33867   */\n      add\n        /* \"--CODEGEN--\":33843:33890   */\n      mstore\n        /* \"--CODEGEN--\":33904:34035   */\n      tag_1009\n        /* \"--CODEGEN--\":34030:34034   */\n      dup2\n        /* \"--CODEGEN--\":33904:34035   */\n      tag_912\n      jump\t// in\n    tag_1009:\n        /* \"--CODEGEN--\":33896:34035   */\n      swap1\n      pop\n        /* \"--CODEGEN--\":33800:34045   */\n      swap2\n      swap1\n      pop\n      jump\t// out\n        /* \"--CODEGEN--\":34052:34468   */\n    tag_192:\n      0x00\n        /* \"--CODEGEN--\":34252:34254   */\n      0x20\n        /* \"--CODEGEN--\":34241:34250   */\n      dup3\n        /* \"--CODEGEN--\":34237:34255   */\n      add\n        /* \"--CODEGEN--\":34229:34255   */\n      swap1\n      pop\n        /* \"--CODEGEN--\":34302:34311   */\n      dup2\n        /* \"--CODEGEN--\":34296:34300   */\n      dup2\n        /* \"--CODEGEN--\":34292:34312   */\n      sub\n        /* \"--CODEGEN--\":34288:34289   */\n      0x00\n        /* \"--CODEGEN--\":34277:34286   */\n      dup4\n        /* \"--CODEGEN--\":34273:34290   */\n      add\n        /* \"--CODEGEN--\":34266:34313   */\n      mstore\n        /* \"--CODEGEN--\":34327:34458   */\n      tag_1011\n        /* \"--CODEGEN--\":34453:34457   */\n      dup2\n        /* \"--CODEGEN--\":34327:34458   */\n      tag_915\n      jump\t// in\n    tag_1011:\n        /* \"--CODEGEN--\":34319:34458   */\n      swap1\n      pop\n        /* \"--CODEGEN--\":34223:34468   */\n      swap2\n      swap1\n      pop\n      jump\t// out\n        /* \"--CODEGEN--\":34475:34891   */\n    tag_332:\n      0x00\n        /* \"--CODEGEN--\":34675:34677   */\n      0x20\n        /* \"--CODEGEN--\":34664:34673   */\n      dup3\n        /* \"--CODEGEN--\":34660:34678   */\n      add\n        /* \"--CODEGEN--\":34652:34678   */\n      swap1\n      pop\n        /* \"--CODEGEN--\":34725:34734   */\n      dup2\n        /* \"--CODEGEN--\":34719:34723   */\n      dup2\n        /* \"--CODEGEN--\":34715:34735   */\n      sub\n        /* \"--CODEGEN--\":34711:34712   */\n      0x00\n        /* \"--CODEGEN--\":34700:34709   */\n      dup4\n        /* \"--CODEGEN--\":34696:34713   */\n      add\n        /* \"--CODEGEN--\":34689:34736   */\n      mstore\n        /* \"--CODEGEN--\":34750:34881   */\n      tag_1013\n        /* \"--CODEGEN--\":34876:34880   */\n      dup2\n        /* \"--CODEGEN--\":34750:34881   */\n      tag_918\n      jump\t// in\n    tag_1013:\n        /* \"--CODEGEN--\":34742:34881   */\n      swap1\n      pop\n        /* \"--CODEGEN--\":34646:34891   */\n      swap2\n      swap1\n      pop\n      jump\t// out\n        /* \"--CODEGEN--\":34898:35314   */\n    tag_357:\n      0x00\n        /* \"--CODEGEN--\":35098:35100   */\n      0x20\n        /* \"--CODEGEN--\":35087:35096   */\n      dup3\n        /* \"--CODEGEN--\":35083:35101   */\n      add\n        /* \"--CODEGEN--\":35075:35101   */\n      swap1\n      pop\n        /* \"--CODEGEN--\":35148:35157   */\n      dup2\n        /* \"--CODEGEN--\":35142:35146   */\n      dup2\n        /* \"--CODEGEN--\":35138:35158   */\n      sub\n        /* \"--CODEGEN--\":35134:35135   */\n      0x00\n        /* \"--CODEGEN--\":35123:35132   */\n      dup4\n        /* \"--CODEGEN--\":35119:35136   */\n      add\n        /* \"--CODEGEN--\":35112:35159   */\n      mstore\n        /* \"--CODEGEN--\":35173:35304   */\n      tag_1015\n        /* \"--CODEGEN--\":35299:35303   */\n      dup2\n        /* \"--CODEGEN--\":35173:35304   */\n      tag_921\n      jump\t// in\n    tag_1015:\n        /* \"--CODEGEN--\":35165:35304   */\n      swap1\n      pop\n        /* \"--CODEGEN--\":35069:35314   */\n      swap2\n      swap1\n      pop\n      jump\t// out\n        /* \"--CODEGEN--\":35321:35737   */\n    tag_430:\n      0x00\n        /* \"--CODEGEN--\":35521:35523   */\n      0x20\n        /* \"--CODEGEN--\":35510:35519   */\n      dup3\n        /* \"--CODEGEN--\":35506:35524   */\n      add\n        /* \"--CODEGEN--\":35498:35524   */\n      swap1\n      pop\n        /* \"--CODEGEN--\":35571:35580   */\n      dup2\n        /* \"--CODEGEN--\":35565:35569   */\n      dup2\n        /* \"--CODEGEN--\":35561:35581   */\n      sub\n        /* \"--CODEGEN--\":35557:35558   */\n      0x00\n        /* \"--CODEGEN--\":35546:35555   */\n      dup4\n        /* \"--CODEGEN--\":35542:35559   */\n      add\n        /* \"--CODEGEN--\":35535:35582   */\n      mstore\n        /* \"--CODEGEN--\":35596:35727   */\n      tag_1017\n        /* \"--CODEGEN--\":35722:35726   */\n      dup2\n        /* \"--CODEGEN--\":35596:35727   */\n      tag_924\n      jump\t// in\n    tag_1017:\n        /* \"--CODEGEN--\":35588:35727   */\n      swap1\n      pop\n        /* \"--CODEGEN--\":35492:35737   */\n      swap2\n      swap1\n      pop\n      jump\t// out\n        /* \"--CODEGEN--\":35744:36063   */\n    tag_177:\n      0x00\n        /* \"--CODEGEN--\":35919:35922   */\n      0x0100\n        /* \"--CODEGEN--\":35908:35917   */\n      dup3\n        /* \"--CODEGEN--\":35904:35923   */\n      add\n        /* \"--CODEGEN--\":35896:35923   */\n      swap1\n      pop\n        /* \"--CODEGEN--\":35934:36053   */\n      tag_1019\n        /* \"--CODEGEN--\":36050:36051   */\n      0x00\n        /* \"--CODEGEN--\":36039:36048   */\n      dup4\n        /* \"--CODEGEN--\":36035:36052   */\n      add\n        /* \"--CODEGEN--\":36026:36032   */\n      dup5\n        /* \"--CODEGEN--\":35934:36053   */\n      tag_927\n      jump\t// in\n    tag_1019:\n        /* \"--CODEGEN--\":35890:36063   */\n      swap3\n      swap2\n      pop\n      pop\n      jump\t// out\n        /* \"--CODEGEN--\":36070:36292   */\n    tag_54:\n      0x00\n        /* \"--CODEGEN--\":36197:36199   */\n      0x20\n        /* \"--CODEGEN--\":36186:36195   */\n      dup3\n        /* \"--CODEGEN--\":36182:36200   */\n      add\n        /* \"--CODEGEN--\":36174:36200   */\n      swap1\n      pop\n        /* \"--CODEGEN--\":36211:36282   */\n      tag_1021\n        /* \"--CODEGEN--\":36279:36280   */\n      0x00\n        /* \"--CODEGEN--\":36268:36277   */\n      dup4\n        /* \"--CODEGEN--\":36264:36281   */\n      add\n        /* \"--CODEGEN--\":36255:36261   */\n      dup5\n        /* \"--CODEGEN--\":36211:36282   */\n      tag_941\n      jump\t// in\n    tag_1021:\n        /* \"--CODEGEN--\":36168:36292   */\n      swap3\n      swap2\n      pop\n      pop\n      jump\t// out\n        /* \"--CODEGEN--\":36299:37303   */\n    tag_185:\n      0x00\n        /* \"--CODEGEN--\":36622:36625   */\n      0x0100\n        /* \"--CODEGEN--\":36611:36620   */\n      dup3\n        /* \"--CODEGEN--\":36607:36626   */\n      add\n        /* \"--CODEGEN--\":36599:36626   */\n      swap1\n      pop\n        /* \"--CODEGEN--\":36637:36708   */\n      tag_1023\n        /* \"--CODEGEN--\":36705:36706   */\n      0x00\n        /* \"--CODEGEN--\":36694:36703   */\n      dup4\n        /* \"--CODEGEN--\":36690:36707   */\n      add\n        /* \"--CODEGEN--\":36681:36687   */\n      dup12\n        /* \"--CODEGEN--\":36637:36708   */\n      tag_941\n      jump\t// in\n    tag_1023:\n        /* \"--CODEGEN--\":36719:36791   */\n      tag_1024\n        /* \"--CODEGEN--\":36787:36789   */\n      0x20\n        /* \"--CODEGEN--\":36776:36785   */\n      dup4\n        /* \"--CODEGEN--\":36772:36790   */\n      add\n        /* \"--CODEGEN--\":36763:36769   */\n      dup11\n        /* \"--CODEGEN--\":36719:36791   */\n      tag_813\n      jump\t// in\n    tag_1024:\n        /* \"--CODEGEN--\":36802:36874   */\n      tag_1025\n        /* \"--CODEGEN--\":36870:36872   */\n      0x40\n        /* \"--CODEGEN--\":36859:36868   */\n      dup4\n        /* \"--CODEGEN--\":36855:36873   */\n      add\n        /* \"--CODEGEN--\":36846:36852   */\n      dup10\n        /* \"--CODEGEN--\":36802:36874   */\n      tag_941\n      jump\t// in\n    tag_1025:\n        /* \"--CODEGEN--\":36885:36957   */\n      tag_1026\n        /* \"--CODEGEN--\":36953:36955   */\n      0x60\n        /* \"--CODEGEN--\":36942:36951   */\n      dup4\n        /* \"--CODEGEN--\":36938:36956   */\n      add\n        /* \"--CODEGEN--\":36929:36935   */\n      dup9\n        /* \"--CODEGEN--\":36885:36957   */\n      tag_941\n      jump\t// in\n    tag_1026:\n        /* \"--CODEGEN--\":36968:37041   */\n      tag_1027\n        /* \"--CODEGEN--\":37036:37039   */\n      0x80\n        /* \"--CODEGEN--\":37025:37034   */\n      dup4\n        /* \"--CODEGEN--\":37021:37040   */\n      add\n        /* \"--CODEGEN--\":37012:37018   */\n      dup8\n        /* \"--CODEGEN--\":36968:37041   */\n      tag_941\n      jump\t// in\n    tag_1027:\n        /* \"--CODEGEN--\":37052:37125   */\n      tag_1028\n        /* \"--CODEGEN--\":37120:37123   */\n      0xa0\n        /* \"--CODEGEN--\":37109:37118   */\n      dup4\n        /* \"--CODEGEN--\":37105:37124   */\n      add\n        /* \"--CODEGEN--\":37096:37102   */\n      dup7\n        /* \"--CODEGEN--\":37052:37125   */\n      tag_941\n      jump\t// in\n    tag_1028:\n        /* \"--CODEGEN--\":37136:37209   */\n      tag_1029\n        /* \"--CODEGEN--\":37204:37207   */\n      0xc0\n        /* \"--CODEGEN--\":37193:37202   */\n      dup4\n        /* \"--CODEGEN--\":37189:37208   */\n      add\n        /* \"--CODEGEN--\":37180:37186   */\n      dup6\n        /* \"--CODEGEN--\":37136:37209   */\n      tag_941\n      jump\t// in\n    tag_1029:\n        /* \"--CODEGEN--\":37220:37293   */\n      tag_1030\n        /* \"--CODEGEN--\":37288:37291   */\n      0xe0\n        /* \"--CODEGEN--\":37277:37286   */\n      dup4\n        /* \"--CODEGEN--\":37273:37292   */\n      add\n        /* \"--CODEGEN--\":37264:37270   */\n      dup5\n        /* \"--CODEGEN--\":37220:37293   */\n      tag_941\n      jump\t// in\n    tag_1030:\n        /* \"--CODEGEN--\":36593:37303   */\n      swap10\n      swap9\n      pop\n      pop\n      pop\n      pop\n      pop\n      pop\n      pop\n      pop\n      pop\n      jump\t// out\n        /* \"--CODEGEN--\":37310:37643   */\n    tag_319:\n      0x00\n        /* \"--CODEGEN--\":37465:37467   */\n      0x40\n        /* \"--CODEGEN--\":37454:37463   */\n      dup3\n        /* \"--CODEGEN--\":37450:37468   */\n      add\n        /* \"--CODEGEN--\":37442:37468   */\n      swap1\n      pop\n        /* \"--CODEGEN--\":37479:37550   */\n      tag_1032\n        /* \"--CODEGEN--\":37547:37548   */\n      0x00\n        /* \"--CODEGEN--\":37536:37545   */\n      dup4\n        /* \"--CODEGEN--\":37532:37549   */\n      add\n        /* \"--CODEGEN--\":37523:37529   */\n      dup6\n        /* \"--CODEGEN--\":37479:37550   */\n      tag_941\n      jump\t// in\n    tag_1032:\n        /* \"--CODEGEN--\":37561:37633   */\n      tag_1033\n        /* \"--CODEGEN--\":37629:37631   */\n      0x20\n        /* \"--CODEGEN--\":37618:37627   */\n      dup4\n        /* \"--CODEGEN--\":37614:37632   */\n      add\n        /* \"--CODEGEN--\":37605:37611   */\n      dup5\n        /* \"--CODEGEN--\":37561:37633   */\n      tag_941\n      jump\t// in\n    tag_1033:\n        /* \"--CODEGEN--\":37436:37643   */\n      swap4\n      swap3\n      pop\n      pop\n      pop\n      jump\t// out\n        /* \"--CODEGEN--\":37650:38222   */\n    tag_334:\n      0x00\n        /* \"--CODEGEN--\":37869:37872   */\n      0x80\n        /* \"--CODEGEN--\":37858:37867   */\n      dup3\n        /* \"--CODEGEN--\":37854:37873   */\n      add\n        /* \"--CODEGEN--\":37846:37873   */\n      swap1\n      pop\n        /* \"--CODEGEN--\":37884:37955   */\n      tag_1035\n        /* \"--CODEGEN--\":37952:37953   */\n      0x00\n        /* \"--CODEGEN--\":37941:37950   */\n      dup4\n        /* \"--CODEGEN--\":37937:37954   */\n      add\n        /* \"--CODEGEN--\":37928:37934   */\n      dup8\n        /* \"--CODEGEN--\":37884:37955   */\n      tag_941\n      jump\t// in\n    tag_1035:\n        /* \"--CODEGEN--\":37966:38038   */\n      tag_1036\n        /* \"--CODEGEN--\":38034:38036   */\n      0x20\n        /* \"--CODEGEN--\":38023:38032   */\n      dup4\n        /* \"--CODEGEN--\":38019:38037   */\n      add\n        /* \"--CODEGEN--\":38010:38016   */\n      dup7\n        /* \"--CODEGEN--\":37966:38038   */\n      tag_941\n      jump\t// in\n    tag_1036:\n        /* \"--CODEGEN--\":38049:38129   */\n      tag_1037\n        /* \"--CODEGEN--\":38125:38127   */\n      0x40\n        /* \"--CODEGEN--\":38114:38123   */\n      dup4\n        /* \"--CODEGEN--\":38110:38128   */\n      add\n        /* \"--CODEGEN--\":38101:38107   */\n      dup6\n        /* \"--CODEGEN--\":38049:38129   */\n      tag_840\n      jump\t// in\n    tag_1037:\n        /* \"--CODEGEN--\":38140:38212   */\n      tag_1038\n        /* \"--CODEGEN--\":38208:38210   */\n      0x60\n        /* \"--CODEGEN--\":38197:38206   */\n      dup4\n        /* \"--CODEGEN--\":38193:38211   */\n      add\n        /* \"--CODEGEN--\":38184:38190   */\n      dup5\n        /* \"--CODEGEN--\":38140:38212   */\n      tag_941\n      jump\t// in\n    tag_1038:\n        /* \"--CODEGEN--\":37840:38222   */\n      swap6\n      swap5\n      pop\n      pop\n      pop\n      pop\n      pop\n      jump\t// out\n        /* \"--CODEGEN--\":38229:38985   */\n    tag_554:\n      0x00\n        /* \"--CODEGEN--\":38488:38491   */\n      0xa0\n        /* \"--CODEGEN--\":38477:38486   */\n      dup3\n        /* \"--CODEGEN--\":38473:38492   */\n      add\n        /* \"--CODEGEN--\":38465:38492   */\n      swap1\n      pop\n        /* \"--CODEGEN--\":38503:38574   */\n      tag_1040\n        /* \"--CODEGEN--\":38571:38572   */\n      0x00\n        /* \"--CODEGEN--\":38560:38569   */\n      dup4\n        /* \"--CODEGEN--\":38556:38573   */\n      add\n        /* \"--CODEGEN--\":38547:38553   */\n      dup9\n        /* \"--CODEGEN--\":38503:38574   */\n      tag_941\n      jump\t// in\n    tag_1040:\n        /* \"--CODEGEN--\":38585:38657   */\n      tag_1041\n        /* \"--CODEGEN--\":38653:38655   */\n      0x20\n        /* \"--CODEGEN--\":38642:38651   */\n      dup4\n        /* \"--CODEGEN--\":38638:38656   */\n      add\n        /* \"--CODEGEN--\":38629:38635   */\n      dup8\n        /* \"--CODEGEN--\":38585:38657   */\n      tag_941\n      jump\t// in\n    tag_1041:\n        /* \"--CODEGEN--\":38705:38714   */\n      dup2\n        /* \"--CODEGEN--\":38699:38703   */\n      dup2\n        /* \"--CODEGEN--\":38695:38715   */\n      sub\n        /* \"--CODEGEN--\":38690:38692   */\n      0x40\n        /* \"--CODEGEN--\":38679:38688   */\n      dup4\n        /* \"--CODEGEN--\":38675:38693   */\n      add\n        /* \"--CODEGEN--\":38668:38716   */\n      mstore\n        /* \"--CODEGEN--\":38730:38808   */\n      tag_1042\n        /* \"--CODEGEN--\":38803:38807   */\n      dup2\n        /* \"--CODEGEN--\":38794:38800   */\n      dup7\n        /* \"--CODEGEN--\":38730:38808   */\n      tag_844\n      jump\t// in\n    tag_1042:\n        /* \"--CODEGEN--\":38722:38808   */\n      swap1\n      pop\n        /* \"--CODEGEN--\":38819:38891   */\n      tag_1043\n        /* \"--CODEGEN--\":38887:38889   */\n      0x60\n        /* \"--CODEGEN--\":38876:38885   */\n      dup4\n        /* \"--CODEGEN--\":38872:38890   */\n      add\n        /* \"--CODEGEN--\":38863:38869   */\n      dup6\n        /* \"--CODEGEN--\":38819:38891   */\n      tag_941\n      jump\t// in\n    tag_1043:\n        /* \"--CODEGEN--\":38902:38975   */\n      tag_1044\n        /* \"--CODEGEN--\":38970:38973   */\n      0x80\n        /* \"--CODEGEN--\":38959:38968   */\n      dup4\n        /* \"--CODEGEN--\":38955:38974   */\n      add\n        /* \"--CODEGEN--\":38946:38952   */\n      dup5\n        /* \"--CODEGEN--\":38902:38975   */\n      tag_941\n      jump\t// in\n    tag_1044:\n        /* \"--CODEGEN--\":38459:38985   */\n      swap7\n      swap6\n      pop\n      pop\n      pop\n      pop\n      pop\n      pop\n      jump\t// out\n        /* \"--CODEGEN--\":38992:39436   */\n    tag_525:\n      0x00\n        /* \"--CODEGEN--\":39175:39177   */\n      0x60\n        /* \"--CODEGEN--\":39164:39173   */\n      dup3\n        /* \"--CODEGEN--\":39160:39178   */\n      add\n        /* \"--CODEGEN--\":39152:39178   */\n      swap1\n      pop\n        /* \"--CODEGEN--\":39189:39260   */\n      tag_1046\n        /* \"--CODEGEN--\":39257:39258   */\n      0x00\n        /* \"--CODEGEN--\":39246:39255   */\n      dup4\n        /* \"--CODEGEN--\":39242:39259   */\n      add\n        /* \"--CODEGEN--\":39233:39239   */\n      dup7\n        /* \"--CODEGEN--\":39189:39260   */\n      tag_941\n      jump\t// in\n    tag_1046:\n        /* \"--CODEGEN--\":39271:39343   */\n      tag_1047\n        /* \"--CODEGEN--\":39339:39341   */\n      0x20\n        /* \"--CODEGEN--\":39328:39337   */\n      dup4\n        /* \"--CODEGEN--\":39324:39342   */\n      add\n        /* \"--CODEGEN--\":39315:39321   */\n      dup6\n        /* \"--CODEGEN--\":39271:39343   */\n      tag_941\n      jump\t// in\n    tag_1047:\n        /* \"--CODEGEN--\":39354:39426   */\n      tag_1048\n        /* \"--CODEGEN--\":39422:39424   */\n      0x40\n        /* \"--CODEGEN--\":39411:39420   */\n      dup4\n        /* \"--CODEGEN--\":39407:39425   */\n      add\n        /* \"--CODEGEN--\":39398:39404   */\n      dup5\n        /* \"--CODEGEN--\":39354:39426   */\n      tag_941\n      jump\t// in\n    tag_1048:\n        /* \"--CODEGEN--\":39146:39436   */\n      swap5\n      swap4\n      pop\n      pop\n      pop\n      pop\n      jump\t// out\n        /* \"--CODEGEN--\":39443:39999   */\n    tag_284:\n      0x00\n        /* \"--CODEGEN--\":39654:39657   */\n      0x80\n        /* \"--CODEGEN--\":39643:39652   */\n      dup3\n        /* \"--CODEGEN--\":39639:39658   */\n      add\n        /* \"--CODEGEN--\":39631:39658   */\n      swap1\n      pop\n        /* \"--CODEGEN--\":39669:39740   */\n      tag_1050\n        /* \"--CODEGEN--\":39737:39738   */\n      0x00\n        /* \"--CODEGEN--\":39726:39735   */\n      dup4\n        /* \"--CODEGEN--\":39722:39739   */\n      add\n        /* \"--CODEGEN--\":39713:39719   */\n      dup8\n        /* \"--CODEGEN--\":39669:39740   */\n      tag_941\n      jump\t// in\n    tag_1050:\n        /* \"--CODEGEN--\":39751:39823   */\n      tag_1051\n        /* \"--CODEGEN--\":39819:39821   */\n      0x20\n        /* \"--CODEGEN--\":39808:39817   */\n      dup4\n        /* \"--CODEGEN--\":39804:39822   */\n      add\n        /* \"--CODEGEN--\":39795:39801   */\n      dup7\n        /* \"--CODEGEN--\":39751:39823   */\n      tag_941\n      jump\t// in\n    tag_1051:\n        /* \"--CODEGEN--\":39834:39906   */\n      tag_1052\n        /* \"--CODEGEN--\":39902:39904   */\n      0x40\n        /* \"--CODEGEN--\":39891:39900   */\n      dup4\n        /* \"--CODEGEN--\":39887:39905   */\n      add\n        /* \"--CODEGEN--\":39878:39884   */\n      dup6\n        /* \"--CODEGEN--\":39834:39906   */\n      tag_941\n      jump\t// in\n    tag_1052:\n        /* \"--CODEGEN--\":39917:39989   */\n      tag_1053\n        /* \"--CODEGEN--\":39985:39987   */\n      0x60\n        /* \"--CODEGEN--\":39974:39983   */\n      dup4\n        /* \"--CODEGEN--\":39970:39988   */\n      add\n        /* \"--CODEGEN--\":39961:39967   */\n      dup5\n        /* \"--CODEGEN--\":39917:39989   */\n      tag_941\n      jump\t// in\n    tag_1053:\n        /* \"--CODEGEN--\":39625:39999   */\n      swap6\n      swap5\n      pop\n      pop\n      pop\n      pop\n      pop\n      jump\t// out\n        /* \"--CODEGEN--\":40006:40262   */\n    tag_688:\n      0x00\n        /* \"--CODEGEN--\":40068:40070   */\n      0x40\n        /* \"--CODEGEN--\":40062:40071   */\n      mload\n        /* \"--CODEGEN--\":40052:40071   */\n      swap1\n      pop\n        /* \"--CODEGEN--\":40106:40110   */\n      dup2\n        /* \"--CODEGEN--\":40098:40104   */\n      dup2\n        /* \"--CODEGEN--\":40094:40111   */\n      add\n        /* \"--CODEGEN--\":40205:40211   */\n      dup2\n        /* \"--CODEGEN--\":40193:40203   */\n      dup2\n        /* \"--CODEGEN--\":40190:40212   */\n      lt\n        /* \"--CODEGEN--\":40169:40187   */\n      0xffffffffffffffff\n        /* \"--CODEGEN--\":40157:40167   */\n      dup3\n        /* \"--CODEGEN--\":40154:40188   */\n      gt\n        /* \"--CODEGEN--\":40151:40213   */\n      or\n        /* \"--CODEGEN--\":40148:40150   */\n      iszero\n      tag_1055\n      jumpi\n        /* \"--CODEGEN--\":40226:40227   */\n      0x00\n        /* \"--CODEGEN--\":40223:40224   */\n      dup1\n        /* \"--CODEGEN--\":40216:40228   */\n      revert\n        /* \"--CODEGEN--\":40148:40150   */\n    tag_1055:\n        /* \"--CODEGEN--\":40246:40256   */\n      dup1\n        /* \"--CODEGEN--\":40242:40244   */\n      0x40\n        /* \"--CODEGEN--\":40235:40257   */\n      mstore\n        /* \"--CODEGEN--\":40046:40262   */\n      pop\n      swap2\n      swap1\n      pop\n      jump\t// out\n        /* \"--CODEGEN--\":40269:40573   */\n    tag_687:\n      0x00\n        /* \"--CODEGEN--\":40428:40446   */\n      0xffffffffffffffff\n        /* \"--CODEGEN--\":40420:40426   */\n      dup3\n        /* \"--CODEGEN--\":40417:40447   */\n      gt\n        /* \"--CODEGEN--\":40414:40416   */\n      iszero\n      tag_1057\n      jumpi\n        /* \"--CODEGEN--\":40460:40461   */\n      0x00\n        /* \"--CODEGEN--\":40457:40458   */\n      dup1\n        /* \"--CODEGEN--\":40450:40462   */\n      revert\n        /* \"--CODEGEN--\":40414:40416   */\n    tag_1057:\n        /* \"--CODEGEN--\":40495:40499   */\n      0x20\n        /* \"--CODEGEN--\":40487:40493   */\n      dup3\n        /* \"--CODEGEN--\":40483:40500   */\n      mul\n        /* \"--CODEGEN--\":40475:40500   */\n      swap1\n      pop\n        /* \"--CODEGEN--\":40558:40562   */\n      0x20\n        /* \"--CODEGEN--\":40552:40556   */\n      dup2\n        /* \"--CODEGEN--\":40548:40563   */\n      add\n        /* \"--CODEGEN--\":40540:40563   */\n      swap1\n      pop\n        /* \"--CODEGEN--\":40351:40573   */\n      swap2\n      swap1\n      pop\n      jump\t// out\n        /* \"--CODEGEN--\":40580:40702   */\n    tag_847:\n      0x00\n        /* \"--CODEGEN--\":40674:40679   */\n      dup2\n        /* \"--CODEGEN--\":40668:40680   */\n      mload\n        /* \"--CODEGEN--\":40658:40680   */\n      swap1\n      pop\n        /* \"--CODEGEN--\":40639:40702   */\n      swap2\n      swap1\n      pop\n      jump\t// out\n        /* \"--CODEGEN--\":40710:40873   */\n    tag_849:\n      0x00\n        /* \"--CODEGEN--\":40825:40831   */\n      dup3\n        /* \"--CODEGEN--\":40820:40823   */\n      dup3\n        /* \"--CODEGEN--\":40813:40832   */\n      mstore\n        /* \"--CODEGEN--\":40862:40866   */\n      0x20\n        /* \"--CODEGEN--\":40857:40860   */\n      dup3\n        /* \"--CODEGEN--\":40853:40867   */\n      add\n        /* \"--CODEGEN--\":40838:40867   */\n      swap1\n      pop\n        /* \"--CODEGEN--\":40806:40873   */\n      swap3\n      swap2\n      pop\n      pop\n      jump\t// out\n        /* \"--CODEGEN--\":40882:41027   */\n    tag_881:\n      0x00\n        /* \"--CODEGEN--\":41018:41021   */\n      dup2\n        /* \"--CODEGEN--\":41003:41021   */\n      swap1\n      pop\n        /* \"--CODEGEN--\":40996:41027   */\n      swap3\n      swap2\n      pop\n      pop\n      jump\t// out\n        /* \"--CODEGEN--\":41035:41126   */\n    tag_812:\n      0x00\n        /* \"--CODEGEN--\":41097:41121   */\n      tag_1062\n        /* \"--CODEGEN--\":41115:41120   */\n      dup3\n        /* \"--CODEGEN--\":41097:41121   */\n      tag_1063\n      jump\t// in\n    tag_1062:\n        /* \"--CODEGEN--\":41086:41121   */\n      swap1\n      pop\n        /* \"--CODEGEN--\":41080:41126   */\n      swap2\n      swap1\n      pop\n      jump\t// out\n        /* \"--CODEGEN--\":41133:41218   */\n    tag_819:\n      0x00\n        /* \"--CODEGEN--\":41206:41211   */\n      dup2\n        /* \"--CODEGEN--\":41199:41212   */\n      iszero\n        /* \"--CODEGEN--\":41192:41213   */\n      iszero\n        /* \"--CODEGEN--\":41181:41213   */\n      swap1\n      pop\n        /* \"--CODEGEN--\":41175:41218   */\n      swap2\n      swap1\n      pop\n      jump\t// out\n        /* \"--CODEGEN--\":41225:41297   */\n    tag_823:\n      0x00\n        /* \"--CODEGEN--\":41287:41292   */\n      dup2\n        /* \"--CODEGEN--\":41276:41292   */\n      swap1\n      pop\n        /* \"--CODEGEN--\":41270:41297   */\n      swap2\n      swap1\n      pop\n      jump\t// out\n        /* \"--CODEGEN--\":41304:41425   */\n    tag_1063:\n      0x00\n        /* \"--CODEGEN--\":41377:41419   */\n      0xffffffffffffffffffffffffffffffffffffffff\n        /* \"--CODEGEN--\":41370:41375   */\n      dup3\n        /* \"--CODEGEN--\":41366:41420   */\n      and\n        /* \"--CODEGEN--\":41355:41420   */\n      swap1\n      pop\n        /* \"--CODEGEN--\":41349:41425   */\n      swap2\n      swap1\n      pop\n      jump\t// out\n        /* \"--CODEGEN--\":41432:41504   */\n    tag_940:\n      0x00\n        /* \"--CODEGEN--\":41494:41499   */\n      dup2\n        /* \"--CODEGEN--\":41483:41499   */\n      swap1\n      pop\n        /* \"--CODEGEN--\":41477:41504   */\n      swap2\n      swap1\n      pop\n      jump\t// out\n        /* \"--CODEGEN--\":41511:41592   */\n    tag_1068:\n      0x00\n        /* \"--CODEGEN--\":41582:41586   */\n      0xff\n        /* \"--CODEGEN--\":41575:41580   */\n      dup3\n        /* \"--CODEGEN--\":41571:41587   */\n      and\n        /* \"--CODEGEN--\":41560:41587   */\n      swap1\n      pop\n        /* \"--CODEGEN--\":41554:41592   */\n      swap2\n      swap1\n      pop\n      jump\t// out\n        /* \"--CODEGEN--\":41599:41728   */\n    tag_808:\n      0x00\n        /* \"--CODEGEN--\":41686:41723   */\n      tag_1071\n        /* \"--CODEGEN--\":41717:41722   */\n      dup3\n        /* \"--CODEGEN--\":41686:41723   */\n      tag_1072\n      jump\t// in\n    tag_1071:\n        /* \"--CODEGEN--\":41673:41723   */\n      swap1\n      pop\n        /* \"--CODEGEN--\":41667:41728   */\n      swap2\n      swap1\n      pop\n      jump\t// out\n        /* \"--CODEGEN--\":41735:41900   */\n    tag_827:\n      0x00\n        /* \"--CODEGEN--\":41836:41895   */\n      tag_1074\n        /* \"--CODEGEN--\":41889:41894   */\n      dup3\n        /* \"--CODEGEN--\":41836:41895   */\n      tag_1075\n      jump\t// in\n    tag_1074:\n        /* \"--CODEGEN--\":41823:41895   */\n      swap1\n      pop\n        /* \"--CODEGEN--\":41817:41900   */\n      swap2\n      swap1\n      pop\n      jump\t// out\n        /* \"--CODEGEN--\":41907:42037   */\n    tag_1075:\n      0x00\n        /* \"--CODEGEN--\":42008:42032   */\n      tag_1077\n        /* \"--CODEGEN--\":42026:42031   */\n      dup3\n        /* \"--CODEGEN--\":42008:42032   */\n      tag_1063\n      jump\t// in\n    tag_1077:\n        /* \"--CODEGEN--\":41995:42032   */\n      swap1\n      pop\n        /* \"--CODEGEN--\":41989:42037   */\n      swap2\n      swap1\n      pop\n      jump\t// out\n        /* \"--CODEGEN--\":42044:42209   */\n    tag_831:\n      0x00\n        /* \"--CODEGEN--\":42145:42204   */\n      tag_1079\n        /* \"--CODEGEN--\":42198:42203   */\n      dup3\n        /* \"--CODEGEN--\":42145:42204   */\n      tag_1080\n      jump\t// in\n    tag_1079:\n        /* \"--CODEGEN--\":42132:42204   */\n      swap1\n      pop\n        /* \"--CODEGEN--\":42126:42209   */\n      swap2\n      swap1\n      pop\n      jump\t// out\n        /* \"--CODEGEN--\":42216:42346   */\n    tag_1080:\n      0x00\n        /* \"--CODEGEN--\":42317:42341   */\n      tag_1082\n        /* \"--CODEGEN--\":42335:42340   */\n      dup3\n        /* \"--CODEGEN--\":42317:42341   */\n      tag_1063\n      jump\t// in\n    tag_1082:\n        /* \"--CODEGEN--\":42304:42341   */\n      swap1\n      pop\n        /* \"--CODEGEN--\":42298:42346   */\n      swap2\n      swap1\n      pop\n      jump\t// out\n        /* \"--CODEGEN--\":42353:42516   */\n    tag_835:\n      0x00\n        /* \"--CODEGEN--\":42453:42511   */\n      tag_1084\n        /* \"--CODEGEN--\":42505:42510   */\n      dup3\n        /* \"--CODEGEN--\":42453:42511   */\n      tag_1085\n      jump\t// in\n    tag_1084:\n        /* \"--CODEGEN--\":42440:42511   */\n      swap1\n      pop\n        /* \"--CODEGEN--\":42434:42516   */\n      swap2\n      swap1\n      pop\n      jump\t// out\n        /* \"--CODEGEN--\":42523:42652   */\n    tag_1085:\n      0x00\n        /* \"--CODEGEN--\":42623:42647   */\n      tag_1087\n        /* \"--CODEGEN--\":42641:42646   */\n      dup3\n        /* \"--CODEGEN--\":42623:42647   */\n      tag_1063\n      jump\t// in\n    tag_1087:\n        /* \"--CODEGEN--\":42610:42647   */\n      swap1\n      pop\n        /* \"--CODEGEN--\":42604:42652   */\n      swap2\n      swap1\n      pop\n      jump\t// out\n        /* \"--CODEGEN--\":42659:42824   */\n    tag_839:\n      0x00\n        /* \"--CODEGEN--\":42760:42819   */\n      tag_1089\n        /* \"--CODEGEN--\":42813:42818   */\n      dup3\n        /* \"--CODEGEN--\":42760:42819   */\n      tag_1090\n      jump\t// in\n    tag_1089:\n        /* \"--CODEGEN--\":42747:42819   */\n      swap1\n      pop\n        /* \"--CODEGEN--\":42741:42824   */\n      swap2\n      swap1\n      pop\n      jump\t// out\n        /* \"--CODEGEN--\":42831:42961   */\n    tag_1090:\n      0x00\n        /* \"--CODEGEN--\":42932:42956   */\n      tag_1092\n        /* \"--CODEGEN--\":42950:42955   */\n      dup3\n        /* \"--CODEGEN--\":42932:42956   */\n      tag_1063\n      jump\t// in\n    tag_1092:\n        /* \"--CODEGEN--\":42919:42956   */\n      swap1\n      pop\n        /* \"--CODEGEN--\":42913:42961   */\n      swap2\n      swap1\n      pop\n      jump\t// out\n        /* \"--CODEGEN--\":42968:43084   */\n    tag_843:\n      0x00\n        /* \"--CODEGEN--\":43055:43079   */\n      tag_1094\n        /* \"--CODEGEN--\":43073:43078   */\n      dup3\n        /* \"--CODEGEN--\":43055:43079   */\n      tag_940\n      jump\t// in\n    tag_1094:\n        /* \"--CODEGEN--\":43042:43079   */\n      swap1\n      pop\n        /* \"--CODEGEN--\":43036:43084   */\n      swap2\n      swap1\n      pop\n      jump\t// out\n        /* \"--CODEGEN--\":43091:43212   */\n    tag_1072:\n      0x00\n        /* \"--CODEGEN--\":43170:43207   */\n      tag_1096\n        /* \"--CODEGEN--\":43201:43206   */\n      dup3\n        /* \"--CODEGEN--\":43170:43207   */\n      tag_1097\n      jump\t// in\n    tag_1096:\n        /* \"--CODEGEN--\":43157:43207   */\n      swap1\n      pop\n        /* \"--CODEGEN--\":43151:43212   */\n      swap2\n      swap1\n      pop\n      jump\t// out\n        /* \"--CODEGEN--\":43219:43327   */\n    tag_1097:\n      0x00\n        /* \"--CODEGEN--\":43298:43322   */\n      tag_1099\n        /* \"--CODEGEN--\":43316:43321   */\n      dup3\n        /* \"--CODEGEN--\":43298:43322   */\n      tag_1063\n      jump\t// in\n    tag_1099:\n        /* \"--CODEGEN--\":43285:43322   */\n      swap1\n      pop\n        /* \"--CODEGEN--\":43279:43327   */\n      swap2\n      swap1\n      pop\n      jump\t// out\n        /* \"--CODEGEN--\":43335:43603   */\n    tag_851:\n        /* \"--CODEGEN--\":43400:43401   */\n      0x00\n        /* \"--CODEGEN--\":43407:43508   */\n    tag_1101:\n        /* \"--CODEGEN--\":43421:43427   */\n      dup4\n        /* \"--CODEGEN--\":43418:43419   */\n      dup2\n        /* \"--CODEGEN--\":43415:43428   */\n      lt\n        /* \"--CODEGEN--\":43407:43508   */\n      iszero\n      tag_1103\n      jumpi\n        /* \"--CODEGEN--\":43497:43498   */\n      dup1\n        /* \"--CODEGEN--\":43492:43495   */\n      dup3\n        /* \"--CODEGEN--\":43488:43499   */\n      add\n        /* \"--CODEGEN--\":43482:43500   */\n      mload\n        /* \"--CODEGEN--\":43478:43479   */\n      dup2\n        /* \"--CODEGEN--\":43473:43476   */\n      dup5\n        /* \"--CODEGEN--\":43469:43480   */\n      add\n        /* \"--CODEGEN--\":43462:43501   */\n      mstore\n        /* \"--CODEGEN--\":43443:43445   */\n      0x20\n        /* \"--CODEGEN--\":43440:43441   */\n      dup2\n        /* \"--CODEGEN--\":43436:43446   */\n      add\n        /* \"--CODEGEN--\":43431:43446   */\n      swap1\n      pop\n        /* \"--CODEGEN--\":43407:43508   */\n      jump(tag_1101)\n    tag_1103:\n        /* \"--CODEGEN--\":43523:43529   */\n      dup4\n        /* \"--CODEGEN--\":43520:43521   */\n      dup2\n        /* \"--CODEGEN--\":43517:43530   */\n      gt\n        /* \"--CODEGEN--\":43514:43516   */\n      iszero\n      tag_1104\n      jumpi\n        /* \"--CODEGEN--\":43588:43589   */\n      0x00\n        /* \"--CODEGEN--\":43579:43585   */\n      dup5\n        /* \"--CODEGEN--\":43574:43577   */\n      dup5\n        /* \"--CODEGEN--\":43570:43586   */\n      add\n        /* \"--CODEGEN--\":43563:43590   */\n      mstore\n        /* \"--CODEGEN--\":43514:43516   */\n    tag_1104:\n        /* \"--CODEGEN--\":43384:43603   */\n      pop\n      pop\n      pop\n      pop\n      jump\t// out\n        /* \"--CODEGEN--\":43611:43708   */\n    tag_853:\n      0x00\n        /* \"--CODEGEN--\":43699:43701   */\n      0x1f\n        /* \"--CODEGEN--\":43695:43702   */\n      not\n        /* \"--CODEGEN--\":43690:43692   */\n      0x1f\n        /* \"--CODEGEN--\":43683:43688   */\n      dup4\n        /* \"--CODEGEN--\":43679:43693   */\n      add\n        /* \"--CODEGEN--\":43675:43703   */\n      and\n        /* \"--CODEGEN--\":43665:43703   */\n      swap1\n      pop\n        /* \"--CODEGEN--\":43659:43708   */\n      swap2\n      swap1\n      pop\n      jump\t// out\n        /* \"--CODEGEN--\":43716:43833   */\n    tag_681:\n        /* \"--CODEGEN--\":43785:43809   */\n      tag_1107\n        /* \"--CODEGEN--\":43803:43808   */\n      dup2\n        /* \"--CODEGEN--\":43785:43809   */\n      tag_812\n      jump\t// in\n    tag_1107:\n        /* \"--CODEGEN--\":43778:43783   */\n      dup2\n        /* \"--CODEGEN--\":43775:43810   */\n      eq\n        /* \"--CODEGEN--\":43765:43767   */\n      tag_1108\n      jumpi\n        /* \"--CODEGEN--\":43824:43825   */\n      0x00\n        /* \"--CODEGEN--\":43821:43822   */\n      dup1\n        /* \"--CODEGEN--\":43814:43826   */\n      revert\n        /* \"--CODEGEN--\":43765:43767   */\n    tag_1108:\n        /* \"--CODEGEN--\":43759:43833   */\n      pop\n      jump\t// out\n        /* \"--CODEGEN--\":43840:43951   */\n    tag_698:\n        /* \"--CODEGEN--\":43906:43927   */\n      tag_1110\n        /* \"--CODEGEN--\":43921:43926   */\n      dup2\n        /* \"--CODEGEN--\":43906:43927   */\n      tag_819\n      jump\t// in\n    tag_1110:\n        /* \"--CODEGEN--\":43899:43904   */\n      dup2\n        /* \"--CODEGEN--\":43896:43928   */\n      eq\n        /* \"--CODEGEN--\":43886:43888   */\n      tag_1111\n      jumpi\n        /* \"--CODEGEN--\":43942:43943   */\n      0x00\n        /* \"--CODEGEN--\":43939:43940   */\n      dup1\n        /* \"--CODEGEN--\":43932:43944   */\n      revert\n        /* \"--CODEGEN--\":43886:43888   */\n    tag_1111:\n        /* \"--CODEGEN--\":43880:43951   */\n      pop\n      jump\t// out\n        /* \"--CODEGEN--\":43958:44075   */\n    tag_702:\n        /* \"--CODEGEN--\":44027:44051   */\n      tag_1113\n        /* \"--CODEGEN--\":44045:44050   */\n      dup2\n        /* \"--CODEGEN--\":44027:44051   */\n      tag_823\n      jump\t// in\n    tag_1113:\n        /* \"--CODEGEN--\":44020:44025   */\n      dup2\n        /* \"--CODEGEN--\":44017:44052   */\n      eq\n        /* \"--CODEGEN--\":44007:44009   */\n      tag_1114\n      jumpi\n        /* \"--CODEGEN--\":44066:44067   */\n      0x00\n        /* \"--CODEGEN--\":44063:44064   */\n      dup1\n        /* \"--CODEGEN--\":44056:44068   */\n      revert\n        /* \"--CODEGEN--\":44007:44009   */\n    tag_1114:\n        /* \"--CODEGEN--\":44001:44075   */\n      pop\n      jump\t// out\n        /* \"--CODEGEN--\":44082:44199   */\n    tag_736:\n        /* \"--CODEGEN--\":44151:44175   */\n      tag_1116\n        /* \"--CODEGEN--\":44169:44174   */\n      dup2\n        /* \"--CODEGEN--\":44151:44175   */\n      tag_940\n      jump\t// in\n    tag_1116:\n        /* \"--CODEGEN--\":44144:44149   */\n      dup2\n        /* \"--CODEGEN--\":44141:44176   */\n      eq\n        /* \"--CODEGEN--\":44131:44133   */\n      tag_1117\n      jumpi\n        /* \"--CODEGEN--\":44190:44191   */\n      0x00\n        /* \"--CODEGEN--\":44187:44188   */\n      dup1\n        /* \"--CODEGEN--\":44180:44192   */\n      revert\n        /* \"--CODEGEN--\":44131:44133   */\n    tag_1117:\n        /* \"--CODEGEN--\":44125:44199   */\n      pop\n      jump\t// out\n        /* \"--CODEGEN--\":44206:44319   */\n    tag_742:\n        /* \"--CODEGEN--\":44273:44295   */\n      tag_1119\n        /* \"--CODEGEN--\":44289:44294   */\n      dup2\n        /* \"--CODEGEN--\":44273:44295   */\n      tag_1068\n      jump\t// in\n    tag_1119:\n        /* \"--CODEGEN--\":44266:44271   */\n      dup2\n        /* \"--CODEGEN--\":44263:44296   */\n      eq\n        /* \"--CODEGEN--\":44253:44255   */\n      tag_1120\n      jumpi\n        /* \"--CODEGEN--\":44310:44311   */\n      0x00\n        /* \"--CODEGEN--\":44307:44308   */\n      dup1\n        /* \"--CODEGEN--\":44300:44312   */\n      revert\n        /* \"--CODEGEN--\":44253:44255   */\n    tag_1120:\n        /* \"--CODEGEN--\":44247:44319   */\n      pop\n      jump\t// out\n\n    auxdata: 0xa26469706673582212209ac42d11fa763f8db00239e00264121646d1df65c92bc98bce58ed6155e2ba0264736f6c634300060b0033\n}\n","bytecode":{"linkReferences":{"lib/Constants.sol":{"Constants":[{"length":20,"start":3746},{"length":20,"start":3873},{"length":20,"start":4424},{"length":20,"start":5111},{"length":20,"start":5561},{"length":20,"start":7603},{"length":20,"start":7738},{"length":20,"start":8029},{"length":20,"start":8584},{"length":20,"start":8936},{"length":20,"start":9288},{"length":20,"start":9927},{"length":20,"start":10389},{"length":20,"start":14345}]}},"object":"60806040526000600355600060045560006005553480156200002057600080fd5b50600033604051602001620000369190620002f8565b60405160208183030381529060405280519060200120905062000075604051620000609062000315565b604051809103902082620000a360201b60201c565b6200009c604051620000879062000315565b6040518091039020336200010560201b60201c565b50620003a0565b8060008084815260200190815260200160002060020154837fbd79b86ffe0ab8e8776151514217cd7cacd52c909f66475c3af44e129f0b00ff60405160405180910390a480600080848152602001908152602001600020600201819055505050565b6200011782826200011b60201b60201c565b5050565b6200014981600080858152602001908152602001600020600001620001be60201b620030171790919060201c565b15620001ba576200015f620001f660201b60201c565b73ffffffffffffffffffffffffffffffffffffffff168173ffffffffffffffffffffffffffffffffffffffff16837f2f8788117e7eff1d82e926ec794901d17c78024a50270940304540a733656f0d60405160405180910390a45b5050565b6000620001ee836000018373ffffffffffffffffffffffffffffffffffffffff1660001b620001fe60201b60201c565b905092915050565b600033905090565b60006200021283836200027860201b60201c565b6200026d57826000018290806001815401808255809150506001900390600052602060002001600090919091909150558260000180549050836001016000848152602001908152602001600020819055506001905062000272565b600090505b92915050565b600080836001016000848152602001908152602001600020541415905092915050565b620002b0620002aa8262000337565b6200036b565b82525050565b6000620002c56006836200032c565b91507f57726974657200000000000000000000000000000000000000000000000000006000830152600682019050919050565b60006200030682846200029b565b60148201915081905092915050565b60006200032282620002b6565b9150819050919050565b600081905092915050565b600062000344826200034b565b9050919050565b600073ffffffffffffffffffffffffffffffffffffffff82169050919050565b600062000378826200037f565b9050919050565b60006200038c8262000393565b9050919050565b60008160601b9050919050565b61562d80620003b06000396000f3fe608060405234801561001057600080fd5b50600436106102275760003560e01c80636c8b052a11610130578063c584bb9f116100b8578063da2824a81161007c578063da2824a814610662578063df4eb59c1461067e578063e3c998fe14610688578063fabb9890146106b8578063fd5e6dd1146106d457610227565b8063c584bb9f146105aa578063c8ae0d7d146105c8578063ca15c873146105f8578063d547741f14610628578063d9169b321461064457610227565b806391d14854116100ff57806391d14854146105065780639864f70a14610536578063a217fddf14610552578063a8a3e96f14610570578063bc788d461461058c57610227565b80636c8b052a14610480578063746c8b651461049e5780637b0472f0146104ba5780639010d07c146104d657610227565b80632e17de78116101b357806336568abe1161018257806336568abe146103dc57806342c1e587146103f857806354eae15e146104165780636022a4851461043257806366666aa91461046257610227565b80632e17de781461036a5780632e1a7d4d146103865780632e716fb1146103a25780632f2ff15d146103c057610227565b80631a69f008116101fa5780631a69f0081461029e5780631ad54991146102ce5780631b8b13a7146102ec578063248a9ca31461030a5780632b29ba231461033a57610227565b806306552ff31461022c5780630ec88d3f146102485780630f91ce1914610266578063188dc83b14610282575b600080fd5b610246600480360381019061024191906140f1565b61070b565b005b610250610815565b60405161025d91906151b0565b60405180910390f35b610280600480360381019061027b9190614344565b61081b565b005b61029c600480360381019061029791906142f2565b6109d0565b005b6102b860048036038101906102b39190614393565b610ad5565b6040516102c591906151b0565b60405180910390f35b6102d6610c5b565b6040516102e391906151b0565b60405180910390f35b6102f4610c65565b60405161030191906151b0565b60405180910390f35b610324600480360381019061031f91906141be565b610c6f565b6040516103319190614e0b565b60405180910390f35b610354600480360381019061034f91906140c8565b610c8e565b6040516103619190614df0565b60405180910390f35b610384600480360381019061037f91906142f2565b610cb4565b005b6103a0600480360381019061039b91906142f2565b611125565b005b6103aa6117ca565b6040516103b79190614e41565b60405180910390f35b6103da60048036038101906103d59190614210565b6117f0565b005b6103f660048036038101906103f19190614210565b611863565b005b6104006118e6565b60405161040d9190614e5c565b60405180910390f35b610430600480360381019061042b9190614393565b61190c565b005b61044c600480360381019061044791906140c8565b611962565b60405161045991906151b0565b60405180910390f35b61046a6119ab565b60405161047791906151b0565b60405180910390f35b6104886119b1565b60405161049591906151b0565b60405180910390f35b6104b860048036038101906104b39190614393565b6119b7565b005b6104d460048036038101906104cf9190614393565b611cf4565b005b6104f060048036038101906104eb919061424c565b612605565b6040516104fd9190614d4c565b60405180910390f35b610520600480360381019061051b9190614210565b612636565b60405161052d9190614df0565b60405180910390f35b610550600480360381019061054b9190614393565b612667565b005b61055a6126ce565b6040516105679190614e0b565b60405180910390f35b61058a600480360381019061058591906143cf565b6126d5565b005b610594612774565b6040516105a191906151b0565b60405180910390f35b6105b261277e565b6040516105bf9190614e77565b60405180910390f35b6105e260048036038101906105dd91906140c8565b6127a4565b6040516105ef91906151b0565b60405180910390f35b610612600480360381019061060d91906141be565b6127bc565b60405161061f91906151b0565b60405180910390f35b610642600480360381019061063d9190614210565b6127e2565b005b61064c612855565b6040516106599190614e26565b60405180910390f35b61067c600480360381019061067791906140c8565b61287b565b005b6106866128cf565b005b6106a2600480360381019061069d91906142f2565b6128da565b6040516106af9190615194565b60405180910390f35b6106d260048036038101906106cd9190614393565b6129a4565b005b6106ee60048036038101906106e991906142f2565b612faf565b6040516107029897969594939291906151cb565b60405180910390f35b83600660006101000a81548173ffffffffffffffffffffffffffffffffffffffff021916908373ffffffffffffffffffffffffffffffffffffffff16021790555082600760006101000a81548173ffffffffffffffffffffffffffffffffffffffff021916908373ffffffffffffffffffffffffffffffffffffffff16021790555081600860006101000a81548173ffffffffffffffffffffffffffffffffffffffff021916908373ffffffffffffffffffffffffffffffffffffffff16021790555080600960006101000a81548173ffffffffffffffffffffffffffffffffffffffff021916908373ffffffffffffffffffffffffffffffffffffffff16021790555050505050565b60055481565b61082433610c8e565b610863576040517f08c379a000000000000000000000000000000000000000000000000000000000815260040161085a90615114565b60405180910390fd5b600061088e60028060008781526020019081526020016000206002015461304790919063ffffffff16565b90506108d28460006040518060400160405280600781526020017f536c61736865640000000000000000000000000000000000000000000000000081525085613091565b60018111156109ca57600660009054906101000a900473ffffffffffffffffffffffffffffffffffffffff1673ffffffffffffffffffffffffffffffffffffffff1663a9059cbb84836040518363ffffffff1660e01b8152600401610938929190614dc7565b602060405180830381600087803b15801561095257600080fd5b505af1158015610966573d6000803e3d6000fd5b505050506040513d601f19601f8201168201806040525081019061098a9190614195565b6109c9576040517f08c379a00000000000000000000000000000000000000000000000000000000081526004016109c090614f34565b60405180910390fd5b5b50505050565b6109d933610c8e565b610a18576040517f08c379a0000000000000000000000000000000000000000000000000000000008152600401610a0f90615114565b60405180910390fd5b600960009054906101000a900473ffffffffffffffffffffffffffffffffffffffff1673ffffffffffffffffffffffffffffffffffffffff1663757991a86040518163ffffffff1660e01b815260040160206040518083038186803b158015610a8057600080fd5b505afa158015610a94573d6000803e3d6000fd5b505050506040513d601f19601f82011682018060405250810190610ab8919061431b565b600260008381526020019081526020016000206004018190555050565b6000600a831015610ae857819050610c55565b6000610c2a610c0873__$e861534859442f2de25279a5ccd1626413$__63b1cc45006040518163ffffffff1660e01b815260040160206040518083038186803b158015610b3457600080fd5b505af4158015610b48573d6000803e3d6000fd5b505050506040513d601f19601f82011682018060405250810190610b6c919061431b565b610bfa73__$e861534859442f2de25279a5ccd1626413$__63a86f5a3f6040518163ffffffff1660e01b815260040160206040518083038186803b158015610bb357600080fd5b505af4158015610bc7573d6000803e3d6000fd5b505050506040513d601f19601f82011682018060405250810190610beb919061431b565b8761310e90919063ffffffff16565b61304790919063ffffffff16565b610c1c60018761317e90919063ffffffff16565b61310e90919063ffffffff16565b905082811015610c4f57610c47818461317e90919063ffffffff16565b915050610c55565b60009150505b92915050565b6000600554905090565b6000600454905090565b6000806000838152602001908152602001600020600201549050919050565b6000610cad604051610c9f90614d37565b604051809103902083612636565b9050919050565b80600960009054906101000a900473ffffffffffffffffffffffffffffffffffffffff1673ffffffffffffffffffffffffffffffffffffffff1663757991a86040518163ffffffff1660e01b815260040160206040518083038186803b158015610d1d57600080fd5b505afa158015610d31573d6000803e3d6000fd5b505050506040513d601f19601f82011682018060405250810190610d55919061431b565b8114610d96576040517f08c379a0000000000000000000000000000000000000000000000000000000008152600401610d8d90614ff4565b60405180910390fd5b73__$e861534859442f2de25279a5ccd1626413$__633c7a3aff6040518163ffffffff1660e01b815260040160206040518083038186803b158015610dda57600080fd5b505af4158015610dee573d6000803e3d6000fd5b505050506040513d601f19601f82011682018060405250810190610e12919061444f565b60ff16600960009054906101000a900473ffffffffffffffffffffffffffffffffffffffff1673ffffffffffffffffffffffffffffffffffffffff16631865c57d6040518163ffffffff1660e01b815260040160206040518083038186803b158015610e7d57600080fd5b505afa158015610e91573d6000803e3d6000fd5b505050506040513d601f19601f82011682018060405250810190610eb5919061431b565b8114610ef6576040517f08c379a0000000000000000000000000000000000000000000000000000000008152600401610eed906150f4565b60405180910390fd5b6000600160003373ffffffffffffffffffffffffffffffffffffffff1673ffffffffffffffffffffffffffffffffffffffff1681526020019081526020016000205490506000600260008381526020019081526020016000209050600081600001541415610f99576040517f08c379a0000000000000000000000000000000000000000000000000000000008152600401610f9090615074565b60405180910390fd5b6000816002015411610fe0576040517f08c379a0000000000000000000000000000000000000000000000000000000008152600401610fd790614f74565b60405180910390fd5b84816006015411158015610ff957506000816006015414155b611038576040517f08c379a000000000000000000000000000000000000000000000000000000000815260040161102f90615054565b60405180910390fd5b600081600601819055506110d073__$e861534859442f2de25279a5ccd1626413$__632628490f6040518163ffffffff1660e01b815260040160206040518083038186803b15801561108957600080fd5b505af415801561109d573d6000803e3d6000fd5b505050506040513d601f19601f820116820180604052508101906110c1919061431b565b866131c890919063ffffffff16565b8160070181905550817f0cfbc484edc798d2584502ca0d64e7e9514b8dd091d96a2a5b4deb58478da19e8683600201548460020154426040516111169493929190615348565b60405180910390a25050505050565b80600960009054906101000a900473ffffffffffffffffffffffffffffffffffffffff1673ffffffffffffffffffffffffffffffffffffffff1663757991a86040518163ffffffff1660e01b815260040160206040518083038186803b15801561118e57600080fd5b505afa1580156111a2573d6000803e3d6000fd5b505050506040513d601f19601f820116820180604052508101906111c6919061431b565b8114611207576040517f08c379a00000000000000000000000000000000000000000000000000000000081526004016111fe90614ff4565b60405180910390fd5b73__$e861534859442f2de25279a5ccd1626413$__633c7a3aff6040518163ffffffff1660e01b815260040160206040518083038186803b15801561124b57600080fd5b505af415801561125f573d6000803e3d6000fd5b505050506040513d601f19601f82011682018060405250810190611283919061444f565b60ff16600960009054906101000a900473ffffffffffffffffffffffffffffffffffffffff1673ffffffffffffffffffffffffffffffffffffffff16631865c57d6040518163ffffffff1660e01b815260040160206040518083038186803b1580156112ee57600080fd5b505afa158015611302573d6000803e3d6000fd5b505050506040513d601f19601f82011682018060405250810190611326919061431b565b8114611367576040517f08c379a000000000000000000000000000000000000000000000000000000000815260040161135e906150f4565b60405180910390fd5b6000600160003373ffffffffffffffffffffffffffffffffffffffff1673ffffffffffffffffffffffffffffffffffffffff168152602001908152602001600020549050600060026000838152602001908152602001600020905060008160000154141561140a576040517f08c379a000000000000000000000000000000000000000000000000000000000815260040161140190615034565b60405180910390fd5b61141e60018661317e90919063ffffffff16565b816005015414611463576040517f08c379a000000000000000000000000000000000000000000000000000000000815260040161145a90615014565b60405180910390fd5b60008160060154146114aa576040517f08c379a00000000000000000000000000000000000000000000000000000000081526004016114a1906150d4565b60405180910390fd5b848160070154111580156114c357506000816007015414155b611502576040517f08c379a00000000000000000000000000000000000000000000000000000000081526004016114f990614ef4565b60405180910390fd5b6000801b600760009054906101000a900473ffffffffffffffffffffffffffffffffffffffff1673ffffffffffffffffffffffffffffffffffffffff16637164f0d687856040518363ffffffff1660e01b8152600401611563929190615249565b60206040518083038186803b15801561157b57600080fd5b505afa15801561158f573d6000803e3d6000fd5b505050506040513d601f19601f820116820180604052508101906115b391906141e7565b146115f3576040517f08c379a00000000000000000000000000000000000000000000000000000000081526004016115ea906150b4565b60405180910390fd5b61160181600001548661321d565b6000816002015411611648576040517f08c379a000000000000000000000000000000000000000000000000000000000815260040161163f90615134565b60405180910390fd5b60006002600084815260200190815260200160002060020154905060006002600085815260200190815260200160002060020181905550827f0a6fecee2c95fc6b4c7f291e3435a3a832bcd700c2a7ffdedd8c909d56dfa49f8760026000878152602001908152602001600020600201546000426040516116cc9493929190615272565b60405180910390a2600660009054906101000a900473ffffffffffffffffffffffffffffffffffffffff1673ffffffffffffffffffffffffffffffffffffffff1663a9059cbb33836040518363ffffffff1660e01b8152600401611731929190614d9e565b602060405180830381600087803b15801561174b57600080fd5b505af115801561175f573d6000803e3d6000fd5b505050506040513d601f19601f820116820180604052508101906117839190614195565b6117c2576040517f08c379a00000000000000000000000000000000000000000000000000000000081526004016117b990614fb4565b60405180910390fd5b505050505050565b600960009054906101000a900473ffffffffffffffffffffffffffffffffffffffff1681565b6118166000808481526020019081526020016000206002015461181161363b565b612636565b611855576040517f08c379a000000000000000000000000000000000000000000000000000000000815260040161184c90614ed4565b60405180910390fd5b61185f8282613643565b5050565b61186b61363b565b73ffffffffffffffffffffffffffffffffffffffff168173ffffffffffffffffffffffffffffffffffffffff16146118d8576040517f08c379a00000000000000000000000000000000000000000000000000000000081526004016118cf90615154565b60405180910390fd5b6118e282826136d6565b5050565b600760009054906101000a900473ffffffffffffffffffffffffffffffffffffffff1681565b61191533610c8e565b611954576040517f08c379a000000000000000000000000000000000000000000000000000000000815260040161194b90615114565b60405180910390fd5b61195e828261321d565b5050565b6000600160008373ffffffffffffffffffffffffffffffffffffffff1673ffffffffffffffffffffffffffffffffffffffff168152602001908152602001600020549050919050565b60045481565b60035481565b6119c033610c8e565b6119ff576040517f08c379a00000000000000000000000000000000000000000000000000000000081526004016119f690615114565b60405180910390fd5b600073__$e861534859442f2de25279a5ccd1626413$__630ac168a16040518163ffffffff1660e01b815260040160206040518083038186803b158015611a4557600080fd5b505af4158015611a59573d6000803e3d6000fd5b505050506040513d601f19601f82011682018060405250810190611a7d919061431b565b1115611ca1576000611b2973__$e861534859442f2de25279a5ccd1626413$__630ac168a16040518163ffffffff1660e01b815260040160206040518083038186803b158015611acc57600080fd5b505af4158015611ae0573d6000803e3d6000fd5b505050506040513d601f19601f82011682018060405250810190611b04919061431b565b60026000868152602001908152602001600020600201546131c890919063ffffffff16565b9050611b6c83826040518060400160405280600c81526020017f426c6f636b20526577617264000000000000000000000000000000000000000081525085613091565b600660009054906101000a900473ffffffffffffffffffffffffffffffffffffffff1673ffffffffffffffffffffffffffffffffffffffff166340c10f193073__$e861534859442f2de25279a5ccd1626413$__630ac168a16040518163ffffffff1660e01b815260040160206040518083038186803b158015611bef57600080fd5b505af4158015611c03573d6000803e3d6000fd5b505050506040513d601f19601f82011682018060405250810190611c27919061431b565b6040518363ffffffff1660e01b8152600401611c44929190614dc7565b602060405180830381600087803b158015611c5e57600080fd5b505af1158015611c72573d6000803e3d6000fd5b505050506040513d601f19601f82011682018060405250810190611c969190614195565b611c9f57600080fd5b505b6000600554905060006005819055507feee26d3c1e406e24904d3748e49da85096c92ac1a6ad38f3fe8a404f85212dd1828260055442604051611ce79493929190615348565b60405180910390a1505050565b81600960009054906101000a900473ffffffffffffffffffffffffffffffffffffffff1673ffffffffffffffffffffffffffffffffffffffff1663757991a86040518163ffffffff1660e01b815260040160206040518083038186803b158015611d5d57600080fd5b505afa158015611d71573d6000803e3d6000fd5b505050506040513d601f19601f82011682018060405250810190611d95919061431b565b8114611dd6576040517f08c379a0000000000000000000000000000000000000000000000000000000008152600401611dcd90614ff4565b60405180910390fd5b73__$e861534859442f2de25279a5ccd1626413$__633c7a3aff6040518163ffffffff1660e01b815260040160206040518083038186803b158015611e1a57600080fd5b505af4158015611e2e573d6000803e3d6000fd5b505050506040513d601f19601f82011682018060405250810190611e52919061444f565b60ff16600960009054906101000a900473ffffffffffffffffffffffffffffffffffffffff1673ffffffffffffffffffffffffffffffffffffffff16631865c57d6040518163ffffffff1660e01b815260040160206040518083038186803b158015611ebd57600080fd5b505afa158015611ed1573d6000803e3d6000fd5b505050506040513d601f19601f82011682018060405250810190611ef5919061431b565b8114611f36576040517f08c379a0000000000000000000000000000000000000000000000000000000008152600401611f2d906150f4565b60405180910390fd5b73__$e861534859442f2de25279a5ccd1626413$__63a475b5dd6040518163ffffffff1660e01b815260040160206040518083038186803b158015611f7a57600080fd5b505af4158015611f8e573d6000803e3d6000fd5b505050506040513d601f19601f82011682018060405250810190611fb2919061444f565b60ff16600960009054906101000a900473ffffffffffffffffffffffffffffffffffffffff1673ffffffffffffffffffffffffffffffffffffffff16631865c57d6040518163ffffffff1660e01b815260040160206040518083038186803b15801561201d57600080fd5b505afa158015612031573d6000803e3d6000fd5b505050506040513d601f19601f82011682018060405250810190612055919061431b565b1415612096576040517f08c379a000000000000000000000000000000000000000000000000000000000815260040161208d90615094565b60405180910390fd5b73__$e861534859442f2de25279a5ccd1626413$__63375b3c0a6040518163ffffffff1660e01b815260040160206040518083038186803b1580156120da57600080fd5b505af41580156120ee573d6000803e3d6000fd5b505050506040513d601f19601f82011682018060405250810190612112919061431b565b831015612154576040517f08c379a000000000000000000000000000000000000000000000000000000000815260040161214b90615174565b60405180910390fd5b600660009054906101000a900473ffffffffffffffffffffffffffffffffffffffff1673ffffffffffffffffffffffffffffffffffffffff166323b872dd3330866040518463ffffffff1660e01b81526004016121b393929190614d67565b602060405180830381600087803b1580156121cd57600080fd5b505af11580156121e1573d6000803e3d6000fd5b505050506040513d601f19601f820116820180604052508101906122059190614195565b612244576040517f08c379a000000000000000000000000000000000000000000000000000000000815260040161223b90614f94565b60405180910390fd5b6000600160003373ffffffffffffffffffffffffffffffffffffffff1673ffffffffffffffffffffffffffffffffffffffff168152602001908152602001600020549050600060026000838152602001908152602001600020600201549050600082141561249d576122c260016003546131c890919063ffffffff16565b60038190555060405180610100016040528060035481526020013373ffffffffffffffffffffffffffffffffffffffff16815260200186815260200187815260200160008152602001600081526020016123a073__$e861534859442f2de25279a5ccd1626413$__6326bf1c036040518163ffffffff1660e01b815260040160206040518083038186803b15801561235957600080fd5b505af415801561236d573d6000803e3d6000fd5b505050506040513d601f19601f82011682018060405250810190612391919061431b565b896131c890919063ffffffff16565b815260200160008152506002600060035481526020019081526020016000206000820151816000015560208201518160010160006101000a81548173ffffffffffffffffffffffffffffffffffffffff021916908373ffffffffffffffffffffffffffffffffffffffff16021790555060408201518160020155606082015181600301556080820151816004015560a0820151816005015560c0820151816006015560e08201518160070155905050600354915081600160003373ffffffffffffffffffffffffffffffffffffffff1673ffffffffffffffffffffffffffffffffffffffff168152602001908152602001600020819055506125a9565b6124c68560026000858152602001908152602001600020600201546131c890919063ffffffff16565b600260008481526020019081526020016000206002018190555061256e73__$e861534859442f2de25279a5ccd1626413$__6326bf1c036040518163ffffffff1660e01b815260040160206040518083038186803b15801561252757600080fd5b505af415801561253b573d6000803e3d6000fd5b505050506040513d601f19601f8201168201806040525081019061255f919061431b565b876131c890919063ffffffff16565b600260006003548152602001908152602001600020600601819055506000600260006003548152602001908152602001600020600701819055505b817f52d3b6bf695a499d39fcdb47e3b450c09f2f6aa091ca8809cc51c00e705996cc87836002600087815260200190815260200160002060020154426040516125f59493929190615348565b60405180910390a2505050505050565b600061262e8260008086815260200190815260200160002060000161376990919063ffffffff16565b905092915050565b600061265f8260008086815260200190815260200160002060000161378390919063ffffffff16565b905092915050565b61267033610c8e565b6126af576040517f08c379a00000000000000000000000000000000000000000000000000000000081526004016126a690615114565b60405180910390fd5b8060026000848152602001908152602001600020600501819055505050565b6000801b81565b6126de33610c8e565b61271d576040517f08c379a000000000000000000000000000000000000000000000000000000000815260040161271490615114565b60405180910390fd5b61276d858585858080601f016020809104026020016040519081016040528093929190818152602001838380828437600081840152601f19601f8201169050808301925050505050505084613091565b5050505050565b6000600354905090565b600660009054906101000a900473ffffffffffffffffffffffffffffffffffffffff1681565b60016020528060005260406000206000915090505481565b60006127db6000808481526020019081526020016000206000016137b3565b9050919050565b6128086000808481526020019081526020016000206002015461280361363b565b612636565b612847576040517f08c379a000000000000000000000000000000000000000000000000000000000815260040161283e90614f54565b60405180910390fd5b61285182826136d6565b5050565b600860009054906101000a900473ffffffffffffffffffffffffffffffffffffffff1681565b61288433610c8e565b6128c3576040517f08c379a00000000000000000000000000000000000000000000000000000000081526004016128ba90615114565b60405180910390fd5b6128cc816137c8565b50565b6128d83361382b565b565b6128e2613d54565b6002600083815260200190815260200160002060405180610100016040529081600082015481526020016001820160009054906101000a900473ffffffffffffffffffffffffffffffffffffffff1673ffffffffffffffffffffffffffffffffffffffff1673ffffffffffffffffffffffffffffffffffffffff16815260200160028201548152602001600382015481526020016004820154815260200160058201548152602001600682015481526020016007820154815250509050919050565b6129ad33610c8e565b6129ec576040517f08c379a00000000000000000000000000000000000000000000000000000000081526004016129e390615114565b60405180910390fd5b600060055414156129fc57612fab565b612a04613d54565b6002600084815260200190815260200160002060405180610100016040529081600082015481526020016001820160009054906101000a900473ffffffffffffffffffffffffffffffffffffffff1673ffffffffffffffffffffffffffffffffffffffff1673ffffffffffffffffffffffffffffffffffffffff1681526020016002820154815260200160038201548152602001600482015481526020016005820154815260200160068201548152602001600782015481525050905060008160a001519050600181840314612adb575050612fab565b6060600860009054906101000a900473ffffffffffffffffffffffffffffffffffffffff1673ffffffffffffffffffffffffffffffffffffffff1663378ab9a9836040518263ffffffff1660e01b8152600401612b3891906151b0565b60006040518083038186803b158015612b5057600080fd5b505afa158015612b64573d6000803e3d6000fd5b505050506040513d6000823e3d601f19601f82011682018060405250810190612b8d9190614154565b90506060600860009054906101000a900473ffffffffffffffffffffffffffffffffffffffff1673ffffffffffffffffffffffffffffffffffffffff1663d2a4669a846040518263ffffffff1660e01b8152600401612bec91906151b0565b60006040518083038186803b158015612c0457600080fd5b505afa158015612c18573d6000803e3d6000fd5b505050506040513d6000823e3d601f19601f82011682018060405250810190612c419190614154565b90506060600860009054906101000a900473ffffffffffffffffffffffffffffffffffffffff1673ffffffffffffffffffffffffffffffffffffffff1663fae4425d856040518263ffffffff1660e01b8152600401612ca091906151b0565b60006040518083038186803b158015612cb857600080fd5b505afa158015612ccc573d6000803e3d6000fd5b505050506040513d6000823e3d601f19601f82011682018060405250810190612cf59190614154565b9050600082511115612fa557600080905060008090505b8351811015612e4b576000600760009054906101000a900473ffffffffffffffffffffffffffffffffffffffff1673ffffffffffffffffffffffffffffffffffffffff16638ce7ff4a888a60000151856040518463ffffffff1660e01b8152600401612d7a93929190615311565b604080518083038186803b158015612d9157600080fd5b505afa158015612da5573d6000803e3d6000fd5b505050506040513d601f19601f82011682018060405250810190612dc991906142c9565b6000015190506000868381518110612ddd57fe5b602002602001015190506000868481518110612df557fe5b602002602001015190506000868581518110612e0d57fe5b6020026020010151905082841480612e2e575081841180612e2d57508084105b5b15612e3a576001860195505b505050508080600101915050612d0c565b506000835160055402826004548960400151020281612e6657fe5b0490506000811115612fa2576000600554905087604001516005541015612e8e576000612ea8565b612ea7886040015160055461317e90919063ffffffff16565b5b6005819055507feee26d3c1e406e24904d3748e49da85096c92ac1a6ad38f3fe8a404f85212dd1898260055442604051612ee59493929190615348565b60405180910390a1600082896040015101905060006004549050612f148460045461317e90919063ffffffff16565b6004819055507ff7157643fd549e213a0105625da6b3bf58c86068ccb954a4449e18bf9427bff48b8260045442604051612f519493929190615348565b60405180910390a1612f9e8a60000151836040518060400160405280600e81526020017f566f74696e6720526577617264730000000000000000000000000000000000008152508e613091565b5050505b50505b50505050505b5050565b60026020528060005260406000206000915090508060000154908060010160009054906101000a900473ffffffffffffffffffffffffffffffffffffffff16908060020154908060030154908060040154908060050154908060060154908060070154905088565b600061303f836000018373ffffffffffffffffffffffffffffffffffffffff1660001b61388e565b905092915050565b600061308983836040518060400160405280601a81526020017f536166654d6174683a206469766973696f6e206279207a65726f0000000000008152506138fe565b905092915050565b600060026000868152602001908152602001600020600201549050836002600087815260200190815260200160002060020181905550847fab9982d99de79485b3cd6d1e72c881fd0342f42f1cbc7d220d4f373b97c4f36382868686426040516130ff9594939291906152b7565b60405180910390a25050505050565b6000808314156131215760009050613178565b600082840290508284828161313257fe5b0414613173576040517f08c379a000000000000000000000000000000000000000000000000000000000815260040161316a90614fd4565b60405180910390fd5b809150505b92915050565b60006131c083836040518060400160405280601e81526020017f536166654d6174683a207375627472616374696f6e206f766572666c6f77000081525061395f565b905092915050565b600080828401905083811015613213576040517f08c379a000000000000000000000000000000000000000000000000000000000815260040161320a90614f14565b60405180910390fd5b8091505092915050565b61322782826139ba565b6000600260008481526020019081526020016000209050600081600201549050600082600501549050613258613daf565b600860009054906101000a900473ffffffffffffffffffffffffffffffffffffffff1673ffffffffffffffffffffffffffffffffffffffff166304c07569836040518263ffffffff1660e01b81526004016132b391906151b0565b60006040518083038186803b1580156132cb57600080fd5b505afa1580156132df573d6000803e3d6000fd5b505050506040513d6000823e3d601f19601f820116820180604052508101906133089190614288565b905060608160600151905060608260800151905060608360400151905060008351111561363057600080905060008090505b84518110156134f2576000600760009054906101000a900473ffffffffffffffffffffffffffffffffffffffff1673ffffffffffffffffffffffffffffffffffffffff16638ce7ff4a898c60000154856040518463ffffffff1660e01b81526004016133a893929190615311565b604080518083038186803b1580156133bf57600080fd5b505afa1580156133d3573d6000803e3d6000fd5b505050506040513d601f19601f820116820180604052508101906133f791906142c9565b600001519050600086838151811061340b57fe5b60200260200101519050600086848151811061342357fe5b60200260200101519050600086858151811061343b57fe5b602002602001015190508284108061345257508184115b156134e15773__$e861534859442f2de25279a5ccd1626413$__633002c9ac6040518163ffffffff1660e01b815260040160206040518083038186803b15801561349b57600080fd5b505af41580156134af573d6000803e3d6000fd5b505050506040513d601f19601f820116820180604052508101906134d3919061431b565b8c816134db57fe5b04860195505b50505050808060010191505061333a565b5060008111156135cb57868111613509578061350b565b865b90506135648860000154613528838a61317e90919063ffffffff16565b6040518060400160405280600e81526020017f566f74696e672050656e616c74790000000000000000000000000000000000008152508c613091565b60006004549050613580826004546131c890919063ffffffff16565b6004819055507ff7157643fd549e213a0105625da6b3bf58c86068ccb954a4449e18bf9427bff48a82600454426040516135bd9493929190615348565b60405180910390a15061362e565b600060055490506135e7886005546131c890919063ffffffff16565b6005819055507feee26d3c1e406e24904d3748e49da85096c92ac1a6ad38f3fe8a404f85212dd18a82600554426040516136249493929190615348565b60405180910390a1505b505b505050505050505050565b600033905090565b61366a8160008085815260200190815260200160002060000161301790919063ffffffff16565b156136d25761367761363b565b73ffffffffffffffffffffffffffffffffffffffff168173ffffffffffffffffffffffffffffffffffffffff16837f2f8788117e7eff1d82e926ec794901d17c78024a50270940304540a733656f0d60405160405180910390a45b5050565b6136fd81600080858152602001908152602001600020600001613b9b90919063ffffffff16565b156137655761370a61363b565b73ffffffffffffffffffffffffffffffffffffffff168173ffffffffffffffffffffffffffffffffffffffff16837ff6391f5c32d9c69d2a47ea670b442974b53935d1edc7fd64eb21e047a839171b60405160405180910390a45b5050565b60006137788360000183613bcb565b60001c905092915050565b60006137ab836000018373ffffffffffffffffffffffffffffffffffffffff1660001b613c38565b905092915050565b60006137c182600001613c5b565b9050919050565b6137e56040516137d790614d37565b6040518091039020826117f0565b8073ffffffffffffffffffffffffffffffffffffffff167f6ff3aa2ea7b53070f6d9d07a445d338d89e8edef44250ffa8be19f53910d4a2e60405160405180910390a250565b61384860405161383a90614d37565b604051809103902082611863565b8073ffffffffffffffffffffffffffffffffffffffff167f86e5bbceda94081c32220d685f37cc4e3ea7bb0be2dfbf0cb703579505a5390e60405160405180910390a250565b600061389a8383613c38565b6138f35782600001829080600181540180825580915050600190039060005260206000200160009091909190915055826000018054905083600101600084815260200190815260200160002081905550600190506138f8565b600090505b92915050565b60008083118290613945576040517f08c379a000000000000000000000000000000000000000000000000000000000815260040161393c9190614e92565b60405180910390fd5b50600083858161395157fe5b049050809150509392505050565b60008383111582906139a7576040517f08c379a000000000000000000000000000000000000000000000000000000000815260040161399e9190614e92565b60405180910390fd5b5060008385039050809150509392505050565b6139c2613d54565b6002600084815260200190815260200160002060405180610100016040529081600082015481526020016001820160009054906101000a900473ffffffffffffffffffffffffffffffffffffffff1673ffffffffffffffffffffffffffffffffffffffff1673ffffffffffffffffffffffffffffffffffffffff1681526020016002820154815260200160038201548152602001600482015481526020016005820154815260200160068201548152602001600782015481525050905060008160a00151826060015110613a9a578160600151613aa0565b8160a001515b90506000613ab7828561317e90919063ffffffff16565b90506000836040015190506000613ace8383610ad5565b905081811015613b9257613b1d8560000151826040518060400160405280601281526020017f496e61637469766974792050656e616c7479000000000000000000000000000081525089613091565b60006004549050613b4b613b3a838561317e90919063ffffffff16565b6004546131c890919063ffffffff16565b6004819055507ff7157643fd549e213a0105625da6b3bf58c86068ccb954a4449e18bf9427bff4878260045442604051613b889493929190615348565b60405180910390a1505b50505050505050565b6000613bc3836000018373ffffffffffffffffffffffffffffffffffffffff1660001b613c6c565b905092915050565b600081836000018054905011613c16576040517f08c379a0000000000000000000000000000000000000000000000000000000008152600401613c0d90614eb4565b60405180910390fd5b826000018281548110613c2557fe5b9060005260206000200154905092915050565b600080836001016000848152602001908152602001600020541415905092915050565b600081600001805490509050919050565b60008083600101600084815260200190815260200160002054905060008114613d485760006001820390506000600186600001805490500390506000866000018281548110613cb757fe5b9060005260206000200154905080876000018481548110613cd457fe5b9060005260206000200181905550600183018760010160008381526020019081526020016000208190555086600001805480613d0c57fe5b60019003818190600052602060002001600090559055866001016000878152602001908152602001600020600090556001945050505050613d4e565b60009150505b92915050565b60405180610100016040528060008152602001600073ffffffffffffffffffffffffffffffffffffffff1681526020016000815260200160008152602001600081526020016000815260200160008152602001600081525090565b604051806101000160405280600081526020016060815260200160608152602001606081526020016060815260200160008152602001600081526020016000151581525090565b600081359050613e0581615584565b92915050565b600082601f830112613e1c57600080fd5b8151613e2f613e2a826153ba565b61538d565b91508181835260208401935060208101905083856020840282011115613e5457600080fd5b60005b83811015613e845781613e6a888261409e565b845260208401935060208301925050600181019050613e57565b5050505092915050565b600081519050613e9d8161559b565b92915050565b600081359050613eb2816155b2565b92915050565b600081519050613ec7816155b2565b92915050565b60008083601f840112613edf57600080fd5b8235905067ffffffffffffffff811115613ef857600080fd5b602083019150836001820283011115613f1057600080fd5b9250929050565b60006101008284031215613f2a57600080fd5b613f3561010061538d565b90506000613f458482850161409e565b600083015250602082015167ffffffffffffffff811115613f6557600080fd5b613f7184828501613e0b565b602083015250604082015167ffffffffffffffff811115613f9157600080fd5b613f9d84828501613e0b565b604083015250606082015167ffffffffffffffff811115613fbd57600080fd5b613fc984828501613e0b565b606083015250608082015167ffffffffffffffff811115613fe957600080fd5b613ff584828501613e0b565b60808301525060a06140098482850161409e565b60a08301525060c061401d8482850161409e565b60c08301525060e061403184828501613e8e565b60e08301525092915050565b60006040828403121561404f57600080fd5b614059604061538d565b905060006140698482850161409e565b600083015250602061407d8482850161409e565b60208301525092915050565b600081359050614098816155c9565b92915050565b6000815190506140ad816155c9565b92915050565b6000815190506140c2816155e0565b92915050565b6000602082840312156140da57600080fd5b60006140e884828501613df6565b91505092915050565b6000806000806080858703121561410757600080fd5b600061411587828801613df6565b945050602061412687828801613df6565b935050604061413787828801613df6565b925050606061414887828801613df6565b91505092959194509250565b60006020828403121561416657600080fd5b600082015167ffffffffffffffff81111561418057600080fd5b61418c84828501613e0b565b91505092915050565b6000602082840312156141a757600080fd5b60006141b584828501613e8e565b91505092915050565b6000602082840312156141d057600080fd5b60006141de84828501613ea3565b91505092915050565b6000602082840312156141f957600080fd5b600061420784828501613eb8565b91505092915050565b6000806040838503121561422357600080fd5b600061423185828601613ea3565b925050602061424285828601613df6565b9150509250929050565b6000806040838503121561425f57600080fd5b600061426d85828601613ea3565b925050602061427e85828601614089565b9150509250929050565b60006020828403121561429a57600080fd5b600082015167ffffffffffffffff8111156142b457600080fd5b6142c084828501613f17565b91505092915050565b6000604082840312156142db57600080fd5b60006142e98482850161403d565b91505092915050565b60006020828403121561430457600080fd5b600061431284828501614089565b91505092915050565b60006020828403121561432d57600080fd5b600061433b8482850161409e565b91505092915050565b60008060006060848603121561435957600080fd5b600061436786828701614089565b935050602061437886828701613df6565b925050604061438986828701614089565b9150509250925092565b600080604083850312156143a657600080fd5b60006143b485828601614089565b92505060206143c585828601614089565b9150509250929050565b6000806000806000608086880312156143e757600080fd5b60006143f588828901614089565b955050602061440688828901614089565b945050604086013567ffffffffffffffff81111561442357600080fd5b61442f88828901613ecd565b9350935050606061444288828901614089565b9150509295509295909350565b60006020828403121561446157600080fd5b600061446f848285016140b3565b91505092915050565b61448181615468565b82525050565b61449081615409565b82525050565b61449f81615409565b82525050565b6144ae8161541b565b82525050565b6144bd81615427565b82525050565b6144cc8161547a565b82525050565b6144db8161549e565b82525050565b6144ea816154c2565b82525050565b6144f9816154e6565b82525050565b6145088161550a565b82525050565b6000614519826153e2565b61452381856153ed565b9350614533818560208601615540565b61453c81615573565b840191505092915050565b60006145546022836153ed565b91507f456e756d657261626c655365743a20696e646578206f7574206f6620626f756e60008301527f64730000000000000000000000000000000000000000000000000000000000006020830152604082019050919050565b60006145ba602f836153ed565b91507f416363657373436f6e74726f6c3a2073656e646572206d75737420626520616e60008301527f2061646d696e20746f206772616e7400000000000000000000000000000000006020830152604082019050919050565b6000614620601a836153ed565b91507f57697468647261772065706f6368206e6f7420726561636865640000000000006000830152602082019050919050565b6000614660601b836153ed565b91507f536166654d6174683a206164646974696f6e206f766572666c6f7700000000006000830152602082019050919050565b60006146a06019836153ed565b91507f6661696c656420746f207472616e7366657220626f756e7479000000000000006000830152602082019050919050565b60006146e06030836153ed565b91507f416363657373436f6e74726f6c3a2073656e646572206d75737420626520616e60008301527f2061646d696e20746f207265766f6b65000000000000000000000000000000006020830152604082019050919050565b60006147466011836153ed565b91507f4e6f6e706f736974697665207374616b650000000000000000000000000000006000830152602082019050919050565b60006147866013836153ed565b91507f736368207472616e73666572206661696c6564000000000000000000000000006000830152602082019050919050565b60006147c66006836153fe565b91507f57726974657200000000000000000000000000000000000000000000000000006000830152600682019050919050565b60006148066010836153ed565b91507f636f756c646e74207472616e73666572000000000000000000000000000000006000830152602082019050919050565b60006148466021836153ed565b91507f536166654d6174683a206d756c7469706c69636174696f6e206f766572666c6f60008301527f77000000000000000000000000000000000000000000000000000000000000006020830152604082019050919050565b60006148ac600f836153ed565b91507f696e636f72726563742065706f636800000000000000000000000000000000006000830152602082019050919050565b60006148ec601a836153ed565b91507f4469646e742072657665616c20696e206c6173742065706f63680000000000006000830152602082019050919050565b600061492c6013836153ed565b91507f7374616b657220646f65736e74206578697374000000000000000000000000006000830152602082019050919050565b600061496c6006836153ed565b91507f6c6f636b656400000000000000000000000000000000000000000000000000006000830152602082019050919050565b60006149ac600d836153ed565b91507f7374616b65722e6964203d2030000000000000000000000000000000000000006000830152602082019050919050565b60006149ec600f836153ed565b91507f496e636f727265637420737461746500000000000000000000000000000000006000830152602082019050919050565b6000614a2c602a836153ed565b91507f616c726561647920636f6d6d6974656420746869732065706f63682e2043616e60008301527f74207769746864726177000000000000000000000000000000000000000000006020830152604082019050919050565b6000614a92600f836153ed565b91507f446964206e6f7420756e7374616b6500000000000000000000000000000000006000830152602082019050919050565b6000614ad2600f836153ed565b91507f696e636f727265637420737461746500000000000000000000000000000000006000830152602082019050919050565b6000614b126030836153ed565b91507f577269746572526f6c653a2063616c6c657220646f6573206e6f74206861766560008301527f207468652057726974657220726f6c65000000000000000000000000000000006020830152604082019050919050565b6000614b786011836153ed565b91507f4e6f6e706f736974697665205374616b650000000000000000000000000000006000830152602082019050919050565b6000614bb8602f836153ed565b91507f416363657373436f6e74726f6c3a2063616e206f6e6c792072656e6f756e636560008301527f20726f6c657320666f722073656c6600000000000000000000000000000000006020830152604082019050919050565b6000614c1e6031836153ed565b91507f7374616b656420616d6f756e74206973206c657373207468616e206d696e696d60008301527f756d207374616b652072657175697265640000000000000000000000000000006020830152604082019050919050565b61010082016000820151614c8e6000850182614d19565b506020820151614ca16020850182614487565b506040820151614cb46040850182614d19565b506060820151614cc76060850182614d19565b506080820151614cda6080850182614d19565b5060a0820151614ced60a0850182614d19565b5060c0820151614d0060c0850182614d19565b5060e0820151614d1360e0850182614d19565b50505050565b614d2281615451565b82525050565b614d3181615451565b82525050565b6000614d42826147b9565b9150819050919050565b6000602082019050614d616000830184614496565b92915050565b6000606082019050614d7c6000830186614478565b614d896020830185614496565b614d966040830184614d28565b949350505050565b6000604082019050614db36000830185614478565b614dc06020830184614d28565b9392505050565b6000604082019050614ddc6000830185614496565b614de96020830184614d28565b9392505050565b6000602082019050614e0560008301846144a5565b92915050565b6000602082019050614e2060008301846144b4565b92915050565b6000602082019050614e3b60008301846144c3565b92915050565b6000602082019050614e5660008301846144d2565b92915050565b6000602082019050614e7160008301846144e1565b92915050565b6000602082019050614e8c60008301846144f0565b92915050565b60006020820190508181036000830152614eac818461450e565b905092915050565b60006020820190508181036000830152614ecd81614547565b9050919050565b60006020820190508181036000830152614eed816145ad565b9050919050565b60006020820190508181036000830152614f0d81614613565b9050919050565b60006020820190508181036000830152614f2d81614653565b9050919050565b60006020820190508181036000830152614f4d81614693565b9050919050565b60006020820190508181036000830152614f6d816146d3565b9050919050565b60006020820190508181036000830152614f8d81614739565b9050919050565b60006020820190508181036000830152614fad81614779565b9050919050565b60006020820190508181036000830152614fcd816147f9565b9050919050565b60006020820190508181036000830152614fed81614839565b9050919050565b6000602082019050818103600083015261500d8161489f565b9050919050565b6000602082019050818103600083015261502d816148df565b9050919050565b6000602082019050818103600083015261504d8161491f565b9050919050565b6000602082019050818103600083015261506d8161495f565b9050919050565b6000602082019050818103600083015261508d8161499f565b9050919050565b600060208201905081810360008301526150ad816149df565b9050919050565b600060208201905081810360008301526150cd81614a1f565b9050919050565b600060208201905081810360008301526150ed81614a85565b9050919050565b6000602082019050818103600083015261510d81614ac5565b9050919050565b6000602082019050818103600083015261512d81614b05565b9050919050565b6000602082019050818103600083015261514d81614b6b565b9050919050565b6000602082019050818103600083015261516d81614bab565b9050919050565b6000602082019050818103600083015261518d81614c11565b9050919050565b6000610100820190506151aa6000830184614c77565b92915050565b60006020820190506151c56000830184614d28565b92915050565b6000610100820190506151e1600083018b614d28565b6151ee602083018a614496565b6151fb6040830189614d28565b6152086060830188614d28565b6152156080830187614d28565b61522260a0830186614d28565b61522f60c0830185614d28565b61523c60e0830184614d28565b9998505050505050505050565b600060408201905061525e6000830185614d28565b61526b6020830184614d28565b9392505050565b60006080820190506152876000830187614d28565b6152946020830186614d28565b6152a160408301856144ff565b6152ae6060830184614d28565b95945050505050565b600060a0820190506152cc6000830188614d28565b6152d96020830187614d28565b81810360408301526152eb818661450e565b90506152fa6060830185614d28565b6153076080830184614d28565b9695505050505050565b60006060820190506153266000830186614d28565b6153336020830185614d28565b6153406040830184614d28565b949350505050565b600060808201905061535d6000830187614d28565b61536a6020830186614d28565b6153776040830185614d28565b6153846060830184614d28565b95945050505050565b6000604051905081810181811067ffffffffffffffff821117156153b057600080fd5b8060405250919050565b600067ffffffffffffffff8211156153d157600080fd5b602082029050602081019050919050565b600081519050919050565b600082825260208201905092915050565b600081905092915050565b600061541482615431565b9050919050565b60008115159050919050565b6000819050919050565b600073ffffffffffffffffffffffffffffffffffffffff82169050919050565b6000819050919050565b600060ff82169050919050565b60006154738261551c565b9050919050565b60006154858261548c565b9050919050565b600061549782615431565b9050919050565b60006154a9826154b0565b9050919050565b60006154bb82615431565b9050919050565b60006154cd826154d4565b9050919050565b60006154df82615431565b9050919050565b60006154f1826154f8565b9050919050565b600061550382615431565b9050919050565b600061551582615451565b9050919050565b60006155278261552e565b9050919050565b600061553982615431565b9050919050565b60005b8381101561555e578082015181840152602081019050615543565b8381111561556d576000848401525b50505050565b6000601f19601f8301169050919050565b61558d81615409565b811461559857600080fd5b50565b6155a48161541b565b81146155af57600080fd5b50565b6155bb81615427565b81146155c657600080fd5b50565b6155d281615451565b81146155dd57600080fd5b50565b6155e98161545b565b81146155f457600080fd5b5056fea26469706673582212209ac42d11fa763f8db00239e00264121646d1df65c92bc98bce58ed6155e2ba0264736f6c634300060b0033","opcodes":"PUSH1 0x80 PUSH1 0x40 MSTORE PUSH1 0x0 PUSH1 0x3 SSTORE PUSH1 0x0 PUSH1 0x4 SSTORE PUSH1 0x0 PUSH1 0x5 SSTORE CALLVALUE DUP1 ISZERO PUSH3 0x20 JUMPI PUSH1 0x0 DUP1 REVERT JUMPDEST POP PUSH1 0x0 CALLER PUSH1 0x40 MLOAD PUSH1 0x20 ADD PUSH3 0x36 SWAP2 SWAP1 PUSH3 0x2F8 JUMP JUMPDEST PUSH1 0x40 MLOAD PUSH1 0x20 DUP2 DUP4 SUB SUB DUP2 MSTORE SWAP1 PUSH1 0x40 MSTORE DUP1 MLOAD SWAP1 PUSH1 0x20 ADD KECCAK256 SWAP1 POP PUSH3 0x75 PUSH1 0x40 MLOAD PUSH3 0x60 SWAP1 PUSH3 0x315 JUMP JUMPDEST PUSH1 0x40 MLOAD DUP1 SWAP2 SUB SWAP1 KECCAK256 DUP3 PUSH3 0xA3 PUSH1 0x20 SHL PUSH1 0x20 SHR JUMP JUMPDEST PUSH3 0x9C PUSH1 0x40 MLOAD PUSH3 0x87 SWAP1 PUSH3 0x315 JUMP JUMPDEST PUSH1 0x40 MLOAD DUP1 SWAP2 SUB SWAP1 KECCAK256 CALLER PUSH3 0x105 PUSH1 0x20 SHL PUSH1 0x20 SHR JUMP JUMPDEST POP PUSH3 0x3A0 JUMP JUMPDEST DUP1 PUSH1 0x0 DUP1 DUP5 DUP2 MSTORE PUSH1 0x20 ADD SWAP1 DUP2 MSTORE PUSH1 0x20 ADD PUSH1 0x0 KECCAK256 PUSH1 0x2 ADD SLOAD DUP4 PUSH32 0xBD79B86FFE0AB8E8776151514217CD7CACD52C909F66475C3AF44E129F0B00FF PUSH1 0x40 MLOAD PUSH1 0x40 MLOAD DUP1 SWAP2 SUB SWAP1 LOG4 DUP1 PUSH1 0x0 DUP1 DUP5 DUP2 MSTORE PUSH1 0x20 ADD SWAP1 DUP2 MSTORE PUSH1 0x20 ADD PUSH1 0x0 KECCAK256 PUSH1 0x2 ADD DUP2 SWAP1 SSTORE POP POP POP JUMP JUMPDEST PUSH3 0x117 DUP3 DUP3 PUSH3 0x11B PUSH1 0x20 SHL PUSH1 0x20 SHR JUMP JUMPDEST POP POP JUMP JUMPDEST PUSH3 0x149 DUP2 PUSH1 0x0 DUP1 DUP6 DUP2 MSTORE PUSH1 0x20 ADD SWAP1 DUP2 MSTORE PUSH1 0x20 ADD PUSH1 0x0 KECCAK256 PUSH1 0x0 ADD PUSH3 0x1BE PUSH1 0x20 SHL PUSH3 0x3017 OR SWAP1 SWAP2 SWAP1 PUSH1 0x20 SHR JUMP JUMPDEST ISZERO PUSH3 0x1BA JUMPI PUSH3 0x15F PUSH3 0x1F6 PUSH1 0x20 SHL PUSH1 0x20 SHR JUMP JUMPDEST PUSH20 0xFFFFFFFFFFFFFFFFFFFFFFFFFFFFFFFFFFFFFFFF AND DUP2 PUSH20 0xFFFFFFFFFFFFFFFFFFFFFFFFFFFFFFFFFFFFFFFF AND DUP4 PUSH32 0x2F8788117E7EFF1D82E926EC794901D17C78024A50270940304540A733656F0D PUSH1 0x40 MLOAD PUSH1 0x40 MLOAD DUP1 SWAP2 SUB SWAP1 LOG4 JUMPDEST POP POP JUMP JUMPDEST PUSH1 0x0 PUSH3 0x1EE DUP4 PUSH1 0x0 ADD DUP4 PUSH20 0xFFFFFFFFFFFFFFFFFFFFFFFFFFFFFFFFFFFFFFFF AND PUSH1 0x0 SHL PUSH3 0x1FE PUSH1 0x20 SHL PUSH1 0x20 SHR JUMP JUMPDEST SWAP1 POP SWAP3 SWAP2 POP POP JUMP JUMPDEST PUSH1 0x0 CALLER SWAP1 POP SWAP1 JUMP JUMPDEST PUSH1 0x0 PUSH3 0x212 DUP4 DUP4 PUSH3 0x278 PUSH1 0x20 SHL PUSH1 0x20 SHR JUMP JUMPDEST PUSH3 0x26D JUMPI DUP3 PUSH1 0x0 ADD DUP3 SWAP1 DUP1 PUSH1 0x1 DUP2 SLOAD ADD DUP1 DUP3 SSTORE DUP1 SWAP2 POP POP PUSH1 0x1 SWAP1 SUB SWAP1 PUSH1 0x0 MSTORE PUSH1 0x20 PUSH1 0x0 KECCAK256 ADD PUSH1 0x0 SWAP1 SWAP2 SWAP1 SWAP2 SWAP1 SWAP2 POP SSTORE DUP3 PUSH1 0x0 ADD DUP1 SLOAD SWAP1 POP DUP4 PUSH1 0x1 ADD PUSH1 0x0 DUP5 DUP2 MSTORE PUSH1 0x20 ADD SWAP1 DUP2 MSTORE PUSH1 0x20 ADD PUSH1 0x0 KECCAK256 DUP2 SWAP1 SSTORE POP PUSH1 0x1 SWAP1 POP PUSH3 0x272 JUMP JUMPDEST PUSH1 0x0 SWAP1 POP JUMPDEST SWAP3 SWAP2 POP POP JUMP JUMPDEST PUSH1 0x0 DUP1 DUP4 PUSH1 0x1 ADD PUSH1 0x0 DUP5 DUP2 MSTORE PUSH1 0x20 ADD SWAP1 DUP2 MSTORE PUSH1 0x20 ADD PUSH1 0x0 KECCAK256 SLOAD EQ ISZERO SWAP1 POP SWAP3 SWAP2 POP POP JUMP JUMPDEST PUSH3 0x2B0 PUSH3 0x2AA DUP3 PUSH3 0x337 JUMP JUMPDEST PUSH3 0x36B JUMP JUMPDEST DUP3 MSTORE POP POP JUMP JUMPDEST PUSH1 0x0 PUSH3 0x2C5 PUSH1 0x6 DUP4 PUSH3 0x32C JUMP JUMPDEST SWAP2 POP PUSH32 0x5772697465720000000000000000000000000000000000000000000000000000 PUSH1 0x0 DUP4 ADD MSTORE PUSH1 0x6 DUP3 ADD SWAP1 POP SWAP2 SWAP1 POP JUMP JUMPDEST PUSH1 0x0 PUSH3 0x306 DUP3 DUP5 PUSH3 0x29B JUMP JUMPDEST PUSH1 0x14 DUP3 ADD SWAP2 POP DUP2 SWAP1 POP SWAP3 SWAP2 POP POP JUMP JUMPDEST PUSH1 0x0 PUSH3 0x322 DUP3 PUSH3 0x2B6 JUMP JUMPDEST SWAP2 POP DUP2 SWAP1 POP SWAP2 SWAP1 POP JUMP JUMPDEST PUSH1 0x0 DUP2 SWAP1 POP SWAP3 SWAP2 POP POP JUMP JUMPDEST PUSH1 0x0 PUSH3 0x344 DUP3 PUSH3 0x34B JUMP JUMPDEST SWAP1 POP SWAP2 SWAP1 POP JUMP JUMPDEST PUSH1 0x0 PUSH20 0xFFFFFFFFFFFFFFFFFFFFFFFFFFFFFFFFFFFFFFFF DUP3 AND SWAP1 POP SWAP2 SWAP1 POP JUMP JUMPDEST PUSH1 0x0 PUSH3 0x378 DUP3 PUSH3 0x37F JUMP JUMPDEST SWAP1 POP SWAP2 SWAP1 POP JUMP JUMPDEST PUSH1 0x0 PUSH3 0x38C DUP3 PUSH3 0x393 JUMP JUMPDEST SWAP1 POP SWAP2 SWAP1 POP JUMP JUMPDEST PUSH1 0x0 DUP2 PUSH1 0x60 SHL SWAP1 POP SWAP2 SWAP1 POP JUMP JUMPDEST PUSH2 0x562D DUP1 PUSH3 0x3B0 PUSH1 0x0 CODECOPY PUSH1 0x0 RETURN INVALID PUSH1 0x80 PUSH1 0x40 MSTORE CALLVALUE DUP1 ISZERO PUSH2 0x10 JUMPI PUSH1 0x0 DUP1 REVERT JUMPDEST POP PUSH1 0x4 CALLDATASIZE LT PUSH2 0x227 JUMPI PUSH1 0x0 CALLDATALOAD PUSH1 0xE0 SHR DUP1 PUSH4 0x6C8B052A GT PUSH2 0x130 JUMPI DUP1 PUSH4 0xC584BB9F GT PUSH2 0xB8 JUMPI DUP1 PUSH4 0xDA2824A8 GT PUSH2 0x7C JUMPI DUP1 PUSH4 0xDA2824A8 EQ PUSH2 0x662 JUMPI DUP1 PUSH4 0xDF4EB59C EQ PUSH2 0x67E JUMPI DUP1 PUSH4 0xE3C998FE EQ PUSH2 0x688 JUMPI DUP1 PUSH4 0xFABB9890 EQ PUSH2 0x6B8 JUMPI DUP1 PUSH4 0xFD5E6DD1 EQ PUSH2 0x6D4 JUMPI PUSH2 0x227 JUMP JUMPDEST DUP1 PUSH4 0xC584BB9F EQ PUSH2 0x5AA JUMPI DUP1 PUSH4 0xC8AE0D7D EQ PUSH2 0x5C8 JUMPI DUP1 PUSH4 0xCA15C873 EQ PUSH2 0x5F8 JUMPI DUP1 PUSH4 0xD547741F EQ PUSH2 0x628 JUMPI DUP1 PUSH4 0xD9169B32 EQ PUSH2 0x644 JUMPI PUSH2 0x227 JUMP JUMPDEST DUP1 PUSH4 0x91D14854 GT PUSH2 0xFF JUMPI DUP1 PUSH4 0x91D14854 EQ PUSH2 0x506 JUMPI DUP1 PUSH4 0x9864F70A EQ PUSH2 0x536 JUMPI DUP1 PUSH4 0xA217FDDF EQ PUSH2 0x552 JUMPI DUP1 PUSH4 0xA8A3E96F EQ PUSH2 0x570 JUMPI DUP1 PUSH4 0xBC788D46 EQ PUSH2 0x58C JUMPI PUSH2 0x227 JUMP JUMPDEST DUP1 PUSH4 0x6C8B052A EQ PUSH2 0x480 JUMPI DUP1 PUSH4 0x746C8B65 EQ PUSH2 0x49E JUMPI DUP1 PUSH4 0x7B0472F0 EQ PUSH2 0x4BA JUMPI DUP1 PUSH4 0x9010D07C EQ PUSH2 0x4D6 JUMPI PUSH2 0x227 JUMP JUMPDEST DUP1 PUSH4 0x2E17DE78 GT PUSH2 0x1B3 JUMPI DUP1 PUSH4 0x36568ABE GT PUSH2 0x182 JUMPI DUP1 PUSH4 0x36568ABE EQ PUSH2 0x3DC JUMPI DUP1 PUSH4 0x42C1E587 EQ PUSH2 0x3F8 JUMPI DUP1 PUSH4 0x54EAE15E EQ PUSH2 0x416 JUMPI DUP1 PUSH4 0x6022A485 EQ PUSH2 0x432 JUMPI DUP1 PUSH4 0x66666AA9 EQ PUSH2 0x462 JUMPI PUSH2 0x227 JUMP JUMPDEST DUP1 PUSH4 0x2E17DE78 EQ PUSH2 0x36A JUMPI DUP1 PUSH4 0x2E1A7D4D EQ PUSH2 0x386 JUMPI DUP1 PUSH4 0x2E716FB1 EQ PUSH2 0x3A2 JUMPI DUP1 PUSH4 0x2F2FF15D EQ PUSH2 0x3C0 JUMPI PUSH2 0x227 JUMP JUMPDEST DUP1 PUSH4 0x1A69F008 GT PUSH2 0x1FA JUMPI DUP1 PUSH4 0x1A69F008 EQ PUSH2 0x29E JUMPI DUP1 PUSH4 0x1AD54991 EQ PUSH2 0x2CE JUMPI DUP1 PUSH4 0x1B8B13A7 EQ PUSH2 0x2EC JUMPI DUP1 PUSH4 0x248A9CA3 EQ PUSH2 0x30A JUMPI DUP1 PUSH4 0x2B29BA23 EQ PUSH2 0x33A JUMPI PUSH2 0x227 JUMP JUMPDEST DUP1 PUSH4 0x6552FF3 EQ PUSH2 0x22C JUMPI DUP1 PUSH4 0xEC88D3F EQ PUSH2 0x248 JUMPI DUP1 PUSH4 0xF91CE19 EQ PUSH2 0x266 JUMPI DUP1 PUSH4 0x188DC83B EQ PUSH2 0x282 JUMPI JUMPDEST PUSH1 0x0 DUP1 REVERT JUMPDEST PUSH2 0x246 PUSH1 0x4 DUP1 CALLDATASIZE SUB DUP2 ADD SWAP1 PUSH2 0x241 SWAP2 SWAP1 PUSH2 0x40F1 JUMP JUMPDEST PUSH2 0x70B JUMP JUMPDEST STOP JUMPDEST PUSH2 0x250 PUSH2 0x815 JUMP JUMPDEST PUSH1 0x40 MLOAD PUSH2 0x25D SWAP2 SWAP1 PUSH2 0x51B0 JUMP JUMPDEST PUSH1 0x40 MLOAD DUP1 SWAP2 SUB SWAP1 RETURN JUMPDEST PUSH2 0x280 PUSH1 0x4 DUP1 CALLDATASIZE SUB DUP2 ADD SWAP1 PUSH2 0x27B SWAP2 SWAP1 PUSH2 0x4344 JUMP JUMPDEST PUSH2 0x81B JUMP JUMPDEST STOP JUMPDEST PUSH2 0x29C PUSH1 0x4 DUP1 CALLDATASIZE SUB DUP2 ADD SWAP1 PUSH2 0x297 SWAP2 SWAP1 PUSH2 0x42F2 JUMP JUMPDEST PUSH2 0x9D0 JUMP JUMPDEST STOP JUMPDEST PUSH2 0x2B8 PUSH1 0x4 DUP1 CALLDATASIZE SUB DUP2 ADD SWAP1 PUSH2 0x2B3 SWAP2 SWAP1 PUSH2 0x4393 JUMP JUMPDEST PUSH2 0xAD5 JUMP JUMPDEST PUSH1 0x40 MLOAD PUSH2 0x2C5 SWAP2 SWAP1 PUSH2 0x51B0 JUMP JUMPDEST PUSH1 0x40 MLOAD DUP1 SWAP2 SUB SWAP1 RETURN JUMPDEST PUSH2 0x2D6 PUSH2 0xC5B JUMP JUMPDEST PUSH1 0x40 MLOAD PUSH2 0x2E3 SWAP2 SWAP1 PUSH2 0x51B0 JUMP JUMPDEST PUSH1 0x40 MLOAD DUP1 SWAP2 SUB SWAP1 RETURN JUMPDEST PUSH2 0x2F4 PUSH2 0xC65 JUMP JUMPDEST PUSH1 0x40 MLOAD PUSH2 0x301 SWAP2 SWAP1 PUSH2 0x51B0 JUMP JUMPDEST PUSH1 0x40 MLOAD DUP1 SWAP2 SUB SWAP1 RETURN JUMPDEST PUSH2 0x324 PUSH1 0x4 DUP1 CALLDATASIZE SUB DUP2 ADD SWAP1 PUSH2 0x31F SWAP2 SWAP1 PUSH2 0x41BE JUMP JUMPDEST PUSH2 0xC6F JUMP JUMPDEST PUSH1 0x40 MLOAD PUSH2 0x331 SWAP2 SWAP1 PUSH2 0x4E0B JUMP JUMPDEST PUSH1 0x40 MLOAD DUP1 SWAP2 SUB SWAP1 RETURN JUMPDEST PUSH2 0x354 PUSH1 0x4 DUP1 CALLDATASIZE SUB DUP2 ADD SWAP1 PUSH2 0x34F SWAP2 SWAP1 PUSH2 0x40C8 JUMP JUMPDEST PUSH2 0xC8E JUMP JUMPDEST PUSH1 0x40 MLOAD PUSH2 0x361 SWAP2 SWAP1 PUSH2 0x4DF0 JUMP JUMPDEST PUSH1 0x40 MLOAD DUP1 SWAP2 SUB SWAP1 RETURN JUMPDEST PUSH2 0x384 PUSH1 0x4 DUP1 CALLDATASIZE SUB DUP2 ADD SWAP1 PUSH2 0x37F SWAP2 SWAP1 PUSH2 0x42F2 JUMP JUMPDEST PUSH2 0xCB4 JUMP JUMPDEST STOP JUMPDEST PUSH2 0x3A0 PUSH1 0x4 DUP1 CALLDATASIZE SUB DUP2 ADD SWAP1 PUSH2 0x39B SWAP2 SWAP1 PUSH2 0x42F2 JUMP JUMPDEST PUSH2 0x1125 JUMP JUMPDEST STOP JUMPDEST PUSH2 0x3AA PUSH2 0x17CA JUMP JUMPDEST PUSH1 0x40 MLOAD PUSH2 0x3B7 SWAP2 SWAP1 PUSH2 0x4E41 JUMP JUMPDEST PUSH1 0x40 MLOAD DUP1 SWAP2 SUB SWAP1 RETURN JUMPDEST PUSH2 0x3DA PUSH1 0x4 DUP1 CALLDATASIZE SUB DUP2 ADD SWAP1 PUSH2 0x3D5 SWAP2 SWAP1 PUSH2 0x4210 JUMP JUMPDEST PUSH2 0x17F0 JUMP JUMPDEST STOP JUMPDEST PUSH2 0x3F6 PUSH1 0x4 DUP1 CALLDATASIZE SUB DUP2 ADD SWAP1 PUSH2 0x3F1 SWAP2 SWAP1 PUSH2 0x4210 JUMP JUMPDEST PUSH2 0x1863 JUMP JUMPDEST STOP JUMPDEST PUSH2 0x400 PUSH2 0x18E6 JUMP JUMPDEST PUSH1 0x40 MLOAD PUSH2 0x40D SWAP2 SWAP1 PUSH2 0x4E5C JUMP JUMPDEST PUSH1 0x40 MLOAD DUP1 SWAP2 SUB SWAP1 RETURN JUMPDEST PUSH2 0x430 PUSH1 0x4 DUP1 CALLDATASIZE SUB DUP2 ADD SWAP1 PUSH2 0x42B SWAP2 SWAP1 PUSH2 0x4393 JUMP JUMPDEST PUSH2 0x190C JUMP JUMPDEST STOP JUMPDEST PUSH2 0x44C PUSH1 0x4 DUP1 CALLDATASIZE SUB DUP2 ADD SWAP1 PUSH2 0x447 SWAP2 SWAP1 PUSH2 0x40C8 JUMP JUMPDEST PUSH2 0x1962 JUMP JUMPDEST PUSH1 0x40 MLOAD PUSH2 0x459 SWAP2 SWAP1 PUSH2 0x51B0 JUMP JUMPDEST PUSH1 0x40 MLOAD DUP1 SWAP2 SUB SWAP1 RETURN JUMPDEST PUSH2 0x46A PUSH2 0x19AB JUMP JUMPDEST PUSH1 0x40 MLOAD PUSH2 0x477 SWAP2 SWAP1 PUSH2 0x51B0 JUMP JUMPDEST PUSH1 0x40 MLOAD DUP1 SWAP2 SUB SWAP1 RETURN JUMPDEST PUSH2 0x488 PUSH2 0x19B1 JUMP JUMPDEST PUSH1 0x40 MLOAD PUSH2 0x495 SWAP2 SWAP1 PUSH2 0x51B0 JUMP JUMPDEST PUSH1 0x40 MLOAD DUP1 SWAP2 SUB SWAP1 RETURN JUMPDEST PUSH2 0x4B8 PUSH1 0x4 DUP1 CALLDATASIZE SUB DUP2 ADD SWAP1 PUSH2 0x4B3 SWAP2 SWAP1 PUSH2 0x4393 JUMP JUMPDEST PUSH2 0x19B7 JUMP JUMPDEST STOP JUMPDEST PUSH2 0x4D4 PUSH1 0x4 DUP1 CALLDATASIZE SUB DUP2 ADD SWAP1 PUSH2 0x4CF SWAP2 SWAP1 PUSH2 0x4393 JUMP JUMPDEST PUSH2 0x1CF4 JUMP JUMPDEST STOP JUMPDEST PUSH2 0x4F0 PUSH1 0x4 DUP1 CALLDATASIZE SUB DUP2 ADD SWAP1 PUSH2 0x4EB SWAP2 SWAP1 PUSH2 0x424C JUMP JUMPDEST PUSH2 0x2605 JUMP JUMPDEST PUSH1 0x40 MLOAD PUSH2 0x4FD SWAP2 SWAP1 PUSH2 0x4D4C JUMP JUMPDEST PUSH1 0x40 MLOAD DUP1 SWAP2 SUB SWAP1 RETURN JUMPDEST PUSH2 0x520 PUSH1 0x4 DUP1 CALLDATASIZE SUB DUP2 ADD SWAP1 PUSH2 0x51B SWAP2 SWAP1 PUSH2 0x4210 JUMP JUMPDEST PUSH2 0x2636 JUMP JUMPDEST PUSH1 0x40 MLOAD PUSH2 0x52D SWAP2 SWAP1 PUSH2 0x4DF0 JUMP JUMPDEST PUSH1 0x40 MLOAD DUP1 SWAP2 SUB SWAP1 RETURN JUMPDEST PUSH2 0x550 PUSH1 0x4 DUP1 CALLDATASIZE SUB DUP2 ADD SWAP1 PUSH2 0x54B SWAP2 SWAP1 PUSH2 0x4393 JUMP JUMPDEST PUSH2 0x2667 JUMP JUMPDEST STOP JUMPDEST PUSH2 0x55A PUSH2 0x26CE JUMP JUMPDEST PUSH1 0x40 MLOAD PUSH2 0x567 SWAP2 SWAP1 PUSH2 0x4E0B JUMP JUMPDEST PUSH1 0x40 MLOAD DUP1 SWAP2 SUB SWAP1 RETURN JUMPDEST PUSH2 0x58A PUSH1 0x4 DUP1 CALLDATASIZE SUB DUP2 ADD SWAP1 PUSH2 0x585 SWAP2 SWAP1 PUSH2 0x43CF JUMP JUMPDEST PUSH2 0x26D5 JUMP JUMPDEST STOP JUMPDEST PUSH2 0x594 PUSH2 0x2774 JUMP JUMPDEST PUSH1 0x40 MLOAD PUSH2 0x5A1 SWAP2 SWAP1 PUSH2 0x51B0 JUMP JUMPDEST PUSH1 0x40 MLOAD DUP1 SWAP2 SUB SWAP1 RETURN JUMPDEST PUSH2 0x5B2 PUSH2 0x277E JUMP JUMPDEST PUSH1 0x40 MLOAD PUSH2 0x5BF SWAP2 SWAP1 PUSH2 0x4E77 JUMP JUMPDEST PUSH1 0x40 MLOAD DUP1 SWAP2 SUB SWAP1 RETURN JUMPDEST PUSH2 0x5E2 PUSH1 0x4 DUP1 CALLDATASIZE SUB DUP2 ADD SWAP1 PUSH2 0x5DD SWAP2 SWAP1 PUSH2 0x40C8 JUMP JUMPDEST PUSH2 0x27A4 JUMP JUMPDEST PUSH1 0x40 MLOAD PUSH2 0x5EF SWAP2 SWAP1 PUSH2 0x51B0 JUMP JUMPDEST PUSH1 0x40 MLOAD DUP1 SWAP2 SUB SWAP1 RETURN JUMPDEST PUSH2 0x612 PUSH1 0x4 DUP1 CALLDATASIZE SUB DUP2 ADD SWAP1 PUSH2 0x60D SWAP2 SWAP1 PUSH2 0x41BE JUMP JUMPDEST PUSH2 0x27BC JUMP JUMPDEST PUSH1 0x40 MLOAD PUSH2 0x61F SWAP2 SWAP1 PUSH2 0x51B0 JUMP JUMPDEST PUSH1 0x40 MLOAD DUP1 SWAP2 SUB SWAP1 RETURN JUMPDEST PUSH2 0x642 PUSH1 0x4 DUP1 CALLDATASIZE SUB DUP2 ADD SWAP1 PUSH2 0x63D SWAP2 SWAP1 PUSH2 0x4210 JUMP JUMPDEST PUSH2 0x27E2 JUMP JUMPDEST STOP JUMPDEST PUSH2 0x64C PUSH2 0x2855 JUMP JUMPDEST PUSH1 0x40 MLOAD PUSH2 0x659 SWAP2 SWAP1 PUSH2 0x4E26 JUMP JUMPDEST PUSH1 0x40 MLOAD DUP1 SWAP2 SUB SWAP1 RETURN JUMPDEST PUSH2 0x67C PUSH1 0x4 DUP1 CALLDATASIZE SUB DUP2 ADD SWAP1 PUSH2 0x677 SWAP2 SWAP1 PUSH2 0x40C8 JUMP JUMPDEST PUSH2 0x287B JUMP JUMPDEST STOP JUMPDEST PUSH2 0x686 PUSH2 0x28CF JUMP JUMPDEST STOP JUMPDEST PUSH2 0x6A2 PUSH1 0x4 DUP1 CALLDATASIZE SUB DUP2 ADD SWAP1 PUSH2 0x69D SWAP2 SWAP1 PUSH2 0x42F2 JUMP JUMPDEST PUSH2 0x28DA JUMP JUMPDEST PUSH1 0x40 MLOAD PUSH2 0x6AF SWAP2 SWAP1 PUSH2 0x5194 JUMP JUMPDEST PUSH1 0x40 MLOAD DUP1 SWAP2 SUB SWAP1 RETURN JUMPDEST PUSH2 0x6D2 PUSH1 0x4 DUP1 CALLDATASIZE SUB DUP2 ADD SWAP1 PUSH2 0x6CD SWAP2 SWAP1 PUSH2 0x4393 JUMP JUMPDEST PUSH2 0x29A4 JUMP JUMPDEST STOP JUMPDEST PUSH2 0x6EE PUSH1 0x4 DUP1 CALLDATASIZE SUB DUP2 ADD SWAP1 PUSH2 0x6E9 SWAP2 SWAP1 PUSH2 0x42F2 JUMP JUMPDEST PUSH2 0x2FAF JUMP JUMPDEST PUSH1 0x40 MLOAD PUSH2 0x702 SWAP9 SWAP8 SWAP7 SWAP6 SWAP5 SWAP4 SWAP3 SWAP2 SWAP1 PUSH2 0x51CB JUMP JUMPDEST PUSH1 0x40 MLOAD DUP1 SWAP2 SUB SWAP1 RETURN JUMPDEST DUP4 PUSH1 0x6 PUSH1 0x0 PUSH2 0x100 EXP DUP2 SLOAD DUP2 PUSH20 0xFFFFFFFFFFFFFFFFFFFFFFFFFFFFFFFFFFFFFFFF MUL NOT AND SWAP1 DUP4 PUSH20 0xFFFFFFFFFFFFFFFFFFFFFFFFFFFFFFFFFFFFFFFF AND MUL OR SWAP1 SSTORE POP DUP3 PUSH1 0x7 PUSH1 0x0 PUSH2 0x100 EXP DUP2 SLOAD DUP2 PUSH20 0xFFFFFFFFFFFFFFFFFFFFFFFFFFFFFFFFFFFFFFFF MUL NOT AND SWAP1 DUP4 PUSH20 0xFFFFFFFFFFFFFFFFFFFFFFFFFFFFFFFFFFFFFFFF AND MUL OR SWAP1 SSTORE POP DUP2 PUSH1 0x8 PUSH1 0x0 PUSH2 0x100 EXP DUP2 SLOAD DUP2 PUSH20 0xFFFFFFFFFFFFFFFFFFFFFFFFFFFFFFFFFFFFFFFF MUL NOT AND SWAP1 DUP4 PUSH20 0xFFFFFFFFFFFFFFFFFFFFFFFFFFFFFFFFFFFFFFFF AND MUL OR SWAP1 SSTORE POP DUP1 PUSH1 0x9 PUSH1 0x0 PUSH2 0x100 EXP DUP2 SLOAD DUP2 PUSH20 0xFFFFFFFFFFFFFFFFFFFFFFFFFFFFFFFFFFFFFFFF MUL NOT AND SWAP1 DUP4 PUSH20 0xFFFFFFFFFFFFFFFFFFFFFFFFFFFFFFFFFFFFFFFF AND MUL OR SWAP1 SSTORE POP POP POP POP POP JUMP JUMPDEST PUSH1 0x5 SLOAD DUP2 JUMP JUMPDEST PUSH2 0x824 CALLER PUSH2 0xC8E JUMP JUMPDEST PUSH2 0x863 JUMPI PUSH1 0x40 MLOAD PUSH32 0x8C379A000000000000000000000000000000000000000000000000000000000 DUP2 MSTORE PUSH1 0x4 ADD PUSH2 0x85A SWAP1 PUSH2 0x5114 JUMP JUMPDEST PUSH1 0x40 MLOAD DUP1 SWAP2 SUB SWAP1 REVERT JUMPDEST PUSH1 0x0 PUSH2 0x88E PUSH1 0x2 DUP1 PUSH1 0x0 DUP8 DUP2 MSTORE PUSH1 0x20 ADD SWAP1 DUP2 MSTORE PUSH1 0x20 ADD PUSH1 0x0 KECCAK256 PUSH1 0x2 ADD SLOAD PUSH2 0x3047 SWAP1 SWAP2 SWAP1 PUSH4 0xFFFFFFFF AND JUMP JUMPDEST SWAP1 POP PUSH2 0x8D2 DUP5 PUSH1 0x0 PUSH1 0x40 MLOAD DUP1 PUSH1 0x40 ADD PUSH1 0x40 MSTORE DUP1 PUSH1 0x7 DUP2 MSTORE PUSH1 0x20 ADD PUSH32 0x536C617368656400000000000000000000000000000000000000000000000000 DUP2 MSTORE POP DUP6 PUSH2 0x3091 JUMP JUMPDEST PUSH1 0x1 DUP2 GT ISZERO PUSH2 0x9CA JUMPI PUSH1 0x6 PUSH1 0x0 SWAP1 SLOAD SWAP1 PUSH2 0x100 EXP SWAP1 DIV PUSH20 0xFFFFFFFFFFFFFFFFFFFFFFFFFFFFFFFFFFFFFFFF AND PUSH20 0xFFFFFFFFFFFFFFFFFFFFFFFFFFFFFFFFFFFFFFFF AND PUSH4 0xA9059CBB DUP5 DUP4 PUSH1 0x40 MLOAD DUP4 PUSH4 0xFFFFFFFF AND PUSH1 0xE0 SHL DUP2 MSTORE PUSH1 0x4 ADD PUSH2 0x938 SWAP3 SWAP2 SWAP1 PUSH2 0x4DC7 JUMP JUMPDEST PUSH1 0x20 PUSH1 0x40 MLOAD DUP1 DUP4 SUB DUP2 PUSH1 0x0 DUP8 DUP1 EXTCODESIZE ISZERO DUP1 ISZERO PUSH2 0x952 JUMPI PUSH1 0x0 DUP1 REVERT JUMPDEST POP GAS CALL ISZERO DUP1 ISZERO PUSH2 0x966 JUMPI RETURNDATASIZE PUSH1 0x0 DUP1 RETURNDATACOPY RETURNDATASIZE PUSH1 0x0 REVERT JUMPDEST POP POP POP POP PUSH1 0x40 MLOAD RETURNDATASIZE PUSH1 0x1F NOT PUSH1 0x1F DUP3 ADD AND DUP3 ADD DUP1 PUSH1 0x40 MSTORE POP DUP2 ADD SWAP1 PUSH2 0x98A SWAP2 SWAP1 PUSH2 0x4195 JUMP JUMPDEST PUSH2 0x9C9 JUMPI PUSH1 0x40 MLOAD PUSH32 0x8C379A000000000000000000000000000000000000000000000000000000000 DUP2 MSTORE PUSH1 0x4 ADD PUSH2 0x9C0 SWAP1 PUSH2 0x4F34 JUMP JUMPDEST PUSH1 0x40 MLOAD DUP1 SWAP2 SUB SWAP1 REVERT JUMPDEST JUMPDEST POP POP POP POP JUMP JUMPDEST PUSH2 0x9D9 CALLER PUSH2 0xC8E JUMP JUMPDEST PUSH2 0xA18 JUMPI PUSH1 0x40 MLOAD PUSH32 0x8C379A000000000000000000000000000000000000000000000000000000000 DUP2 MSTORE PUSH1 0x4 ADD PUSH2 0xA0F SWAP1 PUSH2 0x5114 JUMP JUMPDEST PUSH1 0x40 MLOAD DUP1 SWAP2 SUB SWAP1 REVERT JUMPDEST PUSH1 0x9 PUSH1 0x0 SWAP1 SLOAD SWAP1 PUSH2 0x100 EXP SWAP1 DIV PUSH20 0xFFFFFFFFFFFFFFFFFFFFFFFFFFFFFFFFFFFFFFFF AND PUSH20 0xFFFFFFFFFFFFFFFFFFFFFFFFFFFFFFFFFFFFFFFF AND PUSH4 0x757991A8 PUSH1 0x40 MLOAD DUP2 PUSH4 0xFFFFFFFF AND PUSH1 0xE0 SHL DUP2 MSTORE PUSH1 0x4 ADD PUSH1 0x20 PUSH1 0x40 MLOAD DUP1 DUP4 SUB DUP2 DUP7 DUP1 EXTCODESIZE ISZERO DUP1 ISZERO PUSH2 0xA80 JUMPI PUSH1 0x0 DUP1 REVERT JUMPDEST POP GAS STATICCALL ISZERO DUP1 ISZERO PUSH2 0xA94 JUMPI RETURNDATASIZE PUSH1 0x0 DUP1 RETURNDATACOPY RETURNDATASIZE PUSH1 0x0 REVERT JUMPDEST POP POP POP POP PUSH1 0x40 MLOAD RETURNDATASIZE PUSH1 0x1F NOT PUSH1 0x1F DUP3 ADD AND DUP3 ADD DUP1 PUSH1 0x40 MSTORE POP DUP2 ADD SWAP1 PUSH2 0xAB8 SWAP2 SWAP1 PUSH2 0x431B JUMP JUMPDEST PUSH1 0x2 PUSH1 0x0 DUP4 DUP2 MSTORE PUSH1 0x20 ADD SWAP1 DUP2 MSTORE PUSH1 0x20 ADD PUSH1 0x0 KECCAK256 PUSH1 0x4 ADD DUP2 SWAP1 SSTORE POP POP JUMP JUMPDEST PUSH1 0x0 PUSH1 0xA DUP4 LT ISZERO PUSH2 0xAE8 JUMPI DUP2 SWAP1 POP PUSH2 0xC55 JUMP JUMPDEST PUSH1 0x0 PUSH2 0xC2A PUSH2 0xC08 PUSH20 0x0 PUSH4 0xB1CC4500 PUSH1 0x40 MLOAD DUP2 PUSH4 0xFFFFFFFF AND PUSH1 0xE0 SHL DUP2 MSTORE PUSH1 0x4 ADD PUSH1 0x20 PUSH1 0x40 MLOAD DUP1 DUP4 SUB DUP2 DUP7 DUP1 EXTCODESIZE ISZERO DUP1 ISZERO PUSH2 0xB34 JUMPI PUSH1 0x0 DUP1 REVERT JUMPDEST POP GAS DELEGATECALL ISZERO DUP1 ISZERO PUSH2 0xB48 JUMPI RETURNDATASIZE PUSH1 0x0 DUP1 RETURNDATACOPY RETURNDATASIZE PUSH1 0x0 REVERT JUMPDEST POP POP POP POP PUSH1 0x40 MLOAD RETURNDATASIZE PUSH1 0x1F NOT PUSH1 0x1F DUP3 ADD AND DUP3 ADD DUP1 PUSH1 0x40 MSTORE POP DUP2 ADD SWAP1 PUSH2 0xB6C SWAP2 SWAP1 PUSH2 0x431B JUMP JUMPDEST PUSH2 0xBFA PUSH20 0x0 PUSH4 0xA86F5A3F PUSH1 0x40 MLOAD DUP2 PUSH4 0xFFFFFFFF AND PUSH1 0xE0 SHL DUP2 MSTORE PUSH1 0x4 ADD PUSH1 0x20 PUSH1 0x40 MLOAD DUP1 DUP4 SUB DUP2 DUP7 DUP1 EXTCODESIZE ISZERO DUP1 ISZERO PUSH2 0xBB3 JUMPI PUSH1 0x0 DUP1 REVERT JUMPDEST POP GAS DELEGATECALL ISZERO DUP1 ISZERO PUSH2 0xBC7 JUMPI RETURNDATASIZE PUSH1 0x0 DUP1 RETURNDATACOPY RETURNDATASIZE PUSH1 0x0 REVERT JUMPDEST POP POP POP POP PUSH1 0x40 MLOAD RETURNDATASIZE PUSH1 0x1F NOT PUSH1 0x1F DUP3 ADD AND DUP3 ADD DUP1 PUSH1 0x40 MSTORE POP DUP2 ADD SWAP1 PUSH2 0xBEB SWAP2 SWAP1 PUSH2 0x431B JUMP JUMPDEST DUP8 PUSH2 0x310E SWAP1 SWAP2 SWAP1 PUSH4 0xFFFFFFFF AND JUMP JUMPDEST PUSH2 0x3047 SWAP1 SWAP2 SWAP1 PUSH4 0xFFFFFFFF AND JUMP JUMPDEST PUSH2 0xC1C PUSH1 0x1 DUP8 PUSH2 0x317E SWAP1 SWAP2 SWAP1 PUSH4 0xFFFFFFFF AND JUMP JUMPDEST PUSH2 0x310E SWAP1 SWAP2 SWAP1 PUSH4 0xFFFFFFFF AND JUMP JUMPDEST SWAP1 POP DUP3 DUP2 LT ISZERO PUSH2 0xC4F JUMPI PUSH2 0xC47 DUP2 DUP5 PUSH2 0x317E SWAP1 SWAP2 SWAP1 PUSH4 0xFFFFFFFF AND JUMP JUMPDEST SWAP2 POP POP PUSH2 0xC55 JUMP JUMPDEST PUSH1 0x0 SWAP2 POP POP JUMPDEST SWAP3 SWAP2 POP POP JUMP JUMPDEST PUSH1 0x0 PUSH1 0x5 SLOAD SWAP1 POP SWAP1 JUMP JUMPDEST PUSH1 0x0 PUSH1 0x4 SLOAD SWAP1 POP SWAP1 JUMP JUMPDEST PUSH1 0x0 DUP1 PUSH1 0x0 DUP4 DUP2 MSTORE PUSH1 0x20 ADD SWAP1 DUP2 MSTORE PUSH1 0x20 ADD PUSH1 0x0 KECCAK256 PUSH1 0x2 ADD SLOAD SWAP1 POP SWAP2 SWAP1 POP JUMP JUMPDEST PUSH1 0x0 PUSH2 0xCAD PUSH1 0x40 MLOAD PUSH2 0xC9F SWAP1 PUSH2 0x4D37 JUMP JUMPDEST PUSH1 0x40 MLOAD DUP1 SWAP2 SUB SWAP1 KECCAK256 DUP4 PUSH2 0x2636 JUMP JUMPDEST SWAP1 POP SWAP2 SWAP1 POP JUMP JUMPDEST DUP1 PUSH1 0x9 PUSH1 0x0 SWAP1 SLOAD SWAP1 PUSH2 0x100 EXP SWAP1 DIV PUSH20 0xFFFFFFFFFFFFFFFFFFFFFFFFFFFFFFFFFFFFFFFF AND PUSH20 0xFFFFFFFFFFFFFFFFFFFFFFFFFFFFFFFFFFFFFFFF AND PUSH4 0x757991A8 PUSH1 0x40 MLOAD DUP2 PUSH4 0xFFFFFFFF AND PUSH1 0xE0 SHL DUP2 MSTORE PUSH1 0x4 ADD PUSH1 0x20 PUSH1 0x40 MLOAD DUP1 DUP4 SUB DUP2 DUP7 DUP1 EXTCODESIZE ISZERO DUP1 ISZERO PUSH2 0xD1D JUMPI PUSH1 0x0 DUP1 REVERT JUMPDEST POP GAS STATICCALL ISZERO DUP1 ISZERO PUSH2 0xD31 JUMPI RETURNDATASIZE PUSH1 0x0 DUP1 RETURNDATACOPY RETURNDATASIZE PUSH1 0x0 REVERT JUMPDEST POP POP POP POP PUSH1 0x40 MLOAD RETURNDATASIZE PUSH1 0x1F NOT PUSH1 0x1F DUP3 ADD AND DUP3 ADD DUP1 PUSH1 0x40 MSTORE POP DUP2 ADD SWAP1 PUSH2 0xD55 SWAP2 SWAP1 PUSH2 0x431B JUMP JUMPDEST DUP2 EQ PUSH2 0xD96 JUMPI PUSH1 0x40 MLOAD PUSH32 0x8C379A000000000000000000000000000000000000000000000000000000000 DUP2 MSTORE PUSH1 0x4 ADD PUSH2 0xD8D SWAP1 PUSH2 0x4FF4 JUMP JUMPDEST PUSH1 0x40 MLOAD DUP1 SWAP2 SUB SWAP1 REVERT JUMPDEST PUSH20 0x0 PUSH4 0x3C7A3AFF PUSH1 0x40 MLOAD DUP2 PUSH4 0xFFFFFFFF AND PUSH1 0xE0 SHL DUP2 MSTORE PUSH1 0x4 ADD PUSH1 0x20 PUSH1 0x40 MLOAD DUP1 DUP4 SUB DUP2 DUP7 DUP1 EXTCODESIZE ISZERO DUP1 ISZERO PUSH2 0xDDA JUMPI PUSH1 0x0 DUP1 REVERT JUMPDEST POP GAS DELEGATECALL ISZERO DUP1 ISZERO PUSH2 0xDEE JUMPI RETURNDATASIZE PUSH1 0x0 DUP1 RETURNDATACOPY RETURNDATASIZE PUSH1 0x0 REVERT JUMPDEST POP POP POP POP PUSH1 0x40 MLOAD RETURNDATASIZE PUSH1 0x1F NOT PUSH1 0x1F DUP3 ADD AND DUP3 ADD DUP1 PUSH1 0x40 MSTORE POP DUP2 ADD SWAP1 PUSH2 0xE12 SWAP2 SWAP1 PUSH2 0x444F JUMP JUMPDEST PUSH1 0xFF AND PUSH1 0x9 PUSH1 0x0 SWAP1 SLOAD SWAP1 PUSH2 0x100 EXP SWAP1 DIV PUSH20 0xFFFFFFFFFFFFFFFFFFFFFFFFFFFFFFFFFFFFFFFF AND PUSH20 0xFFFFFFFFFFFFFFFFFFFFFFFFFFFFFFFFFFFFFFFF AND PUSH4 0x1865C57D PUSH1 0x40 MLOAD DUP2 PUSH4 0xFFFFFFFF AND PUSH1 0xE0 SHL DUP2 MSTORE PUSH1 0x4 ADD PUSH1 0x20 PUSH1 0x40 MLOAD DUP1 DUP4 SUB DUP2 DUP7 DUP1 EXTCODESIZE ISZERO DUP1 ISZERO PUSH2 0xE7D JUMPI PUSH1 0x0 DUP1 REVERT JUMPDEST POP GAS STATICCALL ISZERO DUP1 ISZERO PUSH2 0xE91 JUMPI RETURNDATASIZE PUSH1 0x0 DUP1 RETURNDATACOPY RETURNDATASIZE PUSH1 0x0 REVERT JUMPDEST POP POP POP POP PUSH1 0x40 MLOAD RETURNDATASIZE PUSH1 0x1F NOT PUSH1 0x1F DUP3 ADD AND DUP3 ADD DUP1 PUSH1 0x40 MSTORE POP DUP2 ADD SWAP1 PUSH2 0xEB5 SWAP2 SWAP1 PUSH2 0x431B JUMP JUMPDEST DUP2 EQ PUSH2 0xEF6 JUMPI PUSH1 0x40 MLOAD PUSH32 0x8C379A000000000000000000000000000000000000000000000000000000000 DUP2 MSTORE PUSH1 0x4 ADD PUSH2 0xEED SWAP1 PUSH2 0x50F4 JUMP JUMPDEST PUSH1 0x40 MLOAD DUP1 SWAP2 SUB SWAP1 REVERT JUMPDEST PUSH1 0x0 PUSH1 0x1 PUSH1 0x0 CALLER PUSH20 0xFFFFFFFFFFFFFFFFFFFFFFFFFFFFFFFFFFFFFFFF AND PUSH20 0xFFFFFFFFFFFFFFFFFFFFFFFFFFFFFFFFFFFFFFFF AND DUP2 MSTORE PUSH1 0x20 ADD SWAP1 DUP2 MSTORE PUSH1 0x20 ADD PUSH1 0x0 KECCAK256 SLOAD SWAP1 POP PUSH1 0x0 PUSH1 0x2 PUSH1 0x0 DUP4 DUP2 MSTORE PUSH1 0x20 ADD SWAP1 DUP2 MSTORE PUSH1 0x20 ADD PUSH1 0x0 KECCAK256 SWAP1 POP PUSH1 0x0 DUP2 PUSH1 0x0 ADD SLOAD EQ ISZERO PUSH2 0xF99 JUMPI PUSH1 0x40 MLOAD PUSH32 0x8C379A000000000000000000000000000000000000000000000000000000000 DUP2 MSTORE PUSH1 0x4 ADD PUSH2 0xF90 SWAP1 PUSH2 0x5074 JUMP JUMPDEST PUSH1 0x40 MLOAD DUP1 SWAP2 SUB SWAP1 REVERT JUMPDEST PUSH1 0x0 DUP2 PUSH1 0x2 ADD SLOAD GT PUSH2 0xFE0 JUMPI PUSH1 0x40 MLOAD PUSH32 0x8C379A000000000000000000000000000000000000000000000000000000000 DUP2 MSTORE PUSH1 0x4 ADD PUSH2 0xFD7 SWAP1 PUSH2 0x4F74 JUMP JUMPDEST PUSH1 0x40 MLOAD DUP1 SWAP2 SUB SWAP1 REVERT JUMPDEST DUP5 DUP2 PUSH1 0x6 ADD SLOAD GT ISZERO DUP1 ISZERO PUSH2 0xFF9 JUMPI POP PUSH1 0x0 DUP2 PUSH1 0x6 ADD SLOAD EQ ISZERO JUMPDEST PUSH2 0x1038 JUMPI PUSH1 0x40 MLOAD PUSH32 0x8C379A000000000000000000000000000000000000000000000000000000000 DUP2 MSTORE PUSH1 0x4 ADD PUSH2 0x102F SWAP1 PUSH2 0x5054 JUMP JUMPDEST PUSH1 0x40 MLOAD DUP1 SWAP2 SUB SWAP1 REVERT JUMPDEST PUSH1 0x0 DUP2 PUSH1 0x6 ADD DUP2 SWAP1 SSTORE POP PUSH2 0x10D0 PUSH20 0x0 PUSH4 0x2628490F PUSH1 0x40 MLOAD DUP2 PUSH4 0xFFFFFFFF AND PUSH1 0xE0 SHL DUP2 MSTORE PUSH1 0x4 ADD PUSH1 0x20 PUSH1 0x40 MLOAD DUP1 DUP4 SUB DUP2 DUP7 DUP1 EXTCODESIZE ISZERO DUP1 ISZERO PUSH2 0x1089 JUMPI PUSH1 0x0 DUP1 REVERT JUMPDEST POP GAS DELEGATECALL ISZERO DUP1 ISZERO PUSH2 0x109D JUMPI RETURNDATASIZE PUSH1 0x0 DUP1 RETURNDATACOPY RETURNDATASIZE PUSH1 0x0 REVERT JUMPDEST POP POP POP POP PUSH1 0x40 MLOAD RETURNDATASIZE PUSH1 0x1F NOT PUSH1 0x1F DUP3 ADD AND DUP3 ADD DUP1 PUSH1 0x40 MSTORE POP DUP2 ADD SWAP1 PUSH2 0x10C1 SWAP2 SWAP1 PUSH2 0x431B JUMP JUMPDEST DUP7 PUSH2 0x31C8 SWAP1 SWAP2 SWAP1 PUSH4 0xFFFFFFFF AND JUMP JUMPDEST DUP2 PUSH1 0x7 ADD DUP2 SWAP1 SSTORE POP DUP2 PUSH32 0xCFBC484EDC798D2584502CA0D64E7E9514B8DD091D96A2A5B4DEB58478DA19E DUP7 DUP4 PUSH1 0x2 ADD SLOAD DUP5 PUSH1 0x2 ADD SLOAD TIMESTAMP PUSH1 0x40 MLOAD PUSH2 0x1116 SWAP5 SWAP4 SWAP3 SWAP2 SWAP1 PUSH2 0x5348 JUMP JUMPDEST PUSH1 0x40 MLOAD DUP1 SWAP2 SUB SWAP1 LOG2 POP POP POP POP POP JUMP JUMPDEST DUP1 PUSH1 0x9 PUSH1 0x0 SWAP1 SLOAD SWAP1 PUSH2 0x100 EXP SWAP1 DIV PUSH20 0xFFFFFFFFFFFFFFFFFFFFFFFFFFFFFFFFFFFFFFFF AND PUSH20 0xFFFFFFFFFFFFFFFFFFFFFFFFFFFFFFFFFFFFFFFF AND PUSH4 0x757991A8 PUSH1 0x40 MLOAD DUP2 PUSH4 0xFFFFFFFF AND PUSH1 0xE0 SHL DUP2 MSTORE PUSH1 0x4 ADD PUSH1 0x20 PUSH1 0x40 MLOAD DUP1 DUP4 SUB DUP2 DUP7 DUP1 EXTCODESIZE ISZERO DUP1 ISZERO PUSH2 0x118E JUMPI PUSH1 0x0 DUP1 REVERT JUMPDEST POP GAS STATICCALL ISZERO DUP1 ISZERO PUSH2 0x11A2 JUMPI RETURNDATASIZE PUSH1 0x0 DUP1 RETURNDATACOPY RETURNDATASIZE PUSH1 0x0 REVERT JUMPDEST POP POP POP POP PUSH1 0x40 MLOAD RETURNDATASIZE PUSH1 0x1F NOT PUSH1 0x1F DUP3 ADD AND DUP3 ADD DUP1 PUSH1 0x40 MSTORE POP DUP2 ADD SWAP1 PUSH2 0x11C6 SWAP2 SWAP1 PUSH2 0x431B JUMP JUMPDEST DUP2 EQ PUSH2 0x1207 JUMPI PUSH1 0x40 MLOAD PUSH32 0x8C379A000000000000000000000000000000000000000000000000000000000 DUP2 MSTORE PUSH1 0x4 ADD PUSH2 0x11FE SWAP1 PUSH2 0x4FF4 JUMP JUMPDEST PUSH1 0x40 MLOAD DUP1 SWAP2 SUB SWAP1 REVERT JUMPDEST PUSH20 0x0 PUSH4 0x3C7A3AFF PUSH1 0x40 MLOAD DUP2 PUSH4 0xFFFFFFFF AND PUSH1 0xE0 SHL DUP2 MSTORE PUSH1 0x4 ADD PUSH1 0x20 PUSH1 0x40 MLOAD DUP1 DUP4 SUB DUP2 DUP7 DUP1 EXTCODESIZE ISZERO DUP1 ISZERO PUSH2 0x124B JUMPI PUSH1 0x0 DUP1 REVERT JUMPDEST POP GAS DELEGATECALL ISZERO DUP1 ISZERO PUSH2 0x125F JUMPI RETURNDATASIZE PUSH1 0x0 DUP1 RETURNDATACOPY RETURNDATASIZE PUSH1 0x0 REVERT JUMPDEST POP POP POP POP PUSH1 0x40 MLOAD RETURNDATASIZE PUSH1 0x1F NOT PUSH1 0x1F DUP3 ADD AND DUP3 ADD DUP1 PUSH1 0x40 MSTORE POP DUP2 ADD SWAP1 PUSH2 0x1283 SWAP2 SWAP1 PUSH2 0x444F JUMP JUMPDEST PUSH1 0xFF AND PUSH1 0x9 PUSH1 0x0 SWAP1 SLOAD SWAP1 PUSH2 0x100 EXP SWAP1 DIV PUSH20 0xFFFFFFFFFFFFFFFFFFFFFFFFFFFFFFFFFFFFFFFF AND PUSH20 0xFFFFFFFFFFFFFFFFFFFFFFFFFFFFFFFFFFFFFFFF AND PUSH4 0x1865C57D PUSH1 0x40 MLOAD DUP2 PUSH4 0xFFFFFFFF AND PUSH1 0xE0 SHL DUP2 MSTORE PUSH1 0x4 ADD PUSH1 0x20 PUSH1 0x40 MLOAD DUP1 DUP4 SUB DUP2 DUP7 DUP1 EXTCODESIZE ISZERO DUP1 ISZERO PUSH2 0x12EE JUMPI PUSH1 0x0 DUP1 REVERT JUMPDEST POP GAS STATICCALL ISZERO DUP1 ISZERO PUSH2 0x1302 JUMPI RETURNDATASIZE PUSH1 0x0 DUP1 RETURNDATACOPY RETURNDATASIZE PUSH1 0x0 REVERT JUMPDEST POP POP POP POP PUSH1 0x40 MLOAD RETURNDATASIZE PUSH1 0x1F NOT PUSH1 0x1F DUP3 ADD AND DUP3 ADD DUP1 PUSH1 0x40 MSTORE POP DUP2 ADD SWAP1 PUSH2 0x1326 SWAP2 SWAP1 PUSH2 0x431B JUMP JUMPDEST DUP2 EQ PUSH2 0x1367 JUMPI PUSH1 0x40 MLOAD PUSH32 0x8C379A000000000000000000000000000000000000000000000000000000000 DUP2 MSTORE PUSH1 0x4 ADD PUSH2 0x135E SWAP1 PUSH2 0x50F4 JUMP JUMPDEST PUSH1 0x40 MLOAD DUP1 SWAP2 SUB SWAP1 REVERT JUMPDEST PUSH1 0x0 PUSH1 0x1 PUSH1 0x0 CALLER PUSH20 0xFFFFFFFFFFFFFFFFFFFFFFFFFFFFFFFFFFFFFFFF AND PUSH20 0xFFFFFFFFFFFFFFFFFFFFFFFFFFFFFFFFFFFFFFFF AND DUP2 MSTORE PUSH1 0x20 ADD SWAP1 DUP2 MSTORE PUSH1 0x20 ADD PUSH1 0x0 KECCAK256 SLOAD SWAP1 POP PUSH1 0x0 PUSH1 0x2 PUSH1 0x0 DUP4 DUP2 MSTORE PUSH1 0x20 ADD SWAP1 DUP2 MSTORE PUSH1 0x20 ADD PUSH1 0x0 KECCAK256 SWAP1 POP PUSH1 0x0 DUP2 PUSH1 0x0 ADD SLOAD EQ ISZERO PUSH2 0x140A JUMPI PUSH1 0x40 MLOAD PUSH32 0x8C379A000000000000000000000000000000000000000000000000000000000 DUP2 MSTORE PUSH1 0x4 ADD PUSH2 0x1401 SWAP1 PUSH2 0x5034 JUMP JUMPDEST PUSH1 0x40 MLOAD DUP1 SWAP2 SUB SWAP1 REVERT JUMPDEST PUSH2 0x141E PUSH1 0x1 DUP7 PUSH2 0x317E SWAP1 SWAP2 SWAP1 PUSH4 0xFFFFFFFF AND JUMP JUMPDEST DUP2 PUSH1 0x5 ADD SLOAD EQ PUSH2 0x1463 JUMPI PUSH1 0x40 MLOAD PUSH32 0x8C379A000000000000000000000000000000000000000000000000000000000 DUP2 MSTORE PUSH1 0x4 ADD PUSH2 0x145A SWAP1 PUSH2 0x5014 JUMP JUMPDEST PUSH1 0x40 MLOAD DUP1 SWAP2 SUB SWAP1 REVERT JUMPDEST PUSH1 0x0 DUP2 PUSH1 0x6 ADD SLOAD EQ PUSH2 0x14AA JUMPI PUSH1 0x40 MLOAD PUSH32 0x8C379A000000000000000000000000000000000000000000000000000000000 DUP2 MSTORE PUSH1 0x4 ADD PUSH2 0x14A1 SWAP1 PUSH2 0x50D4 JUMP JUMPDEST PUSH1 0x40 MLOAD DUP1 SWAP2 SUB SWAP1 REVERT JUMPDEST DUP5 DUP2 PUSH1 0x7 ADD SLOAD GT ISZERO DUP1 ISZERO PUSH2 0x14C3 JUMPI POP PUSH1 0x0 DUP2 PUSH1 0x7 ADD SLOAD EQ ISZERO JUMPDEST PUSH2 0x1502 JUMPI PUSH1 0x40 MLOAD PUSH32 0x8C379A000000000000000000000000000000000000000000000000000000000 DUP2 MSTORE PUSH1 0x4 ADD PUSH2 0x14F9 SWAP1 PUSH2 0x4EF4 JUMP JUMPDEST PUSH1 0x40 MLOAD DUP1 SWAP2 SUB SWAP1 REVERT JUMPDEST PUSH1 0x0 DUP1 SHL PUSH1 0x7 PUSH1 0x0 SWAP1 SLOAD SWAP1 PUSH2 0x100 EXP SWAP1 DIV PUSH20 0xFFFFFFFFFFFFFFFFFFFFFFFFFFFFFFFFFFFFFFFF AND PUSH20 0xFFFFFFFFFFFFFFFFFFFFFFFFFFFFFFFFFFFFFFFF AND PUSH4 0x7164F0D6 DUP8 DUP6 PUSH1 0x40 MLOAD DUP4 PUSH4 0xFFFFFFFF AND PUSH1 0xE0 SHL DUP2 MSTORE PUSH1 0x4 ADD PUSH2 0x1563 SWAP3 SWAP2 SWAP1 PUSH2 0x5249 JUMP JUMPDEST PUSH1 0x20 PUSH1 0x40 MLOAD DUP1 DUP4 SUB DUP2 DUP7 DUP1 EXTCODESIZE ISZERO DUP1 ISZERO PUSH2 0x157B JUMPI PUSH1 0x0 DUP1 REVERT JUMPDEST POP GAS STATICCALL ISZERO DUP1 ISZERO PUSH2 0x158F JUMPI RETURNDATASIZE PUSH1 0x0 DUP1 RETURNDATACOPY RETURNDATASIZE PUSH1 0x0 REVERT JUMPDEST POP POP POP POP PUSH1 0x40 MLOAD RETURNDATASIZE PUSH1 0x1F NOT PUSH1 0x1F DUP3 ADD AND DUP3 ADD DUP1 PUSH1 0x40 MSTORE POP DUP2 ADD SWAP1 PUSH2 0x15B3 SWAP2 SWAP1 PUSH2 0x41E7 JUMP JUMPDEST EQ PUSH2 0x15F3 JUMPI PUSH1 0x40 MLOAD PUSH32 0x8C379A000000000000000000000000000000000000000000000000000000000 DUP2 MSTORE PUSH1 0x4 ADD PUSH2 0x15EA SWAP1 PUSH2 0x50B4 JUMP JUMPDEST PUSH1 0x40 MLOAD DUP1 SWAP2 SUB SWAP1 REVERT JUMPDEST PUSH2 0x1601 DUP2 PUSH1 0x0 ADD SLOAD DUP7 PUSH2 0x321D JUMP JUMPDEST PUSH1 0x0 DUP2 PUSH1 0x2 ADD SLOAD GT PUSH2 0x1648 JUMPI PUSH1 0x40 MLOAD PUSH32 0x8C379A000000000000000000000000000000000000000000000000000000000 DUP2 MSTORE PUSH1 0x4 ADD PUSH2 0x163F SWAP1 PUSH2 0x5134 JUMP JUMPDEST PUSH1 0x40 MLOAD DUP1 SWAP2 SUB SWAP1 REVERT JUMPDEST PUSH1 0x0 PUSH1 0x2 PUSH1 0x0 DUP5 DUP2 MSTORE PUSH1 0x20 ADD SWAP1 DUP2 MSTORE PUSH1 0x20 ADD PUSH1 0x0 KECCAK256 PUSH1 0x2 ADD SLOAD SWAP1 POP PUSH1 0x0 PUSH1 0x2 PUSH1 0x0 DUP6 DUP2 MSTORE PUSH1 0x20 ADD SWAP1 DUP2 MSTORE PUSH1 0x20 ADD PUSH1 0x0 KECCAK256 PUSH1 0x2 ADD DUP2 SWAP1 SSTORE POP DUP3 PUSH32 0xA6FECEE2C95FC6B4C7F291E3435A3A832BCD700C2A7FFDEDD8C909D56DFA49F DUP8 PUSH1 0x2 PUSH1 0x0 DUP8 DUP2 MSTORE PUSH1 0x20 ADD SWAP1 DUP2 MSTORE PUSH1 0x20 ADD PUSH1 0x0 KECCAK256 PUSH1 0x2 ADD SLOAD PUSH1 0x0 TIMESTAMP PUSH1 0x40 MLOAD PUSH2 0x16CC SWAP5 SWAP4 SWAP3 SWAP2 SWAP1 PUSH2 0x5272 JUMP JUMPDEST PUSH1 0x40 MLOAD DUP1 SWAP2 SUB SWAP1 LOG2 PUSH1 0x6 PUSH1 0x0 SWAP1 SLOAD SWAP1 PUSH2 0x100 EXP SWAP1 DIV PUSH20 0xFFFFFFFFFFFFFFFFFFFFFFFFFFFFFFFFFFFFFFFF AND PUSH20 0xFFFFFFFFFFFFFFFFFFFFFFFFFFFFFFFFFFFFFFFF AND PUSH4 0xA9059CBB CALLER DUP4 PUSH1 0x40 MLOAD DUP4 PUSH4 0xFFFFFFFF AND PUSH1 0xE0 SHL DUP2 MSTORE PUSH1 0x4 ADD PUSH2 0x1731 SWAP3 SWAP2 SWAP1 PUSH2 0x4D9E JUMP JUMPDEST PUSH1 0x20 PUSH1 0x40 MLOAD DUP1 DUP4 SUB DUP2 PUSH1 0x0 DUP8 DUP1 EXTCODESIZE ISZERO DUP1 ISZERO PUSH2 0x174B JUMPI PUSH1 0x0 DUP1 REVERT JUMPDEST POP GAS CALL ISZERO DUP1 ISZERO PUSH2 0x175F JUMPI RETURNDATASIZE PUSH1 0x0 DUP1 RETURNDATACOPY RETURNDATASIZE PUSH1 0x0 REVERT JUMPDEST POP POP POP POP PUSH1 0x40 MLOAD RETURNDATASIZE PUSH1 0x1F NOT PUSH1 0x1F DUP3 ADD AND DUP3 ADD DUP1 PUSH1 0x40 MSTORE POP DUP2 ADD SWAP1 PUSH2 0x1783 SWAP2 SWAP1 PUSH2 0x4195 JUMP JUMPDEST PUSH2 0x17C2 JUMPI PUSH1 0x40 MLOAD PUSH32 0x8C379A000000000000000000000000000000000000000000000000000000000 DUP2 MSTORE PUSH1 0x4 ADD PUSH2 0x17B9 SWAP1 PUSH2 0x4FB4 JUMP JUMPDEST PUSH1 0x40 MLOAD DUP1 SWAP2 SUB SWAP1 REVERT JUMPDEST POP POP POP POP POP POP JUMP JUMPDEST PUSH1 0x9 PUSH1 0x0 SWAP1 SLOAD SWAP1 PUSH2 0x100 EXP SWAP1 DIV PUSH20 0xFFFFFFFFFFFFFFFFFFFFFFFFFFFFFFFFFFFFFFFF AND DUP2 JUMP JUMPDEST PUSH2 0x1816 PUSH1 0x0 DUP1 DUP5 DUP2 MSTORE PUSH1 0x20 ADD SWAP1 DUP2 MSTORE PUSH1 0x20 ADD PUSH1 0x0 KECCAK256 PUSH1 0x2 ADD SLOAD PUSH2 0x1811 PUSH2 0x363B JUMP JUMPDEST PUSH2 0x2636 JUMP JUMPDEST PUSH2 0x1855 JUMPI PUSH1 0x40 MLOAD PUSH32 0x8C379A000000000000000000000000000000000000000000000000000000000 DUP2 MSTORE PUSH1 0x4 ADD PUSH2 0x184C SWAP1 PUSH2 0x4ED4 JUMP JUMPDEST PUSH1 0x40 MLOAD DUP1 SWAP2 SUB SWAP1 REVERT JUMPDEST PUSH2 0x185F DUP3 DUP3 PUSH2 0x3643 JUMP JUMPDEST POP POP JUMP JUMPDEST PUSH2 0x186B PUSH2 0x363B JUMP JUMPDEST PUSH20 0xFFFFFFFFFFFFFFFFFFFFFFFFFFFFFFFFFFFFFFFF AND DUP2 PUSH20 0xFFFFFFFFFFFFFFFFFFFFFFFFFFFFFFFFFFFFFFFF AND EQ PUSH2 0x18D8 JUMPI PUSH1 0x40 MLOAD PUSH32 0x8C379A000000000000000000000000000000000000000000000000000000000 DUP2 MSTORE PUSH1 0x4 ADD PUSH2 0x18CF SWAP1 PUSH2 0x5154 JUMP JUMPDEST PUSH1 0x40 MLOAD DUP1 SWAP2 SUB SWAP1 REVERT JUMPDEST PUSH2 0x18E2 DUP3 DUP3 PUSH2 0x36D6 JUMP JUMPDEST POP POP JUMP JUMPDEST PUSH1 0x7 PUSH1 0x0 SWAP1 SLOAD SWAP1 PUSH2 0x100 EXP SWAP1 DIV PUSH20 0xFFFFFFFFFFFFFFFFFFFFFFFFFFFFFFFFFFFFFFFF AND DUP2 JUMP JUMPDEST PUSH2 0x1915 CALLER PUSH2 0xC8E JUMP JUMPDEST PUSH2 0x1954 JUMPI PUSH1 0x40 MLOAD PUSH32 0x8C379A000000000000000000000000000000000000000000000000000000000 DUP2 MSTORE PUSH1 0x4 ADD PUSH2 0x194B SWAP1 PUSH2 0x5114 JUMP JUMPDEST PUSH1 0x40 MLOAD DUP1 SWAP2 SUB SWAP1 REVERT JUMPDEST PUSH2 0x195E DUP3 DUP3 PUSH2 0x321D JUMP JUMPDEST POP POP JUMP JUMPDEST PUSH1 0x0 PUSH1 0x1 PUSH1 0x0 DUP4 PUSH20 0xFFFFFFFFFFFFFFFFFFFFFFFFFFFFFFFFFFFFFFFF AND PUSH20 0xFFFFFFFFFFFFFFFFFFFFFFFFFFFFFFFFFFFFFFFF AND DUP2 MSTORE PUSH1 0x20 ADD SWAP1 DUP2 MSTORE PUSH1 0x20 ADD PUSH1 0x0 KECCAK256 SLOAD SWAP1 POP SWAP2 SWAP1 POP JUMP JUMPDEST PUSH1 0x4 SLOAD DUP2 JUMP JUMPDEST PUSH1 0x3 SLOAD DUP2 JUMP JUMPDEST PUSH2 0x19C0 CALLER PUSH2 0xC8E JUMP JUMPDEST PUSH2 0x19FF JUMPI PUSH1 0x40 MLOAD PUSH32 0x8C379A000000000000000000000000000000000000000000000000000000000 DUP2 MSTORE PUSH1 0x4 ADD PUSH2 0x19F6 SWAP1 PUSH2 0x5114 JUMP JUMPDEST PUSH1 0x40 MLOAD DUP1 SWAP2 SUB SWAP1 REVERT JUMPDEST PUSH1 0x0 PUSH20 0x0 PUSH4 0xAC168A1 PUSH1 0x40 MLOAD DUP2 PUSH4 0xFFFFFFFF AND PUSH1 0xE0 SHL DUP2 MSTORE PUSH1 0x4 ADD PUSH1 0x20 PUSH1 0x40 MLOAD DUP1 DUP4 SUB DUP2 DUP7 DUP1 EXTCODESIZE ISZERO DUP1 ISZERO PUSH2 0x1A45 JUMPI PUSH1 0x0 DUP1 REVERT JUMPDEST POP GAS DELEGATECALL ISZERO DUP1 ISZERO PUSH2 0x1A59 JUMPI RETURNDATASIZE PUSH1 0x0 DUP1 RETURNDATACOPY RETURNDATASIZE PUSH1 0x0 REVERT JUMPDEST POP POP POP POP PUSH1 0x40 MLOAD RETURNDATASIZE PUSH1 0x1F NOT PUSH1 0x1F DUP3 ADD AND DUP3 ADD DUP1 PUSH1 0x40 MSTORE POP DUP2 ADD SWAP1 PUSH2 0x1A7D SWAP2 SWAP1 PUSH2 0x431B JUMP JUMPDEST GT ISZERO PUSH2 0x1CA1 JUMPI PUSH1 0x0 PUSH2 0x1B29 PUSH20 0x0 PUSH4 0xAC168A1 PUSH1 0x40 MLOAD DUP2 PUSH4 0xFFFFFFFF AND PUSH1 0xE0 SHL DUP2 MSTORE PUSH1 0x4 ADD PUSH1 0x20 PUSH1 0x40 MLOAD DUP1 DUP4 SUB DUP2 DUP7 DUP1 EXTCODESIZE ISZERO DUP1 ISZERO PUSH2 0x1ACC JUMPI PUSH1 0x0 DUP1 REVERT JUMPDEST POP GAS DELEGATECALL ISZERO DUP1 ISZERO PUSH2 0x1AE0 JUMPI RETURNDATASIZE PUSH1 0x0 DUP1 RETURNDATACOPY RETURNDATASIZE PUSH1 0x0 REVERT JUMPDEST POP POP POP POP PUSH1 0x40 MLOAD RETURNDATASIZE PUSH1 0x1F NOT PUSH1 0x1F DUP3 ADD AND DUP3 ADD DUP1 PUSH1 0x40 MSTORE POP DUP2 ADD SWAP1 PUSH2 0x1B04 SWAP2 SWAP1 PUSH2 0x431B JUMP JUMPDEST PUSH1 0x2 PUSH1 0x0 DUP7 DUP2 MSTORE PUSH1 0x20 ADD SWAP1 DUP2 MSTORE PUSH1 0x20 ADD PUSH1 0x0 KECCAK256 PUSH1 0x2 ADD SLOAD PUSH2 0x31C8 SWAP1 SWAP2 SWAP1 PUSH4 0xFFFFFFFF AND JUMP JUMPDEST SWAP1 POP PUSH2 0x1B6C DUP4 DUP3 PUSH1 0x40 MLOAD DUP1 PUSH1 0x40 ADD PUSH1 0x40 MSTORE DUP1 PUSH1 0xC DUP2 MSTORE PUSH1 0x20 ADD PUSH32 0x426C6F636B205265776172640000000000000000000000000000000000000000 DUP2 MSTORE POP DUP6 PUSH2 0x3091 JUMP JUMPDEST PUSH1 0x6 PUSH1 0x0 SWAP1 SLOAD SWAP1 PUSH2 0x100 EXP SWAP1 DIV PUSH20 0xFFFFFFFFFFFFFFFFFFFFFFFFFFFFFFFFFFFFFFFF AND PUSH20 0xFFFFFFFFFFFFFFFFFFFFFFFFFFFFFFFFFFFFFFFF AND PUSH4 0x40C10F19 ADDRESS PUSH20 0x0 PUSH4 0xAC168A1 PUSH1 0x40 MLOAD DUP2 PUSH4 0xFFFFFFFF AND PUSH1 0xE0 SHL DUP2 MSTORE PUSH1 0x4 ADD PUSH1 0x20 PUSH1 0x40 MLOAD DUP1 DUP4 SUB DUP2 DUP7 DUP1 EXTCODESIZE ISZERO DUP1 ISZERO PUSH2 0x1BEF JUMPI PUSH1 0x0 DUP1 REVERT JUMPDEST POP GAS DELEGATECALL ISZERO DUP1 ISZERO PUSH2 0x1C03 JUMPI RETURNDATASIZE PUSH1 0x0 DUP1 RETURNDATACOPY RETURNDATASIZE PUSH1 0x0 REVERT JUMPDEST POP POP POP POP PUSH1 0x40 MLOAD RETURNDATASIZE PUSH1 0x1F NOT PUSH1 0x1F DUP3 ADD AND DUP3 ADD DUP1 PUSH1 0x40 MSTORE POP DUP2 ADD SWAP1 PUSH2 0x1C27 SWAP2 SWAP1 PUSH2 0x431B JUMP JUMPDEST PUSH1 0x40 MLOAD DUP4 PUSH4 0xFFFFFFFF AND PUSH1 0xE0 SHL DUP2 MSTORE PUSH1 0x4 ADD PUSH2 0x1C44 SWAP3 SWAP2 SWAP1 PUSH2 0x4DC7 JUMP JUMPDEST PUSH1 0x20 PUSH1 0x40 MLOAD DUP1 DUP4 SUB DUP2 PUSH1 0x0 DUP8 DUP1 EXTCODESIZE ISZERO DUP1 ISZERO PUSH2 0x1C5E JUMPI PUSH1 0x0 DUP1 REVERT JUMPDEST POP GAS CALL ISZERO DUP1 ISZERO PUSH2 0x1C72 JUMPI RETURNDATASIZE PUSH1 0x0 DUP1 RETURNDATACOPY RETURNDATASIZE PUSH1 0x0 REVERT JUMPDEST POP POP POP POP PUSH1 0x40 MLOAD RETURNDATASIZE PUSH1 0x1F NOT PUSH1 0x1F DUP3 ADD AND DUP3 ADD DUP1 PUSH1 0x40 MSTORE POP DUP2 ADD SWAP1 PUSH2 0x1C96 SWAP2 SWAP1 PUSH2 0x4195 JUMP JUMPDEST PUSH2 0x1C9F JUMPI PUSH1 0x0 DUP1 REVERT JUMPDEST POP JUMPDEST PUSH1 0x0 PUSH1 0x5 SLOAD SWAP1 POP PUSH1 0x0 PUSH1 0x5 DUP2 SWAP1 SSTORE POP PUSH32 0xEEE26D3C1E406E24904D3748E49DA85096C92AC1A6AD38F3FE8A404F85212DD1 DUP3 DUP3 PUSH1 0x5 SLOAD TIMESTAMP PUSH1 0x40 MLOAD PUSH2 0x1CE7 SWAP5 SWAP4 SWAP3 SWAP2 SWAP1 PUSH2 0x5348 JUMP JUMPDEST PUSH1 0x40 MLOAD DUP1 SWAP2 SUB SWAP1 LOG1 POP POP POP JUMP JUMPDEST DUP2 PUSH1 0x9 PUSH1 0x0 SWAP1 SLOAD SWAP1 PUSH2 0x100 EXP SWAP1 DIV PUSH20 0xFFFFFFFFFFFFFFFFFFFFFFFFFFFFFFFFFFFFFFFF AND PUSH20 0xFFFFFFFFFFFFFFFFFFFFFFFFFFFFFFFFFFFFFFFF AND PUSH4 0x757991A8 PUSH1 0x40 MLOAD DUP2 PUSH4 0xFFFFFFFF AND PUSH1 0xE0 SHL DUP2 MSTORE PUSH1 0x4 ADD PUSH1 0x20 PUSH1 0x40 MLOAD DUP1 DUP4 SUB DUP2 DUP7 DUP1 EXTCODESIZE ISZERO DUP1 ISZERO PUSH2 0x1D5D JUMPI PUSH1 0x0 DUP1 REVERT JUMPDEST POP GAS STATICCALL ISZERO DUP1 ISZERO PUSH2 0x1D71 JUMPI RETURNDATASIZE PUSH1 0x0 DUP1 RETURNDATACOPY RETURNDATASIZE PUSH1 0x0 REVERT JUMPDEST POP POP POP POP PUSH1 0x40 MLOAD RETURNDATASIZE PUSH1 0x1F NOT PUSH1 0x1F DUP3 ADD AND DUP3 ADD DUP1 PUSH1 0x40 MSTORE POP DUP2 ADD SWAP1 PUSH2 0x1D95 SWAP2 SWAP1 PUSH2 0x431B JUMP JUMPDEST DUP2 EQ PUSH2 0x1DD6 JUMPI PUSH1 0x40 MLOAD PUSH32 0x8C379A000000000000000000000000000000000000000000000000000000000 DUP2 MSTORE PUSH1 0x4 ADD PUSH2 0x1DCD SWAP1 PUSH2 0x4FF4 JUMP JUMPDEST PUSH1 0x40 MLOAD DUP1 SWAP2 SUB SWAP1 REVERT JUMPDEST PUSH20 0x0 PUSH4 0x3C7A3AFF PUSH1 0x40 MLOAD DUP2 PUSH4 0xFFFFFFFF AND PUSH1 0xE0 SHL DUP2 MSTORE PUSH1 0x4 ADD PUSH1 0x20 PUSH1 0x40 MLOAD DUP1 DUP4 SUB DUP2 DUP7 DUP1 EXTCODESIZE ISZERO DUP1 ISZERO PUSH2 0x1E1A JUMPI PUSH1 0x0 DUP1 REVERT JUMPDEST POP GAS DELEGATECALL ISZERO DUP1 ISZERO PUSH2 0x1E2E JUMPI RETURNDATASIZE PUSH1 0x0 DUP1 RETURNDATACOPY RETURNDATASIZE PUSH1 0x0 REVERT JUMPDEST POP POP POP POP PUSH1 0x40 MLOAD RETURNDATASIZE PUSH1 0x1F NOT PUSH1 0x1F DUP3 ADD AND DUP3 ADD DUP1 PUSH1 0x40 MSTORE POP DUP2 ADD SWAP1 PUSH2 0x1E52 SWAP2 SWAP1 PUSH2 0x444F JUMP JUMPDEST PUSH1 0xFF AND PUSH1 0x9 PUSH1 0x0 SWAP1 SLOAD SWAP1 PUSH2 0x100 EXP SWAP1 DIV PUSH20 0xFFFFFFFFFFFFFFFFFFFFFFFFFFFFFFFFFFFFFFFF AND PUSH20 0xFFFFFFFFFFFFFFFFFFFFFFFFFFFFFFFFFFFFFFFF AND PUSH4 0x1865C57D PUSH1 0x40 MLOAD DUP2 PUSH4 0xFFFFFFFF AND PUSH1 0xE0 SHL DUP2 MSTORE PUSH1 0x4 ADD PUSH1 0x20 PUSH1 0x40 MLOAD DUP1 DUP4 SUB DUP2 DUP7 DUP1 EXTCODESIZE ISZERO DUP1 ISZERO PUSH2 0x1EBD JUMPI PUSH1 0x0 DUP1 REVERT JUMPDEST POP GAS STATICCALL ISZERO DUP1 ISZERO PUSH2 0x1ED1 JUMPI RETURNDATASIZE PUSH1 0x0 DUP1 RETURNDATACOPY RETURNDATASIZE PUSH1 0x0 REVERT JUMPDEST POP POP POP POP PUSH1 0x40 MLOAD RETURNDATASIZE PUSH1 0x1F NOT PUSH1 0x1F DUP3 ADD AND DUP3 ADD DUP1 PUSH1 0x40 MSTORE POP DUP2 ADD SWAP1 PUSH2 0x1EF5 SWAP2 SWAP1 PUSH2 0x431B JUMP JUMPDEST DUP2 EQ PUSH2 0x1F36 JUMPI PUSH1 0x40 MLOAD PUSH32 0x8C379A000000000000000000000000000000000000000000000000000000000 DUP2 MSTORE PUSH1 0x4 ADD PUSH2 0x1F2D SWAP1 PUSH2 0x50F4 JUMP JUMPDEST PUSH1 0x40 MLOAD DUP1 SWAP2 SUB SWAP1 REVERT JUMPDEST PUSH20 0x0 PUSH4 0xA475B5DD PUSH1 0x40 MLOAD DUP2 PUSH4 0xFFFFFFFF AND PUSH1 0xE0 SHL DUP2 MSTORE PUSH1 0x4 ADD PUSH1 0x20 PUSH1 0x40 MLOAD DUP1 DUP4 SUB DUP2 DUP7 DUP1 EXTCODESIZE ISZERO DUP1 ISZERO PUSH2 0x1F7A JUMPI PUSH1 0x0 DUP1 REVERT JUMPDEST POP GAS DELEGATECALL ISZERO DUP1 ISZERO PUSH2 0x1F8E JUMPI RETURNDATASIZE PUSH1 0x0 DUP1 RETURNDATACOPY RETURNDATASIZE PUSH1 0x0 REVERT JUMPDEST POP POP POP POP PUSH1 0x40 MLOAD RETURNDATASIZE PUSH1 0x1F NOT PUSH1 0x1F DUP3 ADD AND DUP3 ADD DUP1 PUSH1 0x40 MSTORE POP DUP2 ADD SWAP1 PUSH2 0x1FB2 SWAP2 SWAP1 PUSH2 0x444F JUMP JUMPDEST PUSH1 0xFF AND PUSH1 0x9 PUSH1 0x0 SWAP1 SLOAD SWAP1 PUSH2 0x100 EXP SWAP1 DIV PUSH20 0xFFFFFFFFFFFFFFFFFFFFFFFFFFFFFFFFFFFFFFFF AND PUSH20 0xFFFFFFFFFFFFFFFFFFFFFFFFFFFFFFFFFFFFFFFF AND PUSH4 0x1865C57D PUSH1 0x40 MLOAD DUP2 PUSH4 0xFFFFFFFF AND PUSH1 0xE0 SHL DUP2 MSTORE PUSH1 0x4 ADD PUSH1 0x20 PUSH1 0x40 MLOAD DUP1 DUP4 SUB DUP2 DUP7 DUP1 EXTCODESIZE ISZERO DUP1 ISZERO PUSH2 0x201D JUMPI PUSH1 0x0 DUP1 REVERT JUMPDEST POP GAS STATICCALL ISZERO DUP1 ISZERO PUSH2 0x2031 JUMPI RETURNDATASIZE PUSH1 0x0 DUP1 RETURNDATACOPY RETURNDATASIZE PUSH1 0x0 REVERT JUMPDEST POP POP POP POP PUSH1 0x40 MLOAD RETURNDATASIZE PUSH1 0x1F NOT PUSH1 0x1F DUP3 ADD AND DUP3 ADD DUP1 PUSH1 0x40 MSTORE POP DUP2 ADD SWAP1 PUSH2 0x2055 SWAP2 SWAP1 PUSH2 0x431B JUMP JUMPDEST EQ ISZERO PUSH2 0x2096 JUMPI PUSH1 0x40 MLOAD PUSH32 0x8C379A000000000000000000000000000000000000000000000000000000000 DUP2 MSTORE PUSH1 0x4 ADD PUSH2 0x208D SWAP1 PUSH2 0x5094 JUMP JUMPDEST PUSH1 0x40 MLOAD DUP1 SWAP2 SUB SWAP1 REVERT JUMPDEST PUSH20 0x0 PUSH4 0x375B3C0A PUSH1 0x40 MLOAD DUP2 PUSH4 0xFFFFFFFF AND PUSH1 0xE0 SHL DUP2 MSTORE PUSH1 0x4 ADD PUSH1 0x20 PUSH1 0x40 MLOAD DUP1 DUP4 SUB DUP2 DUP7 DUP1 EXTCODESIZE ISZERO DUP1 ISZERO PUSH2 0x20DA JUMPI PUSH1 0x0 DUP1 REVERT JUMPDEST POP GAS DELEGATECALL ISZERO DUP1 ISZERO PUSH2 0x20EE JUMPI RETURNDATASIZE PUSH1 0x0 DUP1 RETURNDATACOPY RETURNDATASIZE PUSH1 0x0 REVERT JUMPDEST POP POP POP POP PUSH1 0x40 MLOAD RETURNDATASIZE PUSH1 0x1F NOT PUSH1 0x1F DUP3 ADD AND DUP3 ADD DUP1 PUSH1 0x40 MSTORE POP DUP2 ADD SWAP1 PUSH2 0x2112 SWAP2 SWAP1 PUSH2 0x431B JUMP JUMPDEST DUP4 LT ISZERO PUSH2 0x2154 JUMPI PUSH1 0x40 MLOAD PUSH32 0x8C379A000000000000000000000000000000000000000000000000000000000 DUP2 MSTORE PUSH1 0x4 ADD PUSH2 0x214B SWAP1 PUSH2 0x5174 JUMP JUMPDEST PUSH1 0x40 MLOAD DUP1 SWAP2 SUB SWAP1 REVERT JUMPDEST PUSH1 0x6 PUSH1 0x0 SWAP1 SLOAD SWAP1 PUSH2 0x100 EXP SWAP1 DIV PUSH20 0xFFFFFFFFFFFFFFFFFFFFFFFFFFFFFFFFFFFFFFFF AND PUSH20 0xFFFFFFFFFFFFFFFFFFFFFFFFFFFFFFFFFFFFFFFF AND PUSH4 0x23B872DD CALLER ADDRESS DUP7 PUSH1 0x40 MLOAD DUP5 PUSH4 0xFFFFFFFF AND PUSH1 0xE0 SHL DUP2 MSTORE PUSH1 0x4 ADD PUSH2 0x21B3 SWAP4 SWAP3 SWAP2 SWAP1 PUSH2 0x4D67 JUMP JUMPDEST PUSH1 0x20 PUSH1 0x40 MLOAD DUP1 DUP4 SUB DUP2 PUSH1 0x0 DUP8 DUP1 EXTCODESIZE ISZERO DUP1 ISZERO PUSH2 0x21CD JUMPI PUSH1 0x0 DUP1 REVERT JUMPDEST POP GAS CALL ISZERO DUP1 ISZERO PUSH2 0x21E1 JUMPI RETURNDATASIZE PUSH1 0x0 DUP1 RETURNDATACOPY RETURNDATASIZE PUSH1 0x0 REVERT JUMPDEST POP POP POP POP PUSH1 0x40 MLOAD RETURNDATASIZE PUSH1 0x1F NOT PUSH1 0x1F DUP3 ADD AND DUP3 ADD DUP1 PUSH1 0x40 MSTORE POP DUP2 ADD SWAP1 PUSH2 0x2205 SWAP2 SWAP1 PUSH2 0x4195 JUMP JUMPDEST PUSH2 0x2244 JUMPI PUSH1 0x40 MLOAD PUSH32 0x8C379A000000000000000000000000000000000000000000000000000000000 DUP2 MSTORE PUSH1 0x4 ADD PUSH2 0x223B SWAP1 PUSH2 0x4F94 JUMP JUMPDEST PUSH1 0x40 MLOAD DUP1 SWAP2 SUB SWAP1 REVERT JUMPDEST PUSH1 0x0 PUSH1 0x1 PUSH1 0x0 CALLER PUSH20 0xFFFFFFFFFFFFFFFFFFFFFFFFFFFFFFFFFFFFFFFF AND PUSH20 0xFFFFFFFFFFFFFFFFFFFFFFFFFFFFFFFFFFFFFFFF AND DUP2 MSTORE PUSH1 0x20 ADD SWAP1 DUP2 MSTORE PUSH1 0x20 ADD PUSH1 0x0 KECCAK256 SLOAD SWAP1 POP PUSH1 0x0 PUSH1 0x2 PUSH1 0x0 DUP4 DUP2 MSTORE PUSH1 0x20 ADD SWAP1 DUP2 MSTORE PUSH1 0x20 ADD PUSH1 0x0 KECCAK256 PUSH1 0x2 ADD SLOAD SWAP1 POP PUSH1 0x0 DUP3 EQ ISZERO PUSH2 0x249D JUMPI PUSH2 0x22C2 PUSH1 0x1 PUSH1 0x3 SLOAD PUSH2 0x31C8 SWAP1 SWAP2 SWAP1 PUSH4 0xFFFFFFFF AND JUMP JUMPDEST PUSH1 0x3 DUP2 SWAP1 SSTORE POP PUSH1 0x40 MLOAD DUP1 PUSH2 0x100 ADD PUSH1 0x40 MSTORE DUP1 PUSH1 0x3 SLOAD DUP2 MSTORE PUSH1 0x20 ADD CALLER PUSH20 0xFFFFFFFFFFFFFFFFFFFFFFFFFFFFFFFFFFFFFFFF AND DUP2 MSTORE PUSH1 0x20 ADD DUP7 DUP2 MSTORE PUSH1 0x20 ADD DUP8 DUP2 MSTORE PUSH1 0x20 ADD PUSH1 0x0 DUP2 MSTORE PUSH1 0x20 ADD PUSH1 0x0 DUP2 MSTORE PUSH1 0x20 ADD PUSH2 0x23A0 PUSH20 0x0 PUSH4 0x26BF1C03 PUSH1 0x40 MLOAD DUP2 PUSH4 0xFFFFFFFF AND PUSH1 0xE0 SHL DUP2 MSTORE PUSH1 0x4 ADD PUSH1 0x20 PUSH1 0x40 MLOAD DUP1 DUP4 SUB DUP2 DUP7 DUP1 EXTCODESIZE ISZERO DUP1 ISZERO PUSH2 0x2359 JUMPI PUSH1 0x0 DUP1 REVERT JUMPDEST POP GAS DELEGATECALL ISZERO DUP1 ISZERO PUSH2 0x236D JUMPI RETURNDATASIZE PUSH1 0x0 DUP1 RETURNDATACOPY RETURNDATASIZE PUSH1 0x0 REVERT JUMPDEST POP POP POP POP PUSH1 0x40 MLOAD RETURNDATASIZE PUSH1 0x1F NOT PUSH1 0x1F DUP3 ADD AND DUP3 ADD DUP1 PUSH1 0x40 MSTORE POP DUP2 ADD SWAP1 PUSH2 0x2391 SWAP2 SWAP1 PUSH2 0x431B JUMP JUMPDEST DUP10 PUSH2 0x31C8 SWAP1 SWAP2 SWAP1 PUSH4 0xFFFFFFFF AND JUMP JUMPDEST DUP2 MSTORE PUSH1 0x20 ADD PUSH1 0x0 DUP2 MSTORE POP PUSH1 0x2 PUSH1 0x0 PUSH1 0x3 SLOAD DUP2 MSTORE PUSH1 0x20 ADD SWAP1 DUP2 MSTORE PUSH1 0x20 ADD PUSH1 0x0 KECCAK256 PUSH1 0x0 DUP3 ADD MLOAD DUP2 PUSH1 0x0 ADD SSTORE PUSH1 0x20 DUP3 ADD MLOAD DUP2 PUSH1 0x1 ADD PUSH1 0x0 PUSH2 0x100 EXP DUP2 SLOAD DUP2 PUSH20 0xFFFFFFFFFFFFFFFFFFFFFFFFFFFFFFFFFFFFFFFF MUL NOT AND SWAP1 DUP4 PUSH20 0xFFFFFFFFFFFFFFFFFFFFFFFFFFFFFFFFFFFFFFFF AND MUL OR SWAP1 SSTORE POP PUSH1 0x40 DUP3 ADD MLOAD DUP2 PUSH1 0x2 ADD SSTORE PUSH1 0x60 DUP3 ADD MLOAD DUP2 PUSH1 0x3 ADD SSTORE PUSH1 0x80 DUP3 ADD MLOAD DUP2 PUSH1 0x4 ADD SSTORE PUSH1 0xA0 DUP3 ADD MLOAD DUP2 PUSH1 0x5 ADD SSTORE PUSH1 0xC0 DUP3 ADD MLOAD DUP2 PUSH1 0x6 ADD SSTORE PUSH1 0xE0 DUP3 ADD MLOAD DUP2 PUSH1 0x7 ADD SSTORE SWAP1 POP POP PUSH1 0x3 SLOAD SWAP2 POP DUP2 PUSH1 0x1 PUSH1 0x0 CALLER PUSH20 0xFFFFFFFFFFFFFFFFFFFFFFFFFFFFFFFFFFFFFFFF AND PUSH20 0xFFFFFFFFFFFFFFFFFFFFFFFFFFFFFFFFFFFFFFFF AND DUP2 MSTORE PUSH1 0x20 ADD SWAP1 DUP2 MSTORE PUSH1 0x20 ADD PUSH1 0x0 KECCAK256 DUP2 SWAP1 SSTORE POP PUSH2 0x25A9 JUMP JUMPDEST PUSH2 0x24C6 DUP6 PUSH1 0x2 PUSH1 0x0 DUP6 DUP2 MSTORE PUSH1 0x20 ADD SWAP1 DUP2 MSTORE PUSH1 0x20 ADD PUSH1 0x0 KECCAK256 PUSH1 0x2 ADD SLOAD PUSH2 0x31C8 SWAP1 SWAP2 SWAP1 PUSH4 0xFFFFFFFF AND JUMP JUMPDEST PUSH1 0x2 PUSH1 0x0 DUP5 DUP2 MSTORE PUSH1 0x20 ADD SWAP1 DUP2 MSTORE PUSH1 0x20 ADD PUSH1 0x0 KECCAK256 PUSH1 0x2 ADD DUP2 SWAP1 SSTORE POP PUSH2 0x256E PUSH20 0x0 PUSH4 0x26BF1C03 PUSH1 0x40 MLOAD DUP2 PUSH4 0xFFFFFFFF AND PUSH1 0xE0 SHL DUP2 MSTORE PUSH1 0x4 ADD PUSH1 0x20 PUSH1 0x40 MLOAD DUP1 DUP4 SUB DUP2 DUP7 DUP1 EXTCODESIZE ISZERO DUP1 ISZERO PUSH2 0x2527 JUMPI PUSH1 0x0 DUP1 REVERT JUMPDEST POP GAS DELEGATECALL ISZERO DUP1 ISZERO PUSH2 0x253B JUMPI RETURNDATASIZE PUSH1 0x0 DUP1 RETURNDATACOPY RETURNDATASIZE PUSH1 0x0 REVERT JUMPDEST POP POP POP POP PUSH1 0x40 MLOAD RETURNDATASIZE PUSH1 0x1F NOT PUSH1 0x1F DUP3 ADD AND DUP3 ADD DUP1 PUSH1 0x40 MSTORE POP DUP2 ADD SWAP1 PUSH2 0x255F SWAP2 SWAP1 PUSH2 0x431B JUMP JUMPDEST DUP8 PUSH2 0x31C8 SWAP1 SWAP2 SWAP1 PUSH4 0xFFFFFFFF AND JUMP JUMPDEST PUSH1 0x2 PUSH1 0x0 PUSH1 0x3 SLOAD DUP2 MSTORE PUSH1 0x20 ADD SWAP1 DUP2 MSTORE PUSH1 0x20 ADD PUSH1 0x0 KECCAK256 PUSH1 0x6 ADD DUP2 SWAP1 SSTORE POP PUSH1 0x0 PUSH1 0x2 PUSH1 0x0 PUSH1 0x3 SLOAD DUP2 MSTORE PUSH1 0x20 ADD SWAP1 DUP2 MSTORE PUSH1 0x20 ADD PUSH1 0x0 KECCAK256 PUSH1 0x7 ADD DUP2 SWAP1 SSTORE POP JUMPDEST DUP2 PUSH32 0x52D3B6BF695A499D39FCDB47E3B450C09F2F6AA091CA8809CC51C00E705996CC DUP8 DUP4 PUSH1 0x2 PUSH1 0x0 DUP8 DUP2 MSTORE PUSH1 0x20 ADD SWAP1 DUP2 MSTORE PUSH1 0x20 ADD PUSH1 0x0 KECCAK256 PUSH1 0x2 ADD SLOAD TIMESTAMP PUSH1 0x40 MLOAD PUSH2 0x25F5 SWAP5 SWAP4 SWAP3 SWAP2 SWAP1 PUSH2 0x5348 JUMP JUMPDEST PUSH1 0x40 MLOAD DUP1 SWAP2 SUB SWAP1 LOG2 POP POP POP POP POP POP JUMP JUMPDEST PUSH1 0x0 PUSH2 0x262E DUP3 PUSH1 0x0 DUP1 DUP7 DUP2 MSTORE PUSH1 0x20 ADD SWAP1 DUP2 MSTORE PUSH1 0x20 ADD PUSH1 0x0 KECCAK256 PUSH1 0x0 ADD PUSH2 0x3769 SWAP1 SWAP2 SWAP1 PUSH4 0xFFFFFFFF AND JUMP JUMPDEST SWAP1 POP SWAP3 SWAP2 POP POP JUMP JUMPDEST PUSH1 0x0 PUSH2 0x265F DUP3 PUSH1 0x0 DUP1 DUP7 DUP2 MSTORE PUSH1 0x20 ADD SWAP1 DUP2 MSTORE PUSH1 0x20 ADD PUSH1 0x0 KECCAK256 PUSH1 0x0 ADD PUSH2 0x3783 SWAP1 SWAP2 SWAP1 PUSH4 0xFFFFFFFF AND JUMP JUMPDEST SWAP1 POP SWAP3 SWAP2 POP POP JUMP JUMPDEST PUSH2 0x2670 CALLER PUSH2 0xC8E JUMP JUMPDEST PUSH2 0x26AF JUMPI PUSH1 0x40 MLOAD PUSH32 0x8C379A000000000000000000000000000000000000000000000000000000000 DUP2 MSTORE PUSH1 0x4 ADD PUSH2 0x26A6 SWAP1 PUSH2 0x5114 JUMP JUMPDEST PUSH1 0x40 MLOAD DUP1 SWAP2 SUB SWAP1 REVERT JUMPDEST DUP1 PUSH1 0x2 PUSH1 0x0 DUP5 DUP2 MSTORE PUSH1 0x20 ADD SWAP1 DUP2 MSTORE PUSH1 0x20 ADD PUSH1 0x0 KECCAK256 PUSH1 0x5 ADD DUP2 SWAP1 SSTORE POP POP POP JUMP JUMPDEST PUSH1 0x0 DUP1 SHL DUP2 JUMP JUMPDEST PUSH2 0x26DE CALLER PUSH2 0xC8E JUMP JUMPDEST PUSH2 0x271D JUMPI PUSH1 0x40 MLOAD PUSH32 0x8C379A000000000000000000000000000000000000000000000000000000000 DUP2 MSTORE PUSH1 0x4 ADD PUSH2 0x2714 SWAP1 PUSH2 0x5114 JUMP JUMPDEST PUSH1 0x40 MLOAD DUP1 SWAP2 SUB SWAP1 REVERT JUMPDEST PUSH2 0x276D DUP6 DUP6 DUP6 DUP6 DUP1 DUP1 PUSH1 0x1F ADD PUSH1 0x20 DUP1 SWAP2 DIV MUL PUSH1 0x20 ADD PUSH1 0x40 MLOAD SWAP1 DUP2 ADD PUSH1 0x40 MSTORE DUP1 SWAP4 SWAP3 SWAP2 SWAP1 DUP2 DUP2 MSTORE PUSH1 0x20 ADD DUP4 DUP4 DUP1 DUP3 DUP5 CALLDATACOPY PUSH1 0x0 DUP2 DUP5 ADD MSTORE PUSH1 0x1F NOT PUSH1 0x1F DUP3 ADD AND SWAP1 POP DUP1 DUP4 ADD SWAP3 POP POP POP POP POP POP POP DUP5 PUSH2 0x3091 JUMP JUMPDEST POP POP POP POP POP JUMP JUMPDEST PUSH1 0x0 PUSH1 0x3 SLOAD SWAP1 POP SWAP1 JUMP JUMPDEST PUSH1 0x6 PUSH1 0x0 SWAP1 SLOAD SWAP1 PUSH2 0x100 EXP SWAP1 DIV PUSH20 0xFFFFFFFFFFFFFFFFFFFFFFFFFFFFFFFFFFFFFFFF AND DUP2 JUMP JUMPDEST PUSH1 0x1 PUSH1 0x20 MSTORE DUP1 PUSH1 0x0 MSTORE PUSH1 0x40 PUSH1 0x0 KECCAK256 PUSH1 0x0 SWAP2 POP SWAP1 POP SLOAD DUP2 JUMP JUMPDEST PUSH1 0x0 PUSH2 0x27DB PUSH1 0x0 DUP1 DUP5 DUP2 MSTORE PUSH1 0x20 ADD SWAP1 DUP2 MSTORE PUSH1 0x20 ADD PUSH1 0x0 KECCAK256 PUSH1 0x0 ADD PUSH2 0x37B3 JUMP JUMPDEST SWAP1 POP SWAP2 SWAP1 POP JUMP JUMPDEST PUSH2 0x2808 PUSH1 0x0 DUP1 DUP5 DUP2 MSTORE PUSH1 0x20 ADD SWAP1 DUP2 MSTORE PUSH1 0x20 ADD PUSH1 0x0 KECCAK256 PUSH1 0x2 ADD SLOAD PUSH2 0x2803 PUSH2 0x363B JUMP JUMPDEST PUSH2 0x2636 JUMP JUMPDEST PUSH2 0x2847 JUMPI PUSH1 0x40 MLOAD PUSH32 0x8C379A000000000000000000000000000000000000000000000000000000000 DUP2 MSTORE PUSH1 0x4 ADD PUSH2 0x283E SWAP1 PUSH2 0x4F54 JUMP JUMPDEST PUSH1 0x40 MLOAD DUP1 SWAP2 SUB SWAP1 REVERT JUMPDEST PUSH2 0x2851 DUP3 DUP3 PUSH2 0x36D6 JUMP JUMPDEST POP POP JUMP JUMPDEST PUSH1 0x8 PUSH1 0x0 SWAP1 SLOAD SWAP1 PUSH2 0x100 EXP SWAP1 DIV PUSH20 0xFFFFFFFFFFFFFFFFFFFFFFFFFFFFFFFFFFFFFFFF AND DUP2 JUMP JUMPDEST PUSH2 0x2884 CALLER PUSH2 0xC8E JUMP JUMPDEST PUSH2 0x28C3 JUMPI PUSH1 0x40 MLOAD PUSH32 0x8C379A000000000000000000000000000000000000000000000000000000000 DUP2 MSTORE PUSH1 0x4 ADD PUSH2 0x28BA SWAP1 PUSH2 0x5114 JUMP JUMPDEST PUSH1 0x40 MLOAD DUP1 SWAP2 SUB SWAP1 REVERT JUMPDEST PUSH2 0x28CC DUP2 PUSH2 0x37C8 JUMP JUMPDEST POP JUMP JUMPDEST PUSH2 0x28D8 CALLER PUSH2 0x382B JUMP JUMPDEST JUMP JUMPDEST PUSH2 0x28E2 PUSH2 0x3D54 JUMP JUMPDEST PUSH1 0x2 PUSH1 0x0 DUP4 DUP2 MSTORE PUSH1 0x20 ADD SWAP1 DUP2 MSTORE PUSH1 0x20 ADD PUSH1 0x0 KECCAK256 PUSH1 0x40 MLOAD DUP1 PUSH2 0x100 ADD PUSH1 0x40 MSTORE SWAP1 DUP2 PUSH1 0x0 DUP3 ADD SLOAD DUP2 MSTORE PUSH1 0x20 ADD PUSH1 0x1 DUP3 ADD PUSH1 0x0 SWAP1 SLOAD SWAP1 PUSH2 0x100 EXP SWAP1 DIV PUSH20 0xFFFFFFFFFFFFFFFFFFFFFFFFFFFFFFFFFFFFFFFF AND PUSH20 0xFFFFFFFFFFFFFFFFFFFFFFFFFFFFFFFFFFFFFFFF AND PUSH20 0xFFFFFFFFFFFFFFFFFFFFFFFFFFFFFFFFFFFFFFFF AND DUP2 MSTORE PUSH1 0x20 ADD PUSH1 0x2 DUP3 ADD SLOAD DUP2 MSTORE PUSH1 0x20 ADD PUSH1 0x3 DUP3 ADD SLOAD DUP2 MSTORE PUSH1 0x20 ADD PUSH1 0x4 DUP3 ADD SLOAD DUP2 MSTORE PUSH1 0x20 ADD PUSH1 0x5 DUP3 ADD SLOAD DUP2 MSTORE PUSH1 0x20 ADD PUSH1 0x6 DUP3 ADD SLOAD DUP2 MSTORE PUSH1 0x20 ADD PUSH1 0x7 DUP3 ADD SLOAD DUP2 MSTORE POP POP SWAP1 POP SWAP2 SWAP1 POP JUMP JUMPDEST PUSH2 0x29AD CALLER PUSH2 0xC8E JUMP JUMPDEST PUSH2 0x29EC JUMPI PUSH1 0x40 MLOAD PUSH32 0x8C379A000000000000000000000000000000000000000000000000000000000 DUP2 MSTORE PUSH1 0x4 ADD PUSH2 0x29E3 SWAP1 PUSH2 0x5114 JUMP JUMPDEST PUSH1 0x40 MLOAD DUP1 SWAP2 SUB SWAP1 REVERT JUMPDEST PUSH1 0x0 PUSH1 0x5 SLOAD EQ ISZERO PUSH2 0x29FC JUMPI PUSH2 0x2FAB JUMP JUMPDEST PUSH2 0x2A04 PUSH2 0x3D54 JUMP JUMPDEST PUSH1 0x2 PUSH1 0x0 DUP5 DUP2 MSTORE PUSH1 0x20 ADD SWAP1 DUP2 MSTORE PUSH1 0x20 ADD PUSH1 0x0 KECCAK256 PUSH1 0x40 MLOAD DUP1 PUSH2 0x100 ADD PUSH1 0x40 MSTORE SWAP1 DUP2 PUSH1 0x0 DUP3 ADD SLOAD DUP2 MSTORE PUSH1 0x20 ADD PUSH1 0x1 DUP3 ADD PUSH1 0x0 SWAP1 SLOAD SWAP1 PUSH2 0x100 EXP SWAP1 DIV PUSH20 0xFFFFFFFFFFFFFFFFFFFFFFFFFFFFFFFFFFFFFFFF AND PUSH20 0xFFFFFFFFFFFFFFFFFFFFFFFFFFFFFFFFFFFFFFFF AND PUSH20 0xFFFFFFFFFFFFFFFFFFFFFFFFFFFFFFFFFFFFFFFF AND DUP2 MSTORE PUSH1 0x20 ADD PUSH1 0x2 DUP3 ADD SLOAD DUP2 MSTORE PUSH1 0x20 ADD PUSH1 0x3 DUP3 ADD SLOAD DUP2 MSTORE PUSH1 0x20 ADD PUSH1 0x4 DUP3 ADD SLOAD DUP2 MSTORE PUSH1 0x20 ADD PUSH1 0x5 DUP3 ADD SLOAD DUP2 MSTORE PUSH1 0x20 ADD PUSH1 0x6 DUP3 ADD SLOAD DUP2 MSTORE PUSH1 0x20 ADD PUSH1 0x7 DUP3 ADD SLOAD DUP2 MSTORE POP POP SWAP1 POP PUSH1 0x0 DUP2 PUSH1 0xA0 ADD MLOAD SWAP1 POP PUSH1 0x1 DUP2 DUP5 SUB EQ PUSH2 0x2ADB JUMPI POP POP PUSH2 0x2FAB JUMP JUMPDEST PUSH1 0x60 PUSH1 0x8 PUSH1 0x0 SWAP1 SLOAD SWAP1 PUSH2 0x100 EXP SWAP1 DIV PUSH20 0xFFFFFFFFFFFFFFFFFFFFFFFFFFFFFFFFFFFFFFFF AND PUSH20 0xFFFFFFFFFFFFFFFFFFFFFFFFFFFFFFFFFFFFFFFF AND PUSH4 0x378AB9A9 DUP4 PUSH1 0x40 MLOAD DUP3 PUSH4 0xFFFFFFFF AND PUSH1 0xE0 SHL DUP2 MSTORE PUSH1 0x4 ADD PUSH2 0x2B38 SWAP2 SWAP1 PUSH2 0x51B0 JUMP JUMPDEST PUSH1 0x0 PUSH1 0x40 MLOAD DUP1 DUP4 SUB DUP2 DUP7 DUP1 EXTCODESIZE ISZERO DUP1 ISZERO PUSH2 0x2B50 JUMPI PUSH1 0x0 DUP1 REVERT JUMPDEST POP GAS STATICCALL ISZERO DUP1 ISZERO PUSH2 0x2B64 JUMPI RETURNDATASIZE PUSH1 0x0 DUP1 RETURNDATACOPY RETURNDATASIZE PUSH1 0x0 REVERT JUMPDEST POP POP POP POP PUSH1 0x40 MLOAD RETURNDATASIZE PUSH1 0x0 DUP3 RETURNDATACOPY RETURNDATASIZE PUSH1 0x1F NOT PUSH1 0x1F DUP3 ADD AND DUP3 ADD DUP1 PUSH1 0x40 MSTORE POP DUP2 ADD SWAP1 PUSH2 0x2B8D SWAP2 SWAP1 PUSH2 0x4154 JUMP JUMPDEST SWAP1 POP PUSH1 0x60 PUSH1 0x8 PUSH1 0x0 SWAP1 SLOAD SWAP1 PUSH2 0x100 EXP SWAP1 DIV PUSH20 0xFFFFFFFFFFFFFFFFFFFFFFFFFFFFFFFFFFFFFFFF AND PUSH20 0xFFFFFFFFFFFFFFFFFFFFFFFFFFFFFFFFFFFFFFFF AND PUSH4 0xD2A4669A DUP5 PUSH1 0x40 MLOAD DUP3 PUSH4 0xFFFFFFFF AND PUSH1 0xE0 SHL DUP2 MSTORE PUSH1 0x4 ADD PUSH2 0x2BEC SWAP2 SWAP1 PUSH2 0x51B0 JUMP JUMPDEST PUSH1 0x0 PUSH1 0x40 MLOAD DUP1 DUP4 SUB DUP2 DUP7 DUP1 EXTCODESIZE ISZERO DUP1 ISZERO PUSH2 0x2C04 JUMPI PUSH1 0x0 DUP1 REVERT JUMPDEST POP GAS STATICCALL ISZERO DUP1 ISZERO PUSH2 0x2C18 JUMPI RETURNDATASIZE PUSH1 0x0 DUP1 RETURNDATACOPY RETURNDATASIZE PUSH1 0x0 REVERT JUMPDEST POP POP POP POP PUSH1 0x40 MLOAD RETURNDATASIZE PUSH1 0x0 DUP3 RETURNDATACOPY RETURNDATASIZE PUSH1 0x1F NOT PUSH1 0x1F DUP3 ADD AND DUP3 ADD DUP1 PUSH1 0x40 MSTORE POP DUP2 ADD SWAP1 PUSH2 0x2C41 SWAP2 SWAP1 PUSH2 0x4154 JUMP JUMPDEST SWAP1 POP PUSH1 0x60 PUSH1 0x8 PUSH1 0x0 SWAP1 SLOAD SWAP1 PUSH2 0x100 EXP SWAP1 DIV PUSH20 0xFFFFFFFFFFFFFFFFFFFFFFFFFFFFFFFFFFFFFFFF AND PUSH20 0xFFFFFFFFFFFFFFFFFFFFFFFFFFFFFFFFFFFFFFFF AND PUSH4 0xFAE4425D DUP6 PUSH1 0x40 MLOAD DUP3 PUSH4 0xFFFFFFFF AND PUSH1 0xE0 SHL DUP2 MSTORE PUSH1 0x4 ADD PUSH2 0x2CA0 SWAP2 SWAP1 PUSH2 0x51B0 JUMP JUMPDEST PUSH1 0x0 PUSH1 0x40 MLOAD DUP1 DUP4 SUB DUP2 DUP7 DUP1 EXTCODESIZE ISZERO DUP1 ISZERO PUSH2 0x2CB8 JUMPI PUSH1 0x0 DUP1 REVERT JUMPDEST POP GAS STATICCALL ISZERO DUP1 ISZERO PUSH2 0x2CCC JUMPI RETURNDATASIZE PUSH1 0x0 DUP1 RETURNDATACOPY RETURNDATASIZE PUSH1 0x0 REVERT JUMPDEST POP POP POP POP PUSH1 0x40 MLOAD RETURNDATASIZE PUSH1 0x0 DUP3 RETURNDATACOPY RETURNDATASIZE PUSH1 0x1F NOT PUSH1 0x1F DUP3 ADD AND DUP3 ADD DUP1 PUSH1 0x40 MSTORE POP DUP2 ADD SWAP1 PUSH2 0x2CF5 SWAP2 SWAP1 PUSH2 0x4154 JUMP JUMPDEST SWAP1 POP PUSH1 0x0 DUP3 MLOAD GT ISZERO PUSH2 0x2FA5 JUMPI PUSH1 0x0 DUP1 SWAP1 POP PUSH1 0x0 DUP1 SWAP1 POP JUMPDEST DUP4 MLOAD DUP2 LT ISZERO PUSH2 0x2E4B JUMPI PUSH1 0x0 PUSH1 0x7 PUSH1 0x0 SWAP1 SLOAD SWAP1 PUSH2 0x100 EXP SWAP1 DIV PUSH20 0xFFFFFFFFFFFFFFFFFFFFFFFFFFFFFFFFFFFFFFFF AND PUSH20 0xFFFFFFFFFFFFFFFFFFFFFFFFFFFFFFFFFFFFFFFF AND PUSH4 0x8CE7FF4A DUP9 DUP11 PUSH1 0x0 ADD MLOAD DUP6 PUSH1 0x40 MLOAD DUP5 PUSH4 0xFFFFFFFF AND PUSH1 0xE0 SHL DUP2 MSTORE PUSH1 0x4 ADD PUSH2 0x2D7A SWAP4 SWAP3 SWAP2 SWAP1 PUSH2 0x5311 JUMP JUMPDEST PUSH1 0x40 DUP1 MLOAD DUP1 DUP4 SUB DUP2 DUP7 DUP1 EXTCODESIZE ISZERO DUP1 ISZERO PUSH2 0x2D91 JUMPI PUSH1 0x0 DUP1 REVERT JUMPDEST POP GAS STATICCALL ISZERO DUP1 ISZERO PUSH2 0x2DA5 JUMPI RETURNDATASIZE PUSH1 0x0 DUP1 RETURNDATACOPY RETURNDATASIZE PUSH1 0x0 REVERT JUMPDEST POP POP POP POP PUSH1 0x40 MLOAD RETURNDATASIZE PUSH1 0x1F NOT PUSH1 0x1F DUP3 ADD AND DUP3 ADD DUP1 PUSH1 0x40 MSTORE POP DUP2 ADD SWAP1 PUSH2 0x2DC9 SWAP2 SWAP1 PUSH2 0x42C9 JUMP JUMPDEST PUSH1 0x0 ADD MLOAD SWAP1 POP PUSH1 0x0 DUP7 DUP4 DUP2 MLOAD DUP2 LT PUSH2 0x2DDD JUMPI INVALID JUMPDEST PUSH1 0x20 MUL PUSH1 0x20 ADD ADD MLOAD SWAP1 POP PUSH1 0x0 DUP7 DUP5 DUP2 MLOAD DUP2 LT PUSH2 0x2DF5 JUMPI INVALID JUMPDEST PUSH1 0x20 MUL PUSH1 0x20 ADD ADD MLOAD SWAP1 POP PUSH1 0x0 DUP7 DUP6 DUP2 MLOAD DUP2 LT PUSH2 0x2E0D JUMPI INVALID JUMPDEST PUSH1 0x20 MUL PUSH1 0x20 ADD ADD MLOAD SWAP1 POP DUP3 DUP5 EQ DUP1 PUSH2 0x2E2E JUMPI POP DUP2 DUP5 GT DUP1 PUSH2 0x2E2D JUMPI POP DUP1 DUP5 LT JUMPDEST JUMPDEST ISZERO PUSH2 0x2E3A JUMPI PUSH1 0x1 DUP7 ADD SWAP6 POP JUMPDEST POP POP POP POP DUP1 DUP1 PUSH1 0x1 ADD SWAP2 POP POP PUSH2 0x2D0C JUMP JUMPDEST POP PUSH1 0x0 DUP4 MLOAD PUSH1 0x5 SLOAD MUL DUP3 PUSH1 0x4 SLOAD DUP10 PUSH1 0x40 ADD MLOAD MUL MUL DUP2 PUSH2 0x2E66 JUMPI INVALID JUMPDEST DIV SWAP1 POP PUSH1 0x0 DUP2 GT ISZERO PUSH2 0x2FA2 JUMPI PUSH1 0x0 PUSH1 0x5 SLOAD SWAP1 POP DUP8 PUSH1 0x40 ADD MLOAD PUSH1 0x5 SLOAD LT ISZERO PUSH2 0x2E8E JUMPI PUSH1 0x0 PUSH2 0x2EA8 JUMP JUMPDEST PUSH2 0x2EA7 DUP9 PUSH1 0x40 ADD MLOAD PUSH1 0x5 SLOAD PUSH2 0x317E SWAP1 SWAP2 SWAP1 PUSH4 0xFFFFFFFF AND JUMP JUMPDEST JUMPDEST PUSH1 0x5 DUP2 SWAP1 SSTORE POP PUSH32 0xEEE26D3C1E406E24904D3748E49DA85096C92AC1A6AD38F3FE8A404F85212DD1 DUP10 DUP3 PUSH1 0x5 SLOAD TIMESTAMP PUSH1 0x40 MLOAD PUSH2 0x2EE5 SWAP5 SWAP4 SWAP3 SWAP2 SWAP1 PUSH2 0x5348 JUMP JUMPDEST PUSH1 0x40 MLOAD DUP1 SWAP2 SUB SWAP1 LOG1 PUSH1 0x0 DUP3 DUP10 PUSH1 0x40 ADD MLOAD ADD SWAP1 POP PUSH1 0x0 PUSH1 0x4 SLOAD SWAP1 POP PUSH2 0x2F14 DUP5 PUSH1 0x4 SLOAD PUSH2 0x317E SWAP1 SWAP2 SWAP1 PUSH4 0xFFFFFFFF AND JUMP JUMPDEST PUSH1 0x4 DUP2 SWAP1 SSTORE POP PUSH32 0xF7157643FD549E213A0105625DA6B3BF58C86068CCB954A4449E18BF9427BFF4 DUP12 DUP3 PUSH1 0x4 SLOAD TIMESTAMP PUSH1 0x40 MLOAD PUSH2 0x2F51 SWAP5 SWAP4 SWAP3 SWAP2 SWAP1 PUSH2 0x5348 JUMP JUMPDEST PUSH1 0x40 MLOAD DUP1 SWAP2 SUB SWAP1 LOG1 PUSH2 0x2F9E DUP11 PUSH1 0x0 ADD MLOAD DUP4 PUSH1 0x40 MLOAD DUP1 PUSH1 0x40 ADD PUSH1 0x40 MSTORE DUP1 PUSH1 0xE DUP2 MSTORE PUSH1 0x20 ADD PUSH32 0x566F74696E672052657761726473000000000000000000000000000000000000 DUP2 MSTORE POP DUP15 PUSH2 0x3091 JUMP JUMPDEST POP POP POP JUMPDEST POP POP JUMPDEST POP POP POP POP POP JUMPDEST POP POP JUMP JUMPDEST PUSH1 0x2 PUSH1 0x20 MSTORE DUP1 PUSH1 0x0 MSTORE PUSH1 0x40 PUSH1 0x0 KECCAK256 PUSH1 0x0 SWAP2 POP SWAP1 POP DUP1 PUSH1 0x0 ADD SLOAD SWAP1 DUP1 PUSH1 0x1 ADD PUSH1 0x0 SWAP1 SLOAD SWAP1 PUSH2 0x100 EXP SWAP1 DIV PUSH20 0xFFFFFFFFFFFFFFFFFFFFFFFFFFFFFFFFFFFFFFFF AND SWAP1 DUP1 PUSH1 0x2 ADD SLOAD SWAP1 DUP1 PUSH1 0x3 ADD SLOAD SWAP1 DUP1 PUSH1 0x4 ADD SLOAD SWAP1 DUP1 PUSH1 0x5 ADD SLOAD SWAP1 DUP1 PUSH1 0x6 ADD SLOAD SWAP1 DUP1 PUSH1 0x7 ADD SLOAD SWAP1 POP DUP9 JUMP JUMPDEST PUSH1 0x0 PUSH2 0x303F DUP4 PUSH1 0x0 ADD DUP4 PUSH20 0xFFFFFFFFFFFFFFFFFFFFFFFFFFFFFFFFFFFFFFFF AND PUSH1 0x0 SHL PUSH2 0x388E JUMP JUMPDEST SWAP1 POP SWAP3 SWAP2 POP POP JUMP JUMPDEST PUSH1 0x0 PUSH2 0x3089 DUP4 DUP4 PUSH1 0x40 MLOAD DUP1 PUSH1 0x40 ADD PUSH1 0x40 MSTORE DUP1 PUSH1 0x1A DUP2 MSTORE PUSH1 0x20 ADD PUSH32 0x536166654D6174683A206469766973696F6E206279207A65726F000000000000 DUP2 MSTORE POP PUSH2 0x38FE JUMP JUMPDEST SWAP1 POP SWAP3 SWAP2 POP POP JUMP JUMPDEST PUSH1 0x0 PUSH1 0x2 PUSH1 0x0 DUP7 DUP2 MSTORE PUSH1 0x20 ADD SWAP1 DUP2 MSTORE PUSH1 0x20 ADD PUSH1 0x0 KECCAK256 PUSH1 0x2 ADD SLOAD SWAP1 POP DUP4 PUSH1 0x2 PUSH1 0x0 DUP8 DUP2 MSTORE PUSH1 0x20 ADD SWAP1 DUP2 MSTORE PUSH1 0x20 ADD PUSH1 0x0 KECCAK256 PUSH1 0x2 ADD DUP2 SWAP1 SSTORE POP DUP5 PUSH32 0xAB9982D99DE79485B3CD6D1E72C881FD0342F42F1CBC7D220D4F373B97C4F363 DUP3 DUP7 DUP7 DUP7 TIMESTAMP PUSH1 0x40 MLOAD PUSH2 0x30FF SWAP6 SWAP5 SWAP4 SWAP3 SWAP2 SWAP1 PUSH2 0x52B7 JUMP JUMPDEST PUSH1 0x40 MLOAD DUP1 SWAP2 SUB SWAP1 LOG2 POP POP POP POP POP JUMP JUMPDEST PUSH1 0x0 DUP1 DUP4 EQ ISZERO PUSH2 0x3121 JUMPI PUSH1 0x0 SWAP1 POP PUSH2 0x3178 JUMP JUMPDEST PUSH1 0x0 DUP3 DUP5 MUL SWAP1 POP DUP3 DUP5 DUP3 DUP2 PUSH2 0x3132 JUMPI INVALID JUMPDEST DIV EQ PUSH2 0x3173 JUMPI PUSH1 0x40 MLOAD PUSH32 0x8C379A000000000000000000000000000000000000000000000000000000000 DUP2 MSTORE PUSH1 0x4 ADD PUSH2 0x316A SWAP1 PUSH2 0x4FD4 JUMP JUMPDEST PUSH1 0x40 MLOAD DUP1 SWAP2 SUB SWAP1 REVERT JUMPDEST DUP1 SWAP2 POP POP JUMPDEST SWAP3 SWAP2 POP POP JUMP JUMPDEST PUSH1 0x0 PUSH2 0x31C0 DUP4 DUP4 PUSH1 0x40 MLOAD DUP1 PUSH1 0x40 ADD PUSH1 0x40 MSTORE DUP1 PUSH1 0x1E DUP2 MSTORE PUSH1 0x20 ADD PUSH32 0x536166654D6174683A207375627472616374696F6E206F766572666C6F770000 DUP2 MSTORE POP PUSH2 0x395F JUMP JUMPDEST SWAP1 POP SWAP3 SWAP2 POP POP JUMP JUMPDEST PUSH1 0x0 DUP1 DUP3 DUP5 ADD SWAP1 POP DUP4 DUP2 LT ISZERO PUSH2 0x3213 JUMPI PUSH1 0x40 MLOAD PUSH32 0x8C379A000000000000000000000000000000000000000000000000000000000 DUP2 MSTORE PUSH1 0x4 ADD PUSH2 0x320A SWAP1 PUSH2 0x4F14 JUMP JUMPDEST PUSH1 0x40 MLOAD DUP1 SWAP2 SUB SWAP1 REVERT JUMPDEST DUP1 SWAP2 POP POP SWAP3 SWAP2 POP POP JUMP JUMPDEST PUSH2 0x3227 DUP3 DUP3 PUSH2 0x39BA JUMP JUMPDEST PUSH1 0x0 PUSH1 0x2 PUSH1 0x0 DUP5 DUP2 MSTORE PUSH1 0x20 ADD SWAP1 DUP2 MSTORE PUSH1 0x20 ADD PUSH1 0x0 KECCAK256 SWAP1 POP PUSH1 0x0 DUP2 PUSH1 0x2 ADD SLOAD SWAP1 POP PUSH1 0x0 DUP3 PUSH1 0x5 ADD SLOAD SWAP1 POP PUSH2 0x3258 PUSH2 0x3DAF JUMP JUMPDEST PUSH1 0x8 PUSH1 0x0 SWAP1 SLOAD SWAP1 PUSH2 0x100 EXP SWAP1 DIV PUSH20 0xFFFFFFFFFFFFFFFFFFFFFFFFFFFFFFFFFFFFFFFF AND PUSH20 0xFFFFFFFFFFFFFFFFFFFFFFFFFFFFFFFFFFFFFFFF AND PUSH4 0x4C07569 DUP4 PUSH1 0x40 MLOAD DUP3 PUSH4 0xFFFFFFFF AND PUSH1 0xE0 SHL DUP2 MSTORE PUSH1 0x4 ADD PUSH2 0x32B3 SWAP2 SWAP1 PUSH2 0x51B0 JUMP JUMPDEST PUSH1 0x0 PUSH1 0x40 MLOAD DUP1 DUP4 SUB DUP2 DUP7 DUP1 EXTCODESIZE ISZERO DUP1 ISZERO PUSH2 0x32CB JUMPI PUSH1 0x0 DUP1 REVERT JUMPDEST POP GAS STATICCALL ISZERO DUP1 ISZERO PUSH2 0x32DF JUMPI RETURNDATASIZE PUSH1 0x0 DUP1 RETURNDATACOPY RETURNDATASIZE PUSH1 0x0 REVERT JUMPDEST POP POP POP POP PUSH1 0x40 MLOAD RETURNDATASIZE PUSH1 0x0 DUP3 RETURNDATACOPY RETURNDATASIZE PUSH1 0x1F NOT PUSH1 0x1F DUP3 ADD AND DUP3 ADD DUP1 PUSH1 0x40 MSTORE POP DUP2 ADD SWAP1 PUSH2 0x3308 SWAP2 SWAP1 PUSH2 0x4288 JUMP JUMPDEST SWAP1 POP PUSH1 0x60 DUP2 PUSH1 0x60 ADD MLOAD SWAP1 POP PUSH1 0x60 DUP3 PUSH1 0x80 ADD MLOAD SWAP1 POP PUSH1 0x60 DUP4 PUSH1 0x40 ADD MLOAD SWAP1 POP PUSH1 0x0 DUP4 MLOAD GT ISZERO PUSH2 0x3630 JUMPI PUSH1 0x0 DUP1 SWAP1 POP PUSH1 0x0 DUP1 SWAP1 POP JUMPDEST DUP5 MLOAD DUP2 LT ISZERO PUSH2 0x34F2 JUMPI PUSH1 0x0 PUSH1 0x7 PUSH1 0x0 SWAP1 SLOAD SWAP1 PUSH2 0x100 EXP SWAP1 DIV PUSH20 0xFFFFFFFFFFFFFFFFFFFFFFFFFFFFFFFFFFFFFFFF AND PUSH20 0xFFFFFFFFFFFFFFFFFFFFFFFFFFFFFFFFFFFFFFFF AND PUSH4 0x8CE7FF4A DUP10 DUP13 PUSH1 0x0 ADD SLOAD DUP6 PUSH1 0x40 MLOAD DUP5 PUSH4 0xFFFFFFFF AND PUSH1 0xE0 SHL DUP2 MSTORE PUSH1 0x4 ADD PUSH2 0x33A8 SWAP4 SWAP3 SWAP2 SWAP1 PUSH2 0x5311 JUMP JUMPDEST PUSH1 0x40 DUP1 MLOAD DUP1 DUP4 SUB DUP2 DUP7 DUP1 EXTCODESIZE ISZERO DUP1 ISZERO PUSH2 0x33BF JUMPI PUSH1 0x0 DUP1 REVERT JUMPDEST POP GAS STATICCALL ISZERO DUP1 ISZERO PUSH2 0x33D3 JUMPI RETURNDATASIZE PUSH1 0x0 DUP1 RETURNDATACOPY RETURNDATASIZE PUSH1 0x0 REVERT JUMPDEST POP POP POP POP PUSH1 0x40 MLOAD RETURNDATASIZE PUSH1 0x1F NOT PUSH1 0x1F DUP3 ADD AND DUP3 ADD DUP1 PUSH1 0x40 MSTORE POP DUP2 ADD SWAP1 PUSH2 0x33F7 SWAP2 SWAP1 PUSH2 0x42C9 JUMP JUMPDEST PUSH1 0x0 ADD MLOAD SWAP1 POP PUSH1 0x0 DUP7 DUP4 DUP2 MLOAD DUP2 LT PUSH2 0x340B JUMPI INVALID JUMPDEST PUSH1 0x20 MUL PUSH1 0x20 ADD ADD MLOAD SWAP1 POP PUSH1 0x0 DUP7 DUP5 DUP2 MLOAD DUP2 LT PUSH2 0x3423 JUMPI INVALID JUMPDEST PUSH1 0x20 MUL PUSH1 0x20 ADD ADD MLOAD SWAP1 POP PUSH1 0x0 DUP7 DUP6 DUP2 MLOAD DUP2 LT PUSH2 0x343B JUMPI INVALID JUMPDEST PUSH1 0x20 MUL PUSH1 0x20 ADD ADD MLOAD SWAP1 POP DUP3 DUP5 LT DUP1 PUSH2 0x3452 JUMPI POP DUP2 DUP5 GT JUMPDEST ISZERO PUSH2 0x34E1 JUMPI PUSH20 0x0 PUSH4 0x3002C9AC PUSH1 0x40 MLOAD DUP2 PUSH4 0xFFFFFFFF AND PUSH1 0xE0 SHL DUP2 MSTORE PUSH1 0x4 ADD PUSH1 0x20 PUSH1 0x40 MLOAD DUP1 DUP4 SUB DUP2 DUP7 DUP1 EXTCODESIZE ISZERO DUP1 ISZERO PUSH2 0x349B JUMPI PUSH1 0x0 DUP1 REVERT JUMPDEST POP GAS DELEGATECALL ISZERO DUP1 ISZERO PUSH2 0x34AF JUMPI RETURNDATASIZE PUSH1 0x0 DUP1 RETURNDATACOPY RETURNDATASIZE PUSH1 0x0 REVERT JUMPDEST POP POP POP POP PUSH1 0x40 MLOAD RETURNDATASIZE PUSH1 0x1F NOT PUSH1 0x1F DUP3 ADD AND DUP3 ADD DUP1 PUSH1 0x40 MSTORE POP DUP2 ADD SWAP1 PUSH2 0x34D3 SWAP2 SWAP1 PUSH2 0x431B JUMP JUMPDEST DUP13 DUP2 PUSH2 0x34DB JUMPI INVALID JUMPDEST DIV DUP7 ADD SWAP6 POP JUMPDEST POP POP POP POP DUP1 DUP1 PUSH1 0x1 ADD SWAP2 POP POP PUSH2 0x333A JUMP JUMPDEST POP PUSH1 0x0 DUP2 GT ISZERO PUSH2 0x35CB JUMPI DUP7 DUP2 GT PUSH2 0x3509 JUMPI DUP1 PUSH2 0x350B JUMP JUMPDEST DUP7 JUMPDEST SWAP1 POP PUSH2 0x3564 DUP9 PUSH1 0x0 ADD SLOAD PUSH2 0x3528 DUP4 DUP11 PUSH2 0x317E SWAP1 SWAP2 SWAP1 PUSH4 0xFFFFFFFF AND JUMP JUMPDEST PUSH1 0x40 MLOAD DUP1 PUSH1 0x40 ADD PUSH1 0x40 MSTORE DUP1 PUSH1 0xE DUP2 MSTORE PUSH1 0x20 ADD PUSH32 0x566F74696E672050656E616C7479000000000000000000000000000000000000 DUP2 MSTORE POP DUP13 PUSH2 0x3091 JUMP JUMPDEST PUSH1 0x0 PUSH1 0x4 SLOAD SWAP1 POP PUSH2 0x3580 DUP3 PUSH1 0x4 SLOAD PUSH2 0x31C8 SWAP1 SWAP2 SWAP1 PUSH4 0xFFFFFFFF AND JUMP JUMPDEST PUSH1 0x4 DUP2 SWAP1 SSTORE POP PUSH32 0xF7157643FD549E213A0105625DA6B3BF58C86068CCB954A4449E18BF9427BFF4 DUP11 DUP3 PUSH1 0x4 SLOAD TIMESTAMP PUSH1 0x40 MLOAD PUSH2 0x35BD SWAP5 SWAP4 SWAP3 SWAP2 SWAP1 PUSH2 0x5348 JUMP JUMPDEST PUSH1 0x40 MLOAD DUP1 SWAP2 SUB SWAP1 LOG1 POP PUSH2 0x362E JUMP JUMPDEST PUSH1 0x0 PUSH1 0x5 SLOAD SWAP1 POP PUSH2 0x35E7 DUP9 PUSH1 0x5 SLOAD PUSH2 0x31C8 SWAP1 SWAP2 SWAP1 PUSH4 0xFFFFFFFF AND JUMP JUMPDEST PUSH1 0x5 DUP2 SWAP1 SSTORE POP PUSH32 0xEEE26D3C1E406E24904D3748E49DA85096C92AC1A6AD38F3FE8A404F85212DD1 DUP11 DUP3 PUSH1 0x5 SLOAD TIMESTAMP PUSH1 0x40 MLOAD PUSH2 0x3624 SWAP5 SWAP4 SWAP3 SWAP2 SWAP1 PUSH2 0x5348 JUMP JUMPDEST PUSH1 0x40 MLOAD DUP1 SWAP2 SUB SWAP1 LOG1 POP JUMPDEST POP JUMPDEST POP POP POP POP POP POP POP POP POP JUMP JUMPDEST PUSH1 0x0 CALLER SWAP1 POP SWAP1 JUMP JUMPDEST PUSH2 0x366A DUP2 PUSH1 0x0 DUP1 DUP6 DUP2 MSTORE PUSH1 0x20 ADD SWAP1 DUP2 MSTORE PUSH1 0x20 ADD PUSH1 0x0 KECCAK256 PUSH1 0x0 ADD PUSH2 0x3017 SWAP1 SWAP2 SWAP1 PUSH4 0xFFFFFFFF AND JUMP JUMPDEST ISZERO PUSH2 0x36D2 JUMPI PUSH2 0x3677 PUSH2 0x363B JUMP JUMPDEST PUSH20 0xFFFFFFFFFFFFFFFFFFFFFFFFFFFFFFFFFFFFFFFF AND DUP2 PUSH20 0xFFFFFFFFFFFFFFFFFFFFFFFFFFFFFFFFFFFFFFFF AND DUP4 PUSH32 0x2F8788117E7EFF1D82E926EC794901D17C78024A50270940304540A733656F0D PUSH1 0x40 MLOAD PUSH1 0x40 MLOAD DUP1 SWAP2 SUB SWAP1 LOG4 JUMPDEST POP POP JUMP JUMPDEST PUSH2 0x36FD DUP2 PUSH1 0x0 DUP1 DUP6 DUP2 MSTORE PUSH1 0x20 ADD SWAP1 DUP2 MSTORE PUSH1 0x20 ADD PUSH1 0x0 KECCAK256 PUSH1 0x0 ADD PUSH2 0x3B9B SWAP1 SWAP2 SWAP1 PUSH4 0xFFFFFFFF AND JUMP JUMPDEST ISZERO PUSH2 0x3765 JUMPI PUSH2 0x370A PUSH2 0x363B JUMP JUMPDEST PUSH20 0xFFFFFFFFFFFFFFFFFFFFFFFFFFFFFFFFFFFFFFFF AND DUP2 PUSH20 0xFFFFFFFFFFFFFFFFFFFFFFFFFFFFFFFFFFFFFFFF AND DUP4 PUSH32 0xF6391F5C32D9C69D2A47EA670B442974B53935D1EDC7FD64EB21E047A839171B PUSH1 0x40 MLOAD PUSH1 0x40 MLOAD DUP1 SWAP2 SUB SWAP1 LOG4 JUMPDEST POP POP JUMP JUMPDEST PUSH1 0x0 PUSH2 0x3778 DUP4 PUSH1 0x0 ADD DUP4 PUSH2 0x3BCB JUMP JUMPDEST PUSH1 0x0 SHR SWAP1 POP SWAP3 SWAP2 POP POP JUMP JUMPDEST PUSH1 0x0 PUSH2 0x37AB DUP4 PUSH1 0x0 ADD DUP4 PUSH20 0xFFFFFFFFFFFFFFFFFFFFFFFFFFFFFFFFFFFFFFFF AND PUSH1 0x0 SHL PUSH2 0x3C38 JUMP JUMPDEST SWAP1 POP SWAP3 SWAP2 POP POP JUMP JUMPDEST PUSH1 0x0 PUSH2 0x37C1 DUP3 PUSH1 0x0 ADD PUSH2 0x3C5B JUMP JUMPDEST SWAP1 POP SWAP2 SWAP1 POP JUMP JUMPDEST PUSH2 0x37E5 PUSH1 0x40 MLOAD PUSH2 0x37D7 SWAP1 PUSH2 0x4D37 JUMP JUMPDEST PUSH1 0x40 MLOAD DUP1 SWAP2 SUB SWAP1 KECCAK256 DUP3 PUSH2 0x17F0 JUMP JUMPDEST DUP1 PUSH20 0xFFFFFFFFFFFFFFFFFFFFFFFFFFFFFFFFFFFFFFFF AND PUSH32 0x6FF3AA2EA7B53070F6D9D07A445D338D89E8EDEF44250FFA8BE19F53910D4A2E PUSH1 0x40 MLOAD PUSH1 0x40 MLOAD DUP1 SWAP2 SUB SWAP1 LOG2 POP JUMP JUMPDEST PUSH2 0x3848 PUSH1 0x40 MLOAD PUSH2 0x383A SWAP1 PUSH2 0x4D37 JUMP JUMPDEST PUSH1 0x40 MLOAD DUP1 SWAP2 SUB SWAP1 KECCAK256 DUP3 PUSH2 0x1863 JUMP JUMPDEST DUP1 PUSH20 0xFFFFFFFFFFFFFFFFFFFFFFFFFFFFFFFFFFFFFFFF AND PUSH32 0x86E5BBCEDA94081C32220D685F37CC4E3EA7BB0BE2DFBF0CB703579505A5390E PUSH1 0x40 MLOAD PUSH1 0x40 MLOAD DUP1 SWAP2 SUB SWAP1 LOG2 POP JUMP JUMPDEST PUSH1 0x0 PUSH2 0x389A DUP4 DUP4 PUSH2 0x3C38 JUMP JUMPDEST PUSH2 0x38F3 JUMPI DUP3 PUSH1 0x0 ADD DUP3 SWAP1 DUP1 PUSH1 0x1 DUP2 SLOAD ADD DUP1 DUP3 SSTORE DUP1 SWAP2 POP POP PUSH1 0x1 SWAP1 SUB SWAP1 PUSH1 0x0 MSTORE PUSH1 0x20 PUSH1 0x0 KECCAK256 ADD PUSH1 0x0 SWAP1 SWAP2 SWAP1 SWAP2 SWAP1 SWAP2 POP SSTORE DUP3 PUSH1 0x0 ADD DUP1 SLOAD SWAP1 POP DUP4 PUSH1 0x1 ADD PUSH1 0x0 DUP5 DUP2 MSTORE PUSH1 0x20 ADD SWAP1 DUP2 MSTORE PUSH1 0x20 ADD PUSH1 0x0 KECCAK256 DUP2 SWAP1 SSTORE POP PUSH1 0x1 SWAP1 POP PUSH2 0x38F8 JUMP JUMPDEST PUSH1 0x0 SWAP1 POP JUMPDEST SWAP3 SWAP2 POP POP JUMP JUMPDEST PUSH1 0x0 DUP1 DUP4 GT DUP3 SWAP1 PUSH2 0x3945 JUMPI PUSH1 0x40 MLOAD PUSH32 0x8C379A000000000000000000000000000000000000000000000000000000000 DUP2 MSTORE PUSH1 0x4 ADD PUSH2 0x393C SWAP2 SWAP1 PUSH2 0x4E92 JUMP JUMPDEST PUSH1 0x40 MLOAD DUP1 SWAP2 SUB SWAP1 REVERT JUMPDEST POP PUSH1 0x0 DUP4 DUP6 DUP2 PUSH2 0x3951 JUMPI INVALID JUMPDEST DIV SWAP1 POP DUP1 SWAP2 POP POP SWAP4 SWAP3 POP POP POP JUMP JUMPDEST PUSH1 0x0 DUP4 DUP4 GT ISZERO DUP3 SWAP1 PUSH2 0x39A7 JUMPI PUSH1 0x40 MLOAD PUSH32 0x8C379A000000000000000000000000000000000000000000000000000000000 DUP2 MSTORE PUSH1 0x4 ADD PUSH2 0x399E SWAP2 SWAP1 PUSH2 0x4E92 JUMP JUMPDEST PUSH1 0x40 MLOAD DUP1 SWAP2 SUB SWAP1 REVERT JUMPDEST POP PUSH1 0x0 DUP4 DUP6 SUB SWAP1 POP DUP1 SWAP2 POP POP SWAP4 SWAP3 POP POP POP JUMP JUMPDEST PUSH2 0x39C2 PUSH2 0x3D54 JUMP JUMPDEST PUSH1 0x2 PUSH1 0x0 DUP5 DUP2 MSTORE PUSH1 0x20 ADD SWAP1 DUP2 MSTORE PUSH1 0x20 ADD PUSH1 0x0 KECCAK256 PUSH1 0x40 MLOAD DUP1 PUSH2 0x100 ADD PUSH1 0x40 MSTORE SWAP1 DUP2 PUSH1 0x0 DUP3 ADD SLOAD DUP2 MSTORE PUSH1 0x20 ADD PUSH1 0x1 DUP3 ADD PUSH1 0x0 SWAP1 SLOAD SWAP1 PUSH2 0x100 EXP SWAP1 DIV PUSH20 0xFFFFFFFFFFFFFFFFFFFFFFFFFFFFFFFFFFFFFFFF AND PUSH20 0xFFFFFFFFFFFFFFFFFFFFFFFFFFFFFFFFFFFFFFFF AND PUSH20 0xFFFFFFFFFFFFFFFFFFFFFFFFFFFFFFFFFFFFFFFF AND DUP2 MSTORE PUSH1 0x20 ADD PUSH1 0x2 DUP3 ADD SLOAD DUP2 MSTORE PUSH1 0x20 ADD PUSH1 0x3 DUP3 ADD SLOAD DUP2 MSTORE PUSH1 0x20 ADD PUSH1 0x4 DUP3 ADD SLOAD DUP2 MSTORE PUSH1 0x20 ADD PUSH1 0x5 DUP3 ADD SLOAD DUP2 MSTORE PUSH1 0x20 ADD PUSH1 0x6 DUP3 ADD SLOAD DUP2 MSTORE PUSH1 0x20 ADD PUSH1 0x7 DUP3 ADD SLOAD DUP2 MSTORE POP POP SWAP1 POP PUSH1 0x0 DUP2 PUSH1 0xA0 ADD MLOAD DUP3 PUSH1 0x60 ADD MLOAD LT PUSH2 0x3A9A JUMPI DUP2 PUSH1 0x60 ADD MLOAD PUSH2 0x3AA0 JUMP JUMPDEST DUP2 PUSH1 0xA0 ADD MLOAD JUMPDEST SWAP1 POP PUSH1 0x0 PUSH2 0x3AB7 DUP3 DUP6 PUSH2 0x317E SWAP1 SWAP2 SWAP1 PUSH4 0xFFFFFFFF AND JUMP JUMPDEST SWAP1 POP PUSH1 0x0 DUP4 PUSH1 0x40 ADD MLOAD SWAP1 POP PUSH1 0x0 PUSH2 0x3ACE DUP4 DUP4 PUSH2 0xAD5 JUMP JUMPDEST SWAP1 POP DUP2 DUP2 LT ISZERO PUSH2 0x3B92 JUMPI PUSH2 0x3B1D DUP6 PUSH1 0x0 ADD MLOAD DUP3 PUSH1 0x40 MLOAD DUP1 PUSH1 0x40 ADD PUSH1 0x40 MSTORE DUP1 PUSH1 0x12 DUP2 MSTORE PUSH1 0x20 ADD PUSH32 0x496E61637469766974792050656E616C74790000000000000000000000000000 DUP2 MSTORE POP DUP10 PUSH2 0x3091 JUMP JUMPDEST PUSH1 0x0 PUSH1 0x4 SLOAD SWAP1 POP PUSH2 0x3B4B PUSH2 0x3B3A DUP4 DUP6 PUSH2 0x317E SWAP1 SWAP2 SWAP1 PUSH4 0xFFFFFFFF AND JUMP JUMPDEST PUSH1 0x4 SLOAD PUSH2 0x31C8 SWAP1 SWAP2 SWAP1 PUSH4 0xFFFFFFFF AND JUMP JUMPDEST PUSH1 0x4 DUP2 SWAP1 SSTORE POP PUSH32 0xF7157643FD549E213A0105625DA6B3BF58C86068CCB954A4449E18BF9427BFF4 DUP8 DUP3 PUSH1 0x4 SLOAD TIMESTAMP PUSH1 0x40 MLOAD PUSH2 0x3B88 SWAP5 SWAP4 SWAP3 SWAP2 SWAP1 PUSH2 0x5348 JUMP JUMPDEST PUSH1 0x40 MLOAD DUP1 SWAP2 SUB SWAP1 LOG1 POP JUMPDEST POP POP POP POP POP POP POP JUMP JUMPDEST PUSH1 0x0 PUSH2 0x3BC3 DUP4 PUSH1 0x0 ADD DUP4 PUSH20 0xFFFFFFFFFFFFFFFFFFFFFFFFFFFFFFFFFFFFFFFF AND PUSH1 0x0 SHL PUSH2 0x3C6C JUMP JUMPDEST SWAP1 POP SWAP3 SWAP2 POP POP JUMP JUMPDEST PUSH1 0x0 DUP2 DUP4 PUSH1 0x0 ADD DUP1 SLOAD SWAP1 POP GT PUSH2 0x3C16 JUMPI PUSH1 0x40 MLOAD PUSH32 0x8C379A000000000000000000000000000000000000000000000000000000000 DUP2 MSTORE PUSH1 0x4 ADD PUSH2 0x3C0D SWAP1 PUSH2 0x4EB4 JUMP JUMPDEST PUSH1 0x40 MLOAD DUP1 SWAP2 SUB SWAP1 REVERT JUMPDEST DUP3 PUSH1 0x0 ADD DUP3 DUP2 SLOAD DUP2 LT PUSH2 0x3C25 JUMPI INVALID JUMPDEST SWAP1 PUSH1 0x0 MSTORE PUSH1 0x20 PUSH1 0x0 KECCAK256 ADD SLOAD SWAP1 POP SWAP3 SWAP2 POP POP JUMP JUMPDEST PUSH1 0x0 DUP1 DUP4 PUSH1 0x1 ADD PUSH1 0x0 DUP5 DUP2 MSTORE PUSH1 0x20 ADD SWAP1 DUP2 MSTORE PUSH1 0x20 ADD PUSH1 0x0 KECCAK256 SLOAD EQ ISZERO SWAP1 POP SWAP3 SWAP2 POP POP JUMP JUMPDEST PUSH1 0x0 DUP2 PUSH1 0x0 ADD DUP1 SLOAD SWAP1 POP SWAP1 POP SWAP2 SWAP1 POP JUMP JUMPDEST PUSH1 0x0 DUP1 DUP4 PUSH1 0x1 ADD PUSH1 0x0 DUP5 DUP2 MSTORE PUSH1 0x20 ADD SWAP1 DUP2 MSTORE PUSH1 0x20 ADD PUSH1 0x0 KECCAK256 SLOAD SWAP1 POP PUSH1 0x0 DUP2 EQ PUSH2 0x3D48 JUMPI PUSH1 0x0 PUSH1 0x1 DUP3 SUB SWAP1 POP PUSH1 0x0 PUSH1 0x1 DUP7 PUSH1 0x0 ADD DUP1 SLOAD SWAP1 POP SUB SWAP1 POP PUSH1 0x0 DUP7 PUSH1 0x0 ADD DUP3 DUP2 SLOAD DUP2 LT PUSH2 0x3CB7 JUMPI INVALID JUMPDEST SWAP1 PUSH1 0x0 MSTORE PUSH1 0x20 PUSH1 0x0 KECCAK256 ADD SLOAD SWAP1 POP DUP1 DUP8 PUSH1 0x0 ADD DUP5 DUP2 SLOAD DUP2 LT PUSH2 0x3CD4 JUMPI INVALID JUMPDEST SWAP1 PUSH1 0x0 MSTORE PUSH1 0x20 PUSH1 0x0 KECCAK256 ADD DUP2 SWAP1 SSTORE POP PUSH1 0x1 DUP4 ADD DUP8 PUSH1 0x1 ADD PUSH1 0x0 DUP4 DUP2 MSTORE PUSH1 0x20 ADD SWAP1 DUP2 MSTORE PUSH1 0x20 ADD PUSH1 0x0 KECCAK256 DUP2 SWAP1 SSTORE POP DUP7 PUSH1 0x0 ADD DUP1 SLOAD DUP1 PUSH2 0x3D0C JUMPI INVALID JUMPDEST PUSH1 0x1 SWAP1 SUB DUP2 DUP2 SWAP1 PUSH1 0x0 MSTORE PUSH1 0x20 PUSH1 0x0 KECCAK256 ADD PUSH1 0x0 SWAP1 SSTORE SWAP1 SSTORE DUP7 PUSH1 0x1 ADD PUSH1 0x0 DUP8 DUP2 MSTORE PUSH1 0x20 ADD SWAP1 DUP2 MSTORE PUSH1 0x20 ADD PUSH1 0x0 KECCAK256 PUSH1 0x0 SWAP1 SSTORE PUSH1 0x1 SWAP5 POP POP POP POP POP PUSH2 0x3D4E JUMP JUMPDEST PUSH1 0x0 SWAP2 POP POP JUMPDEST SWAP3 SWAP2 POP POP JUMP JUMPDEST PUSH1 0x40 MLOAD DUP1 PUSH2 0x100 ADD PUSH1 0x40 MSTORE DUP1 PUSH1 0x0 DUP2 MSTORE PUSH1 0x20 ADD PUSH1 0x0 PUSH20 0xFFFFFFFFFFFFFFFFFFFFFFFFFFFFFFFFFFFFFFFF AND DUP2 MSTORE PUSH1 0x20 ADD PUSH1 0x0 DUP2 MSTORE PUSH1 0x20 ADD PUSH1 0x0 DUP2 MSTORE PUSH1 0x20 ADD PUSH1 0x0 DUP2 MSTORE PUSH1 0x20 ADD PUSH1 0x0 DUP2 MSTORE PUSH1 0x20 ADD PUSH1 0x0 DUP2 MSTORE PUSH1 0x20 ADD PUSH1 0x0 DUP2 MSTORE POP SWAP1 JUMP JUMPDEST PUSH1 0x40 MLOAD DUP1 PUSH2 0x100 ADD PUSH1 0x40 MSTORE DUP1 PUSH1 0x0 DUP2 MSTORE PUSH1 0x20 ADD PUSH1 0x60 DUP2 MSTORE PUSH1 0x20 ADD PUSH1 0x60 DUP2 MSTORE PUSH1 0x20 ADD PUSH1 0x60 DUP2 MSTORE PUSH1 0x20 ADD PUSH1 0x60 DUP2 MSTORE PUSH1 0x20 ADD PUSH1 0x0 DUP2 MSTORE PUSH1 0x20 ADD PUSH1 0x0 DUP2 MSTORE PUSH1 0x20 ADD PUSH1 0x0 ISZERO ISZERO DUP2 MSTORE POP SWAP1 JUMP JUMPDEST PUSH1 0x0 DUP2 CALLDATALOAD SWAP1 POP PUSH2 0x3E05 DUP2 PUSH2 0x5584 JUMP JUMPDEST SWAP3 SWAP2 POP POP JUMP JUMPDEST PUSH1 0x0 DUP3 PUSH1 0x1F DUP4 ADD SLT PUSH2 0x3E1C JUMPI PUSH1 0x0 DUP1 REVERT JUMPDEST DUP2 MLOAD PUSH2 0x3E2F PUSH2 0x3E2A DUP3 PUSH2 0x53BA JUMP JUMPDEST PUSH2 0x538D JUMP JUMPDEST SWAP2 POP DUP2 DUP2 DUP4 MSTORE PUSH1 0x20 DUP5 ADD SWAP4 POP PUSH1 0x20 DUP2 ADD SWAP1 POP DUP4 DUP6 PUSH1 0x20 DUP5 MUL DUP3 ADD GT ISZERO PUSH2 0x3E54 JUMPI PUSH1 0x0 DUP1 REVERT JUMPDEST PUSH1 0x0 JUMPDEST DUP4 DUP2 LT ISZERO PUSH2 0x3E84 JUMPI DUP2 PUSH2 0x3E6A DUP9 DUP3 PUSH2 0x409E JUMP JUMPDEST DUP5 MSTORE PUSH1 0x20 DUP5 ADD SWAP4 POP PUSH1 0x20 DUP4 ADD SWAP3 POP POP PUSH1 0x1 DUP2 ADD SWAP1 POP PUSH2 0x3E57 JUMP JUMPDEST POP POP POP POP SWAP3 SWAP2 POP POP JUMP JUMPDEST PUSH1 0x0 DUP2 MLOAD SWAP1 POP PUSH2 0x3E9D DUP2 PUSH2 0x559B JUMP JUMPDEST SWAP3 SWAP2 POP POP JUMP JUMPDEST PUSH1 0x0 DUP2 CALLDATALOAD SWAP1 POP PUSH2 0x3EB2 DUP2 PUSH2 0x55B2 JUMP JUMPDEST SWAP3 SWAP2 POP POP JUMP JUMPDEST PUSH1 0x0 DUP2 MLOAD SWAP1 POP PUSH2 0x3EC7 DUP2 PUSH2 0x55B2 JUMP JUMPDEST SWAP3 SWAP2 POP POP JUMP JUMPDEST PUSH1 0x0 DUP1 DUP4 PUSH1 0x1F DUP5 ADD SLT PUSH2 0x3EDF JUMPI PUSH1 0x0 DUP1 REVERT JUMPDEST DUP3 CALLDATALOAD SWAP1 POP PUSH8 0xFFFFFFFFFFFFFFFF DUP2 GT ISZERO PUSH2 0x3EF8 JUMPI PUSH1 0x0 DUP1 REVERT JUMPDEST PUSH1 0x20 DUP4 ADD SWAP2 POP DUP4 PUSH1 0x1 DUP3 MUL DUP4 ADD GT ISZERO PUSH2 0x3F10 JUMPI PUSH1 0x0 DUP1 REVERT JUMPDEST SWAP3 POP SWAP3 SWAP1 POP JUMP JUMPDEST PUSH1 0x0 PUSH2 0x100 DUP3 DUP5 SUB SLT ISZERO PUSH2 0x3F2A JUMPI PUSH1 0x0 DUP1 REVERT JUMPDEST PUSH2 0x3F35 PUSH2 0x100 PUSH2 0x538D JUMP JUMPDEST SWAP1 POP PUSH1 0x0 PUSH2 0x3F45 DUP5 DUP3 DUP6 ADD PUSH2 0x409E JUMP JUMPDEST PUSH1 0x0 DUP4 ADD MSTORE POP PUSH1 0x20 DUP3 ADD MLOAD PUSH8 0xFFFFFFFFFFFFFFFF DUP2 GT ISZERO PUSH2 0x3F65 JUMPI PUSH1 0x0 DUP1 REVERT JUMPDEST PUSH2 0x3F71 DUP5 DUP3 DUP6 ADD PUSH2 0x3E0B JUMP JUMPDEST PUSH1 0x20 DUP4 ADD MSTORE POP PUSH1 0x40 DUP3 ADD MLOAD PUSH8 0xFFFFFFFFFFFFFFFF DUP2 GT ISZERO PUSH2 0x3F91 JUMPI PUSH1 0x0 DUP1 REVERT JUMPDEST PUSH2 0x3F9D DUP5 DUP3 DUP6 ADD PUSH2 0x3E0B JUMP JUMPDEST PUSH1 0x40 DUP4 ADD MSTORE POP PUSH1 0x60 DUP3 ADD MLOAD PUSH8 0xFFFFFFFFFFFFFFFF DUP2 GT ISZERO PUSH2 0x3FBD JUMPI PUSH1 0x0 DUP1 REVERT JUMPDEST PUSH2 0x3FC9 DUP5 DUP3 DUP6 ADD PUSH2 0x3E0B JUMP JUMPDEST PUSH1 0x60 DUP4 ADD MSTORE POP PUSH1 0x80 DUP3 ADD MLOAD PUSH8 0xFFFFFFFFFFFFFFFF DUP2 GT ISZERO PUSH2 0x3FE9 JUMPI PUSH1 0x0 DUP1 REVERT JUMPDEST PUSH2 0x3FF5 DUP5 DUP3 DUP6 ADD PUSH2 0x3E0B JUMP JUMPDEST PUSH1 0x80 DUP4 ADD MSTORE POP PUSH1 0xA0 PUSH2 0x4009 DUP5 DUP3 DUP6 ADD PUSH2 0x409E JUMP JUMPDEST PUSH1 0xA0 DUP4 ADD MSTORE POP PUSH1 0xC0 PUSH2 0x401D DUP5 DUP3 DUP6 ADD PUSH2 0x409E JUMP JUMPDEST PUSH1 0xC0 DUP4 ADD MSTORE POP PUSH1 0xE0 PUSH2 0x4031 DUP5 DUP3 DUP6 ADD PUSH2 0x3E8E JUMP JUMPDEST PUSH1 0xE0 DUP4 ADD MSTORE POP SWAP3 SWAP2 POP POP JUMP JUMPDEST PUSH1 0x0 PUSH1 0x40 DUP3 DUP5 SUB SLT ISZERO PUSH2 0x404F JUMPI PUSH1 0x0 DUP1 REVERT JUMPDEST PUSH2 0x4059 PUSH1 0x40 PUSH2 0x538D JUMP JUMPDEST SWAP1 POP PUSH1 0x0 PUSH2 0x4069 DUP5 DUP3 DUP6 ADD PUSH2 0x409E JUMP JUMPDEST PUSH1 0x0 DUP4 ADD MSTORE POP PUSH1 0x20 PUSH2 0x407D DUP5 DUP3 DUP6 ADD PUSH2 0x409E JUMP JUMPDEST PUSH1 0x20 DUP4 ADD MSTORE POP SWAP3 SWAP2 POP POP JUMP JUMPDEST PUSH1 0x0 DUP2 CALLDATALOAD SWAP1 POP PUSH2 0x4098 DUP2 PUSH2 0x55C9 JUMP JUMPDEST SWAP3 SWAP2 POP POP JUMP JUMPDEST PUSH1 0x0 DUP2 MLOAD SWAP1 POP PUSH2 0x40AD DUP2 PUSH2 0x55C9 JUMP JUMPDEST SWAP3 SWAP2 POP POP JUMP JUMPDEST PUSH1 0x0 DUP2 MLOAD SWAP1 POP PUSH2 0x40C2 DUP2 PUSH2 0x55E0 JUMP JUMPDEST SWAP3 SWAP2 POP POP JUMP JUMPDEST PUSH1 0x0 PUSH1 0x20 DUP3 DUP5 SUB SLT ISZERO PUSH2 0x40DA JUMPI PUSH1 0x0 DUP1 REVERT JUMPDEST PUSH1 0x0 PUSH2 0x40E8 DUP5 DUP3 DUP6 ADD PUSH2 0x3DF6 JUMP JUMPDEST SWAP2 POP POP SWAP3 SWAP2 POP POP JUMP JUMPDEST PUSH1 0x0 DUP1 PUSH1 0x0 DUP1 PUSH1 0x80 DUP6 DUP8 SUB SLT ISZERO PUSH2 0x4107 JUMPI PUSH1 0x0 DUP1 REVERT JUMPDEST PUSH1 0x0 PUSH2 0x4115 DUP8 DUP3 DUP9 ADD PUSH2 0x3DF6 JUMP JUMPDEST SWAP5 POP POP PUSH1 0x20 PUSH2 0x4126 DUP8 DUP3 DUP9 ADD PUSH2 0x3DF6 JUMP JUMPDEST SWAP4 POP POP PUSH1 0x40 PUSH2 0x4137 DUP8 DUP3 DUP9 ADD PUSH2 0x3DF6 JUMP JUMPDEST SWAP3 POP POP PUSH1 0x60 PUSH2 0x4148 DUP8 DUP3 DUP9 ADD PUSH2 0x3DF6 JUMP JUMPDEST SWAP2 POP POP SWAP3 SWAP6 SWAP2 SWAP5 POP SWAP3 POP JUMP JUMPDEST PUSH1 0x0 PUSH1 0x20 DUP3 DUP5 SUB SLT ISZERO PUSH2 0x4166 JUMPI PUSH1 0x0 DUP1 REVERT JUMPDEST PUSH1 0x0 DUP3 ADD MLOAD PUSH8 0xFFFFFFFFFFFFFFFF DUP2 GT ISZERO PUSH2 0x4180 JUMPI PUSH1 0x0 DUP1 REVERT JUMPDEST PUSH2 0x418C DUP5 DUP3 DUP6 ADD PUSH2 0x3E0B JUMP JUMPDEST SWAP2 POP POP SWAP3 SWAP2 POP POP JUMP JUMPDEST PUSH1 0x0 PUSH1 0x20 DUP3 DUP5 SUB SLT ISZERO PUSH2 0x41A7 JUMPI PUSH1 0x0 DUP1 REVERT JUMPDEST PUSH1 0x0 PUSH2 0x41B5 DUP5 DUP3 DUP6 ADD PUSH2 0x3E8E JUMP JUMPDEST SWAP2 POP POP SWAP3 SWAP2 POP POP JUMP JUMPDEST PUSH1 0x0 PUSH1 0x20 DUP3 DUP5 SUB SLT ISZERO PUSH2 0x41D0 JUMPI PUSH1 0x0 DUP1 REVERT JUMPDEST PUSH1 0x0 PUSH2 0x41DE DUP5 DUP3 DUP6 ADD PUSH2 0x3EA3 JUMP JUMPDEST SWAP2 POP POP SWAP3 SWAP2 POP POP JUMP JUMPDEST PUSH1 0x0 PUSH1 0x20 DUP3 DUP5 SUB SLT ISZERO PUSH2 0x41F9 JUMPI PUSH1 0x0 DUP1 REVERT JUMPDEST PUSH1 0x0 PUSH2 0x4207 DUP5 DUP3 DUP6 ADD PUSH2 0x3EB8 JUMP JUMPDEST SWAP2 POP POP SWAP3 SWAP2 POP POP JUMP JUMPDEST PUSH1 0x0 DUP1 PUSH1 0x40 DUP4 DUP6 SUB SLT ISZERO PUSH2 0x4223 JUMPI PUSH1 0x0 DUP1 REVERT JUMPDEST PUSH1 0x0 PUSH2 0x4231 DUP6 DUP3 DUP7 ADD PUSH2 0x3EA3 JUMP JUMPDEST SWAP3 POP POP PUSH1 0x20 PUSH2 0x4242 DUP6 DUP3 DUP7 ADD PUSH2 0x3DF6 JUMP JUMPDEST SWAP2 POP POP SWAP3 POP SWAP3 SWAP1 POP JUMP JUMPDEST PUSH1 0x0 DUP1 PUSH1 0x40 DUP4 DUP6 SUB SLT ISZERO PUSH2 0x425F JUMPI PUSH1 0x0 DUP1 REVERT JUMPDEST PUSH1 0x0 PUSH2 0x426D DUP6 DUP3 DUP7 ADD PUSH2 0x3EA3 JUMP JUMPDEST SWAP3 POP POP PUSH1 0x20 PUSH2 0x427E DUP6 DUP3 DUP7 ADD PUSH2 0x4089 JUMP JUMPDEST SWAP2 POP POP SWAP3 POP SWAP3 SWAP1 POP JUMP JUMPDEST PUSH1 0x0 PUSH1 0x20 DUP3 DUP5 SUB SLT ISZERO PUSH2 0x429A JUMPI PUSH1 0x0 DUP1 REVERT JUMPDEST PUSH1 0x0 DUP3 ADD MLOAD PUSH8 0xFFFFFFFFFFFFFFFF DUP2 GT ISZERO PUSH2 0x42B4 JUMPI PUSH1 0x0 DUP1 REVERT JUMPDEST PUSH2 0x42C0 DUP5 DUP3 DUP6 ADD PUSH2 0x3F17 JUMP JUMPDEST SWAP2 POP POP SWAP3 SWAP2 POP POP JUMP JUMPDEST PUSH1 0x0 PUSH1 0x40 DUP3 DUP5 SUB SLT ISZERO PUSH2 0x42DB JUMPI PUSH1 0x0 DUP1 REVERT JUMPDEST PUSH1 0x0 PUSH2 0x42E9 DUP5 DUP3 DUP6 ADD PUSH2 0x403D JUMP JUMPDEST SWAP2 POP POP SWAP3 SWAP2 POP POP JUMP JUMPDEST PUSH1 0x0 PUSH1 0x20 DUP3 DUP5 SUB SLT ISZERO PUSH2 0x4304 JUMPI PUSH1 0x0 DUP1 REVERT JUMPDEST PUSH1 0x0 PUSH2 0x4312 DUP5 DUP3 DUP6 ADD PUSH2 0x4089 JUMP JUMPDEST SWAP2 POP POP SWAP3 SWAP2 POP POP JUMP JUMPDEST PUSH1 0x0 PUSH1 0x20 DUP3 DUP5 SUB SLT ISZERO PUSH2 0x432D JUMPI PUSH1 0x0 DUP1 REVERT JUMPDEST PUSH1 0x0 PUSH2 0x433B DUP5 DUP3 DUP6 ADD PUSH2 0x409E JUMP JUMPDEST SWAP2 POP POP SWAP3 SWAP2 POP POP JUMP JUMPDEST PUSH1 0x0 DUP1 PUSH1 0x0 PUSH1 0x60 DUP5 DUP7 SUB SLT ISZERO PUSH2 0x4359 JUMPI PUSH1 0x0 DUP1 REVERT JUMPDEST PUSH1 0x0 PUSH2 0x4367 DUP7 DUP3 DUP8 ADD PUSH2 0x4089 JUMP JUMPDEST SWAP4 POP POP PUSH1 0x20 PUSH2 0x4378 DUP7 DUP3 DUP8 ADD PUSH2 0x3DF6 JUMP JUMPDEST SWAP3 POP POP PUSH1 0x40 PUSH2 0x4389 DUP7 DUP3 DUP8 ADD PUSH2 0x4089 JUMP JUMPDEST SWAP2 POP POP SWAP3 POP SWAP3 POP SWAP3 JUMP JUMPDEST PUSH1 0x0 DUP1 PUSH1 0x40 DUP4 DUP6 SUB SLT ISZERO PUSH2 0x43A6 JUMPI PUSH1 0x0 DUP1 REVERT JUMPDEST PUSH1 0x0 PUSH2 0x43B4 DUP6 DUP3 DUP7 ADD PUSH2 0x4089 JUMP JUMPDEST SWAP3 POP POP PUSH1 0x20 PUSH2 0x43C5 DUP6 DUP3 DUP7 ADD PUSH2 0x4089 JUMP JUMPDEST SWAP2 POP POP SWAP3 POP SWAP3 SWAP1 POP JUMP JUMPDEST PUSH1 0x0 DUP1 PUSH1 0x0 DUP1 PUSH1 0x0 PUSH1 0x80 DUP7 DUP9 SUB SLT ISZERO PUSH2 0x43E7 JUMPI PUSH1 0x0 DUP1 REVERT JUMPDEST PUSH1 0x0 PUSH2 0x43F5 DUP9 DUP3 DUP10 ADD PUSH2 0x4089 JUMP JUMPDEST SWAP6 POP POP PUSH1 0x20 PUSH2 0x4406 DUP9 DUP3 DUP10 ADD PUSH2 0x4089 JUMP JUMPDEST SWAP5 POP POP PUSH1 0x40 DUP7 ADD CALLDATALOAD PUSH8 0xFFFFFFFFFFFFFFFF DUP2 GT ISZERO PUSH2 0x4423 JUMPI PUSH1 0x0 DUP1 REVERT JUMPDEST PUSH2 0x442F DUP9 DUP3 DUP10 ADD PUSH2 0x3ECD JUMP JUMPDEST SWAP4 POP SWAP4 POP POP PUSH1 0x60 PUSH2 0x4442 DUP9 DUP3 DUP10 ADD PUSH2 0x4089 JUMP JUMPDEST SWAP2 POP POP SWAP3 SWAP6 POP SWAP3 SWAP6 SWAP1 SWAP4 POP JUMP JUMPDEST PUSH1 0x0 PUSH1 0x20 DUP3 DUP5 SUB SLT ISZERO PUSH2 0x4461 JUMPI PUSH1 0x0 DUP1 REVERT JUMPDEST PUSH1 0x0 PUSH2 0x446F DUP5 DUP3 DUP6 ADD PUSH2 0x40B3 JUMP JUMPDEST SWAP2 POP POP SWAP3 SWAP2 POP POP JUMP JUMPDEST PUSH2 0x4481 DUP2 PUSH2 0x5468 JUMP JUMPDEST DUP3 MSTORE POP POP JUMP JUMPDEST PUSH2 0x4490 DUP2 PUSH2 0x5409 JUMP JUMPDEST DUP3 MSTORE POP POP JUMP JUMPDEST PUSH2 0x449F DUP2 PUSH2 0x5409 JUMP JUMPDEST DUP3 MSTORE POP POP JUMP JUMPDEST PUSH2 0x44AE DUP2 PUSH2 0x541B JUMP JUMPDEST DUP3 MSTORE POP POP JUMP JUMPDEST PUSH2 0x44BD DUP2 PUSH2 0x5427 JUMP JUMPDEST DUP3 MSTORE POP POP JUMP JUMPDEST PUSH2 0x44CC DUP2 PUSH2 0x547A JUMP JUMPDEST DUP3 MSTORE POP POP JUMP JUMPDEST PUSH2 0x44DB DUP2 PUSH2 0x549E JUMP JUMPDEST DUP3 MSTORE POP POP JUMP JUMPDEST PUSH2 0x44EA DUP2 PUSH2 0x54C2 JUMP JUMPDEST DUP3 MSTORE POP POP JUMP JUMPDEST PUSH2 0x44F9 DUP2 PUSH2 0x54E6 JUMP JUMPDEST DUP3 MSTORE POP POP JUMP JUMPDEST PUSH2 0x4508 DUP2 PUSH2 0x550A JUMP JUMPDEST DUP3 MSTORE POP POP JUMP JUMPDEST PUSH1 0x0 PUSH2 0x4519 DUP3 PUSH2 0x53E2 JUMP JUMPDEST PUSH2 0x4523 DUP2 DUP6 PUSH2 0x53ED JUMP JUMPDEST SWAP4 POP PUSH2 0x4533 DUP2 DUP6 PUSH1 0x20 DUP7 ADD PUSH2 0x5540 JUMP JUMPDEST PUSH2 0x453C DUP2 PUSH2 0x5573 JUMP JUMPDEST DUP5 ADD SWAP2 POP POP SWAP3 SWAP2 POP POP JUMP JUMPDEST PUSH1 0x0 PUSH2 0x4554 PUSH1 0x22 DUP4 PUSH2 0x53ED JUMP JUMPDEST SWAP2 POP PUSH32 0x456E756D657261626C655365743A20696E646578206F7574206F6620626F756E PUSH1 0x0 DUP4 ADD MSTORE PUSH32 0x6473000000000000000000000000000000000000000000000000000000000000 PUSH1 0x20 DUP4 ADD MSTORE PUSH1 0x40 DUP3 ADD SWAP1 POP SWAP2 SWAP1 POP JUMP JUMPDEST PUSH1 0x0 PUSH2 0x45BA PUSH1 0x2F DUP4 PUSH2 0x53ED JUMP JUMPDEST SWAP2 POP PUSH32 0x416363657373436F6E74726F6C3A2073656E646572206D75737420626520616E PUSH1 0x0 DUP4 ADD MSTORE PUSH32 0x2061646D696E20746F206772616E740000000000000000000000000000000000 PUSH1 0x20 DUP4 ADD MSTORE PUSH1 0x40 DUP3 ADD SWAP1 POP SWAP2 SWAP1 POP JUMP JUMPDEST PUSH1 0x0 PUSH2 0x4620 PUSH1 0x1A DUP4 PUSH2 0x53ED JUMP JUMPDEST SWAP2 POP PUSH32 0x57697468647261772065706F6368206E6F742072656163686564000000000000 PUSH1 0x0 DUP4 ADD MSTORE PUSH1 0x20 DUP3 ADD SWAP1 POP SWAP2 SWAP1 POP JUMP JUMPDEST PUSH1 0x0 PUSH2 0x4660 PUSH1 0x1B DUP4 PUSH2 0x53ED JUMP JUMPDEST SWAP2 POP PUSH32 0x536166654D6174683A206164646974696F6E206F766572666C6F770000000000 PUSH1 0x0 DUP4 ADD MSTORE PUSH1 0x20 DUP3 ADD SWAP1 POP SWAP2 SWAP1 POP JUMP JUMPDEST PUSH1 0x0 PUSH2 0x46A0 PUSH1 0x19 DUP4 PUSH2 0x53ED JUMP JUMPDEST SWAP2 POP PUSH32 0x6661696C656420746F207472616E7366657220626F756E747900000000000000 PUSH1 0x0 DUP4 ADD MSTORE PUSH1 0x20 DUP3 ADD SWAP1 POP SWAP2 SWAP1 POP JUMP JUMPDEST PUSH1 0x0 PUSH2 0x46E0 PUSH1 0x30 DUP4 PUSH2 0x53ED JUMP JUMPDEST SWAP2 POP PUSH32 0x416363657373436F6E74726F6C3A2073656E646572206D75737420626520616E PUSH1 0x0 DUP4 ADD MSTORE PUSH32 0x2061646D696E20746F207265766F6B6500000000000000000000000000000000 PUSH1 0x20 DUP4 ADD MSTORE PUSH1 0x40 DUP3 ADD SWAP1 POP SWAP2 SWAP1 POP JUMP JUMPDEST PUSH1 0x0 PUSH2 0x4746 PUSH1 0x11 DUP4 PUSH2 0x53ED JUMP JUMPDEST SWAP2 POP PUSH32 0x4E6F6E706F736974697665207374616B65000000000000000000000000000000 PUSH1 0x0 DUP4 ADD MSTORE PUSH1 0x20 DUP3 ADD SWAP1 POP SWAP2 SWAP1 POP JUMP JUMPDEST PUSH1 0x0 PUSH2 0x4786 PUSH1 0x13 DUP4 PUSH2 0x53ED JUMP JUMPDEST SWAP2 POP PUSH32 0x736368207472616E73666572206661696C656400000000000000000000000000 PUSH1 0x0 DUP4 ADD MSTORE PUSH1 0x20 DUP3 ADD SWAP1 POP SWAP2 SWAP1 POP JUMP JUMPDEST PUSH1 0x0 PUSH2 0x47C6 PUSH1 0x6 DUP4 PUSH2 0x53FE JUMP JUMPDEST SWAP2 POP PUSH32 0x5772697465720000000000000000000000000000000000000000000000000000 PUSH1 0x0 DUP4 ADD MSTORE PUSH1 0x6 DUP3 ADD SWAP1 POP SWAP2 SWAP1 POP JUMP JUMPDEST PUSH1 0x0 PUSH2 0x4806 PUSH1 0x10 DUP4 PUSH2 0x53ED JUMP JUMPDEST SWAP2 POP PUSH32 0x636F756C646E74207472616E7366657200000000000000000000000000000000 PUSH1 0x0 DUP4 ADD MSTORE PUSH1 0x20 DUP3 ADD SWAP1 POP SWAP2 SWAP1 POP JUMP JUMPDEST PUSH1 0x0 PUSH2 0x4846 PUSH1 0x21 DUP4 PUSH2 0x53ED JUMP JUMPDEST SWAP2 POP PUSH32 0x536166654D6174683A206D756C7469706C69636174696F6E206F766572666C6F PUSH1 0x0 DUP4 ADD MSTORE PUSH32 0x7700000000000000000000000000000000000000000000000000000000000000 PUSH1 0x20 DUP4 ADD MSTORE PUSH1 0x40 DUP3 ADD SWAP1 POP SWAP2 SWAP1 POP JUMP JUMPDEST PUSH1 0x0 PUSH2 0x48AC PUSH1 0xF DUP4 PUSH2 0x53ED JUMP JUMPDEST SWAP2 POP PUSH32 0x696E636F72726563742065706F63680000000000000000000000000000000000 PUSH1 0x0 DUP4 ADD MSTORE PUSH1 0x20 DUP3 ADD SWAP1 POP SWAP2 SWAP1 POP JUMP JUMPDEST PUSH1 0x0 PUSH2 0x48EC PUSH1 0x1A DUP4 PUSH2 0x53ED JUMP JUMPDEST SWAP2 POP PUSH32 0x4469646E742072657665616C20696E206C6173742065706F6368000000000000 PUSH1 0x0 DUP4 ADD MSTORE PUSH1 0x20 DUP3 ADD SWAP1 POP SWAP2 SWAP1 POP JUMP JUMPDEST PUSH1 0x0 PUSH2 0x492C PUSH1 0x13 DUP4 PUSH2 0x53ED JUMP JUMPDEST SWAP2 POP PUSH32 0x7374616B657220646F65736E7420657869737400000000000000000000000000 PUSH1 0x0 DUP4 ADD MSTORE PUSH1 0x20 DUP3 ADD SWAP1 POP SWAP2 SWAP1 POP JUMP JUMPDEST PUSH1 0x0 PUSH2 0x496C PUSH1 0x6 DUP4 PUSH2 0x53ED JUMP JUMPDEST SWAP2 POP PUSH32 0x6C6F636B65640000000000000000000000000000000000000000000000000000 PUSH1 0x0 DUP4 ADD MSTORE PUSH1 0x20 DUP3 ADD SWAP1 POP SWAP2 SWAP1 POP JUMP JUMPDEST PUSH1 0x0 PUSH2 0x49AC PUSH1 0xD DUP4 PUSH2 0x53ED JUMP JUMPDEST SWAP2 POP PUSH32 0x7374616B65722E6964203D203000000000000000000000000000000000000000 PUSH1 0x0 DUP4 ADD MSTORE PUSH1 0x20 DUP3 ADD SWAP1 POP SWAP2 SWAP1 POP JUMP JUMPDEST PUSH1 0x0 PUSH2 0x49EC PUSH1 0xF DUP4 PUSH2 0x53ED JUMP JUMPDEST SWAP2 POP PUSH32 0x496E636F72726563742073746174650000000000000000000000000000000000 PUSH1 0x0 DUP4 ADD MSTORE PUSH1 0x20 DUP3 ADD SWAP1 POP SWAP2 SWAP1 POP JUMP JUMPDEST PUSH1 0x0 PUSH2 0x4A2C PUSH1 0x2A DUP4 PUSH2 0x53ED JUMP JUMPDEST SWAP2 POP PUSH32 0x616C726561647920636F6D6D6974656420746869732065706F63682E2043616E PUSH1 0x0 DUP4 ADD MSTORE PUSH32 0x7420776974686472617700000000000000000000000000000000000000000000 PUSH1 0x20 DUP4 ADD MSTORE PUSH1 0x40 DUP3 ADD SWAP1 POP SWAP2 SWAP1 POP JUMP JUMPDEST PUSH1 0x0 PUSH2 0x4A92 PUSH1 0xF DUP4 PUSH2 0x53ED JUMP JUMPDEST SWAP2 POP PUSH32 0x446964206E6F7420756E7374616B650000000000000000000000000000000000 PUSH1 0x0 DUP4 ADD MSTORE PUSH1 0x20 DUP3 ADD SWAP1 POP SWAP2 SWAP1 POP JUMP JUMPDEST PUSH1 0x0 PUSH2 0x4AD2 PUSH1 0xF DUP4 PUSH2 0x53ED JUMP JUMPDEST SWAP2 POP PUSH32 0x696E636F72726563742073746174650000000000000000000000000000000000 PUSH1 0x0 DUP4 ADD MSTORE PUSH1 0x20 DUP3 ADD SWAP1 POP SWAP2 SWAP1 POP JUMP JUMPDEST PUSH1 0x0 PUSH2 0x4B12 PUSH1 0x30 DUP4 PUSH2 0x53ED JUMP JUMPDEST SWAP2 POP PUSH32 0x577269746572526F6C653A2063616C6C657220646F6573206E6F742068617665 PUSH1 0x0 DUP4 ADD MSTORE PUSH32 0x207468652057726974657220726F6C6500000000000000000000000000000000 PUSH1 0x20 DUP4 ADD MSTORE PUSH1 0x40 DUP3 ADD SWAP1 POP SWAP2 SWAP1 POP JUMP JUMPDEST PUSH1 0x0 PUSH2 0x4B78 PUSH1 0x11 DUP4 PUSH2 0x53ED JUMP JUMPDEST SWAP2 POP PUSH32 0x4E6F6E706F736974697665205374616B65000000000000000000000000000000 PUSH1 0x0 DUP4 ADD MSTORE PUSH1 0x20 DUP3 ADD SWAP1 POP SWAP2 SWAP1 POP JUMP JUMPDEST PUSH1 0x0 PUSH2 0x4BB8 PUSH1 0x2F DUP4 PUSH2 0x53ED JUMP JUMPDEST SWAP2 POP PUSH32 0x416363657373436F6E74726F6C3A2063616E206F6E6C792072656E6F756E6365 PUSH1 0x0 DUP4 ADD MSTORE PUSH32 0x20726F6C657320666F722073656C660000000000000000000000000000000000 PUSH1 0x20 DUP4 ADD MSTORE PUSH1 0x40 DUP3 ADD SWAP1 POP SWAP2 SWAP1 POP JUMP JUMPDEST PUSH1 0x0 PUSH2 0x4C1E PUSH1 0x31 DUP4 PUSH2 0x53ED JUMP JUMPDEST SWAP2 POP PUSH32 0x7374616B656420616D6F756E74206973206C657373207468616E206D696E696D PUSH1 0x0 DUP4 ADD MSTORE PUSH32 0x756D207374616B65207265717569726564000000000000000000000000000000 PUSH1 0x20 DUP4 ADD MSTORE PUSH1 0x40 DUP3 ADD SWAP1 POP SWAP2 SWAP1 POP JUMP JUMPDEST PUSH2 0x100 DUP3 ADD PUSH1 0x0 DUP3 ADD MLOAD PUSH2 0x4C8E PUSH1 0x0 DUP6 ADD DUP3 PUSH2 0x4D19 JUMP JUMPDEST POP PUSH1 0x20 DUP3 ADD MLOAD PUSH2 0x4CA1 PUSH1 0x20 DUP6 ADD DUP3 PUSH2 0x4487 JUMP JUMPDEST POP PUSH1 0x40 DUP3 ADD MLOAD PUSH2 0x4CB4 PUSH1 0x40 DUP6 ADD DUP3 PUSH2 0x4D19 JUMP JUMPDEST POP PUSH1 0x60 DUP3 ADD MLOAD PUSH2 0x4CC7 PUSH1 0x60 DUP6 ADD DUP3 PUSH2 0x4D19 JUMP JUMPDEST POP PUSH1 0x80 DUP3 ADD MLOAD PUSH2 0x4CDA PUSH1 0x80 DUP6 ADD DUP3 PUSH2 0x4D19 JUMP JUMPDEST POP PUSH1 0xA0 DUP3 ADD MLOAD PUSH2 0x4CED PUSH1 0xA0 DUP6 ADD DUP3 PUSH2 0x4D19 JUMP JUMPDEST POP PUSH1 0xC0 DUP3 ADD MLOAD PUSH2 0x4D00 PUSH1 0xC0 DUP6 ADD DUP3 PUSH2 0x4D19 JUMP JUMPDEST POP PUSH1 0xE0 DUP3 ADD MLOAD PUSH2 0x4D13 PUSH1 0xE0 DUP6 ADD DUP3 PUSH2 0x4D19 JUMP JUMPDEST POP POP POP POP JUMP JUMPDEST PUSH2 0x4D22 DUP2 PUSH2 0x5451 JUMP JUMPDEST DUP3 MSTORE POP POP JUMP JUMPDEST PUSH2 0x4D31 DUP2 PUSH2 0x5451 JUMP JUMPDEST DUP3 MSTORE POP POP JUMP JUMPDEST PUSH1 0x0 PUSH2 0x4D42 DUP3 PUSH2 0x47B9 JUMP JUMPDEST SWAP2 POP DUP2 SWAP1 POP SWAP2 SWAP1 POP JUMP JUMPDEST PUSH1 0x0 PUSH1 0x20 DUP3 ADD SWAP1 POP PUSH2 0x4D61 PUSH1 0x0 DUP4 ADD DUP5 PUSH2 0x4496 JUMP JUMPDEST SWAP3 SWAP2 POP POP JUMP JUMPDEST PUSH1 0x0 PUSH1 0x60 DUP3 ADD SWAP1 POP PUSH2 0x4D7C PUSH1 0x0 DUP4 ADD DUP7 PUSH2 0x4478 JUMP JUMPDEST PUSH2 0x4D89 PUSH1 0x20 DUP4 ADD DUP6 PUSH2 0x4496 JUMP JUMPDEST PUSH2 0x4D96 PUSH1 0x40 DUP4 ADD DUP5 PUSH2 0x4D28 JUMP JUMPDEST SWAP5 SWAP4 POP POP POP POP JUMP JUMPDEST PUSH1 0x0 PUSH1 0x40 DUP3 ADD SWAP1 POP PUSH2 0x4DB3 PUSH1 0x0 DUP4 ADD DUP6 PUSH2 0x4478 JUMP JUMPDEST PUSH2 0x4DC0 PUSH1 0x20 DUP4 ADD DUP5 PUSH2 0x4D28 JUMP JUMPDEST SWAP4 SWAP3 POP POP POP JUMP JUMPDEST PUSH1 0x0 PUSH1 0x40 DUP3 ADD SWAP1 POP PUSH2 0x4DDC PUSH1 0x0 DUP4 ADD DUP6 PUSH2 0x4496 JUMP JUMPDEST PUSH2 0x4DE9 PUSH1 0x20 DUP4 ADD DUP5 PUSH2 0x4D28 JUMP JUMPDEST SWAP4 SWAP3 POP POP POP JUMP JUMPDEST PUSH1 0x0 PUSH1 0x20 DUP3 ADD SWAP1 POP PUSH2 0x4E05 PUSH1 0x0 DUP4 ADD DUP5 PUSH2 0x44A5 JUMP JUMPDEST SWAP3 SWAP2 POP POP JUMP JUMPDEST PUSH1 0x0 PUSH1 0x20 DUP3 ADD SWAP1 POP PUSH2 0x4E20 PUSH1 0x0 DUP4 ADD DUP5 PUSH2 0x44B4 JUMP JUMPDEST SWAP3 SWAP2 POP POP JUMP JUMPDEST PUSH1 0x0 PUSH1 0x20 DUP3 ADD SWAP1 POP PUSH2 0x4E3B PUSH1 0x0 DUP4 ADD DUP5 PUSH2 0x44C3 JUMP JUMPDEST SWAP3 SWAP2 POP POP JUMP JUMPDEST PUSH1 0x0 PUSH1 0x20 DUP3 ADD SWAP1 POP PUSH2 0x4E56 PUSH1 0x0 DUP4 ADD DUP5 PUSH2 0x44D2 JUMP JUMPDEST SWAP3 SWAP2 POP POP JUMP JUMPDEST PUSH1 0x0 PUSH1 0x20 DUP3 ADD SWAP1 POP PUSH2 0x4E71 PUSH1 0x0 DUP4 ADD DUP5 PUSH2 0x44E1 JUMP JUMPDEST SWAP3 SWAP2 POP POP JUMP JUMPDEST PUSH1 0x0 PUSH1 0x20 DUP3 ADD SWAP1 POP PUSH2 0x4E8C PUSH1 0x0 DUP4 ADD DUP5 PUSH2 0x44F0 JUMP JUMPDEST SWAP3 SWAP2 POP POP JUMP JUMPDEST PUSH1 0x0 PUSH1 0x20 DUP3 ADD SWAP1 POP DUP2 DUP2 SUB PUSH1 0x0 DUP4 ADD MSTORE PUSH2 0x4EAC DUP2 DUP5 PUSH2 0x450E JUMP JUMPDEST SWAP1 POP SWAP3 SWAP2 POP POP JUMP JUMPDEST PUSH1 0x0 PUSH1 0x20 DUP3 ADD SWAP1 POP DUP2 DUP2 SUB PUSH1 0x0 DUP4 ADD MSTORE PUSH2 0x4ECD DUP2 PUSH2 0x4547 JUMP JUMPDEST SWAP1 POP SWAP2 SWAP1 POP JUMP JUMPDEST PUSH1 0x0 PUSH1 0x20 DUP3 ADD SWAP1 POP DUP2 DUP2 SUB PUSH1 0x0 DUP4 ADD MSTORE PUSH2 0x4EED DUP2 PUSH2 0x45AD JUMP JUMPDEST SWAP1 POP SWAP2 SWAP1 POP JUMP JUMPDEST PUSH1 0x0 PUSH1 0x20 DUP3 ADD SWAP1 POP DUP2 DUP2 SUB PUSH1 0x0 DUP4 ADD MSTORE PUSH2 0x4F0D DUP2 PUSH2 0x4613 JUMP JUMPDEST SWAP1 POP SWAP2 SWAP1 POP JUMP JUMPDEST PUSH1 0x0 PUSH1 0x20 DUP3 ADD SWAP1 POP DUP2 DUP2 SUB PUSH1 0x0 DUP4 ADD MSTORE PUSH2 0x4F2D DUP2 PUSH2 0x4653 JUMP JUMPDEST SWAP1 POP SWAP2 SWAP1 POP JUMP JUMPDEST PUSH1 0x0 PUSH1 0x20 DUP3 ADD SWAP1 POP DUP2 DUP2 SUB PUSH1 0x0 DUP4 ADD MSTORE PUSH2 0x4F4D DUP2 PUSH2 0x4693 JUMP JUMPDEST SWAP1 POP SWAP2 SWAP1 POP JUMP JUMPDEST PUSH1 0x0 PUSH1 0x20 DUP3 ADD SWAP1 POP DUP2 DUP2 SUB PUSH1 0x0 DUP4 ADD MSTORE PUSH2 0x4F6D DUP2 PUSH2 0x46D3 JUMP JUMPDEST SWAP1 POP SWAP2 SWAP1 POP JUMP JUMPDEST PUSH1 0x0 PUSH1 0x20 DUP3 ADD SWAP1 POP DUP2 DUP2 SUB PUSH1 0x0 DUP4 ADD MSTORE PUSH2 0x4F8D DUP2 PUSH2 0x4739 JUMP JUMPDEST SWAP1 POP SWAP2 SWAP1 POP JUMP JUMPDEST PUSH1 0x0 PUSH1 0x20 DUP3 ADD SWAP1 POP DUP2 DUP2 SUB PUSH1 0x0 DUP4 ADD MSTORE PUSH2 0x4FAD DUP2 PUSH2 0x4779 JUMP JUMPDEST SWAP1 POP SWAP2 SWAP1 POP JUMP JUMPDEST PUSH1 0x0 PUSH1 0x20 DUP3 ADD SWAP1 POP DUP2 DUP2 SUB PUSH1 0x0 DUP4 ADD MSTORE PUSH2 0x4FCD DUP2 PUSH2 0x47F9 JUMP JUMPDEST SWAP1 POP SWAP2 SWAP1 POP JUMP JUMPDEST PUSH1 0x0 PUSH1 0x20 DUP3 ADD SWAP1 POP DUP2 DUP2 SUB PUSH1 0x0 DUP4 ADD MSTORE PUSH2 0x4FED DUP2 PUSH2 0x4839 JUMP JUMPDEST SWAP1 POP SWAP2 SWAP1 POP JUMP JUMPDEST PUSH1 0x0 PUSH1 0x20 DUP3 ADD SWAP1 POP DUP2 DUP2 SUB PUSH1 0x0 DUP4 ADD MSTORE PUSH2 0x500D DUP2 PUSH2 0x489F JUMP JUMPDEST SWAP1 POP SWAP2 SWAP1 POP JUMP JUMPDEST PUSH1 0x0 PUSH1 0x20 DUP3 ADD SWAP1 POP DUP2 DUP2 SUB PUSH1 0x0 DUP4 ADD MSTORE PUSH2 0x502D DUP2 PUSH2 0x48DF JUMP JUMPDEST SWAP1 POP SWAP2 SWAP1 POP JUMP JUMPDEST PUSH1 0x0 PUSH1 0x20 DUP3 ADD SWAP1 POP DUP2 DUP2 SUB PUSH1 0x0 DUP4 ADD MSTORE PUSH2 0x504D DUP2 PUSH2 0x491F JUMP JUMPDEST SWAP1 POP SWAP2 SWAP1 POP JUMP JUMPDEST PUSH1 0x0 PUSH1 0x20 DUP3 ADD SWAP1 POP DUP2 DUP2 SUB PUSH1 0x0 DUP4 ADD MSTORE PUSH2 0x506D DUP2 PUSH2 0x495F JUMP JUMPDEST SWAP1 POP SWAP2 SWAP1 POP JUMP JUMPDEST PUSH1 0x0 PUSH1 0x20 DUP3 ADD SWAP1 POP DUP2 DUP2 SUB PUSH1 0x0 DUP4 ADD MSTORE PUSH2 0x508D DUP2 PUSH2 0x499F JUMP JUMPDEST SWAP1 POP SWAP2 SWAP1 POP JUMP JUMPDEST PUSH1 0x0 PUSH1 0x20 DUP3 ADD SWAP1 POP DUP2 DUP2 SUB PUSH1 0x0 DUP4 ADD MSTORE PUSH2 0x50AD DUP2 PUSH2 0x49DF JUMP JUMPDEST SWAP1 POP SWAP2 SWAP1 POP JUMP JUMPDEST PUSH1 0x0 PUSH1 0x20 DUP3 ADD SWAP1 POP DUP2 DUP2 SUB PUSH1 0x0 DUP4 ADD MSTORE PUSH2 0x50CD DUP2 PUSH2 0x4A1F JUMP JUMPDEST SWAP1 POP SWAP2 SWAP1 POP JUMP JUMPDEST PUSH1 0x0 PUSH1 0x20 DUP3 ADD SWAP1 POP DUP2 DUP2 SUB PUSH1 0x0 DUP4 ADD MSTORE PUSH2 0x50ED DUP2 PUSH2 0x4A85 JUMP JUMPDEST SWAP1 POP SWAP2 SWAP1 POP JUMP JUMPDEST PUSH1 0x0 PUSH1 0x20 DUP3 ADD SWAP1 POP DUP2 DUP2 SUB PUSH1 0x0 DUP4 ADD MSTORE PUSH2 0x510D DUP2 PUSH2 0x4AC5 JUMP JUMPDEST SWAP1 POP SWAP2 SWAP1 POP JUMP JUMPDEST PUSH1 0x0 PUSH1 0x20 DUP3 ADD SWAP1 POP DUP2 DUP2 SUB PUSH1 0x0 DUP4 ADD MSTORE PUSH2 0x512D DUP2 PUSH2 0x4B05 JUMP JUMPDEST SWAP1 POP SWAP2 SWAP1 POP JUMP JUMPDEST PUSH1 0x0 PUSH1 0x20 DUP3 ADD SWAP1 POP DUP2 DUP2 SUB PUSH1 0x0 DUP4 ADD MSTORE PUSH2 0x514D DUP2 PUSH2 0x4B6B JUMP JUMPDEST SWAP1 POP SWAP2 SWAP1 POP JUMP JUMPDEST PUSH1 0x0 PUSH1 0x20 DUP3 ADD SWAP1 POP DUP2 DUP2 SUB PUSH1 0x0 DUP4 ADD MSTORE PUSH2 0x516D DUP2 PUSH2 0x4BAB JUMP JUMPDEST SWAP1 POP SWAP2 SWAP1 POP JUMP JUMPDEST PUSH1 0x0 PUSH1 0x20 DUP3 ADD SWAP1 POP DUP2 DUP2 SUB PUSH1 0x0 DUP4 ADD MSTORE PUSH2 0x518D DUP2 PUSH2 0x4C11 JUMP JUMPDEST SWAP1 POP SWAP2 SWAP1 POP JUMP JUMPDEST PUSH1 0x0 PUSH2 0x100 DUP3 ADD SWAP1 POP PUSH2 0x51AA PUSH1 0x0 DUP4 ADD DUP5 PUSH2 0x4C77 JUMP JUMPDEST SWAP3 SWAP2 POP POP JUMP JUMPDEST PUSH1 0x0 PUSH1 0x20 DUP3 ADD SWAP1 POP PUSH2 0x51C5 PUSH1 0x0 DUP4 ADD DUP5 PUSH2 0x4D28 JUMP JUMPDEST SWAP3 SWAP2 POP POP JUMP JUMPDEST PUSH1 0x0 PUSH2 0x100 DUP3 ADD SWAP1 POP PUSH2 0x51E1 PUSH1 0x0 DUP4 ADD DUP12 PUSH2 0x4D28 JUMP JUMPDEST PUSH2 0x51EE PUSH1 0x20 DUP4 ADD DUP11 PUSH2 0x4496 JUMP JUMPDEST PUSH2 0x51FB PUSH1 0x40 DUP4 ADD DUP10 PUSH2 0x4D28 JUMP JUMPDEST PUSH2 0x5208 PUSH1 0x60 DUP4 ADD DUP9 PUSH2 0x4D28 JUMP JUMPDEST PUSH2 0x5215 PUSH1 0x80 DUP4 ADD DUP8 PUSH2 0x4D28 JUMP JUMPDEST PUSH2 0x5222 PUSH1 0xA0 DUP4 ADD DUP7 PUSH2 0x4D28 JUMP JUMPDEST PUSH2 0x522F PUSH1 0xC0 DUP4 ADD DUP6 PUSH2 0x4D28 JUMP JUMPDEST PUSH2 0x523C PUSH1 0xE0 DUP4 ADD DUP5 PUSH2 0x4D28 JUMP JUMPDEST SWAP10 SWAP9 POP POP POP POP POP POP POP POP POP JUMP JUMPDEST PUSH1 0x0 PUSH1 0x40 DUP3 ADD SWAP1 POP PUSH2 0x525E PUSH1 0x0 DUP4 ADD DUP6 PUSH2 0x4D28 JUMP JUMPDEST PUSH2 0x526B PUSH1 0x20 DUP4 ADD DUP5 PUSH2 0x4D28 JUMP JUMPDEST SWAP4 SWAP3 POP POP POP JUMP JUMPDEST PUSH1 0x0 PUSH1 0x80 DUP3 ADD SWAP1 POP PUSH2 0x5287 PUSH1 0x0 DUP4 ADD DUP8 PUSH2 0x4D28 JUMP JUMPDEST PUSH2 0x5294 PUSH1 0x20 DUP4 ADD DUP7 PUSH2 0x4D28 JUMP JUMPDEST PUSH2 0x52A1 PUSH1 0x40 DUP4 ADD DUP6 PUSH2 0x44FF JUMP JUMPDEST PUSH2 0x52AE PUSH1 0x60 DUP4 ADD DUP5 PUSH2 0x4D28 JUMP JUMPDEST SWAP6 SWAP5 POP POP POP POP POP JUMP JUMPDEST PUSH1 0x0 PUSH1 0xA0 DUP3 ADD SWAP1 POP PUSH2 0x52CC PUSH1 0x0 DUP4 ADD DUP9 PUSH2 0x4D28 JUMP JUMPDEST PUSH2 0x52D9 PUSH1 0x20 DUP4 ADD DUP8 PUSH2 0x4D28 JUMP JUMPDEST DUP2 DUP2 SUB PUSH1 0x40 DUP4 ADD MSTORE PUSH2 0x52EB DUP2 DUP7 PUSH2 0x450E JUMP JUMPDEST SWAP1 POP PUSH2 0x52FA PUSH1 0x60 DUP4 ADD DUP6 PUSH2 0x4D28 JUMP JUMPDEST PUSH2 0x5307 PUSH1 0x80 DUP4 ADD DUP5 PUSH2 0x4D28 JUMP JUMPDEST SWAP7 SWAP6 POP POP POP POP POP POP JUMP JUMPDEST PUSH1 0x0 PUSH1 0x60 DUP3 ADD SWAP1 POP PUSH2 0x5326 PUSH1 0x0 DUP4 ADD DUP7 PUSH2 0x4D28 JUMP JUMPDEST PUSH2 0x5333 PUSH1 0x20 DUP4 ADD DUP6 PUSH2 0x4D28 JUMP JUMPDEST PUSH2 0x5340 PUSH1 0x40 DUP4 ADD DUP5 PUSH2 0x4D28 JUMP JUMPDEST SWAP5 SWAP4 POP POP POP POP JUMP JUMPDEST PUSH1 0x0 PUSH1 0x80 DUP3 ADD SWAP1 POP PUSH2 0x535D PUSH1 0x0 DUP4 ADD DUP8 PUSH2 0x4D28 JUMP JUMPDEST PUSH2 0x536A PUSH1 0x20 DUP4 ADD DUP7 PUSH2 0x4D28 JUMP JUMPDEST PUSH2 0x5377 PUSH1 0x40 DUP4 ADD DUP6 PUSH2 0x4D28 JUMP JUMPDEST PUSH2 0x5384 PUSH1 0x60 DUP4 ADD DUP5 PUSH2 0x4D28 JUMP JUMPDEST SWAP6 SWAP5 POP POP POP POP POP JUMP JUMPDEST PUSH1 0x0 PUSH1 0x40 MLOAD SWAP1 POP DUP2 DUP2 ADD DUP2 DUP2 LT PUSH8 0xFFFFFFFFFFFFFFFF DUP3 GT OR ISZERO PUSH2 0x53B0 JUMPI PUSH1 0x0 DUP1 REVERT JUMPDEST DUP1 PUSH1 0x40 MSTORE POP SWAP2 SWAP1 POP JUMP JUMPDEST PUSH1 0x0 PUSH8 0xFFFFFFFFFFFFFFFF DUP3 GT ISZERO PUSH2 0x53D1 JUMPI PUSH1 0x0 DUP1 REVERT JUMPDEST PUSH1 0x20 DUP3 MUL SWAP1 POP PUSH1 0x20 DUP2 ADD SWAP1 POP SWAP2 SWAP1 POP JUMP JUMPDEST PUSH1 0x0 DUP2 MLOAD SWAP1 POP SWAP2 SWAP1 POP JUMP JUMPDEST PUSH1 0x0 DUP3 DUP3 MSTORE PUSH1 0x20 DUP3 ADD SWAP1 POP SWAP3 SWAP2 POP POP JUMP JUMPDEST PUSH1 0x0 DUP2 SWAP1 POP SWAP3 SWAP2 POP POP JUMP JUMPDEST PUSH1 0x0 PUSH2 0x5414 DUP3 PUSH2 0x5431 JUMP JUMPDEST SWAP1 POP SWAP2 SWAP1 POP JUMP JUMPDEST PUSH1 0x0 DUP2 ISZERO ISZERO SWAP1 POP SWAP2 SWAP1 POP JUMP JUMPDEST PUSH1 0x0 DUP2 SWAP1 POP SWAP2 SWAP1 POP JUMP JUMPDEST PUSH1 0x0 PUSH20 0xFFFFFFFFFFFFFFFFFFFFFFFFFFFFFFFFFFFFFFFF DUP3 AND SWAP1 POP SWAP2 SWAP1 POP JUMP JUMPDEST PUSH1 0x0 DUP2 SWAP1 POP SWAP2 SWAP1 POP JUMP JUMPDEST PUSH1 0x0 PUSH1 0xFF DUP3 AND SWAP1 POP SWAP2 SWAP1 POP JUMP JUMPDEST PUSH1 0x0 PUSH2 0x5473 DUP3 PUSH2 0x551C JUMP JUMPDEST SWAP1 POP SWAP2 SWAP1 POP JUMP JUMPDEST PUSH1 0x0 PUSH2 0x5485 DUP3 PUSH2 0x548C JUMP JUMPDEST SWAP1 POP SWAP2 SWAP1 POP JUMP JUMPDEST PUSH1 0x0 PUSH2 0x5497 DUP3 PUSH2 0x5431 JUMP JUMPDEST SWAP1 POP SWAP2 SWAP1 POP JUMP JUMPDEST PUSH1 0x0 PUSH2 0x54A9 DUP3 PUSH2 0x54B0 JUMP JUMPDEST SWAP1 POP SWAP2 SWAP1 POP JUMP JUMPDEST PUSH1 0x0 PUSH2 0x54BB DUP3 PUSH2 0x5431 JUMP JUMPDEST SWAP1 POP SWAP2 SWAP1 POP JUMP JUMPDEST PUSH1 0x0 PUSH2 0x54CD DUP3 PUSH2 0x54D4 JUMP JUMPDEST SWAP1 POP SWAP2 SWAP1 POP JUMP JUMPDEST PUSH1 0x0 PUSH2 0x54DF DUP3 PUSH2 0x5431 JUMP JUMPDEST SWAP1 POP SWAP2 SWAP1 POP JUMP JUMPDEST PUSH1 0x0 PUSH2 0x54F1 DUP3 PUSH2 0x54F8 JUMP JUMPDEST SWAP1 POP SWAP2 SWAP1 POP JUMP JUMPDEST PUSH1 0x0 PUSH2 0x5503 DUP3 PUSH2 0x5431 JUMP JUMPDEST SWAP1 POP SWAP2 SWAP1 POP JUMP JUMPDEST PUSH1 0x0 PUSH2 0x5515 DUP3 PUSH2 0x5451 JUMP JUMPDEST SWAP1 POP SWAP2 SWAP1 POP JUMP JUMPDEST PUSH1 0x0 PUSH2 0x5527 DUP3 PUSH2 0x552E JUMP JUMPDEST SWAP1 POP SWAP2 SWAP1 POP JUMP JUMPDEST PUSH1 0x0 PUSH2 0x5539 DUP3 PUSH2 0x5431 JUMP JUMPDEST SWAP1 POP SWAP2 SWAP1 POP JUMP JUMPDEST PUSH1 0x0 JUMPDEST DUP4 DUP2 LT ISZERO PUSH2 0x555E JUMPI DUP1 DUP3 ADD MLOAD DUP2 DUP5 ADD MSTORE PUSH1 0x20 DUP2 ADD SWAP1 POP PUSH2 0x5543 JUMP JUMPDEST DUP4 DUP2 GT ISZERO PUSH2 0x556D JUMPI PUSH1 0x0 DUP5 DUP5 ADD MSTORE JUMPDEST POP POP POP POP JUMP JUMPDEST PUSH1 0x0 PUSH1 0x1F NOT PUSH1 0x1F DUP4 ADD AND SWAP1 POP SWAP2 SWAP1 POP JUMP JUMPDEST PUSH2 0x558D DUP2 PUSH2 0x5409 JUMP JUMPDEST DUP2 EQ PUSH2 0x5598 JUMPI PUSH1 0x0 DUP1 REVERT JUMPDEST POP JUMP JUMPDEST PUSH2 0x55A4 DUP2 PUSH2 0x541B JUMP JUMPDEST DUP2 EQ PUSH2 0x55AF JUMPI PUSH1 0x0 DUP1 REVERT JUMPDEST POP JUMP JUMPDEST PUSH2 0x55BB DUP2 PUSH2 0x5427 JUMP JUMPDEST DUP2 EQ PUSH2 0x55C6 JUMPI PUSH1 0x0 DUP1 REVERT JUMPDEST POP JUMP JUMPDEST PUSH2 0x55D2 DUP2 PUSH2 0x5451 JUMP JUMPDEST DUP2 EQ PUSH2 0x55DD JUMPI PUSH1 0x0 DUP1 REVERT JUMPDEST POP JUMP JUMPDEST PUSH2 0x55E9 DUP2 PUSH2 0x545B JUMP JUMPDEST DUP2 EQ PUSH2 0x55F4 JUMPI PUSH1 0x0 DUP1 REVERT JUMPDEST POP JUMP INVALID LOG2 PUSH5 0x6970667358 0x22 SLT KECCAK256 SWAP11 0xC4 0x2D GT STATICCALL PUSH23 0x3F8DB00239E00264121646D1DF65C92BC98BCE58ED6155 0xE2 0xBA MUL PUSH5 0x736F6C6343 STOP MOD SIGNEXTEND STOP CALLER "},"gasEstimates":{"creation":{"codeDepositCost":"4412200","executionCost":"infinite","totalCost":"infinite"},"external":{"DEFAULT_ADMIN_ROLE()":"424","addWriter(address)":"infinite","blockManager()":"1390","calculateInactivityPenalties(uint256,uint256)":"infinite","getNumStakers()":"1270","getRewardPool()":"1227","getRoleAdmin(bytes32)":"infinite","getRoleMember(bytes32,uint256)":"infinite","getRoleMemberCount(bytes32)":"1681","getStakeGettingReward()":"1205","getStaker(uint256)":"infinite","getStakerId(address)":"1652","giveBlockReward(uint256,uint256)":"infinite","givePenalties(uint256,uint256)":"infinite","giveRewards(uint256,uint256)":"infinite","grantRole(bytes32,address)":"infinite","hasRole(bytes32,address)":"infinite","init(address,address,address,address)":"infinite","isWriter(address)":"infinite","numStakers()":"1175","renounceRole(bytes32,address)":"infinite","renounceWriter()":"infinite","revokeRole(bytes32,address)":"infinite","rewardPool()":"1262","sch()":"1302","setStakerEpochLastRevealed(uint256,uint256)":"infinite","setStakerStake(uint256,uint256,string,uint256)":"infinite","slash(uint256,address,uint256)":"infinite","stake(uint256,uint256)":"infinite","stakeGettingReward()":"1198","stakerIds(address)":"1581","stakers(uint256)":"infinite","stateManager()":"1347","unstake(uint256)":"infinite","updateCommitmentEpoch(uint256)":"infinite","voteManager()":"1324","withdraw(uint256)":"infinite"},"internal":{"_giveInactivityPenalties(uint256,uint256)":"infinite","_givePenalties(uint256,uint256)":"infinite","_setStakerStake(uint256,uint256,string memory,uint256)":"infinite"}},"methodIdentifiers":{"DEFAULT_ADMIN_ROLE()":"a217fddf","addWriter(address)":"da2824a8","blockManager()":"d9169b32","calculateInactivityPenalties(uint256,uint256)":"1a69f008","getNumStakers()":"bc788d46","getRewardPool()":"1b8b13a7","getRoleAdmin(bytes32)":"248a9ca3","getRoleMember(bytes32,uint256)":"9010d07c","getRoleMemberCount(bytes32)":"ca15c873","getStakeGettingReward()":"1ad54991","getStaker(uint256)":"e3c998fe","getStakerId(address)":"6022a485","giveBlockReward(uint256,uint256)":"746c8b65","givePenalties(uint256,uint256)":"54eae15e","giveRewards(uint256,uint256)":"fabb9890","grantRole(bytes32,address)":"2f2ff15d","hasRole(bytes32,address)":"91d14854","init(address,address,address,address)":"06552ff3","isWriter(address)":"2b29ba23","numStakers()":"6c8b052a","renounceRole(bytes32,address)":"36568abe","renounceWriter()":"df4eb59c","revokeRole(bytes32,address)":"d547741f","rewardPool()":"66666aa9","sch()":"c584bb9f","setStakerEpochLastRevealed(uint256,uint256)":"9864f70a","setStakerStake(uint256,uint256,string,uint256)":"a8a3e96f","slash(uint256,address,uint256)":"0f91ce19","stake(uint256,uint256)":"7b0472f0","stakeGettingReward()":"0ec88d3f","stakerIds(address)":"c8ae0d7d","stakers(uint256)":"fd5e6dd1","stateManager()":"2e716fb1","unstake(uint256)":"2e17de78","updateCommitmentEpoch(uint256)":"188dc83b","voteManager()":"42c1e587","withdraw(uint256)":"2e1a7d4d"}},"storageLayout":{"storage":[{"astId":6043,"contract":"StakeManager.sol:StakeManager","label":"_roles","offset":0,"slot":"0","type":"t_mapping(t_bytes32,t_struct(RoleData)6039_storage)"},{"astId":3890,"contract":"StakeManager.sol:StakeManager","label":"stakerIds","offset":0,"slot":"1","type":"t_mapping(t_address,t_uint256)"},{"astId":3894,"contract":"StakeManager.sol:StakeManager","label":"stakers","offset":0,"slot":"2","type":"t_mapping(t_uint256,t_struct(Staker)5079_storage)"},{"astId":3897,"contract":"StakeManager.sol:StakeManager","label":"numStakers","offset":0,"slot":"3","type":"t_uint256"},{"astId":3900,"contract":"StakeManager.sol:StakeManager","label":"rewardPool","offset":0,"slot":"4","type":"t_uint256"},{"astId":3903,"contract":"StakeManager.sol:StakeManager","label":"stakeGettingReward","offset":0,"slot":"5","type":"t_uint256"},{"astId":2528,"contract":"StakeManager.sol:StakeManager","label":"sch","offset":0,"slot":"6","type":"t_contract(SchellingCoin)2504"},{"astId":2530,"contract":"StakeManager.sol:StakeManager","label":"voteManager","offset":0,"slot":"7","type":"t_contract(IVoteManager)1991"},{"astId":2532,"contract":"StakeManager.sol:StakeManager","label":"blockManager","offset":0,"slot":"8","type":"t_contract(IBlockManager)1691"},{"astId":2534,"contract":"StakeManager.sol:StakeManager","label":"stateManager","offset":0,"slot":"9","type":"t_contract(IStateManager)1903"}],"types":{"t_address":{"encoding":"inplace","label":"address","numberOfBytes":"20"},"t_array(t_bytes32)dyn_storage":{"base":"t_bytes32","encoding":"dynamic_array","label":"bytes32[]","numberOfBytes":"32"},"t_bytes32":{"encoding":"inplace","label":"bytes32","numberOfBytes":"32"},"t_contract(IBlockManager)1691":{"encoding":"inplace","label":"contract IBlockManager","numberOfBytes":"20"},"t_contract(IStateManager)1903":{"encoding":"inplace","label":"contract IStateManager","numberOfBytes":"20"},"t_contract(IVoteManager)1991":{"encoding":"inplace","label":"contract IVoteManager","numberOfBytes":"20"},"t_contract(SchellingCoin)2504":{"encoding":"inplace","label":"contract SchellingCoin","numberOfBytes":"20"},"t_mapping(t_address,t_uint256)":{"encoding":"mapping","key":"t_address","label":"mapping(address => uint256)","numberOfBytes":"32","value":"t_uint256"},"t_mapping(t_bytes32,t_struct(RoleData)6039_storage)":{"encoding":"mapping","key":"t_bytes32","label":"mapping(bytes32 => struct AccessControl.RoleData)","numberOfBytes":"32","value":"t_struct(RoleData)6039_storage"},"t_mapping(t_bytes32,t_uint256)":{"encoding":"mapping","key":"t_bytes32","label":"mapping(bytes32 => uint256)","numberOfBytes":"32","value":"t_uint256"},"t_mapping(t_uint256,t_struct(Staker)5079_storage)":{"encoding":"mapping","key":"t_uint256","label":"mapping(uint256 => struct Structs.Staker)","numberOfBytes":"32","value":"t_struct(Staker)5079_storage"},"t_struct(AddressSet)6799_storage":{"encoding":"inplace","label":"struct EnumerableSet.AddressSet","members":[{"astId":6798,"contract":"StakeManager.sol:StakeManager","label":"_inner","offset":0,"slot":"0","type":"t_struct(Set)6619_storage"}],"numberOfBytes":"64"},"t_struct(RoleData)6039_storage":{"encoding":"inplace","label":"struct AccessControl.RoleData","members":[{"astId":6036,"contract":"StakeManager.sol:StakeManager","label":"members","offset":0,"slot":"0","type":"t_struct(AddressSet)6799_storage"},{"astId":6038,"contract":"StakeManager.sol:StakeManager","label":"adminRole","offset":0,"slot":"2","type":"t_bytes32"}],"numberOfBytes":"96"},"t_struct(Set)6619_storage":{"encoding":"inplace","label":"struct EnumerableSet.Set","members":[{"astId":6614,"contract":"StakeManager.sol:StakeManager","label":"_values","offset":0,"slot":"0","type":"t_array(t_bytes32)dyn_storage"},{"astId":6618,"contract":"StakeManager.sol:StakeManager","label":"_indexes","offset":0,"slot":"1","type":"t_mapping(t_bytes32,t_uint256)"}],"numberOfBytes":"64"},"t_struct(Staker)5079_storage":{"encoding":"inplace","label":"struct Structs.Staker","members":[{"astId":5064,"contract":"StakeManager.sol:StakeManager","label":"id","offset":0,"slot":"0","type":"t_uint256"},{"astId":5066,"contract":"StakeManager.sol:StakeManager","label":"_address","offset":0,"slot":"1","type":"t_address"},{"astId":5068,"contract":"StakeManager.sol:StakeManager","label":"stake","offset":0,"slot":"2","type":"t_uint256"},{"astId":5070,"contract":"StakeManager.sol:StakeManager","label":"epochStaked","offset":0,"slot":"3","type":"t_uint256"},{"astId":5072,"contract":"StakeManager.sol:StakeManager","label":"epochLastCommitted","offset":0,"slot":"4","type":"t_uint256"},{"astId":5074,"contract":"StakeManager.sol:StakeManager","label":"epochLastRevealed","offset":0,"slot":"5","type":"t_uint256"},{"astId":5076,"contract":"StakeManager.sol:StakeManager","label":"unstakeAfter","offset":0,"slot":"6","type":"t_uint256"},{"astId":5078,"contract":"StakeManager.sol:StakeManager","label":"withdrawAfter","offset":0,"slot":"7","type":"t_uint256"}],"numberOfBytes":"256"},"t_uint256":{"encoding":"inplace","label":"uint256","numberOfBytes":"32"}}},"userdoc":{"kind":"user","methods":{"calculateInactivityPenalties(uint256,uint256)":{"notice":"Calculates the inactivity penalties of the staker"},"giveBlockReward(uint256,uint256)":{"notice":"The function gives block reward for one valid proposer in the previous epoch by minting new tokens from the schelling token contract called from confirmBlock function of BlockManager contract"},"givePenalties(uint256,uint256)":{"notice":"gives penalty to stakers for failing to reveal or reveal value deviations"},"giveRewards(uint256,uint256)":{"notice":"This function is called in VoteManager reveal function to give rewards to all the stakers who have correctly staked, committed, revealed the Values of assets according to the razor protocol rules."},"slash(uint256,address,uint256)":{"notice":"The function is used by the Votemanager reveal function to penalise the staker who lost his secret and make his stake zero and transfer to bounty hunter half the schelling tokens of the stakers stake"},"stake(uint256,uint256)":{"notice":"stake during commit state only we check epoch during every transaction to avoid withholding and rebroadcasting attacks"},"unstake(uint256)":{"notice":"staker must call unstake() and continue voting for Constants.WITHDRAW_LOCK_PERIOD after which she can call withdraw() to finally Withdraw"},"withdraw(uint256)":{"notice":"Helps stakers withdraw their stake if previously unstaked"}},"notice":"StakeManager handles stake, unstake, withdraw, reward, functions for stakers","version":1}}