{"abi":[{"inputs":[],"name":"numStakers","outputs":[{"internalType":"uint256","name":"","type":"uint256"}],"stateMutability":"view","type":"function"},{"inputs":[],"name":"rewardPool","outputs":[{"internalType":"uint256","name":"","type":"uint256"}],"stateMutability":"view","type":"function"},{"inputs":[],"name":"stakeGettingReward","outputs":[{"internalType":"uint256","name":"","type":"uint256"}],"stateMutability":"view","type":"function"},{"inputs":[{"internalType":"address","name":"","type":"address"}],"name":"stakerIds","outputs":[{"internalType":"uint256","name":"","type":"uint256"}],"stateMutability":"view","type":"function"},{"inputs":[{"internalType":"uint256","name":"","type":"uint256"}],"name":"stakers","outputs":[{"internalType":"uint256","name":"id","type":"uint256"},{"internalType":"address","name":"_address","type":"address"},{"internalType":"uint256","name":"stake","type":"uint256"},{"internalType":"uint256","name":"epochStaked","type":"uint256"},{"internalType":"uint256","name":"epochLastCommitted","type":"uint256"},{"internalType":"uint256","name":"epochLastRevealed","type":"uint256"},{"internalType":"uint256","name":"unstakeAfter","type":"uint256"},{"internalType":"uint256","name":"withdrawAfter","type":"uint256"}],"stateMutability":"view","type":"function"}],"devdoc":{"kind":"dev","methods":{},"version":1},"evm":{"assembly":"    /* \"StakeStorage.sol\":91:447  contract StakeStorage {... */\n  mstore(0x40, 0x80)\n    /* \"StakeStorage.sol\":290:291  0 */\n  0x00\n    /* \"StakeStorage.sol\":262:291  uint256 public numStakers = 0 */\n  0x02\n  sstore\n    /* \"StakeStorage.sol\":358:359  0 */\n  0x00\n    /* \"StakeStorage.sol\":330:359  uint256 public rewardPool = 0 */\n  0x03\n  sstore\n    /* \"StakeStorage.sol\":401:402  0 */\n  0x00\n    /* \"StakeStorage.sol\":365:402  uint256 public stakeGettingReward = 0 */\n  0x04\n  sstore\n    /* \"StakeStorage.sol\":91:447  contract StakeStorage {... */\n  callvalue\n  dup1\n  iszero\n  tag_1\n  jumpi\n  0x00\n  dup1\n  revert\ntag_1:\n  pop\n  dataSize(sub_0)\n  dup1\n  dataOffset(sub_0)\n  0x00\n  codecopy\n  0x00\n  return\nstop\n\nsub_0: assembly {\n        /* \"StakeStorage.sol\":91:447  contract StakeStorage {... */\n      mstore(0x40, 0x80)\n      callvalue\n      dup1\n      iszero\n      tag_1\n      jumpi\n      0x00\n      dup1\n      revert\n    tag_1:\n      pop\n      jumpi(tag_2, lt(calldatasize, 0x04))\n      shr(0xe0, calldataload(0x00))\n      dup1\n      0x0ec88d3f\n      eq\n      tag_3\n      jumpi\n      dup1\n      0x66666aa9\n      eq\n      tag_4\n      jumpi\n      dup1\n      0x6c8b052a\n      eq\n      tag_5\n      jumpi\n      dup1\n      0xc8ae0d7d\n      eq\n      tag_6\n      jumpi\n      dup1\n      0xfd5e6dd1\n      eq\n      tag_7\n      jumpi\n    tag_2:\n      0x00\n      dup1\n      revert\n        /* \"StakeStorage.sol\":365:402  uint256 public stakeGettingReward = 0 */\n    tag_3:\n      tag_8\n      tag_9\n      jump\t// in\n    tag_8:\n      mload(0x40)\n      dup1\n      dup3\n      dup2\n      mstore\n      0x20\n      add\n      swap2\n      pop\n      pop\n      mload(0x40)\n      dup1\n      swap2\n      sub\n      swap1\n      return\n        /* \"StakeStorage.sol\":330:359  uint256 public rewardPool = 0 */\n    tag_4:\n      tag_10\n      tag_11\n      jump\t// in\n    tag_10:\n      mload(0x40)\n      dup1\n      dup3\n      dup2\n      mstore\n      0x20\n      add\n      swap2\n      pop\n      pop\n      mload(0x40)\n      dup1\n      swap2\n      sub\n      swap1\n      return\n        /* \"StakeStorage.sol\":262:291  uint256 public numStakers = 0 */\n    tag_5:\n      tag_12\n      tag_13\n      jump\t// in\n    tag_12:\n      mload(0x40)\n      dup1\n      dup3\n      dup2\n      mstore\n      0x20\n      add\n      swap2\n      pop\n      pop\n      mload(0x40)\n      dup1\n      swap2\n      sub\n      swap1\n      return\n        /* \"StakeStorage.sol\":155:200  mapping (address => uint256) public stakerIds */\n    tag_6:\n      tag_14\n      0x04\n      dup1\n      calldatasize\n      sub\n      0x20\n      dup2\n      lt\n      iszero\n      tag_15\n      jumpi\n      0x00\n      dup1\n      revert\n    tag_15:\n      dup2\n      add\n      swap1\n      dup1\n      dup1\n      calldataload\n      0xffffffffffffffffffffffffffffffffffffffff\n      and\n      swap1\n      0x20\n      add\n      swap1\n      swap3\n      swap2\n      swap1\n      pop\n      pop\n      pop\n      tag_16\n      jump\t// in\n    tag_14:\n      mload(0x40)\n      dup1\n      dup3\n      dup2\n      mstore\n      0x20\n      add\n      swap2\n      pop\n      pop\n      mload(0x40)\n      dup1\n      swap2\n      sub\n      swap1\n      return\n        /* \"StakeStorage.sol\":206:256  mapping (uint256 => Structs.Staker) public stakers */\n    tag_7:\n      tag_17\n      0x04\n      dup1\n      calldatasize\n      sub\n      0x20\n      dup2\n      lt\n      iszero\n      tag_18\n      jumpi\n      0x00\n      dup1\n      revert\n    tag_18:\n      dup2\n      add\n      swap1\n      dup1\n      dup1\n      calldataload\n      swap1\n      0x20\n      add\n      swap1\n      swap3\n      swap2\n      swap1\n      pop\n      pop\n      pop\n      tag_19\n      jump\t// in\n    tag_17:\n      mload(0x40)\n      dup1\n      dup10\n      dup2\n      mstore\n      0x20\n      add\n      dup9\n      0xffffffffffffffffffffffffffffffffffffffff\n      and\n      0xffffffffffffffffffffffffffffffffffffffff\n      and\n      dup2\n      mstore\n      0x20\n      add\n      dup8\n      dup2\n      mstore\n      0x20\n      add\n      dup7\n      dup2\n      mstore\n      0x20\n      add\n      dup6\n      dup2\n      mstore\n      0x20\n      add\n      dup5\n      dup2\n      mstore\n      0x20\n      add\n      dup4\n      dup2\n      mstore\n      0x20\n      add\n      dup3\n      dup2\n      mstore\n      0x20\n      add\n      swap9\n      pop\n      pop\n      pop\n      pop\n      pop\n      pop\n      pop\n      pop\n      pop\n      mload(0x40)\n      dup1\n      swap2\n      sub\n      swap1\n      return\n        /* \"StakeStorage.sol\":365:402  uint256 public stakeGettingReward = 0 */\n    tag_9:\n      sload(0x04)\n      dup2\n      jump\t// out\n        /* \"StakeStorage.sol\":330:359  uint256 public rewardPool = 0 */\n    tag_11:\n      sload(0x03)\n      dup2\n      jump\t// out\n        /* \"StakeStorage.sol\":262:291  uint256 public numStakers = 0 */\n    tag_13:\n      sload(0x02)\n      dup2\n      jump\t// out\n        /* \"StakeStorage.sol\":155:200  mapping (address => uint256) public stakerIds */\n    tag_16:\n      mstore(0x20, 0x00)\n      dup1\n      0x00\n      mstore\n      keccak256(0x00, 0x40)\n      0x00\n      swap2\n      pop\n      swap1\n      pop\n      sload\n      dup2\n      jump\t// out\n        /* \"StakeStorage.sol\":206:256  mapping (uint256 => Structs.Staker) public stakers */\n    tag_19:\n      mstore(0x20, 0x01)\n      dup1\n      0x00\n      mstore\n      keccak256(0x00, 0x40)\n      0x00\n      swap2\n      pop\n      swap1\n      pop\n      dup1\n      0x00\n      add\n      sload\n      swap1\n      dup1\n      0x01\n      add\n      0x00\n      swap1\n      sload\n      swap1\n      0x0100\n      exp\n      swap1\n      div\n      0xffffffffffffffffffffffffffffffffffffffff\n      and\n      swap1\n      dup1\n      0x02\n      add\n      sload\n      swap1\n      dup1\n      0x03\n      add\n      sload\n      swap1\n      dup1\n      0x04\n      add\n      sload\n      swap1\n      dup1\n      0x05\n      add\n      sload\n      swap1\n      dup1\n      0x06\n      add\n      sload\n      swap1\n      dup1\n      0x07\n      add\n      sload\n      swap1\n      pop\n      dup9\n      jump\t// out\n\n    auxdata: 0xa2646970667358221220411d157392a33885544d69734fa5b5b7da5f5bd6ab507ae9b51ea0c00f4f162564736f6c634300060b0033\n}\n","bytecode":{"linkReferences":{},"object":"608060405260006002556000600355600060045534801561001f57600080fd5b506102758061002f6000396000f3fe608060405234801561001057600080fd5b50600436106100575760003560e01c80630ec88d3f1461005c57806366666aa91461007a5780636c8b052a14610098578063c8ae0d7d146100b6578063fd5e6dd11461010e575b600080fd5b6100646101ad565b6040518082815260200191505060405180910390f35b6100826101b3565b6040518082815260200191505060405180910390f35b6100a06101b9565b6040518082815260200191505060405180910390f35b6100f8600480360360208110156100cc57600080fd5b81019080803573ffffffffffffffffffffffffffffffffffffffff1690602001909291905050506101bf565b6040518082815260200191505060405180910390f35b61013a6004803603602081101561012457600080fd5b81019080803590602001909291905050506101d7565b604051808981526020018873ffffffffffffffffffffffffffffffffffffffff1673ffffffffffffffffffffffffffffffffffffffff1681526020018781526020018681526020018581526020018481526020018381526020018281526020019850505050505050505060405180910390f35b60045481565b60035481565b60025481565b60006020528060005260406000206000915090505481565b60016020528060005260406000206000915090508060000154908060010160009054906101000a900473ffffffffffffffffffffffffffffffffffffffff1690806002015490806003015490806004015490806005015490806006015490806007015490508856fea2646970667358221220411d157392a33885544d69734fa5b5b7da5f5bd6ab507ae9b51ea0c00f4f162564736f6c634300060b0033","opcodes":"PUSH1 0x80 PUSH1 0x40 MSTORE PUSH1 0x0 PUSH1 0x2 SSTORE PUSH1 0x0 PUSH1 0x3 SSTORE PUSH1 0x0 PUSH1 0x4 SSTORE CALLVALUE DUP1 ISZERO PUSH2 0x1F JUMPI PUSH1 0x0 DUP1 REVERT JUMPDEST POP PUSH2 0x275 DUP1 PUSH2 0x2F PUSH1 0x0 CODECOPY PUSH1 0x0 RETURN INVALID PUSH1 0x80 PUSH1 0x40 MSTORE CALLVALUE DUP1 ISZERO PUSH2 0x10 JUMPI PUSH1 0x0 DUP1 REVERT JUMPDEST POP PUSH1 0x4 CALLDATASIZE LT PUSH2 0x57 JUMPI PUSH1 0x0 CALLDATALOAD PUSH1 0xE0 SHR DUP1 PUSH4 0xEC88D3F EQ PUSH2 0x5C JUMPI DUP1 PUSH4 0x66666AA9 EQ PUSH2 0x7A JUMPI DUP1 PUSH4 0x6C8B052A EQ PUSH2 0x98 JUMPI DUP1 PUSH4 0xC8AE0D7D EQ PUSH2 0xB6 JUMPI DUP1 PUSH4 0xFD5E6DD1 EQ PUSH2 0x10E JUMPI JUMPDEST PUSH1 0x0 DUP1 REVERT JUMPDEST PUSH2 0x64 PUSH2 0x1AD JUMP JUMPDEST PUSH1 0x40 MLOAD DUP1 DUP3 DUP2 MSTORE PUSH1 0x20 ADD SWAP2 POP POP PUSH1 0x40 MLOAD DUP1 SWAP2 SUB SWAP1 RETURN JUMPDEST PUSH2 0x82 PUSH2 0x1B3 JUMP JUMPDEST PUSH1 0x40 MLOAD DUP1 DUP3 DUP2 MSTORE PUSH1 0x20 ADD SWAP2 POP POP PUSH1 0x40 MLOAD DUP1 SWAP2 SUB SWAP1 RETURN JUMPDEST PUSH2 0xA0 PUSH2 0x1B9 JUMP JUMPDEST PUSH1 0x40 MLOAD DUP1 DUP3 DUP2 MSTORE PUSH1 0x20 ADD SWAP2 POP POP PUSH1 0x40 MLOAD DUP1 SWAP2 SUB SWAP1 RETURN JUMPDEST PUSH2 0xF8 PUSH1 0x4 DUP1 CALLDATASIZE SUB PUSH1 0x20 DUP2 LT ISZERO PUSH2 0xCC JUMPI PUSH1 0x0 DUP1 REVERT JUMPDEST DUP2 ADD SWAP1 DUP1 DUP1 CALLDATALOAD PUSH20 0xFFFFFFFFFFFFFFFFFFFFFFFFFFFFFFFFFFFFFFFF AND SWAP1 PUSH1 0x20 ADD SWAP1 SWAP3 SWAP2 SWAP1 POP POP POP PUSH2 0x1BF JUMP JUMPDEST PUSH1 0x40 MLOAD DUP1 DUP3 DUP2 MSTORE PUSH1 0x20 ADD SWAP2 POP POP PUSH1 0x40 MLOAD DUP1 SWAP2 SUB SWAP1 RETURN JUMPDEST PUSH2 0x13A PUSH1 0x4 DUP1 CALLDATASIZE SUB PUSH1 0x20 DUP2 LT ISZERO PUSH2 0x124 JUMPI PUSH1 0x0 DUP1 REVERT JUMPDEST DUP2 ADD SWAP1 DUP1 DUP1 CALLDATALOAD SWAP1 PUSH1 0x20 ADD SWAP1 SWAP3 SWAP2 SWAP1 POP POP POP PUSH2 0x1D7 JUMP JUMPDEST PUSH1 0x40 MLOAD DUP1 DUP10 DUP2 MSTORE PUSH1 0x20 ADD DUP9 PUSH20 0xFFFFFFFFFFFFFFFFFFFFFFFFFFFFFFFFFFFFFFFF AND PUSH20 0xFFFFFFFFFFFFFFFFFFFFFFFFFFFFFFFFFFFFFFFF AND DUP2 MSTORE PUSH1 0x20 ADD DUP8 DUP2 MSTORE PUSH1 0x20 ADD DUP7 DUP2 MSTORE PUSH1 0x20 ADD DUP6 DUP2 MSTORE PUSH1 0x20 ADD DUP5 DUP2 MSTORE PUSH1 0x20 ADD DUP4 DUP2 MSTORE PUSH1 0x20 ADD DUP3 DUP2 MSTORE PUSH1 0x20 ADD SWAP9 POP POP POP POP POP POP POP POP POP PUSH1 0x40 MLOAD DUP1 SWAP2 SUB SWAP1 RETURN JUMPDEST PUSH1 0x4 SLOAD DUP2 JUMP JUMPDEST PUSH1 0x3 SLOAD DUP2 JUMP JUMPDEST PUSH1 0x2 SLOAD DUP2 JUMP JUMPDEST PUSH1 0x0 PUSH1 0x20 MSTORE DUP1 PUSH1 0x0 MSTORE PUSH1 0x40 PUSH1 0x0 KECCAK256 PUSH1 0x0 SWAP2 POP SWAP1 POP SLOAD DUP2 JUMP JUMPDEST PUSH1 0x1 PUSH1 0x20 MSTORE DUP1 PUSH1 0x0 MSTORE PUSH1 0x40 PUSH1 0x0 KECCAK256 PUSH1 0x0 SWAP2 POP SWAP1 POP DUP1 PUSH1 0x0 ADD SLOAD SWAP1 DUP1 PUSH1 0x1 ADD PUSH1 0x0 SWAP1 SLOAD SWAP1 PUSH2 0x100 EXP SWAP1 DIV PUSH20 0xFFFFFFFFFFFFFFFFFFFFFFFFFFFFFFFFFFFFFFFF AND SWAP1 DUP1 PUSH1 0x2 ADD SLOAD SWAP1 DUP1 PUSH1 0x3 ADD SLOAD SWAP1 DUP1 PUSH1 0x4 ADD SLOAD SWAP1 DUP1 PUSH1 0x5 ADD SLOAD SWAP1 DUP1 PUSH1 0x6 ADD SLOAD SWAP1 DUP1 PUSH1 0x7 ADD SLOAD SWAP1 POP DUP9 JUMP INVALID LOG2 PUSH5 0x6970667358 0x22 SLT KECCAK256 COINBASE SAR ISZERO PUSH20 0x92A33885544D69734FA5B5B7DA5F5BD6AB507AE9 0xB5 0x1E LOG0 0xC0 0xF 0x4F AND 0x25 PUSH5 0x736F6C6343 STOP MOD SIGNEXTEND STOP CALLER "},"gasEstimates":{"creation":{"codeDepositCost":"125800","executionCost":"15189","totalCost":"140989"},"external":{"numStakers()":"1027","rewardPool()":"1005","stakeGettingReward()":"983","stakerIds(address)":"1213","stakers(uint256)":"7115"}},"methodIdentifiers":{"numStakers()":"6c8b052a","rewardPool()":"66666aa9","stakeGettingReward()":"0ec88d3f","stakerIds(address)":"c8ae0d7d","stakers(uint256)":"fd5e6dd1"}},"storageLayout":{"storage":[{"astId":3890,"contract":"StakeStorage.sol:StakeStorage","label":"stakerIds","offset":0,"slot":"0","type":"t_mapping(t_address,t_uint256)"},{"astId":3894,"contract":"StakeStorage.sol:StakeStorage","label":"stakers","offset":0,"slot":"1","type":"t_mapping(t_uint256,t_struct(Staker)5079_storage)"},{"astId":3897,"contract":"StakeStorage.sol:StakeStorage","label":"numStakers","offset":0,"slot":"2","type":"t_uint256"},{"astId":3900,"contract":"StakeStorage.sol:StakeStorage","label":"rewardPool","offset":0,"slot":"3","type":"t_uint256"},{"astId":3903,"contract":"StakeStorage.sol:StakeStorage","label":"stakeGettingReward","offset":0,"slot":"4","type":"t_uint256"}],"types":{"t_address":{"encoding":"inplace","label":"address","numberOfBytes":"20"},"t_mapping(t_address,t_uint256)":{"encoding":"mapping","key":"t_address","label":"mapping(address => uint256)","numberOfBytes":"32","value":"t_uint256"},"t_mapping(t_uint256,t_struct(Staker)5079_storage)":{"encoding":"mapping","key":"t_uint256","label":"mapping(uint256 => struct Structs.Staker)","numberOfBytes":"32","value":"t_struct(Staker)5079_storage"},"t_struct(Staker)5079_storage":{"encoding":"inplace","label":"struct Structs.Staker","members":[{"astId":5064,"contract":"StakeStorage.sol:StakeStorage","label":"id","offset":0,"slot":"0","type":"t_uint256"},{"astId":5066,"contract":"StakeStorage.sol:StakeStorage","label":"_address","offset":0,"slot":"1","type":"t_address"},{"astId":5068,"contract":"StakeStorage.sol:StakeStorage","label":"stake","offset":0,"slot":"2","type":"t_uint256"},{"astId":5070,"contract":"StakeStorage.sol:StakeStorage","label":"epochStaked","offset":0,"slot":"3","type":"t_uint256"},{"astId":5072,"contract":"StakeStorage.sol:StakeStorage","label":"epochLastCommitted","offset":0,"slot":"4","type":"t_uint256"},{"astId":5074,"contract":"StakeStorage.sol:StakeStorage","label":"epochLastRevealed","offset":0,"slot":"5","type":"t_uint256"},{"astId":5076,"contract":"StakeStorage.sol:StakeStorage","label":"unstakeAfter","offset":0,"slot":"6","type":"t_uint256"},{"astId":5078,"contract":"StakeStorage.sol:StakeStorage","label":"withdrawAfter","offset":0,"slot":"7","type":"t_uint256"}],"numberOfBytes":"256"},"t_uint256":{"encoding":"inplace","label":"uint256","numberOfBytes":"32"}}},"userdoc":{"kind":"user","methods":{},"version":1}}