{"abi":[{"anonymous":false,"inputs":[{"indexed":false,"internalType":"uint256","name":"epoch","type":"uint256"},{"indexed":false,"internalType":"uint256","name":"stakerId","type":"uint256"},{"indexed":false,"internalType":"bytes32","name":"commitment","type":"bytes32"},{"indexed":false,"internalType":"uint256","name":"timestamp","type":"uint256"}],"name":"Committed","type":"event"},{"anonymous":false,"inputs":[{"indexed":false,"internalType":"uint256","name":"a","type":"uint256"}],"name":"DebugUint256","type":"event"},{"anonymous":false,"inputs":[{"indexed":false,"internalType":"uint256","name":"epoch","type":"uint256"},{"indexed":false,"internalType":"uint256","name":"stakerId","type":"uint256"},{"indexed":false,"internalType":"uint256","name":"stake","type":"uint256"},{"indexed":false,"internalType":"uint256[]","name":"values","type":"uint256[]"},{"indexed":false,"internalType":"uint256","name":"timestamp","type":"uint256"}],"name":"Revealed","type":"event"},{"inputs":[],"name":"blockManager","outputs":[{"internalType":"contract IBlockManager","name":"","type":"address"}],"stateMutability":"view","type":"function"},{"inputs":[{"internalType":"uint256","name":"epoch","type":"uint256"},{"internalType":"bytes32","name":"commitment","type":"bytes32"}],"name":"commit","outputs":[],"stateMutability":"nonpayable","type":"function"},{"inputs":[{"internalType":"uint256","name":"","type":"uint256"},{"internalType":"uint256","name":"","type":"uint256"}],"name":"commitments","outputs":[{"internalType":"bytes32","name":"","type":"bytes32"}],"stateMutability":"view","type":"function"},{"inputs":[{"internalType":"uint256","name":"epoch","type":"uint256"},{"internalType":"uint256","name":"stakerId","type":"uint256"}],"name":"getCommitment","outputs":[{"internalType":"bytes32","name":"","type":"bytes32"}],"stateMutability":"view","type":"function"},{"inputs":[{"internalType":"uint256","name":"epoch","type":"uint256"},{"internalType":"uint256","name":"assetId","type":"uint256"}],"name":"getTotalStakeRevealed","outputs":[{"internalType":"uint256","name":"","type":"uint256"}],"stateMutability":"view","type":"function"},{"inputs":[{"internalType":"uint256","name":"epoch","type":"uint256"},{"internalType":"uint256","name":"assetId","type":"uint256"},{"internalType":"uint256","name":"voteValue","type":"uint256"}],"name":"getTotalStakeRevealed","outputs":[{"internalType":"uint256","name":"","type":"uint256"}],"stateMutability":"view","type":"function"},{"inputs":[{"internalType":"uint256","name":"epoch","type":"uint256"},{"internalType":"uint256","name":"stakerId","type":"uint256"},{"internalType":"uint256","name":"assetId","type":"uint256"}],"name":"getVote","outputs":[{"components":[{"internalType":"uint256","name":"value","type":"uint256"},{"internalType":"uint256","name":"weight","type":"uint256"}],"internalType":"struct Structs.Vote","name":"vote","type":"tuple"}],"stateMutability":"view","type":"function"},{"inputs":[{"internalType":"uint256","name":"epoch","type":"uint256"},{"internalType":"uint256","name":"assetId","type":"uint256"},{"internalType":"uint256","name":"voteValue","type":"uint256"}],"name":"getVoteWeight","outputs":[{"internalType":"uint256","name":"","type":"uint256"}],"stateMutability":"view","type":"function"},{"inputs":[{"internalType":"address","name":"_stakeManagerAddress","type":"address"},{"internalType":"address","name":"_stateManagerAddress","type":"address"},{"internalType":"address","name":"_blockManagerAddress","type":"address"}],"name":"init","outputs":[],"stateMutability":"nonpayable","type":"function"},{"inputs":[{"internalType":"uint256","name":"epoch","type":"uint256"},{"internalType":"bytes32","name":"root","type":"bytes32"},{"internalType":"uint256[]","name":"values","type":"uint256[]"},{"internalType":"bytes32[][]","name":"proofs","type":"bytes32[][]"},{"internalType":"bytes32","name":"secret","type":"bytes32"},{"internalType":"address","name":"stakerAddress","type":"address"}],"name":"reveal","outputs":[],"stateMutability":"nonpayable","type":"function"},{"inputs":[],"name":"stakeManager","outputs":[{"internalType":"contract IStakeManager","name":"","type":"address"}],"stateMutability":"view","type":"function"},{"inputs":[],"name":"stateManager","outputs":[{"internalType":"contract IStateManager","name":"","type":"address"}],"stateMutability":"view","type":"function"},{"inputs":[{"internalType":"uint256","name":"","type":"uint256"},{"internalType":"uint256","name":"","type":"uint256"}],"name":"totalStakeRevealed","outputs":[{"internalType":"uint256","name":"","type":"uint256"}],"stateMutability":"view","type":"function"},{"inputs":[{"internalType":"uint256","name":"","type":"uint256"},{"internalType":"uint256","name":"","type":"uint256"},{"internalType":"uint256","name":"","type":"uint256"}],"name":"voteWeights","outputs":[{"internalType":"uint256","name":"","type":"uint256"}],"stateMutability":"view","type":"function"},{"inputs":[{"internalType":"uint256","name":"","type":"uint256"},{"internalType":"uint256","name":"","type":"uint256"},{"internalType":"uint256","name":"","type":"uint256"}],"name":"votes","outputs":[{"internalType":"uint256","name":"value","type":"uint256"},{"internalType":"uint256","name":"weight","type":"uint256"}],"stateMutability":"view","type":"function"}],"devdoc":{"kind":"dev","methods":{},"version":1},"evm":{"assembly":"    /* \"VoteManager.sol\":466:5861  contract VoteManager is  Utils, VoteStorage {... */\n  mstore(0x40, 0x80)\n  callvalue\n  dup1\n  iszero\n  tag_1\n  jumpi\n  0x00\n  dup1\n  revert\ntag_1:\n  pop\n  dataSize(sub_0)\n  dup1\n  dataOffset(sub_0)\n  0x00\n  codecopy\n  0x00\n  return\nstop\n\nsub_0: assembly {\n        /* \"VoteManager.sol\":466:5861  contract VoteManager is  Utils, VoteStorage {... */\n      mstore(0x40, 0x80)\n      callvalue\n      dup1\n      iszero\n      tag_1\n      jumpi\n      0x00\n      dup1\n      revert\n    tag_1:\n      pop\n      jumpi(tag_2, lt(calldatasize, 0x04))\n      shr(0xe0, calldataload(0x00))\n      dup1\n      0x8ce7ff4a\n      gt\n      tag_18\n      jumpi\n      dup1\n      0xd13e2e60\n      gt\n      tag_19\n      jumpi\n      dup1\n      0xd13e2e60\n      eq\n      tag_14\n      jumpi\n      dup1\n      0xd9169b32\n      eq\n      tag_15\n      jumpi\n      dup1\n      0xf2f03877\n      eq\n      tag_16\n      jumpi\n      dup1\n      0xf322bd7d\n      eq\n      tag_17\n      jumpi\n      jump(tag_2)\n    tag_19:\n      dup1\n      0x8ce7ff4a\n      eq\n      tag_10\n      jumpi\n      dup1\n      0x8fd5ff00\n      eq\n      tag_11\n      jumpi\n      dup1\n      0x9c66556f\n      eq\n      tag_12\n      jumpi\n      dup1\n      0xa6a145d9\n      eq\n      tag_13\n      jumpi\n      jump(tag_2)\n    tag_18:\n      dup1\n      0x2e716fb1\n      gt\n      tag_20\n      jumpi\n      dup1\n      0x2e716fb1\n      eq\n      tag_6\n      jumpi\n      dup1\n      0x7164f0d6\n      eq\n      tag_7\n      jumpi\n      dup1\n      0x7542ff95\n      eq\n      tag_8\n      jumpi\n      dup1\n      0x8a757ecc\n      eq\n      tag_9\n      jumpi\n      jump(tag_2)\n    tag_20:\n      dup1\n      0x125f68f1\n      eq\n      tag_3\n      jumpi\n      dup1\n      0x184b9559\n      eq\n      tag_4\n      jumpi\n      dup1\n      0x283e2905\n      eq\n      tag_5\n      jumpi\n    tag_2:\n      0x00\n      dup1\n      revert\n        /* \"VoteManager.sol\":3705:5859  function reveal (uint256 epoch, bytes32 root, uint256[] memory values,... */\n    tag_3:\n      tag_21\n      0x04\n      dup1\n      calldatasize\n      sub\n      dup2\n      add\n      swap1\n      tag_22\n      swap2\n      swap1\n      tag_23\n      jump\t// in\n    tag_22:\n      tag_24\n      jump\t// in\n    tag_21:\n      stop\n        /* \"VoteManager.sol\":926:1225  function init (address _stakeManagerAddress, address _stateManagerAddress, address _blockManagerAddress) public {... */\n    tag_4:\n      tag_25\n      0x04\n      dup1\n      calldatasize\n      sub\n      dup2\n      add\n      swap1\n      tag_26\n      swap2\n      swap1\n      tag_27\n      jump\t// in\n    tag_26:\n      tag_28\n      jump\t// in\n    tag_25:\n      stop\n        /* \"VoteStorage.sol\":264:353  mapping (uint256 => mapping (uint256 =>  mapping (uint256 => Structs.Vote))) public votes */\n    tag_5:\n      tag_29\n      0x04\n      dup1\n      calldatasize\n      sub\n      dup2\n      add\n      swap1\n      tag_30\n      swap2\n      swap1\n      tag_31\n      jump\t// in\n    tag_30:\n      tag_32\n      jump\t// in\n    tag_29:\n      mload(0x40)\n      tag_33\n      swap3\n      swap2\n      swap1\n      tag_34\n      jump\t// in\n    tag_33:\n      mload(0x40)\n      dup1\n      swap2\n      sub\n      swap1\n      return\n        /* \"VoteManager.sol\":587:620  IStateManager public stateManager */\n    tag_6:\n      tag_35\n      tag_36\n      jump\t// in\n    tag_35:\n      mload(0x40)\n      tag_37\n      swap2\n      swap1\n      tag_38\n      jump\t// in\n    tag_37:\n      mload(0x40)\n      dup1\n      swap2\n      sub\n      swap1\n      return\n        /* \"VoteManager.sol\":1325:1582  function getCommitment(uint256 epoch, uint256 stakerId) public view returns(bytes32) {... */\n    tag_7:\n      tag_39\n      0x04\n      dup1\n      calldatasize\n      sub\n      dup2\n      add\n      swap1\n      tag_40\n      swap2\n      swap1\n      tag_41\n      jump\t// in\n    tag_40:\n      tag_42\n      jump\t// in\n    tag_39:\n      mload(0x40)\n      tag_43\n      swap2\n      swap1\n      tag_44\n      jump\t// in\n    tag_43:\n      mload(0x40)\n      dup1\n      swap2\n      sub\n      swap1\n      return\n        /* \"VoteManager.sol\":548:581  IStakeManager public stakeManager */\n    tag_8:\n      tag_45\n      tag_46\n      jump\t// in\n    tag_45:\n      mload(0x40)\n      tag_47\n      swap2\n      swap1\n      tag_48\n      jump\t// in\n    tag_47:\n      mload(0x40)\n      dup1\n      swap2\n      sub\n      swap1\n      return\n        /* \"VoteStorage.sol\":396:472  mapping (uint256 =>  mapping (uint256 => uint256)) public totalStakeRevealed */\n    tag_9:\n      tag_49\n      0x04\n      dup1\n      calldatasize\n      sub\n      dup2\n      add\n      swap1\n      tag_50\n      swap2\n      swap1\n      tag_41\n      jump\t// in\n    tag_50:\n      tag_51\n      jump\t// in\n    tag_49:\n      mload(0x40)\n      tag_52\n      swap2\n      swap1\n      tag_53\n      jump\t// in\n    tag_52:\n      mload(0x40)\n      dup1\n      swap2\n      sub\n      swap1\n      return\n        /* \"VoteManager.sol\":1588:1900  function getVote(uint256 epoch, uint256 stakerId, uint256 assetId) public view returns(Structs.Vote memory vote) {... */\n    tag_10:\n      tag_54\n      0x04\n      dup1\n      calldatasize\n      sub\n      dup2\n      add\n      swap1\n      tag_55\n      swap2\n      swap1\n      tag_31\n      jump\t// in\n    tag_55:\n      tag_56\n      jump\t// in\n    tag_54:\n      mload(0x40)\n      tag_57\n      swap2\n      swap1\n      tag_58\n      jump\t// in\n    tag_57:\n      mload(0x40)\n      dup1\n      swap2\n      sub\n      swap1\n      return\n        /* \"VoteStorage.sol\":518:608  mapping (uint256 => mapping (uint256 =>  mapping (uint256 => uint256))) public voteWeights */\n    tag_11:\n      tag_59\n      0x04\n      dup1\n      calldatasize\n      sub\n      dup2\n      add\n      swap1\n      tag_60\n      swap2\n      swap1\n      tag_31\n      jump\t// in\n    tag_60:\n      tag_61\n      jump\t// in\n    tag_59:\n      mload(0x40)\n      tag_62\n      swap2\n      swap1\n      tag_53\n      jump\t// in\n    tag_62:\n      mload(0x40)\n      dup1\n      swap2\n      sub\n      swap1\n      return\n        /* \"VoteManager.sol\":1906:2223  function getVoteWeight(uint256 epoch, uint256 assetId, uint256 voteValue)... */\n    tag_12:\n      tag_63\n      0x04\n      dup1\n      calldatasize\n      sub\n      dup2\n      add\n      swap1\n      tag_64\n      swap2\n      swap1\n      tag_31\n      jump\t// in\n    tag_64:\n      tag_65\n      jump\t// in\n    tag_63:\n      mload(0x40)\n      tag_66\n      swap2\n      swap1\n      tag_53\n      jump\t// in\n    tag_66:\n      mload(0x40)\n      dup1\n      swap2\n      sub\n      swap1\n      return\n        /* \"VoteManager.sol\":2229:2510  function getTotalStakeRevealed(uint256 epoch, uint256 assetId) public view returns(uint256) {... */\n    tag_13:\n      tag_67\n      0x04\n      dup1\n      calldatasize\n      sub\n      dup2\n      add\n      swap1\n      tag_68\n      swap2\n      swap1\n      tag_41\n      jump\t// in\n    tag_68:\n      tag_69\n      jump\t// in\n    tag_67:\n      mload(0x40)\n      tag_70\n      swap2\n      swap1\n      tag_53\n      jump\t// in\n    tag_70:\n      mload(0x40)\n      dup1\n      swap2\n      sub\n      swap1\n      return\n        /* \"VoteStorage.sol\":153:221  mapping (uint256 => mapping (uint256 => bytes32)) public commitments */\n    tag_14:\n      tag_71\n      0x04\n      dup1\n      calldatasize\n      sub\n      dup2\n      add\n      swap1\n      tag_72\n      swap2\n      swap1\n      tag_41\n      jump\t// in\n    tag_72:\n      tag_73\n      jump\t// in\n    tag_71:\n      mload(0x40)\n      tag_74\n      swap2\n      swap1\n      tag_44\n      jump\t// in\n    tag_74:\n      mload(0x40)\n      dup1\n      swap2\n      sub\n      swap1\n      return\n        /* \"VoteManager.sol\":626:659  IBlockManager public blockManager */\n    tag_15:\n      tag_75\n      tag_76\n      jump\t// in\n    tag_75:\n      mload(0x40)\n      tag_77\n      swap2\n      swap1\n      tag_78\n      jump\t// in\n    tag_77:\n      mload(0x40)\n      dup1\n      swap2\n      sub\n      swap1\n      return\n        /* \"VoteManager.sol\":2843:3593  function commit (uint256 epoch, bytes32 commitment) public checkEpoch(epoch) checkState(Constants.commit()) {... */\n    tag_16:\n      tag_79\n      0x04\n      dup1\n      calldatasize\n      sub\n      dup2\n      add\n      swap1\n      tag_80\n      swap2\n      swap1\n      tag_81\n      jump\t// in\n    tag_80:\n      tag_82\n      jump\t// in\n    tag_79:\n      stop\n        /* \"VoteManager.sol\":2516:2837  function getTotalStakeRevealed(uint256 epoch, uint256 assetId, uint256 voteValue) public view returns(uint256) {... */\n    tag_17:\n      tag_83\n      0x04\n      dup1\n      calldatasize\n      sub\n      dup2\n      add\n      swap1\n      tag_84\n      swap2\n      swap1\n      tag_31\n      jump\t// in\n    tag_84:\n      tag_85\n      jump\t// in\n    tag_83:\n      mload(0x40)\n      tag_86\n      swap2\n      swap1\n      tag_53\n      jump\t// in\n    tag_86:\n      mload(0x40)\n      dup1\n      swap2\n      sub\n      swap1\n      return\n        /* \"VoteManager.sol\":3705:5859  function reveal (uint256 epoch, bytes32 root, uint256[] memory values,... */\n    tag_24:\n        /* \"VoteManager.sol\":3888:3893  epoch */\n      dup6\n        /* \"VoteManager.sol\":729:741  stateManager */\n      0x05\n      0x00\n      swap1\n      sload\n      swap1\n      0x0100\n      exp\n      swap1\n      div\n      0xffffffffffffffffffffffffffffffffffffffff\n      and\n        /* \"VoteManager.sol\":729:750  stateManager.getEpoch */\n      0xffffffffffffffffffffffffffffffffffffffff\n      and\n      0x757991a8\n        /* \"VoteManager.sol\":729:752  stateManager.getEpoch() */\n      mload(0x40)\n      dup2\n      0xffffffff\n      and\n      0xe0\n      shl\n      dup2\n      mstore\n      0x04\n      add\n      0x20\n      mload(0x40)\n      dup1\n      dup4\n      sub\n      dup2\n      dup7\n      dup1\n      extcodesize\n      iszero\n      dup1\n      iszero\n      tag_88\n      jumpi\n      0x00\n      dup1\n      revert\n    tag_88:\n      pop\n      gas\n      staticcall\n      iszero\n      dup1\n      iszero\n      tag_90\n      jumpi\n      returndatasize\n      0x00\n      dup1\n      returndatacopy\n      revert(0x00, returndatasize)\n    tag_90:\n      pop\n      pop\n      pop\n      pop\n      mload(0x40)\n      returndatasize\n      not(0x1f)\n      0x1f\n      dup3\n      add\n      and\n      dup3\n      add\n      dup1\n      0x40\n      mstore\n      pop\n      dup2\n      add\n      swap1\n      tag_91\n      swap2\n      swap1\n      tag_92\n      jump\t// in\n    tag_91:\n        /* \"VoteManager.sol\":720:725  epoch */\n      dup2\n        /* \"VoteManager.sol\":720:752  epoch == stateManager.getEpoch() */\n      eq\n        /* \"VoteManager.sol\":712:772  require(epoch == stateManager.getEpoch(), \"incorrect epoch\") */\n      tag_93\n      jumpi\n      mload(0x40)\n      0x08c379a000000000000000000000000000000000000000000000000000000000\n      dup2\n      mstore\n      0x04\n      add\n      tag_94\n      swap1\n      tag_95\n      jump\t// in\n    tag_94:\n      mload(0x40)\n      dup1\n      swap2\n      sub\n      swap1\n      revert\n    tag_93:\n        /* \"VoteManager.sol\":3905:3925  uint256 thisStakerId */\n      0x00\n        /* \"VoteManager.sol\":3928:3940  stakeManager */\n      0x04\n      0x00\n      swap1\n      sload\n      swap1\n      0x0100\n      exp\n      swap1\n      div\n      0xffffffffffffffffffffffffffffffffffffffff\n      and\n        /* \"VoteManager.sol\":3928:3952  stakeManager.getStakerId */\n      0xffffffffffffffffffffffffffffffffffffffff\n      and\n      0x6022a485\n        /* \"VoteManager.sol\":3953:3966  stakerAddress */\n      dup5\n        /* \"VoteManager.sol\":3928:3967  stakeManager.getStakerId(stakerAddress) */\n      mload(0x40)\n      dup3\n      0xffffffff\n      and\n      0xe0\n      shl\n      dup2\n      mstore\n      0x04\n      add\n      tag_97\n      swap2\n      swap1\n      tag_98\n      jump\t// in\n    tag_97:\n      0x20\n      mload(0x40)\n      dup1\n      dup4\n      sub\n      dup2\n      dup7\n      dup1\n      extcodesize\n      iszero\n      dup1\n      iszero\n      tag_99\n      jumpi\n      0x00\n      dup1\n      revert\n    tag_99:\n      pop\n      gas\n      staticcall\n      iszero\n      dup1\n      iszero\n      tag_101\n      jumpi\n      returndatasize\n      0x00\n      dup1\n      returndatacopy\n      revert(0x00, returndatasize)\n    tag_101:\n      pop\n      pop\n      pop\n      pop\n      mload(0x40)\n      returndatasize\n      not(0x1f)\n      0x1f\n      dup3\n      add\n      and\n      dup3\n      add\n      dup1\n      0x40\n      mstore\n      pop\n      dup2\n      add\n      swap1\n      tag_102\n      swap2\n      swap1\n      tag_92\n      jump\t// in\n    tag_102:\n        /* \"VoteManager.sol\":3905:3967  uint256 thisStakerId = stakeManager.getStakerId(stakerAddress) */\n      swap1\n      pop\n        /* \"VoteManager.sol\":4000:4001  0 */\n      0x00\n        /* \"VoteManager.sol\":3985:3997  thisStakerId */\n      dup2\n        /* \"VoteManager.sol\":3985:4001  thisStakerId > 0 */\n      gt\n        /* \"VoteManager.sol\":3977:4035  require(thisStakerId > 0, \"Structs.Staker does not exist\") */\n      tag_103\n      jumpi\n      mload(0x40)\n      0x08c379a000000000000000000000000000000000000000000000000000000000\n      dup2\n      mstore\n      0x04\n      add\n      tag_104\n      swap1\n      tag_105\n      jump\t// in\n    tag_104:\n      mload(0x40)\n      dup1\n      swap2\n      sub\n      swap1\n      revert\n    tag_103:\n        /* \"VoteManager.sol\":4045:4077  Structs.Staker memory thisStaker */\n      tag_106\n      tag_107\n      jump\t// in\n    tag_106:\n        /* \"VoteManager.sol\":4080:4092  stakeManager */\n      0x04\n      0x00\n      swap1\n      sload\n      swap1\n      0x0100\n      exp\n      swap1\n      div\n      0xffffffffffffffffffffffffffffffffffffffff\n      and\n        /* \"VoteManager.sol\":4080:4102  stakeManager.getStaker */\n      0xffffffffffffffffffffffffffffffffffffffff\n      and\n      0xe3c998fe\n        /* \"VoteManager.sol\":4103:4115  thisStakerId */\n      dup4\n        /* \"VoteManager.sol\":4080:4116  stakeManager.getStaker(thisStakerId) */\n      mload(0x40)\n      dup3\n      0xffffffff\n      and\n      0xe0\n      shl\n      dup2\n      mstore\n      0x04\n      add\n      tag_108\n      swap2\n      swap1\n      tag_53\n      jump\t// in\n    tag_108:\n      0x0100\n      mload(0x40)\n      dup1\n      dup4\n      sub\n      dup2\n      dup7\n      dup1\n      extcodesize\n      iszero\n      dup1\n      iszero\n      tag_109\n      jumpi\n      0x00\n      dup1\n      revert\n    tag_109:\n      pop\n      gas\n      staticcall\n      iszero\n      dup1\n      iszero\n      tag_111\n      jumpi\n      returndatasize\n      0x00\n      dup1\n      returndatacopy\n      revert(0x00, returndatasize)\n    tag_111:\n      pop\n      pop\n      pop\n      pop\n      mload(0x40)\n      returndatasize\n      not(0x1f)\n      0x1f\n      dup3\n      add\n      and\n      dup3\n      add\n      dup1\n      0x40\n      mstore\n      pop\n      dup2\n      add\n      swap1\n      tag_112\n      swap2\n      swap1\n      tag_113\n      jump\t// in\n    tag_112:\n        /* \"VoteManager.sol\":4045:4116  Structs.Staker memory thisStaker = stakeManager.getStaker(thisStakerId) */\n      swap1\n      pop\n        /* \"VoteManager.sol\":4170:4173  0x0 */\n      0x00\n        /* \"VoteManager.sol\":4134:4173  commitments[epoch][thisStakerId] != 0x0 */\n      dup1\n      shl\n        /* \"VoteManager.sol\":4134:4145  commitments */\n      0x00\n        /* \"VoteManager.sol\":4134:4152  commitments[epoch] */\n      dup1\n        /* \"VoteManager.sol\":4146:4151  epoch */\n      dup12\n        /* \"VoteManager.sol\":4134:4152  commitments[epoch] */\n      dup2\n      mstore\n      0x20\n      add\n      swap1\n      dup2\n      mstore\n      0x20\n      add\n      0x00\n      keccak256\n        /* \"VoteManager.sol\":4134:4166  commitments[epoch][thisStakerId] */\n      0x00\n        /* \"VoteManager.sol\":4153:4165  thisStakerId */\n      dup5\n        /* \"VoteManager.sol\":4134:4166  commitments[epoch][thisStakerId] */\n      dup2\n      mstore\n      0x20\n      add\n      swap1\n      dup2\n      mstore\n      0x20\n      add\n      0x00\n      keccak256\n      sload\n        /* \"VoteManager.sol\":4134:4173  commitments[epoch][thisStakerId] != 0x0 */\n      eq\n      iszero\n        /* \"VoteManager.sol\":4126:4210  require(commitments[epoch][thisStakerId] != 0x0, \"not commited or already revealed\") */\n      tag_114\n      jumpi\n      mload(0x40)\n      0x08c379a000000000000000000000000000000000000000000000000000000000\n      dup2\n      mstore\n      0x04\n      add\n      tag_115\n      swap1\n      tag_116\n      jump\t// in\n    tag_115:\n      mload(0x40)\n      dup1\n      swap2\n      sub\n      swap1\n      revert\n    tag_114:\n        /* \"VoteManager.sol\":4339:4350  commitments */\n      0x00\n        /* \"VoteManager.sol\":4339:4357  commitments[epoch] */\n      dup1\n        /* \"VoteManager.sol\":4351:4356  epoch */\n      dup11\n        /* \"VoteManager.sol\":4339:4357  commitments[epoch] */\n      dup2\n      mstore\n      0x20\n      add\n      swap1\n      dup2\n      mstore\n      0x20\n      add\n      0x00\n      keccak256\n        /* \"VoteManager.sol\":4339:4371  commitments[epoch][thisStakerId] */\n      0x00\n        /* \"VoteManager.sol\":4358:4370  thisStakerId */\n      dup4\n        /* \"VoteManager.sol\":4339:4371  commitments[epoch][thisStakerId] */\n      dup2\n      mstore\n      0x20\n      add\n      swap1\n      dup2\n      mstore\n      0x20\n      add\n      0x00\n      keccak256\n      sload\n        /* \"VoteManager.sol\":4314:4319  epoch */\n      dup10\n        /* \"VoteManager.sol\":4321:4325  root */\n      dup10\n        /* \"VoteManager.sol\":4327:4333  secret */\n      dup8\n        /* \"VoteManager.sol\":4297:4334  abi.encodePacked(epoch, root, secret) */\n      add(0x20, mload(0x40))\n      tag_117\n      swap4\n      swap3\n      swap2\n      swap1\n      tag_118\n      jump\t// in\n    tag_117:\n      mload(0x40)\n      0x20\n      dup2\n      dup4\n      sub\n      sub\n      dup2\n      mstore\n      swap1\n      0x40\n      mstore\n        /* \"VoteManager.sol\":4287:4335  keccak256(abi.encodePacked(epoch, root, secret)) */\n      dup1\n      mload\n      swap1\n      0x20\n      add\n      keccak256\n        /* \"VoteManager.sol\":4287:4371  keccak256(abi.encodePacked(epoch, root, secret)) == commitments[epoch][thisStakerId] */\n      eq\n        /* \"VoteManager.sol\":4279:4414  require(keccak256(abi.encodePacked(epoch, root, secret)) == commitments[epoch][thisStakerId],... */\n      tag_119\n      jumpi\n      mload(0x40)\n      0x08c379a000000000000000000000000000000000000000000000000000000000\n      dup2\n      mstore\n      0x04\n      add\n      tag_120\n      swap1\n      tag_121\n      jump\t// in\n    tag_120:\n      mload(0x40)\n      dup1\n      swap2\n      sub\n      swap1\n      revert\n    tag_119:\n        /* \"VoteManager.sol\":4470:4483  stakerAddress */\n      dup4\n        /* \"VoteManager.sol\":4456:4483  msg.sender == stakerAddress */\n      0xffffffffffffffffffffffffffffffffffffffff\n      and\n        /* \"VoteManager.sol\":4456:4466  msg.sender */\n      caller\n        /* \"VoteManager.sol\":4456:4483  msg.sender == stakerAddress */\n      0xffffffffffffffffffffffffffffffffffffffff\n      and\n      eq\n        /* \"VoteManager.sol\":4452:5853  if (msg.sender == stakerAddress) {... */\n      iszero\n      tag_122\n      jumpi\n        /* \"VoteManager.sol\":4534:4543  Constants */\n      linkerSymbol(\"e861534859442f2de25279a5ccd1626413b62699ca8b37407da3a6bf3bbbfee5\")\n        /* \"VoteManager.sol\":4534:4550  Constants.reveal */\n      0xa475b5dd\n        /* \"VoteManager.sol\":4534:4552  Constants.reveal() */\n      mload(0x40)\n      dup2\n      0xffffffff\n      and\n      0xe0\n      shl\n      dup2\n      mstore\n      0x04\n      add\n      0x20\n      mload(0x40)\n      dup1\n      dup4\n      sub\n      dup2\n      dup7\n      dup1\n      extcodesize\n      iszero\n      dup1\n      iszero\n      tag_123\n      jumpi\n      0x00\n      dup1\n      revert\n    tag_123:\n      pop\n      gas\n      delegatecall\n      iszero\n      dup1\n      iszero\n      tag_125\n      jumpi\n      returndatasize\n      0x00\n      dup1\n      returndatacopy\n      revert(0x00, returndatasize)\n    tag_125:\n      pop\n      pop\n      pop\n      pop\n      mload(0x40)\n      returndatasize\n      not(0x1f)\n      0x1f\n      dup3\n      add\n      and\n      dup3\n      add\n      dup1\n      0x40\n      mstore\n      pop\n      dup2\n      add\n      swap1\n      tag_126\n      swap2\n      swap1\n      tag_127\n      jump\t// in\n    tag_126:\n        /* \"VoteManager.sol\":4507:4552  stateManager.getState() == Constants.reveal() */\n      0xff\n      and\n        /* \"VoteManager.sol\":4507:4519  stateManager */\n      0x05\n      0x00\n      swap1\n      sload\n      swap1\n      0x0100\n      exp\n      swap1\n      div\n      0xffffffffffffffffffffffffffffffffffffffff\n      and\n        /* \"VoteManager.sol\":4507:4528  stateManager.getState */\n      0xffffffffffffffffffffffffffffffffffffffff\n      and\n      0x1865c57d\n        /* \"VoteManager.sol\":4507:4530  stateManager.getState() */\n      mload(0x40)\n      dup2\n      0xffffffff\n      and\n      0xe0\n      shl\n      dup2\n      mstore\n      0x04\n      add\n      0x20\n      mload(0x40)\n      dup1\n      dup4\n      sub\n      dup2\n      dup7\n      dup1\n      extcodesize\n      iszero\n      dup1\n      iszero\n      tag_128\n      jumpi\n      0x00\n      dup1\n      revert\n    tag_128:\n      pop\n      gas\n      staticcall\n      iszero\n      dup1\n      iszero\n      tag_130\n      jumpi\n      returndatasize\n      0x00\n      dup1\n      returndatacopy\n      revert(0x00, returndatasize)\n    tag_130:\n      pop\n      pop\n      pop\n      pop\n      mload(0x40)\n      returndatasize\n      not(0x1f)\n      0x1f\n      dup3\n      add\n      and\n      dup3\n      add\n      dup1\n      0x40\n      mstore\n      pop\n      dup2\n      add\n      swap1\n      tag_131\n      swap2\n      swap1\n      tag_92\n      jump\t// in\n    tag_131:\n        /* \"VoteManager.sol\":4507:4552  stateManager.getState() == Constants.reveal() */\n      eq\n        /* \"VoteManager.sol\":4499:4573  require(stateManager.getState() == Constants.reveal(), \"Not reveal state\") */\n      tag_132\n      jumpi\n      mload(0x40)\n      0x08c379a000000000000000000000000000000000000000000000000000000000\n      dup2\n      mstore\n      0x04\n      add\n      tag_133\n      swap1\n      tag_134\n      jump\t// in\n    tag_133:\n      mload(0x40)\n      dup1\n      swap2\n      sub\n      swap1\n      revert\n    tag_132:\n        /* \"VoteManager.sol\":4614:4615  0 */\n      0x00\n        /* \"VoteManager.sol\":4595:4605  thisStaker */\n      dup2\n        /* \"VoteManager.sol\":4595:4611  thisStaker.stake */\n      0x40\n      add\n      mload\n        /* \"VoteManager.sol\":4595:4615  thisStaker.stake > 0 */\n      gt\n        /* \"VoteManager.sol\":4587:4637  require(thisStaker.stake > 0, \"nonpositive stake\") */\n      tag_135\n      jumpi\n      mload(0x40)\n      0x08c379a000000000000000000000000000000000000000000000000000000000\n      dup2\n      mstore\n      0x04\n      add\n      tag_136\n      swap1\n      tag_137\n      jump\t// in\n    tag_136:\n      mload(0x40)\n      dup1\n      swap2\n      sub\n      swap1\n      revert\n    tag_135:\n        /* \"VoteManager.sol\":4656:4665  uint256 i */\n      0x00\n        /* \"VoteManager.sol\":4668:4669  0 */\n      dup1\n        /* \"VoteManager.sol\":4656:4669  uint256 i = 0 */\n      swap1\n      pop\n        /* \"VoteManager.sol\":4651:5149  for (uint256 i = 0; i < values.length; i++) {... */\n    tag_138:\n        /* \"VoteManager.sol\":4675:4681  values */\n      dup8\n        /* \"VoteManager.sol\":4675:4688  values.length */\n      mload\n        /* \"VoteManager.sol\":4671:4672  i */\n      dup2\n        /* \"VoteManager.sol\":4671:4688  i < values.length */\n      lt\n        /* \"VoteManager.sol\":4651:5149  for (uint256 i = 0; i < values.length; i++) {... */\n      iszero\n      tag_139\n      jumpi\n        /* \"VoteManager.sol\":4721:4796  MerkleProof.verify(proofs[i], root, keccak256(abi.encodePacked(values[i]))) */\n      tag_141\n        /* \"VoteManager.sol\":4740:4746  proofs */\n      dup8\n        /* \"VoteManager.sol\":4747:4748  i */\n      dup3\n        /* \"VoteManager.sol\":4740:4749  proofs[i] */\n      dup2\n      mload\n      dup2\n      lt\n      tag_142\n      jumpi\n      invalid\n    tag_142:\n      0x20\n      mul\n      0x20\n      add\n      add\n      mload\n        /* \"VoteManager.sol\":4751:4755  root */\n      dup11\n        /* \"VoteManager.sol\":4784:4790  values */\n      dup11\n        /* \"VoteManager.sol\":4791:4792  i */\n      dup5\n        /* \"VoteManager.sol\":4784:4793  values[i] */\n      dup2\n      mload\n      dup2\n      lt\n      tag_143\n      jumpi\n      invalid\n    tag_143:\n      0x20\n      mul\n      0x20\n      add\n      add\n      mload\n        /* \"VoteManager.sol\":4767:4794  abi.encodePacked(values[i]) */\n      add(0x20, mload(0x40))\n      tag_144\n      swap2\n      swap1\n      tag_145\n      jump\t// in\n    tag_144:\n      mload(0x40)\n      0x20\n      dup2\n      dup4\n      sub\n      sub\n      dup2\n      mstore\n      swap1\n      0x40\n      mstore\n        /* \"VoteManager.sol\":4757:4795  keccak256(abi.encodePacked(values[i])) */\n      dup1\n      mload\n      swap1\n      0x20\n      add\n      keccak256\n        /* \"VoteManager.sol\":4721:4739  MerkleProof.verify */\n      tag_146\n        /* \"VoteManager.sol\":4721:4796  MerkleProof.verify(proofs[i], root, keccak256(abi.encodePacked(values[i]))) */\n      jump\t// in\n    tag_141:\n        /* \"VoteManager.sol\":4713:4837  require(MerkleProof.verify(proofs[i], root, keccak256(abi.encodePacked(values[i]))),... */\n      tag_147\n      jumpi\n      mload(0x40)\n      0x08c379a000000000000000000000000000000000000000000000000000000000\n      dup2\n      mstore\n      0x04\n      add\n      tag_148\n      swap1\n      tag_149\n      jump\t// in\n    tag_148:\n      mload(0x40)\n      dup1\n      swap2\n      sub\n      swap1\n      revert\n    tag_147:\n        /* \"VoteManager.sol\":4887:4928  Structs.Vote(values[i], thisStaker.stake) */\n      mload(0x40)\n      dup1\n      0x40\n      add\n      0x40\n      mstore\n      dup1\n        /* \"VoteManager.sol\":4900:4906  values */\n      dup10\n        /* \"VoteManager.sol\":4907:4908  i */\n      dup4\n        /* \"VoteManager.sol\":4900:4909  values[i] */\n      dup2\n      mload\n      dup2\n      lt\n      tag_150\n      jumpi\n      invalid\n    tag_150:\n      0x20\n      mul\n      0x20\n      add\n      add\n      mload\n        /* \"VoteManager.sol\":4887:4928  Structs.Vote(values[i], thisStaker.stake) */\n      dup2\n      mstore\n      0x20\n      add\n        /* \"VoteManager.sol\":4911:4921  thisStaker */\n      dup4\n        /* \"VoteManager.sol\":4911:4927  thisStaker.stake */\n      0x40\n      add\n      mload\n        /* \"VoteManager.sol\":4887:4928  Structs.Vote(values[i], thisStaker.stake) */\n      dup2\n      mstore\n      pop\n        /* \"VoteManager.sol\":4855:4860  votes */\n      0x01\n        /* \"VoteManager.sol\":4855:4867  votes[epoch] */\n      0x00\n        /* \"VoteManager.sol\":4861:4866  epoch */\n      dup13\n        /* \"VoteManager.sol\":4855:4867  votes[epoch] */\n      dup2\n      mstore\n      0x20\n      add\n      swap1\n      dup2\n      mstore\n      0x20\n      add\n      0x00\n      keccak256\n        /* \"VoteManager.sol\":4855:4881  votes[epoch][thisStakerId] */\n      0x00\n        /* \"VoteManager.sol\":4868:4880  thisStakerId */\n      dup6\n        /* \"VoteManager.sol\":4855:4881  votes[epoch][thisStakerId] */\n      dup2\n      mstore\n      0x20\n      add\n      swap1\n      dup2\n      mstore\n      0x20\n      add\n      0x00\n      keccak256\n        /* \"VoteManager.sol\":4855:4884  votes[epoch][thisStakerId][i] */\n      0x00\n        /* \"VoteManager.sol\":4882:4883  i */\n      dup4\n        /* \"VoteManager.sol\":4855:4884  votes[epoch][thisStakerId][i] */\n      dup2\n      mstore\n      0x20\n      add\n      swap1\n      dup2\n      mstore\n      0x20\n      add\n      0x00\n      keccak256\n        /* \"VoteManager.sol\":4855:4928  votes[epoch][thisStakerId][i] = Structs.Vote(values[i], thisStaker.stake) */\n      0x00\n      dup3\n      add\n      mload\n      dup2\n      0x00\n      add\n      sstore\n      0x20\n      dup3\n      add\n      mload\n      dup2\n      0x01\n      add\n      sstore\n      swap1\n      pop\n      pop\n        /* \"VoteManager.sol\":4981:5035  voteWeights[epoch][i][values[i]].add(thisStaker.stake) */\n      tag_151\n        /* \"VoteManager.sol\":5018:5028  thisStaker */\n      dup3\n        /* \"VoteManager.sol\":5018:5034  thisStaker.stake */\n      0x40\n      add\n      mload\n        /* \"VoteManager.sol\":4981:4992  voteWeights */\n      0x03\n        /* \"VoteManager.sol\":4981:4999  voteWeights[epoch] */\n      0x00\n        /* \"VoteManager.sol\":4993:4998  epoch */\n      dup14\n        /* \"VoteManager.sol\":4981:4999  voteWeights[epoch] */\n      dup2\n      mstore\n      0x20\n      add\n      swap1\n      dup2\n      mstore\n      0x20\n      add\n      0x00\n      keccak256\n        /* \"VoteManager.sol\":4981:5002  voteWeights[epoch][i] */\n      0x00\n        /* \"VoteManager.sol\":5000:5001  i */\n      dup5\n        /* \"VoteManager.sol\":4981:5002  voteWeights[epoch][i] */\n      dup2\n      mstore\n      0x20\n      add\n      swap1\n      dup2\n      mstore\n      0x20\n      add\n      0x00\n      keccak256\n        /* \"VoteManager.sol\":4981:5013  voteWeights[epoch][i][values[i]] */\n      0x00\n        /* \"VoteManager.sol\":5003:5009  values */\n      dup12\n        /* \"VoteManager.sol\":5010:5011  i */\n      dup6\n        /* \"VoteManager.sol\":5003:5012  values[i] */\n      dup2\n      mload\n      dup2\n      lt\n      tag_152\n      jumpi\n      invalid\n    tag_152:\n      0x20\n      mul\n      0x20\n      add\n      add\n      mload\n        /* \"VoteManager.sol\":4981:5013  voteWeights[epoch][i][values[i]] */\n      dup2\n      mstore\n      0x20\n      add\n      swap1\n      dup2\n      mstore\n      0x20\n      add\n      0x00\n      keccak256\n      sload\n        /* \"VoteManager.sol\":4981:5017  voteWeights[epoch][i][values[i]].add */\n      tag_153\n      swap1\n        /* \"VoteManager.sol\":4981:5035  voteWeights[epoch][i][values[i]].add(thisStaker.stake) */\n      swap2\n      swap1\n      0xffffffff\n      and\n      jump\t// in\n    tag_151:\n        /* \"VoteManager.sol\":4946:4957  voteWeights */\n      0x03\n        /* \"VoteManager.sol\":4946:4964  voteWeights[epoch] */\n      0x00\n        /* \"VoteManager.sol\":4958:4963  epoch */\n      dup13\n        /* \"VoteManager.sol\":4946:4964  voteWeights[epoch] */\n      dup2\n      mstore\n      0x20\n      add\n      swap1\n      dup2\n      mstore\n      0x20\n      add\n      0x00\n      keccak256\n        /* \"VoteManager.sol\":4946:4967  voteWeights[epoch][i] */\n      0x00\n        /* \"VoteManager.sol\":4965:4966  i */\n      dup4\n        /* \"VoteManager.sol\":4946:4967  voteWeights[epoch][i] */\n      dup2\n      mstore\n      0x20\n      add\n      swap1\n      dup2\n      mstore\n      0x20\n      add\n      0x00\n      keccak256\n        /* \"VoteManager.sol\":4946:4978  voteWeights[epoch][i][values[i]] */\n      0x00\n        /* \"VoteManager.sol\":4968:4974  values */\n      dup11\n        /* \"VoteManager.sol\":4975:4976  i */\n      dup5\n        /* \"VoteManager.sol\":4968:4977  values[i] */\n      dup2\n      mload\n      dup2\n      lt\n      tag_154\n      jumpi\n      invalid\n    tag_154:\n      0x20\n      mul\n      0x20\n      add\n      add\n      mload\n        /* \"VoteManager.sol\":4946:4978  voteWeights[epoch][i][values[i]] */\n      dup2\n      mstore\n      0x20\n      add\n      swap1\n      dup2\n      mstore\n      0x20\n      add\n      0x00\n      keccak256\n        /* \"VoteManager.sol\":4946:5035  voteWeights[epoch][i][values[i]] = voteWeights[epoch][i][values[i]].add(thisStaker.stake) */\n      dup2\n      swap1\n      sstore\n      pop\n        /* \"VoteManager.sol\":5084:5134  totalStakeRevealed[epoch][i].add(thisStaker.stake) */\n      tag_155\n        /* \"VoteManager.sol\":5117:5127  thisStaker */\n      dup3\n        /* \"VoteManager.sol\":5117:5133  thisStaker.stake */\n      0x40\n      add\n      mload\n        /* \"VoteManager.sol\":5084:5102  totalStakeRevealed */\n      0x02\n        /* \"VoteManager.sol\":5084:5109  totalStakeRevealed[epoch] */\n      0x00\n        /* \"VoteManager.sol\":5103:5108  epoch */\n      dup14\n        /* \"VoteManager.sol\":5084:5109  totalStakeRevealed[epoch] */\n      dup2\n      mstore\n      0x20\n      add\n      swap1\n      dup2\n      mstore\n      0x20\n      add\n      0x00\n      keccak256\n        /* \"VoteManager.sol\":5084:5112  totalStakeRevealed[epoch][i] */\n      0x00\n        /* \"VoteManager.sol\":5110:5111  i */\n      dup5\n        /* \"VoteManager.sol\":5084:5112  totalStakeRevealed[epoch][i] */\n      dup2\n      mstore\n      0x20\n      add\n      swap1\n      dup2\n      mstore\n      0x20\n      add\n      0x00\n      keccak256\n      sload\n        /* \"VoteManager.sol\":5084:5116  totalStakeRevealed[epoch][i].add */\n      tag_153\n      swap1\n        /* \"VoteManager.sol\":5084:5134  totalStakeRevealed[epoch][i].add(thisStaker.stake) */\n      swap2\n      swap1\n      0xffffffff\n      and\n      jump\t// in\n    tag_155:\n        /* \"VoteManager.sol\":5053:5071  totalStakeRevealed */\n      0x02\n        /* \"VoteManager.sol\":5053:5078  totalStakeRevealed[epoch] */\n      0x00\n        /* \"VoteManager.sol\":5072:5077  epoch */\n      dup13\n        /* \"VoteManager.sol\":5053:5078  totalStakeRevealed[epoch] */\n      dup2\n      mstore\n      0x20\n      add\n      swap1\n      dup2\n      mstore\n      0x20\n      add\n      0x00\n      keccak256\n        /* \"VoteManager.sol\":5053:5081  totalStakeRevealed[epoch][i] */\n      0x00\n        /* \"VoteManager.sol\":5079:5080  i */\n      dup4\n        /* \"VoteManager.sol\":5053:5081  totalStakeRevealed[epoch][i] */\n      dup2\n      mstore\n      0x20\n      add\n      swap1\n      dup2\n      mstore\n      0x20\n      add\n      0x00\n      keccak256\n        /* \"VoteManager.sol\":5053:5134  totalStakeRevealed[epoch][i] = totalStakeRevealed[epoch][i].add(thisStaker.stake) */\n      dup2\n      swap1\n      sstore\n      pop\n        /* \"VoteManager.sol\":4690:4693  i++ */\n      dup1\n      dup1\n      0x01\n      add\n      swap2\n      pop\n      pop\n        /* \"VoteManager.sol\":4651:5149  for (uint256 i = 0; i < values.length; i++) {... */\n      jump(tag_138)\n    tag_139:\n      pop\n        /* \"VoteManager.sol\":5163:5175  stakeManager */\n      0x04\n      0x00\n      swap1\n      sload\n      swap1\n      0x0100\n      exp\n      swap1\n      div\n      0xffffffffffffffffffffffffffffffffffffffff\n      and\n        /* \"VoteManager.sol\":5163:5187  stakeManager.giveRewards */\n      0xffffffffffffffffffffffffffffffffffffffff\n      and\n      0xfabb9890\n        /* \"VoteManager.sol\":5188:5200  thisStakerId */\n      dup4\n        /* \"VoteManager.sol\":5202:5207  epoch */\n      dup12\n        /* \"VoteManager.sol\":5163:5208  stakeManager.giveRewards(thisStakerId, epoch) */\n      mload(0x40)\n      dup4\n      0xffffffff\n      and\n      0xe0\n      shl\n      dup2\n      mstore\n      0x04\n      add\n      tag_156\n      swap3\n      swap2\n      swap1\n      tag_34\n      jump\t// in\n    tag_156:\n      0x00\n      mload(0x40)\n      dup1\n      dup4\n      sub\n      dup2\n      0x00\n      dup8\n      dup1\n      extcodesize\n      iszero\n      dup1\n      iszero\n      tag_157\n      jumpi\n      0x00\n      dup1\n      revert\n    tag_157:\n      pop\n      gas\n      call\n      iszero\n      dup1\n      iszero\n      tag_159\n      jumpi\n      returndatasize\n      0x00\n      dup1\n      returndatacopy\n      revert(0x00, returndatasize)\n    tag_159:\n      pop\n      pop\n      pop\n      pop\n        /* \"VoteManager.sol\":5258:5261  0x0 */\n      0x00\n        /* \"VoteManager.sol\":5223:5261  commitments[epoch][thisStakerId] = 0x0 */\n      dup1\n      shl\n        /* \"VoteManager.sol\":5223:5234  commitments */\n      0x00\n        /* \"VoteManager.sol\":5223:5241  commitments[epoch] */\n      dup1\n        /* \"VoteManager.sol\":5235:5240  epoch */\n      dup12\n        /* \"VoteManager.sol\":5223:5241  commitments[epoch] */\n      dup2\n      mstore\n      0x20\n      add\n      swap1\n      dup2\n      mstore\n      0x20\n      add\n      0x00\n      keccak256\n        /* \"VoteManager.sol\":5223:5255  commitments[epoch][thisStakerId] */\n      0x00\n        /* \"VoteManager.sol\":5242:5254  thisStakerId */\n      dup5\n        /* \"VoteManager.sol\":5223:5255  commitments[epoch][thisStakerId] */\n      dup2\n      mstore\n      0x20\n      add\n      swap1\n      dup2\n      mstore\n      0x20\n      add\n      0x00\n      keccak256\n        /* \"VoteManager.sol\":5223:5261  commitments[epoch][thisStakerId] = 0x0 */\n      dup2\n      swap1\n      sstore\n      pop\n        /* \"VoteManager.sol\":5404:5416  stakeManager */\n      0x04\n      0x00\n      swap1\n      sload\n      swap1\n      0x0100\n      exp\n      swap1\n      div\n      0xffffffffffffffffffffffffffffffffffffffff\n      and\n        /* \"VoteManager.sol\":5404:5443  stakeManager.setStakerEpochLastRevealed */\n      0xffffffffffffffffffffffffffffffffffffffff\n      and\n      0x9864f70a\n        /* \"VoteManager.sol\":5444:5456  thisStakerId */\n      dup4\n        /* \"VoteManager.sol\":5458:5463  epoch */\n      dup12\n        /* \"VoteManager.sol\":5404:5464  stakeManager.setStakerEpochLastRevealed(thisStakerId, epoch) */\n      mload(0x40)\n      dup4\n      0xffffffff\n      and\n      0xe0\n      shl\n      dup2\n      mstore\n      0x04\n      add\n      tag_160\n      swap3\n      swap2\n      swap1\n      tag_34\n      jump\t// in\n    tag_160:\n      0x00\n      mload(0x40)\n      dup1\n      dup4\n      sub\n      dup2\n      0x00\n      dup8\n      dup1\n      extcodesize\n      iszero\n      dup1\n      iszero\n      tag_161\n      jumpi\n      0x00\n      dup1\n      revert\n    tag_161:\n      pop\n      gas\n      call\n      iszero\n      dup1\n      iszero\n      tag_163\n      jumpi\n      returndatasize\n      0x00\n      dup1\n      returndatacopy\n      revert(0x00, returndatasize)\n    tag_163:\n      pop\n      pop\n      pop\n      pop\n        /* \"VoteManager.sol\":5484:5544  Revealed(epoch, thisStakerId, thisStaker.stake, values, now) */\n      0x17f4759c403dfc3fa26ab75ce82d3d090a0bdbfe9977d8ee87445d6dd83c68a1\n        /* \"VoteManager.sol\":5493:5498  epoch */\n      dup10\n        /* \"VoteManager.sol\":5500:5512  thisStakerId */\n      dup4\n        /* \"VoteManager.sol\":5514:5524  thisStaker */\n      dup4\n        /* \"VoteManager.sol\":5514:5530  thisStaker.stake */\n      0x40\n      add\n      mload\n        /* \"VoteManager.sol\":5532:5538  values */\n      dup11\n        /* \"VoteManager.sol\":5540:5543  now */\n      timestamp\n        /* \"VoteManager.sol\":5484:5544  Revealed(epoch, thisStakerId, thisStaker.stake, values, now) */\n      mload(0x40)\n      tag_164\n      swap6\n      swap5\n      swap4\n      swap3\n      swap2\n      swap1\n      tag_165\n      jump\t// in\n    tag_164:\n      mload(0x40)\n      dup1\n      swap2\n      sub\n      swap1\n      log1\n        /* \"VoteManager.sol\":4452:5853  if (msg.sender == stakerAddress) {... */\n      jump(tag_166)\n    tag_122:\n        /* \"VoteManager.sol\":5686:5695  Constants */\n      linkerSymbol(\"e861534859442f2de25279a5ccd1626413b62699ca8b37407da3a6bf3bbbfee5\")\n        /* \"VoteManager.sol\":5686:5702  Constants.commit */\n      0x3c7a3aff\n        /* \"VoteManager.sol\":5686:5704  Constants.commit() */\n      mload(0x40)\n      dup2\n      0xffffffff\n      and\n      0xe0\n      shl\n      dup2\n      mstore\n      0x04\n      add\n      0x20\n      mload(0x40)\n      dup1\n      dup4\n      sub\n      dup2\n      dup7\n      dup1\n      extcodesize\n      iszero\n      dup1\n      iszero\n      tag_167\n      jumpi\n      0x00\n      dup1\n      revert\n    tag_167:\n      pop\n      gas\n      delegatecall\n      iszero\n      dup1\n      iszero\n      tag_169\n      jumpi\n      returndatasize\n      0x00\n      dup1\n      returndatacopy\n      revert(0x00, returndatasize)\n    tag_169:\n      pop\n      pop\n      pop\n      pop\n      mload(0x40)\n      returndatasize\n      not(0x1f)\n      0x1f\n      dup3\n      add\n      and\n      dup3\n      add\n      dup1\n      0x40\n      mstore\n      pop\n      dup2\n      add\n      swap1\n      tag_170\n      swap2\n      swap1\n      tag_127\n      jump\t// in\n    tag_170:\n        /* \"VoteManager.sol\":5659:5704  stateManager.getState() == Constants.commit() */\n      0xff\n      and\n        /* \"VoteManager.sol\":5659:5671  stateManager */\n      0x05\n      0x00\n      swap1\n      sload\n      swap1\n      0x0100\n      exp\n      swap1\n      div\n      0xffffffffffffffffffffffffffffffffffffffff\n      and\n        /* \"VoteManager.sol\":5659:5680  stateManager.getState */\n      0xffffffffffffffffffffffffffffffffffffffff\n      and\n      0x1865c57d\n        /* \"VoteManager.sol\":5659:5682  stateManager.getState() */\n      mload(0x40)\n      dup2\n      0xffffffff\n      and\n      0xe0\n      shl\n      dup2\n      mstore\n      0x04\n      add\n      0x20\n      mload(0x40)\n      dup1\n      dup4\n      sub\n      dup2\n      dup7\n      dup1\n      extcodesize\n      iszero\n      dup1\n      iszero\n      tag_171\n      jumpi\n      0x00\n      dup1\n      revert\n    tag_171:\n      pop\n      gas\n      staticcall\n      iszero\n      dup1\n      iszero\n      tag_173\n      jumpi\n      returndatasize\n      0x00\n      dup1\n      returndatacopy\n      revert(0x00, returndatasize)\n    tag_173:\n      pop\n      pop\n      pop\n      pop\n      mload(0x40)\n      returndatasize\n      not(0x1f)\n      0x1f\n      dup3\n      add\n      and\n      dup3\n      add\n      dup1\n      0x40\n      mstore\n      pop\n      dup2\n      add\n      swap1\n      tag_174\n      swap2\n      swap1\n      tag_92\n      jump\t// in\n    tag_174:\n        /* \"VoteManager.sol\":5659:5704  stateManager.getState() == Constants.commit() */\n      eq\n        /* \"VoteManager.sol\":5651:5725  require(stateManager.getState() == Constants.commit(), \"Not commit state\") */\n      tag_175\n      jumpi\n      mload(0x40)\n      0x08c379a000000000000000000000000000000000000000000000000000000000\n      dup2\n      mstore\n      0x04\n      add\n      tag_176\n      swap1\n      tag_177\n      jump\t// in\n    tag_176:\n      mload(0x40)\n      dup1\n      swap2\n      sub\n      swap1\n      revert\n    tag_175:\n        /* \"VoteManager.sol\":5774:5777  0x0 */\n      0x00\n        /* \"VoteManager.sol\":5739:5777  commitments[epoch][thisStakerId] = 0x0 */\n      dup1\n      shl\n        /* \"VoteManager.sol\":5739:5750  commitments */\n      0x00\n        /* \"VoteManager.sol\":5739:5757  commitments[epoch] */\n      dup1\n        /* \"VoteManager.sol\":5751:5756  epoch */\n      dup12\n        /* \"VoteManager.sol\":5739:5757  commitments[epoch] */\n      dup2\n      mstore\n      0x20\n      add\n      swap1\n      dup2\n      mstore\n      0x20\n      add\n      0x00\n      keccak256\n        /* \"VoteManager.sol\":5739:5771  commitments[epoch][thisStakerId] */\n      0x00\n        /* \"VoteManager.sol\":5758:5770  thisStakerId */\n      dup5\n        /* \"VoteManager.sol\":5739:5771  commitments[epoch][thisStakerId] */\n      dup2\n      mstore\n      0x20\n      add\n      swap1\n      dup2\n      mstore\n      0x20\n      add\n      0x00\n      keccak256\n        /* \"VoteManager.sol\":5739:5777  commitments[epoch][thisStakerId] = 0x0 */\n      dup2\n      swap1\n      sstore\n      pop\n        /* \"VoteManager.sol\":5791:5803  stakeManager */\n      0x04\n      0x00\n      swap1\n      sload\n      swap1\n      0x0100\n      exp\n      swap1\n      div\n      0xffffffffffffffffffffffffffffffffffffffff\n      and\n        /* \"VoteManager.sol\":5791:5809  stakeManager.slash */\n      0xffffffffffffffffffffffffffffffffffffffff\n      and\n      0x0f91ce19\n        /* \"VoteManager.sol\":5810:5822  thisStakerId */\n      dup4\n        /* \"VoteManager.sol\":5824:5834  msg.sender */\n      caller\n        /* \"VoteManager.sol\":5836:5841  epoch */\n      dup13\n        /* \"VoteManager.sol\":5791:5842  stakeManager.slash(thisStakerId, msg.sender, epoch) */\n      mload(0x40)\n      dup5\n      0xffffffff\n      and\n      0xe0\n      shl\n      dup2\n      mstore\n      0x04\n      add\n      tag_178\n      swap4\n      swap3\n      swap2\n      swap1\n      tag_179\n      jump\t// in\n    tag_178:\n      0x00\n      mload(0x40)\n      dup1\n      dup4\n      sub\n      dup2\n      0x00\n      dup8\n      dup1\n      extcodesize\n      iszero\n      dup1\n      iszero\n      tag_180\n      jumpi\n      0x00\n      dup1\n      revert\n    tag_180:\n      pop\n      gas\n      call\n      iszero\n      dup1\n      iszero\n      tag_182\n      jumpi\n      returndatasize\n      0x00\n      dup1\n      returndatacopy\n      revert(0x00, returndatasize)\n    tag_182:\n      pop\n      pop\n      pop\n      pop\n        /* \"VoteManager.sol\":4452:5853  if (msg.sender == stakerAddress) {... */\n    tag_166:\n        /* \"VoteManager.sol\":782:783  _ */\n      pop\n      pop\n        /* \"VoteManager.sol\":3705:5859  function reveal (uint256 epoch, bytes32 root, uint256[] memory values,... */\n      pop\n      pop\n      pop\n      pop\n      pop\n      pop\n      pop\n      jump\t// out\n        /* \"VoteManager.sol\":926:1225  function init (address _stakeManagerAddress, address _stateManagerAddress, address _blockManagerAddress) public {... */\n    tag_28:\n        /* \"VoteManager.sol\":1077:1097  _stakeManagerAddress */\n      dup3\n        /* \"VoteManager.sol\":1048:1060  stakeManager */\n      0x04\n      0x00\n        /* \"VoteManager.sol\":1048:1098  stakeManager = IStakeManager(_stakeManagerAddress) */\n      0x0100\n      exp\n      dup2\n      sload\n      dup2\n      0xffffffffffffffffffffffffffffffffffffffff\n      mul\n      not\n      and\n      swap1\n      dup4\n      0xffffffffffffffffffffffffffffffffffffffff\n      and\n      mul\n      or\n      swap1\n      sstore\n      pop\n        /* \"VoteManager.sol\":1137:1157  _stateManagerAddress */\n      dup2\n        /* \"VoteManager.sol\":1108:1120  stateManager */\n      0x05\n      0x00\n        /* \"VoteManager.sol\":1108:1158  stateManager = IStateManager(_stateManagerAddress) */\n      0x0100\n      exp\n      dup2\n      sload\n      dup2\n      0xffffffffffffffffffffffffffffffffffffffff\n      mul\n      not\n      and\n      swap1\n      dup4\n      0xffffffffffffffffffffffffffffffffffffffff\n      and\n      mul\n      or\n      swap1\n      sstore\n      pop\n        /* \"VoteManager.sol\":1197:1217  _blockManagerAddress */\n      dup1\n        /* \"VoteManager.sol\":1168:1180  blockManager */\n      0x06\n      0x00\n        /* \"VoteManager.sol\":1168:1218  blockManager = IBlockManager(_blockManagerAddress) */\n      0x0100\n      exp\n      dup2\n      sload\n      dup2\n      0xffffffffffffffffffffffffffffffffffffffff\n      mul\n      not\n      and\n      swap1\n      dup4\n      0xffffffffffffffffffffffffffffffffffffffff\n      and\n      mul\n      or\n      swap1\n      sstore\n      pop\n        /* \"VoteManager.sol\":926:1225  function init (address _stakeManagerAddress, address _stateManagerAddress, address _blockManagerAddress) public {... */\n      pop\n      pop\n      pop\n      jump\t// out\n        /* \"VoteStorage.sol\":264:353  mapping (uint256 => mapping (uint256 =>  mapping (uint256 => Structs.Vote))) public votes */\n    tag_32:\n      mstore(0x20, 0x01)\n      dup3\n      0x00\n      mstore\n      mstore(0x20, keccak256(0x00, 0x40))\n      dup2\n      0x00\n      mstore\n      mstore(0x20, keccak256(0x00, 0x40))\n      dup1\n      0x00\n      mstore\n      keccak256(0x00, 0x40)\n      0x00\n      swap3\n      pop\n      swap3\n      pop\n      pop\n      pop\n      dup1\n      0x00\n      add\n      sload\n      swap1\n      dup1\n      0x01\n      add\n      sload\n      swap1\n      pop\n      dup3\n      jump\t// out\n        /* \"VoteManager.sol\":587:620  IStateManager public stateManager */\n    tag_36:\n      0x05\n      0x00\n      swap1\n      sload\n      swap1\n      0x0100\n      exp\n      swap1\n      div\n      0xffffffffffffffffffffffffffffffffffffffff\n      and\n      dup2\n      jump\t// out\n        /* \"VoteManager.sol\":1325:1582  function getCommitment(uint256 epoch, uint256 stakerId) public view returns(bytes32) {... */\n    tag_42:\n        /* \"VoteManager.sol\":1401:1408  bytes32 */\n      0x00\n        /* \"VoteManager.sol\":1546:1557  commitments */\n      dup1\n        /* \"VoteManager.sol\":1546:1564  commitments[epoch] */\n      0x00\n        /* \"VoteManager.sol\":1558:1563  epoch */\n      dup5\n        /* \"VoteManager.sol\":1546:1564  commitments[epoch] */\n      dup2\n      mstore\n      0x20\n      add\n      swap1\n      dup2\n      mstore\n      0x20\n      add\n      0x00\n      keccak256\n        /* \"VoteManager.sol\":1546:1574  commitments[epoch][stakerId] */\n      0x00\n        /* \"VoteManager.sol\":1565:1573  stakerId */\n      dup4\n        /* \"VoteManager.sol\":1546:1574  commitments[epoch][stakerId] */\n      dup2\n      mstore\n      0x20\n      add\n      swap1\n      dup2\n      mstore\n      0x20\n      add\n      0x00\n      keccak256\n      sload\n        /* \"VoteManager.sol\":1539:1575  return(commitments[epoch][stakerId]) */\n      swap1\n      pop\n        /* \"VoteManager.sol\":1325:1582  function getCommitment(uint256 epoch, uint256 stakerId) public view returns(bytes32) {... */\n      swap3\n      swap2\n      pop\n      pop\n      jump\t// out\n        /* \"VoteManager.sol\":548:581  IStakeManager public stakeManager */\n    tag_46:\n      0x04\n      0x00\n      swap1\n      sload\n      swap1\n      0x0100\n      exp\n      swap1\n      div\n      0xffffffffffffffffffffffffffffffffffffffff\n      and\n      dup2\n      jump\t// out\n        /* \"VoteStorage.sol\":396:472  mapping (uint256 =>  mapping (uint256 => uint256)) public totalStakeRevealed */\n    tag_51:\n      mstore(0x20, 0x02)\n      dup2\n      0x00\n      mstore\n      mstore(0x20, keccak256(0x00, 0x40))\n      dup1\n      0x00\n      mstore\n      keccak256(0x00, 0x40)\n      0x00\n      swap2\n      pop\n      swap2\n      pop\n      pop\n      sload\n      dup2\n      jump\t// out\n        /* \"VoteManager.sol\":1588:1900  function getVote(uint256 epoch, uint256 stakerId, uint256 assetId) public view returns(Structs.Vote memory vote) {... */\n    tag_56:\n        /* \"VoteManager.sol\":1675:1699  Structs.Vote memory vote */\n      tag_185\n      tag_186\n      jump\t// in\n    tag_185:\n        /* \"VoteManager.sol\":1861:1866  votes */\n      0x01\n        /* \"VoteManager.sol\":1861:1873  votes[epoch] */\n      0x00\n        /* \"VoteManager.sol\":1867:1872  epoch */\n      dup6\n        /* \"VoteManager.sol\":1861:1873  votes[epoch] */\n      dup2\n      mstore\n      0x20\n      add\n      swap1\n      dup2\n      mstore\n      0x20\n      add\n      0x00\n      keccak256\n        /* \"VoteManager.sol\":1861:1883  votes[epoch][stakerId] */\n      0x00\n        /* \"VoteManager.sol\":1874:1882  stakerId */\n      dup5\n        /* \"VoteManager.sol\":1861:1883  votes[epoch][stakerId] */\n      dup2\n      mstore\n      0x20\n      add\n      swap1\n      dup2\n      mstore\n      0x20\n      add\n      0x00\n      keccak256\n        /* \"VoteManager.sol\":1861:1892  votes[epoch][stakerId][assetId] */\n      0x00\n        /* \"VoteManager.sol\":1884:1891  assetId */\n      dup4\n        /* \"VoteManager.sol\":1861:1892  votes[epoch][stakerId][assetId] */\n      dup2\n      mstore\n      0x20\n      add\n      swap1\n      dup2\n      mstore\n      0x20\n      add\n      0x00\n      keccak256\n        /* \"VoteManager.sol\":1854:1893  return(votes[epoch][stakerId][assetId]) */\n      mload(0x40)\n      dup1\n      0x40\n      add\n      0x40\n      mstore\n      swap1\n      dup2\n      0x00\n      dup3\n      add\n      sload\n      dup2\n      mstore\n      0x20\n      add\n      0x01\n      dup3\n      add\n      sload\n      dup2\n      mstore\n      pop\n      pop\n      swap1\n      pop\n        /* \"VoteManager.sol\":1588:1900  function getVote(uint256 epoch, uint256 stakerId, uint256 assetId) public view returns(Structs.Vote memory vote) {... */\n      swap4\n      swap3\n      pop\n      pop\n      pop\n      jump\t// out\n        /* \"VoteStorage.sol\":518:608  mapping (uint256 => mapping (uint256 =>  mapping (uint256 => uint256))) public voteWeights */\n    tag_61:\n      mstore(0x20, 0x03)\n      dup3\n      0x00\n      mstore\n      mstore(0x20, keccak256(0x00, 0x40))\n      dup2\n      0x00\n      mstore\n      mstore(0x20, keccak256(0x00, 0x40))\n      dup1\n      0x00\n      mstore\n      keccak256(0x00, 0x40)\n      0x00\n      swap3\n      pop\n      swap3\n      pop\n      pop\n      pop\n      sload\n      dup2\n      jump\t// out\n        /* \"VoteManager.sol\":1906:2223  function getVoteWeight(uint256 epoch, uint256 assetId, uint256 voteValue)... */\n    tag_65:\n        /* \"VoteManager.sol\":2004:2011  uint256 */\n      0x00\n        /* \"VoteManager.sol\":2177:2188  voteWeights */\n      0x03\n        /* \"VoteManager.sol\":2177:2195  voteWeights[epoch] */\n      0x00\n        /* \"VoteManager.sol\":2189:2194  epoch */\n      dup6\n        /* \"VoteManager.sol\":2177:2195  voteWeights[epoch] */\n      dup2\n      mstore\n      0x20\n      add\n      swap1\n      dup2\n      mstore\n      0x20\n      add\n      0x00\n      keccak256\n        /* \"VoteManager.sol\":2177:2204  voteWeights[epoch][assetId] */\n      0x00\n        /* \"VoteManager.sol\":2196:2203  assetId */\n      dup5\n        /* \"VoteManager.sol\":2177:2204  voteWeights[epoch][assetId] */\n      dup2\n      mstore\n      0x20\n      add\n      swap1\n      dup2\n      mstore\n      0x20\n      add\n      0x00\n      keccak256\n        /* \"VoteManager.sol\":2177:2215  voteWeights[epoch][assetId][voteValue] */\n      0x00\n        /* \"VoteManager.sol\":2205:2214  voteValue */\n      dup4\n        /* \"VoteManager.sol\":2177:2215  voteWeights[epoch][assetId][voteValue] */\n      dup2\n      mstore\n      0x20\n      add\n      swap1\n      dup2\n      mstore\n      0x20\n      add\n      0x00\n      keccak256\n      sload\n        /* \"VoteManager.sol\":2170:2216  return(voteWeights[epoch][assetId][voteValue]) */\n      swap1\n      pop\n        /* \"VoteManager.sol\":1906:2223  function getVoteWeight(uint256 epoch, uint256 assetId, uint256 voteValue)... */\n      swap4\n      swap3\n      pop\n      pop\n      pop\n      jump\t// out\n        /* \"VoteManager.sol\":2229:2510  function getTotalStakeRevealed(uint256 epoch, uint256 assetId) public view returns(uint256) {... */\n    tag_69:\n        /* \"VoteManager.sol\":2312:2319  uint256 */\n      0x00\n        /* \"VoteManager.sol\":2468:2486  totalStakeRevealed */\n      0x02\n        /* \"VoteManager.sol\":2468:2493  totalStakeRevealed[epoch] */\n      0x00\n        /* \"VoteManager.sol\":2487:2492  epoch */\n      dup5\n        /* \"VoteManager.sol\":2468:2493  totalStakeRevealed[epoch] */\n      dup2\n      mstore\n      0x20\n      add\n      swap1\n      dup2\n      mstore\n      0x20\n      add\n      0x00\n      keccak256\n        /* \"VoteManager.sol\":2468:2502  totalStakeRevealed[epoch][assetId] */\n      0x00\n        /* \"VoteManager.sol\":2494:2501  assetId */\n      dup4\n        /* \"VoteManager.sol\":2468:2502  totalStakeRevealed[epoch][assetId] */\n      dup2\n      mstore\n      0x20\n      add\n      swap1\n      dup2\n      mstore\n      0x20\n      add\n      0x00\n      keccak256\n      sload\n        /* \"VoteManager.sol\":2461:2503  return(totalStakeRevealed[epoch][assetId]) */\n      swap1\n      pop\n        /* \"VoteManager.sol\":2229:2510  function getTotalStakeRevealed(uint256 epoch, uint256 assetId) public view returns(uint256) {... */\n      swap3\n      swap2\n      pop\n      pop\n      jump\t// out\n        /* \"VoteStorage.sol\":153:221  mapping (uint256 => mapping (uint256 => bytes32)) public commitments */\n    tag_73:\n      mstore(0x20, 0x00)\n      dup2\n      0x00\n      mstore\n      mstore(0x20, keccak256(0x00, 0x40))\n      dup1\n      0x00\n      mstore\n      keccak256(0x00, 0x40)\n      0x00\n      swap2\n      pop\n      swap2\n      pop\n      pop\n      sload\n      dup2\n      jump\t// out\n        /* \"VoteManager.sol\":626:659  IBlockManager public blockManager */\n    tag_76:\n      0x06\n      0x00\n      swap1\n      sload\n      swap1\n      0x0100\n      exp\n      swap1\n      div\n      0xffffffffffffffffffffffffffffffffffffffff\n      and\n      dup2\n      jump\t// out\n        /* \"VoteManager.sol\":2843:3593  function commit (uint256 epoch, bytes32 commitment) public checkEpoch(epoch) checkState(Constants.commit()) {... */\n    tag_82:\n        /* \"VoteManager.sol\":2913:2918  epoch */\n      dup2\n        /* \"VoteManager.sol\":729:741  stateManager */\n      0x05\n      0x00\n      swap1\n      sload\n      swap1\n      0x0100\n      exp\n      swap1\n      div\n      0xffffffffffffffffffffffffffffffffffffffff\n      and\n        /* \"VoteManager.sol\":729:750  stateManager.getEpoch */\n      0xffffffffffffffffffffffffffffffffffffffff\n      and\n      0x757991a8\n        /* \"VoteManager.sol\":729:752  stateManager.getEpoch() */\n      mload(0x40)\n      dup2\n      0xffffffff\n      and\n      0xe0\n      shl\n      dup2\n      mstore\n      0x04\n      add\n      0x20\n      mload(0x40)\n      dup1\n      dup4\n      sub\n      dup2\n      dup7\n      dup1\n      extcodesize\n      iszero\n      dup1\n      iszero\n      tag_191\n      jumpi\n      0x00\n      dup1\n      revert\n    tag_191:\n      pop\n      gas\n      staticcall\n      iszero\n      dup1\n      iszero\n      tag_193\n      jumpi\n      returndatasize\n      0x00\n      dup1\n      returndatacopy\n      revert(0x00, returndatasize)\n    tag_193:\n      pop\n      pop\n      pop\n      pop\n      mload(0x40)\n      returndatasize\n      not(0x1f)\n      0x1f\n      dup3\n      add\n      and\n      dup3\n      add\n      dup1\n      0x40\n      mstore\n      pop\n      dup2\n      add\n      swap1\n      tag_194\n      swap2\n      swap1\n      tag_92\n      jump\t// in\n    tag_194:\n        /* \"VoteManager.sol\":720:725  epoch */\n      dup2\n        /* \"VoteManager.sol\":720:752  epoch == stateManager.getEpoch() */\n      eq\n        /* \"VoteManager.sol\":712:772  require(epoch == stateManager.getEpoch(), \"incorrect epoch\") */\n      tag_195\n      jumpi\n      mload(0x40)\n      0x08c379a000000000000000000000000000000000000000000000000000000000\n      dup2\n      mstore\n      0x04\n      add\n      tag_196\n      swap1\n      tag_95\n      jump\t// in\n    tag_196:\n      mload(0x40)\n      dup1\n      swap2\n      sub\n      swap1\n      revert\n    tag_195:\n        /* \"VoteManager.sol\":2931:2940  Constants */\n      linkerSymbol(\"e861534859442f2de25279a5ccd1626413b62699ca8b37407da3a6bf3bbbfee5\")\n        /* \"VoteManager.sol\":2931:2947  Constants.commit */\n      0x3c7a3aff\n        /* \"VoteManager.sol\":2931:2949  Constants.commit() */\n      mload(0x40)\n      dup2\n      0xffffffff\n      and\n      0xe0\n      shl\n      dup2\n      mstore\n      0x04\n      add\n      0x20\n      mload(0x40)\n      dup1\n      dup4\n      sub\n      dup2\n      dup7\n      dup1\n      extcodesize\n      iszero\n      dup1\n      iszero\n      tag_197\n      jumpi\n      0x00\n      dup1\n      revert\n    tag_197:\n      pop\n      gas\n      delegatecall\n      iszero\n      dup1\n      iszero\n      tag_199\n      jumpi\n      returndatasize\n      0x00\n      dup1\n      returndatacopy\n      revert(0x00, returndatasize)\n    tag_199:\n      pop\n      pop\n      pop\n      pop\n      mload(0x40)\n      returndatasize\n      not(0x1f)\n      0x1f\n      dup3\n      add\n      and\n      dup3\n      add\n      dup1\n      0x40\n      mstore\n      pop\n      dup2\n      add\n      swap1\n      tag_200\n      swap2\n      swap1\n      tag_127\n      jump\t// in\n    tag_200:\n        /* \"VoteManager.sol\":796:920  modifier checkState (uint256 state) {... */\n      0xff\n      and\n        /* \"VoteManager.sol\":859:871  stateManager */\n      0x05\n      0x00\n      swap1\n      sload\n      swap1\n      0x0100\n      exp\n      swap1\n      div\n      0xffffffffffffffffffffffffffffffffffffffff\n      and\n        /* \"VoteManager.sol\":859:880  stateManager.getState */\n      0xffffffffffffffffffffffffffffffffffffffff\n      and\n      0x1865c57d\n        /* \"VoteManager.sol\":859:882  stateManager.getState() */\n      mload(0x40)\n      dup2\n      0xffffffff\n      and\n      0xe0\n      shl\n      dup2\n      mstore\n      0x04\n      add\n      0x20\n      mload(0x40)\n      dup1\n      dup4\n      sub\n      dup2\n      dup7\n      dup1\n      extcodesize\n      iszero\n      dup1\n      iszero\n      tag_202\n      jumpi\n      0x00\n      dup1\n      revert\n    tag_202:\n      pop\n      gas\n      staticcall\n      iszero\n      dup1\n      iszero\n      tag_204\n      jumpi\n      returndatasize\n      0x00\n      dup1\n      returndatacopy\n      revert(0x00, returndatasize)\n    tag_204:\n      pop\n      pop\n      pop\n      pop\n      mload(0x40)\n      returndatasize\n      not(0x1f)\n      0x1f\n      dup3\n      add\n      and\n      dup3\n      add\n      dup1\n      0x40\n      mstore\n      pop\n      dup2\n      add\n      swap1\n      tag_205\n      swap2\n      swap1\n      tag_92\n      jump\t// in\n    tag_205:\n        /* \"VoteManager.sol\":850:855  state */\n      dup2\n        /* \"VoteManager.sol\":850:882  state == stateManager.getState() */\n      eq\n        /* \"VoteManager.sol\":842:902  require(state == stateManager.getState(), \"incorrect state\") */\n      tag_206\n      jumpi\n      mload(0x40)\n      0x08c379a000000000000000000000000000000000000000000000000000000000\n      dup2\n      mstore\n      0x04\n      add\n      tag_207\n      swap1\n      tag_208\n      jump\t// in\n    tag_207:\n      mload(0x40)\n      dup1\n      swap2\n      sub\n      swap1\n      revert\n    tag_206:\n        /* \"VoteManager.sol\":2961:2977  uint256 stakerId */\n      0x00\n        /* \"VoteManager.sol\":2980:2992  stakeManager */\n      0x04\n      0x00\n      swap1\n      sload\n      swap1\n      0x0100\n      exp\n      swap1\n      div\n      0xffffffffffffffffffffffffffffffffffffffff\n      and\n        /* \"VoteManager.sol\":2980:3004  stakeManager.getStakerId */\n      0xffffffffffffffffffffffffffffffffffffffff\n      and\n      0x6022a485\n        /* \"VoteManager.sol\":3005:3015  msg.sender */\n      caller\n        /* \"VoteManager.sol\":2980:3016  stakeManager.getStakerId(msg.sender) */\n      mload(0x40)\n      dup3\n      0xffffffff\n      and\n      0xe0\n      shl\n      dup2\n      mstore\n      0x04\n      add\n      tag_210\n      swap2\n      swap1\n      tag_211\n      jump\t// in\n    tag_210:\n      0x20\n      mload(0x40)\n      dup1\n      dup4\n      sub\n      dup2\n      dup7\n      dup1\n      extcodesize\n      iszero\n      dup1\n      iszero\n      tag_212\n      jumpi\n      0x00\n      dup1\n      revert\n    tag_212:\n      pop\n      gas\n      staticcall\n      iszero\n      dup1\n      iszero\n      tag_214\n      jumpi\n      returndatasize\n      0x00\n      dup1\n      returndatacopy\n      revert(0x00, returndatasize)\n    tag_214:\n      pop\n      pop\n      pop\n      pop\n      mload(0x40)\n      returndatasize\n      not(0x1f)\n      0x1f\n      dup3\n      add\n      and\n      dup3\n      add\n      dup1\n      0x40\n      mstore\n      pop\n      dup2\n      add\n      swap1\n      tag_215\n      swap2\n      swap1\n      tag_92\n      jump\t// in\n    tag_215:\n        /* \"VoteManager.sol\":2961:3016  uint256 stakerId = stakeManager.getStakerId(msg.sender) */\n      swap1\n      pop\n        /* \"VoteManager.sol\":3066:3069  0x0 */\n      0x00\n        /* \"VoteManager.sol\":3034:3069  commitments[epoch][stakerId] == 0x0 */\n      dup1\n      shl\n        /* \"VoteManager.sol\":3034:3045  commitments */\n      0x00\n        /* \"VoteManager.sol\":3034:3052  commitments[epoch] */\n      dup1\n        /* \"VoteManager.sol\":3046:3051  epoch */\n      dup8\n        /* \"VoteManager.sol\":3034:3052  commitments[epoch] */\n      dup2\n      mstore\n      0x20\n      add\n      swap1\n      dup2\n      mstore\n      0x20\n      add\n      0x00\n      keccak256\n        /* \"VoteManager.sol\":3034:3062  commitments[epoch][stakerId] */\n      0x00\n        /* \"VoteManager.sol\":3053:3061  stakerId */\n      dup4\n        /* \"VoteManager.sol\":3034:3062  commitments[epoch][stakerId] */\n      dup2\n      mstore\n      0x20\n      add\n      swap1\n      dup2\n      mstore\n      0x20\n      add\n      0x00\n      keccak256\n      sload\n        /* \"VoteManager.sol\":3034:3069  commitments[epoch][stakerId] == 0x0 */\n      eq\n        /* \"VoteManager.sol\":3026:3090  require(commitments[epoch][stakerId] == 0x0, \"already commited\") */\n      tag_216\n      jumpi\n      mload(0x40)\n      0x08c379a000000000000000000000000000000000000000000000000000000000\n      dup2\n      mstore\n      0x04\n      add\n      tag_217\n      swap1\n      tag_218\n      jump\t// in\n    tag_217:\n      mload(0x40)\n      dup1\n      swap2\n      sub\n      swap1\n      revert\n    tag_216:\n        /* \"VoteManager.sol\":3100:3132  Structs.Staker memory thisStaker */\n      tag_219\n      tag_107\n      jump\t// in\n    tag_219:\n        /* \"VoteManager.sol\":3135:3147  stakeManager */\n      0x04\n      0x00\n      swap1\n      sload\n      swap1\n      0x0100\n      exp\n      swap1\n      div\n      0xffffffffffffffffffffffffffffffffffffffff\n      and\n        /* \"VoteManager.sol\":3135:3157  stakeManager.getStaker */\n      0xffffffffffffffffffffffffffffffffffffffff\n      and\n      0xe3c998fe\n        /* \"VoteManager.sol\":3158:3166  stakerId */\n      dup4\n        /* \"VoteManager.sol\":3135:3167  stakeManager.getStaker(stakerId) */\n      mload(0x40)\n      dup3\n      0xffffffff\n      and\n      0xe0\n      shl\n      dup2\n      mstore\n      0x04\n      add\n      tag_220\n      swap2\n      swap1\n      tag_53\n      jump\t// in\n    tag_220:\n      0x0100\n      mload(0x40)\n      dup1\n      dup4\n      sub\n      dup2\n      dup7\n      dup1\n      extcodesize\n      iszero\n      dup1\n      iszero\n      tag_221\n      jumpi\n      0x00\n      dup1\n      revert\n    tag_221:\n      pop\n      gas\n      staticcall\n      iszero\n      dup1\n      iszero\n      tag_223\n      jumpi\n      returndatasize\n      0x00\n      dup1\n      returndatacopy\n      revert(0x00, returndatasize)\n    tag_223:\n      pop\n      pop\n      pop\n      pop\n      mload(0x40)\n      returndatasize\n      not(0x1f)\n      0x1f\n      dup3\n      add\n      and\n      dup3\n      add\n      dup1\n      0x40\n      mstore\n      pop\n      dup2\n      add\n      swap1\n      tag_224\n      swap2\n      swap1\n      tag_113\n      jump\t// in\n    tag_224:\n        /* \"VoteManager.sol\":3100:3167  Structs.Staker memory thisStaker = stakeManager.getStaker(stakerId) */\n      swap1\n      pop\n        /* \"VoteManager.sol\":3177:3189  blockManager */\n      0x06\n      0x00\n      swap1\n      sload\n      swap1\n      0x0100\n      exp\n      swap1\n      div\n      0xffffffffffffffffffffffffffffffffffffffff\n      and\n        /* \"VoteManager.sol\":3177:3202  blockManager.confirmBlock */\n      0xffffffffffffffffffffffffffffffffffffffff\n      and\n      0x9b87f644\n        /* \"VoteManager.sol\":3177:3204  blockManager.confirmBlock() */\n      mload(0x40)\n      dup2\n      0xffffffff\n      and\n      0xe0\n      shl\n      dup2\n      mstore\n      0x04\n      add\n      0x00\n      mload(0x40)\n      dup1\n      dup4\n      sub\n      dup2\n      0x00\n      dup8\n      dup1\n      extcodesize\n      iszero\n      dup1\n      iszero\n      tag_225\n      jumpi\n      0x00\n      dup1\n      revert\n    tag_225:\n      pop\n      gas\n      call\n      iszero\n      dup1\n      iszero\n      tag_227\n      jumpi\n      returndatasize\n      0x00\n      dup1\n      returndatacopy\n      revert(0x00, returndatasize)\n    tag_227:\n      pop\n      pop\n      pop\n      pop\n        /* \"VoteManager.sol\":3215:3227  stakeManager */\n      0x04\n      0x00\n      swap1\n      sload\n      swap1\n      0x0100\n      exp\n      swap1\n      div\n      0xffffffffffffffffffffffffffffffffffffffff\n      and\n        /* \"VoteManager.sol\":3215:3241  stakeManager.givePenalties */\n      0xffffffffffffffffffffffffffffffffffffffff\n      and\n      0x54eae15e\n        /* \"VoteManager.sol\":3242:3250  stakerId */\n      dup4\n        /* \"VoteManager.sol\":3252:3257  epoch */\n      dup9\n        /* \"VoteManager.sol\":3215:3258  stakeManager.givePenalties(stakerId, epoch) */\n      mload(0x40)\n      dup4\n      0xffffffff\n      and\n      0xe0\n      shl\n      dup2\n      mstore\n      0x04\n      add\n      tag_228\n      swap3\n      swap2\n      swap1\n      tag_34\n      jump\t// in\n    tag_228:\n      0x00\n      mload(0x40)\n      dup1\n      dup4\n      sub\n      dup2\n      0x00\n      dup8\n      dup1\n      extcodesize\n      iszero\n      dup1\n      iszero\n      tag_229\n      jumpi\n      0x00\n      dup1\n      revert\n    tag_229:\n      pop\n      gas\n      call\n      iszero\n      dup1\n      iszero\n      tag_231\n      jumpi\n      returndatasize\n      0x00\n      dup1\n      returndatacopy\n      revert(0x00, returndatasize)\n    tag_231:\n      pop\n      pop\n      pop\n      pop\n        /* \"VoteManager.sol\":3325:3334  Constants */\n      linkerSymbol(\"e861534859442f2de25279a5ccd1626413b62699ca8b37407da3a6bf3bbbfee5\")\n        /* \"VoteManager.sol\":3325:3343  Constants.minStake */\n      0x375b3c0a\n        /* \"VoteManager.sol\":3325:3345  Constants.minStake() */\n      mload(0x40)\n      dup2\n      0xffffffff\n      and\n      0xe0\n      shl\n      dup2\n      mstore\n      0x04\n      add\n      0x20\n      mload(0x40)\n      dup1\n      dup4\n      sub\n      dup2\n      dup7\n      dup1\n      extcodesize\n      iszero\n      dup1\n      iszero\n      tag_232\n      jumpi\n      0x00\n      dup1\n      revert\n    tag_232:\n      pop\n      gas\n      delegatecall\n      iszero\n      dup1\n      iszero\n      tag_234\n      jumpi\n      returndatasize\n      0x00\n      dup1\n      returndatacopy\n      revert(0x00, returndatasize)\n    tag_234:\n      pop\n      pop\n      pop\n      pop\n      mload(0x40)\n      returndatasize\n      not(0x1f)\n      0x1f\n      dup3\n      add\n      and\n      dup3\n      add\n      dup1\n      0x40\n      mstore\n      pop\n      dup2\n      add\n      swap1\n      tag_235\n      swap2\n      swap1\n      tag_92\n      jump\t// in\n    tag_235:\n        /* \"VoteManager.sol\":3305:3315  thisStaker */\n      dup2\n        /* \"VoteManager.sol\":3305:3321  thisStaker.stake */\n      0x40\n      add\n      mload\n        /* \"VoteManager.sol\":3305:3345  thisStaker.stake >= Constants.minStake() */\n      lt\n        /* \"VoteManager.sol\":3301:3587  if (thisStaker.stake >= Constants.minStake()) {... */\n      tag_236\n      jumpi\n        /* \"VoteManager.sol\":3392:3402  commitment */\n      dup5\n        /* \"VoteManager.sol\":3361:3372  commitments */\n      0x00\n        /* \"VoteManager.sol\":3361:3379  commitments[epoch] */\n      dup1\n        /* \"VoteManager.sol\":3373:3378  epoch */\n      dup9\n        /* \"VoteManager.sol\":3361:3379  commitments[epoch] */\n      dup2\n      mstore\n      0x20\n      add\n      swap1\n      dup2\n      mstore\n      0x20\n      add\n      0x00\n      keccak256\n        /* \"VoteManager.sol\":3361:3389  commitments[epoch][stakerId] */\n      0x00\n        /* \"VoteManager.sol\":3380:3388  stakerId */\n      dup5\n        /* \"VoteManager.sol\":3361:3389  commitments[epoch][stakerId] */\n      dup2\n      mstore\n      0x20\n      add\n      swap1\n      dup2\n      mstore\n      0x20\n      add\n      0x00\n      keccak256\n        /* \"VoteManager.sol\":3361:3402  commitments[epoch][stakerId] = commitment */\n      dup2\n      swap1\n      sstore\n      pop\n        /* \"VoteManager.sol\":3416:3428  stakeManager */\n      0x04\n      0x00\n      swap1\n      sload\n      swap1\n      0x0100\n      exp\n      swap1\n      div\n      0xffffffffffffffffffffffffffffffffffffffff\n      and\n        /* \"VoteManager.sol\":3416:3450  stakeManager.updateCommitmentEpoch */\n      0xffffffffffffffffffffffffffffffffffffffff\n      and\n      0x188dc83b\n        /* \"VoteManager.sol\":3451:3459  stakerId */\n      dup4\n        /* \"VoteManager.sol\":3416:3460  stakeManager.updateCommitmentEpoch(stakerId) */\n      mload(0x40)\n      dup3\n      0xffffffff\n      and\n      0xe0\n      shl\n      dup2\n      mstore\n      0x04\n      add\n      tag_237\n      swap2\n      swap1\n      tag_53\n      jump\t// in\n    tag_237:\n      0x00\n      mload(0x40)\n      dup1\n      dup4\n      sub\n      dup2\n      0x00\n      dup8\n      dup1\n      extcodesize\n      iszero\n      dup1\n      iszero\n      tag_238\n      jumpi\n      0x00\n      dup1\n      revert\n    tag_238:\n      pop\n      gas\n      call\n      iszero\n      dup1\n      iszero\n      tag_240\n      jumpi\n      returndatasize\n      0x00\n      dup1\n      returndatacopy\n      revert(0x00, returndatasize)\n    tag_240:\n      pop\n      pop\n      pop\n      pop\n        /* \"VoteManager.sol\":3533:3576  Committed(epoch, stakerId, commitment, now) */\n      0x6ad04b07dbe80ee3971460ebc13808fb6dd0fa67fbf7d7ebc4de85811d2c9928\n        /* \"VoteManager.sol\":3543:3548  epoch */\n      dup7\n        /* \"VoteManager.sol\":3550:3558  stakerId */\n      dup4\n        /* \"VoteManager.sol\":3560:3570  commitment */\n      dup8\n        /* \"VoteManager.sol\":3572:3575  now */\n      timestamp\n        /* \"VoteManager.sol\":3533:3576  Committed(epoch, stakerId, commitment, now) */\n      mload(0x40)\n      tag_241\n      swap5\n      swap4\n      swap3\n      swap2\n      swap1\n      tag_242\n      jump\t// in\n    tag_241:\n      mload(0x40)\n      dup1\n      swap2\n      sub\n      swap1\n      log1\n        /* \"VoteManager.sol\":3301:3587  if (thisStaker.stake >= Constants.minStake()) {... */\n    tag_236:\n        /* \"VoteManager.sol\":912:913  _ */\n      pop\n      pop\n        /* \"VoteManager.sol\":782:783  _ */\n      pop\n        /* \"VoteManager.sol\":2843:3593  function commit (uint256 epoch, bytes32 commitment) public checkEpoch(epoch) checkState(Constants.commit()) {... */\n      pop\n      pop\n      pop\n      jump\t// out\n        /* \"VoteManager.sol\":2516:2837  function getTotalStakeRevealed(uint256 epoch, uint256 assetId, uint256 voteValue) public view returns(uint256) {... */\n    tag_85:\n        /* \"VoteManager.sol\":2618:2625  uint256 */\n      0x00\n        /* \"VoteManager.sol\":2791:2802  voteWeights */\n      0x03\n        /* \"VoteManager.sol\":2791:2809  voteWeights[epoch] */\n      0x00\n        /* \"VoteManager.sol\":2803:2808  epoch */\n      dup6\n        /* \"VoteManager.sol\":2791:2809  voteWeights[epoch] */\n      dup2\n      mstore\n      0x20\n      add\n      swap1\n      dup2\n      mstore\n      0x20\n      add\n      0x00\n      keccak256\n        /* \"VoteManager.sol\":2791:2818  voteWeights[epoch][assetId] */\n      0x00\n        /* \"VoteManager.sol\":2810:2817  assetId */\n      dup5\n        /* \"VoteManager.sol\":2791:2818  voteWeights[epoch][assetId] */\n      dup2\n      mstore\n      0x20\n      add\n      swap1\n      dup2\n      mstore\n      0x20\n      add\n      0x00\n      keccak256\n        /* \"VoteManager.sol\":2791:2829  voteWeights[epoch][assetId][voteValue] */\n      0x00\n        /* \"VoteManager.sol\":2819:2828  voteValue */\n      dup4\n        /* \"VoteManager.sol\":2791:2829  voteWeights[epoch][assetId][voteValue] */\n      dup2\n      mstore\n      0x20\n      add\n      swap1\n      dup2\n      mstore\n      0x20\n      add\n      0x00\n      keccak256\n      sload\n        /* \"VoteManager.sol\":2784:2830  return(voteWeights[epoch][assetId][voteValue]) */\n      swap1\n      pop\n        /* \"VoteManager.sol\":2516:2837  function getTotalStakeRevealed(uint256 epoch, uint256 assetId, uint256 voteValue) public view returns(uint256) {... */\n      swap4\n      swap3\n      pop\n      pop\n      pop\n      jump\t// out\n        /* \"openzeppelin-solidity/contracts/cryptography/MerkleProof.sol\":497:1276   */\n    tag_146:\n        /* \"openzeppelin-solidity/contracts/cryptography/MerkleProof.sol\":588:592   */\n      0x00\n        /* \"openzeppelin-solidity/contracts/cryptography/MerkleProof.sol\":604:624   */\n      dup1\n        /* \"openzeppelin-solidity/contracts/cryptography/MerkleProof.sol\":627:631   */\n      dup3\n        /* \"openzeppelin-solidity/contracts/cryptography/MerkleProof.sol\":604:631   */\n      swap1\n      pop\n        /* \"openzeppelin-solidity/contracts/cryptography/MerkleProof.sol\":647:656   */\n      0x00\n        /* \"openzeppelin-solidity/contracts/cryptography/MerkleProof.sol\":659:660   */\n      dup1\n        /* \"openzeppelin-solidity/contracts/cryptography/MerkleProof.sol\":647:660   */\n      swap1\n      pop\n        /* \"openzeppelin-solidity/contracts/cryptography/MerkleProof.sol\":642:1157   */\n    tag_245:\n        /* \"openzeppelin-solidity/contracts/cryptography/MerkleProof.sol\":666:671   */\n      dup6\n        /* \"openzeppelin-solidity/contracts/cryptography/MerkleProof.sol\":666:678   */\n      mload\n        /* \"openzeppelin-solidity/contracts/cryptography/MerkleProof.sol\":662:663   */\n      dup2\n        /* \"openzeppelin-solidity/contracts/cryptography/MerkleProof.sol\":662:678   */\n      lt\n        /* \"openzeppelin-solidity/contracts/cryptography/MerkleProof.sol\":642:1157   */\n      iszero\n      tag_246\n      jumpi\n        /* \"openzeppelin-solidity/contracts/cryptography/MerkleProof.sol\":699:719   */\n      0x00\n        /* \"openzeppelin-solidity/contracts/cryptography/MerkleProof.sol\":722:727   */\n      dup7\n        /* \"openzeppelin-solidity/contracts/cryptography/MerkleProof.sol\":728:729   */\n      dup3\n        /* \"openzeppelin-solidity/contracts/cryptography/MerkleProof.sol\":722:730   */\n      dup2\n      mload\n      dup2\n      lt\n      tag_248\n      jumpi\n      invalid\n    tag_248:\n      0x20\n      mul\n      0x20\n      add\n      add\n      mload\n        /* \"openzeppelin-solidity/contracts/cryptography/MerkleProof.sol\":699:730   */\n      swap1\n      pop\n        /* \"openzeppelin-solidity/contracts/cryptography/MerkleProof.sol\":765:777   */\n      dup1\n        /* \"openzeppelin-solidity/contracts/cryptography/MerkleProof.sol\":749:761   */\n      dup4\n        /* \"openzeppelin-solidity/contracts/cryptography/MerkleProof.sol\":749:777   */\n      gt\n        /* \"openzeppelin-solidity/contracts/cryptography/MerkleProof.sol\":745:1147   */\n      tag_249\n      jumpi\n        /* \"openzeppelin-solidity/contracts/cryptography/MerkleProof.sol\":917:929   */\n      dup3\n        /* \"openzeppelin-solidity/contracts/cryptography/MerkleProof.sol\":931:943   */\n      dup2\n        /* \"openzeppelin-solidity/contracts/cryptography/MerkleProof.sol\":900:944   */\n      add(0x20, mload(0x40))\n      tag_250\n      swap3\n      swap2\n      swap1\n      tag_251\n      jump\t// in\n    tag_250:\n      mload(0x40)\n      0x20\n      dup2\n      dup4\n      sub\n      sub\n      dup2\n      mstore\n      swap1\n      0x40\n      mstore\n        /* \"openzeppelin-solidity/contracts/cryptography/MerkleProof.sol\":890:945   */\n      dup1\n      mload\n      swap1\n      0x20\n      add\n      keccak256\n        /* \"openzeppelin-solidity/contracts/cryptography/MerkleProof.sol\":875:945   */\n      swap3\n      pop\n        /* \"openzeppelin-solidity/contracts/cryptography/MerkleProof.sol\":745:1147   */\n      jump(tag_252)\n    tag_249:\n        /* \"openzeppelin-solidity/contracts/cryptography/MerkleProof.sol\":1104:1116   */\n      dup1\n        /* \"openzeppelin-solidity/contracts/cryptography/MerkleProof.sol\":1118:1130   */\n      dup4\n        /* \"openzeppelin-solidity/contracts/cryptography/MerkleProof.sol\":1087:1131   */\n      add(0x20, mload(0x40))\n      tag_253\n      swap3\n      swap2\n      swap1\n      tag_251\n      jump\t// in\n    tag_253:\n      mload(0x40)\n      0x20\n      dup2\n      dup4\n      sub\n      sub\n      dup2\n      mstore\n      swap1\n      0x40\n      mstore\n        /* \"openzeppelin-solidity/contracts/cryptography/MerkleProof.sol\":1077:1132   */\n      dup1\n      mload\n      swap1\n      0x20\n      add\n      keccak256\n        /* \"openzeppelin-solidity/contracts/cryptography/MerkleProof.sol\":1062:1132   */\n      swap3\n      pop\n        /* \"openzeppelin-solidity/contracts/cryptography/MerkleProof.sol\":745:1147   */\n    tag_252:\n        /* \"openzeppelin-solidity/contracts/cryptography/MerkleProof.sol\":642:1157   */\n      pop\n        /* \"openzeppelin-solidity/contracts/cryptography/MerkleProof.sol\":680:683   */\n      dup1\n      dup1\n      0x01\n      add\n      swap2\n      pop\n      pop\n        /* \"openzeppelin-solidity/contracts/cryptography/MerkleProof.sol\":642:1157   */\n      jump(tag_245)\n    tag_246:\n      pop\n        /* \"openzeppelin-solidity/contracts/cryptography/MerkleProof.sol\":1265:1269   */\n      dup4\n        /* \"openzeppelin-solidity/contracts/cryptography/MerkleProof.sol\":1249:1261   */\n      dup2\n        /* \"openzeppelin-solidity/contracts/cryptography/MerkleProof.sol\":1249:1269   */\n      eq\n        /* \"openzeppelin-solidity/contracts/cryptography/MerkleProof.sol\":1242:1269   */\n      swap2\n      pop\n      pop\n        /* \"openzeppelin-solidity/contracts/cryptography/MerkleProof.sol\":497:1276   */\n      swap4\n      swap3\n      pop\n      pop\n      pop\n      jump\t// out\n        /* \"openzeppelin-solidity/contracts/math/SafeMath.sol\":874:1050   */\n    tag_153:\n        /* \"openzeppelin-solidity/contracts/math/SafeMath.sol\":932:939   */\n      0x00\n        /* \"openzeppelin-solidity/contracts/math/SafeMath.sol\":951:960   */\n      dup1\n        /* \"openzeppelin-solidity/contracts/math/SafeMath.sol\":967:968   */\n      dup3\n        /* \"openzeppelin-solidity/contracts/math/SafeMath.sol\":963:964   */\n      dup5\n        /* \"openzeppelin-solidity/contracts/math/SafeMath.sol\":963:968   */\n      add\n        /* \"openzeppelin-solidity/contracts/math/SafeMath.sol\":951:968   */\n      swap1\n      pop\n        /* \"openzeppelin-solidity/contracts/math/SafeMath.sol\":991:992   */\n      dup4\n        /* \"openzeppelin-solidity/contracts/math/SafeMath.sol\":986:987   */\n      dup2\n        /* \"openzeppelin-solidity/contracts/math/SafeMath.sol\":986:992   */\n      lt\n      iszero\n        /* \"openzeppelin-solidity/contracts/math/SafeMath.sol\":978:1024   */\n      tag_255\n      jumpi\n      mload(0x40)\n      0x08c379a000000000000000000000000000000000000000000000000000000000\n      dup2\n      mstore\n      0x04\n      add\n      tag_256\n      swap1\n      tag_257\n      jump\t// in\n    tag_256:\n      mload(0x40)\n      dup1\n      swap2\n      sub\n      swap1\n      revert\n    tag_255:\n        /* \"openzeppelin-solidity/contracts/math/SafeMath.sol\":1042:1043   */\n      dup1\n        /* \"openzeppelin-solidity/contracts/math/SafeMath.sol\":1035:1043   */\n      swap2\n      pop\n      pop\n        /* \"openzeppelin-solidity/contracts/math/SafeMath.sol\":874:1050   */\n      swap3\n      swap2\n      pop\n      pop\n      jump\t// out\n    tag_107:\n      mload(0x40)\n      dup1\n      0x0100\n      add\n      0x40\n      mstore\n      dup1\n      0x00\n      dup2\n      mstore\n      0x20\n      add\n      and(0xffffffffffffffffffffffffffffffffffffffff, 0x00)\n      dup2\n      mstore\n      0x20\n      add\n      0x00\n      dup2\n      mstore\n      0x20\n      add\n      0x00\n      dup2\n      mstore\n      0x20\n      add\n      0x00\n      dup2\n      mstore\n      0x20\n      add\n      0x00\n      dup2\n      mstore\n      0x20\n      add\n      0x00\n      dup2\n      mstore\n      0x20\n      add\n      0x00\n      dup2\n      mstore\n      pop\n      swap1\n      jump\t// out\n    tag_186:\n      mload(0x40)\n      dup1\n      0x40\n      add\n      0x40\n      mstore\n      dup1\n      0x00\n      dup2\n      mstore\n      0x20\n      add\n      0x00\n      dup2\n      mstore\n      pop\n      swap1\n      jump\t// out\n        /* \"--CODEGEN--\":5:135   */\n    tag_259:\n      0x00\n        /* \"--CODEGEN--\":85:91   */\n      dup2\n        /* \"--CODEGEN--\":72:92   */\n      calldataload\n        /* \"--CODEGEN--\":63:92   */\n      swap1\n      pop\n        /* \"--CODEGEN--\":97:130   */\n      tag_261\n        /* \"--CODEGEN--\":124:129   */\n      dup2\n        /* \"--CODEGEN--\":97:130   */\n      tag_262\n      jump\t// in\n    tag_261:\n        /* \"--CODEGEN--\":57:135   */\n      swap3\n      swap2\n      pop\n      pop\n      jump\t// out\n        /* \"--CODEGEN--\":142:276   */\n    tag_263:\n      0x00\n        /* \"--CODEGEN--\":226:232   */\n      dup2\n        /* \"--CODEGEN--\":220:233   */\n      mload\n        /* \"--CODEGEN--\":211:233   */\n      swap1\n      pop\n        /* \"--CODEGEN--\":238:271   */\n      tag_265\n        /* \"--CODEGEN--\":265:270   */\n      dup2\n        /* \"--CODEGEN--\":238:271   */\n      tag_262\n      jump\t// in\n    tag_265:\n        /* \"--CODEGEN--\":205:276   */\n      swap3\n      swap2\n      pop\n      pop\n      jump\t// out\n        /* \"--CODEGEN--\":303:1056   */\n    tag_266:\n      0x00\n        /* \"--CODEGEN--\":445:448   */\n      dup3\n        /* \"--CODEGEN--\":438:442   */\n      0x1f\n        /* \"--CODEGEN--\":430:436   */\n      dup4\n        /* \"--CODEGEN--\":426:443   */\n      add\n        /* \"--CODEGEN--\":422:449   */\n      slt\n        /* \"--CODEGEN--\":412:414   */\n      tag_268\n      jumpi\n        /* \"--CODEGEN--\":463:464   */\n      0x00\n        /* \"--CODEGEN--\":460:461   */\n      dup1\n        /* \"--CODEGEN--\":453:465   */\n      revert\n        /* \"--CODEGEN--\":412:414   */\n    tag_268:\n        /* \"--CODEGEN--\":500:506   */\n      dup2\n        /* \"--CODEGEN--\":487:507   */\n      calldataload\n        /* \"--CODEGEN--\":522:627   */\n      tag_269\n        /* \"--CODEGEN--\":537:626   */\n      tag_270\n        /* \"--CODEGEN--\":619:625   */\n      dup3\n        /* \"--CODEGEN--\":537:626   */\n      tag_271\n      jump\t// in\n    tag_270:\n        /* \"--CODEGEN--\":522:627   */\n      tag_272\n      jump\t// in\n    tag_269:\n        /* \"--CODEGEN--\":513:627   */\n      swap2\n      pop\n        /* \"--CODEGEN--\":644:649   */\n      dup2\n        /* \"--CODEGEN--\":669:675   */\n      dup2\n        /* \"--CODEGEN--\":662:667   */\n      dup4\n        /* \"--CODEGEN--\":655:676   */\n      mstore\n        /* \"--CODEGEN--\":699:703   */\n      0x20\n        /* \"--CODEGEN--\":691:697   */\n      dup5\n        /* \"--CODEGEN--\":687:704   */\n      add\n        /* \"--CODEGEN--\":677:704   */\n      swap4\n      pop\n        /* \"--CODEGEN--\":721:725   */\n      0x20\n        /* \"--CODEGEN--\":716:719   */\n      dup2\n        /* \"--CODEGEN--\":712:726   */\n      add\n        /* \"--CODEGEN--\":705:726   */\n      swap1\n      pop\n        /* \"--CODEGEN--\":774:780   */\n      dup4\n        /* \"--CODEGEN--\":807:808   */\n      0x00\n        /* \"--CODEGEN--\":792:1050   */\n    tag_273:\n        /* \"--CODEGEN--\":817:823   */\n      dup4\n        /* \"--CODEGEN--\":814:815   */\n      dup2\n        /* \"--CODEGEN--\":811:824   */\n      lt\n        /* \"--CODEGEN--\":792:1050   */\n      iszero\n      tag_275\n      jumpi\n        /* \"--CODEGEN--\":900:903   */\n      dup2\n        /* \"--CODEGEN--\":887:904   */\n      calldataload\n        /* \"--CODEGEN--\":879:885   */\n      dup7\n        /* \"--CODEGEN--\":875:905   */\n      add\n        /* \"--CODEGEN--\":924:986   */\n      tag_276\n        /* \"--CODEGEN--\":982:985   */\n      dup9\n        /* \"--CODEGEN--\":970:980   */\n      dup3\n        /* \"--CODEGEN--\":924:986   */\n      tag_277\n      jump\t// in\n    tag_276:\n        /* \"--CODEGEN--\":919:922   */\n      dup5\n        /* \"--CODEGEN--\":912:987   */\n      mstore\n        /* \"--CODEGEN--\":1010:1014   */\n      0x20\n        /* \"--CODEGEN--\":1005:1008   */\n      dup5\n        /* \"--CODEGEN--\":1001:1015   */\n      add\n        /* \"--CODEGEN--\":994:1015   */\n      swap4\n      pop\n        /* \"--CODEGEN--\":1038:1042   */\n      0x20\n        /* \"--CODEGEN--\":1033:1036   */\n      dup4\n        /* \"--CODEGEN--\":1029:1043   */\n      add\n        /* \"--CODEGEN--\":1022:1043   */\n      swap3\n      pop\n        /* \"--CODEGEN--\":849:1050   */\n      pop\n        /* \"--CODEGEN--\":839:840   */\n      0x01\n        /* \"--CODEGEN--\":836:837   */\n      dup2\n        /* \"--CODEGEN--\":832:841   */\n      add\n        /* \"--CODEGEN--\":827:841   */\n      swap1\n      pop\n        /* \"--CODEGEN--\":792:1050   */\n      jump(tag_273)\n    tag_275:\n        /* \"--CODEGEN--\":796:810   */\n      pop\n        /* \"--CODEGEN--\":405:1056   */\n      pop\n      pop\n      pop\n      swap3\n      swap2\n      pop\n      pop\n      jump\t// out\n        /* \"--CODEGEN--\":1082:1789   */\n    tag_277:\n      0x00\n        /* \"--CODEGEN--\":1199:1202   */\n      dup3\n        /* \"--CODEGEN--\":1192:1196   */\n      0x1f\n        /* \"--CODEGEN--\":1184:1190   */\n      dup4\n        /* \"--CODEGEN--\":1180:1197   */\n      add\n        /* \"--CODEGEN--\":1176:1203   */\n      slt\n        /* \"--CODEGEN--\":1166:1168   */\n      tag_279\n      jumpi\n        /* \"--CODEGEN--\":1217:1218   */\n      0x00\n        /* \"--CODEGEN--\":1214:1215   */\n      dup1\n        /* \"--CODEGEN--\":1207:1219   */\n      revert\n        /* \"--CODEGEN--\":1166:1168   */\n    tag_279:\n        /* \"--CODEGEN--\":1254:1260   */\n      dup2\n        /* \"--CODEGEN--\":1241:1261   */\n      calldataload\n        /* \"--CODEGEN--\":1276:1356   */\n      tag_280\n        /* \"--CODEGEN--\":1291:1355   */\n      tag_281\n        /* \"--CODEGEN--\":1348:1354   */\n      dup3\n        /* \"--CODEGEN--\":1291:1355   */\n      tag_282\n      jump\t// in\n    tag_281:\n        /* \"--CODEGEN--\":1276:1356   */\n      tag_272\n      jump\t// in\n    tag_280:\n        /* \"--CODEGEN--\":1267:1356   */\n      swap2\n      pop\n        /* \"--CODEGEN--\":1373:1378   */\n      dup2\n        /* \"--CODEGEN--\":1398:1404   */\n      dup2\n        /* \"--CODEGEN--\":1391:1396   */\n      dup4\n        /* \"--CODEGEN--\":1384:1405   */\n      mstore\n        /* \"--CODEGEN--\":1428:1432   */\n      0x20\n        /* \"--CODEGEN--\":1420:1426   */\n      dup5\n        /* \"--CODEGEN--\":1416:1433   */\n      add\n        /* \"--CODEGEN--\":1406:1433   */\n      swap4\n      pop\n        /* \"--CODEGEN--\":1450:1454   */\n      0x20\n        /* \"--CODEGEN--\":1445:1448   */\n      dup2\n        /* \"--CODEGEN--\":1441:1455   */\n      add\n        /* \"--CODEGEN--\":1434:1455   */\n      swap1\n      pop\n        /* \"--CODEGEN--\":1503:1509   */\n      dup4\n        /* \"--CODEGEN--\":1550:1553   */\n      dup6\n        /* \"--CODEGEN--\":1542:1546   */\n      0x20\n        /* \"--CODEGEN--\":1534:1540   */\n      dup5\n        /* \"--CODEGEN--\":1530:1547   */\n      mul\n        /* \"--CODEGEN--\":1525:1528   */\n      dup3\n        /* \"--CODEGEN--\":1521:1548   */\n      add\n        /* \"--CODEGEN--\":1518:1554   */\n      gt\n        /* \"--CODEGEN--\":1515:1517   */\n      iszero\n      tag_283\n      jumpi\n        /* \"--CODEGEN--\":1567:1568   */\n      0x00\n        /* \"--CODEGEN--\":1564:1565   */\n      dup1\n        /* \"--CODEGEN--\":1557:1569   */\n      revert\n        /* \"--CODEGEN--\":1515:1517   */\n    tag_283:\n        /* \"--CODEGEN--\":1592:1593   */\n      0x00\n        /* \"--CODEGEN--\":1577:1783   */\n    tag_284:\n        /* \"--CODEGEN--\":1602:1608   */\n      dup4\n        /* \"--CODEGEN--\":1599:1600   */\n      dup2\n        /* \"--CODEGEN--\":1596:1609   */\n      lt\n        /* \"--CODEGEN--\":1577:1783   */\n      iszero\n      tag_286\n      jumpi\n        /* \"--CODEGEN--\":1660:1663   */\n      dup2\n        /* \"--CODEGEN--\":1682:1719   */\n      tag_287\n        /* \"--CODEGEN--\":1715:1718   */\n      dup9\n        /* \"--CODEGEN--\":1703:1713   */\n      dup3\n        /* \"--CODEGEN--\":1682:1719   */\n      tag_288\n      jump\t// in\n    tag_287:\n        /* \"--CODEGEN--\":1677:1680   */\n      dup5\n        /* \"--CODEGEN--\":1670:1720   */\n      mstore\n        /* \"--CODEGEN--\":1743:1747   */\n      0x20\n        /* \"--CODEGEN--\":1738:1741   */\n      dup5\n        /* \"--CODEGEN--\":1734:1748   */\n      add\n        /* \"--CODEGEN--\":1727:1748   */\n      swap4\n      pop\n        /* \"--CODEGEN--\":1771:1775   */\n      0x20\n        /* \"--CODEGEN--\":1766:1769   */\n      dup4\n        /* \"--CODEGEN--\":1762:1776   */\n      add\n        /* \"--CODEGEN--\":1755:1776   */\n      swap3\n      pop\n        /* \"--CODEGEN--\":1634:1783   */\n      pop\n        /* \"--CODEGEN--\":1624:1625   */\n      0x01\n        /* \"--CODEGEN--\":1621:1622   */\n      dup2\n        /* \"--CODEGEN--\":1617:1626   */\n      add\n        /* \"--CODEGEN--\":1612:1626   */\n      swap1\n      pop\n        /* \"--CODEGEN--\":1577:1783   */\n      jump(tag_284)\n    tag_286:\n        /* \"--CODEGEN--\":1581:1595   */\n      pop\n        /* \"--CODEGEN--\":1159:1789   */\n      pop\n      pop\n      pop\n      swap3\n      swap2\n      pop\n      pop\n      jump\t// out\n        /* \"--CODEGEN--\":1815:2522   */\n    tag_289:\n      0x00\n        /* \"--CODEGEN--\":1932:1935   */\n      dup3\n        /* \"--CODEGEN--\":1925:1929   */\n      0x1f\n        /* \"--CODEGEN--\":1917:1923   */\n      dup4\n        /* \"--CODEGEN--\":1913:1930   */\n      add\n        /* \"--CODEGEN--\":1909:1936   */\n      slt\n        /* \"--CODEGEN--\":1899:1901   */\n      tag_291\n      jumpi\n        /* \"--CODEGEN--\":1950:1951   */\n      0x00\n        /* \"--CODEGEN--\":1947:1948   */\n      dup1\n        /* \"--CODEGEN--\":1940:1952   */\n      revert\n        /* \"--CODEGEN--\":1899:1901   */\n    tag_291:\n        /* \"--CODEGEN--\":1987:1993   */\n      dup2\n        /* \"--CODEGEN--\":1974:1994   */\n      calldataload\n        /* \"--CODEGEN--\":2009:2089   */\n      tag_292\n        /* \"--CODEGEN--\":2024:2088   */\n      tag_293\n        /* \"--CODEGEN--\":2081:2087   */\n      dup3\n        /* \"--CODEGEN--\":2024:2088   */\n      tag_294\n      jump\t// in\n    tag_293:\n        /* \"--CODEGEN--\":2009:2089   */\n      tag_272\n      jump\t// in\n    tag_292:\n        /* \"--CODEGEN--\":2000:2089   */\n      swap2\n      pop\n        /* \"--CODEGEN--\":2106:2111   */\n      dup2\n        /* \"--CODEGEN--\":2131:2137   */\n      dup2\n        /* \"--CODEGEN--\":2124:2129   */\n      dup4\n        /* \"--CODEGEN--\":2117:2138   */\n      mstore\n        /* \"--CODEGEN--\":2161:2165   */\n      0x20\n        /* \"--CODEGEN--\":2153:2159   */\n      dup5\n        /* \"--CODEGEN--\":2149:2166   */\n      add\n        /* \"--CODEGEN--\":2139:2166   */\n      swap4\n      pop\n        /* \"--CODEGEN--\":2183:2187   */\n      0x20\n        /* \"--CODEGEN--\":2178:2181   */\n      dup2\n        /* \"--CODEGEN--\":2174:2188   */\n      add\n        /* \"--CODEGEN--\":2167:2188   */\n      swap1\n      pop\n        /* \"--CODEGEN--\":2236:2242   */\n      dup4\n        /* \"--CODEGEN--\":2283:2286   */\n      dup6\n        /* \"--CODEGEN--\":2275:2279   */\n      0x20\n        /* \"--CODEGEN--\":2267:2273   */\n      dup5\n        /* \"--CODEGEN--\":2263:2280   */\n      mul\n        /* \"--CODEGEN--\":2258:2261   */\n      dup3\n        /* \"--CODEGEN--\":2254:2281   */\n      add\n        /* \"--CODEGEN--\":2251:2287   */\n      gt\n        /* \"--CODEGEN--\":2248:2250   */\n      iszero\n      tag_295\n      jumpi\n        /* \"--CODEGEN--\":2300:2301   */\n      0x00\n        /* \"--CODEGEN--\":2297:2298   */\n      dup1\n        /* \"--CODEGEN--\":2290:2302   */\n      revert\n        /* \"--CODEGEN--\":2248:2250   */\n    tag_295:\n        /* \"--CODEGEN--\":2325:2326   */\n      0x00\n        /* \"--CODEGEN--\":2310:2516   */\n    tag_296:\n        /* \"--CODEGEN--\":2335:2341   */\n      dup4\n        /* \"--CODEGEN--\":2332:2333   */\n      dup2\n        /* \"--CODEGEN--\":2329:2342   */\n      lt\n        /* \"--CODEGEN--\":2310:2516   */\n      iszero\n      tag_298\n      jumpi\n        /* \"--CODEGEN--\":2393:2396   */\n      dup2\n        /* \"--CODEGEN--\":2415:2452   */\n      tag_299\n        /* \"--CODEGEN--\":2448:2451   */\n      dup9\n        /* \"--CODEGEN--\":2436:2446   */\n      dup3\n        /* \"--CODEGEN--\":2415:2452   */\n      tag_300\n      jump\t// in\n    tag_299:\n        /* \"--CODEGEN--\":2410:2413   */\n      dup5\n        /* \"--CODEGEN--\":2403:2453   */\n      mstore\n        /* \"--CODEGEN--\":2476:2480   */\n      0x20\n        /* \"--CODEGEN--\":2471:2474   */\n      dup5\n        /* \"--CODEGEN--\":2467:2481   */\n      add\n        /* \"--CODEGEN--\":2460:2481   */\n      swap4\n      pop\n        /* \"--CODEGEN--\":2504:2508   */\n      0x20\n        /* \"--CODEGEN--\":2499:2502   */\n      dup4\n        /* \"--CODEGEN--\":2495:2509   */\n      add\n        /* \"--CODEGEN--\":2488:2509   */\n      swap3\n      pop\n        /* \"--CODEGEN--\":2367:2516   */\n      pop\n        /* \"--CODEGEN--\":2357:2358   */\n      0x01\n        /* \"--CODEGEN--\":2354:2355   */\n      dup2\n        /* \"--CODEGEN--\":2350:2359   */\n      add\n        /* \"--CODEGEN--\":2345:2359   */\n      swap1\n      pop\n        /* \"--CODEGEN--\":2310:2516   */\n      jump(tag_296)\n    tag_298:\n        /* \"--CODEGEN--\":2314:2328   */\n      pop\n        /* \"--CODEGEN--\":1892:2522   */\n      pop\n      pop\n      pop\n      swap3\n      swap2\n      pop\n      pop\n      jump\t// out\n        /* \"--CODEGEN--\":2530:2660   */\n    tag_288:\n      0x00\n        /* \"--CODEGEN--\":2610:2616   */\n      dup2\n        /* \"--CODEGEN--\":2597:2617   */\n      calldataload\n        /* \"--CODEGEN--\":2588:2617   */\n      swap1\n      pop\n        /* \"--CODEGEN--\":2622:2655   */\n      tag_302\n        /* \"--CODEGEN--\":2649:2654   */\n      dup2\n        /* \"--CODEGEN--\":2622:2655   */\n      tag_303\n      jump\t// in\n    tag_302:\n        /* \"--CODEGEN--\":2582:2660   */\n      swap3\n      swap2\n      pop\n      pop\n      jump\t// out\n        /* \"--CODEGEN--\":2695:4186   */\n    tag_304:\n      0x00\n        /* \"--CODEGEN--\":2819:2825   */\n      0x0100\n        /* \"--CODEGEN--\":2807:2816   */\n      dup3\n        /* \"--CODEGEN--\":2802:2805   */\n      dup5\n        /* \"--CODEGEN--\":2798:2817   */\n      sub\n        /* \"--CODEGEN--\":2794:2826   */\n      slt\n        /* \"--CODEGEN--\":2791:2793   */\n      iszero\n      tag_306\n      jumpi\n        /* \"--CODEGEN--\":2839:2840   */\n      0x00\n        /* \"--CODEGEN--\":2836:2837   */\n      dup1\n        /* \"--CODEGEN--\":2829:2841   */\n      revert\n        /* \"--CODEGEN--\":2791:2793   */\n    tag_306:\n        /* \"--CODEGEN--\":2857:2879   */\n      tag_307\n        /* \"--CODEGEN--\":2872:2878   */\n      0x0100\n        /* \"--CODEGEN--\":2857:2879   */\n      tag_272\n      jump\t// in\n    tag_307:\n        /* \"--CODEGEN--\":2848:2879   */\n      swap1\n      pop\n        /* \"--CODEGEN--\":2927:2928   */\n      0x00\n        /* \"--CODEGEN--\":2959:3019   */\n      tag_308\n        /* \"--CODEGEN--\":3015:3018   */\n      dup5\n        /* \"--CODEGEN--\":3006:3012   */\n      dup3\n        /* \"--CODEGEN--\":2995:3004   */\n      dup6\n        /* \"--CODEGEN--\":2991:3013   */\n      add\n        /* \"--CODEGEN--\":2959:3019   */\n      tag_309\n      jump\t// in\n    tag_308:\n        /* \"--CODEGEN--\":2952:2956   */\n      0x00\n        /* \"--CODEGEN--\":2945:2950   */\n      dup4\n        /* \"--CODEGEN--\":2941:2957   */\n      add\n        /* \"--CODEGEN--\":2934:3020   */\n      mstore\n        /* \"--CODEGEN--\":2889:3031   */\n      pop\n        /* \"--CODEGEN--\":3085:3087   */\n      0x20\n        /* \"--CODEGEN--\":3118:3178   */\n      tag_310\n        /* \"--CODEGEN--\":3174:3177   */\n      dup5\n        /* \"--CODEGEN--\":3165:3171   */\n      dup3\n        /* \"--CODEGEN--\":3154:3163   */\n      dup6\n        /* \"--CODEGEN--\":3150:3172   */\n      add\n        /* \"--CODEGEN--\":3118:3178   */\n      tag_263\n      jump\t// in\n    tag_310:\n        /* \"--CODEGEN--\":3111:3115   */\n      0x20\n        /* \"--CODEGEN--\":3104:3109   */\n      dup4\n        /* \"--CODEGEN--\":3100:3116   */\n      add\n        /* \"--CODEGEN--\":3093:3179   */\n      mstore\n        /* \"--CODEGEN--\":3041:3190   */\n      pop\n        /* \"--CODEGEN--\":3241:3243   */\n      0x40\n        /* \"--CODEGEN--\":3274:3334   */\n      tag_311\n        /* \"--CODEGEN--\":3330:3333   */\n      dup5\n        /* \"--CODEGEN--\":3321:3327   */\n      dup3\n        /* \"--CODEGEN--\":3310:3319   */\n      dup6\n        /* \"--CODEGEN--\":3306:3328   */\n      add\n        /* \"--CODEGEN--\":3274:3334   */\n      tag_309\n      jump\t// in\n    tag_311:\n        /* \"--CODEGEN--\":3267:3271   */\n      0x40\n        /* \"--CODEGEN--\":3260:3265   */\n      dup4\n        /* \"--CODEGEN--\":3256:3272   */\n      add\n        /* \"--CODEGEN--\":3249:3335   */\n      mstore\n        /* \"--CODEGEN--\":3200:3346   */\n      pop\n        /* \"--CODEGEN--\":3403:3405   */\n      0x60\n        /* \"--CODEGEN--\":3436:3496   */\n      tag_312\n        /* \"--CODEGEN--\":3492:3495   */\n      dup5\n        /* \"--CODEGEN--\":3483:3489   */\n      dup3\n        /* \"--CODEGEN--\":3472:3481   */\n      dup6\n        /* \"--CODEGEN--\":3468:3490   */\n      add\n        /* \"--CODEGEN--\":3436:3496   */\n      tag_309\n      jump\t// in\n    tag_312:\n        /* \"--CODEGEN--\":3429:3433   */\n      0x60\n        /* \"--CODEGEN--\":3422:3427   */\n      dup4\n        /* \"--CODEGEN--\":3418:3434   */\n      add\n        /* \"--CODEGEN--\":3411:3497   */\n      mstore\n        /* \"--CODEGEN--\":3356:3508   */\n      pop\n        /* \"--CODEGEN--\":3572:3575   */\n      0x80\n        /* \"--CODEGEN--\":3606:3666   */\n      tag_313\n        /* \"--CODEGEN--\":3662:3665   */\n      dup5\n        /* \"--CODEGEN--\":3653:3659   */\n      dup3\n        /* \"--CODEGEN--\":3642:3651   */\n      dup6\n        /* \"--CODEGEN--\":3638:3660   */\n      add\n        /* \"--CODEGEN--\":3606:3666   */\n      tag_309\n      jump\t// in\n    tag_313:\n        /* \"--CODEGEN--\":3599:3603   */\n      0x80\n        /* \"--CODEGEN--\":3592:3597   */\n      dup4\n        /* \"--CODEGEN--\":3588:3604   */\n      add\n        /* \"--CODEGEN--\":3581:3667   */\n      mstore\n        /* \"--CODEGEN--\":3518:3678   */\n      pop\n        /* \"--CODEGEN--\":3741:3744   */\n      0xa0\n        /* \"--CODEGEN--\":3775:3835   */\n      tag_314\n        /* \"--CODEGEN--\":3831:3834   */\n      dup5\n        /* \"--CODEGEN--\":3822:3828   */\n      dup3\n        /* \"--CODEGEN--\":3811:3820   */\n      dup6\n        /* \"--CODEGEN--\":3807:3829   */\n      add\n        /* \"--CODEGEN--\":3775:3835   */\n      tag_309\n      jump\t// in\n    tag_314:\n        /* \"--CODEGEN--\":3768:3772   */\n      0xa0\n        /* \"--CODEGEN--\":3761:3766   */\n      dup4\n        /* \"--CODEGEN--\":3757:3773   */\n      add\n        /* \"--CODEGEN--\":3750:3836   */\n      mstore\n        /* \"--CODEGEN--\":3688:3847   */\n      pop\n        /* \"--CODEGEN--\":3905:3908   */\n      0xc0\n        /* \"--CODEGEN--\":3939:3999   */\n      tag_315\n        /* \"--CODEGEN--\":3995:3998   */\n      dup5\n        /* \"--CODEGEN--\":3986:3992   */\n      dup3\n        /* \"--CODEGEN--\":3975:3984   */\n      dup6\n        /* \"--CODEGEN--\":3971:3993   */\n      add\n        /* \"--CODEGEN--\":3939:3999   */\n      tag_309\n      jump\t// in\n    tag_315:\n        /* \"--CODEGEN--\":3932:3936   */\n      0xc0\n        /* \"--CODEGEN--\":3925:3930   */\n      dup4\n        /* \"--CODEGEN--\":3921:3937   */\n      add\n        /* \"--CODEGEN--\":3914:4000   */\n      mstore\n        /* \"--CODEGEN--\":3857:4011   */\n      pop\n        /* \"--CODEGEN--\":4070:4073   */\n      0xe0\n        /* \"--CODEGEN--\":4104:4164   */\n      tag_316\n        /* \"--CODEGEN--\":4160:4163   */\n      dup5\n        /* \"--CODEGEN--\":4151:4157   */\n      dup3\n        /* \"--CODEGEN--\":4140:4149   */\n      dup6\n        /* \"--CODEGEN--\":4136:4158   */\n      add\n        /* \"--CODEGEN--\":4104:4164   */\n      tag_309\n      jump\t// in\n    tag_316:\n        /* \"--CODEGEN--\":4097:4101   */\n      0xe0\n        /* \"--CODEGEN--\":4090:4095   */\n      dup4\n        /* \"--CODEGEN--\":4086:4102   */\n      add\n        /* \"--CODEGEN--\":4079:4165   */\n      mstore\n        /* \"--CODEGEN--\":4021:4176   */\n      pop\n        /* \"--CODEGEN--\":2785:4186   */\n      swap3\n      swap2\n      pop\n      pop\n      jump\t// out\n        /* \"--CODEGEN--\":4193:4323   */\n    tag_300:\n      0x00\n        /* \"--CODEGEN--\":4273:4279   */\n      dup2\n        /* \"--CODEGEN--\":4260:4280   */\n      calldataload\n        /* \"--CODEGEN--\":4251:4280   */\n      swap1\n      pop\n        /* \"--CODEGEN--\":4285:4318   */\n      tag_318\n        /* \"--CODEGEN--\":4312:4317   */\n      dup2\n        /* \"--CODEGEN--\":4285:4318   */\n      tag_319\n      jump\t// in\n    tag_318:\n        /* \"--CODEGEN--\":4245:4323   */\n      swap3\n      swap2\n      pop\n      pop\n      jump\t// out\n        /* \"--CODEGEN--\":4330:4464   */\n    tag_309:\n      0x00\n        /* \"--CODEGEN--\":4414:4420   */\n      dup2\n        /* \"--CODEGEN--\":4408:4421   */\n      mload\n        /* \"--CODEGEN--\":4399:4421   */\n      swap1\n      pop\n        /* \"--CODEGEN--\":4426:4459   */\n      tag_321\n        /* \"--CODEGEN--\":4453:4458   */\n      dup2\n        /* \"--CODEGEN--\":4426:4459   */\n      tag_319\n      jump\t// in\n    tag_321:\n        /* \"--CODEGEN--\":4393:4464   */\n      swap3\n      swap2\n      pop\n      pop\n      jump\t// out\n        /* \"--CODEGEN--\":4471:4601   */\n    tag_322:\n      0x00\n        /* \"--CODEGEN--\":4553:4559   */\n      dup2\n        /* \"--CODEGEN--\":4547:4560   */\n      mload\n        /* \"--CODEGEN--\":4538:4560   */\n      swap1\n      pop\n        /* \"--CODEGEN--\":4565:4596   */\n      tag_324\n        /* \"--CODEGEN--\":4590:4595   */\n      dup2\n        /* \"--CODEGEN--\":4565:4596   */\n      tag_325\n      jump\t// in\n    tag_324:\n        /* \"--CODEGEN--\":4532:4601   */\n      swap3\n      swap2\n      pop\n      pop\n      jump\t// out\n        /* \"--CODEGEN--\":4608:5099   */\n    tag_27:\n      0x00\n      dup1\n      0x00\n        /* \"--CODEGEN--\":4746:4748   */\n      0x60\n        /* \"--CODEGEN--\":4734:4743   */\n      dup5\n        /* \"--CODEGEN--\":4725:4732   */\n      dup7\n        /* \"--CODEGEN--\":4721:4744   */\n      sub\n        /* \"--CODEGEN--\":4717:4749   */\n      slt\n        /* \"--CODEGEN--\":4714:4716   */\n      iszero\n      tag_327\n      jumpi\n        /* \"--CODEGEN--\":4762:4763   */\n      0x00\n        /* \"--CODEGEN--\":4759:4760   */\n      dup1\n        /* \"--CODEGEN--\":4752:4764   */\n      revert\n        /* \"--CODEGEN--\":4714:4716   */\n    tag_327:\n        /* \"--CODEGEN--\":4797:4798   */\n      0x00\n        /* \"--CODEGEN--\":4814:4867   */\n      tag_328\n        /* \"--CODEGEN--\":4859:4866   */\n      dup7\n        /* \"--CODEGEN--\":4850:4856   */\n      dup3\n        /* \"--CODEGEN--\":4839:4848   */\n      dup8\n        /* \"--CODEGEN--\":4835:4857   */\n      add\n        /* \"--CODEGEN--\":4814:4867   */\n      tag_259\n      jump\t// in\n    tag_328:\n        /* \"--CODEGEN--\":4804:4867   */\n      swap4\n      pop\n        /* \"--CODEGEN--\":4776:4873   */\n      pop\n        /* \"--CODEGEN--\":4904:4906   */\n      0x20\n        /* \"--CODEGEN--\":4922:4975   */\n      tag_329\n        /* \"--CODEGEN--\":4967:4974   */\n      dup7\n        /* \"--CODEGEN--\":4958:4964   */\n      dup3\n        /* \"--CODEGEN--\":4947:4956   */\n      dup8\n        /* \"--CODEGEN--\":4943:4965   */\n      add\n        /* \"--CODEGEN--\":4922:4975   */\n      tag_259\n      jump\t// in\n    tag_329:\n        /* \"--CODEGEN--\":4912:4975   */\n      swap3\n      pop\n        /* \"--CODEGEN--\":4883:4981   */\n      pop\n        /* \"--CODEGEN--\":5012:5014   */\n      0x40\n        /* \"--CODEGEN--\":5030:5083   */\n      tag_330\n        /* \"--CODEGEN--\":5075:5082   */\n      dup7\n        /* \"--CODEGEN--\":5066:5072   */\n      dup3\n        /* \"--CODEGEN--\":5055:5064   */\n      dup8\n        /* \"--CODEGEN--\":5051:5073   */\n      add\n        /* \"--CODEGEN--\":5030:5083   */\n      tag_259\n      jump\t// in\n    tag_330:\n        /* \"--CODEGEN--\":5020:5083   */\n      swap2\n      pop\n        /* \"--CODEGEN--\":4991:5089   */\n      pop\n        /* \"--CODEGEN--\":4708:5099   */\n      swap3\n      pop\n      swap3\n      pop\n      swap3\n      jump\t// out\n        /* \"--CODEGEN--\":5106:5418   */\n    tag_113:\n      0x00\n        /* \"--CODEGEN--\":5245:5248   */\n      0x0100\n        /* \"--CODEGEN--\":5233:5242   */\n      dup3\n        /* \"--CODEGEN--\":5224:5231   */\n      dup5\n        /* \"--CODEGEN--\":5220:5243   */\n      sub\n        /* \"--CODEGEN--\":5216:5249   */\n      slt\n        /* \"--CODEGEN--\":5213:5215   */\n      iszero\n      tag_332\n      jumpi\n        /* \"--CODEGEN--\":5262:5263   */\n      0x00\n        /* \"--CODEGEN--\":5259:5260   */\n      dup1\n        /* \"--CODEGEN--\":5252:5264   */\n      revert\n        /* \"--CODEGEN--\":5213:5215   */\n    tag_332:\n        /* \"--CODEGEN--\":5297:5298   */\n      0x00\n        /* \"--CODEGEN--\":5314:5402   */\n      tag_333\n        /* \"--CODEGEN--\":5394:5401   */\n      dup5\n        /* \"--CODEGEN--\":5385:5391   */\n      dup3\n        /* \"--CODEGEN--\":5374:5383   */\n      dup6\n        /* \"--CODEGEN--\":5370:5392   */\n      add\n        /* \"--CODEGEN--\":5314:5402   */\n      tag_304\n      jump\t// in\n    tag_333:\n        /* \"--CODEGEN--\":5304:5402   */\n      swap2\n      pop\n        /* \"--CODEGEN--\":5276:5408   */\n      pop\n        /* \"--CODEGEN--\":5207:5418   */\n      swap3\n      swap2\n      pop\n      pop\n      jump\t// out\n        /* \"--CODEGEN--\":5425:5688   */\n    tag_92:\n      0x00\n        /* \"--CODEGEN--\":5540:5542   */\n      0x20\n        /* \"--CODEGEN--\":5528:5537   */\n      dup3\n        /* \"--CODEGEN--\":5519:5526   */\n      dup5\n        /* \"--CODEGEN--\":5515:5538   */\n      sub\n        /* \"--CODEGEN--\":5511:5543   */\n      slt\n        /* \"--CODEGEN--\":5508:5510   */\n      iszero\n      tag_335\n      jumpi\n        /* \"--CODEGEN--\":5556:5557   */\n      0x00\n        /* \"--CODEGEN--\":5553:5554   */\n      dup1\n        /* \"--CODEGEN--\":5546:5558   */\n      revert\n        /* \"--CODEGEN--\":5508:5510   */\n    tag_335:\n        /* \"--CODEGEN--\":5591:5592   */\n      0x00\n        /* \"--CODEGEN--\":5608:5672   */\n      tag_336\n        /* \"--CODEGEN--\":5664:5671   */\n      dup5\n        /* \"--CODEGEN--\":5655:5661   */\n      dup3\n        /* \"--CODEGEN--\":5644:5653   */\n      dup6\n        /* \"--CODEGEN--\":5640:5662   */\n      add\n        /* \"--CODEGEN--\":5608:5672   */\n      tag_309\n      jump\t// in\n    tag_336:\n        /* \"--CODEGEN--\":5598:5672   */\n      swap2\n      pop\n        /* \"--CODEGEN--\":5570:5678   */\n      pop\n        /* \"--CODEGEN--\":5502:5688   */\n      swap3\n      swap2\n      pop\n      pop\n      jump\t// out\n        /* \"--CODEGEN--\":5695:6061   */\n    tag_81:\n      0x00\n      dup1\n        /* \"--CODEGEN--\":5816:5818   */\n      0x40\n        /* \"--CODEGEN--\":5804:5813   */\n      dup4\n        /* \"--CODEGEN--\":5795:5802   */\n      dup6\n        /* \"--CODEGEN--\":5791:5814   */\n      sub\n        /* \"--CODEGEN--\":5787:5819   */\n      slt\n        /* \"--CODEGEN--\":5784:5786   */\n      iszero\n      tag_338\n      jumpi\n        /* \"--CODEGEN--\":5832:5833   */\n      0x00\n        /* \"--CODEGEN--\":5829:5830   */\n      dup1\n        /* \"--CODEGEN--\":5822:5834   */\n      revert\n        /* \"--CODEGEN--\":5784:5786   */\n    tag_338:\n        /* \"--CODEGEN--\":5867:5868   */\n      0x00\n        /* \"--CODEGEN--\":5884:5937   */\n      tag_339\n        /* \"--CODEGEN--\":5929:5936   */\n      dup6\n        /* \"--CODEGEN--\":5920:5926   */\n      dup3\n        /* \"--CODEGEN--\":5909:5918   */\n      dup7\n        /* \"--CODEGEN--\":5905:5927   */\n      add\n        /* \"--CODEGEN--\":5884:5937   */\n      tag_300\n      jump\t// in\n    tag_339:\n        /* \"--CODEGEN--\":5874:5937   */\n      swap3\n      pop\n        /* \"--CODEGEN--\":5846:5943   */\n      pop\n        /* \"--CODEGEN--\":5974:5976   */\n      0x20\n        /* \"--CODEGEN--\":5992:6045   */\n      tag_340\n        /* \"--CODEGEN--\":6037:6044   */\n      dup6\n        /* \"--CODEGEN--\":6028:6034   */\n      dup3\n        /* \"--CODEGEN--\":6017:6026   */\n      dup7\n        /* \"--CODEGEN--\":6013:6035   */\n      add\n        /* \"--CODEGEN--\":5992:6045   */\n      tag_288\n      jump\t// in\n    tag_340:\n        /* \"--CODEGEN--\":5982:6045   */\n      swap2\n      pop\n        /* \"--CODEGEN--\":5953:6051   */\n      pop\n        /* \"--CODEGEN--\":5778:6061   */\n      swap3\n      pop\n      swap3\n      swap1\n      pop\n      jump\t// out\n        /* \"--CODEGEN--\":6068:7259   */\n    tag_23:\n      0x00\n      dup1\n      0x00\n      dup1\n      0x00\n      dup1\n        /* \"--CODEGEN--\":6332:6335   */\n      0xc0\n        /* \"--CODEGEN--\":6320:6329   */\n      dup8\n        /* \"--CODEGEN--\":6311:6318   */\n      dup10\n        /* \"--CODEGEN--\":6307:6330   */\n      sub\n        /* \"--CODEGEN--\":6303:6336   */\n      slt\n        /* \"--CODEGEN--\":6300:6302   */\n      iszero\n      tag_342\n      jumpi\n        /* \"--CODEGEN--\":6349:6350   */\n      0x00\n        /* \"--CODEGEN--\":6346:6347   */\n      dup1\n        /* \"--CODEGEN--\":6339:6351   */\n      revert\n        /* \"--CODEGEN--\":6300:6302   */\n    tag_342:\n        /* \"--CODEGEN--\":6384:6385   */\n      0x00\n        /* \"--CODEGEN--\":6401:6454   */\n      tag_343\n        /* \"--CODEGEN--\":6446:6453   */\n      dup10\n        /* \"--CODEGEN--\":6437:6443   */\n      dup3\n        /* \"--CODEGEN--\":6426:6435   */\n      dup11\n        /* \"--CODEGEN--\":6422:6444   */\n      add\n        /* \"--CODEGEN--\":6401:6454   */\n      tag_300\n      jump\t// in\n    tag_343:\n        /* \"--CODEGEN--\":6391:6454   */\n      swap7\n      pop\n        /* \"--CODEGEN--\":6363:6460   */\n      pop\n        /* \"--CODEGEN--\":6491:6493   */\n      0x20\n        /* \"--CODEGEN--\":6509:6562   */\n      tag_344\n        /* \"--CODEGEN--\":6554:6561   */\n      dup10\n        /* \"--CODEGEN--\":6545:6551   */\n      dup3\n        /* \"--CODEGEN--\":6534:6543   */\n      dup11\n        /* \"--CODEGEN--\":6530:6552   */\n      add\n        /* \"--CODEGEN--\":6509:6562   */\n      tag_288\n      jump\t// in\n    tag_344:\n        /* \"--CODEGEN--\":6499:6562   */\n      swap6\n      pop\n        /* \"--CODEGEN--\":6470:6568   */\n      pop\n        /* \"--CODEGEN--\":6627:6629   */\n      0x40\n        /* \"--CODEGEN--\":6616:6625   */\n      dup8\n        /* \"--CODEGEN--\":6612:6630   */\n      add\n        /* \"--CODEGEN--\":6599:6631   */\n      calldataload\n        /* \"--CODEGEN--\":6651:6669   */\n      0xffffffffffffffff\n        /* \"--CODEGEN--\":6643:6649   */\n      dup2\n        /* \"--CODEGEN--\":6640:6670   */\n      gt\n        /* \"--CODEGEN--\":6637:6639   */\n      iszero\n      tag_345\n      jumpi\n        /* \"--CODEGEN--\":6683:6684   */\n      0x00\n        /* \"--CODEGEN--\":6680:6681   */\n      dup1\n        /* \"--CODEGEN--\":6673:6685   */\n      revert\n        /* \"--CODEGEN--\":6637:6639   */\n    tag_345:\n        /* \"--CODEGEN--\":6703:6781   */\n      tag_346\n        /* \"--CODEGEN--\":6773:6780   */\n      dup10\n        /* \"--CODEGEN--\":6764:6770   */\n      dup3\n        /* \"--CODEGEN--\":6753:6762   */\n      dup11\n        /* \"--CODEGEN--\":6749:6771   */\n      add\n        /* \"--CODEGEN--\":6703:6781   */\n      tag_289\n      jump\t// in\n    tag_346:\n        /* \"--CODEGEN--\":6693:6781   */\n      swap5\n      pop\n        /* \"--CODEGEN--\":6578:6787   */\n      pop\n        /* \"--CODEGEN--\":6846:6848   */\n      0x60\n        /* \"--CODEGEN--\":6835:6844   */\n      dup8\n        /* \"--CODEGEN--\":6831:6849   */\n      add\n        /* \"--CODEGEN--\":6818:6850   */\n      calldataload\n        /* \"--CODEGEN--\":6870:6888   */\n      0xffffffffffffffff\n        /* \"--CODEGEN--\":6862:6868   */\n      dup2\n        /* \"--CODEGEN--\":6859:6889   */\n      gt\n        /* \"--CODEGEN--\":6856:6858   */\n      iszero\n      tag_347\n      jumpi\n        /* \"--CODEGEN--\":6902:6903   */\n      0x00\n        /* \"--CODEGEN--\":6899:6900   */\n      dup1\n        /* \"--CODEGEN--\":6892:6904   */\n      revert\n        /* \"--CODEGEN--\":6856:6858   */\n    tag_347:\n        /* \"--CODEGEN--\":6922:7025   */\n      tag_348\n        /* \"--CODEGEN--\":7017:7024   */\n      dup10\n        /* \"--CODEGEN--\":7008:7014   */\n      dup3\n        /* \"--CODEGEN--\":6997:7006   */\n      dup11\n        /* \"--CODEGEN--\":6993:7015   */\n      add\n        /* \"--CODEGEN--\":6922:7025   */\n      tag_266\n      jump\t// in\n    tag_348:\n        /* \"--CODEGEN--\":6912:7025   */\n      swap4\n      pop\n        /* \"--CODEGEN--\":6797:7031   */\n      pop\n        /* \"--CODEGEN--\":7062:7065   */\n      0x80\n        /* \"--CODEGEN--\":7081:7134   */\n      tag_349\n        /* \"--CODEGEN--\":7126:7133   */\n      dup10\n        /* \"--CODEGEN--\":7117:7123   */\n      dup3\n        /* \"--CODEGEN--\":7106:7115   */\n      dup11\n        /* \"--CODEGEN--\":7102:7124   */\n      add\n        /* \"--CODEGEN--\":7081:7134   */\n      tag_288\n      jump\t// in\n    tag_349:\n        /* \"--CODEGEN--\":7071:7134   */\n      swap3\n      pop\n        /* \"--CODEGEN--\":7041:7140   */\n      pop\n        /* \"--CODEGEN--\":7171:7174   */\n      0xa0\n        /* \"--CODEGEN--\":7190:7243   */\n      tag_350\n        /* \"--CODEGEN--\":7235:7242   */\n      dup10\n        /* \"--CODEGEN--\":7226:7232   */\n      dup3\n        /* \"--CODEGEN--\":7215:7224   */\n      dup11\n        /* \"--CODEGEN--\":7211:7233   */\n      add\n        /* \"--CODEGEN--\":7190:7243   */\n      tag_259\n      jump\t// in\n    tag_350:\n        /* \"--CODEGEN--\":7180:7243   */\n      swap2\n      pop\n        /* \"--CODEGEN--\":7150:7249   */\n      pop\n        /* \"--CODEGEN--\":6294:7259   */\n      swap3\n      swap6\n      pop\n      swap3\n      swap6\n      pop\n      swap3\n      swap6\n      jump\t// out\n        /* \"--CODEGEN--\":7266:7632   */\n    tag_41:\n      0x00\n      dup1\n        /* \"--CODEGEN--\":7387:7389   */\n      0x40\n        /* \"--CODEGEN--\":7375:7384   */\n      dup4\n        /* \"--CODEGEN--\":7366:7373   */\n      dup6\n        /* \"--CODEGEN--\":7362:7385   */\n      sub\n        /* \"--CODEGEN--\":7358:7390   */\n      slt\n        /* \"--CODEGEN--\":7355:7357   */\n      iszero\n      tag_352\n      jumpi\n        /* \"--CODEGEN--\":7403:7404   */\n      0x00\n        /* \"--CODEGEN--\":7400:7401   */\n      dup1\n        /* \"--CODEGEN--\":7393:7405   */\n      revert\n        /* \"--CODEGEN--\":7355:7357   */\n    tag_352:\n        /* \"--CODEGEN--\":7438:7439   */\n      0x00\n        /* \"--CODEGEN--\":7455:7508   */\n      tag_353\n        /* \"--CODEGEN--\":7500:7507   */\n      dup6\n        /* \"--CODEGEN--\":7491:7497   */\n      dup3\n        /* \"--CODEGEN--\":7480:7489   */\n      dup7\n        /* \"--CODEGEN--\":7476:7498   */\n      add\n        /* \"--CODEGEN--\":7455:7508   */\n      tag_300\n      jump\t// in\n    tag_353:\n        /* \"--CODEGEN--\":7445:7508   */\n      swap3\n      pop\n        /* \"--CODEGEN--\":7417:7514   */\n      pop\n        /* \"--CODEGEN--\":7545:7547   */\n      0x20\n        /* \"--CODEGEN--\":7563:7616   */\n      tag_354\n        /* \"--CODEGEN--\":7608:7615   */\n      dup6\n        /* \"--CODEGEN--\":7599:7605   */\n      dup3\n        /* \"--CODEGEN--\":7588:7597   */\n      dup7\n        /* \"--CODEGEN--\":7584:7606   */\n      add\n        /* \"--CODEGEN--\":7563:7616   */\n      tag_300\n      jump\t// in\n    tag_354:\n        /* \"--CODEGEN--\":7553:7616   */\n      swap2\n      pop\n        /* \"--CODEGEN--\":7524:7622   */\n      pop\n        /* \"--CODEGEN--\":7349:7632   */\n      swap3\n      pop\n      swap3\n      swap1\n      pop\n      jump\t// out\n        /* \"--CODEGEN--\":7639:8130   */\n    tag_31:\n      0x00\n      dup1\n      0x00\n        /* \"--CODEGEN--\":7777:7779   */\n      0x60\n        /* \"--CODEGEN--\":7765:7774   */\n      dup5\n        /* \"--CODEGEN--\":7756:7763   */\n      dup7\n        /* \"--CODEGEN--\":7752:7775   */\n      sub\n        /* \"--CODEGEN--\":7748:7780   */\n      slt\n        /* \"--CODEGEN--\":7745:7747   */\n      iszero\n      tag_356\n      jumpi\n        /* \"--CODEGEN--\":7793:7794   */\n      0x00\n        /* \"--CODEGEN--\":7790:7791   */\n      dup1\n        /* \"--CODEGEN--\":7783:7795   */\n      revert\n        /* \"--CODEGEN--\":7745:7747   */\n    tag_356:\n        /* \"--CODEGEN--\":7828:7829   */\n      0x00\n        /* \"--CODEGEN--\":7845:7898   */\n      tag_357\n        /* \"--CODEGEN--\":7890:7897   */\n      dup7\n        /* \"--CODEGEN--\":7881:7887   */\n      dup3\n        /* \"--CODEGEN--\":7870:7879   */\n      dup8\n        /* \"--CODEGEN--\":7866:7888   */\n      add\n        /* \"--CODEGEN--\":7845:7898   */\n      tag_300\n      jump\t// in\n    tag_357:\n        /* \"--CODEGEN--\":7835:7898   */\n      swap4\n      pop\n        /* \"--CODEGEN--\":7807:7904   */\n      pop\n        /* \"--CODEGEN--\":7935:7937   */\n      0x20\n        /* \"--CODEGEN--\":7953:8006   */\n      tag_358\n        /* \"--CODEGEN--\":7998:8005   */\n      dup7\n        /* \"--CODEGEN--\":7989:7995   */\n      dup3\n        /* \"--CODEGEN--\":7978:7987   */\n      dup8\n        /* \"--CODEGEN--\":7974:7996   */\n      add\n        /* \"--CODEGEN--\":7953:8006   */\n      tag_300\n      jump\t// in\n    tag_358:\n        /* \"--CODEGEN--\":7943:8006   */\n      swap3\n      pop\n        /* \"--CODEGEN--\":7914:8012   */\n      pop\n        /* \"--CODEGEN--\":8043:8045   */\n      0x40\n        /* \"--CODEGEN--\":8061:8114   */\n      tag_359\n        /* \"--CODEGEN--\":8106:8113   */\n      dup7\n        /* \"--CODEGEN--\":8097:8103   */\n      dup3\n        /* \"--CODEGEN--\":8086:8095   */\n      dup8\n        /* \"--CODEGEN--\":8082:8104   */\n      add\n        /* \"--CODEGEN--\":8061:8114   */\n      tag_300\n      jump\t// in\n    tag_359:\n        /* \"--CODEGEN--\":8051:8114   */\n      swap2\n      pop\n        /* \"--CODEGEN--\":8022:8120   */\n      pop\n        /* \"--CODEGEN--\":7739:8130   */\n      swap3\n      pop\n      swap3\n      pop\n      swap3\n      jump\t// out\n        /* \"--CODEGEN--\":8137:8396   */\n    tag_127:\n      0x00\n        /* \"--CODEGEN--\":8250:8252   */\n      0x20\n        /* \"--CODEGEN--\":8238:8247   */\n      dup3\n        /* \"--CODEGEN--\":8229:8236   */\n      dup5\n        /* \"--CODEGEN--\":8225:8248   */\n      sub\n        /* \"--CODEGEN--\":8221:8253   */\n      slt\n        /* \"--CODEGEN--\":8218:8220   */\n      iszero\n      tag_361\n      jumpi\n        /* \"--CODEGEN--\":8266:8267   */\n      0x00\n        /* \"--CODEGEN--\":8263:8264   */\n      dup1\n        /* \"--CODEGEN--\":8256:8268   */\n      revert\n        /* \"--CODEGEN--\":8218:8220   */\n    tag_361:\n        /* \"--CODEGEN--\":8301:8302   */\n      0x00\n        /* \"--CODEGEN--\":8318:8380   */\n      tag_362\n        /* \"--CODEGEN--\":8372:8379   */\n      dup5\n        /* \"--CODEGEN--\":8363:8369   */\n      dup3\n        /* \"--CODEGEN--\":8352:8361   */\n      dup6\n        /* \"--CODEGEN--\":8348:8370   */\n      add\n        /* \"--CODEGEN--\":8318:8380   */\n      tag_322\n      jump\t// in\n    tag_362:\n        /* \"--CODEGEN--\":8308:8380   */\n      swap2\n      pop\n        /* \"--CODEGEN--\":8280:8386   */\n      pop\n        /* \"--CODEGEN--\":8212:8396   */\n      swap3\n      swap2\n      pop\n      pop\n      jump\t// out\n        /* \"--CODEGEN--\":8404:8577   */\n    tag_363:\n      0x00\n        /* \"--CODEGEN--\":8491:8537   */\n      tag_365\n        /* \"--CODEGEN--\":8533:8536   */\n      dup4\n        /* \"--CODEGEN--\":8525:8531   */\n      dup4\n        /* \"--CODEGEN--\":8491:8537   */\n      tag_366\n      jump\t// in\n    tag_365:\n        /* \"--CODEGEN--\":8566:8570   */\n      0x20\n        /* \"--CODEGEN--\":8561:8564   */\n      dup4\n        /* \"--CODEGEN--\":8557:8571   */\n      add\n        /* \"--CODEGEN--\":8543:8571   */\n      swap1\n      pop\n        /* \"--CODEGEN--\":8484:8577   */\n      swap3\n      swap2\n      pop\n      pop\n      jump\t// out\n        /* \"--CODEGEN--\":8585:8727   */\n    tag_367:\n        /* \"--CODEGEN--\":8676:8721   */\n      tag_369\n        /* \"--CODEGEN--\":8715:8720   */\n      dup2\n        /* \"--CODEGEN--\":8676:8721   */\n      tag_370\n      jump\t// in\n    tag_369:\n        /* \"--CODEGEN--\":8671:8674   */\n      dup3\n        /* \"--CODEGEN--\":8664:8722   */\n      mstore\n        /* \"--CODEGEN--\":8658:8727   */\n      pop\n      pop\n      jump\t// out\n        /* \"--CODEGEN--\":8734:8847   */\n    tag_371:\n        /* \"--CODEGEN--\":8817:8841   */\n      tag_373\n        /* \"--CODEGEN--\":8835:8840   */\n      dup2\n        /* \"--CODEGEN--\":8817:8841   */\n      tag_374\n      jump\t// in\n    tag_373:\n        /* \"--CODEGEN--\":8812:8815   */\n      dup3\n        /* \"--CODEGEN--\":8805:8842   */\n      mstore\n        /* \"--CODEGEN--\":8799:8847   */\n      pop\n      pop\n      jump\t// out\n        /* \"--CODEGEN--\":8885:9575   */\n    tag_375:\n      0x00\n        /* \"--CODEGEN--\":9030:9084   */\n      tag_377\n        /* \"--CODEGEN--\":9078:9083   */\n      dup3\n        /* \"--CODEGEN--\":9030:9084   */\n      tag_378\n      jump\t// in\n    tag_377:\n        /* \"--CODEGEN--\":9097:9183   */\n      tag_379\n        /* \"--CODEGEN--\":9176:9182   */\n      dup2\n        /* \"--CODEGEN--\":9171:9174   */\n      dup6\n        /* \"--CODEGEN--\":9097:9183   */\n      tag_380\n      jump\t// in\n    tag_379:\n        /* \"--CODEGEN--\":9090:9183   */\n      swap4\n      pop\n        /* \"--CODEGEN--\":9204:9260   */\n      tag_381\n        /* \"--CODEGEN--\":9254:9259   */\n      dup4\n        /* \"--CODEGEN--\":9204:9260   */\n      tag_382\n      jump\t// in\n    tag_381:\n        /* \"--CODEGEN--\":9280:9287   */\n      dup1\n        /* \"--CODEGEN--\":9308:9309   */\n      0x00\n        /* \"--CODEGEN--\":9293:9553   */\n    tag_383:\n        /* \"--CODEGEN--\":9318:9324   */\n      dup4\n        /* \"--CODEGEN--\":9315:9316   */\n      dup2\n        /* \"--CODEGEN--\":9312:9325   */\n      lt\n        /* \"--CODEGEN--\":9293:9553   */\n      iszero\n      tag_385\n      jumpi\n        /* \"--CODEGEN--\":9385:9391   */\n      dup2\n        /* \"--CODEGEN--\":9379:9392   */\n      mload\n        /* \"--CODEGEN--\":9406:9469   */\n      tag_386\n        /* \"--CODEGEN--\":9465:9468   */\n      dup9\n        /* \"--CODEGEN--\":9450:9463   */\n      dup3\n        /* \"--CODEGEN--\":9406:9469   */\n      tag_363\n      jump\t// in\n    tag_386:\n        /* \"--CODEGEN--\":9399:9469   */\n      swap8\n      pop\n        /* \"--CODEGEN--\":9486:9546   */\n      tag_387\n        /* \"--CODEGEN--\":9539:9545   */\n      dup4\n        /* \"--CODEGEN--\":9486:9546   */\n      tag_388\n      jump\t// in\n    tag_387:\n        /* \"--CODEGEN--\":9476:9546   */\n      swap3\n      pop\n        /* \"--CODEGEN--\":9350:9553   */\n      pop\n        /* \"--CODEGEN--\":9340:9341   */\n      0x01\n        /* \"--CODEGEN--\":9337:9338   */\n      dup2\n        /* \"--CODEGEN--\":9333:9342   */\n      add\n        /* \"--CODEGEN--\":9328:9342   */\n      swap1\n      pop\n        /* \"--CODEGEN--\":9293:9553   */\n      jump(tag_383)\n    tag_385:\n        /* \"--CODEGEN--\":9297:9311   */\n      pop\n        /* \"--CODEGEN--\":9566:9569   */\n      dup6\n        /* \"--CODEGEN--\":9559:9569   */\n      swap4\n      pop\n        /* \"--CODEGEN--\":9009:9575   */\n      pop\n      pop\n      pop\n      swap3\n      swap2\n      pop\n      pop\n      jump\t// out\n        /* \"--CODEGEN--\":9583:9696   */\n    tag_389:\n        /* \"--CODEGEN--\":9666:9690   */\n      tag_391\n        /* \"--CODEGEN--\":9684:9689   */\n      dup2\n        /* \"--CODEGEN--\":9666:9690   */\n      tag_392\n      jump\t// in\n    tag_391:\n        /* \"--CODEGEN--\":9661:9664   */\n      dup3\n        /* \"--CODEGEN--\":9654:9691   */\n      mstore\n        /* \"--CODEGEN--\":9648:9696   */\n      pop\n      pop\n      jump\t// out\n        /* \"--CODEGEN--\":9703:9855   */\n    tag_393:\n        /* \"--CODEGEN--\":9804:9849   */\n      tag_395\n        /* \"--CODEGEN--\":9824:9848   */\n      tag_396\n        /* \"--CODEGEN--\":9842:9847   */\n      dup3\n        /* \"--CODEGEN--\":9824:9848   */\n      tag_392\n      jump\t// in\n    tag_396:\n        /* \"--CODEGEN--\":9804:9849   */\n      tag_397\n      jump\t// in\n    tag_395:\n        /* \"--CODEGEN--\":9799:9802   */\n      dup3\n        /* \"--CODEGEN--\":9792:9850   */\n      mstore\n        /* \"--CODEGEN--\":9786:9855   */\n      pop\n      pop\n      jump\t// out\n        /* \"--CODEGEN--\":9862:10032   */\n    tag_398:\n        /* \"--CODEGEN--\":9967:10026   */\n      tag_400\n        /* \"--CODEGEN--\":10020:10025   */\n      dup2\n        /* \"--CODEGEN--\":9967:10026   */\n      tag_401\n      jump\t// in\n    tag_400:\n        /* \"--CODEGEN--\":9962:9965   */\n      dup3\n        /* \"--CODEGEN--\":9955:10027   */\n      mstore\n        /* \"--CODEGEN--\":9949:10032   */\n      pop\n      pop\n      jump\t// out\n        /* \"--CODEGEN--\":10039:10209   */\n    tag_402:\n        /* \"--CODEGEN--\":10144:10203   */\n      tag_404\n        /* \"--CODEGEN--\":10197:10202   */\n      dup2\n        /* \"--CODEGEN--\":10144:10203   */\n      tag_405\n      jump\t// in\n    tag_404:\n        /* \"--CODEGEN--\":10139:10142   */\n      dup3\n        /* \"--CODEGEN--\":10132:10204   */\n      mstore\n        /* \"--CODEGEN--\":10126:10209   */\n      pop\n      pop\n      jump\t// out\n        /* \"--CODEGEN--\":10216:10386   */\n    tag_406:\n        /* \"--CODEGEN--\":10321:10380   */\n      tag_408\n        /* \"--CODEGEN--\":10374:10379   */\n      dup2\n        /* \"--CODEGEN--\":10321:10380   */\n      tag_409\n      jump\t// in\n    tag_408:\n        /* \"--CODEGEN--\":10316:10319   */\n      dup3\n        /* \"--CODEGEN--\":10309:10381   */\n      mstore\n        /* \"--CODEGEN--\":10303:10386   */\n      pop\n      pop\n      jump\t// out\n        /* \"--CODEGEN--\":10394:10716   */\n    tag_410:\n      0x00\n        /* \"--CODEGEN--\":10554:10621   */\n      tag_412\n        /* \"--CODEGEN--\":10618:10620   */\n      0x16\n        /* \"--CODEGEN--\":10613:10616   */\n      dup4\n        /* \"--CODEGEN--\":10554:10621   */\n      tag_413\n      jump\t// in\n    tag_412:\n        /* \"--CODEGEN--\":10547:10621   */\n      swap2\n      pop\n        /* \"--CODEGEN--\":10654:10678   */\n      0x696e636f7272656374207365637265742f76616c756500000000000000000000\n        /* \"--CODEGEN--\":10650:10651   */\n      0x00\n        /* \"--CODEGEN--\":10645:10648   */\n      dup4\n        /* \"--CODEGEN--\":10641:10652   */\n      add\n        /* \"--CODEGEN--\":10634:10679   */\n      mstore\n        /* \"--CODEGEN--\":10707:10709   */\n      0x20\n        /* \"--CODEGEN--\":10702:10705   */\n      dup3\n        /* \"--CODEGEN--\":10698:10710   */\n      add\n        /* \"--CODEGEN--\":10691:10710   */\n      swap1\n      pop\n        /* \"--CODEGEN--\":10540:10716   */\n      swap2\n      swap1\n      pop\n      jump\t// out\n        /* \"--CODEGEN--\":10725:11042   */\n    tag_414:\n      0x00\n        /* \"--CODEGEN--\":10885:10952   */\n      tag_416\n        /* \"--CODEGEN--\":10949:10951   */\n      0x11\n        /* \"--CODEGEN--\":10944:10947   */\n      dup4\n        /* \"--CODEGEN--\":10885:10952   */\n      tag_413\n      jump\t// in\n    tag_416:\n        /* \"--CODEGEN--\":10878:10952   */\n      swap2\n      pop\n        /* \"--CODEGEN--\":10985:11004   */\n      0x6e6f6e706f736974697665207374616b65000000000000000000000000000000\n        /* \"--CODEGEN--\":10981:10982   */\n      0x00\n        /* \"--CODEGEN--\":10976:10979   */\n      dup4\n        /* \"--CODEGEN--\":10972:10983   */\n      add\n        /* \"--CODEGEN--\":10965:11005   */\n      mstore\n        /* \"--CODEGEN--\":11033:11035   */\n      0x20\n        /* \"--CODEGEN--\":11028:11031   */\n      dup3\n        /* \"--CODEGEN--\":11024:11036   */\n      add\n        /* \"--CODEGEN--\":11017:11036   */\n      swap1\n      pop\n        /* \"--CODEGEN--\":10871:11042   */\n      swap2\n      swap1\n      pop\n      jump\t// out\n        /* \"--CODEGEN--\":11051:11371   */\n    tag_417:\n      0x00\n        /* \"--CODEGEN--\":11211:11278   */\n      tag_419\n        /* \"--CODEGEN--\":11275:11277   */\n      0x14\n        /* \"--CODEGEN--\":11270:11273   */\n      dup4\n        /* \"--CODEGEN--\":11211:11278   */\n      tag_413\n      jump\t// in\n    tag_419:\n        /* \"--CODEGEN--\":11204:11278   */\n      swap2\n      pop\n        /* \"--CODEGEN--\":11311:11333   */\n      0x696e76616c6964206d65726b6c652070726f6f66000000000000000000000000\n        /* \"--CODEGEN--\":11307:11308   */\n      0x00\n        /* \"--CODEGEN--\":11302:11305   */\n      dup4\n        /* \"--CODEGEN--\":11298:11309   */\n      add\n        /* \"--CODEGEN--\":11291:11334   */\n      mstore\n        /* \"--CODEGEN--\":11362:11364   */\n      0x20\n        /* \"--CODEGEN--\":11357:11360   */\n      dup3\n        /* \"--CODEGEN--\":11353:11365   */\n      add\n        /* \"--CODEGEN--\":11346:11365   */\n      swap1\n      pop\n        /* \"--CODEGEN--\":11197:11371   */\n      swap2\n      swap1\n      pop\n      jump\t// out\n        /* \"--CODEGEN--\":11380:11696   */\n    tag_420:\n      0x00\n        /* \"--CODEGEN--\":11540:11607   */\n      tag_422\n        /* \"--CODEGEN--\":11604:11606   */\n      0x10\n        /* \"--CODEGEN--\":11599:11602   */\n      dup4\n        /* \"--CODEGEN--\":11540:11607   */\n      tag_413\n      jump\t// in\n    tag_422:\n        /* \"--CODEGEN--\":11533:11607   */\n      swap2\n      pop\n        /* \"--CODEGEN--\":11640:11658   */\n      0x4e6f742072657665616c20737461746500000000000000000000000000000000\n        /* \"--CODEGEN--\":11636:11637   */\n      0x00\n        /* \"--CODEGEN--\":11631:11634   */\n      dup4\n        /* \"--CODEGEN--\":11627:11638   */\n      add\n        /* \"--CODEGEN--\":11620:11659   */\n      mstore\n        /* \"--CODEGEN--\":11687:11689   */\n      0x20\n        /* \"--CODEGEN--\":11682:11685   */\n      dup3\n        /* \"--CODEGEN--\":11678:11690   */\n      add\n        /* \"--CODEGEN--\":11671:11690   */\n      swap1\n      pop\n        /* \"--CODEGEN--\":11526:11696   */\n      swap2\n      swap1\n      pop\n      jump\t// out\n        /* \"--CODEGEN--\":11705:12032   */\n    tag_423:\n      0x00\n        /* \"--CODEGEN--\":11865:11932   */\n      tag_425\n        /* \"--CODEGEN--\":11929:11931   */\n      0x1b\n        /* \"--CODEGEN--\":11924:11927   */\n      dup4\n        /* \"--CODEGEN--\":11865:11932   */\n      tag_413\n      jump\t// in\n    tag_425:\n        /* \"--CODEGEN--\":11858:11932   */\n      swap2\n      pop\n        /* \"--CODEGEN--\":11965:11994   */\n      0x536166654d6174683a206164646974696f6e206f766572666c6f770000000000\n        /* \"--CODEGEN--\":11961:11962   */\n      0x00\n        /* \"--CODEGEN--\":11956:11959   */\n      dup4\n        /* \"--CODEGEN--\":11952:11963   */\n      add\n        /* \"--CODEGEN--\":11945:11995   */\n      mstore\n        /* \"--CODEGEN--\":12023:12025   */\n      0x20\n        /* \"--CODEGEN--\":12018:12021   */\n      dup3\n        /* \"--CODEGEN--\":12014:12026   */\n      add\n        /* \"--CODEGEN--\":12007:12026   */\n      swap1\n      pop\n        /* \"--CODEGEN--\":11851:12032   */\n      swap2\n      swap1\n      pop\n      jump\t// out\n        /* \"--CODEGEN--\":12041:12357   */\n    tag_426:\n      0x00\n        /* \"--CODEGEN--\":12201:12268   */\n      tag_428\n        /* \"--CODEGEN--\":12265:12267   */\n      0x10\n        /* \"--CODEGEN--\":12260:12263   */\n      dup4\n        /* \"--CODEGEN--\":12201:12268   */\n      tag_413\n      jump\t// in\n    tag_428:\n        /* \"--CODEGEN--\":12194:12268   */\n      swap2\n      pop\n        /* \"--CODEGEN--\":12301:12319   */\n      0x4e6f7420636f6d6d697420737461746500000000000000000000000000000000\n        /* \"--CODEGEN--\":12297:12298   */\n      0x00\n        /* \"--CODEGEN--\":12292:12295   */\n      dup4\n        /* \"--CODEGEN--\":12288:12299   */\n      add\n        /* \"--CODEGEN--\":12281:12320   */\n      mstore\n        /* \"--CODEGEN--\":12348:12350   */\n      0x20\n        /* \"--CODEGEN--\":12343:12346   */\n      dup3\n        /* \"--CODEGEN--\":12339:12351   */\n      add\n        /* \"--CODEGEN--\":12332:12351   */\n      swap1\n      pop\n        /* \"--CODEGEN--\":12187:12357   */\n      swap2\n      swap1\n      pop\n      jump\t// out\n        /* \"--CODEGEN--\":12366:12695   */\n    tag_429:\n      0x00\n        /* \"--CODEGEN--\":12526:12593   */\n      tag_431\n        /* \"--CODEGEN--\":12590:12592   */\n      0x1d\n        /* \"--CODEGEN--\":12585:12588   */\n      dup4\n        /* \"--CODEGEN--\":12526:12593   */\n      tag_413\n      jump\t// in\n    tag_431:\n        /* \"--CODEGEN--\":12519:12593   */\n      swap2\n      pop\n        /* \"--CODEGEN--\":12626:12657   */\n      0x537472756374732e5374616b657220646f6573206e6f74206578697374000000\n        /* \"--CODEGEN--\":12622:12623   */\n      0x00\n        /* \"--CODEGEN--\":12617:12620   */\n      dup4\n        /* \"--CODEGEN--\":12613:12624   */\n      add\n        /* \"--CODEGEN--\":12606:12658   */\n      mstore\n        /* \"--CODEGEN--\":12686:12688   */\n      0x20\n        /* \"--CODEGEN--\":12681:12684   */\n      dup3\n        /* \"--CODEGEN--\":12677:12689   */\n      add\n        /* \"--CODEGEN--\":12670:12689   */\n      swap1\n      pop\n        /* \"--CODEGEN--\":12512:12695   */\n      swap2\n      swap1\n      pop\n      jump\t// out\n        /* \"--CODEGEN--\":12704:13019   */\n    tag_432:\n      0x00\n        /* \"--CODEGEN--\":12864:12931   */\n      tag_434\n        /* \"--CODEGEN--\":12928:12930   */\n      0x0f\n        /* \"--CODEGEN--\":12923:12926   */\n      dup4\n        /* \"--CODEGEN--\":12864:12931   */\n      tag_413\n      jump\t// in\n    tag_434:\n        /* \"--CODEGEN--\":12857:12931   */\n      swap2\n      pop\n        /* \"--CODEGEN--\":12964:12981   */\n      0x696e636f72726563742065706f63680000000000000000000000000000000000\n        /* \"--CODEGEN--\":12960:12961   */\n      0x00\n        /* \"--CODEGEN--\":12955:12958   */\n      dup4\n        /* \"--CODEGEN--\":12951:12962   */\n      add\n        /* \"--CODEGEN--\":12944:12982   */\n      mstore\n        /* \"--CODEGEN--\":13010:13012   */\n      0x20\n        /* \"--CODEGEN--\":13005:13008   */\n      dup3\n        /* \"--CODEGEN--\":13001:13013   */\n      add\n        /* \"--CODEGEN--\":12994:13013   */\n      swap1\n      pop\n        /* \"--CODEGEN--\":12850:13019   */\n      swap2\n      swap1\n      pop\n      jump\t// out\n        /* \"--CODEGEN--\":13028:13360   */\n    tag_435:\n      0x00\n        /* \"--CODEGEN--\":13188:13255   */\n      tag_437\n        /* \"--CODEGEN--\":13252:13254   */\n      0x20\n        /* \"--CODEGEN--\":13247:13250   */\n      dup4\n        /* \"--CODEGEN--\":13188:13255   */\n      tag_413\n      jump\t// in\n    tag_437:\n        /* \"--CODEGEN--\":13181:13255   */\n      swap2\n      pop\n        /* \"--CODEGEN--\":13288:13322   */\n      0x6e6f7420636f6d6d69746564206f7220616c72656164792072657665616c6564\n        /* \"--CODEGEN--\":13284:13285   */\n      0x00\n        /* \"--CODEGEN--\":13279:13282   */\n      dup4\n        /* \"--CODEGEN--\":13275:13286   */\n      add\n        /* \"--CODEGEN--\":13268:13323   */\n      mstore\n        /* \"--CODEGEN--\":13351:13353   */\n      0x20\n        /* \"--CODEGEN--\":13346:13349   */\n      dup3\n        /* \"--CODEGEN--\":13342:13354   */\n      add\n        /* \"--CODEGEN--\":13335:13354   */\n      swap1\n      pop\n        /* \"--CODEGEN--\":13174:13360   */\n      swap2\n      swap1\n      pop\n      jump\t// out\n        /* \"--CODEGEN--\":13369:13684   */\n    tag_438:\n      0x00\n        /* \"--CODEGEN--\":13529:13596   */\n      tag_440\n        /* \"--CODEGEN--\":13593:13595   */\n      0x0f\n        /* \"--CODEGEN--\":13588:13591   */\n      dup4\n        /* \"--CODEGEN--\":13529:13596   */\n      tag_413\n      jump\t// in\n    tag_440:\n        /* \"--CODEGEN--\":13522:13596   */\n      swap2\n      pop\n        /* \"--CODEGEN--\":13629:13646   */\n      0x696e636f72726563742073746174650000000000000000000000000000000000\n        /* \"--CODEGEN--\":13625:13626   */\n      0x00\n        /* \"--CODEGEN--\":13620:13623   */\n      dup4\n        /* \"--CODEGEN--\":13616:13627   */\n      add\n        /* \"--CODEGEN--\":13609:13647   */\n      mstore\n        /* \"--CODEGEN--\":13675:13677   */\n      0x20\n        /* \"--CODEGEN--\":13670:13673   */\n      dup3\n        /* \"--CODEGEN--\":13666:13678   */\n      add\n        /* \"--CODEGEN--\":13659:13678   */\n      swap1\n      pop\n        /* \"--CODEGEN--\":13515:13684   */\n      swap2\n      swap1\n      pop\n      jump\t// out\n        /* \"--CODEGEN--\":13693:14009   */\n    tag_441:\n      0x00\n        /* \"--CODEGEN--\":13853:13920   */\n      tag_443\n        /* \"--CODEGEN--\":13917:13919   */\n      0x10\n        /* \"--CODEGEN--\":13912:13915   */\n      dup4\n        /* \"--CODEGEN--\":13853:13920   */\n      tag_413\n      jump\t// in\n    tag_443:\n        /* \"--CODEGEN--\":13846:13920   */\n      swap2\n      pop\n        /* \"--CODEGEN--\":13953:13971   */\n      0x616c726561647920636f6d6d6974656400000000000000000000000000000000\n        /* \"--CODEGEN--\":13949:13950   */\n      0x00\n        /* \"--CODEGEN--\":13944:13947   */\n      dup4\n        /* \"--CODEGEN--\":13940:13951   */\n      add\n        /* \"--CODEGEN--\":13933:13972   */\n      mstore\n        /* \"--CODEGEN--\":14000:14002   */\n      0x20\n        /* \"--CODEGEN--\":13995:13998   */\n      dup3\n        /* \"--CODEGEN--\":13991:14003   */\n      add\n        /* \"--CODEGEN--\":13984:14003   */\n      swap1\n      pop\n        /* \"--CODEGEN--\":13839:14009   */\n      swap2\n      swap1\n      pop\n      jump\t// out\n        /* \"--CODEGEN--\":14066:14539   */\n    tag_444:\n        /* \"--CODEGEN--\":14203:14207   */\n      0x40\n        /* \"--CODEGEN--\":14198:14201   */\n      dup3\n        /* \"--CODEGEN--\":14194:14208   */\n      add\n        /* \"--CODEGEN--\":14287:14291   */\n      0x00\n        /* \"--CODEGEN--\":14280:14285   */\n      dup3\n        /* \"--CODEGEN--\":14276:14292   */\n      add\n        /* \"--CODEGEN--\":14270:14293   */\n      mload\n        /* \"--CODEGEN--\":14299:14362   */\n      tag_446\n        /* \"--CODEGEN--\":14356:14360   */\n      0x00\n        /* \"--CODEGEN--\":14351:14354   */\n      dup6\n        /* \"--CODEGEN--\":14347:14361   */\n      add\n        /* \"--CODEGEN--\":14333:14345   */\n      dup3\n        /* \"--CODEGEN--\":14299:14362   */\n      tag_366\n      jump\t// in\n    tag_446:\n        /* \"--CODEGEN--\":14223:14368   */\n      pop\n        /* \"--CODEGEN--\":14443:14447   */\n      0x20\n        /* \"--CODEGEN--\":14436:14441   */\n      dup3\n        /* \"--CODEGEN--\":14432:14448   */\n      add\n        /* \"--CODEGEN--\":14426:14449   */\n      mload\n        /* \"--CODEGEN--\":14455:14518   */\n      tag_447\n        /* \"--CODEGEN--\":14512:14516   */\n      0x20\n        /* \"--CODEGEN--\":14507:14510   */\n      dup6\n        /* \"--CODEGEN--\":14503:14517   */\n      add\n        /* \"--CODEGEN--\":14489:14501   */\n      dup3\n        /* \"--CODEGEN--\":14455:14518   */\n      tag_366\n      jump\t// in\n    tag_447:\n        /* \"--CODEGEN--\":14378:14524   */\n      pop\n        /* \"--CODEGEN--\":14176:14539   */\n      pop\n      pop\n      pop\n      jump\t// out\n        /* \"--CODEGEN--\":14546:14649   */\n    tag_366:\n        /* \"--CODEGEN--\":14619:14643   */\n      tag_449\n        /* \"--CODEGEN--\":14637:14642   */\n      dup2\n        /* \"--CODEGEN--\":14619:14643   */\n      tag_450\n      jump\t// in\n    tag_449:\n        /* \"--CODEGEN--\":14614:14617   */\n      dup3\n        /* \"--CODEGEN--\":14607:14644   */\n      mstore\n        /* \"--CODEGEN--\":14601:14649   */\n      pop\n      pop\n      jump\t// out\n        /* \"--CODEGEN--\":14656:14769   */\n    tag_451:\n        /* \"--CODEGEN--\":14739:14763   */\n      tag_453\n        /* \"--CODEGEN--\":14757:14762   */\n      dup2\n        /* \"--CODEGEN--\":14739:14763   */\n      tag_450\n      jump\t// in\n    tag_453:\n        /* \"--CODEGEN--\":14734:14737   */\n      dup3\n        /* \"--CODEGEN--\":14727:14764   */\n      mstore\n        /* \"--CODEGEN--\":14721:14769   */\n      pop\n      pop\n      jump\t// out\n        /* \"--CODEGEN--\":14776:14928   */\n    tag_454:\n        /* \"--CODEGEN--\":14877:14922   */\n      tag_456\n        /* \"--CODEGEN--\":14897:14921   */\n      tag_457\n        /* \"--CODEGEN--\":14915:14920   */\n      dup3\n        /* \"--CODEGEN--\":14897:14921   */\n      tag_450\n      jump\t// in\n    tag_457:\n        /* \"--CODEGEN--\":14877:14922   */\n      tag_458\n      jump\t// in\n    tag_456:\n        /* \"--CODEGEN--\":14872:14875   */\n      dup3\n        /* \"--CODEGEN--\":14865:14923   */\n      mstore\n        /* \"--CODEGEN--\":14859:14928   */\n      pop\n      pop\n      jump\t// out\n        /* \"--CODEGEN--\":14935:15327   */\n    tag_251:\n      0x00\n        /* \"--CODEGEN--\":15091:15166   */\n      tag_460\n        /* \"--CODEGEN--\":15162:15165   */\n      dup3\n        /* \"--CODEGEN--\":15153:15159   */\n      dup6\n        /* \"--CODEGEN--\":15091:15166   */\n      tag_393\n      jump\t// in\n    tag_460:\n        /* \"--CODEGEN--\":15188:15190   */\n      0x20\n        /* \"--CODEGEN--\":15183:15186   */\n      dup3\n        /* \"--CODEGEN--\":15179:15191   */\n      add\n        /* \"--CODEGEN--\":15172:15191   */\n      swap2\n      pop\n        /* \"--CODEGEN--\":15202:15277   */\n      tag_461\n        /* \"--CODEGEN--\":15273:15276   */\n      dup3\n        /* \"--CODEGEN--\":15264:15270   */\n      dup5\n        /* \"--CODEGEN--\":15202:15277   */\n      tag_393\n      jump\t// in\n    tag_461:\n        /* \"--CODEGEN--\":15299:15301   */\n      0x20\n        /* \"--CODEGEN--\":15294:15297   */\n      dup3\n        /* \"--CODEGEN--\":15290:15302   */\n      add\n        /* \"--CODEGEN--\":15283:15302   */\n      swap2\n      pop\n        /* \"--CODEGEN--\":15319:15322   */\n      dup2\n        /* \"--CODEGEN--\":15312:15322   */\n      swap1\n      pop\n        /* \"--CODEGEN--\":15079:15327   */\n      swap4\n      swap3\n      pop\n      pop\n      pop\n      jump\t// out\n        /* \"--CODEGEN--\":15334:15587   */\n    tag_145:\n      0x00\n        /* \"--CODEGEN--\":15462:15537   */\n      tag_463\n        /* \"--CODEGEN--\":15533:15536   */\n      dup3\n        /* \"--CODEGEN--\":15524:15530   */\n      dup5\n        /* \"--CODEGEN--\":15462:15537   */\n      tag_454\n      jump\t// in\n    tag_463:\n        /* \"--CODEGEN--\":15559:15561   */\n      0x20\n        /* \"--CODEGEN--\":15554:15557   */\n      dup3\n        /* \"--CODEGEN--\":15550:15562   */\n      add\n        /* \"--CODEGEN--\":15543:15562   */\n      swap2\n      pop\n        /* \"--CODEGEN--\":15579:15582   */\n      dup2\n        /* \"--CODEGEN--\":15572:15582   */\n      swap1\n      pop\n        /* \"--CODEGEN--\":15450:15587   */\n      swap3\n      swap2\n      pop\n      pop\n      jump\t// out\n        /* \"--CODEGEN--\":15594:16125   */\n    tag_118:\n      0x00\n        /* \"--CODEGEN--\":15778:15853   */\n      tag_465\n        /* \"--CODEGEN--\":15849:15852   */\n      dup3\n        /* \"--CODEGEN--\":15840:15846   */\n      dup7\n        /* \"--CODEGEN--\":15778:15853   */\n      tag_454\n      jump\t// in\n    tag_465:\n        /* \"--CODEGEN--\":15875:15877   */\n      0x20\n        /* \"--CODEGEN--\":15870:15873   */\n      dup3\n        /* \"--CODEGEN--\":15866:15878   */\n      add\n        /* \"--CODEGEN--\":15859:15878   */\n      swap2\n      pop\n        /* \"--CODEGEN--\":15889:15964   */\n      tag_466\n        /* \"--CODEGEN--\":15960:15963   */\n      dup3\n        /* \"--CODEGEN--\":15951:15957   */\n      dup6\n        /* \"--CODEGEN--\":15889:15964   */\n      tag_393\n      jump\t// in\n    tag_466:\n        /* \"--CODEGEN--\":15986:15988   */\n      0x20\n        /* \"--CODEGEN--\":15981:15984   */\n      dup3\n        /* \"--CODEGEN--\":15977:15989   */\n      add\n        /* \"--CODEGEN--\":15970:15989   */\n      swap2\n      pop\n        /* \"--CODEGEN--\":16000:16075   */\n      tag_467\n        /* \"--CODEGEN--\":16071:16074   */\n      dup3\n        /* \"--CODEGEN--\":16062:16068   */\n      dup5\n        /* \"--CODEGEN--\":16000:16075   */\n      tag_393\n      jump\t// in\n    tag_467:\n        /* \"--CODEGEN--\":16097:16099   */\n      0x20\n        /* \"--CODEGEN--\":16092:16095   */\n      dup3\n        /* \"--CODEGEN--\":16088:16100   */\n      add\n        /* \"--CODEGEN--\":16081:16100   */\n      swap2\n      pop\n        /* \"--CODEGEN--\":16117:16120   */\n      dup2\n        /* \"--CODEGEN--\":16110:16120   */\n      swap1\n      pop\n        /* \"--CODEGEN--\":15766:16125   */\n      swap5\n      swap4\n      pop\n      pop\n      pop\n      pop\n      jump\t// out\n        /* \"--CODEGEN--\":16132:16354   */\n    tag_98:\n      0x00\n        /* \"--CODEGEN--\":16259:16261   */\n      0x20\n        /* \"--CODEGEN--\":16248:16257   */\n      dup3\n        /* \"--CODEGEN--\":16244:16262   */\n      add\n        /* \"--CODEGEN--\":16236:16262   */\n      swap1\n      pop\n        /* \"--CODEGEN--\":16273:16344   */\n      tag_469\n        /* \"--CODEGEN--\":16341:16342   */\n      0x00\n        /* \"--CODEGEN--\":16330:16339   */\n      dup4\n        /* \"--CODEGEN--\":16326:16343   */\n      add\n        /* \"--CODEGEN--\":16317:16323   */\n      dup5\n        /* \"--CODEGEN--\":16273:16344   */\n      tag_371\n      jump\t// in\n    tag_469:\n        /* \"--CODEGEN--\":16230:16354   */\n      swap3\n      swap2\n      pop\n      pop\n      jump\t// out\n        /* \"--CODEGEN--\":16361:16599   */\n    tag_211:\n      0x00\n        /* \"--CODEGEN--\":16496:16498   */\n      0x20\n        /* \"--CODEGEN--\":16485:16494   */\n      dup3\n        /* \"--CODEGEN--\":16481:16499   */\n      add\n        /* \"--CODEGEN--\":16473:16499   */\n      swap1\n      pop\n        /* \"--CODEGEN--\":16510:16589   */\n      tag_471\n        /* \"--CODEGEN--\":16586:16587   */\n      0x00\n        /* \"--CODEGEN--\":16575:16584   */\n      dup4\n        /* \"--CODEGEN--\":16571:16588   */\n      add\n        /* \"--CODEGEN--\":16562:16568   */\n      dup5\n        /* \"--CODEGEN--\":16510:16589   */\n      tag_367\n      jump\t// in\n    tag_471:\n        /* \"--CODEGEN--\":16467:16599   */\n      swap3\n      swap2\n      pop\n      pop\n      jump\t// out\n        /* \"--CODEGEN--\":16606:16828   */\n    tag_44:\n      0x00\n        /* \"--CODEGEN--\":16733:16735   */\n      0x20\n        /* \"--CODEGEN--\":16722:16731   */\n      dup3\n        /* \"--CODEGEN--\":16718:16736   */\n      add\n        /* \"--CODEGEN--\":16710:16736   */\n      swap1\n      pop\n        /* \"--CODEGEN--\":16747:16818   */\n      tag_473\n        /* \"--CODEGEN--\":16815:16816   */\n      0x00\n        /* \"--CODEGEN--\":16804:16813   */\n      dup4\n        /* \"--CODEGEN--\":16800:16817   */\n      add\n        /* \"--CODEGEN--\":16791:16797   */\n      dup5\n        /* \"--CODEGEN--\":16747:16818   */\n      tag_389\n      jump\t// in\n    tag_473:\n        /* \"--CODEGEN--\":16704:16828   */\n      swap3\n      swap2\n      pop\n      pop\n      jump\t// out\n        /* \"--CODEGEN--\":16835:17101   */\n    tag_78:\n      0x00\n        /* \"--CODEGEN--\":16984:16986   */\n      0x20\n        /* \"--CODEGEN--\":16973:16982   */\n      dup3\n        /* \"--CODEGEN--\":16969:16987   */\n      add\n        /* \"--CODEGEN--\":16961:16987   */\n      swap1\n      pop\n        /* \"--CODEGEN--\":16998:17091   */\n      tag_475\n        /* \"--CODEGEN--\":17088:17089   */\n      0x00\n        /* \"--CODEGEN--\":17077:17086   */\n      dup4\n        /* \"--CODEGEN--\":17073:17090   */\n      add\n        /* \"--CODEGEN--\":17064:17070   */\n      dup5\n        /* \"--CODEGEN--\":16998:17091   */\n      tag_398\n      jump\t// in\n    tag_475:\n        /* \"--CODEGEN--\":16955:17101   */\n      swap3\n      swap2\n      pop\n      pop\n      jump\t// out\n        /* \"--CODEGEN--\":17108:17374   */\n    tag_48:\n      0x00\n        /* \"--CODEGEN--\":17257:17259   */\n      0x20\n        /* \"--CODEGEN--\":17246:17255   */\n      dup3\n        /* \"--CODEGEN--\":17242:17260   */\n      add\n        /* \"--CODEGEN--\":17234:17260   */\n      swap1\n      pop\n        /* \"--CODEGEN--\":17271:17364   */\n      tag_477\n        /* \"--CODEGEN--\":17361:17362   */\n      0x00\n        /* \"--CODEGEN--\":17350:17359   */\n      dup4\n        /* \"--CODEGEN--\":17346:17363   */\n      add\n        /* \"--CODEGEN--\":17337:17343   */\n      dup5\n        /* \"--CODEGEN--\":17271:17364   */\n      tag_402\n      jump\t// in\n    tag_477:\n        /* \"--CODEGEN--\":17228:17374   */\n      swap3\n      swap2\n      pop\n      pop\n      jump\t// out\n        /* \"--CODEGEN--\":17381:17647   */\n    tag_38:\n      0x00\n        /* \"--CODEGEN--\":17530:17532   */\n      0x20\n        /* \"--CODEGEN--\":17519:17528   */\n      dup3\n        /* \"--CODEGEN--\":17515:17533   */\n      add\n        /* \"--CODEGEN--\":17507:17533   */\n      swap1\n      pop\n        /* \"--CODEGEN--\":17544:17637   */\n      tag_479\n        /* \"--CODEGEN--\":17634:17635   */\n      0x00\n        /* \"--CODEGEN--\":17623:17632   */\n      dup4\n        /* \"--CODEGEN--\":17619:17636   */\n      add\n        /* \"--CODEGEN--\":17610:17616   */\n      dup5\n        /* \"--CODEGEN--\":17544:17637   */\n      tag_406\n      jump\t// in\n    tag_479:\n        /* \"--CODEGEN--\":17501:17647   */\n      swap3\n      swap2\n      pop\n      pop\n      jump\t// out\n        /* \"--CODEGEN--\":17654:18070   */\n    tag_121:\n      0x00\n        /* \"--CODEGEN--\":17854:17856   */\n      0x20\n        /* \"--CODEGEN--\":17843:17852   */\n      dup3\n        /* \"--CODEGEN--\":17839:17857   */\n      add\n        /* \"--CODEGEN--\":17831:17857   */\n      swap1\n      pop\n        /* \"--CODEGEN--\":17904:17913   */\n      dup2\n        /* \"--CODEGEN--\":17898:17902   */\n      dup2\n        /* \"--CODEGEN--\":17894:17914   */\n      sub\n        /* \"--CODEGEN--\":17890:17891   */\n      0x00\n        /* \"--CODEGEN--\":17879:17888   */\n      dup4\n        /* \"--CODEGEN--\":17875:17892   */\n      add\n        /* \"--CODEGEN--\":17868:17915   */\n      mstore\n        /* \"--CODEGEN--\":17929:18060   */\n      tag_481\n        /* \"--CODEGEN--\":18055:18059   */\n      dup2\n        /* \"--CODEGEN--\":17929:18060   */\n      tag_410\n      jump\t// in\n    tag_481:\n        /* \"--CODEGEN--\":17921:18060   */\n      swap1\n      pop\n        /* \"--CODEGEN--\":17825:18070   */\n      swap2\n      swap1\n      pop\n      jump\t// out\n        /* \"--CODEGEN--\":18077:18493   */\n    tag_137:\n      0x00\n        /* \"--CODEGEN--\":18277:18279   */\n      0x20\n        /* \"--CODEGEN--\":18266:18275   */\n      dup3\n        /* \"--CODEGEN--\":18262:18280   */\n      add\n        /* \"--CODEGEN--\":18254:18280   */\n      swap1\n      pop\n        /* \"--CODEGEN--\":18327:18336   */\n      dup2\n        /* \"--CODEGEN--\":18321:18325   */\n      dup2\n        /* \"--CODEGEN--\":18317:18337   */\n      sub\n        /* \"--CODEGEN--\":18313:18314   */\n      0x00\n        /* \"--CODEGEN--\":18302:18311   */\n      dup4\n        /* \"--CODEGEN--\":18298:18315   */\n      add\n        /* \"--CODEGEN--\":18291:18338   */\n      mstore\n        /* \"--CODEGEN--\":18352:18483   */\n      tag_483\n        /* \"--CODEGEN--\":18478:18482   */\n      dup2\n        /* \"--CODEGEN--\":18352:18483   */\n      tag_414\n      jump\t// in\n    tag_483:\n        /* \"--CODEGEN--\":18344:18483   */\n      swap1\n      pop\n        /* \"--CODEGEN--\":18248:18493   */\n      swap2\n      swap1\n      pop\n      jump\t// out\n        /* \"--CODEGEN--\":18500:18916   */\n    tag_149:\n      0x00\n        /* \"--CODEGEN--\":18700:18702   */\n      0x20\n        /* \"--CODEGEN--\":18689:18698   */\n      dup3\n        /* \"--CODEGEN--\":18685:18703   */\n      add\n        /* \"--CODEGEN--\":18677:18703   */\n      swap1\n      pop\n        /* \"--CODEGEN--\":18750:18759   */\n      dup2\n        /* \"--CODEGEN--\":18744:18748   */\n      dup2\n        /* \"--CODEGEN--\":18740:18760   */\n      sub\n        /* \"--CODEGEN--\":18736:18737   */\n      0x00\n        /* \"--CODEGEN--\":18725:18734   */\n      dup4\n        /* \"--CODEGEN--\":18721:18738   */\n      add\n        /* \"--CODEGEN--\":18714:18761   */\n      mstore\n        /* \"--CODEGEN--\":18775:18906   */\n      tag_485\n        /* \"--CODEGEN--\":18901:18905   */\n      dup2\n        /* \"--CODEGEN--\":18775:18906   */\n      tag_417\n      jump\t// in\n    tag_485:\n        /* \"--CODEGEN--\":18767:18906   */\n      swap1\n      pop\n        /* \"--CODEGEN--\":18671:18916   */\n      swap2\n      swap1\n      pop\n      jump\t// out\n        /* \"--CODEGEN--\":18923:19339   */\n    tag_134:\n      0x00\n        /* \"--CODEGEN--\":19123:19125   */\n      0x20\n        /* \"--CODEGEN--\":19112:19121   */\n      dup3\n        /* \"--CODEGEN--\":19108:19126   */\n      add\n        /* \"--CODEGEN--\":19100:19126   */\n      swap1\n      pop\n        /* \"--CODEGEN--\":19173:19182   */\n      dup2\n        /* \"--CODEGEN--\":19167:19171   */\n      dup2\n        /* \"--CODEGEN--\":19163:19183   */\n      sub\n        /* \"--CODEGEN--\":19159:19160   */\n      0x00\n        /* \"--CODEGEN--\":19148:19157   */\n      dup4\n        /* \"--CODEGEN--\":19144:19161   */\n      add\n        /* \"--CODEGEN--\":19137:19184   */\n      mstore\n        /* \"--CODEGEN--\":19198:19329   */\n      tag_487\n        /* \"--CODEGEN--\":19324:19328   */\n      dup2\n        /* \"--CODEGEN--\":19198:19329   */\n      tag_420\n      jump\t// in\n    tag_487:\n        /* \"--CODEGEN--\":19190:19329   */\n      swap1\n      pop\n        /* \"--CODEGEN--\":19094:19339   */\n      swap2\n      swap1\n      pop\n      jump\t// out\n        /* \"--CODEGEN--\":19346:19762   */\n    tag_257:\n      0x00\n        /* \"--CODEGEN--\":19546:19548   */\n      0x20\n        /* \"--CODEGEN--\":19535:19544   */\n      dup3\n        /* \"--CODEGEN--\":19531:19549   */\n      add\n        /* \"--CODEGEN--\":19523:19549   */\n      swap1\n      pop\n        /* \"--CODEGEN--\":19596:19605   */\n      dup2\n        /* \"--CODEGEN--\":19590:19594   */\n      dup2\n        /* \"--CODEGEN--\":19586:19606   */\n      sub\n        /* \"--CODEGEN--\":19582:19583   */\n      0x00\n        /* \"--CODEGEN--\":19571:19580   */\n      dup4\n        /* \"--CODEGEN--\":19567:19584   */\n      add\n        /* \"--CODEGEN--\":19560:19607   */\n      mstore\n        /* \"--CODEGEN--\":19621:19752   */\n      tag_489\n        /* \"--CODEGEN--\":19747:19751   */\n      dup2\n        /* \"--CODEGEN--\":19621:19752   */\n      tag_423\n      jump\t// in\n    tag_489:\n        /* \"--CODEGEN--\":19613:19752   */\n      swap1\n      pop\n        /* \"--CODEGEN--\":19517:19762   */\n      swap2\n      swap1\n      pop\n      jump\t// out\n        /* \"--CODEGEN--\":19769:20185   */\n    tag_177:\n      0x00\n        /* \"--CODEGEN--\":19969:19971   */\n      0x20\n        /* \"--CODEGEN--\":19958:19967   */\n      dup3\n        /* \"--CODEGEN--\":19954:19972   */\n      add\n        /* \"--CODEGEN--\":19946:19972   */\n      swap1\n      pop\n        /* \"--CODEGEN--\":20019:20028   */\n      dup2\n        /* \"--CODEGEN--\":20013:20017   */\n      dup2\n        /* \"--CODEGEN--\":20009:20029   */\n      sub\n        /* \"--CODEGEN--\":20005:20006   */\n      0x00\n        /* \"--CODEGEN--\":19994:20003   */\n      dup4\n        /* \"--CODEGEN--\":19990:20007   */\n      add\n        /* \"--CODEGEN--\":19983:20030   */\n      mstore\n        /* \"--CODEGEN--\":20044:20175   */\n      tag_491\n        /* \"--CODEGEN--\":20170:20174   */\n      dup2\n        /* \"--CODEGEN--\":20044:20175   */\n      tag_426\n      jump\t// in\n    tag_491:\n        /* \"--CODEGEN--\":20036:20175   */\n      swap1\n      pop\n        /* \"--CODEGEN--\":19940:20185   */\n      swap2\n      swap1\n      pop\n      jump\t// out\n        /* \"--CODEGEN--\":20192:20608   */\n    tag_105:\n      0x00\n        /* \"--CODEGEN--\":20392:20394   */\n      0x20\n        /* \"--CODEGEN--\":20381:20390   */\n      dup3\n        /* \"--CODEGEN--\":20377:20395   */\n      add\n        /* \"--CODEGEN--\":20369:20395   */\n      swap1\n      pop\n        /* \"--CODEGEN--\":20442:20451   */\n      dup2\n        /* \"--CODEGEN--\":20436:20440   */\n      dup2\n        /* \"--CODEGEN--\":20432:20452   */\n      sub\n        /* \"--CODEGEN--\":20428:20429   */\n      0x00\n        /* \"--CODEGEN--\":20417:20426   */\n      dup4\n        /* \"--CODEGEN--\":20413:20430   */\n      add\n        /* \"--CODEGEN--\":20406:20453   */\n      mstore\n        /* \"--CODEGEN--\":20467:20598   */\n      tag_493\n        /* \"--CODEGEN--\":20593:20597   */\n      dup2\n        /* \"--CODEGEN--\":20467:20598   */\n      tag_429\n      jump\t// in\n    tag_493:\n        /* \"--CODEGEN--\":20459:20598   */\n      swap1\n      pop\n        /* \"--CODEGEN--\":20363:20608   */\n      swap2\n      swap1\n      pop\n      jump\t// out\n        /* \"--CODEGEN--\":20615:21031   */\n    tag_95:\n      0x00\n        /* \"--CODEGEN--\":20815:20817   */\n      0x20\n        /* \"--CODEGEN--\":20804:20813   */\n      dup3\n        /* \"--CODEGEN--\":20800:20818   */\n      add\n        /* \"--CODEGEN--\":20792:20818   */\n      swap1\n      pop\n        /* \"--CODEGEN--\":20865:20874   */\n      dup2\n        /* \"--CODEGEN--\":20859:20863   */\n      dup2\n        /* \"--CODEGEN--\":20855:20875   */\n      sub\n        /* \"--CODEGEN--\":20851:20852   */\n      0x00\n        /* \"--CODEGEN--\":20840:20849   */\n      dup4\n        /* \"--CODEGEN--\":20836:20853   */\n      add\n        /* \"--CODEGEN--\":20829:20876   */\n      mstore\n        /* \"--CODEGEN--\":20890:21021   */\n      tag_495\n        /* \"--CODEGEN--\":21016:21020   */\n      dup2\n        /* \"--CODEGEN--\":20890:21021   */\n      tag_432\n      jump\t// in\n    tag_495:\n        /* \"--CODEGEN--\":20882:21021   */\n      swap1\n      pop\n        /* \"--CODEGEN--\":20786:21031   */\n      swap2\n      swap1\n      pop\n      jump\t// out\n        /* \"--CODEGEN--\":21038:21454   */\n    tag_116:\n      0x00\n        /* \"--CODEGEN--\":21238:21240   */\n      0x20\n        /* \"--CODEGEN--\":21227:21236   */\n      dup3\n        /* \"--CODEGEN--\":21223:21241   */\n      add\n        /* \"--CODEGEN--\":21215:21241   */\n      swap1\n      pop\n        /* \"--CODEGEN--\":21288:21297   */\n      dup2\n        /* \"--CODEGEN--\":21282:21286   */\n      dup2\n        /* \"--CODEGEN--\":21278:21298   */\n      sub\n        /* \"--CODEGEN--\":21274:21275   */\n      0x00\n        /* \"--CODEGEN--\":21263:21272   */\n      dup4\n        /* \"--CODEGEN--\":21259:21276   */\n      add\n        /* \"--CODEGEN--\":21252:21299   */\n      mstore\n        /* \"--CODEGEN--\":21313:21444   */\n      tag_497\n        /* \"--CODEGEN--\":21439:21443   */\n      dup2\n        /* \"--CODEGEN--\":21313:21444   */\n      tag_435\n      jump\t// in\n    tag_497:\n        /* \"--CODEGEN--\":21305:21444   */\n      swap1\n      pop\n        /* \"--CODEGEN--\":21209:21454   */\n      swap2\n      swap1\n      pop\n      jump\t// out\n        /* \"--CODEGEN--\":21461:21877   */\n    tag_208:\n      0x00\n        /* \"--CODEGEN--\":21661:21663   */\n      0x20\n        /* \"--CODEGEN--\":21650:21659   */\n      dup3\n        /* \"--CODEGEN--\":21646:21664   */\n      add\n        /* \"--CODEGEN--\":21638:21664   */\n      swap1\n      pop\n        /* \"--CODEGEN--\":21711:21720   */\n      dup2\n        /* \"--CODEGEN--\":21705:21709   */\n      dup2\n        /* \"--CODEGEN--\":21701:21721   */\n      sub\n        /* \"--CODEGEN--\":21697:21698   */\n      0x00\n        /* \"--CODEGEN--\":21686:21695   */\n      dup4\n        /* \"--CODEGEN--\":21682:21699   */\n      add\n        /* \"--CODEGEN--\":21675:21722   */\n      mstore\n        /* \"--CODEGEN--\":21736:21867   */\n      tag_499\n        /* \"--CODEGEN--\":21862:21866   */\n      dup2\n        /* \"--CODEGEN--\":21736:21867   */\n      tag_438\n      jump\t// in\n    tag_499:\n        /* \"--CODEGEN--\":21728:21867   */\n      swap1\n      pop\n        /* \"--CODEGEN--\":21632:21877   */\n      swap2\n      swap1\n      pop\n      jump\t// out\n        /* \"--CODEGEN--\":21884:22300   */\n    tag_218:\n      0x00\n        /* \"--CODEGEN--\":22084:22086   */\n      0x20\n        /* \"--CODEGEN--\":22073:22082   */\n      dup3\n        /* \"--CODEGEN--\":22069:22087   */\n      add\n        /* \"--CODEGEN--\":22061:22087   */\n      swap1\n      pop\n        /* \"--CODEGEN--\":22134:22143   */\n      dup2\n        /* \"--CODEGEN--\":22128:22132   */\n      dup2\n        /* \"--CODEGEN--\":22124:22144   */\n      sub\n        /* \"--CODEGEN--\":22120:22121   */\n      0x00\n        /* \"--CODEGEN--\":22109:22118   */\n      dup4\n        /* \"--CODEGEN--\":22105:22122   */\n      add\n        /* \"--CODEGEN--\":22098:22145   */\n      mstore\n        /* \"--CODEGEN--\":22159:22290   */\n      tag_501\n        /* \"--CODEGEN--\":22285:22289   */\n      dup2\n        /* \"--CODEGEN--\":22159:22290   */\n      tag_441\n      jump\t// in\n    tag_501:\n        /* \"--CODEGEN--\":22151:22290   */\n      swap1\n      pop\n        /* \"--CODEGEN--\":22055:22300   */\n      swap2\n      swap1\n      pop\n      jump\t// out\n        /* \"--CODEGEN--\":22307:22617   */\n    tag_58:\n      0x00\n        /* \"--CODEGEN--\":22478:22480   */\n      0x40\n        /* \"--CODEGEN--\":22467:22476   */\n      dup3\n        /* \"--CODEGEN--\":22463:22481   */\n      add\n        /* \"--CODEGEN--\":22455:22481   */\n      swap1\n      pop\n        /* \"--CODEGEN--\":22492:22607   */\n      tag_503\n        /* \"--CODEGEN--\":22604:22605   */\n      0x00\n        /* \"--CODEGEN--\":22593:22602   */\n      dup4\n        /* \"--CODEGEN--\":22589:22606   */\n      add\n        /* \"--CODEGEN--\":22580:22586   */\n      dup5\n        /* \"--CODEGEN--\":22492:22607   */\n      tag_444\n      jump\t// in\n    tag_503:\n        /* \"--CODEGEN--\":22449:22617   */\n      swap3\n      swap2\n      pop\n      pop\n      jump\t// out\n        /* \"--CODEGEN--\":22624:22846   */\n    tag_53:\n      0x00\n        /* \"--CODEGEN--\":22751:22753   */\n      0x20\n        /* \"--CODEGEN--\":22740:22749   */\n      dup3\n        /* \"--CODEGEN--\":22736:22754   */\n      add\n        /* \"--CODEGEN--\":22728:22754   */\n      swap1\n      pop\n        /* \"--CODEGEN--\":22765:22836   */\n      tag_505\n        /* \"--CODEGEN--\":22833:22834   */\n      0x00\n        /* \"--CODEGEN--\":22822:22831   */\n      dup4\n        /* \"--CODEGEN--\":22818:22835   */\n      add\n        /* \"--CODEGEN--\":22809:22815   */\n      dup5\n        /* \"--CODEGEN--\":22765:22836   */\n      tag_451\n      jump\t// in\n    tag_505:\n        /* \"--CODEGEN--\":22722:22846   */\n      swap3\n      swap2\n      pop\n      pop\n      jump\t// out\n        /* \"--CODEGEN--\":22853:23313   */\n    tag_179:\n      0x00\n        /* \"--CODEGEN--\":23044:23046   */\n      0x60\n        /* \"--CODEGEN--\":23033:23042   */\n      dup3\n        /* \"--CODEGEN--\":23029:23047   */\n      add\n        /* \"--CODEGEN--\":23021:23047   */\n      swap1\n      pop\n        /* \"--CODEGEN--\":23058:23129   */\n      tag_507\n        /* \"--CODEGEN--\":23126:23127   */\n      0x00\n        /* \"--CODEGEN--\":23115:23124   */\n      dup4\n        /* \"--CODEGEN--\":23111:23128   */\n      add\n        /* \"--CODEGEN--\":23102:23108   */\n      dup7\n        /* \"--CODEGEN--\":23058:23129   */\n      tag_451\n      jump\t// in\n    tag_507:\n        /* \"--CODEGEN--\":23140:23220   */\n      tag_508\n        /* \"--CODEGEN--\":23216:23218   */\n      0x20\n        /* \"--CODEGEN--\":23205:23214   */\n      dup4\n        /* \"--CODEGEN--\":23201:23219   */\n      add\n        /* \"--CODEGEN--\":23192:23198   */\n      dup6\n        /* \"--CODEGEN--\":23140:23220   */\n      tag_367\n      jump\t// in\n    tag_508:\n        /* \"--CODEGEN--\":23231:23303   */\n      tag_509\n        /* \"--CODEGEN--\":23299:23301   */\n      0x40\n        /* \"--CODEGEN--\":23288:23297   */\n      dup4\n        /* \"--CODEGEN--\":23284:23302   */\n      add\n        /* \"--CODEGEN--\":23275:23281   */\n      dup5\n        /* \"--CODEGEN--\":23231:23303   */\n      tag_451\n      jump\t// in\n    tag_509:\n        /* \"--CODEGEN--\":23015:23313   */\n      swap5\n      swap4\n      pop\n      pop\n      pop\n      pop\n      jump\t// out\n        /* \"--CODEGEN--\":23320:23653   */\n    tag_34:\n      0x00\n        /* \"--CODEGEN--\":23475:23477   */\n      0x40\n        /* \"--CODEGEN--\":23464:23473   */\n      dup3\n        /* \"--CODEGEN--\":23460:23478   */\n      add\n        /* \"--CODEGEN--\":23452:23478   */\n      swap1\n      pop\n        /* \"--CODEGEN--\":23489:23560   */\n      tag_511\n        /* \"--CODEGEN--\":23557:23558   */\n      0x00\n        /* \"--CODEGEN--\":23546:23555   */\n      dup4\n        /* \"--CODEGEN--\":23542:23559   */\n      add\n        /* \"--CODEGEN--\":23533:23539   */\n      dup6\n        /* \"--CODEGEN--\":23489:23560   */\n      tag_451\n      jump\t// in\n    tag_511:\n        /* \"--CODEGEN--\":23571:23643   */\n      tag_512\n        /* \"--CODEGEN--\":23639:23641   */\n      0x20\n        /* \"--CODEGEN--\":23628:23637   */\n      dup4\n        /* \"--CODEGEN--\":23624:23642   */\n      add\n        /* \"--CODEGEN--\":23615:23621   */\n      dup5\n        /* \"--CODEGEN--\":23571:23643   */\n      tag_451\n      jump\t// in\n    tag_512:\n        /* \"--CODEGEN--\":23446:23653   */\n      swap4\n      swap3\n      pop\n      pop\n      pop\n      jump\t// out\n        /* \"--CODEGEN--\":23660:24216   */\n    tag_242:\n      0x00\n        /* \"--CODEGEN--\":23871:23874   */\n      0x80\n        /* \"--CODEGEN--\":23860:23869   */\n      dup3\n        /* \"--CODEGEN--\":23856:23875   */\n      add\n        /* \"--CODEGEN--\":23848:23875   */\n      swap1\n      pop\n        /* \"--CODEGEN--\":23886:23957   */\n      tag_514\n        /* \"--CODEGEN--\":23954:23955   */\n      0x00\n        /* \"--CODEGEN--\":23943:23952   */\n      dup4\n        /* \"--CODEGEN--\":23939:23956   */\n      add\n        /* \"--CODEGEN--\":23930:23936   */\n      dup8\n        /* \"--CODEGEN--\":23886:23957   */\n      tag_451\n      jump\t// in\n    tag_514:\n        /* \"--CODEGEN--\":23968:24040   */\n      tag_515\n        /* \"--CODEGEN--\":24036:24038   */\n      0x20\n        /* \"--CODEGEN--\":24025:24034   */\n      dup4\n        /* \"--CODEGEN--\":24021:24039   */\n      add\n        /* \"--CODEGEN--\":24012:24018   */\n      dup7\n        /* \"--CODEGEN--\":23968:24040   */\n      tag_451\n      jump\t// in\n    tag_515:\n        /* \"--CODEGEN--\":24051:24123   */\n      tag_516\n        /* \"--CODEGEN--\":24119:24121   */\n      0x40\n        /* \"--CODEGEN--\":24108:24117   */\n      dup4\n        /* \"--CODEGEN--\":24104:24122   */\n      add\n        /* \"--CODEGEN--\":24095:24101   */\n      dup6\n        /* \"--CODEGEN--\":24051:24123   */\n      tag_389\n      jump\t// in\n    tag_516:\n        /* \"--CODEGEN--\":24134:24206   */\n      tag_517\n        /* \"--CODEGEN--\":24202:24204   */\n      0x60\n        /* \"--CODEGEN--\":24191:24200   */\n      dup4\n        /* \"--CODEGEN--\":24187:24205   */\n      add\n        /* \"--CODEGEN--\":24178:24184   */\n      dup5\n        /* \"--CODEGEN--\":24134:24206   */\n      tag_451\n      jump\t// in\n    tag_517:\n        /* \"--CODEGEN--\":23842:24216   */\n      swap6\n      swap5\n      pop\n      pop\n      pop\n      pop\n      pop\n      jump\t// out\n        /* \"--CODEGEN--\":24223:25039   */\n    tag_165:\n      0x00\n        /* \"--CODEGEN--\":24512:24515   */\n      0xa0\n        /* \"--CODEGEN--\":24501:24510   */\n      dup3\n        /* \"--CODEGEN--\":24497:24516   */\n      add\n        /* \"--CODEGEN--\":24489:24516   */\n      swap1\n      pop\n        /* \"--CODEGEN--\":24527:24598   */\n      tag_519\n        /* \"--CODEGEN--\":24595:24596   */\n      0x00\n        /* \"--CODEGEN--\":24584:24593   */\n      dup4\n        /* \"--CODEGEN--\":24580:24597   */\n      add\n        /* \"--CODEGEN--\":24571:24577   */\n      dup9\n        /* \"--CODEGEN--\":24527:24598   */\n      tag_451\n      jump\t// in\n    tag_519:\n        /* \"--CODEGEN--\":24609:24681   */\n      tag_520\n        /* \"--CODEGEN--\":24677:24679   */\n      0x20\n        /* \"--CODEGEN--\":24666:24675   */\n      dup4\n        /* \"--CODEGEN--\":24662:24680   */\n      add\n        /* \"--CODEGEN--\":24653:24659   */\n      dup8\n        /* \"--CODEGEN--\":24609:24681   */\n      tag_451\n      jump\t// in\n    tag_520:\n        /* \"--CODEGEN--\":24692:24764   */\n      tag_521\n        /* \"--CODEGEN--\":24760:24762   */\n      0x40\n        /* \"--CODEGEN--\":24749:24758   */\n      dup4\n        /* \"--CODEGEN--\":24745:24763   */\n      add\n        /* \"--CODEGEN--\":24736:24742   */\n      dup7\n        /* \"--CODEGEN--\":24692:24764   */\n      tag_451\n      jump\t// in\n    tag_521:\n        /* \"--CODEGEN--\":24812:24821   */\n      dup2\n        /* \"--CODEGEN--\":24806:24810   */\n      dup2\n        /* \"--CODEGEN--\":24802:24822   */\n      sub\n        /* \"--CODEGEN--\":24797:24799   */\n      0x60\n        /* \"--CODEGEN--\":24786:24795   */\n      dup4\n        /* \"--CODEGEN--\":24782:24800   */\n      add\n        /* \"--CODEGEN--\":24775:24823   */\n      mstore\n        /* \"--CODEGEN--\":24837:24945   */\n      tag_522\n        /* \"--CODEGEN--\":24940:24944   */\n      dup2\n        /* \"--CODEGEN--\":24931:24937   */\n      dup6\n        /* \"--CODEGEN--\":24837:24945   */\n      tag_375\n      jump\t// in\n    tag_522:\n        /* \"--CODEGEN--\":24829:24945   */\n      swap1\n      pop\n        /* \"--CODEGEN--\":24956:25029   */\n      tag_523\n        /* \"--CODEGEN--\":25024:25027   */\n      0x80\n        /* \"--CODEGEN--\":25013:25022   */\n      dup4\n        /* \"--CODEGEN--\":25009:25028   */\n      add\n        /* \"--CODEGEN--\":25000:25006   */\n      dup5\n        /* \"--CODEGEN--\":24956:25029   */\n      tag_451\n      jump\t// in\n    tag_523:\n        /* \"--CODEGEN--\":24483:25039   */\n      swap7\n      swap6\n      pop\n      pop\n      pop\n      pop\n      pop\n      pop\n      jump\t// out\n        /* \"--CODEGEN--\":25046:25302   */\n    tag_272:\n      0x00\n        /* \"--CODEGEN--\":25108:25110   */\n      0x40\n        /* \"--CODEGEN--\":25102:25111   */\n      mload\n        /* \"--CODEGEN--\":25092:25111   */\n      swap1\n      pop\n        /* \"--CODEGEN--\":25146:25150   */\n      dup2\n        /* \"--CODEGEN--\":25138:25144   */\n      dup2\n        /* \"--CODEGEN--\":25134:25151   */\n      add\n        /* \"--CODEGEN--\":25245:25251   */\n      dup2\n        /* \"--CODEGEN--\":25233:25243   */\n      dup2\n        /* \"--CODEGEN--\":25230:25252   */\n      lt\n        /* \"--CODEGEN--\":25209:25227   */\n      0xffffffffffffffff\n        /* \"--CODEGEN--\":25197:25207   */\n      dup3\n        /* \"--CODEGEN--\":25194:25228   */\n      gt\n        /* \"--CODEGEN--\":25191:25253   */\n      or\n        /* \"--CODEGEN--\":25188:25190   */\n      iszero\n      tag_525\n      jumpi\n        /* \"--CODEGEN--\":25266:25267   */\n      0x00\n        /* \"--CODEGEN--\":25263:25264   */\n      dup1\n        /* \"--CODEGEN--\":25256:25268   */\n      revert\n        /* \"--CODEGEN--\":25188:25190   */\n    tag_525:\n        /* \"--CODEGEN--\":25286:25296   */\n      dup1\n        /* \"--CODEGEN--\":25282:25284   */\n      0x40\n        /* \"--CODEGEN--\":25275:25297   */\n      mstore\n        /* \"--CODEGEN--\":25086:25302   */\n      pop\n      swap2\n      swap1\n      pop\n      jump\t// out\n        /* \"--CODEGEN--\":25309:25638   */\n    tag_271:\n      0x00\n        /* \"--CODEGEN--\":25493:25511   */\n      0xffffffffffffffff\n        /* \"--CODEGEN--\":25485:25491   */\n      dup3\n        /* \"--CODEGEN--\":25482:25512   */\n      gt\n        /* \"--CODEGEN--\":25479:25481   */\n      iszero\n      tag_527\n      jumpi\n        /* \"--CODEGEN--\":25525:25526   */\n      0x00\n        /* \"--CODEGEN--\":25522:25523   */\n      dup1\n        /* \"--CODEGEN--\":25515:25527   */\n      revert\n        /* \"--CODEGEN--\":25479:25481   */\n    tag_527:\n        /* \"--CODEGEN--\":25560:25564   */\n      0x20\n        /* \"--CODEGEN--\":25552:25558   */\n      dup3\n        /* \"--CODEGEN--\":25548:25565   */\n      mul\n        /* \"--CODEGEN--\":25540:25565   */\n      swap1\n      pop\n        /* \"--CODEGEN--\":25623:25627   */\n      0x20\n        /* \"--CODEGEN--\":25617:25621   */\n      dup2\n        /* \"--CODEGEN--\":25613:25628   */\n      add\n        /* \"--CODEGEN--\":25605:25628   */\n      swap1\n      pop\n        /* \"--CODEGEN--\":25416:25638   */\n      swap2\n      swap1\n      pop\n      jump\t// out\n        /* \"--CODEGEN--\":25645:25949   */\n    tag_282:\n      0x00\n        /* \"--CODEGEN--\":25804:25822   */\n      0xffffffffffffffff\n        /* \"--CODEGEN--\":25796:25802   */\n      dup3\n        /* \"--CODEGEN--\":25793:25823   */\n      gt\n        /* \"--CODEGEN--\":25790:25792   */\n      iszero\n      tag_529\n      jumpi\n        /* \"--CODEGEN--\":25836:25837   */\n      0x00\n        /* \"--CODEGEN--\":25833:25834   */\n      dup1\n        /* \"--CODEGEN--\":25826:25838   */\n      revert\n        /* \"--CODEGEN--\":25790:25792   */\n    tag_529:\n        /* \"--CODEGEN--\":25871:25875   */\n      0x20\n        /* \"--CODEGEN--\":25863:25869   */\n      dup3\n        /* \"--CODEGEN--\":25859:25876   */\n      mul\n        /* \"--CODEGEN--\":25851:25876   */\n      swap1\n      pop\n        /* \"--CODEGEN--\":25934:25938   */\n      0x20\n        /* \"--CODEGEN--\":25928:25932   */\n      dup2\n        /* \"--CODEGEN--\":25924:25939   */\n      add\n        /* \"--CODEGEN--\":25916:25939   */\n      swap1\n      pop\n        /* \"--CODEGEN--\":25727:25949   */\n      swap2\n      swap1\n      pop\n      jump\t// out\n        /* \"--CODEGEN--\":25956:26260   */\n    tag_294:\n      0x00\n        /* \"--CODEGEN--\":26115:26133   */\n      0xffffffffffffffff\n        /* \"--CODEGEN--\":26107:26113   */\n      dup3\n        /* \"--CODEGEN--\":26104:26134   */\n      gt\n        /* \"--CODEGEN--\":26101:26103   */\n      iszero\n      tag_531\n      jumpi\n        /* \"--CODEGEN--\":26147:26148   */\n      0x00\n        /* \"--CODEGEN--\":26144:26145   */\n      dup1\n        /* \"--CODEGEN--\":26137:26149   */\n      revert\n        /* \"--CODEGEN--\":26101:26103   */\n    tag_531:\n        /* \"--CODEGEN--\":26182:26186   */\n      0x20\n        /* \"--CODEGEN--\":26174:26180   */\n      dup3\n        /* \"--CODEGEN--\":26170:26187   */\n      mul\n        /* \"--CODEGEN--\":26162:26187   */\n      swap1\n      pop\n        /* \"--CODEGEN--\":26245:26249   */\n      0x20\n        /* \"--CODEGEN--\":26239:26243   */\n      dup2\n        /* \"--CODEGEN--\":26235:26250   */\n      add\n        /* \"--CODEGEN--\":26227:26250   */\n      swap1\n      pop\n        /* \"--CODEGEN--\":26038:26260   */\n      swap2\n      swap1\n      pop\n      jump\t// out\n        /* \"--CODEGEN--\":26267:26418   */\n    tag_382:\n      0x00\n        /* \"--CODEGEN--\":26353:26356   */\n      dup2\n        /* \"--CODEGEN--\":26345:26356   */\n      swap1\n      pop\n        /* \"--CODEGEN--\":26391:26395   */\n      0x20\n        /* \"--CODEGEN--\":26386:26389   */\n      dup3\n        /* \"--CODEGEN--\":26382:26396   */\n      add\n        /* \"--CODEGEN--\":26374:26396   */\n      swap1\n      pop\n        /* \"--CODEGEN--\":26339:26418   */\n      swap2\n      swap1\n      pop\n      jump\t// out\n        /* \"--CODEGEN--\":26425:26562   */\n    tag_378:\n      0x00\n        /* \"--CODEGEN--\":26534:26539   */\n      dup2\n        /* \"--CODEGEN--\":26528:26540   */\n      mload\n        /* \"--CODEGEN--\":26518:26540   */\n      swap1\n      pop\n        /* \"--CODEGEN--\":26499:26562   */\n      swap2\n      swap1\n      pop\n      jump\t// out\n        /* \"--CODEGEN--\":26569:26677   */\n    tag_388:\n      0x00\n        /* \"--CODEGEN--\":26667:26671   */\n      0x20\n        /* \"--CODEGEN--\":26662:26665   */\n      dup3\n        /* \"--CODEGEN--\":26658:26672   */\n      add\n        /* \"--CODEGEN--\":26650:26672   */\n      swap1\n      pop\n        /* \"--CODEGEN--\":26644:26677   */\n      swap2\n      swap1\n      pop\n      jump\t// out\n        /* \"--CODEGEN--\":26685:26863   */\n    tag_380:\n      0x00\n        /* \"--CODEGEN--\":26815:26821   */\n      dup3\n        /* \"--CODEGEN--\":26810:26813   */\n      dup3\n        /* \"--CODEGEN--\":26803:26822   */\n      mstore\n        /* \"--CODEGEN--\":26852:26856   */\n      0x20\n        /* \"--CODEGEN--\":26847:26850   */\n      dup3\n        /* \"--CODEGEN--\":26843:26857   */\n      add\n        /* \"--CODEGEN--\":26828:26857   */\n      swap1\n      pop\n        /* \"--CODEGEN--\":26796:26863   */\n      swap3\n      swap2\n      pop\n      pop\n      jump\t// out\n        /* \"--CODEGEN--\":26872:27035   */\n    tag_413:\n      0x00\n        /* \"--CODEGEN--\":26987:26993   */\n      dup3\n        /* \"--CODEGEN--\":26982:26985   */\n      dup3\n        /* \"--CODEGEN--\":26975:26994   */\n      mstore\n        /* \"--CODEGEN--\":27024:27028   */\n      0x20\n        /* \"--CODEGEN--\":27019:27022   */\n      dup3\n        /* \"--CODEGEN--\":27015:27029   */\n      add\n        /* \"--CODEGEN--\":27000:27029   */\n      swap1\n      pop\n        /* \"--CODEGEN--\":26968:27035   */\n      swap3\n      swap2\n      pop\n      pop\n      jump\t// out\n        /* \"--CODEGEN--\":27043:27134   */\n    tag_374:\n      0x00\n        /* \"--CODEGEN--\":27105:27129   */\n      tag_538\n        /* \"--CODEGEN--\":27123:27128   */\n      dup3\n        /* \"--CODEGEN--\":27105:27129   */\n      tag_539\n      jump\t// in\n    tag_538:\n        /* \"--CODEGEN--\":27094:27129   */\n      swap1\n      pop\n        /* \"--CODEGEN--\":27088:27134   */\n      swap2\n      swap1\n      pop\n      jump\t// out\n        /* \"--CODEGEN--\":27141:27213   */\n    tag_392:\n      0x00\n        /* \"--CODEGEN--\":27203:27208   */\n      dup2\n        /* \"--CODEGEN--\":27192:27208   */\n      swap1\n      pop\n        /* \"--CODEGEN--\":27186:27213   */\n      swap2\n      swap1\n      pop\n      jump\t// out\n        /* \"--CODEGEN--\":27220:27341   */\n    tag_539:\n      0x00\n        /* \"--CODEGEN--\":27293:27335   */\n      0xffffffffffffffffffffffffffffffffffffffff\n        /* \"--CODEGEN--\":27286:27291   */\n      dup3\n        /* \"--CODEGEN--\":27282:27336   */\n      and\n        /* \"--CODEGEN--\":27271:27336   */\n      swap1\n      pop\n        /* \"--CODEGEN--\":27265:27341   */\n      swap2\n      swap1\n      pop\n      jump\t// out\n        /* \"--CODEGEN--\":27348:27420   */\n    tag_450:\n      0x00\n        /* \"--CODEGEN--\":27410:27415   */\n      dup2\n        /* \"--CODEGEN--\":27399:27415   */\n      swap1\n      pop\n        /* \"--CODEGEN--\":27393:27420   */\n      swap2\n      swap1\n      pop\n      jump\t// out\n        /* \"--CODEGEN--\":27427:27508   */\n    tag_543:\n      0x00\n        /* \"--CODEGEN--\":27498:27502   */\n      0xff\n        /* \"--CODEGEN--\":27491:27496   */\n      dup3\n        /* \"--CODEGEN--\":27487:27503   */\n      and\n        /* \"--CODEGEN--\":27476:27503   */\n      swap1\n      pop\n        /* \"--CODEGEN--\":27470:27508   */\n      swap2\n      swap1\n      pop\n      jump\t// out\n        /* \"--CODEGEN--\":27515:27644   */\n    tag_370:\n      0x00\n        /* \"--CODEGEN--\":27602:27639   */\n      tag_546\n        /* \"--CODEGEN--\":27633:27638   */\n      dup3\n        /* \"--CODEGEN--\":27602:27639   */\n      tag_547\n      jump\t// in\n    tag_546:\n        /* \"--CODEGEN--\":27589:27639   */\n      swap1\n      pop\n        /* \"--CODEGEN--\":27583:27644   */\n      swap2\n      swap1\n      pop\n      jump\t// out\n        /* \"--CODEGEN--\":27651:27816   */\n    tag_401:\n      0x00\n        /* \"--CODEGEN--\":27752:27811   */\n      tag_549\n        /* \"--CODEGEN--\":27805:27810   */\n      dup3\n        /* \"--CODEGEN--\":27752:27811   */\n      tag_550\n      jump\t// in\n    tag_549:\n        /* \"--CODEGEN--\":27739:27811   */\n      swap1\n      pop\n        /* \"--CODEGEN--\":27733:27816   */\n      swap2\n      swap1\n      pop\n      jump\t// out\n        /* \"--CODEGEN--\":27823:27953   */\n    tag_550:\n      0x00\n        /* \"--CODEGEN--\":27924:27948   */\n      tag_552\n        /* \"--CODEGEN--\":27942:27947   */\n      dup3\n        /* \"--CODEGEN--\":27924:27948   */\n      tag_539\n      jump\t// in\n    tag_552:\n        /* \"--CODEGEN--\":27911:27948   */\n      swap1\n      pop\n        /* \"--CODEGEN--\":27905:27953   */\n      swap2\n      swap1\n      pop\n      jump\t// out\n        /* \"--CODEGEN--\":27960:28125   */\n    tag_405:\n      0x00\n        /* \"--CODEGEN--\":28061:28120   */\n      tag_554\n        /* \"--CODEGEN--\":28114:28119   */\n      dup3\n        /* \"--CODEGEN--\":28061:28120   */\n      tag_555\n      jump\t// in\n    tag_554:\n        /* \"--CODEGEN--\":28048:28120   */\n      swap1\n      pop\n        /* \"--CODEGEN--\":28042:28125   */\n      swap2\n      swap1\n      pop\n      jump\t// out\n        /* \"--CODEGEN--\":28132:28262   */\n    tag_555:\n      0x00\n        /* \"--CODEGEN--\":28233:28257   */\n      tag_557\n        /* \"--CODEGEN--\":28251:28256   */\n      dup3\n        /* \"--CODEGEN--\":28233:28257   */\n      tag_539\n      jump\t// in\n    tag_557:\n        /* \"--CODEGEN--\":28220:28257   */\n      swap1\n      pop\n        /* \"--CODEGEN--\":28214:28262   */\n      swap2\n      swap1\n      pop\n      jump\t// out\n        /* \"--CODEGEN--\":28269:28434   */\n    tag_409:\n      0x00\n        /* \"--CODEGEN--\":28370:28429   */\n      tag_559\n        /* \"--CODEGEN--\":28423:28428   */\n      dup3\n        /* \"--CODEGEN--\":28370:28429   */\n      tag_560\n      jump\t// in\n    tag_559:\n        /* \"--CODEGEN--\":28357:28429   */\n      swap1\n      pop\n        /* \"--CODEGEN--\":28351:28434   */\n      swap2\n      swap1\n      pop\n      jump\t// out\n        /* \"--CODEGEN--\":28441:28571   */\n    tag_560:\n      0x00\n        /* \"--CODEGEN--\":28542:28566   */\n      tag_562\n        /* \"--CODEGEN--\":28560:28565   */\n      dup3\n        /* \"--CODEGEN--\":28542:28566   */\n      tag_539\n      jump\t// in\n    tag_562:\n        /* \"--CODEGEN--\":28529:28566   */\n      swap1\n      pop\n        /* \"--CODEGEN--\":28523:28571   */\n      swap2\n      swap1\n      pop\n      jump\t// out\n        /* \"--CODEGEN--\":28578:28699   */\n    tag_547:\n      0x00\n        /* \"--CODEGEN--\":28657:28694   */\n      tag_564\n        /* \"--CODEGEN--\":28688:28693   */\n      dup3\n        /* \"--CODEGEN--\":28657:28694   */\n      tag_565\n      jump\t// in\n    tag_564:\n        /* \"--CODEGEN--\":28644:28694   */\n      swap1\n      pop\n        /* \"--CODEGEN--\":28638:28699   */\n      swap2\n      swap1\n      pop\n      jump\t// out\n        /* \"--CODEGEN--\":28706:28814   */\n    tag_565:\n      0x00\n        /* \"--CODEGEN--\":28785:28809   */\n      tag_567\n        /* \"--CODEGEN--\":28803:28808   */\n      dup3\n        /* \"--CODEGEN--\":28785:28809   */\n      tag_539\n      jump\t// in\n    tag_567:\n        /* \"--CODEGEN--\":28772:28809   */\n      swap1\n      pop\n        /* \"--CODEGEN--\":28766:28814   */\n      swap2\n      swap1\n      pop\n      jump\t// out\n        /* \"--CODEGEN--\":28821:28895   */\n    tag_397:\n      0x00\n        /* \"--CODEGEN--\":28885:28890   */\n      dup2\n        /* \"--CODEGEN--\":28874:28890   */\n      swap1\n      pop\n        /* \"--CODEGEN--\":28868:28895   */\n      swap2\n      swap1\n      pop\n      jump\t// out\n        /* \"--CODEGEN--\":28902:28976   */\n    tag_458:\n      0x00\n        /* \"--CODEGEN--\":28966:28971   */\n      dup2\n        /* \"--CODEGEN--\":28955:28971   */\n      swap1\n      pop\n        /* \"--CODEGEN--\":28949:28976   */\n      swap2\n      swap1\n      pop\n      jump\t// out\n        /* \"--CODEGEN--\":28983:29100   */\n    tag_262:\n        /* \"--CODEGEN--\":29052:29076   */\n      tag_571\n        /* \"--CODEGEN--\":29070:29075   */\n      dup2\n        /* \"--CODEGEN--\":29052:29076   */\n      tag_374\n      jump\t// in\n    tag_571:\n        /* \"--CODEGEN--\":29045:29050   */\n      dup2\n        /* \"--CODEGEN--\":29042:29077   */\n      eq\n        /* \"--CODEGEN--\":29032:29034   */\n      tag_572\n      jumpi\n        /* \"--CODEGEN--\":29091:29092   */\n      0x00\n        /* \"--CODEGEN--\":29088:29089   */\n      dup1\n        /* \"--CODEGEN--\":29081:29093   */\n      revert\n        /* \"--CODEGEN--\":29032:29034   */\n    tag_572:\n        /* \"--CODEGEN--\":29026:29100   */\n      pop\n      jump\t// out\n        /* \"--CODEGEN--\":29107:29224   */\n    tag_303:\n        /* \"--CODEGEN--\":29176:29200   */\n      tag_574\n        /* \"--CODEGEN--\":29194:29199   */\n      dup2\n        /* \"--CODEGEN--\":29176:29200   */\n      tag_392\n      jump\t// in\n    tag_574:\n        /* \"--CODEGEN--\":29169:29174   */\n      dup2\n        /* \"--CODEGEN--\":29166:29201   */\n      eq\n        /* \"--CODEGEN--\":29156:29158   */\n      tag_575\n      jumpi\n        /* \"--CODEGEN--\":29215:29216   */\n      0x00\n        /* \"--CODEGEN--\":29212:29213   */\n      dup1\n        /* \"--CODEGEN--\":29205:29217   */\n      revert\n        /* \"--CODEGEN--\":29156:29158   */\n    tag_575:\n        /* \"--CODEGEN--\":29150:29224   */\n      pop\n      jump\t// out\n        /* \"--CODEGEN--\":29231:29348   */\n    tag_319:\n        /* \"--CODEGEN--\":29300:29324   */\n      tag_577\n        /* \"--CODEGEN--\":29318:29323   */\n      dup2\n        /* \"--CODEGEN--\":29300:29324   */\n      tag_450\n      jump\t// in\n    tag_577:\n        /* \"--CODEGEN--\":29293:29298   */\n      dup2\n        /* \"--CODEGEN--\":29290:29325   */\n      eq\n        /* \"--CODEGEN--\":29280:29282   */\n      tag_578\n      jumpi\n        /* \"--CODEGEN--\":29339:29340   */\n      0x00\n        /* \"--CODEGEN--\":29336:29337   */\n      dup1\n        /* \"--CODEGEN--\":29329:29341   */\n      revert\n        /* \"--CODEGEN--\":29280:29282   */\n    tag_578:\n        /* \"--CODEGEN--\":29274:29348   */\n      pop\n      jump\t// out\n        /* \"--CODEGEN--\":29355:29468   */\n    tag_325:\n        /* \"--CODEGEN--\":29422:29444   */\n      tag_580\n        /* \"--CODEGEN--\":29438:29443   */\n      dup2\n        /* \"--CODEGEN--\":29422:29444   */\n      tag_543\n      jump\t// in\n    tag_580:\n        /* \"--CODEGEN--\":29415:29420   */\n      dup2\n        /* \"--CODEGEN--\":29412:29445   */\n      eq\n        /* \"--CODEGEN--\":29402:29404   */\n      tag_581\n      jumpi\n        /* \"--CODEGEN--\":29459:29460   */\n      0x00\n        /* \"--CODEGEN--\":29456:29457   */\n      dup1\n        /* \"--CODEGEN--\":29449:29461   */\n      revert\n        /* \"--CODEGEN--\":29402:29404   */\n    tag_581:\n        /* \"--CODEGEN--\":29396:29468   */\n      pop\n      jump\t// out\n\n    auxdata: 0xa264697066735822122017eef7a3c8c7d51736c382f343df67b7df6ae17dd3e55f9beab16dfb9c3e059b64736f6c634300060b0033\n}\n","bytecode":{"linkReferences":{"lib/Constants.sol":{"Constants":[{"length":20,"start":1841},{"length":20,"start":3233},{"length":20,"start":4769},{"length":20,"start":5855}]}},"object":"608060405234801561001057600080fd5b5061294e806100206000396000f3fe608060405234801561001057600080fd5b50600436106100f55760003560e01c80638ce7ff4a11610097578063d13e2e6011610066578063d13e2e60146102bf578063d9169b32146102ef578063f2f038771461030d578063f322bd7d14610329576100f5565b80638ce7ff4a146101ff5780638fd5ff001461022f5780639c66556f1461025f578063a6a145d91461028f576100f5565b80632e716fb1116100d35780632e716fb1146101635780637164f0d6146101815780637542ff95146101b15780638a757ecc146101cf576100f5565b8063125f68f1146100fa578063184b955914610116578063283e290514610132575b600080fd5b610114600480360381019061010f9190611d91565b610359565b005b610130600480360381019061012b9190611cb3565b610ea6565b005b61014c60048036038101906101479190611e86565b610f6e565b60405161015a9291906125fc565b60405180910390f35b61016b610fac565b6040516101789190612414565b60405180910390f35b61019b60048036038101906101969190611e4a565b610fd2565b6040516101a891906123c3565b60405180910390f35b6101b9611000565b6040516101c691906123f9565b60405180910390f35b6101e960048036038101906101e49190611e4a565b611026565b6040516101f691906125aa565b60405180910390f35b61021960048036038101906102149190611e86565b61104b565b604051610226919061258f565b60405180910390f35b61024960048036038101906102449190611e86565b6110b0565b60405161025691906125aa565b60405180910390f35b61027960048036038101906102749190611e86565b6110e2565b60405161028691906125aa565b60405180910390f35b6102a960048036038101906102a49190611e4a565b611123565b6040516102b691906125aa565b60405180910390f35b6102d960048036038101906102d49190611e4a565b611152565b6040516102e691906123c3565b60405180910390f35b6102f7611177565b60405161030491906123de565b60405180910390f35b61032760048036038101906103229190611d55565b61119d565b005b610343600480360381019061033e9190611e86565b61183e565b60405161035091906125aa565b60405180910390f35b85600560009054906101000a900473ffffffffffffffffffffffffffffffffffffffff1673ffffffffffffffffffffffffffffffffffffffff1663757991a86040518163ffffffff1660e01b815260040160206040518083038186803b1580156103c257600080fd5b505afa1580156103d6573d6000803e3d6000fd5b505050506040513d601f19601f820116820180604052508101906103fa9190611d2c565b811461043b576040517f08c379a00000000000000000000000000000000000000000000000000000000081526004016104329061250f565b60405180910390fd5b6000600460009054906101000a900473ffffffffffffffffffffffffffffffffffffffff1673ffffffffffffffffffffffffffffffffffffffff16636022a485846040518263ffffffff1660e01b8152600401610498919061238d565b60206040518083038186803b1580156104b057600080fd5b505afa1580156104c4573d6000803e3d6000fd5b505050506040513d601f19601f820116820180604052508101906104e89190611d2c565b90506000811161052d576040517f08c379a0000000000000000000000000000000000000000000000000000000008152600401610524906124ef565b60405180910390fd5b610535611980565b600460009054906101000a900473ffffffffffffffffffffffffffffffffffffffff1673ffffffffffffffffffffffffffffffffffffffff1663e3c998fe836040518263ffffffff1660e01b815260040161059091906125aa565b6101006040518083038186803b1580156105a957600080fd5b505afa1580156105bd573d6000803e3d6000fd5b505050506040513d601f19601f820116820180604052508101906105e19190611d02565b90506000801b6000808b8152602001908152602001600020600084815260200190815260200160002054141561064c576040517f08c379a00000000000000000000000000000000000000000000000000000000081526004016106439061252f565b60405180910390fd5b6000808a815260200190815260200160002060008381526020019081526020016000205489898760405160200161068593929190612350565b60405160208183030381529060405280519060200120146106db576040517f08c379a00000000000000000000000000000000000000000000000000000000081526004016106d29061242f565b60405180910390fd5b8373ffffffffffffffffffffffffffffffffffffffff163373ffffffffffffffffffffffffffffffffffffffff161415610c7f5773__$e861534859442f2de25279a5ccd1626413$__63a475b5dd6040518163ffffffff1660e01b815260040160206040518083038186803b15801561075357600080fd5b505af4158015610767573d6000803e3d6000fd5b505050506040513d601f19601f8201168201806040525081019061078b9190611ed5565b60ff16600560009054906101000a900473ffffffffffffffffffffffffffffffffffffffff1673ffffffffffffffffffffffffffffffffffffffff16631865c57d6040518163ffffffff1660e01b815260040160206040518083038186803b1580156107f657600080fd5b505afa15801561080a573d6000803e3d6000fd5b505050506040513d601f19601f8201168201806040525081019061082e9190611d2c565b1461086e576040517f08c379a00000000000000000000000000000000000000000000000000000000081526004016108659061248f565b60405180910390fd5b60008160400151116108b5576040517f08c379a00000000000000000000000000000000000000000000000000000000081526004016108ac9061244f565b60405180910390fd5b60008090505b8751811015610aed5761091b8782815181106108d357fe5b60200260200101518a8a84815181106108e857fe5b60200260200101516040516020016109009190612335565b6040516020818303038152906040528051906020012061187f565b61095a576040517f08c379a00000000000000000000000000000000000000000000000000000000081526004016109519061246f565b60405180910390fd5b604051806040016040528089838151811061097157fe5b602002602001015181526020018360400151815250600160008c8152602001908152602001600020600085815260200190815260200160002060008381526020019081526020016000206000820151816000015560208201518160010155905050610a318260400151600360008d8152602001908152602001600020600084815260200190815260200160002060008b8581518110610a0c57fe5b602002602001015181526020019081526020016000205461192b90919063ffffffff16565b600360008c8152602001908152602001600020600083815260200190815260200160002060008a8481518110610a6357fe5b6020026020010151815260200190815260200160002081905550610ab88260400151600260008d815260200190815260200160002060008481526020019081526020016000205461192b90919063ffffffff16565b600260008c815260200190815260200160002060008381526020019081526020016000208190555080806001019150506108bb565b50600460009054906101000a900473ffffffffffffffffffffffffffffffffffffffff1673ffffffffffffffffffffffffffffffffffffffff1663fabb9890838b6040518363ffffffff1660e01b8152600401610b4b9291906125fc565b600060405180830381600087803b158015610b6557600080fd5b505af1158015610b79573d6000803e3d6000fd5b505050506000801b6000808b8152602001908152602001600020600084815260200190815260200160002081905550600460009054906101000a900473ffffffffffffffffffffffffffffffffffffffff1673ffffffffffffffffffffffffffffffffffffffff16639864f70a838b6040518363ffffffff1660e01b8152600401610c059291906125fc565b600060405180830381600087803b158015610c1f57600080fd5b505af1158015610c33573d6000803e3d6000fd5b505050507f17f4759c403dfc3fa26ab75ce82d3d090a0bdbfe9977d8ee87445d6dd83c68a1898383604001518a42604051610c7295949392919061266a565b60405180910390a1610e9b565b73__$e861534859442f2de25279a5ccd1626413$__633c7a3aff6040518163ffffffff1660e01b815260040160206040518083038186803b158015610cc357600080fd5b505af4158015610cd7573d6000803e3d6000fd5b505050506040513d601f19601f82011682018060405250810190610cfb9190611ed5565b60ff16600560009054906101000a900473ffffffffffffffffffffffffffffffffffffffff1673ffffffffffffffffffffffffffffffffffffffff16631865c57d6040518163ffffffff1660e01b815260040160206040518083038186803b158015610d6657600080fd5b505afa158015610d7a573d6000803e3d6000fd5b505050506040513d601f19601f82011682018060405250810190610d9e9190611d2c565b14610dde576040517f08c379a0000000000000000000000000000000000000000000000000000000008152600401610dd5906124cf565b60405180910390fd5b6000801b6000808b8152602001908152602001600020600084815260200190815260200160002081905550600460009054906101000a900473ffffffffffffffffffffffffffffffffffffffff1673ffffffffffffffffffffffffffffffffffffffff16630f91ce1983338c6040518463ffffffff1660e01b8152600401610e68939291906125c5565b600060405180830381600087803b158015610e8257600080fd5b505af1158015610e96573d6000803e3d6000fd5b505050505b505050505050505050565b82600460006101000a81548173ffffffffffffffffffffffffffffffffffffffff021916908373ffffffffffffffffffffffffffffffffffffffff16021790555081600560006101000a81548173ffffffffffffffffffffffffffffffffffffffff021916908373ffffffffffffffffffffffffffffffffffffffff16021790555080600660006101000a81548173ffffffffffffffffffffffffffffffffffffffff021916908373ffffffffffffffffffffffffffffffffffffffff160217905550505050565b600160205282600052604060002060205281600052604060002060205280600052604060002060009250925050508060000154908060010154905082565b600560009054906101000a900473ffffffffffffffffffffffffffffffffffffffff1681565b6000806000848152602001908152602001600020600083815260200190815260200160002054905092915050565b600460009054906101000a900473ffffffffffffffffffffffffffffffffffffffff1681565b6002602052816000526040600020602052806000526040600020600091509150505481565b6110536119db565b60016000858152602001908152602001600020600084815260200190815260200160002060008381526020019081526020016000206040518060400160405290816000820154815260200160018201548152505090509392505050565b600360205282600052604060002060205281600052604060002060205280600052604060002060009250925050505481565b600060036000858152602001908152602001600020600084815260200190815260200160002060008381526020019081526020016000205490509392505050565b600060026000848152602001908152602001600020600083815260200190815260200160002054905092915050565b6000602052816000526040600020602052806000526040600020600091509150505481565b600660009054906101000a900473ffffffffffffffffffffffffffffffffffffffff1681565b81600560009054906101000a900473ffffffffffffffffffffffffffffffffffffffff1673ffffffffffffffffffffffffffffffffffffffff1663757991a86040518163ffffffff1660e01b815260040160206040518083038186803b15801561120657600080fd5b505afa15801561121a573d6000803e3d6000fd5b505050506040513d601f19601f8201168201806040525081019061123e9190611d2c565b811461127f576040517f08c379a00000000000000000000000000000000000000000000000000000000081526004016112769061250f565b60405180910390fd5b73__$e861534859442f2de25279a5ccd1626413$__633c7a3aff6040518163ffffffff1660e01b815260040160206040518083038186803b1580156112c357600080fd5b505af41580156112d7573d6000803e3d6000fd5b505050506040513d601f19601f820116820180604052508101906112fb9190611ed5565b60ff16600560009054906101000a900473ffffffffffffffffffffffffffffffffffffffff1673ffffffffffffffffffffffffffffffffffffffff16631865c57d6040518163ffffffff1660e01b815260040160206040518083038186803b15801561136657600080fd5b505afa15801561137a573d6000803e3d6000fd5b505050506040513d601f19601f8201168201806040525081019061139e9190611d2c565b81146113df576040517f08c379a00000000000000000000000000000000000000000000000000000000081526004016113d69061254f565b60405180910390fd5b6000600460009054906101000a900473ffffffffffffffffffffffffffffffffffffffff1673ffffffffffffffffffffffffffffffffffffffff16636022a485336040518263ffffffff1660e01b815260040161143c91906123a8565b60206040518083038186803b15801561145457600080fd5b505afa158015611468573d6000803e3d6000fd5b505050506040513d601f19601f8201168201806040525081019061148c9190611d2c565b90506000801b600080878152602001908152602001600020600083815260200190815260200160002054146114f6576040517f08c379a00000000000000000000000000000000000000000000000000000000081526004016114ed9061256f565b60405180910390fd5b6114fe611980565b600460009054906101000a900473ffffffffffffffffffffffffffffffffffffffff1673ffffffffffffffffffffffffffffffffffffffff1663e3c998fe836040518263ffffffff1660e01b815260040161155991906125aa565b6101006040518083038186803b15801561157257600080fd5b505afa158015611586573d6000803e3d6000fd5b505050506040513d601f19601f820116820180604052508101906115aa9190611d02565b9050600660009054906101000a900473ffffffffffffffffffffffffffffffffffffffff1673ffffffffffffffffffffffffffffffffffffffff16639b87f6446040518163ffffffff1660e01b8152600401600060405180830381600087803b15801561161657600080fd5b505af115801561162a573d6000803e3d6000fd5b50505050600460009054906101000a900473ffffffffffffffffffffffffffffffffffffffff1673ffffffffffffffffffffffffffffffffffffffff166354eae15e83886040518363ffffffff1660e01b815260040161168b9291906125fc565b600060405180830381600087803b1580156116a557600080fd5b505af11580156116b9573d6000803e3d6000fd5b5050505073__$e861534859442f2de25279a5ccd1626413$__63375b3c0a6040518163ffffffff1660e01b815260040160206040518083038186803b15801561170157600080fd5b505af4158015611715573d6000803e3d6000fd5b505050506040513d601f19601f820116820180604052508101906117399190611d2c565b8160400151106118365784600080888152602001908152602001600020600084815260200190815260200160002081905550600460009054906101000a900473ffffffffffffffffffffffffffffffffffffffff1673ffffffffffffffffffffffffffffffffffffffff1663188dc83b836040518263ffffffff1660e01b81526004016117c691906125aa565b600060405180830381600087803b1580156117e057600080fd5b505af11580156117f4573d6000803e3d6000fd5b505050507f6ad04b07dbe80ee3971460ebc13808fb6dd0fa67fbf7d7ebc4de85811d2c99288683874260405161182d9493929190612625565b60405180910390a15b505050505050565b600060036000858152602001908152602001600020600084815260200190815260200160002060008381526020019081526020016000205490509392505050565b60008082905060008090505b855181101561191d5760008682815181106118a257fe5b602002602001015190508083116118e35782816040516020016118c6929190612309565b60405160208183030381529060405280519060200120925061190f565b80836040516020016118f6929190612309565b6040516020818303038152906040528051906020012092505b50808060010191505061188b565b508381149150509392505050565b600080828401905083811015611976576040517f08c379a000000000000000000000000000000000000000000000000000000000815260040161196d906124af565b60405180910390fd5b8091505092915050565b60405180610100016040528060008152602001600073ffffffffffffffffffffffffffffffffffffffff1681526020016000815260200160008152602001600081526020016000815260200160008152602001600081525090565b604051806040016040528060008152602001600081525090565b600081359050611a04816128bc565b92915050565b600081519050611a19816128bc565b92915050565b600082601f830112611a3057600080fd5b8135611a43611a3e826126f1565b6126c4565b9150818183526020840193506020810190508360005b83811015611a895781358601611a6f8882611a93565b845260208401935060208301925050600181019050611a59565b5050505092915050565b600082601f830112611aa457600080fd5b8135611ab7611ab282612719565b6126c4565b91508181835260208401935060208101905083856020840282011115611adc57600080fd5b60005b83811015611b0c5781611af28882611b99565b845260208401935060208301925050600181019050611adf565b5050505092915050565b600082601f830112611b2757600080fd5b8135611b3a611b3582612741565b6126c4565b91508181835260208401935060208101905083856020840282011115611b5f57600080fd5b60005b83811015611b8f5781611b758882611c74565b845260208401935060208301925050600181019050611b62565b5050505092915050565b600081359050611ba8816128d3565b92915050565b60006101008284031215611bc157600080fd5b611bcc6101006126c4565b90506000611bdc84828501611c89565b6000830152506020611bf084828501611a0a565b6020830152506040611c0484828501611c89565b6040830152506060611c1884828501611c89565b6060830152506080611c2c84828501611c89565b60808301525060a0611c4084828501611c89565b60a08301525060c0611c5484828501611c89565b60c08301525060e0611c6884828501611c89565b60e08301525092915050565b600081359050611c83816128ea565b92915050565b600081519050611c98816128ea565b92915050565b600081519050611cad81612901565b92915050565b600080600060608486031215611cc857600080fd5b6000611cd6868287016119f5565b9350506020611ce7868287016119f5565b9250506040611cf8868287016119f5565b9150509250925092565b60006101008284031215611d1557600080fd5b6000611d2384828501611bae565b91505092915050565b600060208284031215611d3e57600080fd5b6000611d4c84828501611c89565b91505092915050565b60008060408385031215611d6857600080fd5b6000611d7685828601611c74565b9250506020611d8785828601611b99565b9150509250929050565b60008060008060008060c08789031215611daa57600080fd5b6000611db889828a01611c74565b9650506020611dc989828a01611b99565b955050604087013567ffffffffffffffff811115611de657600080fd5b611df289828a01611b16565b945050606087013567ffffffffffffffff811115611e0f57600080fd5b611e1b89828a01611a1f565b9350506080611e2c89828a01611b99565b92505060a0611e3d89828a016119f5565b9150509295509295509295565b60008060408385031215611e5d57600080fd5b6000611e6b85828601611c74565b9250506020611e7c85828601611c74565b9150509250929050565b600080600060608486031215611e9b57600080fd5b6000611ea986828701611c74565b9350506020611eba86828701611c74565b9250506040611ecb86828701611c74565b9150509250925092565b600060208284031215611ee757600080fd5b6000611ef584828501611c9e565b91505092915050565b6000611f0a83836122d4565b60208301905092915050565b611f1f81612806565b82525050565b611f2e816127b3565b82525050565b6000611f3f82612779565b611f498185612791565b9350611f5483612769565b8060005b83811015611f85578151611f6c8882611efe565b9750611f7783612784565b925050600181019050611f58565b5085935050505092915050565b611f9b816127c5565b82525050565b611fb2611fad826127c5565b6128a8565b82525050565b611fc181612818565b82525050565b611fd08161283c565b82525050565b611fdf81612860565b82525050565b6000611ff26016836127a2565b91507f696e636f7272656374207365637265742f76616c7565000000000000000000006000830152602082019050919050565b60006120326011836127a2565b91507f6e6f6e706f736974697665207374616b650000000000000000000000000000006000830152602082019050919050565b60006120726014836127a2565b91507f696e76616c6964206d65726b6c652070726f6f660000000000000000000000006000830152602082019050919050565b60006120b26010836127a2565b91507f4e6f742072657665616c207374617465000000000000000000000000000000006000830152602082019050919050565b60006120f2601b836127a2565b91507f536166654d6174683a206164646974696f6e206f766572666c6f7700000000006000830152602082019050919050565b60006121326010836127a2565b91507f4e6f7420636f6d6d6974207374617465000000000000000000000000000000006000830152602082019050919050565b6000612172601d836127a2565b91507f537472756374732e5374616b657220646f6573206e6f742065786973740000006000830152602082019050919050565b60006121b2600f836127a2565b91507f696e636f72726563742065706f636800000000000000000000000000000000006000830152602082019050919050565b60006121f26020836127a2565b91507f6e6f7420636f6d6d69746564206f7220616c72656164792072657665616c65646000830152602082019050919050565b6000612232600f836127a2565b91507f696e636f727265637420737461746500000000000000000000000000000000006000830152602082019050919050565b60006122726010836127a2565b91507f616c726561647920636f6d6d69746564000000000000000000000000000000006000830152602082019050919050565b6040820160008201516122bb60008501826122d4565b5060208201516122ce60208501826122d4565b50505050565b6122dd816127ef565b82525050565b6122ec816127ef565b82525050565b6123036122fe826127ef565b6128b2565b82525050565b60006123158285611fa1565b6020820191506123258284611fa1565b6020820191508190509392505050565b600061234182846122f2565b60208201915081905092915050565b600061235c82866122f2565b60208201915061236c8285611fa1565b60208201915061237c8284611fa1565b602082019150819050949350505050565b60006020820190506123a26000830184611f25565b92915050565b60006020820190506123bd6000830184611f16565b92915050565b60006020820190506123d86000830184611f92565b92915050565b60006020820190506123f36000830184611fb8565b92915050565b600060208201905061240e6000830184611fc7565b92915050565b60006020820190506124296000830184611fd6565b92915050565b6000602082019050818103600083015261244881611fe5565b9050919050565b6000602082019050818103600083015261246881612025565b9050919050565b6000602082019050818103600083015261248881612065565b9050919050565b600060208201905081810360008301526124a8816120a5565b9050919050565b600060208201905081810360008301526124c8816120e5565b9050919050565b600060208201905081810360008301526124e881612125565b9050919050565b6000602082019050818103600083015261250881612165565b9050919050565b60006020820190508181036000830152612528816121a5565b9050919050565b60006020820190508181036000830152612548816121e5565b9050919050565b6000602082019050818103600083015261256881612225565b9050919050565b6000602082019050818103600083015261258881612265565b9050919050565b60006040820190506125a460008301846122a5565b92915050565b60006020820190506125bf60008301846122e3565b92915050565b60006060820190506125da60008301866122e3565b6125e76020830185611f16565b6125f460408301846122e3565b949350505050565b600060408201905061261160008301856122e3565b61261e60208301846122e3565b9392505050565b600060808201905061263a60008301876122e3565b61264760208301866122e3565b6126546040830185611f92565b61266160608301846122e3565b95945050505050565b600060a08201905061267f60008301886122e3565b61268c60208301876122e3565b61269960408301866122e3565b81810360608301526126ab8185611f34565b90506126ba60808301846122e3565b9695505050505050565b6000604051905081810181811067ffffffffffffffff821117156126e757600080fd5b8060405250919050565b600067ffffffffffffffff82111561270857600080fd5b602082029050602081019050919050565b600067ffffffffffffffff82111561273057600080fd5b602082029050602081019050919050565b600067ffffffffffffffff82111561275857600080fd5b602082029050602081019050919050565b6000819050602082019050919050565b600081519050919050565b6000602082019050919050565b600082825260208201905092915050565b600082825260208201905092915050565b60006127be826127cf565b9050919050565b6000819050919050565b600073ffffffffffffffffffffffffffffffffffffffff82169050919050565b6000819050919050565b600060ff82169050919050565b600061281182612884565b9050919050565b60006128238261282a565b9050919050565b6000612835826127cf565b9050919050565b60006128478261284e565b9050919050565b6000612859826127cf565b9050919050565b600061286b82612872565b9050919050565b600061287d826127cf565b9050919050565b600061288f82612896565b9050919050565b60006128a1826127cf565b9050919050565b6000819050919050565b6000819050919050565b6128c5816127b3565b81146128d057600080fd5b50565b6128dc816127c5565b81146128e757600080fd5b50565b6128f3816127ef565b81146128fe57600080fd5b50565b61290a816127f9565b811461291557600080fd5b5056fea264697066735822122017eef7a3c8c7d51736c382f343df67b7df6ae17dd3e55f9beab16dfb9c3e059b64736f6c634300060b0033","opcodes":"PUSH1 0x80 PUSH1 0x40 MSTORE CALLVALUE DUP1 ISZERO PUSH2 0x10 JUMPI PUSH1 0x0 DUP1 REVERT JUMPDEST POP PUSH2 0x294E DUP1 PUSH2 0x20 PUSH1 0x0 CODECOPY PUSH1 0x0 RETURN INVALID PUSH1 0x80 PUSH1 0x40 MSTORE CALLVALUE DUP1 ISZERO PUSH2 0x10 JUMPI PUSH1 0x0 DUP1 REVERT JUMPDEST POP PUSH1 0x4 CALLDATASIZE LT PUSH2 0xF5 JUMPI PUSH1 0x0 CALLDATALOAD PUSH1 0xE0 SHR DUP1 PUSH4 0x8CE7FF4A GT PUSH2 0x97 JUMPI DUP1 PUSH4 0xD13E2E60 GT PUSH2 0x66 JUMPI DUP1 PUSH4 0xD13E2E60 EQ PUSH2 0x2BF JUMPI DUP1 PUSH4 0xD9169B32 EQ PUSH2 0x2EF JUMPI DUP1 PUSH4 0xF2F03877 EQ PUSH2 0x30D JUMPI DUP1 PUSH4 0xF322BD7D EQ PUSH2 0x329 JUMPI PUSH2 0xF5 JUMP JUMPDEST DUP1 PUSH4 0x8CE7FF4A EQ PUSH2 0x1FF JUMPI DUP1 PUSH4 0x8FD5FF00 EQ PUSH2 0x22F JUMPI DUP1 PUSH4 0x9C66556F EQ PUSH2 0x25F JUMPI DUP1 PUSH4 0xA6A145D9 EQ PUSH2 0x28F JUMPI PUSH2 0xF5 JUMP JUMPDEST DUP1 PUSH4 0x2E716FB1 GT PUSH2 0xD3 JUMPI DUP1 PUSH4 0x2E716FB1 EQ PUSH2 0x163 JUMPI DUP1 PUSH4 0x7164F0D6 EQ PUSH2 0x181 JUMPI DUP1 PUSH4 0x7542FF95 EQ PUSH2 0x1B1 JUMPI DUP1 PUSH4 0x8A757ECC EQ PUSH2 0x1CF JUMPI PUSH2 0xF5 JUMP JUMPDEST DUP1 PUSH4 0x125F68F1 EQ PUSH2 0xFA JUMPI DUP1 PUSH4 0x184B9559 EQ PUSH2 0x116 JUMPI DUP1 PUSH4 0x283E2905 EQ PUSH2 0x132 JUMPI JUMPDEST PUSH1 0x0 DUP1 REVERT JUMPDEST PUSH2 0x114 PUSH1 0x4 DUP1 CALLDATASIZE SUB DUP2 ADD SWAP1 PUSH2 0x10F SWAP2 SWAP1 PUSH2 0x1D91 JUMP JUMPDEST PUSH2 0x359 JUMP JUMPDEST STOP JUMPDEST PUSH2 0x130 PUSH1 0x4 DUP1 CALLDATASIZE SUB DUP2 ADD SWAP1 PUSH2 0x12B SWAP2 SWAP1 PUSH2 0x1CB3 JUMP JUMPDEST PUSH2 0xEA6 JUMP JUMPDEST STOP JUMPDEST PUSH2 0x14C PUSH1 0x4 DUP1 CALLDATASIZE SUB DUP2 ADD SWAP1 PUSH2 0x147 SWAP2 SWAP1 PUSH2 0x1E86 JUMP JUMPDEST PUSH2 0xF6E JUMP JUMPDEST PUSH1 0x40 MLOAD PUSH2 0x15A SWAP3 SWAP2 SWAP1 PUSH2 0x25FC JUMP JUMPDEST PUSH1 0x40 MLOAD DUP1 SWAP2 SUB SWAP1 RETURN JUMPDEST PUSH2 0x16B PUSH2 0xFAC JUMP JUMPDEST PUSH1 0x40 MLOAD PUSH2 0x178 SWAP2 SWAP1 PUSH2 0x2414 JUMP JUMPDEST PUSH1 0x40 MLOAD DUP1 SWAP2 SUB SWAP1 RETURN JUMPDEST PUSH2 0x19B PUSH1 0x4 DUP1 CALLDATASIZE SUB DUP2 ADD SWAP1 PUSH2 0x196 SWAP2 SWAP1 PUSH2 0x1E4A JUMP JUMPDEST PUSH2 0xFD2 JUMP JUMPDEST PUSH1 0x40 MLOAD PUSH2 0x1A8 SWAP2 SWAP1 PUSH2 0x23C3 JUMP JUMPDEST PUSH1 0x40 MLOAD DUP1 SWAP2 SUB SWAP1 RETURN JUMPDEST PUSH2 0x1B9 PUSH2 0x1000 JUMP JUMPDEST PUSH1 0x40 MLOAD PUSH2 0x1C6 SWAP2 SWAP1 PUSH2 0x23F9 JUMP JUMPDEST PUSH1 0x40 MLOAD DUP1 SWAP2 SUB SWAP1 RETURN JUMPDEST PUSH2 0x1E9 PUSH1 0x4 DUP1 CALLDATASIZE SUB DUP2 ADD SWAP1 PUSH2 0x1E4 SWAP2 SWAP1 PUSH2 0x1E4A JUMP JUMPDEST PUSH2 0x1026 JUMP JUMPDEST PUSH1 0x40 MLOAD PUSH2 0x1F6 SWAP2 SWAP1 PUSH2 0x25AA JUMP JUMPDEST PUSH1 0x40 MLOAD DUP1 SWAP2 SUB SWAP1 RETURN JUMPDEST PUSH2 0x219 PUSH1 0x4 DUP1 CALLDATASIZE SUB DUP2 ADD SWAP1 PUSH2 0x214 SWAP2 SWAP1 PUSH2 0x1E86 JUMP JUMPDEST PUSH2 0x104B JUMP JUMPDEST PUSH1 0x40 MLOAD PUSH2 0x226 SWAP2 SWAP1 PUSH2 0x258F JUMP JUMPDEST PUSH1 0x40 MLOAD DUP1 SWAP2 SUB SWAP1 RETURN JUMPDEST PUSH2 0x249 PUSH1 0x4 DUP1 CALLDATASIZE SUB DUP2 ADD SWAP1 PUSH2 0x244 SWAP2 SWAP1 PUSH2 0x1E86 JUMP JUMPDEST PUSH2 0x10B0 JUMP JUMPDEST PUSH1 0x40 MLOAD PUSH2 0x256 SWAP2 SWAP1 PUSH2 0x25AA JUMP JUMPDEST PUSH1 0x40 MLOAD DUP1 SWAP2 SUB SWAP1 RETURN JUMPDEST PUSH2 0x279 PUSH1 0x4 DUP1 CALLDATASIZE SUB DUP2 ADD SWAP1 PUSH2 0x274 SWAP2 SWAP1 PUSH2 0x1E86 JUMP JUMPDEST PUSH2 0x10E2 JUMP JUMPDEST PUSH1 0x40 MLOAD PUSH2 0x286 SWAP2 SWAP1 PUSH2 0x25AA JUMP JUMPDEST PUSH1 0x40 MLOAD DUP1 SWAP2 SUB SWAP1 RETURN JUMPDEST PUSH2 0x2A9 PUSH1 0x4 DUP1 CALLDATASIZE SUB DUP2 ADD SWAP1 PUSH2 0x2A4 SWAP2 SWAP1 PUSH2 0x1E4A JUMP JUMPDEST PUSH2 0x1123 JUMP JUMPDEST PUSH1 0x40 MLOAD PUSH2 0x2B6 SWAP2 SWAP1 PUSH2 0x25AA JUMP JUMPDEST PUSH1 0x40 MLOAD DUP1 SWAP2 SUB SWAP1 RETURN JUMPDEST PUSH2 0x2D9 PUSH1 0x4 DUP1 CALLDATASIZE SUB DUP2 ADD SWAP1 PUSH2 0x2D4 SWAP2 SWAP1 PUSH2 0x1E4A JUMP JUMPDEST PUSH2 0x1152 JUMP JUMPDEST PUSH1 0x40 MLOAD PUSH2 0x2E6 SWAP2 SWAP1 PUSH2 0x23C3 JUMP JUMPDEST PUSH1 0x40 MLOAD DUP1 SWAP2 SUB SWAP1 RETURN JUMPDEST PUSH2 0x2F7 PUSH2 0x1177 JUMP JUMPDEST PUSH1 0x40 MLOAD PUSH2 0x304 SWAP2 SWAP1 PUSH2 0x23DE JUMP JUMPDEST PUSH1 0x40 MLOAD DUP1 SWAP2 SUB SWAP1 RETURN JUMPDEST PUSH2 0x327 PUSH1 0x4 DUP1 CALLDATASIZE SUB DUP2 ADD SWAP1 PUSH2 0x322 SWAP2 SWAP1 PUSH2 0x1D55 JUMP JUMPDEST PUSH2 0x119D JUMP JUMPDEST STOP JUMPDEST PUSH2 0x343 PUSH1 0x4 DUP1 CALLDATASIZE SUB DUP2 ADD SWAP1 PUSH2 0x33E SWAP2 SWAP1 PUSH2 0x1E86 JUMP JUMPDEST PUSH2 0x183E JUMP JUMPDEST PUSH1 0x40 MLOAD PUSH2 0x350 SWAP2 SWAP1 PUSH2 0x25AA JUMP JUMPDEST PUSH1 0x40 MLOAD DUP1 SWAP2 SUB SWAP1 RETURN JUMPDEST DUP6 PUSH1 0x5 PUSH1 0x0 SWAP1 SLOAD SWAP1 PUSH2 0x100 EXP SWAP1 DIV PUSH20 0xFFFFFFFFFFFFFFFFFFFFFFFFFFFFFFFFFFFFFFFF AND PUSH20 0xFFFFFFFFFFFFFFFFFFFFFFFFFFFFFFFFFFFFFFFF AND PUSH4 0x757991A8 PUSH1 0x40 MLOAD DUP2 PUSH4 0xFFFFFFFF AND PUSH1 0xE0 SHL DUP2 MSTORE PUSH1 0x4 ADD PUSH1 0x20 PUSH1 0x40 MLOAD DUP1 DUP4 SUB DUP2 DUP7 DUP1 EXTCODESIZE ISZERO DUP1 ISZERO PUSH2 0x3C2 JUMPI PUSH1 0x0 DUP1 REVERT JUMPDEST POP GAS STATICCALL ISZERO DUP1 ISZERO PUSH2 0x3D6 JUMPI RETURNDATASIZE PUSH1 0x0 DUP1 RETURNDATACOPY RETURNDATASIZE PUSH1 0x0 REVERT JUMPDEST POP POP POP POP PUSH1 0x40 MLOAD RETURNDATASIZE PUSH1 0x1F NOT PUSH1 0x1F DUP3 ADD AND DUP3 ADD DUP1 PUSH1 0x40 MSTORE POP DUP2 ADD SWAP1 PUSH2 0x3FA SWAP2 SWAP1 PUSH2 0x1D2C JUMP JUMPDEST DUP2 EQ PUSH2 0x43B JUMPI PUSH1 0x40 MLOAD PUSH32 0x8C379A000000000000000000000000000000000000000000000000000000000 DUP2 MSTORE PUSH1 0x4 ADD PUSH2 0x432 SWAP1 PUSH2 0x250F JUMP JUMPDEST PUSH1 0x40 MLOAD DUP1 SWAP2 SUB SWAP1 REVERT JUMPDEST PUSH1 0x0 PUSH1 0x4 PUSH1 0x0 SWAP1 SLOAD SWAP1 PUSH2 0x100 EXP SWAP1 DIV PUSH20 0xFFFFFFFFFFFFFFFFFFFFFFFFFFFFFFFFFFFFFFFF AND PUSH20 0xFFFFFFFFFFFFFFFFFFFFFFFFFFFFFFFFFFFFFFFF AND PUSH4 0x6022A485 DUP5 PUSH1 0x40 MLOAD DUP3 PUSH4 0xFFFFFFFF AND PUSH1 0xE0 SHL DUP2 MSTORE PUSH1 0x4 ADD PUSH2 0x498 SWAP2 SWAP1 PUSH2 0x238D JUMP JUMPDEST PUSH1 0x20 PUSH1 0x40 MLOAD DUP1 DUP4 SUB DUP2 DUP7 DUP1 EXTCODESIZE ISZERO DUP1 ISZERO PUSH2 0x4B0 JUMPI PUSH1 0x0 DUP1 REVERT JUMPDEST POP GAS STATICCALL ISZERO DUP1 ISZERO PUSH2 0x4C4 JUMPI RETURNDATASIZE PUSH1 0x0 DUP1 RETURNDATACOPY RETURNDATASIZE PUSH1 0x0 REVERT JUMPDEST POP POP POP POP PUSH1 0x40 MLOAD RETURNDATASIZE PUSH1 0x1F NOT PUSH1 0x1F DUP3 ADD AND DUP3 ADD DUP1 PUSH1 0x40 MSTORE POP DUP2 ADD SWAP1 PUSH2 0x4E8 SWAP2 SWAP1 PUSH2 0x1D2C JUMP JUMPDEST SWAP1 POP PUSH1 0x0 DUP2 GT PUSH2 0x52D JUMPI PUSH1 0x40 MLOAD PUSH32 0x8C379A000000000000000000000000000000000000000000000000000000000 DUP2 MSTORE PUSH1 0x4 ADD PUSH2 0x524 SWAP1 PUSH2 0x24EF JUMP JUMPDEST PUSH1 0x40 MLOAD DUP1 SWAP2 SUB SWAP1 REVERT JUMPDEST PUSH2 0x535 PUSH2 0x1980 JUMP JUMPDEST PUSH1 0x4 PUSH1 0x0 SWAP1 SLOAD SWAP1 PUSH2 0x100 EXP SWAP1 DIV PUSH20 0xFFFFFFFFFFFFFFFFFFFFFFFFFFFFFFFFFFFFFFFF AND PUSH20 0xFFFFFFFFFFFFFFFFFFFFFFFFFFFFFFFFFFFFFFFF AND PUSH4 0xE3C998FE DUP4 PUSH1 0x40 MLOAD DUP3 PUSH4 0xFFFFFFFF AND PUSH1 0xE0 SHL DUP2 MSTORE PUSH1 0x4 ADD PUSH2 0x590 SWAP2 SWAP1 PUSH2 0x25AA JUMP JUMPDEST PUSH2 0x100 PUSH1 0x40 MLOAD DUP1 DUP4 SUB DUP2 DUP7 DUP1 EXTCODESIZE ISZERO DUP1 ISZERO PUSH2 0x5A9 JUMPI PUSH1 0x0 DUP1 REVERT JUMPDEST POP GAS STATICCALL ISZERO DUP1 ISZERO PUSH2 0x5BD JUMPI RETURNDATASIZE PUSH1 0x0 DUP1 RETURNDATACOPY RETURNDATASIZE PUSH1 0x0 REVERT JUMPDEST POP POP POP POP PUSH1 0x40 MLOAD RETURNDATASIZE PUSH1 0x1F NOT PUSH1 0x1F DUP3 ADD AND DUP3 ADD DUP1 PUSH1 0x40 MSTORE POP DUP2 ADD SWAP1 PUSH2 0x5E1 SWAP2 SWAP1 PUSH2 0x1D02 JUMP JUMPDEST SWAP1 POP PUSH1 0x0 DUP1 SHL PUSH1 0x0 DUP1 DUP12 DUP2 MSTORE PUSH1 0x20 ADD SWAP1 DUP2 MSTORE PUSH1 0x20 ADD PUSH1 0x0 KECCAK256 PUSH1 0x0 DUP5 DUP2 MSTORE PUSH1 0x20 ADD SWAP1 DUP2 MSTORE PUSH1 0x20 ADD PUSH1 0x0 KECCAK256 SLOAD EQ ISZERO PUSH2 0x64C JUMPI PUSH1 0x40 MLOAD PUSH32 0x8C379A000000000000000000000000000000000000000000000000000000000 DUP2 MSTORE PUSH1 0x4 ADD PUSH2 0x643 SWAP1 PUSH2 0x252F JUMP JUMPDEST PUSH1 0x40 MLOAD DUP1 SWAP2 SUB SWAP1 REVERT JUMPDEST PUSH1 0x0 DUP1 DUP11 DUP2 MSTORE PUSH1 0x20 ADD SWAP1 DUP2 MSTORE PUSH1 0x20 ADD PUSH1 0x0 KECCAK256 PUSH1 0x0 DUP4 DUP2 MSTORE PUSH1 0x20 ADD SWAP1 DUP2 MSTORE PUSH1 0x20 ADD PUSH1 0x0 KECCAK256 SLOAD DUP10 DUP10 DUP8 PUSH1 0x40 MLOAD PUSH1 0x20 ADD PUSH2 0x685 SWAP4 SWAP3 SWAP2 SWAP1 PUSH2 0x2350 JUMP JUMPDEST PUSH1 0x40 MLOAD PUSH1 0x20 DUP2 DUP4 SUB SUB DUP2 MSTORE SWAP1 PUSH1 0x40 MSTORE DUP1 MLOAD SWAP1 PUSH1 0x20 ADD KECCAK256 EQ PUSH2 0x6DB JUMPI PUSH1 0x40 MLOAD PUSH32 0x8C379A000000000000000000000000000000000000000000000000000000000 DUP2 MSTORE PUSH1 0x4 ADD PUSH2 0x6D2 SWAP1 PUSH2 0x242F JUMP JUMPDEST PUSH1 0x40 MLOAD DUP1 SWAP2 SUB SWAP1 REVERT JUMPDEST DUP4 PUSH20 0xFFFFFFFFFFFFFFFFFFFFFFFFFFFFFFFFFFFFFFFF AND CALLER PUSH20 0xFFFFFFFFFFFFFFFFFFFFFFFFFFFFFFFFFFFFFFFF AND EQ ISZERO PUSH2 0xC7F JUMPI PUSH20 0x0 PUSH4 0xA475B5DD PUSH1 0x40 MLOAD DUP2 PUSH4 0xFFFFFFFF AND PUSH1 0xE0 SHL DUP2 MSTORE PUSH1 0x4 ADD PUSH1 0x20 PUSH1 0x40 MLOAD DUP1 DUP4 SUB DUP2 DUP7 DUP1 EXTCODESIZE ISZERO DUP1 ISZERO PUSH2 0x753 JUMPI PUSH1 0x0 DUP1 REVERT JUMPDEST POP GAS DELEGATECALL ISZERO DUP1 ISZERO PUSH2 0x767 JUMPI RETURNDATASIZE PUSH1 0x0 DUP1 RETURNDATACOPY RETURNDATASIZE PUSH1 0x0 REVERT JUMPDEST POP POP POP POP PUSH1 0x40 MLOAD RETURNDATASIZE PUSH1 0x1F NOT PUSH1 0x1F DUP3 ADD AND DUP3 ADD DUP1 PUSH1 0x40 MSTORE POP DUP2 ADD SWAP1 PUSH2 0x78B SWAP2 SWAP1 PUSH2 0x1ED5 JUMP JUMPDEST PUSH1 0xFF AND PUSH1 0x5 PUSH1 0x0 SWAP1 SLOAD SWAP1 PUSH2 0x100 EXP SWAP1 DIV PUSH20 0xFFFFFFFFFFFFFFFFFFFFFFFFFFFFFFFFFFFFFFFF AND PUSH20 0xFFFFFFFFFFFFFFFFFFFFFFFFFFFFFFFFFFFFFFFF AND PUSH4 0x1865C57D PUSH1 0x40 MLOAD DUP2 PUSH4 0xFFFFFFFF AND PUSH1 0xE0 SHL DUP2 MSTORE PUSH1 0x4 ADD PUSH1 0x20 PUSH1 0x40 MLOAD DUP1 DUP4 SUB DUP2 DUP7 DUP1 EXTCODESIZE ISZERO DUP1 ISZERO PUSH2 0x7F6 JUMPI PUSH1 0x0 DUP1 REVERT JUMPDEST POP GAS STATICCALL ISZERO DUP1 ISZERO PUSH2 0x80A JUMPI RETURNDATASIZE PUSH1 0x0 DUP1 RETURNDATACOPY RETURNDATASIZE PUSH1 0x0 REVERT JUMPDEST POP POP POP POP PUSH1 0x40 MLOAD RETURNDATASIZE PUSH1 0x1F NOT PUSH1 0x1F DUP3 ADD AND DUP3 ADD DUP1 PUSH1 0x40 MSTORE POP DUP2 ADD SWAP1 PUSH2 0x82E SWAP2 SWAP1 PUSH2 0x1D2C JUMP JUMPDEST EQ PUSH2 0x86E JUMPI PUSH1 0x40 MLOAD PUSH32 0x8C379A000000000000000000000000000000000000000000000000000000000 DUP2 MSTORE PUSH1 0x4 ADD PUSH2 0x865 SWAP1 PUSH2 0x248F JUMP JUMPDEST PUSH1 0x40 MLOAD DUP1 SWAP2 SUB SWAP1 REVERT JUMPDEST PUSH1 0x0 DUP2 PUSH1 0x40 ADD MLOAD GT PUSH2 0x8B5 JUMPI PUSH1 0x40 MLOAD PUSH32 0x8C379A000000000000000000000000000000000000000000000000000000000 DUP2 MSTORE PUSH1 0x4 ADD PUSH2 0x8AC SWAP1 PUSH2 0x244F JUMP JUMPDEST PUSH1 0x40 MLOAD DUP1 SWAP2 SUB SWAP1 REVERT JUMPDEST PUSH1 0x0 DUP1 SWAP1 POP JUMPDEST DUP8 MLOAD DUP2 LT ISZERO PUSH2 0xAED JUMPI PUSH2 0x91B DUP8 DUP3 DUP2 MLOAD DUP2 LT PUSH2 0x8D3 JUMPI INVALID JUMPDEST PUSH1 0x20 MUL PUSH1 0x20 ADD ADD MLOAD DUP11 DUP11 DUP5 DUP2 MLOAD DUP2 LT PUSH2 0x8E8 JUMPI INVALID JUMPDEST PUSH1 0x20 MUL PUSH1 0x20 ADD ADD MLOAD PUSH1 0x40 MLOAD PUSH1 0x20 ADD PUSH2 0x900 SWAP2 SWAP1 PUSH2 0x2335 JUMP JUMPDEST PUSH1 0x40 MLOAD PUSH1 0x20 DUP2 DUP4 SUB SUB DUP2 MSTORE SWAP1 PUSH1 0x40 MSTORE DUP1 MLOAD SWAP1 PUSH1 0x20 ADD KECCAK256 PUSH2 0x187F JUMP JUMPDEST PUSH2 0x95A JUMPI PUSH1 0x40 MLOAD PUSH32 0x8C379A000000000000000000000000000000000000000000000000000000000 DUP2 MSTORE PUSH1 0x4 ADD PUSH2 0x951 SWAP1 PUSH2 0x246F JUMP JUMPDEST PUSH1 0x40 MLOAD DUP1 SWAP2 SUB SWAP1 REVERT JUMPDEST PUSH1 0x40 MLOAD DUP1 PUSH1 0x40 ADD PUSH1 0x40 MSTORE DUP1 DUP10 DUP4 DUP2 MLOAD DUP2 LT PUSH2 0x971 JUMPI INVALID JUMPDEST PUSH1 0x20 MUL PUSH1 0x20 ADD ADD MLOAD DUP2 MSTORE PUSH1 0x20 ADD DUP4 PUSH1 0x40 ADD MLOAD DUP2 MSTORE POP PUSH1 0x1 PUSH1 0x0 DUP13 DUP2 MSTORE PUSH1 0x20 ADD SWAP1 DUP2 MSTORE PUSH1 0x20 ADD PUSH1 0x0 KECCAK256 PUSH1 0x0 DUP6 DUP2 MSTORE PUSH1 0x20 ADD SWAP1 DUP2 MSTORE PUSH1 0x20 ADD PUSH1 0x0 KECCAK256 PUSH1 0x0 DUP4 DUP2 MSTORE PUSH1 0x20 ADD SWAP1 DUP2 MSTORE PUSH1 0x20 ADD PUSH1 0x0 KECCAK256 PUSH1 0x0 DUP3 ADD MLOAD DUP2 PUSH1 0x0 ADD SSTORE PUSH1 0x20 DUP3 ADD MLOAD DUP2 PUSH1 0x1 ADD SSTORE SWAP1 POP POP PUSH2 0xA31 DUP3 PUSH1 0x40 ADD MLOAD PUSH1 0x3 PUSH1 0x0 DUP14 DUP2 MSTORE PUSH1 0x20 ADD SWAP1 DUP2 MSTORE PUSH1 0x20 ADD PUSH1 0x0 KECCAK256 PUSH1 0x0 DUP5 DUP2 MSTORE PUSH1 0x20 ADD SWAP1 DUP2 MSTORE PUSH1 0x20 ADD PUSH1 0x0 KECCAK256 PUSH1 0x0 DUP12 DUP6 DUP2 MLOAD DUP2 LT PUSH2 0xA0C JUMPI INVALID JUMPDEST PUSH1 0x20 MUL PUSH1 0x20 ADD ADD MLOAD DUP2 MSTORE PUSH1 0x20 ADD SWAP1 DUP2 MSTORE PUSH1 0x20 ADD PUSH1 0x0 KECCAK256 SLOAD PUSH2 0x192B SWAP1 SWAP2 SWAP1 PUSH4 0xFFFFFFFF AND JUMP JUMPDEST PUSH1 0x3 PUSH1 0x0 DUP13 DUP2 MSTORE PUSH1 0x20 ADD SWAP1 DUP2 MSTORE PUSH1 0x20 ADD PUSH1 0x0 KECCAK256 PUSH1 0x0 DUP4 DUP2 MSTORE PUSH1 0x20 ADD SWAP1 DUP2 MSTORE PUSH1 0x20 ADD PUSH1 0x0 KECCAK256 PUSH1 0x0 DUP11 DUP5 DUP2 MLOAD DUP2 LT PUSH2 0xA63 JUMPI INVALID JUMPDEST PUSH1 0x20 MUL PUSH1 0x20 ADD ADD MLOAD DUP2 MSTORE PUSH1 0x20 ADD SWAP1 DUP2 MSTORE PUSH1 0x20 ADD PUSH1 0x0 KECCAK256 DUP2 SWAP1 SSTORE POP PUSH2 0xAB8 DUP3 PUSH1 0x40 ADD MLOAD PUSH1 0x2 PUSH1 0x0 DUP14 DUP2 MSTORE PUSH1 0x20 ADD SWAP1 DUP2 MSTORE PUSH1 0x20 ADD PUSH1 0x0 KECCAK256 PUSH1 0x0 DUP5 DUP2 MSTORE PUSH1 0x20 ADD SWAP1 DUP2 MSTORE PUSH1 0x20 ADD PUSH1 0x0 KECCAK256 SLOAD PUSH2 0x192B SWAP1 SWAP2 SWAP1 PUSH4 0xFFFFFFFF AND JUMP JUMPDEST PUSH1 0x2 PUSH1 0x0 DUP13 DUP2 MSTORE PUSH1 0x20 ADD SWAP1 DUP2 MSTORE PUSH1 0x20 ADD PUSH1 0x0 KECCAK256 PUSH1 0x0 DUP4 DUP2 MSTORE PUSH1 0x20 ADD SWAP1 DUP2 MSTORE PUSH1 0x20 ADD PUSH1 0x0 KECCAK256 DUP2 SWAP1 SSTORE POP DUP1 DUP1 PUSH1 0x1 ADD SWAP2 POP POP PUSH2 0x8BB JUMP JUMPDEST POP PUSH1 0x4 PUSH1 0x0 SWAP1 SLOAD SWAP1 PUSH2 0x100 EXP SWAP1 DIV PUSH20 0xFFFFFFFFFFFFFFFFFFFFFFFFFFFFFFFFFFFFFFFF AND PUSH20 0xFFFFFFFFFFFFFFFFFFFFFFFFFFFFFFFFFFFFFFFF AND PUSH4 0xFABB9890 DUP4 DUP12 PUSH1 0x40 MLOAD DUP4 PUSH4 0xFFFFFFFF AND PUSH1 0xE0 SHL DUP2 MSTORE PUSH1 0x4 ADD PUSH2 0xB4B SWAP3 SWAP2 SWAP1 PUSH2 0x25FC JUMP JUMPDEST PUSH1 0x0 PUSH1 0x40 MLOAD DUP1 DUP4 SUB DUP2 PUSH1 0x0 DUP8 DUP1 EXTCODESIZE ISZERO DUP1 ISZERO PUSH2 0xB65 JUMPI PUSH1 0x0 DUP1 REVERT JUMPDEST POP GAS CALL ISZERO DUP1 ISZERO PUSH2 0xB79 JUMPI RETURNDATASIZE PUSH1 0x0 DUP1 RETURNDATACOPY RETURNDATASIZE PUSH1 0x0 REVERT JUMPDEST POP POP POP POP PUSH1 0x0 DUP1 SHL PUSH1 0x0 DUP1 DUP12 DUP2 MSTORE PUSH1 0x20 ADD SWAP1 DUP2 MSTORE PUSH1 0x20 ADD PUSH1 0x0 KECCAK256 PUSH1 0x0 DUP5 DUP2 MSTORE PUSH1 0x20 ADD SWAP1 DUP2 MSTORE PUSH1 0x20 ADD PUSH1 0x0 KECCAK256 DUP2 SWAP1 SSTORE POP PUSH1 0x4 PUSH1 0x0 SWAP1 SLOAD SWAP1 PUSH2 0x100 EXP SWAP1 DIV PUSH20 0xFFFFFFFFFFFFFFFFFFFFFFFFFFFFFFFFFFFFFFFF AND PUSH20 0xFFFFFFFFFFFFFFFFFFFFFFFFFFFFFFFFFFFFFFFF AND PUSH4 0x9864F70A DUP4 DUP12 PUSH1 0x40 MLOAD DUP4 PUSH4 0xFFFFFFFF AND PUSH1 0xE0 SHL DUP2 MSTORE PUSH1 0x4 ADD PUSH2 0xC05 SWAP3 SWAP2 SWAP1 PUSH2 0x25FC JUMP JUMPDEST PUSH1 0x0 PUSH1 0x40 MLOAD DUP1 DUP4 SUB DUP2 PUSH1 0x0 DUP8 DUP1 EXTCODESIZE ISZERO DUP1 ISZERO PUSH2 0xC1F JUMPI PUSH1 0x0 DUP1 REVERT JUMPDEST POP GAS CALL ISZERO DUP1 ISZERO PUSH2 0xC33 JUMPI RETURNDATASIZE PUSH1 0x0 DUP1 RETURNDATACOPY RETURNDATASIZE PUSH1 0x0 REVERT JUMPDEST POP POP POP POP PUSH32 0x17F4759C403DFC3FA26AB75CE82D3D090A0BDBFE9977D8EE87445D6DD83C68A1 DUP10 DUP4 DUP4 PUSH1 0x40 ADD MLOAD DUP11 TIMESTAMP PUSH1 0x40 MLOAD PUSH2 0xC72 SWAP6 SWAP5 SWAP4 SWAP3 SWAP2 SWAP1 PUSH2 0x266A JUMP JUMPDEST PUSH1 0x40 MLOAD DUP1 SWAP2 SUB SWAP1 LOG1 PUSH2 0xE9B JUMP JUMPDEST PUSH20 0x0 PUSH4 0x3C7A3AFF PUSH1 0x40 MLOAD DUP2 PUSH4 0xFFFFFFFF AND PUSH1 0xE0 SHL DUP2 MSTORE PUSH1 0x4 ADD PUSH1 0x20 PUSH1 0x40 MLOAD DUP1 DUP4 SUB DUP2 DUP7 DUP1 EXTCODESIZE ISZERO DUP1 ISZERO PUSH2 0xCC3 JUMPI PUSH1 0x0 DUP1 REVERT JUMPDEST POP GAS DELEGATECALL ISZERO DUP1 ISZERO PUSH2 0xCD7 JUMPI RETURNDATASIZE PUSH1 0x0 DUP1 RETURNDATACOPY RETURNDATASIZE PUSH1 0x0 REVERT JUMPDEST POP POP POP POP PUSH1 0x40 MLOAD RETURNDATASIZE PUSH1 0x1F NOT PUSH1 0x1F DUP3 ADD AND DUP3 ADD DUP1 PUSH1 0x40 MSTORE POP DUP2 ADD SWAP1 PUSH2 0xCFB SWAP2 SWAP1 PUSH2 0x1ED5 JUMP JUMPDEST PUSH1 0xFF AND PUSH1 0x5 PUSH1 0x0 SWAP1 SLOAD SWAP1 PUSH2 0x100 EXP SWAP1 DIV PUSH20 0xFFFFFFFFFFFFFFFFFFFFFFFFFFFFFFFFFFFFFFFF AND PUSH20 0xFFFFFFFFFFFFFFFFFFFFFFFFFFFFFFFFFFFFFFFF AND PUSH4 0x1865C57D PUSH1 0x40 MLOAD DUP2 PUSH4 0xFFFFFFFF AND PUSH1 0xE0 SHL DUP2 MSTORE PUSH1 0x4 ADD PUSH1 0x20 PUSH1 0x40 MLOAD DUP1 DUP4 SUB DUP2 DUP7 DUP1 EXTCODESIZE ISZERO DUP1 ISZERO PUSH2 0xD66 JUMPI PUSH1 0x0 DUP1 REVERT JUMPDEST POP GAS STATICCALL ISZERO DUP1 ISZERO PUSH2 0xD7A JUMPI RETURNDATASIZE PUSH1 0x0 DUP1 RETURNDATACOPY RETURNDATASIZE PUSH1 0x0 REVERT JUMPDEST POP POP POP POP PUSH1 0x40 MLOAD RETURNDATASIZE PUSH1 0x1F NOT PUSH1 0x1F DUP3 ADD AND DUP3 ADD DUP1 PUSH1 0x40 MSTORE POP DUP2 ADD SWAP1 PUSH2 0xD9E SWAP2 SWAP1 PUSH2 0x1D2C JUMP JUMPDEST EQ PUSH2 0xDDE JUMPI PUSH1 0x40 MLOAD PUSH32 0x8C379A000000000000000000000000000000000000000000000000000000000 DUP2 MSTORE PUSH1 0x4 ADD PUSH2 0xDD5 SWAP1 PUSH2 0x24CF JUMP JUMPDEST PUSH1 0x40 MLOAD DUP1 SWAP2 SUB SWAP1 REVERT JUMPDEST PUSH1 0x0 DUP1 SHL PUSH1 0x0 DUP1 DUP12 DUP2 MSTORE PUSH1 0x20 ADD SWAP1 DUP2 MSTORE PUSH1 0x20 ADD PUSH1 0x0 KECCAK256 PUSH1 0x0 DUP5 DUP2 MSTORE PUSH1 0x20 ADD SWAP1 DUP2 MSTORE PUSH1 0x20 ADD PUSH1 0x0 KECCAK256 DUP2 SWAP1 SSTORE POP PUSH1 0x4 PUSH1 0x0 SWAP1 SLOAD SWAP1 PUSH2 0x100 EXP SWAP1 DIV PUSH20 0xFFFFFFFFFFFFFFFFFFFFFFFFFFFFFFFFFFFFFFFF AND PUSH20 0xFFFFFFFFFFFFFFFFFFFFFFFFFFFFFFFFFFFFFFFF AND PUSH4 0xF91CE19 DUP4 CALLER DUP13 PUSH1 0x40 MLOAD DUP5 PUSH4 0xFFFFFFFF AND PUSH1 0xE0 SHL DUP2 MSTORE PUSH1 0x4 ADD PUSH2 0xE68 SWAP4 SWAP3 SWAP2 SWAP1 PUSH2 0x25C5 JUMP JUMPDEST PUSH1 0x0 PUSH1 0x40 MLOAD DUP1 DUP4 SUB DUP2 PUSH1 0x0 DUP8 DUP1 EXTCODESIZE ISZERO DUP1 ISZERO PUSH2 0xE82 JUMPI PUSH1 0x0 DUP1 REVERT JUMPDEST POP GAS CALL ISZERO DUP1 ISZERO PUSH2 0xE96 JUMPI RETURNDATASIZE PUSH1 0x0 DUP1 RETURNDATACOPY RETURNDATASIZE PUSH1 0x0 REVERT JUMPDEST POP POP POP POP JUMPDEST POP POP POP POP POP POP POP POP POP JUMP JUMPDEST DUP3 PUSH1 0x4 PUSH1 0x0 PUSH2 0x100 EXP DUP2 SLOAD DUP2 PUSH20 0xFFFFFFFFFFFFFFFFFFFFFFFFFFFFFFFFFFFFFFFF MUL NOT AND SWAP1 DUP4 PUSH20 0xFFFFFFFFFFFFFFFFFFFFFFFFFFFFFFFFFFFFFFFF AND MUL OR SWAP1 SSTORE POP DUP2 PUSH1 0x5 PUSH1 0x0 PUSH2 0x100 EXP DUP2 SLOAD DUP2 PUSH20 0xFFFFFFFFFFFFFFFFFFFFFFFFFFFFFFFFFFFFFFFF MUL NOT AND SWAP1 DUP4 PUSH20 0xFFFFFFFFFFFFFFFFFFFFFFFFFFFFFFFFFFFFFFFF AND MUL OR SWAP1 SSTORE POP DUP1 PUSH1 0x6 PUSH1 0x0 PUSH2 0x100 EXP DUP2 SLOAD DUP2 PUSH20 0xFFFFFFFFFFFFFFFFFFFFFFFFFFFFFFFFFFFFFFFF MUL NOT AND SWAP1 DUP4 PUSH20 0xFFFFFFFFFFFFFFFFFFFFFFFFFFFFFFFFFFFFFFFF AND MUL OR SWAP1 SSTORE POP POP POP POP JUMP JUMPDEST PUSH1 0x1 PUSH1 0x20 MSTORE DUP3 PUSH1 0x0 MSTORE PUSH1 0x40 PUSH1 0x0 KECCAK256 PUSH1 0x20 MSTORE DUP2 PUSH1 0x0 MSTORE PUSH1 0x40 PUSH1 0x0 KECCAK256 PUSH1 0x20 MSTORE DUP1 PUSH1 0x0 MSTORE PUSH1 0x40 PUSH1 0x0 KECCAK256 PUSH1 0x0 SWAP3 POP SWAP3 POP POP POP DUP1 PUSH1 0x0 ADD SLOAD SWAP1 DUP1 PUSH1 0x1 ADD SLOAD SWAP1 POP DUP3 JUMP JUMPDEST PUSH1 0x5 PUSH1 0x0 SWAP1 SLOAD SWAP1 PUSH2 0x100 EXP SWAP1 DIV PUSH20 0xFFFFFFFFFFFFFFFFFFFFFFFFFFFFFFFFFFFFFFFF AND DUP2 JUMP JUMPDEST PUSH1 0x0 DUP1 PUSH1 0x0 DUP5 DUP2 MSTORE PUSH1 0x20 ADD SWAP1 DUP2 MSTORE PUSH1 0x20 ADD PUSH1 0x0 KECCAK256 PUSH1 0x0 DUP4 DUP2 MSTORE PUSH1 0x20 ADD SWAP1 DUP2 MSTORE PUSH1 0x20 ADD PUSH1 0x0 KECCAK256 SLOAD SWAP1 POP SWAP3 SWAP2 POP POP JUMP JUMPDEST PUSH1 0x4 PUSH1 0x0 SWAP1 SLOAD SWAP1 PUSH2 0x100 EXP SWAP1 DIV PUSH20 0xFFFFFFFFFFFFFFFFFFFFFFFFFFFFFFFFFFFFFFFF AND DUP2 JUMP JUMPDEST PUSH1 0x2 PUSH1 0x20 MSTORE DUP2 PUSH1 0x0 MSTORE PUSH1 0x40 PUSH1 0x0 KECCAK256 PUSH1 0x20 MSTORE DUP1 PUSH1 0x0 MSTORE PUSH1 0x40 PUSH1 0x0 KECCAK256 PUSH1 0x0 SWAP2 POP SWAP2 POP POP SLOAD DUP2 JUMP JUMPDEST PUSH2 0x1053 PUSH2 0x19DB JUMP JUMPDEST PUSH1 0x1 PUSH1 0x0 DUP6 DUP2 MSTORE PUSH1 0x20 ADD SWAP1 DUP2 MSTORE PUSH1 0x20 ADD PUSH1 0x0 KECCAK256 PUSH1 0x0 DUP5 DUP2 MSTORE PUSH1 0x20 ADD SWAP1 DUP2 MSTORE PUSH1 0x20 ADD PUSH1 0x0 KECCAK256 PUSH1 0x0 DUP4 DUP2 MSTORE PUSH1 0x20 ADD SWAP1 DUP2 MSTORE PUSH1 0x20 ADD PUSH1 0x0 KECCAK256 PUSH1 0x40 MLOAD DUP1 PUSH1 0x40 ADD PUSH1 0x40 MSTORE SWAP1 DUP2 PUSH1 0x0 DUP3 ADD SLOAD DUP2 MSTORE PUSH1 0x20 ADD PUSH1 0x1 DUP3 ADD SLOAD DUP2 MSTORE POP POP SWAP1 POP SWAP4 SWAP3 POP POP POP JUMP JUMPDEST PUSH1 0x3 PUSH1 0x20 MSTORE DUP3 PUSH1 0x0 MSTORE PUSH1 0x40 PUSH1 0x0 KECCAK256 PUSH1 0x20 MSTORE DUP2 PUSH1 0x0 MSTORE PUSH1 0x40 PUSH1 0x0 KECCAK256 PUSH1 0x20 MSTORE DUP1 PUSH1 0x0 MSTORE PUSH1 0x40 PUSH1 0x0 KECCAK256 PUSH1 0x0 SWAP3 POP SWAP3 POP POP POP SLOAD DUP2 JUMP JUMPDEST PUSH1 0x0 PUSH1 0x3 PUSH1 0x0 DUP6 DUP2 MSTORE PUSH1 0x20 ADD SWAP1 DUP2 MSTORE PUSH1 0x20 ADD PUSH1 0x0 KECCAK256 PUSH1 0x0 DUP5 DUP2 MSTORE PUSH1 0x20 ADD SWAP1 DUP2 MSTORE PUSH1 0x20 ADD PUSH1 0x0 KECCAK256 PUSH1 0x0 DUP4 DUP2 MSTORE PUSH1 0x20 ADD SWAP1 DUP2 MSTORE PUSH1 0x20 ADD PUSH1 0x0 KECCAK256 SLOAD SWAP1 POP SWAP4 SWAP3 POP POP POP JUMP JUMPDEST PUSH1 0x0 PUSH1 0x2 PUSH1 0x0 DUP5 DUP2 MSTORE PUSH1 0x20 ADD SWAP1 DUP2 MSTORE PUSH1 0x20 ADD PUSH1 0x0 KECCAK256 PUSH1 0x0 DUP4 DUP2 MSTORE PUSH1 0x20 ADD SWAP1 DUP2 MSTORE PUSH1 0x20 ADD PUSH1 0x0 KECCAK256 SLOAD SWAP1 POP SWAP3 SWAP2 POP POP JUMP JUMPDEST PUSH1 0x0 PUSH1 0x20 MSTORE DUP2 PUSH1 0x0 MSTORE PUSH1 0x40 PUSH1 0x0 KECCAK256 PUSH1 0x20 MSTORE DUP1 PUSH1 0x0 MSTORE PUSH1 0x40 PUSH1 0x0 KECCAK256 PUSH1 0x0 SWAP2 POP SWAP2 POP POP SLOAD DUP2 JUMP JUMPDEST PUSH1 0x6 PUSH1 0x0 SWAP1 SLOAD SWAP1 PUSH2 0x100 EXP SWAP1 DIV PUSH20 0xFFFFFFFFFFFFFFFFFFFFFFFFFFFFFFFFFFFFFFFF AND DUP2 JUMP JUMPDEST DUP2 PUSH1 0x5 PUSH1 0x0 SWAP1 SLOAD SWAP1 PUSH2 0x100 EXP SWAP1 DIV PUSH20 0xFFFFFFFFFFFFFFFFFFFFFFFFFFFFFFFFFFFFFFFF AND PUSH20 0xFFFFFFFFFFFFFFFFFFFFFFFFFFFFFFFFFFFFFFFF AND PUSH4 0x757991A8 PUSH1 0x40 MLOAD DUP2 PUSH4 0xFFFFFFFF AND PUSH1 0xE0 SHL DUP2 MSTORE PUSH1 0x4 ADD PUSH1 0x20 PUSH1 0x40 MLOAD DUP1 DUP4 SUB DUP2 DUP7 DUP1 EXTCODESIZE ISZERO DUP1 ISZERO PUSH2 0x1206 JUMPI PUSH1 0x0 DUP1 REVERT JUMPDEST POP GAS STATICCALL ISZERO DUP1 ISZERO PUSH2 0x121A JUMPI RETURNDATASIZE PUSH1 0x0 DUP1 RETURNDATACOPY RETURNDATASIZE PUSH1 0x0 REVERT JUMPDEST POP POP POP POP PUSH1 0x40 MLOAD RETURNDATASIZE PUSH1 0x1F NOT PUSH1 0x1F DUP3 ADD AND DUP3 ADD DUP1 PUSH1 0x40 MSTORE POP DUP2 ADD SWAP1 PUSH2 0x123E SWAP2 SWAP1 PUSH2 0x1D2C JUMP JUMPDEST DUP2 EQ PUSH2 0x127F JUMPI PUSH1 0x40 MLOAD PUSH32 0x8C379A000000000000000000000000000000000000000000000000000000000 DUP2 MSTORE PUSH1 0x4 ADD PUSH2 0x1276 SWAP1 PUSH2 0x250F JUMP JUMPDEST PUSH1 0x40 MLOAD DUP1 SWAP2 SUB SWAP1 REVERT JUMPDEST PUSH20 0x0 PUSH4 0x3C7A3AFF PUSH1 0x40 MLOAD DUP2 PUSH4 0xFFFFFFFF AND PUSH1 0xE0 SHL DUP2 MSTORE PUSH1 0x4 ADD PUSH1 0x20 PUSH1 0x40 MLOAD DUP1 DUP4 SUB DUP2 DUP7 DUP1 EXTCODESIZE ISZERO DUP1 ISZERO PUSH2 0x12C3 JUMPI PUSH1 0x0 DUP1 REVERT JUMPDEST POP GAS DELEGATECALL ISZERO DUP1 ISZERO PUSH2 0x12D7 JUMPI RETURNDATASIZE PUSH1 0x0 DUP1 RETURNDATACOPY RETURNDATASIZE PUSH1 0x0 REVERT JUMPDEST POP POP POP POP PUSH1 0x40 MLOAD RETURNDATASIZE PUSH1 0x1F NOT PUSH1 0x1F DUP3 ADD AND DUP3 ADD DUP1 PUSH1 0x40 MSTORE POP DUP2 ADD SWAP1 PUSH2 0x12FB SWAP2 SWAP1 PUSH2 0x1ED5 JUMP JUMPDEST PUSH1 0xFF AND PUSH1 0x5 PUSH1 0x0 SWAP1 SLOAD SWAP1 PUSH2 0x100 EXP SWAP1 DIV PUSH20 0xFFFFFFFFFFFFFFFFFFFFFFFFFFFFFFFFFFFFFFFF AND PUSH20 0xFFFFFFFFFFFFFFFFFFFFFFFFFFFFFFFFFFFFFFFF AND PUSH4 0x1865C57D PUSH1 0x40 MLOAD DUP2 PUSH4 0xFFFFFFFF AND PUSH1 0xE0 SHL DUP2 MSTORE PUSH1 0x4 ADD PUSH1 0x20 PUSH1 0x40 MLOAD DUP1 DUP4 SUB DUP2 DUP7 DUP1 EXTCODESIZE ISZERO DUP1 ISZERO PUSH2 0x1366 JUMPI PUSH1 0x0 DUP1 REVERT JUMPDEST POP GAS STATICCALL ISZERO DUP1 ISZERO PUSH2 0x137A JUMPI RETURNDATASIZE PUSH1 0x0 DUP1 RETURNDATACOPY RETURNDATASIZE PUSH1 0x0 REVERT JUMPDEST POP POP POP POP PUSH1 0x40 MLOAD RETURNDATASIZE PUSH1 0x1F NOT PUSH1 0x1F DUP3 ADD AND DUP3 ADD DUP1 PUSH1 0x40 MSTORE POP DUP2 ADD SWAP1 PUSH2 0x139E SWAP2 SWAP1 PUSH2 0x1D2C JUMP JUMPDEST DUP2 EQ PUSH2 0x13DF JUMPI PUSH1 0x40 MLOAD PUSH32 0x8C379A000000000000000000000000000000000000000000000000000000000 DUP2 MSTORE PUSH1 0x4 ADD PUSH2 0x13D6 SWAP1 PUSH2 0x254F JUMP JUMPDEST PUSH1 0x40 MLOAD DUP1 SWAP2 SUB SWAP1 REVERT JUMPDEST PUSH1 0x0 PUSH1 0x4 PUSH1 0x0 SWAP1 SLOAD SWAP1 PUSH2 0x100 EXP SWAP1 DIV PUSH20 0xFFFFFFFFFFFFFFFFFFFFFFFFFFFFFFFFFFFFFFFF AND PUSH20 0xFFFFFFFFFFFFFFFFFFFFFFFFFFFFFFFFFFFFFFFF AND PUSH4 0x6022A485 CALLER PUSH1 0x40 MLOAD DUP3 PUSH4 0xFFFFFFFF AND PUSH1 0xE0 SHL DUP2 MSTORE PUSH1 0x4 ADD PUSH2 0x143C SWAP2 SWAP1 PUSH2 0x23A8 JUMP JUMPDEST PUSH1 0x20 PUSH1 0x40 MLOAD DUP1 DUP4 SUB DUP2 DUP7 DUP1 EXTCODESIZE ISZERO DUP1 ISZERO PUSH2 0x1454 JUMPI PUSH1 0x0 DUP1 REVERT JUMPDEST POP GAS STATICCALL ISZERO DUP1 ISZERO PUSH2 0x1468 JUMPI RETURNDATASIZE PUSH1 0x0 DUP1 RETURNDATACOPY RETURNDATASIZE PUSH1 0x0 REVERT JUMPDEST POP POP POP POP PUSH1 0x40 MLOAD RETURNDATASIZE PUSH1 0x1F NOT PUSH1 0x1F DUP3 ADD AND DUP3 ADD DUP1 PUSH1 0x40 MSTORE POP DUP2 ADD SWAP1 PUSH2 0x148C SWAP2 SWAP1 PUSH2 0x1D2C JUMP JUMPDEST SWAP1 POP PUSH1 0x0 DUP1 SHL PUSH1 0x0 DUP1 DUP8 DUP2 MSTORE PUSH1 0x20 ADD SWAP1 DUP2 MSTORE PUSH1 0x20 ADD PUSH1 0x0 KECCAK256 PUSH1 0x0 DUP4 DUP2 MSTORE PUSH1 0x20 ADD SWAP1 DUP2 MSTORE PUSH1 0x20 ADD PUSH1 0x0 KECCAK256 SLOAD EQ PUSH2 0x14F6 JUMPI PUSH1 0x40 MLOAD PUSH32 0x8C379A000000000000000000000000000000000000000000000000000000000 DUP2 MSTORE PUSH1 0x4 ADD PUSH2 0x14ED SWAP1 PUSH2 0x256F JUMP JUMPDEST PUSH1 0x40 MLOAD DUP1 SWAP2 SUB SWAP1 REVERT JUMPDEST PUSH2 0x14FE PUSH2 0x1980 JUMP JUMPDEST PUSH1 0x4 PUSH1 0x0 SWAP1 SLOAD SWAP1 PUSH2 0x100 EXP SWAP1 DIV PUSH20 0xFFFFFFFFFFFFFFFFFFFFFFFFFFFFFFFFFFFFFFFF AND PUSH20 0xFFFFFFFFFFFFFFFFFFFFFFFFFFFFFFFFFFFFFFFF AND PUSH4 0xE3C998FE DUP4 PUSH1 0x40 MLOAD DUP3 PUSH4 0xFFFFFFFF AND PUSH1 0xE0 SHL DUP2 MSTORE PUSH1 0x4 ADD PUSH2 0x1559 SWAP2 SWAP1 PUSH2 0x25AA JUMP JUMPDEST PUSH2 0x100 PUSH1 0x40 MLOAD DUP1 DUP4 SUB DUP2 DUP7 DUP1 EXTCODESIZE ISZERO DUP1 ISZERO PUSH2 0x1572 JUMPI PUSH1 0x0 DUP1 REVERT JUMPDEST POP GAS STATICCALL ISZERO DUP1 ISZERO PUSH2 0x1586 JUMPI RETURNDATASIZE PUSH1 0x0 DUP1 RETURNDATACOPY RETURNDATASIZE PUSH1 0x0 REVERT JUMPDEST POP POP POP POP PUSH1 0x40 MLOAD RETURNDATASIZE PUSH1 0x1F NOT PUSH1 0x1F DUP3 ADD AND DUP3 ADD DUP1 PUSH1 0x40 MSTORE POP DUP2 ADD SWAP1 PUSH2 0x15AA SWAP2 SWAP1 PUSH2 0x1D02 JUMP JUMPDEST SWAP1 POP PUSH1 0x6 PUSH1 0x0 SWAP1 SLOAD SWAP1 PUSH2 0x100 EXP SWAP1 DIV PUSH20 0xFFFFFFFFFFFFFFFFFFFFFFFFFFFFFFFFFFFFFFFF AND PUSH20 0xFFFFFFFFFFFFFFFFFFFFFFFFFFFFFFFFFFFFFFFF AND PUSH4 0x9B87F644 PUSH1 0x40 MLOAD DUP2 PUSH4 0xFFFFFFFF AND PUSH1 0xE0 SHL DUP2 MSTORE PUSH1 0x4 ADD PUSH1 0x0 PUSH1 0x40 MLOAD DUP1 DUP4 SUB DUP2 PUSH1 0x0 DUP8 DUP1 EXTCODESIZE ISZERO DUP1 ISZERO PUSH2 0x1616 JUMPI PUSH1 0x0 DUP1 REVERT JUMPDEST POP GAS CALL ISZERO DUP1 ISZERO PUSH2 0x162A JUMPI RETURNDATASIZE PUSH1 0x0 DUP1 RETURNDATACOPY RETURNDATASIZE PUSH1 0x0 REVERT JUMPDEST POP POP POP POP PUSH1 0x4 PUSH1 0x0 SWAP1 SLOAD SWAP1 PUSH2 0x100 EXP SWAP1 DIV PUSH20 0xFFFFFFFFFFFFFFFFFFFFFFFFFFFFFFFFFFFFFFFF AND PUSH20 0xFFFFFFFFFFFFFFFFFFFFFFFFFFFFFFFFFFFFFFFF AND PUSH4 0x54EAE15E DUP4 DUP9 PUSH1 0x40 MLOAD DUP4 PUSH4 0xFFFFFFFF AND PUSH1 0xE0 SHL DUP2 MSTORE PUSH1 0x4 ADD PUSH2 0x168B SWAP3 SWAP2 SWAP1 PUSH2 0x25FC JUMP JUMPDEST PUSH1 0x0 PUSH1 0x40 MLOAD DUP1 DUP4 SUB DUP2 PUSH1 0x0 DUP8 DUP1 EXTCODESIZE ISZERO DUP1 ISZERO PUSH2 0x16A5 JUMPI PUSH1 0x0 DUP1 REVERT JUMPDEST POP GAS CALL ISZERO DUP1 ISZERO PUSH2 0x16B9 JUMPI RETURNDATASIZE PUSH1 0x0 DUP1 RETURNDATACOPY RETURNDATASIZE PUSH1 0x0 REVERT JUMPDEST POP POP POP POP PUSH20 0x0 PUSH4 0x375B3C0A PUSH1 0x40 MLOAD DUP2 PUSH4 0xFFFFFFFF AND PUSH1 0xE0 SHL DUP2 MSTORE PUSH1 0x4 ADD PUSH1 0x20 PUSH1 0x40 MLOAD DUP1 DUP4 SUB DUP2 DUP7 DUP1 EXTCODESIZE ISZERO DUP1 ISZERO PUSH2 0x1701 JUMPI PUSH1 0x0 DUP1 REVERT JUMPDEST POP GAS DELEGATECALL ISZERO DUP1 ISZERO PUSH2 0x1715 JUMPI RETURNDATASIZE PUSH1 0x0 DUP1 RETURNDATACOPY RETURNDATASIZE PUSH1 0x0 REVERT JUMPDEST POP POP POP POP PUSH1 0x40 MLOAD RETURNDATASIZE PUSH1 0x1F NOT PUSH1 0x1F DUP3 ADD AND DUP3 ADD DUP1 PUSH1 0x40 MSTORE POP DUP2 ADD SWAP1 PUSH2 0x1739 SWAP2 SWAP1 PUSH2 0x1D2C JUMP JUMPDEST DUP2 PUSH1 0x40 ADD MLOAD LT PUSH2 0x1836 JUMPI DUP5 PUSH1 0x0 DUP1 DUP9 DUP2 MSTORE PUSH1 0x20 ADD SWAP1 DUP2 MSTORE PUSH1 0x20 ADD PUSH1 0x0 KECCAK256 PUSH1 0x0 DUP5 DUP2 MSTORE PUSH1 0x20 ADD SWAP1 DUP2 MSTORE PUSH1 0x20 ADD PUSH1 0x0 KECCAK256 DUP2 SWAP1 SSTORE POP PUSH1 0x4 PUSH1 0x0 SWAP1 SLOAD SWAP1 PUSH2 0x100 EXP SWAP1 DIV PUSH20 0xFFFFFFFFFFFFFFFFFFFFFFFFFFFFFFFFFFFFFFFF AND PUSH20 0xFFFFFFFFFFFFFFFFFFFFFFFFFFFFFFFFFFFFFFFF AND PUSH4 0x188DC83B DUP4 PUSH1 0x40 MLOAD DUP3 PUSH4 0xFFFFFFFF AND PUSH1 0xE0 SHL DUP2 MSTORE PUSH1 0x4 ADD PUSH2 0x17C6 SWAP2 SWAP1 PUSH2 0x25AA JUMP JUMPDEST PUSH1 0x0 PUSH1 0x40 MLOAD DUP1 DUP4 SUB DUP2 PUSH1 0x0 DUP8 DUP1 EXTCODESIZE ISZERO DUP1 ISZERO PUSH2 0x17E0 JUMPI PUSH1 0x0 DUP1 REVERT JUMPDEST POP GAS CALL ISZERO DUP1 ISZERO PUSH2 0x17F4 JUMPI RETURNDATASIZE PUSH1 0x0 DUP1 RETURNDATACOPY RETURNDATASIZE PUSH1 0x0 REVERT JUMPDEST POP POP POP POP PUSH32 0x6AD04B07DBE80EE3971460EBC13808FB6DD0FA67FBF7D7EBC4DE85811D2C9928 DUP7 DUP4 DUP8 TIMESTAMP PUSH1 0x40 MLOAD PUSH2 0x182D SWAP5 SWAP4 SWAP3 SWAP2 SWAP1 PUSH2 0x2625 JUMP JUMPDEST PUSH1 0x40 MLOAD DUP1 SWAP2 SUB SWAP1 LOG1 JUMPDEST POP POP POP POP POP POP JUMP JUMPDEST PUSH1 0x0 PUSH1 0x3 PUSH1 0x0 DUP6 DUP2 MSTORE PUSH1 0x20 ADD SWAP1 DUP2 MSTORE PUSH1 0x20 ADD PUSH1 0x0 KECCAK256 PUSH1 0x0 DUP5 DUP2 MSTORE PUSH1 0x20 ADD SWAP1 DUP2 MSTORE PUSH1 0x20 ADD PUSH1 0x0 KECCAK256 PUSH1 0x0 DUP4 DUP2 MSTORE PUSH1 0x20 ADD SWAP1 DUP2 MSTORE PUSH1 0x20 ADD PUSH1 0x0 KECCAK256 SLOAD SWAP1 POP SWAP4 SWAP3 POP POP POP JUMP JUMPDEST PUSH1 0x0 DUP1 DUP3 SWAP1 POP PUSH1 0x0 DUP1 SWAP1 POP JUMPDEST DUP6 MLOAD DUP2 LT ISZERO PUSH2 0x191D JUMPI PUSH1 0x0 DUP7 DUP3 DUP2 MLOAD DUP2 LT PUSH2 0x18A2 JUMPI INVALID JUMPDEST PUSH1 0x20 MUL PUSH1 0x20 ADD ADD MLOAD SWAP1 POP DUP1 DUP4 GT PUSH2 0x18E3 JUMPI DUP3 DUP2 PUSH1 0x40 MLOAD PUSH1 0x20 ADD PUSH2 0x18C6 SWAP3 SWAP2 SWAP1 PUSH2 0x2309 JUMP JUMPDEST PUSH1 0x40 MLOAD PUSH1 0x20 DUP2 DUP4 SUB SUB DUP2 MSTORE SWAP1 PUSH1 0x40 MSTORE DUP1 MLOAD SWAP1 PUSH1 0x20 ADD KECCAK256 SWAP3 POP PUSH2 0x190F JUMP JUMPDEST DUP1 DUP4 PUSH1 0x40 MLOAD PUSH1 0x20 ADD PUSH2 0x18F6 SWAP3 SWAP2 SWAP1 PUSH2 0x2309 JUMP JUMPDEST PUSH1 0x40 MLOAD PUSH1 0x20 DUP2 DUP4 SUB SUB DUP2 MSTORE SWAP1 PUSH1 0x40 MSTORE DUP1 MLOAD SWAP1 PUSH1 0x20 ADD KECCAK256 SWAP3 POP JUMPDEST POP DUP1 DUP1 PUSH1 0x1 ADD SWAP2 POP POP PUSH2 0x188B JUMP JUMPDEST POP DUP4 DUP2 EQ SWAP2 POP POP SWAP4 SWAP3 POP POP POP JUMP JUMPDEST PUSH1 0x0 DUP1 DUP3 DUP5 ADD SWAP1 POP DUP4 DUP2 LT ISZERO PUSH2 0x1976 JUMPI PUSH1 0x40 MLOAD PUSH32 0x8C379A000000000000000000000000000000000000000000000000000000000 DUP2 MSTORE PUSH1 0x4 ADD PUSH2 0x196D SWAP1 PUSH2 0x24AF JUMP JUMPDEST PUSH1 0x40 MLOAD DUP1 SWAP2 SUB SWAP1 REVERT JUMPDEST DUP1 SWAP2 POP POP SWAP3 SWAP2 POP POP JUMP JUMPDEST PUSH1 0x40 MLOAD DUP1 PUSH2 0x100 ADD PUSH1 0x40 MSTORE DUP1 PUSH1 0x0 DUP2 MSTORE PUSH1 0x20 ADD PUSH1 0x0 PUSH20 0xFFFFFFFFFFFFFFFFFFFFFFFFFFFFFFFFFFFFFFFF AND DUP2 MSTORE PUSH1 0x20 ADD PUSH1 0x0 DUP2 MSTORE PUSH1 0x20 ADD PUSH1 0x0 DUP2 MSTORE PUSH1 0x20 ADD PUSH1 0x0 DUP2 MSTORE PUSH1 0x20 ADD PUSH1 0x0 DUP2 MSTORE PUSH1 0x20 ADD PUSH1 0x0 DUP2 MSTORE PUSH1 0x20 ADD PUSH1 0x0 DUP2 MSTORE POP SWAP1 JUMP JUMPDEST PUSH1 0x40 MLOAD DUP1 PUSH1 0x40 ADD PUSH1 0x40 MSTORE DUP1 PUSH1 0x0 DUP2 MSTORE PUSH1 0x20 ADD PUSH1 0x0 DUP2 MSTORE POP SWAP1 JUMP JUMPDEST PUSH1 0x0 DUP2 CALLDATALOAD SWAP1 POP PUSH2 0x1A04 DUP2 PUSH2 0x28BC JUMP JUMPDEST SWAP3 SWAP2 POP POP JUMP JUMPDEST PUSH1 0x0 DUP2 MLOAD SWAP1 POP PUSH2 0x1A19 DUP2 PUSH2 0x28BC JUMP JUMPDEST SWAP3 SWAP2 POP POP JUMP JUMPDEST PUSH1 0x0 DUP3 PUSH1 0x1F DUP4 ADD SLT PUSH2 0x1A30 JUMPI PUSH1 0x0 DUP1 REVERT JUMPDEST DUP2 CALLDATALOAD PUSH2 0x1A43 PUSH2 0x1A3E DUP3 PUSH2 0x26F1 JUMP JUMPDEST PUSH2 0x26C4 JUMP JUMPDEST SWAP2 POP DUP2 DUP2 DUP4 MSTORE PUSH1 0x20 DUP5 ADD SWAP4 POP PUSH1 0x20 DUP2 ADD SWAP1 POP DUP4 PUSH1 0x0 JUMPDEST DUP4 DUP2 LT ISZERO PUSH2 0x1A89 JUMPI DUP2 CALLDATALOAD DUP7 ADD PUSH2 0x1A6F DUP9 DUP3 PUSH2 0x1A93 JUMP JUMPDEST DUP5 MSTORE PUSH1 0x20 DUP5 ADD SWAP4 POP PUSH1 0x20 DUP4 ADD SWAP3 POP POP PUSH1 0x1 DUP2 ADD SWAP1 POP PUSH2 0x1A59 JUMP JUMPDEST POP POP POP POP SWAP3 SWAP2 POP POP JUMP JUMPDEST PUSH1 0x0 DUP3 PUSH1 0x1F DUP4 ADD SLT PUSH2 0x1AA4 JUMPI PUSH1 0x0 DUP1 REVERT JUMPDEST DUP2 CALLDATALOAD PUSH2 0x1AB7 PUSH2 0x1AB2 DUP3 PUSH2 0x2719 JUMP JUMPDEST PUSH2 0x26C4 JUMP JUMPDEST SWAP2 POP DUP2 DUP2 DUP4 MSTORE PUSH1 0x20 DUP5 ADD SWAP4 POP PUSH1 0x20 DUP2 ADD SWAP1 POP DUP4 DUP6 PUSH1 0x20 DUP5 MUL DUP3 ADD GT ISZERO PUSH2 0x1ADC JUMPI PUSH1 0x0 DUP1 REVERT JUMPDEST PUSH1 0x0 JUMPDEST DUP4 DUP2 LT ISZERO PUSH2 0x1B0C JUMPI DUP2 PUSH2 0x1AF2 DUP9 DUP3 PUSH2 0x1B99 JUMP JUMPDEST DUP5 MSTORE PUSH1 0x20 DUP5 ADD SWAP4 POP PUSH1 0x20 DUP4 ADD SWAP3 POP POP PUSH1 0x1 DUP2 ADD SWAP1 POP PUSH2 0x1ADF JUMP JUMPDEST POP POP POP POP SWAP3 SWAP2 POP POP JUMP JUMPDEST PUSH1 0x0 DUP3 PUSH1 0x1F DUP4 ADD SLT PUSH2 0x1B27 JUMPI PUSH1 0x0 DUP1 REVERT JUMPDEST DUP2 CALLDATALOAD PUSH2 0x1B3A PUSH2 0x1B35 DUP3 PUSH2 0x2741 JUMP JUMPDEST PUSH2 0x26C4 JUMP JUMPDEST SWAP2 POP DUP2 DUP2 DUP4 MSTORE PUSH1 0x20 DUP5 ADD SWAP4 POP PUSH1 0x20 DUP2 ADD SWAP1 POP DUP4 DUP6 PUSH1 0x20 DUP5 MUL DUP3 ADD GT ISZERO PUSH2 0x1B5F JUMPI PUSH1 0x0 DUP1 REVERT JUMPDEST PUSH1 0x0 JUMPDEST DUP4 DUP2 LT ISZERO PUSH2 0x1B8F JUMPI DUP2 PUSH2 0x1B75 DUP9 DUP3 PUSH2 0x1C74 JUMP JUMPDEST DUP5 MSTORE PUSH1 0x20 DUP5 ADD SWAP4 POP PUSH1 0x20 DUP4 ADD SWAP3 POP POP PUSH1 0x1 DUP2 ADD SWAP1 POP PUSH2 0x1B62 JUMP JUMPDEST POP POP POP POP SWAP3 SWAP2 POP POP JUMP JUMPDEST PUSH1 0x0 DUP2 CALLDATALOAD SWAP1 POP PUSH2 0x1BA8 DUP2 PUSH2 0x28D3 JUMP JUMPDEST SWAP3 SWAP2 POP POP JUMP JUMPDEST PUSH1 0x0 PUSH2 0x100 DUP3 DUP5 SUB SLT ISZERO PUSH2 0x1BC1 JUMPI PUSH1 0x0 DUP1 REVERT JUMPDEST PUSH2 0x1BCC PUSH2 0x100 PUSH2 0x26C4 JUMP JUMPDEST SWAP1 POP PUSH1 0x0 PUSH2 0x1BDC DUP5 DUP3 DUP6 ADD PUSH2 0x1C89 JUMP JUMPDEST PUSH1 0x0 DUP4 ADD MSTORE POP PUSH1 0x20 PUSH2 0x1BF0 DUP5 DUP3 DUP6 ADD PUSH2 0x1A0A JUMP JUMPDEST PUSH1 0x20 DUP4 ADD MSTORE POP PUSH1 0x40 PUSH2 0x1C04 DUP5 DUP3 DUP6 ADD PUSH2 0x1C89 JUMP JUMPDEST PUSH1 0x40 DUP4 ADD MSTORE POP PUSH1 0x60 PUSH2 0x1C18 DUP5 DUP3 DUP6 ADD PUSH2 0x1C89 JUMP JUMPDEST PUSH1 0x60 DUP4 ADD MSTORE POP PUSH1 0x80 PUSH2 0x1C2C DUP5 DUP3 DUP6 ADD PUSH2 0x1C89 JUMP JUMPDEST PUSH1 0x80 DUP4 ADD MSTORE POP PUSH1 0xA0 PUSH2 0x1C40 DUP5 DUP3 DUP6 ADD PUSH2 0x1C89 JUMP JUMPDEST PUSH1 0xA0 DUP4 ADD MSTORE POP PUSH1 0xC0 PUSH2 0x1C54 DUP5 DUP3 DUP6 ADD PUSH2 0x1C89 JUMP JUMPDEST PUSH1 0xC0 DUP4 ADD MSTORE POP PUSH1 0xE0 PUSH2 0x1C68 DUP5 DUP3 DUP6 ADD PUSH2 0x1C89 JUMP JUMPDEST PUSH1 0xE0 DUP4 ADD MSTORE POP SWAP3 SWAP2 POP POP JUMP JUMPDEST PUSH1 0x0 DUP2 CALLDATALOAD SWAP1 POP PUSH2 0x1C83 DUP2 PUSH2 0x28EA JUMP JUMPDEST SWAP3 SWAP2 POP POP JUMP JUMPDEST PUSH1 0x0 DUP2 MLOAD SWAP1 POP PUSH2 0x1C98 DUP2 PUSH2 0x28EA JUMP JUMPDEST SWAP3 SWAP2 POP POP JUMP JUMPDEST PUSH1 0x0 DUP2 MLOAD SWAP1 POP PUSH2 0x1CAD DUP2 PUSH2 0x2901 JUMP JUMPDEST SWAP3 SWAP2 POP POP JUMP JUMPDEST PUSH1 0x0 DUP1 PUSH1 0x0 PUSH1 0x60 DUP5 DUP7 SUB SLT ISZERO PUSH2 0x1CC8 JUMPI PUSH1 0x0 DUP1 REVERT JUMPDEST PUSH1 0x0 PUSH2 0x1CD6 DUP7 DUP3 DUP8 ADD PUSH2 0x19F5 JUMP JUMPDEST SWAP4 POP POP PUSH1 0x20 PUSH2 0x1CE7 DUP7 DUP3 DUP8 ADD PUSH2 0x19F5 JUMP JUMPDEST SWAP3 POP POP PUSH1 0x40 PUSH2 0x1CF8 DUP7 DUP3 DUP8 ADD PUSH2 0x19F5 JUMP JUMPDEST SWAP2 POP POP SWAP3 POP SWAP3 POP SWAP3 JUMP JUMPDEST PUSH1 0x0 PUSH2 0x100 DUP3 DUP5 SUB SLT ISZERO PUSH2 0x1D15 JUMPI PUSH1 0x0 DUP1 REVERT JUMPDEST PUSH1 0x0 PUSH2 0x1D23 DUP5 DUP3 DUP6 ADD PUSH2 0x1BAE JUMP JUMPDEST SWAP2 POP POP SWAP3 SWAP2 POP POP JUMP JUMPDEST PUSH1 0x0 PUSH1 0x20 DUP3 DUP5 SUB SLT ISZERO PUSH2 0x1D3E JUMPI PUSH1 0x0 DUP1 REVERT JUMPDEST PUSH1 0x0 PUSH2 0x1D4C DUP5 DUP3 DUP6 ADD PUSH2 0x1C89 JUMP JUMPDEST SWAP2 POP POP SWAP3 SWAP2 POP POP JUMP JUMPDEST PUSH1 0x0 DUP1 PUSH1 0x40 DUP4 DUP6 SUB SLT ISZERO PUSH2 0x1D68 JUMPI PUSH1 0x0 DUP1 REVERT JUMPDEST PUSH1 0x0 PUSH2 0x1D76 DUP6 DUP3 DUP7 ADD PUSH2 0x1C74 JUMP JUMPDEST SWAP3 POP POP PUSH1 0x20 PUSH2 0x1D87 DUP6 DUP3 DUP7 ADD PUSH2 0x1B99 JUMP JUMPDEST SWAP2 POP POP SWAP3 POP SWAP3 SWAP1 POP JUMP JUMPDEST PUSH1 0x0 DUP1 PUSH1 0x0 DUP1 PUSH1 0x0 DUP1 PUSH1 0xC0 DUP8 DUP10 SUB SLT ISZERO PUSH2 0x1DAA JUMPI PUSH1 0x0 DUP1 REVERT JUMPDEST PUSH1 0x0 PUSH2 0x1DB8 DUP10 DUP3 DUP11 ADD PUSH2 0x1C74 JUMP JUMPDEST SWAP7 POP POP PUSH1 0x20 PUSH2 0x1DC9 DUP10 DUP3 DUP11 ADD PUSH2 0x1B99 JUMP JUMPDEST SWAP6 POP POP PUSH1 0x40 DUP8 ADD CALLDATALOAD PUSH8 0xFFFFFFFFFFFFFFFF DUP2 GT ISZERO PUSH2 0x1DE6 JUMPI PUSH1 0x0 DUP1 REVERT JUMPDEST PUSH2 0x1DF2 DUP10 DUP3 DUP11 ADD PUSH2 0x1B16 JUMP JUMPDEST SWAP5 POP POP PUSH1 0x60 DUP8 ADD CALLDATALOAD PUSH8 0xFFFFFFFFFFFFFFFF DUP2 GT ISZERO PUSH2 0x1E0F JUMPI PUSH1 0x0 DUP1 REVERT JUMPDEST PUSH2 0x1E1B DUP10 DUP3 DUP11 ADD PUSH2 0x1A1F JUMP JUMPDEST SWAP4 POP POP PUSH1 0x80 PUSH2 0x1E2C DUP10 DUP3 DUP11 ADD PUSH2 0x1B99 JUMP JUMPDEST SWAP3 POP POP PUSH1 0xA0 PUSH2 0x1E3D DUP10 DUP3 DUP11 ADD PUSH2 0x19F5 JUMP JUMPDEST SWAP2 POP POP SWAP3 SWAP6 POP SWAP3 SWAP6 POP SWAP3 SWAP6 JUMP JUMPDEST PUSH1 0x0 DUP1 PUSH1 0x40 DUP4 DUP6 SUB SLT ISZERO PUSH2 0x1E5D JUMPI PUSH1 0x0 DUP1 REVERT JUMPDEST PUSH1 0x0 PUSH2 0x1E6B DUP6 DUP3 DUP7 ADD PUSH2 0x1C74 JUMP JUMPDEST SWAP3 POP POP PUSH1 0x20 PUSH2 0x1E7C DUP6 DUP3 DUP7 ADD PUSH2 0x1C74 JUMP JUMPDEST SWAP2 POP POP SWAP3 POP SWAP3 SWAP1 POP JUMP JUMPDEST PUSH1 0x0 DUP1 PUSH1 0x0 PUSH1 0x60 DUP5 DUP7 SUB SLT ISZERO PUSH2 0x1E9B JUMPI PUSH1 0x0 DUP1 REVERT JUMPDEST PUSH1 0x0 PUSH2 0x1EA9 DUP7 DUP3 DUP8 ADD PUSH2 0x1C74 JUMP JUMPDEST SWAP4 POP POP PUSH1 0x20 PUSH2 0x1EBA DUP7 DUP3 DUP8 ADD PUSH2 0x1C74 JUMP JUMPDEST SWAP3 POP POP PUSH1 0x40 PUSH2 0x1ECB DUP7 DUP3 DUP8 ADD PUSH2 0x1C74 JUMP JUMPDEST SWAP2 POP POP SWAP3 POP SWAP3 POP SWAP3 JUMP JUMPDEST PUSH1 0x0 PUSH1 0x20 DUP3 DUP5 SUB SLT ISZERO PUSH2 0x1EE7 JUMPI PUSH1 0x0 DUP1 REVERT JUMPDEST PUSH1 0x0 PUSH2 0x1EF5 DUP5 DUP3 DUP6 ADD PUSH2 0x1C9E JUMP JUMPDEST SWAP2 POP POP SWAP3 SWAP2 POP POP JUMP JUMPDEST PUSH1 0x0 PUSH2 0x1F0A DUP4 DUP4 PUSH2 0x22D4 JUMP JUMPDEST PUSH1 0x20 DUP4 ADD SWAP1 POP SWAP3 SWAP2 POP POP JUMP JUMPDEST PUSH2 0x1F1F DUP2 PUSH2 0x2806 JUMP JUMPDEST DUP3 MSTORE POP POP JUMP JUMPDEST PUSH2 0x1F2E DUP2 PUSH2 0x27B3 JUMP JUMPDEST DUP3 MSTORE POP POP JUMP JUMPDEST PUSH1 0x0 PUSH2 0x1F3F DUP3 PUSH2 0x2779 JUMP JUMPDEST PUSH2 0x1F49 DUP2 DUP6 PUSH2 0x2791 JUMP JUMPDEST SWAP4 POP PUSH2 0x1F54 DUP4 PUSH2 0x2769 JUMP JUMPDEST DUP1 PUSH1 0x0 JUMPDEST DUP4 DUP2 LT ISZERO PUSH2 0x1F85 JUMPI DUP2 MLOAD PUSH2 0x1F6C DUP9 DUP3 PUSH2 0x1EFE JUMP JUMPDEST SWAP8 POP PUSH2 0x1F77 DUP4 PUSH2 0x2784 JUMP JUMPDEST SWAP3 POP POP PUSH1 0x1 DUP2 ADD SWAP1 POP PUSH2 0x1F58 JUMP JUMPDEST POP DUP6 SWAP4 POP POP POP POP SWAP3 SWAP2 POP POP JUMP JUMPDEST PUSH2 0x1F9B DUP2 PUSH2 0x27C5 JUMP JUMPDEST DUP3 MSTORE POP POP JUMP JUMPDEST PUSH2 0x1FB2 PUSH2 0x1FAD DUP3 PUSH2 0x27C5 JUMP JUMPDEST PUSH2 0x28A8 JUMP JUMPDEST DUP3 MSTORE POP POP JUMP JUMPDEST PUSH2 0x1FC1 DUP2 PUSH2 0x2818 JUMP JUMPDEST DUP3 MSTORE POP POP JUMP JUMPDEST PUSH2 0x1FD0 DUP2 PUSH2 0x283C JUMP JUMPDEST DUP3 MSTORE POP POP JUMP JUMPDEST PUSH2 0x1FDF DUP2 PUSH2 0x2860 JUMP JUMPDEST DUP3 MSTORE POP POP JUMP JUMPDEST PUSH1 0x0 PUSH2 0x1FF2 PUSH1 0x16 DUP4 PUSH2 0x27A2 JUMP JUMPDEST SWAP2 POP PUSH32 0x696E636F7272656374207365637265742F76616C756500000000000000000000 PUSH1 0x0 DUP4 ADD MSTORE PUSH1 0x20 DUP3 ADD SWAP1 POP SWAP2 SWAP1 POP JUMP JUMPDEST PUSH1 0x0 PUSH2 0x2032 PUSH1 0x11 DUP4 PUSH2 0x27A2 JUMP JUMPDEST SWAP2 POP PUSH32 0x6E6F6E706F736974697665207374616B65000000000000000000000000000000 PUSH1 0x0 DUP4 ADD MSTORE PUSH1 0x20 DUP3 ADD SWAP1 POP SWAP2 SWAP1 POP JUMP JUMPDEST PUSH1 0x0 PUSH2 0x2072 PUSH1 0x14 DUP4 PUSH2 0x27A2 JUMP JUMPDEST SWAP2 POP PUSH32 0x696E76616C6964206D65726B6C652070726F6F66000000000000000000000000 PUSH1 0x0 DUP4 ADD MSTORE PUSH1 0x20 DUP3 ADD SWAP1 POP SWAP2 SWAP1 POP JUMP JUMPDEST PUSH1 0x0 PUSH2 0x20B2 PUSH1 0x10 DUP4 PUSH2 0x27A2 JUMP JUMPDEST SWAP2 POP PUSH32 0x4E6F742072657665616C20737461746500000000000000000000000000000000 PUSH1 0x0 DUP4 ADD MSTORE PUSH1 0x20 DUP3 ADD SWAP1 POP SWAP2 SWAP1 POP JUMP JUMPDEST PUSH1 0x0 PUSH2 0x20F2 PUSH1 0x1B DUP4 PUSH2 0x27A2 JUMP JUMPDEST SWAP2 POP PUSH32 0x536166654D6174683A206164646974696F6E206F766572666C6F770000000000 PUSH1 0x0 DUP4 ADD MSTORE PUSH1 0x20 DUP3 ADD SWAP1 POP SWAP2 SWAP1 POP JUMP JUMPDEST PUSH1 0x0 PUSH2 0x2132 PUSH1 0x10 DUP4 PUSH2 0x27A2 JUMP JUMPDEST SWAP2 POP PUSH32 0x4E6F7420636F6D6D697420737461746500000000000000000000000000000000 PUSH1 0x0 DUP4 ADD MSTORE PUSH1 0x20 DUP3 ADD SWAP1 POP SWAP2 SWAP1 POP JUMP JUMPDEST PUSH1 0x0 PUSH2 0x2172 PUSH1 0x1D DUP4 PUSH2 0x27A2 JUMP JUMPDEST SWAP2 POP PUSH32 0x537472756374732E5374616B657220646F6573206E6F74206578697374000000 PUSH1 0x0 DUP4 ADD MSTORE PUSH1 0x20 DUP3 ADD SWAP1 POP SWAP2 SWAP1 POP JUMP JUMPDEST PUSH1 0x0 PUSH2 0x21B2 PUSH1 0xF DUP4 PUSH2 0x27A2 JUMP JUMPDEST SWAP2 POP PUSH32 0x696E636F72726563742065706F63680000000000000000000000000000000000 PUSH1 0x0 DUP4 ADD MSTORE PUSH1 0x20 DUP3 ADD SWAP1 POP SWAP2 SWAP1 POP JUMP JUMPDEST PUSH1 0x0 PUSH2 0x21F2 PUSH1 0x20 DUP4 PUSH2 0x27A2 JUMP JUMPDEST SWAP2 POP PUSH32 0x6E6F7420636F6D6D69746564206F7220616C72656164792072657665616C6564 PUSH1 0x0 DUP4 ADD MSTORE PUSH1 0x20 DUP3 ADD SWAP1 POP SWAP2 SWAP1 POP JUMP JUMPDEST PUSH1 0x0 PUSH2 0x2232 PUSH1 0xF DUP4 PUSH2 0x27A2 JUMP JUMPDEST SWAP2 POP PUSH32 0x696E636F72726563742073746174650000000000000000000000000000000000 PUSH1 0x0 DUP4 ADD MSTORE PUSH1 0x20 DUP3 ADD SWAP1 POP SWAP2 SWAP1 POP JUMP JUMPDEST PUSH1 0x0 PUSH2 0x2272 PUSH1 0x10 DUP4 PUSH2 0x27A2 JUMP JUMPDEST SWAP2 POP PUSH32 0x616C726561647920636F6D6D6974656400000000000000000000000000000000 PUSH1 0x0 DUP4 ADD MSTORE PUSH1 0x20 DUP3 ADD SWAP1 POP SWAP2 SWAP1 POP JUMP JUMPDEST PUSH1 0x40 DUP3 ADD PUSH1 0x0 DUP3 ADD MLOAD PUSH2 0x22BB PUSH1 0x0 DUP6 ADD DUP3 PUSH2 0x22D4 JUMP JUMPDEST POP PUSH1 0x20 DUP3 ADD MLOAD PUSH2 0x22CE PUSH1 0x20 DUP6 ADD DUP3 PUSH2 0x22D4 JUMP JUMPDEST POP POP POP POP JUMP JUMPDEST PUSH2 0x22DD DUP2 PUSH2 0x27EF JUMP JUMPDEST DUP3 MSTORE POP POP JUMP JUMPDEST PUSH2 0x22EC DUP2 PUSH2 0x27EF JUMP JUMPDEST DUP3 MSTORE POP POP JUMP JUMPDEST PUSH2 0x2303 PUSH2 0x22FE DUP3 PUSH2 0x27EF JUMP JUMPDEST PUSH2 0x28B2 JUMP JUMPDEST DUP3 MSTORE POP POP JUMP JUMPDEST PUSH1 0x0 PUSH2 0x2315 DUP3 DUP6 PUSH2 0x1FA1 JUMP JUMPDEST PUSH1 0x20 DUP3 ADD SWAP2 POP PUSH2 0x2325 DUP3 DUP5 PUSH2 0x1FA1 JUMP JUMPDEST PUSH1 0x20 DUP3 ADD SWAP2 POP DUP2 SWAP1 POP SWAP4 SWAP3 POP POP POP JUMP JUMPDEST PUSH1 0x0 PUSH2 0x2341 DUP3 DUP5 PUSH2 0x22F2 JUMP JUMPDEST PUSH1 0x20 DUP3 ADD SWAP2 POP DUP2 SWAP1 POP SWAP3 SWAP2 POP POP JUMP JUMPDEST PUSH1 0x0 PUSH2 0x235C DUP3 DUP7 PUSH2 0x22F2 JUMP JUMPDEST PUSH1 0x20 DUP3 ADD SWAP2 POP PUSH2 0x236C DUP3 DUP6 PUSH2 0x1FA1 JUMP JUMPDEST PUSH1 0x20 DUP3 ADD SWAP2 POP PUSH2 0x237C DUP3 DUP5 PUSH2 0x1FA1 JUMP JUMPDEST PUSH1 0x20 DUP3 ADD SWAP2 POP DUP2 SWAP1 POP SWAP5 SWAP4 POP POP POP POP JUMP JUMPDEST PUSH1 0x0 PUSH1 0x20 DUP3 ADD SWAP1 POP PUSH2 0x23A2 PUSH1 0x0 DUP4 ADD DUP5 PUSH2 0x1F25 JUMP JUMPDEST SWAP3 SWAP2 POP POP JUMP JUMPDEST PUSH1 0x0 PUSH1 0x20 DUP3 ADD SWAP1 POP PUSH2 0x23BD PUSH1 0x0 DUP4 ADD DUP5 PUSH2 0x1F16 JUMP JUMPDEST SWAP3 SWAP2 POP POP JUMP JUMPDEST PUSH1 0x0 PUSH1 0x20 DUP3 ADD SWAP1 POP PUSH2 0x23D8 PUSH1 0x0 DUP4 ADD DUP5 PUSH2 0x1F92 JUMP JUMPDEST SWAP3 SWAP2 POP POP JUMP JUMPDEST PUSH1 0x0 PUSH1 0x20 DUP3 ADD SWAP1 POP PUSH2 0x23F3 PUSH1 0x0 DUP4 ADD DUP5 PUSH2 0x1FB8 JUMP JUMPDEST SWAP3 SWAP2 POP POP JUMP JUMPDEST PUSH1 0x0 PUSH1 0x20 DUP3 ADD SWAP1 POP PUSH2 0x240E PUSH1 0x0 DUP4 ADD DUP5 PUSH2 0x1FC7 JUMP JUMPDEST SWAP3 SWAP2 POP POP JUMP JUMPDEST PUSH1 0x0 PUSH1 0x20 DUP3 ADD SWAP1 POP PUSH2 0x2429 PUSH1 0x0 DUP4 ADD DUP5 PUSH2 0x1FD6 JUMP JUMPDEST SWAP3 SWAP2 POP POP JUMP JUMPDEST PUSH1 0x0 PUSH1 0x20 DUP3 ADD SWAP1 POP DUP2 DUP2 SUB PUSH1 0x0 DUP4 ADD MSTORE PUSH2 0x2448 DUP2 PUSH2 0x1FE5 JUMP JUMPDEST SWAP1 POP SWAP2 SWAP1 POP JUMP JUMPDEST PUSH1 0x0 PUSH1 0x20 DUP3 ADD SWAP1 POP DUP2 DUP2 SUB PUSH1 0x0 DUP4 ADD MSTORE PUSH2 0x2468 DUP2 PUSH2 0x2025 JUMP JUMPDEST SWAP1 POP SWAP2 SWAP1 POP JUMP JUMPDEST PUSH1 0x0 PUSH1 0x20 DUP3 ADD SWAP1 POP DUP2 DUP2 SUB PUSH1 0x0 DUP4 ADD MSTORE PUSH2 0x2488 DUP2 PUSH2 0x2065 JUMP JUMPDEST SWAP1 POP SWAP2 SWAP1 POP JUMP JUMPDEST PUSH1 0x0 PUSH1 0x20 DUP3 ADD SWAP1 POP DUP2 DUP2 SUB PUSH1 0x0 DUP4 ADD MSTORE PUSH2 0x24A8 DUP2 PUSH2 0x20A5 JUMP JUMPDEST SWAP1 POP SWAP2 SWAP1 POP JUMP JUMPDEST PUSH1 0x0 PUSH1 0x20 DUP3 ADD SWAP1 POP DUP2 DUP2 SUB PUSH1 0x0 DUP4 ADD MSTORE PUSH2 0x24C8 DUP2 PUSH2 0x20E5 JUMP JUMPDEST SWAP1 POP SWAP2 SWAP1 POP JUMP JUMPDEST PUSH1 0x0 PUSH1 0x20 DUP3 ADD SWAP1 POP DUP2 DUP2 SUB PUSH1 0x0 DUP4 ADD MSTORE PUSH2 0x24E8 DUP2 PUSH2 0x2125 JUMP JUMPDEST SWAP1 POP SWAP2 SWAP1 POP JUMP JUMPDEST PUSH1 0x0 PUSH1 0x20 DUP3 ADD SWAP1 POP DUP2 DUP2 SUB PUSH1 0x0 DUP4 ADD MSTORE PUSH2 0x2508 DUP2 PUSH2 0x2165 JUMP JUMPDEST SWAP1 POP SWAP2 SWAP1 POP JUMP JUMPDEST PUSH1 0x0 PUSH1 0x20 DUP3 ADD SWAP1 POP DUP2 DUP2 SUB PUSH1 0x0 DUP4 ADD MSTORE PUSH2 0x2528 DUP2 PUSH2 0x21A5 JUMP JUMPDEST SWAP1 POP SWAP2 SWAP1 POP JUMP JUMPDEST PUSH1 0x0 PUSH1 0x20 DUP3 ADD SWAP1 POP DUP2 DUP2 SUB PUSH1 0x0 DUP4 ADD MSTORE PUSH2 0x2548 DUP2 PUSH2 0x21E5 JUMP JUMPDEST SWAP1 POP SWAP2 SWAP1 POP JUMP JUMPDEST PUSH1 0x0 PUSH1 0x20 DUP3 ADD SWAP1 POP DUP2 DUP2 SUB PUSH1 0x0 DUP4 ADD MSTORE PUSH2 0x2568 DUP2 PUSH2 0x2225 JUMP JUMPDEST SWAP1 POP SWAP2 SWAP1 POP JUMP JUMPDEST PUSH1 0x0 PUSH1 0x20 DUP3 ADD SWAP1 POP DUP2 DUP2 SUB PUSH1 0x0 DUP4 ADD MSTORE PUSH2 0x2588 DUP2 PUSH2 0x2265 JUMP JUMPDEST SWAP1 POP SWAP2 SWAP1 POP JUMP JUMPDEST PUSH1 0x0 PUSH1 0x40 DUP3 ADD SWAP1 POP PUSH2 0x25A4 PUSH1 0x0 DUP4 ADD DUP5 PUSH2 0x22A5 JUMP JUMPDEST SWAP3 SWAP2 POP POP JUMP JUMPDEST PUSH1 0x0 PUSH1 0x20 DUP3 ADD SWAP1 POP PUSH2 0x25BF PUSH1 0x0 DUP4 ADD DUP5 PUSH2 0x22E3 JUMP JUMPDEST SWAP3 SWAP2 POP POP JUMP JUMPDEST PUSH1 0x0 PUSH1 0x60 DUP3 ADD SWAP1 POP PUSH2 0x25DA PUSH1 0x0 DUP4 ADD DUP7 PUSH2 0x22E3 JUMP JUMPDEST PUSH2 0x25E7 PUSH1 0x20 DUP4 ADD DUP6 PUSH2 0x1F16 JUMP JUMPDEST PUSH2 0x25F4 PUSH1 0x40 DUP4 ADD DUP5 PUSH2 0x22E3 JUMP JUMPDEST SWAP5 SWAP4 POP POP POP POP JUMP JUMPDEST PUSH1 0x0 PUSH1 0x40 DUP3 ADD SWAP1 POP PUSH2 0x2611 PUSH1 0x0 DUP4 ADD DUP6 PUSH2 0x22E3 JUMP JUMPDEST PUSH2 0x261E PUSH1 0x20 DUP4 ADD DUP5 PUSH2 0x22E3 JUMP JUMPDEST SWAP4 SWAP3 POP POP POP JUMP JUMPDEST PUSH1 0x0 PUSH1 0x80 DUP3 ADD SWAP1 POP PUSH2 0x263A PUSH1 0x0 DUP4 ADD DUP8 PUSH2 0x22E3 JUMP JUMPDEST PUSH2 0x2647 PUSH1 0x20 DUP4 ADD DUP7 PUSH2 0x22E3 JUMP JUMPDEST PUSH2 0x2654 PUSH1 0x40 DUP4 ADD DUP6 PUSH2 0x1F92 JUMP JUMPDEST PUSH2 0x2661 PUSH1 0x60 DUP4 ADD DUP5 PUSH2 0x22E3 JUMP JUMPDEST SWAP6 SWAP5 POP POP POP POP POP JUMP JUMPDEST PUSH1 0x0 PUSH1 0xA0 DUP3 ADD SWAP1 POP PUSH2 0x267F PUSH1 0x0 DUP4 ADD DUP9 PUSH2 0x22E3 JUMP JUMPDEST PUSH2 0x268C PUSH1 0x20 DUP4 ADD DUP8 PUSH2 0x22E3 JUMP JUMPDEST PUSH2 0x2699 PUSH1 0x40 DUP4 ADD DUP7 PUSH2 0x22E3 JUMP JUMPDEST DUP2 DUP2 SUB PUSH1 0x60 DUP4 ADD MSTORE PUSH2 0x26AB DUP2 DUP6 PUSH2 0x1F34 JUMP JUMPDEST SWAP1 POP PUSH2 0x26BA PUSH1 0x80 DUP4 ADD DUP5 PUSH2 0x22E3 JUMP JUMPDEST SWAP7 SWAP6 POP POP POP POP POP POP JUMP JUMPDEST PUSH1 0x0 PUSH1 0x40 MLOAD SWAP1 POP DUP2 DUP2 ADD DUP2 DUP2 LT PUSH8 0xFFFFFFFFFFFFFFFF DUP3 GT OR ISZERO PUSH2 0x26E7 JUMPI PUSH1 0x0 DUP1 REVERT JUMPDEST DUP1 PUSH1 0x40 MSTORE POP SWAP2 SWAP1 POP JUMP JUMPDEST PUSH1 0x0 PUSH8 0xFFFFFFFFFFFFFFFF DUP3 GT ISZERO PUSH2 0x2708 JUMPI PUSH1 0x0 DUP1 REVERT JUMPDEST PUSH1 0x20 DUP3 MUL SWAP1 POP PUSH1 0x20 DUP2 ADD SWAP1 POP SWAP2 SWAP1 POP JUMP JUMPDEST PUSH1 0x0 PUSH8 0xFFFFFFFFFFFFFFFF DUP3 GT ISZERO PUSH2 0x2730 JUMPI PUSH1 0x0 DUP1 REVERT JUMPDEST PUSH1 0x20 DUP3 MUL SWAP1 POP PUSH1 0x20 DUP2 ADD SWAP1 POP SWAP2 SWAP1 POP JUMP JUMPDEST PUSH1 0x0 PUSH8 0xFFFFFFFFFFFFFFFF DUP3 GT ISZERO PUSH2 0x2758 JUMPI PUSH1 0x0 DUP1 REVERT JUMPDEST PUSH1 0x20 DUP3 MUL SWAP1 POP PUSH1 0x20 DUP2 ADD SWAP1 POP SWAP2 SWAP1 POP JUMP JUMPDEST PUSH1 0x0 DUP2 SWAP1 POP PUSH1 0x20 DUP3 ADD SWAP1 POP SWAP2 SWAP1 POP JUMP JUMPDEST PUSH1 0x0 DUP2 MLOAD SWAP1 POP SWAP2 SWAP1 POP JUMP JUMPDEST PUSH1 0x0 PUSH1 0x20 DUP3 ADD SWAP1 POP SWAP2 SWAP1 POP JUMP JUMPDEST PUSH1 0x0 DUP3 DUP3 MSTORE PUSH1 0x20 DUP3 ADD SWAP1 POP SWAP3 SWAP2 POP POP JUMP JUMPDEST PUSH1 0x0 DUP3 DUP3 MSTORE PUSH1 0x20 DUP3 ADD SWAP1 POP SWAP3 SWAP2 POP POP JUMP JUMPDEST PUSH1 0x0 PUSH2 0x27BE DUP3 PUSH2 0x27CF JUMP JUMPDEST SWAP1 POP SWAP2 SWAP1 POP JUMP JUMPDEST PUSH1 0x0 DUP2 SWAP1 POP SWAP2 SWAP1 POP JUMP JUMPDEST PUSH1 0x0 PUSH20 0xFFFFFFFFFFFFFFFFFFFFFFFFFFFFFFFFFFFFFFFF DUP3 AND SWAP1 POP SWAP2 SWAP1 POP JUMP JUMPDEST PUSH1 0x0 DUP2 SWAP1 POP SWAP2 SWAP1 POP JUMP JUMPDEST PUSH1 0x0 PUSH1 0xFF DUP3 AND SWAP1 POP SWAP2 SWAP1 POP JUMP JUMPDEST PUSH1 0x0 PUSH2 0x2811 DUP3 PUSH2 0x2884 JUMP JUMPDEST SWAP1 POP SWAP2 SWAP1 POP JUMP JUMPDEST PUSH1 0x0 PUSH2 0x2823 DUP3 PUSH2 0x282A JUMP JUMPDEST SWAP1 POP SWAP2 SWAP1 POP JUMP JUMPDEST PUSH1 0x0 PUSH2 0x2835 DUP3 PUSH2 0x27CF JUMP JUMPDEST SWAP1 POP SWAP2 SWAP1 POP JUMP JUMPDEST PUSH1 0x0 PUSH2 0x2847 DUP3 PUSH2 0x284E JUMP JUMPDEST SWAP1 POP SWAP2 SWAP1 POP JUMP JUMPDEST PUSH1 0x0 PUSH2 0x2859 DUP3 PUSH2 0x27CF JUMP JUMPDEST SWAP1 POP SWAP2 SWAP1 POP JUMP JUMPDEST PUSH1 0x0 PUSH2 0x286B DUP3 PUSH2 0x2872 JUMP JUMPDEST SWAP1 POP SWAP2 SWAP1 POP JUMP JUMPDEST PUSH1 0x0 PUSH2 0x287D DUP3 PUSH2 0x27CF JUMP JUMPDEST SWAP1 POP SWAP2 SWAP1 POP JUMP JUMPDEST PUSH1 0x0 PUSH2 0x288F DUP3 PUSH2 0x2896 JUMP JUMPDEST SWAP1 POP SWAP2 SWAP1 POP JUMP JUMPDEST PUSH1 0x0 PUSH2 0x28A1 DUP3 PUSH2 0x27CF JUMP JUMPDEST SWAP1 POP SWAP2 SWAP1 POP JUMP JUMPDEST PUSH1 0x0 DUP2 SWAP1 POP SWAP2 SWAP1 POP JUMP JUMPDEST PUSH1 0x0 DUP2 SWAP1 POP SWAP2 SWAP1 POP JUMP JUMPDEST PUSH2 0x28C5 DUP2 PUSH2 0x27B3 JUMP JUMPDEST DUP2 EQ PUSH2 0x28D0 JUMPI PUSH1 0x0 DUP1 REVERT JUMPDEST POP JUMP JUMPDEST PUSH2 0x28DC DUP2 PUSH2 0x27C5 JUMP JUMPDEST DUP2 EQ PUSH2 0x28E7 JUMPI PUSH1 0x0 DUP1 REVERT JUMPDEST POP JUMP JUMPDEST PUSH2 0x28F3 DUP2 PUSH2 0x27EF JUMP JUMPDEST DUP2 EQ PUSH2 0x28FE JUMPI PUSH1 0x0 DUP1 REVERT JUMPDEST POP JUMP JUMPDEST PUSH2 0x290A DUP2 PUSH2 0x27F9 JUMP JUMPDEST DUP2 EQ PUSH2 0x2915 JUMPI PUSH1 0x0 DUP1 REVERT JUMPDEST POP JUMP INVALID LOG2 PUSH5 0x6970667358 0x22 SLT KECCAK256 OR 0xEE 0xF7 LOG3 0xC8 0xC7 0xD5 OR CALLDATASIZE 0xC3 DUP3 RETURN NUMBER 0xDF PUSH8 0xB7DF6AE17DD3E55F SWAP12 0xEA 0xB1 PUSH14 0xFB9C3E059B64736F6C634300060B STOP CALLER "},"gasEstimates":{"creation":{"codeDepositCost":"2114800","executionCost":"2250","totalCost":"2117050"},"external":{"blockManager()":"1301","commit(uint256,bytes32)":"infinite","commitments(uint256,uint256)":"infinite","getCommitment(uint256,uint256)":"infinite","getTotalStakeRevealed(uint256,uint256)":"infinite","getTotalStakeRevealed(uint256,uint256,uint256)":"infinite","getVote(uint256,uint256,uint256)":"infinite","getVoteWeight(uint256,uint256,uint256)":"infinite","init(address,address,address)":"infinite","reveal(uint256,bytes32,uint256[],bytes32[][],bytes32,address)":"infinite","stakeManager()":"1324","stateManager()":"1280","totalStakeRevealed(uint256,uint256)":"infinite","voteWeights(uint256,uint256,uint256)":"infinite","votes(uint256,uint256,uint256)":"infinite"}},"methodIdentifiers":{"blockManager()":"d9169b32","commit(uint256,bytes32)":"f2f03877","commitments(uint256,uint256)":"d13e2e60","getCommitment(uint256,uint256)":"7164f0d6","getTotalStakeRevealed(uint256,uint256)":"a6a145d9","getTotalStakeRevealed(uint256,uint256,uint256)":"f322bd7d","getVote(uint256,uint256,uint256)":"8ce7ff4a","getVoteWeight(uint256,uint256,uint256)":"9c66556f","init(address,address,address)":"184b9559","reveal(uint256,bytes32,uint256[],bytes32[][],bytes32,address)":"125f68f1","stakeManager()":"7542ff95","stateManager()":"2e716fb1","totalStakeRevealed(uint256,uint256)":"8a757ecc","voteWeights(uint256,uint256,uint256)":"8fd5ff00","votes(uint256,uint256,uint256)":"283e2905"}},"storageLayout":{"storage":[{"astId":4590,"contract":"VoteManager.sol:VoteManager","label":"commitments","offset":0,"slot":"0","type":"t_mapping(t_uint256,t_mapping(t_uint256,t_bytes32))"},{"astId":4598,"contract":"VoteManager.sol:VoteManager","label":"votes","offset":0,"slot":"1","type":"t_mapping(t_uint256,t_mapping(t_uint256,t_mapping(t_uint256,t_struct(Vote)5062_storage)))"},{"astId":4604,"contract":"VoteManager.sol:VoteManager","label":"totalStakeRevealed","offset":0,"slot":"2","type":"t_mapping(t_uint256,t_mapping(t_uint256,t_uint256))"},{"astId":4612,"contract":"VoteManager.sol:VoteManager","label":"voteWeights","offset":0,"slot":"3","type":"t_mapping(t_uint256,t_mapping(t_uint256,t_mapping(t_uint256,t_uint256)))"},{"astId":4065,"contract":"VoteManager.sol:VoteManager","label":"stakeManager","offset":0,"slot":"4","type":"t_contract(IStakeManager)1879"},{"astId":4067,"contract":"VoteManager.sol:VoteManager","label":"stateManager","offset":0,"slot":"5","type":"t_contract(IStateManager)1903"},{"astId":4069,"contract":"VoteManager.sol:VoteManager","label":"blockManager","offset":0,"slot":"6","type":"t_contract(IBlockManager)1691"}],"types":{"t_bytes32":{"encoding":"inplace","label":"bytes32","numberOfBytes":"32"},"t_contract(IBlockManager)1691":{"encoding":"inplace","label":"contract IBlockManager","numberOfBytes":"20"},"t_contract(IStakeManager)1879":{"encoding":"inplace","label":"contract IStakeManager","numberOfBytes":"20"},"t_contract(IStateManager)1903":{"encoding":"inplace","label":"contract IStateManager","numberOfBytes":"20"},"t_mapping(t_uint256,t_bytes32)":{"encoding":"mapping","key":"t_uint256","label":"mapping(uint256 => bytes32)","numberOfBytes":"32","value":"t_bytes32"},"t_mapping(t_uint256,t_mapping(t_uint256,t_bytes32))":{"encoding":"mapping","key":"t_uint256","label":"mapping(uint256 => mapping(uint256 => bytes32))","numberOfBytes":"32","value":"t_mapping(t_uint256,t_bytes32)"},"t_mapping(t_uint256,t_mapping(t_uint256,t_mapping(t_uint256,t_struct(Vote)5062_storage)))":{"encoding":"mapping","key":"t_uint256","label":"mapping(uint256 => mapping(uint256 => mapping(uint256 => struct Structs.Vote)))","numberOfBytes":"32","value":"t_mapping(t_uint256,t_mapping(t_uint256,t_struct(Vote)5062_storage))"},"t_mapping(t_uint256,t_mapping(t_uint256,t_mapping(t_uint256,t_uint256)))":{"encoding":"mapping","key":"t_uint256","label":"mapping(uint256 => mapping(uint256 => mapping(uint256 => uint256)))","numberOfBytes":"32","value":"t_mapping(t_uint256,t_mapping(t_uint256,t_uint256))"},"t_mapping(t_uint256,t_mapping(t_uint256,t_struct(Vote)5062_storage))":{"encoding":"mapping","key":"t_uint256","label":"mapping(uint256 => mapping(uint256 => struct Structs.Vote))","numberOfBytes":"32","value":"t_mapping(t_uint256,t_struct(Vote)5062_storage)"},"t_mapping(t_uint256,t_mapping(t_uint256,t_uint256))":{"encoding":"mapping","key":"t_uint256","label":"mapping(uint256 => mapping(uint256 => uint256))","numberOfBytes":"32","value":"t_mapping(t_uint256,t_uint256)"},"t_mapping(t_uint256,t_struct(Vote)5062_storage)":{"encoding":"mapping","key":"t_uint256","label":"mapping(uint256 => struct Structs.Vote)","numberOfBytes":"32","value":"t_struct(Vote)5062_storage"},"t_mapping(t_uint256,t_uint256)":{"encoding":"mapping","key":"t_uint256","label":"mapping(uint256 => uint256)","numberOfBytes":"32","value":"t_uint256"},"t_struct(Vote)5062_storage":{"encoding":"inplace","label":"struct Structs.Vote","members":[{"astId":5059,"contract":"VoteManager.sol:VoteManager","label":"value","offset":0,"slot":"0","type":"t_uint256"},{"astId":5061,"contract":"VoteManager.sol:VoteManager","label":"weight","offset":0,"slot":"1","type":"t_uint256"}],"numberOfBytes":"64"},"t_uint256":{"encoding":"inplace","label":"uint256","numberOfBytes":"32"}}},"userdoc":{"kind":"user","methods":{},"version":1}}