{"address":"0x70e0bA845a1A0F2DA3359C97E0285013525FFC49","bytecode":"0x60806040523480156200001157600080fd5b506200001f60003362000025565b620000bd565b62000031828262000035565b5050565b60008281526001602090815260408083206001600160a01b038516845290915290205460ff16620000315760008281526001602081815260408084206001600160a01b0386168086529252808420805460ff19169093179092559051339285917f2f8788117e7eff1d82e926ec794901d17c78024a50270940304540a733656f0d9190a45050565b613c7a80620000cd6000396000f3fe608060405234801561001057600080fd5b50600436106101b85760003560e01c80635ce8772f116100f95780639b87f64411610097578063d1a4a43d11610071578063d1a4a43d14610466578063d547741f14610479578063e38c7c421461048c578063f25b3f99146104ac57600080fd5b80639b87f64414610435578063a217fddf1461043d578063a27ce1ef1461044557600080fd5b806389035730116100d357806389035730146103a157806391d14854146103b457806392b48411146103ed57806394217ad11461042257600080fd5b80635ce8772f1461031c5780637542ff951461032f578063828496d61461034257600080fd5b8063248a9ca311610166578063378ab9a911610140578063378ab9a9146102c35780633cd32fd4146102e357806342c1e587146102f65780634e6753b71461030957600080fd5b8063248a9ca31461026b5780632f2ff15d1461029d57806336568abe146102b057600080fd5b80630f4ef8a6116101975780630f4ef8a61461021a5780631459457a146102455780631d69ff9b1461025857600080fd5b80629c9f8c146101bd57806301ffc9a7146101d257806304c07569146101fa575b600080fd5b6101d06101cb366004613723565b6104e6565b005b6101e56101e0366004613665565b610aad565b60405190151581526020015b60405180910390f35b61020d610208366004613606565b610b16565b6040516101f191906139f5565b60075461022d906001600160a01b031681565b6040516001600160a01b0390911681526020016101f1565b6101d0610253366004613596565b610c48565b6101e561026636600461380e565b610d8a565b61028f610279366004613606565b6000908152600160208190526040909120015490565b6040519081526020016101f1565b6101d06102ab366004613636565b611252565b6101d06102be366004613636565b61127e565b6102d66102d1366004613606565b61130a565b6040516101f191906139af565b6101d06102f136600461379f565b61136f565b60085461022d906001600160a01b031681565b6101d06103173660046137c0565b61196b565b6101d061032a366004613606565b611f73565b60065461022d906001600160a01b031681565b610381610350366004613636565b6002602081815260009384526040808520909152918352912080546001820154928201546003909201549092919084565b6040805194855260208501939093529183015260608201526080016101f1565b60055461022d906001600160a01b031681565b6101e56103c2366004613636565b60009182526001602090815260408084206001600160a01b0393909316845291905290205460ff1690565b6104006103fb36600461379f565b61222c565b60408051948552602085019390935291830152151560608201526080016101f1565b60095461022d906001600160a01b031681565b6101d0612275565b61028f600081565b61045861045336600461379f565b6128da565b6040516101f1929190613a08565b6102d661047436600461379f565b612a50565b6101d0610487366004613636565b612aea565b61028f61049a366004613606565b60009081526003602052604090205490565b6104006104ba366004613606565b600460208190526000918252604090912080546003820154928201546005909201549092919060ff1684565b60005460ff1661053d5760405162461bcd60e51b815260206004820152601e60248201527f436f6e74726163742073686f756c6420626520696e697469616c697a6564000060448201526064015b60405180910390fd5b60055460408051630eaf323560e31b8152905187926001600160a01b03169163757991a8916004808301926020929190829003018186803b15801561058157600080fd5b505afa158015610595573d6000803e3d6000fd5b505050506040513d601f19601f820116820180604052508101906105b9919061361e565b81146105f95760405162461bcd60e51b815260206004820152600f60248201526e0d2dcc6dee4e4cac6e840cae0dec6d608b1b6044820152606401610534565b600560009054906101000a90046001600160a01b03166001600160a01b031663c198f8ba6040518163ffffffff1660e01b815260040160206040518083038186803b15801561064757600080fd5b505afa15801561065b573d6000803e3d6000fd5b505050506040513d601f19601f8201168201806040525081019061067f9190613839565b63ffffffff16600560009054906101000a90046001600160a01b03166001600160a01b0316631865c57d6040518163ffffffff1660e01b815260040160206040518083038186803b1580156106d357600080fd5b505afa1580156106e7573d6000803e3d6000fd5b505050506040513d601f19601f8201168201806040525081019061070b919061361e565b811461074b5760405162461bcd60e51b815260206004820152600f60248201526e696e636f727265637420737461746560881b6044820152606401610534565b6006546040517f6022a4850000000000000000000000000000000000000000000000000000000081523360048201526000916001600160a01b031690636022a4859060240160206040518083038186803b1580156107a857600080fd5b505afa1580156107bc573d6000803e3d6000fd5b505050506040513d601f19601f820116820180604052508101906107e0919061361e565b90506107ed858583610d8a565b6108395760405162461bcd60e51b815260206004820152600b60248201527f6e6f7420656c65637465640000000000000000000000000000000000000000006044820152606401610534565b600560009054906101000a90046001600160a01b03166001600160a01b031663375b3c0a6040518163ffffffff1660e01b815260040160206040518083038186803b15801561088757600080fd5b505afa15801561089b573d6000803e3d6000fd5b505050506040513d601f19601f820116820180604052508101906108bf919061361e565b6006546040517fe3c998fe000000000000000000000000000000000000000000000000000000008152600481018490526001600160a01b039091169063e3c998fe906024016101406040518083038186803b15801561091d57600080fd5b505afa158015610931573d6000803e3d6000fd5b505050506040513d601f19601f82011682018060405250810190610955919061368d565b6040015110156109a75760405162461bcd60e51b815260206004820152601960248201527f7374616b652062656c6f77206d696e696d756d207374616b65000000000000006044820152606401610534565b60065460405163b98ef0d360e01b8152600481018690526000916001600160a01b03169063b98ef0d39060240160206040518083038186803b1580156109ec57600080fd5b505afa158015610a00573d6000803e3d6000fd5b505050506040513d601f19601f82011682018060405250810190610a24919061361e565b9050610a5f896040518060c001604052808581526020018b81526020018a815260200189815260200184815260200160011515815250612b11565b7f0ae3cf996526ee39dbe842f2cf23ea039e5c81273dab4fbd8f632dff9624266189838a8a8a8a42604051610a9a9796959493929190613a36565b60405180910390a1505050505050505050565b60006001600160e01b031982167f7965db0b000000000000000000000000000000000000000000000000000000001480610b1057507f01ffc9a7000000000000000000000000000000000000000000000000000000006001600160e01b03198316145b92915050565b610b516040518060c0016040528060008152602001606081526020016060815260200160008152602001600081526020016000151581525090565b600082815260046020908152604091829020825160c0810184528154815260018201805485518186028101860190965280865291949293858101939290830182828015610bbd57602002820191906000526020600020905b815481526020019060010190808311610ba9575b5050505050815260200160028201805480602002602001604051908101604052809291908181526020018280548015610c1557602002820191906000526020600020905b815481526020019060010190808311610c01575b5050509183525050600382015460208201526004820154604082015260059091015460ff16151560609091015292915050565b600054610100900460ff1680610c61575060005460ff16155b610cd35760405162461bcd60e51b815260206004820152602e60248201527f496e697469616c697a61626c653a20636f6e747261637420697320616c72656160448201527f647920696e697469616c697a65640000000000000000000000000000000000006064820152608401610534565b600054610100900460ff16158015610cf5576000805461ffff19166101011790555b6000610d018133613025565b50600680547fffffffffffffffffffffffff00000000000000000000000000000000000000009081166001600160a01b0389811691909117909255600780548216888416179055600880548216878416179055600980548216868416179055600580549091169184169190911790558015610d82576000805461ff00191690555b505050505050565b6000805460ff16610ddd5760405162461bcd60e51b815260206004820152601e60248201527f436f6e74726163742073686f756c6420626520696e697469616c697a656400006044820152606401610534565b8173__$3b76b38140ea5d8f6a5a565441556589de$__63320e985c600a600660009054906101000a90046001600160a01b03166001600160a01b031663bc788d466040518163ffffffff1660e01b815260040160206040518083038186803b158015610e4857600080fd5b505afa158015610e5c573d6000803e3d6000fd5b505050506040513d601f19601f82011682018060405250810190610e80919061361e565b60408051602081018b90520160408051601f198184030181528282528051602091820120600554630afaeebf60e31b8552925190936001600160a01b03909316926357d775f8926004808301939192829003018186803b158015610ee357600080fd5b505afa158015610ef7573d6000803e3d6000fd5b505050506040513d601f19601f82011682018060405250810190610f1b919061361e565b6040516001600160e01b031960e087901b16815260ff909416600485015260248401929092526044830152606482015260840160206040518083038186803b158015610f6657600080fd5b505af4158015610f7a573d6000803e3d6000fd5b505050506040513d601f19601f82011682018060405250810190610f9e919061361e565b610fa9906001613af5565b14610fb65750600061124b565b600073__$3b76b38140ea5d8f6a5a565441556589de$__63a874132b600a8588604051602001610ff0929190918252602082015260400190565b60408051601f198184030181528282528051602091820120600554630afaeebf60e31b8552925190936001600160a01b03909316926357d775f8926004808301939192829003018186803b15801561104757600080fd5b505afa15801561105b573d6000803e3d6000fd5b505050506040513d601f19601f8201168201806040525081019061107f919061361e565b6040516001600160e01b031960e086901b16815260ff90931660048401526024830191909152604482015260640160206040518083038186803b1580156110c557600080fd5b505af41580156110d9573d6000803e3d6000fd5b505050506040513d601f19601f820116820180604052508101906110fd919061361e565b9050600061111064010000000083613bd9565b60065460405163b98ef0d360e01b8152600481018890529192506000916001600160a01b039091169063b98ef0d39060240160206040518083038186803b15801561115a57600080fd5b505afa15801561116e573d6000803e3d6000fd5b505050506040513d601f19601f82011682018060405250810190611192919061361e565b60065460405163b98ef0d360e01b8152600481018890529192506000916001600160a01b039091169063b98ef0d39060240160206040518083038186803b1580156111dc57600080fd5b505afa1580156111f0573d6000803e3d6000fd5b505050506040513d601f19601f82011682018060405250810190611214919061361e565b905061122581640100000000613b21565b61122f8385613b21565b111561124257600094505050505061124b565b60019450505050505b9392505050565b6000828152600160208190526040909120015461126f8133613025565b61127983836130a5565b505050565b6001600160a01b03811633146112fc5760405162461bcd60e51b815260206004820152602f60248201527f416363657373436f6e74726f6c3a2063616e206f6e6c792072656e6f756e636560448201527f20726f6c657320666f722073656c6600000000000000000000000000000000006064820152608401610534565b611306828261312c565b5050565b60008181526004602090815260409182902060020180548351818402810184019094528084526060939283018282801561136357602002820191906000526020600020905b81548152602001906001019080831161134f575b50505050509050919050565b60005460ff166113c15760405162461bcd60e51b815260206004820152601e60248201527f436f6e74726163742073686f756c6420626520696e697469616c697a656400006044820152606401610534565b60055460408051630eaf323560e31b8152905184926001600160a01b03169163757991a8916004808301926020929190829003018186803b15801561140557600080fd5b505afa158015611419573d6000803e3d6000fd5b505050506040513d601f19601f8201168201806040525081019061143d919061361e565b811461147d5760405162461bcd60e51b815260206004820152600f60248201526e0d2dcc6dee4e4cac6e840cae0dec6d608b1b6044820152606401610534565b600560009054906101000a90046001600160a01b03166001600160a01b031663f240f7c36040518163ffffffff1660e01b815260040160206040518083038186803b1580156114cb57600080fd5b505afa1580156114df573d6000803e3d6000fd5b505050506040513d601f19601f820116820180604052508101906115039190613839565b63ffffffff16600560009054906101000a90046001600160a01b03166001600160a01b0316631865c57d6040518163ffffffff1660e01b815260040160206040518083038186803b15801561155757600080fd5b505afa15801561156b573d6000803e3d6000fd5b505050506040513d601f19601f8201168201806040525081019061158f919061361e565b81146115cf5760405162461bcd60e51b815260206004820152600f60248201526e696e636f727265637420737461746560881b6044820152606401610534565b600084815260026020908152604080832033845290915290819020600301546008549151635f08158d60e11b8152600481018790526024810182905290916001600160a01b03169063be102b1a9060440160206040518083038186803b15801561163857600080fd5b505afa15801561164c573d6000803e3d6000fd5b505050506040513d601f19601f82011682018060405250810190611670919061361e565b6000868152600260209081526040808320338452909152902054146116fd5760405162461bcd60e51b815260206004820152602560248201527f546f74616c20696e666c75656e63652072657665616c656420646f65736e742060448201527f6d617463680000000000000000000000000000000000000000000000000000006064820152608401610534565b60008581526002602090815260408083203384528252808320600101548884526003909252822080549192918790811061174757634e487b7160e01b600052603260045260246000fd5b9060005260206000209060060201600001549050600082116117ab5760405162461bcd60e51b815260206004820152601660248201527f6d656469616e2063616e206e6f74206265207a65726f000000000000000000006044820152606401610534565b60008781526003602052604090208054839190889081106117dc57634e487b7160e01b600052603260045260246000fd5b9060005260206000209060060201600201848154811061180c57634e487b7160e01b600052603260045260246000fd5b9060005260206000200154146118f457600087815260036020526040812080548890811061184a57634e487b7160e01b600052603260045260246000fd5b60009182526020909120600691820201600501805460ff191692151592909217909155546040517f0f91ce1900000000000000000000000000000000000000000000000000000000815260048101839052336024820152604481018990526001600160a01b0390911690630f91ce1990606401600060405180830381600087803b1580156118d757600080fd5b505af11580156118eb573d6000803e3d6000fd5b50505050611962565b60405162461bcd60e51b815260206004820152603760248201527f50726f706f73656420416c7465726e61746520626c6f636b206973206964656e60448201527f746963616c20746f2070726f706f73656420626c6f636b0000000000000000006064820152608401610534565b50505050505050565b60005460ff166119bd5760405162461bcd60e51b815260206004820152601e60248201527f436f6e74726163742073686f756c6420626520696e697469616c697a656400006044820152606401610534565b60055460408051630eaf323560e31b8152905185926001600160a01b03169163757991a8916004808301926020929190829003018186803b158015611a0157600080fd5b505afa158015611a15573d6000803e3d6000fd5b505050506040513d601f19601f82011682018060405250810190611a39919061361e565b8114611a795760405162461bcd60e51b815260206004820152600f60248201526e0d2dcc6dee4e4cac6e840cae0dec6d608b1b6044820152606401610534565b600560009054906101000a90046001600160a01b03166001600160a01b031663f240f7c36040518163ffffffff1660e01b815260040160206040518083038186803b158015611ac757600080fd5b505afa158015611adb573d6000803e3d6000fd5b505050506040513d601f19601f82011682018060405250810190611aff9190613839565b63ffffffff16600560009054906101000a90046001600160a01b03166001600160a01b0316631865c57d6040518163ffffffff1660e01b815260040160206040518083038186803b158015611b5357600080fd5b505afa158015611b67573d6000803e3d6000fd5b505050506040513d601f19601f82011682018060405250810190611b8b919061361e565b8114611bcb5760405162461bcd60e51b815260206004820152600f60248201526e696e636f727265637420737461746560881b6044820152606401610534565b600854604051635f08158d60e11b815260048101879052602481018690526000916002916001600160a01b039091169063be102b1a9060440160206040518083038186803b158015611c1c57600080fd5b505afa158015611c30573d6000803e3d6000fd5b505050506040513d601f19601f82011682018060405250810190611c54919061361e565b611c5e9190613b0d565b600087815260026020818152604080842033855290915290912080549101549192509081611caa5760008881526002602090815260408083203384529091529020600301879055611d15565b60008881526002602090815260408083203384529091529020600301548714611d155760405162461bcd60e51b815260206004820152601460248201527f41737365744964206e6f74206d61746368696e670000000000000000000000006044820152606401610534565b60005b8651811015611f4a5781878281518110611d4257634e487b7160e01b600052603260045260246000fd5b602002602001015111611dbd5760405162461bcd60e51b815260206004820152602960248201527f736f727465645b695d206973206e6f742067726561746572207468616e206c6160448201527f73745669736974656400000000000000000000000000000000000000000000006064820152608401610534565b868181518110611ddd57634e487b7160e01b600052603260045260246000fd5b60200260200101519150600860009054906101000a90046001600160a01b03166001600160a01b0316639c66556f8a8a8a8581518110611e2d57634e487b7160e01b600052603260045260246000fd5b60200260200101516040518463ffffffff1660e01b8152600401611e64939291909283526020830191909152604082015260600190565b60206040518083038186803b158015611e7c57600080fd5b505afa158015611e90573d6000803e3d6000fd5b505050506040513d601f19601f82011682018060405250810190611eb4919061361e565b611ebe9084613af5565b60008a8152600260209081526040808320338452909152902060010154909350158015611eea57508383115b15611f3857868181518110611f0f57634e487b7160e01b600052603260045260246000fd5b60209081029190910181015160008b815260028352604080822033835290935291909120600101555b80611f4281613b9e565b915050611d18565b506000978852600260208181526040808b20338c52909152909820978801559095555050505050565b60005460ff16611fc55760405162461bcd60e51b815260206004820152601e60248201527f436f6e74726163742073686f756c6420626520696e697469616c697a656400006044820152606401610534565b60055460408051630eaf323560e31b8152905183926001600160a01b03169163757991a8916004808301926020929190829003018186803b15801561200957600080fd5b505afa15801561201d573d6000803e3d6000fd5b505050506040513d601f19601f82011682018060405250810190612041919061361e565b81146120815760405162461bcd60e51b815260206004820152600f60248201526e0d2dcc6dee4e4cac6e840cae0dec6d608b1b6044820152606401610534565b600560009054906101000a90046001600160a01b03166001600160a01b031663f240f7c36040518163ffffffff1660e01b815260040160206040518083038186803b1580156120cf57600080fd5b505afa1580156120e3573d6000803e3d6000fd5b505050506040513d601f19601f820116820180604052508101906121079190613839565b63ffffffff16600560009054906101000a90046001600160a01b03166001600160a01b0316631865c57d6040518163ffffffff1660e01b815260040160206040518083038186803b15801561215b57600080fd5b505afa15801561216f573d6000803e3d6000fd5b505050506040513d601f19601f82011682018060405250810190612193919061361e565b81146121d35760405162461bcd60e51b815260206004820152600f60248201526e696e636f727265637420737461746560881b6044820152606401610534565b505060408051608081018252600080825260208083018281528385018381526060850184815296845260028084528685203386529093529490922092518355905160018301559151918101919091559051600390910155565b6003602052816000526040600020818154811061224857600080fd5b60009182526020909120600690910201805460038201546004830154600590930154919450925060ff1684565b60005460ff166122c75760405162461bcd60e51b815260206004820152601e60248201527f436f6e74726163742073686f756c6420626520696e697469616c697a656400006044820152606401610534565b600560009054906101000a90046001600160a01b03166001600160a01b031663d98b3ced6040518163ffffffff1660e01b815260040160206040518083038186803b15801561231557600080fd5b505afa158015612329573d6000803e3d6000fd5b505050506040513d601f19601f8201168201806040525081019061234d919061361e565b6123578133613025565b60055460408051630eaf323560e31b815290516000926001600160a01b03169163757991a8916004808301926020929190829003018186803b15801561239c57600080fd5b505afa1580156123b0573d6000803e3d6000fd5b505050506040513d601f19601f820116820180604052508101906123d4919061361e565b905060005b600360006123e8600185613b40565b815260208101919091526040016000205460ff821610156112795760036000612412600185613b40565b81526020019081526020016000208160ff168154811061244257634e487b7160e01b600052603260045260246000fd5b600091825260209091206005600690920201015460ff16156128c5576003600061246d600185613b40565b81526020019081526020016000208160ff168154811061249d57634e487b7160e01b600052603260045260246000fd5b9060005260206000209060060201600460006001856124bc9190613b40565b8152602081019190915260400160002081548155600180830180546124e4928401919061341e565b50600282810180546124f9928401919061341e565b50600382810154828201556004808401549083015560059283015492909101805460ff191660ff9093161515929092179091556000908161253b600186613b40565b81526020019081526020016000208260ff168154811061256b57634e487b7160e01b600052603260045260246000fd5b600091825260209091206006909102015490507fe9c8841ed2456dc770efbf4a9a61103f6f9ebc906085a3614a7e113627b31c9d6125aa600185613b40565b82600360006125ba600189613b40565b81526020019081526020016000208560ff16815481106125ea57634e487b7160e01b600052603260045260246000fd5b90600052602060002090600602016002016003600060018961260c9190613b40565b81526020019081526020016000208660ff168154811061263c57634e487b7160e01b600052603260045260246000fd5b90600052602060002090600602016001014260405161265f959493929190613a87565b60405180910390a160005b60036000612679600187613b40565b81526020019081526020016000208360ff16815481106126a957634e487b7160e01b600052603260045260246000fd5b9060005260206000209060060201600101805490508160ff161015612840576009546001600160a01b03166351be9717600360006126e8600189613b40565b81526020019081526020016000208560ff168154811061271857634e487b7160e01b600052603260045260246000fd5b90600052602060002090600602016001018360ff168154811061274b57634e487b7160e01b600052603260045260246000fd5b9060005260206000200154600360006001896127679190613b40565b81526020019081526020016000208660ff168154811061279757634e487b7160e01b600052603260045260246000fd5b90600052602060002090600602016002018460ff16815481106127ca57634e487b7160e01b600052603260045260246000fd5b90600052602060002001546040518363ffffffff1660e01b81526004016127fb929190918252602082015260400190565b600060405180830381600087803b15801561281557600080fd5b505af1158015612829573d6000803e3d6000fd5b50505050808061283890613bb9565b91505061266a565b506007546040517f746c8b6500000000000000000000000000000000000000000000000000000000815260048101839052602481018590526001600160a01b039091169063746c8b6590604401600060405180830381600087803b1580156128a757600080fd5b505af11580156128bb573d6000803e3d6000fd5b5050505050505050565b806128cf81613bb9565b9150506123d9565b50565b6129156040518060c0016040528060008152602001606081526020016060815260200160008152602001600081526020016000151581525090565b60008381526003602052604090208054606091908490811061294757634e487b7160e01b600052603260045260246000fd5b90600052602060002090600602016040518060c001604052908160008201548152602001600182018054806020026020016040519081016040528092919081815260200182805480156129b957602002820191906000526020600020905b8154815260200190600101908083116129a5575b5050505050815260200160028201805480602002602001604051908101604052809291908181526020018280548015612a1157602002820191906000526020600020905b8154815260200190600101908083116129fd575b505050918352505060038201546020820152600482015460408083019190915260059092015460ff161515606090910152810151909590945092505050565b600082815260036020526040902080546060919083908110612a8257634e487b7160e01b600052603260045260246000fd5b9060005260206000209060060201600201805480602002602001604051908101604052809291908181526020018280548015612add57602002820191906000526020600020905b815481526020019060010190808311612ac9575b5050505050905092915050565b60008281526001602081905260409091200154612b078133613025565b611279838361312c565b600082815260036020526040902054612bb55760008281526003602090815260408220805460018181018355918452928290208451600690940201928355838201518051859493612b6693850192019061346e565b5060408201518051612b8291600284019160209091019061346e565b50606082015160038201556080820151600482015560a0909101516005909101805460ff19169115159190911790555050565b600082815260036020526040812054905b600084815260036020526040902054811015612c945760808301516000858152600360205260409020805483908110612c0f57634e487b7160e01b600052603260045260246000fd5b9060005260206000209060060201600401541015612c2f57809150612c94565b60608301516000858152600360205260409020805483908110612c6257634e487b7160e01b600052603260045260246000fd5b9060005260206000209060060201600301541115612c8257809150612c94565b80612c8c81613b9e565b915050612bc6565b5060008381526003602090815260408220805460018181018355918452928290208551600690940201928355848201518051869493612cd793850192019061346e565b5060408201518051612cf391600284019160209091019061346e565b5060608201516003828101919091556080830151600483015560a0909201516005909101805460ff191691151591909117905560008481526020919091526040812054612d4290600190613b40565b90505b81811115612e44576000848152600360205260409020612d66600183613b40565b81548110612d8457634e487b7160e01b600052603260045260246000fd5b9060005260206000209060060201600360008681526020019081526020016000208281548110612dc457634e487b7160e01b600052603260045260246000fd5b60009182526020909120825460069092020190815560018083018054612ded928401919061341e565b5060028281018054612e02928401919061341e565b5060038281015490820155600480830154908201556005918201549101805460ff191660ff909216151591909117905580612e3c81613b87565b915050612d45565b506000838152600360205260409020805483919083908110612e7657634e487b7160e01b600052603260045260246000fd5b9060005260206000209060060201600082015181600001556020820151816001019080519060200190612eaa92919061346e565b5060408201518051612ec691600284019160209091019061346e565b5060608201516003820155608082015160048083019190915560a0909201516005918201805460ff191691151591909117905554604080517f379597e000000000000000000000000000000000000000000000000000000000815290516001600160a01b039092169263379597e0928282019260209290829003018186803b158015612f5157600080fd5b505afa158015612f65573d6000803e3d6000fd5b505050506040513d601f19601f82011682018060405250810190612f89919061361e565b60008481526003602052604090205411156112795760008381526003602052604090208054612fba90600190613b40565b81548110612fd857634e487b7160e01b600052603260045260246000fd5b60009182526020822060069091020181815590612ff860018301826134a9565b6130066002830160006134a9565b506000600382018190556004820155600501805460ff19169055505050565b60008281526001602090815260408083206001600160a01b038516845290915290205460ff1661130657613063816001600160a01b031660146131af565b61306e8360206131af565b60405160200161307f92919061392e565b60408051601f198184030181529082905262461bcd60e51b8252610534916004016139c2565b60008281526001602090815260408083206001600160a01b038516845290915290205460ff166113065760008281526001602081815260408084206001600160a01b0386168086529252808420805460ff19169093179092559051339285917f2f8788117e7eff1d82e926ec794901d17c78024a50270940304540a733656f0d9190a45050565b60008281526001602090815260408083206001600160a01b038516845290915290205460ff16156113065760008281526001602090815260408083206001600160a01b0385168085529252808320805460ff1916905551339285917ff6391f5c32d9c69d2a47ea670b442974b53935d1edc7fd64eb21e047a839171b9190a45050565b606060006131be836002613b21565b6131c9906002613af5565b67ffffffffffffffff8111156131ef57634e487b7160e01b600052604160045260246000fd5b6040519080825280601f01601f191660200182016040528015613219576020820181803683370190505b5090507f30000000000000000000000000000000000000000000000000000000000000008160008151811061325e57634e487b7160e01b600052603260045260246000fd5b60200101907effffffffffffffffffffffffffffffffffffffffffffffffffffffffffffff1916908160001a9053507f7800000000000000000000000000000000000000000000000000000000000000816001815181106132cf57634e487b7160e01b600052603260045260246000fd5b60200101907effffffffffffffffffffffffffffffffffffffffffffffffffffffffffffff1916908160001a905350600061330b846002613b21565b613316906001613af5565b90505b60018111156133cf577f303132333435363738396162636465660000000000000000000000000000000085600f166010811061336557634e487b7160e01b600052603260045260246000fd5b1a60f81b82828151811061338957634e487b7160e01b600052603260045260246000fd5b60200101907effffffffffffffffffffffffffffffffffffffffffffffffffffffffffffff1916908160001a90535060049490941c936133c881613b87565b9050613319565b50831561124b5760405162461bcd60e51b815260206004820181905260248201527f537472696e67733a20686578206c656e67746820696e73756666696369656e746044820152606401610534565b82805482825590600052602060002090810192821561345e5760005260206000209182015b8281111561345e578254825591600101919060010190613443565b5061346a9291506134c3565b5090565b82805482825590600052602060002090810192821561345e579160200282015b8281111561345e57825182559160200191906001019061348e565b50805460008255906000526020600020908101906128d791905b5b8082111561346a57600081556001016134c4565b80516134e381613c2f565b919050565b600082601f8301126134f8578081fd5b8135602067ffffffffffffffff8083111561351557613515613c19565b8260051b604051601f19603f8301168101818110848211171561353a5761353a613c19565b60405284815283810192508684018288018501891015613558578687fd5b8692505b8583101561357a57803584529284019260019290920191840161355c565b50979650505050505050565b805180151581146134e357600080fd5b600080600080600060a086880312156135ad578081fd5b85356135b881613c2f565b945060208601356135c881613c2f565b935060408601356135d881613c2f565b925060608601356135e881613c2f565b915060808601356135f881613c2f565b809150509295509295909350565b600060208284031215613617578081fd5b5035919050565b60006020828403121561362f578081fd5b5051919050565b60008060408385031215613648578182fd5b82359150602083013561365a81613c2f565b809150509250929050565b600060208284031215613676578081fd5b81356001600160e01b03198116811461124b578182fd5b6000610140828403121561369f578081fd5b6136a7613acb565b825181526136b7602084016134d8565b602082015260408301516040820152606083015160608201526080830151608082015260a083015160a082015260c083015160c08201526136fa60e08401613586565b60e082015261010083810151908201526101206137188185016134d8565b908201529392505050565b600080600080600060a0868803121561373a578081fd5b85359450602086013567ffffffffffffffff80821115613758578283fd5b61376489838a016134e8565b95506040880135915080821115613779578283fd5b50613786888289016134e8565b9598949750949560608101359550608001359392505050565b600080604083850312156137b1578081fd5b50508035926020909101359150565b6000806000606084860312156137d4578081fd5b8335925060208401359150604084013567ffffffffffffffff8111156137f8578182fd5b613804868287016134e8565b9150509250925092565b600080600060608486031215613822578081fd5b505081359360208301359350604090920135919050565b60006020828403121561384a578081fd5b815163ffffffff8116811461124b578182fd5b6000815180845260208085019450808401835b8381101561388c57815187529582019590820190600101613870565b509495945050505050565b6000815480845260208085019450838352808320835b8381101561388c578154875295820195600191820191016138ad565b805182526000602082015160c060208501526138e860c085018261385d565b905060408301518482036040860152613901828261385d565b915050606083015160608501526080830151608085015260a0830151151560a08501528091505092915050565b7f416363657373436f6e74726f6c3a206163636f756e7420000000000000000000815260008351613966816017850160208801613b57565b7f206973206d697373696e6720726f6c652000000000000000000000000000000060179184019182015283516139a3816028840160208801613b57565b01602801949350505050565b60208152600061124b602083018461385d565b60208152600082518060208401526139e1816040850160208701613b57565b601f01601f19169190910160400192915050565b60208152600061124b60208301846138c9565b604081526000613a1b60408301856138c9565b8281036020840152613a2d818561385d565b95945050505050565b87815286602082015260e060408201526000613a5560e083018861385d565b8281036060840152613a67818861385d565b6080840196909652505060a081019290925260c090910152949350505050565b85815284602082015260a060408201526000613aa660a0830186613897565b8281036060840152613ab88186613897565b9150508260808301529695505050505050565b604051610140810167ffffffffffffffff81118282101715613aef57613aef613c19565b60405290565b60008219821115613b0857613b08613bed565b500190565b600082613b1c57613b1c613c03565b500490565b6000816000190483118215151615613b3b57613b3b613bed565b500290565b600082821015613b5257613b52613bed565b500390565b60005b83811015613b72578181015183820152602001613b5a565b83811115613b81576000848401525b50505050565b600081613b9657613b96613bed565b506000190190565b6000600019821415613bb257613bb2613bed565b5060010190565b600060ff821660ff811415613bd057613bd0613bed565b60010192915050565b600082613be857613be8613c03565b500690565b634e487b7160e01b600052601160045260246000fd5b634e487b7160e01b600052601260045260246000fd5b634e487b7160e01b600052604160045260246000fd5b6001600160a01b03811681146128d757600080fdfea2646970667358221220cc95bde22e0e8470d2a9880e7b2e7c3467e113f63dc4fe70c17f6d73a77dc2fb64736f6c63430008040033","abi":[{"anonymous":false,"inputs":[{"indexed":false,"internalType":"uint256","name":"epoch","type":"uint256"},{"indexed":false,"internalType":"uint256","name":"stakerId","type":"uint256"},{"indexed":false,"internalType":"uint256[]","name":"medians","type":"uint256[]"},{"indexed":false,"internalType":"uint256[]","name":"ids","type":"uint256[]"},{"indexed":false,"internalType":"uint256","name":"timestamp","type":"uint256"}],"name":"BlockConfirmed","type":"event"},{"anonymous":false,"inputs":[{"indexed":false,"internalType":"uint256","name":"epoch","type":"uint256"},{"indexed":false,"internalType":"uint256","name":"stakerId","type":"uint256"},{"indexed":false,"internalType":"uint256[]","name":"ids","type":"uint256[]"},{"indexed":false,"internalType":"uint256[]","name":"medians","type":"uint256[]"},{"indexed":false,"internalType":"uint256","name":"iteration","type":"uint256"},{"indexed":false,"internalType":"uint256","name":"biggestInfluencerId","type":"uint256"},{"indexed":false,"internalType":"uint256","name":"timestamp","type":"uint256"}],"name":"Proposed","type":"event"},{"anonymous":false,"inputs":[{"indexed":true,"internalType":"bytes32","name":"role","type":"bytes32"},{"indexed":true,"internalType":"bytes32","name":"previousAdminRole","type":"bytes32"},{"indexed":true,"internalType":"bytes32","name":"newAdminRole","type":"bytes32"}],"name":"RoleAdminChanged","type":"event"},{"anonymous":false,"inputs":[{"indexed":true,"internalType":"bytes32","name":"role","type":"bytes32"},{"indexed":true,"internalType":"address","name":"account","type":"address"},{"indexed":true,"internalType":"address","name":"sender","type":"address"}],"name":"RoleGranted","type":"event"},{"anonymous":false,"inputs":[{"indexed":true,"internalType":"bytes32","name":"role","type":"bytes32"},{"indexed":true,"internalType":"address","name":"account","type":"address"},{"indexed":true,"internalType":"address","name":"sender","type":"address"}],"name":"RoleRevoked","type":"event"},{"inputs":[],"name":"DEFAULT_ADMIN_ROLE","outputs":[{"internalType":"bytes32","name":"","type":"bytes32"}],"stateMutability":"view","type":"function"},{"inputs":[],"name":"assetManager","outputs":[{"internalType":"contract IAssetManager","name":"","type":"address"}],"stateMutability":"view","type":"function"},{"inputs":[{"internalType":"uint256","name":"","type":"uint256"}],"name":"blocks","outputs":[{"internalType":"uint256","name":"proposerId","type":"uint256"},{"internalType":"uint256","name":"iteration","type":"uint256"},{"internalType":"uint256","name":"biggestInfluence","type":"uint256"},{"internalType":"bool","name":"valid","type":"bool"}],"stateMutability":"view","type":"function"},{"inputs":[],"name":"confirmBlock","outputs":[],"stateMutability":"nonpayable","type":"function"},{"inputs":[{"internalType":"uint256","name":"","type":"uint256"},{"internalType":"address","name":"","type":"address"}],"name":"disputes","outputs":[{"internalType":"uint256","name":"accWeight","type":"uint256"},{"internalType":"uint256","name":"median","type":"uint256"},{"internalType":"uint256","name":"lastVisited","type":"uint256"},{"internalType":"uint256","name":"assetId","type":"uint256"}],"stateMutability":"view","type":"function"},{"inputs":[{"internalType":"uint256","name":"epoch","type":"uint256"},{"internalType":"uint256","name":"blockId","type":"uint256"}],"name":"finalizeDispute","outputs":[],"stateMutability":"nonpayable","type":"function"},{"inputs":[{"internalType":"uint256","name":"epoch","type":"uint256"}],"name":"getBlock","outputs":[{"components":[{"internalType":"uint256","name":"proposerId","type":"uint256"},{"internalType":"uint256[]","name":"ids","type":"uint256[]"},{"internalType":"uint256[]","name":"medians","type":"uint256[]"},{"internalType":"uint256","name":"iteration","type":"uint256"},{"internalType":"uint256","name":"biggestInfluence","type":"uint256"},{"internalType":"bool","name":"valid","type":"bool"}],"internalType":"struct Structs.Block","name":"_block","type":"tuple"}],"stateMutability":"view","type":"function"},{"inputs":[{"internalType":"uint256","name":"epoch","type":"uint256"}],"name":"getBlockMedians","outputs":[{"internalType":"uint256[]","name":"_blockMedians","type":"uint256[]"}],"stateMutability":"view","type":"function"},{"inputs":[{"internalType":"uint256","name":"epoch","type":"uint256"}],"name":"getNumProposedBlocks","outputs":[{"internalType":"uint256","name":"","type":"uint256"}],"stateMutability":"view","type":"function"},{"inputs":[{"internalType":"uint256","name":"epoch","type":"uint256"},{"internalType":"uint256","name":"proposedBlock","type":"uint256"}],"name":"getProposedBlock","outputs":[{"components":[{"internalType":"uint256","name":"proposerId","type":"uint256"},{"internalType":"uint256[]","name":"ids","type":"uint256[]"},{"internalType":"uint256[]","name":"medians","type":"uint256[]"},{"internalType":"uint256","name":"iteration","type":"uint256"},{"internalType":"uint256","name":"biggestInfluence","type":"uint256"},{"internalType":"bool","name":"valid","type":"bool"}],"internalType":"struct Structs.Block","name":"_block","type":"tuple"},{"internalType":"uint256[]","name":"_blockMedians","type":"uint256[]"}],"stateMutability":"view","type":"function"},{"inputs":[{"internalType":"uint256","name":"epoch","type":"uint256"},{"internalType":"uint256","name":"proposedBlock","type":"uint256"}],"name":"getProposedBlockMedians","outputs":[{"internalType":"uint256[]","name":"_blockMedians","type":"uint256[]"}],"stateMutability":"view","type":"function"},{"inputs":[{"internalType":"bytes32","name":"role","type":"bytes32"}],"name":"getRoleAdmin","outputs":[{"internalType":"bytes32","name":"","type":"bytes32"}],"stateMutability":"view","type":"function"},{"inputs":[{"internalType":"uint256","name":"epoch","type":"uint256"},{"internalType":"uint256","name":"assetId","type":"uint256"},{"internalType":"uint256[]","name":"sorted","type":"uint256[]"}],"name":"giveSorted","outputs":[],"stateMutability":"nonpayable","type":"function"},{"inputs":[{"internalType":"bytes32","name":"role","type":"bytes32"},{"internalType":"address","name":"account","type":"address"}],"name":"grantRole","outputs":[],"stateMutability":"nonpayable","type":"function"},{"inputs":[{"internalType":"bytes32","name":"role","type":"bytes32"},{"internalType":"address","name":"account","type":"address"}],"name":"hasRole","outputs":[{"internalType":"bool","name":"","type":"bool"}],"stateMutability":"view","type":"function"},{"inputs":[{"internalType":"address","name":"stakeManagerAddress","type":"address"},{"internalType":"address","name":"rewardManagerAddress","type":"address"},{"internalType":"address","name":"voteManagerAddress","type":"address"},{"internalType":"address","name":"assetManagerAddress","type":"address"},{"internalType":"address","name":"parametersAddress","type":"address"}],"name":"initialize","outputs":[],"stateMutability":"nonpayable","type":"function"},{"inputs":[{"internalType":"uint256","name":"iteration","type":"uint256"},{"internalType":"uint256","name":"biggestInfluencerId","type":"uint256"},{"internalType":"uint256","name":"stakerId","type":"uint256"}],"name":"isElectedProposer","outputs":[{"internalType":"bool","name":"","type":"bool"}],"stateMutability":"view","type":"function"},{"inputs":[],"name":"parameters","outputs":[{"internalType":"contract IParameters","name":"","type":"address"}],"stateMutability":"view","type":"function"},{"inputs":[{"internalType":"uint256","name":"epoch","type":"uint256"},{"internalType":"uint256[]","name":"ids","type":"uint256[]"},{"internalType":"uint256[]","name":"medians","type":"uint256[]"},{"internalType":"uint256","name":"iteration","type":"uint256"},{"internalType":"uint256","name":"biggestInfluencerId","type":"uint256"}],"name":"propose","outputs":[],"stateMutability":"nonpayable","type":"function"},{"inputs":[{"internalType":"uint256","name":"","type":"uint256"},{"internalType":"uint256","name":"","type":"uint256"}],"name":"proposedBlocks","outputs":[{"internalType":"uint256","name":"proposerId","type":"uint256"},{"internalType":"uint256","name":"iteration","type":"uint256"},{"internalType":"uint256","name":"biggestInfluence","type":"uint256"},{"internalType":"bool","name":"valid","type":"bool"}],"stateMutability":"view","type":"function"},{"inputs":[{"internalType":"bytes32","name":"role","type":"bytes32"},{"internalType":"address","name":"account","type":"address"}],"name":"renounceRole","outputs":[],"stateMutability":"nonpayable","type":"function"},{"inputs":[{"internalType":"uint256","name":"epoch","type":"uint256"}],"name":"resetDispute","outputs":[],"stateMutability":"nonpayable","type":"function"},{"inputs":[{"internalType":"bytes32","name":"role","type":"bytes32"},{"internalType":"address","name":"account","type":"address"}],"name":"revokeRole","outputs":[],"stateMutability":"nonpayable","type":"function"},{"inputs":[],"name":"rewardManager","outputs":[{"internalType":"contract IRewardManager","name":"","type":"address"}],"stateMutability":"view","type":"function"},{"inputs":[],"name":"stakeManager","outputs":[{"internalType":"contract IStakeManager","name":"","type":"address"}],"stateMutability":"view","type":"function"},{"inputs":[{"internalType":"bytes4","name":"interfaceId","type":"bytes4"}],"name":"supportsInterface","outputs":[{"internalType":"bool","name":"","type":"bool"}],"stateMutability":"view","type":"function"},{"inputs":[],"name":"voteManager","outputs":[{"internalType":"contract IVoteManager","name":"","type":"address"}],"stateMutability":"view","type":"function"}]}