{"address":"0x9d4454B023096f34B160D6B654540c56A1F81688","bytecode":"0x6080604052600180546001600160a01b0319163317905534801561002257600080fd5b506105ce806100326000396000f3fe608060405234801561001057600080fd5b50600436106100725760003560e01c8063995e433911610050578063995e4339146100cf578063bf22c457146100f0578063c89e43611461011457600080fd5b80632da4e75c146100775780638da5cb5b1461008c57806394217ad1146100bc575b600080fd5b61008a6100853660046103ba565b610127565b005b60015461009f906001600160a01b031681565b6040516001600160a01b0390911681526020015b60405180910390f35b60025461009f906001600160a01b031681565b6100e26100dd36600461048f565b6101e3565b6040519081526020016100b3565b6101036100fe36600461048f565b61027f565b6040516100b39594939291906104eb565b60005461009f906001600160a01b031681565b6001546001600160a01b0316331461019f576040517f08c379a000000000000000000000000000000000000000000000000000000000815260206004820152601760248201527f63616c6c6572206973206e6f7420746865206f776e6572000000000000000000604482015260640160405180910390fd5b600080546001600160a01b039092167fffffffffffffffffffffffff0000000000000000000000000000000000000000928316811790915560028054909216179055565b6002546040517f995e4339000000000000000000000000000000000000000000000000000000008152600481018390526000916001600160a01b03169063995e43399060240160206040518083038186803b15801561024157600080fd5b505afa158015610255573d6000803e3d6000fd5b505050506040513d601f19601f8201168201806040525081019061027991906104a7565b92915050565b6002546040517fbf22c457000000000000000000000000000000000000000000000000000000008152600481018390526060918291829160009182916001600160a01b03169063bf22c4579060240160006040518083038186803b1580156102e657600080fd5b505afa1580156102fa573d6000803e3d6000fd5b505050506040513d6000823e601f3d908101601f1916820160405261032291908101906103e8565b939a9299509097509550909350915050565b600082601f830112610344578081fd5b815167ffffffffffffffff8082111561035f5761035f610569565b604051601f8301601f19908116603f0116810190828211818310171561038757610387610569565b8160405283815286602085880101111561039f578485fd5b6103b0846020830160208901610539565b9695505050505050565b6000602082840312156103cb578081fd5b81356001600160a01b03811681146103e1578182fd5b9392505050565b600080600080600060a086880312156103ff578081fd5b855167ffffffffffffffff80821115610416578283fd5b61042289838a01610334565b96506020880151915080821115610437578283fd5b61044389838a01610334565b95506040880151915080821115610458578283fd5b5061046588828901610334565b9350506060860151801515811461047a578182fd5b80925050608086015190509295509295909350565b6000602082840312156104a0578081fd5b5035919050565b6000602082840312156104b8578081fd5b5051919050565b600081518084526104d7816020860160208601610539565b601f01601f19169290920160200192915050565b60a0815260006104fe60a08301886104bf565b828103602084015261051081886104bf565b9050828103604084015261052481876104bf565b94151560608401525050608001529392505050565b60005b8381101561055457818101518382015260200161053c565b83811115610563576000848401525b50505050565b7f4e487b7100000000000000000000000000000000000000000000000000000000600052604160045260246000fdfea2646970667358221220e1fd45edd83ecfd29c9518dcc42bb3a382e2e89d83453c3321cab9c037db229c64736f6c63430008040033","abi":[{"inputs":[],"name":"assetManager","outputs":[{"internalType":"contract IAssetManager","name":"","type":"address"}],"stateMutability":"view","type":"function"},{"inputs":[],"name":"delegate","outputs":[{"internalType":"address","name":"","type":"address"}],"stateMutability":"view","type":"function"},{"inputs":[{"internalType":"uint256","name":"id","type":"uint256"}],"name":"getJob","outputs":[{"internalType":"string","name":"url","type":"string"},{"internalType":"string","name":"selector","type":"string"},{"internalType":"string","name":"name","type":"string"},{"internalType":"bool","name":"repeat","type":"bool"},{"internalType":"uint256","name":"result","type":"uint256"}],"stateMutability":"view","type":"function"},{"inputs":[{"internalType":"uint256","name":"id","type":"uint256"}],"name":"getResult","outputs":[{"internalType":"uint256","name":"","type":"uint256"}],"stateMutability":"view","type":"function"},{"inputs":[],"name":"owner","outputs":[{"internalType":"address","name":"","type":"address"}],"stateMutability":"view","type":"function"},{"inputs":[{"internalType":"address","name":"newDelegateAddress","type":"address"}],"name":"upgradeDelegate","outputs":[],"stateMutability":"nonpayable","type":"function"}]}