{"address":"0x998abeb3E57409262aE5b751f60747921B33613E","bytecode":"0x6080604052600180805561271060028190556003818155600491825568056bc75e2d6310000060059081556006849055600781905561012c60089081556009939093556103e8600a55600b92909255600c55600d55600e55620f4240600f55601080546001600160a81b03191674eeeeeeeeeeeeeeeeeeeeeeeeeeeeeeeeeeeeeeee0117905534801561009157600080fd5b5061009d6000336100a2565b61014e565b6100ac82826100b0565b5050565b6000828152602081815260408083206001600160a01b038516845290915290205460ff166100ac576000828152602081815260408083206001600160a01b03851684529091529020805460ff1916600117905561010a3390565b6001600160a01b0316816001600160a01b0316837f2f8788117e7eff1d82e926ec794901d17c78024a50270940304540a733656f0d60405160405180910390a45050565b61108b8061015d6000396000f3fe608060405234801561001057600080fd5b50600436106103575760003560e01c8063757991a8116101c8578063a8fc6c8311610104578063d547741f116100a2578063f15dc5291161007c578063f15dc5291461070a578063f240f7c31461071d578063f2f6596014610724578063f4f29c5b1461073757600080fd5b8063d547741f146106c9578063d98b3ced146106dc578063eb10dec71461070257600080fd5b8063b1cc4500116100de578063b1cc45001461068a578063c198f8ba14610693578063c44ac0d71461069a578063d31d4d6e146106c057600080fd5b8063a8fc6c831461065d578063aac3dbe714610670578063b1a627811461068357600080fd5b80638c80fd9011610171578063a06db7dc1161014b578063a06db7dc1461063c578063a217fddf14610645578063a475b5dd1461064d578063a86f5a3f1461065457600080fd5b80638c80fd90146105cc57806391d14854146105df5780639cec6f8a1461061657600080fd5b8063862114bc116101a2578063862114bc146105a357806386d51626146105b05780638aa0c7bb146105b957600080fd5b8063757991a814610562578063802e00e41461056a57806380638d421461057d57600080fd5b80633c5dd62f1161029757806357d775f81161024057806366061b171161021a57806366061b17146104f0578063687043c5146105165780636a7d29551461051f57806370d5ae051461053257600080fd5b806357d775f8146104cb5780635ae28fc9146104d45780636160a0a7146104e757600080fd5b806354eea7961161027157806354eea796146104925780635583f92c146104a557806355ab6929146104b857600080fd5b80633c5dd62f1461044b5780633c7a3aff1461045457806350f620211461046c57600080fd5b80632628490f116103045780633002c9ac116102de5780633002c9ac1461041d57806336568abe14610426578063375b3c0a14610439578063379597e01461044257600080fd5b80632628490f146103ee57806327ad73fe146103f75780632f2ff15d1461040a57600080fd5b80631865c57d116103355780631865c57d146103b05780631a6adb9b146103b8578063248a9ca3146103cb57600080fd5b806301ffc9a71461035c5780631169e9bf1461038457806313072f4914610399575b600080fd5b61036f61036a366004610e8f565b610740565b60405190151581526020015b60405180910390f35b610397610392366004610e3d565b6107d9565b005b6103a2600d5481565b60405190815260200161037b565b6103a26107eb565b6103976103c6366004610e3d565b610820565b6103a26103d9366004610e3d565b60009081526020819052604090206001015490565b6103a260065481565b610397610405366004610e3d565b610832565b610397610418366004610e55565b610844565b6103a2600a5481565b610397610434366004610e55565b61086f565b6103a260055481565b6103a260075481565b6103a2600c5481565b60005b60405163ffffffff909116815260200161037b565b7fed202a1bc048f9b31cb3937bc52e7c8fe76413f0674b9146ff4bcc15612ccbc26103a2565b6103976104a0366004610e3d565b610900565b6103976104b3366004610e3d565b610912565b6103976104c6366004610e3d565b610924565b6103a260085481565b6103976104e2366004610e3d565b610936565b6103a260035481565b7fcabcaf259dd9a27f23bd8a92bacd65983c2ebf027c853f89f941715905271a8d6103a2565b6103a2600f5481565b61039761052d366004610e3d565b610948565b60105461054a9061010090046001600160a01b031681565b6040516001600160a01b03909116815260200161037b565b6103a261095a565b610397610578366004610e3d565b61096f565b7fdbaaaff2c3744aa215ebd99971829e1c1b728703a0bf252f96685d29011fc8046103a2565b60105461036f9060ff1681565b6103a2600e5481565b6103976105c7366004610e3d565b610981565b6103976105da366004610e3d565b610993565b61036f6105ed366004610e55565b6000918252602082815260408084206001600160a01b0393909316845291905290205460ff1690565b7f4cd3070aaa07d03ab33731cbabd0cb27eb9e074a9430ad006c96941d71b77ece6103a2565b6103a2600b5481565b6103a2600081565b6001610457565b6103a260015481565b61039761066b366004610e3d565b6109a5565b61039761067e366004610e3d565b6109b7565b60006103a2565b6103a260025481565b6002610457565b7fca0fffcc0404933256f3ec63d47233fbb05be25fc0eacc2cfb1a2853993fbbe46103a2565b6103a260045481565b6103976106d7366004610e55565b6109c9565b7f18797bc7973e1dadee1895be2f1003818e30eae3b0e7a01eb9b2e66f3ea2771f6103a2565b6103976109ef565b610397610718366004610e3d565b610a08565b6003610457565b610397610732366004610e3d565b610a1a565b6103a260095481565b60007fffffffff0000000000000000000000000000000000000000000000000000000082167f7965db0b0000000000000000000000000000000000000000000000000000000014806107d357507f01ffc9a7000000000000000000000000000000000000000000000000000000007fffffffff000000000000000000000000000000000000000000000000000000008316145b92915050565b60006107e58133610a2c565b50600d55565b60008060095490506000816008546108039190610f9b565b61080d9043610f9b565b90506108198282611015565b9250505090565b600061082c8133610a2c565b50600c55565b600061083e8133610a2c565b50600a55565b6000828152602081905260409020600101546108608133610a2c565b61086a8383610aaa565b505050565b6001600160a01b03811633146108f25760405162461bcd60e51b815260206004820152602f60248201527f416363657373436f6e74726f6c3a2063616e206f6e6c792072656e6f756e636560448201527f20726f6c657320666f722073656c66000000000000000000000000000000000060648201526084015b60405180910390fd5b6108fc8282610b48565b5050565b600061090c8133610a2c565b50600855565b600061091e8133610a2c565b50600155565b60006109308133610a2c565b50600755565b60006109428133610a2c565b50600f55565b60006109548133610a2c565b50600255565b60006008544361096a9190610f9b565b905090565b600061097b8133610a2c565b50600e55565b600061098d8133610a2c565b50600655565b600061099f8133610a2c565b50600555565b60006109b18133610a2c565b50600355565b60006109c38133610a2c565b50600455565b6000828152602081905260409020600101546109e58133610a2c565b61086a8383610b48565b60006109fb8133610a2c565b506010805460ff19169055565b6000610a148133610a2c565b50600955565b6000610a268133610a2c565b50600b55565b6000828152602081815260408083206001600160a01b038516845290915290205460ff166108fc57610a68816001600160a01b03166014610bc7565b610a73836020610bc7565b604051602001610a84929190610ecf565b60408051601f198184030181529082905262461bcd60e51b82526108e991600401610f50565b6000828152602081815260408083206001600160a01b038516845290915290205460ff166108fc576000828152602081815260408083206001600160a01b03851684529091529020805460ff19166001179055610b043390565b6001600160a01b0316816001600160a01b0316837f2f8788117e7eff1d82e926ec794901d17c78024a50270940304540a733656f0d60405160405180910390a45050565b6000828152602081815260408083206001600160a01b038516845290915290205460ff16156108fc576000828152602081815260408083206001600160a01b0385168085529252808320805460ff1916905551339285917ff6391f5c32d9c69d2a47ea670b442974b53935d1edc7fd64eb21e047a839171b9190a45050565b60606000610bd6836002610faf565b610be1906002610f83565b67ffffffffffffffff811115610c0757634e487b7160e01b600052604160045260246000fd5b6040519080825280601f01601f191660200182016040528015610c31576020820181803683370190505b5090507f300000000000000000000000000000000000000000000000000000000000000081600081518110610c7657634e487b7160e01b600052603260045260246000fd5b60200101907effffffffffffffffffffffffffffffffffffffffffffffffffffffffffffff1916908160001a9053507f780000000000000000000000000000000000000000000000000000000000000081600181518110610ce757634e487b7160e01b600052603260045260246000fd5b60200101907effffffffffffffffffffffffffffffffffffffffffffffffffffffffffffff1916908160001a9053506000610d23846002610faf565b610d2e906001610f83565b90505b6001811115610de7577f303132333435363738396162636465660000000000000000000000000000000085600f1660108110610d7d57634e487b7160e01b600052603260045260246000fd5b1a60f81b828281518110610da157634e487b7160e01b600052603260045260246000fd5b60200101907effffffffffffffffffffffffffffffffffffffffffffffffffffffffffffff1916908160001a90535060049490941c93610de081610ffe565b9050610d31565b508315610e365760405162461bcd60e51b815260206004820181905260248201527f537472696e67733a20686578206c656e67746820696e73756666696369656e7460448201526064016108e9565b9392505050565b600060208284031215610e4e578081fd5b5035919050565b60008060408385031215610e67578081fd5b8235915060208301356001600160a01b0381168114610e84578182fd5b809150509250929050565b600060208284031215610ea0578081fd5b81357fffffffff0000000000000000000000000000000000000000000000000000000081168114610e36578182fd5b7f416363657373436f6e74726f6c3a206163636f756e7420000000000000000000815260008351610f07816017850160208801610fce565b7f206973206d697373696e6720726f6c65200000000000000000000000000000006017918401918201528351610f44816028840160208801610fce565b01602801949350505050565b6020815260008251806020840152610f6f816040850160208701610fce565b601f01601f19169190910160400192915050565b60008219821115610f9657610f96611029565b500190565b600082610faa57610faa61103f565b500490565b6000816000190483118215151615610fc957610fc9611029565b500290565b60005b83811015610fe9578181015183820152602001610fd1565b83811115610ff8576000848401525b50505050565b60008161100d5761100d611029565b506000190190565b6000826110245761102461103f565b500690565b634e487b7160e01b600052601160045260246000fd5b634e487b7160e01b600052601260045260246000fdfea26469706673582212200c8339de7f9c467b352e00aaf480734a56a722ec45c860c090801af8b0abfef464736f6c63430008040033","abi":[{"anonymous":false,"inputs":[{"indexed":true,"internalType":"bytes32","name":"role","type":"bytes32"},{"indexed":true,"internalType":"bytes32","name":"previousAdminRole","type":"bytes32"},{"indexed":true,"internalType":"bytes32","name":"newAdminRole","type":"bytes32"}],"name":"RoleAdminChanged","type":"event"},{"anonymous":false,"inputs":[{"indexed":true,"internalType":"bytes32","name":"role","type":"bytes32"},{"indexed":true,"internalType":"address","name":"account","type":"address"},{"indexed":true,"internalType":"address","name":"sender","type":"address"}],"name":"RoleGranted","type":"event"},{"anonymous":false,"inputs":[{"indexed":true,"internalType":"bytes32","name":"role","type":"bytes32"},{"indexed":true,"internalType":"address","name":"account","type":"address"},{"indexed":true,"internalType":"address","name":"sender","type":"address"}],"name":"RoleRevoked","type":"event"},{"inputs":[],"name":"DEFAULT_ADMIN_ROLE","outputs":[{"internalType":"bytes32","name":"","type":"bytes32"}],"stateMutability":"view","type":"function"},{"inputs":[],"name":"aggregationRange","outputs":[{"internalType":"uint256","name":"","type":"uint256"}],"stateMutability":"view","type":"function"},{"inputs":[],"name":"burnAddress","outputs":[{"internalType":"address","name":"","type":"address"}],"stateMutability":"view","type":"function"},{"inputs":[],"name":"commit","outputs":[{"internalType":"uint32","name":"","type":"uint32"}],"stateMutability":"pure","type":"function"},{"inputs":[],"name":"disableEscapeHatch","outputs":[],"stateMutability":"nonpayable","type":"function"},{"inputs":[],"name":"dispute","outputs":[{"internalType":"uint32","name":"","type":"uint32"}],"stateMutability":"pure","type":"function"},{"inputs":[],"name":"epochLength","outputs":[{"internalType":"uint256","name":"","type":"uint256"}],"stateMutability":"view","type":"function"},{"inputs":[],"name":"escapeHatchEnabled","outputs":[{"internalType":"bool","name":"","type":"bool"}],"stateMutability":"view","type":"function"},{"inputs":[],"name":"exposureDenominator","outputs":[{"internalType":"uint256","name":"","type":"uint256"}],"stateMutability":"view","type":"function"},{"inputs":[],"name":"getAssetConfirmerHash","outputs":[{"internalType":"bytes32","name":"","type":"bytes32"}],"stateMutability":"pure","type":"function"},{"inputs":[],"name":"getAssetModifierHash","outputs":[{"internalType":"bytes32","name":"","type":"bytes32"}],"stateMutability":"pure","type":"function"},{"inputs":[],"name":"getBlockConfirmerHash","outputs":[{"internalType":"bytes32","name":"","type":"bytes32"}],"stateMutability":"pure","type":"function"},{"inputs":[],"name":"getDefaultAdminHash","outputs":[{"internalType":"bytes32","name":"","type":"bytes32"}],"stateMutability":"pure","type":"function"},{"inputs":[],"name":"getEpoch","outputs":[{"internalType":"uint256","name":"","type":"uint256"}],"stateMutability":"view","type":"function"},{"inputs":[],"name":"getRewardModifierHash","outputs":[{"internalType":"bytes32","name":"","type":"bytes32"}],"stateMutability":"pure","type":"function"},{"inputs":[{"internalType":"bytes32","name":"role","type":"bytes32"}],"name":"getRoleAdmin","outputs":[{"internalType":"bytes32","name":"","type":"bytes32"}],"stateMutability":"view","type":"function"},{"inputs":[],"name":"getStakeModifierHash","outputs":[{"internalType":"bytes32","name":"","type":"bytes32"}],"stateMutability":"pure","type":"function"},{"inputs":[],"name":"getStakerActivityUpdaterHash","outputs":[{"internalType":"bytes32","name":"","type":"bytes32"}],"stateMutability":"pure","type":"function"},{"inputs":[],"name":"getState","outputs":[{"internalType":"uint256","name":"","type":"uint256"}],"stateMutability":"view","type":"function"},{"inputs":[],"name":"gracePeriod","outputs":[{"internalType":"uint256","name":"","type":"uint256"}],"stateMutability":"view","type":"function"},{"inputs":[{"internalType":"bytes32","name":"role","type":"bytes32"},{"internalType":"address","name":"account","type":"address"}],"name":"grantRole","outputs":[],"stateMutability":"nonpayable","type":"function"},{"inputs":[{"internalType":"bytes32","name":"role","type":"bytes32"},{"internalType":"address","name":"account","type":"address"}],"name":"hasRole","outputs":[{"internalType":"bool","name":"","type":"bool"}],"stateMutability":"view","type":"function"},{"inputs":[],"name":"maxAge","outputs":[{"internalType":"uint256","name":"","type":"uint256"}],"stateMutability":"view","type":"function"},{"inputs":[],"name":"maxAltBlocks","outputs":[{"internalType":"uint256","name":"","type":"uint256"}],"stateMutability":"view","type":"function"},{"inputs":[],"name":"minStake","outputs":[{"internalType":"uint256","name":"","type":"uint256"}],"stateMutability":"view","type":"function"},{"inputs":[],"name":"numStates","outputs":[{"internalType":"uint256","name":"","type":"uint256"}],"stateMutability":"view","type":"function"},{"inputs":[],"name":"penaltyNotRevealDenom","outputs":[{"internalType":"uint256","name":"","type":"uint256"}],"stateMutability":"view","type":"function"},{"inputs":[],"name":"penaltyNotRevealNum","outputs":[{"internalType":"uint256","name":"","type":"uint256"}],"stateMutability":"view","type":"function"},{"inputs":[],"name":"propose","outputs":[{"internalType":"uint32","name":"","type":"uint32"}],"stateMutability":"pure","type":"function"},{"inputs":[{"internalType":"bytes32","name":"role","type":"bytes32"},{"internalType":"address","name":"account","type":"address"}],"name":"renounceRole","outputs":[],"stateMutability":"nonpayable","type":"function"},{"inputs":[],"name":"resetLockPenalty","outputs":[{"internalType":"uint256","name":"","type":"uint256"}],"stateMutability":"view","type":"function"},{"inputs":[],"name":"reveal","outputs":[{"internalType":"uint32","name":"","type":"uint32"}],"stateMutability":"pure","type":"function"},{"inputs":[{"internalType":"bytes32","name":"role","type":"bytes32"},{"internalType":"address","name":"account","type":"address"}],"name":"revokeRole","outputs":[],"stateMutability":"nonpayable","type":"function"},{"inputs":[{"internalType":"uint256","name":"_aggregationRange","type":"uint256"}],"name":"setAggregationRange","outputs":[],"stateMutability":"nonpayable","type":"function"},{"inputs":[{"internalType":"uint256","name":"_epochLength","type":"uint256"}],"name":"setEpochLength","outputs":[],"stateMutability":"nonpayable","type":"function"},{"inputs":[{"internalType":"uint256","name":"_exposureDenominator","type":"uint256"}],"name":"setExposureDenominator","outputs":[],"stateMutability":"nonpayable","type":"function"},{"inputs":[{"internalType":"uint256","name":"_gracePeriod","type":"uint256"}],"name":"setGracePeriod","outputs":[],"stateMutability":"nonpayable","type":"function"},{"inputs":[{"internalType":"uint256","name":"_maxAge","type":"uint256"}],"name":"setMaxAge","outputs":[],"stateMutability":"nonpayable","type":"function"},{"inputs":[{"internalType":"uint256","name":"_maxAltBlocks","type":"uint256"}],"name":"setMaxAltBlocks","outputs":[],"stateMutability":"nonpayable","type":"function"},{"inputs":[{"internalType":"uint256","name":"_minStake","type":"uint256"}],"name":"setMinStake","outputs":[],"stateMutability":"nonpayable","type":"function"},{"inputs":[{"internalType":"uint256","name":"_numStates","type":"uint256"}],"name":"setNumStates","outputs":[],"stateMutability":"nonpayable","type":"function"},{"inputs":[{"internalType":"uint256","name":"_penaltyNotRevealDenom","type":"uint256"}],"name":"setPenaltyNotRevealDeom","outputs":[],"stateMutability":"nonpayable","type":"function"},{"inputs":[{"internalType":"uint256","name":"_penaltyNotRevealNumerator","type":"uint256"}],"name":"setPenaltyNotRevealNum","outputs":[],"stateMutability":"nonpayable","type":"function"},{"inputs":[{"internalType":"uint256","name":"_resetLockPenalty","type":"uint256"}],"name":"setResetLockPenalty","outputs":[],"stateMutability":"nonpayable","type":"function"},{"inputs":[{"internalType":"uint256","name":"_slashPenaltyDenominator","type":"uint256"}],"name":"setSlashPenaltyDenom","outputs":[],"stateMutability":"nonpayable","type":"function"},{"inputs":[{"internalType":"uint256","name":"_slashPenaltyNumerator","type":"uint256"}],"name":"setSlashPenaltyNum","outputs":[],"stateMutability":"nonpayable","type":"function"},{"inputs":[{"internalType":"uint256","name":"_withdrawLockPeriod","type":"uint256"}],"name":"setWithdrawLockPeriod","outputs":[],"stateMutability":"nonpayable","type":"function"},{"inputs":[{"internalType":"uint256","name":"_withdrawReleasePeriod","type":"uint256"}],"name":"setWithdrawReleasePeriod","outputs":[],"stateMutability":"nonpayable","type":"function"},{"inputs":[],"name":"slashPenaltyDenom","outputs":[{"internalType":"uint256","name":"","type":"uint256"}],"stateMutability":"view","type":"function"},{"inputs":[],"name":"slashPenaltyNum","outputs":[{"internalType":"uint256","name":"","type":"uint256"}],"stateMutability":"view","type":"function"},{"inputs":[{"internalType":"bytes4","name":"interfaceId","type":"bytes4"}],"name":"supportsInterface","outputs":[{"internalType":"bool","name":"","type":"bool"}],"stateMutability":"view","type":"function"},{"inputs":[],"name":"withdrawLockPeriod","outputs":[{"internalType":"uint256","name":"","type":"uint256"}],"stateMutability":"view","type":"function"},{"inputs":[],"name":"withdrawReleasePeriod","outputs":[{"internalType":"uint256","name":"","type":"uint256"}],"stateMutability":"view","type":"function"}]}