{
  "_format": "hh-sol-artifact-1",
  "contractName": "Constants",
  "sourceName": "contracts/lib/Constants.sol",
  "abi": [
    {
      "inputs": [],
      "name": "commit",
      "outputs": [
        {
          "internalType": "uint8",
          "name": "",
          "type": "uint8"
        }
      ],
      "stateMutability": "pure",
      "type": "function"
    },
    {
      "inputs": [],
      "name": "dispute",
      "outputs": [
        {
          "internalType": "uint8",
          "name": "",
          "type": "uint8"
        }
      ],
      "stateMutability": "pure",
      "type": "function"
    },
    {
      "inputs": [],
      "name": "epochLength",
      "outputs": [
        {
          "internalType": "uint256",
          "name": "",
          "type": "uint256"
        }
      ],
      "stateMutability": "pure",
      "type": "function"
    },
    {
      "inputs": [],
      "name": "exposureDenominator",
      "outputs": [
        {
          "internalType": "uint256",
          "name": "",
          "type": "uint256"
        }
      ],
      "stateMutability": "pure",
      "type": "function"
    },
    {
      "inputs": [],
      "name": "getBlockConfirmerHash",
      "outputs": [
        {
          "internalType": "bytes32",
          "name": "",
          "type": "bytes32"
        }
      ],
      "stateMutability": "pure",
      "type": "function"
    },
    {
      "inputs": [],
      "name": "getJobConfirmerHash",
      "outputs": [
        {
          "internalType": "bytes32",
          "name": "",
          "type": "bytes32"
        }
      ],
      "stateMutability": "pure",
      "type": "function"
    },
    {
      "inputs": [],
      "name": "getStakeModifierHash",
      "outputs": [
        {
          "internalType": "bytes32",
          "name": "",
          "type": "bytes32"
        }
      ],
      "stateMutability": "pure",
      "type": "function"
    },
    {
      "inputs": [],
      "name": "getStakerActivityUpdaterHash",
      "outputs": [
        {
          "internalType": "bytes32",
          "name": "",
          "type": "bytes32"
        }
      ],
      "stateMutability": "pure",
      "type": "function"
    },
    {
      "inputs": [],
      "name": "halvingInterval",
      "outputs": [
        {
          "internalType": "uint256",
          "name": "",
          "type": "uint256"
        }
      ],
      "stateMutability": "pure",
      "type": "function"
    },
    {
      "inputs": [],
      "name": "initialBlockReward",
      "outputs": [
        {
          "internalType": "uint256",
          "name": "",
          "type": "uint256"
        }
      ],
      "stateMutability": "pure",
      "type": "function"
    },
    {
      "inputs": [],
      "name": "maxAltBlocks",
      "outputs": [
        {
          "internalType": "uint256",
          "name": "",
          "type": "uint256"
        }
      ],
      "stateMutability": "pure",
      "type": "function"
    },
    {
      "inputs": [],
      "name": "minStake",
      "outputs": [
        {
          "internalType": "uint256",
          "name": "",
          "type": "uint256"
        }
      ],
      "stateMutability": "pure",
      "type": "function"
    },
    {
      "inputs": [],
      "name": "numStates",
      "outputs": [
        {
          "internalType": "uint256",
          "name": "",
          "type": "uint256"
        }
      ],
      "stateMutability": "pure",
      "type": "function"
    },
    {
      "inputs": [],
      "name": "penaltyNotRevealDenom",
      "outputs": [
        {
          "internalType": "uint256",
          "name": "",
          "type": "uint256"
        }
      ],
      "stateMutability": "pure",
      "type": "function"
    },
    {
      "inputs": [],
      "name": "penaltyNotRevealNum",
      "outputs": [
        {
          "internalType": "uint256",
          "name": "",
          "type": "uint256"
        }
      ],
      "stateMutability": "pure",
      "type": "function"
    },
    {
      "inputs": [],
      "name": "propose",
      "outputs": [
        {
          "internalType": "uint8",
          "name": "",
          "type": "uint8"
        }
      ],
      "stateMutability": "pure",
      "type": "function"
    },
    {
      "inputs": [],
      "name": "reveal",
      "outputs": [
        {
          "internalType": "uint8",
          "name": "",
          "type": "uint8"
        }
      ],
      "stateMutability": "pure",
      "type": "function"
    },
    {
      "inputs": [],
      "name": "unstakeLockPeriod",
      "outputs": [
        {
          "internalType": "uint256",
          "name": "",
          "type": "uint256"
        }
      ],
      "stateMutability": "pure",
      "type": "function"
    },
    {
      "inputs": [],
      "name": "withdrawLockPeriod",
      "outputs": [
        {
          "internalType": "uint256",
          "name": "",
          "type": "uint256"
        }
      ],
      "stateMutability": "pure",
      "type": "function"
    }
  ],
  "bytecode": "0x6104a261003a600b82828239805160001a60731461002d57634e487b7160e01b600052600060045260246000fd5b30600052607381538281f3fe730000000000000000000000000000000000000000301460806040526004361061015b5760003560e01c806380638d42116100d7578063c198f8ba1161008b578063e388a69e11610070578063e388a69e14610186578063f240f7c3146101f3578063f4f29c5b146101fb5761015b565b8063c198f8ba146101e3578063d98b3ced146101eb5761015b565b8063a475b5dd116100bc578063a475b5dd146101d3578063a86f5a3f14610160578063b1cc4500146101db5761015b565b806380638d42146101c35780639cec6f8a146101cb5761015b565b8063379597e01161012e57806357d775f81161011357806357d775f8146101ab5780636a47aa06146101b35780637f890b11146101bb5761015b565b8063379597e01461018e5780633c7a3aff146101965761015b565b80632628490f1461016057806326bf1c03146101605780633002c9ac1461017e578063375b3c0a14610186575b600080fd5b610168610203565b60405161017591906102e7565b60405180910390f35b610168610208565b61016861020e565b61016861022c565b61019e610231565b60405161017591906102f0565b610168610236565b61016861023b565b610168610242565b610168610266565b61016861028a565b61019e610203565b6101686102ae565b61019e6102b4565b6101686102b9565b61019e6102dd565b6101686102e2565b600190565b6103e890565b600061021c6012600a610344565b61022790606461041e565b905090565b600590565b600090565b602890565b6298968090565b7fbe7b58e17bf6adaa0f209cd0db8b128282fc68a42f2dd649b4d8ea579f1b078f90565b7fdbaaaff2c3744aa215ebd99971829e1c1b728703a0bf252f96685d29011fc80490565b7f4cd3070aaa07d03ab33731cbabd0cb27eb9e074a9430ad006c96941d71b77ece90565b61271090565b600290565b7f18797bc7973e1dadee1895be2f1003818e30eae3b0e7a01eb9b2e66f3ea2771f90565b600390565b600490565b90815260200190565b60ff91909116815260200190565b80825b6001808611610310575061033b565b8187048211156103225761032261043d565b8086161561032f57918102915b9490941c938002610301565b94509492505050565b6000610353600019848461035a565b9392505050565b60008261036957506001610353565b8161037657506000610353565b816001811461038c5760028114610396576103c3565b6001915050610353565b60ff8411156103a7576103a761043d565b6001841b9150848211156103bd576103bd61043d565b50610353565b5060208310610133831016604e8410600b84101617156103f6575081810a838111156103f1576103f161043d565b610353565b61040384848460016102fe565b8086048211156104155761041561043d565b02949350505050565b60008160001904831182151516156104385761043861043d565b500290565b7f4e487b7100000000000000000000000000000000000000000000000000000000600052601160045260246000fdfea26469706673582212208c866768d50c3d47aaf619afd68d984e7ec627525aaab40eb6caf226e153991e64736f6c63430008000033",
  "linkReferences": {},
  "deployedLinkReferences": {}
}