{
  "_format": "hh-sol-artifact-1",
  "contractName": "Constants",
  "sourceName": "contracts/lib/Constants.sol",
  "abi": [
    {
      "inputs": [],
      "name": "commit",
      "outputs": [
        {
          "internalType": "uint8",
          "name": "",
          "type": "uint8"
        }
      ],
      "stateMutability": "pure",
      "type": "function"
    },
    {
      "inputs": [],
      "name": "dispute",
      "outputs": [
        {
          "internalType": "uint8",
          "name": "",
          "type": "uint8"
        }
      ],
      "stateMutability": "pure",
      "type": "function"
    },
    {
      "inputs": [],
      "name": "epochLength",
      "outputs": [
        {
          "internalType": "uint256",
          "name": "",
          "type": "uint256"
        }
      ],
      "stateMutability": "pure",
      "type": "function"
    },
    {
      "inputs": [],
      "name": "exposureDenominator",
      "outputs": [
        {
          "internalType": "uint256",
          "name": "",
          "type": "uint256"
        }
      ],
      "stateMutability": "pure",
      "type": "function"
    },
    {
      "inputs": [],
      "name": "getBlockConfirmerHash",
      "outputs": [
        {
          "internalType": "bytes32",
          "name": "",
          "type": "bytes32"
        }
      ],
      "stateMutability": "pure",
      "type": "function"
    },
    {
      "inputs": [],
      "name": "getDefaultAdminHash",
      "outputs": [
        {
          "internalType": "bytes32",
          "name": "",
          "type": "bytes32"
        }
      ],
      "stateMutability": "pure",
      "type": "function"
    },
    {
      "inputs": [],
      "name": "getJobConfirmerHash",
      "outputs": [
        {
          "internalType": "bytes32",
          "name": "",
          "type": "bytes32"
        }
      ],
      "stateMutability": "pure",
      "type": "function"
    },
    {
      "inputs": [],
      "name": "getStakeModifierHash",
      "outputs": [
        {
          "internalType": "bytes32",
          "name": "",
          "type": "bytes32"
        }
      ],
      "stateMutability": "pure",
      "type": "function"
    },
    {
      "inputs": [],
      "name": "getStakerActivityUpdaterHash",
      "outputs": [
        {
          "internalType": "bytes32",
          "name": "",
          "type": "bytes32"
        }
      ],
      "stateMutability": "pure",
      "type": "function"
    },
    {
      "inputs": [],
      "name": "maxAltBlocks",
      "outputs": [
        {
          "internalType": "uint256",
          "name": "",
          "type": "uint256"
        }
      ],
      "stateMutability": "pure",
      "type": "function"
    },
    {
      "inputs": [],
      "name": "minStake",
      "outputs": [
        {
          "internalType": "uint256",
          "name": "",
          "type": "uint256"
        }
      ],
      "stateMutability": "pure",
      "type": "function"
    },
    {
      "inputs": [],
      "name": "numStates",
      "outputs": [
        {
          "internalType": "uint256",
          "name": "",
          "type": "uint256"
        }
      ],
      "stateMutability": "pure",
      "type": "function"
    },
    {
      "inputs": [],
      "name": "penaltyNotRevealDenom",
      "outputs": [
        {
          "internalType": "uint256",
          "name": "",
          "type": "uint256"
        }
      ],
      "stateMutability": "pure",
      "type": "function"
    },
    {
      "inputs": [],
      "name": "penaltyNotRevealNum",
      "outputs": [
        {
          "internalType": "uint256",
          "name": "",
          "type": "uint256"
        }
      ],
      "stateMutability": "pure",
      "type": "function"
    },
    {
      "inputs": [],
      "name": "propose",
      "outputs": [
        {
          "internalType": "uint8",
          "name": "",
          "type": "uint8"
        }
      ],
      "stateMutability": "pure",
      "type": "function"
    },
    {
      "inputs": [],
      "name": "reveal",
      "outputs": [
        {
          "internalType": "uint8",
          "name": "",
          "type": "uint8"
        }
      ],
      "stateMutability": "pure",
      "type": "function"
    },
    {
      "inputs": [],
      "name": "unstakeLockPeriod",
      "outputs": [
        {
          "internalType": "uint256",
          "name": "",
          "type": "uint256"
        }
      ],
      "stateMutability": "pure",
      "type": "function"
    },
    {
      "inputs": [],
      "name": "withdrawLockPeriod",
      "outputs": [
        {
          "internalType": "uint256",
          "name": "",
          "type": "uint256"
        }
      ],
      "stateMutability": "pure",
      "type": "function"
    }
  ],
  "bytecode": "0x61048061003a600b82828239805160001a60731461002d57634e487b7160e01b600052600060045260246000fd5b30600052607381538281f3fe73000000000000000000000000000000000000000030146080604052600436106101405760003560e01c80639cec6f8a116100bc578063b1cc45001161008b578063d98b3ced11610070578063d98b3ced146101d0578063f240f7c3146101d8578063f4f29c5b146101e057610140565b8063b1cc4500146101c0578063c198f8ba146101c857610140565b80639cec6f8a146101a8578063a475b5dd146101b0578063a86f5a3f14610145578063b1a62781146101b857610140565b8063379597e01161011357806357d775f8116100f857806357d775f8146101905780637f890b111461019857806380638d42146101a057610140565b8063379597e0146101735780633c7a3aff1461017b57610140565b80632628490f1461014557806326bf1c03146101455780633002c9ac14610163578063375b3c0a1461016b575b600080fd5b61014d6101e8565b60405161015a91906102c5565b60405180910390f35b61014d6101ed565b61014d6101f3565b61014d610211565b610183610216565b60405161015a91906102ce565b61014d61021b565b61014d610220565b61014d610244565b61014d610268565b6101836101e8565b61014d610216565b61014d61028c565b610183610292565b61014d610297565b6101836102bb565b61014d6102c0565b600190565b6103e890565b60006102016012600a610322565b61020c9060646103fc565b905090565b600590565b600090565b602890565b7fbe7b58e17bf6adaa0f209cd0db8b128282fc68a42f2dd649b4d8ea579f1b078f90565b7fdbaaaff2c3744aa215ebd99971829e1c1b728703a0bf252f96685d29011fc80490565b7f4cd3070aaa07d03ab33731cbabd0cb27eb9e074a9430ad006c96941d71b77ece90565b61271090565b600290565b7f18797bc7973e1dadee1895be2f1003818e30eae3b0e7a01eb9b2e66f3ea2771f90565b600390565b600490565b90815260200190565b60ff91909116815260200190565b80825b60018086116102ee5750610319565b8187048211156103005761030061041b565b8086161561030d57918102915b9490941c9380026102df565b94509492505050565b60006103316000198484610338565b9392505050565b60008261034757506001610331565b8161035457506000610331565b816001811461036a5760028114610374576103a1565b6001915050610331565b60ff8411156103855761038561041b565b6001841b91508482111561039b5761039b61041b565b50610331565b5060208310610133831016604e8410600b84101617156103d4575081810a838111156103cf576103cf61041b565b610331565b6103e184848460016102dc565b8086048211156103f3576103f361041b565b02949350505050565b60008160001904831182151516156104165761041661041b565b500290565b7f4e487b7100000000000000000000000000000000000000000000000000000000600052601160045260246000fdfea2646970667358221220cdca61c73e198e6ee063fea1dd60e2592d0532720128908c257df814dfa3feef64736f6c63430008000033",
  "linkReferences": {},
  "deployedLinkReferences": {}
}