{
  "_format": "hh-sol-artifact-1",
  "contractName": "Random",
  "sourceName": "contracts/lib/Random.sol",
  "abi": [
    {
      "inputs": [
        {
          "internalType": "uint8",
          "name": "numBlocks",
          "type": "uint8"
        }
      ],
      "name": "blockHashes",
      "outputs": [
        {
          "internalType": "bytes32",
          "name": "",
          "type": "bytes32"
        }
      ],
      "stateMutability": "view",
      "type": "function"
    },
    {
      "inputs": [
        {
          "internalType": "uint8",
          "name": "numBlocks",
          "type": "uint8"
        },
        {
          "internalType": "uint256",
          "name": "max",
          "type": "uint256"
        },
        {
          "internalType": "bytes32",
          "name": "seed",
          "type": "bytes32"
        }
      ],
      "name": "prng",
      "outputs": [
        {
          "internalType": "uint256",
          "name": "",
          "type": "uint256"
        }
      ],
      "stateMutability": "view",
      "type": "function"
    },
    {
      "inputs": [
        {
          "internalType": "uint8",
          "name": "numBlocks",
          "type": "uint8"
        },
        {
          "internalType": "bytes32",
          "name": "seed",
          "type": "bytes32"
        }
      ],
      "name": "prngHash",
      "outputs": [
        {
          "internalType": "bytes32",
          "name": "",
          "type": "bytes32"
        }
      ],
      "stateMutability": "view",
      "type": "function"
    }
  ],
  "bytecode": "0x61041961003a600b82828239805160001a60731461002d57634e487b7160e01b600052600060045260246000fd5b30600052607381538281f3fe730000000000000000000000000000000000000000301460806040526004361061004b5760003560e01c80635075dbfb146100505780637fa00da214610079578063b07ceab81461008c575b600080fd5b61006361005e3660046102f0565b61009f565b6040516100709190610330565b60405180910390f35b6100636100873660046102a6565b6100c3565b61006361009a3660046102c7565b61023c565b6000806100ac858461023c565b9050806100b985826103a3565b9695505050505050565b600080600073__$cb76aa8097a3c0beaf107a478aa049bae7$__6357d775f86040518163ffffffff1660e01b815260040160206040518083038186803b15801561010c57600080fd5b505af4158015610120573d6000803e3d6000fd5b505050506040513d601f19601f82011682018060405250810190610144919061028e565b73__$cb76aa8097a3c0beaf107a478aa049bae7$__6357d775f86040518163ffffffff1660e01b815260040160206040518083038186803b15801561018857600080fd5b505af415801561019c573d6000803e3d6000fd5b505050506040513d601f19601f820116820180604052508101906101c0919061028e565b6101ca9043610339565b6101d4919061034d565b905060015b8460ff168160ff161161023157826101f460ff83168461036c565b40604051602001610206929190610322565b604051602081830303815290604052805190602001209250808061022990610383565b9150506101d9565b50909150505b919050565b600080610248846100c3565b9050808360405160200161025d929190610322565b60408051808303601f190181529190528051602090910120949350505050565b803560ff8116811461023757600080fd5b60006020828403121561029f578081fd5b5051919050565b6000602082840312156102b7578081fd5b6102c08261027d565b9392505050565b600080604083850312156102d9578081fd5b6102e28361027d565b946020939093013593505050565b600080600060608486031215610304578081fd5b61030d8461027d565b95602085013595506040909401359392505050565b918252602082015260400190565b90815260200190565b600082610348576103486103cd565b500490565b6000816000190483118215151615610367576103676103b7565b500290565b60008282101561037e5761037e6103b7565b500390565b600060ff821660ff81141561039a5761039a6103b7565b60010192915050565b6000826103b2576103b26103cd565b500690565b634e487b7160e01b600052601160045260246000fd5b634e487b7160e01b600052601260045260246000fdfea26469706673582212207029b4bedc1ac2a189a683f41e15642d90e0d2457a677820113796943de97df964736f6c63430008000033",
  "linkReferences": {
    "contracts/lib/Constants.sol": {
      "Constants": [
        {
          "length": 20,
          "start": 260
        },
        {
          "length": 20,
          "start": 384
        }
      ]
    }
  },
  "deployedLinkReferences": {
    "contracts/lib/Constants.sol": {
      "Constants": [
        {
          "length": 20,
          "start": 202
        },
        {
          "length": 20,
          "start": 326
        }
      ]
    }
  }
}