{
  "contractName": "ACL",
  "abi": [
    {
      "inputs": [],
      "stateMutability": "nonpayable",
      "type": "constructor"
    },
    {
      "anonymous": false,
      "inputs": [
        {
          "indexed": true,
          "internalType": "bytes32",
          "name": "role",
          "type": "bytes32"
        },
        {
          "indexed": true,
          "internalType": "bytes32",
          "name": "previousAdminRole",
          "type": "bytes32"
        },
        {
          "indexed": true,
          "internalType": "bytes32",
          "name": "newAdminRole",
          "type": "bytes32"
        }
      ],
      "name": "RoleAdminChanged",
      "type": "event"
    },
    {
      "anonymous": false,
      "inputs": [
        {
          "indexed": true,
          "internalType": "bytes32",
          "name": "role",
          "type": "bytes32"
        },
        {
          "indexed": true,
          "internalType": "address",
          "name": "account",
          "type": "address"
        },
        {
          "indexed": true,
          "internalType": "address",
          "name": "sender",
          "type": "address"
        }
      ],
      "name": "RoleGranted",
      "type": "event"
    },
    {
      "anonymous": false,
      "inputs": [
        {
          "indexed": true,
          "internalType": "bytes32",
          "name": "role",
          "type": "bytes32"
        },
        {
          "indexed": true,
          "internalType": "address",
          "name": "account",
          "type": "address"
        },
        {
          "indexed": true,
          "internalType": "address",
          "name": "sender",
          "type": "address"
        }
      ],
      "name": "RoleRevoked",
      "type": "event"
    },
    {
      "inputs": [],
      "name": "DEFAULT_ADMIN_ROLE",
      "outputs": [
        {
          "internalType": "bytes32",
          "name": "",
          "type": "bytes32"
        }
      ],
      "stateMutability": "view",
      "type": "function"
    },
    {
      "inputs": [
        {
          "internalType": "bytes32",
          "name": "role",
          "type": "bytes32"
        }
      ],
      "name": "getRoleAdmin",
      "outputs": [
        {
          "internalType": "bytes32",
          "name": "",
          "type": "bytes32"
        }
      ],
      "stateMutability": "view",
      "type": "function"
    },
    {
      "inputs": [
        {
          "internalType": "bytes32",
          "name": "role",
          "type": "bytes32"
        },
        {
          "internalType": "uint256",
          "name": "index",
          "type": "uint256"
        }
      ],
      "name": "getRoleMember",
      "outputs": [
        {
          "internalType": "address",
          "name": "",
          "type": "address"
        }
      ],
      "stateMutability": "view",
      "type": "function"
    },
    {
      "inputs": [
        {
          "internalType": "bytes32",
          "name": "role",
          "type": "bytes32"
        }
      ],
      "name": "getRoleMemberCount",
      "outputs": [
        {
          "internalType": "uint256",
          "name": "",
          "type": "uint256"
        }
      ],
      "stateMutability": "view",
      "type": "function"
    },
    {
      "inputs": [
        {
          "internalType": "bytes32",
          "name": "role",
          "type": "bytes32"
        },
        {
          "internalType": "address",
          "name": "account",
          "type": "address"
        }
      ],
      "name": "grantRole",
      "outputs": [],
      "stateMutability": "nonpayable",
      "type": "function"
    },
    {
      "inputs": [
        {
          "internalType": "bytes32",
          "name": "role",
          "type": "bytes32"
        },
        {
          "internalType": "address",
          "name": "account",
          "type": "address"
        }
      ],
      "name": "hasRole",
      "outputs": [
        {
          "internalType": "bool",
          "name": "",
          "type": "bool"
        }
      ],
      "stateMutability": "view",
      "type": "function"
    },
    {
      "inputs": [
        {
          "internalType": "bytes32",
          "name": "role",
          "type": "bytes32"
        },
        {
          "internalType": "address",
          "name": "account",
          "type": "address"
        }
      ],
      "name": "renounceRole",
      "outputs": [],
      "stateMutability": "nonpayable",
      "type": "function"
    },
    {
      "inputs": [
        {
          "internalType": "bytes32",
          "name": "role",
          "type": "bytes32"
        },
        {
          "internalType": "address",
          "name": "account",
          "type": "address"
        }
      ],
      "name": "revokeRole",
      "outputs": [],
      "stateMutability": "nonpayable",
      "type": "function"
    }
  ],
  "bytecode": "0x608060405234801561001057600080fd5b506100256000336001600160e01b0361002a16565b610153565b61003d82826001600160e01b0361004116565b5050565b6000828152602081815260409091206100639183906103826100bd821b17901c565b1561003d576100796001600160e01b036100e416565b6001600160a01b0316816001600160a01b0316837f2f8788117e7eff1d82e926ec794901d17c78024a50270940304540a733656f0d60405160405180910390a45050565b60006100db836001600160a01b0384166001600160e01b036100e816565b90505b92915050565b3390565b60006100fd83836001600160e01b0361013b16565b610133575081546001818101845560008481526020808220909301849055845484825282860190935260409020919091556100de565b5060006100de565b60009081526001919091016020526040902054151590565b610730806101626000396000f3fe608060405234801561001057600080fd5b50600436106100885760003560e01c806391d148541161005b57806391d1485414610155578063a217fddf14610195578063ca15c8731461019d578063d547741f146101ba57610088565b8063248a9ca31461008d5780632f2ff15d146100bc57806336568abe146100ea5780639010d07c14610116575b600080fd5b6100aa600480360360208110156100a357600080fd5b50356101e6565b60408051918252519081900360200190f35b6100e8600480360360408110156100d257600080fd5b50803590602001356001600160a01b03166101fb565b005b6100e86004803603604081101561010057600080fd5b50803590602001356001600160a01b0316610267565b6101396004803603604081101561012c57600080fd5b50803590602001356102c8565b604080516001600160a01b039092168252519081900360200190f35b6101816004803603604081101561016b57600080fd5b50803590602001356001600160a01b03166102ef565b604080519115158252519081900360200190f35b6100aa61030d565b6100aa600480360360208110156101b357600080fd5b5035610312565b6100e8600480360360408110156101d057600080fd5b50803590602001356001600160a01b0316610329565b60009081526020819052604090206002015490565b60008281526020819052604090206002015461021e90610219610397565b6102ef565b6102595760405162461bcd60e51b815260040180806020018281038252602f81526020018061066d602f913960400191505060405180910390fd5b610263828261039b565b5050565b61026f610397565b6001600160a01b0316816001600160a01b0316146102be5760405162461bcd60e51b815260040180806020018281038252602f8152602001806106cc602f913960400191505060405180910390fd5b610263828261040a565b60008281526020819052604081206102e6908363ffffffff61047916565b90505b92915050565b60008281526020819052604081206102e6908363ffffffff61048516565b600081565b60008181526020819052604081206102e99061049a565b60008281526020819052604090206002015461034790610219610397565b6102be5760405162461bcd60e51b815260040180806020018281038252603081526020018061069c6030913960400191505060405180910390fd5b60006102e6836001600160a01b0384166104a5565b3390565b60008281526020819052604090206103b9908263ffffffff61038216565b15610263576103c6610397565b6001600160a01b0316816001600160a01b0316837f2f8788117e7eff1d82e926ec794901d17c78024a50270940304540a733656f0d60405160405180910390a45050565b6000828152602081905260409020610428908263ffffffff6104ef16565b1561026357610435610397565b6001600160a01b0316816001600160a01b0316837ff6391f5c32d9c69d2a47ea670b442974b53935d1edc7fd64eb21e047a839171b60405160405180910390a45050565b60006102e68383610504565b60006102e6836001600160a01b038416610568565b60006102e982610580565b60006104b18383610568565b6104e7575081546001818101845560008481526020808220909301849055845484825282860190935260409020919091556102e9565b5060006102e9565b60006102e6836001600160a01b038416610584565b815460009082106105465760405162461bcd60e51b815260040180806020018281038252602281526020018061064b6022913960400191505060405180910390fd5b82600001828154811061055557fe5b9060005260206000200154905092915050565b60009081526001919091016020526040902054151590565b5490565b6000818152600183016020526040812054801561064057835460001980830191908101906000908790839081106105b757fe5b90600052602060002001549050808760000184815481106105d457fe5b60009182526020808320909101929092558281526001898101909252604090209084019055865487908061060457fe5b600190038181906000526020600020016000905590558660010160008781526020019081526020016000206000905560019450505050506102e9565b60009150506102e956fe456e756d657261626c655365743a20696e646578206f7574206f6620626f756e6473416363657373436f6e74726f6c3a2073656e646572206d75737420626520616e2061646d696e20746f206772616e74416363657373436f6e74726f6c3a2073656e646572206d75737420626520616e2061646d696e20746f207265766f6b65416363657373436f6e74726f6c3a2063616e206f6e6c792072656e6f756e636520726f6c657320666f722073656c66a2646970667358221220dad244b1e03917f29d2bc176847f17d136f69ccd81da561c783b2ddd0897be9c64736f6c634300060b0033",
  "immutableReferences": {},
  "source": "pragma solidity 0.6.11;\r\n\r\nimport \"openzeppelin-solidity/contracts/access/AccessControl.sol\";\r\nimport \"../lib/Constants.sol\";\r\n\r\ncontract ACL is AccessControl {\r\n    constructor() public {\r\n        _setupRole(DEFAULT_ADMIN_ROLE, msg.sender);\r\n    }\r\n    modifier onlyRole(bytes32 _hash) {\r\n        require(hasRole(_hash,msg.sender), \"AccessControl: sender doesnt have appropriate role\");\r\n        _;\r\n  }\r\n}\r\n",
  "sourcePath": "C:\\Users\\ASUS\\Desktop\\Razor\\contracts\\contracts\\Core\\ACL.sol",
  "compiler": {
    "name": "solc",
    "version": "0.6.11+commit.5ef660b1.Emscripten.clang"
  },
  "schemaVersion": "3.3.2",
  "updatedAt": "2020-12-17T07:49:54.129Z",
  "devdoc": {
    "kind": "dev",
    "methods": {
      "getRoleAdmin(bytes32)": {
        "details": "Returns the admin role that controls `role`. See {grantRole} and {revokeRole}. To change a role's admin, use {_setRoleAdmin}."
      },
      "getRoleMember(bytes32,uint256)": {
        "details": "Returns one of the accounts that have `role`. `index` must be a value between 0 and {getRoleMemberCount}, non-inclusive. Role bearers are not sorted in any particular way, and their ordering may change at any point. WARNING: When using {getRoleMember} and {getRoleMemberCount}, make sure you perform all queries on the same block. See the following https://forum.openzeppelin.com/t/iterating-over-elements-on-enumerableset-in-openzeppelin-contracts/2296[forum post] for more information."
      },
      "getRoleMemberCount(bytes32)": {
        "details": "Returns the number of accounts that have `role`. Can be used together with {getRoleMember} to enumerate all bearers of a role."
      },
      "grantRole(bytes32,address)": {
        "details": "Grants `role` to `account`. If `account` had not been already granted `role`, emits a {RoleGranted} event. Requirements: - the caller must have ``role``'s admin role."
      },
      "hasRole(bytes32,address)": {
        "details": "Returns `true` if `account` has been granted `role`."
      },
      "renounceRole(bytes32,address)": {
        "details": "Revokes `role` from the calling account. Roles are often managed via {grantRole} and {revokeRole}: this function's purpose is to provide a mechanism for accounts to lose their privileges if they are compromised (such as when a trusted device is misplaced). If the calling account had been granted `role`, emits a {RoleRevoked} event. Requirements: - the caller must be `account`."
      },
      "revokeRole(bytes32,address)": {
        "details": "Revokes `role` from `account`. If `account` had been granted `role`, emits a {RoleRevoked} event. Requirements: - the caller must have ``role``'s admin role."
      }
    },
    "version": 1
  },
  "userdoc": {
    "kind": "user",
    "methods": {},
    "version": 1
  }
}