{
  "contractName": "BlockManager",
  "abi": [
    {
      "anonymous": false,
      "inputs": [
        {
          "indexed": false,
          "internalType": "uint256",
          "name": "epoch",
          "type": "uint256"
        },
        {
          "indexed": false,
          "internalType": "uint256",
          "name": "stakerId",
          "type": "uint256"
        },
        {
          "indexed": false,
          "internalType": "uint256[]",
          "name": "medians",
          "type": "uint256[]"
        },
        {
          "indexed": false,
          "internalType": "uint256[]",
          "name": "lowerCutoffs",
          "type": "uint256[]"
        },
        {
          "indexed": false,
          "internalType": "uint256[]",
          "name": "higherCutoffs",
          "type": "uint256[]"
        },
        {
          "indexed": false,
          "internalType": "uint256[]",
          "name": "jobIds",
          "type": "uint256[]"
        },
        {
          "indexed": false,
          "internalType": "uint256",
          "name": "timestamp",
          "type": "uint256"
        }
      ],
      "name": "BlockConfirmed",
      "type": "event"
    },
    {
      "anonymous": false,
      "inputs": [
        {
          "indexed": false,
          "internalType": "uint256",
          "name": "a",
          "type": "uint256"
        }
      ],
      "name": "DebugUint256",
      "type": "event"
    },
    {
      "anonymous": false,
      "inputs": [
        {
          "indexed": false,
          "internalType": "uint256",
          "name": "epoch",
          "type": "uint256"
        },
        {
          "indexed": false,
          "internalType": "uint256",
          "name": "stakerId",
          "type": "uint256"
        },
        {
          "indexed": false,
          "internalType": "uint256[]",
          "name": "jobIds",
          "type": "uint256[]"
        },
        {
          "indexed": false,
          "internalType": "uint256[]",
          "name": "medians",
          "type": "uint256[]"
        },
        {
          "indexed": false,
          "internalType": "uint256[]",
          "name": "lowerCutoffs",
          "type": "uint256[]"
        },
        {
          "indexed": false,
          "internalType": "uint256[]",
          "name": "higherCutoffs",
          "type": "uint256[]"
        },
        {
          "indexed": false,
          "internalType": "uint256",
          "name": "iteration",
          "type": "uint256"
        },
        {
          "indexed": false,
          "internalType": "uint256",
          "name": "biggestStakerId",
          "type": "uint256"
        },
        {
          "indexed": false,
          "internalType": "uint256",
          "name": "timestamp",
          "type": "uint256"
        }
      ],
      "name": "Proposed",
      "type": "event"
    },
    {
      "anonymous": false,
      "inputs": [
        {
          "indexed": true,
          "internalType": "bytes32",
          "name": "role",
          "type": "bytes32"
        },
        {
          "indexed": true,
          "internalType": "bytes32",
          "name": "previousAdminRole",
          "type": "bytes32"
        },
        {
          "indexed": true,
          "internalType": "bytes32",
          "name": "newAdminRole",
          "type": "bytes32"
        }
      ],
      "name": "RoleAdminChanged",
      "type": "event"
    },
    {
      "anonymous": false,
      "inputs": [
        {
          "indexed": true,
          "internalType": "bytes32",
          "name": "role",
          "type": "bytes32"
        },
        {
          "indexed": true,
          "internalType": "address",
          "name": "account",
          "type": "address"
        },
        {
          "indexed": true,
          "internalType": "address",
          "name": "sender",
          "type": "address"
        }
      ],
      "name": "RoleGranted",
      "type": "event"
    },
    {
      "anonymous": false,
      "inputs": [
        {
          "indexed": true,
          "internalType": "bytes32",
          "name": "role",
          "type": "bytes32"
        },
        {
          "indexed": true,
          "internalType": "address",
          "name": "account",
          "type": "address"
        },
        {
          "indexed": true,
          "internalType": "address",
          "name": "sender",
          "type": "address"
        }
      ],
      "name": "RoleRevoked",
      "type": "event"
    },
    {
      "inputs": [],
      "name": "DEFAULT_ADMIN_ROLE",
      "outputs": [
        {
          "internalType": "bytes32",
          "name": "",
          "type": "bytes32"
        }
      ],
      "stateMutability": "view",
      "type": "function",
      "constant": true
    },
    {
      "inputs": [
        {
          "internalType": "uint256",
          "name": "",
          "type": "uint256"
        }
      ],
      "name": "blocks",
      "outputs": [
        {
          "internalType": "uint256",
          "name": "proposerId",
          "type": "uint256"
        },
        {
          "internalType": "uint256",
          "name": "iteration",
          "type": "uint256"
        },
        {
          "internalType": "uint256",
          "name": "biggestStake",
          "type": "uint256"
        },
        {
          "internalType": "bool",
          "name": "valid",
          "type": "bool"
        }
      ],
      "stateMutability": "view",
      "type": "function",
      "constant": true
    },
    {
      "inputs": [
        {
          "internalType": "uint256",
          "name": "",
          "type": "uint256"
        },
        {
          "internalType": "address",
          "name": "",
          "type": "address"
        }
      ],
      "name": "disputes",
      "outputs": [
        {
          "internalType": "uint256",
          "name": "accWeight",
          "type": "uint256"
        },
        {
          "internalType": "uint256",
          "name": "median",
          "type": "uint256"
        },
        {
          "internalType": "uint256",
          "name": "lowerCutoff",
          "type": "uint256"
        },
        {
          "internalType": "uint256",
          "name": "higherCutoff",
          "type": "uint256"
        },
        {
          "internalType": "uint256",
          "name": "lastVisited",
          "type": "uint256"
        },
        {
          "internalType": "uint256",
          "name": "assetId",
          "type": "uint256"
        }
      ],
      "stateMutability": "view",
      "type": "function",
      "constant": true
    },
    {
      "inputs": [
        {
          "internalType": "bytes32",
          "name": "role",
          "type": "bytes32"
        }
      ],
      "name": "getRoleAdmin",
      "outputs": [
        {
          "internalType": "bytes32",
          "name": "",
          "type": "bytes32"
        }
      ],
      "stateMutability": "view",
      "type": "function",
      "constant": true
    },
    {
      "inputs": [
        {
          "internalType": "bytes32",
          "name": "role",
          "type": "bytes32"
        },
        {
          "internalType": "uint256",
          "name": "index",
          "type": "uint256"
        }
      ],
      "name": "getRoleMember",
      "outputs": [
        {
          "internalType": "address",
          "name": "",
          "type": "address"
        }
      ],
      "stateMutability": "view",
      "type": "function",
      "constant": true
    },
    {
      "inputs": [
        {
          "internalType": "bytes32",
          "name": "role",
          "type": "bytes32"
        }
      ],
      "name": "getRoleMemberCount",
      "outputs": [
        {
          "internalType": "uint256",
          "name": "",
          "type": "uint256"
        }
      ],
      "stateMutability": "view",
      "type": "function",
      "constant": true
    },
    {
      "inputs": [
        {
          "internalType": "bytes32",
          "name": "role",
          "type": "bytes32"
        },
        {
          "internalType": "address",
          "name": "account",
          "type": "address"
        }
      ],
      "name": "grantRole",
      "outputs": [],
      "stateMutability": "nonpayable",
      "type": "function"
    },
    {
      "inputs": [
        {
          "internalType": "bytes32",
          "name": "role",
          "type": "bytes32"
        },
        {
          "internalType": "address",
          "name": "account",
          "type": "address"
        }
      ],
      "name": "hasRole",
      "outputs": [
        {
          "internalType": "bool",
          "name": "",
          "type": "bool"
        }
      ],
      "stateMutability": "view",
      "type": "function",
      "constant": true
    },
    {
      "inputs": [],
      "name": "jobManager",
      "outputs": [
        {
          "internalType": "contract IJobManager",
          "name": "",
          "type": "address"
        }
      ],
      "stateMutability": "view",
      "type": "function",
      "constant": true
    },
    {
      "inputs": [
        {
          "internalType": "uint256",
          "name": "",
          "type": "uint256"
        },
        {
          "internalType": "uint256",
          "name": "",
          "type": "uint256"
        }
      ],
      "name": "proposedBlocks",
      "outputs": [
        {
          "internalType": "uint256",
          "name": "proposerId",
          "type": "uint256"
        },
        {
          "internalType": "uint256",
          "name": "iteration",
          "type": "uint256"
        },
        {
          "internalType": "uint256",
          "name": "biggestStake",
          "type": "uint256"
        },
        {
          "internalType": "bool",
          "name": "valid",
          "type": "bool"
        }
      ],
      "stateMutability": "view",
      "type": "function",
      "constant": true
    },
    {
      "inputs": [
        {
          "internalType": "bytes32",
          "name": "role",
          "type": "bytes32"
        },
        {
          "internalType": "address",
          "name": "account",
          "type": "address"
        }
      ],
      "name": "renounceRole",
      "outputs": [],
      "stateMutability": "nonpayable",
      "type": "function"
    },
    {
      "inputs": [
        {
          "internalType": "bytes32",
          "name": "role",
          "type": "bytes32"
        },
        {
          "internalType": "address",
          "name": "account",
          "type": "address"
        }
      ],
      "name": "revokeRole",
      "outputs": [],
      "stateMutability": "nonpayable",
      "type": "function"
    },
    {
      "inputs": [],
      "name": "stakeManager",
      "outputs": [
        {
          "internalType": "contract IStakeManager",
          "name": "",
          "type": "address"
        }
      ],
      "stateMutability": "view",
      "type": "function",
      "constant": true
    },
    {
      "inputs": [],
      "name": "stateManager",
      "outputs": [
        {
          "internalType": "contract IStateManager",
          "name": "",
          "type": "address"
        }
      ],
      "stateMutability": "view",
      "type": "function",
      "constant": true
    },
    {
      "inputs": [],
      "name": "voteManager",
      "outputs": [
        {
          "internalType": "contract IVoteManager",
          "name": "",
          "type": "address"
        }
      ],
      "stateMutability": "view",
      "type": "function",
      "constant": true
    },
    {
      "inputs": [
        {
          "internalType": "uint256",
          "name": "epoch",
          "type": "uint256"
        }
      ],
      "name": "getBlock",
      "outputs": [
        {
          "components": [
            {
              "internalType": "uint256",
              "name": "proposerId",
              "type": "uint256"
            },
            {
              "internalType": "uint256[]",
              "name": "jobIds",
              "type": "uint256[]"
            },
            {
              "internalType": "uint256[]",
              "name": "medians",
              "type": "uint256[]"
            },
            {
              "internalType": "uint256[]",
              "name": "lowerCutoffs",
              "type": "uint256[]"
            },
            {
              "internalType": "uint256[]",
              "name": "higherCutoffs",
              "type": "uint256[]"
            },
            {
              "internalType": "uint256",
              "name": "iteration",
              "type": "uint256"
            },
            {
              "internalType": "uint256",
              "name": "biggestStake",
              "type": "uint256"
            },
            {
              "internalType": "bool",
              "name": "valid",
              "type": "bool"
            }
          ],
          "internalType": "struct Structs.Block",
          "name": "_block",
          "type": "tuple"
        }
      ],
      "stateMutability": "view",
      "type": "function",
      "constant": true
    },
    {
      "inputs": [
        {
          "internalType": "uint256",
          "name": "epoch",
          "type": "uint256"
        }
      ],
      "name": "getBlockMedians",
      "outputs": [
        {
          "internalType": "uint256[]",
          "name": "_blockMedians",
          "type": "uint256[]"
        }
      ],
      "stateMutability": "view",
      "type": "function",
      "constant": true
    },
    {
      "inputs": [
        {
          "internalType": "uint256",
          "name": "epoch",
          "type": "uint256"
        }
      ],
      "name": "getLowerCutoffs",
      "outputs": [
        {
          "internalType": "uint256[]",
          "name": "_lowerCutoffs",
          "type": "uint256[]"
        }
      ],
      "stateMutability": "view",
      "type": "function",
      "constant": true
    },
    {
      "inputs": [
        {
          "internalType": "uint256",
          "name": "epoch",
          "type": "uint256"
        }
      ],
      "name": "getHigherCutoffs",
      "outputs": [
        {
          "internalType": "uint256[]",
          "name": "_higherCutoffs",
          "type": "uint256[]"
        }
      ],
      "stateMutability": "view",
      "type": "function",
      "constant": true
    },
    {
      "inputs": [
        {
          "internalType": "uint256",
          "name": "epoch",
          "type": "uint256"
        },
        {
          "internalType": "uint256",
          "name": "proposedBlock",
          "type": "uint256"
        }
      ],
      "name": "getProposedBlock",
      "outputs": [
        {
          "components": [
            {
              "internalType": "uint256",
              "name": "proposerId",
              "type": "uint256"
            },
            {
              "internalType": "uint256[]",
              "name": "jobIds",
              "type": "uint256[]"
            },
            {
              "internalType": "uint256[]",
              "name": "medians",
              "type": "uint256[]"
            },
            {
              "internalType": "uint256[]",
              "name": "lowerCutoffs",
              "type": "uint256[]"
            },
            {
              "internalType": "uint256[]",
              "name": "higherCutoffs",
              "type": "uint256[]"
            },
            {
              "internalType": "uint256",
              "name": "iteration",
              "type": "uint256"
            },
            {
              "internalType": "uint256",
              "name": "biggestStake",
              "type": "uint256"
            },
            {
              "internalType": "bool",
              "name": "valid",
              "type": "bool"
            }
          ],
          "internalType": "struct Structs.Block",
          "name": "_block",
          "type": "tuple"
        },
        {
          "internalType": "uint256[]",
          "name": "_blockMedians",
          "type": "uint256[]"
        },
        {
          "internalType": "uint256[]",
          "name": "_lowerCutoffs",
          "type": "uint256[]"
        },
        {
          "internalType": "uint256[]",
          "name": "_higherCutoffs",
          "type": "uint256[]"
        }
      ],
      "stateMutability": "view",
      "type": "function",
      "constant": true
    },
    {
      "inputs": [
        {
          "internalType": "uint256",
          "name": "epoch",
          "type": "uint256"
        },
        {
          "internalType": "uint256",
          "name": "proposedBlock",
          "type": "uint256"
        }
      ],
      "name": "getProposedBlockMedians",
      "outputs": [
        {
          "internalType": "uint256[]",
          "name": "_blockMedians",
          "type": "uint256[]"
        }
      ],
      "stateMutability": "view",
      "type": "function",
      "constant": true
    },
    {
      "inputs": [
        {
          "internalType": "uint256",
          "name": "epoch",
          "type": "uint256"
        }
      ],
      "name": "getNumProposedBlocks",
      "outputs": [
        {
          "internalType": "uint256",
          "name": "",
          "type": "uint256"
        }
      ],
      "stateMutability": "view",
      "type": "function",
      "constant": true
    },
    {
      "inputs": [
        {
          "internalType": "address",
          "name": "_stakeManagerAddress",
          "type": "address"
        },
        {
          "internalType": "address",
          "name": "_stateManagerAddress",
          "type": "address"
        },
        {
          "internalType": "address",
          "name": "_voteManagerAddress",
          "type": "address"
        },
        {
          "internalType": "address",
          "name": "_jobManagerAddress",
          "type": "address"
        }
      ],
      "name": "init",
      "outputs": [],
      "stateMutability": "nonpayable",
      "type": "function"
    },
    {
      "inputs": [
        {
          "internalType": "uint256",
          "name": "epoch",
          "type": "uint256"
        },
        {
          "internalType": "uint256[]",
          "name": "jobIds",
          "type": "uint256[]"
        },
        {
          "internalType": "uint256[]",
          "name": "medians",
          "type": "uint256[]"
        },
        {
          "internalType": "uint256[]",
          "name": "lowerCutoffs",
          "type": "uint256[]"
        },
        {
          "internalType": "uint256[]",
          "name": "higherCutoffs",
          "type": "uint256[]"
        },
        {
          "internalType": "uint256",
          "name": "iteration",
          "type": "uint256"
        },
        {
          "internalType": "uint256",
          "name": "biggestStakerId",
          "type": "uint256"
        }
      ],
      "name": "propose",
      "outputs": [],
      "stateMutability": "nonpayable",
      "type": "function"
    },
    {
      "inputs": [
        {
          "internalType": "uint256",
          "name": "epoch",
          "type": "uint256"
        },
        {
          "internalType": "uint256",
          "name": "assetId",
          "type": "uint256"
        },
        {
          "internalType": "uint256[]",
          "name": "sorted",
          "type": "uint256[]"
        }
      ],
      "name": "giveSorted",
      "outputs": [],
      "stateMutability": "nonpayable",
      "type": "function"
    },
    {
      "inputs": [
        {
          "internalType": "uint256",
          "name": "epoch",
          "type": "uint256"
        }
      ],
      "name": "resetDispute",
      "outputs": [],
      "stateMutability": "nonpayable",
      "type": "function"
    },
    {
      "inputs": [
        {
          "internalType": "uint256",
          "name": "epoch",
          "type": "uint256"
        },
        {
          "internalType": "uint256",
          "name": "blockId",
          "type": "uint256"
        }
      ],
      "name": "finalizeDispute",
      "outputs": [],
      "stateMutability": "nonpayable",
      "type": "function"
    },
    {
      "inputs": [
        {
          "internalType": "uint256",
          "name": "iteration",
          "type": "uint256"
        },
        {
          "internalType": "uint256",
          "name": "biggestStakerId",
          "type": "uint256"
        },
        {
          "internalType": "uint256",
          "name": "stakerId",
          "type": "uint256"
        }
      ],
      "name": "isElectedProposer",
      "outputs": [
        {
          "internalType": "bool",
          "name": "",
          "type": "bool"
        }
      ],
      "stateMutability": "view",
      "type": "function",
      "constant": true
    },
    {
      "inputs": [],
      "name": "confirmBlock",
      "outputs": [],
      "stateMutability": "nonpayable",
      "type": "function"
    }
  ],
  "bytecode": "0x60806040523480156200001157600080fd5b50620000286000336001600160e01b036200002e16565b62000166565b6200004382826001600160e01b036200004716565b5050565b6000828152602081815260409091206200006c918390620026fb620000c9821b17901c565b156200004357620000856001600160e01b03620000f216565b6001600160a01b0316816001600160a01b0316837f2f8788117e7eff1d82e926ec794901d17c78024a50270940304540a733656f0d60405160405180910390a45050565b6000620000e9836001600160a01b0384166001600160e01b03620000f616565b90505b92915050565b3390565b60006200010d83836001600160e01b036200014e16565b6200014557508154600181810184556000848152602080822090930184905584548482528286019093526040902091909155620000ec565b506000620000ec565b60009081526001919091016020526040902054151590565b613c5780620001766000396000f3fe608060405234801561001057600080fd5b50600436106101cf5760003560e01c80637542ff9511610104578063a27ce1ef116100a2578063d547741f11610071578063d547741f146103eb578063e38c7c42146103fe578063f25b3f9914610411578063fae4425d14610424576101cf565b8063a27ce1ef1461038f578063ca15c873146103b2578063d1a4a43d146103c5578063d2a4669a146103d8576101cf565b806391d14854116100de57806391d148541461034957806392b484111461035c5780639b87f6441461037f578063a217fddf14610387576101cf565b80637542ff9514610309578063828496d6146103115780639010d07c14610336576101cf565b806336568abe116101715780633df395a31161014b5780633df395a3146102d357806342c1e587146102db5780634e6753b7146102e35780635ce8772f146102f6576101cf565b806336568abe1461028d578063378ab9a9146102a05780633cd32fd4146102c0576101cf565b80631d69ff9b116101ad5780631d69ff9b14610225578063248a9ca3146102455780632e716fb1146102655780632f2ff15d1461027a576101cf565b806304c07569146101d457806306552ff3146101fd57806317d99c0414610212575b600080fd5b6101e76101e2366004613221565b610437565b6040516101f49190613a09565b60405180910390f35b61021061020b3660046131c6565b6105e7565b005b61021061022036600461331e565b610637565b610238610233366004613431565b610af2565b6040516101f491906135b7565b610258610253366004613221565b610e71565b6040516101f491906135c2565b61026d610e86565b6040516101f49190613590565b610210610288366004613251565b610e95565b61021061029b366004613251565b610edd565b6102b36102ae366004613221565b610f1f565b6040516101f491906135a4565b6102106102ce366004613280565b610f84565b61026d611427565b61026d611436565b6102106102f13660046133e3565b611445565b610210610304366004613221565b611a7e565b61026d611cae565b61032461031f366004613251565b611cbd565b6040516101f496959493929190613bbd565b61026d610344366004613280565b611cfb565b610238610357366004613251565b611d22565b61036f61036a366004613280565b611d40565b6040516101f49493929190613ba0565b610210611d86565b610258612329565b6103a261039d366004613280565b61232e565b6040516101f49493929190613a1c565b6102586103c0366004613221565b612522565b6102b36103d3366004613280565b612539565b6102b36103e6366004613221565b6125bf565b6102106103f9366004613251565b612622565b61025861040c366004613221565b61265c565b61036f61041f366004613221565b61266e565b6102b3610432366004613221565b612698565b61043f613040565b60008281526003602090815260409182902082516101008101845281548152600182018054855181860281018601909652808652919492938581019392908301828280156104ac57602002820191906000526020600020905b815481526020019060010190808311610498575b505050505081526020016002820180548060200260200160405190810160405280929190818152602001828054801561050457602002820191906000526020600020905b8154815260200190600101908083116104f0575b505050505081526020016003820180548060200260200160405190810160405280929190818152602001828054801561055c57602002820191906000526020600020905b815481526020019060010190808311610548575b50505050508152602001600482018054806020026020016040519081016040528092919081815260200182805480156105b457602002820191906000526020600020905b8154815260200190600101908083116105a0575b5050509183525050600582015460208201526006820154604082015260079091015460ff16151560609091015292915050565b600480546001600160a01b039586166001600160a01b0319918216179091556005805494861694821694909417909355600680549285169284169290921790915560078054919093169116179055565b60055460408051630eaf323560e31b8152905189926001600160a01b03169163757991a8916004808301926020929190829003018186803b15801561067b57600080fd5b505afa15801561068f573d6000803e3d6000fd5b505050506040513d601f19601f820116820180604052508101906106b39190613239565b81146106da5760405162461bcd60e51b81526004016106d190613865565b60405180910390fd5b73__Constants_____________________________63c198f8ba6040518163ffffffff1660e01b815260040160206040518083038186803b15801561071e57600080fd5b505af4158015610732573d6000803e3d6000fd5b505050506040513d601f19601f82011682018060405250810190610756919061345c565b60ff16600560009054906101000a90046001600160a01b03166001600160a01b0316631865c57d6040518163ffffffff1660e01b815260040160206040518083038186803b1580156107a757600080fd5b505afa1580156107bb573d6000803e3d6000fd5b505050506040513d601f19601f820116820180604052508101906107df9190613239565b81146107fd5760405162461bcd60e51b81526004016106d190613991565b60048054604051636022a48560e01b81526000926001600160a01b0390921691636022a4859161082f91339101613590565b60206040518083038186803b15801561084757600080fd5b505afa15801561085b573d6000803e3d6000fd5b505050506040513d601f19601f8201168201806040525081019061087f9190613239565b905061088c858583610af2565b6108a85760405162461bcd60e51b81526004016106d1906137af565b73__Constants_____________________________63375b3c0a6040518163ffffffff1660e01b815260040160206040518083038186803b1580156108ec57600080fd5b505af4158015610900573d6000803e3d6000fd5b505050506040513d601f19601f820116820180604052508101906109249190613239565b600480546040516371e4cc7f60e11b81526001600160a01b039091169163e3c998fe91610953918691016135c2565b6101006040518083038186803b15801561096c57600080fd5b505afa158015610980573d6000803e3d6000fd5b505050506040513d601f19601f820116820180604052508101906109a491906132a1565b6040015110156109c65760405162461bcd60e51b81526004016106d190613919565b610a9f8a6040518061010001604052808481526020018c81526020018b81526020018a8152602001898152602001888152602001600460009054906101000a90046001600160a01b03166001600160a01b031663e3c998fe896040518263ffffffff1660e01b8152600401610a3b91906135c2565b6101006040518083038186803b158015610a5457600080fd5b505afa158015610a68573d6000803e3d6000fd5b505050506040513d601f19601f82011682018060405250810190610a8c91906132a1565b6040015181526001602090910152612710565b7fee036cc96c88163f353feaa4d497e88baaebeb631f40ad9b8a6d51bb6fad40768a828b8b8b8b8b8b42604051610ade99989796959493929190613aa0565b60405180910390a150505050505050505050565b600081610c3d600173__Random________________________________635075dbfb600a600460009054906101000a90046001600160a01b03166001600160a01b031663bc788d466040518163ffffffff1660e01b815260040160206040518083038186803b158015610b6457600080fd5b505afa158015610b78573d6000803e3d6000fd5b505050506040513d601f19601f82011682018060405250810190610b9c9190613239565b8a604051602001610bad91906135c2565b604051602081830303815290604052805190602001206040518463ffffffff1660e01b8152600401610be1939291906135de565b60206040518083038186803b158015610bf957600080fd5b505af4158015610c0d573d6000803e3d6000fd5b505050506040513d601f19601f82011682018060405250810190610c319190613239565b9063ffffffff612c5d16565b14610c4a57506000610e6a565b600073__Random________________________________63b07ceab8600a8588604051602001610c7b929190613a92565b604051602081830303815290604052805190602001206040518363ffffffff1660e01b8152600401610cae9291906135cb565b60206040518083038186803b158015610cc657600080fd5b505af4158015610cda573d6000803e3d6000fd5b505050506040513d601f19601f82011682018060405250810190610cfe9190613239565b90506000610d178264010000000063ffffffff612c8216565b600480546040516371e4cc7f60e11b81529293506000926001600160a01b039091169163e3c998fe91610d4c918a91016135c2565b6101006040518083038186803b158015610d6557600080fd5b505afa158015610d79573d6000803e3d6000fd5b505050506040513d601f19601f82011682018060405250810190610d9d91906132a1565b6040908101516004805492516371e4cc7f60e11b8152919350610e4092640100000000926001600160a01b039091169163e3c998fe91610ddf918b91016135c2565b6101006040518083038186803b158015610df857600080fd5b505afa158015610e0c573d6000803e3d6000fd5b505050506040513d601f19601f82011682018060405250810190610e3091906132a1565b604001519063ffffffff612cc416565b610e50838363ffffffff612cc416565b1115610e625760009350505050610e6a565b600193505050505b9392505050565b60009081526020819052604090206002015490565b6005546001600160a01b031681565b600082815260208190526040902060020154610eb390610357612cfe565b610ecf5760405162461bcd60e51b81526004016106d19061368e565b610ed98282612d03565b5050565b610ee5612cfe565b6001600160a01b0316816001600160a01b031614610f155760405162461bcd60e51b81526004016106d1906139ba565b610ed98282612d72565b600081815260036020908152604091829020600201805483518184028101840190945280845260609392830182828015610f7857602002820191906000526020600020905b815481526020019060010190808311610f64575b50939695505050505050565b60055460408051630eaf323560e31b8152905184926001600160a01b03169163757991a8916004808301926020929190829003018186803b158015610fc857600080fd5b505afa158015610fdc573d6000803e3d6000fd5b505050506040513d601f19601f820116820180604052508101906110009190613239565b811461101e5760405162461bcd60e51b81526004016106d190613865565b73__Constants_____________________________63f240f7c36040518163ffffffff1660e01b815260040160206040518083038186803b15801561106257600080fd5b505af4158015611076573d6000803e3d6000fd5b505050506040513d601f19601f8201168201806040525081019061109a919061345c565b60ff16600560009054906101000a90046001600160a01b03166001600160a01b0316631865c57d6040518163ffffffff1660e01b815260040160206040518083038186803b1580156110eb57600080fd5b505afa1580156110ff573d6000803e3d6000fd5b505050506040513d601f19601f820116820180604052508101906111239190613239565b81146111415760405162461bcd60e51b81526004016106d190613991565b60008481526001602090815260408083203384529091529081902060050154600654915163a6a145d960e01b815290916001600160a01b03169063a6a145d9906111919088908590600401613a92565b60206040518083038186803b1580156111a957600080fd5b505afa1580156111bd573d6000803e3d6000fd5b505050506040513d601f19601f820116820180604052508101906111e19190613239565b6000868152600160209081526040808320338452909152902054146112185760405162461bcd60e51b81526004016106d190613950565b60008581526001602081815260408084203385528252808420928301546002808501546003909501548b8752935290842080549194918990811061125857fe5b90600052602060002090600802016000015490506000841161127957600080fd5b600089815260026020526040902080548591908a90811061129657fe5b906000526020600020906008020160020186815481106112b257fe5b906000526020600020015414158061130c5750600089815260026020526040902080548491908a9081106112e257fe5b906000526020600020906008020160030186815481106112fe57fe5b906000526020600020015414155b806113595750600089815260026020526040902080548391908a90811061132f57fe5b9060005260206000209060080201600401868154811061134b57fe5b906000526020600020015414155b1561140457600089815260026020526040812080548a90811061137857fe5b60009182526020909120600890910201600701805460ff191691151591909117905560048054604051630f91ce1960e01b81526001600160a01b0390911691630f91ce19916113cd91859133918f9101613a73565b600060405180830381600087803b1580156113e757600080fd5b505af11580156113fb573d6000803e3d6000fd5b5050505061141c565b60405162461bcd60e51b81526004016106d1906138bc565b505050505050505050565b6007546001600160a01b031681565b6006546001600160a01b031681565b60055460408051630eaf323560e31b8152905185926001600160a01b03169163757991a8916004808301926020929190829003018186803b15801561148957600080fd5b505afa15801561149d573d6000803e3d6000fd5b505050506040513d601f19601f820116820180604052508101906114c19190613239565b81146114df5760405162461bcd60e51b81526004016106d190613865565b73__Constants_____________________________63f240f7c36040518163ffffffff1660e01b815260040160206040518083038186803b15801561152357600080fd5b505af4158015611537573d6000803e3d6000fd5b505050506040513d601f19601f8201168201806040525081019061155b919061345c565b60ff16600560009054906101000a90046001600160a01b03166001600160a01b0316631865c57d6040518163ffffffff1660e01b815260040160206040518083038186803b1580156115ac57600080fd5b505afa1580156115c0573d6000803e3d6000fd5b505050506040513d601f19601f820116820180604052508101906115e49190613239565b81146116025760405162461bcd60e51b81526004016106d190613991565b60065460405163a6a145d960e01b8152600091611698916002916001600160a01b03169063a6a145d99061163c908b908b90600401613a92565b60206040518083038186803b15801561165457600080fd5b505afa158015611668573d6000803e3d6000fd5b505050506040513d601f19601f8201168201806040525081019061168c9190613239565b9063ffffffff612de116565b60065460405163a6a145d960e01b81529192506000916116d6916004916001600160a01b039091169063a6a145d99061163c908c908c908601613a92565b60065460405163a6a145d960e01b81529192506000916117779160049161168c916003916001600160a01b039091169063a6a145d99061171b908f908f908801613a92565b60206040518083038186803b15801561173357600080fd5b505afa158015611747573d6000803e3d6000fd5b505050506040513d601f19601f8201168201806040525081019061176b9190613239565b9063ffffffff612cc416565b60008981526001602090815260408083203384529091529020805460049091015491925090816117c55760008a81526001602090815260408083203384529091529020600501899055611800565b60008a815260016020908152604080832033845290915290206005015489146118005760405162461bcd60e51b81526004016106d19061388e565b60005b8851811015611a4f578189828151811061181957fe5b60200260200101511161183e5760405162461bcd60e51b81526004016106d1906136dd565b88818151811061184a57fe5b6020026020010151915061190c600660009054906101000a90046001600160a01b03166001600160a01b0316639c66556f8d8d8d868151811061188957fe5b60200260200101516040518463ffffffff1660e01b81526004016118af93929190613b8a565b60206040518083038186803b1580156118c757600080fd5b505afa1580156118db573d6000803e3d6000fd5b505050506040513d601f19601f820116820180604052508101906118ff9190613239565b849063ffffffff612c5d16565b60008c81526001602090815260408083203384529091529020600201549093501580156119395750848310155b156119735788818151811061194a57fe5b60209081029190910181015160008d815260018352604080822033835290935291909120600201555b60008b8152600160208181526040808420338552909152909120015415801561199b57508583115b156119d5578881815181106119ac57fe5b60209081029190910181015160008d815260018084526040808320338452909452929020909101555b60008b81526001602090815260408083203384529091529020600301541580156119fe57508383115b15611a3857888181518110611a0f57fe5b60209081029190910181015160008d815260018352604080822033835290935291909120600301555b6127105a1015611a4757611a4f565b600101611803565b506000998a52600160209081526040808c20338d52909152909920600481019990995590975550505050505050565b60055460408051630eaf323560e31b8152905183926001600160a01b03169163757991a8916004808301926020929190829003018186803b158015611ac257600080fd5b505afa158015611ad6573d6000803e3d6000fd5b505050506040513d601f19601f82011682018060405250810190611afa9190613239565b8114611b185760405162461bcd60e51b81526004016106d190613865565b73__Constants_____________________________63f240f7c36040518163ffffffff1660e01b815260040160206040518083038186803b158015611b5c57600080fd5b505af4158015611b70573d6000803e3d6000fd5b505050506040513d601f19601f82011682018060405250810190611b94919061345c565b60ff16600560009054906101000a90046001600160a01b03166001600160a01b0316631865c57d6040518163ffffffff1660e01b815260040160206040518083038186803b158015611be557600080fd5b505afa158015611bf9573d6000803e3d6000fd5b505050506040513d601f19601f82011682018060405250810190611c1d9190613239565b8114611c3b5760405162461bcd60e51b81526004016106d190613991565b50506040805160c08101825260008082526020808301828152838501838152606085018481526080860185815260a0870186815298865260018086528887203388529095529690942094518555905191840191909155516002830155516003820155905160048201559051600590910155565b6004546001600160a01b031681565b600160208181526000938452604080852090915291835291208054918101546002820154600383015460048401546005909401549293919290919086565b6000828152602081905260408120611d19908363ffffffff612e2316565b90505b92915050565b6000828152602081905260408120611d19908363ffffffff612e2f16565b60026020528160005260406000208181548110611d5957fe5b60009182526020909120600890910201805460058201546006830154600790930154919450925060ff1684565b73__Constants_____________________________63d98b3ced6040518163ffffffff1660e01b815260040160206040518083038186803b158015611dca57600080fd5b505af4158015611dde573d6000803e3d6000fd5b505050506040513d601f19601f82011682018060405250810190611e029190613239565b611e0c8133611d22565b611e285760405162461bcd60e51b81526004016106d19061375d565b60055460408051630eaf323560e31b815290516000926001600160a01b03169163757991a8916004808301926020929190829003018186803b158015611e6d57600080fd5b505afa158015611e81573d6000803e3d6000fd5b505050506040513d601f19601f82011682018060405250810190611ea59190613239565b6000198101600090815260036020526040902054909150158015611edb5750600019810160009081526002602052604090205415155b15610ed95760005b600019820160009081526002602052604090205460ff821610156123235760001982016000908152600260205260409020805460ff8316908110611f2357fe5b600091825260209091206007600890920201015460ff161561231b5760001982016000908152600260205260409020805460ff8316908110611f6157fe5b906000526020600020906008020160036000600185038152602001908152602001600020600082015481600001556001820181600101908054611fa5929190613087565b5060028281018054611fba9284019190613087565b5060038281018054611fcf9284019190613087565b5060048281018054611fe49284019190613087565b5060058281015490820155600680830154908201556007918201549101805460ff191660ff92831615151790556000198301600090815260026020526040812080549192909190841690811061203657fe5b90600052602060002090600802016000015490507f5ef264ae9101b91bd7117350c5e85901297fa0569e7a3e07eb7ec0a6281529f06001840382600260006001880381526020019081526020016000208560ff168154811061209457fe5b9060005260206000209060080201600201600260006001890381526020019081526020016000208660ff16815481106120c957fe5b90600052602060002090600802016003016002600060018a0381526020019081526020016000208760ff16815481106120fe57fe5b90600052602060002090600802016004016002600060018b0381526020019081526020016000208860ff168154811061213357fe5b9060005260206000209060080201600101426040516121589796959493929190613b1d565b60405180910390a160005b60001984016000908152600260205260409020805460ff851690811061218557fe5b9060005260206000209060080201600101805490508160ff1610156122af576007546000198501600090815260026020526040902080546001600160a01b03909216916356350bdf919060ff87169081106121dc57fe5b90600052602060002090600802016001018360ff16815481106121fb57fe5b9060005260206000200154600260006001890381526020019081526020016000208660ff168154811061222a57fe5b90600052602060002090600802016002018460ff168154811061224957fe5b90600052602060002001546040518363ffffffff1660e01b8152600401612271929190613a92565b600060405180830381600087803b15801561228b57600080fd5b505af115801561229f573d6000803e3d6000fd5b5050600190920191506121639050565b506004805460405163746c8b6560e01b81526001600160a01b039091169163746c8b65916122e1918591889101613a92565b600060405180830381600087803b1580156122fb57600080fd5b505af115801561230f573d6000803e3d6000fd5b50505050505050612326565b600101611ee3565b50505b50565b600081565b612336613040565b606080606060026000878152602001908152602001600020858154811061235957fe5b90600052602060002090600802016040518061010001604052908160008201548152602001600182018054806020026020016040519081016040528092919081815260200182805480156123cc57602002820191906000526020600020905b8154815260200190600101908083116123b8575b505050505081526020016002820180548060200260200160405190810160405280929190818152602001828054801561242457602002820191906000526020600020905b815481526020019060010190808311612410575b505050505081526020016003820180548060200260200160405190810160405280929190818152602001828054801561247c57602002820191906000526020600020905b815481526020019060010190808311612468575b50505050508152602001600482018054806020026020016040519081016040528092919081815260200182805480156124d457602002820191906000526020600020905b8154815260200190600101908083116124c0575b505050918352505060058201546020820152600682015460408083019190915260079092015460ff161515606091820152908201519082015160808301519299919850965090945092505050565b6000818152602081905260408120611d1c90612e44565b60008281526002602052604090208054606091908390811061255757fe5b90600052602060002090600802016002018054806020026020016040519081016040528092919081815260200182805480156125b257602002820191906000526020600020905b81548152602001906001019080831161259e575b5093979650505050505050565b600081815260036020818152604092839020909101805483518184028101840190945280845260609392830182828015610f785760200282019190600052602060002090815481526020019060010190808311610f645750939695505050505050565b60008281526020819052604090206002015461264090610357612cfe565b610f155760405162461bcd60e51b81526004016106d1906137d4565b60009081526002602052604090205490565b60036020526000908152604090208054600582015460068301546007909301549192909160ff1684565b600081815260036020908152604091829020600401805483518184028101840190945280845260609392830182828015610f785760200282019190600052602060002090815481526020019060010190808311610f645750939695505050505050565b6000611d19836001600160a01b038416612e4f565b6000828152600260205260409020546127ed57600082815260026020908152604082208054600181810183559184529282902084516008909402019283558382015180518594936127659385019201906130d7565b50604082015180516127819160028401916020909101906130d7565b506060820151805161279d9160038401916020909101906130d7565b50608082015180516127b99160048401916020909101906130d7565b5060a0820151600582015560c0820151600682015560e0909101516007909101805460ff1916911515919091179055610ed9565b600082815260026020526040812054905b60008481526002602052604090205481101561289a5760c0830151600085815260026020526040902080548390811061283357fe5b90600052602060002090600802016006015410156128535780915061289a565b60a0830151600085815260026020526040902080548390811061287257fe5b90600052602060002090600802016005015411156128925780915061289a565b6001016127fe565b50600083815260026020908152604082208054600181810183559184529282902085516008909402019283558482015180518694936128dd9385019201906130d7565b50604082015180516128f99160028401916020909101906130d7565b50606082015180516129159160038401916020909101906130d7565b50608082015180516129319160048401916020909101906130d7565b5060a0820151600582015560c0820151600682015560e0909101516007909101805460ff1916911515919091179055600083815260026020526040902054600019015b81811115612a675760008481526002602052604090208054600019830190811061299a57fe5b90600052602060002090600802016002600086815260200190815260200160002082815481106129c657fe5b600091825260209091208254600890920201908155600180830180546129ef9284019190613087565b5060028281018054612a049284019190613087565b5060038281018054612a199284019190613087565b5060048281018054612a2e9284019190613087565b5060058281015490820155600680830154908201556007918201549101805460ff191660ff909216151591909117905560001901612974565b506000838152600260205260409020805483919083908110612a8557fe5b9060005260206000209060080201600082015181600001556020820151816001019080519060200190612ab99291906130d7565b5060408201518051612ad59160028401916020909101906130d7565b5060608201518051612af19160038401916020909101906130d7565b5060808201518051612b0d9160048401916020909101906130d7565b5060a0820151816005015560c0820151816006015560e08201518160070160006101000a81548160ff02191690831515021790555090505073__Constants_____________________________63379597e06040518163ffffffff1660e01b815260040160206040518083038186803b158015612b8957600080fd5b505af4158015612b9d573d6000803e3d6000fd5b505050506040513d601f19601f82011682018060405250810190612bc19190613239565b600084815260026020526040902054111561232357600083815260026020526040902080546000198101908110612bf457fe5b60009182526020822060089091020181815590612c146001830182613112565b612c22600283016000613112565b612c30600383016000613112565b612c3e600483016000613112565b506000600582018190556006820155600701805460ff19169055505050565b600082820183811015611d195760405162461bcd60e51b81526004016106d190613726565b6000611d1983836040518060400160405280601881526020017f536166654d6174683a206d6f64756c6f206279207a65726f0000000000000000815250612e99565b600082612cd357506000611d1c565b82820282848281612ce057fe5b0414611d195760405162461bcd60e51b81526004016106d190613824565b335b90565b6000828152602081905260409020612d21908263ffffffff6126fb16565b15610ed957612d2e612cfe565b6001600160a01b0316816001600160a01b0316837f2f8788117e7eff1d82e926ec794901d17c78024a50270940304540a733656f0d60405160405180910390a45050565b6000828152602081905260409020612d90908263ffffffff612ecd16565b15610ed957612d9d612cfe565b6001600160a01b0316816001600160a01b0316837ff6391f5c32d9c69d2a47ea670b442974b53935d1edc7fd64eb21e047a839171b60405160405180910390a45050565b6000611d1983836040518060400160405280601a81526020017f536166654d6174683a206469766973696f6e206279207a65726f000000000000815250612ee2565b6000611d198383612f19565b6000611d19836001600160a01b038416612f5e565b6000611d1c82612f76565b6000612e5b8383612f5e565b612e9157508154600181810184556000848152602080822090930184905584548482528286019093526040902091909155611d1c565b506000611d1c565b60008183612eba5760405162461bcd60e51b81526004016106d191906135f9565b50828481612ec457fe5b06949350505050565b6000611d19836001600160a01b038416612f7a565b60008183612f035760405162461bcd60e51b81526004016106d191906135f9565b506000838581612f0f57fe5b0495945050505050565b81546000908210612f3c5760405162461bcd60e51b81526004016106d19061364c565b826000018281548110612f4b57fe5b9060005260206000200154905092915050565b60009081526001919091016020526040902054151590565b5490565b600081815260018301602052604081205480156130365783546000198083019190810190600090879083908110612fad57fe5b9060005260206000200154905080876000018481548110612fca57fe5b600091825260208083209091019290925582815260018981019092526040902090840190558654879080612ffa57fe5b60019003818190600052602060002001600090559055866001016000878152602001908152602001600020600090556001945050505050611d1c565b6000915050611d1c565b604051806101000160405280600081526020016060815260200160608152602001606081526020016060815260200160008152602001600081526020016000151581525090565b8280548282559060005260206000209081019282156130c75760005260206000209182015b828111156130c75782548255916001019190600101906130ac565b506130d392915061312c565b5090565b8280548282559060005260206000209081019282156130c7579160200282015b828111156130c75782518255916020019190600101906130f7565b508054600082559060005260206000209081019061232691905b612d0091905b808211156130d35760008155600101613132565b600082601f830112613156578081fd5b813567ffffffffffffffff81111561316c578182fd5b602080820261317c828201613be5565b8381529350818401858301828701840188101561319857600080fd5b600092505b848310156131bb57803582526001929092019190830190830161319d565b505050505092915050565b600080600080608085870312156131db578384fd5b84356131e681613c0c565b935060208501356131f681613c0c565b9250604085013561320681613c0c565b9150606085013561321681613c0c565b939692955090935050565b600060208284031215613232578081fd5b5035919050565b60006020828403121561324a578081fd5b5051919050565b60008060408385031215613263578182fd5b82359150602083013561327581613c0c565b809150509250929050565b60008060408385031215613292578182fd5b50508035926020909101359150565b60006101008083850312156132b4578182fd5b6132bd81613be5565b83518152602084015191506132d182613c0c565b81602082015260408401516040820152606084015160608201526080840151608082015260a084015160a082015260c084015160c082015260e084015160e0820152809250505092915050565b600080600080600080600060e0888a031215613338578283fd5b87359650602088013567ffffffffffffffff80821115613356578485fd5b6133628b838c01613146565b975060408a0135915080821115613377578485fd5b6133838b838c01613146565b965060608a0135915080821115613398578485fd5b6133a48b838c01613146565b955060808a01359150808211156133b9578485fd5b506133c68a828b01613146565b93505060a0880135915060c0880135905092959891949750929550565b6000806000606084860312156133f7578283fd5b8335925060208401359150604084013567ffffffffffffffff81111561341b578182fd5b61342786828701613146565b9150509250925092565b600080600060608486031215613445578081fd5b505081359360208301359350604090920135919050565b60006020828403121561346d578081fd5b815160ff81168114611d19578182fd5b6000815180845260208085019450808401835b838110156134ac57815187529582019590820190600101613490565b509495945050505050565b6000815480845260208085019450838352808320835b838110156134ac578154875295820195600191820191016134cd565b15159052565b600061010082518452602083015181602086015261350f8286018261347d565b604085015192508581036040870152613528818461347d565b915050606084015191508481036060860152613544818361347d565b60808501519250858103608087015261355d818461347d565b91505060a084015160a086015260c084015160c086015260e0840151915061358860e08601836134e9565b949350505050565b6001600160a01b0391909116815260200190565b600060208252611d19602083018461347d565b901515815260200190565b90815260200190565b60ff929092168252602082015260400190565b60ff9390931683526020830191909152604082015260600190565b6000602080835283518082850152825b8181101561362557858101830151858201604001528201613609565b818111156136365783604083870101525b50601f01601f1916929092016040019392505050565b60208082526022908201527f456e756d657261626c655365743a20696e646578206f7574206f6620626f756e604082015261647360f01b606082015260800190565b6020808252602f908201527f416363657373436f6e74726f6c3a2073656e646572206d75737420626520616e60408201526e0818591b5a5b881d1bc819dc985b9d608a1b606082015260800190565b60208082526029908201527f736f727465645b695d206973206e6f742067726561746572207468616e206c616040820152681cdd159a5cda5d195960ba1b606082015260800190565b6020808252601b908201527f536166654d6174683a206164646974696f6e206f766572666c6f770000000000604082015260600190565b60208082526032908201527f416363657373436f6e74726f6c3a2073656e64657220646f65736e74206861766040820152716520617070726f70726961746520726f6c6560701b606082015260800190565b6020808252600b908201526a1b9bdd08195b1958dd195960aa1b604082015260600190565b60208082526030908201527f416363657373436f6e74726f6c3a2073656e646572206d75737420626520616e60408201526f2061646d696e20746f207265766f6b6560801b606082015260800190565b60208082526021908201527f536166654d6174683a206d756c7469706c69636174696f6e206f766572666c6f6040820152607760f81b606082015260800190565b6020808252600f908201526e0d2dcc6dee4e4cac6e840cae0dec6d608b1b604082015260600190565b60208082526014908201527341737365744964206e6f74206d61746368696e6760601b604082015260600190565b60208082526037908201527f50726f706f73656420416c7465726e61746520626c6f636b206973206964656e60408201527f746963616c20746f2070726f706f73656420626c6f636b000000000000000000606082015260800190565b60208082526019908201527f7374616b652062656c6f77206d696e696d756d207374616b6500000000000000604082015260600190565b60208082526021908201527f546f74616c207374616b652072657665616c656420646f65736e74206d6174636040820152600d60fb1b606082015260800190565b6020808252600f908201526e696e636f727265637420737461746560881b604082015260600190565b6020808252602f908201527f416363657373436f6e74726f6c3a2063616e206f6e6c792072656e6f756e636560408201526e103937b632b9903337b91039b2b63360891b606082015260800190565b600060208252611d1960208301846134ef565b600060808252613a2f60808301876134ef565b8281036020840152613a41818761347d565b8381036040850152613a53818761347d565b9150508281036060840152613a68818561347d565b979650505050505050565b9283526001600160a01b03919091166020830152604082015260600190565b918252602082015260400190565b60006101208b83528a6020840152806040840152613ac08184018b61347d565b8381036060850152613ad2818b61347d565b9150508281036080840152613ae7818961347d565b83810360a0850152613af9818961347d565b60c085019790975250505060e0810192909252610100909101529695505050505050565b600088825287602083015260e06040830152613b3c60e08301886134b7565b8281036060840152613b4e81886134b7565b8381036080850152613b6081886134b7565b91505082810360a0840152613b7581866134b7565b9150508260c083015298975050505050505050565b9283526020830191909152604082015260600190565b938452602084019290925260408301521515606082015260800190565b958652602086019490945260408501929092526060840152608083015260a082015260c00190565b60405181810167ffffffffffffffff81118282101715613c0457600080fd5b604052919050565b6001600160a01b038116811461232657600080fdfea2646970667358221220fa83273a4861b0055e491fb704ecb84f552dd5780535862e45fa1fe41ca7860964736f6c634300060b0033",
  "source": "pragma solidity 0.6.11;\r\npragma experimental ABIEncoderV2;\r\nimport \"../lib/Random.sol\";\r\nimport \"./Utils.sol\";\r\nimport \"./BlockStorage.sol\";\r\nimport \"./IStakeManager.sol\";\r\nimport \"./IStateManager.sol\";\r\nimport \"./IVoteManager.sol\";\r\nimport \"./IJobManager.sol\";\r\nimport \"openzeppelin-solidity/contracts/math/SafeMath.sol\";\r\nimport \"./ACL.sol\";\r\nimport \"../lib/Constants.sol\";\r\n\r\ncontract BlockManager is Utils, ACL, BlockStorage {\r\n    using SafeMath for uint256;\r\n    IStakeManager public stakeManager;\r\n    IStateManager public stateManager;\r\n    IVoteManager public voteManager;\r\n    IJobManager public jobManager;\r\n\r\n    modifier checkEpoch (uint256 epoch) {\r\n        require(epoch == stateManager.getEpoch(), \"incorrect epoch\");\r\n        _;\r\n    }\r\n\r\n    modifier checkState (uint256 state) {\r\n        require(state == stateManager.getState(), \"incorrect state\");\r\n        _;\r\n    }\r\n\r\n    function getBlock(uint256 epoch) external view returns(Structs.Block memory _block) {\r\n        return(blocks[epoch]);\r\n    }\r\n\r\n    function getBlockMedians(uint256 epoch) external view returns(uint256[] memory _blockMedians) {\r\n        _blockMedians = blocks[epoch].medians;\r\n        return(_blockMedians);\r\n    }\r\n\r\n    function getLowerCutoffs(uint256 epoch) external view returns(uint256[] memory _lowerCutoffs) {\r\n        _lowerCutoffs = blocks[epoch].lowerCutoffs;\r\n        return(_lowerCutoffs);\r\n    }\r\n\r\n    function getHigherCutoffs(uint256 epoch) external view returns(uint256[] memory _higherCutoffs) {\r\n        _higherCutoffs = blocks[epoch].higherCutoffs;\r\n        return(_higherCutoffs);\r\n    }\r\n\r\n    function getProposedBlock(uint256 epoch, uint256 proposedBlock)\r\n    external view returns(Structs.Block memory _block,\r\n    uint256[] memory _blockMedians,\r\n    uint256[] memory _lowerCutoffs,\r\n    uint256[] memory _higherCutoffs ) {\r\n        _block = proposedBlocks[epoch][proposedBlock];\r\n        return(_block, _block.medians, _block.lowerCutoffs, _block.higherCutoffs);\r\n    }\r\n\r\n    function getProposedBlockMedians(uint256 epoch, uint256 proposedBlock)\r\n    external view returns(uint256[] memory _blockMedians) {\r\n        _blockMedians = proposedBlocks[epoch][proposedBlock].medians;\r\n        return(_blockMedians);\r\n    }\r\n\r\n    function getNumProposedBlocks(uint256 epoch)\r\n    external view returns(uint256) {\r\n        return(proposedBlocks[epoch].length);\r\n    }\r\n\r\n    //disable after init.\r\n    function init(address _stakeManagerAddress, address _stateManagerAddress,\r\n                address _voteManagerAddress, address _jobManagerAddress) public {\r\n        stakeManager = IStakeManager(_stakeManagerAddress);\r\n        stateManager = IStateManager(_stateManagerAddress);\r\n        voteManager = IVoteManager(_voteManagerAddress);\r\n        jobManager = IJobManager(_jobManagerAddress);\r\n    }\r\n\r\n    event Proposed(uint256 epoch,\r\n                    uint256 stakerId,\r\n                    uint256[] jobIds,\r\n                    uint256[] medians,\r\n                    uint256[] lowerCutoffs,\r\n                    uint256[] higherCutoffs,\r\n                    uint256 iteration,\r\n                    uint256 biggestStakerId,\r\n                    uint256 timestamp);\r\n\r\n    // elected proposer proposes block. we use a probabilistic method to elect stakers weighted by stake\r\n    // protocol works like this. select a staker pseudorandomly (not weighted by anything)\r\n    // (todo what if it is below min stake)\r\n    // that staker then tosses a biased coin. bias = hisStake/biggestStake. if its heads, he can propose block\r\n    // end of iteration. try next iteration\r\n    // note that only one staker or no stakers selected in each iteration.\r\n    // stakers elected in higher iterations can also propose hoping that\r\n    // stakers with lower iteration do not propose for some reason\r\n    function propose (uint256 epoch,\r\n                    uint256[] memory jobIds,\r\n                    uint256[] memory medians,\r\n                    uint256[] memory lowerCutoffs,\r\n                    uint256[] memory higherCutoffs,\r\n                    uint256 iteration,\r\n                    uint256 biggestStakerId) public checkEpoch(epoch) checkState(Constants.propose()) {\r\n        uint256 proposerId = stakeManager.getStakerId(msg.sender);\r\n        // SchellingCoin sch = SchellingCoin(schAddress);\r\n        require(isElectedProposer(iteration, biggestStakerId, proposerId), \"not elected\");\r\n        require(stakeManager.getStaker(proposerId).stake >= Constants.minStake(), \"stake below minimum stake\");\r\n\r\n        // check if someone already proposed\r\n        // if (blocks[epoch].proposerId != 0) {\r\n        //     if (blocks[epoch].proposerId == proposerId) {\r\n        //         revert(\"Already Proposed\");\r\n        //     }\r\n        //     // if (stakers[biggestStakerId].stake == blocks[epoch].biggestStake &&\r\n        //     //     proposedBlocks[epoch].length >= Constants.maxAltBlocks()) {\r\n        //     //\r\n        //     //     require(proposedBlocks[epoch][4].iteration > iteration,\r\n        //     //             \"iteration not smaller than last elected staker\");\r\n        //     // } else\r\n        //     if (stakers[biggestStakerId].stake < blocks[epoch].biggestStake) {\r\n        //         revert(\"biggest stakers stake not bigger than as proposed by existing elected staker \");\r\n        //     }\r\n        // }\r\n        // blocks[epoch]\r\n        _insertAppropriately(epoch, Structs.Block(proposerId,\r\n                            jobIds,\r\n                            medians,\r\n                            lowerCutoffs,\r\n                            higherCutoffs,\r\n                            iteration,\r\n                            stakeManager.getStaker(biggestStakerId).stake,\r\n                            true));\r\n        // emit DebugUint256(pushAt);\r\n        // mint and give block reward\r\n        // if (Constants.blockReward() > 0) {\r\n        //     stakers[proposerId].stake = stakers[proposerId].stake.add(Constants.blockReward());\r\n        //     totalStake = totalStake.add(Constants.blockReward());\r\n        //     require(sch.mint(address(this), Constants.blockReward()));\r\n        // }\r\n        emit Proposed(epoch, proposerId, jobIds, medians, lowerCutoffs, higherCutoffs, iteration, biggestStakerId, now);\r\n    }\r\n\r\n    //anyone can give sorted votes in batches in dispute state\r\n    function giveSorted (uint256 epoch, uint256 assetId, uint256[] memory sorted) public\r\n    checkEpoch(epoch) checkState(Constants.dispute()) {\r\n        uint256 medianWeight = voteManager.getTotalStakeRevealed(epoch, assetId).div(2);\r\n        uint256 lowerCutoffWeight = voteManager.getTotalStakeRevealed(epoch, assetId).div(4);\r\n        uint256 higherCutoffWeight = (voteManager.getTotalStakeRevealed(epoch, assetId).mul(3)).div(4);\r\n        uint256 accWeight = disputes[epoch][msg.sender].accWeight;\r\n        uint256 lastVisited = disputes[epoch][msg.sender].lastVisited;\r\n        if (disputes[epoch][msg.sender].accWeight == 0) {\r\n            disputes[epoch][msg.sender].assetId = assetId;\r\n        } else {\r\n            require(disputes[epoch][msg.sender].assetId == assetId, \"AssetId not matching\");\r\n        }\r\n        for (uint256 i = 0; i < sorted.length; i++) {\r\n            require(sorted[i] > lastVisited, \"sorted[i] is not greater than lastVisited\");\r\n            lastVisited = sorted[i];\r\n            accWeight = accWeight.add(voteManager.getVoteWeight(epoch, assetId, sorted[i]));\r\n            //set  median, if conditions meet\r\n            if (disputes[epoch][msg.sender].lowerCutoff == 0 && accWeight >= lowerCutoffWeight) {\r\n                disputes[epoch][msg.sender].lowerCutoff = sorted[i];\r\n            }\r\n            if (disputes[epoch][msg.sender].median == 0 && accWeight > medianWeight) {\r\n                disputes[epoch][msg.sender].median = sorted[i];\r\n            }\r\n            if (disputes[epoch][msg.sender].higherCutoff == 0 && accWeight > higherCutoffWeight) {\r\n                disputes[epoch][msg.sender].higherCutoff = sorted[i];\r\n            }\r\n            //TODO verify how much gas required for below operations and update this value\r\n            if (gasleft() < 10000) break;\r\n        }\r\n        disputes[epoch][msg.sender].lastVisited = lastVisited;\r\n        disputes[epoch][msg.sender].accWeight = accWeight;\r\n    }\r\n\r\n    // //todo test\r\n    // //if any mistake made during giveSorted, resetDispute and start again\r\n    function resetDispute (uint256 epoch) public checkEpoch(epoch) checkState(Constants.dispute()) {\r\n        disputes[epoch][msg.sender] = Structs.Dispute(0, 0, 0, 0, 0, 0);\r\n    }\r\n\r\n    function finalizeDispute (uint256 epoch, uint256 blockId)\r\n    public checkEpoch(epoch) checkState(Constants.dispute()) {\r\n        uint256 assetId = disputes[epoch][msg.sender].assetId;\r\n        require(disputes[epoch][msg.sender].accWeight == voteManager.getTotalStakeRevealed(epoch, assetId),\r\n        \"Total stake revealed doesnt match\");\r\n        uint256 median = disputes[epoch][msg.sender].median;\r\n        uint256 lowerCutoff = disputes[epoch][msg.sender].lowerCutoff;\r\n        uint256 higherCutoff = disputes[epoch][msg.sender].higherCutoff;\r\n        uint256 proposerId = proposedBlocks[epoch][blockId].proposerId;\r\n        //\r\n        require(median > 0);\r\n        if (proposedBlocks[epoch][blockId].medians[assetId] != median ||\r\n            proposedBlocks[epoch][blockId].lowerCutoffs[assetId] != lowerCutoff ||\r\n            proposedBlocks[epoch][blockId].higherCutoffs[assetId] != higherCutoff) {\r\n            proposedBlocks[epoch][blockId].valid = false;\r\n            stakeManager.slash(proposerId, msg.sender, epoch);\r\n        } else {\r\n            revert(\"Proposed Alternate block is identical to proposed block\");\r\n        }\r\n    }\r\n\r\n    function isElectedProposer(uint256 iteration, uint256 biggestStakerId, uint256 stakerId) public view returns(bool) {\r\n       // rand = 0 -> totalStake-1\r\n       //add +1 since prng returns 0 to max-1 and staker start from 1\r\n        if ((Random.prng(10, stakeManager.getNumStakers(), keccak256(abi.encode(iteration))).add(1))\r\n        != stakerId) {return(false);}\r\n        bytes32 randHash = Random.prngHash(10, keccak256(abi.encode(stakerId, iteration)));\r\n        uint256 rand = uint256(randHash).mod(2**32);\r\n        uint256 biggestStake = stakeManager.getStaker(biggestStakerId).stake;\r\n        if (rand.mul(biggestStake) > stakeManager.getStaker(stakerId).stake.mul(2**32)) return(false);\r\n        return(true);\r\n    }\r\n\r\n    event BlockConfirmed(uint256 epoch,\r\n                    uint256 stakerId,\r\n                    uint256[] medians,\r\n                    uint256[] lowerCutoffs,\r\n                    uint256[] higherCutoffs,\r\n                    uint256[] jobIds,\r\n                    uint256 timestamp);\r\n\r\n    function confirmBlock() public onlyRole(Constants.getBlockConfirmerHash()) {\r\n        uint256 epoch = stateManager.getEpoch();\r\n        if (blocks[epoch - 1].proposerId == 0 && proposedBlocks[epoch - 1].length > 0) {\r\n            for (uint8 i=0; i < proposedBlocks[epoch - 1].length; i++) {\r\n                if (proposedBlocks[epoch - 1][i].valid) {\r\n                    blocks[epoch - 1] = proposedBlocks[epoch - 1][i];\r\n                    uint256 proposerId = proposedBlocks[epoch - 1][i].proposerId;\r\n                    emit BlockConfirmed(epoch - 1,\r\n                                        proposerId,\r\n                                        proposedBlocks[epoch - 1][i].medians,\r\n                                        proposedBlocks[epoch - 1][i].lowerCutoffs,\r\n                                        proposedBlocks[epoch - 1][i].higherCutoffs,\r\n                                        proposedBlocks[epoch - 1][i].jobIds,\r\n                                        now);\r\n                    for (uint8 j = 0; j < proposedBlocks[epoch - 1][i].jobIds.length; j++) {\r\n                        jobManager.fulfillJob(proposedBlocks[epoch - 1][i].jobIds[j],\r\n                                            proposedBlocks[epoch - 1][i].medians[j]);\r\n                    }\r\n                    stakeManager.giveBlockReward(proposerId, epoch);\r\n                    return;\r\n                }\r\n            }\r\n        }\r\n    }\r\n\r\n    function _insertAppropriately(uint256 epoch, Structs.Block memory _block) internal {\r\n       // uint256 iteration = _block.iteration;\r\n        if (proposedBlocks[epoch].length == 0) {\r\n            proposedBlocks[epoch].push(_block);\r\n            return;\r\n        }\r\n       // Structs.Block[] memory temp = proposedBlocks[epoch];\r\n       // delete (proposedBlocks[epoch]);\r\n       // bool pushed = false;\r\n       // bool empty = true;\r\n        uint256 pushAt = proposedBlocks[epoch].length;\r\n        for (uint256 i = 0; i < proposedBlocks[epoch].length; i++) {\r\n            if (proposedBlocks[epoch][i].biggestStake < _block.biggestStake) {\r\n                pushAt = i;\r\n                break;\r\n            }\r\n            if (proposedBlocks[epoch][i].iteration > _block.iteration) {\r\n                pushAt = i;\r\n                break;\r\n            }\r\n        }\r\n\r\n        proposedBlocks[epoch].push(_block);\r\n        for (uint256 j = proposedBlocks[epoch].length - 1; j > (pushAt); j--) {\r\n            proposedBlocks[epoch][j] = proposedBlocks[epoch][j - 1];\r\n        }\r\n        // if (pushAt < proposedBlocks[epoch].length) {\r\n\r\n        proposedBlocks[epoch][pushAt] = _block;\r\n        // }\r\n        // if (pushed == false && temp.length < Constants.maxAltBlocks()) {\r\n        //     proposedBlocks[epoch].push(_block);\r\n        // }\r\n        if (proposedBlocks[epoch].length > Constants.maxAltBlocks()) {\r\n            delete (proposedBlocks[epoch][proposedBlocks[epoch].length - 1]);\r\n        }\r\n    }\r\n\r\n\r\n}\r\n",
  "sourcePath": "C:/Users/ASUS/Desktop/Razor/contracts/contracts/Core/BlockManager.sol",
  "compiler": {
    "name": "solc",
    "version": "0.6.11+commit.5ef660b1.Emscripten.clang"
  },
  "schemaVersion": "3.3.2",
  "updatedAt": "2020-12-17T07:50:05.992Z",
  "networkType": "ethereum",
  "devdoc": {
    "kind": "dev",
    "methods": {
      "getRoleAdmin(bytes32)": {
        "details": "Returns the admin role that controls `role`. See {grantRole} and {revokeRole}. To change a role's admin, use {_setRoleAdmin}."
      },
      "getRoleMember(bytes32,uint256)": {
        "details": "Returns one of the accounts that have `role`. `index` must be a value between 0 and {getRoleMemberCount}, non-inclusive. Role bearers are not sorted in any particular way, and their ordering may change at any point. WARNING: When using {getRoleMember} and {getRoleMemberCount}, make sure you perform all queries on the same block. See the following https://forum.openzeppelin.com/t/iterating-over-elements-on-enumerableset-in-openzeppelin-contracts/2296[forum post] for more information."
      },
      "getRoleMemberCount(bytes32)": {
        "details": "Returns the number of accounts that have `role`. Can be used together with {getRoleMember} to enumerate all bearers of a role."
      },
      "grantRole(bytes32,address)": {
        "details": "Grants `role` to `account`. If `account` had not been already granted `role`, emits a {RoleGranted} event. Requirements: - the caller must have ``role``'s admin role."
      },
      "hasRole(bytes32,address)": {
        "details": "Returns `true` if `account` has been granted `role`."
      },
      "renounceRole(bytes32,address)": {
        "details": "Revokes `role` from the calling account. Roles are often managed via {grantRole} and {revokeRole}: this function's purpose is to provide a mechanism for accounts to lose their privileges if they are compromised (such as when a trusted device is misplaced). If the calling account had been granted `role`, emits a {RoleRevoked} event. Requirements: - the caller must be `account`."
      },
      "revokeRole(bytes32,address)": {
        "details": "Revokes `role` from `account`. If `account` had been granted `role`, emits a {RoleRevoked} event. Requirements: - the caller must have ``role``'s admin role."
      }
    },
    "version": 1
  },
  "userdoc": {
    "kind": "user",
    "methods": {},
    "version": 1
  }
}