{
  "contractName": "Bridge",
  "abi": [
    {
      "inputs": [],
      "name": "owner",
      "outputs": [
        {
          "internalType": "address",
          "name": "",
          "type": "address"
        }
      ],
      "stateMutability": "view",
      "type": "function"
    },
    {
      "inputs": [
        {
          "internalType": "uint256",
          "name": "id",
          "type": "uint256"
        },
        {
          "internalType": "uint256",
          "name": "result",
          "type": "uint256"
        }
      ],
      "name": "setResult",
      "outputs": [],
      "stateMutability": "nonpayable",
      "type": "function"
    },
    {
      "inputs": [
        {
          "internalType": "uint256",
          "name": "id",
          "type": "uint256"
        }
      ],
      "name": "getResult",
      "outputs": [
        {
          "internalType": "uint256",
          "name": "",
          "type": "uint256"
        }
      ],
      "stateMutability": "view",
      "type": "function"
    }
  ],
  "bytecode": "0x6080604052600180546001600160a01b0319163317905534801561002257600080fd5b50610130806100326000396000f3fe6080604052348015600f57600080fd5b5060043610603c5760003560e01c8063310efb481460415780638da5cb5b146063578063995e4339146085575b600080fd5b606160048036036040811015605557600080fd5b508035906020013560b1565b005b606960d9565b604080516001600160a01b039092168252519081900360200190f35b609f60048036036020811015609957600080fd5b503560e8565b60408051918252519081900360200190f35b6001546001600160a01b0316331460c757600080fd5b60009182526020829052604090912055565b6001546001600160a01b031681565b6000908152602081905260409020549056fea2646970667358221220d23898b759184ec3fb5e0a8be67dd18f2a81a0d8106b5eaed0f4f9f787114e6264736f6c634300060b0033",
  "source": "pragma solidity 0.6.11;\r\n// pragma experimental ABIEncoderV2;\r\n// import \"../SchellingCoin.sol\";\r\n// import \"./Utils.sol\";\r\n// import \"./BlockStorage.sol\";\r\n// import \"./IStakeManager.sol\";\r\n// import \"./IStateManager.sol\";\r\n// import \"./IVoteManager.sol\";\r\n// import \"./JobStorage.sol\";\r\n// import \"./IStateManager.sol\";\r\n// import \"openzeppelin-solidity/contracts/math/SafeMath.sol\";\r\n// import \"./Core/WriterRole.sol\";\r\n\r\n\r\ncontract Bridge {\r\n\r\n    mapping (uint256 => uint256) results;\r\n    address public owner = msg.sender;\r\n    //disable after init.\r\n    // function init(address _stateManagerAddress) external {\r\n    //     stateManager = IStateManager(_stateManagerAddress);\r\n    // }\r\n\r\n    function setResult(uint256 id, uint256 result) external {\r\n        require(msg.sender == owner);\r\n        results[id] = result;\r\n    }\r\n\r\n    function getResult(uint256 id) external view returns(uint256) {\r\n        return results[id];\r\n    }\r\n}\r\n",
  "sourcePath": "C:/Users/ASUS/Desktop/Razor/contracts/contracts/Bridge.sol",
  "compiler": {
    "name": "solc",
    "version": "0.6.11+commit.5ef660b1.Emscripten.clang"
  },
  "schemaVersion": "3.0.22",
  "updatedAt": "2020-12-16T09:41:43.337Z",
  "devdoc": {
    "kind": "dev",
    "methods": {},
    "version": 1
  },
  "userdoc": {
    "kind": "user",
    "methods": {},
    "version": 1
  }
}