{
  "contractName": "Delegator",
  "abi": [
    {
      "inputs": [],
      "name": "delegate",
      "outputs": [
        {
          "internalType": "address",
          "name": "",
          "type": "address"
        }
      ],
      "stateMutability": "view",
      "type": "function",
      "constant": true
    },
    {
      "inputs": [],
      "name": "jobManager",
      "outputs": [
        {
          "internalType": "contract IJobManager",
          "name": "",
          "type": "address"
        }
      ],
      "stateMutability": "view",
      "type": "function",
      "constant": true
    },
    {
      "inputs": [],
      "name": "owner",
      "outputs": [
        {
          "internalType": "address",
          "name": "",
          "type": "address"
        }
      ],
      "stateMutability": "view",
      "type": "function",
      "constant": true
    },
    {
      "inputs": [
        {
          "internalType": "address",
          "name": "newDelegateAddress",
          "type": "address"
        }
      ],
      "name": "upgradeDelegate",
      "outputs": [],
      "stateMutability": "nonpayable",
      "type": "function"
    },
    {
      "inputs": [
        {
          "internalType": "uint256",
          "name": "id",
          "type": "uint256"
        }
      ],
      "name": "getResult",
      "outputs": [
        {
          "internalType": "uint256",
          "name": "",
          "type": "uint256"
        }
      ],
      "stateMutability": "view",
      "type": "function",
      "constant": true
    },
    {
      "inputs": [
        {
          "internalType": "uint256",
          "name": "id",
          "type": "uint256"
        }
      ],
      "name": "getJob",
      "outputs": [
        {
          "internalType": "string",
          "name": "url",
          "type": "string"
        },
        {
          "internalType": "string",
          "name": "selector",
          "type": "string"
        },
        {
          "internalType": "string",
          "name": "name",
          "type": "string"
        },
        {
          "internalType": "bool",
          "name": "repeat",
          "type": "bool"
        },
        {
          "internalType": "uint256",
          "name": "result",
          "type": "uint256"
        }
      ],
      "stateMutability": "view",
      "type": "function",
      "constant": true
    }
  ],
  "bytecode": "0x6080604052600180546001600160a01b0319163317905534801561002257600080fd5b50610502806100326000396000f3fe608060405234801561001057600080fd5b50600436106100625760003560e01c80632da4e75c146100675780633df395a31461007c5780638da5cb5b1461009a578063995e4339146100a2578063bf22c457146100c2578063c89e4361146100e6575b600080fd5b61007a610075366004610301565b6100ee565b005b610084610131565b6040516100919190610432565b60405180910390f35b610084610140565b6100b56100b03660046103d6565b61014f565b6040516100919190610493565b6100d56100d03660046103d6565b6101d6565b604051610091959493929190610446565b610084610276565b6001546001600160a01b0316331461010557600080fd5b600080546001600160a01b039092166001600160a01b0319928316811790915560028054909216179055565b6002546001600160a01b031681565b6001546001600160a01b031681565b60025460405163995e433960e01b81526000916001600160a01b03169063995e433990610180908590600401610493565b60206040518083038186803b15801561019857600080fd5b505afa1580156101ac573d6000803e3d6000fd5b505050506040513d601f19601f820116820180604052508101906101d091906103ee565b92915050565b60025460405163bf22c45760e01b81526060918291829160009182916001600160a01b03169063bf22c45790610210908990600401610493565b60006040518083038186803b15801561022857600080fd5b505afa15801561023c573d6000803e3d6000fd5b505050506040513d6000823e601f3d908101601f19168201604052610264919081019061032f565b939a9299509097509550909350915050565b6000546001600160a01b031681565b600082601f830112610295578081fd5b815167ffffffffffffffff808211156102ac578283fd5b604051601f8301601f1916810160200182811182821017156102cc578485fd5b6040528281529250828483016020018610156102e757600080fd5b6102f883602083016020880161049c565b50505092915050565b600060208284031215610312578081fd5b81356001600160a01b0381168114610328578182fd5b9392505050565b600080600080600060a08688031215610346578081fd5b855167ffffffffffffffff8082111561035d578283fd5b61036989838a01610285565b9650602088015191508082111561037e578283fd5b61038a89838a01610285565b9550604088015191508082111561039f578283fd5b506103ac88828901610285565b935050606086015180151581146103c1578182fd5b80925050608086015190509295509295909350565b6000602082840312156103e7578081fd5b5035919050565b6000602082840312156103ff578081fd5b5051919050565b6000815180845261041e81602086016020860161049c565b601f01601f19169290920160200192915050565b6001600160a01b0391909116815260200190565b600060a0825261045960a0830188610406565b828103602084015261046b8188610406565b838103604085015261047d8188610406565b9515156060850152505050608001529392505050565b90815260200190565b60005b838110156104b757818101518382015260200161049f565b838111156104c6576000848401525b5050505056fea264697066735822122016f7381922d383216a13bf46c3f5f215acc502da9c085e4bbf2a93f7db99e4ea64736f6c634300060b0033",
  "source": "pragma solidity 0.6.11;\r\npragma experimental ABIEncoderV2;\r\n\r\nimport \"./Core/IJobManager.sol\";\r\n\r\n\r\ncontract Delegator {\r\n    address public delegate;\r\n    address public owner = msg.sender;\r\n    IJobManager public jobManager;\r\n\r\n\r\n    // function Delegator(IController _controller, bytes32 _controllerLookupName) public {\r\n    //     controller = _controller;\r\n    //     controllerLookupName = _controllerLookupName;\r\n    // }\r\n\r\n    function upgradeDelegate(address newDelegateAddress) public {\r\n            require(msg.sender == owner);\r\n            delegate = newDelegateAddress;\r\n            jobManager = IJobManager(newDelegateAddress);\r\n    }\r\n\r\n    function getResult(uint256 id) public view returns(uint256) {\r\n        return jobManager.getResult(id);\r\n    }\r\n\r\n    function getJob(uint256 id) external view returns(string memory url, string memory selector, string memory name, bool repeat, uint256 result) {\r\n            return jobManager.getJob(id);\r\n    }\r\n\r\n\r\n    //\r\n    // function() external payable {\r\n    //     // Do nothing if we haven't properly set up the delegator to delegate calls\r\n    //     if (delegate == 0x0000000000000000000000000000000000000000) {\r\n    //         return;\r\n    //     }\r\n    //\r\n    //     // Get the delegation target contract\r\n    //     address _target = delegate;\r\n    //\r\n    //     assembly {\r\n    //         //0x40 is the address where the next free memory slot is stored in Solidity\r\n    //         let _calldataMemoryOffset := mload(0x40)\r\n    //         // new \"memory end\" including padding. The bitwise operations here ensure we get rounded up to the nearest 32 byte boundary\r\n    //         let _size := and(add(calldatasize, 0x1f), not(0x1f))\r\n    //         // Update the pointer at 0x40 to point at new free memory location so any theoretical allocation doesn't stomp our memory in this call\r\n    //         mstore(0x40, add(_calldataMemoryOffset, _size))\r\n    //         // Copy method signature and parameters of this call into memory\r\n    //         calldatacopy(_calldataMemoryOffset, 0x0, calldatasize)\r\n    //         // Call the actual method via delegation\r\n    //         let _retval := delegatecall(gas, _target, _calldataMemoryOffset, calldatasize, 0, 0)\r\n    //         switch _retval\r\n    //         case 0 {\r\n    //             // 0 == it threw, so we revert\r\n    //             revert(0,0)\r\n    //         } default {\r\n    //             // If the call succeeded return the return data from the delegate call\r\n    //             let _returndataMemoryOffset := mload(0x40)\r\n    //             // Update the pointer at 0x40 again to point at new free memory location so any theoretical allocation doesn't stomp our memory in this call\r\n    //             mstore(0x40, add(_returndataMemoryOffset, returndatasize))\r\n    //             returndatacopy(_returndataMemoryOffset, 0x0, returndatasize)\r\n    //             return(_returndataMemoryOffset, returndatasize)\r\n    //         }\r\n    //     }\r\n    // }\r\n}",
  "sourcePath": "C:/Users/ASUS/Desktop/Razor/contracts/contracts/Delegator.sol",
  "compiler": {
    "name": "solc",
    "version": "0.6.11+commit.5ef660b1.Emscripten.clang"
  },
  "schemaVersion": "3.3.2",
  "updatedAt": "2020-12-17T07:50:06.166Z",
  "networkType": "ethereum",
  "devdoc": {
    "kind": "dev",
    "methods": {},
    "version": 1
  },
  "userdoc": {
    "kind": "user",
    "methods": {},
    "version": 1
  }
}