{
  "contractName": "Faucet",
  "abi": [
    {
      "anonymous": false,
      "inputs": [
        {
          "indexed": false,
          "internalType": "address",
          "name": "_address",
          "type": "address"
        },
        {
          "indexed": false,
          "internalType": "uint256",
          "name": "value",
          "type": "uint256"
        }
      ],
      "name": "Donate",
      "type": "event"
    },
    {
      "inputs": [
        {
          "internalType": "address",
          "name": "",
          "type": "address"
        }
      ],
      "name": "requested",
      "outputs": [
        {
          "internalType": "bool",
          "name": "",
          "type": "bool"
        }
      ],
      "stateMutability": "view",
      "type": "function",
      "constant": true
    },
    {
      "inputs": [],
      "name": "token",
      "outputs": [
        {
          "internalType": "contract ERC20",
          "name": "",
          "type": "address"
        }
      ],
      "stateMutability": "view",
      "type": "function",
      "constant": true
    },
    {
      "inputs": [
        {
          "internalType": "address",
          "name": "_address",
          "type": "address"
        }
      ],
      "name": "init",
      "outputs": [],
      "stateMutability": "nonpayable",
      "type": "function"
    },
    {
      "inputs": [
        {
          "internalType": "address",
          "name": "_address",
          "type": "address"
        }
      ],
      "name": "faucet",
      "outputs": [],
      "stateMutability": "nonpayable",
      "type": "function"
    }
  ],
  "bytecode": "0x608060405234801561001057600080fd5b5061028b806100206000396000f3fe608060405234801561001057600080fd5b506004361061004c5760003560e01c806319ab453c14610051578063b86d1d6314610079578063eecf0b4f1461009f578063fc0c546a146100d9575b600080fd5b6100776004803603602081101561006757600080fd5b50356001600160a01b03166100fd565b005b6100776004803603602081101561008f57600080fd5b50356001600160a01b031661011f565b6100c5600480360360208110156100b557600080fd5b50356001600160a01b0316610231565b604080519115158252519081900360200190f35b6100e1610246565b604080516001600160a01b039092168252519081900360200190f35b600180546001600160a01b0319166001600160a01b0392909216919091179055565b6001600160a01b03811660009081526020819052604090205460ff1661022e576001600160a01b03808216600081815260208181526040808320805460ff1916600190811790915554815163a9059cbb60e01b8152600481019590955269021e19e0c9bab24000006024860152905194169363a9059cbb93604480820194918390030190829087803b1580156101b457600080fd5b505af11580156101c8573d6000803e3d6000fd5b505050506040513d60208110156101de57600080fd5b5050604080516001600160a01b038316815269021e19e0c9bab2400000602082015281517f0553260a2e46b0577270d8992db02d30856ca880144c72d6e9503760946aef13929181900390910190a15b50565b60006020819052908152604090205460ff1681565b6001546001600160a01b03168156fea2646970667358221220b582cc18f7848b2e140cd1358ad0b314769ab2e86e6f5f455ad757d0da69f67764736f6c634300060b0033",
  "source": "pragma solidity 0.6.11;\r\nimport \"openzeppelin-solidity/contracts/token/ERC20/ERC20.sol\";\r\n\r\n\r\ncontract Faucet {\r\n    mapping(address => bool) public requested;\r\n    ERC20 public token;\r\n\r\n    function init(address _address) external {\r\n        token = ERC20(_address);\r\n    }\r\n\r\n    event Donate(address _address, uint256 value);\r\n\r\n//WARNING FOR TESTNET ONLY DISABLE FOR PROD.\r\n//give 10000 sch once per staker\r\n    function faucet(address _address) external {\r\n        if (!requested[_address]) {\r\n            requested[_address] = true;\r\n            token.transfer(_address, 10000*(10**uint256(18)));\r\n            emit Donate(_address,  10000*(10**uint256(18)));\r\n        }\r\n    }\r\n}\r\n",
  "sourcePath": "C:/Users/ASUS/Desktop/Razor/contracts/contracts/Faucet.sol",
  "compiler": {
    "name": "solc",
    "version": "0.6.11+commit.5ef660b1.Emscripten.clang"
  },
  "schemaVersion": "3.3.2",
  "updatedAt": "2020-12-17T07:50:06.163Z",
  "networkType": "ethereum",
  "devdoc": {
    "kind": "dev",
    "methods": {},
    "version": 1
  },
  "userdoc": {
    "kind": "user",
    "methods": {},
    "version": 1
  }
}