{
  "contractName": "JobManager",
  "abi": [
    {
      "anonymous": false,
      "inputs": [
        {
          "indexed": false,
          "internalType": "uint256",
          "name": "id",
          "type": "uint256"
        },
        {
          "indexed": false,
          "internalType": "uint256",
          "name": "epoch",
          "type": "uint256"
        },
        {
          "indexed": false,
          "internalType": "string",
          "name": "url",
          "type": "string"
        },
        {
          "indexed": false,
          "internalType": "string",
          "name": "selector",
          "type": "string"
        },
        {
          "indexed": false,
          "internalType": "string",
          "name": "name",
          "type": "string"
        },
        {
          "indexed": false,
          "internalType": "bool",
          "name": "repeat",
          "type": "bool"
        },
        {
          "indexed": false,
          "internalType": "address",
          "name": "creator",
          "type": "address"
        },
        {
          "indexed": false,
          "internalType": "uint256",
          "name": "credit",
          "type": "uint256"
        },
        {
          "indexed": false,
          "internalType": "uint256",
          "name": "timestamp",
          "type": "uint256"
        }
      ],
      "name": "JobCreated",
      "type": "event"
    },
    {
      "anonymous": false,
      "inputs": [
        {
          "indexed": false,
          "internalType": "uint256",
          "name": "id",
          "type": "uint256"
        },
        {
          "indexed": false,
          "internalType": "uint256",
          "name": "value",
          "type": "uint256"
        },
        {
          "indexed": false,
          "internalType": "uint256",
          "name": "epoch",
          "type": "uint256"
        },
        {
          "indexed": false,
          "internalType": "string",
          "name": "url",
          "type": "string"
        },
        {
          "indexed": false,
          "internalType": "string",
          "name": "selector",
          "type": "string"
        },
        {
          "indexed": false,
          "internalType": "string",
          "name": "name",
          "type": "string"
        },
        {
          "indexed": false,
          "internalType": "bool",
          "name": "repeat",
          "type": "bool"
        },
        {
          "indexed": false,
          "internalType": "address",
          "name": "creator",
          "type": "address"
        },
        {
          "indexed": false,
          "internalType": "uint256",
          "name": "credit",
          "type": "uint256"
        },
        {
          "indexed": false,
          "internalType": "bool",
          "name": "fulfilled",
          "type": "bool"
        },
        {
          "indexed": false,
          "internalType": "uint256",
          "name": "timestamp",
          "type": "uint256"
        }
      ],
      "name": "JobReported",
      "type": "event"
    },
    {
      "anonymous": false,
      "inputs": [
        {
          "indexed": true,
          "internalType": "bytes32",
          "name": "role",
          "type": "bytes32"
        },
        {
          "indexed": true,
          "internalType": "bytes32",
          "name": "previousAdminRole",
          "type": "bytes32"
        },
        {
          "indexed": true,
          "internalType": "bytes32",
          "name": "newAdminRole",
          "type": "bytes32"
        }
      ],
      "name": "RoleAdminChanged",
      "type": "event"
    },
    {
      "anonymous": false,
      "inputs": [
        {
          "indexed": true,
          "internalType": "bytes32",
          "name": "role",
          "type": "bytes32"
        },
        {
          "indexed": true,
          "internalType": "address",
          "name": "account",
          "type": "address"
        },
        {
          "indexed": true,
          "internalType": "address",
          "name": "sender",
          "type": "address"
        }
      ],
      "name": "RoleGranted",
      "type": "event"
    },
    {
      "anonymous": false,
      "inputs": [
        {
          "indexed": true,
          "internalType": "bytes32",
          "name": "role",
          "type": "bytes32"
        },
        {
          "indexed": true,
          "internalType": "address",
          "name": "account",
          "type": "address"
        },
        {
          "indexed": true,
          "internalType": "address",
          "name": "sender",
          "type": "address"
        }
      ],
      "name": "RoleRevoked",
      "type": "event"
    },
    {
      "inputs": [],
      "name": "DEFAULT_ADMIN_ROLE",
      "outputs": [
        {
          "internalType": "bytes32",
          "name": "",
          "type": "bytes32"
        }
      ],
      "stateMutability": "view",
      "type": "function",
      "constant": true
    },
    {
      "inputs": [
        {
          "internalType": "bytes32",
          "name": "role",
          "type": "bytes32"
        }
      ],
      "name": "getRoleAdmin",
      "outputs": [
        {
          "internalType": "bytes32",
          "name": "",
          "type": "bytes32"
        }
      ],
      "stateMutability": "view",
      "type": "function",
      "constant": true
    },
    {
      "inputs": [
        {
          "internalType": "bytes32",
          "name": "role",
          "type": "bytes32"
        },
        {
          "internalType": "uint256",
          "name": "index",
          "type": "uint256"
        }
      ],
      "name": "getRoleMember",
      "outputs": [
        {
          "internalType": "address",
          "name": "",
          "type": "address"
        }
      ],
      "stateMutability": "view",
      "type": "function",
      "constant": true
    },
    {
      "inputs": [
        {
          "internalType": "bytes32",
          "name": "role",
          "type": "bytes32"
        }
      ],
      "name": "getRoleMemberCount",
      "outputs": [
        {
          "internalType": "uint256",
          "name": "",
          "type": "uint256"
        }
      ],
      "stateMutability": "view",
      "type": "function",
      "constant": true
    },
    {
      "inputs": [
        {
          "internalType": "bytes32",
          "name": "role",
          "type": "bytes32"
        },
        {
          "internalType": "address",
          "name": "account",
          "type": "address"
        }
      ],
      "name": "grantRole",
      "outputs": [],
      "stateMutability": "nonpayable",
      "type": "function"
    },
    {
      "inputs": [
        {
          "internalType": "bytes32",
          "name": "role",
          "type": "bytes32"
        },
        {
          "internalType": "address",
          "name": "account",
          "type": "address"
        }
      ],
      "name": "hasRole",
      "outputs": [
        {
          "internalType": "bool",
          "name": "",
          "type": "bool"
        }
      ],
      "stateMutability": "view",
      "type": "function",
      "constant": true
    },
    {
      "inputs": [
        {
          "internalType": "uint256",
          "name": "",
          "type": "uint256"
        }
      ],
      "name": "jobs",
      "outputs": [
        {
          "internalType": "uint256",
          "name": "id",
          "type": "uint256"
        },
        {
          "internalType": "uint256",
          "name": "epoch",
          "type": "uint256"
        },
        {
          "internalType": "string",
          "name": "url",
          "type": "string"
        },
        {
          "internalType": "string",
          "name": "selector",
          "type": "string"
        },
        {
          "internalType": "string",
          "name": "name",
          "type": "string"
        },
        {
          "internalType": "bool",
          "name": "repeat",
          "type": "bool"
        },
        {
          "internalType": "address",
          "name": "creator",
          "type": "address"
        },
        {
          "internalType": "uint256",
          "name": "credit",
          "type": "uint256"
        },
        {
          "internalType": "bool",
          "name": "fulfilled",
          "type": "bool"
        },
        {
          "internalType": "uint256",
          "name": "result",
          "type": "uint256"
        }
      ],
      "stateMutability": "view",
      "type": "function",
      "constant": true
    },
    {
      "inputs": [],
      "name": "numJobs",
      "outputs": [
        {
          "internalType": "uint256",
          "name": "",
          "type": "uint256"
        }
      ],
      "stateMutability": "view",
      "type": "function",
      "constant": true
    },
    {
      "inputs": [
        {
          "internalType": "bytes32",
          "name": "role",
          "type": "bytes32"
        },
        {
          "internalType": "address",
          "name": "account",
          "type": "address"
        }
      ],
      "name": "renounceRole",
      "outputs": [],
      "stateMutability": "nonpayable",
      "type": "function"
    },
    {
      "inputs": [
        {
          "internalType": "bytes32",
          "name": "role",
          "type": "bytes32"
        },
        {
          "internalType": "address",
          "name": "account",
          "type": "address"
        }
      ],
      "name": "revokeRole",
      "outputs": [],
      "stateMutability": "nonpayable",
      "type": "function"
    },
    {
      "inputs": [],
      "name": "stateManager",
      "outputs": [
        {
          "internalType": "contract IStateManager",
          "name": "",
          "type": "address"
        }
      ],
      "stateMutability": "view",
      "type": "function",
      "constant": true
    },
    {
      "inputs": [
        {
          "internalType": "address",
          "name": "_stateManagerAddress",
          "type": "address"
        }
      ],
      "name": "init",
      "outputs": [],
      "stateMutability": "nonpayable",
      "type": "function"
    },
    {
      "inputs": [
        {
          "internalType": "string",
          "name": "url",
          "type": "string"
        },
        {
          "internalType": "string",
          "name": "selector",
          "type": "string"
        },
        {
          "internalType": "string",
          "name": "name",
          "type": "string"
        },
        {
          "internalType": "bool",
          "name": "repeat",
          "type": "bool"
        }
      ],
      "name": "createJob",
      "outputs": [],
      "stateMutability": "payable",
      "type": "function",
      "payable": true
    },
    {
      "inputs": [
        {
          "internalType": "uint256",
          "name": "jobId",
          "type": "uint256"
        },
        {
          "internalType": "uint256",
          "name": "value",
          "type": "uint256"
        }
      ],
      "name": "fulfillJob",
      "outputs": [],
      "stateMutability": "nonpayable",
      "type": "function"
    },
    {
      "inputs": [
        {
          "internalType": "uint256",
          "name": "id",
          "type": "uint256"
        }
      ],
      "name": "getResult",
      "outputs": [
        {
          "internalType": "uint256",
          "name": "",
          "type": "uint256"
        }
      ],
      "stateMutability": "view",
      "type": "function",
      "constant": true
    },
    {
      "inputs": [
        {
          "internalType": "uint256",
          "name": "id",
          "type": "uint256"
        }
      ],
      "name": "getJob",
      "outputs": [
        {
          "internalType": "string",
          "name": "url",
          "type": "string"
        },
        {
          "internalType": "string",
          "name": "selector",
          "type": "string"
        },
        {
          "internalType": "string",
          "name": "name",
          "type": "string"
        },
        {
          "internalType": "bool",
          "name": "repeat",
          "type": "bool"
        },
        {
          "internalType": "uint256",
          "name": "result",
          "type": "uint256"
        }
      ],
      "stateMutability": "view",
      "type": "function",
      "constant": true
    },
    {
      "inputs": [],
      "name": "getNumJobs",
      "outputs": [
        {
          "internalType": "uint256",
          "name": "",
          "type": "uint256"
        }
      ],
      "stateMutability": "view",
      "type": "function",
      "constant": true
    }
  ],
  "bytecode": "0x60806040523480156200001157600080fd5b50620000286000336001600160e01b036200002e16565b62000166565b6200004382826001600160e01b036200004716565b5050565b6000828152602081815260409091206200006c91839062000de1620000c9821b17901c565b156200004357620000856001600160e01b03620000f216565b6001600160a01b0316816001600160a01b0316837f2f8788117e7eff1d82e926ec794901d17c78024a50270940304540a733656f0d60405160405180910390a45050565b6000620000e9836001600160a01b0384166001600160e01b03620000f616565b90505b92915050565b3390565b60006200010d83836001600160e01b036200014e16565b6200014557508154600181810184556000848152602080822090930184905584548482528286019093526040902091909155620000ec565b506000620000ec565b60009081526001919091016020526040902054151590565b6117ed80620001766000396000f3fe6080604052600436106100fe5760003560e01c80637e0c00ed11610095578063995e433911610064578063995e43391461029d578063a217fddf146102bd578063bf22c457146102d2578063ca15c87314610303578063d547741f14610323576100fe565b80637e0c00ed146102265780639010d07c1461023b57806391d148541461025b5780639212051c14610288576100fe565b80632f2ff15d116100d15780632f2ff15d146101b357806336568abe146101d357806356350bdf146101f3578063628aff1d14610213576100fe565b8063180aedf31461010357806319ab453c14610142578063248a9ca3146101645780632e716fb114610191575b600080fd5b34801561010f57600080fd5b5061012361011e3660046111f7565b610343565b6040516101399a9998979695949392919061169f565b60405180910390f35b34801561014e57600080fd5b5061016261015d3660046111c9565b610555565b005b34801561017057600080fd5b5061018461017f3660046111f7565b610577565b6040516101399190611447565b34801561019d57600080fd5b506101a661058c565b6040516101399190611428565b3480156101bf57600080fd5b506101626101ce366004611227565b61059b565b3480156101df57600080fd5b506101626101ee366004611227565b6105ec565b3480156101ff57600080fd5b5061016261020e366004611261565b61062e565b610162610221366004611282565b6107fc565b34801561023257600080fd5b50610184610ab5565b34801561024757600080fd5b506101a6610256366004611261565b610abc565b34801561026757600080fd5b5061027b610276366004611227565b610ae3565b604051610139919061143c565b34801561029457600080fd5b50610184610b01565b3480156102a957600080fd5b506101846102b83660046111f7565b610b07565b3480156102c957600080fd5b50610184610b1c565b3480156102de57600080fd5b506102f26102ed3660046111f7565b610b21565b604051610139959493929190611450565b34801561030f57600080fd5b5061018461031e3660046111f7565b610d90565b34801561032f57600080fd5b5061016261033e366004611227565b610da7565b6001602052806000526040600020600091509050806000015490806001015490806002018054600181600116156101000203166002900480601f0160208091040260200160405190810160405280929190818152602001828054600181600116156101000203166002900480156103fb5780601f106103d0576101008083540402835291602001916103fb565b820191906000526020600020905b8154815290600101906020018083116103de57829003601f168201915b5050505060038301805460408051602060026001851615610100026000190190941693909304601f810184900484028201840190925281815294959493509083018282801561048b5780601f106104605761010080835404028352916020019161048b565b820191906000526020600020905b81548152906001019060200180831161046e57829003601f168201915b5050505060048301805460408051602060026001851615610100026000190190941693909304601f810184900484028201840190925281815294959493509083018282801561051b5780601f106104f05761010080835404028352916020019161051b565b820191906000526020600020905b8154815290600101906020018083116104fe57829003601f168201915b50505050600583015460068401546007850154600890950154939460ff808416956101009094046001600160a01b0316945091929116908a565b600380546001600160a01b0319166001600160a01b0392909216919091179055565b60009081526020819052604090206002015490565b6003546001600160a01b031681565b6000828152602081905260409020600201546105b990610276610df6565b6105de5760405162461bcd60e51b81526004016105d5906114df565b60405180910390fd5b6105e88282610dfa565b5050565b6105f4610df6565b6001600160a01b0316816001600160a01b0316146106245760405162461bcd60e51b81526004016105d5906115d0565b6105e88282610e69565b73__Constants_____________________________637f890b116040518163ffffffff1660e01b815260040160206040518083038186803b15801561067257600080fd5b505af4158015610686573d6000803e3d6000fd5b505050506040513d601f19601f820116820180604052508101906106aa919061120f565b6106b48133610ae3565b6106d05760405162461bcd60e51b81526004016105d59061152e565b60008381526001602090815260408083206003548251630eaf323560e31b815292519194936001600160a01b039091169263757991a89260048083019392829003018186803b15801561072257600080fd5b505afa158015610736573d6000803e3d6000fd5b505050506040513d601f19601f8201168201806040525081019061075a919061120f565b600583015490915060ff166107795760078201805460ff191660011790555b81546005830154600684015460078501546040517f9028bea5bfa7ed26c48df402d89085a995447dc8c1fb167cb92a3c7411b54480946107e89490938a93889360028b019360038c019360048d019360ff808416946101009094046001600160a01b0316939116904290611721565b60405180910390a150600801919091555050565b60028054600101905560035460408051630eaf323560e31b815290516000926001600160a01b03169163757991a8916004808301926020929190829003018186803b15801561084a57600080fd5b505afa15801561085e573d6000803e3d6000fd5b505050506040513d601f19601f82011682018060405250810190610882919061120f565b905061088c61108a565b60405180610140016040528060025481526020018381526020018a8a8080601f016020809104026020016040519081016040528093929190818152602001838380828437600092019190915250505090825250604080516020601f8b0181900481028201810190925289815291810191908a908a9081908401838280828437600092019190915250505090825250604080516020601f8901819004810282018101909252878152918101919088908890819084018382808284376000920182905250938552505050851515602080840191909152336040808501919091523460608501526080840183905260a0909301829052600280548352600180835292849020855181558583015193810193909355928401518051949550859492936109bc939085019291909101906110ea565b50606082015180516109d89160038401916020909101906110ea565b50608082015180516109f49160048401916020909101906110ea565b5060a082015160058201805460c085015160ff1991821693151593909317610100600160a81b0319166101006001600160a01b0390941684021790915560e0840151600684015590830151600783018054909216901515179055610120909101516008909101556002546040517fd4ae17fdeb78e69409330361e8f8475f8027928c6f28eae2195e5ae56570aba091610aa29185908d908d908d908d908d908d908d9033903490429061161f565b60405180910390a1505050505050505050565b6002545b90565b6000828152602081905260408120610ada908363ffffffff610ed816565b90505b92915050565b6000828152602081905260408120610ada908363ffffffff610ee416565b60025481565b60009081526001602052604090206008015490565b600081565b6060806060600080610b3161108a565b6000878152600160208181526040928390208351610140810185528154815281840154818401526002808301805487519681161561010002600019011691909104601f810185900485028601850187528086529195929492860193909190830182828015610be05780601f10610bb557610100808354040283529160200191610be0565b820191906000526020600020905b815481529060010190602001808311610bc357829003601f168201915b505050918352505060038201805460408051602060026001851615610100026000190190941693909304601f8101849004840282018401909252818152938201939291830182828015610c745780601f10610c4957610100808354040283529160200191610c74565b820191906000526020600020905b815481529060010190602001808311610c5757829003601f168201915b505050918352505060048201805460408051602060026001851615610100026000190190941693909304601f8101849004840282018401909252818152938201939291830182828015610d085780601f10610cdd57610100808354040283529160200191610d08565b820191906000526020600020905b815481529060010190602001808311610ceb57829003601f168201915b5050509183525050600582015460ff808216151560208401526101009091046001600160a01b031660408084019190915260068401546060808501919091526007850154909216151560808085019190915260089094015460a09384015284015190840151928401519184015161012090940151909b929a5090985091965090945092505050565b6000818152602081905260408120610add90610ef9565b600082815260208190526040902060020154610dc590610276610df6565b6106245760405162461bcd60e51b81526004016105d590611580565b6000610ada836001600160a01b038416610f04565b3390565b6000828152602081905260409020610e18908263ffffffff610de116565b156105e857610e25610df6565b6001600160a01b0316816001600160a01b0316837f2f8788117e7eff1d82e926ec794901d17c78024a50270940304540a733656f0d60405160405180910390a45050565b6000828152602081905260409020610e87908263ffffffff610f4e16565b156105e857610e94610df6565b6001600160a01b0316816001600160a01b0316837ff6391f5c32d9c69d2a47ea670b442974b53935d1edc7fd64eb21e047a839171b60405160405180910390a45050565b6000610ada8383610f63565b6000610ada836001600160a01b038416610fa8565b6000610add82610fc0565b6000610f108383610fa8565b610f4657508154600181810184556000848152602080822090930184905584548482528286019093526040902091909155610add565b506000610add565b6000610ada836001600160a01b038416610fc4565b81546000908210610f865760405162461bcd60e51b81526004016105d59061149d565b826000018281548110610f9557fe5b9060005260206000200154905092915050565b60009081526001919091016020526040902054151590565b5490565b600081815260018301602052604081205480156110805783546000198083019190810190600090879083908110610ff757fe5b906000526020600020015490508087600001848154811061101457fe5b60009182526020808320909101929092558281526001898101909252604090209084019055865487908061104457fe5b60019003818190600052602060002001600090559055866001016000878152602001908152602001600020600090556001945050505050610add565b6000915050610add565b604051806101400160405280600081526020016000815260200160608152602001606081526020016060815260200160001515815260200160006001600160a01b0316815260200160008152602001600015158152602001600081525090565b828054600181600116156101000203166002900490600052602060002090601f016020900481019282601f1061112b57805160ff1916838001178555611158565b82800160010185558215611158579182015b8281111561115857825182559160200191906001019061113d565b50611164929150611168565b5090565b610ab991905b80821115611164576000815560010161116e565b60008083601f840112611193578182fd5b50813567ffffffffffffffff8111156111aa578182fd5b6020830191508360208285010111156111c257600080fd5b9250929050565b6000602082840312156111da578081fd5b81356001600160a01b03811681146111f0578182fd5b9392505050565b600060208284031215611208578081fd5b5035919050565b600060208284031215611220578081fd5b5051919050565b60008060408385031215611239578081fd5b8235915060208301356001600160a01b0381168114611256578182fd5b809150509250929050565b60008060408385031215611273578182fd5b50508035926020909101359150565b60008060008060008060006080888a03121561129c578283fd5b873567ffffffffffffffff808211156112b3578485fd5b6112bf8b838c01611182565b909950975060208a01359150808211156112d7578485fd5b6112e38b838c01611182565b909750955060408a01359150808211156112fb578485fd5b506113088a828b01611182565b90945092505060608801358015158114611320578182fd5b8091505092959891949750929550565b60008284528282602086013780602084860101526020601f19601f85011685010190509392505050565b60008151808452815b8181101561137f57602081850181015186830182015201611363565b818111156113905782602083870101525b50601f01601f19169290920160200192915050565b600081546001808216600081146113c357600181146113e15761141f565b60028304607f16865260ff198316602087015260408601935061141f565b600283048087526113f1866117ab565b60005b828110156114155781546020828b01015284820191506020810190506113f4565b8801602001955050505b50505092915050565b6001600160a01b0391909116815260200190565b901515815260200190565b90815260200190565b600060a0825261146360a083018861135a565b8281036020840152611475818861135a565b8381036040850152611487818861135a565b9515156060850152505050608001529392505050565b60208082526022908201527f456e756d657261626c655365743a20696e646578206f7574206f6620626f756e604082015261647360f01b606082015260800190565b6020808252602f908201527f416363657373436f6e74726f6c3a2073656e646572206d75737420626520616e60408201526e0818591b5a5b881d1bc819dc985b9d608a1b606082015260800190565b60208082526032908201527f416363657373436f6e74726f6c3a2073656e64657220646f65736e74206861766040820152716520617070726f70726961746520726f6c6560701b606082015260800190565b60208082526030908201527f416363657373436f6e74726f6c3a2073656e646572206d75737420626520616e60408201526f2061646d696e20746f207265766f6b6560801b606082015260800190565b6020808252602f908201527f416363657373436f6e74726f6c3a2063616e206f6e6c792072656e6f756e636560408201526e103937b632b9903337b91039b2b63360891b606082015260800190565b60006101208e83528d60208401528060408401526116408184018d8f611330565b8381036060850152611653818c8e611330565b915050828103608084015261166981898b611330565b96151560a084015250506001600160a01b039390931660c084015260e08301919091526101009091015298975050505050505050565b60006101408c83528b60208401528060408401526116bf8184018c61135a565b83810360608501526116d1818c61135a565b91505082810360808401526116e6818a61135a565b97151560a084015250506001600160a01b039490941660c085015260e084019290925215156101008301526101209091015295945050505050565b60006101608d83528c60208401528b60408401528060608401526117478184018c6113a5565b8381036080850152611759818c6113a5565b91505082810360a084015261176e818a6113a5565b97151560c084015250506001600160a01b039490941660e08501526101008401929092521515610120830152610140909101529695505050505050565b6000908152602090209056fea26469706673582212207e78d98ff116cc0e316e563b0d6eba6101c25f9fbaa3b1ec21899392a81f06f064736f6c634300060b0033",
  "source": "pragma solidity 0.6.11;\r\npragma experimental ABIEncoderV2;\r\nimport \"./JobStorage.sol\";\r\nimport \"./IStateManager.sol\";\r\nimport \"openzeppelin-solidity/contracts/math/SafeMath.sol\";\r\nimport \"./ACL.sol\";\r\nimport \"../lib/Constants.sol\";\r\n\r\ncontract JobManager is ACL, JobStorage {\r\n\r\n    event JobCreated(uint256 id, uint256 epoch, string url, string selector, string name, bool repeat,\r\n                            address creator, uint256 credit, uint256 timestamp);\r\n    // event JobFulfilled(uint256 id, uint256 epoch, string url, string selector, bool repeat,\r\n    //                     address creator, uint256 credit, bool fulfulled);\r\n\r\n    event JobReported(uint256 id, uint256 value, uint256 epoch,\r\n                        string url, string selector, string name, bool repeat,\r\n                        address creator, uint256 credit, bool fulfilled, uint256 timestamp);\r\n\r\n    IStateManager public stateManager;\r\n\r\n    //disable after init.\r\n    function init(address _stateManagerAddress) external {\r\n        stateManager = IStateManager(_stateManagerAddress);\r\n    }\r\n\r\n    function createJob (string calldata url, string calldata selector, string calldata name, bool repeat) external payable {\r\n        numJobs = numJobs + 1;\r\n        uint256 epoch = stateManager.getEpoch();\r\n        Structs.Job memory job = Structs.Job(numJobs, epoch, url, selector, name, repeat, msg.sender, msg.value, false, 0);\r\n        jobs[numJobs] = job;\r\n        emit JobCreated(numJobs, epoch, url, selector, name, repeat, msg.sender, msg.value, now);\r\n        // jobs.push(job);\r\n    }\r\n\r\n    function fulfillJob(uint256 jobId, uint256 value) external onlyRole(Constants.getJobConfirmerHash()){\r\n        Structs.Job storage job = jobs[jobId];\r\n        uint256 epoch = stateManager.getEpoch();\r\n\r\n        if (!job.repeat) {\r\n            job.fulfilled = true;\r\n            // emit JobFulfilled(job.id, epoch, job.url, job.selector,\r\n            //job.repeat, job.creator, job.credit, job.fulfilled);\r\n        }\r\n        emit JobReported(job.id, value, epoch, job.url, job.selector, job.name, job.repeat,\r\n        job.creator, job.credit, job.fulfilled, now);\r\n        job.result = value;\r\n    }\r\n\r\n    function getResult(uint256 id) external view returns(uint256) {\r\n        return jobs[id].result;\r\n    }\r\n\r\n    function getJob(uint256 id) external view returns(string memory url, string memory selector, string memory name, bool repeat, uint256 result) {\r\n        Structs.Job memory job = jobs[id];\r\n        return(job.url, job.selector, job.name, job.repeat, job.result);\r\n    }\r\n\r\n    function getNumJobs() external view returns(uint256) {\r\n        return numJobs;\r\n    }\r\n}\r\n",
  "sourcePath": "C:/Users/ASUS/Desktop/Razor/contracts/contracts/Core/JobManager.sol",
  "compiler": {
    "name": "solc",
    "version": "0.6.11+commit.5ef660b1.Emscripten.clang"
  },
  "schemaVersion": "3.3.2",
  "updatedAt": "2020-12-17T07:50:06.153Z",
  "networkType": "ethereum",
  "devdoc": {
    "kind": "dev",
    "methods": {
      "getRoleAdmin(bytes32)": {
        "details": "Returns the admin role that controls `role`. See {grantRole} and {revokeRole}. To change a role's admin, use {_setRoleAdmin}."
      },
      "getRoleMember(bytes32,uint256)": {
        "details": "Returns one of the accounts that have `role`. `index` must be a value between 0 and {getRoleMemberCount}, non-inclusive. Role bearers are not sorted in any particular way, and their ordering may change at any point. WARNING: When using {getRoleMember} and {getRoleMemberCount}, make sure you perform all queries on the same block. See the following https://forum.openzeppelin.com/t/iterating-over-elements-on-enumerableset-in-openzeppelin-contracts/2296[forum post] for more information."
      },
      "getRoleMemberCount(bytes32)": {
        "details": "Returns the number of accounts that have `role`. Can be used together with {getRoleMember} to enumerate all bearers of a role."
      },
      "grantRole(bytes32,address)": {
        "details": "Grants `role` to `account`. If `account` had not been already granted `role`, emits a {RoleGranted} event. Requirements: - the caller must have ``role``'s admin role."
      },
      "hasRole(bytes32,address)": {
        "details": "Returns `true` if `account` has been granted `role`."
      },
      "renounceRole(bytes32,address)": {
        "details": "Revokes `role` from the calling account. Roles are often managed via {grantRole} and {revokeRole}: this function's purpose is to provide a mechanism for accounts to lose their privileges if they are compromised (such as when a trusted device is misplaced). If the calling account had been granted `role`, emits a {RoleRevoked} event. Requirements: - the caller must be `account`."
      },
      "revokeRole(bytes32,address)": {
        "details": "Revokes `role` from `account`. If `account` had been granted `role`, emits a {RoleRevoked} event. Requirements: - the caller must have ``role``'s admin role."
      }
    },
    "version": 1
  },
  "userdoc": {
    "kind": "user",
    "methods": {},
    "version": 1
  }
}