{
  "contractName": "Random",
  "abi": [
    {
      "inputs": [
        {
          "internalType": "uint8",
          "name": "numBlocks",
          "type": "uint8"
        },
        {
          "internalType": "uint256",
          "name": "max",
          "type": "uint256"
        },
        {
          "internalType": "bytes32",
          "name": "seed",
          "type": "bytes32"
        }
      ],
      "name": "prng",
      "outputs": [
        {
          "internalType": "uint256",
          "name": "",
          "type": "uint256"
        }
      ],
      "stateMutability": "view",
      "type": "function",
      "constant": true
    },
    {
      "inputs": [
        {
          "internalType": "uint8",
          "name": "numBlocks",
          "type": "uint8"
        },
        {
          "internalType": "bytes32",
          "name": "seed",
          "type": "bytes32"
        }
      ],
      "name": "prngHash",
      "outputs": [
        {
          "internalType": "bytes32",
          "name": "",
          "type": "bytes32"
        }
      ],
      "stateMutability": "view",
      "type": "function",
      "constant": true
    },
    {
      "inputs": [
        {
          "internalType": "uint8",
          "name": "numBlocks",
          "type": "uint8"
        }
      ],
      "name": "blockHashes",
      "outputs": [
        {
          "internalType": "bytes32",
          "name": "",
          "type": "bytes32"
        }
      ],
      "stateMutability": "view",
      "type": "function",
      "constant": true
    }
  ],
  "bytecode": "0x610586610026600b82828239805160001a60731461001957fe5b30600052607381538281f3fe730000000000000000000000000000000000000000301460806040526004361061004b5760003560e01c80635075dbfb146100505780637fa00da21461008e578063b07ceab8146100ae575b600080fd5b61007c6004803603606081101561006657600080fd5b5060ff81351690602081013590604001356100d4565b60408051918252519081900360200190f35b61007c600480360360208110156100a457600080fd5b503560ff166100fe565b61007c600480360360408110156100c457600080fd5b5060ff813516906020013561026c565b6000806100e1858461026c565b9050806100f4818663ffffffff6102ab16565b9695505050505050565b600080600061020b73__Constants_____________________________6357d775f86040518163ffffffff1660e01b815260040160206040518083038186803b15801561014a57600080fd5b505af415801561015e573d6000803e3d6000fd5b505050506040513d602081101561017457600080fd5b505160408051630afaeebf60e31b815290516101ff9173__Constants_____________________________916357d775f891600480820192602092909190829003018186803b1580156101c657600080fd5b505af41580156101da573d6000803e3d6000fd5b505050506040513d60208110156101f057600080fd5b5051439063ffffffff6102f416565b9063ffffffff61033616565b905060015b8460ff168160ff161161026357826102318360ff841663ffffffff61038f16565b604080516020808201949094529140828201528051808303820181526060909201905280519101209250600101610210565b50909392505050565b600080610278846100fe565b60408051602080820193909352808201869052815180820383018152606090910190915280519101209150505b92915050565b60006102ed83836040518060400160405280601881526020017f536166654d6174683a206d6f64756c6f206279207a65726f00000000000000008152506103d1565b9392505050565b60006102ed83836040518060400160405280601a81526020017f536166654d6174683a206469766973696f6e206279207a65726f000000000000815250610470565b600082610345575060006102a5565b8282028284828161035257fe5b04146102ed5760405162461bcd60e51b81526004018080602001828103825260218152602001806105306021913960400191505060405180910390fd5b60006102ed83836040518060400160405280601e81526020017f536166654d6174683a207375627472616374696f6e206f766572666c6f7700008152506104d5565b6000818361045d5760405162461bcd60e51b81526004018080602001828103825283818151815260200191508051906020019080838360005b8381101561042257818101518382015260200161040a565b50505050905090810190601f16801561044f5780820380516001836020036101000a031916815260200191505b509250505060405180910390fd5b5082848161046757fe5b06949350505050565b600081836104bf5760405162461bcd60e51b815260206004820181815283516024840152835190928392604490910191908501908083836000831561042257818101518382015260200161040a565b5060008385816104cb57fe5b0495945050505050565b600081848411156105275760405162461bcd60e51b815260206004820181815283516024840152835190928392604490910191908501908083836000831561042257818101518382015260200161040a565b50505090039056fe536166654d6174683a206d756c7469706c69636174696f6e206f766572666c6f77a2646970667358221220a4a232aeca2f879ad8b0ca9b127409d67952e07e9fae8ebf7c652e9f0053f86a64736f6c634300060b0033",
  "immutableReferences": {},
  "source": "pragma solidity 0.6.11;\r\nimport \"openzeppelin-solidity/contracts/math/SafeMath.sol\";\r\nimport \"./Constants.sol\";\r\n\r\n\r\nlibrary Random {\r\n    using SafeMath for uint256;\r\n\r\n    // pseudo random number generator based on block hashes. returns 0 -> max-1\r\n    function prng (uint8 numBlocks, uint256 max, bytes32 seed) public view returns (uint256) {\r\n        bytes32 hashh = prngHash(numBlocks, seed);\r\n        uint256 sum = uint256(hashh);\r\n        return(sum.mod(max));\r\n    }\r\n\r\n    // pseudo random hash generator based on block hashes.\r\n    function prngHash (uint8 numBlocks, bytes32 seed) public view returns(bytes32) {\r\n        bytes32 sum = blockHashes(numBlocks);\r\n        sum = keccak256(abi.encodePacked(sum, seed));\r\n        return(sum);\r\n    }\r\n\r\n    function blockHashes (uint8 numBlocks) public view returns(bytes32) {\r\n        bytes32 sum;\r\n        //lets start from the start of the epoch\r\n        uint256 blockNumberEpochStart = (block.number.div(Constants.epochLength())).mul(Constants.epochLength());\r\n        for (uint8 i = 1; i <= numBlocks; i++) {\r\n            sum = keccak256(abi.encodePacked(sum, blockhash(blockNumberEpochStart.sub(i))));\r\n        }\r\n        return(sum);\r\n    }\r\n}\r\n",
  "sourcePath": "C:\\Users\\ASUS\\Desktop\\Razor\\contracts\\contracts\\lib\\Random.sol",
  "compiler": {
    "name": "solc",
    "version": "0.6.11+commit.5ef660b1.Emscripten.clang"
  },
  "schemaVersion": "3.3.2",
  "updatedAt": "2020-12-17T07:50:05.963Z",
  "networkType": "ethereum",
  "devdoc": {
    "kind": "dev",
    "methods": {},
    "version": 1
  },
  "userdoc": {
    "kind": "user",
    "methods": {},
    "version": 1
  }
}