{
  "contractName": "BlockStorage",
  "abi": [
    {
      "inputs": [
        {
          "internalType": "uint256",
          "name": "",
          "type": "uint256"
        }
      ],
      "name": "blocks",
      "outputs": [
        {
          "internalType": "uint256",
          "name": "proposerId",
          "type": "uint256"
        },
        {
          "internalType": "uint256",
          "name": "iteration",
          "type": "uint256"
        },
        {
          "internalType": "uint256",
          "name": "biggestStake",
          "type": "uint256"
        },
        {
          "internalType": "bool",
          "name": "valid",
          "type": "bool"
        }
      ],
      "stateMutability": "view",
      "type": "function"
    },
    {
      "inputs": [
        {
          "internalType": "uint256",
          "name": "",
          "type": "uint256"
        },
        {
          "internalType": "address",
          "name": "",
          "type": "address"
        }
      ],
      "name": "disputes",
      "outputs": [
        {
          "internalType": "uint256",
          "name": "accWeight",
          "type": "uint256"
        },
        {
          "internalType": "uint256",
          "name": "median",
          "type": "uint256"
        },
        {
          "internalType": "uint256",
          "name": "lowerCutoff",
          "type": "uint256"
        },
        {
          "internalType": "uint256",
          "name": "higherCutoff",
          "type": "uint256"
        },
        {
          "internalType": "uint256",
          "name": "lastVisited",
          "type": "uint256"
        },
        {
          "internalType": "uint256",
          "name": "assetId",
          "type": "uint256"
        }
      ],
      "stateMutability": "view",
      "type": "function"
    },
    {
      "inputs": [
        {
          "internalType": "uint256",
          "name": "",
          "type": "uint256"
        },
        {
          "internalType": "uint256",
          "name": "",
          "type": "uint256"
        }
      ],
      "name": "proposedBlocks",
      "outputs": [
        {
          "internalType": "uint256",
          "name": "proposerId",
          "type": "uint256"
        },
        {
          "internalType": "uint256",
          "name": "iteration",
          "type": "uint256"
        },
        {
          "internalType": "uint256",
          "name": "biggestStake",
          "type": "uint256"
        },
        {
          "internalType": "bool",
          "name": "valid",
          "type": "bool"
        }
      ],
      "stateMutability": "view",
      "type": "function"
    }
  ],
  "bytecode": "0x608060405234801561001057600080fd5b50610245806100206000396000f3fe608060405234801561001057600080fd5b50600436106100415760003560e01c8063828496d61461004657806392b4841114610074578063f25b3f9914610097575b600080fd5b61005961005436600461016f565b6100aa565b60405161006b969594939291906101e7565b60405180910390f35b6100876100823660046101a9565b6100e7565b60405161006b94939291906101ca565b6100876100a5366004610157565b61012d565b6000602081815292815260408082209093529081522080546001820154600283015460038401546004850154600590950154939492939192909186565b6001602052816000526040600020818154811061010057fe5b60009182526020909120600890910201805460058201546006830154600790930154919450925060ff1684565b60026020526000908152604090208054600582015460068301546007909301549192909160ff1684565b600060208284031215610168578081fd5b5035919050565b60008060408385031215610181578081fd5b8235915060208301356001600160a01b038116811461019e578182fd5b809150509250929050565b600080604083850312156101bb578182fd5b50508035926020909101359150565b938452602084019290925260408301521515606082015260800190565b958652602086019490945260408501929092526060840152608083015260a082015260c0019056fea2646970667358221220cd4cc744ae04a169a43b53425656abb85cc477ece9f63e542000402d25f22d8464736f6c634300060b0033",
  "immutableReferences": {},
  "source": "// SPDX-License-Identifier: GPL-3.0\npragma solidity 0.6.11;\npragma experimental ABIEncoderV2;\n\nimport \"../lib/Structs.sol\";\n\n\ncontract BlockStorage {\n    //epoch->address->dispute->assetid\n    mapping (uint256 => mapping (address => Structs.Dispute)) public disputes;\n    //epoch -> numProposedBlocks\n    // mapping (uint256 => uint256) public numProposedBlocks;\n    //epoch -> proposalNumber -> block\n    mapping (uint256 => Structs.Block[]) public proposedBlocks;\n    mapping (uint256 => Structs.Block) public blocks;\n\n    // function getBlock(uint256 epoch) public view returns(Structs.Block memory _block) {\n    //     return(blocks[epoch]);\n    // }\n}\n",
  "sourcePath": "/home/user/Documents/Razor-Internship/contracts/contracts/Core/BlockStorage.sol",
  "compiler": {
    "name": "solc",
    "version": "0.6.11+commit.5ef660b1.Emscripten.clang"
  },
  "schemaVersion": "3.2.2",
  "updatedAt": "2020-07-22T10:04:38.938Z",
  "devdoc": {
    "kind": "dev",
    "methods": {},
    "version": 1
  },
  "userdoc": {
    "kind": "user",
    "methods": {},
    "version": 1
  }
}