{
  "contractName": "BlockManager",
  "abi": [
    {
      "anonymous": false,
      "inputs": [
        {
          "indexed": false,
          "internalType": "uint256",
          "name": "epoch",
          "type": "uint256"
        },
        {
          "indexed": false,
          "internalType": "uint256",
          "name": "stakerId",
          "type": "uint256"
        },
        {
          "indexed": false,
          "internalType": "uint256[]",
          "name": "medians",
          "type": "uint256[]"
        },
        {
          "indexed": false,
          "internalType": "uint256[]",
          "name": "lowerCutoffs",
          "type": "uint256[]"
        },
        {
          "indexed": false,
          "internalType": "uint256[]",
          "name": "higherCutoffs",
          "type": "uint256[]"
        },
        {
          "indexed": false,
          "internalType": "uint256[]",
          "name": "jobIds",
          "type": "uint256[]"
        },
        {
          "indexed": false,
          "internalType": "uint256",
          "name": "timestamp",
          "type": "uint256"
        }
      ],
      "name": "BlockConfirmed",
      "type": "event"
    },
    {
      "anonymous": false,
      "inputs": [
        {
          "indexed": false,
          "internalType": "uint256",
          "name": "a",
          "type": "uint256"
        }
      ],
      "name": "DebugUint256",
      "type": "event"
    },
    {
      "anonymous": false,
      "inputs": [
        {
          "indexed": false,
          "internalType": "uint256",
          "name": "epoch",
          "type": "uint256"
        },
        {
          "indexed": false,
          "internalType": "uint256",
          "name": "stakerId",
          "type": "uint256"
        },
        {
          "indexed": false,
          "internalType": "uint256[]",
          "name": "jobIds",
          "type": "uint256[]"
        },
        {
          "indexed": false,
          "internalType": "uint256[]",
          "name": "medians",
          "type": "uint256[]"
        },
        {
          "indexed": false,
          "internalType": "uint256[]",
          "name": "lowerCutoffs",
          "type": "uint256[]"
        },
        {
          "indexed": false,
          "internalType": "uint256[]",
          "name": "higherCutoffs",
          "type": "uint256[]"
        },
        {
          "indexed": false,
          "internalType": "uint256",
          "name": "iteration",
          "type": "uint256"
        },
        {
          "indexed": false,
          "internalType": "uint256",
          "name": "biggestStakerId",
          "type": "uint256"
        },
        {
          "indexed": false,
          "internalType": "uint256",
          "name": "timestamp",
          "type": "uint256"
        }
      ],
      "name": "Proposed",
      "type": "event"
    },
    {
      "anonymous": false,
      "inputs": [
        {
          "indexed": true,
          "internalType": "bytes32",
          "name": "role",
          "type": "bytes32"
        },
        {
          "indexed": true,
          "internalType": "bytes32",
          "name": "previousAdminRole",
          "type": "bytes32"
        },
        {
          "indexed": true,
          "internalType": "bytes32",
          "name": "newAdminRole",
          "type": "bytes32"
        }
      ],
      "name": "RoleAdminChanged",
      "type": "event"
    },
    {
      "anonymous": false,
      "inputs": [
        {
          "indexed": true,
          "internalType": "bytes32",
          "name": "role",
          "type": "bytes32"
        },
        {
          "indexed": true,
          "internalType": "address",
          "name": "account",
          "type": "address"
        },
        {
          "indexed": true,
          "internalType": "address",
          "name": "sender",
          "type": "address"
        }
      ],
      "name": "RoleGranted",
      "type": "event"
    },
    {
      "anonymous": false,
      "inputs": [
        {
          "indexed": true,
          "internalType": "bytes32",
          "name": "role",
          "type": "bytes32"
        },
        {
          "indexed": true,
          "internalType": "address",
          "name": "account",
          "type": "address"
        },
        {
          "indexed": true,
          "internalType": "address",
          "name": "sender",
          "type": "address"
        }
      ],
      "name": "RoleRevoked",
      "type": "event"
    },
    {
      "anonymous": false,
      "inputs": [
        {
          "indexed": true,
          "internalType": "address",
          "name": "account",
          "type": "address"
        }
      ],
      "name": "WriterAdded",
      "type": "event"
    },
    {
      "anonymous": false,
      "inputs": [
        {
          "indexed": true,
          "internalType": "address",
          "name": "account",
          "type": "address"
        }
      ],
      "name": "WriterRemoved",
      "type": "event"
    },
    {
      "inputs": [],
      "name": "DEFAULT_ADMIN_ROLE",
      "outputs": [
        {
          "internalType": "bytes32",
          "name": "",
          "type": "bytes32"
        }
      ],
      "stateMutability": "view",
      "type": "function"
    },
    {
      "inputs": [
        {
          "internalType": "address",
          "name": "account",
          "type": "address"
        }
      ],
      "name": "addWriter",
      "outputs": [],
      "stateMutability": "nonpayable",
      "type": "function"
    },
    {
      "inputs": [
        {
          "internalType": "uint256",
          "name": "",
          "type": "uint256"
        }
      ],
      "name": "blocks",
      "outputs": [
        {
          "internalType": "uint256",
          "name": "proposerId",
          "type": "uint256"
        },
        {
          "internalType": "uint256",
          "name": "iteration",
          "type": "uint256"
        },
        {
          "internalType": "uint256",
          "name": "biggestStake",
          "type": "uint256"
        },
        {
          "internalType": "bool",
          "name": "valid",
          "type": "bool"
        }
      ],
      "stateMutability": "view",
      "type": "function"
    },
    {
      "inputs": [
        {
          "internalType": "uint256",
          "name": "",
          "type": "uint256"
        },
        {
          "internalType": "address",
          "name": "",
          "type": "address"
        }
      ],
      "name": "disputes",
      "outputs": [
        {
          "internalType": "uint256",
          "name": "accWeight",
          "type": "uint256"
        },
        {
          "internalType": "uint256",
          "name": "median",
          "type": "uint256"
        },
        {
          "internalType": "uint256",
          "name": "lowerCutoff",
          "type": "uint256"
        },
        {
          "internalType": "uint256",
          "name": "higherCutoff",
          "type": "uint256"
        },
        {
          "internalType": "uint256",
          "name": "lastVisited",
          "type": "uint256"
        },
        {
          "internalType": "uint256",
          "name": "assetId",
          "type": "uint256"
        }
      ],
      "stateMutability": "view",
      "type": "function"
    },
    {
      "inputs": [
        {
          "internalType": "bytes32",
          "name": "role",
          "type": "bytes32"
        }
      ],
      "name": "getRoleAdmin",
      "outputs": [
        {
          "internalType": "bytes32",
          "name": "",
          "type": "bytes32"
        }
      ],
      "stateMutability": "view",
      "type": "function"
    },
    {
      "inputs": [
        {
          "internalType": "bytes32",
          "name": "role",
          "type": "bytes32"
        },
        {
          "internalType": "uint256",
          "name": "index",
          "type": "uint256"
        }
      ],
      "name": "getRoleMember",
      "outputs": [
        {
          "internalType": "address",
          "name": "",
          "type": "address"
        }
      ],
      "stateMutability": "view",
      "type": "function"
    },
    {
      "inputs": [
        {
          "internalType": "bytes32",
          "name": "role",
          "type": "bytes32"
        }
      ],
      "name": "getRoleMemberCount",
      "outputs": [
        {
          "internalType": "uint256",
          "name": "",
          "type": "uint256"
        }
      ],
      "stateMutability": "view",
      "type": "function"
    },
    {
      "inputs": [
        {
          "internalType": "bytes32",
          "name": "role",
          "type": "bytes32"
        },
        {
          "internalType": "address",
          "name": "account",
          "type": "address"
        }
      ],
      "name": "grantRole",
      "outputs": [],
      "stateMutability": "nonpayable",
      "type": "function"
    },
    {
      "inputs": [
        {
          "internalType": "bytes32",
          "name": "role",
          "type": "bytes32"
        },
        {
          "internalType": "address",
          "name": "account",
          "type": "address"
        }
      ],
      "name": "hasRole",
      "outputs": [
        {
          "internalType": "bool",
          "name": "",
          "type": "bool"
        }
      ],
      "stateMutability": "view",
      "type": "function"
    },
    {
      "inputs": [
        {
          "internalType": "address",
          "name": "account",
          "type": "address"
        }
      ],
      "name": "isAdmin",
      "outputs": [
        {
          "internalType": "bool",
          "name": "",
          "type": "bool"
        }
      ],
      "stateMutability": "view",
      "type": "function"
    },
    {
      "inputs": [
        {
          "internalType": "address",
          "name": "account",
          "type": "address"
        }
      ],
      "name": "isWriter",
      "outputs": [
        {
          "internalType": "bool",
          "name": "",
          "type": "bool"
        }
      ],
      "stateMutability": "view",
      "type": "function"
    },
    {
      "inputs": [],
      "name": "jobManager",
      "outputs": [
        {
          "internalType": "contract IJobManager",
          "name": "",
          "type": "address"
        }
      ],
      "stateMutability": "view",
      "type": "function"
    },
    {
      "inputs": [
        {
          "internalType": "uint256",
          "name": "",
          "type": "uint256"
        },
        {
          "internalType": "uint256",
          "name": "",
          "type": "uint256"
        }
      ],
      "name": "proposedBlocks",
      "outputs": [
        {
          "internalType": "uint256",
          "name": "proposerId",
          "type": "uint256"
        },
        {
          "internalType": "uint256",
          "name": "iteration",
          "type": "uint256"
        },
        {
          "internalType": "uint256",
          "name": "biggestStake",
          "type": "uint256"
        },
        {
          "internalType": "bool",
          "name": "valid",
          "type": "bool"
        }
      ],
      "stateMutability": "view",
      "type": "function"
    },
    {
      "inputs": [
        {
          "internalType": "bytes32",
          "name": "role",
          "type": "bytes32"
        },
        {
          "internalType": "address",
          "name": "account",
          "type": "address"
        }
      ],
      "name": "renounceRole",
      "outputs": [],
      "stateMutability": "nonpayable",
      "type": "function"
    },
    {
      "inputs": [],
      "name": "renounceWriter",
      "outputs": [],
      "stateMutability": "nonpayable",
      "type": "function"
    },
    {
      "inputs": [
        {
          "internalType": "bytes32",
          "name": "role",
          "type": "bytes32"
        },
        {
          "internalType": "address",
          "name": "account",
          "type": "address"
        }
      ],
      "name": "revokeRole",
      "outputs": [],
      "stateMutability": "nonpayable",
      "type": "function"
    },
    {
      "inputs": [],
      "name": "stakeManager",
      "outputs": [
        {
          "internalType": "contract IStakeManager",
          "name": "",
          "type": "address"
        }
      ],
      "stateMutability": "view",
      "type": "function"
    },
    {
      "inputs": [],
      "name": "stateManager",
      "outputs": [
        {
          "internalType": "contract IStateManager",
          "name": "",
          "type": "address"
        }
      ],
      "stateMutability": "view",
      "type": "function"
    },
    {
      "inputs": [],
      "name": "voteManager",
      "outputs": [
        {
          "internalType": "contract IVoteManager",
          "name": "",
          "type": "address"
        }
      ],
      "stateMutability": "view",
      "type": "function"
    },
    {
      "inputs": [
        {
          "internalType": "uint256",
          "name": "epoch",
          "type": "uint256"
        }
      ],
      "name": "getBlock",
      "outputs": [
        {
          "components": [
            {
              "internalType": "uint256",
              "name": "proposerId",
              "type": "uint256"
            },
            {
              "internalType": "uint256[]",
              "name": "jobIds",
              "type": "uint256[]"
            },
            {
              "internalType": "uint256[]",
              "name": "medians",
              "type": "uint256[]"
            },
            {
              "internalType": "uint256[]",
              "name": "lowerCutoffs",
              "type": "uint256[]"
            },
            {
              "internalType": "uint256[]",
              "name": "higherCutoffs",
              "type": "uint256[]"
            },
            {
              "internalType": "uint256",
              "name": "iteration",
              "type": "uint256"
            },
            {
              "internalType": "uint256",
              "name": "biggestStake",
              "type": "uint256"
            },
            {
              "internalType": "bool",
              "name": "valid",
              "type": "bool"
            }
          ],
          "internalType": "struct Structs.Block",
          "name": "_block",
          "type": "tuple"
        }
      ],
      "stateMutability": "view",
      "type": "function"
    },
    {
      "inputs": [
        {
          "internalType": "uint256",
          "name": "epoch",
          "type": "uint256"
        }
      ],
      "name": "getBlockMedians",
      "outputs": [
        {
          "internalType": "uint256[]",
          "name": "_blockMedians",
          "type": "uint256[]"
        }
      ],
      "stateMutability": "view",
      "type": "function"
    },
    {
      "inputs": [
        {
          "internalType": "uint256",
          "name": "epoch",
          "type": "uint256"
        }
      ],
      "name": "getLowerCutoffs",
      "outputs": [
        {
          "internalType": "uint256[]",
          "name": "_lowerCutoffs",
          "type": "uint256[]"
        }
      ],
      "stateMutability": "view",
      "type": "function"
    },
    {
      "inputs": [
        {
          "internalType": "uint256",
          "name": "epoch",
          "type": "uint256"
        }
      ],
      "name": "getHigherCutoffs",
      "outputs": [
        {
          "internalType": "uint256[]",
          "name": "_higherCutoffs",
          "type": "uint256[]"
        }
      ],
      "stateMutability": "view",
      "type": "function"
    },
    {
      "inputs": [
        {
          "internalType": "uint256",
          "name": "epoch",
          "type": "uint256"
        },
        {
          "internalType": "uint256",
          "name": "proposedBlock",
          "type": "uint256"
        }
      ],
      "name": "getProposedBlock",
      "outputs": [
        {
          "components": [
            {
              "internalType": "uint256",
              "name": "proposerId",
              "type": "uint256"
            },
            {
              "internalType": "uint256[]",
              "name": "jobIds",
              "type": "uint256[]"
            },
            {
              "internalType": "uint256[]",
              "name": "medians",
              "type": "uint256[]"
            },
            {
              "internalType": "uint256[]",
              "name": "lowerCutoffs",
              "type": "uint256[]"
            },
            {
              "internalType": "uint256[]",
              "name": "higherCutoffs",
              "type": "uint256[]"
            },
            {
              "internalType": "uint256",
              "name": "iteration",
              "type": "uint256"
            },
            {
              "internalType": "uint256",
              "name": "biggestStake",
              "type": "uint256"
            },
            {
              "internalType": "bool",
              "name": "valid",
              "type": "bool"
            }
          ],
          "internalType": "struct Structs.Block",
          "name": "_block",
          "type": "tuple"
        },
        {
          "internalType": "uint256[]",
          "name": "_blockMedians",
          "type": "uint256[]"
        },
        {
          "internalType": "uint256[]",
          "name": "_lowerCutoffs",
          "type": "uint256[]"
        },
        {
          "internalType": "uint256[]",
          "name": "_higherCutoffs",
          "type": "uint256[]"
        }
      ],
      "stateMutability": "view",
      "type": "function"
    },
    {
      "inputs": [
        {
          "internalType": "uint256",
          "name": "epoch",
          "type": "uint256"
        },
        {
          "internalType": "uint256",
          "name": "proposedBlock",
          "type": "uint256"
        }
      ],
      "name": "getProposedBlockMedians",
      "outputs": [
        {
          "internalType": "uint256[]",
          "name": "_blockMedians",
          "type": "uint256[]"
        }
      ],
      "stateMutability": "view",
      "type": "function"
    },
    {
      "inputs": [
        {
          "internalType": "uint256",
          "name": "epoch",
          "type": "uint256"
        }
      ],
      "name": "getNumProposedBlocks",
      "outputs": [
        {
          "internalType": "uint256",
          "name": "",
          "type": "uint256"
        }
      ],
      "stateMutability": "view",
      "type": "function"
    },
    {
      "inputs": [
        {
          "internalType": "address",
          "name": "_stakeManagerAddress",
          "type": "address"
        },
        {
          "internalType": "address",
          "name": "_stateManagerAddress",
          "type": "address"
        },
        {
          "internalType": "address",
          "name": "_voteManagerAddress",
          "type": "address"
        },
        {
          "internalType": "address",
          "name": "_jobManagerAddress",
          "type": "address"
        }
      ],
      "name": "init",
      "outputs": [],
      "stateMutability": "nonpayable",
      "type": "function"
    },
    {
      "inputs": [
        {
          "internalType": "uint256",
          "name": "epoch",
          "type": "uint256"
        },
        {
          "internalType": "uint256[]",
          "name": "jobIds",
          "type": "uint256[]"
        },
        {
          "internalType": "uint256[]",
          "name": "medians",
          "type": "uint256[]"
        },
        {
          "internalType": "uint256[]",
          "name": "lowerCutoffs",
          "type": "uint256[]"
        },
        {
          "internalType": "uint256[]",
          "name": "higherCutoffs",
          "type": "uint256[]"
        },
        {
          "internalType": "uint256",
          "name": "iteration",
          "type": "uint256"
        },
        {
          "internalType": "uint256",
          "name": "biggestStakerId",
          "type": "uint256"
        }
      ],
      "name": "propose",
      "outputs": [],
      "stateMutability": "nonpayable",
      "type": "function"
    },
    {
      "inputs": [
        {
          "internalType": "uint256",
          "name": "epoch",
          "type": "uint256"
        },
        {
          "internalType": "uint256",
          "name": "assetId",
          "type": "uint256"
        },
        {
          "internalType": "uint256[]",
          "name": "sorted",
          "type": "uint256[]"
        }
      ],
      "name": "giveSorted",
      "outputs": [],
      "stateMutability": "nonpayable",
      "type": "function"
    },
    {
      "inputs": [
        {
          "internalType": "uint256",
          "name": "epoch",
          "type": "uint256"
        }
      ],
      "name": "resetDispute",
      "outputs": [],
      "stateMutability": "nonpayable",
      "type": "function"
    },
    {
      "inputs": [
        {
          "internalType": "uint256",
          "name": "epoch",
          "type": "uint256"
        },
        {
          "internalType": "uint256",
          "name": "blockId",
          "type": "uint256"
        }
      ],
      "name": "finalizeDispute",
      "outputs": [],
      "stateMutability": "nonpayable",
      "type": "function"
    },
    {
      "inputs": [
        {
          "internalType": "uint256",
          "name": "iteration",
          "type": "uint256"
        },
        {
          "internalType": "uint256",
          "name": "biggestStakerId",
          "type": "uint256"
        },
        {
          "internalType": "uint256",
          "name": "stakerId",
          "type": "uint256"
        }
      ],
      "name": "isElectedProposer",
      "outputs": [
        {
          "internalType": "bool",
          "name": "",
          "type": "bool"
        }
      ],
      "stateMutability": "view",
      "type": "function"
    },
    {
      "inputs": [],
      "name": "confirmBlock",
      "outputs": [],
      "stateMutability": "nonpayable",
      "type": "function"
    }
  ],
  "bytecode": "0x60806040523480156200001157600080fd5b506200005260405162000024906200020d565b60405180910390206040516200003a906200021f565b6040519081900390206001600160e01b036200008316565b6200007d60405162000064906200021f565b604051908190039020336001600160e01b03620000d516565b62000230565b600082815260208190526040808220600201549051839285917fbd79b86ffe0ab8e8776151514217cd7cacd52c909f66475c3af44e129f0b00ff9190a460009182526020829052604090912060020155565b620000ea82826001600160e01b03620000ee16565b5050565b600082815260208181526040909120620001139183906200277262000170821b17901c565b15620000ea576200012c6001600160e01b036200019916565b6001600160a01b0316816001600160a01b0316837f2f8788117e7eff1d82e926ec794901d17c78024a50270940304540a733656f0d60405160405180910390a45050565b600062000190836001600160a01b0384166001600160e01b036200019d16565b90505b92915050565b3390565b6000620001b483836001600160e01b03620001f516565b620001ec5750815460018181018455600084815260208082209093018490558454848252828601909352604090209190915562000193565b50600062000193565b60009081526001919091016020526040902054151590565b652ba924aa22a960d11b815260060190565b6420a226a4a760d91b815260050190565b613dfe80620002406000396000f3fe608060405234801561001057600080fd5b50600436106101fb5760003560e01c80637542ff951161011a578063ca15c873116100ad578063da2824a81161007c578063da2824a814610450578063df4eb59c14610463578063e38c7c421461046b578063f25b3f991461047e578063fae4425d14610491576101fb565b8063ca15c87314610404578063d1a4a43d14610417578063d2a4669a1461042a578063d547741f1461043d576101fb565b806392b48411116100e957806392b48411146103ae5780639b87f644146103d1578063a217fddf146103d9578063a27ce1ef146103e1576101fb565b80637542ff951461035b578063828496d6146103635780639010d07c1461038857806391d148541461039b576101fb565b80632f2ff15d116101925780633df395a3116101615780633df395a31461032557806342c1e5871461032d5780634e6753b7146103355780635ce8772f14610348576101fb565b80632f2ff15d146102cc57806336568abe146102df578063378ab9a9146102f25780633cd32fd414610312576101fb565b8063248a9ca3116101ce578063248a9ca31461027157806324d7806c146102915780632b29ba23146102a45780632e716fb1146102b7576101fb565b806304c075691461020057806306552ff31461022957806317d99c041461023e5780631d69ff9b14610251575b600080fd5b61021361020e366004613359565b6104a4565b6040516102209190613bb0565b60405180910390f35b61023c6102373660046132fe565b610654565b005b61023c61024c366004613456565b6106a4565b61026461025f366004613569565b610b5f565b6040516102209190613712565b61028461027f366004613359565b610ede565b604051610220919061371d565b61026461029f3660046132e2565b610ef3565b6102646102b23660046132e2565b610f18565b6102bf610f29565b60405161022091906136eb565b61023c6102da366004613389565b610f38565b61023c6102ed366004613389565b610f80565b610305610300366004613359565b610fc2565b60405161022091906136ff565b61023c6103203660046133b8565b611027565b6102bf6114ca565b6102bf6114d9565b61023c61034336600461351b565b6114e8565b61023c610356366004613359565b611b21565b6102bf611d51565b610376610371366004613389565b611d60565b60405161022096959493929190613d64565b6102bf6103963660046133b8565b611d9e565b6102646103a9366004613389565b611dbc565b6103c16103bc3660046133b8565b611dda565b6040516102209493929190613d47565b61023c611e20565b610284612344565b6103f46103ef3660046133b8565b612349565b6040516102209493929190613bc3565b610284610412366004613359565b61253d565b6103056104253660046133b8565b612554565b610305610438366004613359565b6125da565b61023c61044b366004613389565b61263d565b61023c61045e3660046132e2565b612677565b61023c6126a5565b610284610479366004613359565b6126d3565b6103c161048c366004613359565b6126e5565b61030561049f366004613359565b61270f565b6104ac61315c565b600082815260036020908152604091829020825161010081018452815481526001820180548551818602810186019096528086529194929385810193929083018282801561051957602002820191906000526020600020905b815481526020019060010190808311610505575b505050505081526020016002820180548060200260200160405190810160405280929190818152602001828054801561057157602002820191906000526020600020905b81548152602001906001019080831161055d575b50505050508152602001600382018054806020026020016040519081016040528092919081815260200182805480156105c957602002820191906000526020600020905b8154815260200190600101908083116105b5575b505050505081526020016004820180548060200260200160405190810160405280929190818152602001828054801561062157602002820191906000526020600020905b81548152602001906001019080831161060d575b5050509183525050600582015460208201526006820154604082015260079091015460ff16151560609091015292915050565b600480546001600160a01b039586166001600160a01b0319918216179091556005805494861694821694909417909355600680549285169284169290921790915560078054919093169116179055565b60055460408051630eaf323560e31b8152905189926001600160a01b03169163757991a8916004808301926020929190829003018186803b1580156106e857600080fd5b505afa1580156106fc573d6000803e3d6000fd5b505050506040513d601f19601f820116820180604052508101906107209190613371565b81146107475760405162461bcd60e51b815260040161073e9061396e565b60405180910390fd5b73__Constants_____________________________63c198f8ba6040518163ffffffff1660e01b815260040160206040518083038186803b15801561078b57600080fd5b505af415801561079f573d6000803e3d6000fd5b505050506040513d601f19601f820116820180604052508101906107c39190613594565b60ff16600560009054906101000a90046001600160a01b03166001600160a01b0316631865c57d6040518163ffffffff1660e01b815260040160206040518083038186803b15801561081457600080fd5b505afa158015610828573d6000803e3d6000fd5b505050506040513d601f19601f8201168201806040525081019061084c9190613371565b811461086a5760405162461bcd60e51b815260040161073e90613ae8565b60048054604051636022a48560e01b81526000926001600160a01b0390921691636022a4859161089c913391016136eb565b60206040518083038186803b1580156108b457600080fd5b505afa1580156108c8573d6000803e3d6000fd5b505050506040513d601f19601f820116820180604052508101906108ec9190613371565b90506108f9858583610b5f565b6109155760405162461bcd60e51b815260040161073e906138b8565b73__Constants_____________________________63375b3c0a6040518163ffffffff1660e01b815260040160206040518083038186803b15801561095957600080fd5b505af415801561096d573d6000803e3d6000fd5b505050506040513d601f19601f820116820180604052508101906109919190613371565b600480546040516371e4cc7f60e11b81526001600160a01b039091169163e3c998fe916109c09186910161371d565b6101006040518083038186803b1580156109d957600080fd5b505afa1580156109ed573d6000803e3d6000fd5b505050506040513d601f19601f82011682018060405250810190610a1191906133d9565b604001511015610a335760405162461bcd60e51b815260040161073e90613a70565b610b0c8a6040518061010001604052808481526020018c81526020018b81526020018a8152602001898152602001888152602001600460009054906101000a90046001600160a01b03166001600160a01b031663e3c998fe896040518263ffffffff1660e01b8152600401610aa8919061371d565b6101006040518083038186803b158015610ac157600080fd5b505afa158015610ad5573d6000803e3d6000fd5b505050506040513d601f19601f82011682018060405250810190610af991906133d9565b6040015181526001602090910152612787565b7fee036cc96c88163f353feaa4d497e88baaebeb631f40ad9b8a6d51bb6fad40768a828b8b8b8b8b8b42604051610b4b99989796959493929190613c47565b60405180910390a150505050505050505050565b600081610caa600173__Random________________________________635075dbfb600a600460009054906101000a90046001600160a01b03166001600160a01b031663bc788d466040518163ffffffff1660e01b815260040160206040518083038186803b158015610bd157600080fd5b505afa158015610be5573d6000803e3d6000fd5b505050506040513d601f19601f82011682018060405250810190610c099190613371565b8a604051602001610c1a919061371d565b604051602081830303815290604052805190602001206040518463ffffffff1660e01b8152600401610c4e93929190613739565b60206040518083038186803b158015610c6657600080fd5b505af4158015610c7a573d6000803e3d6000fd5b505050506040513d601f19601f82011682018060405250810190610c9e9190613371565b9063ffffffff612cd116565b14610cb757506000610ed7565b600073__Random________________________________63b07ceab8600a8588604051602001610ce8929190613c39565b604051602081830303815290604052805190602001206040518363ffffffff1660e01b8152600401610d1b929190613726565b60206040518083038186803b158015610d3357600080fd5b505af4158015610d47573d6000803e3d6000fd5b505050506040513d601f19601f82011682018060405250810190610d6b9190613371565b90506000610d848264010000000063ffffffff612cf616565b600480546040516371e4cc7f60e11b81529293506000926001600160a01b039091169163e3c998fe91610db9918a910161371d565b6101006040518083038186803b158015610dd257600080fd5b505afa158015610de6573d6000803e3d6000fd5b505050506040513d601f19601f82011682018060405250810190610e0a91906133d9565b6040908101516004805492516371e4cc7f60e11b8152919350610ead92640100000000926001600160a01b039091169163e3c998fe91610e4c918b910161371d565b6101006040518083038186803b158015610e6557600080fd5b505afa158015610e79573d6000803e3d6000fd5b505050506040513d601f19601f82011682018060405250810190610e9d91906133d9565b604001519063ffffffff612d3816565b610ebd838363ffffffff612d3816565b1115610ecf5760009350505050610ed7565b600193505050505b9392505050565b60009081526020819052604090206002015490565b6000610f12604051610f04906136da565b604051809103902083611dbc565b92915050565b6000610f12604051610f04906136c8565b6005546001600160a01b031681565b600082815260208190526040902060020154610f56906103a9612d72565b610f725760405162461bcd60e51b815260040161073e906137e9565b610f7c8282612d77565b5050565b610f88612d72565b6001600160a01b0316816001600160a01b031614610fb85760405162461bcd60e51b815260040161073e90613b61565b610f7c8282612de6565b60008181526003602090815260409182902060020180548351818402810184019094528084526060939283018282801561101b57602002820191906000526020600020905b815481526020019060010190808311611007575b50939695505050505050565b60055460408051630eaf323560e31b8152905184926001600160a01b03169163757991a8916004808301926020929190829003018186803b15801561106b57600080fd5b505afa15801561107f573d6000803e3d6000fd5b505050506040513d601f19601f820116820180604052508101906110a39190613371565b81146110c15760405162461bcd60e51b815260040161073e9061396e565b73__Constants_____________________________63f240f7c36040518163ffffffff1660e01b815260040160206040518083038186803b15801561110557600080fd5b505af4158015611119573d6000803e3d6000fd5b505050506040513d601f19601f8201168201806040525081019061113d9190613594565b60ff16600560009054906101000a90046001600160a01b03166001600160a01b0316631865c57d6040518163ffffffff1660e01b815260040160206040518083038186803b15801561118e57600080fd5b505afa1580156111a2573d6000803e3d6000fd5b505050506040513d601f19601f820116820180604052508101906111c69190613371565b81146111e45760405162461bcd60e51b815260040161073e90613ae8565b60008481526001602090815260408083203384529091529081902060050154600654915163a6a145d960e01b815290916001600160a01b03169063a6a145d9906112349088908590600401613c39565b60206040518083038186803b15801561124c57600080fd5b505afa158015611260573d6000803e3d6000fd5b505050506040513d601f19601f820116820180604052508101906112849190613371565b6000868152600160209081526040808320338452909152902054146112bb5760405162461bcd60e51b815260040161073e90613aa7565b60008581526001602081815260408084203385528252808420928301546002808501546003909501548b875293529084208054919491899081106112fb57fe5b90600052602060002090600802016000015490506000841161131c57600080fd5b600089815260026020526040902080548591908a90811061133957fe5b9060005260206000209060080201600201868154811061135557fe5b90600052602060002001541415806113af5750600089815260026020526040902080548491908a90811061138557fe5b906000526020600020906008020160030186815481106113a157fe5b906000526020600020015414155b806113fc5750600089815260026020526040902080548391908a9081106113d257fe5b906000526020600020906008020160040186815481106113ee57fe5b906000526020600020015414155b156114a757600089815260026020526040812080548a90811061141b57fe5b60009182526020909120600890910201600701805460ff191691151591909117905560048054604051630f91ce1960e01b81526001600160a01b0390911691630f91ce199161147091859133918f9101613c1a565b600060405180830381600087803b15801561148a57600080fd5b505af115801561149e573d6000803e3d6000fd5b505050506114bf565b60405162461bcd60e51b815260040161073e90613a13565b505050505050505050565b6007546001600160a01b031681565b6006546001600160a01b031681565b60055460408051630eaf323560e31b8152905185926001600160a01b03169163757991a8916004808301926020929190829003018186803b15801561152c57600080fd5b505afa158015611540573d6000803e3d6000fd5b505050506040513d601f19601f820116820180604052508101906115649190613371565b81146115825760405162461bcd60e51b815260040161073e9061396e565b73__Constants_____________________________63f240f7c36040518163ffffffff1660e01b815260040160206040518083038186803b1580156115c657600080fd5b505af41580156115da573d6000803e3d6000fd5b505050506040513d601f19601f820116820180604052508101906115fe9190613594565b60ff16600560009054906101000a90046001600160a01b03166001600160a01b0316631865c57d6040518163ffffffff1660e01b815260040160206040518083038186803b15801561164f57600080fd5b505afa158015611663573d6000803e3d6000fd5b505050506040513d601f19601f820116820180604052508101906116879190613371565b81146116a55760405162461bcd60e51b815260040161073e90613ae8565b60065460405163a6a145d960e01b815260009161173b916002916001600160a01b03169063a6a145d9906116df908b908b90600401613c39565b60206040518083038186803b1580156116f757600080fd5b505afa15801561170b573d6000803e3d6000fd5b505050506040513d601f19601f8201168201806040525081019061172f9190613371565b9063ffffffff612e5516565b60065460405163a6a145d960e01b8152919250600091611779916004916001600160a01b039091169063a6a145d9906116df908c908c908601613c39565b60065460405163a6a145d960e01b815291925060009161181a9160049161172f916003916001600160a01b039091169063a6a145d9906117be908f908f908801613c39565b60206040518083038186803b1580156117d657600080fd5b505afa1580156117ea573d6000803e3d6000fd5b505050506040513d601f19601f8201168201806040525081019061180e9190613371565b9063ffffffff612d3816565b60008981526001602090815260408083203384529091529020805460049091015491925090816118685760008a815260016020908152604080832033845290915290206005018990556118a3565b60008a815260016020908152604080832033845290915290206005015489146118a35760405162461bcd60e51b815260040161073e906139e5565b60005b8851811015611af257818982815181106118bc57fe5b6020026020010151116118e15760405162461bcd60e51b815260040161073e90613838565b8881815181106118ed57fe5b602002602001015191506119af600660009054906101000a90046001600160a01b03166001600160a01b0316639c66556f8d8d8d868151811061192c57fe5b60200260200101516040518463ffffffff1660e01b815260040161195293929190613d31565b60206040518083038186803b15801561196a57600080fd5b505afa15801561197e573d6000803e3d6000fd5b505050506040513d601f19601f820116820180604052508101906119a29190613371565b849063ffffffff612cd116565b60008c81526001602090815260408083203384529091529020600201549093501580156119dc5750848310155b15611a16578881815181106119ed57fe5b60209081029190910181015160008d815260018352604080822033835290935291909120600201555b60008b81526001602081815260408084203385529091529091200154158015611a3e57508583115b15611a7857888181518110611a4f57fe5b60209081029190910181015160008d815260018084526040808320338452909452929020909101555b60008b8152600160209081526040808320338452909152902060030154158015611aa157508383115b15611adb57888181518110611ab257fe5b60209081029190910181015160008d815260018352604080822033835290935291909120600301555b6127105a1015611aea57611af2565b6001016118a6565b506000998a52600160209081526040808c20338d52909152909920600481019990995590975550505050505050565b60055460408051630eaf323560e31b8152905183926001600160a01b03169163757991a8916004808301926020929190829003018186803b158015611b6557600080fd5b505afa158015611b79573d6000803e3d6000fd5b505050506040513d601f19601f82011682018060405250810190611b9d9190613371565b8114611bbb5760405162461bcd60e51b815260040161073e9061396e565b73__Constants_____________________________63f240f7c36040518163ffffffff1660e01b815260040160206040518083038186803b158015611bff57600080fd5b505af4158015611c13573d6000803e3d6000fd5b505050506040513d601f19601f82011682018060405250810190611c379190613594565b60ff16600560009054906101000a90046001600160a01b03166001600160a01b0316631865c57d6040518163ffffffff1660e01b815260040160206040518083038186803b158015611c8857600080fd5b505afa158015611c9c573d6000803e3d6000fd5b505050506040513d601f19601f82011682018060405250810190611cc09190613371565b8114611cde5760405162461bcd60e51b815260040161073e90613ae8565b50506040805160c08101825260008082526020808301828152838501838152606085018481526080860185815260a0870186815298865260018086528887203388529095529690942094518555905191840191909155516002830155516003820155905160048201559051600590910155565b6004546001600160a01b031681565b600160208181526000938452604080852090915291835291208054918101546002820154600383015460048401546005909401549293919290919086565b6000828152602081905260408120610ed7908363ffffffff612e9716565b6000828152602081905260408120610ed7908363ffffffff612ea316565b60026020528160005260406000208181548110611df357fe5b60009182526020909120600890910201805460058201546006830154600790930154919450925060ff1684565b611e2933610f18565b611e455760405162461bcd60e51b815260040161073e90613b11565b60055460408051630eaf323560e31b815290516000926001600160a01b03169163757991a8916004808301926020929190829003018186803b158015611e8a57600080fd5b505afa158015611e9e573d6000803e3d6000fd5b505050506040513d601f19601f82011682018060405250810190611ec29190613371565b6000198101600090815260036020526040902054909150158015611ef85750600019810160009081526002602052604090205415155b156123405760005b600019820160009081526002602052604090205460ff82161015610f7c5760001982016000908152600260205260409020805460ff8316908110611f4057fe5b600091825260209091206007600890920201015460ff16156123385760001982016000908152600260205260409020805460ff8316908110611f7e57fe5b906000526020600020906008020160036000600185038152602001908152602001600020600082015481600001556001820181600101908054611fc29291906131a3565b5060028281018054611fd792840191906131a3565b5060038281018054611fec92840191906131a3565b506004828101805461200192840191906131a3565b5060058281015490820155600680830154908201556007918201549101805460ff191660ff92831615151790556000198301600090815260026020526040812080549192909190841690811061205357fe5b90600052602060002090600802016000015490507f5ef264ae9101b91bd7117350c5e85901297fa0569e7a3e07eb7ec0a6281529f06001840382600260006001880381526020019081526020016000208560ff16815481106120b157fe5b9060005260206000209060080201600201600260006001890381526020019081526020016000208660ff16815481106120e657fe5b90600052602060002090600802016003016002600060018a0381526020019081526020016000208760ff168154811061211b57fe5b90600052602060002090600802016004016002600060018b0381526020019081526020016000208860ff168154811061215057fe5b9060005260206000209060080201600101426040516121759796959493929190613cc4565b60405180910390a160005b60001984016000908152600260205260409020805460ff85169081106121a257fe5b9060005260206000209060080201600101805490508160ff1610156122cc576007546000198501600090815260026020526040902080546001600160a01b03909216916356350bdf919060ff87169081106121f957fe5b90600052602060002090600802016001018360ff168154811061221857fe5b9060005260206000200154600260006001890381526020019081526020016000208660ff168154811061224757fe5b90600052602060002090600802016002018460ff168154811061226657fe5b90600052602060002001546040518363ffffffff1660e01b815260040161228e929190613c39565b600060405180830381600087803b1580156122a857600080fd5b505af11580156122bc573d6000803e3d6000fd5b5050600190920191506121809050565b506004805460405163746c8b6560e01b81526001600160a01b039091169163746c8b65916122fe918591889101613c39565b600060405180830381600087803b15801561231857600080fd5b505af115801561232c573d6000803e3d6000fd5b50505050505050612342565b600101611f00565b505b565b600081565b61235161315c565b606080606060026000878152602001908152602001600020858154811061237457fe5b90600052602060002090600802016040518061010001604052908160008201548152602001600182018054806020026020016040519081016040528092919081815260200182805480156123e757602002820191906000526020600020905b8154815260200190600101908083116123d3575b505050505081526020016002820180548060200260200160405190810160405280929190818152602001828054801561243f57602002820191906000526020600020905b81548152602001906001019080831161242b575b505050505081526020016003820180548060200260200160405190810160405280929190818152602001828054801561249757602002820191906000526020600020905b815481526020019060010190808311612483575b50505050508152602001600482018054806020026020016040519081016040528092919081815260200182805480156124ef57602002820191906000526020600020905b8154815260200190600101908083116124db575b505050918352505060058201546020820152600682015460408083019190915260079092015460ff161515606091820152908201519082015160808301519299919850965090945092505050565b6000818152602081905260408120610f1290612eb8565b60008281526002602052604090208054606091908390811061257257fe5b90600052602060002090600802016002018054806020026020016040519081016040528092919081815260200182805480156125cd57602002820191906000526020600020905b8154815260200190600101908083116125b9575b5093979650505050505050565b60008181526003602081815260409283902090910180548351818402810184019094528084526060939283018282801561101b57602002820191906000526020600020908154815260200190600101908083116110075750939695505050505050565b60008281526020819052604090206002015461265b906103a9612d72565b610fb85760405162461bcd60e51b815260040161073e906138dd565b61268033610ef3565b61269c5760405162461bcd60e51b815260040161073e90613997565b61234081612ec3565b6126ae33610f18565b6126ca5760405162461bcd60e51b815260040161073e90613b11565b61234233612f17565b60009081526002602052604090205490565b60036020526000908152604090208054600582015460068301546007909301549192909160ff1684565b60008181526003602090815260409182902060040180548351818402810184019094528084526060939283018282801561101b57602002820191906000526020600020908154815260200190600101908083116110075750939695505050505050565b6000610ed7836001600160a01b038416612f6b565b60008281526002602052604090205461286057600082815260026020908152604082208054600181810183559184529282902084516008909402019283558382015180518594936127dc9385019201906131f3565b50604082015180516127f89160028401916020909101906131f3565b50606082015180516128149160038401916020909101906131f3565b50608082015180516128309160048401916020909101906131f3565b5060a0820151600582015560c0820151600682015560e0909101516007909101805460ff19169115159190911790555b600082815260026020526040812054905b60008481526002602052604090205481101561290d5760c083015160008581526002602052604090208054839081106128a657fe5b90600052602060002090600802016006015410156128c65780915061290d565b60a083015160008581526002602052604090208054839081106128e557fe5b90600052602060002090600802016005015411156129055780915061290d565b600101612871565b50600083815260026020908152604082208054600181810183559184529282902085516008909402019283558482015180518694936129509385019201906131f3565b506040820151805161296c9160028401916020909101906131f3565b50606082015180516129889160038401916020909101906131f3565b50608082015180516129a49160048401916020909101906131f3565b5060a0820151600582015560c0820151600682015560e0909101516007909101805460ff1916911515919091179055600083815260026020526040902054600019015b81811115612ada57600084815260026020526040902080546000198301908110612a0d57fe5b9060005260206000209060080201600260008681526020019081526020016000208281548110612a3957fe5b60009182526020909120825460089092020190815560018083018054612a6292840191906131a3565b5060028281018054612a7792840191906131a3565b5060038281018054612a8c92840191906131a3565b5060048281018054612aa192840191906131a3565b5060058281015490820155600680830154908201556007918201549101805460ff191660ff9092161515919091179055600019016129e7565b506000838152600260205260409020805483919083908110612af857fe5b9060005260206000209060080201600082015181600001556020820151816001019080519060200190612b2c9291906131f3565b5060408201518051612b489160028401916020909101906131f3565b5060608201518051612b649160038401916020909101906131f3565b5060808201518051612b809160048401916020909101906131f3565b5060a0820151816005015560c0820151816006015560e08201518160070160006101000a81548160ff02191690831515021790555090505073__Constants_____________________________63379597e06040518163ffffffff1660e01b815260040160206040518083038186803b158015612bfc57600080fd5b505af4158015612c10573d6000803e3d6000fd5b505050506040513d601f19601f82011682018060405250810190612c349190613371565b6000848152600260205260409020541115612ccc57600083815260026020526040902080546000198101908110612c6757fe5b60009182526020822060089091020181815590612c87600183018261322e565b612c9560028301600061322e565b612ca360038301600061322e565b612cb160048301600061322e565b506000600582018190556006820155600701805460ff191690555b505050565b600082820183811015610ed75760405162461bcd60e51b815260040161073e90613881565b6000610ed783836040518060400160405280601881526020017f536166654d6174683a206d6f64756c6f206279207a65726f0000000000000000815250612fb5565b600082612d4757506000610f12565b82820282848281612d5457fe5b0414610ed75760405162461bcd60e51b815260040161073e9061392d565b335b90565b6000828152602081905260409020612d95908263ffffffff61277216565b15610f7c57612da2612d72565b6001600160a01b0316816001600160a01b0316837f2f8788117e7eff1d82e926ec794901d17c78024a50270940304540a733656f0d60405160405180910390a45050565b6000828152602081905260409020612e04908263ffffffff612fe916565b15610f7c57612e11612d72565b6001600160a01b0316816001600160a01b0316837ff6391f5c32d9c69d2a47ea670b442974b53935d1edc7fd64eb21e047a839171b60405160405180910390a45050565b6000610ed783836040518060400160405280601a81526020017f536166654d6174683a206469766973696f6e206279207a65726f000000000000815250612ffe565b6000610ed78383613035565b6000610ed7836001600160a01b03841661307a565b6000610f1282613092565b612ee0604051612ed2906136c8565b604051809103902082610f38565b6040516001600160a01b038216907f6ff3aa2ea7b53070f6d9d07a445d338d89e8edef44250ffa8be19f53910d4a2e90600090a250565b612f34604051612f26906136c8565b604051809103902082610f80565b6040516001600160a01b038216907f86e5bbceda94081c32220d685f37cc4e3ea7bb0be2dfbf0cb703579505a5390e90600090a250565b6000612f77838361307a565b612fad57508154600181810184556000848152602080822090930184905584548482528286019093526040902091909155610f12565b506000610f12565b60008183612fd65760405162461bcd60e51b815260040161073e9190613754565b50828481612fe057fe5b06949350505050565b6000610ed7836001600160a01b038416613096565b6000818361301f5760405162461bcd60e51b815260040161073e9190613754565b50600083858161302b57fe5b0495945050505050565b815460009082106130585760405162461bcd60e51b815260040161073e906137a7565b82600001828154811061306757fe5b9060005260206000200154905092915050565b60009081526001919091016020526040902054151590565b5490565b6000818152600183016020526040812054801561315257835460001980830191908101906000908790839081106130c957fe5b90600052602060002001549050808760000184815481106130e657fe5b60009182526020808320909101929092558281526001898101909252604090209084019055865487908061311657fe5b60019003818190600052602060002001600090559055866001016000878152602001908152602001600020600090556001945050505050610f12565b6000915050610f12565b604051806101000160405280600081526020016060815260200160608152602001606081526020016060815260200160008152602001600081526020016000151581525090565b8280548282559060005260206000209081019282156131e35760005260206000209182015b828111156131e35782548255916001019190600101906131c8565b506131ef929150613248565b5090565b8280548282559060005260206000209081019282156131e3579160200282015b828111156131e3578251825591602001919060010190613213565b508054600082559060005260206000209081019061234091905b612d7491905b808211156131ef576000815560010161324e565b600082601f830112613272578081fd5b813567ffffffffffffffff811115613288578182fd5b6020808202613298828201613d8c565b838152935081840185830182870184018810156132b457600080fd5b600092505b848310156132d75780358252600192909201919083019083016132b9565b505050505092915050565b6000602082840312156132f3578081fd5b8135610ed781613db3565b60008060008060808587031215613313578283fd5b843561331e81613db3565b9350602085013561332e81613db3565b9250604085013561333e81613db3565b9150606085013561334e81613db3565b939692955090935050565b60006020828403121561336a578081fd5b5035919050565b600060208284031215613382578081fd5b5051919050565b6000806040838503121561339b578182fd5b8235915060208301356133ad81613db3565b809150509250929050565b600080604083850312156133ca578182fd5b50508035926020909101359150565b60006101008083850312156133ec578182fd5b6133f581613d8c565b835181526020840151915061340982613db3565b81602082015260408401516040820152606084015160608201526080840151608082015260a084015160a082015260c084015160c082015260e084015160e0820152809250505092915050565b600080600080600080600060e0888a031215613470578283fd5b87359650602088013567ffffffffffffffff8082111561348e578485fd5b61349a8b838c01613262565b975060408a01359150808211156134af578485fd5b6134bb8b838c01613262565b965060608a01359150808211156134d0578485fd5b6134dc8b838c01613262565b955060808a01359150808211156134f1578485fd5b506134fe8a828b01613262565b93505060a0880135915060c0880135905092959891949750929550565b60008060006060848603121561352f578081fd5b8335925060208401359150604084013567ffffffffffffffff811115613553578182fd5b61355f86828701613262565b9150509250925092565b60008060006060848603121561357d578081fd5b505081359360208301359350604090920135919050565b6000602082840312156135a5578081fd5b815160ff81168114610ed7578182fd5b6000815180845260208085019450808401835b838110156135e4578151875295820195908201906001016135c8565b509495945050505050565b6000815480845260208085019450838352808320835b838110156135e457815487529582019560019182019101613605565b15159052565b6000610100825184526020830151816020860152613647828601826135b5565b60408501519250858103604087015261366081846135b5565b91505060608401519150848103606086015261367c81836135b5565b60808501519250858103608087015261369581846135b5565b91505060a084015160a086015260c084015160c086015260e084015191506136c060e0860183613621565b949350505050565b652ba924aa22a960d11b815260060190565b6420a226a4a760d91b815260050190565b6001600160a01b0391909116815260200190565b600060208252610ed760208301846135b5565b901515815260200190565b90815260200190565b60ff929092168252602082015260400190565b60ff9390931683526020830191909152604082015260600190565b6000602080835283518082850152825b8181101561378057858101830151858201604001528201613764565b818111156137915783604083870101525b50601f01601f1916929092016040019392505050565b60208082526022908201527f456e756d657261626c655365743a20696e646578206f7574206f6620626f756e604082015261647360f01b606082015260800190565b6020808252602f908201527f416363657373436f6e74726f6c3a2073656e646572206d75737420626520616e60408201526e0818591b5a5b881d1bc819dc985b9d608a1b606082015260800190565b60208082526029908201527f736f727465645b695d206973206e6f742067726561746572207468616e206c616040820152681cdd159a5cda5d195960ba1b606082015260800190565b6020808252601b908201527f536166654d6174683a206164646974696f6e206f766572666c6f770000000000604082015260600190565b6020808252600b908201526a1b9bdd08195b1958dd195960aa1b604082015260600190565b60208082526030908201527f416363657373436f6e74726f6c3a2073656e646572206d75737420626520616e60408201526f2061646d696e20746f207265766f6b6560801b606082015260800190565b60208082526021908201527f536166654d6174683a206d756c7469706c69636174696f6e206f766572666c6f6040820152607760f81b606082015260800190565b6020808252600f908201526e0d2dcc6dee4e4cac6e840cae0dec6d608b1b604082015260600190565b6020808252602e908201527f41646d696e526f6c653a2063616c6c657220646f6573206e6f7420686176652060408201526d7468652041646d696e20726f6c6560901b606082015260800190565b60208082526014908201527341737365744964206e6f74206d61746368696e6760601b604082015260600190565b60208082526037908201527f50726f706f73656420416c7465726e61746520626c6f636b206973206964656e60408201527f746963616c20746f2070726f706f73656420626c6f636b000000000000000000606082015260800190565b60208082526019908201527f7374616b652062656c6f77206d696e696d756d207374616b6500000000000000604082015260600190565b60208082526021908201527f546f74616c207374616b652072657665616c656420646f65736e74206d6174636040820152600d60fb1b606082015260800190565b6020808252600f908201526e696e636f727265637420737461746560881b604082015260600190565b60208082526030908201527f577269746572526f6c653a2063616c6c657220646f6573206e6f74206861766560408201526f207468652057726974657220726f6c6560801b606082015260800190565b6020808252602f908201527f416363657373436f6e74726f6c3a2063616e206f6e6c792072656e6f756e636560408201526e103937b632b9903337b91039b2b63360891b606082015260800190565b600060208252610ed76020830184613627565b600060808252613bd66080830187613627565b8281036020840152613be881876135b5565b8381036040850152613bfa81876135b5565b9150508281036060840152613c0f81856135b5565b979650505050505050565b9283526001600160a01b03919091166020830152604082015260600190565b918252602082015260400190565b60006101208b83528a6020840152806040840152613c678184018b6135b5565b8381036060850152613c79818b6135b5565b9150508281036080840152613c8e81896135b5565b83810360a0850152613ca081896135b5565b60c085019790975250505060e0810192909252610100909101529695505050505050565b600088825287602083015260e06040830152613ce360e08301886135ef565b8281036060840152613cf581886135ef565b8381036080850152613d0781886135ef565b91505082810360a0840152613d1c81866135ef565b9150508260c083015298975050505050505050565b9283526020830191909152604082015260600190565b938452602084019290925260408301521515606082015260800190565b958652602086019490945260408501929092526060840152608083015260a082015260c00190565b60405181810167ffffffffffffffff81118282101715613dab57600080fd5b604052919050565b6001600160a01b038116811461234057600080fdfea2646970667358221220aea793408b147623f4e5baf33f992aab9ad2dc277fae53dc6526111c0bf1b59a64736f6c634300060b0033",
  "immutableReferences": {},
  "source": "pragma solidity 0.6.11;\npragma experimental ABIEncoderV2;\nimport \"../lib/Random.sol\";\nimport \"./Utils.sol\";\nimport \"./BlockStorage.sol\";\nimport \"./IStakeManager.sol\";\nimport \"./IStateManager.sol\";\nimport \"./IVoteManager.sol\";\nimport \"./IJobManager.sol\";\nimport \"openzeppelin-solidity/contracts/math/SafeMath.sol\";\nimport \"./WriterRole.sol\";\n\n\ncontract BlockManager is Utils, WriterRole, BlockStorage {\n    using SafeMath for uint256;\n\n    IStakeManager public stakeManager;\n    IStateManager public stateManager;\n    IVoteManager public voteManager;\n    IJobManager public jobManager;\n\n    modifier checkEpoch (uint256 epoch) {\n        require(epoch == stateManager.getEpoch(), \"incorrect epoch\");\n        _;\n    }\n\n    modifier checkState (uint256 state) {\n        require(state == stateManager.getState(), \"incorrect state\");\n        _;\n    }\n\n    function getBlock(uint256 epoch) external view returns(Structs.Block memory _block) {\n        return(blocks[epoch]);\n    }\n\n    function getBlockMedians(uint256 epoch) external view returns(uint256[] memory _blockMedians) {\n        _blockMedians = blocks[epoch].medians;\n        return(_blockMedians);\n    }\n\n    function getLowerCutoffs(uint256 epoch) external view returns(uint256[] memory _lowerCutoffs) {\n        _lowerCutoffs = blocks[epoch].lowerCutoffs;\n        return(_lowerCutoffs);\n    }\n\n    function getHigherCutoffs(uint256 epoch) external view returns(uint256[] memory _higherCutoffs) {\n        _higherCutoffs = blocks[epoch].higherCutoffs;\n        return(_higherCutoffs);\n    }\n\n    function getProposedBlock(uint256 epoch, uint256 proposedBlock)\n    external view returns(Structs.Block memory _block,\n    uint256[] memory _blockMedians,\n    uint256[] memory _lowerCutoffs,\n    uint256[] memory _higherCutoffs ) {\n        _block = proposedBlocks[epoch][proposedBlock];\n        return(_block, _block.medians, _block.lowerCutoffs, _block.higherCutoffs);\n    }\n\n    function getProposedBlockMedians(uint256 epoch, uint256 proposedBlock)\n    external view returns(uint256[] memory _blockMedians) {\n        _blockMedians = proposedBlocks[epoch][proposedBlock].medians;\n        return(_blockMedians);\n    }\n\n    function getNumProposedBlocks(uint256 epoch)\n    external view returns(uint256) {\n        return(proposedBlocks[epoch].length);\n    }\n\n    //disable after init.\n    function init(address _stakeManagerAddress, address _stateManagerAddress,\n                address _voteManagerAddress, address _jobManagerAddress) public {\n        stakeManager = IStakeManager(_stakeManagerAddress);\n        stateManager = IStateManager(_stateManagerAddress);\n        voteManager = IVoteManager(_voteManagerAddress);\n        jobManager = IJobManager(_jobManagerAddress);\n    }\n\n    event Proposed(uint256 epoch,\n                    uint256 stakerId,\n                    uint256[] jobIds,\n                    uint256[] medians,\n                    uint256[] lowerCutoffs,\n                    uint256[] higherCutoffs,\n                    uint256 iteration,\n                    uint256 biggestStakerId,\n                    uint256 timestamp);\n\n    // elected proposer proposes block. we use a probabilistic method to elect stakers weighted by stake\n    // protocol works like this. select a staker pseudorandomly (not weighted by anything)\n    // (todo what if it is below min stake)\n    // that staker then tosses a biased coin. bias = hisStake/biggestStake. if its heads, he can propose block\n    // end of iteration. try next iteration\n    // note that only one staker or no stakers selected in each iteration.\n    // stakers elected in higher iterations can also propose hoping that\n    // stakers with lower iteration do not propose for some reason\n    function propose (uint256 epoch,\n                    uint256[] memory jobIds,\n                    uint256[] memory medians,\n                    uint256[] memory lowerCutoffs,\n                    uint256[] memory higherCutoffs,\n                    uint256 iteration,\n                    uint256 biggestStakerId) public checkEpoch(epoch) checkState(Constants.propose()) {\n        uint256 proposerId = stakeManager.getStakerId(msg.sender);\n        // SchellingCoin sch = SchellingCoin(schAddress);\n        require(isElectedProposer(iteration, biggestStakerId, proposerId), \"not elected\");\n        require(stakeManager.getStaker(proposerId).stake >= Constants.minStake(), \"stake below minimum stake\");\n\n        // check if someone already proposed\n        // if (blocks[epoch].proposerId != 0) {\n        //     if (blocks[epoch].proposerId == proposerId) {\n        //         revert(\"Already Proposed\");\n        //     }\n        //     // if (stakers[biggestStakerId].stake == blocks[epoch].biggestStake &&\n        //     //     proposedBlocks[epoch].length >= Constants.maxAltBlocks()) {\n        //     //\n        //     //     require(proposedBlocks[epoch][4].iteration > iteration,\n        //     //             \"iteration not smaller than last elected staker\");\n        //     // } else\n        //     if (stakers[biggestStakerId].stake < blocks[epoch].biggestStake) {\n        //         revert(\"biggest stakers stake not bigger than as proposed by existing elected staker \");\n        //     }\n        // }\n        // blocks[epoch]\n        _insertAppropriately(epoch, Structs.Block(proposerId,\n                            jobIds,\n                            medians,\n                            lowerCutoffs,\n                            higherCutoffs,\n                            iteration,\n                            stakeManager.getStaker(biggestStakerId).stake,\n                            true));\n        // emit DebugUint256(pushAt);\n        // mint and give block reward\n        // if (Constants.blockReward() > 0) {\n        //     stakers[proposerId].stake = stakers[proposerId].stake.add(Constants.blockReward());\n        //     totalStake = totalStake.add(Constants.blockReward());\n        //     require(sch.mint(address(this), Constants.blockReward()));\n        // }\n        emit Proposed(epoch, proposerId, jobIds, medians, lowerCutoffs, higherCutoffs, iteration, biggestStakerId, now);\n    }\n\n    //anyone can give sorted votes in batches in dispute state\n    function giveSorted (uint256 epoch, uint256 assetId, uint256[] memory sorted) public\n    checkEpoch(epoch) checkState(Constants.dispute()) {\n        uint256 medianWeight = voteManager.getTotalStakeRevealed(epoch, assetId).div(2);\n        uint256 lowerCutoffWeight = voteManager.getTotalStakeRevealed(epoch, assetId).div(4);\n        uint256 higherCutoffWeight = (voteManager.getTotalStakeRevealed(epoch, assetId).mul(3)).div(4);\n        uint256 accWeight = disputes[epoch][msg.sender].accWeight;\n        uint256 lastVisited = disputes[epoch][msg.sender].lastVisited;\n        if (disputes[epoch][msg.sender].accWeight == 0) {\n            disputes[epoch][msg.sender].assetId = assetId;\n        } else {\n            require(disputes[epoch][msg.sender].assetId == assetId, \"AssetId not matching\");\n        }\n        for (uint256 i = 0; i < sorted.length; i++) {\n            require(sorted[i] > lastVisited, \"sorted[i] is not greater than lastVisited\");\n            lastVisited = sorted[i];\n            accWeight = accWeight.add(voteManager.getVoteWeight(epoch, assetId, sorted[i]));\n            //set  median, if conditions meet\n            if (disputes[epoch][msg.sender].lowerCutoff == 0 && accWeight >= lowerCutoffWeight) {\n                disputes[epoch][msg.sender].lowerCutoff = sorted[i];\n            }\n            if (disputes[epoch][msg.sender].median == 0 && accWeight > medianWeight) {\n                disputes[epoch][msg.sender].median = sorted[i];\n            }\n            if (disputes[epoch][msg.sender].higherCutoff == 0 && accWeight > higherCutoffWeight) {\n                disputes[epoch][msg.sender].higherCutoff = sorted[i];\n            }\n            //TODO verify how much gas required for below operations and update this value\n            if (gasleft() < 10000) break;\n        }\n        disputes[epoch][msg.sender].lastVisited = lastVisited;\n        disputes[epoch][msg.sender].accWeight = accWeight;\n    }\n\n    // //todo test\n    // //if any mistake made during giveSorted, resetDispute and start again\n    function resetDispute (uint256 epoch) public checkEpoch(epoch) checkState(Constants.dispute()) {\n        disputes[epoch][msg.sender] = Structs.Dispute(0, 0, 0, 0, 0, 0);\n    }\n\n    function finalizeDispute (uint256 epoch, uint256 blockId)\n    public checkEpoch(epoch) checkState(Constants.dispute()) {\n        uint256 assetId = disputes[epoch][msg.sender].assetId;\n        require(disputes[epoch][msg.sender].accWeight == voteManager.getTotalStakeRevealed(epoch, assetId),\n        \"Total stake revealed doesnt match\");\n        uint256 median = disputes[epoch][msg.sender].median;\n        uint256 lowerCutoff = disputes[epoch][msg.sender].lowerCutoff;\n        uint256 higherCutoff = disputes[epoch][msg.sender].higherCutoff;\n        uint256 proposerId = proposedBlocks[epoch][blockId].proposerId;\n        //\n        require(median > 0);\n        if (proposedBlocks[epoch][blockId].medians[assetId] != median ||\n            proposedBlocks[epoch][blockId].lowerCutoffs[assetId] != lowerCutoff ||\n            proposedBlocks[epoch][blockId].higherCutoffs[assetId] != higherCutoff) {\n            proposedBlocks[epoch][blockId].valid = false;\n            stakeManager.slash(proposerId, msg.sender, epoch);\n        } else {\n            revert(\"Proposed Alternate block is identical to proposed block\");\n        }\n    }\n\n    function isElectedProposer(uint256 iteration, uint256 biggestStakerId, uint256 stakerId) public view returns(bool) {\n       // rand = 0 -> totalStake-1\n       //add +1 since prng returns 0 to max-1 and staker start from 1\n        if ((Random.prng(10, stakeManager.getNumStakers(), keccak256(abi.encode(iteration))).add(1))\n        != stakerId) {return(false);}\n        bytes32 randHash = Random.prngHash(10, keccak256(abi.encode(stakerId, iteration)));\n        uint256 rand = uint256(randHash).mod(2**32);\n        uint256 biggestStake = stakeManager.getStaker(biggestStakerId).stake;\n        if (rand.mul(biggestStake) > stakeManager.getStaker(stakerId).stake.mul(2**32)) return(false);\n        return(true);\n    }\n\n    event BlockConfirmed(uint256 epoch,\n                    uint256 stakerId,\n                    uint256[] medians,\n                    uint256[] lowerCutoffs,\n                    uint256[] higherCutoffs,\n                    uint256[] jobIds,\n                    uint256 timestamp);\n\n    function confirmBlock() public onlyWriter {\n        uint256 epoch = stateManager.getEpoch();\n        if (blocks[epoch - 1].proposerId == 0 && proposedBlocks[epoch - 1].length > 0) {\n            for (uint8 i=0; i < proposedBlocks[epoch - 1].length; i++) {\n                if (proposedBlocks[epoch - 1][i].valid) {\n                    blocks[epoch - 1] = proposedBlocks[epoch - 1][i];\n                    uint256 proposerId = proposedBlocks[epoch - 1][i].proposerId;\n                    emit BlockConfirmed(epoch - 1,\n                                        proposerId,\n                                        proposedBlocks[epoch - 1][i].medians,\n                                        proposedBlocks[epoch - 1][i].lowerCutoffs,\n                                        proposedBlocks[epoch - 1][i].higherCutoffs,\n                                        proposedBlocks[epoch - 1][i].jobIds,\n                                        now);\n                    for (uint8 j = 0; j < proposedBlocks[epoch - 1][i].jobIds.length; j++) {\n                        jobManager.fulfillJob(proposedBlocks[epoch - 1][i].jobIds[j],\n                                            proposedBlocks[epoch - 1][i].medians[j]);\n                    }\n                    stakeManager.giveBlockReward(proposerId, epoch);\n                    return;\n                }\n            }\n        }\n    }\n\n    function _insertAppropriately(uint256 epoch, Structs.Block memory _block) internal {\n       // uint256 iteration = _block.iteration;\n        if (proposedBlocks[epoch].length == 0) {\n            proposedBlocks[epoch].push(_block);\n            // return(0);\n        }\n       // Structs.Block[] memory temp = proposedBlocks[epoch];\n       // delete (proposedBlocks[epoch]);\n       // bool pushed = false;\n       // bool empty = true;\n        uint256 pushAt = proposedBlocks[epoch].length;\n        for (uint256 i = 0; i < proposedBlocks[epoch].length; i++) {\n            if (proposedBlocks[epoch][i].biggestStake < _block.biggestStake) {\n                pushAt = i;\n                break;\n            }\n            if (proposedBlocks[epoch][i].iteration > _block.iteration) {\n                pushAt = i;\n                break;\n            }\n        }\n\n        proposedBlocks[epoch].push(_block);\n        for (uint256 j = proposedBlocks[epoch].length - 1; j > (pushAt); j--) {\n            proposedBlocks[epoch][j] = proposedBlocks[epoch][j - 1];\n        }\n        // if (pushAt < proposedBlocks[epoch].length) {\n\n        proposedBlocks[epoch][pushAt] = _block;\n        // }\n        // if (pushed == false && temp.length < Constants.maxAltBlocks()) {\n        //     proposedBlocks[epoch].push(_block);\n        // }\n        if (proposedBlocks[epoch].length > Constants.maxAltBlocks()) {\n            delete (proposedBlocks[epoch][proposedBlocks[epoch].length - 1]);\n        }\n        // return(pushAt);\n    }\n\n\n}\n",
  "sourcePath": "/home/user/Documents/intern/contracts/contracts/Core/BlockManager.sol",
  "compiler": {
    "name": "solc",
    "version": "0.6.11+commit.5ef660b1.Emscripten.clang"
  },
  "schemaVersion": "3.2.2",
  "updatedAt": "2020-07-27T12:27:12.476Z",
  "devdoc": {
    "kind": "dev",
    "methods": {
      "getRoleAdmin(bytes32)": {
        "details": "Returns the admin role that controls `role`. See {grantRole} and {revokeRole}. To change a role's admin, use {_setRoleAdmin}."
      },
      "getRoleMember(bytes32,uint256)": {
        "details": "Returns one of the accounts that have `role`. `index` must be a value between 0 and {getRoleMemberCount}, non-inclusive. Role bearers are not sorted in any particular way, and their ordering may change at any point. WARNING: When using {getRoleMember} and {getRoleMemberCount}, make sure you perform all queries on the same block. See the following https://forum.openzeppelin.com/t/iterating-over-elements-on-enumerableset-in-openzeppelin-contracts/2296[forum post] for more information."
      },
      "getRoleMemberCount(bytes32)": {
        "details": "Returns the number of accounts that have `role`. Can be used together with {getRoleMember} to enumerate all bearers of a role."
      },
      "grantRole(bytes32,address)": {
        "details": "Grants `role` to `account`. If `account` had not been already granted `role`, emits a {RoleGranted} event. Requirements: - the caller must have ``role``'s admin role."
      },
      "hasRole(bytes32,address)": {
        "details": "Returns `true` if `account` has been granted `role`."
      },
      "renounceRole(bytes32,address)": {
        "details": "Revokes `role` from the calling account. Roles are often managed via {grantRole} and {revokeRole}: this function's purpose is to provide a mechanism for accounts to lose their privileges if they are compromised (such as when a trusted device is misplaced). If the calling account had been granted `role`, emits a {RoleRevoked} event. Requirements: - the caller must be `account`."
      },
      "revokeRole(bytes32,address)": {
        "details": "Revokes `role` from `account`. If `account` had been granted `role`, emits a {RoleRevoked} event. Requirements: - the caller must have ``role``'s admin role."
      }
    },
    "version": 1
  },
  "userdoc": {
    "kind": "user",
    "methods": {},
    "version": 1
  }
}