{
  "contractName": "BlockManager",
  "abi": [
    {
      "constant": true,
      "inputs": [
        {
          "name": "account",
          "type": "address"
        }
      ],
      "name": "isWriter",
      "outputs": [
        {
          "name": "",
          "type": "bool"
        }
      ],
      "payable": false,
      "stateMutability": "view",
      "type": "function"
    },
    {
      "constant": true,
      "inputs": [],
      "name": "stateManager",
      "outputs": [
        {
          "name": "",
          "type": "address"
        }
      ],
      "payable": false,
      "stateMutability": "view",
      "type": "function"
    },
    {
      "constant": true,
      "inputs": [],
      "name": "jobManager",
      "outputs": [
        {
          "name": "",
          "type": "address"
        }
      ],
      "payable": false,
      "stateMutability": "view",
      "type": "function"
    },
    {
      "constant": true,
      "inputs": [],
      "name": "voteManager",
      "outputs": [
        {
          "name": "",
          "type": "address"
        }
      ],
      "payable": false,
      "stateMutability": "view",
      "type": "function"
    },
    {
      "constant": true,
      "inputs": [],
      "name": "stakeManager",
      "outputs": [
        {
          "name": "",
          "type": "address"
        }
      ],
      "payable": false,
      "stateMutability": "view",
      "type": "function"
    },
    {
      "constant": true,
      "inputs": [
        {
          "name": "",
          "type": "uint256"
        },
        {
          "name": "",
          "type": "address"
        }
      ],
      "name": "disputes",
      "outputs": [
        {
          "name": "accWeight",
          "type": "uint256"
        },
        {
          "name": "median",
          "type": "uint256"
        },
        {
          "name": "lowerCutoff",
          "type": "uint256"
        },
        {
          "name": "higherCutoff",
          "type": "uint256"
        },
        {
          "name": "lastVisited",
          "type": "uint256"
        },
        {
          "name": "assetId",
          "type": "uint256"
        }
      ],
      "payable": false,
      "stateMutability": "view",
      "type": "function"
    },
    {
      "constant": true,
      "inputs": [
        {
          "name": "",
          "type": "uint256"
        },
        {
          "name": "",
          "type": "uint256"
        }
      ],
      "name": "proposedBlocks",
      "outputs": [
        {
          "name": "proposerId",
          "type": "uint256"
        },
        {
          "name": "iteration",
          "type": "uint256"
        },
        {
          "name": "biggestStake",
          "type": "uint256"
        },
        {
          "name": "valid",
          "type": "bool"
        }
      ],
      "payable": false,
      "stateMutability": "view",
      "type": "function"
    },
    {
      "constant": false,
      "inputs": [
        {
          "name": "account",
          "type": "address"
        }
      ],
      "name": "addWriter",
      "outputs": [],
      "payable": false,
      "stateMutability": "nonpayable",
      "type": "function"
    },
    {
      "constant": false,
      "inputs": [],
      "name": "renounceWriter",
      "outputs": [],
      "payable": false,
      "stateMutability": "nonpayable",
      "type": "function"
    },
    {
      "constant": true,
      "inputs": [
        {
          "name": "",
          "type": "uint256"
        }
      ],
      "name": "blocks",
      "outputs": [
        {
          "name": "proposerId",
          "type": "uint256"
        },
        {
          "name": "iteration",
          "type": "uint256"
        },
        {
          "name": "biggestStake",
          "type": "uint256"
        },
        {
          "name": "valid",
          "type": "bool"
        }
      ],
      "payable": false,
      "stateMutability": "view",
      "type": "function"
    },
    {
      "anonymous": false,
      "inputs": [
        {
          "indexed": false,
          "name": "epoch",
          "type": "uint256"
        },
        {
          "indexed": false,
          "name": "stakerId",
          "type": "uint256"
        },
        {
          "indexed": false,
          "name": "jobIds",
          "type": "uint256[]"
        },
        {
          "indexed": false,
          "name": "medians",
          "type": "uint256[]"
        },
        {
          "indexed": false,
          "name": "lowerCutoffs",
          "type": "uint256[]"
        },
        {
          "indexed": false,
          "name": "higherCutoffs",
          "type": "uint256[]"
        },
        {
          "indexed": false,
          "name": "iteration",
          "type": "uint256"
        },
        {
          "indexed": false,
          "name": "biggestStakerId",
          "type": "uint256"
        },
        {
          "indexed": false,
          "name": "timestamp",
          "type": "uint256"
        }
      ],
      "name": "Proposed",
      "type": "event"
    },
    {
      "anonymous": false,
      "inputs": [
        {
          "indexed": false,
          "name": "epoch",
          "type": "uint256"
        },
        {
          "indexed": false,
          "name": "stakerId",
          "type": "uint256"
        },
        {
          "indexed": false,
          "name": "medians",
          "type": "uint256[]"
        },
        {
          "indexed": false,
          "name": "lowerCutoffs",
          "type": "uint256[]"
        },
        {
          "indexed": false,
          "name": "higherCutoffs",
          "type": "uint256[]"
        },
        {
          "indexed": false,
          "name": "jobIds",
          "type": "uint256[]"
        },
        {
          "indexed": false,
          "name": "timestamp",
          "type": "uint256"
        }
      ],
      "name": "BlockConfirmed",
      "type": "event"
    },
    {
      "anonymous": false,
      "inputs": [
        {
          "indexed": true,
          "name": "account",
          "type": "address"
        }
      ],
      "name": "WriterAdded",
      "type": "event"
    },
    {
      "anonymous": false,
      "inputs": [
        {
          "indexed": true,
          "name": "account",
          "type": "address"
        }
      ],
      "name": "WriterRemoved",
      "type": "event"
    },
    {
      "anonymous": false,
      "inputs": [
        {
          "indexed": false,
          "name": "a",
          "type": "uint256"
        }
      ],
      "name": "DebugUint256",
      "type": "event"
    },
    {
      "constant": true,
      "inputs": [
        {
          "name": "epoch",
          "type": "uint256"
        }
      ],
      "name": "getBlock",
      "outputs": [
        {
          "components": [
            {
              "name": "proposerId",
              "type": "uint256"
            },
            {
              "name": "jobIds",
              "type": "uint256[]"
            },
            {
              "name": "medians",
              "type": "uint256[]"
            },
            {
              "name": "lowerCutoffs",
              "type": "uint256[]"
            },
            {
              "name": "higherCutoffs",
              "type": "uint256[]"
            },
            {
              "name": "iteration",
              "type": "uint256"
            },
            {
              "name": "biggestStake",
              "type": "uint256"
            },
            {
              "name": "valid",
              "type": "bool"
            }
          ],
          "name": "_block",
          "type": "tuple"
        }
      ],
      "payable": false,
      "stateMutability": "view",
      "type": "function"
    },
    {
      "constant": true,
      "inputs": [
        {
          "name": "epoch",
          "type": "uint256"
        }
      ],
      "name": "getBlockMedians",
      "outputs": [
        {
          "name": "_blockMedians",
          "type": "uint256[]"
        }
      ],
      "payable": false,
      "stateMutability": "view",
      "type": "function"
    },
    {
      "constant": true,
      "inputs": [
        {
          "name": "epoch",
          "type": "uint256"
        }
      ],
      "name": "getLowerCutoffs",
      "outputs": [
        {
          "name": "_lowerCutoffs",
          "type": "uint256[]"
        }
      ],
      "payable": false,
      "stateMutability": "view",
      "type": "function"
    },
    {
      "constant": true,
      "inputs": [
        {
          "name": "epoch",
          "type": "uint256"
        }
      ],
      "name": "getHigherCutoffs",
      "outputs": [
        {
          "name": "_higherCutoffs",
          "type": "uint256[]"
        }
      ],
      "payable": false,
      "stateMutability": "view",
      "type": "function"
    },
    {
      "constant": true,
      "inputs": [
        {
          "name": "epoch",
          "type": "uint256"
        },
        {
          "name": "proposedBlock",
          "type": "uint256"
        }
      ],
      "name": "getProposedBlock",
      "outputs": [
        {
          "components": [
            {
              "name": "proposerId",
              "type": "uint256"
            },
            {
              "name": "jobIds",
              "type": "uint256[]"
            },
            {
              "name": "medians",
              "type": "uint256[]"
            },
            {
              "name": "lowerCutoffs",
              "type": "uint256[]"
            },
            {
              "name": "higherCutoffs",
              "type": "uint256[]"
            },
            {
              "name": "iteration",
              "type": "uint256"
            },
            {
              "name": "biggestStake",
              "type": "uint256"
            },
            {
              "name": "valid",
              "type": "bool"
            }
          ],
          "name": "_block",
          "type": "tuple"
        },
        {
          "name": "_blockMedians",
          "type": "uint256[]"
        },
        {
          "name": "_lowerCutoffs",
          "type": "uint256[]"
        },
        {
          "name": "_higherCutoffs",
          "type": "uint256[]"
        }
      ],
      "payable": false,
      "stateMutability": "view",
      "type": "function"
    },
    {
      "constant": true,
      "inputs": [
        {
          "name": "epoch",
          "type": "uint256"
        },
        {
          "name": "proposedBlock",
          "type": "uint256"
        }
      ],
      "name": "getProposedBlockMedians",
      "outputs": [
        {
          "name": "_blockMedians",
          "type": "uint256[]"
        }
      ],
      "payable": false,
      "stateMutability": "view",
      "type": "function"
    },
    {
      "constant": true,
      "inputs": [
        {
          "name": "epoch",
          "type": "uint256"
        }
      ],
      "name": "getNumProposedBlocks",
      "outputs": [
        {
          "name": "",
          "type": "uint256"
        }
      ],
      "payable": false,
      "stateMutability": "view",
      "type": "function"
    },
    {
      "constant": false,
      "inputs": [
        {
          "name": "_stakeManagerAddress",
          "type": "address"
        },
        {
          "name": "_stateManagerAddress",
          "type": "address"
        },
        {
          "name": "_voteManagerAddress",
          "type": "address"
        },
        {
          "name": "_jobManagerAddress",
          "type": "address"
        }
      ],
      "name": "init",
      "outputs": [],
      "payable": false,
      "stateMutability": "nonpayable",
      "type": "function"
    },
    {
      "constant": false,
      "inputs": [
        {
          "name": "epoch",
          "type": "uint256"
        },
        {
          "name": "jobIds",
          "type": "uint256[]"
        },
        {
          "name": "medians",
          "type": "uint256[]"
        },
        {
          "name": "lowerCutoffs",
          "type": "uint256[]"
        },
        {
          "name": "higherCutoffs",
          "type": "uint256[]"
        },
        {
          "name": "iteration",
          "type": "uint256"
        },
        {
          "name": "biggestStakerId",
          "type": "uint256"
        }
      ],
      "name": "propose",
      "outputs": [],
      "payable": false,
      "stateMutability": "nonpayable",
      "type": "function"
    },
    {
      "constant": false,
      "inputs": [
        {
          "name": "epoch",
          "type": "uint256"
        },
        {
          "name": "assetId",
          "type": "uint256"
        },
        {
          "name": "sorted",
          "type": "uint256[]"
        }
      ],
      "name": "giveSorted",
      "outputs": [],
      "payable": false,
      "stateMutability": "nonpayable",
      "type": "function"
    },
    {
      "constant": false,
      "inputs": [
        {
          "name": "epoch",
          "type": "uint256"
        }
      ],
      "name": "resetDispute",
      "outputs": [],
      "payable": false,
      "stateMutability": "nonpayable",
      "type": "function"
    },
    {
      "constant": false,
      "inputs": [
        {
          "name": "epoch",
          "type": "uint256"
        },
        {
          "name": "blockId",
          "type": "uint256"
        }
      ],
      "name": "finalizeDispute",
      "outputs": [],
      "payable": false,
      "stateMutability": "nonpayable",
      "type": "function"
    },
    {
      "constant": true,
      "inputs": [
        {
          "name": "iteration",
          "type": "uint256"
        },
        {
          "name": "biggestStakerId",
          "type": "uint256"
        },
        {
          "name": "stakerId",
          "type": "uint256"
        }
      ],
      "name": "isElectedProposer",
      "outputs": [
        {
          "name": "",
          "type": "bool"
        }
      ],
      "payable": false,
      "stateMutability": "view",
      "type": "function"
    },
    {
      "constant": false,
      "inputs": [],
      "name": "confirmBlock",
      "outputs": [],
      "payable": false,
      "stateMutability": "nonpayable",
      "type": "function"
    }
  ],
  "bytecode": "0x608060405262000018336001600160e01b036200001e16565b62000221565b620000398160006200007060201b62002bb31790919060201c565b6040516001600160a01b038216907f6ff3aa2ea7b53070f6d9d07a445d338d89e8edef44250ffa8be19f53910d4a2e90600090a250565b6200008582826001600160e01b03620000ed16565b15620000c8576040517f08c379a0000000000000000000000000000000000000000000000000000000008152600401620000bf90620001ee565b60405180910390fd5b6001600160a01b0316600090815260209190915260409020805460ff19166001179055565b60006001600160a01b03821662000132576040517f08c379a0000000000000000000000000000000000000000000000000000000008152600401620000bf9062000206565b506001600160a01b03166000908152602091909152604090205460ff1690565b600062000161601f8362000218565b7f526f6c65733a206163636f756e7420616c72656164792068617320726f6c6500815260200192915050565b60006200019c60228362000218565b7f526f6c65733a206163636f756e7420697320746865207a65726f20616464726581527f7373000000000000000000000000000000000000000000000000000000000000602082015260400192915050565b60208082528101620002008162000152565b92915050565b6020808252810162000200816200018d565b90815260200190565b613cca80620002316000396000f3fe608060405234801561001057600080fd5b50600436106101585760003560e01c80637542ff95116100c3578063d2a4669a1161007c578063d2a4669a146102ed578063da2824a814610300578063df4eb59c14610313578063e38c7c421461031b578063f25b3f991461033b578063fae4425d1461034e57610158565b80637542ff951461025f578063828496d61461026757806392b484111461028c5780639b87f644146102af578063a27ce1ef146102b7578063d1a4a43d146102da57610158565b8063378ab9a911610115578063378ab9a9146101f65780633cd32fd4146102165780633df395a31461022957806342c1e587146102315780634e6753b7146102395780635ce8772f1461024c57610158565b806304c075691461015d57806306552ff31461018657806317d99c041461019b5780631d69ff9b146101ae5780632b29ba23146101ce5780632e716fb1146101e1575b600080fd5b61017061016b366004612f8b565b610361565b60405161017d9190613927565b60405180910390f35b610199610194366004612eed565b610511565b005b6101996101a9366004612fe3565b610561565b6101c16101bc366004613174565b610a1c565b60405161017d91906137c8565b6101c16101dc366004612ec7565b610d9b565b6101e9610db3565b60405161017d91906137d6565b610209610204366004612f8b565b610dc2565b60405161017d91906137b7565b6101996102243660046130df565b610e27565b6101e96112ca565b6101e96112d9565b61019961024736600461310f565b6112e8565b61019961025a366004612f8b565b611921565b6101e9611b51565b61027a610275366004612fa9565b611b60565b60405161017d96959493929190613b38565b61029f61029a3660046130df565b611b9e565b60405161017d9493929190613afa565b610199611be4565b6102ca6102c53660046130df565b61210a565b60405161017d9493929190613938565b6102096102e83660046130df565b6122fe565b6102096102fb366004612f8b565b612384565b61019961030e366004612ec7565b6123e7565b610199612415565b61032e610329366004612f8b565b61241e565b60405161017d919061398f565b61029f610349366004612f8b565b612430565b61020961035c366004612f8b565b61245a565b610369612c47565b60008281526003602090815260409182902082516101008101845281548152600182018054855181860281018601909652808652919492938581019392908301828280156103d657602002820191906000526020600020905b8154815260200190600101908083116103c2575b505050505081526020016002820180548060200260200160405190810160405280929190818152602001828054801561042e57602002820191906000526020600020905b81548152602001906001019080831161041a575b505050505081526020016003820180548060200260200160405190810160405280929190818152602001828054801561048657602002820191906000526020600020905b815481526020019060010190808311610472575b50505050508152602001600482018054806020026020016040519081016040528092919081815260200182805480156104de57602002820191906000526020600020905b8154815260200190600101908083116104ca575b5050509183525050600582015460208201526006820154604082015260079091015460ff16151560609091015292915050565b600480546001600160a01b039586166001600160a01b0319918216179091556005805494861694821694909417909355600680549285169284169290921790915560078054919093169116179055565b60055460408051630eaf323560e31b8152905189926001600160a01b03169163757991a8916004808301926020929190829003018186803b1580156105a557600080fd5b505afa1580156105b9573d6000803e3d6000fd5b505050506040513d601f19601f820116820180604052506105dd9190810190612f4e565b81146106045760405162461bcd60e51b81526004016105fb906138a7565b60405180910390fd5b73__Constants_____________________________63c198f8ba6040518163ffffffff1660e01b815260040160206040518083038186803b15801561064857600080fd5b505af415801561065c573d6000803e3d6000fd5b505050506040513d601f19601f8201168201806040525061068091908101906131b7565b60ff16600560009054906101000a90046001600160a01b03166001600160a01b0316631865c57d6040518163ffffffff1660e01b815260040160206040518083038186803b1580156106d157600080fd5b505afa1580156106e5573d6000803e3d6000fd5b505050506040513d601f19601f820116820180604052506107099190810190612f4e565b81146107275760405162461bcd60e51b81526004016105fb90613907565b60048054604051636022a48560e01b81526000926001600160a01b0390921691636022a48591610759913391016137a9565b60206040518083038186803b15801561077157600080fd5b505afa158015610785573d6000803e3d6000fd5b505050506040513d601f19601f820116820180604052506107a99190810190612f4e565b90506107b6858583610a1c565b6107d25760405162461bcd60e51b81526004016105fb90613857565b73__Constants_____________________________63375b3c0a6040518163ffffffff1660e01b815260040160206040518083038186803b15801561081657600080fd5b505af415801561082a573d6000803e3d6000fd5b505050506040513d601f19601f8201168201806040525061084e9190810190612f4e565b600480546040516371e4cc7f60e11b81526001600160a01b039091169163e3c998fe9161087d9186910161398f565b6101006040518083038186803b15801561089657600080fd5b505afa1580156108aa573d6000803e3d6000fd5b505050506040513d601f19601f820116820180604052506108ce9190810190612f6c565b6040015110156108f05760405162461bcd60e51b81526004016105fb906138e7565b6109c98a6040518061010001604052808481526020018c81526020018b81526020018a8152602001898152602001888152602001600460009054906101000a90046001600160a01b03166001600160a01b031663e3c998fe896040518263ffffffff1660e01b8152600401610965919061398f565b6101006040518083038186803b15801561097e57600080fd5b505afa158015610992573d6000803e3d6000fd5b505050506040513d601f19601f820116820180604052506109b69190810190612f6c565b60400151815260016020909101526124bd565b7fee036cc96c88163f353feaa4d497e88baaebeb631f40ad9b8a6d51bb6fad40768a828b8b8b8b8b8b42604051610a08999897969594939291906139c6565b60405180910390a150505050505050505050565b600081610b67600173__Random________________________________635075dbfb600a600460009054906101000a90046001600160a01b03166001600160a01b031663bc788d466040518163ffffffff1660e01b815260040160206040518083038186803b158015610a8e57600080fd5b505afa158015610aa2573d6000803e3d6000fd5b505050506040513d601f19601f82011682018060405250610ac69190810190612f4e565b8a604051602001610ad7919061398f565b604051602081830303815290604052805190602001206040518463ffffffff1660e01b8152600401610b0b939291906137ff565b60206040518083038186803b158015610b2357600080fd5b505af4158015610b37573d6000803e3d6000fd5b505050506040513d601f19601f82011682018060405250610b5b9190810190612f4e565b9063ffffffff612a1716565b14610b7457506000610d94565b600073__Random________________________________63b07ceab8600a8588604051602001610ba59291906139b8565b604051602081830303815290604052805190602001206040518363ffffffff1660e01b8152600401610bd89291906137e4565b60206040518083038186803b158015610bf057600080fd5b505af4158015610c04573d6000803e3d6000fd5b505050506040513d601f19601f82011682018060405250610c289190810190612f4e565b90506000610c418264010000000063ffffffff612a3c16565b600480546040516371e4cc7f60e11b81529293506000926001600160a01b039091169163e3c998fe91610c76918a910161398f565b6101006040518083038186803b158015610c8f57600080fd5b505afa158015610ca3573d6000803e3d6000fd5b505050506040513d601f19601f82011682018060405250610cc79190810190612f6c565b6040908101516004805492516371e4cc7f60e11b8152919350610d6a92640100000000926001600160a01b039091169163e3c998fe91610d09918b910161398f565b6101006040518083038186803b158015610d2257600080fd5b505afa158015610d36573d6000803e3d6000fd5b505050506040513d601f19601f82011682018060405250610d5a9190810190612f6c565b604001519063ffffffff612a6c16565b610d7a838363ffffffff612a6c16565b1115610d8c5760009350505050610d94565b600193505050505b9392505050565b6000610dad818363ffffffff612aa616565b92915050565b6005546001600160a01b031681565b600081815260036020908152604091829020600201805483518184028101840190945280845260609392830182828015610e1b57602002820191906000526020600020905b815481526020019060010190808311610e07575b50939695505050505050565b60055460408051630eaf323560e31b8152905184926001600160a01b03169163757991a8916004808301926020929190829003018186803b158015610e6b57600080fd5b505afa158015610e7f573d6000803e3d6000fd5b505050506040513d601f19601f82011682018060405250610ea39190810190612f4e565b8114610ec15760405162461bcd60e51b81526004016105fb906138a7565b73__Constants_____________________________63f240f7c36040518163ffffffff1660e01b815260040160206040518083038186803b158015610f0557600080fd5b505af4158015610f19573d6000803e3d6000fd5b505050506040513d601f19601f82011682018060405250610f3d91908101906131b7565b60ff16600560009054906101000a90046001600160a01b03166001600160a01b0316631865c57d6040518163ffffffff1660e01b815260040160206040518083038186803b158015610f8e57600080fd5b505afa158015610fa2573d6000803e3d6000fd5b505050506040513d601f19601f82011682018060405250610fc69190810190612f4e565b8114610fe45760405162461bcd60e51b81526004016105fb90613907565b60008481526001602090815260408083203384529091529081902060050154600654915163a6a145d960e01b815290916001600160a01b03169063a6a145d99061103490889085906004016139b8565b60206040518083038186803b15801561104c57600080fd5b505afa158015611060573d6000803e3d6000fd5b505050506040513d601f19601f820116820180604052506110849190810190612f4e565b6000868152600160209081526040808320338452909152902054146110bb5760405162461bcd60e51b81526004016105fb906138f7565b60008581526001602081815260408084203385528252808420928301546002808501546003909501548b875293529084208054919491899081106110fb57fe5b90600052602060002090600802016000015490506000841161111c57600080fd5b600089815260026020526040902080548591908a90811061113957fe5b9060005260206000209060080201600201868154811061115557fe5b90600052602060002001541415806111af5750600089815260026020526040902080548491908a90811061118557fe5b906000526020600020906008020160030186815481106111a157fe5b906000526020600020015414155b806111fc5750600089815260026020526040902080548391908a9081106111d257fe5b906000526020600020906008020160040186815481106111ee57fe5b906000526020600020015414155b156112a757600089815260026020526040812080548a90811061121b57fe5b60009182526020909120600890910201600701805460ff191691151591909117905560048054604051630f91ce1960e01b81526001600160a01b0390911691630f91ce199161127091859133918f910161399d565b600060405180830381600087803b15801561128a57600080fd5b505af115801561129e573d6000803e3d6000fd5b505050506112bf565b60405162461bcd60e51b81526004016105fb906138d7565b505050505050505050565b6007546001600160a01b031681565b6006546001600160a01b031681565b60055460408051630eaf323560e31b8152905185926001600160a01b03169163757991a8916004808301926020929190829003018186803b15801561132c57600080fd5b505afa158015611340573d6000803e3d6000fd5b505050506040513d601f19601f820116820180604052506113649190810190612f4e565b81146113825760405162461bcd60e51b81526004016105fb906138a7565b73__Constants_____________________________63f240f7c36040518163ffffffff1660e01b815260040160206040518083038186803b1580156113c657600080fd5b505af41580156113da573d6000803e3d6000fd5b505050506040513d601f19601f820116820180604052506113fe91908101906131b7565b60ff16600560009054906101000a90046001600160a01b03166001600160a01b0316631865c57d6040518163ffffffff1660e01b815260040160206040518083038186803b15801561144f57600080fd5b505afa158015611463573d6000803e3d6000fd5b505050506040513d601f19601f820116820180604052506114879190810190612f4e565b81146114a55760405162461bcd60e51b81526004016105fb90613907565b60065460405163a6a145d960e01b815260009161153b916002916001600160a01b03169063a6a145d9906114df908b908b906004016139b8565b60206040518083038186803b1580156114f757600080fd5b505afa15801561150b573d6000803e3d6000fd5b505050506040513d601f19601f8201168201806040525061152f9190810190612f4e565b9063ffffffff612aee16565b60065460405163a6a145d960e01b8152919250600091611579916004916001600160a01b039091169063a6a145d9906114df908c908c9086016139b8565b60065460405163a6a145d960e01b815291925060009161161a9160049161152f916003916001600160a01b039091169063a6a145d9906115be908f908f9088016139b8565b60206040518083038186803b1580156115d657600080fd5b505afa1580156115ea573d6000803e3d6000fd5b505050506040513d601f19601f8201168201806040525061160e9190810190612f4e565b9063ffffffff612a6c16565b60008981526001602090815260408083203384529091529020805460049091015491925090816116685760008a815260016020908152604080832033845290915290206005018990556116a3565b60008a815260016020908152604080832033845290915290206005015489146116a35760405162461bcd60e51b81526004016105fb906138c7565b60005b88518110156118f257818982815181106116bc57fe5b6020026020010151116116e15760405162461bcd60e51b81526004016105fb90613837565b8881815181106116ed57fe5b602002602001015191506117af600660009054906101000a90046001600160a01b03166001600160a01b0316639c66556f8d8d8d868151811061172c57fe5b60200260200101516040518463ffffffff1660e01b815260040161175293929190613aec565b60206040518083038186803b15801561176a57600080fd5b505afa15801561177e573d6000803e3d6000fd5b505050506040513d601f19601f820116820180604052506117a29190810190612f4e565b849063ffffffff612a1716565b60008c81526001602090815260408083203384529091529020600201549093501580156117dc5750848310155b15611816578881815181106117ed57fe5b60209081029190910181015160008d815260018352604080822033835290935291909120600201555b60008b8152600160208181526040808420338552909152909120015415801561183e57508583115b156118785788818151811061184f57fe5b60209081029190910181015160008d815260018084526040808320338452909452929020909101555b60008b81526001602090815260408083203384529091529020600301541580156118a157508383115b156118db578881815181106118b257fe5b60209081029190910181015160008d815260018352604080822033835290935291909120600301555b6127105a10156118ea576118f2565b6001016116a6565b506000998a52600160209081526040808c20338d52909152909920600481019990995590975550505050505050565b60055460408051630eaf323560e31b8152905183926001600160a01b03169163757991a8916004808301926020929190829003018186803b15801561196557600080fd5b505afa158015611979573d6000803e3d6000fd5b505050506040513d601f19601f8201168201806040525061199d9190810190612f4e565b81146119bb5760405162461bcd60e51b81526004016105fb906138a7565b73__Constants_____________________________63f240f7c36040518163ffffffff1660e01b815260040160206040518083038186803b1580156119ff57600080fd5b505af4158015611a13573d6000803e3d6000fd5b505050506040513d601f19601f82011682018060405250611a3791908101906131b7565b60ff16600560009054906101000a90046001600160a01b03166001600160a01b0316631865c57d6040518163ffffffff1660e01b815260040160206040518083038186803b158015611a8857600080fd5b505afa158015611a9c573d6000803e3d6000fd5b505050506040513d601f19601f82011682018060405250611ac09190810190612f4e565b8114611ade5760405162461bcd60e51b81526004016105fb90613907565b50506040805160c08101825260008082526020808301828152838501838152606085018481526080860185815260a0870186815298865260018086528887203388529095529690942094518555905191840191909155516002830155516003820155905160048201559051600590910155565b6004546001600160a01b031681565b600160208181526000938452604080852090915291835291208054918101546002820154600383015460048401546005909401549293919290919086565b60026020528160005260406000208181548110611bb757fe5b60009182526020909120600890910201805460058201546006830154600790930154919450925060ff1684565b611bed33610d9b565b611c095760405162461bcd60e51b81526004016105fb90613917565b60055460408051630eaf323560e31b815290516000926001600160a01b03169163757991a8916004808301926020929190829003018186803b158015611c4e57600080fd5b505afa158015611c62573d6000803e3d6000fd5b505050506040513d601f19601f82011682018060405250611c869190810190612f4e565b6000198101600090815260036020526040902054909150158015611cbc5750600019810160009081526002602052604090205415155b156121065760005b600019820160009081526002602052604090205460ff821610156121045760001982016000908152600260205260409020805460ff8316908110611d0457fe5b600091825260209091206007600890920201015460ff16156120fc5760001982016000908152600260205260409020805460ff8316908110611d4257fe5b906000526020600020906008020160036000600185038152602001908152602001600020600082015481600001556001820181600101908054611d86929190612c8e565b5060028281018054611d9b9284019190612c8e565b5060038281018054611db09284019190612c8e565b5060048281018054611dc59284019190612c8e565b5060058281015490820155600680830154908201556007918201549101805460ff191660ff928316151517905560001983016000908152600260205260408120805491929091908416908110611e1757fe5b90600052602060002090600802016000015490507f5ef264ae9101b91bd7117350c5e85901297fa0569e7a3e07eb7ec0a6281529f06001840382600260006001880381526020019081526020016000208560ff1681548110611e7557fe5b9060005260206000209060080201600201600260006001890381526020019081526020016000208660ff1681548110611eaa57fe5b90600052602060002090600802016003016002600060018a0381526020019081526020016000208760ff1681548110611edf57fe5b90600052602060002090600802016004016002600060018b0381526020019081526020016000208860ff1681548110611f1457fe5b906000526020600020906008020160010142604051611f399796959493929190613a68565b60405180910390a160005b60001984016000908152600260205260409020805460ff8516908110611f6657fe5b9060005260206000209060080201600101805490508160ff161015612090576007546000198501600090815260026020526040902080546001600160a01b03909216916356350bdf919060ff8716908110611fbd57fe5b90600052602060002090600802016001018360ff1681548110611fdc57fe5b9060005260206000200154600260006001890381526020019081526020016000208660ff168154811061200b57fe5b90600052602060002090600802016002018460ff168154811061202a57fe5b90600052602060002001546040518363ffffffff1660e01b81526004016120529291906139b8565b600060405180830381600087803b15801561206c57600080fd5b505af1158015612080573d6000803e3d6000fd5b505060019092019150611f449050565b506004805460405163746c8b6560e01b81526001600160a01b039091169163746c8b65916120c29185918891016139b8565b600060405180830381600087803b1580156120dc57600080fd5b505af11580156120f0573d6000803e3d6000fd5b50505050505050612108565b600101611cc4565b505b505b565b612112612c47565b606080606060026000878152602001908152602001600020858154811061213557fe5b90600052602060002090600802016040518061010001604052908160008201548152602001600182018054806020026020016040519081016040528092919081815260200182805480156121a857602002820191906000526020600020905b815481526020019060010190808311612194575b505050505081526020016002820180548060200260200160405190810160405280929190818152602001828054801561220057602002820191906000526020600020905b8154815260200190600101908083116121ec575b505050505081526020016003820180548060200260200160405190810160405280929190818152602001828054801561225857602002820191906000526020600020905b815481526020019060010190808311612244575b50505050508152602001600482018054806020026020016040519081016040528092919081815260200182805480156122b057602002820191906000526020600020905b81548152602001906001019080831161229c575b505050918352505060058201546020820152600682015460408083019190915260079092015460ff161515606091820152908201519082015160808301519299919850965090945092505050565b60008281526002602052604090208054606091908390811061231c57fe5b906000526020600020906008020160020180548060200260200160405190810160405280929190818152602001828054801561237757602002820191906000526020600020905b815481526020019060010190808311612363575b5093979650505050505050565b600081815260036020818152604092839020909101805483518184028101840190945280845260609392830182828015610e1b5760200282019190600052602060002090815481526020019060010190808311610e075750939695505050505050565b6123f033610d9b565b61240c5760405162461bcd60e51b81526004016105fb90613917565b61210681612b23565b61210833612b6b565b60009081526002602052604090205490565b60036020526000908152604090208054600582015460068301546007909301549192909160ff1684565b600081815260036020908152604091829020600401805483518184028101840190945280845260609392830182828015610e1b5760200282019190600052602060002090815481526020019060010190808311610e075750939695505050505050565b60008281526002602052604090205461259e576000828152600260209081526040822080546001818101808455928552938390208551600890920201908155848301518051929486949293612519939185019290910190612cde565b5060408201518051612535916002840191602090910190612cde565b5060608201518051612551916003840191602090910190612cde565b506080820151805161256d916004840191602090910190612cde565b5060a0820151600582015560c0820151600682015560e0909101516007909101805460ff1916911515919091179055505b600082815260026020526040812054905b60008481526002602052604090205481101561264b5760c083015160008581526002602052604090208054839081106125e457fe5b90600052602060002090600802016006015410156126045780915061264b565b60a0830151600085815260026020526040902080548390811061262357fe5b90600052602060002090600802016005015411156126435780915061264b565b6001016125af565b506000838152600260209081526040822080546001818101808455928552938390208651600890920201908155858301518051929487949293612695939185019290910190612cde565b50604082015180516126b1916002840191602090910190612cde565b50606082015180516126cd916003840191602090910190612cde565b50608082015180516126e9916004840191602090910190612cde565b5060a0820151600582015560c0820151600682015560e0909101516007909101805460ff191691151591909117905550600083815260026020526040902054600019015b818111156128205760008481526002602052604090208054600019830190811061275357fe5b906000526020600020906008020160026000868152602001908152602001600020828154811061277f57fe5b600091825260209091208254600890920201908155600180830180546127a89284019190612c8e565b50600282810180546127bd9284019190612c8e565b50600382810180546127d29284019190612c8e565b50600482810180546127e79284019190612c8e565b5060058281015490820155600680830154908201556007918201549101805460ff191660ff90921615159190911790556000190161272d565b50600083815260026020526040902080548391908390811061283e57fe5b9060005260206000209060080201600082015181600001556020820151816001019080519060200190612872929190612cde565b506040820151805161288e916002840191602090910190612cde565b50606082015180516128aa916003840191602090910190612cde565b50608082015180516128c6916004840191602090910190612cde565b5060a0820151816005015560c0820151816006015560e08201518160070160006101000a81548160ff02191690831515021790555090505073__Constants_____________________________63379597e06040518163ffffffff1660e01b815260040160206040518083038186803b15801561294257600080fd5b505af4158015612956573d6000803e3d6000fd5b505050506040513d601f19601f8201168201806040525061297a9190810190612f4e565b6000848152600260205260409020541115612a12576000838152600260205260409020805460001981019081106129ad57fe5b600091825260208220600890910201818155906129cd6001830182612d19565b6129db600283016000612d19565b6129e9600383016000612d19565b6129f7600483016000612d19565b506000600582018190556006820155600701805460ff191690555b505050565b600082820183811015610d945760405162461bcd60e51b81526004016105fb90613847565b600081612a5b5760405162461bcd60e51b81526004016105fb90613877565b818381612a6457fe5b069392505050565b600082612a7b57506000610dad565b82820282848281612a8857fe5b0414610d945760405162461bcd60e51b81526004016105fb90613897565b60006001600160a01b038216612ace5760405162461bcd60e51b81526004016105fb906138b7565b506001600160a01b03166000908152602091909152604090205460ff1690565b6000808211612b0f5760405162461bcd60e51b81526004016105fb90613867565b6000828481612b1a57fe5b04949350505050565b612b3460008263ffffffff612bb316565b6040516001600160a01b038216907f6ff3aa2ea7b53070f6d9d07a445d338d89e8edef44250ffa8be19f53910d4a2e90600090a250565b612b7c60008263ffffffff612bff16565b6040516001600160a01b038216907f86e5bbceda94081c32220d685f37cc4e3ea7bb0be2dfbf0cb703579505a5390e90600090a250565b612bbd8282612aa6565b15612bda5760405162461bcd60e51b81526004016105fb90613827565b6001600160a01b0316600090815260209190915260409020805460ff19166001179055565b612c098282612aa6565b612c255760405162461bcd60e51b81526004016105fb90613887565b6001600160a01b0316600090815260209190915260409020805460ff19169055565b604051806101000160405280600081526020016060815260200160608152602001606081526020016060815260200160008152602001600081526020016000151581525090565b828054828255906000526020600020908101928215612cce5760005260206000209182015b82811115612cce578254825591600101919060010190612cb3565b50612cda929150612d33565b5090565b828054828255906000526020600020908101928215612cce579160200282015b82811115612cce578251825591602001919060010190612cfe565b508054600082559060005260206000209081019061210691905b612d4d91905b80821115612cda5760008155600101612d39565b90565b8035610dad81613c61565b8051610dad81613c61565b600082601f830112612d7757600080fd5b8135612d8a612d8582613bb9565b613b92565b91508181835260208401935060208101905083856020840282011115612daf57600080fd5b60005b83811015612ddb5781612dc58882612eb1565b8452506020928301929190910190600101612db2565b5050505092915050565b8051610dad81613c75565b60006101008284031215612e0357600080fd5b612e0e610100613b92565b90506000612e1c8484612de5565b8252506020612e2d84848301612d5b565b6020830152506040612e4184828501612de5565b6040830152506060612e5584828501612de5565b6060830152506080612e6984828501612de5565b60808301525060a0612e7d84828501612de5565b60a08301525060c0612e9184828501612de5565b60c08301525060e0612ea584828501612de5565b60e08301525092915050565b8035610dad81613c75565b8051610dad81613c7e565b600060208284031215612ed957600080fd5b6000612ee58484612d50565b949350505050565b60008060008060808587031215612f0357600080fd5b6000612f0f8787612d50565b9450506020612f2087828801612d50565b9350506040612f3187828801612d50565b9250506060612f4287828801612d50565b91505092959194509250565b600060208284031215612f6057600080fd5b6000612ee58484612de5565b60006101008284031215612f7f57600080fd5b6000612ee58484612df0565b600060208284031215612f9d57600080fd5b6000612ee58484612eb1565b60008060408385031215612fbc57600080fd5b6000612fc88585612eb1565b9250506020612fd985828601612d50565b9150509250929050565b600080600080600080600060e0888a031215612ffe57600080fd5b600061300a8a8a612eb1565b975050602088013567ffffffffffffffff81111561302757600080fd5b6130338a828b01612d66565b965050604088013567ffffffffffffffff81111561305057600080fd5b61305c8a828b01612d66565b955050606088013567ffffffffffffffff81111561307957600080fd5b6130858a828b01612d66565b945050608088013567ffffffffffffffff8111156130a257600080fd5b6130ae8a828b01612d66565b93505060a06130bf8a828b01612eb1565b92505060c06130d08a828b01612eb1565b91505092959891949750929550565b600080604083850312156130f257600080fd5b60006130fe8585612eb1565b9250506020612fd985828601612eb1565b60008060006060848603121561312457600080fd5b60006131308686612eb1565b935050602061314186828701612eb1565b925050604084013567ffffffffffffffff81111561315e57600080fd5b61316a86828701612d66565b9150509250925092565b60008060006060848603121561318957600080fd5b60006131958686612eb1565b93505060206131a686828701612eb1565b925050604061316a86828701612eb1565b6000602082840312156131c957600080fd5b6000612ee58484612ebc565b60006131e183836132fd565b505060200190565b6131f281613c25565b82525050565b600061320382613bec565b61320d8185613bfa565b935061321883613bda565b8060005b8381101561324657815161323088826131d5565b975061323b83613bda565b92505060010161321c565b509495945050505050565b600061325c82613bec565b6132668185613bfa565b935061327183613bda565b8060005b8381101561324657815161328988826131d5565b975061329483613bda565b925050600101613275565b60006132aa82613bf0565b6132b48185613bfa565b93506132bf83613be0565b8060005b83811015613246576132d482613c55565b6132de88826131d5565b97506132e983613bf4565b9250506001016132c3565b6131f281613c0e565b6131f281612d4d565b6131f281613c2c565b6131f281613c37565b6000613325601f83613bfa565b7f526f6c65733a206163636f756e7420616c72656164792068617320726f6c6500815260200192915050565b600061335e602983613bfa565b7f736f727465645b695d206973206e6f742067726561746572207468616e206c618152681cdd159a5cda5d195960ba1b602082015260400192915050565b60006133a9601b83613bfa565b7f536166654d6174683a206164646974696f6e206f766572666c6f770000000000815260200192915050565b60006133e2600b83613bfa565b6a1b9bdd08195b1958dd195960aa1b815260200192915050565b6000613409601a83613bfa565b7f536166654d6174683a206469766973696f6e206279207a65726f000000000000815260200192915050565b6000613442601883613bfa565b7f536166654d6174683a206d6f64756c6f206279207a65726f0000000000000000815260200192915050565b600061347b602183613bfa565b7f526f6c65733a206163636f756e7420646f6573206e6f74206861766520726f6c8152606560f81b602082015260400192915050565b60006134be602183613bfa565b7f536166654d6174683a206d756c7469706c69636174696f6e206f766572666c6f8152607760f81b602082015260400192915050565b6000613501600f83613bfa565b6e0d2dcc6dee4e4cac6e840cae0dec6d608b1b815260200192915050565b600061352c602283613bfa565b7f526f6c65733a206163636f756e7420697320746865207a65726f206164647265815261737360f01b602082015260400192915050565b6000613570601483613bfa565b7341737365744964206e6f74206d61746368696e6760601b815260200192915050565b60006135a0603783613bfa565b7f50726f706f73656420416c7465726e61746520626c6f636b206973206964656e81527f746963616c20746f2070726f706f73656420626c6f636b000000000000000000602082015260400192915050565b60006135ff601983613bfa565b7f7374616b652062656c6f77206d696e696d756d207374616b6500000000000000815260200192915050565b6000613638602183613bfa565b7f546f74616c207374616b652072657665616c656420646f65736e74206d6174638152600d60fb1b602082015260400192915050565b600061367b600f83613bfa565b6e696e636f727265637420737461746560881b815260200192915050565b60006136a6603083613bfa565b7f577269746572526f6c653a2063616c6c657220646f6573206e6f74206861766581526f207468652057726974657220726f6c6560801b602082015260400192915050565b805160009061010084019061370085826132fd565b50602083015184820360208601526137188282613251565b915050604083015184820360408601526137328282613251565b9150506060830151848203606086015261374c8282613251565b915050608083015184820360808601526137668282613251565b91505060a083015161377b60a08601826132fd565b5060c083015161378e60c08601826132fd565b5060e08301516137a160e08601826132f4565b509392505050565b60208101610dad82846131e9565b60208082528101610d9481846131f8565b60208101610dad82846132f4565b60208101610dad8284613306565b604081016137f2828561330f565b610d9460208301846132fd565b6060810161380d828661330f565b61381a60208301856132fd565b612ee560408301846132fd565b60208082528101610dad81613318565b60208082528101610dad81613351565b60208082528101610dad8161339c565b60208082528101610dad816133d5565b60208082528101610dad816133fc565b60208082528101610dad81613435565b60208082528101610dad8161346e565b60208082528101610dad816134b1565b60208082528101610dad816134f4565b60208082528101610dad8161351f565b60208082528101610dad81613563565b60208082528101610dad81613593565b60208082528101610dad816135f2565b60208082528101610dad8161362b565b60208082528101610dad8161366e565b60208082528101610dad81613699565b60208082528101610d9481846136eb565b6080808252810161394981876136eb565b9050818103602083015261395d81866131f8565b9050818103604083015261397181856131f8565b9050818103606083015261398581846131f8565b9695505050505050565b60208101610dad82846132fd565b606081016139ab82866132fd565b61381a60208301856131e9565b604081016137f282856132fd565b61012081016139d5828c6132fd565b6139e2602083018b6132fd565b81810360408301526139f4818a6131f8565b90508181036060830152613a0881896131f8565b90508181036080830152613a1c81886131f8565b905081810360a0830152613a3081876131f8565b9050613a3f60c08301866132fd565b613a4c60e08301856132fd565b613a5a6101008301846132fd565b9a9950505050505050505050565b60e08101613a76828a6132fd565b613a8360208301896132fd565b8181036040830152613a95818861329f565b90508181036060830152613aa9818761329f565b90508181036080830152613abd818661329f565b905081810360a0830152613ad1818561329f565b9050613ae060c08301846132fd565b98975050505050505050565b6060810161380d82866132fd565b60808101613b0882876132fd565b613b1560208301866132fd565b613b2260408301856132fd565b613b2f60608301846132f4565b95945050505050565b60c08101613b4682896132fd565b613b5360208301886132fd565b613b6060408301876132fd565b613b6d60608301866132fd565b613b7a60808301856132fd565b613b8760a08301846132fd565b979650505050505050565b60405181810167ffffffffffffffff81118282101715613bb157600080fd5b604052919050565b600067ffffffffffffffff821115613bd057600080fd5b5060209081020190565b60200190565b60009081526020902090565b5190565b5490565b60010190565b90815260200190565b6000610dad82613c13565b151590565b6001600160a01b031690565b60ff1690565b6000610dad825b6000610dad82613c03565b6000610dad82613c1f565b6000610dad613c5083612d4d565b612d4d565b6000610dad8254613c42565b613c6a81613c03565b811461210657600080fd5b613c6a81612d4d565b613c6a81613c1f56fea365627a7a72305820736053b9c2d6006ac80850617c620227a82594bb52d1d6c84c15c75821c0c4776c6578706572696d656e74616cf564736f6c634300050a0040",
  "source": "pragma solidity 0.5.10;\npragma experimental ABIEncoderV2;\nimport \"../lib/Random.sol\";\nimport \"./Utils.sol\";\nimport \"./BlockStorage.sol\";\nimport \"./IStakeManager.sol\";\nimport \"./IStateManager.sol\";\nimport \"./IVoteManager.sol\";\nimport \"./IJobManager.sol\";\nimport \"openzeppelin-solidity/contracts/math/SafeMath.sol\";\nimport \"./WriterRole.sol\";\n\n\ncontract BlockManager is Utils, WriterRole, BlockStorage {\n    using SafeMath for uint256;\n\n    IStakeManager public stakeManager;\n    IStateManager public stateManager;\n    IVoteManager public voteManager;\n    IJobManager public jobManager;\n\n    modifier checkEpoch (uint256 epoch) {\n        require(epoch == stateManager.getEpoch(), \"incorrect epoch\");\n        _;\n    }\n\n    modifier checkState (uint256 state) {\n        require(state == stateManager.getState(), \"incorrect state\");\n        _;\n    }\n\n    function getBlock(uint256 epoch) external view returns(Structs.Block memory _block) {\n        return(blocks[epoch]);\n    }\n\n    function getBlockMedians(uint256 epoch) external view returns(uint256[] memory _blockMedians) {\n        _blockMedians = blocks[epoch].medians;\n        return(_blockMedians);\n    }\n\n    function getLowerCutoffs(uint256 epoch) external view returns(uint256[] memory _lowerCutoffs) {\n        _lowerCutoffs = blocks[epoch].lowerCutoffs;\n        return(_lowerCutoffs);\n    }\n\n    function getHigherCutoffs(uint256 epoch) external view returns(uint256[] memory _higherCutoffs) {\n        _higherCutoffs = blocks[epoch].higherCutoffs;\n        return(_higherCutoffs);\n    }\n\n    function getProposedBlock(uint256 epoch, uint256 proposedBlock)\n    external view returns(Structs.Block memory _block,\n    uint256[] memory _blockMedians,\n    uint256[] memory _lowerCutoffs,\n    uint256[] memory _higherCutoffs ) {\n        _block = proposedBlocks[epoch][proposedBlock];\n        return(_block, _block.medians, _block.lowerCutoffs, _block.higherCutoffs);\n    }\n\n    function getProposedBlockMedians(uint256 epoch, uint256 proposedBlock)\n    external view returns(uint256[] memory _blockMedians) {\n        _blockMedians = proposedBlocks[epoch][proposedBlock].medians;\n        return(_blockMedians);\n    }\n\n    function getNumProposedBlocks(uint256 epoch)\n    external view returns(uint256) {\n        return(proposedBlocks[epoch].length);\n    }\n\n    //disable after init.\n    function init(address _stakeManagerAddress, address _stateManagerAddress,\n                address _voteManagerAddress, address _jobManagerAddress) public {\n        stakeManager = IStakeManager(_stakeManagerAddress);\n        stateManager = IStateManager(_stateManagerAddress);\n        voteManager = IVoteManager(_voteManagerAddress);\n        jobManager = IJobManager(_jobManagerAddress);\n    }\n\n    event Proposed(uint256 epoch,\n                    uint256 stakerId,\n                    uint256[] jobIds,\n                    uint256[] medians,\n                    uint256[] lowerCutoffs,\n                    uint256[] higherCutoffs,\n                    uint256 iteration,\n                    uint256 biggestStakerId,\n                    uint256 timestamp);\n\n    // elected proposer proposes block. we use a probabilistic method to elect stakers weighted by stake\n    // protocol works like this. select a staker pseudorandomly (not weighted by anything)\n    // (todo what if it is below min stake)\n    // that staker then tosses a biased coin. bias = hisStake/biggestStake. if its heads, he can propose block\n    // end of iteration. try next iteration\n    // note that only one staker or no stakers selected in each iteration.\n    // stakers elected in higher iterations can also propose hoping that\n    // stakers with lower iteration do not propose for some reason\n    function propose (uint256 epoch,\n                    uint256[] memory jobIds,\n                    uint256[] memory medians,\n                    uint256[] memory lowerCutoffs,\n                    uint256[] memory higherCutoffs,\n                    uint256 iteration,\n                    uint256 biggestStakerId) public checkEpoch(epoch) checkState(Constants.propose()) {\n        uint256 proposerId = stakeManager.getStakerId(msg.sender);\n        // SchellingCoin sch = SchellingCoin(schAddress);\n        require(isElectedProposer(iteration, biggestStakerId, proposerId), \"not elected\");\n        require(stakeManager.getStaker(proposerId).stake >= Constants.minStake(), \"stake below minimum stake\");\n\n        // check if someone already proposed\n        // if (blocks[epoch].proposerId != 0) {\n        //     if (blocks[epoch].proposerId == proposerId) {\n        //         revert(\"Already Proposed\");\n        //     }\n        //     // if (stakers[biggestStakerId].stake == blocks[epoch].biggestStake &&\n        //     //     proposedBlocks[epoch].length >= Constants.maxAltBlocks()) {\n        //     //\n        //     //     require(proposedBlocks[epoch][4].iteration > iteration,\n        //     //             \"iteration not smaller than last elected staker\");\n        //     // } else\n        //     if (stakers[biggestStakerId].stake < blocks[epoch].biggestStake) {\n        //         revert(\"biggest stakers stake not bigger than as proposed by existing elected staker \");\n        //     }\n        // }\n        // blocks[epoch]\n        _insertAppropriately(epoch, Structs.Block(proposerId,\n                            jobIds,\n                            medians,\n                            lowerCutoffs,\n                            higherCutoffs,\n                            iteration,\n                            stakeManager.getStaker(biggestStakerId).stake,\n                            true));\n        // emit DebugUint256(pushAt);\n        // mint and give block reward\n        // if (Constants.blockReward() > 0) {\n        //     stakers[proposerId].stake = stakers[proposerId].stake.add(Constants.blockReward());\n        //     totalStake = totalStake.add(Constants.blockReward());\n        //     require(sch.mint(address(this), Constants.blockReward()));\n        // }\n        emit Proposed(epoch, proposerId, jobIds, medians, lowerCutoffs, higherCutoffs, iteration, biggestStakerId, now);\n    }\n\n    //anyone can give sorted votes in batches in dispute state\n    function giveSorted (uint256 epoch, uint256 assetId, uint256[] memory sorted) public\n    checkEpoch(epoch) checkState(Constants.dispute()) {\n        uint256 medianWeight = voteManager.getTotalStakeRevealed(epoch, assetId).div(2);\n        uint256 lowerCutoffWeight = voteManager.getTotalStakeRevealed(epoch, assetId).div(4);\n        uint256 higherCutoffWeight = (voteManager.getTotalStakeRevealed(epoch, assetId).mul(3)).div(4);\n        uint256 accWeight = disputes[epoch][msg.sender].accWeight;\n        uint256 lastVisited = disputes[epoch][msg.sender].lastVisited;\n        if (disputes[epoch][msg.sender].accWeight == 0) {\n            disputes[epoch][msg.sender].assetId = assetId;\n        } else {\n            require(disputes[epoch][msg.sender].assetId == assetId, \"AssetId not matching\");\n        }\n        for (uint256 i = 0; i < sorted.length; i++) {\n            require(sorted[i] > lastVisited, \"sorted[i] is not greater than lastVisited\");\n            lastVisited = sorted[i];\n            accWeight = accWeight.add(voteManager.getVoteWeight(epoch, assetId, sorted[i]));\n            //set  median, if conditions meet\n            if (disputes[epoch][msg.sender].lowerCutoff == 0 && accWeight >= lowerCutoffWeight) {\n                disputes[epoch][msg.sender].lowerCutoff = sorted[i];\n            }\n            if (disputes[epoch][msg.sender].median == 0 && accWeight > medianWeight) {\n                disputes[epoch][msg.sender].median = sorted[i];\n            }\n            if (disputes[epoch][msg.sender].higherCutoff == 0 && accWeight > higherCutoffWeight) {\n                disputes[epoch][msg.sender].higherCutoff = sorted[i];\n            }\n            //TODO verify how much gas required for below operations and update this value\n            if (gasleft() < 10000) break;\n        }\n        disputes[epoch][msg.sender].lastVisited = lastVisited;\n        disputes[epoch][msg.sender].accWeight = accWeight;\n    }\n\n    // //todo test\n    // //if any mistake made during giveSorted, resetDispute and start again\n    function resetDispute (uint256 epoch) public checkEpoch(epoch) checkState(Constants.dispute()) {\n        disputes[epoch][msg.sender] = Structs.Dispute(0, 0, 0, 0, 0, 0);\n    }\n\n    function finalizeDispute (uint256 epoch, uint256 blockId)\n    public checkEpoch(epoch) checkState(Constants.dispute()) {\n        uint256 assetId = disputes[epoch][msg.sender].assetId;\n        require(disputes[epoch][msg.sender].accWeight == voteManager.getTotalStakeRevealed(epoch, assetId),\n        \"Total stake revealed doesnt match\");\n        uint256 median = disputes[epoch][msg.sender].median;\n        uint256 lowerCutoff = disputes[epoch][msg.sender].lowerCutoff;\n        uint256 higherCutoff = disputes[epoch][msg.sender].higherCutoff;\n        uint256 proposerId = proposedBlocks[epoch][blockId].proposerId;\n        //\n        require(median > 0);\n        if (proposedBlocks[epoch][blockId].medians[assetId] != median ||\n            proposedBlocks[epoch][blockId].lowerCutoffs[assetId] != lowerCutoff ||\n            proposedBlocks[epoch][blockId].higherCutoffs[assetId] != higherCutoff) {\n            proposedBlocks[epoch][blockId].valid = false;\n            stakeManager.slash(proposerId, msg.sender, epoch);\n        } else {\n            revert(\"Proposed Alternate block is identical to proposed block\");\n        }\n    }\n\n    function isElectedProposer(uint256 iteration, uint256 biggestStakerId, uint256 stakerId) public view returns(bool) {\n       // rand = 0 -> totalStake-1\n       //add +1 since prng returns 0 to max-1 and staker start from 1\n        if ((Random.prng(10, stakeManager.getNumStakers(), keccak256(abi.encode(iteration))).add(1))\n        != stakerId) {return(false);}\n        bytes32 randHash = Random.prngHash(10, keccak256(abi.encode(stakerId, iteration)));\n        uint256 rand = uint256(randHash).mod(2**32);\n        uint256 biggestStake = stakeManager.getStaker(biggestStakerId).stake;\n        if (rand.mul(biggestStake) > stakeManager.getStaker(stakerId).stake.mul(2**32)) return(false);\n        return(true);\n    }\n\n    event BlockConfirmed(uint256 epoch,\n                    uint256 stakerId,\n                    uint256[] medians,\n                    uint256[] lowerCutoffs,\n                    uint256[] higherCutoffs,\n                    uint256[] jobIds,\n                    uint256 timestamp);\n\n    function confirmBlock() public onlyWriter {\n        uint256 epoch = stateManager.getEpoch();\n        if (blocks[epoch - 1].proposerId == 0 && proposedBlocks[epoch - 1].length > 0) {\n            for (uint8 i=0; i < proposedBlocks[epoch - 1].length; i++) {\n                if (proposedBlocks[epoch - 1][i].valid) {\n                    blocks[epoch - 1] = proposedBlocks[epoch - 1][i];\n                    uint256 proposerId = proposedBlocks[epoch - 1][i].proposerId;\n                    emit BlockConfirmed(epoch - 1,\n                                        proposerId,\n                                        proposedBlocks[epoch - 1][i].medians,\n                                        proposedBlocks[epoch - 1][i].lowerCutoffs,\n                                        proposedBlocks[epoch - 1][i].higherCutoffs,\n                                        proposedBlocks[epoch - 1][i].jobIds,\n                                        now);\n                    for (uint8 j = 0; j < proposedBlocks[epoch - 1][i].jobIds.length; j++) {\n                        jobManager.fulfillJob(proposedBlocks[epoch - 1][i].jobIds[j],\n                                            proposedBlocks[epoch - 1][i].medians[j]);\n                    }\n                    stakeManager.giveBlockReward(proposerId, epoch);\n                    return;\n                }\n            }\n        }\n    }\n\n    function _insertAppropriately(uint256 epoch, Structs.Block memory _block) internal {\n       // uint256 iteration = _block.iteration;\n        if (proposedBlocks[epoch].length == 0) {\n            proposedBlocks[epoch].push(_block);\n            // return(0);\n        }\n       // Structs.Block[] memory temp = proposedBlocks[epoch];\n       // delete (proposedBlocks[epoch]);\n       // bool pushed = false;\n       // bool empty = true;\n        uint256 pushAt = proposedBlocks[epoch].length;\n        for (uint256 i = 0; i < proposedBlocks[epoch].length; i++) {\n            if (proposedBlocks[epoch][i].biggestStake < _block.biggestStake) {\n                pushAt = i;\n                break;\n            }\n            if (proposedBlocks[epoch][i].iteration > _block.iteration) {\n                pushAt = i;\n                break;\n            }\n        }\n\n        proposedBlocks[epoch].push(_block);\n        for (uint256 j = proposedBlocks[epoch].length - 1; j > (pushAt); j--) {\n            proposedBlocks[epoch][j] = proposedBlocks[epoch][j - 1];\n        }\n        // if (pushAt < proposedBlocks[epoch].length) {\n\n        proposedBlocks[epoch][pushAt] = _block;\n        // }\n        // if (pushed == false && temp.length < Constants.maxAltBlocks()) {\n        //     proposedBlocks[epoch].push(_block);\n        // }\n        if (proposedBlocks[epoch].length > Constants.maxAltBlocks()) {\n            delete (proposedBlocks[epoch][proposedBlocks[epoch].length - 1]);\n        }\n        // return(pushAt);\n    }\n\n\n}\n",
  "sourcePath": "/Users/hrishi/contracts/contracts/Core/BlockManager.sol",
  "compiler": {
    "name": "solc",
    "version": "0.5.10+commit.5a6ea5b1.Emscripten.clang"
  },
  "schemaVersion": "3.2.3",
  "updatedAt": "2020-08-01T07:40:16.607Z",
  "networkType": "ethereum",
  "devdoc": {
    "methods": {}
  },
  "userdoc": {
    "methods": {}
  }
}