{
  "contractName": "BlockManager",
  "abi": [
    {
      "anonymous": false,
      "inputs": [
        {
          "indexed": false,
          "internalType": "uint256",
          "name": "epoch",
          "type": "uint256"
        },
        {
          "indexed": false,
          "internalType": "uint256",
          "name": "stakerId",
          "type": "uint256"
        },
        {
          "indexed": false,
          "internalType": "uint256[]",
          "name": "medians",
          "type": "uint256[]"
        },
        {
          "indexed": false,
          "internalType": "uint256[]",
          "name": "lowerCutoffs",
          "type": "uint256[]"
        },
        {
          "indexed": false,
          "internalType": "uint256[]",
          "name": "higherCutoffs",
          "type": "uint256[]"
        },
        {
          "indexed": false,
          "internalType": "uint256[]",
          "name": "jobIds",
          "type": "uint256[]"
        },
        {
          "indexed": false,
          "internalType": "uint256",
          "name": "timestamp",
          "type": "uint256"
        }
      ],
      "name": "BlockConfirmed",
      "type": "event"
    },
    {
      "anonymous": false,
      "inputs": [
        {
          "indexed": false,
          "internalType": "uint256",
          "name": "a",
          "type": "uint256"
        }
      ],
      "name": "DebugUint256",
      "type": "event"
    },
    {
      "anonymous": false,
      "inputs": [
        {
          "indexed": false,
          "internalType": "uint256",
          "name": "epoch",
          "type": "uint256"
        },
        {
          "indexed": false,
          "internalType": "uint256",
          "name": "stakerId",
          "type": "uint256"
        },
        {
          "indexed": false,
          "internalType": "uint256[]",
          "name": "jobIds",
          "type": "uint256[]"
        },
        {
          "indexed": false,
          "internalType": "uint256[]",
          "name": "medians",
          "type": "uint256[]"
        },
        {
          "indexed": false,
          "internalType": "uint256[]",
          "name": "lowerCutoffs",
          "type": "uint256[]"
        },
        {
          "indexed": false,
          "internalType": "uint256[]",
          "name": "higherCutoffs",
          "type": "uint256[]"
        },
        {
          "indexed": false,
          "internalType": "uint256",
          "name": "iteration",
          "type": "uint256"
        },
        {
          "indexed": false,
          "internalType": "uint256",
          "name": "biggestStakerId",
          "type": "uint256"
        },
        {
          "indexed": false,
          "internalType": "uint256",
          "name": "timestamp",
          "type": "uint256"
        }
      ],
      "name": "Proposed",
      "type": "event"
    },
    {
      "anonymous": false,
      "inputs": [
        {
          "indexed": true,
          "internalType": "bytes32",
          "name": "role",
          "type": "bytes32"
        },
        {
          "indexed": true,
          "internalType": "bytes32",
          "name": "previousAdminRole",
          "type": "bytes32"
        },
        {
          "indexed": true,
          "internalType": "bytes32",
          "name": "newAdminRole",
          "type": "bytes32"
        }
      ],
      "name": "RoleAdminChanged",
      "type": "event"
    },
    {
      "anonymous": false,
      "inputs": [
        {
          "indexed": true,
          "internalType": "bytes32",
          "name": "role",
          "type": "bytes32"
        },
        {
          "indexed": true,
          "internalType": "address",
          "name": "account",
          "type": "address"
        },
        {
          "indexed": true,
          "internalType": "address",
          "name": "sender",
          "type": "address"
        }
      ],
      "name": "RoleGranted",
      "type": "event"
    },
    {
      "anonymous": false,
      "inputs": [
        {
          "indexed": true,
          "internalType": "bytes32",
          "name": "role",
          "type": "bytes32"
        },
        {
          "indexed": true,
          "internalType": "address",
          "name": "account",
          "type": "address"
        },
        {
          "indexed": true,
          "internalType": "address",
          "name": "sender",
          "type": "address"
        }
      ],
      "name": "RoleRevoked",
      "type": "event"
    },
    {
      "anonymous": false,
      "inputs": [
        {
          "indexed": true,
          "internalType": "address",
          "name": "account",
          "type": "address"
        }
      ],
      "name": "WriterAdded",
      "type": "event"
    },
    {
      "anonymous": false,
      "inputs": [
        {
          "indexed": true,
          "internalType": "address",
          "name": "account",
          "type": "address"
        }
      ],
      "name": "WriterRemoved",
      "type": "event"
    },
    {
      "inputs": [],
      "name": "DEFAULT_ADMIN_ROLE",
      "outputs": [
        {
          "internalType": "bytes32",
          "name": "",
          "type": "bytes32"
        }
      ],
      "stateMutability": "view",
      "type": "function"
    },
    {
      "inputs": [
        {
          "internalType": "address",
          "name": "account",
          "type": "address"
        }
      ],
      "name": "addWriter",
      "outputs": [],
      "stateMutability": "nonpayable",
      "type": "function"
    },
    {
      "inputs": [
        {
          "internalType": "uint256",
          "name": "",
          "type": "uint256"
        }
      ],
      "name": "blocks",
      "outputs": [
        {
          "internalType": "uint256",
          "name": "proposerId",
          "type": "uint256"
        },
        {
          "internalType": "uint256",
          "name": "iteration",
          "type": "uint256"
        },
        {
          "internalType": "uint256",
          "name": "biggestStake",
          "type": "uint256"
        },
        {
          "internalType": "bool",
          "name": "valid",
          "type": "bool"
        }
      ],
      "stateMutability": "view",
      "type": "function"
    },
    {
      "inputs": [
        {
          "internalType": "uint256",
          "name": "",
          "type": "uint256"
        },
        {
          "internalType": "address",
          "name": "",
          "type": "address"
        }
      ],
      "name": "disputes",
      "outputs": [
        {
          "internalType": "uint256",
          "name": "accWeight",
          "type": "uint256"
        },
        {
          "internalType": "uint256",
          "name": "median",
          "type": "uint256"
        },
        {
          "internalType": "uint256",
          "name": "lowerCutoff",
          "type": "uint256"
        },
        {
          "internalType": "uint256",
          "name": "higherCutoff",
          "type": "uint256"
        },
        {
          "internalType": "uint256",
          "name": "lastVisited",
          "type": "uint256"
        },
        {
          "internalType": "uint256",
          "name": "assetId",
          "type": "uint256"
        }
      ],
      "stateMutability": "view",
      "type": "function"
    },
    {
      "inputs": [
        {
          "internalType": "bytes32",
          "name": "role",
          "type": "bytes32"
        }
      ],
      "name": "getRoleAdmin",
      "outputs": [
        {
          "internalType": "bytes32",
          "name": "",
          "type": "bytes32"
        }
      ],
      "stateMutability": "view",
      "type": "function"
    },
    {
      "inputs": [
        {
          "internalType": "bytes32",
          "name": "role",
          "type": "bytes32"
        },
        {
          "internalType": "uint256",
          "name": "index",
          "type": "uint256"
        }
      ],
      "name": "getRoleMember",
      "outputs": [
        {
          "internalType": "address",
          "name": "",
          "type": "address"
        }
      ],
      "stateMutability": "view",
      "type": "function"
    },
    {
      "inputs": [
        {
          "internalType": "bytes32",
          "name": "role",
          "type": "bytes32"
        }
      ],
      "name": "getRoleMemberCount",
      "outputs": [
        {
          "internalType": "uint256",
          "name": "",
          "type": "uint256"
        }
      ],
      "stateMutability": "view",
      "type": "function"
    },
    {
      "inputs": [
        {
          "internalType": "bytes32",
          "name": "role",
          "type": "bytes32"
        },
        {
          "internalType": "address",
          "name": "account",
          "type": "address"
        }
      ],
      "name": "grantRole",
      "outputs": [],
      "stateMutability": "nonpayable",
      "type": "function"
    },
    {
      "inputs": [
        {
          "internalType": "bytes32",
          "name": "role",
          "type": "bytes32"
        },
        {
          "internalType": "address",
          "name": "account",
          "type": "address"
        }
      ],
      "name": "hasRole",
      "outputs": [
        {
          "internalType": "bool",
          "name": "",
          "type": "bool"
        }
      ],
      "stateMutability": "view",
      "type": "function"
    },
    {
      "inputs": [
        {
          "internalType": "address",
          "name": "account",
          "type": "address"
        }
      ],
      "name": "isWriter",
      "outputs": [
        {
          "internalType": "bool",
          "name": "",
          "type": "bool"
        }
      ],
      "stateMutability": "view",
      "type": "function"
    },
    {
      "inputs": [],
      "name": "jobManager",
      "outputs": [
        {
          "internalType": "contract IJobManager",
          "name": "",
          "type": "address"
        }
      ],
      "stateMutability": "view",
      "type": "function"
    },
    {
      "inputs": [
        {
          "internalType": "uint256",
          "name": "",
          "type": "uint256"
        },
        {
          "internalType": "uint256",
          "name": "",
          "type": "uint256"
        }
      ],
      "name": "proposedBlocks",
      "outputs": [
        {
          "internalType": "uint256",
          "name": "proposerId",
          "type": "uint256"
        },
        {
          "internalType": "uint256",
          "name": "iteration",
          "type": "uint256"
        },
        {
          "internalType": "uint256",
          "name": "biggestStake",
          "type": "uint256"
        },
        {
          "internalType": "bool",
          "name": "valid",
          "type": "bool"
        }
      ],
      "stateMutability": "view",
      "type": "function"
    },
    {
      "inputs": [
        {
          "internalType": "bytes32",
          "name": "role",
          "type": "bytes32"
        },
        {
          "internalType": "address",
          "name": "account",
          "type": "address"
        }
      ],
      "name": "renounceRole",
      "outputs": [],
      "stateMutability": "nonpayable",
      "type": "function"
    },
    {
      "inputs": [],
      "name": "renounceWriter",
      "outputs": [],
      "stateMutability": "nonpayable",
      "type": "function"
    },
    {
      "inputs": [
        {
          "internalType": "bytes32",
          "name": "role",
          "type": "bytes32"
        },
        {
          "internalType": "address",
          "name": "account",
          "type": "address"
        }
      ],
      "name": "revokeRole",
      "outputs": [],
      "stateMutability": "nonpayable",
      "type": "function"
    },
    {
      "inputs": [],
      "name": "stakeManager",
      "outputs": [
        {
          "internalType": "contract IStakeManager",
          "name": "",
          "type": "address"
        }
      ],
      "stateMutability": "view",
      "type": "function"
    },
    {
      "inputs": [],
      "name": "stateManager",
      "outputs": [
        {
          "internalType": "contract IStateManager",
          "name": "",
          "type": "address"
        }
      ],
      "stateMutability": "view",
      "type": "function"
    },
    {
      "inputs": [],
      "name": "voteManager",
      "outputs": [
        {
          "internalType": "contract IVoteManager",
          "name": "",
          "type": "address"
        }
      ],
      "stateMutability": "view",
      "type": "function"
    },
    {
      "inputs": [
        {
          "internalType": "uint256",
          "name": "epoch",
          "type": "uint256"
        }
      ],
      "name": "getBlock",
      "outputs": [
        {
          "components": [
            {
              "internalType": "uint256",
              "name": "proposerId",
              "type": "uint256"
            },
            {
              "internalType": "uint256[]",
              "name": "jobIds",
              "type": "uint256[]"
            },
            {
              "internalType": "uint256[]",
              "name": "medians",
              "type": "uint256[]"
            },
            {
              "internalType": "uint256[]",
              "name": "lowerCutoffs",
              "type": "uint256[]"
            },
            {
              "internalType": "uint256[]",
              "name": "higherCutoffs",
              "type": "uint256[]"
            },
            {
              "internalType": "uint256",
              "name": "iteration",
              "type": "uint256"
            },
            {
              "internalType": "uint256",
              "name": "biggestStake",
              "type": "uint256"
            },
            {
              "internalType": "bool",
              "name": "valid",
              "type": "bool"
            }
          ],
          "internalType": "struct Structs.Block",
          "name": "_block",
          "type": "tuple"
        }
      ],
      "stateMutability": "view",
      "type": "function"
    },
    {
      "inputs": [
        {
          "internalType": "uint256",
          "name": "epoch",
          "type": "uint256"
        }
      ],
      "name": "getBlockMedians",
      "outputs": [
        {
          "internalType": "uint256[]",
          "name": "_blockMedians",
          "type": "uint256[]"
        }
      ],
      "stateMutability": "view",
      "type": "function"
    },
    {
      "inputs": [
        {
          "internalType": "uint256",
          "name": "epoch",
          "type": "uint256"
        }
      ],
      "name": "getLowerCutoffs",
      "outputs": [
        {
          "internalType": "uint256[]",
          "name": "_lowerCutoffs",
          "type": "uint256[]"
        }
      ],
      "stateMutability": "view",
      "type": "function"
    },
    {
      "inputs": [
        {
          "internalType": "uint256",
          "name": "epoch",
          "type": "uint256"
        }
      ],
      "name": "getHigherCutoffs",
      "outputs": [
        {
          "internalType": "uint256[]",
          "name": "_higherCutoffs",
          "type": "uint256[]"
        }
      ],
      "stateMutability": "view",
      "type": "function"
    },
    {
      "inputs": [
        {
          "internalType": "uint256",
          "name": "epoch",
          "type": "uint256"
        },
        {
          "internalType": "uint256",
          "name": "proposedBlock",
          "type": "uint256"
        }
      ],
      "name": "getProposedBlock",
      "outputs": [
        {
          "components": [
            {
              "internalType": "uint256",
              "name": "proposerId",
              "type": "uint256"
            },
            {
              "internalType": "uint256[]",
              "name": "jobIds",
              "type": "uint256[]"
            },
            {
              "internalType": "uint256[]",
              "name": "medians",
              "type": "uint256[]"
            },
            {
              "internalType": "uint256[]",
              "name": "lowerCutoffs",
              "type": "uint256[]"
            },
            {
              "internalType": "uint256[]",
              "name": "higherCutoffs",
              "type": "uint256[]"
            },
            {
              "internalType": "uint256",
              "name": "iteration",
              "type": "uint256"
            },
            {
              "internalType": "uint256",
              "name": "biggestStake",
              "type": "uint256"
            },
            {
              "internalType": "bool",
              "name": "valid",
              "type": "bool"
            }
          ],
          "internalType": "struct Structs.Block",
          "name": "_block",
          "type": "tuple"
        },
        {
          "internalType": "uint256[]",
          "name": "_blockMedians",
          "type": "uint256[]"
        },
        {
          "internalType": "uint256[]",
          "name": "_lowerCutoffs",
          "type": "uint256[]"
        },
        {
          "internalType": "uint256[]",
          "name": "_higherCutoffs",
          "type": "uint256[]"
        }
      ],
      "stateMutability": "view",
      "type": "function"
    },
    {
      "inputs": [
        {
          "internalType": "uint256",
          "name": "epoch",
          "type": "uint256"
        },
        {
          "internalType": "uint256",
          "name": "proposedBlock",
          "type": "uint256"
        }
      ],
      "name": "getProposedBlockMedians",
      "outputs": [
        {
          "internalType": "uint256[]",
          "name": "_blockMedians",
          "type": "uint256[]"
        }
      ],
      "stateMutability": "view",
      "type": "function"
    },
    {
      "inputs": [
        {
          "internalType": "uint256",
          "name": "epoch",
          "type": "uint256"
        }
      ],
      "name": "getNumProposedBlocks",
      "outputs": [
        {
          "internalType": "uint256",
          "name": "",
          "type": "uint256"
        }
      ],
      "stateMutability": "view",
      "type": "function"
    },
    {
      "inputs": [
        {
          "internalType": "address",
          "name": "_stakeManagerAddress",
          "type": "address"
        },
        {
          "internalType": "address",
          "name": "_stateManagerAddress",
          "type": "address"
        },
        {
          "internalType": "address",
          "name": "_voteManagerAddress",
          "type": "address"
        },
        {
          "internalType": "address",
          "name": "_jobManagerAddress",
          "type": "address"
        }
      ],
      "name": "init",
      "outputs": [],
      "stateMutability": "nonpayable",
      "type": "function"
    },
    {
      "inputs": [
        {
          "internalType": "uint256",
          "name": "epoch",
          "type": "uint256"
        },
        {
          "internalType": "uint256[]",
          "name": "jobIds",
          "type": "uint256[]"
        },
        {
          "internalType": "uint256[]",
          "name": "medians",
          "type": "uint256[]"
        },
        {
          "internalType": "uint256[]",
          "name": "lowerCutoffs",
          "type": "uint256[]"
        },
        {
          "internalType": "uint256[]",
          "name": "higherCutoffs",
          "type": "uint256[]"
        },
        {
          "internalType": "uint256",
          "name": "iteration",
          "type": "uint256"
        },
        {
          "internalType": "uint256",
          "name": "biggestStakerId",
          "type": "uint256"
        }
      ],
      "name": "propose",
      "outputs": [],
      "stateMutability": "nonpayable",
      "type": "function"
    },
    {
      "inputs": [
        {
          "internalType": "uint256",
          "name": "epoch",
          "type": "uint256"
        },
        {
          "internalType": "uint256",
          "name": "assetId",
          "type": "uint256"
        },
        {
          "internalType": "uint256[]",
          "name": "sorted",
          "type": "uint256[]"
        }
      ],
      "name": "giveSorted",
      "outputs": [],
      "stateMutability": "nonpayable",
      "type": "function"
    },
    {
      "inputs": [
        {
          "internalType": "uint256",
          "name": "epoch",
          "type": "uint256"
        }
      ],
      "name": "resetDispute",
      "outputs": [],
      "stateMutability": "nonpayable",
      "type": "function"
    },
    {
      "inputs": [
        {
          "internalType": "uint256",
          "name": "epoch",
          "type": "uint256"
        },
        {
          "internalType": "uint256",
          "name": "blockId",
          "type": "uint256"
        }
      ],
      "name": "finalizeDispute",
      "outputs": [],
      "stateMutability": "nonpayable",
      "type": "function"
    },
    {
      "inputs": [
        {
          "internalType": "uint256",
          "name": "iteration",
          "type": "uint256"
        },
        {
          "internalType": "uint256",
          "name": "biggestStakerId",
          "type": "uint256"
        },
        {
          "internalType": "uint256",
          "name": "stakerId",
          "type": "uint256"
        }
      ],
      "name": "isElectedProposer",
      "outputs": [
        {
          "internalType": "bool",
          "name": "",
          "type": "bool"
        }
      ],
      "stateMutability": "view",
      "type": "function"
    },
    {
      "inputs": [],
      "name": "confirmBlock",
      "outputs": [],
      "stateMutability": "nonpayable",
      "type": "function"
    }
  ],
  "bytecode": "0x60806040523480156200001157600080fd5b50620000286000336001600160e01b036200002e16565b62000166565b6200004382826001600160e01b036200004716565b5050565b6000828152602081815260409091206200006c9183906200270b620000c9821b17901c565b156200004357620000856001600160e01b03620000f216565b6001600160a01b0316816001600160a01b0316837f2f8788117e7eff1d82e926ec794901d17c78024a50270940304540a733656f0d60405160405180910390a45050565b6000620000e9836001600160a01b0384166001600160e01b03620000f616565b90505b92915050565b3390565b60006200010d83836001600160e01b036200014e16565b6200014557508154600181810184556000848152602080822090930184905584548482528286019093526040902091909155620000ec565b506000620000ec565b60009081526001919091016020526040902054151590565b613d0280620001766000396000f3fe608060405234801561001057600080fd5b50600436106101f05760003560e01c8063828496d61161010f578063d1a4a43d116100a2578063df4eb59c11610071578063df4eb59c14610445578063e38c7c421461044d578063f25b3f9914610460578063fae4425d14610473576101f0565b8063d1a4a43d146103f9578063d2a4669a1461040c578063d547741f1461041f578063da2824a814610432576101f0565b80639b87f644116100de5780639b87f644146103b3578063a217fddf146103bb578063a27ce1ef146103c3578063ca15c873146103e6576101f0565b8063828496d6146103455780639010d07c1461036a57806391d148541461037d57806392b4841114610390576101f0565b806336568abe1161018757806342c1e5871161015657806342c1e5871461030f5780634e6753b7146103175780635ce8772f1461032a5780637542ff951461033d576101f0565b806336568abe146102c1578063378ab9a9146102d45780633cd32fd4146102f45780633df395a314610307576101f0565b8063248a9ca3116101c3578063248a9ca3146102665780632b29ba23146102865780632e716fb1146102995780632f2ff15d146102ae576101f0565b806304c07569146101f557806306552ff31461021e57806317d99c04146102335780631d69ff9b14610246575b600080fd5b6102086102033660046132ce565b610486565b6040516102159190613ab4565b60405180910390f35b61023161022c366004613273565b610636565b005b6102316102413660046133cb565b610686565b6102596102543660046134de565b610b41565b6040516102159190613664565b6102796102743660046132ce565b610ec0565b604051610215919061366f565b610259610294366004613257565b610ed5565b6102a1610ee7565b604051610215919061363d565b6102316102bc3660046132fe565b610ef6565b6102316102cf3660046132fe565b610f3e565b6102e76102e23660046132ce565b610f80565b6040516102159190613651565b61023161030236600461332d565b610fe5565b6102a1611488565b6102a1611497565b610231610325366004613490565b6114a6565b6102316103383660046132ce565b611adf565b6102a1611d0f565b6103586103533660046132fe565b611d1e565b60405161021596959493929190613c68565b6102a161037836600461332d565b611d5c565b61025961038b3660046132fe565b611d7a565b6103a361039e36600461332d565b611d98565b6040516102159493929190613c4b565b610231611dde565b610279612302565b6103d66103d136600461332d565b612307565b6040516102159493929190613ac7565b6102796103f43660046132ce565b6124fb565b6102e761040736600461332d565b612512565b6102e761041a3660046132ce565b612598565b61023161042d3660046132fe565b6125fb565b610231610440366004613257565b612635565b610231612663565b61027961045b3660046132ce565b61266c565b6103a361046e3660046132ce565b61267e565b6102e76104813660046132ce565b6126a8565b61048e6130d1565b60008281526003602090815260409182902082516101008101845281548152600182018054855181860281018601909652808652919492938581019392908301828280156104fb57602002820191906000526020600020905b8154815260200190600101908083116104e7575b505050505081526020016002820180548060200260200160405190810160405280929190818152602001828054801561055357602002820191906000526020600020905b81548152602001906001019080831161053f575b50505050508152602001600382018054806020026020016040519081016040528092919081815260200182805480156105ab57602002820191906000526020600020905b815481526020019060010190808311610597575b505050505081526020016004820180548060200260200160405190810160405280929190818152602001828054801561060357602002820191906000526020600020905b8154815260200190600101908083116105ef575b5050509183525050600582015460208201526006820154604082015260079091015460ff16151560609091015292915050565b600480546001600160a01b039586166001600160a01b0319918216179091556005805494861694821694909417909355600680549285169284169290921790915560078054919093169116179055565b60055460408051630eaf323560e31b8152905189926001600160a01b03169163757991a8916004808301926020929190829003018186803b1580156106ca57600080fd5b505afa1580156106de573d6000803e3d6000fd5b505050506040513d601f19601f8201168201806040525081019061070291906132e6565b81146107295760405162461bcd60e51b8152600401610720906138c0565b60405180910390fd5b73__Constants_____________________________63c198f8ba6040518163ffffffff1660e01b815260040160206040518083038186803b15801561076d57600080fd5b505af4158015610781573d6000803e3d6000fd5b505050506040513d601f19601f820116820180604052508101906107a59190613509565b60ff16600560009054906101000a90046001600160a01b03166001600160a01b0316631865c57d6040518163ffffffff1660e01b815260040160206040518083038186803b1580156107f657600080fd5b505afa15801561080a573d6000803e3d6000fd5b505050506040513d601f19601f8201168201806040525081019061082e91906132e6565b811461084c5760405162461bcd60e51b8152600401610720906139ec565b60048054604051636022a48560e01b81526000926001600160a01b0390921691636022a4859161087e9133910161363d565b60206040518083038186803b15801561089657600080fd5b505afa1580156108aa573d6000803e3d6000fd5b505050506040513d601f19601f820116820180604052508101906108ce91906132e6565b90506108db858583610b41565b6108f75760405162461bcd60e51b81526004016107209061380a565b73__Constants_____________________________63375b3c0a6040518163ffffffff1660e01b815260040160206040518083038186803b15801561093b57600080fd5b505af415801561094f573d6000803e3d6000fd5b505050506040513d601f19601f8201168201806040525081019061097391906132e6565b600480546040516371e4cc7f60e11b81526001600160a01b039091169163e3c998fe916109a29186910161366f565b6101006040518083038186803b1580156109bb57600080fd5b505afa1580156109cf573d6000803e3d6000fd5b505050506040513d601f19601f820116820180604052508101906109f3919061334e565b604001511015610a155760405162461bcd60e51b815260040161072090613974565b610aee8a6040518061010001604052808481526020018c81526020018b81526020018a8152602001898152602001888152602001600460009054906101000a90046001600160a01b03166001600160a01b031663e3c998fe896040518263ffffffff1660e01b8152600401610a8a919061366f565b6101006040518083038186803b158015610aa357600080fd5b505afa158015610ab7573d6000803e3d6000fd5b505050506040513d601f19601f82011682018060405250810190610adb919061334e565b6040015181526001602090910152612720565b7fee036cc96c88163f353feaa4d497e88baaebeb631f40ad9b8a6d51bb6fad40768a828b8b8b8b8b8b42604051610b2d99989796959493929190613b4b565b60405180910390a150505050505050505050565b600081610c8c600173__Random________________________________635075dbfb600a600460009054906101000a90046001600160a01b03166001600160a01b031663bc788d466040518163ffffffff1660e01b815260040160206040518083038186803b158015610bb357600080fd5b505afa158015610bc7573d6000803e3d6000fd5b505050506040513d601f19601f82011682018060405250810190610beb91906132e6565b8a604051602001610bfc919061366f565b604051602081830303815290604052805190602001206040518463ffffffff1660e01b8152600401610c309392919061368b565b60206040518083038186803b158015610c4857600080fd5b505af4158015610c5c573d6000803e3d6000fd5b505050506040513d601f19601f82011682018060405250810190610c8091906132e6565b9063ffffffff612c6a16565b14610c9957506000610eb9565b600073__Random________________________________63b07ceab8600a8588604051602001610cca929190613b3d565b604051602081830303815290604052805190602001206040518363ffffffff1660e01b8152600401610cfd929190613678565b60206040518083038186803b158015610d1557600080fd5b505af4158015610d29573d6000803e3d6000fd5b505050506040513d601f19601f82011682018060405250810190610d4d91906132e6565b90506000610d668264010000000063ffffffff612c8f16565b600480546040516371e4cc7f60e11b81529293506000926001600160a01b039091169163e3c998fe91610d9b918a910161366f565b6101006040518083038186803b158015610db457600080fd5b505afa158015610dc8573d6000803e3d6000fd5b505050506040513d601f19601f82011682018060405250810190610dec919061334e565b6040908101516004805492516371e4cc7f60e11b8152919350610e8f92640100000000926001600160a01b039091169163e3c998fe91610e2e918b910161366f565b6101006040518083038186803b158015610e4757600080fd5b505afa158015610e5b573d6000803e3d6000fd5b505050506040513d601f19601f82011682018060405250810190610e7f919061334e565b604001519063ffffffff612cd116565b610e9f838363ffffffff612cd116565b1115610eb15760009350505050610eb9565b600193505050505b9392505050565b60009081526020819052604090206002015490565b6000610ee18183611d7a565b92915050565b6005546001600160a01b031681565b600082815260208190526040902060020154610f149061038b612d0b565b610f305760405162461bcd60e51b81526004016107209061373b565b610f3a8282612d10565b5050565b610f46612d0b565b6001600160a01b0316816001600160a01b031614610f765760405162461bcd60e51b815260040161072090613a65565b610f3a8282612d7f565b600081815260036020908152604091829020600201805483518184028101840190945280845260609392830182828015610fd957602002820191906000526020600020905b815481526020019060010190808311610fc5575b50939695505050505050565b60055460408051630eaf323560e31b8152905184926001600160a01b03169163757991a8916004808301926020929190829003018186803b15801561102957600080fd5b505afa15801561103d573d6000803e3d6000fd5b505050506040513d601f19601f8201168201806040525081019061106191906132e6565b811461107f5760405162461bcd60e51b8152600401610720906138c0565b73__Constants_____________________________63f240f7c36040518163ffffffff1660e01b815260040160206040518083038186803b1580156110c357600080fd5b505af41580156110d7573d6000803e3d6000fd5b505050506040513d601f19601f820116820180604052508101906110fb9190613509565b60ff16600560009054906101000a90046001600160a01b03166001600160a01b0316631865c57d6040518163ffffffff1660e01b815260040160206040518083038186803b15801561114c57600080fd5b505afa158015611160573d6000803e3d6000fd5b505050506040513d601f19601f8201168201806040525081019061118491906132e6565b81146111a25760405162461bcd60e51b8152600401610720906139ec565b60008481526001602090815260408083203384529091529081902060050154600654915163a6a145d960e01b815290916001600160a01b03169063a6a145d9906111f29088908590600401613b3d565b60206040518083038186803b15801561120a57600080fd5b505afa15801561121e573d6000803e3d6000fd5b505050506040513d601f19601f8201168201806040525081019061124291906132e6565b6000868152600160209081526040808320338452909152902054146112795760405162461bcd60e51b8152600401610720906139ab565b60008581526001602081815260408084203385528252808420928301546002808501546003909501548b875293529084208054919491899081106112b957fe5b9060005260206000209060080201600001549050600084116112da57600080fd5b600089815260026020526040902080548591908a9081106112f757fe5b9060005260206000209060080201600201868154811061131357fe5b906000526020600020015414158061136d5750600089815260026020526040902080548491908a90811061134357fe5b9060005260206000209060080201600301868154811061135f57fe5b906000526020600020015414155b806113ba5750600089815260026020526040902080548391908a90811061139057fe5b906000526020600020906008020160040186815481106113ac57fe5b906000526020600020015414155b1561146557600089815260026020526040812080548a9081106113d957fe5b60009182526020909120600890910201600701805460ff191691151591909117905560048054604051630f91ce1960e01b81526001600160a01b0390911691630f91ce199161142e91859133918f9101613b1e565b600060405180830381600087803b15801561144857600080fd5b505af115801561145c573d6000803e3d6000fd5b5050505061147d565b60405162461bcd60e51b815260040161072090613917565b505050505050505050565b6007546001600160a01b031681565b6006546001600160a01b031681565b60055460408051630eaf323560e31b8152905185926001600160a01b03169163757991a8916004808301926020929190829003018186803b1580156114ea57600080fd5b505afa1580156114fe573d6000803e3d6000fd5b505050506040513d601f19601f8201168201806040525081019061152291906132e6565b81146115405760405162461bcd60e51b8152600401610720906138c0565b73__Constants_____________________________63f240f7c36040518163ffffffff1660e01b815260040160206040518083038186803b15801561158457600080fd5b505af4158015611598573d6000803e3d6000fd5b505050506040513d601f19601f820116820180604052508101906115bc9190613509565b60ff16600560009054906101000a90046001600160a01b03166001600160a01b0316631865c57d6040518163ffffffff1660e01b815260040160206040518083038186803b15801561160d57600080fd5b505afa158015611621573d6000803e3d6000fd5b505050506040513d601f19601f8201168201806040525081019061164591906132e6565b81146116635760405162461bcd60e51b8152600401610720906139ec565b60065460405163a6a145d960e01b81526000916116f9916002916001600160a01b03169063a6a145d99061169d908b908b90600401613b3d565b60206040518083038186803b1580156116b557600080fd5b505afa1580156116c9573d6000803e3d6000fd5b505050506040513d601f19601f820116820180604052508101906116ed91906132e6565b9063ffffffff612dee16565b60065460405163a6a145d960e01b8152919250600091611737916004916001600160a01b039091169063a6a145d99061169d908c908c908601613b3d565b60065460405163a6a145d960e01b81529192506000916117d8916004916116ed916003916001600160a01b039091169063a6a145d99061177c908f908f908801613b3d565b60206040518083038186803b15801561179457600080fd5b505afa1580156117a8573d6000803e3d6000fd5b505050506040513d601f19601f820116820180604052508101906117cc91906132e6565b9063ffffffff612cd116565b60008981526001602090815260408083203384529091529020805460049091015491925090816118265760008a81526001602090815260408083203384529091529020600501899055611861565b60008a815260016020908152604080832033845290915290206005015489146118615760405162461bcd60e51b8152600401610720906138e9565b60005b8851811015611ab0578189828151811061187a57fe5b60200260200101511161189f5760405162461bcd60e51b81526004016107209061378a565b8881815181106118ab57fe5b6020026020010151915061196d600660009054906101000a90046001600160a01b03166001600160a01b0316639c66556f8d8d8d86815181106118ea57fe5b60200260200101516040518463ffffffff1660e01b815260040161191093929190613c35565b60206040518083038186803b15801561192857600080fd5b505afa15801561193c573d6000803e3d6000fd5b505050506040513d601f19601f8201168201806040525081019061196091906132e6565b849063ffffffff612c6a16565b60008c815260016020908152604080832033845290915290206002015490935015801561199a5750848310155b156119d4578881815181106119ab57fe5b60209081029190910181015160008d815260018352604080822033835290935291909120600201555b60008b815260016020818152604080842033855290915290912001541580156119fc57508583115b15611a3657888181518110611a0d57fe5b60209081029190910181015160008d815260018084526040808320338452909452929020909101555b60008b8152600160209081526040808320338452909152902060030154158015611a5f57508383115b15611a9957888181518110611a7057fe5b60209081029190910181015160008d815260018352604080822033835290935291909120600301555b6127105a1015611aa857611ab0565b600101611864565b506000998a52600160209081526040808c20338d52909152909920600481019990995590975550505050505050565b60055460408051630eaf323560e31b8152905183926001600160a01b03169163757991a8916004808301926020929190829003018186803b158015611b2357600080fd5b505afa158015611b37573d6000803e3d6000fd5b505050506040513d601f19601f82011682018060405250810190611b5b91906132e6565b8114611b795760405162461bcd60e51b8152600401610720906138c0565b73__Constants_____________________________63f240f7c36040518163ffffffff1660e01b815260040160206040518083038186803b158015611bbd57600080fd5b505af4158015611bd1573d6000803e3d6000fd5b505050506040513d601f19601f82011682018060405250810190611bf59190613509565b60ff16600560009054906101000a90046001600160a01b03166001600160a01b0316631865c57d6040518163ffffffff1660e01b815260040160206040518083038186803b158015611c4657600080fd5b505afa158015611c5a573d6000803e3d6000fd5b505050506040513d601f19601f82011682018060405250810190611c7e91906132e6565b8114611c9c5760405162461bcd60e51b8152600401610720906139ec565b50506040805160c08101825260008082526020808301828152838501838152606085018481526080860185815260a0870186815298865260018086528887203388529095529690942094518555905191840191909155516002830155516003820155905160048201559051600590910155565b6004546001600160a01b031681565b600160208181526000938452604080852090915291835291208054918101546002820154600383015460048401546005909401549293919290919086565b6000828152602081905260408120610eb9908363ffffffff612e3016565b6000828152602081905260408120610eb9908363ffffffff612e3c16565b60026020528160005260406000208181548110611db157fe5b60009182526020909120600890910201805460058201546006830154600790930154919450925060ff1684565b611de733610ed5565b611e035760405162461bcd60e51b815260040161072090613a15565b60055460408051630eaf323560e31b815290516000926001600160a01b03169163757991a8916004808301926020929190829003018186803b158015611e4857600080fd5b505afa158015611e5c573d6000803e3d6000fd5b505050506040513d601f19601f82011682018060405250810190611e8091906132e6565b6000198101600090815260036020526040902054909150158015611eb65750600019810160009081526002602052604090205415155b156122fe5760005b600019820160009081526002602052604090205460ff82161015610f3a5760001982016000908152600260205260409020805460ff8316908110611efe57fe5b600091825260209091206007600890920201015460ff16156122f65760001982016000908152600260205260409020805460ff8316908110611f3c57fe5b906000526020600020906008020160036000600185038152602001908152602001600020600082015481600001556001820181600101908054611f80929190613118565b5060028281018054611f959284019190613118565b5060038281018054611faa9284019190613118565b5060048281018054611fbf9284019190613118565b5060058281015490820155600680830154908201556007918201549101805460ff191660ff92831615151790556000198301600090815260026020526040812080549192909190841690811061201157fe5b90600052602060002090600802016000015490507f5ef264ae9101b91bd7117350c5e85901297fa0569e7a3e07eb7ec0a6281529f06001840382600260006001880381526020019081526020016000208560ff168154811061206f57fe5b9060005260206000209060080201600201600260006001890381526020019081526020016000208660ff16815481106120a457fe5b90600052602060002090600802016003016002600060018a0381526020019081526020016000208760ff16815481106120d957fe5b90600052602060002090600802016004016002600060018b0381526020019081526020016000208860ff168154811061210e57fe5b9060005260206000209060080201600101426040516121339796959493929190613bc8565b60405180910390a160005b60001984016000908152600260205260409020805460ff851690811061216057fe5b9060005260206000209060080201600101805490508160ff16101561228a576007546000198501600090815260026020526040902080546001600160a01b03909216916356350bdf919060ff87169081106121b757fe5b90600052602060002090600802016001018360ff16815481106121d657fe5b9060005260206000200154600260006001890381526020019081526020016000208660ff168154811061220557fe5b90600052602060002090600802016002018460ff168154811061222457fe5b90600052602060002001546040518363ffffffff1660e01b815260040161224c929190613b3d565b600060405180830381600087803b15801561226657600080fd5b505af115801561227a573d6000803e3d6000fd5b50506001909201915061213e9050565b506004805460405163746c8b6560e01b81526001600160a01b039091169163746c8b65916122bc918591889101613b3d565b600060405180830381600087803b1580156122d657600080fd5b505af11580156122ea573d6000803e3d6000fd5b50505050505050612300565b600101611ebe565b505b565b600081565b61230f6130d1565b606080606060026000878152602001908152602001600020858154811061233257fe5b90600052602060002090600802016040518061010001604052908160008201548152602001600182018054806020026020016040519081016040528092919081815260200182805480156123a557602002820191906000526020600020905b815481526020019060010190808311612391575b50505050508152602001600282018054806020026020016040519081016040528092919081815260200182805480156123fd57602002820191906000526020600020905b8154815260200190600101908083116123e9575b505050505081526020016003820180548060200260200160405190810160405280929190818152602001828054801561245557602002820191906000526020600020905b815481526020019060010190808311612441575b50505050508152602001600482018054806020026020016040519081016040528092919081815260200182805480156124ad57602002820191906000526020600020905b815481526020019060010190808311612499575b505050918352505060058201546020820152600682015460408083019190915260079092015460ff161515606091820152908201519082015160808301519299919850965090945092505050565b6000818152602081905260408120610ee190612e51565b60008281526002602052604090208054606091908390811061253057fe5b906000526020600020906008020160020180548060200260200160405190810160405280929190818152602001828054801561258b57602002820191906000526020600020905b815481526020019060010190808311612577575b5093979650505050505050565b600081815260036020818152604092839020909101805483518184028101840190945280845260609392830182828015610fd95760200282019190600052602060002090815481526020019060010190808311610fc55750939695505050505050565b6000828152602081905260409020600201546126199061038b612d0b565b610f765760405162461bcd60e51b81526004016107209061382f565b61263e33610ed5565b61265a5760405162461bcd60e51b815260040161072090613a15565b6122fe81612e5c565b61230033612e9e565b60009081526002602052604090205490565b60036020526000908152604090208054600582015460068301546007909301549192909160ff1684565b600081815260036020908152604091829020600401805483518184028101840190945280845260609392830182828015610fd95760200282019190600052602060002090815481526020019060010190808311610fc55750939695505050505050565b6000610eb9836001600160a01b038416612ee0565b6000828152600260205260409020546127f95760008281526002602090815260408220805460018181018355918452928290208451600890940201928355838201518051859493612775938501920190613168565b5060408201518051612791916002840191602090910190613168565b50606082015180516127ad916003840191602090910190613168565b50608082015180516127c9916004840191602090910190613168565b5060a0820151600582015560c0820151600682015560e0909101516007909101805460ff19169115159190911790555b600082815260026020526040812054905b6000848152600260205260409020548110156128a65760c0830151600085815260026020526040902080548390811061283f57fe5b906000526020600020906008020160060154101561285f578091506128a6565b60a0830151600085815260026020526040902080548390811061287e57fe5b906000526020600020906008020160050154111561289e578091506128a6565b60010161280a565b50600083815260026020908152604082208054600181810183559184529282902085516008909402019283558482015180518694936128e9938501920190613168565b5060408201518051612905916002840191602090910190613168565b5060608201518051612921916003840191602090910190613168565b506080820151805161293d916004840191602090910190613168565b5060a0820151600582015560c0820151600682015560e0909101516007909101805460ff1916911515919091179055600083815260026020526040902054600019015b81811115612a73576000848152600260205260409020805460001983019081106129a657fe5b90600052602060002090600802016002600086815260200190815260200160002082815481106129d257fe5b600091825260209091208254600890920201908155600180830180546129fb9284019190613118565b5060028281018054612a109284019190613118565b5060038281018054612a259284019190613118565b5060048281018054612a3a9284019190613118565b5060058281015490820155600680830154908201556007918201549101805460ff191660ff909216151591909117905560001901612980565b506000838152600260205260409020805483919083908110612a9157fe5b9060005260206000209060080201600082015181600001556020820151816001019080519060200190612ac5929190613168565b5060408201518051612ae1916002840191602090910190613168565b5060608201518051612afd916003840191602090910190613168565b5060808201518051612b19916004840191602090910190613168565b5060a0820151816005015560c0820151816006015560e08201518160070160006101000a81548160ff02191690831515021790555090505073__Constants_____________________________63379597e06040518163ffffffff1660e01b815260040160206040518083038186803b158015612b9557600080fd5b505af4158015612ba9573d6000803e3d6000fd5b505050506040513d601f19601f82011682018060405250810190612bcd91906132e6565b6000848152600260205260409020541115612c6557600083815260026020526040902080546000198101908110612c0057fe5b60009182526020822060089091020181815590612c2060018301826131a3565b612c2e6002830160006131a3565b612c3c6003830160006131a3565b612c4a6004830160006131a3565b506000600582018190556006820155600701805460ff191690555b505050565b600082820183811015610eb95760405162461bcd60e51b8152600401610720906137d3565b6000610eb983836040518060400160405280601881526020017f536166654d6174683a206d6f64756c6f206279207a65726f0000000000000000815250612f2a565b600082612ce057506000610ee1565b82820282848281612ced57fe5b0414610eb95760405162461bcd60e51b81526004016107209061387f565b335b90565b6000828152602081905260409020612d2e908263ffffffff61270b16565b15610f3a57612d3b612d0b565b6001600160a01b0316816001600160a01b0316837f2f8788117e7eff1d82e926ec794901d17c78024a50270940304540a733656f0d60405160405180910390a45050565b6000828152602081905260409020612d9d908263ffffffff612f5e16565b15610f3a57612daa612d0b565b6001600160a01b0316816001600160a01b0316837ff6391f5c32d9c69d2a47ea670b442974b53935d1edc7fd64eb21e047a839171b60405160405180910390a45050565b6000610eb983836040518060400160405280601a81526020017f536166654d6174683a206469766973696f6e206279207a65726f000000000000815250612f73565b6000610eb98383612faa565b6000610eb9836001600160a01b038416612fef565b6000610ee182613007565b612e67600082610ef6565b6040516001600160a01b038216907f6ff3aa2ea7b53070f6d9d07a445d338d89e8edef44250ffa8be19f53910d4a2e90600090a250565b612ea9600082610f3e565b6040516001600160a01b038216907f86e5bbceda94081c32220d685f37cc4e3ea7bb0be2dfbf0cb703579505a5390e90600090a250565b6000612eec8383612fef565b612f2257508154600181810184556000848152602080822090930184905584548482528286019093526040902091909155610ee1565b506000610ee1565b60008183612f4b5760405162461bcd60e51b815260040161072091906136a6565b50828481612f5557fe5b06949350505050565b6000610eb9836001600160a01b03841661300b565b60008183612f945760405162461bcd60e51b815260040161072091906136a6565b506000838581612fa057fe5b0495945050505050565b81546000908210612fcd5760405162461bcd60e51b8152600401610720906136f9565b826000018281548110612fdc57fe5b9060005260206000200154905092915050565b60009081526001919091016020526040902054151590565b5490565b600081815260018301602052604081205480156130c7578354600019808301919081019060009087908390811061303e57fe5b906000526020600020015490508087600001848154811061305b57fe5b60009182526020808320909101929092558281526001898101909252604090209084019055865487908061308b57fe5b60019003818190600052602060002001600090559055866001016000878152602001908152602001600020600090556001945050505050610ee1565b6000915050610ee1565b604051806101000160405280600081526020016060815260200160608152602001606081526020016060815260200160008152602001600081526020016000151581525090565b8280548282559060005260206000209081019282156131585760005260206000209182015b8281111561315857825482559160010191906001019061313d565b506131649291506131bd565b5090565b828054828255906000526020600020908101928215613158579160200282015b82811115613158578251825591602001919060010190613188565b50805460008255906000526020600020908101906122fe91905b612d0d91905b8082111561316457600081556001016131c3565b600082601f8301126131e7578081fd5b813567ffffffffffffffff8111156131fd578182fd5b602080820261320d828201613c90565b8381529350818401858301828701840188101561322957600080fd5b600092505b8483101561324c57803582526001929092019190830190830161322e565b505050505092915050565b600060208284031215613268578081fd5b8135610eb981613cb7565b60008060008060808587031215613288578283fd5b843561329381613cb7565b935060208501356132a381613cb7565b925060408501356132b381613cb7565b915060608501356132c381613cb7565b939692955090935050565b6000602082840312156132df578081fd5b5035919050565b6000602082840312156132f7578081fd5b5051919050565b60008060408385031215613310578182fd5b82359150602083013561332281613cb7565b809150509250929050565b6000806040838503121561333f578182fd5b50508035926020909101359150565b6000610100808385031215613361578182fd5b61336a81613c90565b835181526020840151915061337e82613cb7565b81602082015260408401516040820152606084015160608201526080840151608082015260a084015160a082015260c084015160c082015260e084015160e0820152809250505092915050565b600080600080600080600060e0888a0312156133e5578283fd5b87359650602088013567ffffffffffffffff80821115613403578485fd5b61340f8b838c016131d7565b975060408a0135915080821115613424578485fd5b6134308b838c016131d7565b965060608a0135915080821115613445578485fd5b6134518b838c016131d7565b955060808a0135915080821115613466578485fd5b506134738a828b016131d7565b93505060a0880135915060c0880135905092959891949750929550565b6000806000606084860312156134a4578081fd5b8335925060208401359150604084013567ffffffffffffffff8111156134c8578182fd5b6134d4868287016131d7565b9150509250925092565b6000806000606084860312156134f2578081fd5b505081359360208301359350604090920135919050565b60006020828403121561351a578081fd5b815160ff81168114610eb9578182fd5b6000815180845260208085019450808401835b838110156135595781518752958201959082019060010161353d565b509495945050505050565b6000815480845260208085019450838352808320835b838110156135595781548752958201956001918201910161357a565b15159052565b60006101008251845260208301518160208601526135bc8286018261352a565b6040850151925085810360408701526135d5818461352a565b9150506060840151915084810360608601526135f1818361352a565b60808501519250858103608087015261360a818461352a565b91505060a084015160a086015260c084015160c086015260e0840151915061363560e0860183613596565b949350505050565b6001600160a01b0391909116815260200190565b600060208252610eb9602083018461352a565b901515815260200190565b90815260200190565b60ff929092168252602082015260400190565b60ff9390931683526020830191909152604082015260600190565b6000602080835283518082850152825b818110156136d2578581018301518582016040015282016136b6565b818111156136e35783604083870101525b50601f01601f1916929092016040019392505050565b60208082526022908201527f456e756d657261626c655365743a20696e646578206f7574206f6620626f756e604082015261647360f01b606082015260800190565b6020808252602f908201527f416363657373436f6e74726f6c3a2073656e646572206d75737420626520616e60408201526e0818591b5a5b881d1bc819dc985b9d608a1b606082015260800190565b60208082526029908201527f736f727465645b695d206973206e6f742067726561746572207468616e206c616040820152681cdd159a5cda5d195960ba1b606082015260800190565b6020808252601b908201527f536166654d6174683a206164646974696f6e206f766572666c6f770000000000604082015260600190565b6020808252600b908201526a1b9bdd08195b1958dd195960aa1b604082015260600190565b60208082526030908201527f416363657373436f6e74726f6c3a2073656e646572206d75737420626520616e60408201526f2061646d696e20746f207265766f6b6560801b606082015260800190565b60208082526021908201527f536166654d6174683a206d756c7469706c69636174696f6e206f766572666c6f6040820152607760f81b606082015260800190565b6020808252600f908201526e0d2dcc6dee4e4cac6e840cae0dec6d608b1b604082015260600190565b60208082526014908201527341737365744964206e6f74206d61746368696e6760601b604082015260600190565b60208082526037908201527f50726f706f73656420416c7465726e61746520626c6f636b206973206964656e60408201527f746963616c20746f2070726f706f73656420626c6f636b000000000000000000606082015260800190565b60208082526019908201527f7374616b652062656c6f77206d696e696d756d207374616b6500000000000000604082015260600190565b60208082526021908201527f546f74616c207374616b652072657665616c656420646f65736e74206d6174636040820152600d60fb1b606082015260800190565b6020808252600f908201526e696e636f727265637420737461746560881b604082015260600190565b60208082526030908201527f577269746572526f6c653a2063616c6c657220646f6573206e6f74206861766560408201526f207468652057726974657220726f6c6560801b606082015260800190565b6020808252602f908201527f416363657373436f6e74726f6c3a2063616e206f6e6c792072656e6f756e636560408201526e103937b632b9903337b91039b2b63360891b606082015260800190565b600060208252610eb9602083018461359c565b600060808252613ada608083018761359c565b8281036020840152613aec818761352a565b8381036040850152613afe818761352a565b9150508281036060840152613b13818561352a565b979650505050505050565b9283526001600160a01b03919091166020830152604082015260600190565b918252602082015260400190565b60006101208b83528a6020840152806040840152613b6b8184018b61352a565b8381036060850152613b7d818b61352a565b9150508281036080840152613b92818961352a565b83810360a0850152613ba4818961352a565b60c085019790975250505060e0810192909252610100909101529695505050505050565b600088825287602083015260e06040830152613be760e0830188613564565b8281036060840152613bf98188613564565b8381036080850152613c0b8188613564565b91505082810360a0840152613c208186613564565b9150508260c083015298975050505050505050565b9283526020830191909152604082015260600190565b938452602084019290925260408301521515606082015260800190565b958652602086019490945260408501929092526060840152608083015260a082015260c00190565b60405181810167ffffffffffffffff81118282101715613caf57600080fd5b604052919050565b6001600160a01b03811681146122fe57600080fdfea2646970667358221220c2fbe9459358d8a51468b21bb2e6a4beb734209b8a2f3840921a581b62b0742364736f6c634300060b0033",
  "immutableReferences": {},
  "source": "// SPDX-License-Identifier: GPL-3.0\npragma solidity 0.6.11;\npragma experimental ABIEncoderV2;\nimport \"../lib/Random.sol\";\nimport \"./Utils.sol\";\nimport \"./BlockStorage.sol\";\nimport \"./IStakeManager.sol\";\nimport \"./IStateManager.sol\";\nimport \"./IVoteManager.sol\";\nimport \"./IJobManager.sol\";\nimport \"openzeppelin-solidity/contracts/math/SafeMath.sol\";\nimport \"./WriterRole.sol\";\n\n\ncontract BlockManager is Utils, WriterRole, BlockStorage {\n    using SafeMath for uint256;\n\n    IStakeManager public stakeManager;\n    IStateManager public stateManager;\n    IVoteManager public voteManager;\n    IJobManager public jobManager;\n\n    modifier checkEpoch (uint256 epoch) {\n        require(epoch == stateManager.getEpoch(), \"incorrect epoch\");\n        _;\n    }\n\n    modifier checkState (uint256 state) {\n        require(state == stateManager.getState(), \"incorrect state\");\n        _;\n    }\n\n    function getBlock(uint256 epoch) external view returns(Structs.Block memory _block) {\n        return(blocks[epoch]);\n    }\n\n    function getBlockMedians(uint256 epoch) external view returns(uint256[] memory _blockMedians) {\n        _blockMedians = blocks[epoch].medians;\n        return(_blockMedians);\n    }\n\n    function getLowerCutoffs(uint256 epoch) external view returns(uint256[] memory _lowerCutoffs) {\n        _lowerCutoffs = blocks[epoch].lowerCutoffs;\n        return(_lowerCutoffs);\n    }\n\n    function getHigherCutoffs(uint256 epoch) external view returns(uint256[] memory _higherCutoffs) {\n        _higherCutoffs = blocks[epoch].higherCutoffs;\n        return(_higherCutoffs);\n    }\n\n    function getProposedBlock(uint256 epoch, uint256 proposedBlock)\n    external view returns(Structs.Block memory _block,\n    uint256[] memory _blockMedians,\n    uint256[] memory _lowerCutoffs,\n    uint256[] memory _higherCutoffs ) {\n        _block = proposedBlocks[epoch][proposedBlock];\n        return(_block, _block.medians, _block.lowerCutoffs, _block.higherCutoffs);\n    }\n\n    function getProposedBlockMedians(uint256 epoch, uint256 proposedBlock)\n    external view returns(uint256[] memory _blockMedians) {\n        _blockMedians = proposedBlocks[epoch][proposedBlock].medians;\n        return(_blockMedians);\n    }\n\n    function getNumProposedBlocks(uint256 epoch)\n    external view returns(uint256) {\n        return(proposedBlocks[epoch].length);\n    }\n\n    //disable after init.\n    function init(address _stakeManagerAddress, address _stateManagerAddress,\n                address _voteManagerAddress, address _jobManagerAddress) public {\n        stakeManager = IStakeManager(_stakeManagerAddress);\n        stateManager = IStateManager(_stateManagerAddress);\n        voteManager = IVoteManager(_voteManagerAddress);\n        jobManager = IJobManager(_jobManagerAddress);\n    }\n\n    event Proposed(uint256 epoch,\n                    uint256 stakerId,\n                    uint256[] jobIds,\n                    uint256[] medians,\n                    uint256[] lowerCutoffs,\n                    uint256[] higherCutoffs,\n                    uint256 iteration,\n                    uint256 biggestStakerId,\n                    uint256 timestamp);\n\n    // elected proposer proposes block. we use a probabilistic method to elect stakers weighted by stake\n    // protocol works like this. select a staker pseudorandomly (not weighted by anything)\n    // (todo what if it is below min stake)\n    // that staker then tosses a biased coin. bias = hisStake/biggestStake. if its heads, he can propose block\n    // end of iteration. try next iteration\n    // note that only one staker or no stakers selected in each iteration.\n    // stakers elected in higher iterations can also propose hoping that\n    // stakers with lower iteration do not propose for some reason\n    function propose (uint256 epoch,\n                    uint256[] memory jobIds,\n                    uint256[] memory medians,\n                    uint256[] memory lowerCutoffs,\n                    uint256[] memory higherCutoffs,\n                    uint256 iteration,\n                    uint256 biggestStakerId) public checkEpoch(epoch) checkState(Constants.propose()) {\n        uint256 proposerId = stakeManager.getStakerId(msg.sender);\n        // SchellingCoin sch = SchellingCoin(schAddress);\n        require(isElectedProposer(iteration, biggestStakerId, proposerId), \"not elected\");\n        require(stakeManager.getStaker(proposerId).stake >= Constants.minStake(), \"stake below minimum stake\");\n\n        // check if someone already proposed\n        // if (blocks[epoch].proposerId != 0) {\n        //     if (blocks[epoch].proposerId == proposerId) {\n        //         revert(\"Already Proposed\");\n        //     }\n        //     // if (stakers[biggestStakerId].stake == blocks[epoch].biggestStake &&\n        //     //     proposedBlocks[epoch].length >= Constants.maxAltBlocks()) {\n        //     //\n        //     //     require(proposedBlocks[epoch][4].iteration > iteration,\n        //     //             \"iteration not smaller than last elected staker\");\n        //     // } else\n        //     if (stakers[biggestStakerId].stake < blocks[epoch].biggestStake) {\n        //         revert(\"biggest stakers stake not bigger than as proposed by existing elected staker \");\n        //     }\n        // }\n        // blocks[epoch]\n        _insertAppropriately(epoch, Structs.Block(proposerId,\n                            jobIds,\n                            medians,\n                            lowerCutoffs,\n                            higherCutoffs,\n                            iteration,\n                            stakeManager.getStaker(biggestStakerId).stake,\n                            true));\n        // emit DebugUint256(pushAt);\n        // mint and give block reward\n        // if (Constants.blockReward() > 0) {\n        //     stakers[proposerId].stake = stakers[proposerId].stake.add(Constants.blockReward());\n        //     totalStake = totalStake.add(Constants.blockReward());\n        //     require(sch.mint(address(this), Constants.blockReward()));\n        // }\n        emit Proposed(epoch, proposerId, jobIds, medians, lowerCutoffs, higherCutoffs, iteration, biggestStakerId, now);\n    }\n\n    //anyone can give sorted votes in batches in dispute state\n    function giveSorted (uint256 epoch, uint256 assetId, uint256[] memory sorted) public\n    checkEpoch(epoch) checkState(Constants.dispute()) {\n        uint256 medianWeight = voteManager.getTotalStakeRevealed(epoch, assetId).div(2);\n        uint256 lowerCutoffWeight = voteManager.getTotalStakeRevealed(epoch, assetId).div(4);\n        uint256 higherCutoffWeight = (voteManager.getTotalStakeRevealed(epoch, assetId).mul(3)).div(4);\n        uint256 accWeight = disputes[epoch][msg.sender].accWeight;\n        uint256 lastVisited = disputes[epoch][msg.sender].lastVisited;\n        if (disputes[epoch][msg.sender].accWeight == 0) {\n            disputes[epoch][msg.sender].assetId = assetId;\n        } else {\n            require(disputes[epoch][msg.sender].assetId == assetId, \"AssetId not matching\");\n        }\n        for (uint256 i = 0; i < sorted.length; i++) {\n            require(sorted[i] > lastVisited, \"sorted[i] is not greater than lastVisited\");\n            lastVisited = sorted[i];\n            accWeight = accWeight.add(voteManager.getVoteWeight(epoch, assetId, sorted[i]));\n            //set  median, if conditions meet\n            if (disputes[epoch][msg.sender].lowerCutoff == 0 && accWeight >= lowerCutoffWeight) {\n                disputes[epoch][msg.sender].lowerCutoff = sorted[i];\n            }\n            if (disputes[epoch][msg.sender].median == 0 && accWeight > medianWeight) {\n                disputes[epoch][msg.sender].median = sorted[i];\n            }\n            if (disputes[epoch][msg.sender].higherCutoff == 0 && accWeight > higherCutoffWeight) {\n                disputes[epoch][msg.sender].higherCutoff = sorted[i];\n            }\n            //TODO verify how much gas required for below operations and update this value\n            if (gasleft() < 10000) break;\n        }\n        disputes[epoch][msg.sender].lastVisited = lastVisited;\n        disputes[epoch][msg.sender].accWeight = accWeight;\n    }\n\n    // //todo test\n    // //if any mistake made during giveSorted, resetDispute and start again\n    function resetDispute (uint256 epoch) public checkEpoch(epoch) checkState(Constants.dispute()) {\n        disputes[epoch][msg.sender] = Structs.Dispute(0, 0, 0, 0, 0, 0);\n    }\n\n    function finalizeDispute (uint256 epoch, uint256 blockId)\n    public checkEpoch(epoch) checkState(Constants.dispute()) {\n        uint256 assetId = disputes[epoch][msg.sender].assetId;\n        require(disputes[epoch][msg.sender].accWeight == voteManager.getTotalStakeRevealed(epoch, assetId),\n        \"Total stake revealed doesnt match\");\n        uint256 median = disputes[epoch][msg.sender].median;\n        uint256 lowerCutoff = disputes[epoch][msg.sender].lowerCutoff;\n        uint256 higherCutoff = disputes[epoch][msg.sender].higherCutoff;\n        uint256 proposerId = proposedBlocks[epoch][blockId].proposerId;\n        //\n        require(median > 0);\n        if (proposedBlocks[epoch][blockId].medians[assetId] != median ||\n            proposedBlocks[epoch][blockId].lowerCutoffs[assetId] != lowerCutoff ||\n            proposedBlocks[epoch][blockId].higherCutoffs[assetId] != higherCutoff) {\n            proposedBlocks[epoch][blockId].valid = false;\n            stakeManager.slash(proposerId, msg.sender, epoch);\n        } else {\n            revert(\"Proposed Alternate block is identical to proposed block\");\n        }\n    }\n\n    function isElectedProposer(uint256 iteration, uint256 biggestStakerId, uint256 stakerId) public view returns(bool) {\n       // rand = 0 -> totalStake-1\n       //add +1 since prng returns 0 to max-1 and staker start from 1\n        if ((Random.prng(10, stakeManager.getNumStakers(), keccak256(abi.encode(iteration))).add(1))\n        != stakerId) {return(false);}\n        bytes32 randHash = Random.prngHash(10, keccak256(abi.encode(stakerId, iteration)));\n        uint256 rand = uint256(randHash).mod(2**32);\n        uint256 biggestStake = stakeManager.getStaker(biggestStakerId).stake;\n        if (rand.mul(biggestStake) > stakeManager.getStaker(stakerId).stake.mul(2**32)) return(false);\n        return(true);\n    }\n\n    event BlockConfirmed(uint256 epoch,\n                    uint256 stakerId,\n                    uint256[] medians,\n                    uint256[] lowerCutoffs,\n                    uint256[] higherCutoffs,\n                    uint256[] jobIds,\n                    uint256 timestamp);\n\n    function confirmBlock() public onlyWriter {\n        uint256 epoch = stateManager.getEpoch();\n        if (blocks[epoch - 1].proposerId == 0 && proposedBlocks[epoch - 1].length > 0) {\n            for (uint8 i=0; i < proposedBlocks[epoch - 1].length; i++) {\n                if (proposedBlocks[epoch - 1][i].valid) {\n                    blocks[epoch - 1] = proposedBlocks[epoch - 1][i];\n                    uint256 proposerId = proposedBlocks[epoch - 1][i].proposerId;\n                    emit BlockConfirmed(epoch - 1,\n                                        proposerId,\n                                        proposedBlocks[epoch - 1][i].medians,\n                                        proposedBlocks[epoch - 1][i].lowerCutoffs,\n                                        proposedBlocks[epoch - 1][i].higherCutoffs,\n                                        proposedBlocks[epoch - 1][i].jobIds,\n                                        now);\n                    for (uint8 j = 0; j < proposedBlocks[epoch - 1][i].jobIds.length; j++) {\n                        jobManager.fulfillJob(proposedBlocks[epoch - 1][i].jobIds[j],\n                                            proposedBlocks[epoch - 1][i].medians[j]);\n                    }\n                    stakeManager.giveBlockReward(proposerId, epoch);\n                    return;\n                }\n            }\n        }\n    }\n\n    function _insertAppropriately(uint256 epoch, Structs.Block memory _block) internal {\n       // uint256 iteration = _block.iteration;\n        if (proposedBlocks[epoch].length == 0) {\n            proposedBlocks[epoch].push(_block);\n            // return(0);\n        }\n       // Structs.Block[] memory temp = proposedBlocks[epoch];\n       // delete (proposedBlocks[epoch]);\n       // bool pushed = false;\n       // bool empty = true;\n        uint256 pushAt = proposedBlocks[epoch].length;\n        for (uint256 i = 0; i < proposedBlocks[epoch].length; i++) {\n            if (proposedBlocks[epoch][i].biggestStake < _block.biggestStake) {\n                pushAt = i;\n                break;\n            }\n            if (proposedBlocks[epoch][i].iteration > _block.iteration) {\n                pushAt = i;\n                break;\n            }\n        }\n\n        proposedBlocks[epoch].push(_block);\n        for (uint256 j = proposedBlocks[epoch].length - 1; j > (pushAt); j--) {\n            proposedBlocks[epoch][j] = proposedBlocks[epoch][j - 1];\n        }\n        // if (pushAt < proposedBlocks[epoch].length) {\n\n        proposedBlocks[epoch][pushAt] = _block;\n        // }\n        // if (pushed == false && temp.length < Constants.maxAltBlocks()) {\n        //     proposedBlocks[epoch].push(_block);\n        // }\n        if (proposedBlocks[epoch].length > Constants.maxAltBlocks()) {\n            delete (proposedBlocks[epoch][proposedBlocks[epoch].length - 1]);\n        }\n        // return(pushAt);\n    }\n\n\n}\n",
  "sourcePath": "/home/user/Documents/Razor-Internship/contracts/contracts/Core/BlockManager.sol",
  "compiler": {
    "name": "solc",
    "version": "0.6.11+commit.5ef660b1.Emscripten.clang"
  },
  "schemaVersion": "3.2.2",
  "updatedAt": "2020-07-22T14:29:02.689Z",
  "devdoc": {
    "kind": "dev",
    "methods": {
      "getRoleAdmin(bytes32)": {
        "details": "Returns the admin role that controls `role`. See {grantRole} and {revokeRole}. To change a role's admin, use {_setRoleAdmin}."
      },
      "getRoleMember(bytes32,uint256)": {
        "details": "Returns one of the accounts that have `role`. `index` must be a value between 0 and {getRoleMemberCount}, non-inclusive. Role bearers are not sorted in any particular way, and their ordering may change at any point. WARNING: When using {getRoleMember} and {getRoleMemberCount}, make sure you perform all queries on the same block. See the following https://forum.openzeppelin.com/t/iterating-over-elements-on-enumerableset-in-openzeppelin-contracts/2296[forum post] for more information."
      },
      "getRoleMemberCount(bytes32)": {
        "details": "Returns the number of accounts that have `role`. Can be used together with {getRoleMember} to enumerate all bearers of a role."
      },
      "grantRole(bytes32,address)": {
        "details": "Grants `role` to `account`. If `account` had not been already granted `role`, emits a {RoleGranted} event. Requirements: - the caller must have ``role``'s admin role."
      },
      "hasRole(bytes32,address)": {
        "details": "Returns `true` if `account` has been granted `role`."
      },
      "renounceRole(bytes32,address)": {
        "details": "Revokes `role` from the calling account. Roles are often managed via {grantRole} and {revokeRole}: this function's purpose is to provide a mechanism for accounts to lose their privileges if they are compromised (such as when a trusted device is misplaced). If the calling account had been granted `role`, emits a {RoleRevoked} event. Requirements: - the caller must be `account`."
      },
      "revokeRole(bytes32,address)": {
        "details": "Revokes `role` from `account`. If `account` had been granted `role`, emits a {RoleRevoked} event. Requirements: - the caller must have ``role``'s admin role."
      }
    },
    "version": 1
  },
  "userdoc": {
    "kind": "user",
    "methods": {},
    "version": 1
  }
}