{
  "contractName": "BlockManager",
  "abi": [
    {
      "anonymous": false,
      "inputs": [
        {
          "indexed": false,
          "internalType": "uint256",
          "name": "epoch",
          "type": "uint256"
        },
        {
          "indexed": false,
          "internalType": "uint256",
          "name": "stakerId",
          "type": "uint256"
        },
        {
          "indexed": false,
          "internalType": "uint256[]",
          "name": "medians",
          "type": "uint256[]"
        },
        {
          "indexed": false,
          "internalType": "uint256[]",
          "name": "lowerCutoffs",
          "type": "uint256[]"
        },
        {
          "indexed": false,
          "internalType": "uint256[]",
          "name": "higherCutoffs",
          "type": "uint256[]"
        },
        {
          "indexed": false,
          "internalType": "uint256[]",
          "name": "jobIds",
          "type": "uint256[]"
        },
        {
          "indexed": false,
          "internalType": "uint256",
          "name": "timestamp",
          "type": "uint256"
        }
      ],
      "name": "BlockConfirmed",
      "type": "event"
    },
    {
      "anonymous": false,
      "inputs": [
        {
          "indexed": false,
          "internalType": "uint256",
          "name": "a",
          "type": "uint256"
        }
      ],
      "name": "DebugUint256",
      "type": "event"
    },
    {
      "anonymous": false,
      "inputs": [
        {
          "indexed": false,
          "internalType": "uint256",
          "name": "epoch",
          "type": "uint256"
        },
        {
          "indexed": false,
          "internalType": "uint256",
          "name": "stakerId",
          "type": "uint256"
        },
        {
          "indexed": false,
          "internalType": "uint256[]",
          "name": "jobIds",
          "type": "uint256[]"
        },
        {
          "indexed": false,
          "internalType": "uint256[]",
          "name": "medians",
          "type": "uint256[]"
        },
        {
          "indexed": false,
          "internalType": "uint256[]",
          "name": "lowerCutoffs",
          "type": "uint256[]"
        },
        {
          "indexed": false,
          "internalType": "uint256[]",
          "name": "higherCutoffs",
          "type": "uint256[]"
        },
        {
          "indexed": false,
          "internalType": "uint256",
          "name": "iteration",
          "type": "uint256"
        },
        {
          "indexed": false,
          "internalType": "uint256",
          "name": "biggestStakerId",
          "type": "uint256"
        },
        {
          "indexed": false,
          "internalType": "uint256",
          "name": "timestamp",
          "type": "uint256"
        }
      ],
      "name": "Proposed",
      "type": "event"
    },
    {
      "anonymous": false,
      "inputs": [
        {
          "indexed": true,
          "internalType": "bytes32",
          "name": "role",
          "type": "bytes32"
        },
        {
          "indexed": true,
          "internalType": "bytes32",
          "name": "previousAdminRole",
          "type": "bytes32"
        },
        {
          "indexed": true,
          "internalType": "bytes32",
          "name": "newAdminRole",
          "type": "bytes32"
        }
      ],
      "name": "RoleAdminChanged",
      "type": "event"
    },
    {
      "anonymous": false,
      "inputs": [
        {
          "indexed": true,
          "internalType": "bytes32",
          "name": "role",
          "type": "bytes32"
        },
        {
          "indexed": true,
          "internalType": "address",
          "name": "account",
          "type": "address"
        },
        {
          "indexed": true,
          "internalType": "address",
          "name": "sender",
          "type": "address"
        }
      ],
      "name": "RoleGranted",
      "type": "event"
    },
    {
      "anonymous": false,
      "inputs": [
        {
          "indexed": true,
          "internalType": "bytes32",
          "name": "role",
          "type": "bytes32"
        },
        {
          "indexed": true,
          "internalType": "address",
          "name": "account",
          "type": "address"
        },
        {
          "indexed": true,
          "internalType": "address",
          "name": "sender",
          "type": "address"
        }
      ],
      "name": "RoleRevoked",
      "type": "event"
    },
    {
      "anonymous": false,
      "inputs": [
        {
          "indexed": true,
          "internalType": "address",
          "name": "account",
          "type": "address"
        }
      ],
      "name": "WriterAdded",
      "type": "event"
    },
    {
      "anonymous": false,
      "inputs": [
        {
          "indexed": true,
          "internalType": "address",
          "name": "account",
          "type": "address"
        }
      ],
      "name": "WriterRemoved",
      "type": "event"
    },
    {
      "inputs": [],
      "name": "DEFAULT_ADMIN_ROLE",
      "outputs": [
        {
          "internalType": "bytes32",
          "name": "",
          "type": "bytes32"
        }
      ],
      "stateMutability": "view",
      "type": "function",
      "constant": true
    },
    {
      "inputs": [
        {
          "internalType": "address",
          "name": "account",
          "type": "address"
        }
      ],
      "name": "addWriter",
      "outputs": [],
      "stateMutability": "nonpayable",
      "type": "function"
    },
    {
      "inputs": [
        {
          "internalType": "uint256",
          "name": "",
          "type": "uint256"
        }
      ],
      "name": "blocks",
      "outputs": [
        {
          "internalType": "uint256",
          "name": "proposerId",
          "type": "uint256"
        },
        {
          "internalType": "uint256",
          "name": "iteration",
          "type": "uint256"
        },
        {
          "internalType": "uint256",
          "name": "biggestStake",
          "type": "uint256"
        },
        {
          "internalType": "bool",
          "name": "valid",
          "type": "bool"
        }
      ],
      "stateMutability": "view",
      "type": "function",
      "constant": true
    },
    {
      "inputs": [
        {
          "internalType": "uint256",
          "name": "",
          "type": "uint256"
        },
        {
          "internalType": "address",
          "name": "",
          "type": "address"
        }
      ],
      "name": "disputes",
      "outputs": [
        {
          "internalType": "uint256",
          "name": "accWeight",
          "type": "uint256"
        },
        {
          "internalType": "uint256",
          "name": "median",
          "type": "uint256"
        },
        {
          "internalType": "uint256",
          "name": "lowerCutoff",
          "type": "uint256"
        },
        {
          "internalType": "uint256",
          "name": "higherCutoff",
          "type": "uint256"
        },
        {
          "internalType": "uint256",
          "name": "lastVisited",
          "type": "uint256"
        },
        {
          "internalType": "uint256",
          "name": "assetId",
          "type": "uint256"
        }
      ],
      "stateMutability": "view",
      "type": "function",
      "constant": true
    },
    {
      "inputs": [
        {
          "internalType": "bytes32",
          "name": "role",
          "type": "bytes32"
        }
      ],
      "name": "getRoleAdmin",
      "outputs": [
        {
          "internalType": "bytes32",
          "name": "",
          "type": "bytes32"
        }
      ],
      "stateMutability": "view",
      "type": "function",
      "constant": true
    },
    {
      "inputs": [
        {
          "internalType": "bytes32",
          "name": "role",
          "type": "bytes32"
        },
        {
          "internalType": "uint256",
          "name": "index",
          "type": "uint256"
        }
      ],
      "name": "getRoleMember",
      "outputs": [
        {
          "internalType": "address",
          "name": "",
          "type": "address"
        }
      ],
      "stateMutability": "view",
      "type": "function",
      "constant": true
    },
    {
      "inputs": [
        {
          "internalType": "bytes32",
          "name": "role",
          "type": "bytes32"
        }
      ],
      "name": "getRoleMemberCount",
      "outputs": [
        {
          "internalType": "uint256",
          "name": "",
          "type": "uint256"
        }
      ],
      "stateMutability": "view",
      "type": "function",
      "constant": true
    },
    {
      "inputs": [
        {
          "internalType": "bytes32",
          "name": "role",
          "type": "bytes32"
        },
        {
          "internalType": "address",
          "name": "account",
          "type": "address"
        }
      ],
      "name": "grantRole",
      "outputs": [],
      "stateMutability": "nonpayable",
      "type": "function"
    },
    {
      "inputs": [
        {
          "internalType": "bytes32",
          "name": "role",
          "type": "bytes32"
        },
        {
          "internalType": "address",
          "name": "account",
          "type": "address"
        }
      ],
      "name": "hasRole",
      "outputs": [
        {
          "internalType": "bool",
          "name": "",
          "type": "bool"
        }
      ],
      "stateMutability": "view",
      "type": "function",
      "constant": true
    },
    {
      "inputs": [
        {
          "internalType": "address",
          "name": "account",
          "type": "address"
        }
      ],
      "name": "isAdmin",
      "outputs": [
        {
          "internalType": "bool",
          "name": "",
          "type": "bool"
        }
      ],
      "stateMutability": "view",
      "type": "function",
      "constant": true
    },
    {
      "inputs": [
        {
          "internalType": "address",
          "name": "account",
          "type": "address"
        }
      ],
      "name": "isWriter",
      "outputs": [
        {
          "internalType": "bool",
          "name": "",
          "type": "bool"
        }
      ],
      "stateMutability": "view",
      "type": "function",
      "constant": true
    },
    {
      "inputs": [],
      "name": "jobManager",
      "outputs": [
        {
          "internalType": "contract IJobManager",
          "name": "",
          "type": "address"
        }
      ],
      "stateMutability": "view",
      "type": "function",
      "constant": true
    },
    {
      "inputs": [
        {
          "internalType": "uint256",
          "name": "",
          "type": "uint256"
        },
        {
          "internalType": "uint256",
          "name": "",
          "type": "uint256"
        }
      ],
      "name": "proposedBlocks",
      "outputs": [
        {
          "internalType": "uint256",
          "name": "proposerId",
          "type": "uint256"
        },
        {
          "internalType": "uint256",
          "name": "iteration",
          "type": "uint256"
        },
        {
          "internalType": "uint256",
          "name": "biggestStake",
          "type": "uint256"
        },
        {
          "internalType": "bool",
          "name": "valid",
          "type": "bool"
        }
      ],
      "stateMutability": "view",
      "type": "function",
      "constant": true
    },
    {
      "inputs": [
        {
          "internalType": "bytes32",
          "name": "role",
          "type": "bytes32"
        },
        {
          "internalType": "address",
          "name": "account",
          "type": "address"
        }
      ],
      "name": "renounceRole",
      "outputs": [],
      "stateMutability": "nonpayable",
      "type": "function"
    },
    {
      "inputs": [
        {
          "internalType": "address",
          "name": "account",
          "type": "address"
        }
      ],
      "name": "renounceWriter",
      "outputs": [],
      "stateMutability": "nonpayable",
      "type": "function"
    },
    {
      "inputs": [
        {
          "internalType": "bytes32",
          "name": "role",
          "type": "bytes32"
        },
        {
          "internalType": "address",
          "name": "account",
          "type": "address"
        }
      ],
      "name": "revokeRole",
      "outputs": [],
      "stateMutability": "nonpayable",
      "type": "function"
    },
    {
      "inputs": [],
      "name": "stakeManager",
      "outputs": [
        {
          "internalType": "contract IStakeManager",
          "name": "",
          "type": "address"
        }
      ],
      "stateMutability": "view",
      "type": "function",
      "constant": true
    },
    {
      "inputs": [],
      "name": "stateManager",
      "outputs": [
        {
          "internalType": "contract IStateManager",
          "name": "",
          "type": "address"
        }
      ],
      "stateMutability": "view",
      "type": "function",
      "constant": true
    },
    {
      "inputs": [],
      "name": "voteManager",
      "outputs": [
        {
          "internalType": "contract IVoteManager",
          "name": "",
          "type": "address"
        }
      ],
      "stateMutability": "view",
      "type": "function",
      "constant": true
    },
    {
      "inputs": [
        {
          "internalType": "uint256",
          "name": "epoch",
          "type": "uint256"
        }
      ],
      "name": "getBlock",
      "outputs": [
        {
          "components": [
            {
              "internalType": "uint256",
              "name": "proposerId",
              "type": "uint256"
            },
            {
              "internalType": "uint256[]",
              "name": "jobIds",
              "type": "uint256[]"
            },
            {
              "internalType": "uint256[]",
              "name": "medians",
              "type": "uint256[]"
            },
            {
              "internalType": "uint256[]",
              "name": "lowerCutoffs",
              "type": "uint256[]"
            },
            {
              "internalType": "uint256[]",
              "name": "higherCutoffs",
              "type": "uint256[]"
            },
            {
              "internalType": "uint256",
              "name": "iteration",
              "type": "uint256"
            },
            {
              "internalType": "uint256",
              "name": "biggestStake",
              "type": "uint256"
            },
            {
              "internalType": "bool",
              "name": "valid",
              "type": "bool"
            }
          ],
          "internalType": "struct Structs.Block",
          "name": "_block",
          "type": "tuple"
        }
      ],
      "stateMutability": "view",
      "type": "function",
      "constant": true
    },
    {
      "inputs": [
        {
          "internalType": "uint256",
          "name": "epoch",
          "type": "uint256"
        }
      ],
      "name": "getBlockMedians",
      "outputs": [
        {
          "internalType": "uint256[]",
          "name": "_blockMedians",
          "type": "uint256[]"
        }
      ],
      "stateMutability": "view",
      "type": "function",
      "constant": true
    },
    {
      "inputs": [
        {
          "internalType": "uint256",
          "name": "epoch",
          "type": "uint256"
        }
      ],
      "name": "getLowerCutoffs",
      "outputs": [
        {
          "internalType": "uint256[]",
          "name": "_lowerCutoffs",
          "type": "uint256[]"
        }
      ],
      "stateMutability": "view",
      "type": "function",
      "constant": true
    },
    {
      "inputs": [
        {
          "internalType": "uint256",
          "name": "epoch",
          "type": "uint256"
        }
      ],
      "name": "getHigherCutoffs",
      "outputs": [
        {
          "internalType": "uint256[]",
          "name": "_higherCutoffs",
          "type": "uint256[]"
        }
      ],
      "stateMutability": "view",
      "type": "function",
      "constant": true
    },
    {
      "inputs": [
        {
          "internalType": "uint256",
          "name": "epoch",
          "type": "uint256"
        },
        {
          "internalType": "uint256",
          "name": "proposedBlock",
          "type": "uint256"
        }
      ],
      "name": "getProposedBlock",
      "outputs": [
        {
          "components": [
            {
              "internalType": "uint256",
              "name": "proposerId",
              "type": "uint256"
            },
            {
              "internalType": "uint256[]",
              "name": "jobIds",
              "type": "uint256[]"
            },
            {
              "internalType": "uint256[]",
              "name": "medians",
              "type": "uint256[]"
            },
            {
              "internalType": "uint256[]",
              "name": "lowerCutoffs",
              "type": "uint256[]"
            },
            {
              "internalType": "uint256[]",
              "name": "higherCutoffs",
              "type": "uint256[]"
            },
            {
              "internalType": "uint256",
              "name": "iteration",
              "type": "uint256"
            },
            {
              "internalType": "uint256",
              "name": "biggestStake",
              "type": "uint256"
            },
            {
              "internalType": "bool",
              "name": "valid",
              "type": "bool"
            }
          ],
          "internalType": "struct Structs.Block",
          "name": "_block",
          "type": "tuple"
        },
        {
          "internalType": "uint256[]",
          "name": "_blockMedians",
          "type": "uint256[]"
        },
        {
          "internalType": "uint256[]",
          "name": "_lowerCutoffs",
          "type": "uint256[]"
        },
        {
          "internalType": "uint256[]",
          "name": "_higherCutoffs",
          "type": "uint256[]"
        }
      ],
      "stateMutability": "view",
      "type": "function",
      "constant": true
    },
    {
      "inputs": [
        {
          "internalType": "uint256",
          "name": "epoch",
          "type": "uint256"
        },
        {
          "internalType": "uint256",
          "name": "proposedBlock",
          "type": "uint256"
        }
      ],
      "name": "getProposedBlockMedians",
      "outputs": [
        {
          "internalType": "uint256[]",
          "name": "_blockMedians",
          "type": "uint256[]"
        }
      ],
      "stateMutability": "view",
      "type": "function",
      "constant": true
    },
    {
      "inputs": [
        {
          "internalType": "uint256",
          "name": "epoch",
          "type": "uint256"
        }
      ],
      "name": "getNumProposedBlocks",
      "outputs": [
        {
          "internalType": "uint256",
          "name": "",
          "type": "uint256"
        }
      ],
      "stateMutability": "view",
      "type": "function",
      "constant": true
    },
    {
      "inputs": [
        {
          "internalType": "address",
          "name": "_stakeManagerAddress",
          "type": "address"
        },
        {
          "internalType": "address",
          "name": "_stateManagerAddress",
          "type": "address"
        },
        {
          "internalType": "address",
          "name": "_voteManagerAddress",
          "type": "address"
        },
        {
          "internalType": "address",
          "name": "_jobManagerAddress",
          "type": "address"
        }
      ],
      "name": "init",
      "outputs": [],
      "stateMutability": "nonpayable",
      "type": "function"
    },
    {
      "inputs": [
        {
          "internalType": "uint256",
          "name": "epoch",
          "type": "uint256"
        },
        {
          "internalType": "uint256[]",
          "name": "jobIds",
          "type": "uint256[]"
        },
        {
          "internalType": "uint256[]",
          "name": "medians",
          "type": "uint256[]"
        },
        {
          "internalType": "uint256[]",
          "name": "lowerCutoffs",
          "type": "uint256[]"
        },
        {
          "internalType": "uint256[]",
          "name": "higherCutoffs",
          "type": "uint256[]"
        },
        {
          "internalType": "uint256",
          "name": "iteration",
          "type": "uint256"
        },
        {
          "internalType": "uint256",
          "name": "biggestStakerId",
          "type": "uint256"
        }
      ],
      "name": "propose",
      "outputs": [],
      "stateMutability": "nonpayable",
      "type": "function"
    },
    {
      "inputs": [
        {
          "internalType": "uint256",
          "name": "epoch",
          "type": "uint256"
        },
        {
          "internalType": "uint256",
          "name": "assetId",
          "type": "uint256"
        },
        {
          "internalType": "uint256[]",
          "name": "sorted",
          "type": "uint256[]"
        }
      ],
      "name": "giveSorted",
      "outputs": [],
      "stateMutability": "nonpayable",
      "type": "function"
    },
    {
      "inputs": [
        {
          "internalType": "uint256",
          "name": "epoch",
          "type": "uint256"
        }
      ],
      "name": "resetDispute",
      "outputs": [],
      "stateMutability": "nonpayable",
      "type": "function"
    },
    {
      "inputs": [
        {
          "internalType": "uint256",
          "name": "epoch",
          "type": "uint256"
        },
        {
          "internalType": "uint256",
          "name": "blockId",
          "type": "uint256"
        }
      ],
      "name": "finalizeDispute",
      "outputs": [],
      "stateMutability": "nonpayable",
      "type": "function"
    },
    {
      "inputs": [
        {
          "internalType": "uint256",
          "name": "iteration",
          "type": "uint256"
        },
        {
          "internalType": "uint256",
          "name": "biggestStakerId",
          "type": "uint256"
        },
        {
          "internalType": "uint256",
          "name": "stakerId",
          "type": "uint256"
        }
      ],
      "name": "isElectedProposer",
      "outputs": [
        {
          "internalType": "bool",
          "name": "",
          "type": "bool"
        }
      ],
      "stateMutability": "view",
      "type": "function",
      "constant": true
    },
    {
      "inputs": [],
      "name": "confirmBlock",
      "outputs": [],
      "stateMutability": "nonpayable",
      "type": "function"
    }
  ],
  "bytecode": "0x60806040523480156200001157600080fd5b506200003e6040516200002490620001e4565b60405190819003902060006001600160e01b036200005a16565b620000546000336001600160e01b03620000ac16565b620001f6565b600082815260208190526040808220600201549051839285917fbd79b86ffe0ab8e8776151514217cd7cacd52c909f66475c3af44e129f0b00ff9190a460009182526020829052604090912060020155565b620000c182826001600160e01b03620000c516565b5050565b600082815260208181526040909120620000ea9183906200277862000147821b17901c565b15620000c157620001036001600160e01b036200017016565b6001600160a01b0316816001600160a01b0316837f2f8788117e7eff1d82e926ec794901d17c78024a50270940304540a733656f0d60405160405180910390a45050565b600062000167836001600160a01b0384166001600160e01b036200017416565b90505b92915050565b3390565b60006200018b83836001600160e01b03620001cc16565b620001c3575081546001818101845560008481526020808220909301849055845484825282860190935260409020919091556200016a565b5060006200016a565b60009081526001919091016020526040902054151590565b652ba924aa22a960d11b815260060190565b613df780620002066000396000f3fe608060405234801561001057600080fd5b50600436106101fb5760003560e01c80637542ff951161011a578063a27ce1ef116100ad578063d547741f1161007c578063d547741f14610450578063da2824a814610463578063e38c7c4214610476578063f25b3f9914610489578063fae4425d1461049c576101fb565b8063a27ce1ef146103f4578063ca15c87314610417578063d1a4a43d1461042a578063d2a4669a1461043d576101fb565b806392b48411116100e957806392b48411146103ae5780639b87f644146103d15780639c24730d146103d9578063a217fddf146103ec576101fb565b80637542ff951461035b578063828496d6146103635780639010d07c1461038857806391d148541461039b576101fb565b80632f2ff15d116101925780633df395a3116101615780633df395a31461032557806342c1e5871461032d5780634e6753b7146103355780635ce8772f14610348576101fb565b80632f2ff15d146102cc57806336568abe146102df578063378ab9a9146102f25780633cd32fd414610312576101fb565b8063248a9ca3116101ce578063248a9ca31461027157806324d7806c146102915780632b29ba23146102a45780632e716fb1146102b7576101fb565b806304c075691461020057806306552ff31461022957806317d99c041461023e5780631d69ff9b14610251575b600080fd5b61021361020e366004613363565b6104af565b6040516102209190613ba9565b60405180910390f35b61023c610237366004613308565b61065f565b005b61023c61024c366004613460565b6106af565b61026461025f366004613573565b610b6a565b604051610220919061370b565b61028461027f366004613363565b610ee9565b6040516102209190613716565b61026461029f3660046132ec565b610efe565b6102646102b23660046132ec565b610f10565b6102bf610f2f565b60405161022091906136e4565b61023c6102da366004613393565b610f3e565b61023c6102ed366004613393565b610f86565b610305610300366004613363565b610fc8565b60405161022091906136f8565b61023c6103203660046133c2565b61102d565b6102bf6114d0565b6102bf6114df565b61023c610343366004613525565b6114ee565b61023c610356366004613363565b611b27565b6102bf611d57565b610376610371366004613393565b611d66565b60405161022096959493929190613d5d565b6102bf6103963660046133c2565b611da4565b6102646103a9366004613393565b611dc2565b6103c16103bc3660046133c2565b611de0565b6040516102209493929190613d40565b61023c611e26565b61023c6103e73660046132ec565b61234a565b610284612378565b6104076104023660046133c2565b61237d565b6040516102209493929190613bbc565b610284610425366004613363565b612571565b6103056104383660046133c2565b612588565b61030561044b366004613363565b61260e565b61023c61045e366004613393565b612671565b61023c6104713660046132ec565b6126ab565b610284610484366004613363565b6126d9565b6103c1610497366004613363565b6126eb565b6103056104aa366004613363565b612715565b6104b7613166565b600082815260036020908152604091829020825161010081018452815481526001820180548551818602810186019096528086529194929385810193929083018282801561052457602002820191906000526020600020905b815481526020019060010190808311610510575b505050505081526020016002820180548060200260200160405190810160405280929190818152602001828054801561057c57602002820191906000526020600020905b815481526020019060010190808311610568575b50505050508152602001600382018054806020026020016040519081016040528092919081815260200182805480156105d457602002820191906000526020600020905b8154815260200190600101908083116105c0575b505050505081526020016004820180548060200260200160405190810160405280929190818152602001828054801561062c57602002820191906000526020600020905b815481526020019060010190808311610618575b5050509183525050600582015460208201526006820154604082015260079091015460ff16151560609091015292915050565b600480546001600160a01b039586166001600160a01b0319918216179091556005805494861694821694909417909355600680549285169284169290921790915560078054919093169116179055565b60055460408051630eaf323560e31b8152905189926001600160a01b03169163757991a8916004808301926020929190829003018186803b1580156106f357600080fd5b505afa158015610707573d6000803e3d6000fd5b505050506040513d601f19601f8201168201806040525081019061072b919061337b565b81146107525760405162461bcd60e51b815260040161074990613967565b60405180910390fd5b73__Constants_____________________________63c198f8ba6040518163ffffffff1660e01b815260040160206040518083038186803b15801561079657600080fd5b505af41580156107aa573d6000803e3d6000fd5b505050506040513d601f19601f820116820180604052508101906107ce919061359e565b60ff16600560009054906101000a90046001600160a01b03166001600160a01b0316631865c57d6040518163ffffffff1660e01b815260040160206040518083038186803b15801561081f57600080fd5b505afa158015610833573d6000803e3d6000fd5b505050506040513d601f19601f82011682018060405250810190610857919061337b565b81146108755760405162461bcd60e51b815260040161074990613ae1565b60048054604051636022a48560e01b81526000926001600160a01b0390921691636022a485916108a7913391016136e4565b60206040518083038186803b1580156108bf57600080fd5b505afa1580156108d3573d6000803e3d6000fd5b505050506040513d601f19601f820116820180604052508101906108f7919061337b565b9050610904858583610b6a565b6109205760405162461bcd60e51b8152600401610749906138b1565b73__Constants_____________________________63375b3c0a6040518163ffffffff1660e01b815260040160206040518083038186803b15801561096457600080fd5b505af4158015610978573d6000803e3d6000fd5b505050506040513d601f19601f8201168201806040525081019061099c919061337b565b600480546040516371e4cc7f60e11b81526001600160a01b039091169163e3c998fe916109cb91869101613716565b6101006040518083038186803b1580156109e457600080fd5b505afa1580156109f8573d6000803e3d6000fd5b505050506040513d601f19601f82011682018060405250810190610a1c91906133e3565b604001511015610a3e5760405162461bcd60e51b815260040161074990613a69565b610b178a6040518061010001604052808481526020018c81526020018b81526020018a8152602001898152602001888152602001600460009054906101000a90046001600160a01b03166001600160a01b031663e3c998fe896040518263ffffffff1660e01b8152600401610ab39190613716565b6101006040518083038186803b158015610acc57600080fd5b505afa158015610ae0573d6000803e3d6000fd5b505050506040513d601f19601f82011682018060405250810190610b0491906133e3565b604001518152600160209091015261278d565b7fee036cc96c88163f353feaa4d497e88baaebeb631f40ad9b8a6d51bb6fad40768a828b8b8b8b8b8b42604051610b5699989796959493929190613c40565b60405180910390a150505050505050505050565b600081610cb5600173__Random________________________________635075dbfb600a600460009054906101000a90046001600160a01b03166001600160a01b031663bc788d466040518163ffffffff1660e01b815260040160206040518083038186803b158015610bdc57600080fd5b505afa158015610bf0573d6000803e3d6000fd5b505050506040513d601f19601f82011682018060405250810190610c14919061337b565b8a604051602001610c259190613716565b604051602081830303815290604052805190602001206040518463ffffffff1660e01b8152600401610c5993929190613732565b60206040518083038186803b158015610c7157600080fd5b505af4158015610c85573d6000803e3d6000fd5b505050506040513d601f19601f82011682018060405250810190610ca9919061337b565b9063ffffffff612cdb16565b14610cc257506000610ee2565b600073__Random________________________________63b07ceab8600a8588604051602001610cf3929190613c32565b604051602081830303815290604052805190602001206040518363ffffffff1660e01b8152600401610d2692919061371f565b60206040518083038186803b158015610d3e57600080fd5b505af4158015610d52573d6000803e3d6000fd5b505050506040513d601f19601f82011682018060405250810190610d76919061337b565b90506000610d8f8264010000000063ffffffff612d0016565b600480546040516371e4cc7f60e11b81529293506000926001600160a01b039091169163e3c998fe91610dc4918a9101613716565b6101006040518083038186803b158015610ddd57600080fd5b505afa158015610df1573d6000803e3d6000fd5b505050506040513d601f19601f82011682018060405250810190610e1591906133e3565b6040908101516004805492516371e4cc7f60e11b8152919350610eb892640100000000926001600160a01b039091169163e3c998fe91610e57918b9101613716565b6101006040518083038186803b158015610e7057600080fd5b505afa158015610e84573d6000803e3d6000fd5b505050506040513d601f19601f82011682018060405250810190610ea891906133e3565b604001519063ffffffff612d4216565b610ec8838363ffffffff612d4216565b1115610eda5760009350505050610ee2565b600193505050505b9392505050565b60009081526020819052604090206002015490565b6000610f0a8183611dc2565b92915050565b6000610f0a604051610f21906136d2565b604051809103902083611dc2565b6005546001600160a01b031681565b600082815260208190526040902060020154610f5c906103a9612d7c565b610f785760405162461bcd60e51b8152600401610749906137e2565b610f828282612d81565b5050565b610f8e612d7c565b6001600160a01b0316816001600160a01b031614610fbe5760405162461bcd60e51b815260040161074990613b5a565b610f828282612df0565b60008181526003602090815260409182902060020180548351818402810184019094528084526060939283018282801561102157602002820191906000526020600020905b81548152602001906001019080831161100d575b50939695505050505050565b60055460408051630eaf323560e31b8152905184926001600160a01b03169163757991a8916004808301926020929190829003018186803b15801561107157600080fd5b505afa158015611085573d6000803e3d6000fd5b505050506040513d601f19601f820116820180604052508101906110a9919061337b565b81146110c75760405162461bcd60e51b815260040161074990613967565b73__Constants_____________________________63f240f7c36040518163ffffffff1660e01b815260040160206040518083038186803b15801561110b57600080fd5b505af415801561111f573d6000803e3d6000fd5b505050506040513d601f19601f82011682018060405250810190611143919061359e565b60ff16600560009054906101000a90046001600160a01b03166001600160a01b0316631865c57d6040518163ffffffff1660e01b815260040160206040518083038186803b15801561119457600080fd5b505afa1580156111a8573d6000803e3d6000fd5b505050506040513d601f19601f820116820180604052508101906111cc919061337b565b81146111ea5760405162461bcd60e51b815260040161074990613ae1565b60008481526001602090815260408083203384529091529081902060050154600654915163a6a145d960e01b815290916001600160a01b03169063a6a145d99061123a9088908590600401613c32565b60206040518083038186803b15801561125257600080fd5b505afa158015611266573d6000803e3d6000fd5b505050506040513d601f19601f8201168201806040525081019061128a919061337b565b6000868152600160209081526040808320338452909152902054146112c15760405162461bcd60e51b815260040161074990613aa0565b60008581526001602081815260408084203385528252808420928301546002808501546003909501548b8752935290842080549194918990811061130157fe5b90600052602060002090600802016000015490506000841161132257600080fd5b600089815260026020526040902080548591908a90811061133f57fe5b9060005260206000209060080201600201868154811061135b57fe5b90600052602060002001541415806113b55750600089815260026020526040902080548491908a90811061138b57fe5b906000526020600020906008020160030186815481106113a757fe5b906000526020600020015414155b806114025750600089815260026020526040902080548391908a9081106113d857fe5b906000526020600020906008020160040186815481106113f457fe5b906000526020600020015414155b156114ad57600089815260026020526040812080548a90811061142157fe5b60009182526020909120600890910201600701805460ff191691151591909117905560048054604051630f91ce1960e01b81526001600160a01b0390911691630f91ce199161147691859133918f9101613c13565b600060405180830381600087803b15801561149057600080fd5b505af11580156114a4573d6000803e3d6000fd5b505050506114c5565b60405162461bcd60e51b815260040161074990613a0c565b505050505050505050565b6007546001600160a01b031681565b6006546001600160a01b031681565b60055460408051630eaf323560e31b8152905185926001600160a01b03169163757991a8916004808301926020929190829003018186803b15801561153257600080fd5b505afa158015611546573d6000803e3d6000fd5b505050506040513d601f19601f8201168201806040525081019061156a919061337b565b81146115885760405162461bcd60e51b815260040161074990613967565b73__Constants_____________________________63f240f7c36040518163ffffffff1660e01b815260040160206040518083038186803b1580156115cc57600080fd5b505af41580156115e0573d6000803e3d6000fd5b505050506040513d601f19601f82011682018060405250810190611604919061359e565b60ff16600560009054906101000a90046001600160a01b03166001600160a01b0316631865c57d6040518163ffffffff1660e01b815260040160206040518083038186803b15801561165557600080fd5b505afa158015611669573d6000803e3d6000fd5b505050506040513d601f19601f8201168201806040525081019061168d919061337b565b81146116ab5760405162461bcd60e51b815260040161074990613ae1565b60065460405163a6a145d960e01b8152600091611741916002916001600160a01b03169063a6a145d9906116e5908b908b90600401613c32565b60206040518083038186803b1580156116fd57600080fd5b505afa158015611711573d6000803e3d6000fd5b505050506040513d601f19601f82011682018060405250810190611735919061337b565b9063ffffffff612e5f16565b60065460405163a6a145d960e01b815291925060009161177f916004916001600160a01b039091169063a6a145d9906116e5908c908c908601613c32565b60065460405163a6a145d960e01b815291925060009161182091600491611735916003916001600160a01b039091169063a6a145d9906117c4908f908f908801613c32565b60206040518083038186803b1580156117dc57600080fd5b505afa1580156117f0573d6000803e3d6000fd5b505050506040513d601f19601f82011682018060405250810190611814919061337b565b9063ffffffff612d4216565b600089815260016020908152604080832033845290915290208054600490910154919250908161186e5760008a815260016020908152604080832033845290915290206005018990556118a9565b60008a815260016020908152604080832033845290915290206005015489146118a95760405162461bcd60e51b8152600401610749906139de565b60005b8851811015611af857818982815181106118c257fe5b6020026020010151116118e75760405162461bcd60e51b815260040161074990613831565b8881815181106118f357fe5b602002602001015191506119b5600660009054906101000a90046001600160a01b03166001600160a01b0316639c66556f8d8d8d868151811061193257fe5b60200260200101516040518463ffffffff1660e01b815260040161195893929190613d2a565b60206040518083038186803b15801561197057600080fd5b505afa158015611984573d6000803e3d6000fd5b505050506040513d601f19601f820116820180604052508101906119a8919061337b565b849063ffffffff612cdb16565b60008c81526001602090815260408083203384529091529020600201549093501580156119e25750848310155b15611a1c578881815181106119f357fe5b60209081029190910181015160008d815260018352604080822033835290935291909120600201555b60008b81526001602081815260408084203385529091529091200154158015611a4457508583115b15611a7e57888181518110611a5557fe5b60209081029190910181015160008d815260018084526040808320338452909452929020909101555b60008b8152600160209081526040808320338452909152902060030154158015611aa757508383115b15611ae157888181518110611ab857fe5b60209081029190910181015160008d815260018352604080822033835290935291909120600301555b6127105a1015611af057611af8565b6001016118ac565b506000998a52600160209081526040808c20338d52909152909920600481019990995590975550505050505050565b60055460408051630eaf323560e31b8152905183926001600160a01b03169163757991a8916004808301926020929190829003018186803b158015611b6b57600080fd5b505afa158015611b7f573d6000803e3d6000fd5b505050506040513d601f19601f82011682018060405250810190611ba3919061337b565b8114611bc15760405162461bcd60e51b815260040161074990613967565b73__Constants_____________________________63f240f7c36040518163ffffffff1660e01b815260040160206040518083038186803b158015611c0557600080fd5b505af4158015611c19573d6000803e3d6000fd5b505050506040513d601f19601f82011682018060405250810190611c3d919061359e565b60ff16600560009054906101000a90046001600160a01b03166001600160a01b0316631865c57d6040518163ffffffff1660e01b815260040160206040518083038186803b158015611c8e57600080fd5b505afa158015611ca2573d6000803e3d6000fd5b505050506040513d601f19601f82011682018060405250810190611cc6919061337b565b8114611ce45760405162461bcd60e51b815260040161074990613ae1565b50506040805160c08101825260008082526020808301828152838501838152606085018481526080860185815260a0870186815298865260018086528887203388529095529690942094518555905191840191909155516002830155516003820155905160048201559051600590910155565b6004546001600160a01b031681565b600160208181526000938452604080852090915291835291208054918101546002820154600383015460048401546005909401549293919290919086565b6000828152602081905260408120610ee2908363ffffffff612ea116565b6000828152602081905260408120610ee2908363ffffffff612ead16565b60026020528160005260406000208181548110611df957fe5b60009182526020909120600890910201805460058201546006830154600790930154919450925060ff1684565b611e2f33610f10565b611e4b5760405162461bcd60e51b815260040161074990613b0a565b60055460408051630eaf323560e31b815290516000926001600160a01b03169163757991a8916004808301926020929190829003018186803b158015611e9057600080fd5b505afa158015611ea4573d6000803e3d6000fd5b505050506040513d601f19601f82011682018060405250810190611ec8919061337b565b6000198101600090815260036020526040902054909150158015611efe5750600019810160009081526002602052604090205415155b156123465760005b600019820160009081526002602052604090205460ff82161015610f825760001982016000908152600260205260409020805460ff8316908110611f4657fe5b600091825260209091206007600890920201015460ff161561233e5760001982016000908152600260205260409020805460ff8316908110611f8457fe5b906000526020600020906008020160036000600185038152602001908152602001600020600082015481600001556001820181600101908054611fc89291906131ad565b5060028281018054611fdd92840191906131ad565b5060038281018054611ff292840191906131ad565b506004828101805461200792840191906131ad565b5060058281015490820155600680830154908201556007918201549101805460ff191660ff92831615151790556000198301600090815260026020526040812080549192909190841690811061205957fe5b90600052602060002090600802016000015490507f5ef264ae9101b91bd7117350c5e85901297fa0569e7a3e07eb7ec0a6281529f06001840382600260006001880381526020019081526020016000208560ff16815481106120b757fe5b9060005260206000209060080201600201600260006001890381526020019081526020016000208660ff16815481106120ec57fe5b90600052602060002090600802016003016002600060018a0381526020019081526020016000208760ff168154811061212157fe5b90600052602060002090600802016004016002600060018b0381526020019081526020016000208860ff168154811061215657fe5b90600052602060002090600802016001014260405161217b9796959493929190613cbd565b60405180910390a160005b60001984016000908152600260205260409020805460ff85169081106121a857fe5b9060005260206000209060080201600101805490508160ff1610156122d2576007546000198501600090815260026020526040902080546001600160a01b03909216916356350bdf919060ff87169081106121ff57fe5b90600052602060002090600802016001018360ff168154811061221e57fe5b9060005260206000200154600260006001890381526020019081526020016000208660ff168154811061224d57fe5b90600052602060002090600802016002018460ff168154811061226c57fe5b90600052602060002001546040518363ffffffff1660e01b8152600401612294929190613c32565b600060405180830381600087803b1580156122ae57600080fd5b505af11580156122c2573d6000803e3d6000fd5b5050600190920191506121869050565b506004805460405163746c8b6560e01b81526001600160a01b039091169163746c8b6591612304918591889101613c32565b600060405180830381600087803b15801561231e57600080fd5b505af1158015612332573d6000803e3d6000fd5b50505050505050612348565b600101611f06565b505b565b61235333610efe565b61236f5760405162461bcd60e51b815260040161074990613990565b61234681612ec2565b600081565b612385613166565b60608060606002600087815260200190815260200160002085815481106123a857fe5b906000526020600020906008020160405180610100016040529081600082015481526020016001820180548060200260200160405190810160405280929190818152602001828054801561241b57602002820191906000526020600020905b815481526020019060010190808311612407575b505050505081526020016002820180548060200260200160405190810160405280929190818152602001828054801561247357602002820191906000526020600020905b81548152602001906001019080831161245f575b50505050508152602001600382018054806020026020016040519081016040528092919081815260200182805480156124cb57602002820191906000526020600020905b8154815260200190600101908083116124b7575b505050505081526020016004820180548060200260200160405190810160405280929190818152602001828054801561252357602002820191906000526020600020905b81548152602001906001019080831161250f575b505050918352505060058201546020820152600682015460408083019190915260079092015460ff161515606091820152908201519082015160808301519299919850965090945092505050565b6000818152602081905260408120610f0a90612f16565b6000828152600260205260409020805460609190839081106125a657fe5b906000526020600020906008020160020180548060200260200160405190810160405280929190818152602001828054801561260157602002820191906000526020600020905b8154815260200190600101908083116125ed575b5093979650505050505050565b600081815260036020818152604092839020909101805483518184028101840190945280845260609392830182828015611021576020028201919060005260206000209081548152602001906001019080831161100d5750939695505050505050565b60008281526020819052604090206002015461268f906103a9612d7c565b610fbe5760405162461bcd60e51b8152600401610749906138d6565b6126b433610efe565b6126d05760405162461bcd60e51b815260040161074990613990565b61234681612f21565b60009081526002602052604090205490565b60036020526000908152604090208054600582015460068301546007909301549192909160ff1684565b600081815260036020908152604091829020600401805483518184028101840190945280845260609392830182828015611021576020028201919060005260206000209081548152602001906001019080831161100d5750939695505050505050565b6000610ee2836001600160a01b038416612f75565b60008281526002602052604090205461286a57600082815260026020908152604082208054600181810183559184529282902084516008909402019283558382015180518594936127e29385019201906131fd565b50604082015180516127fe9160028401916020909101906131fd565b506060820151805161281a9160038401916020909101906131fd565b50608082015180516128369160048401916020909101906131fd565b5060a0820151600582015560c0820151600682015560e0909101516007909101805460ff1916911515919091179055610f82565b600082815260026020526040812054905b6000848152600260205260409020548110156129175760c083015160008581526002602052604090208054839081106128b057fe5b90600052602060002090600802016006015410156128d057809150612917565b60a083015160008581526002602052604090208054839081106128ef57fe5b906000526020600020906008020160050154111561290f57809150612917565b60010161287b565b506000838152600260209081526040822080546001818101835591845292829020855160089094020192835584820151805186949361295a9385019201906131fd565b50604082015180516129769160028401916020909101906131fd565b50606082015180516129929160038401916020909101906131fd565b50608082015180516129ae9160048401916020909101906131fd565b5060a0820151600582015560c0820151600682015560e0909101516007909101805460ff1916911515919091179055600083815260026020526040902054600019015b81811115612ae457600084815260026020526040902080546000198301908110612a1757fe5b9060005260206000209060080201600260008681526020019081526020016000208281548110612a4357fe5b60009182526020909120825460089092020190815560018083018054612a6c92840191906131ad565b5060028281018054612a8192840191906131ad565b5060038281018054612a9692840191906131ad565b5060048281018054612aab92840191906131ad565b5060058281015490820155600680830154908201556007918201549101805460ff191660ff9092161515919091179055600019016129f1565b506000838152600260205260409020805483919083908110612b0257fe5b9060005260206000209060080201600082015181600001556020820151816001019080519060200190612b369291906131fd565b5060408201518051612b529160028401916020909101906131fd565b5060608201518051612b6e9160038401916020909101906131fd565b5060808201518051612b8a9160048401916020909101906131fd565b5060a0820151816005015560c0820151816006015560e08201518160070160006101000a81548160ff02191690831515021790555090505073__Constants_____________________________63379597e06040518163ffffffff1660e01b815260040160206040518083038186803b158015612c0657600080fd5b505af4158015612c1a573d6000803e3d6000fd5b505050506040513d601f19601f82011682018060405250810190612c3e919061337b565b6000848152600260205260409020541115612cd657600083815260026020526040902080546000198101908110612c7157fe5b60009182526020822060089091020181815590612c916001830182613238565b612c9f600283016000613238565b612cad600383016000613238565b612cbb600483016000613238565b506000600582018190556006820155600701805460ff191690555b505050565b600082820183811015610ee25760405162461bcd60e51b81526004016107499061387a565b6000610ee283836040518060400160405280601881526020017f536166654d6174683a206d6f64756c6f206279207a65726f0000000000000000815250612fbf565b600082612d5157506000610f0a565b82820282848281612d5e57fe5b0414610ee25760405162461bcd60e51b815260040161074990613926565b335b90565b6000828152602081905260409020612d9f908263ffffffff61277816565b15610f8257612dac612d7c565b6001600160a01b0316816001600160a01b0316837f2f8788117e7eff1d82e926ec794901d17c78024a50270940304540a733656f0d60405160405180910390a45050565b6000828152602081905260409020612e0e908263ffffffff612ff316565b15610f8257612e1b612d7c565b6001600160a01b0316816001600160a01b0316837ff6391f5c32d9c69d2a47ea670b442974b53935d1edc7fd64eb21e047a839171b60405160405180910390a45050565b6000610ee283836040518060400160405280601a81526020017f536166654d6174683a206469766973696f6e206279207a65726f000000000000815250613008565b6000610ee2838361303f565b6000610ee2836001600160a01b038416613084565b612edf604051612ed1906136d2565b604051809103902082612671565b6040516001600160a01b038216907f86e5bbceda94081c32220d685f37cc4e3ea7bb0be2dfbf0cb703579505a5390e90600090a250565b6000610f0a8261309c565b612f3e604051612f30906136d2565b604051809103902082610f3e565b6040516001600160a01b038216907f6ff3aa2ea7b53070f6d9d07a445d338d89e8edef44250ffa8be19f53910d4a2e90600090a250565b6000612f818383613084565b612fb757508154600181810184556000848152602080822090930184905584548482528286019093526040902091909155610f0a565b506000610f0a565b60008183612fe05760405162461bcd60e51b8152600401610749919061374d565b50828481612fea57fe5b06949350505050565b6000610ee2836001600160a01b0384166130a0565b600081836130295760405162461bcd60e51b8152600401610749919061374d565b50600083858161303557fe5b0495945050505050565b815460009082106130625760405162461bcd60e51b8152600401610749906137a0565b82600001828154811061307157fe5b9060005260206000200154905092915050565b60009081526001919091016020526040902054151590565b5490565b6000818152600183016020526040812054801561315c57835460001980830191908101906000908790839081106130d357fe5b90600052602060002001549050808760000184815481106130f057fe5b60009182526020808320909101929092558281526001898101909252604090209084019055865487908061312057fe5b60019003818190600052602060002001600090559055866001016000878152602001908152602001600020600090556001945050505050610f0a565b6000915050610f0a565b604051806101000160405280600081526020016060815260200160608152602001606081526020016060815260200160008152602001600081526020016000151581525090565b8280548282559060005260206000209081019282156131ed5760005260206000209182015b828111156131ed5782548255916001019190600101906131d2565b506131f9929150613252565b5090565b8280548282559060005260206000209081019282156131ed579160200282015b828111156131ed57825182559160200191906001019061321d565b508054600082559060005260206000209081019061234691905b612d7e91905b808211156131f95760008155600101613258565b600082601f83011261327c578081fd5b813567ffffffffffffffff811115613292578182fd5b60208082026132a2828201613d85565b838152935081840185830182870184018810156132be57600080fd5b600092505b848310156132e15780358252600192909201919083019083016132c3565b505050505092915050565b6000602082840312156132fd578081fd5b8135610ee281613dac565b6000806000806080858703121561331d578283fd5b843561332881613dac565b9350602085013561333881613dac565b9250604085013561334881613dac565b9150606085013561335881613dac565b939692955090935050565b600060208284031215613374578081fd5b5035919050565b60006020828403121561338c578081fd5b5051919050565b600080604083850312156133a5578182fd5b8235915060208301356133b781613dac565b809150509250929050565b600080604083850312156133d4578182fd5b50508035926020909101359150565b60006101008083850312156133f6578182fd5b6133ff81613d85565b835181526020840151915061341382613dac565b81602082015260408401516040820152606084015160608201526080840151608082015260a084015160a082015260c084015160c082015260e084015160e0820152809250505092915050565b600080600080600080600060e0888a03121561347a578283fd5b87359650602088013567ffffffffffffffff80821115613498578485fd5b6134a48b838c0161326c565b975060408a01359150808211156134b9578485fd5b6134c58b838c0161326c565b965060608a01359150808211156134da578485fd5b6134e68b838c0161326c565b955060808a01359150808211156134fb578485fd5b506135088a828b0161326c565b93505060a0880135915060c0880135905092959891949750929550565b600080600060608486031215613539578081fd5b8335925060208401359150604084013567ffffffffffffffff81111561355d578182fd5b6135698682870161326c565b9150509250925092565b600080600060608486031215613587578081fd5b505081359360208301359350604090920135919050565b6000602082840312156135af578081fd5b815160ff81168114610ee2578182fd5b6000815180845260208085019450808401835b838110156135ee578151875295820195908201906001016135d2565b509495945050505050565b6000815480845260208085019450838352808320835b838110156135ee5781548752958201956001918201910161360f565b15159052565b6000610100825184526020830151816020860152613651828601826135bf565b60408501519250858103604087015261366a81846135bf565b91505060608401519150848103606086015261368681836135bf565b60808501519250858103608087015261369f81846135bf565b91505060a084015160a086015260c084015160c086015260e084015191506136ca60e086018361362b565b949350505050565b652ba924aa22a960d11b815260060190565b6001600160a01b0391909116815260200190565b600060208252610ee260208301846135bf565b901515815260200190565b90815260200190565b60ff929092168252602082015260400190565b60ff9390931683526020830191909152604082015260600190565b6000602080835283518082850152825b818110156137795785810183015185820160400152820161375d565b8181111561378a5783604083870101525b50601f01601f1916929092016040019392505050565b60208082526022908201527f456e756d657261626c655365743a20696e646578206f7574206f6620626f756e604082015261647360f01b606082015260800190565b6020808252602f908201527f416363657373436f6e74726f6c3a2073656e646572206d75737420626520616e60408201526e0818591b5a5b881d1bc819dc985b9d608a1b606082015260800190565b60208082526029908201527f736f727465645b695d206973206e6f742067726561746572207468616e206c616040820152681cdd159a5cda5d195960ba1b606082015260800190565b6020808252601b908201527f536166654d6174683a206164646974696f6e206f766572666c6f770000000000604082015260600190565b6020808252600b908201526a1b9bdd08195b1958dd195960aa1b604082015260600190565b60208082526030908201527f416363657373436f6e74726f6c3a2073656e646572206d75737420626520616e60408201526f2061646d696e20746f207265766f6b6560801b606082015260800190565b60208082526021908201527f536166654d6174683a206d756c7469706c69636174696f6e206f766572666c6f6040820152607760f81b606082015260800190565b6020808252600f908201526e0d2dcc6dee4e4cac6e840cae0dec6d608b1b604082015260600190565b6020808252602e908201527f41646d696e526f6c653a2063616c6c657220646f6573206e6f7420686176652060408201526d7468652041646d696e20726f6c6560901b606082015260800190565b60208082526014908201527341737365744964206e6f74206d61746368696e6760601b604082015260600190565b60208082526037908201527f50726f706f73656420416c7465726e61746520626c6f636b206973206964656e60408201527f746963616c20746f2070726f706f73656420626c6f636b000000000000000000606082015260800190565b60208082526019908201527f7374616b652062656c6f77206d696e696d756d207374616b6500000000000000604082015260600190565b60208082526021908201527f546f74616c207374616b652072657665616c656420646f65736e74206d6174636040820152600d60fb1b606082015260800190565b6020808252600f908201526e696e636f727265637420737461746560881b604082015260600190565b60208082526030908201527f577269746572526f6c653a2063616c6c657220646f6573206e6f74206861766560408201526f207468652057726974657220726f6c6560801b606082015260800190565b6020808252602f908201527f416363657373436f6e74726f6c3a2063616e206f6e6c792072656e6f756e636560408201526e103937b632b9903337b91039b2b63360891b606082015260800190565b600060208252610ee26020830184613631565b600060808252613bcf6080830187613631565b8281036020840152613be181876135bf565b8381036040850152613bf381876135bf565b9150508281036060840152613c0881856135bf565b979650505050505050565b9283526001600160a01b03919091166020830152604082015260600190565b918252602082015260400190565b60006101208b83528a6020840152806040840152613c608184018b6135bf565b8381036060850152613c72818b6135bf565b9150508281036080840152613c8781896135bf565b83810360a0850152613c9981896135bf565b60c085019790975250505060e0810192909252610100909101529695505050505050565b600088825287602083015260e06040830152613cdc60e08301886135f9565b8281036060840152613cee81886135f9565b8381036080850152613d0081886135f9565b91505082810360a0840152613d1581866135f9565b9150508260c083015298975050505050505050565b9283526020830191909152604082015260600190565b938452602084019290925260408301521515606082015260800190565b958652602086019490945260408501929092526060840152608083015260a082015260c00190565b60405181810167ffffffffffffffff81118282101715613da457600080fd5b604052919050565b6001600160a01b038116811461234657600080fdfea2646970667358221220a4e236cee313a0f4bf65456463a48999808b457caf91d7a410d454ea33bf037764736f6c634300060b0033",
  "source": "pragma solidity 0.6.11;\npragma experimental ABIEncoderV2;\nimport \"../lib/Random.sol\";\nimport \"./Utils.sol\";\nimport \"./BlockStorage.sol\";\nimport \"./IStakeManager.sol\";\nimport \"./IStateManager.sol\";\nimport \"./IVoteManager.sol\";\nimport \"./IJobManager.sol\";\nimport \"openzeppelin-solidity/contracts/math/SafeMath.sol\";\nimport \"./WriterRole.sol\";\n\n\ncontract BlockManager is Utils, WriterRole, BlockStorage {\n    using SafeMath for uint256;\n\n    IStakeManager public stakeManager;\n    IStateManager public stateManager;\n    IVoteManager public voteManager;\n    IJobManager public jobManager;\n\n    modifier checkEpoch (uint256 epoch) {\n        require(epoch == stateManager.getEpoch(), \"incorrect epoch\");\n        _;\n    }\n\n    modifier checkState (uint256 state) {\n        require(state == stateManager.getState(), \"incorrect state\");\n        _;\n    }\n\n    function getBlock(uint256 epoch) external view returns(Structs.Block memory _block) {\n        return(blocks[epoch]);\n    }\n\n    function getBlockMedians(uint256 epoch) external view returns(uint256[] memory _blockMedians) {\n        _blockMedians = blocks[epoch].medians;\n        return(_blockMedians);\n    }\n\n    function getLowerCutoffs(uint256 epoch) external view returns(uint256[] memory _lowerCutoffs) {\n        _lowerCutoffs = blocks[epoch].lowerCutoffs;\n        return(_lowerCutoffs);\n    }\n\n    function getHigherCutoffs(uint256 epoch) external view returns(uint256[] memory _higherCutoffs) {\n        _higherCutoffs = blocks[epoch].higherCutoffs;\n        return(_higherCutoffs);\n    }\n\n    function getProposedBlock(uint256 epoch, uint256 proposedBlock)\n    external view returns(Structs.Block memory _block,\n    uint256[] memory _blockMedians,\n    uint256[] memory _lowerCutoffs,\n    uint256[] memory _higherCutoffs ) {\n        _block = proposedBlocks[epoch][proposedBlock];\n        return(_block, _block.medians, _block.lowerCutoffs, _block.higherCutoffs);\n    }\n\n    function getProposedBlockMedians(uint256 epoch, uint256 proposedBlock)\n    external view returns(uint256[] memory _blockMedians) {\n        _blockMedians = proposedBlocks[epoch][proposedBlock].medians;\n        return(_blockMedians);\n    }\n\n    function getNumProposedBlocks(uint256 epoch)\n    external view returns(uint256) {\n        return(proposedBlocks[epoch].length);\n    }\n\n    //disable after init.\n    function init(address _stakeManagerAddress, address _stateManagerAddress,\n                address _voteManagerAddress, address _jobManagerAddress) public {\n        stakeManager = IStakeManager(_stakeManagerAddress);\n        stateManager = IStateManager(_stateManagerAddress);\n        voteManager = IVoteManager(_voteManagerAddress);\n        jobManager = IJobManager(_jobManagerAddress);\n    }\n\n    event Proposed(uint256 epoch,\n                    uint256 stakerId,\n                    uint256[] jobIds,\n                    uint256[] medians,\n                    uint256[] lowerCutoffs,\n                    uint256[] higherCutoffs,\n                    uint256 iteration,\n                    uint256 biggestStakerId,\n                    uint256 timestamp);\n\n    // elected proposer proposes block. we use a probabilistic method to elect stakers weighted by stake\n    // protocol works like this. select a staker pseudorandomly (not weighted by anything)\n    // (todo what if it is below min stake)\n    // that staker then tosses a biased coin. bias = hisStake/biggestStake. if its heads, he can propose block\n    // end of iteration. try next iteration\n    // note that only one staker or no stakers selected in each iteration.\n    // stakers elected in higher iterations can also propose hoping that\n    // stakers with lower iteration do not propose for some reason\n    function propose (uint256 epoch,\n                    uint256[] memory jobIds,\n                    uint256[] memory medians,\n                    uint256[] memory lowerCutoffs,\n                    uint256[] memory higherCutoffs,\n                    uint256 iteration,\n                    uint256 biggestStakerId) public checkEpoch(epoch) checkState(Constants.propose()) {\n        uint256 proposerId = stakeManager.getStakerId(msg.sender);\n        // SchellingCoin sch = SchellingCoin(schAddress);\n        require(isElectedProposer(iteration, biggestStakerId, proposerId), \"not elected\");\n        require(stakeManager.getStaker(proposerId).stake >= Constants.minStake(), \"stake below minimum stake\");\n\n        // check if someone already proposed\n        // if (blocks[epoch].proposerId != 0) {\n        //     if (blocks[epoch].proposerId == proposerId) {\n        //         revert(\"Already Proposed\");\n        //     }\n        //     // if (stakers[biggestStakerId].stake == blocks[epoch].biggestStake &&\n        //     //     proposedBlocks[epoch].length >= Constants.maxAltBlocks()) {\n        //     //\n        //     //     require(proposedBlocks[epoch][4].iteration > iteration,\n        //     //             \"iteration not smaller than last elected staker\");\n        //     // } else\n        //     if (stakers[biggestStakerId].stake < blocks[epoch].biggestStake) {\n        //         revert(\"biggest stakers stake not bigger than as proposed by existing elected staker \");\n        //     }\n        // }\n        // blocks[epoch]\n        _insertAppropriately(epoch, Structs.Block(proposerId,\n                            jobIds,\n                            medians,\n                            lowerCutoffs,\n                            higherCutoffs,\n                            iteration,\n                            stakeManager.getStaker(biggestStakerId).stake,\n                            true));\n        // emit DebugUint256(pushAt);\n        // mint and give block reward\n        // if (Constants.blockReward() > 0) {\n        //     stakers[proposerId].stake = stakers[proposerId].stake.add(Constants.blockReward());\n        //     totalStake = totalStake.add(Constants.blockReward());\n        //     require(sch.mint(address(this), Constants.blockReward()));\n        // }\n        emit Proposed(epoch, proposerId, jobIds, medians, lowerCutoffs, higherCutoffs, iteration, biggestStakerId, now);\n    }\n\n    //anyone can give sorted votes in batches in dispute state\n    function giveSorted (uint256 epoch, uint256 assetId, uint256[] memory sorted) public\n    checkEpoch(epoch) checkState(Constants.dispute()) {\n        uint256 medianWeight = voteManager.getTotalStakeRevealed(epoch, assetId).div(2);\n        uint256 lowerCutoffWeight = voteManager.getTotalStakeRevealed(epoch, assetId).div(4);\n        uint256 higherCutoffWeight = (voteManager.getTotalStakeRevealed(epoch, assetId).mul(3)).div(4);\n        uint256 accWeight = disputes[epoch][msg.sender].accWeight;\n        uint256 lastVisited = disputes[epoch][msg.sender].lastVisited;\n        if (disputes[epoch][msg.sender].accWeight == 0) {\n            disputes[epoch][msg.sender].assetId = assetId;\n        } else {\n            require(disputes[epoch][msg.sender].assetId == assetId, \"AssetId not matching\");\n        }\n        for (uint256 i = 0; i < sorted.length; i++) {\n            require(sorted[i] > lastVisited, \"sorted[i] is not greater than lastVisited\");\n            lastVisited = sorted[i];\n            accWeight = accWeight.add(voteManager.getVoteWeight(epoch, assetId, sorted[i]));\n            //set  median, if conditions meet\n            if (disputes[epoch][msg.sender].lowerCutoff == 0 && accWeight >= lowerCutoffWeight) {\n                disputes[epoch][msg.sender].lowerCutoff = sorted[i];\n            }\n            if (disputes[epoch][msg.sender].median == 0 && accWeight > medianWeight) {\n                disputes[epoch][msg.sender].median = sorted[i];\n            }\n            if (disputes[epoch][msg.sender].higherCutoff == 0 && accWeight > higherCutoffWeight) {\n                disputes[epoch][msg.sender].higherCutoff = sorted[i];\n            }\n            //TODO verify how much gas required for below operations and update this value\n            if (gasleft() < 10000) break;\n        }\n        disputes[epoch][msg.sender].lastVisited = lastVisited;\n        disputes[epoch][msg.sender].accWeight = accWeight;\n    }\n\n    // //todo test\n    // //if any mistake made during giveSorted, resetDispute and start again\n    function resetDispute (uint256 epoch) public checkEpoch(epoch) checkState(Constants.dispute()) {\n        disputes[epoch][msg.sender] = Structs.Dispute(0, 0, 0, 0, 0, 0);\n    }\n\n    function finalizeDispute (uint256 epoch, uint256 blockId)\n    public checkEpoch(epoch) checkState(Constants.dispute()) {\n        uint256 assetId = disputes[epoch][msg.sender].assetId;\n        require(disputes[epoch][msg.sender].accWeight == voteManager.getTotalStakeRevealed(epoch, assetId),\n        \"Total stake revealed doesnt match\");\n        uint256 median = disputes[epoch][msg.sender].median;\n        uint256 lowerCutoff = disputes[epoch][msg.sender].lowerCutoff;\n        uint256 higherCutoff = disputes[epoch][msg.sender].higherCutoff;\n        uint256 proposerId = proposedBlocks[epoch][blockId].proposerId;\n        //\n        require(median > 0);\n        if (proposedBlocks[epoch][blockId].medians[assetId] != median ||\n            proposedBlocks[epoch][blockId].lowerCutoffs[assetId] != lowerCutoff ||\n            proposedBlocks[epoch][blockId].higherCutoffs[assetId] != higherCutoff) {\n            proposedBlocks[epoch][blockId].valid = false;\n            stakeManager.slash(proposerId, msg.sender, epoch);\n        } else {\n            revert(\"Proposed Alternate block is identical to proposed block\");\n        }\n    }\n\n    function isElectedProposer(uint256 iteration, uint256 biggestStakerId, uint256 stakerId) public view returns(bool) {\n       // rand = 0 -> totalStake-1\n       //add +1 since prng returns 0 to max-1 and staker start from 1\n        if ((Random.prng(10, stakeManager.getNumStakers(), keccak256(abi.encode(iteration))).add(1))\n        != stakerId) {return(false);}\n        bytes32 randHash = Random.prngHash(10, keccak256(abi.encode(stakerId, iteration)));\n        uint256 rand = uint256(randHash).mod(2**32);\n        uint256 biggestStake = stakeManager.getStaker(biggestStakerId).stake;\n        if (rand.mul(biggestStake) > stakeManager.getStaker(stakerId).stake.mul(2**32)) return(false);\n        return(true);\n    }\n\n    event BlockConfirmed(uint256 epoch,\n                    uint256 stakerId,\n                    uint256[] medians,\n                    uint256[] lowerCutoffs,\n                    uint256[] higherCutoffs,\n                    uint256[] jobIds,\n                    uint256 timestamp);\n\n    function confirmBlock() public onlyWriter {\n        uint256 epoch = stateManager.getEpoch();\n        if (blocks[epoch - 1].proposerId == 0 && proposedBlocks[epoch - 1].length > 0) {\n            for (uint8 i=0; i < proposedBlocks[epoch - 1].length; i++) {\n                if (proposedBlocks[epoch - 1][i].valid) {\n                    blocks[epoch - 1] = proposedBlocks[epoch - 1][i];\n                    uint256 proposerId = proposedBlocks[epoch - 1][i].proposerId;\n                    emit BlockConfirmed(epoch - 1,\n                                        proposerId,\n                                        proposedBlocks[epoch - 1][i].medians,\n                                        proposedBlocks[epoch - 1][i].lowerCutoffs,\n                                        proposedBlocks[epoch - 1][i].higherCutoffs,\n                                        proposedBlocks[epoch - 1][i].jobIds,\n                                        now);\n                    for (uint8 j = 0; j < proposedBlocks[epoch - 1][i].jobIds.length; j++) {\n                        jobManager.fulfillJob(proposedBlocks[epoch - 1][i].jobIds[j],\n                                            proposedBlocks[epoch - 1][i].medians[j]);\n                    }\n                    stakeManager.giveBlockReward(proposerId, epoch);\n                    return;\n                }\n            }\n        }\n    }\n\n    function _insertAppropriately(uint256 epoch, Structs.Block memory _block) internal {\n       // uint256 iteration = _block.iteration;\n        if (proposedBlocks[epoch].length == 0) {\n            proposedBlocks[epoch].push(_block);\n            return;\n        }\n       // Structs.Block[] memory temp = proposedBlocks[epoch];\n       // delete (proposedBlocks[epoch]);\n       // bool pushed = false;\n       // bool empty = true;\n        uint256 pushAt = proposedBlocks[epoch].length;\n        for (uint256 i = 0; i < proposedBlocks[epoch].length; i++) {\n            if (proposedBlocks[epoch][i].biggestStake < _block.biggestStake) {\n                pushAt = i;\n                break;\n            }\n            if (proposedBlocks[epoch][i].iteration > _block.iteration) {\n                pushAt = i;\n                break;\n            }\n        }\n\n        proposedBlocks[epoch].push(_block);\n        for (uint256 j = proposedBlocks[epoch].length - 1; j > (pushAt); j--) {\n            proposedBlocks[epoch][j] = proposedBlocks[epoch][j - 1];\n        }\n        // if (pushAt < proposedBlocks[epoch].length) {\n\n        proposedBlocks[epoch][pushAt] = _block;\n        // }\n        // if (pushed == false && temp.length < Constants.maxAltBlocks()) {\n        //     proposedBlocks[epoch].push(_block);\n        // }\n        if (proposedBlocks[epoch].length > Constants.maxAltBlocks()) {\n            delete (proposedBlocks[epoch][proposedBlocks[epoch].length - 1]);\n        }\n    }\n\n\n}\n",
  "sourcePath": "/home/user/Documents/intern/contracts/contracts/Core/BlockManager.sol",
  "compiler": {
    "name": "solc",
    "version": "0.6.11+commit.5ef660b1.Emscripten.clang"
  },
  "schemaVersion": "3.0.23",
  "updatedAt": "2020-12-21T11:43:01.142Z",
  "networkType": "ethereum",
  "devdoc": {
    "kind": "dev",
    "methods": {
      "getRoleAdmin(bytes32)": {
        "details": "Returns the admin role that controls `role`. See {grantRole} and {revokeRole}. To change a role's admin, use {_setRoleAdmin}."
      },
      "getRoleMember(bytes32,uint256)": {
        "details": "Returns one of the accounts that have `role`. `index` must be a value between 0 and {getRoleMemberCount}, non-inclusive. Role bearers are not sorted in any particular way, and their ordering may change at any point. WARNING: When using {getRoleMember} and {getRoleMemberCount}, make sure you perform all queries on the same block. See the following https://forum.openzeppelin.com/t/iterating-over-elements-on-enumerableset-in-openzeppelin-contracts/2296[forum post] for more information."
      },
      "getRoleMemberCount(bytes32)": {
        "details": "Returns the number of accounts that have `role`. Can be used together with {getRoleMember} to enumerate all bearers of a role."
      },
      "grantRole(bytes32,address)": {
        "details": "Grants `role` to `account`. If `account` had not been already granted `role`, emits a {RoleGranted} event. Requirements: - the caller must have ``role``'s admin role."
      },
      "hasRole(bytes32,address)": {
        "details": "Returns `true` if `account` has been granted `role`."
      },
      "renounceRole(bytes32,address)": {
        "details": "Revokes `role` from the calling account. Roles are often managed via {grantRole} and {revokeRole}: this function's purpose is to provide a mechanism for accounts to lose their privileges if they are compromised (such as when a trusted device is misplaced). If the calling account had been granted `role`, emits a {RoleRevoked} event. Requirements: - the caller must be `account`."
      },
      "revokeRole(bytes32,address)": {
        "details": "Revokes `role` from `account`. If `account` had been granted `role`, emits a {RoleRevoked} event. Requirements: - the caller must have ``role``'s admin role."
      }
    },
    "version": 1
  },
  "userdoc": {
    "kind": "user",
    "methods": {},
    "version": 1
  }
}