{
  "contractName": "Bridge",
  "abi": [
    {
      "inputs": [],
      "name": "owner",
      "outputs": [
        {
          "internalType": "address",
          "name": "",
          "type": "address"
        }
      ],
      "stateMutability": "view",
      "type": "function"
    },
    {
      "inputs": [
        {
          "internalType": "uint256",
          "name": "id",
          "type": "uint256"
        },
        {
          "internalType": "uint256",
          "name": "result",
          "type": "uint256"
        }
      ],
      "name": "setResult",
      "outputs": [],
      "stateMutability": "nonpayable",
      "type": "function"
    },
    {
      "inputs": [
        {
          "internalType": "uint256",
          "name": "id",
          "type": "uint256"
        }
      ],
      "name": "getResult",
      "outputs": [
        {
          "internalType": "uint256",
          "name": "",
          "type": "uint256"
        }
      ],
      "stateMutability": "view",
      "type": "function"
    }
  ],
  "bytecode": "0x6080604052600180546001600160a01b0319163317905534801561002257600080fd5b50610130806100326000396000f3fe6080604052348015600f57600080fd5b5060043610603c5760003560e01c8063310efb481460415780638da5cb5b146063578063995e4339146085575b600080fd5b606160048036036040811015605557600080fd5b508035906020013560b1565b005b606960d9565b604080516001600160a01b039092168252519081900360200190f35b609f60048036036020811015609957600080fd5b503560e8565b60408051918252519081900360200190f35b6001546001600160a01b0316331460c757600080fd5b60009182526020829052604090912055565b6001546001600160a01b031681565b6000908152602081905260409020549056fea2646970667358221220b57fe23208ad3286788f8fd75358e2f97365509beae2288f63fd77461aa19ca764736f6c634300060b0033",
  "immutableReferences": {},
  "source": "// SPDX-License-Identifier: GPL-3.0\npragma solidity 0.6.11;\n// pragma experimental ABIEncoderV2;\n// import \"../SchellingCoin.sol\";\n// import \"./Utils.sol\";\n// import \"./BlockStorage.sol\";\n// import \"./IStakeManager.sol\";\n// import \"./IStateManager.sol\";\n// import \"./IVoteManager.sol\";\n// import \"./JobStorage.sol\";\n// import \"./IStateManager.sol\";\n// import \"openzeppelin-solidity/contracts/math/SafeMath.sol\";\n// import \"./Core/WriterRole.sol\";\n\n\ncontract Bridge {\n\n    mapping (uint256 => uint256) results;\n    address public owner = msg.sender;\n    //disable after init.\n    // function init(address _stateManagerAddress) external {\n    //     stateManager = IStateManager(_stateManagerAddress);\n    // }\n\n    function setResult(uint256 id, uint256 result) external {\n        require(msg.sender == owner);\n        results[id] = result;\n    }\n\n    function getResult(uint256 id) external view returns(uint256) {\n        return results[id];\n    }\n}\n",
  "sourcePath": "/home/user/Documents/Razor-Internship/contracts/contracts/Bridge.sol",
  "compiler": {
    "name": "solc",
    "version": "0.6.11+commit.5ef660b1.Emscripten.clang"
  },
  "schemaVersion": "3.2.2",
  "updatedAt": "2020-07-22T10:04:38.920Z",
  "devdoc": {
    "kind": "dev",
    "methods": {},
    "version": 1
  },
  "userdoc": {
    "kind": "user",
    "methods": {},
    "version": 1
  }
}