{
  "contractName": "Constants",
  "abi": [
    {
      "constant": true,
      "inputs": [],
      "name": "commit",
      "outputs": [
        {
          "name": "",
          "type": "uint8"
        }
      ],
      "payable": false,
      "stateMutability": "pure",
      "type": "function"
    },
    {
      "constant": true,
      "inputs": [],
      "name": "reveal",
      "outputs": [
        {
          "name": "",
          "type": "uint8"
        }
      ],
      "payable": false,
      "stateMutability": "pure",
      "type": "function"
    },
    {
      "constant": true,
      "inputs": [],
      "name": "propose",
      "outputs": [
        {
          "name": "",
          "type": "uint8"
        }
      ],
      "payable": false,
      "stateMutability": "pure",
      "type": "function"
    },
    {
      "constant": true,
      "inputs": [],
      "name": "dispute",
      "outputs": [
        {
          "name": "",
          "type": "uint8"
        }
      ],
      "payable": false,
      "stateMutability": "pure",
      "type": "function"
    },
    {
      "constant": true,
      "inputs": [],
      "name": "penaltyNotRevealNum",
      "outputs": [
        {
          "name": "",
          "type": "uint256"
        }
      ],
      "payable": false,
      "stateMutability": "pure",
      "type": "function"
    },
    {
      "constant": true,
      "inputs": [],
      "name": "penaltyNotRevealDenom",
      "outputs": [
        {
          "name": "",
          "type": "uint256"
        }
      ],
      "payable": false,
      "stateMutability": "pure",
      "type": "function"
    },
    {
      "constant": true,
      "inputs": [],
      "name": "minStake",
      "outputs": [
        {
          "name": "",
          "type": "uint256"
        }
      ],
      "payable": false,
      "stateMutability": "pure",
      "type": "function"
    },
    {
      "constant": true,
      "inputs": [],
      "name": "blockReward",
      "outputs": [
        {
          "name": "",
          "type": "uint256"
        }
      ],
      "payable": false,
      "stateMutability": "pure",
      "type": "function"
    },
    {
      "constant": true,
      "inputs": [],
      "name": "unstakeLockPeriod",
      "outputs": [
        {
          "name": "",
          "type": "uint256"
        }
      ],
      "payable": false,
      "stateMutability": "pure",
      "type": "function"
    },
    {
      "constant": true,
      "inputs": [],
      "name": "withdrawLockPeriod",
      "outputs": [
        {
          "name": "",
          "type": "uint256"
        }
      ],
      "payable": false,
      "stateMutability": "pure",
      "type": "function"
    },
    {
      "constant": true,
      "inputs": [],
      "name": "maxAltBlocks",
      "outputs": [
        {
          "name": "",
          "type": "uint256"
        }
      ],
      "payable": false,
      "stateMutability": "pure",
      "type": "function"
    },
    {
      "constant": true,
      "inputs": [],
      "name": "epochLength",
      "outputs": [
        {
          "name": "",
          "type": "uint256"
        }
      ],
      "payable": false,
      "stateMutability": "pure",
      "type": "function"
    },
    {
      "constant": true,
      "inputs": [],
      "name": "numStates",
      "outputs": [
        {
          "name": "",
          "type": "uint256"
        }
      ],
      "payable": false,
      "stateMutability": "pure",
      "type": "function"
    },
    {
      "constant": true,
      "inputs": [],
      "name": "exposureDenominator",
      "outputs": [
        {
          "name": "",
          "type": "uint256"
        }
      ],
      "payable": false,
      "stateMutability": "pure",
      "type": "function"
    }
  ],
  "bytecode": "0x610375610026600b82828239805160001a60731461001957fe5b30600052607381538281f3fe73000000000000000000000000000000000000000030146080604052600436106100f45760003560e01c806357d775f811610096578063b1cc450011610070578063b1cc450014610231578063c198f8ba1461024f578063f240f7c314610273578063f4f29c5b14610297576100f4565b806357d775f8146101d1578063a475b5dd146101ef578063a86f5a3f14610213576100f4565b80633002c9ac116100d25780633002c9ac14610153578063375b3c0a14610171578063379597e01461018f5780633c7a3aff146101ad576100f4565b80630ac168a1146100f95780632628490f1461011757806326bf1c0314610135575b600080fd5b6101016102b5565b6040518082815260200191505060405180910390f35b61011f6102c4565b6040518082815260200191505060405180910390f35b61013d6102cd565b6040518082815260200191505060405180910390f35b61015b6102d6565b6040518082815260200191505060405180910390f35b6101796102e0565b6040518082815260200191505060405180910390f35b6101976102ef565b6040518082815260200191505060405180910390f35b6101b56102f8565b604051808260ff1660ff16815260200191505060405180910390f35b6101d9610300565b6040518082815260200191505060405180910390f35b6101f7610309565b604051808260ff1660ff16815260200191505060405180910390f35b61021b610312565b6040518082815260200191505060405180910390f35b61023961031b565b6040518082815260200191505060405180910390f35b610257610325565b604051808260ff1660ff16815260200191505060405180910390f35b61027b61032e565b604051808260ff1660ff16815260200191505060405180910390f35b61029f610337565b6040518082815260200191505060405180910390f35b60006012600a0a600502905090565b60006001905090565b60006001905090565b60006103e8905090565b60006012600a0a606402905090565b60006005905090565b600080905090565b60006028905090565b60006001905090565b60006001905090565b6000612710905090565b60006002905090565b60006003905090565b6000600490509056fea265627a7a72305820ee39e0155c85b86d08dc79c48f0531504d0e92aeb69f19206457db64703a358b64736f6c634300050a0032",
  "source": "pragma solidity 0.5.10;\n\n\nlibrary Constants {\n    function commit() public pure returns(uint8) { return(0);}\n    function reveal() public pure returns(uint8) { return(1);}\n    function propose() public pure returns(uint8) { return(2);}\n    function dispute() public pure returns(uint8) { return(3);}\n    // penalty not reveal = 0.01% per epch\n    function penaltyNotRevealNum() public pure returns(uint256) { return (1);}\n    function penaltyNotRevealDenom() public pure returns(uint256) { return (10000); }\n    // uint256 constant PENALTY_NOT_IN_ZONE_NUM = 99;\n    // uint256 constant PENALTY_NOT_IN_ZONE_DENOM = 100;\n    function minStake() public pure returns(uint256) { return(100*(10**uint256(18))); }\n    function blockReward() public pure returns(uint256) { return(5*(10**uint256(18)));}\n    // uint256 constant REVEAL_REWARD = 5;\n    // function safetyMarginLower() public pure returns(uint256) { return(99); }\n    function unstakeLockPeriod() public pure returns(uint256) { return(1); }\n    function withdrawLockPeriod() public pure returns(uint256) { return(1); }\n    function maxAltBlocks() public pure returns(uint256) { return(5); }\n    function epochLength() public pure returns(uint256) { return(40); }\n    function numStates() public pure returns(uint256) { return(4); }\n    function exposureDenominator() public pure returns(uint256) { return(1000); }\n\n // Constants(0, 1, 2, 3, 1, 10000, 99, 100, 1000, 5, 5, 99, 1, 1);\n}\n",
  "sourcePath": "/home/hrishikesh/contracts/contracts/lib/Constants.sol",
  "compiler": {
    "name": "solc",
    "version": "0.5.10+commit.5a6ea5b1.Emscripten.clang"
  },
  "schemaVersion": "3.0.19",
  "updatedAt": "2019-12-01T08:24:35.416Z",
  "networkType": "ethereum",
  "devdoc": {
    "methods": {}
  },
  "userdoc": {
    "methods": {}
  }
}