{
  "contractName": "Constants",
  "abi": [
    {
      "inputs": [],
      "name": "commit",
      "outputs": [
        {
          "internalType": "uint8",
          "name": "",
          "type": "uint8"
        }
      ],
      "stateMutability": "pure",
      "type": "function",
      "constant": true
    },
    {
      "inputs": [],
      "name": "reveal",
      "outputs": [
        {
          "internalType": "uint8",
          "name": "",
          "type": "uint8"
        }
      ],
      "stateMutability": "pure",
      "type": "function",
      "constant": true
    },
    {
      "inputs": [],
      "name": "propose",
      "outputs": [
        {
          "internalType": "uint8",
          "name": "",
          "type": "uint8"
        }
      ],
      "stateMutability": "pure",
      "type": "function",
      "constant": true
    },
    {
      "inputs": [],
      "name": "dispute",
      "outputs": [
        {
          "internalType": "uint8",
          "name": "",
          "type": "uint8"
        }
      ],
      "stateMutability": "pure",
      "type": "function",
      "constant": true
    },
    {
      "inputs": [],
      "name": "penaltyNotRevealNum",
      "outputs": [
        {
          "internalType": "uint256",
          "name": "",
          "type": "uint256"
        }
      ],
      "stateMutability": "pure",
      "type": "function",
      "constant": true
    },
    {
      "inputs": [],
      "name": "penaltyNotRevealDenom",
      "outputs": [
        {
          "internalType": "uint256",
          "name": "",
          "type": "uint256"
        }
      ],
      "stateMutability": "pure",
      "type": "function",
      "constant": true
    },
    {
      "inputs": [],
      "name": "minStake",
      "outputs": [
        {
          "internalType": "uint256",
          "name": "",
          "type": "uint256"
        }
      ],
      "stateMutability": "pure",
      "type": "function",
      "constant": true
    },
    {
      "inputs": [],
      "name": "blockReward",
      "outputs": [
        {
          "internalType": "uint256",
          "name": "",
          "type": "uint256"
        }
      ],
      "stateMutability": "pure",
      "type": "function",
      "constant": true
    },
    {
      "inputs": [],
      "name": "unstakeLockPeriod",
      "outputs": [
        {
          "internalType": "uint256",
          "name": "",
          "type": "uint256"
        }
      ],
      "stateMutability": "pure",
      "type": "function",
      "constant": true
    },
    {
      "inputs": [],
      "name": "withdrawLockPeriod",
      "outputs": [
        {
          "internalType": "uint256",
          "name": "",
          "type": "uint256"
        }
      ],
      "stateMutability": "pure",
      "type": "function",
      "constant": true
    },
    {
      "inputs": [],
      "name": "maxAltBlocks",
      "outputs": [
        {
          "internalType": "uint256",
          "name": "",
          "type": "uint256"
        }
      ],
      "stateMutability": "pure",
      "type": "function",
      "constant": true
    },
    {
      "inputs": [],
      "name": "epochLength",
      "outputs": [
        {
          "internalType": "uint256",
          "name": "",
          "type": "uint256"
        }
      ],
      "stateMutability": "pure",
      "type": "function",
      "constant": true
    },
    {
      "inputs": [],
      "name": "numStates",
      "outputs": [
        {
          "internalType": "uint256",
          "name": "",
          "type": "uint256"
        }
      ],
      "stateMutability": "pure",
      "type": "function",
      "constant": true
    },
    {
      "inputs": [],
      "name": "exposureDenominator",
      "outputs": [
        {
          "internalType": "uint256",
          "name": "",
          "type": "uint256"
        }
      ],
      "stateMutability": "pure",
      "type": "function",
      "constant": true
    },
    {
      "inputs": [],
      "name": "getJobConfirmerHash",
      "outputs": [
        {
          "internalType": "bytes32",
          "name": "",
          "type": "bytes32"
        }
      ],
      "stateMutability": "pure",
      "type": "function",
      "constant": true
    },
    {
      "inputs": [],
      "name": "getBlockConfirmerHash",
      "outputs": [
        {
          "internalType": "bytes32",
          "name": "",
          "type": "bytes32"
        }
      ],
      "stateMutability": "pure",
      "type": "function",
      "constant": true
    },
    {
      "inputs": [],
      "name": "getStakeModifierHash",
      "outputs": [
        {
          "internalType": "bytes32",
          "name": "",
          "type": "bytes32"
        }
      ],
      "stateMutability": "pure",
      "type": "function",
      "constant": true
    },
    {
      "inputs": [],
      "name": "getStakerActivityUpdaterHash",
      "outputs": [
        {
          "internalType": "bytes32",
          "name": "",
          "type": "bytes32"
        }
      ],
      "stateMutability": "pure",
      "type": "function",
      "constant": true
    }
  ],
  "bytecode": "0x6102dc610026600b82828239805160001a60731461001957fe5b30600052607381538281f3fe73000000000000000000000000000000000000000030146080604052600436106101205760003560e01c806380638d42116100ac578063b1cc45001161007b578063b1cc4500146101a5578063c198f8ba146101ad578063d98b3ced146101b5578063f240f7c3146101bd578063f4f29c5b146101c557610120565b806380638d421461018d5780639cec6f8a14610195578063a475b5dd1461019d578063a86f5a3f1461013f57610120565b8063375b3c0a116100f3578063375b3c0a1461014f578063379597e0146101575780633c7a3aff1461015f57806357d775f81461017d5780637f890b111461018557610120565b80630ac168a1146101255780632628490f1461013f57806326bf1c031461013f5780633002c9ac14610147575b600080fd5b61012d6101cd565b60408051918252519081900360200190f35b61012d6101da565b61012d6101df565b61012d6101e5565b61012d6101f2565b6101676101f7565b6040805160ff9092168252519081900360200190f35b61012d6101fc565b61012d610201565b61012d610225565b61012d610249565b6101676101da565b61012d61026d565b610167610273565b61012d610278565b61016761029c565b61012d6102a1565b68022b1c8c1227a0000090565b600190565b6103e890565b68056bc75e2d6310000090565b600590565b600090565b602890565b7fbe7b58e17bf6adaa0f209cd0db8b128282fc68a42f2dd649b4d8ea579f1b078f90565b7fdbaaaff2c3744aa215ebd99971829e1c1b728703a0bf252f96685d29011fc80490565b7f4cd3070aaa07d03ab33731cbabd0cb27eb9e074a9430ad006c96941d71b77ece90565b61271090565b600290565b7f18797bc7973e1dadee1895be2f1003818e30eae3b0e7a01eb9b2e66f3ea2771f90565b600390565b60049056fea264697066735822122053656c6bdf2a366ab96ab11c5567ea601f380704736b3c658db3e98510a0b98964736f6c634300060b0033",
  "immutableReferences": {},
  "source": "pragma solidity 0.6.11;\n\n\nlibrary Constants {\n    function commit() public pure returns(uint8) { return(0);}\n    function reveal() public pure returns(uint8) { return(1);}\n    function propose() public pure returns(uint8) { return(2);}\n    function dispute() public pure returns(uint8) { return(3);}\n    // penalty not reveal = 0.01% per epch\n    function penaltyNotRevealNum() public pure returns(uint256) { return (1);}\n    function penaltyNotRevealDenom() public pure returns(uint256) { return (10000); }\n    // uint256 constant PENALTY_NOT_IN_ZONE_NUM = 99;\n    // uint256 constant PENALTY_NOT_IN_ZONE_DENOM = 100;\n    function minStake() public pure returns(uint256) { return(100*(10**uint256(18))); }\n    function blockReward() public pure returns(uint256) { return(40*(10**uint256(18)));}\n    // uint256 constant REVEAL_REWARD = 5;\n    // function safetyMarginLower() public pure returns(uint256) { return(99); }\n    function unstakeLockPeriod() public pure returns(uint256) { return(1); }\n    function withdrawLockPeriod() public pure returns(uint256) { return(1); }\n    function maxAltBlocks() public pure returns(uint256) { return(5); }\n    function epochLength() public pure returns(uint256) { return(40); }\n    function numStates() public pure returns(uint256) { return(4); }\n    function exposureDenominator() public pure returns(uint256) { return(1000); }\n\n    function getJobConfirmerHash() public pure returns(bytes32) { return(0xbe7b58e17bf6adaa0f209cd0db8b128282fc68a42f2dd649b4d8ea579f1b078f); /*keccak256(\"JOB_CONFIRMER_ROLE\")*/}\n    function getBlockConfirmerHash() public pure returns(bytes32) { return(0x18797bc7973e1dadee1895be2f1003818e30eae3b0e7a01eb9b2e66f3ea2771f);/*keccak256(\"BLOCK_CONFIRMER_ROLE\"))*/}\n    function getStakeModifierHash() public pure returns(bytes32) { return(0xdbaaaff2c3744aa215ebd99971829e1c1b728703a0bf252f96685d29011fc804);/*keccak256(\"STAKE_MODIFIER_ROLE\"))*/}\n    function getStakerActivityUpdaterHash() public pure returns(bytes32) { return(0x4cd3070aaa07d03ab33731cbabd0cb27eb9e074a9430ad006c96941d71b77ece); /*keccak256(\"STAKER_ACTIVITY_UPDATER_ROLE\"))*/}\n // Constants(0, 1, 2, 3, 1, 10000, 99, 100, 1000, 5, 5, 99, 1, 1);\n}\n",
  "sourcePath": "/Users/skanda/Projects/contracts/contracts/lib/Constants.sol",
  "compiler": {
    "name": "solc",
    "version": "0.6.11+commit.5ef660b1.Emscripten.clang"
  },
  "schemaVersion": "3.3.2",
  "updatedAt": "2021-01-12T13:54:24.199Z",
  "networkType": "ethereum",
  "devdoc": {
    "kind": "dev",
    "methods": {},
    "version": 1
  },
  "userdoc": {
    "kind": "user",
    "methods": {},
    "version": 1
  }
}