{
  "contractName": "Delegator",
  "abi": [
    {
      "constant": true,
      "inputs": [],
      "name": "jobManager",
      "outputs": [
        {
          "name": "",
          "type": "address"
        }
      ],
      "payable": false,
      "stateMutability": "view",
      "type": "function"
    },
    {
      "constant": true,
      "inputs": [],
      "name": "owner",
      "outputs": [
        {
          "name": "",
          "type": "address"
        }
      ],
      "payable": false,
      "stateMutability": "view",
      "type": "function"
    },
    {
      "constant": true,
      "inputs": [],
      "name": "delegate",
      "outputs": [
        {
          "name": "",
          "type": "address"
        }
      ],
      "payable": false,
      "stateMutability": "view",
      "type": "function"
    },
    {
      "constant": false,
      "inputs": [
        {
          "name": "newDelegateAddress",
          "type": "address"
        }
      ],
      "name": "upgradeDelegate",
      "outputs": [],
      "payable": false,
      "stateMutability": "nonpayable",
      "type": "function"
    },
    {
      "constant": true,
      "inputs": [
        {
          "name": "id",
          "type": "uint256"
        }
      ],
      "name": "getResult",
      "outputs": [
        {
          "name": "",
          "type": "uint256"
        }
      ],
      "payable": false,
      "stateMutability": "view",
      "type": "function"
    },
    {
      "constant": true,
      "inputs": [
        {
          "name": "id",
          "type": "uint256"
        }
      ],
      "name": "getJob",
      "outputs": [
        {
          "name": "url",
          "type": "string"
        },
        {
          "name": "selector",
          "type": "string"
        },
        {
          "name": "name",
          "type": "string"
        },
        {
          "name": "repeat",
          "type": "bool"
        },
        {
          "name": "result",
          "type": "uint256"
        }
      ],
      "payable": false,
      "stateMutability": "view",
      "type": "function"
    }
  ],
  "bytecode": "0x6080604052600180546001600160a01b0319163317905534801561002257600080fd5b50610647806100326000396000f3fe608060405234801561001057600080fd5b50600436106100625760003560e01c80632da4e75c146100675780633df395a31461007c5780638da5cb5b1461009a578063995e4339146100af578063bf22c457146100cf578063c89e4361146100f3575b600080fd5b61007a610075366004610312565b6100fb565b005b61008461013e565b60405161009191906104a0565b60405180910390f35b6100a261014d565b6040516100919190610492565b6100c26100bd3660046103f4565b61015c565b604051610091919061050d565b6100e26100dd3660046103f4565b6101e3565b6040516100919594939291906104ae565b6100a2610283565b6001546001600160a01b0316331461011257600080fd5b600080546001600160a01b039092166001600160a01b0319928316811790915560028054909216179055565b6002546001600160a01b031681565b6001546001600160a01b031681565b60025460405163995e433960e01b81526000916001600160a01b03169063995e43399061018d90859060040161050d565b60206040518083038186803b1580156101a557600080fd5b505afa1580156101b9573d6000803e3d6000fd5b505050506040513d601f19601f820116820180604052506101dd9190810190610412565b92915050565b60025460405163bf22c45760e01b81526060918291829160009182916001600160a01b03169063bf22c4579061021d90899060040161050d565b60006040518083038186803b15801561023557600080fd5b505afa158015610249573d6000803e3d6000fd5b505050506040513d6000823e601f3d908101601f191682016040526102719190810190610338565b939a9299509097509550909350915050565b6000546001600160a01b031681565b80356101dd816105db565b80516101dd816105f2565b600082601f8301126102b957600080fd5b81516102cc6102c782610542565b61051b565b915080825260208301602083018583830111156102e857600080fd5b6102f38382846105a1565b50505092915050565b80356101dd816105fb565b80516101dd816105fb565b60006020828403121561032457600080fd5b60006103308484610292565b949350505050565b600080600080600060a0868803121561035057600080fd5b855167ffffffffffffffff81111561036757600080fd5b610373888289016102a8565b955050602086015167ffffffffffffffff81111561039057600080fd5b61039c888289016102a8565b945050604086015167ffffffffffffffff8111156103b957600080fd5b6103c5888289016102a8565b93505060606103d68882890161029d565b92505060806103e788828901610307565b9150509295509295909350565b60006020828403121561040657600080fd5b600061033084846102fc565b60006020828403121561042457600080fd5b60006103308484610307565b61043981610577565b82525050565b61043981610582565b61043981610596565b600061045c8261056a565b610466818561056e565b93506104768185602086016105a1565b61047f816105d1565b9093019392505050565b61043981610593565b602081016101dd8284610430565b602081016101dd8284610448565b60a080825281016104bf8188610451565b905081810360208301526104d38187610451565b905081810360408301526104e78186610451565b90506104f6606083018561043f565b6105036080830184610489565b9695505050505050565b602081016101dd8284610489565b60405181810167ffffffffffffffff8111828210171561053a57600080fd5b604052919050565b600067ffffffffffffffff82111561055957600080fd5b506020601f91909101601f19160190565b5190565b90815260200190565b60006101dd82610587565b151590565b6001600160a01b031690565b90565b60006101dd82610577565b60005b838110156105bc5781810151838201526020016105a4565b838111156105cb576000848401525b50505050565b601f01601f191690565b6105e481610577565b81146105ef57600080fd5b50565b6105e481610582565b6105e48161059356fea365627a7a723058204f6f4bde0b3f3b1972634f5e28c44e242b3ab9b3c555baeab234735583d058d16c6578706572696d656e74616cf564736f6c634300050a0040",
  "source": "pragma solidity 0.5.10;\npragma experimental ABIEncoderV2;\n\nimport \"./Core/IJobManager.sol\";\n\n\ncontract Delegator {\n    address public delegate;\n    address public owner = msg.sender;\n    IJobManager public jobManager;\n\n\n    // function Delegator(IController _controller, bytes32 _controllerLookupName) public {\n    //     controller = _controller;\n    //     controllerLookupName = _controllerLookupName;\n    // }\n\n    function upgradeDelegate(address newDelegateAddress) public {\n            require(msg.sender == owner);\n            delegate = newDelegateAddress;\n            jobManager = IJobManager(newDelegateAddress);\n    }\n\n    function getResult(uint256 id) public view returns(uint256) {\n        return jobManager.getResult(id);\n    }\n\n    function getJob(uint256 id) external view returns(string memory url, string memory selector, string memory name, bool repeat, uint256 result) {\n            return jobManager.getJob(id);\n    }\n\n\n    //\n    // function() external payable {\n    //     // Do nothing if we haven't properly set up the delegator to delegate calls\n    //     if (delegate == 0x0000000000000000000000000000000000000000) {\n    //         return;\n    //     }\n    //\n    //     // Get the delegation target contract\n    //     address _target = delegate;\n    //\n    //     assembly {\n    //         //0x40 is the address where the next free memory slot is stored in Solidity\n    //         let _calldataMemoryOffset := mload(0x40)\n    //         // new \"memory end\" including padding. The bitwise operations here ensure we get rounded up to the nearest 32 byte boundary\n    //         let _size := and(add(calldatasize, 0x1f), not(0x1f))\n    //         // Update the pointer at 0x40 to point at new free memory location so any theoretical allocation doesn't stomp our memory in this call\n    //         mstore(0x40, add(_calldataMemoryOffset, _size))\n    //         // Copy method signature and parameters of this call into memory\n    //         calldatacopy(_calldataMemoryOffset, 0x0, calldatasize)\n    //         // Call the actual method via delegation\n    //         let _retval := delegatecall(gas, _target, _calldataMemoryOffset, calldatasize, 0, 0)\n    //         switch _retval\n    //         case 0 {\n    //             // 0 == it threw, so we revert\n    //             revert(0,0)\n    //         } default {\n    //             // If the call succeeded return the return data from the delegate call\n    //             let _returndataMemoryOffset := mload(0x40)\n    //             // Update the pointer at 0x40 again to point at new free memory location so any theoretical allocation doesn't stomp our memory in this call\n    //             mstore(0x40, add(_returndataMemoryOffset, returndatasize))\n    //             returndatacopy(_returndataMemoryOffset, 0x0, returndatasize)\n    //             return(_returndataMemoryOffset, returndatasize)\n    //         }\n    //     }\n    // }\n}\n",
  "sourcePath": "/Users/hrishi/contracts/contracts/Delegator.sol",
  "compiler": {
    "name": "solc",
    "version": "0.5.10+commit.5a6ea5b1.Emscripten.clang"
  },
  "schemaVersion": "3.2.3",
  "updatedAt": "2020-08-01T07:40:16.666Z",
  "networkType": "ethereum",
  "devdoc": {
    "methods": {}
  },
  "userdoc": {
    "methods": {}
  }
}