{
  "contractName": "Faucet",
  "abi": [
    {
      "constant": false,
      "inputs": [
        {
          "name": "spender",
          "type": "address"
        },
        {
          "name": "value",
          "type": "uint256"
        }
      ],
      "name": "approve",
      "outputs": [
        {
          "name": "",
          "type": "bool"
        }
      ],
      "payable": false,
      "stateMutability": "nonpayable",
      "type": "function"
    },
    {
      "constant": true,
      "inputs": [],
      "name": "totalSupply",
      "outputs": [
        {
          "name": "",
          "type": "uint256"
        }
      ],
      "payable": false,
      "stateMutability": "view",
      "type": "function"
    },
    {
      "constant": false,
      "inputs": [
        {
          "name": "sender",
          "type": "address"
        },
        {
          "name": "recipient",
          "type": "address"
        },
        {
          "name": "amount",
          "type": "uint256"
        }
      ],
      "name": "transferFrom",
      "outputs": [
        {
          "name": "",
          "type": "bool"
        }
      ],
      "payable": false,
      "stateMutability": "nonpayable",
      "type": "function"
    },
    {
      "constant": false,
      "inputs": [
        {
          "name": "spender",
          "type": "address"
        },
        {
          "name": "addedValue",
          "type": "uint256"
        }
      ],
      "name": "increaseAllowance",
      "outputs": [
        {
          "name": "",
          "type": "bool"
        }
      ],
      "payable": false,
      "stateMutability": "nonpayable",
      "type": "function"
    },
    {
      "constant": true,
      "inputs": [
        {
          "name": "account",
          "type": "address"
        }
      ],
      "name": "balanceOf",
      "outputs": [
        {
          "name": "",
          "type": "uint256"
        }
      ],
      "payable": false,
      "stateMutability": "view",
      "type": "function"
    },
    {
      "constant": false,
      "inputs": [
        {
          "name": "spender",
          "type": "address"
        },
        {
          "name": "subtractedValue",
          "type": "uint256"
        }
      ],
      "name": "decreaseAllowance",
      "outputs": [
        {
          "name": "",
          "type": "bool"
        }
      ],
      "payable": false,
      "stateMutability": "nonpayable",
      "type": "function"
    },
    {
      "constant": false,
      "inputs": [
        {
          "name": "recipient",
          "type": "address"
        },
        {
          "name": "amount",
          "type": "uint256"
        }
      ],
      "name": "transfer",
      "outputs": [
        {
          "name": "",
          "type": "bool"
        }
      ],
      "payable": false,
      "stateMutability": "nonpayable",
      "type": "function"
    },
    {
      "constant": true,
      "inputs": [
        {
          "name": "owner",
          "type": "address"
        },
        {
          "name": "spender",
          "type": "address"
        }
      ],
      "name": "allowance",
      "outputs": [
        {
          "name": "",
          "type": "uint256"
        }
      ],
      "payable": false,
      "stateMutability": "view",
      "type": "function"
    },
    {
      "constant": true,
      "inputs": [
        {
          "name": "",
          "type": "address"
        }
      ],
      "name": "requested",
      "outputs": [
        {
          "name": "",
          "type": "bool"
        }
      ],
      "payable": false,
      "stateMutability": "view",
      "type": "function"
    },
    {
      "constant": true,
      "inputs": [],
      "name": "token",
      "outputs": [
        {
          "name": "",
          "type": "address"
        }
      ],
      "payable": false,
      "stateMutability": "view",
      "type": "function"
    },
    {
      "anonymous": false,
      "inputs": [
        {
          "indexed": false,
          "name": "_address",
          "type": "address"
        },
        {
          "indexed": false,
          "name": "value",
          "type": "uint256"
        }
      ],
      "name": "Donate",
      "type": "event"
    },
    {
      "anonymous": false,
      "inputs": [
        {
          "indexed": true,
          "name": "from",
          "type": "address"
        },
        {
          "indexed": true,
          "name": "to",
          "type": "address"
        },
        {
          "indexed": false,
          "name": "value",
          "type": "uint256"
        }
      ],
      "name": "Transfer",
      "type": "event"
    },
    {
      "anonymous": false,
      "inputs": [
        {
          "indexed": true,
          "name": "owner",
          "type": "address"
        },
        {
          "indexed": true,
          "name": "spender",
          "type": "address"
        },
        {
          "indexed": false,
          "name": "value",
          "type": "uint256"
        }
      ],
      "name": "Approval",
      "type": "event"
    },
    {
      "constant": false,
      "inputs": [
        {
          "name": "_address",
          "type": "address"
        }
      ],
      "name": "init",
      "outputs": [],
      "payable": false,
      "stateMutability": "nonpayable",
      "type": "function"
    },
    {
      "constant": false,
      "inputs": [
        {
          "name": "_address",
          "type": "address"
        }
      ],
      "name": "faucet",
      "outputs": [],
      "payable": false,
      "stateMutability": "nonpayable",
      "type": "function"
    }
  ],
  "bytecode": "0x608060405234801561001057600080fd5b50610902806100206000396000f3fe608060405234801561001057600080fd5b50600436106100b45760003560e01c8063a457c2d711610071578063a457c2d7146101c3578063a9059cbb146101ef578063b86d1d631461021b578063dd62ed3e14610241578063eecf0b4f1461026f578063fc0c546a14610295576100b4565b8063095ea7b3146100b957806318160ddd146100f957806319ab453c1461011357806323b872dd1461013b578063395093511461017157806370a082311461019d575b600080fd5b6100e5600480360360408110156100cf57600080fd5b506001600160a01b0381351690602001356102b9565b604080519115158252519081900360200190f35b6101016102cf565b60408051918252519081900360200190f35b6101396004803603602081101561012957600080fd5b50356001600160a01b03166102d5565b005b6100e56004803603606081101561015157600080fd5b506001600160a01b038135811691602081013590911690604001356102f7565b6100e56004803603604081101561018757600080fd5b506001600160a01b03813516906020013561034e565b610101600480360360208110156101b357600080fd5b50356001600160a01b031661038a565b6100e5600480360360408110156101d957600080fd5b506001600160a01b0381351690602001356103a5565b6100e56004803603604081101561020557600080fd5b506001600160a01b0381351690602001356103e1565b6101396004803603602081101561023157600080fd5b50356001600160a01b03166103ee565b6101016004803603604081101561025757600080fd5b506001600160a01b0381358116916020013516610504565b6100e56004803603602081101561028557600080fd5b50356001600160a01b031661052f565b61029d610544565b604080516001600160a01b039092168252519081900360200190f35b60006102c6338484610553565b50600192915050565b60025490565b600480546001600160a01b0319166001600160a01b0392909216919091179055565b600061030484848461063f565b6001600160a01b03841660009081526001602090815260408083203380855292529091205461034491869161033f908663ffffffff61078116565b610553565b5060019392505050565b3360008181526001602090815260408083206001600160a01b038716845290915281205490916102c691859061033f908663ffffffff6107de16565b6001600160a01b031660009081526020819052604090205490565b3360008181526001602090815260408083206001600160a01b038716845290915281205490916102c691859061033f908663ffffffff61078116565b60006102c633848461063f565b6001600160a01b03811660009081526003602052604090205460ff16610501576001600160a01b038082166000818152600360209081526040808320805460ff1916600117905560048054825163a9059cbb60e01b81529182019590955269021e19e0c9bab240000060248201529051939094169363a9059cbb9360448083019491928390030190829087803b15801561048757600080fd5b505af115801561049b573d6000803e3d6000fd5b505050506040513d60208110156104b157600080fd5b5050604080516001600160a01b038316815269021e19e0c9bab2400000602082015281517f0553260a2e46b0577270d8992db02d30856ca880144c72d6e9503760946aef13929181900390910190a15b50565b6001600160a01b03918216600090815260016020908152604080832093909416825291909152205490565b60036020526000908152604090205460ff1681565b6004546001600160a01b031681565b6001600160a01b0383166105985760405162461bcd60e51b81526004018080602001828103825260248152602001806108aa6024913960400191505060405180910390fd5b6001600160a01b0382166105dd5760405162461bcd60e51b81526004018080602001828103825260228152602001806108636022913960400191505060405180910390fd5b6001600160a01b03808416600081815260016020908152604080832094871680845294825291829020859055815185815291517f8c5be1e5ebec7d5bd14f71427d1e84f3dd0314c0f7b2291e5b200ac8c7c3b9259281900390910190a3505050565b6001600160a01b0383166106845760405162461bcd60e51b81526004018080602001828103825260258152602001806108856025913960400191505060405180910390fd5b6001600160a01b0382166106c95760405162461bcd60e51b81526004018080602001828103825260238152602001806108406023913960400191505060405180910390fd5b6001600160a01b0383166000908152602081905260409020546106f2908263ffffffff61078116565b6001600160a01b038085166000908152602081905260408082209390935590841681522054610727908263ffffffff6107de16565b6001600160a01b038084166000818152602081815260409182902094909455805185815290519193928716927fddf252ad1be2c89b69c2b068fc378daa952ba7f163c4a11628f55a4df523b3ef92918290030190a3505050565b6000828211156107d8576040805162461bcd60e51b815260206004820152601e60248201527f536166654d6174683a207375627472616374696f6e206f766572666c6f770000604482015290519081900360640190fd5b50900390565b600082820183811015610838576040805162461bcd60e51b815260206004820152601b60248201527f536166654d6174683a206164646974696f6e206f766572666c6f770000000000604482015290519081900360640190fd5b939250505056fe45524332303a207472616e7366657220746f20746865207a65726f206164647265737345524332303a20617070726f766520746f20746865207a65726f206164647265737345524332303a207472616e736665722066726f6d20746865207a65726f206164647265737345524332303a20617070726f76652066726f6d20746865207a65726f2061646472657373a265627a7a72305820992dce597c980b43008278ccc612eea8a7c9c90e559e0c0b114194355646c43a64736f6c634300050a0032",
  "source": "pragma solidity 0.5.10;\nimport \"openzeppelin-solidity/contracts/token/ERC20/ERC20.sol\";\n\n\ncontract Faucet is ERC20 {\n    mapping(address => bool) public requested;\n    ERC20 public token;\n\n    function init(address _address) external {\n        token = ERC20(_address);\n    }\n\n    event Donate(address _address, uint256 value);\n\n//WARNING FOR TESTNET ONLY DISABLE FOR PROD.\n//give 1000 sch once per staker\n    function faucet(address _address) external {\n        if (!requested[_address]) {\n            requested[_address] = true;\n            token.transfer(_address, 10000*(10**uint256(18)));\n            emit Donate(_address,  10000*(10**uint256(18)));\n        }\n    }\n}\n",
  "sourcePath": "/Users/hrishi/contracts/contracts/Faucet.sol",
  "compiler": {
    "name": "solc",
    "version": "0.5.10+commit.5a6ea5b1.Emscripten.clang"
  },
  "schemaVersion": "3.2.3",
  "updatedAt": "2020-08-01T07:40:16.664Z",
  "networkType": "ethereum",
  "devdoc": {
    "methods": {
      "allowance(address,address)": {
        "details": "See `IERC20.allowance`."
      },
      "approve(address,uint256)": {
        "details": "See `IERC20.approve`.     * Requirements:     * - `spender` cannot be the zero address."
      },
      "balanceOf(address)": {
        "details": "See `IERC20.balanceOf`."
      },
      "decreaseAllowance(address,uint256)": {
        "details": "Atomically decreases the allowance granted to `spender` by the caller.     * This is an alternative to `approve` that can be used as a mitigation for problems described in `IERC20.approve`.     * Emits an `Approval` event indicating the updated allowance.     * Requirements:     * - `spender` cannot be the zero address. - `spender` must have allowance for the caller of at least `subtractedValue`."
      },
      "increaseAllowance(address,uint256)": {
        "details": "Atomically increases the allowance granted to `spender` by the caller.     * This is an alternative to `approve` that can be used as a mitigation for problems described in `IERC20.approve`.     * Emits an `Approval` event indicating the updated allowance.     * Requirements:     * - `spender` cannot be the zero address."
      },
      "totalSupply()": {
        "details": "See `IERC20.totalSupply`."
      },
      "transfer(address,uint256)": {
        "details": "See `IERC20.transfer`.     * Requirements:     * - `recipient` cannot be the zero address. - the caller must have a balance of at least `amount`."
      },
      "transferFrom(address,address,uint256)": {
        "details": "See `IERC20.transferFrom`.     * Emits an `Approval` event indicating the updated allowance. This is not required by the EIP. See the note at the beginning of `ERC20`;     * Requirements: - `sender` and `recipient` cannot be the zero address. - `sender` must have a balance of at least `value`. - the caller must have allowance for `sender`'s tokens of at least `amount`."
      }
    }
  },
  "userdoc": {
    "methods": {}
  }
}