{
  "contractName": "JobManager",
  "abi": [
    {
      "constant": true,
      "inputs": [
        {
          "name": "",
          "type": "uint256"
        }
      ],
      "name": "jobs",
      "outputs": [
        {
          "name": "id",
          "type": "uint256"
        },
        {
          "name": "epoch",
          "type": "uint256"
        },
        {
          "name": "url",
          "type": "string"
        },
        {
          "name": "selector",
          "type": "string"
        },
        {
          "name": "name",
          "type": "string"
        },
        {
          "name": "repeat",
          "type": "bool"
        },
        {
          "name": "creator",
          "type": "address"
        },
        {
          "name": "credit",
          "type": "uint256"
        },
        {
          "name": "fulfilled",
          "type": "bool"
        },
        {
          "name": "result",
          "type": "uint256"
        }
      ],
      "payable": false,
      "stateMutability": "view",
      "type": "function"
    },
    {
      "constant": true,
      "inputs": [
        {
          "name": "account",
          "type": "address"
        }
      ],
      "name": "isWriter",
      "outputs": [
        {
          "name": "",
          "type": "bool"
        }
      ],
      "payable": false,
      "stateMutability": "view",
      "type": "function"
    },
    {
      "constant": true,
      "inputs": [],
      "name": "stateManager",
      "outputs": [
        {
          "name": "",
          "type": "address"
        }
      ],
      "payable": false,
      "stateMutability": "view",
      "type": "function"
    },
    {
      "constant": true,
      "inputs": [],
      "name": "numJobs",
      "outputs": [
        {
          "name": "",
          "type": "uint256"
        }
      ],
      "payable": false,
      "stateMutability": "view",
      "type": "function"
    },
    {
      "constant": false,
      "inputs": [
        {
          "name": "account",
          "type": "address"
        }
      ],
      "name": "addWriter",
      "outputs": [],
      "payable": false,
      "stateMutability": "nonpayable",
      "type": "function"
    },
    {
      "constant": false,
      "inputs": [],
      "name": "renounceWriter",
      "outputs": [],
      "payable": false,
      "stateMutability": "nonpayable",
      "type": "function"
    },
    {
      "anonymous": false,
      "inputs": [
        {
          "indexed": false,
          "name": "id",
          "type": "uint256"
        },
        {
          "indexed": false,
          "name": "epoch",
          "type": "uint256"
        },
        {
          "indexed": false,
          "name": "url",
          "type": "string"
        },
        {
          "indexed": false,
          "name": "selector",
          "type": "string"
        },
        {
          "indexed": false,
          "name": "name",
          "type": "string"
        },
        {
          "indexed": false,
          "name": "repeat",
          "type": "bool"
        },
        {
          "indexed": false,
          "name": "creator",
          "type": "address"
        },
        {
          "indexed": false,
          "name": "credit",
          "type": "uint256"
        },
        {
          "indexed": false,
          "name": "timestamp",
          "type": "uint256"
        }
      ],
      "name": "JobCreated",
      "type": "event"
    },
    {
      "anonymous": false,
      "inputs": [
        {
          "indexed": false,
          "name": "id",
          "type": "uint256"
        },
        {
          "indexed": false,
          "name": "value",
          "type": "uint256"
        },
        {
          "indexed": false,
          "name": "epoch",
          "type": "uint256"
        },
        {
          "indexed": false,
          "name": "url",
          "type": "string"
        },
        {
          "indexed": false,
          "name": "selector",
          "type": "string"
        },
        {
          "indexed": false,
          "name": "name",
          "type": "string"
        },
        {
          "indexed": false,
          "name": "repeat",
          "type": "bool"
        },
        {
          "indexed": false,
          "name": "creator",
          "type": "address"
        },
        {
          "indexed": false,
          "name": "credit",
          "type": "uint256"
        },
        {
          "indexed": false,
          "name": "fulfilled",
          "type": "bool"
        },
        {
          "indexed": false,
          "name": "timestamp",
          "type": "uint256"
        }
      ],
      "name": "JobReported",
      "type": "event"
    },
    {
      "anonymous": false,
      "inputs": [
        {
          "indexed": true,
          "name": "account",
          "type": "address"
        }
      ],
      "name": "WriterAdded",
      "type": "event"
    },
    {
      "anonymous": false,
      "inputs": [
        {
          "indexed": true,
          "name": "account",
          "type": "address"
        }
      ],
      "name": "WriterRemoved",
      "type": "event"
    },
    {
      "constant": false,
      "inputs": [
        {
          "name": "_stateManagerAddress",
          "type": "address"
        }
      ],
      "name": "init",
      "outputs": [],
      "payable": false,
      "stateMutability": "nonpayable",
      "type": "function"
    },
    {
      "constant": false,
      "inputs": [
        {
          "name": "url",
          "type": "string"
        },
        {
          "name": "selector",
          "type": "string"
        },
        {
          "name": "name",
          "type": "string"
        },
        {
          "name": "repeat",
          "type": "bool"
        }
      ],
      "name": "createJob",
      "outputs": [],
      "payable": true,
      "stateMutability": "payable",
      "type": "function"
    },
    {
      "constant": false,
      "inputs": [
        {
          "name": "jobId",
          "type": "uint256"
        },
        {
          "name": "value",
          "type": "uint256"
        }
      ],
      "name": "fulfillJob",
      "outputs": [],
      "payable": false,
      "stateMutability": "nonpayable",
      "type": "function"
    },
    {
      "constant": true,
      "inputs": [
        {
          "name": "id",
          "type": "uint256"
        }
      ],
      "name": "getResult",
      "outputs": [
        {
          "name": "",
          "type": "uint256"
        }
      ],
      "payable": false,
      "stateMutability": "view",
      "type": "function"
    },
    {
      "constant": true,
      "inputs": [
        {
          "name": "id",
          "type": "uint256"
        }
      ],
      "name": "getJob",
      "outputs": [
        {
          "name": "url",
          "type": "string"
        },
        {
          "name": "selector",
          "type": "string"
        },
        {
          "name": "name",
          "type": "string"
        },
        {
          "name": "repeat",
          "type": "bool"
        },
        {
          "name": "result",
          "type": "uint256"
        }
      ],
      "payable": false,
      "stateMutability": "view",
      "type": "function"
    }
  ],
  "bytecode": "0x608060405262000015336200001b60201b60201c565b620002f9565b620000368160006200007c60201b62000fd31790919060201c565b8073ffffffffffffffffffffffffffffffffffffffff167f6ff3aa2ea7b53070f6d9d07a445d338d89e8edef44250ffa8be19f53910d4a2e60405160405180910390a250565b6200008e82826200012f60201b60201c565b15620000d1576040517f08c379a0000000000000000000000000000000000000000000000000000000008152600401620000c890620002a4565b60405180910390fd5b60018260000160008373ffffffffffffffffffffffffffffffffffffffff1673ffffffffffffffffffffffffffffffffffffffff16815260200190815260200160002060006101000a81548160ff0219169083151502179055505050565b60008073ffffffffffffffffffffffffffffffffffffffff168273ffffffffffffffffffffffffffffffffffffffff161415620001a3576040517f08c379a00000000000000000000000000000000000000000000000000000000081526004016200019a90620002c6565b60405180910390fd5b8260000160008373ffffffffffffffffffffffffffffffffffffffff1673ffffffffffffffffffffffffffffffffffffffff16815260200190815260200160002060009054906101000a900460ff16905092915050565b600062000209601f83620002e8565b91507f526f6c65733a206163636f756e7420616c72656164792068617320726f6c65006000830152602082019050919050565b60006200024b602283620002e8565b91507f526f6c65733a206163636f756e7420697320746865207a65726f20616464726560008301527f73730000000000000000000000000000000000000000000000000000000000006020830152604082019050919050565b60006020820190508181036000830152620002bf81620001fa565b9050919050565b60006020820190508181036000830152620002e1816200023c565b9050919050565b600082825260208201905092915050565b611c3880620003096000396000f3fe60806040526004361061009c5760003560e01c8063628aff1d11610064578063628aff1d146101a15780639212051c146101bd578063995e4339146101e8578063bf22c45714610225578063da2824a814610266578063df4eb59c1461028f5761009c565b8063180aedf3146100a157806319ab453c146100e75780632b29ba23146101105780632e716fb11461014d57806356350bdf14610178575b600080fd5b3480156100ad57600080fd5b506100c860048036036100c391908101906113b4565b6102a6565b6040516100de9a9998979695949392919061190e565b60405180910390f35b3480156100f357600080fd5b5061010e600480360361010991908101906112d2565b6104fc565b005b34801561011c57600080fd5b50610137600480360361013291908101906112d2565b610540565b604051610144919061172d565b60405180910390f35b34801561015957600080fd5b5061016261055d565b60405161016f9190611748565b60405180910390f35b34801561018457600080fd5b5061019f600480360361019a9190810190611406565b610583565b005b6101bb60048036036101b691908101906112fb565b61076b565b005b3480156101c957600080fd5b506101d2610ad0565b6040516101df919061184b565b60405180910390f35b3480156101f457600080fd5b5061020f600480360361020a91908101906113b4565b610ad6565b60405161021c919061184b565b60405180910390f35b34801561023157600080fd5b5061024c600480360361024791908101906113b4565b610af6565b60405161025d959493929190611763565b60405180910390f35b34801561027257600080fd5b5061028d600480360361028891908101906112d2565b610df8565b005b34801561029b57600080fd5b506102a4610e4c565b005b6001602052806000526040600020600091509050806000015490806001015490806002018054600181600116156101000203166002900480601f01602080910402602001604051908101604052809291908181526020018280546001816001161561010002031660029004801561035e5780601f106103335761010080835404028352916020019161035e565b820191906000526020600020905b81548152906001019060200180831161034157829003601f168201915b505050505090806003018054600181600116156101000203166002900480601f0160208091040260200160405190810160405280929190818152602001828054600181600116156101000203166002900480156103fc5780601f106103d1576101008083540402835291602001916103fc565b820191906000526020600020905b8154815290600101906020018083116103df57829003601f168201915b505050505090806004018054600181600116156101000203166002900480601f01602080910402602001604051908101604052809291908181526020018280546001816001161561010002031660029004801561049a5780601f1061046f5761010080835404028352916020019161049a565b820191906000526020600020905b81548152906001019060200180831161047d57829003601f168201915b5050505050908060050160009054906101000a900460ff16908060050160019054906101000a900473ffffffffffffffffffffffffffffffffffffffff16908060060154908060070160009054906101000a900460ff1690806008015490508a565b80600360006101000a81548173ffffffffffffffffffffffffffffffffffffffff021916908373ffffffffffffffffffffffffffffffffffffffff16021790555050565b6000610556826000610e5790919063ffffffff16565b9050919050565b600360009054906101000a900473ffffffffffffffffffffffffffffffffffffffff1681565b61058c33610540565b6105cb576040517f08c379a00000000000000000000000000000000000000000000000000000000081526004016105c29061182b565b60405180910390fd5b60006001600084815260200190815260200160002090506000600360009054906101000a900473ffffffffffffffffffffffffffffffffffffffff1673ffffffffffffffffffffffffffffffffffffffff1663757991a86040518163ffffffff1660e01b815260040160206040518083038186803b15801561064c57600080fd5b505afa158015610660573d6000803e3d6000fd5b505050506040513d601f19601f8201168201806040525061068491908101906113dd565b90508160050160009054906101000a900460ff166106ba5760018260070160006101000a81548160ff0219169083151502179055505b7f9028bea5bfa7ed26c48df402d89085a995447dc8c1fb167cb92a3c7411b54480826000015484838560020186600301876004018860050160009054906101000a900460ff168960050160019054906101000a900473ffffffffffffffffffffffffffffffffffffffff168a600601548b60070160009054906101000a900460ff16426040516107549b9a999897969594939291906119bf565b60405180910390a182826008018190555050505050565b6001600254016002819055506000600360009054906101000a900473ffffffffffffffffffffffffffffffffffffffff1673ffffffffffffffffffffffffffffffffffffffff1663757991a86040518163ffffffff1660e01b815260040160206040518083038186803b1580156107e157600080fd5b505afa1580156107f5573d6000803e3d6000fd5b505050506040513d601f19601f8201168201806040525061081991908101906113dd565b9050610823611122565b60405180610140016040528060025481526020018381526020018a8a8080601f016020809104026020016040519081016040528093929190818152602001838380828437600081840152601f19601f82011690508083019250505050505050815260200188888080601f016020809104026020016040519081016040528093929190818152602001838380828437600081840152601f19601f82011690508083019250505050505050815260200186868080601f016020809104026020016040519081016040528093929190818152602001838380828437600081840152601f19601f82011690508083019250505050505050815260200184151581526020013373ffffffffffffffffffffffffffffffffffffffff16815260200134815260200160001515815260200160008152509050806001600060025481526020019081526020016000206000820151816000015560208201518160010155604082015181600201908051906020019061099b92919061118f565b5060608201518160030190805190602001906109b892919061118f565b5060808201518160040190805190602001906109d592919061118f565b5060a08201518160050160006101000a81548160ff02191690831515021790555060c08201518160050160016101000a81548173ffffffffffffffffffffffffffffffffffffffff021916908373ffffffffffffffffffffffffffffffffffffffff16021790555060e082015181600601556101008201518160070160006101000a81548160ff02191690831515021790555061012082015181600801559050507fd4ae17fdeb78e69409330361e8f8475f8027928c6f28eae2195e5ae56570aba0600254838b8b8b8b8b8b8b333442604051610abd9c9b9a99989796959493929190611866565b60405180910390a1505050505050505050565b60025481565b600060016000838152602001908152602001600020600801549050919050565b6060806060600080610b06611122565b60016000888152602001908152602001600020604051806101400160405290816000820154815260200160018201548152602001600282018054600181600116156101000203166002900480601f016020809104026020016040519081016040528092919081815260200182805460018160011615610100020316600290048015610bd25780601f10610ba757610100808354040283529160200191610bd2565b820191906000526020600020905b815481529060010190602001808311610bb557829003601f168201915b50505050508152602001600382018054600181600116156101000203166002900480601f016020809104026020016040519081016040528092919081815260200182805460018160011615610100020316600290048015610c745780601f10610c4957610100808354040283529160200191610c74565b820191906000526020600020905b815481529060010190602001808311610c5757829003601f168201915b50505050508152602001600482018054600181600116156101000203166002900480601f016020809104026020016040519081016040528092919081815260200182805460018160011615610100020316600290048015610d165780601f10610ceb57610100808354040283529160200191610d16565b820191906000526020600020905b815481529060010190602001808311610cf957829003601f168201915b505050505081526020016005820160009054906101000a900460ff161515151581526020016005820160019054906101000a900473ffffffffffffffffffffffffffffffffffffffff1673ffffffffffffffffffffffffffffffffffffffff1673ffffffffffffffffffffffffffffffffffffffff168152602001600682015481526020016007820160009054906101000a900460ff1615151515815260200160088201548152505090508060400151816060015182608001518360a00151846101200151849450839350829250955095509550955095505091939590929450565b610e0133610540565b610e40576040517f08c379a0000000000000000000000000000000000000000000000000000000008152600401610e379061182b565b60405180910390fd5b610e4981610f1f565b50565b610e5533610f79565b565b60008073ffffffffffffffffffffffffffffffffffffffff168273ffffffffffffffffffffffffffffffffffffffff161415610ec8576040517f08c379a0000000000000000000000000000000000000000000000000000000008152600401610ebf9061180b565b60405180910390fd5b8260000160008373ffffffffffffffffffffffffffffffffffffffff1673ffffffffffffffffffffffffffffffffffffffff16815260200190815260200160002060009054906101000a900460ff16905092915050565b610f33816000610fd390919063ffffffff16565b8073ffffffffffffffffffffffffffffffffffffffff167f6ff3aa2ea7b53070f6d9d07a445d338d89e8edef44250ffa8be19f53910d4a2e60405160405180910390a250565b610f8d81600061107b90919063ffffffff16565b8073ffffffffffffffffffffffffffffffffffffffff167f86e5bbceda94081c32220d685f37cc4e3ea7bb0be2dfbf0cb703579505a5390e60405160405180910390a250565b610fdd8282610e57565b1561101d576040517f08c379a0000000000000000000000000000000000000000000000000000000008152600401611014906117cb565b60405180910390fd5b60018260000160008373ffffffffffffffffffffffffffffffffffffffff1673ffffffffffffffffffffffffffffffffffffffff16815260200190815260200160002060006101000a81548160ff0219169083151502179055505050565b6110858282610e57565b6110c4576040517f08c379a00000000000000000000000000000000000000000000000000000000081526004016110bb906117eb565b60405180910390fd5b60008260000160008373ffffffffffffffffffffffffffffffffffffffff1673ffffffffffffffffffffffffffffffffffffffff16815260200190815260200160002060006101000a81548160ff0219169083151502179055505050565b6040518061014001604052806000815260200160008152602001606081526020016060815260200160608152602001600015158152602001600073ffffffffffffffffffffffffffffffffffffffff16815260200160008152602001600015158152602001600081525090565b828054600181600116156101000203166002900490600052602060002090601f016020900481019282601f106111d057805160ff19168380011785556111fe565b828001600101855582156111fe579182015b828111156111fd5782518255916020019190600101906111e2565b5b50905061120b919061120f565b5090565b61123191905b8082111561122d576000816000905550600101611215565b5090565b90565b60008135905061124381611bb0565b92915050565b60008135905061125881611bc7565b92915050565b60008083601f84011261127057600080fd5b8235905067ffffffffffffffff81111561128957600080fd5b6020830191508360018202830111156112a157600080fd5b9250929050565b6000813590506112b781611bde565b92915050565b6000815190506112cc81611bde565b92915050565b6000602082840312156112e457600080fd5b60006112f284828501611234565b91505092915050565b60008060008060008060006080888a03121561131657600080fd5b600088013567ffffffffffffffff81111561133057600080fd5b61133c8a828b0161125e565b9750975050602088013567ffffffffffffffff81111561135b57600080fd5b6113678a828b0161125e565b9550955050604088013567ffffffffffffffff81111561138657600080fd5b6113928a828b0161125e565b935093505060606113a58a828b01611249565b91505092959891949750929550565b6000602082840312156113c657600080fd5b60006113d4848285016112a8565b91505092915050565b6000602082840312156113ef57600080fd5b60006113fd848285016112bd565b91505092915050565b6000806040838503121561141957600080fd5b6000611427858286016112a8565b9250506020611438858286016112a8565b9150509250929050565b61144b81611b03565b82525050565b61145a81611abb565b82525050565b61146981611acd565b82525050565b61147881611b15565b82525050565b600061148a8385611aaa565b9350611497838584611b5d565b6114a083611b9f565b840190509392505050565b60006114b682611a9f565b6114c08185611aaa565b93506114d0818560208601611b6c565b6114d981611b9f565b840191505092915050565b60006114ef82611a94565b6114f98185611aaa565b9350611509818560208601611b6c565b61151281611b9f565b840191505092915050565b60008154600181166000811461153a5760018114611560576115a4565b607f600283041661154b8187611aaa565b955060ff1983168652602086019350506115a4565b6002820461156e8187611aaa565b955061157985611a7f565b60005b8281101561159b5781548189015260018201915060208101905061157c565b80880195505050505b505092915050565b60006115b9601f83611aaa565b91507f526f6c65733a206163636f756e7420616c72656164792068617320726f6c65006000830152602082019050919050565b60006115f9602183611aaa565b91507f526f6c65733a206163636f756e7420646f6573206e6f74206861766520726f6c60008301527f65000000000000000000000000000000000000000000000000000000000000006020830152604082019050919050565b600061165f602283611aaa565b91507f526f6c65733a206163636f756e7420697320746865207a65726f20616464726560008301527f73730000000000000000000000000000000000000000000000000000000000006020830152604082019050919050565b60006116c5603083611aaa565b91507f577269746572526f6c653a2063616c6c657220646f6573206e6f74206861766560008301527f207468652057726974657220726f6c65000000000000000000000000000000006020830152604082019050919050565b61172781611af9565b82525050565b60006020820190506117426000830184611460565b92915050565b600060208201905061175d600083018461146f565b92915050565b600060a082019050818103600083015261177d81886114ab565b9050818103602083015261179181876114ab565b905081810360408301526117a581866114ab565b90506117b46060830185611460565b6117c1608083018461171e565b9695505050505050565b600060208201905081810360008301526117e4816115ac565b9050919050565b60006020820190508181036000830152611804816115ec565b9050919050565b6000602082019050818103600083015261182481611652565b9050919050565b60006020820190508181036000830152611844816116b8565b9050919050565b6000602082019050611860600083018461171e565b92915050565b60006101208201905061187c600083018f61171e565b611889602083018e61171e565b818103604083015261189c818c8e61147e565b905081810360608301526118b1818a8c61147e565b905081810360808301526118c681888a61147e565b90506118d560a0830187611460565b6118e260c0830186611442565b6118ef60e083018561171e565b6118fd61010083018461171e565b9d9c50505050505050505050505050565b600061014082019050611924600083018d61171e565b611931602083018c61171e565b8181036040830152611943818b6114e4565b90508181036060830152611957818a6114e4565b9050818103608083015261196b81896114e4565b905061197a60a0830188611460565b61198760c0830187611451565b61199460e083018661171e565b6119a2610100830185611460565b6119b061012083018461171e565b9b9a5050505050505050505050565b6000610160820190506119d5600083018e61171e565b6119e2602083018d61171e565b6119ef604083018c61171e565b8181036060830152611a01818b61151d565b90508181036080830152611a15818a61151d565b905081810360a0830152611a29818961151d565b9050611a3860c0830188611460565b611a4560e0830187611451565b611a5361010083018661171e565b611a61610120830185611460565b611a6f61014083018461171e565b9c9b505050505050505050505050565b60008190508160005260206000209050919050565b600081519050919050565b600081519050919050565b600082825260208201905092915050565b6000611ac682611ad9565b9050919050565b60008115159050919050565b600073ffffffffffffffffffffffffffffffffffffffff82169050919050565b6000819050919050565b6000611b0e82611b39565b9050919050565b6000611b2082611b27565b9050919050565b6000611b3282611ad9565b9050919050565b6000611b4482611b4b565b9050919050565b6000611b5682611ad9565b9050919050565b82818337600083830152505050565b60005b83811015611b8a578082015181840152602081019050611b6f565b83811115611b99576000848401525b50505050565b6000601f19601f8301169050919050565b611bb981611abb565b8114611bc457600080fd5b50565b611bd081611acd565b8114611bdb57600080fd5b50565b611be781611af9565b8114611bf257600080fd5b5056fea365627a7a72305820f7aca833b1fab67d1948124b4cecd9533b54713ce9248108abb0d779889c449e6c6578706572696d656e74616cf564736f6c634300050a0040",
  "source": "pragma solidity 0.5.10;\npragma experimental ABIEncoderV2;\nimport \"./JobStorage.sol\";\nimport \"./IStateManager.sol\";\nimport \"openzeppelin-solidity/contracts/math/SafeMath.sol\";\nimport \"./WriterRole.sol\";\n\n\ncontract JobManager is WriterRole, JobStorage {\n\n    event JobCreated(uint256 id, uint256 epoch, string url, string selector, string name, bool repeat,\n                            address creator, uint256 credit, uint256 timestamp);\n    // event JobFulfilled(uint256 id, uint256 epoch, string url, string selector, bool repeat,\n    //                     address creator, uint256 credit, bool fulfulled);\n\n    event JobReported(uint256 id, uint256 value, uint256 epoch,\n                        string url, string selector, string name, bool repeat,\n                        address creator, uint256 credit, bool fulfilled, uint256 timestamp);\n\n    IStateManager public stateManager;\n\n    //disable after init.\n    function init(address _stateManagerAddress) external {\n        stateManager = IStateManager(_stateManagerAddress);\n    }\n\n    function createJob (string calldata url, string calldata selector, string calldata name, bool repeat) external payable {\n        numJobs = numJobs + 1;\n        uint256 epoch = stateManager.getEpoch();\n        Structs.Job memory job = Structs.Job(numJobs, epoch, url, selector, name, repeat, msg.sender, msg.value, false, 0);\n        jobs[numJobs] = job;\n        emit JobCreated(numJobs, epoch, url, selector, name, repeat, msg.sender, msg.value, now);\n        // jobs.push(job);\n    }\n\n    function fulfillJob(uint256 jobId, uint256 value) external onlyWriter {\n        Structs.Job storage job = jobs[jobId];\n        uint256 epoch = stateManager.getEpoch();\n\n        if (!job.repeat) {\n            job.fulfilled = true;\n            // emit JobFulfilled(job.id, epoch, job.url, job.selector,\n            //job.repeat, job.creator, job.credit, job.fulfilled);\n        }\n        emit JobReported(job.id, value, epoch, job.url, job.selector, job.name, job.repeat,\n        job.creator, job.credit, job.fulfilled, now);\n        job.result = value;\n    }\n\n    function getResult(uint256 id) external view returns(uint256) {\n        return jobs[id].result;\n    }\n\n    function getJob(uint256 id) external view returns(string memory url, string memory selector, string memory name, bool repeat, uint256 result) {\n        Structs.Job memory job = jobs[id];\n        return(job.url, job.selector, job.name, job.repeat, job.result);\n    }\n}\n",
  "sourcePath": "/Users/hrishi/contracts/contracts/Core/JobManager.sol",
  "compiler": {
    "name": "solc",
    "version": "0.5.10+commit.5a6ea5b1.Emscripten.clang"
  },
  "schemaVersion": "3.0.19",
  "updatedAt": "2019-12-16T04:10:37.624Z",
  "networkType": "ethereum",
  "devdoc": {
    "methods": {}
  },
  "userdoc": {
    "methods": {}
  }
}