{
  "contractName": "JobManager",
  "abi": [
    {
      "constant": true,
      "inputs": [
        {
          "name": "",
          "type": "uint256"
        }
      ],
      "name": "jobs",
      "outputs": [
        {
          "name": "id",
          "type": "uint256"
        },
        {
          "name": "epoch",
          "type": "uint256"
        },
        {
          "name": "url",
          "type": "string"
        },
        {
          "name": "selector",
          "type": "string"
        },
        {
          "name": "name",
          "type": "string"
        },
        {
          "name": "repeat",
          "type": "bool"
        },
        {
          "name": "creator",
          "type": "address"
        },
        {
          "name": "credit",
          "type": "uint256"
        },
        {
          "name": "fulfilled",
          "type": "bool"
        },
        {
          "name": "result",
          "type": "uint256"
        }
      ],
      "payable": false,
      "stateMutability": "view",
      "type": "function"
    },
    {
      "constant": true,
      "inputs": [
        {
          "name": "account",
          "type": "address"
        }
      ],
      "name": "isWriter",
      "outputs": [
        {
          "name": "",
          "type": "bool"
        }
      ],
      "payable": false,
      "stateMutability": "view",
      "type": "function"
    },
    {
      "constant": true,
      "inputs": [],
      "name": "stateManager",
      "outputs": [
        {
          "name": "",
          "type": "address"
        }
      ],
      "payable": false,
      "stateMutability": "view",
      "type": "function"
    },
    {
      "constant": true,
      "inputs": [],
      "name": "numJobs",
      "outputs": [
        {
          "name": "",
          "type": "uint256"
        }
      ],
      "payable": false,
      "stateMutability": "view",
      "type": "function"
    },
    {
      "constant": false,
      "inputs": [
        {
          "name": "account",
          "type": "address"
        }
      ],
      "name": "addWriter",
      "outputs": [],
      "payable": false,
      "stateMutability": "nonpayable",
      "type": "function"
    },
    {
      "constant": false,
      "inputs": [],
      "name": "renounceWriter",
      "outputs": [],
      "payable": false,
      "stateMutability": "nonpayable",
      "type": "function"
    },
    {
      "anonymous": false,
      "inputs": [
        {
          "indexed": false,
          "name": "id",
          "type": "uint256"
        },
        {
          "indexed": false,
          "name": "epoch",
          "type": "uint256"
        },
        {
          "indexed": false,
          "name": "url",
          "type": "string"
        },
        {
          "indexed": false,
          "name": "selector",
          "type": "string"
        },
        {
          "indexed": false,
          "name": "name",
          "type": "string"
        },
        {
          "indexed": false,
          "name": "repeat",
          "type": "bool"
        },
        {
          "indexed": false,
          "name": "creator",
          "type": "address"
        },
        {
          "indexed": false,
          "name": "credit",
          "type": "uint256"
        },
        {
          "indexed": false,
          "name": "timestamp",
          "type": "uint256"
        }
      ],
      "name": "JobCreated",
      "type": "event"
    },
    {
      "anonymous": false,
      "inputs": [
        {
          "indexed": false,
          "name": "id",
          "type": "uint256"
        },
        {
          "indexed": false,
          "name": "value",
          "type": "uint256"
        },
        {
          "indexed": false,
          "name": "epoch",
          "type": "uint256"
        },
        {
          "indexed": false,
          "name": "url",
          "type": "string"
        },
        {
          "indexed": false,
          "name": "selector",
          "type": "string"
        },
        {
          "indexed": false,
          "name": "name",
          "type": "string"
        },
        {
          "indexed": false,
          "name": "repeat",
          "type": "bool"
        },
        {
          "indexed": false,
          "name": "creator",
          "type": "address"
        },
        {
          "indexed": false,
          "name": "credit",
          "type": "uint256"
        },
        {
          "indexed": false,
          "name": "fulfilled",
          "type": "bool"
        },
        {
          "indexed": false,
          "name": "timestamp",
          "type": "uint256"
        }
      ],
      "name": "JobReported",
      "type": "event"
    },
    {
      "anonymous": false,
      "inputs": [
        {
          "indexed": true,
          "name": "account",
          "type": "address"
        }
      ],
      "name": "WriterAdded",
      "type": "event"
    },
    {
      "anonymous": false,
      "inputs": [
        {
          "indexed": true,
          "name": "account",
          "type": "address"
        }
      ],
      "name": "WriterRemoved",
      "type": "event"
    },
    {
      "constant": false,
      "inputs": [
        {
          "name": "_stateManagerAddress",
          "type": "address"
        }
      ],
      "name": "init",
      "outputs": [],
      "payable": false,
      "stateMutability": "nonpayable",
      "type": "function"
    },
    {
      "constant": false,
      "inputs": [
        {
          "name": "url",
          "type": "string"
        },
        {
          "name": "selector",
          "type": "string"
        },
        {
          "name": "name",
          "type": "string"
        },
        {
          "name": "repeat",
          "type": "bool"
        }
      ],
      "name": "createJob",
      "outputs": [],
      "payable": true,
      "stateMutability": "payable",
      "type": "function"
    },
    {
      "constant": false,
      "inputs": [
        {
          "name": "jobId",
          "type": "uint256"
        },
        {
          "name": "value",
          "type": "uint256"
        }
      ],
      "name": "fulfillJob",
      "outputs": [],
      "payable": false,
      "stateMutability": "nonpayable",
      "type": "function"
    },
    {
      "constant": true,
      "inputs": [
        {
          "name": "id",
          "type": "uint256"
        }
      ],
      "name": "getResult",
      "outputs": [
        {
          "name": "",
          "type": "uint256"
        }
      ],
      "payable": false,
      "stateMutability": "view",
      "type": "function"
    },
    {
      "constant": true,
      "inputs": [
        {
          "name": "id",
          "type": "uint256"
        }
      ],
      "name": "getJob",
      "outputs": [
        {
          "name": "url",
          "type": "string"
        },
        {
          "name": "selector",
          "type": "string"
        },
        {
          "name": "name",
          "type": "string"
        },
        {
          "name": "repeat",
          "type": "bool"
        },
        {
          "name": "result",
          "type": "uint256"
        }
      ],
      "payable": false,
      "stateMutability": "view",
      "type": "function"
    },
    {
      "constant": true,
      "inputs": [],
      "name": "getNumJobs",
      "outputs": [
        {
          "name": "",
          "type": "uint256"
        }
      ],
      "payable": false,
      "stateMutability": "view",
      "type": "function"
    }
  ],
  "bytecode": "0x608060405262000018336001600160e01b036200001e16565b62000221565b620000398160006200007060201b62000c5b1790919060201c565b6040516001600160a01b038216907f6ff3aa2ea7b53070f6d9d07a445d338d89e8edef44250ffa8be19f53910d4a2e90600090a250565b6200008582826001600160e01b03620000ed16565b15620000c8576040517f08c379a0000000000000000000000000000000000000000000000000000000008152600401620000bf90620001ee565b60405180910390fd5b6001600160a01b0316600090815260209190915260409020805460ff19166001179055565b60006001600160a01b03821662000132576040517f08c379a0000000000000000000000000000000000000000000000000000000008152600401620000bf9062000206565b506001600160a01b03166000908152602091909152604090205460ff1690565b600062000161601f8362000218565b7f526f6c65733a206163636f756e7420616c72656164792068617320726f6c6500815260200192915050565b60006200019c60228362000218565b7f526f6c65733a206163636f756e7420697320746865207a65726f20616464726581527f7373000000000000000000000000000000000000000000000000000000000000602082015260400192915050565b60208082528101620002008162000152565b92915050565b6020808252810162000200816200018d565b90815260200190565b61159a80620002316000396000f3fe6080604052600436106100a75760003560e01c80637e0c00ed116100645780637e0c00ed1461018f5780639212051c146101b1578063995e4339146101c6578063bf22c457146101e6578063da2824a814610217578063df4eb59c14610237576100a7565b8063180aedf3146100ac57806319ab453c146100eb5780632b29ba231461010d5780632e716fb11461013a57806356350bdf1461015c578063628aff1d1461017c575b600080fd5b3480156100b857600080fd5b506100cc6100c7366004610f38565b61024c565b6040516100e29a99989796959493929190611341565b60405180910390f35b3480156100f757600080fd5b5061010b610106366004610e5c565b61045e565b005b34801561011957600080fd5b5061012d610128366004610e5c565b610480565b6040516100e291906111d7565b34801561014657600080fd5b5061014f610498565b6040516100e291906111e5565b34801561016857600080fd5b5061010b610177366004610f74565b6104a7565b61010b61018a366004610e82565b6105fd565b34801561019b57600080fd5b506101a46108b6565b6040516100e29190611292565b3480156101bd57600080fd5b506101a46108bd565b3480156101d257600080fd5b506101a46101e1366004610f38565b6108c3565b3480156101f257600080fd5b50610206610201366004610f38565b6108d8565b6040516100e29594939291906111f3565b34801561022357600080fd5b5061010b610232366004610e5c565b610b47565b34801561024357600080fd5b5061010b610b78565b6001602052806000526040600020600091509050806000015490806001015490806002018054600181600116156101000203166002900480601f0160208091040260200160405190810160405280929190818152602001828054600181600116156101000203166002900480156103045780601f106102d957610100808354040283529160200191610304565b820191906000526020600020905b8154815290600101906020018083116102e757829003601f168201915b5050505060038301805460408051602060026001851615610100026000190190941693909304601f81018490048402820184019092528181529495949350908301828280156103945780601f1061036957610100808354040283529160200191610394565b820191906000526020600020905b81548152906001019060200180831161037757829003601f168201915b5050505060048301805460408051602060026001851615610100026000190190941693909304601f81018490048402820184019092528181529495949350908301828280156104245780601f106103f957610100808354040283529160200191610424565b820191906000526020600020905b81548152906001019060200180831161040757829003601f168201915b50505050600583015460068401546007850154600890950154939460ff808416956101009094046001600160a01b0316945091929116908a565b600380546001600160a01b0319166001600160a01b0392909216919091179055565b6000610492818363ffffffff610b8316565b92915050565b6003546001600160a01b031681565b6104b033610480565b6104d55760405162461bcd60e51b81526004016104cc90611282565b60405180910390fd5b60008281526001602090815260408083206003548251630eaf323560e31b815292519194936001600160a01b039091169263757991a89260048083019392829003018186803b15801561052757600080fd5b505afa15801561053b573d6000803e3d6000fd5b505050506040513d601f19601f8201168201806040525061055f9190810190610f56565b600583015490915060ff1661057e5760078201805460ff191660011790555b81546005830154600684015460078501546040517f9028bea5bfa7ed26c48df402d89085a995447dc8c1fb167cb92a3c7411b54480946105ed9490938993889360028b019360038c019360048d019360ff808416946101009094046001600160a01b03169391169042906113eb565b60405180910390a1506008015550565b60028054600101905560035460408051630eaf323560e31b815290516000926001600160a01b03169163757991a8916004808301926020929190829003018186803b15801561064b57600080fd5b505afa15801561065f573d6000803e3d6000fd5b505050506040513d601f19601f820116820180604052506106839190810190610f56565b905061068d610cef565b60405180610140016040528060025481526020018381526020018a8a8080601f016020809104026020016040519081016040528093929190818152602001838380828437600092019190915250505090825250604080516020601f8b0181900481028201810190925289815291810191908a908a9081908401838280828437600092019190915250505090825250604080516020601f8901819004810282018101909252878152918101919088908890819084018382808284376000920182905250938552505050851515602080840191909152336040808501919091523460608501526080840183905260a0909301829052600280548352600180835292849020855181558583015193810193909355928401518051949550859492936107bd93908501929190910190610d4f565b50606082015180516107d9916003840191602090910190610d4f565b50608082015180516107f5916004840191602090910190610d4f565b5060a082015160058201805460c085015160ff1991821693151593909317610100600160a81b0319166101006001600160a01b0390941684021790915560e0840151600684015590830151600783018054909216901515179055610120909101516008909101556002546040517fd4ae17fdeb78e69409330361e8f8475f8027928c6f28eae2195e5ae56570aba0916108a39185908d908d908d908d908d908d908d903390349042906112a0565b60405180910390a1505050505050505050565b6002545b90565b60025481565b60009081526001602052604090206008015490565b60608060606000806108e8610cef565b6000878152600160208181526040928390208351610140810185528154815281840154818401526002808301805487519681161561010002600019011691909104601f8101859004850286018501875280865291959294928601939091908301828280156109975780601f1061096c57610100808354040283529160200191610997565b820191906000526020600020905b81548152906001019060200180831161097a57829003601f168201915b505050918352505060038201805460408051602060026001851615610100026000190190941693909304601f8101849004840282018401909252818152938201939291830182828015610a2b5780601f10610a0057610100808354040283529160200191610a2b565b820191906000526020600020905b815481529060010190602001808311610a0e57829003601f168201915b505050918352505060048201805460408051602060026001851615610100026000190190941693909304601f8101849004840282018401909252818152938201939291830182828015610abf5780601f10610a9457610100808354040283529160200191610abf565b820191906000526020600020905b815481529060010190602001808311610aa257829003601f168201915b5050509183525050600582015460ff808216151560208401526101009091046001600160a01b031660408084019190915260068401546060808501919091526007850154909216151560808085019190915260089094015460a09384015284015190840151928401519184015161012090940151909b929a5090985091965090945092505050565b610b5033610480565b610b6c5760405162461bcd60e51b81526004016104cc90611282565b610b7581610bcb565b50565b610b8133610c13565b565b60006001600160a01b038216610bab5760405162461bcd60e51b81526004016104cc90611272565b506001600160a01b03166000908152602091909152604090205460ff1690565b610bdc60008263ffffffff610c5b16565b6040516001600160a01b038216907f6ff3aa2ea7b53070f6d9d07a445d338d89e8edef44250ffa8be19f53910d4a2e90600090a250565b610c2460008263ffffffff610ca716565b6040516001600160a01b038216907f86e5bbceda94081c32220d685f37cc4e3ea7bb0be2dfbf0cb703579505a5390e90600090a250565b610c658282610b83565b15610c825760405162461bcd60e51b81526004016104cc90611252565b6001600160a01b0316600090815260209190915260409020805460ff19166001179055565b610cb18282610b83565b610ccd5760405162461bcd60e51b81526004016104cc90611262565b6001600160a01b0316600090815260209190915260409020805460ff19169055565b604051806101400160405280600081526020016000815260200160608152602001606081526020016060815260200160001515815260200160006001600160a01b0316815260200160008152602001600015158152602001600081525090565b828054600181600116156101000203166002900490600052602060002090601f016020900481019282601f10610d9057805160ff1916838001178555610dbd565b82800160010185558215610dbd579182015b82811115610dbd578251825591602001919060010190610da2565b50610dc9929150610dcd565b5090565b6108ba91905b80821115610dc95760008155600101610dd3565b803561049281611531565b803561049281611545565b60008083601f840112610e0f57600080fd5b50813567ffffffffffffffff811115610e2757600080fd5b602083019150836001820283011115610e3f57600080fd5b9250929050565b80356104928161154e565b80516104928161154e565b600060208284031215610e6e57600080fd5b6000610e7a8484610de7565b949350505050565b60008060008060008060006080888a031215610e9d57600080fd5b873567ffffffffffffffff811115610eb457600080fd5b610ec08a828b01610dfd565b9750975050602088013567ffffffffffffffff811115610edf57600080fd5b610eeb8a828b01610dfd565b9550955050604088013567ffffffffffffffff811115610f0a57600080fd5b610f168a828b01610dfd565b93509350506060610f298a828b01610df2565b91505092959891949750929550565b600060208284031215610f4a57600080fd5b6000610e7a8484610e46565b600060208284031215610f6857600080fd5b6000610e7a8484610e51565b60008060408385031215610f8757600080fd5b6000610f938585610e46565b9250506020610fa485828601610e46565b9150509250929050565b610fb7816114d9565b82525050565b610fb7816114bd565b610fb7816114c8565b610fb7816114e0565b6000610fe483856114b4565b9350610ff18385846114eb565b610ffa83611527565b9093019392505050565b600061100f826114b0565b61101981856114b4565b93506110298185602086016114f7565b610ffa81611527565b60008154600181166000811461104f5760018114611075576110b4565b607f600283041661106081876114b4565b60ff19841681529550506020850192506110b4565b6002820461108381876114b4565b955061108e856114a4565b60005b828110156110ad57815488820152600190910190602001611091565b8701945050505b505092915050565b60006110c9601f836114b4565b7f526f6c65733a206163636f756e7420616c72656164792068617320726f6c6500815260200192915050565b60006111026021836114b4565b7f526f6c65733a206163636f756e7420646f6573206e6f74206861766520726f6c8152606560f81b602082015260400192915050565b60006111456022836114b4565b7f526f6c65733a206163636f756e7420697320746865207a65726f206164647265815261737360f01b602082015260400192915050565b60006111896030836114b4565b7f577269746572526f6c653a2063616c6c657220646f6573206e6f74206861766581526f207468652057726974657220726f6c6560801b602082015260400192915050565b610fb7816108ba565b602081016104928284610fc6565b602081016104928284610fcf565b60a080825281016112048188611004565b905081810360208301526112188187611004565b9050818103604083015261122c8186611004565b905061123b6060830185610fc6565b61124860808301846111ce565b9695505050505050565b60208082528101610492816110bc565b60208082528101610492816110f5565b6020808252810161049281611138565b602080825281016104928161117c565b6020810161049282846111ce565b61012081016112af828f6111ce565b6112bc602083018e6111ce565b81810360408301526112cf818c8e610fd8565b905081810360608301526112e4818a8c610fd8565b905081810360808301526112f981888a610fd8565b905061130860a0830187610fc6565b61131560c0830186610fae565b61132260e08301856111ce565b6113306101008301846111ce565b9d9c50505050505050505050505050565b6101408101611350828d6111ce565b61135d602083018c6111ce565b818103604083015261136f818b611004565b90508181036060830152611383818a611004565b905081810360808301526113978189611004565b90506113a660a0830188610fc6565b6113b360c0830187610fbd565b6113c060e08301866111ce565b6113ce610100830185610fc6565b6113dc6101208301846111ce565b9b9a5050505050505050505050565b61016081016113fa828e6111ce565b611407602083018d6111ce565b611414604083018c6111ce565b8181036060830152611426818b611032565b9050818103608083015261143a818a611032565b905081810360a083015261144e8189611032565b905061145d60c0830188610fc6565b61146a60e0830187610fbd565b6114786101008301866111ce565b611486610120830185610fc6565b6114946101408301846111ce565b9c9b505050505050505050505050565b60009081526020902090565b5190565b90815260200190565b6000610492826114cd565b151590565b6001600160a01b031690565b6000610492825b6000610492826114bd565b82818337506000910152565b60005b838110156115125781810151838201526020016114fa565b83811115611521576000848401525b50505050565b601f01601f191690565b61153a816114bd565b8114610b7557600080fd5b61153a816114c8565b61153a816108ba56fea365627a7a72305820238e8e832b26cf54df9286f09a7fab0e37e3ac8251c7538aca2be55d4dd6fb0f6c6578706572696d656e74616cf564736f6c634300050a0040",
  "source": "pragma solidity 0.5.10;\npragma experimental ABIEncoderV2;\nimport \"./JobStorage.sol\";\nimport \"./IStateManager.sol\";\nimport \"openzeppelin-solidity/contracts/math/SafeMath.sol\";\nimport \"./WriterRole.sol\";\n\n\ncontract JobManager is WriterRole, JobStorage {\n\n    event JobCreated(uint256 id, uint256 epoch, string url, string selector, string name, bool repeat,\n                            address creator, uint256 credit, uint256 timestamp);\n    // event JobFulfilled(uint256 id, uint256 epoch, string url, string selector, bool repeat,\n    //                     address creator, uint256 credit, bool fulfulled);\n\n    event JobReported(uint256 id, uint256 value, uint256 epoch,\n                        string url, string selector, string name, bool repeat,\n                        address creator, uint256 credit, bool fulfilled, uint256 timestamp);\n\n    IStateManager public stateManager;\n\n    //disable after init.\n    function init(address _stateManagerAddress) external {\n        stateManager = IStateManager(_stateManagerAddress);\n    }\n\n    function createJob (string calldata url, string calldata selector, string calldata name, bool repeat) external payable {\n        numJobs = numJobs + 1;\n        uint256 epoch = stateManager.getEpoch();\n        Structs.Job memory job = Structs.Job(numJobs, epoch, url, selector, name, repeat, msg.sender, msg.value, false, 0);\n        jobs[numJobs] = job;\n        emit JobCreated(numJobs, epoch, url, selector, name, repeat, msg.sender, msg.value, now);\n        // jobs.push(job);\n    }\n\n    function fulfillJob(uint256 jobId, uint256 value) external onlyWriter {\n        Structs.Job storage job = jobs[jobId];\n        uint256 epoch = stateManager.getEpoch();\n\n        if (!job.repeat) {\n            job.fulfilled = true;\n            // emit JobFulfilled(job.id, epoch, job.url, job.selector,\n            //job.repeat, job.creator, job.credit, job.fulfilled);\n        }\n        emit JobReported(job.id, value, epoch, job.url, job.selector, job.name, job.repeat,\n        job.creator, job.credit, job.fulfilled, now);\n        job.result = value;\n    }\n\n    function getResult(uint256 id) external view returns(uint256) {\n        return jobs[id].result;\n    }\n\n    function getJob(uint256 id) external view returns(string memory url, string memory selector, string memory name, bool repeat, uint256 result) {\n        Structs.Job memory job = jobs[id];\n        return(job.url, job.selector, job.name, job.repeat, job.result);\n    }\n\n    function getNumJobs() external view returns(uint256) {\n        return numJobs;\n    }\n}\n",
  "sourcePath": "/Users/hrishi/contracts/contracts/Core/JobManager.sol",
  "compiler": {
    "name": "solc",
    "version": "0.5.10+commit.5a6ea5b1.Emscripten.clang"
  },
  "schemaVersion": "3.2.3",
  "updatedAt": "2020-08-01T07:40:16.656Z",
  "networkType": "ethereum",
  "devdoc": {
    "methods": {}
  },
  "userdoc": {
    "methods": {}
  }
}