{
  "contractName": "JobManager",
  "abi": [
    {
      "anonymous": false,
      "inputs": [
        {
          "indexed": false,
          "internalType": "uint256",
          "name": "id",
          "type": "uint256"
        },
        {
          "indexed": false,
          "internalType": "uint256",
          "name": "epoch",
          "type": "uint256"
        },
        {
          "indexed": false,
          "internalType": "string",
          "name": "url",
          "type": "string"
        },
        {
          "indexed": false,
          "internalType": "string",
          "name": "selector",
          "type": "string"
        },
        {
          "indexed": false,
          "internalType": "string",
          "name": "name",
          "type": "string"
        },
        {
          "indexed": false,
          "internalType": "bool",
          "name": "repeat",
          "type": "bool"
        },
        {
          "indexed": false,
          "internalType": "address",
          "name": "creator",
          "type": "address"
        },
        {
          "indexed": false,
          "internalType": "uint256",
          "name": "credit",
          "type": "uint256"
        },
        {
          "indexed": false,
          "internalType": "uint256",
          "name": "timestamp",
          "type": "uint256"
        }
      ],
      "name": "JobCreated",
      "type": "event"
    },
    {
      "anonymous": false,
      "inputs": [
        {
          "indexed": false,
          "internalType": "uint256",
          "name": "id",
          "type": "uint256"
        },
        {
          "indexed": false,
          "internalType": "uint256",
          "name": "value",
          "type": "uint256"
        },
        {
          "indexed": false,
          "internalType": "uint256",
          "name": "epoch",
          "type": "uint256"
        },
        {
          "indexed": false,
          "internalType": "string",
          "name": "url",
          "type": "string"
        },
        {
          "indexed": false,
          "internalType": "string",
          "name": "selector",
          "type": "string"
        },
        {
          "indexed": false,
          "internalType": "string",
          "name": "name",
          "type": "string"
        },
        {
          "indexed": false,
          "internalType": "bool",
          "name": "repeat",
          "type": "bool"
        },
        {
          "indexed": false,
          "internalType": "address",
          "name": "creator",
          "type": "address"
        },
        {
          "indexed": false,
          "internalType": "uint256",
          "name": "credit",
          "type": "uint256"
        },
        {
          "indexed": false,
          "internalType": "bool",
          "name": "fulfilled",
          "type": "bool"
        },
        {
          "indexed": false,
          "internalType": "uint256",
          "name": "timestamp",
          "type": "uint256"
        }
      ],
      "name": "JobReported",
      "type": "event"
    },
    {
      "anonymous": false,
      "inputs": [
        {
          "indexed": true,
          "internalType": "bytes32",
          "name": "role",
          "type": "bytes32"
        },
        {
          "indexed": true,
          "internalType": "bytes32",
          "name": "previousAdminRole",
          "type": "bytes32"
        },
        {
          "indexed": true,
          "internalType": "bytes32",
          "name": "newAdminRole",
          "type": "bytes32"
        }
      ],
      "name": "RoleAdminChanged",
      "type": "event"
    },
    {
      "anonymous": false,
      "inputs": [
        {
          "indexed": true,
          "internalType": "bytes32",
          "name": "role",
          "type": "bytes32"
        },
        {
          "indexed": true,
          "internalType": "address",
          "name": "account",
          "type": "address"
        },
        {
          "indexed": true,
          "internalType": "address",
          "name": "sender",
          "type": "address"
        }
      ],
      "name": "RoleGranted",
      "type": "event"
    },
    {
      "anonymous": false,
      "inputs": [
        {
          "indexed": true,
          "internalType": "bytes32",
          "name": "role",
          "type": "bytes32"
        },
        {
          "indexed": true,
          "internalType": "address",
          "name": "account",
          "type": "address"
        },
        {
          "indexed": true,
          "internalType": "address",
          "name": "sender",
          "type": "address"
        }
      ],
      "name": "RoleRevoked",
      "type": "event"
    },
    {
      "anonymous": false,
      "inputs": [
        {
          "indexed": true,
          "internalType": "address",
          "name": "account",
          "type": "address"
        }
      ],
      "name": "WriterAdded",
      "type": "event"
    },
    {
      "anonymous": false,
      "inputs": [
        {
          "indexed": true,
          "internalType": "address",
          "name": "account",
          "type": "address"
        }
      ],
      "name": "WriterRemoved",
      "type": "event"
    },
    {
      "inputs": [],
      "name": "DEFAULT_ADMIN_ROLE",
      "outputs": [
        {
          "internalType": "bytes32",
          "name": "",
          "type": "bytes32"
        }
      ],
      "stateMutability": "view",
      "type": "function"
    },
    {
      "inputs": [
        {
          "internalType": "address",
          "name": "account",
          "type": "address"
        }
      ],
      "name": "addWriter",
      "outputs": [],
      "stateMutability": "nonpayable",
      "type": "function"
    },
    {
      "inputs": [
        {
          "internalType": "bytes32",
          "name": "role",
          "type": "bytes32"
        }
      ],
      "name": "getRoleAdmin",
      "outputs": [
        {
          "internalType": "bytes32",
          "name": "",
          "type": "bytes32"
        }
      ],
      "stateMutability": "view",
      "type": "function"
    },
    {
      "inputs": [
        {
          "internalType": "bytes32",
          "name": "role",
          "type": "bytes32"
        },
        {
          "internalType": "uint256",
          "name": "index",
          "type": "uint256"
        }
      ],
      "name": "getRoleMember",
      "outputs": [
        {
          "internalType": "address",
          "name": "",
          "type": "address"
        }
      ],
      "stateMutability": "view",
      "type": "function"
    },
    {
      "inputs": [
        {
          "internalType": "bytes32",
          "name": "role",
          "type": "bytes32"
        }
      ],
      "name": "getRoleMemberCount",
      "outputs": [
        {
          "internalType": "uint256",
          "name": "",
          "type": "uint256"
        }
      ],
      "stateMutability": "view",
      "type": "function"
    },
    {
      "inputs": [
        {
          "internalType": "bytes32",
          "name": "role",
          "type": "bytes32"
        },
        {
          "internalType": "address",
          "name": "account",
          "type": "address"
        }
      ],
      "name": "grantRole",
      "outputs": [],
      "stateMutability": "nonpayable",
      "type": "function"
    },
    {
      "inputs": [
        {
          "internalType": "bytes32",
          "name": "role",
          "type": "bytes32"
        },
        {
          "internalType": "address",
          "name": "account",
          "type": "address"
        }
      ],
      "name": "hasRole",
      "outputs": [
        {
          "internalType": "bool",
          "name": "",
          "type": "bool"
        }
      ],
      "stateMutability": "view",
      "type": "function"
    },
    {
      "inputs": [
        {
          "internalType": "address",
          "name": "account",
          "type": "address"
        }
      ],
      "name": "isAdmin",
      "outputs": [
        {
          "internalType": "bool",
          "name": "",
          "type": "bool"
        }
      ],
      "stateMutability": "view",
      "type": "function"
    },
    {
      "inputs": [
        {
          "internalType": "address",
          "name": "account",
          "type": "address"
        }
      ],
      "name": "isWriter",
      "outputs": [
        {
          "internalType": "bool",
          "name": "",
          "type": "bool"
        }
      ],
      "stateMutability": "view",
      "type": "function"
    },
    {
      "inputs": [
        {
          "internalType": "uint256",
          "name": "",
          "type": "uint256"
        }
      ],
      "name": "jobs",
      "outputs": [
        {
          "internalType": "uint256",
          "name": "id",
          "type": "uint256"
        },
        {
          "internalType": "uint256",
          "name": "epoch",
          "type": "uint256"
        },
        {
          "internalType": "string",
          "name": "url",
          "type": "string"
        },
        {
          "internalType": "string",
          "name": "selector",
          "type": "string"
        },
        {
          "internalType": "string",
          "name": "name",
          "type": "string"
        },
        {
          "internalType": "bool",
          "name": "repeat",
          "type": "bool"
        },
        {
          "internalType": "address",
          "name": "creator",
          "type": "address"
        },
        {
          "internalType": "uint256",
          "name": "credit",
          "type": "uint256"
        },
        {
          "internalType": "bool",
          "name": "fulfilled",
          "type": "bool"
        },
        {
          "internalType": "uint256",
          "name": "result",
          "type": "uint256"
        }
      ],
      "stateMutability": "view",
      "type": "function"
    },
    {
      "inputs": [],
      "name": "numJobs",
      "outputs": [
        {
          "internalType": "uint256",
          "name": "",
          "type": "uint256"
        }
      ],
      "stateMutability": "view",
      "type": "function"
    },
    {
      "inputs": [
        {
          "internalType": "bytes32",
          "name": "role",
          "type": "bytes32"
        },
        {
          "internalType": "address",
          "name": "account",
          "type": "address"
        }
      ],
      "name": "renounceRole",
      "outputs": [],
      "stateMutability": "nonpayable",
      "type": "function"
    },
    {
      "inputs": [],
      "name": "renounceWriter",
      "outputs": [],
      "stateMutability": "nonpayable",
      "type": "function"
    },
    {
      "inputs": [
        {
          "internalType": "bytes32",
          "name": "role",
          "type": "bytes32"
        },
        {
          "internalType": "address",
          "name": "account",
          "type": "address"
        }
      ],
      "name": "revokeRole",
      "outputs": [],
      "stateMutability": "nonpayable",
      "type": "function"
    },
    {
      "inputs": [],
      "name": "stateManager",
      "outputs": [
        {
          "internalType": "contract IStateManager",
          "name": "",
          "type": "address"
        }
      ],
      "stateMutability": "view",
      "type": "function"
    },
    {
      "inputs": [
        {
          "internalType": "address",
          "name": "_stateManagerAddress",
          "type": "address"
        }
      ],
      "name": "init",
      "outputs": [],
      "stateMutability": "nonpayable",
      "type": "function"
    },
    {
      "inputs": [
        {
          "internalType": "string",
          "name": "url",
          "type": "string"
        },
        {
          "internalType": "string",
          "name": "selector",
          "type": "string"
        },
        {
          "internalType": "string",
          "name": "name",
          "type": "string"
        },
        {
          "internalType": "bool",
          "name": "repeat",
          "type": "bool"
        }
      ],
      "name": "createJob",
      "outputs": [],
      "stateMutability": "payable",
      "type": "function"
    },
    {
      "inputs": [
        {
          "internalType": "uint256",
          "name": "jobId",
          "type": "uint256"
        },
        {
          "internalType": "uint256",
          "name": "value",
          "type": "uint256"
        }
      ],
      "name": "fulfillJob",
      "outputs": [],
      "stateMutability": "nonpayable",
      "type": "function"
    },
    {
      "inputs": [
        {
          "internalType": "uint256",
          "name": "id",
          "type": "uint256"
        }
      ],
      "name": "getResult",
      "outputs": [
        {
          "internalType": "uint256",
          "name": "",
          "type": "uint256"
        }
      ],
      "stateMutability": "view",
      "type": "function"
    },
    {
      "inputs": [
        {
          "internalType": "uint256",
          "name": "id",
          "type": "uint256"
        }
      ],
      "name": "getJob",
      "outputs": [
        {
          "internalType": "string",
          "name": "url",
          "type": "string"
        },
        {
          "internalType": "string",
          "name": "selector",
          "type": "string"
        },
        {
          "internalType": "string",
          "name": "name",
          "type": "string"
        },
        {
          "internalType": "bool",
          "name": "repeat",
          "type": "bool"
        },
        {
          "internalType": "uint256",
          "name": "result",
          "type": "uint256"
        }
      ],
      "stateMutability": "view",
      "type": "function"
    }
  ],
  "bytecode": "0x60806040523480156200001157600080fd5b506200005260405162000024906200020d565b60405180910390206040516200003a906200021f565b6040519081900390206001600160e01b036200008316565b6200007d60405162000064906200021f565b604051908190039020336001600160e01b03620000d516565b62000230565b600082815260208190526040808220600201549051839285917fbd79b86ffe0ab8e8776151514217cd7cacd52c909f66475c3af44e129f0b00ff9190a460009182526020829052604090912060020155565b620000ea82826001600160e01b03620000ee16565b5050565b6000828152602081815260409091206200011391839062000e6f62000170821b17901c565b15620000ea576200012c6001600160e01b036200019916565b6001600160a01b0316816001600160a01b0316837f2f8788117e7eff1d82e926ec794901d17c78024a50270940304540a733656f0d60405160405180910390a45050565b600062000190836001600160a01b0384166001600160e01b036200019d16565b90505b92915050565b3390565b6000620001b483836001600160e01b03620001f516565b620001ec5750815460018181018455600084815260208082209093018490558454848252828601909352604090209190915562000193565b50600062000193565b60009081526001919091016020526040902054151590565b652ba924aa22a960d11b815260060190565b6420a226a4a760d91b815260050190565b61198c80620002406000396000f3fe60806040526004361061011f5760003560e01c80639010d07c116100a0578063bf22c45711610064578063bf22c4571461031e578063ca15c8731461034f578063d547741f1461036f578063da2824a81461038f578063df4eb59c146103af5761011f565b80639010d07c1461029457806391d14854146102b45780639212051c146102d4578063995e4339146102e9578063a217fddf146103095761011f565b80632e716fb1116100e75780632e716fb1146101ff5780632f2ff15d1461022157806336568abe1461024157806356350bdf14610261578063628aff1d146102815761011f565b8063180aedf31461012457806319ab453c14610163578063248a9ca31461018557806324d7806c146101b25780632b29ba23146101df575b600080fd5b34801561013057600080fd5b5061014461013f366004611327565b6103c4565b60405161015a9a9998979695949392919061183e565b60405180910390f35b34801561016f57600080fd5b5061018361017e366004611300565b6105d6565b005b34801561019157600080fd5b506101a56101a0366004611327565b6105f8565b60405161015a919061159a565b3480156101be57600080fd5b506101d26101cd366004611300565b61060d565b60405161015a919061158f565b3480156101eb57600080fd5b506101d26101fa366004611300565b610632565b34801561020b57600080fd5b50610214610643565b60405161015a919061157b565b34801561022d57600080fd5b5061018361023c36600461133f565b610652565b34801561024d57600080fd5b5061018361025c36600461133f565b6106a3565b34801561026d57600080fd5b5061018361027c366004611379565b6106e5565b61018361028f36600461139a565b610832565b3480156102a057600080fd5b506102146102af366004611379565b610aeb565b3480156102c057600080fd5b506101d26102cf36600461133f565b610b10565b3480156102e057600080fd5b506101a5610b2e565b3480156102f557600080fd5b506101a5610304366004611327565b610b34565b34801561031557600080fd5b506101a5610b49565b34801561032a57600080fd5b5061033e610339366004611327565b610b4e565b60405161015a9594939291906115a3565b34801561035b57600080fd5b506101a561036a366004611327565b610dbd565b34801561037b57600080fd5b5061018361038a36600461133f565b610dd4565b34801561039b57600080fd5b506101836103aa366004611300565b610e0e565b3480156103bb57600080fd5b50610183610e3f565b6001602052806000526040600020600091509050806000015490806001015490806002018054600181600116156101000203166002900480601f01602080910402602001604051908101604052809291908181526020018280546001816001161561010002031660029004801561047c5780601f106104515761010080835404028352916020019161047c565b820191906000526020600020905b81548152906001019060200180831161045f57829003601f168201915b5050505060038301805460408051602060026001851615610100026000190190941693909304601f810184900484028201840190925281815294959493509083018282801561050c5780601f106104e15761010080835404028352916020019161050c565b820191906000526020600020905b8154815290600101906020018083116104ef57829003601f168201915b5050505060048301805460408051602060026001851615610100026000190190941693909304601f810184900484028201840190925281815294959493509083018282801561059c5780601f106105715761010080835404028352916020019161059c565b820191906000526020600020905b81548152906001019060200180831161057f57829003601f168201915b50505050600583015460068401546007850154600890950154939460ff808416956101009094046001600160a01b0316945091929116908a565b600380546001600160a01b0319166001600160a01b0392909216919091179055565b60009081526020819052604090206002015490565b600061062c60405161061e9061156a565b604051809103902083610b10565b92915050565b600061062c60405161061e90611558565b6003546001600160a01b031681565b600082815260208190526040902060020154610670906102cf610e84565b6106955760405162461bcd60e51b815260040161068c90611632565b60405180910390fd5b61069f8282610e89565b5050565b6106ab610e84565b6001600160a01b0316816001600160a01b0316146106db5760405162461bcd60e51b815260040161068c9061176f565b61069f8282610ef8565b6106ee33610632565b61070a5760405162461bcd60e51b815260040161068c9061171f565b60008281526001602090815260408083206003548251630eaf323560e31b815292519194936001600160a01b039091169263757991a89260048083019392829003018186803b15801561075c57600080fd5b505afa158015610770573d6000803e3d6000fd5b505050506040513d601f19601f820116820180604052508101906107949190611448565b600583015490915060ff166107b35760078201805460ff191660011790555b81546005830154600684015460078501546040517f9028bea5bfa7ed26c48df402d89085a995447dc8c1fb167cb92a3c7411b54480946108229490938993889360028b019360038c019360048d019360ff808416946101009094046001600160a01b03169391169042906118c0565b60405180910390a1506008015550565b60028054600101905560035460408051630eaf323560e31b815290516000926001600160a01b03169163757991a8916004808301926020929190829003018186803b15801561088057600080fd5b505afa158015610894573d6000803e3d6000fd5b505050506040513d601f19601f820116820180604052508101906108b89190611448565b90506108c26111c1565b60405180610140016040528060025481526020018381526020018a8a8080601f016020809104026020016040519081016040528093929190818152602001838380828437600092019190915250505090825250604080516020601f8b0181900481028201810190925289815291810191908a908a9081908401838280828437600092019190915250505090825250604080516020601f8901819004810282018101909252878152918101919088908890819084018382808284376000920182905250938552505050851515602080840191909152336040808501919091523460608501526080840183905260a0909301829052600280548352600180835292849020855181558583015193810193909355928401518051949550859492936109f293908501929190910190611221565b5060608201518051610a0e916003840191602090910190611221565b5060808201518051610a2a916004840191602090910190611221565b5060a082015160058201805460c085015160ff1991821693151593909317610100600160a81b0319166101006001600160a01b0390941684021790915560e0840151600684015590830151600783018054909216901515179055610120909101516008909101556002546040517fd4ae17fdeb78e69409330361e8f8475f8027928c6f28eae2195e5ae56570aba091610ad89185908d908d908d908d908d908d908d903390349042906117be565b60405180910390a1505050505050505050565b6000828152602081905260408120610b09908363ffffffff610f6716565b9392505050565b6000828152602081905260408120610b09908363ffffffff610f7316565b60025481565b60009081526001602052604090206008015490565b600081565b6060806060600080610b5e6111c1565b6000878152600160208181526040928390208351610140810185528154815281840154818401526002808301805487519681161561010002600019011691909104601f810185900485028601850187528086529195929492860193909190830182828015610c0d5780601f10610be257610100808354040283529160200191610c0d565b820191906000526020600020905b815481529060010190602001808311610bf057829003601f168201915b505050918352505060038201805460408051602060026001851615610100026000190190941693909304601f8101849004840282018401909252818152938201939291830182828015610ca15780601f10610c7657610100808354040283529160200191610ca1565b820191906000526020600020905b815481529060010190602001808311610c8457829003601f168201915b505050918352505060048201805460408051602060026001851615610100026000190190941693909304601f8101849004840282018401909252818152938201939291830182828015610d355780601f10610d0a57610100808354040283529160200191610d35565b820191906000526020600020905b815481529060010190602001808311610d1857829003601f168201915b5050509183525050600582015460ff808216151560208401526101009091046001600160a01b031660408084019190915260068401546060808501919091526007850154909216151560808085019190915260089094015460a09384015284015190840151928401519184015161012090940151909b929a5090985091965090945092505050565b600081815260208190526040812061062c90610f88565b600082815260208190526040902060020154610df2906102cf610e84565b6106db5760405162461bcd60e51b815260040161068c90611681565b610e173361060d565b610e335760405162461bcd60e51b815260040161068c906116d1565b610e3c81610f93565b50565b610e4833610632565b610e645760405162461bcd60e51b815260040161068c9061171f565b610e6d33610fe7565b565b6000610b09836001600160a01b03841661103b565b335b90565b6000828152602081905260409020610ea7908263ffffffff610e6f16565b1561069f57610eb4610e84565b6001600160a01b0316816001600160a01b0316837f2f8788117e7eff1d82e926ec794901d17c78024a50270940304540a733656f0d60405160405180910390a45050565b6000828152602081905260409020610f16908263ffffffff61108516565b1561069f57610f23610e84565b6001600160a01b0316816001600160a01b0316837ff6391f5c32d9c69d2a47ea670b442974b53935d1edc7fd64eb21e047a839171b60405160405180910390a45050565b6000610b09838361109a565b6000610b09836001600160a01b0384166110df565b600061062c826110f7565b610fb0604051610fa290611558565b604051809103902082610652565b6040516001600160a01b038216907f6ff3aa2ea7b53070f6d9d07a445d338d89e8edef44250ffa8be19f53910d4a2e90600090a250565b611004604051610ff690611558565b6040518091039020826106a3565b6040516001600160a01b038216907f86e5bbceda94081c32220d685f37cc4e3ea7bb0be2dfbf0cb703579505a5390e90600090a250565b600061104783836110df565b61107d5750815460018181018455600084815260208082209093018490558454848252828601909352604090209190915561062c565b50600061062c565b6000610b09836001600160a01b0384166110fb565b815460009082106110bd5760405162461bcd60e51b815260040161068c906115f0565b8260000182815481106110cc57fe5b9060005260206000200154905092915050565b60009081526001919091016020526040902054151590565b5490565b600081815260018301602052604081205480156111b7578354600019808301919081019060009087908390811061112e57fe5b906000526020600020015490508087600001848154811061114b57fe5b60009182526020808320909101929092558281526001898101909252604090209084019055865487908061117b57fe5b6001900381819060005260206000200160009055905586600101600087815260200190815260200160002060009055600194505050505061062c565b600091505061062c565b604051806101400160405280600081526020016000815260200160608152602001606081526020016060815260200160001515815260200160006001600160a01b0316815260200160008152602001600015158152602001600081525090565b828054600181600116156101000203166002900490600052602060002090601f016020900481019282601f1061126257805160ff191683800117855561128f565b8280016001018555821561128f579182015b8281111561128f578251825591602001919060010190611274565b5061129b92915061129f565b5090565b610e8691905b8082111561129b57600081556001016112a5565b60008083601f8401126112ca578182fd5b50813567ffffffffffffffff8111156112e1578182fd5b6020830191508360208285010111156112f957600080fd5b9250929050565b600060208284031215611311578081fd5b81356001600160a01b0381168114610b09578182fd5b600060208284031215611338578081fd5b5035919050565b60008060408385031215611351578081fd5b8235915060208301356001600160a01b038116811461136e578182fd5b809150509250929050565b6000806040838503121561138b578182fd5b50508035926020909101359150565b60008060008060008060006080888a0312156113b4578283fd5b873567ffffffffffffffff808211156113cb578485fd5b6113d78b838c016112b9565b909950975060208a01359150808211156113ef578485fd5b6113fb8b838c016112b9565b909750955060408a0135915080821115611413578485fd5b506114208a828b016112b9565b90945092505060608801358015158114611438578182fd5b8091505092959891949750929550565b600060208284031215611459578081fd5b5051919050565b60008284528282602086013780602084860101526020601f19601f85011685010190509392505050565b60008151808452815b818110156114af57602081850181015186830182015201611493565b818111156114c05782602083870101525b50601f01601f19169290920160200192915050565b600081546001808216600081146114f357600181146115115761154f565b60028304607f16865260ff198316602087015260408601935061154f565b600283048087526115218661194a565b60005b828110156115455781546020828b0101528482019150602081019050611524565b8801602001955050505b50505092915050565b652ba924aa22a960d11b815260060190565b6420a226a4a760d91b815260050190565b6001600160a01b0391909116815260200190565b901515815260200190565b90815260200190565b600060a082526115b660a083018861148a565b82810360208401526115c8818861148a565b83810360408501526115da818861148a565b9515156060850152505050608001529392505050565b60208082526022908201527f456e756d657261626c655365743a20696e646578206f7574206f6620626f756e604082015261647360f01b606082015260800190565b6020808252602f908201527f416363657373436f6e74726f6c3a2073656e646572206d75737420626520616e60408201526e0818591b5a5b881d1bc819dc985b9d608a1b606082015260800190565b60208082526030908201527f416363657373436f6e74726f6c3a2073656e646572206d75737420626520616e60408201526f2061646d696e20746f207265766f6b6560801b606082015260800190565b6020808252602e908201527f41646d696e526f6c653a2063616c6c657220646f6573206e6f7420686176652060408201526d7468652041646d696e20726f6c6560901b606082015260800190565b60208082526030908201527f577269746572526f6c653a2063616c6c657220646f6573206e6f74206861766560408201526f207468652057726974657220726f6c6560801b606082015260800190565b6020808252602f908201527f416363657373436f6e74726f6c3a2063616e206f6e6c792072656e6f756e636560408201526e103937b632b9903337b91039b2b63360891b606082015260800190565b60006101208e83528d60208401528060408401526117df8184018d8f611460565b83810360608501526117f2818c8e611460565b915050828103608084015261180881898b611460565b96151560a084015250506001600160a01b039390931660c084015260e08301919091526101009091015298975050505050505050565b60006101408c83528b602084015280604084015261185e8184018c61148a565b8381036060850152611870818c61148a565b9150508281036080840152611885818a61148a565b97151560a084015250506001600160a01b039490941660c085015260e084019290925215156101008301526101209091015295945050505050565b60006101608d83528c60208401528b60408401528060608401526118e68184018c6114d5565b83810360808501526118f8818c6114d5565b91505082810360a084015261190d818a6114d5565b97151560c084015250506001600160a01b039490941660e08501526101008401929092521515610120830152610140909101529695505050505050565b6000908152602090209056fea26469706673582212201d32a302a3ed272cc60f49099c48003b661a1903336771f20e48fb579cb5026164736f6c634300060b0033",
  "immutableReferences": {},
  "source": "pragma solidity 0.6.11;\npragma experimental ABIEncoderV2;\nimport \"./JobStorage.sol\";\nimport \"./IStateManager.sol\";\nimport \"openzeppelin-solidity/contracts/math/SafeMath.sol\";\nimport \"./WriterRole.sol\";\n\n\ncontract JobManager is WriterRole, JobStorage {\n\n    event JobCreated(uint256 id, uint256 epoch, string url, string selector, string name, bool repeat,\n                            address creator, uint256 credit, uint256 timestamp);\n    // event JobFulfilled(uint256 id, uint256 epoch, string url, string selector, bool repeat,\n    //                     address creator, uint256 credit, bool fulfulled);\n\n    event JobReported(uint256 id, uint256 value, uint256 epoch,\n                        string url, string selector, string name, bool repeat,\n                        address creator, uint256 credit, bool fulfilled, uint256 timestamp);\n\n    IStateManager public stateManager;\n\n    //disable after init.\n    function init(address _stateManagerAddress) external {\n        stateManager = IStateManager(_stateManagerAddress);\n    }\n\n    function createJob (string calldata url, string calldata selector, string calldata name, bool repeat) external payable {\n        numJobs = numJobs + 1;\n        uint256 epoch = stateManager.getEpoch();\n        Structs.Job memory job = Structs.Job(numJobs, epoch, url, selector, name, repeat, msg.sender, msg.value, false, 0);\n        jobs[numJobs] = job;\n        emit JobCreated(numJobs, epoch, url, selector, name, repeat, msg.sender, msg.value, now);\n        // jobs.push(job);\n    }\n\n    function fulfillJob(uint256 jobId, uint256 value) external onlyWriter {\n        Structs.Job storage job = jobs[jobId];\n        uint256 epoch = stateManager.getEpoch();\n\n        if (!job.repeat) {\n            job.fulfilled = true;\n            // emit JobFulfilled(job.id, epoch, job.url, job.selector,\n            //job.repeat, job.creator, job.credit, job.fulfilled);\n        }\n        emit JobReported(job.id, value, epoch, job.url, job.selector, job.name, job.repeat,\n        job.creator, job.credit, job.fulfilled, now);\n        job.result = value;\n    }\n\n    function getResult(uint256 id) external view returns(uint256) {\n        return jobs[id].result;\n    }\n\n    function getJob(uint256 id) external view returns(string memory url, string memory selector, string memory name, bool repeat, uint256 result) {\n        Structs.Job memory job = jobs[id];\n        return(job.url, job.selector, job.name, job.repeat, job.result);\n    }\n}\n",
  "sourcePath": "/home/user/Documents/intern/contracts/contracts/Core/JobManager.sol",
  "compiler": {
    "name": "solc",
    "version": "0.6.11+commit.5ef660b1.Emscripten.clang"
  },
  "schemaVersion": "3.2.2",
  "updatedAt": "2020-07-27T12:27:12.513Z",
  "devdoc": {
    "kind": "dev",
    "methods": {
      "getRoleAdmin(bytes32)": {
        "details": "Returns the admin role that controls `role`. See {grantRole} and {revokeRole}. To change a role's admin, use {_setRoleAdmin}."
      },
      "getRoleMember(bytes32,uint256)": {
        "details": "Returns one of the accounts that have `role`. `index` must be a value between 0 and {getRoleMemberCount}, non-inclusive. Role bearers are not sorted in any particular way, and their ordering may change at any point. WARNING: When using {getRoleMember} and {getRoleMemberCount}, make sure you perform all queries on the same block. See the following https://forum.openzeppelin.com/t/iterating-over-elements-on-enumerableset-in-openzeppelin-contracts/2296[forum post] for more information."
      },
      "getRoleMemberCount(bytes32)": {
        "details": "Returns the number of accounts that have `role`. Can be used together with {getRoleMember} to enumerate all bearers of a role."
      },
      "grantRole(bytes32,address)": {
        "details": "Grants `role` to `account`. If `account` had not been already granted `role`, emits a {RoleGranted} event. Requirements: - the caller must have ``role``'s admin role."
      },
      "hasRole(bytes32,address)": {
        "details": "Returns `true` if `account` has been granted `role`."
      },
      "renounceRole(bytes32,address)": {
        "details": "Revokes `role` from the calling account. Roles are often managed via {grantRole} and {revokeRole}: this function's purpose is to provide a mechanism for accounts to lose their privileges if they are compromised (such as when a trusted device is misplaced). If the calling account had been granted `role`, emits a {RoleRevoked} event. Requirements: - the caller must be `account`."
      },
      "revokeRole(bytes32,address)": {
        "details": "Revokes `role` from `account`. If `account` had been granted `role`, emits a {RoleRevoked} event. Requirements: - the caller must have ``role``'s admin role."
      }
    },
    "version": 1
  },
  "userdoc": {
    "kind": "user",
    "methods": {},
    "version": 1
  }
}