{
  "contractName": "JobManager",
  "abi": [
    {
      "anonymous": false,
      "inputs": [
        {
          "indexed": false,
          "internalType": "uint256",
          "name": "id",
          "type": "uint256"
        },
        {
          "indexed": false,
          "internalType": "uint256",
          "name": "epoch",
          "type": "uint256"
        },
        {
          "indexed": false,
          "internalType": "string",
          "name": "url",
          "type": "string"
        },
        {
          "indexed": false,
          "internalType": "string",
          "name": "selector",
          "type": "string"
        },
        {
          "indexed": false,
          "internalType": "string",
          "name": "name",
          "type": "string"
        },
        {
          "indexed": false,
          "internalType": "bool",
          "name": "repeat",
          "type": "bool"
        },
        {
          "indexed": false,
          "internalType": "address",
          "name": "creator",
          "type": "address"
        },
        {
          "indexed": false,
          "internalType": "uint256",
          "name": "credit",
          "type": "uint256"
        },
        {
          "indexed": false,
          "internalType": "uint256",
          "name": "timestamp",
          "type": "uint256"
        }
      ],
      "name": "JobCreated",
      "type": "event"
    },
    {
      "anonymous": false,
      "inputs": [
        {
          "indexed": false,
          "internalType": "uint256",
          "name": "id",
          "type": "uint256"
        },
        {
          "indexed": false,
          "internalType": "uint256",
          "name": "value",
          "type": "uint256"
        },
        {
          "indexed": false,
          "internalType": "uint256",
          "name": "epoch",
          "type": "uint256"
        },
        {
          "indexed": false,
          "internalType": "string",
          "name": "url",
          "type": "string"
        },
        {
          "indexed": false,
          "internalType": "string",
          "name": "selector",
          "type": "string"
        },
        {
          "indexed": false,
          "internalType": "string",
          "name": "name",
          "type": "string"
        },
        {
          "indexed": false,
          "internalType": "bool",
          "name": "repeat",
          "type": "bool"
        },
        {
          "indexed": false,
          "internalType": "address",
          "name": "creator",
          "type": "address"
        },
        {
          "indexed": false,
          "internalType": "uint256",
          "name": "credit",
          "type": "uint256"
        },
        {
          "indexed": false,
          "internalType": "bool",
          "name": "fulfilled",
          "type": "bool"
        },
        {
          "indexed": false,
          "internalType": "uint256",
          "name": "timestamp",
          "type": "uint256"
        }
      ],
      "name": "JobReported",
      "type": "event"
    },
    {
      "anonymous": false,
      "inputs": [
        {
          "indexed": true,
          "internalType": "bytes32",
          "name": "role",
          "type": "bytes32"
        },
        {
          "indexed": true,
          "internalType": "bytes32",
          "name": "previousAdminRole",
          "type": "bytes32"
        },
        {
          "indexed": true,
          "internalType": "bytes32",
          "name": "newAdminRole",
          "type": "bytes32"
        }
      ],
      "name": "RoleAdminChanged",
      "type": "event"
    },
    {
      "anonymous": false,
      "inputs": [
        {
          "indexed": true,
          "internalType": "bytes32",
          "name": "role",
          "type": "bytes32"
        },
        {
          "indexed": true,
          "internalType": "address",
          "name": "account",
          "type": "address"
        },
        {
          "indexed": true,
          "internalType": "address",
          "name": "sender",
          "type": "address"
        }
      ],
      "name": "RoleGranted",
      "type": "event"
    },
    {
      "anonymous": false,
      "inputs": [
        {
          "indexed": true,
          "internalType": "bytes32",
          "name": "role",
          "type": "bytes32"
        },
        {
          "indexed": true,
          "internalType": "address",
          "name": "account",
          "type": "address"
        },
        {
          "indexed": true,
          "internalType": "address",
          "name": "sender",
          "type": "address"
        }
      ],
      "name": "RoleRevoked",
      "type": "event"
    },
    {
      "anonymous": false,
      "inputs": [
        {
          "indexed": true,
          "internalType": "address",
          "name": "account",
          "type": "address"
        }
      ],
      "name": "WriterAdded",
      "type": "event"
    },
    {
      "anonymous": false,
      "inputs": [
        {
          "indexed": true,
          "internalType": "address",
          "name": "account",
          "type": "address"
        }
      ],
      "name": "WriterRemoved",
      "type": "event"
    },
    {
      "inputs": [],
      "name": "DEFAULT_ADMIN_ROLE",
      "outputs": [
        {
          "internalType": "bytes32",
          "name": "",
          "type": "bytes32"
        }
      ],
      "stateMutability": "view",
      "type": "function",
      "constant": true
    },
    {
      "inputs": [
        {
          "internalType": "address",
          "name": "account",
          "type": "address"
        }
      ],
      "name": "addWriter",
      "outputs": [],
      "stateMutability": "nonpayable",
      "type": "function"
    },
    {
      "inputs": [
        {
          "internalType": "bytes32",
          "name": "role",
          "type": "bytes32"
        }
      ],
      "name": "getRoleAdmin",
      "outputs": [
        {
          "internalType": "bytes32",
          "name": "",
          "type": "bytes32"
        }
      ],
      "stateMutability": "view",
      "type": "function",
      "constant": true
    },
    {
      "inputs": [
        {
          "internalType": "bytes32",
          "name": "role",
          "type": "bytes32"
        },
        {
          "internalType": "uint256",
          "name": "index",
          "type": "uint256"
        }
      ],
      "name": "getRoleMember",
      "outputs": [
        {
          "internalType": "address",
          "name": "",
          "type": "address"
        }
      ],
      "stateMutability": "view",
      "type": "function",
      "constant": true
    },
    {
      "inputs": [
        {
          "internalType": "bytes32",
          "name": "role",
          "type": "bytes32"
        }
      ],
      "name": "getRoleMemberCount",
      "outputs": [
        {
          "internalType": "uint256",
          "name": "",
          "type": "uint256"
        }
      ],
      "stateMutability": "view",
      "type": "function",
      "constant": true
    },
    {
      "inputs": [
        {
          "internalType": "bytes32",
          "name": "role",
          "type": "bytes32"
        },
        {
          "internalType": "address",
          "name": "account",
          "type": "address"
        }
      ],
      "name": "grantRole",
      "outputs": [],
      "stateMutability": "nonpayable",
      "type": "function"
    },
    {
      "inputs": [
        {
          "internalType": "bytes32",
          "name": "role",
          "type": "bytes32"
        },
        {
          "internalType": "address",
          "name": "account",
          "type": "address"
        }
      ],
      "name": "hasRole",
      "outputs": [
        {
          "internalType": "bool",
          "name": "",
          "type": "bool"
        }
      ],
      "stateMutability": "view",
      "type": "function",
      "constant": true
    },
    {
      "inputs": [
        {
          "internalType": "address",
          "name": "account",
          "type": "address"
        }
      ],
      "name": "isAdmin",
      "outputs": [
        {
          "internalType": "bool",
          "name": "",
          "type": "bool"
        }
      ],
      "stateMutability": "view",
      "type": "function",
      "constant": true
    },
    {
      "inputs": [
        {
          "internalType": "address",
          "name": "account",
          "type": "address"
        }
      ],
      "name": "isWriter",
      "outputs": [
        {
          "internalType": "bool",
          "name": "",
          "type": "bool"
        }
      ],
      "stateMutability": "view",
      "type": "function",
      "constant": true
    },
    {
      "inputs": [
        {
          "internalType": "uint256",
          "name": "",
          "type": "uint256"
        }
      ],
      "name": "jobs",
      "outputs": [
        {
          "internalType": "uint256",
          "name": "id",
          "type": "uint256"
        },
        {
          "internalType": "uint256",
          "name": "epoch",
          "type": "uint256"
        },
        {
          "internalType": "string",
          "name": "url",
          "type": "string"
        },
        {
          "internalType": "string",
          "name": "selector",
          "type": "string"
        },
        {
          "internalType": "string",
          "name": "name",
          "type": "string"
        },
        {
          "internalType": "bool",
          "name": "repeat",
          "type": "bool"
        },
        {
          "internalType": "address",
          "name": "creator",
          "type": "address"
        },
        {
          "internalType": "uint256",
          "name": "credit",
          "type": "uint256"
        },
        {
          "internalType": "bool",
          "name": "fulfilled",
          "type": "bool"
        },
        {
          "internalType": "uint256",
          "name": "result",
          "type": "uint256"
        }
      ],
      "stateMutability": "view",
      "type": "function",
      "constant": true
    },
    {
      "inputs": [],
      "name": "numJobs",
      "outputs": [
        {
          "internalType": "uint256",
          "name": "",
          "type": "uint256"
        }
      ],
      "stateMutability": "view",
      "type": "function",
      "constant": true
    },
    {
      "inputs": [
        {
          "internalType": "bytes32",
          "name": "role",
          "type": "bytes32"
        },
        {
          "internalType": "address",
          "name": "account",
          "type": "address"
        }
      ],
      "name": "renounceRole",
      "outputs": [],
      "stateMutability": "nonpayable",
      "type": "function"
    },
    {
      "inputs": [
        {
          "internalType": "address",
          "name": "account",
          "type": "address"
        }
      ],
      "name": "renounceWriter",
      "outputs": [],
      "stateMutability": "nonpayable",
      "type": "function"
    },
    {
      "inputs": [
        {
          "internalType": "bytes32",
          "name": "role",
          "type": "bytes32"
        },
        {
          "internalType": "address",
          "name": "account",
          "type": "address"
        }
      ],
      "name": "revokeRole",
      "outputs": [],
      "stateMutability": "nonpayable",
      "type": "function"
    },
    {
      "inputs": [],
      "name": "stateManager",
      "outputs": [
        {
          "internalType": "contract IStateManager",
          "name": "",
          "type": "address"
        }
      ],
      "stateMutability": "view",
      "type": "function",
      "constant": true
    },
    {
      "inputs": [
        {
          "internalType": "address",
          "name": "_stateManagerAddress",
          "type": "address"
        }
      ],
      "name": "init",
      "outputs": [],
      "stateMutability": "nonpayable",
      "type": "function"
    },
    {
      "inputs": [
        {
          "internalType": "string",
          "name": "url",
          "type": "string"
        },
        {
          "internalType": "string",
          "name": "selector",
          "type": "string"
        },
        {
          "internalType": "string",
          "name": "name",
          "type": "string"
        },
        {
          "internalType": "bool",
          "name": "repeat",
          "type": "bool"
        }
      ],
      "name": "createJob",
      "outputs": [],
      "stateMutability": "payable",
      "type": "function",
      "payable": true
    },
    {
      "inputs": [
        {
          "internalType": "uint256",
          "name": "jobId",
          "type": "uint256"
        },
        {
          "internalType": "uint256",
          "name": "value",
          "type": "uint256"
        }
      ],
      "name": "fulfillJob",
      "outputs": [],
      "stateMutability": "nonpayable",
      "type": "function"
    },
    {
      "inputs": [
        {
          "internalType": "uint256",
          "name": "id",
          "type": "uint256"
        }
      ],
      "name": "getResult",
      "outputs": [
        {
          "internalType": "uint256",
          "name": "",
          "type": "uint256"
        }
      ],
      "stateMutability": "view",
      "type": "function",
      "constant": true
    },
    {
      "inputs": [
        {
          "internalType": "uint256",
          "name": "id",
          "type": "uint256"
        }
      ],
      "name": "getJob",
      "outputs": [
        {
          "internalType": "string",
          "name": "url",
          "type": "string"
        },
        {
          "internalType": "string",
          "name": "selector",
          "type": "string"
        },
        {
          "internalType": "string",
          "name": "name",
          "type": "string"
        },
        {
          "internalType": "bool",
          "name": "repeat",
          "type": "bool"
        },
        {
          "internalType": "uint256",
          "name": "result",
          "type": "uint256"
        }
      ],
      "stateMutability": "view",
      "type": "function",
      "constant": true
    },
    {
      "inputs": [],
      "name": "getNumJobs",
      "outputs": [
        {
          "internalType": "uint256",
          "name": "",
          "type": "uint256"
        }
      ],
      "stateMutability": "view",
      "type": "function",
      "constant": true
    }
  ],
  "bytecode": "0x60806040523480156200001157600080fd5b506200003e6040516200002490620001e4565b60405190819003902060006001600160e01b036200005a16565b620000546000336001600160e01b03620000ac16565b620001f6565b600082815260208190526040808220600201549051839285917fbd79b86ffe0ab8e8776151514217cd7cacd52c909f66475c3af44e129f0b00ff9190a460009182526020829052604090912060020155565b620000c182826001600160e01b03620000c516565b5050565b600082815260208181526040909120620000ea91839062000e9a62000147821b17901c565b15620000c157620001036001600160e01b036200017016565b6001600160a01b0316816001600160a01b0316837f2f8788117e7eff1d82e926ec794901d17c78024a50270940304540a733656f0d60405160405180910390a45050565b600062000167836001600160a01b0384166001600160e01b036200017416565b90505b92915050565b3390565b60006200018b83836001600160e01b03620001cc16565b620001c3575081546001818101845560008481526020808220909301849055845484825282860190935260409020919091556200016a565b5060006200016a565b60009081526001919091016020526040902054151590565b652ba924aa22a960d11b815260060190565b6119a580620002066000396000f3fe60806040526004361061012a5760003560e01c80637e0c00ed116100ab5780639c24730d1161006f5780639c24730d14610329578063a217fddf14610349578063bf22c4571461035e578063ca15c8731461038f578063d547741f146103af578063da2824a8146103cf5761012a565b80637e0c00ed1461029f5780639010d07c146102b457806391d14854146102d45780639212051c146102f4578063995e4339146103095761012a565b80632e716fb1116100f25780632e716fb11461020a5780632f2ff15d1461022c57806336568abe1461024c57806356350bdf1461026c578063628aff1d1461028c5761012a565b8063180aedf31461012f57806319ab453c1461016e578063248a9ca31461019057806324d7806c146101bd5780632b29ba23146101ea575b600080fd5b34801561013b57600080fd5b5061014f61014a366004611351565b6103ef565b6040516101659a99989796959493929190611857565b60405180910390f35b34801561017a57600080fd5b5061018e61018936600461132a565b610601565b005b34801561019c57600080fd5b506101b06101ab366004611351565b610623565b60405161016591906115b3565b3480156101c957600080fd5b506101dd6101d836600461132a565b610638565b60405161016591906115a8565b3480156101f657600080fd5b506101dd61020536600461132a565b61064a565b34801561021657600080fd5b5061021f610669565b6040516101659190611594565b34801561023857600080fd5b5061018e610247366004611369565b610678565b34801561025857600080fd5b5061018e610267366004611369565b6106c9565b34801561027857600080fd5b5061018e6102873660046113a3565b61070b565b61018e61029a3660046113c4565b610858565b3480156102ab57600080fd5b506101b0610b11565b3480156102c057600080fd5b5061021f6102cf3660046113a3565b610b18565b3480156102e057600080fd5b506101dd6102ef366004611369565b610b3d565b34801561030057600080fd5b506101b0610b5b565b34801561031557600080fd5b506101b0610324366004611351565b610b61565b34801561033557600080fd5b5061018e61034436600461132a565b610b76565b34801561035557600080fd5b506101b0610ba7565b34801561036a57600080fd5b5061037e610379366004611351565b610bac565b6040516101659594939291906115bc565b34801561039b57600080fd5b506101b06103aa366004611351565b610e1b565b3480156103bb57600080fd5b5061018e6103ca366004611369565b610e32565b3480156103db57600080fd5b5061018e6103ea36600461132a565b610e6c565b6001602052806000526040600020600091509050806000015490806001015490806002018054600181600116156101000203166002900480601f0160208091040260200160405190810160405280929190818152602001828054600181600116156101000203166002900480156104a75780601f1061047c576101008083540402835291602001916104a7565b820191906000526020600020905b81548152906001019060200180831161048a57829003601f168201915b5050505060038301805460408051602060026001851615610100026000190190941693909304601f81018490048402820184019092528181529495949350908301828280156105375780601f1061050c57610100808354040283529160200191610537565b820191906000526020600020905b81548152906001019060200180831161051a57829003601f168201915b5050505060048301805460408051602060026001851615610100026000190190941693909304601f81018490048402820184019092528181529495949350908301828280156105c75780601f1061059c576101008083540402835291602001916105c7565b820191906000526020600020905b8154815290600101906020018083116105aa57829003601f168201915b50505050600583015460068401546007850154600890950154939460ff808416956101009094046001600160a01b0316945091929116908a565b600380546001600160a01b0319166001600160a01b0392909216919091179055565b60009081526020819052604090206002015490565b60006106448183610b3d565b92915050565b600061064460405161065b90611582565b604051809103902083610b3d565b6003546001600160a01b031681565b600082815260208190526040902060020154610696906102ef610eaf565b6106bb5760405162461bcd60e51b81526004016106b29061164b565b60405180910390fd5b6106c58282610eb3565b5050565b6106d1610eaf565b6001600160a01b0316816001600160a01b0316146107015760405162461bcd60e51b81526004016106b290611788565b6106c58282610f22565b6107143361064a565b6107305760405162461bcd60e51b81526004016106b290611738565b60008281526001602090815260408083206003548251630eaf323560e31b815292519194936001600160a01b039091169263757991a89260048083019392829003018186803b15801561078257600080fd5b505afa158015610796573d6000803e3d6000fd5b505050506040513d601f19601f820116820180604052508101906107ba9190611472565b600583015490915060ff166107d95760078201805460ff191660011790555b81546005830154600684015460078501546040517f9028bea5bfa7ed26c48df402d89085a995447dc8c1fb167cb92a3c7411b54480946108489490938993889360028b019360038c019360048d019360ff808416946101009094046001600160a01b03169391169042906118d9565b60405180910390a1506008015550565b60028054600101905560035460408051630eaf323560e31b815290516000926001600160a01b03169163757991a8916004808301926020929190829003018186803b1580156108a657600080fd5b505afa1580156108ba573d6000803e3d6000fd5b505050506040513d601f19601f820116820180604052508101906108de9190611472565b90506108e86111eb565b60405180610140016040528060025481526020018381526020018a8a8080601f016020809104026020016040519081016040528093929190818152602001838380828437600092019190915250505090825250604080516020601f8b0181900481028201810190925289815291810191908a908a9081908401838280828437600092019190915250505090825250604080516020601f8901819004810282018101909252878152918101919088908890819084018382808284376000920182905250938552505050851515602080840191909152336040808501919091523460608501526080840183905260a090930182905260028054835260018083529284902085518155858301519381019390935592840151805194955085949293610a189390850192919091019061124b565b5060608201518051610a3491600384019160209091019061124b565b5060808201518051610a5091600484019160209091019061124b565b5060a082015160058201805460c085015160ff1991821693151593909317610100600160a81b0319166101006001600160a01b0390941684021790915560e0840151600684015590830151600783018054909216901515179055610120909101516008909101556002546040517fd4ae17fdeb78e69409330361e8f8475f8027928c6f28eae2195e5ae56570aba091610afe9185908d908d908d908d908d908d908d903390349042906117d7565b60405180910390a1505050505050505050565b6002545b90565b6000828152602081905260408120610b36908363ffffffff610f9116565b9392505050565b6000828152602081905260408120610b36908363ffffffff610f9d16565b60025481565b60009081526001602052604090206008015490565b610b7f33610638565b610b9b5760405162461bcd60e51b81526004016106b2906116ea565b610ba481610fb2565b50565b600081565b6060806060600080610bbc6111eb565b6000878152600160208181526040928390208351610140810185528154815281840154818401526002808301805487519681161561010002600019011691909104601f810185900485028601850187528086529195929492860193909190830182828015610c6b5780601f10610c4057610100808354040283529160200191610c6b565b820191906000526020600020905b815481529060010190602001808311610c4e57829003601f168201915b505050918352505060038201805460408051602060026001851615610100026000190190941693909304601f8101849004840282018401909252818152938201939291830182828015610cff5780601f10610cd457610100808354040283529160200191610cff565b820191906000526020600020905b815481529060010190602001808311610ce257829003601f168201915b505050918352505060048201805460408051602060026001851615610100026000190190941693909304601f8101849004840282018401909252818152938201939291830182828015610d935780601f10610d6857610100808354040283529160200191610d93565b820191906000526020600020905b815481529060010190602001808311610d7657829003601f168201915b5050509183525050600582015460ff808216151560208401526101009091046001600160a01b031660408084019190915260068401546060808501919091526007850154909216151560808085019190915260089094015460a09384015284015190840151928401519184015161012090940151909b929a5090985091965090945092505050565b600081815260208190526040812061064490611006565b600082815260208190526040902060020154610e50906102ef610eaf565b6107015760405162461bcd60e51b81526004016106b29061169a565b610e7533610638565b610e915760405162461bcd60e51b81526004016106b2906116ea565b610ba481611011565b6000610b36836001600160a01b038416611065565b3390565b6000828152602081905260409020610ed1908263ffffffff610e9a16565b156106c557610ede610eaf565b6001600160a01b0316816001600160a01b0316837f2f8788117e7eff1d82e926ec794901d17c78024a50270940304540a733656f0d60405160405180910390a45050565b6000828152602081905260409020610f40908263ffffffff6110af16565b156106c557610f4d610eaf565b6001600160a01b0316816001600160a01b0316837ff6391f5c32d9c69d2a47ea670b442974b53935d1edc7fd64eb21e047a839171b60405160405180910390a45050565b6000610b3683836110c4565b6000610b36836001600160a01b038416611109565b610fcf604051610fc190611582565b604051809103902082610e32565b6040516001600160a01b038216907f86e5bbceda94081c32220d685f37cc4e3ea7bb0be2dfbf0cb703579505a5390e90600090a250565b600061064482611121565b61102e60405161102090611582565b604051809103902082610678565b6040516001600160a01b038216907f6ff3aa2ea7b53070f6d9d07a445d338d89e8edef44250ffa8be19f53910d4a2e90600090a250565b60006110718383611109565b6110a757508154600181810184556000848152602080822090930184905584548482528286019093526040902091909155610644565b506000610644565b6000610b36836001600160a01b038416611125565b815460009082106110e75760405162461bcd60e51b81526004016106b290611609565b8260000182815481106110f657fe5b9060005260206000200154905092915050565b60009081526001919091016020526040902054151590565b5490565b600081815260018301602052604081205480156111e1578354600019808301919081019060009087908390811061115857fe5b906000526020600020015490508087600001848154811061117557fe5b6000918252602080832090910192909255828152600189810190925260409020908401905586548790806111a557fe5b60019003818190600052602060002001600090559055866001016000878152602001908152602001600020600090556001945050505050610644565b6000915050610644565b604051806101400160405280600081526020016000815260200160608152602001606081526020016060815260200160001515815260200160006001600160a01b0316815260200160008152602001600015158152602001600081525090565b828054600181600116156101000203166002900490600052602060002090601f016020900481019282601f1061128c57805160ff19168380011785556112b9565b828001600101855582156112b9579182015b828111156112b957825182559160200191906001019061129e565b506112c59291506112c9565b5090565b610b1591905b808211156112c557600081556001016112cf565b60008083601f8401126112f4578182fd5b50813567ffffffffffffffff81111561130b578182fd5b60208301915083602082850101111561132357600080fd5b9250929050565b60006020828403121561133b578081fd5b81356001600160a01b0381168114610b36578182fd5b600060208284031215611362578081fd5b5035919050565b6000806040838503121561137b578081fd5b8235915060208301356001600160a01b0381168114611398578182fd5b809150509250929050565b600080604083850312156113b5578182fd5b50508035926020909101359150565b60008060008060008060006080888a0312156113de578283fd5b873567ffffffffffffffff808211156113f5578485fd5b6114018b838c016112e3565b909950975060208a0135915080821115611419578485fd5b6114258b838c016112e3565b909750955060408a013591508082111561143d578485fd5b5061144a8a828b016112e3565b90945092505060608801358015158114611462578182fd5b8091505092959891949750929550565b600060208284031215611483578081fd5b5051919050565b60008284528282602086013780602084860101526020601f19601f85011685010190509392505050565b60008151808452815b818110156114d9576020818501810151868301820152016114bd565b818111156114ea5782602083870101525b50601f01601f19169290920160200192915050565b6000815460018082166000811461151d576001811461153b57611579565b60028304607f16865260ff1983166020870152604086019350611579565b6002830480875261154b86611963565b60005b8281101561156f5781546020828b010152848201915060208101905061154e565b8801602001955050505b50505092915050565b652ba924aa22a960d11b815260060190565b6001600160a01b0391909116815260200190565b901515815260200190565b90815260200190565b600060a082526115cf60a08301886114b4565b82810360208401526115e181886114b4565b83810360408501526115f381886114b4565b9515156060850152505050608001529392505050565b60208082526022908201527f456e756d657261626c655365743a20696e646578206f7574206f6620626f756e604082015261647360f01b606082015260800190565b6020808252602f908201527f416363657373436f6e74726f6c3a2073656e646572206d75737420626520616e60408201526e0818591b5a5b881d1bc819dc985b9d608a1b606082015260800190565b60208082526030908201527f416363657373436f6e74726f6c3a2073656e646572206d75737420626520616e60408201526f2061646d696e20746f207265766f6b6560801b606082015260800190565b6020808252602e908201527f41646d696e526f6c653a2063616c6c657220646f6573206e6f7420686176652060408201526d7468652041646d696e20726f6c6560901b606082015260800190565b60208082526030908201527f577269746572526f6c653a2063616c6c657220646f6573206e6f74206861766560408201526f207468652057726974657220726f6c6560801b606082015260800190565b6020808252602f908201527f416363657373436f6e74726f6c3a2063616e206f6e6c792072656e6f756e636560408201526e103937b632b9903337b91039b2b63360891b606082015260800190565b60006101208e83528d60208401528060408401526117f88184018d8f61148a565b838103606085015261180b818c8e61148a565b915050828103608084015261182181898b61148a565b96151560a084015250506001600160a01b039390931660c084015260e08301919091526101009091015298975050505050505050565b60006101408c83528b60208401528060408401526118778184018c6114b4565b8381036060850152611889818c6114b4565b915050828103608084015261189e818a6114b4565b97151560a084015250506001600160a01b039490941660c085015260e084019290925215156101008301526101209091015295945050505050565b60006101608d83528c60208401528b60408401528060608401526118ff8184018c6114ff565b8381036080850152611911818c6114ff565b91505082810360a0840152611926818a6114ff565b97151560c084015250506001600160a01b039490941660e08501526101008401929092521515610120830152610140909101529695505050505050565b6000908152602090209056fea264697066735822122076bb5c1ec119d385a63d7722fe9d5bc8dd93d28ed20e121dce122ccfbbeca5df64736f6c634300060b0033",
  "source": "pragma solidity 0.6.11;\npragma experimental ABIEncoderV2;\nimport \"./JobStorage.sol\";\nimport \"./IStateManager.sol\";\nimport \"openzeppelin-solidity/contracts/math/SafeMath.sol\";\nimport \"./WriterRole.sol\";\n\n\ncontract JobManager is WriterRole, JobStorage {\n\n    event JobCreated(uint256 id, uint256 epoch, string url, string selector, string name, bool repeat,\n                            address creator, uint256 credit, uint256 timestamp);\n    // event JobFulfilled(uint256 id, uint256 epoch, string url, string selector, bool repeat,\n    //                     address creator, uint256 credit, bool fulfulled);\n\n    event JobReported(uint256 id, uint256 value, uint256 epoch,\n                        string url, string selector, string name, bool repeat,\n                        address creator, uint256 credit, bool fulfilled, uint256 timestamp);\n\n    IStateManager public stateManager;\n\n    //disable after init.\n    function init(address _stateManagerAddress) external {\n        stateManager = IStateManager(_stateManagerAddress);\n    }\n\n    function createJob (string calldata url, string calldata selector, string calldata name, bool repeat) external payable {\n        numJobs = numJobs + 1;\n        uint256 epoch = stateManager.getEpoch();\n        Structs.Job memory job = Structs.Job(numJobs, epoch, url, selector, name, repeat, msg.sender, msg.value, false, 0);\n        jobs[numJobs] = job;\n        emit JobCreated(numJobs, epoch, url, selector, name, repeat, msg.sender, msg.value, now);\n        // jobs.push(job);\n    }\n\n    function fulfillJob(uint256 jobId, uint256 value) external onlyWriter {\n        Structs.Job storage job = jobs[jobId];\n        uint256 epoch = stateManager.getEpoch();\n\n        if (!job.repeat) {\n            job.fulfilled = true;\n            // emit JobFulfilled(job.id, epoch, job.url, job.selector,\n            //job.repeat, job.creator, job.credit, job.fulfilled);\n        }\n        emit JobReported(job.id, value, epoch, job.url, job.selector, job.name, job.repeat,\n        job.creator, job.credit, job.fulfilled, now);\n        job.result = value;\n    }\n\n    function getResult(uint256 id) external view returns(uint256) {\n        return jobs[id].result;\n    }\n\n    function getJob(uint256 id) external view returns(string memory url, string memory selector, string memory name, bool repeat, uint256 result) {\n        Structs.Job memory job = jobs[id];\n        return(job.url, job.selector, job.name, job.repeat, job.result);\n    }\n\n    function getNumJobs() external view returns(uint256) {\n        return numJobs;\n    }\n}\n",
  "sourcePath": "/home/user/Documents/intern/contracts/contracts/Core/JobManager.sol",
  "compiler": {
    "name": "solc",
    "version": "0.6.11+commit.5ef660b1.Emscripten.clang"
  },
  "schemaVersion": "3.0.23",
  "updatedAt": "2020-12-21T11:43:01.219Z",
  "networkType": "ethereum",
  "devdoc": {
    "kind": "dev",
    "methods": {
      "getRoleAdmin(bytes32)": {
        "details": "Returns the admin role that controls `role`. See {grantRole} and {revokeRole}. To change a role's admin, use {_setRoleAdmin}."
      },
      "getRoleMember(bytes32,uint256)": {
        "details": "Returns one of the accounts that have `role`. `index` must be a value between 0 and {getRoleMemberCount}, non-inclusive. Role bearers are not sorted in any particular way, and their ordering may change at any point. WARNING: When using {getRoleMember} and {getRoleMemberCount}, make sure you perform all queries on the same block. See the following https://forum.openzeppelin.com/t/iterating-over-elements-on-enumerableset-in-openzeppelin-contracts/2296[forum post] for more information."
      },
      "getRoleMemberCount(bytes32)": {
        "details": "Returns the number of accounts that have `role`. Can be used together with {getRoleMember} to enumerate all bearers of a role."
      },
      "grantRole(bytes32,address)": {
        "details": "Grants `role` to `account`. If `account` had not been already granted `role`, emits a {RoleGranted} event. Requirements: - the caller must have ``role``'s admin role."
      },
      "hasRole(bytes32,address)": {
        "details": "Returns `true` if `account` has been granted `role`."
      },
      "renounceRole(bytes32,address)": {
        "details": "Revokes `role` from the calling account. Roles are often managed via {grantRole} and {revokeRole}: this function's purpose is to provide a mechanism for accounts to lose their privileges if they are compromised (such as when a trusted device is misplaced). If the calling account had been granted `role`, emits a {RoleRevoked} event. Requirements: - the caller must be `account`."
      },
      "revokeRole(bytes32,address)": {
        "details": "Revokes `role` from `account`. If `account` had been granted `role`, emits a {RoleRevoked} event. Requirements: - the caller must have ``role``'s admin role."
      }
    },
    "version": 1
  },
  "userdoc": {
    "kind": "user",
    "methods": {},
    "version": 1
  }
}