{
  "contractName": "JobStorage",
  "abi": [
    {
      "constant": true,
      "inputs": [
        {
          "name": "",
          "type": "uint256"
        }
      ],
      "name": "jobs",
      "outputs": [
        {
          "name": "id",
          "type": "uint256"
        },
        {
          "name": "epoch",
          "type": "uint256"
        },
        {
          "name": "url",
          "type": "string"
        },
        {
          "name": "selector",
          "type": "string"
        },
        {
          "name": "name",
          "type": "string"
        },
        {
          "name": "repeat",
          "type": "bool"
        },
        {
          "name": "creator",
          "type": "address"
        },
        {
          "name": "credit",
          "type": "uint256"
        },
        {
          "name": "fulfilled",
          "type": "bool"
        },
        {
          "name": "result",
          "type": "uint256"
        }
      ],
      "payable": false,
      "stateMutability": "view",
      "type": "function"
    },
    {
      "constant": true,
      "inputs": [],
      "name": "numJobs",
      "outputs": [
        {
          "name": "",
          "type": "uint256"
        }
      ],
      "payable": false,
      "stateMutability": "view",
      "type": "function"
    }
  ],
  "bytecode": "0x608060405234801561001057600080fd5b50610488806100206000396000f3fe608060405234801561001057600080fd5b50600436106100365760003560e01c8063180aedf31461003b5780639212051c1461006d575b600080fd5b61004e610049366004610291565b610082565b6040516100649a9998979695949392919061031e565b60405180910390f35b61007561027a565b6040516100649190610310565b6000602081815291815260409081902080546001808301546002808501805487519481161561010002600019011691909104601f810188900488028401880190965285835292959094919291908301828280156101205780601f106100f557610100808354040283529160200191610120565b820191906000526020600020905b81548152906001019060200180831161010357829003601f168201915b5050505060038301805460408051602060026001851615610100026000190190941693909304601f81018490048402820184019092528181529495949350908301828280156101b05780601f10610185576101008083540402835291602001916101b0565b820191906000526020600020905b81548152906001019060200180831161019357829003601f168201915b5050505060048301805460408051602060026001851615610100026000190190941693909304601f81018490048402820184019092528181529495949350908301828280156102405780601f1061021557610100808354040283529160200191610240565b820191906000526020600020905b81548152906001019060200180831161022357829003601f168201915b50505050600583015460068401546007850154600890950154939460ff808416956101009094046001600160a01b0316945091929116908a565b60015481565b803561028b8161042e565b92915050565b6000602082840312156102a357600080fd5b60006102af8484610280565b949350505050565b6102c0816103d5565b82525050565b6102c0816103e0565b60006102da826103c8565b6102e481856103cc565b93506102f48185602086016103f4565b6102fd81610424565b9093019392505050565b6102c0816103f1565b6020810161028b8284610307565b610140810161032d828d610307565b61033a602083018c610307565b818103604083015261034c818b6102cf565b90508181036060830152610360818a6102cf565b9050818103608083015261037481896102cf565b905061038360a08301886102c6565b61039060c08301876102b7565b61039d60e0830186610307565b6103ab6101008301856102c6565b6103b9610120830184610307565b9b9a5050505050505050505050565b5190565b90815260200190565b600061028b826103e5565b151590565b6001600160a01b031690565b90565b60005b8381101561040f5781810151838201526020016103f7565b8381111561041e576000848401525b50505050565b601f01601f191690565b610437816103f1565b811461044257600080fd5b5056fea365627a7a72305820a5ba086ae5200334fc0fca74edc6df8bb80614d26f6aad259b9583b112dc2c186c6578706572696d656e74616cf564736f6c634300050a0040",
  "source": "pragma solidity 0.5.10;\npragma experimental ABIEncoderV2;\nimport \"../lib/Structs.sol\";\n\n\ncontract JobStorage {\n    mapping (uint256 => Structs.Job) public jobs;\n    uint256 public numJobs;\n}\n",
  "sourcePath": "/Users/hrishi/contracts/contracts/Core/JobStorage.sol",
  "compiler": {
    "name": "solc",
    "version": "0.5.10+commit.5a6ea5b1.Emscripten.clang"
  },
  "schemaVersion": "3.0.20",
  "updatedAt": "2019-12-25T04:19:39.161Z",
  "devdoc": {
    "methods": {}
  },
  "userdoc": {
    "methods": {}
  }
}