{
  "contractName": "ResultProxy",
  "abi": [
    {
      "anonymous": false,
      "inputs": [
        {
          "indexed": true,
          "internalType": "bytes32",
          "name": "role",
          "type": "bytes32"
        },
        {
          "indexed": true,
          "internalType": "bytes32",
          "name": "previousAdminRole",
          "type": "bytes32"
        },
        {
          "indexed": true,
          "internalType": "bytes32",
          "name": "newAdminRole",
          "type": "bytes32"
        }
      ],
      "name": "RoleAdminChanged",
      "type": "event"
    },
    {
      "anonymous": false,
      "inputs": [
        {
          "indexed": true,
          "internalType": "bytes32",
          "name": "role",
          "type": "bytes32"
        },
        {
          "indexed": true,
          "internalType": "address",
          "name": "account",
          "type": "address"
        },
        {
          "indexed": true,
          "internalType": "address",
          "name": "sender",
          "type": "address"
        }
      ],
      "name": "RoleGranted",
      "type": "event"
    },
    {
      "anonymous": false,
      "inputs": [
        {
          "indexed": true,
          "internalType": "bytes32",
          "name": "role",
          "type": "bytes32"
        },
        {
          "indexed": true,
          "internalType": "address",
          "name": "account",
          "type": "address"
        },
        {
          "indexed": true,
          "internalType": "address",
          "name": "sender",
          "type": "address"
        }
      ],
      "name": "RoleRevoked",
      "type": "event"
    },
    {
      "anonymous": false,
      "inputs": [
        {
          "indexed": true,
          "internalType": "address",
          "name": "account",
          "type": "address"
        }
      ],
      "name": "WriterAdded",
      "type": "event"
    },
    {
      "anonymous": false,
      "inputs": [
        {
          "indexed": true,
          "internalType": "address",
          "name": "account",
          "type": "address"
        }
      ],
      "name": "WriterRemoved",
      "type": "event"
    },
    {
      "inputs": [],
      "name": "DEFAULT_ADMIN_ROLE",
      "outputs": [
        {
          "internalType": "bytes32",
          "name": "",
          "type": "bytes32"
        }
      ],
      "stateMutability": "view",
      "type": "function"
    },
    {
      "inputs": [
        {
          "internalType": "address",
          "name": "account",
          "type": "address"
        }
      ],
      "name": "addWriter",
      "outputs": [],
      "stateMutability": "nonpayable",
      "type": "function"
    },
    {
      "inputs": [
        {
          "internalType": "bytes32",
          "name": "role",
          "type": "bytes32"
        }
      ],
      "name": "getRoleAdmin",
      "outputs": [
        {
          "internalType": "bytes32",
          "name": "",
          "type": "bytes32"
        }
      ],
      "stateMutability": "view",
      "type": "function"
    },
    {
      "inputs": [
        {
          "internalType": "bytes32",
          "name": "role",
          "type": "bytes32"
        },
        {
          "internalType": "uint256",
          "name": "index",
          "type": "uint256"
        }
      ],
      "name": "getRoleMember",
      "outputs": [
        {
          "internalType": "address",
          "name": "",
          "type": "address"
        }
      ],
      "stateMutability": "view",
      "type": "function"
    },
    {
      "inputs": [
        {
          "internalType": "bytes32",
          "name": "role",
          "type": "bytes32"
        }
      ],
      "name": "getRoleMemberCount",
      "outputs": [
        {
          "internalType": "uint256",
          "name": "",
          "type": "uint256"
        }
      ],
      "stateMutability": "view",
      "type": "function"
    },
    {
      "inputs": [
        {
          "internalType": "bytes32",
          "name": "role",
          "type": "bytes32"
        },
        {
          "internalType": "address",
          "name": "account",
          "type": "address"
        }
      ],
      "name": "grantRole",
      "outputs": [],
      "stateMutability": "nonpayable",
      "type": "function"
    },
    {
      "inputs": [
        {
          "internalType": "bytes32",
          "name": "role",
          "type": "bytes32"
        },
        {
          "internalType": "address",
          "name": "account",
          "type": "address"
        }
      ],
      "name": "hasRole",
      "outputs": [
        {
          "internalType": "bool",
          "name": "",
          "type": "bool"
        }
      ],
      "stateMutability": "view",
      "type": "function"
    },
    {
      "inputs": [
        {
          "internalType": "address",
          "name": "account",
          "type": "address"
        }
      ],
      "name": "isAdmin",
      "outputs": [
        {
          "internalType": "bool",
          "name": "",
          "type": "bool"
        }
      ],
      "stateMutability": "view",
      "type": "function"
    },
    {
      "inputs": [
        {
          "internalType": "address",
          "name": "account",
          "type": "address"
        }
      ],
      "name": "isWriter",
      "outputs": [
        {
          "internalType": "bool",
          "name": "",
          "type": "bool"
        }
      ],
      "stateMutability": "view",
      "type": "function"
    },
    {
      "inputs": [],
      "name": "jobManagerAddress",
      "outputs": [
        {
          "internalType": "address",
          "name": "",
          "type": "address"
        }
      ],
      "stateMutability": "view",
      "type": "function"
    },
    {
      "inputs": [
        {
          "internalType": "bytes32",
          "name": "role",
          "type": "bytes32"
        },
        {
          "internalType": "address",
          "name": "account",
          "type": "address"
        }
      ],
      "name": "renounceRole",
      "outputs": [],
      "stateMutability": "nonpayable",
      "type": "function"
    },
    {
      "inputs": [
        {
          "internalType": "address",
          "name": "account",
          "type": "address"
        }
      ],
      "name": "renounceWriter",
      "outputs": [],
      "stateMutability": "nonpayable",
      "type": "function"
    },
    {
      "inputs": [
        {
          "internalType": "bytes32",
          "name": "role",
          "type": "bytes32"
        },
        {
          "internalType": "address",
          "name": "account",
          "type": "address"
        }
      ],
      "name": "revokeRole",
      "outputs": [],
      "stateMutability": "nonpayable",
      "type": "function"
    },
    {
      "inputs": [
        {
          "internalType": "address",
          "name": "_jobManagerAddress",
          "type": "address"
        }
      ],
      "name": "changeJobManagerAddress",
      "outputs": [],
      "stateMutability": "nonpayable",
      "type": "function"
    }
  ],
  "bytecode": "0x608060405234801561001057600080fd5b5060408051652ba924aa22a960d11b815290519081900360060190206100409060006001600160e01b0361005916565b6100546000336001600160e01b036100ab16565b6101d4565b600082815260208190526040808220600201549051839285917fbd79b86ffe0ab8e8776151514217cd7cacd52c909f66475c3af44e129f0b00ff9190a460009182526020829052604090912060020155565b6100be82826001600160e01b036100c216565b5050565b6000828152602081815260409091206100e49183906105f461013e821b17901c565b156100be576100fa6001600160e01b0361016516565b6001600160a01b0316816001600160a01b0316837f2f8788117e7eff1d82e926ec794901d17c78024a50270940304540a733656f0d60405160405180910390a45050565b600061015c836001600160a01b0384166001600160e01b0361016916565b90505b92915050565b3390565b600061017e83836001600160e01b036101bc16565b6101b45750815460018181018455600084815260208082209093018490558454848252828601909352604090209190915561015f565b50600061015f565b60009081526001919091016020526040902054151590565b610ab8806101e36000396000f3fe608060405234801561001057600080fd5b50600436106100ea5760003560e01c80639c24730d1161008c578063ca15c87311610066578063ca15c87314610297578063d547741f146102b4578063da2824a8146102e0578063de13c46f14610306576100ea565b80639c24730d14610243578063a217fddf14610269578063a565334514610271576100ea565b80632f2ff15d116100c85780632f2ff15d1461017e57806336568abe146101ac5780639010d07c146101d857806391d1485414610217576100ea565b8063248a9ca3146100ef57806324d7806c1461011e5780632b29ba2314610158575b600080fd5b61010c6004803603602081101561010557600080fd5b503561030e565b60408051918252519081900360200190f35b6101446004803603602081101561013457600080fd5b50356001600160a01b0316610323565b604080519115158252519081900360200190f35b6101446004803603602081101561016e57600080fd5b50356001600160a01b0316610335565b6101aa6004803603604081101561019457600080fd5b50803590602001356001600160a01b031661035d565b005b6101aa600480360360408110156101c257600080fd5b50803590602001356001600160a01b03166103c9565b6101fb600480360360408110156101ee57600080fd5b508035906020013561042a565b604080516001600160a01b039092168252519081900360200190f35b6101446004803603604081101561022d57600080fd5b50803590602001356001600160a01b031661044f565b6101aa6004803603602081101561025957600080fd5b50356001600160a01b031661046d565b61010c6104bd565b6101aa6004803603602081101561028757600080fd5b50356001600160a01b03166104c2565b61010c600480360360208110156102ad57600080fd5b5035610528565b6101aa600480360360408110156102ca57600080fd5b50803590602001356001600160a01b031661053f565b6101aa600480360360208110156102f657600080fd5b50356001600160a01b0316610598565b6101fb6105e5565b60009081526020819052604090206002015490565b600061032f818361044f565b92915050565b60408051652ba924aa22a960d11b8152905190819003600601902060009061032f908361044f565b6000828152602081905260409020600201546103809061037b610609565b61044f565b6103bb5760405162461bcd60e51b815260040180806020018281038252602f815260200180610997602f913960400191505060405180910390fd5b6103c5828261060d565b5050565b6103d1610609565b6001600160a01b0316816001600160a01b0316146104205760405162461bcd60e51b815260040180806020018281038252602f815260200180610a54602f913960400191505060405180910390fd5b6103c5828261067c565b6000828152602081905260408120610448908363ffffffff6106eb16565b9392505050565b6000828152602081905260408120610448908363ffffffff6106f716565b61047633610323565b6104b15760405162461bcd60e51b815260040180806020018281038252602e8152602001806109f6602e913960400191505060405180910390fd5b6104ba8161070c565b50565b600081565b6104cb33610335565b6105065760405162461bcd60e51b8152600401808060200182810382526030815260200180610a246030913960400191505060405180910390fd5b600180546001600160a01b0319166001600160a01b0392909216919091179055565b600081815260208190526040812061032f90610768565b60008281526020819052604090206002015461055d9061037b610609565b6104205760405162461bcd60e51b81526004018080602001828103825260308152602001806109c66030913960400191505060405180910390fd5b6105a133610323565b6105dc5760405162461bcd60e51b815260040180806020018281038252602e8152602001806109f6602e913960400191505060405180910390fd5b6104ba81610773565b6001546001600160a01b031681565b6000610448836001600160a01b0384166107cf565b3390565b600082815260208190526040902061062b908263ffffffff6105f416565b156103c557610638610609565b6001600160a01b0316816001600160a01b0316837f2f8788117e7eff1d82e926ec794901d17c78024a50270940304540a733656f0d60405160405180910390a45050565b600082815260208190526040902061069a908263ffffffff61081916565b156103c5576106a7610609565b6001600160a01b0316816001600160a01b0316837ff6391f5c32d9c69d2a47ea670b442974b53935d1edc7fd64eb21e047a839171b60405160405180910390a45050565b6000610448838361082e565b6000610448836001600160a01b038416610892565b60408051652ba924aa22a960d11b81529051908190036006019020610731908261053f565b6040516001600160a01b038216907f86e5bbceda94081c32220d685f37cc4e3ea7bb0be2dfbf0cb703579505a5390e90600090a250565b600061032f826108aa565b60408051652ba924aa22a960d11b81529051908190036006019020610798908261035d565b6040516001600160a01b038216907f6ff3aa2ea7b53070f6d9d07a445d338d89e8edef44250ffa8be19f53910d4a2e90600090a250565b60006107db8383610892565b6108115750815460018181018455600084815260208082209093018490558454848252828601909352604090209190915561032f565b50600061032f565b6000610448836001600160a01b0384166108ae565b815460009082106108705760405162461bcd60e51b81526004018080602001828103825260228152602001806109756022913960400191505060405180910390fd5b82600001828154811061087f57fe5b9060005260206000200154905092915050565b60009081526001919091016020526040902054151590565b5490565b6000818152600183016020526040812054801561096a57835460001980830191908101906000908790839081106108e157fe5b90600052602060002001549050808760000184815481106108fe57fe5b60009182526020808320909101929092558281526001898101909252604090209084019055865487908061092e57fe5b6001900381819060005260206000200160009055905586600101600087815260200190815260200160002060009055600194505050505061032f565b600091505061032f56fe456e756d657261626c655365743a20696e646578206f7574206f6620626f756e6473416363657373436f6e74726f6c3a2073656e646572206d75737420626520616e2061646d696e20746f206772616e74416363657373436f6e74726f6c3a2073656e646572206d75737420626520616e2061646d696e20746f207265766f6b6541646d696e526f6c653a2063616c6c657220646f6573206e6f742068617665207468652041646d696e20726f6c65577269746572526f6c653a2063616c6c657220646f6573206e6f742068617665207468652057726974657220726f6c65416363657373436f6e74726f6c3a2063616e206f6e6c792072656e6f756e636520726f6c657320666f722073656c66a2646970667358221220b8e7bf9306fe5808f886b33101e2a9d351a2e6973a646b09a310d9a689ef2a9964736f6c634300060b0033",
  "source": "pragma solidity 0.6.11;\nimport \"./Core/WriterRole.sol\";\n\ncontract ResultProxy is WriterRole {\n    address public jobManagerAddress;\n\n    function changeJobManagerAddress(address _jobManagerAddress) external onlyWriter {\n        jobManagerAddress = _jobManagerAddress;\n    }\n\n\n}\n",
  "sourcePath": "/home/user/Documents/intern/contracts/contracts/ResultProxy.sol",
  "compiler": {
    "name": "solc",
    "version": "0.6.11+commit.5ef660b1.Emscripten.clang"
  },
  "schemaVersion": "3.0.23",
  "updatedAt": "2020-12-21T11:27:28.088Z",
  "devdoc": {
    "kind": "dev",
    "methods": {
      "getRoleAdmin(bytes32)": {
        "details": "Returns the admin role that controls `role`. See {grantRole} and {revokeRole}. To change a role's admin, use {_setRoleAdmin}."
      },
      "getRoleMember(bytes32,uint256)": {
        "details": "Returns one of the accounts that have `role`. `index` must be a value between 0 and {getRoleMemberCount}, non-inclusive. Role bearers are not sorted in any particular way, and their ordering may change at any point. WARNING: When using {getRoleMember} and {getRoleMemberCount}, make sure you perform all queries on the same block. See the following https://forum.openzeppelin.com/t/iterating-over-elements-on-enumerableset-in-openzeppelin-contracts/2296[forum post] for more information."
      },
      "getRoleMemberCount(bytes32)": {
        "details": "Returns the number of accounts that have `role`. Can be used together with {getRoleMember} to enumerate all bearers of a role."
      },
      "grantRole(bytes32,address)": {
        "details": "Grants `role` to `account`. If `account` had not been already granted `role`, emits a {RoleGranted} event. Requirements: - the caller must have ``role``'s admin role."
      },
      "hasRole(bytes32,address)": {
        "details": "Returns `true` if `account` has been granted `role`."
      },
      "renounceRole(bytes32,address)": {
        "details": "Revokes `role` from the calling account. Roles are often managed via {grantRole} and {revokeRole}: this function's purpose is to provide a mechanism for accounts to lose their privileges if they are compromised (such as when a trusted device is misplaced). If the calling account had been granted `role`, emits a {RoleRevoked} event. Requirements: - the caller must be `account`."
      },
      "revokeRole(bytes32,address)": {
        "details": "Revokes `role` from `account`. If `account` had been granted `role`, emits a {RoleRevoked} event. Requirements: - the caller must have ``role``'s admin role."
      }
    },
    "version": 1
  },
  "userdoc": {
    "kind": "user",
    "methods": {},
    "version": 1
  }
}