{
  "contractName": "ResultProxy",
  "abi": [
    {
      "constant": true,
      "inputs": [
        {
          "name": "account",
          "type": "address"
        }
      ],
      "name": "isWriter",
      "outputs": [
        {
          "name": "",
          "type": "bool"
        }
      ],
      "payable": false,
      "stateMutability": "view",
      "type": "function"
    },
    {
      "constant": false,
      "inputs": [
        {
          "name": "account",
          "type": "address"
        }
      ],
      "name": "addWriter",
      "outputs": [],
      "payable": false,
      "stateMutability": "nonpayable",
      "type": "function"
    },
    {
      "constant": true,
      "inputs": [],
      "name": "jobManagerAddress",
      "outputs": [
        {
          "name": "",
          "type": "address"
        }
      ],
      "payable": false,
      "stateMutability": "view",
      "type": "function"
    },
    {
      "constant": false,
      "inputs": [],
      "name": "renounceWriter",
      "outputs": [],
      "payable": false,
      "stateMutability": "nonpayable",
      "type": "function"
    },
    {
      "anonymous": false,
      "inputs": [
        {
          "indexed": true,
          "name": "account",
          "type": "address"
        }
      ],
      "name": "WriterAdded",
      "type": "event"
    },
    {
      "anonymous": false,
      "inputs": [
        {
          "indexed": true,
          "name": "account",
          "type": "address"
        }
      ],
      "name": "WriterRemoved",
      "type": "event"
    },
    {
      "constant": false,
      "inputs": [
        {
          "name": "_jobManagerAddress",
          "type": "address"
        }
      ],
      "name": "changeJobManagerAddress",
      "outputs": [],
      "payable": false,
      "stateMutability": "nonpayable",
      "type": "function"
    }
  ],
  "bytecode": "0x60806040526100133361001860201b60201c565b610235565b61003081600061007660201b6104801790919060201c565b8073ffffffffffffffffffffffffffffffffffffffff167f6ff3aa2ea7b53070f6d9d07a445d338d89e8edef44250ffa8be19f53910d4a2e60405160405180910390a250565b610086828261015760201b60201c565b156100f9576040517f08c379a000000000000000000000000000000000000000000000000000000000815260040180806020018281038252601f8152602001807f526f6c65733a206163636f756e7420616c72656164792068617320726f6c650081525060200191505060405180910390fd5b60018260000160008373ffffffffffffffffffffffffffffffffffffffff1673ffffffffffffffffffffffffffffffffffffffff16815260200190815260200160002060006101000a81548160ff0219169083151502179055505050565b60008073ffffffffffffffffffffffffffffffffffffffff168273ffffffffffffffffffffffffffffffffffffffff1614156101de576040517f08c379a00000000000000000000000000000000000000000000000000000000081526004018080602001828103825260228152602001806109046022913960400191505060405180910390fd5b8260000160008373ffffffffffffffffffffffffffffffffffffffff1673ffffffffffffffffffffffffffffffffffffffff16815260200190815260200160002060009054906101000a900460ff16905092915050565b6106c0806102446000396000f3fe608060405234801561001057600080fd5b50600436106100575760003560e01c80632b29ba231461005c578063a5653345146100b8578063da2824a8146100fc578063de13c46f14610140578063df4eb59c1461018a575b600080fd5b61009e6004803603602081101561007257600080fd5b81019080803573ffffffffffffffffffffffffffffffffffffffff169060200190929190505050610194565b604051808215151515815260200191505060405180910390f35b6100fa600480360360208110156100ce57600080fd5b81019080803573ffffffffffffffffffffffffffffffffffffffff1690602001909291905050506101b1565b005b61013e6004803603602081101561011257600080fd5b81019080803573ffffffffffffffffffffffffffffffffffffffff169060200190929190505050610253565b005b6101486102bd565b604051808273ffffffffffffffffffffffffffffffffffffffff1673ffffffffffffffffffffffffffffffffffffffff16815260200191505060405180910390f35b6101926102e3565b005b60006101aa8260006102ee90919063ffffffff16565b9050919050565b6101ba33610194565b61020f576040517f08c379a000000000000000000000000000000000000000000000000000000000815260040180806020018281038252603081526020018061065c6030913960400191505060405180910390fd5b80600160006101000a81548173ffffffffffffffffffffffffffffffffffffffff021916908373ffffffffffffffffffffffffffffffffffffffff16021790555050565b61025c33610194565b6102b1576040517f08c379a000000000000000000000000000000000000000000000000000000000815260040180806020018281038252603081526020018061065c6030913960400191505060405180910390fd5b6102ba816103cc565b50565b600160009054906101000a900473ffffffffffffffffffffffffffffffffffffffff1681565b6102ec33610426565b565b60008073ffffffffffffffffffffffffffffffffffffffff168273ffffffffffffffffffffffffffffffffffffffff161415610375576040517f08c379a000000000000000000000000000000000000000000000000000000000815260040180806020018281038252602281526020018061063a6022913960400191505060405180910390fd5b8260000160008373ffffffffffffffffffffffffffffffffffffffff1673ffffffffffffffffffffffffffffffffffffffff16815260200190815260200160002060009054906101000a900460ff16905092915050565b6103e081600061048090919063ffffffff16565b8073ffffffffffffffffffffffffffffffffffffffff167f6ff3aa2ea7b53070f6d9d07a445d338d89e8edef44250ffa8be19f53910d4a2e60405160405180910390a250565b61043a81600061055b90919063ffffffff16565b8073ffffffffffffffffffffffffffffffffffffffff167f86e5bbceda94081c32220d685f37cc4e3ea7bb0be2dfbf0cb703579505a5390e60405160405180910390a250565b61048a82826102ee565b156104fd576040517f08c379a000000000000000000000000000000000000000000000000000000000815260040180806020018281038252601f8152602001807f526f6c65733a206163636f756e7420616c72656164792068617320726f6c650081525060200191505060405180910390fd5b60018260000160008373ffffffffffffffffffffffffffffffffffffffff1673ffffffffffffffffffffffffffffffffffffffff16815260200190815260200160002060006101000a81548160ff0219169083151502179055505050565b61056582826102ee565b6105ba576040517f08c379a00000000000000000000000000000000000000000000000000000000081526004018080602001828103825260218152602001806106196021913960400191505060405180910390fd5b60008260000160008373ffffffffffffffffffffffffffffffffffffffff1673ffffffffffffffffffffffffffffffffffffffff16815260200190815260200160002060006101000a81548160ff021916908315150217905550505056fe526f6c65733a206163636f756e7420646f6573206e6f74206861766520726f6c65526f6c65733a206163636f756e7420697320746865207a65726f2061646472657373577269746572526f6c653a2063616c6c657220646f6573206e6f742068617665207468652057726974657220726f6c65a265627a7a723058203e6f6ea4637890a67e0c3023b129264975eaa6341bd3e215a30d0e1127c583b564736f6c634300050a0032526f6c65733a206163636f756e7420697320746865207a65726f2061646472657373",
  "source": "pragma solidity 0.5.10;\nimport \"./Core/WriterRole.sol\";\n\ncontract ResultProxy is WriterRole {\n    address public jobManagerAddress;\n\n    function changeJobManagerAddress(address _jobManagerAddress) external onlyWriter {\n        jobManagerAddress = _jobManagerAddress;\n    }\n\n\n}\n",
  "sourcePath": "/home/hrishikesh/contracts/contracts/ResultProxy.sol",
  "compiler": {
    "name": "solc",
    "version": "0.5.10+commit.5a6ea5b1.Emscripten.clang"
  },
  "schemaVersion": "3.0.19",
  "updatedAt": "2019-12-01T08:14:27.480Z",
  "devdoc": {
    "methods": {}
  },
  "userdoc": {
    "methods": {}
  }
}