{
  "contractName": "ResultProxy",
  "abi": [
    {
      "anonymous": false,
      "inputs": [
        {
          "indexed": true,
          "internalType": "bytes32",
          "name": "role",
          "type": "bytes32"
        },
        {
          "indexed": true,
          "internalType": "bytes32",
          "name": "previousAdminRole",
          "type": "bytes32"
        },
        {
          "indexed": true,
          "internalType": "bytes32",
          "name": "newAdminRole",
          "type": "bytes32"
        }
      ],
      "name": "RoleAdminChanged",
      "type": "event"
    },
    {
      "anonymous": false,
      "inputs": [
        {
          "indexed": true,
          "internalType": "bytes32",
          "name": "role",
          "type": "bytes32"
        },
        {
          "indexed": true,
          "internalType": "address",
          "name": "account",
          "type": "address"
        },
        {
          "indexed": true,
          "internalType": "address",
          "name": "sender",
          "type": "address"
        }
      ],
      "name": "RoleGranted",
      "type": "event"
    },
    {
      "anonymous": false,
      "inputs": [
        {
          "indexed": true,
          "internalType": "bytes32",
          "name": "role",
          "type": "bytes32"
        },
        {
          "indexed": true,
          "internalType": "address",
          "name": "account",
          "type": "address"
        },
        {
          "indexed": true,
          "internalType": "address",
          "name": "sender",
          "type": "address"
        }
      ],
      "name": "RoleRevoked",
      "type": "event"
    },
    {
      "anonymous": false,
      "inputs": [
        {
          "indexed": true,
          "internalType": "address",
          "name": "account",
          "type": "address"
        }
      ],
      "name": "WriterAdded",
      "type": "event"
    },
    {
      "anonymous": false,
      "inputs": [
        {
          "indexed": true,
          "internalType": "address",
          "name": "account",
          "type": "address"
        }
      ],
      "name": "WriterRemoved",
      "type": "event"
    },
    {
      "inputs": [],
      "name": "DEFAULT_ADMIN_ROLE",
      "outputs": [
        {
          "internalType": "bytes32",
          "name": "",
          "type": "bytes32"
        }
      ],
      "stateMutability": "view",
      "type": "function"
    },
    {
      "inputs": [
        {
          "internalType": "address",
          "name": "account",
          "type": "address"
        }
      ],
      "name": "addWriter",
      "outputs": [],
      "stateMutability": "nonpayable",
      "type": "function"
    },
    {
      "inputs": [
        {
          "internalType": "bytes32",
          "name": "role",
          "type": "bytes32"
        }
      ],
      "name": "getRoleAdmin",
      "outputs": [
        {
          "internalType": "bytes32",
          "name": "",
          "type": "bytes32"
        }
      ],
      "stateMutability": "view",
      "type": "function"
    },
    {
      "inputs": [
        {
          "internalType": "bytes32",
          "name": "role",
          "type": "bytes32"
        },
        {
          "internalType": "uint256",
          "name": "index",
          "type": "uint256"
        }
      ],
      "name": "getRoleMember",
      "outputs": [
        {
          "internalType": "address",
          "name": "",
          "type": "address"
        }
      ],
      "stateMutability": "view",
      "type": "function"
    },
    {
      "inputs": [
        {
          "internalType": "bytes32",
          "name": "role",
          "type": "bytes32"
        }
      ],
      "name": "getRoleMemberCount",
      "outputs": [
        {
          "internalType": "uint256",
          "name": "",
          "type": "uint256"
        }
      ],
      "stateMutability": "view",
      "type": "function"
    },
    {
      "inputs": [
        {
          "internalType": "bytes32",
          "name": "role",
          "type": "bytes32"
        },
        {
          "internalType": "address",
          "name": "account",
          "type": "address"
        }
      ],
      "name": "grantRole",
      "outputs": [],
      "stateMutability": "nonpayable",
      "type": "function"
    },
    {
      "inputs": [
        {
          "internalType": "bytes32",
          "name": "role",
          "type": "bytes32"
        },
        {
          "internalType": "address",
          "name": "account",
          "type": "address"
        }
      ],
      "name": "hasRole",
      "outputs": [
        {
          "internalType": "bool",
          "name": "",
          "type": "bool"
        }
      ],
      "stateMutability": "view",
      "type": "function"
    },
    {
      "inputs": [
        {
          "internalType": "address",
          "name": "account",
          "type": "address"
        }
      ],
      "name": "isWriter",
      "outputs": [
        {
          "internalType": "bool",
          "name": "",
          "type": "bool"
        }
      ],
      "stateMutability": "view",
      "type": "function"
    },
    {
      "inputs": [],
      "name": "jobManagerAddress",
      "outputs": [
        {
          "internalType": "address",
          "name": "",
          "type": "address"
        }
      ],
      "stateMutability": "view",
      "type": "function"
    },
    {
      "inputs": [
        {
          "internalType": "bytes32",
          "name": "role",
          "type": "bytes32"
        },
        {
          "internalType": "address",
          "name": "account",
          "type": "address"
        }
      ],
      "name": "renounceRole",
      "outputs": [],
      "stateMutability": "nonpayable",
      "type": "function"
    },
    {
      "inputs": [],
      "name": "renounceWriter",
      "outputs": [],
      "stateMutability": "nonpayable",
      "type": "function"
    },
    {
      "inputs": [
        {
          "internalType": "bytes32",
          "name": "role",
          "type": "bytes32"
        },
        {
          "internalType": "address",
          "name": "account",
          "type": "address"
        }
      ],
      "name": "revokeRole",
      "outputs": [],
      "stateMutability": "nonpayable",
      "type": "function"
    },
    {
      "inputs": [
        {
          "internalType": "address",
          "name": "_jobManagerAddress",
          "type": "address"
        }
      ],
      "name": "changeJobManagerAddress",
      "outputs": [],
      "stateMutability": "nonpayable",
      "type": "function"
    }
  ],
  "bytecode": "0x608060405234801561001057600080fd5b506100256000336001600160e01b0361002a16565b610153565b61003d82826001600160e01b0361004116565b5050565b60008281526020818152604090912061006391839061052b6100bd821b17901c565b1561003d576100796001600160e01b036100e416565b6001600160a01b0316816001600160a01b0316837f2f8788117e7eff1d82e926ec794901d17c78024a50270940304540a733656f0d60405160405180910390a45050565b60006100db836001600160a01b0384166001600160e01b036100e816565b90505b92915050565b3390565b60006100fd83836001600160e01b0361013b16565b610133575081546001818101845560008481526020808220909301849055845484825282860190935260409020919091556100de565b5060006100de565b60009081526001919091016020526040902054151590565b61098d806101626000396000f3fe608060405234801561001057600080fd5b50600436106100cf5760003560e01c8063a217fddf1161008c578063d547741f11610066578063d547741f1461024d578063da2824a814610279578063de13c46f1461029f578063df4eb59c146102a7576100cf565b8063a217fddf14610202578063a56533451461020a578063ca15c87314610230576100cf565b8063248a9ca3146100d45780632b29ba23146101035780632f2ff15d1461013d57806336568abe1461016b5780639010d07c1461019757806391d14854146101d6575b600080fd5b6100f1600480360360208110156100ea57600080fd5b50356102af565b60408051918252519081900360200190f35b6101296004803603602081101561011957600080fd5b50356001600160a01b03166102c4565b604080519115158252519081900360200190f35b6101696004803603604081101561015357600080fd5b50803590602001356001600160a01b03166102d6565b005b6101696004803603604081101561018157600080fd5b50803590602001356001600160a01b0316610342565b6101ba600480360360408110156101ad57600080fd5b50803590602001356103a3565b604080516001600160a01b039092168252519081900360200190f35b610129600480360360408110156101ec57600080fd5b50803590602001356001600160a01b03166103c8565b6100f16103e6565b6101696004803603602081101561022057600080fd5b50356001600160a01b03166103eb565b6100f16004803603602081101561024657600080fd5b5035610451565b6101696004803603604081101561026357600080fd5b50803590602001356001600160a01b0316610468565b6101696004803603602081101561028f57600080fd5b50356001600160a01b03166104c1565b6101ba610511565b610169610520565b60009081526020819052604090206002015490565b60006102d081836103c8565b92915050565b6000828152602081905260409020600201546102f9906102f4610540565b6103c8565b6103345760405162461bcd60e51b815260040180806020018281038252602f81526020018061089a602f913960400191505060405180910390fd5b61033e8282610544565b5050565b61034a610540565b6001600160a01b0316816001600160a01b0316146103995760405162461bcd60e51b815260040180806020018281038252602f815260200180610929602f913960400191505060405180910390fd5b61033e82826105b3565b60008281526020819052604081206103c1908363ffffffff61062216565b9392505050565b60008281526020819052604081206103c1908363ffffffff61062e16565b600081565b6103f4336102c4565b61042f5760405162461bcd60e51b81526004018080602001828103825260308152602001806108f96030913960400191505060405180910390fd5b600180546001600160a01b0319166001600160a01b0392909216919091179055565b60008181526020819052604081206102d090610643565b600082815260208190526040902060020154610486906102f4610540565b6103995760405162461bcd60e51b81526004018080602001828103825260308152602001806108c96030913960400191505060405180910390fd5b6104ca336102c4565b6105055760405162461bcd60e51b81526004018080602001828103825260308152602001806108f96030913960400191505060405180910390fd5b61050e8161064e565b50565b6001546001600160a01b031681565b61052933610690565b565b60006103c1836001600160a01b0384166106d2565b3390565b6000828152602081905260409020610562908263ffffffff61052b16565b1561033e5761056f610540565b6001600160a01b0316816001600160a01b0316837f2f8788117e7eff1d82e926ec794901d17c78024a50270940304540a733656f0d60405160405180910390a45050565b60008281526020819052604090206105d1908263ffffffff61071c16565b1561033e576105de610540565b6001600160a01b0316816001600160a01b0316837ff6391f5c32d9c69d2a47ea670b442974b53935d1edc7fd64eb21e047a839171b60405160405180910390a45050565b60006103c18383610731565b60006103c1836001600160a01b038416610795565b60006102d0826107ad565b6106596000826102d6565b6040516001600160a01b038216907f6ff3aa2ea7b53070f6d9d07a445d338d89e8edef44250ffa8be19f53910d4a2e90600090a250565b61069b600082610342565b6040516001600160a01b038216907f86e5bbceda94081c32220d685f37cc4e3ea7bb0be2dfbf0cb703579505a5390e90600090a250565b60006106de8383610795565b610714575081546001818101845560008481526020808220909301849055845484825282860190935260409020919091556102d0565b5060006102d0565b60006103c1836001600160a01b0384166107b1565b815460009082106107735760405162461bcd60e51b81526004018080602001828103825260228152602001806108786022913960400191505060405180910390fd5b82600001828154811061078257fe5b9060005260206000200154905092915050565b60009081526001919091016020526040902054151590565b5490565b6000818152600183016020526040812054801561086d57835460001980830191908101906000908790839081106107e457fe5b906000526020600020015490508087600001848154811061080157fe5b60009182526020808320909101929092558281526001898101909252604090209084019055865487908061083157fe5b600190038181906000526020600020016000905590558660010160008781526020019081526020016000206000905560019450505050506102d0565b60009150506102d056fe456e756d657261626c655365743a20696e646578206f7574206f6620626f756e6473416363657373436f6e74726f6c3a2073656e646572206d75737420626520616e2061646d696e20746f206772616e74416363657373436f6e74726f6c3a2073656e646572206d75737420626520616e2061646d696e20746f207265766f6b65577269746572526f6c653a2063616c6c657220646f6573206e6f742068617665207468652057726974657220726f6c65416363657373436f6e74726f6c3a2063616e206f6e6c792072656e6f756e636520726f6c657320666f722073656c66a2646970667358221220e372e88083e91241848bc0ae1bb4fc97126ee69cdddc98182131b859dfdaebca64736f6c634300060b0033",
  "immutableReferences": {},
  "source": "// SPDX-License-Identifier: GPL-3.0\npragma solidity 0.6.11;\nimport \"./Core/WriterRole.sol\";\n\ncontract ResultProxy is WriterRole {\n    address public jobManagerAddress;\n\n    function changeJobManagerAddress(address _jobManagerAddress) external onlyWriter {\n        jobManagerAddress = _jobManagerAddress;\n    }\n\n\n}\n",
  "sourcePath": "/home/user/Documents/Razor-Internship/contracts/contracts/ResultProxy.sol",
  "compiler": {
    "name": "solc",
    "version": "0.6.11+commit.5ef660b1.Emscripten.clang"
  },
  "schemaVersion": "3.2.2",
  "updatedAt": "2020-07-22T14:29:02.746Z",
  "devdoc": {
    "kind": "dev",
    "methods": {
      "getRoleAdmin(bytes32)": {
        "details": "Returns the admin role that controls `role`. See {grantRole} and {revokeRole}. To change a role's admin, use {_setRoleAdmin}."
      },
      "getRoleMember(bytes32,uint256)": {
        "details": "Returns one of the accounts that have `role`. `index` must be a value between 0 and {getRoleMemberCount}, non-inclusive. Role bearers are not sorted in any particular way, and their ordering may change at any point. WARNING: When using {getRoleMember} and {getRoleMemberCount}, make sure you perform all queries on the same block. See the following https://forum.openzeppelin.com/t/iterating-over-elements-on-enumerableset-in-openzeppelin-contracts/2296[forum post] for more information."
      },
      "getRoleMemberCount(bytes32)": {
        "details": "Returns the number of accounts that have `role`. Can be used together with {getRoleMember} to enumerate all bearers of a role."
      },
      "grantRole(bytes32,address)": {
        "details": "Grants `role` to `account`. If `account` had not been already granted `role`, emits a {RoleGranted} event. Requirements: - the caller must have ``role``'s admin role."
      },
      "hasRole(bytes32,address)": {
        "details": "Returns `true` if `account` has been granted `role`."
      },
      "renounceRole(bytes32,address)": {
        "details": "Revokes `role` from the calling account. Roles are often managed via {grantRole} and {revokeRole}: this function's purpose is to provide a mechanism for accounts to lose their privileges if they are compromised (such as when a trusted device is misplaced). If the calling account had been granted `role`, emits a {RoleRevoked} event. Requirements: - the caller must be `account`."
      },
      "revokeRole(bytes32,address)": {
        "details": "Revokes `role` from `account`. If `account` had been granted `role`, emits a {RoleRevoked} event. Requirements: - the caller must have ``role``'s admin role."
      }
    },
    "version": 1
  },
  "userdoc": {
    "kind": "user",
    "methods": {},
    "version": 1
  }
}