{
  "contractName": "ResultProxy",
  "abi": [
    {
      "anonymous": false,
      "inputs": [
        {
          "indexed": true,
          "internalType": "bytes32",
          "name": "role",
          "type": "bytes32"
        },
        {
          "indexed": true,
          "internalType": "bytes32",
          "name": "previousAdminRole",
          "type": "bytes32"
        },
        {
          "indexed": true,
          "internalType": "bytes32",
          "name": "newAdminRole",
          "type": "bytes32"
        }
      ],
      "name": "RoleAdminChanged",
      "type": "event"
    },
    {
      "anonymous": false,
      "inputs": [
        {
          "indexed": true,
          "internalType": "bytes32",
          "name": "role",
          "type": "bytes32"
        },
        {
          "indexed": true,
          "internalType": "address",
          "name": "account",
          "type": "address"
        },
        {
          "indexed": true,
          "internalType": "address",
          "name": "sender",
          "type": "address"
        }
      ],
      "name": "RoleGranted",
      "type": "event"
    },
    {
      "anonymous": false,
      "inputs": [
        {
          "indexed": true,
          "internalType": "bytes32",
          "name": "role",
          "type": "bytes32"
        },
        {
          "indexed": true,
          "internalType": "address",
          "name": "account",
          "type": "address"
        },
        {
          "indexed": true,
          "internalType": "address",
          "name": "sender",
          "type": "address"
        }
      ],
      "name": "RoleRevoked",
      "type": "event"
    },
    {
      "anonymous": false,
      "inputs": [
        {
          "indexed": true,
          "internalType": "address",
          "name": "account",
          "type": "address"
        }
      ],
      "name": "WriterAdded",
      "type": "event"
    },
    {
      "anonymous": false,
      "inputs": [
        {
          "indexed": true,
          "internalType": "address",
          "name": "account",
          "type": "address"
        }
      ],
      "name": "WriterRemoved",
      "type": "event"
    },
    {
      "inputs": [],
      "name": "DEFAULT_ADMIN_ROLE",
      "outputs": [
        {
          "internalType": "bytes32",
          "name": "",
          "type": "bytes32"
        }
      ],
      "stateMutability": "view",
      "type": "function"
    },
    {
      "inputs": [
        {
          "internalType": "address",
          "name": "account",
          "type": "address"
        }
      ],
      "name": "addWriter",
      "outputs": [],
      "stateMutability": "nonpayable",
      "type": "function"
    },
    {
      "inputs": [
        {
          "internalType": "bytes32",
          "name": "role",
          "type": "bytes32"
        }
      ],
      "name": "getRoleAdmin",
      "outputs": [
        {
          "internalType": "bytes32",
          "name": "",
          "type": "bytes32"
        }
      ],
      "stateMutability": "view",
      "type": "function"
    },
    {
      "inputs": [
        {
          "internalType": "bytes32",
          "name": "role",
          "type": "bytes32"
        },
        {
          "internalType": "uint256",
          "name": "index",
          "type": "uint256"
        }
      ],
      "name": "getRoleMember",
      "outputs": [
        {
          "internalType": "address",
          "name": "",
          "type": "address"
        }
      ],
      "stateMutability": "view",
      "type": "function"
    },
    {
      "inputs": [
        {
          "internalType": "bytes32",
          "name": "role",
          "type": "bytes32"
        }
      ],
      "name": "getRoleMemberCount",
      "outputs": [
        {
          "internalType": "uint256",
          "name": "",
          "type": "uint256"
        }
      ],
      "stateMutability": "view",
      "type": "function"
    },
    {
      "inputs": [
        {
          "internalType": "bytes32",
          "name": "role",
          "type": "bytes32"
        },
        {
          "internalType": "address",
          "name": "account",
          "type": "address"
        }
      ],
      "name": "grantRole",
      "outputs": [],
      "stateMutability": "nonpayable",
      "type": "function"
    },
    {
      "inputs": [
        {
          "internalType": "bytes32",
          "name": "role",
          "type": "bytes32"
        },
        {
          "internalType": "address",
          "name": "account",
          "type": "address"
        }
      ],
      "name": "hasRole",
      "outputs": [
        {
          "internalType": "bool",
          "name": "",
          "type": "bool"
        }
      ],
      "stateMutability": "view",
      "type": "function"
    },
    {
      "inputs": [
        {
          "internalType": "address",
          "name": "account",
          "type": "address"
        }
      ],
      "name": "isAdmin",
      "outputs": [
        {
          "internalType": "bool",
          "name": "",
          "type": "bool"
        }
      ],
      "stateMutability": "view",
      "type": "function"
    },
    {
      "inputs": [
        {
          "internalType": "address",
          "name": "account",
          "type": "address"
        }
      ],
      "name": "isWriter",
      "outputs": [
        {
          "internalType": "bool",
          "name": "",
          "type": "bool"
        }
      ],
      "stateMutability": "view",
      "type": "function"
    },
    {
      "inputs": [],
      "name": "jobManagerAddress",
      "outputs": [
        {
          "internalType": "address",
          "name": "",
          "type": "address"
        }
      ],
      "stateMutability": "view",
      "type": "function"
    },
    {
      "inputs": [
        {
          "internalType": "bytes32",
          "name": "role",
          "type": "bytes32"
        },
        {
          "internalType": "address",
          "name": "account",
          "type": "address"
        }
      ],
      "name": "renounceRole",
      "outputs": [],
      "stateMutability": "nonpayable",
      "type": "function"
    },
    {
      "inputs": [],
      "name": "renounceWriter",
      "outputs": [],
      "stateMutability": "nonpayable",
      "type": "function"
    },
    {
      "inputs": [
        {
          "internalType": "bytes32",
          "name": "role",
          "type": "bytes32"
        },
        {
          "internalType": "address",
          "name": "account",
          "type": "address"
        }
      ],
      "name": "revokeRole",
      "outputs": [],
      "stateMutability": "nonpayable",
      "type": "function"
    },
    {
      "inputs": [
        {
          "internalType": "address",
          "name": "_jobManagerAddress",
          "type": "address"
        }
      ],
      "name": "changeJobManagerAddress",
      "outputs": [],
      "stateMutability": "nonpayable",
      "type": "function"
    }
  ],
  "bytecode": "0x608060405234801561001057600080fd5b5060408051652ba924aa22a960d11b815281519081900360060181206420a226a4a760d91b8252915190819003600501902061005591906001600160e01b0361008716565b604080516420a226a4a760d91b8152905190819003600501902061008290336001600160e01b036100d916565b610202565b600082815260208190526040808220600201549051839285917fbd79b86ffe0ab8e8776151514217cd7cacd52c909f66475c3af44e129f0b00ff9190a460009182526020829052604090912060020155565b6100ec82826001600160e01b036100f016565b5050565b6000828152602081815260409091206101129183906105f361016c821b17901c565b156100ec576101286001600160e01b0361019316565b6001600160a01b0316816001600160a01b0316837f2f8788117e7eff1d82e926ec794901d17c78024a50270940304540a733656f0d60405160405180910390a45050565b600061018a836001600160a01b0384166001600160e01b0361019716565b90505b92915050565b3390565b60006101ac83836001600160e01b036101ea16565b6101e25750815460018181018455600084815260208082209093018490558454848252828601909352604090209190915561018d565b50600061018d565b60009081526001919091016020526040902054151590565b610ab7806102116000396000f3fe608060405234801561001057600080fd5b50600436106100ea5760003560e01c8063a217fddf1161008c578063d547741f11610066578063d547741f1461028e578063da2824a8146102ba578063de13c46f146102e0578063df4eb59c146102e8576100ea565b8063a217fddf14610243578063a56533451461024b578063ca15c87314610271576100ea565b80632f2ff15d116100c85780632f2ff15d1461017e57806336568abe146101ac5780639010d07c146101d857806391d1485414610217576100ea565b8063248a9ca3146100ef57806324d7806c1461011e5780632b29ba2314610158575b600080fd5b61010c6004803603602081101561010557600080fd5b50356102f0565b60408051918252519081900360200190f35b6101446004803603602081101561013457600080fd5b50356001600160a01b0316610305565b604080519115158252519081900360200190f35b6101446004803603602081101561016e57600080fd5b50356001600160a01b0316610332565b6101aa6004803603604081101561019457600080fd5b50803590602001356001600160a01b031661035a565b005b6101aa600480360360408110156101c257600080fd5b50803590602001356001600160a01b03166103c6565b6101fb600480360360408110156101ee57600080fd5b5080359060200135610427565b604080516001600160a01b039092168252519081900360200190f35b6101446004803603604081101561022d57600080fd5b50803590602001356001600160a01b031661044c565b61010c61046a565b6101aa6004803603602081101561026157600080fd5b50356001600160a01b031661046f565b61010c6004803603602081101561028757600080fd5b50356104d5565b6101aa600480360360408110156102a457600080fd5b50803590602001356001600160a01b03166104ec565b6101aa600480360360208110156102d057600080fd5b50356001600160a01b0316610545565b6101fb610595565b6101aa6105a4565b60009081526020819052604090206002015490565b604080516420a226a4a760d91b8152905190819003600501902060009061032c908361044c565b92915050565b60408051652ba924aa22a960d11b8152905190819003600601902060009061032c908361044c565b60008281526020819052604090206002015461037d90610378610608565b61044c565b6103b85760405162461bcd60e51b815260040180806020018281038252602f815260200180610996602f913960400191505060405180910390fd5b6103c2828261060c565b5050565b6103ce610608565b6001600160a01b0316816001600160a01b03161461041d5760405162461bcd60e51b815260040180806020018281038252602f815260200180610a53602f913960400191505060405180910390fd5b6103c2828261067b565b6000828152602081905260408120610445908363ffffffff6106ea16565b9392505050565b6000828152602081905260408120610445908363ffffffff6106f616565b600081565b61047833610332565b6104b35760405162461bcd60e51b8152600401808060200182810382526030815260200180610a236030913960400191505060405180910390fd5b600180546001600160a01b0319166001600160a01b0392909216919091179055565b600081815260208190526040812061032c9061070b565b60008281526020819052604090206002015461050a90610378610608565b61041d5760405162461bcd60e51b81526004018080602001828103825260308152602001806109c56030913960400191505060405180910390fd5b61054e33610305565b6105895760405162461bcd60e51b815260040180806020018281038252602e8152602001806109f5602e913960400191505060405180910390fd5b61059281610716565b50565b6001546001600160a01b031681565b6105ad33610332565b6105e85760405162461bcd60e51b8152600401808060200182810382526030815260200180610a236030913960400191505060405180910390fd5b6105f133610772565b565b6000610445836001600160a01b0384166107ce565b3390565b600082815260208190526040902061062a908263ffffffff6105f316565b156103c257610637610608565b6001600160a01b0316816001600160a01b0316837f2f8788117e7eff1d82e926ec794901d17c78024a50270940304540a733656f0d60405160405180910390a45050565b6000828152602081905260409020610699908263ffffffff61081816565b156103c2576106a6610608565b6001600160a01b0316816001600160a01b0316837ff6391f5c32d9c69d2a47ea670b442974b53935d1edc7fd64eb21e047a839171b60405160405180910390a45050565b6000610445838361082d565b6000610445836001600160a01b038416610891565b600061032c826108a9565b60408051652ba924aa22a960d11b8152905190819003600601902061073b908261035a565b6040516001600160a01b038216907f6ff3aa2ea7b53070f6d9d07a445d338d89e8edef44250ffa8be19f53910d4a2e90600090a250565b60408051652ba924aa22a960d11b8152905190819003600601902061079790826103c6565b6040516001600160a01b038216907f86e5bbceda94081c32220d685f37cc4e3ea7bb0be2dfbf0cb703579505a5390e90600090a250565b60006107da8383610891565b6108105750815460018181018455600084815260208082209093018490558454848252828601909352604090209190915561032c565b50600061032c565b6000610445836001600160a01b0384166108ad565b8154600090821061086f5760405162461bcd60e51b81526004018080602001828103825260228152602001806109746022913960400191505060405180910390fd5b82600001828154811061087e57fe5b9060005260206000200154905092915050565b60009081526001919091016020526040902054151590565b5490565b6000818152600183016020526040812054801561096957835460001980830191908101906000908790839081106108e057fe5b90600052602060002001549050808760000184815481106108fd57fe5b60009182526020808320909101929092558281526001898101909252604090209084019055865487908061092d57fe5b6001900381819060005260206000200160009055905586600101600087815260200190815260200160002060009055600194505050505061032c565b600091505061032c56fe456e756d657261626c655365743a20696e646578206f7574206f6620626f756e6473416363657373436f6e74726f6c3a2073656e646572206d75737420626520616e2061646d696e20746f206772616e74416363657373436f6e74726f6c3a2073656e646572206d75737420626520616e2061646d696e20746f207265766f6b6541646d696e526f6c653a2063616c6c657220646f6573206e6f742068617665207468652041646d696e20726f6c65577269746572526f6c653a2063616c6c657220646f6573206e6f742068617665207468652057726974657220726f6c65416363657373436f6e74726f6c3a2063616e206f6e6c792072656e6f756e636520726f6c657320666f722073656c66a2646970667358221220d1bc3ad666ca6ccd5b172407711264327f24ae80000c18ba7ba5cec1952e0e1164736f6c634300060b0033",
  "immutableReferences": {},
  "source": "pragma solidity 0.6.11;\nimport \"./Core/WriterRole.sol\";\n\ncontract ResultProxy is WriterRole {\n    address public jobManagerAddress;\n\n    function changeJobManagerAddress(address _jobManagerAddress) external onlyWriter {\n        jobManagerAddress = _jobManagerAddress;\n    }\n\n\n}\n",
  "sourcePath": "/home/user/Documents/intern/contracts/contracts/ResultProxy.sol",
  "compiler": {
    "name": "solc",
    "version": "0.6.11+commit.5ef660b1.Emscripten.clang"
  },
  "schemaVersion": "3.2.2",
  "updatedAt": "2020-07-27T12:27:12.551Z",
  "devdoc": {
    "kind": "dev",
    "methods": {
      "getRoleAdmin(bytes32)": {
        "details": "Returns the admin role that controls `role`. See {grantRole} and {revokeRole}. To change a role's admin, use {_setRoleAdmin}."
      },
      "getRoleMember(bytes32,uint256)": {
        "details": "Returns one of the accounts that have `role`. `index` must be a value between 0 and {getRoleMemberCount}, non-inclusive. Role bearers are not sorted in any particular way, and their ordering may change at any point. WARNING: When using {getRoleMember} and {getRoleMemberCount}, make sure you perform all queries on the same block. See the following https://forum.openzeppelin.com/t/iterating-over-elements-on-enumerableset-in-openzeppelin-contracts/2296[forum post] for more information."
      },
      "getRoleMemberCount(bytes32)": {
        "details": "Returns the number of accounts that have `role`. Can be used together with {getRoleMember} to enumerate all bearers of a role."
      },
      "grantRole(bytes32,address)": {
        "details": "Grants `role` to `account`. If `account` had not been already granted `role`, emits a {RoleGranted} event. Requirements: - the caller must have ``role``'s admin role."
      },
      "hasRole(bytes32,address)": {
        "details": "Returns `true` if `account` has been granted `role`."
      },
      "renounceRole(bytes32,address)": {
        "details": "Revokes `role` from the calling account. Roles are often managed via {grantRole} and {revokeRole}: this function's purpose is to provide a mechanism for accounts to lose their privileges if they are compromised (such as when a trusted device is misplaced). If the calling account had been granted `role`, emits a {RoleRevoked} event. Requirements: - the caller must be `account`."
      },
      "revokeRole(bytes32,address)": {
        "details": "Revokes `role` from `account`. If `account` had been granted `role`, emits a {RoleRevoked} event. Requirements: - the caller must have ``role``'s admin role."
      }
    },
    "version": 1
  },
  "userdoc": {
    "kind": "user",
    "methods": {},
    "version": 1
  }
}