{
  "contractName": "ResultProxy",
  "abi": [
    {
      "constant": true,
      "inputs": [
        {
          "name": "account",
          "type": "address"
        }
      ],
      "name": "isWriter",
      "outputs": [
        {
          "name": "",
          "type": "bool"
        }
      ],
      "payable": false,
      "stateMutability": "view",
      "type": "function"
    },
    {
      "constant": false,
      "inputs": [
        {
          "name": "account",
          "type": "address"
        }
      ],
      "name": "addWriter",
      "outputs": [],
      "payable": false,
      "stateMutability": "nonpayable",
      "type": "function"
    },
    {
      "constant": true,
      "inputs": [],
      "name": "jobManagerAddress",
      "outputs": [
        {
          "name": "",
          "type": "address"
        }
      ],
      "payable": false,
      "stateMutability": "view",
      "type": "function"
    },
    {
      "constant": false,
      "inputs": [],
      "name": "renounceWriter",
      "outputs": [],
      "payable": false,
      "stateMutability": "nonpayable",
      "type": "function"
    },
    {
      "anonymous": false,
      "inputs": [
        {
          "indexed": true,
          "name": "account",
          "type": "address"
        }
      ],
      "name": "WriterAdded",
      "type": "event"
    },
    {
      "anonymous": false,
      "inputs": [
        {
          "indexed": true,
          "name": "account",
          "type": "address"
        }
      ],
      "name": "WriterRemoved",
      "type": "event"
    },
    {
      "constant": false,
      "inputs": [
        {
          "name": "_jobManagerAddress",
          "type": "address"
        }
      ],
      "name": "changeJobManagerAddress",
      "outputs": [],
      "payable": false,
      "stateMutability": "nonpayable",
      "type": "function"
    }
  ],
  "bytecode": "0x6080604052610016336001600160e01b0361001b16565b61018f565b61003381600061006a60201b6102ef1790919060201c565b6040516001600160a01b038216907f6ff3aa2ea7b53070f6d9d07a445d338d89e8edef44250ffa8be19f53910d4a2e90600090a250565b61007d82826001600160e01b0361010e16565b156100e957604080517f08c379a000000000000000000000000000000000000000000000000000000000815260206004820152601f60248201527f526f6c65733a206163636f756e7420616c72656164792068617320726f6c6500604482015290519081900360640190fd5b6001600160a01b0316600090815260209190915260409020805460ff19166001179055565b60006001600160a01b03821661016f576040517f08c379a000000000000000000000000000000000000000000000000000000000815260040180806020018281038252602281526020018061061d6022913960400191505060405180910390fd5b506001600160a01b03166000908152602091909152604090205460ff1690565b61047f8061019e6000396000f3fe608060405234801561001057600080fd5b50600436106100575760003560e01c80632b29ba231461005c578063a565334514610096578063da2824a8146100be578063de13c46f146100e4578063df4eb59c14610108575b600080fd5b6100826004803603602081101561007257600080fd5b50356001600160a01b0316610110565b604080519115158252519081900360200190f35b6100bc600480360360208110156100ac57600080fd5b50356001600160a01b0316610128565b005b6100bc600480360360208110156100d457600080fd5b50356001600160a01b031661018e565b6100ec6101de565b604080516001600160a01b039092168252519081900360200190f35b6100bc6101ed565b6000610122818363ffffffff6101f816565b92915050565b61013133610110565b61016c5760405162461bcd60e51b815260040180806020018281038252603081526020018061041b6030913960400191505060405180910390fd5b600180546001600160a01b0319166001600160a01b0392909216919091179055565b61019733610110565b6101d25760405162461bcd60e51b815260040180806020018281038252603081526020018061041b6030913960400191505060405180910390fd5b6101db8161025f565b50565b6001546001600160a01b031681565b6101f6336102a7565b565b60006001600160a01b03821661023f5760405162461bcd60e51b81526004018080602001828103825260228152602001806103f96022913960400191505060405180910390fd5b506001600160a01b03166000908152602091909152604090205460ff1690565b61027060008263ffffffff6102ef16565b6040516001600160a01b038216907f6ff3aa2ea7b53070f6d9d07a445d338d89e8edef44250ffa8be19f53910d4a2e90600090a250565b6102b860008263ffffffff61037016565b6040516001600160a01b038216907f86e5bbceda94081c32220d685f37cc4e3ea7bb0be2dfbf0cb703579505a5390e90600090a250565b6102f982826101f8565b1561034b576040805162461bcd60e51b815260206004820152601f60248201527f526f6c65733a206163636f756e7420616c72656164792068617320726f6c6500604482015290519081900360640190fd5b6001600160a01b0316600090815260209190915260409020805460ff19166001179055565b61037a82826101f8565b6103b55760405162461bcd60e51b81526004018080602001828103825260218152602001806103d86021913960400191505060405180910390fd5b6001600160a01b0316600090815260209190915260409020805460ff1916905556fe526f6c65733a206163636f756e7420646f6573206e6f74206861766520726f6c65526f6c65733a206163636f756e7420697320746865207a65726f2061646472657373577269746572526f6c653a2063616c6c657220646f6573206e6f742068617665207468652057726974657220726f6c65a265627a7a72305820ae848bda3beac3bf8909940d82c8aad4c30d371e1996629488961f329248090c64736f6c634300050a0032526f6c65733a206163636f756e7420697320746865207a65726f2061646472657373",
  "source": "pragma solidity 0.5.10;\nimport \"./Core/WriterRole.sol\";\n\ncontract ResultProxy is WriterRole {\n    address public jobManagerAddress;\n\n    function changeJobManagerAddress(address _jobManagerAddress) external onlyWriter {\n        jobManagerAddress = _jobManagerAddress;\n    }\n\n\n}\n",
  "sourcePath": "/Users/hrishi/contracts/contracts/ResultProxy.sol",
  "compiler": {
    "name": "solc",
    "version": "0.5.10+commit.5a6ea5b1.Emscripten.clang"
  },
  "schemaVersion": "3.0.20",
  "updatedAt": "2019-12-25T04:19:39.232Z",
  "devdoc": {
    "methods": {}
  },
  "userdoc": {
    "methods": {}
  }
}