{
  "contractName": "StakeStorage",
  "abi": [
    {
      "constant": true,
      "inputs": [],
      "name": "stakeGettingReward",
      "outputs": [
        {
          "name": "",
          "type": "uint256"
        }
      ],
      "payable": false,
      "stateMutability": "view",
      "type": "function"
    },
    {
      "constant": true,
      "inputs": [],
      "name": "rewardPool",
      "outputs": [
        {
          "name": "",
          "type": "uint256"
        }
      ],
      "payable": false,
      "stateMutability": "view",
      "type": "function"
    },
    {
      "constant": true,
      "inputs": [],
      "name": "numStakers",
      "outputs": [
        {
          "name": "",
          "type": "uint256"
        }
      ],
      "payable": false,
      "stateMutability": "view",
      "type": "function"
    },
    {
      "constant": true,
      "inputs": [
        {
          "name": "",
          "type": "address"
        }
      ],
      "name": "stakerIds",
      "outputs": [
        {
          "name": "",
          "type": "uint256"
        }
      ],
      "payable": false,
      "stateMutability": "view",
      "type": "function"
    },
    {
      "constant": true,
      "inputs": [
        {
          "name": "",
          "type": "uint256"
        }
      ],
      "name": "stakers",
      "outputs": [
        {
          "name": "id",
          "type": "uint256"
        },
        {
          "name": "_address",
          "type": "address"
        },
        {
          "name": "stake",
          "type": "uint256"
        },
        {
          "name": "epochStaked",
          "type": "uint256"
        },
        {
          "name": "epochLastCommitted",
          "type": "uint256"
        },
        {
          "name": "epochLastRevealed",
          "type": "uint256"
        },
        {
          "name": "unstakeAfter",
          "type": "uint256"
        },
        {
          "name": "withdrawAfter",
          "type": "uint256"
        }
      ],
      "payable": false,
      "stateMutability": "view",
      "type": "function"
    }
  ],
  "bytecode": "0x608060405260006002556000600355600060045534801561001f57600080fd5b506101b98061002f6000396000f3fe608060405234801561001057600080fd5b50600436106100575760003560e01c80630ec88d3f1461005c57806366666aa9146100765780636c8b052a1461007e578063c8ae0d7d14610086578063fd5e6dd1146100ac575b600080fd5b610064610112565b60408051918252519081900360200190f35b610064610118565b61006461011e565b6100646004803603602081101561009c57600080fd5b50356001600160a01b0316610124565b6100c9600480360360208110156100c257600080fd5b5035610136565b604080519889526001600160a01b039097166020890152878701959095526060870193909352608086019190915260a085015260c084015260e083015251908190036101000190f35b60045481565b60035481565b60025481565b60006020819052908152604090205481565b6001602081905260009182526040909120805491810154600282015460038301546004840154600585015460068601546007909601546001600160a01b03909516959394929391929091908856fea265627a7a72305820aa958491b2c913dd5d1ab0888ddd379c04519a5c66dd9afffb9dea809227763f64736f6c634300050a0032",
  "source": "pragma solidity 0.5.10;\nimport \"../lib/Structs.sol\";\n\n\ncontract StakeStorage {\n\n    // Constants public constants;\n    mapping (address => uint256) public stakerIds;\n    mapping (uint256 => Structs.Staker) public stakers;\n    uint256 public numStakers = 0;\n    // SchellingCoin public sch;\n    uint256 public rewardPool = 0;\n    uint256 public stakeGettingReward = 0;\n\n       // uint256 public totalStake = 0;\n}\n",
  "sourcePath": "/Users/hrishi/contracts/contracts/Core/StakeStorage.sol",
  "compiler": {
    "name": "solc",
    "version": "0.5.10+commit.5a6ea5b1.Emscripten.clang"
  },
  "schemaVersion": "3.0.20",
  "updatedAt": "2019-12-25T04:19:39.199Z",
  "devdoc": {
    "methods": {}
  },
  "userdoc": {
    "methods": {}
  }
}