{
  "contractName": "StakeManager",
  "abi": [
    {
      "anonymous": false,
      "inputs": [
        {
          "indexed": false,
          "internalType": "uint256",
          "name": "a",
          "type": "uint256"
        }
      ],
      "name": "DebugUint256",
      "type": "event"
    },
    {
      "anonymous": false,
      "inputs": [
        {
          "indexed": false,
          "internalType": "uint256",
          "name": "epoch",
          "type": "uint256"
        },
        {
          "indexed": false,
          "internalType": "uint256",
          "name": "prevRewardPool",
          "type": "uint256"
        },
        {
          "indexed": false,
          "internalType": "uint256",
          "name": "rewardPool",
          "type": "uint256"
        },
        {
          "indexed": false,
          "internalType": "uint256",
          "name": "timestamp",
          "type": "uint256"
        }
      ],
      "name": "RewardPoolChange",
      "type": "event"
    },
    {
      "anonymous": false,
      "inputs": [
        {
          "indexed": true,
          "internalType": "bytes32",
          "name": "role",
          "type": "bytes32"
        },
        {
          "indexed": true,
          "internalType": "bytes32",
          "name": "previousAdminRole",
          "type": "bytes32"
        },
        {
          "indexed": true,
          "internalType": "bytes32",
          "name": "newAdminRole",
          "type": "bytes32"
        }
      ],
      "name": "RoleAdminChanged",
      "type": "event"
    },
    {
      "anonymous": false,
      "inputs": [
        {
          "indexed": true,
          "internalType": "bytes32",
          "name": "role",
          "type": "bytes32"
        },
        {
          "indexed": true,
          "internalType": "address",
          "name": "account",
          "type": "address"
        },
        {
          "indexed": true,
          "internalType": "address",
          "name": "sender",
          "type": "address"
        }
      ],
      "name": "RoleGranted",
      "type": "event"
    },
    {
      "anonymous": false,
      "inputs": [
        {
          "indexed": true,
          "internalType": "bytes32",
          "name": "role",
          "type": "bytes32"
        },
        {
          "indexed": true,
          "internalType": "address",
          "name": "account",
          "type": "address"
        },
        {
          "indexed": true,
          "internalType": "address",
          "name": "sender",
          "type": "address"
        }
      ],
      "name": "RoleRevoked",
      "type": "event"
    },
    {
      "anonymous": false,
      "inputs": [
        {
          "indexed": true,
          "internalType": "uint256",
          "name": "stakerId",
          "type": "uint256"
        },
        {
          "indexed": false,
          "internalType": "uint256",
          "name": "previousStake",
          "type": "uint256"
        },
        {
          "indexed": false,
          "internalType": "uint256",
          "name": "newStake",
          "type": "uint256"
        },
        {
          "indexed": false,
          "internalType": "string",
          "name": "reason",
          "type": "string"
        },
        {
          "indexed": false,
          "internalType": "uint256",
          "name": "epoch",
          "type": "uint256"
        },
        {
          "indexed": false,
          "internalType": "uint256",
          "name": "timestamp",
          "type": "uint256"
        }
      ],
      "name": "StakeChange",
      "type": "event"
    },
    {
      "anonymous": false,
      "inputs": [
        {
          "indexed": false,
          "internalType": "uint256",
          "name": "epoch",
          "type": "uint256"
        },
        {
          "indexed": false,
          "internalType": "uint256",
          "name": "prevStakeGettingReward",
          "type": "uint256"
        },
        {
          "indexed": false,
          "internalType": "uint256",
          "name": "stakeGettingReward",
          "type": "uint256"
        },
        {
          "indexed": false,
          "internalType": "uint256",
          "name": "timestamp",
          "type": "uint256"
        }
      ],
      "name": "StakeGettingRewardChange",
      "type": "event"
    },
    {
      "anonymous": false,
      "inputs": [
        {
          "indexed": false,
          "internalType": "uint256",
          "name": "epoch",
          "type": "uint256"
        },
        {
          "indexed": true,
          "internalType": "uint256",
          "name": "stakerId",
          "type": "uint256"
        },
        {
          "indexed": false,
          "internalType": "uint256",
          "name": "previousStake",
          "type": "uint256"
        },
        {
          "indexed": false,
          "internalType": "uint256",
          "name": "newStake",
          "type": "uint256"
        },
        {
          "indexed": false,
          "internalType": "uint256",
          "name": "timestamp",
          "type": "uint256"
        }
      ],
      "name": "Staked",
      "type": "event"
    },
    {
      "anonymous": false,
      "inputs": [
        {
          "indexed": false,
          "internalType": "uint256",
          "name": "epoch",
          "type": "uint256"
        },
        {
          "indexed": true,
          "internalType": "uint256",
          "name": "stakerId",
          "type": "uint256"
        },
        {
          "indexed": false,
          "internalType": "uint256",
          "name": "amount",
          "type": "uint256"
        },
        {
          "indexed": false,
          "internalType": "uint256",
          "name": "newStake",
          "type": "uint256"
        },
        {
          "indexed": false,
          "internalType": "uint256",
          "name": "timestamp",
          "type": "uint256"
        }
      ],
      "name": "Unstaked",
      "type": "event"
    },
    {
      "anonymous": false,
      "inputs": [
        {
          "indexed": false,
          "internalType": "uint256",
          "name": "epoch",
          "type": "uint256"
        },
        {
          "indexed": true,
          "internalType": "uint256",
          "name": "stakerId",
          "type": "uint256"
        },
        {
          "indexed": false,
          "internalType": "uint256",
          "name": "amount",
          "type": "uint256"
        },
        {
          "indexed": false,
          "internalType": "uint256",
          "name": "newStake",
          "type": "uint256"
        },
        {
          "indexed": false,
          "internalType": "uint256",
          "name": "timestamp",
          "type": "uint256"
        }
      ],
      "name": "Withdrew",
      "type": "event"
    },
    {
      "anonymous": false,
      "inputs": [
        {
          "indexed": true,
          "internalType": "address",
          "name": "account",
          "type": "address"
        }
      ],
      "name": "WriterAdded",
      "type": "event"
    },
    {
      "anonymous": false,
      "inputs": [
        {
          "indexed": true,
          "internalType": "address",
          "name": "account",
          "type": "address"
        }
      ],
      "name": "WriterRemoved",
      "type": "event"
    },
    {
      "inputs": [],
      "name": "DEFAULT_ADMIN_ROLE",
      "outputs": [
        {
          "internalType": "bytes32",
          "name": "",
          "type": "bytes32"
        }
      ],
      "stateMutability": "view",
      "type": "function"
    },
    {
      "inputs": [
        {
          "internalType": "address",
          "name": "account",
          "type": "address"
        }
      ],
      "name": "addWriter",
      "outputs": [],
      "stateMutability": "nonpayable",
      "type": "function"
    },
    {
      "inputs": [],
      "name": "blockManager",
      "outputs": [
        {
          "internalType": "contract IBlockManager",
          "name": "",
          "type": "address"
        }
      ],
      "stateMutability": "view",
      "type": "function"
    },
    {
      "inputs": [
        {
          "internalType": "bytes32",
          "name": "role",
          "type": "bytes32"
        }
      ],
      "name": "getRoleAdmin",
      "outputs": [
        {
          "internalType": "bytes32",
          "name": "",
          "type": "bytes32"
        }
      ],
      "stateMutability": "view",
      "type": "function"
    },
    {
      "inputs": [
        {
          "internalType": "bytes32",
          "name": "role",
          "type": "bytes32"
        },
        {
          "internalType": "uint256",
          "name": "index",
          "type": "uint256"
        }
      ],
      "name": "getRoleMember",
      "outputs": [
        {
          "internalType": "address",
          "name": "",
          "type": "address"
        }
      ],
      "stateMutability": "view",
      "type": "function"
    },
    {
      "inputs": [
        {
          "internalType": "bytes32",
          "name": "role",
          "type": "bytes32"
        }
      ],
      "name": "getRoleMemberCount",
      "outputs": [
        {
          "internalType": "uint256",
          "name": "",
          "type": "uint256"
        }
      ],
      "stateMutability": "view",
      "type": "function"
    },
    {
      "inputs": [
        {
          "internalType": "bytes32",
          "name": "role",
          "type": "bytes32"
        },
        {
          "internalType": "address",
          "name": "account",
          "type": "address"
        }
      ],
      "name": "grantRole",
      "outputs": [],
      "stateMutability": "nonpayable",
      "type": "function"
    },
    {
      "inputs": [
        {
          "internalType": "bytes32",
          "name": "role",
          "type": "bytes32"
        },
        {
          "internalType": "address",
          "name": "account",
          "type": "address"
        }
      ],
      "name": "hasRole",
      "outputs": [
        {
          "internalType": "bool",
          "name": "",
          "type": "bool"
        }
      ],
      "stateMutability": "view",
      "type": "function"
    },
    {
      "inputs": [
        {
          "internalType": "address",
          "name": "account",
          "type": "address"
        }
      ],
      "name": "isWriter",
      "outputs": [
        {
          "internalType": "bool",
          "name": "",
          "type": "bool"
        }
      ],
      "stateMutability": "view",
      "type": "function"
    },
    {
      "inputs": [],
      "name": "numStakers",
      "outputs": [
        {
          "internalType": "uint256",
          "name": "",
          "type": "uint256"
        }
      ],
      "stateMutability": "view",
      "type": "function"
    },
    {
      "inputs": [
        {
          "internalType": "bytes32",
          "name": "role",
          "type": "bytes32"
        },
        {
          "internalType": "address",
          "name": "account",
          "type": "address"
        }
      ],
      "name": "renounceRole",
      "outputs": [],
      "stateMutability": "nonpayable",
      "type": "function"
    },
    {
      "inputs": [],
      "name": "renounceWriter",
      "outputs": [],
      "stateMutability": "nonpayable",
      "type": "function"
    },
    {
      "inputs": [
        {
          "internalType": "bytes32",
          "name": "role",
          "type": "bytes32"
        },
        {
          "internalType": "address",
          "name": "account",
          "type": "address"
        }
      ],
      "name": "revokeRole",
      "outputs": [],
      "stateMutability": "nonpayable",
      "type": "function"
    },
    {
      "inputs": [],
      "name": "rewardPool",
      "outputs": [
        {
          "internalType": "uint256",
          "name": "",
          "type": "uint256"
        }
      ],
      "stateMutability": "view",
      "type": "function"
    },
    {
      "inputs": [],
      "name": "sch",
      "outputs": [
        {
          "internalType": "contract SchellingCoin",
          "name": "",
          "type": "address"
        }
      ],
      "stateMutability": "view",
      "type": "function"
    },
    {
      "inputs": [],
      "name": "stakeGettingReward",
      "outputs": [
        {
          "internalType": "uint256",
          "name": "",
          "type": "uint256"
        }
      ],
      "stateMutability": "view",
      "type": "function"
    },
    {
      "inputs": [
        {
          "internalType": "address",
          "name": "",
          "type": "address"
        }
      ],
      "name": "stakerIds",
      "outputs": [
        {
          "internalType": "uint256",
          "name": "",
          "type": "uint256"
        }
      ],
      "stateMutability": "view",
      "type": "function"
    },
    {
      "inputs": [
        {
          "internalType": "uint256",
          "name": "",
          "type": "uint256"
        }
      ],
      "name": "stakers",
      "outputs": [
        {
          "internalType": "uint256",
          "name": "id",
          "type": "uint256"
        },
        {
          "internalType": "address",
          "name": "_address",
          "type": "address"
        },
        {
          "internalType": "uint256",
          "name": "stake",
          "type": "uint256"
        },
        {
          "internalType": "uint256",
          "name": "epochStaked",
          "type": "uint256"
        },
        {
          "internalType": "uint256",
          "name": "epochLastCommitted",
          "type": "uint256"
        },
        {
          "internalType": "uint256",
          "name": "epochLastRevealed",
          "type": "uint256"
        },
        {
          "internalType": "uint256",
          "name": "unstakeAfter",
          "type": "uint256"
        },
        {
          "internalType": "uint256",
          "name": "withdrawAfter",
          "type": "uint256"
        }
      ],
      "stateMutability": "view",
      "type": "function"
    },
    {
      "inputs": [],
      "name": "stateManager",
      "outputs": [
        {
          "internalType": "contract IStateManager",
          "name": "",
          "type": "address"
        }
      ],
      "stateMutability": "view",
      "type": "function"
    },
    {
      "inputs": [],
      "name": "voteManager",
      "outputs": [
        {
          "internalType": "contract IVoteManager",
          "name": "",
          "type": "address"
        }
      ],
      "stateMutability": "view",
      "type": "function"
    },
    {
      "inputs": [
        {
          "internalType": "address",
          "name": "_schAddress",
          "type": "address"
        },
        {
          "internalType": "address",
          "name": "_voteManagerAddress",
          "type": "address"
        },
        {
          "internalType": "address",
          "name": "_blockManagerAddress",
          "type": "address"
        },
        {
          "internalType": "address",
          "name": "_stateManagerAddress",
          "type": "address"
        }
      ],
      "name": "init",
      "outputs": [],
      "stateMutability": "nonpayable",
      "type": "function"
    },
    {
      "inputs": [
        {
          "internalType": "uint256",
          "name": "_id",
          "type": "uint256"
        },
        {
          "internalType": "uint256",
          "name": "_stake",
          "type": "uint256"
        },
        {
          "internalType": "string",
          "name": "_reason",
          "type": "string"
        },
        {
          "internalType": "uint256",
          "name": "_epoch",
          "type": "uint256"
        }
      ],
      "name": "setStakerStake",
      "outputs": [],
      "stateMutability": "nonpayable",
      "type": "function"
    },
    {
      "inputs": [
        {
          "internalType": "uint256",
          "name": "_id",
          "type": "uint256"
        },
        {
          "internalType": "uint256",
          "name": "_epochLastRevealed",
          "type": "uint256"
        }
      ],
      "name": "setStakerEpochLastRevealed",
      "outputs": [],
      "stateMutability": "nonpayable",
      "type": "function"
    },
    {
      "inputs": [
        {
          "internalType": "uint256",
          "name": "stakerId",
          "type": "uint256"
        }
      ],
      "name": "updateCommitmentEpoch",
      "outputs": [],
      "stateMutability": "nonpayable",
      "type": "function"
    },
    {
      "inputs": [
        {
          "internalType": "uint256",
          "name": "epoch",
          "type": "uint256"
        },
        {
          "internalType": "uint256",
          "name": "amount",
          "type": "uint256"
        }
      ],
      "name": "stake",
      "outputs": [],
      "stateMutability": "nonpayable",
      "type": "function"
    },
    {
      "inputs": [
        {
          "internalType": "uint256",
          "name": "epoch",
          "type": "uint256"
        }
      ],
      "name": "unstake",
      "outputs": [],
      "stateMutability": "nonpayable",
      "type": "function"
    },
    {
      "inputs": [
        {
          "internalType": "uint256",
          "name": "epoch",
          "type": "uint256"
        }
      ],
      "name": "withdraw",
      "outputs": [],
      "stateMutability": "nonpayable",
      "type": "function"
    },
    {
      "inputs": [
        {
          "internalType": "uint256",
          "name": "stakerId",
          "type": "uint256"
        },
        {
          "internalType": "uint256",
          "name": "epoch",
          "type": "uint256"
        }
      ],
      "name": "givePenalties",
      "outputs": [],
      "stateMutability": "nonpayable",
      "type": "function"
    },
    {
      "inputs": [
        {
          "internalType": "uint256",
          "name": "stakerId",
          "type": "uint256"
        },
        {
          "internalType": "uint256",
          "name": "epoch",
          "type": "uint256"
        }
      ],
      "name": "giveBlockReward",
      "outputs": [],
      "stateMutability": "nonpayable",
      "type": "function"
    },
    {
      "inputs": [
        {
          "internalType": "uint256",
          "name": "stakerId",
          "type": "uint256"
        },
        {
          "internalType": "uint256",
          "name": "epoch",
          "type": "uint256"
        }
      ],
      "name": "giveRewards",
      "outputs": [],
      "stateMutability": "nonpayable",
      "type": "function"
    },
    {
      "inputs": [
        {
          "internalType": "uint256",
          "name": "id",
          "type": "uint256"
        },
        {
          "internalType": "address",
          "name": "bountyHunter",
          "type": "address"
        },
        {
          "internalType": "uint256",
          "name": "epoch",
          "type": "uint256"
        }
      ],
      "name": "slash",
      "outputs": [],
      "stateMutability": "nonpayable",
      "type": "function"
    },
    {
      "inputs": [
        {
          "internalType": "address",
          "name": "_address",
          "type": "address"
        }
      ],
      "name": "getStakerId",
      "outputs": [
        {
          "internalType": "uint256",
          "name": "",
          "type": "uint256"
        }
      ],
      "stateMutability": "view",
      "type": "function"
    },
    {
      "inputs": [
        {
          "internalType": "uint256",
          "name": "_id",
          "type": "uint256"
        }
      ],
      "name": "getStaker",
      "outputs": [
        {
          "components": [
            {
              "internalType": "uint256",
              "name": "id",
              "type": "uint256"
            },
            {
              "internalType": "address",
              "name": "_address",
              "type": "address"
            },
            {
              "internalType": "uint256",
              "name": "stake",
              "type": "uint256"
            },
            {
              "internalType": "uint256",
              "name": "epochStaked",
              "type": "uint256"
            },
            {
              "internalType": "uint256",
              "name": "epochLastCommitted",
              "type": "uint256"
            },
            {
              "internalType": "uint256",
              "name": "epochLastRevealed",
              "type": "uint256"
            },
            {
              "internalType": "uint256",
              "name": "unstakeAfter",
              "type": "uint256"
            },
            {
              "internalType": "uint256",
              "name": "withdrawAfter",
              "type": "uint256"
            }
          ],
          "internalType": "struct Structs.Staker",
          "name": "staker",
          "type": "tuple"
        }
      ],
      "stateMutability": "view",
      "type": "function"
    },
    {
      "inputs": [],
      "name": "getNumStakers",
      "outputs": [
        {
          "internalType": "uint256",
          "name": "",
          "type": "uint256"
        }
      ],
      "stateMutability": "view",
      "type": "function"
    },
    {
      "inputs": [],
      "name": "getRewardPool",
      "outputs": [
        {
          "internalType": "uint256",
          "name": "",
          "type": "uint256"
        }
      ],
      "stateMutability": "view",
      "type": "function"
    },
    {
      "inputs": [],
      "name": "getStakeGettingReward",
      "outputs": [
        {
          "internalType": "uint256",
          "name": "",
          "type": "uint256"
        }
      ],
      "stateMutability": "view",
      "type": "function"
    },
    {
      "inputs": [
        {
          "internalType": "uint256",
          "name": "epochs",
          "type": "uint256"
        },
        {
          "internalType": "uint256",
          "name": "stakeValue",
          "type": "uint256"
        }
      ],
      "name": "calculateInactivityPenalties",
      "outputs": [
        {
          "internalType": "uint256",
          "name": "",
          "type": "uint256"
        }
      ],
      "stateMutability": "pure",
      "type": "function"
    }
  ],
  "bytecode": "0x60806040526000600355600060045560006005553480156200002057600080fd5b50620000376000336001600160e01b036200003d16565b62000175565b6200005282826001600160e01b036200005616565b5050565b6000828152602081815260409091206200007b91839062002241620000d8821b17901c565b156200005257620000946001600160e01b036200010116565b6001600160a01b0316816001600160a01b0316837f2f8788117e7eff1d82e926ec794901d17c78024a50270940304540a733656f0d60405160405180910390a45050565b6000620000f8836001600160a01b0384166001600160e01b036200010516565b90505b92915050565b3390565b60006200011c83836001600160e01b036200015d16565b6200015457508154600181810184556000848152602080822090930184905584548482528286019093526040902091909155620000fb565b506000620000fb565b60009081526001919091016020526040902054151590565b6137b280620001856000396000f3fe608060405234801561001057600080fd5b50600436106102275760003560e01c80636c8b052a11610130578063c584bb9f116100b8578063da2824a81161007c578063da2824a814610445578063df4eb59c14610458578063e3c998fe14610460578063fabb989014610480578063fd5e6dd11461049357610227565b8063c584bb9f146103fc578063c8ae0d7d14610404578063ca15c87314610417578063d547741f1461042a578063d9169b321461043d57610227565b806391d14854116100ff57806391d14854146103b35780639864f70a146103c6578063a217fddf146103d9578063a8a3e96f146103e1578063bc788d46146103f457610227565b80636c8b052a14610372578063746c8b651461037a5780637b0472f01461038d5780639010d07c146103a057610227565b80632e17de78116101b357806336568abe1161018257806336568abe1461032957806342c1e5871461033c57806354eae15e146103445780636022a4851461035757806366666aa91461036a57610227565b80632e17de78146102db5780632e1a7d4d146102ee5780632e716fb1146103015780632f2ff15d1461031657610227565b80631a69f008116101fa5780631a69f008146102855780631ad54991146102985780631b8b13a7146102a0578063248a9ca3146102a85780632b29ba23146102bb57610227565b806306552ff31461022c5780630ec88d3f146102415780630f91ce191461025f578063188dc83b14610272575b600080fd5b61023f61023a366004612d33565b6104ba565b005b61024961050a565b604051610256919061312e565b60405180910390f35b61023f61026d366004612fac565b610510565b61023f610280366004612de5565b61063d565b610249610293366004612e4f565b6106fd565b610249610876565b61024961087c565b6102496102b6366004612de5565b610882565b6102ce6102c9366004612d18565b610897565b6040516102569190613123565b61023f6102e9366004612de5565b6108a3565b61023f6102fc366004612de5565b610bd8565b61030961102a565b60405161025691906130d2565b61023f610324366004612e15565b611039565b61023f610337366004612e15565b611081565b6103096110c3565b61023f610352366004612e4f565b6110d2565b610249610365366004612d18565b611101565b61024961111c565b610249611122565b61023f610388366004612e4f565b611128565b61023f61039b366004612e4f565b61140c565b6103096103ae366004612e4f565b611b19565b6102ce6103c1366004612e15565b611b3e565b61023f6103d4366004612e4f565b611b5c565b610249611b96565b61023f6103ef366004612fe1565b611b9b565b610249611c0a565b610309611c10565b610249610412366004612d18565b611c1f565b610249610425366004612de5565b611c31565b61023f610438366004612e15565b611c48565b610309611c82565b61023f610453366004612d18565b611c91565b61023f611cc2565b61047361046e366004612de5565b611ccd565b6040516102569190613647565b61023f61048e366004612e4f565b611d49565b6104a66104a1366004612de5565b6121f3565b6040516102569897969594939291906136a4565b600680546001600160a01b039586166001600160a01b0319918216179091556007805494861694821694909417909355600880549285169284169290921790915560098054919093169116179055565b60055481565b61051933610897565b61053e5760405162461bcd60e51b81526004016105359061352c565b60405180910390fd5b600083815260026020819052604082208101546105609163ffffffff61225616565b905061058e8460006040518060400160405280600781526020016614db185cda195960ca1b81525085612298565b60018111156106375760065460405163a9059cbb60e01b81526001600160a01b039091169063a9059cbb906105c9908690859060040161310a565b602060405180830381600087803b1580156105e357600080fd5b505af11580156105f7573d6000803e3d6000fd5b505050506040513d601f19601f8201168201806040525081019061061b9190612dc5565b6106375760405162461bcd60e51b815260040161053590613249565b50505050565b61064633610897565b6106625760405162461bcd60e51b81526004016105359061352c565b600960009054906101000a90046001600160a01b03166001600160a01b031663757991a86040518163ffffffff1660e01b815260040160206040518083038186803b1580156106b057600080fd5b505afa1580156106c4573d6000803e3d6000fd5b505050506040513d601f19601f820116820180604052508101906106e89190612dfd565b60009182526002602052604090912060040155565b6000600a83101561070f575080610870565b600061084861082b73__Constants_____________________________63b1cc45006040518163ffffffff1660e01b815260040160206040518083038186803b15801561075b57600080fd5b505af415801561076f573d6000803e3d6000fd5b505050506040513d601f19601f820116820180604052508101906107939190612dfd565b61081f73__Constants_____________________________63a86f5a3f6040518163ffffffff1660e01b815260040160206040518083038186803b1580156107da57600080fd5b505af41580156107ee573d6000803e3d6000fd5b505050506040513d601f19601f820116820180604052508101906108129190612dfd565b879063ffffffff6122ea16565b9063ffffffff61225616565b61083c86600163ffffffff61232416565b9063ffffffff6122ea16565b90508281101561086a57610862838263ffffffff61232416565b915050610870565b60009150505b92915050565b60055490565b60045490565b60009081526020819052604090206002015490565b60006108708183611b3e565b60095460408051630eaf323560e31b8152905183926001600160a01b03169163757991a8916004808301926020929190829003018186803b1580156108e757600080fd5b505afa1580156108fb573d6000803e3d6000fd5b505050506040513d601f19601f8201168201806040525081019061091f9190612dfd565b811461093d5760405162461bcd60e51b815260040161053590613393565b73__Constants_____________________________633c7a3aff6040518163ffffffff1660e01b815260040160206040518083038186803b15801561098157600080fd5b505af4158015610995573d6000803e3d6000fd5b505050506040513d601f19601f820116820180604052508101906109b99190613066565b60ff16600960009054906101000a90046001600160a01b03166001600160a01b0316631865c57d6040518163ffffffff1660e01b815260040160206040518083038186803b158015610a0a57600080fd5b505afa158015610a1e573d6000803e3d6000fd5b505050506040513d601f19601f82011682018060405250810190610a429190612dfd565b8114610a605760405162461bcd60e51b815260040161053590613503565b3360009081526001602090815260408083205480845260029092529091208054610a9c5760405162461bcd60e51b815260040161053590613440565b6000816002015411610ac05760405162461bcd60e51b8152600401610535906132d0565b84816006015411158015610ad75750600681015415155b610af35760405162461bcd60e51b815260040161053590613420565b60008160060181905550610b8973__Constants_____________________________632628490f6040518163ffffffff1660e01b815260040160206040518083038186803b158015610b4457600080fd5b505af4158015610b58573d6000803e3d6000fd5b505050506040513d601f19601f82011682018060405250810190610b7c9190612dfd565b869063ffffffff61236616565b6007820155600281015460405183917f0cfbc484edc798d2584502ca0d64e7e9514b8dd091d96a2a5b4deb58478da19e91610bc9918991819042906136f1565b60405180910390a25050505050565b60095460408051630eaf323560e31b8152905183926001600160a01b03169163757991a8916004808301926020929190829003018186803b158015610c1c57600080fd5b505afa158015610c30573d6000803e3d6000fd5b505050506040513d601f19601f82011682018060405250810190610c549190612dfd565b8114610c725760405162461bcd60e51b815260040161053590613393565b73__Constants_____________________________633c7a3aff6040518163ffffffff1660e01b815260040160206040518083038186803b158015610cb657600080fd5b505af4158015610cca573d6000803e3d6000fd5b505050506040513d601f19601f82011682018060405250810190610cee9190613066565b60ff16600960009054906101000a90046001600160a01b03166001600160a01b0316631865c57d6040518163ffffffff1660e01b815260040160206040518083038186803b158015610d3f57600080fd5b505afa158015610d53573d6000803e3d6000fd5b505050506040513d601f19601f82011682018060405250810190610d779190612dfd565b8114610d955760405162461bcd60e51b815260040161053590613503565b3360009081526001602090815260408083205480845260029092529091208054610dd15760405162461bcd60e51b8152600401610535906133f3565b610de285600163ffffffff61232416565b816005015414610e045760405162461bcd60e51b8152600401610535906133bc565b600681015415610e265760405162461bcd60e51b8152600401610535906134da565b84816007015411158015610e3d5750600781015415155b610e595760405162461bcd60e51b8152600401610535906131db565b6007546040516338b2786b60e11b81526001600160a01b0390911690637164f0d690610e8b90889086906004016136e3565b60206040518083038186803b158015610ea357600080fd5b505afa158015610eb7573d6000803e3d6000fd5b505050506040513d601f19601f82011682018060405250810190610edb9190612dfd565b15610ef85760405162461bcd60e51b815260040161053590613490565b8054610f04908661238b565b6000816002015411610f285760405162461bcd60e51b81526004016105359061357c565b60008281526002602081905260408083209091018054908390559051909184917f0a6fecee2c95fc6b4c7f291e3435a3a832bcd700c2a7ffdedd8c909d56dfa49f91610f7a918a9190819042906136f1565b60405180910390a260065460405163a9059cbb60e01b81526001600160a01b039091169063a9059cbb90610fb4903390859060040161310a565b602060405180830381600087803b158015610fce57600080fd5b505af1158015610fe2573d6000803e3d6000fd5b505050506040513d601f19601f820116820180604052508101906110069190612dc5565b6110225760405162461bcd60e51b815260040161053590613328565b505050505050565b6009546001600160a01b031681565b600082815260208190526040902060020154611057906103c16126fc565b6110735760405162461bcd60e51b81526004016105359061318c565b61107d8282612700565b5050565b6110896126fc565b6001600160a01b0316816001600160a01b0316146110b95760405162461bcd60e51b8152600401610535906135a7565b61107d828261276f565b6007546001600160a01b031681565b6110db33610897565b6110f75760405162461bcd60e51b81526004016105359061352c565b61107d828261238b565b6001600160a01b031660009081526001602052604090205490565b60045481565b60035481565b61113133610897565b61114d5760405162461bcd60e51b81526004016105359061352c565b600073__Constants_____________________________630ac168a16040518163ffffffff1660e01b815260040160206040518083038186803b15801561119357600080fd5b505af41580156111a7573d6000803e3d6000fd5b505050506040513d601f19601f820116820180604052508101906111cb9190612dfd565b11156113be57600061127173__Constants_____________________________630ac168a16040518163ffffffff1660e01b815260040160206040518083038186803b15801561121a57600080fd5b505af415801561122e573d6000803e3d6000fd5b505050506040513d601f19601f820116820180604052508101906112529190612dfd565b600085815260026020819052604090912001549063ffffffff61236616565b90506112a383826040518060400160405280600c81526020016b109b1bd8dac814995dd85c9960a21b81525085612298565b600660009054906101000a90046001600160a01b03166001600160a01b03166340c10f193073__Constants_____________________________630ac168a16040518163ffffffff1660e01b815260040160206040518083038186803b15801561130c57600080fd5b505af4158015611320573d6000803e3d6000fd5b505050506040513d601f19601f820116820180604052508101906113449190612dfd565b6040518363ffffffff1660e01b815260040161136192919061310a565b602060405180830381600087803b15801561137b57600080fd5b505af115801561138f573d6000803e3d6000fd5b505050506040513d601f19601f820116820180604052508101906113b39190612dc5565b6113bc57600080fd5b505b6005805460009182905560405190917feee26d3c1e406e24904d3748e49da85096c92ac1a6ad38f3fe8a404f85212dd1916113ff91859185919042906136f1565b60405180910390a1505050565b60095460408051630eaf323560e31b8152905184926001600160a01b03169163757991a8916004808301926020929190829003018186803b15801561145057600080fd5b505afa158015611464573d6000803e3d6000fd5b505050506040513d601f19601f820116820180604052508101906114889190612dfd565b81146114a65760405162461bcd60e51b815260040161053590613393565b73__Constants_____________________________633c7a3aff6040518163ffffffff1660e01b815260040160206040518083038186803b1580156114ea57600080fd5b505af41580156114fe573d6000803e3d6000fd5b505050506040513d601f19601f820116820180604052508101906115229190613066565b60ff16600960009054906101000a90046001600160a01b03166001600160a01b0316631865c57d6040518163ffffffff1660e01b815260040160206040518083038186803b15801561157357600080fd5b505afa158015611587573d6000803e3d6000fd5b505050506040513d601f19601f820116820180604052508101906115ab9190612dfd565b81146115c95760405162461bcd60e51b815260040161053590613503565b73__Constants_____________________________63a475b5dd6040518163ffffffff1660e01b815260040160206040518083038186803b15801561160d57600080fd5b505af4158015611621573d6000803e3d6000fd5b505050506040513d601f19601f820116820180604052508101906116459190613066565b60ff16600960009054906101000a90046001600160a01b03166001600160a01b0316631865c57d6040518163ffffffff1660e01b815260040160206040518083038186803b15801561169657600080fd5b505afa1580156116aa573d6000803e3d6000fd5b505050506040513d601f19601f820116820180604052508101906116ce9190612dfd565b14156116ec5760405162461bcd60e51b815260040161053590613467565b73__Constants_____________________________63375b3c0a6040518163ffffffff1660e01b815260040160206040518083038186803b15801561173057600080fd5b505af4158015611744573d6000803e3d6000fd5b505050506040513d601f19601f820116820180604052508101906117689190612dfd565b8310156117875760405162461bcd60e51b8152600401610535906135f6565b6006546040516323b872dd60e01b81526001600160a01b03909116906323b872dd906117bb903390309088906004016130e6565b602060405180830381600087803b1580156117d557600080fd5b505af11580156117e9573d6000803e3d6000fd5b505050506040513d601f19601f8201168201806040525081019061180d9190612dc5565b6118295760405162461bcd60e51b8152600401610535906132fb565b3360009081526001602090815260408083205480845260029283905292200154816119ce5760035461186290600163ffffffff61236616565b6003819055506040518061010001604052806003548152602001336001600160a01b03168152602001868152602001878152602001600081526020016000815260200161193173__Constants_____________________________6326bf1c036040518163ffffffff1660e01b815260040160206040518083038186803b1580156118ec57600080fd5b505af4158015611900573d6000803e3d6000fd5b505050506040513d601f19601f820116820180604052508101906119249190612dfd565b899063ffffffff61236616565b815260006020918201819052600380548252600280845260408084208651815586860151600180830180546001600160a01b0319166001600160a01b039093169290921790915587830151938201939093556060870151818501556080870151600482015560a0870151600582015560c0870151600682015560e09096015160079096019590955590543383529252919091208190559150611abd565b600082815260026020819052604090912001546119f1908663ffffffff61236616565b6002600084815260200190815260200160002060020181905550611a9773__Constants_____________________________6326bf1c036040518163ffffffff1660e01b815260040160206040518083038186803b158015611a5257600080fd5b505af4158015611a66573d6000803e3d6000fd5b505050506040513d601f19601f82011682018060405250810190611a8a9190612dfd565b879063ffffffff61236616565b600380546000908152600260205260408082206006019390935590548152908120600701555b817f52d3b6bf695a499d39fcdb47e3b450c09f2f6aa091ca8809cc51c00e705996cc8783600260008781526020019081526020016000206002015442604051611b0994939291906136f1565b60405180910390a2505050505050565b6000828152602081905260408120611b37908363ffffffff6127de16565b9392505050565b6000828152602081905260408120611b37908363ffffffff6127ea16565b611b6533610897565b611b815760405162461bcd60e51b81526004016105359061352c565b60009182526002602052604090912060050155565b600081565b611ba433610897565b611bc05760405162461bcd60e51b81526004016105359061352c565b611c03858585858080601f016020809104026020016040519081016040528093929190818152602001838380828437600092019190915250879250612298915050565b5050505050565b60035490565b6006546001600160a01b031681565b60016020526000908152604090205481565b6000818152602081905260408120610870906127ff565b600082815260208190526040902060020154611c66906103c16126fc565b6110b95760405162461bcd60e51b815260040161053590613280565b6008546001600160a01b031681565b611c9a33610897565b611cb65760405162461bcd60e51b81526004016105359061352c565b611cbf8161280a565b50565b611ccb3361284c565b565b611cd5612bdc565b506000908152600260208181526040928390208351610100810185528154815260018201546001600160a01b03169281019290925291820154928101929092526003810154606083015260048101546080830152600581015460a0830152600681015460c08301526007015460e082015290565b611d5233610897565b611d6e5760405162461bcd60e51b81526004016105359061352c565b600554611d7a5761107d565b611d82612bdc565b50600082815260026020818152604092839020835161010081018552815481526001808301546001600160a01b03169382019390935292810154938301939093526003830154606083015260048301546080830152600583015460a08301819052600684015460c084015260079093015460e083015290919081840314611e0a57505061107d565b60085460405163378ab9a960e01b81526060916001600160a01b03169063378ab9a990611e3b90859060040161312e565b60006040518083038186803b158015611e5357600080fd5b505afa158015611e67573d6000803e3d6000fd5b505050506040513d6000823e601f3d908101601f19168201604052611e8f9190810190612d8a565b600854604051636952334d60e11b81529192506060916001600160a01b039091169063d2a4669a90611ec590869060040161312e565b60006040518083038186803b158015611edd57600080fd5b505afa158015611ef1573d6000803e3d6000fd5b505050506040513d6000823e601f3d908101601f19168201604052611f199190810190612d8a565b60085460405163fae4425d60e01b81529192506060916001600160a01b039091169063fae4425d90611f4f90879060040161312e565b60006040518083038186803b158015611f6757600080fd5b505afa158015611f7b573d6000803e3d6000fd5b505050506040513d6000823e601f3d908101601f19168201604052611fa39190810190612d8a565b8251909150156121ea576000805b83518110156120be576007548751604051634673ffa560e11b81526000926001600160a01b031691638ce7ff4a91611fef918b91879060040161373f565b604080518083038186803b15801561200657600080fd5b505afa15801561201a573d6000803e3d6000fd5b505050506040513d601f19601f8201168201806040525081019061203e9190612f79565b600001519050600086838151811061205257fe5b60200260200101519050600086848151811061206a57fe5b60200260200101519050600086858151811061208257fe5b60200260200101519050828414806120a25750818411806120a257508084105b156120ae578560010195505b505060019092019150611fb19050565b5060008351600554028260045489604001510202816120d957fe5b04905080156121e75760055460408801518110156120f857600061210f565b604088015160055461210f9163ffffffff61232416565b60058190556040517feee26d3c1e406e24904d3748e49da85096c92ac1a6ad38f3fe8a404f85212dd191612148918c91859142906136f1565b60405180910390a160408801516004549083019061216c818563ffffffff61232416565b60048190556040517ff7157643fd549e213a0105625da6b3bf58c86068ccb954a4449e18bf9427bff4916121a5918e91859142906136f1565b60405180910390a16121e38a60000151836040518060400160405280600e81526020016d566f74696e67205265776172647360901b8152508e612298565b5050505b50505b50505050505050565b60026020819052600091825260409091208054600182015492820154600383015460048401546005850154600686015460079096015494966001600160a01b03169593949293919290919088565b6000611b37836001600160a01b03841661288e565b6000611b3783836040518060400160405280601a81526020017f536166654d6174683a206469766973696f6e206279207a65726f0000000000008152506128d8565b60008481526002602081905260409182902001805490859055905185907fab9982d99de79485b3cd6d1e72c881fd0342f42f1cbc7d220d4f373b97c4f36390610bc9908490889088908890429061370c565b6000826122f957506000610870565b8282028284828161230657fe5b0414611b375760405162461bcd60e51b815260040161053590613352565b6000611b3783836040518060400160405280601e81526020017f536166654d6174683a207375627472616374696f6e206f766572666c6f77000081525061290f565b600082820183811015611b375760405162461bcd60e51b815260040161053590613212565b612395828261293b565b60008281526002602081905260409091209081015460058201546123b7612c2a565b6008546040516304c0756960e01b81526001600160a01b03909116906304c07569906123e790859060040161312e565b60006040518083038186803b1580156123ff57600080fd5b505afa158015612413573d6000803e3d6000fd5b505050506040513d6000823e601f3d908101601f1916820160405261243b9190810190612e70565b60608101516080820151604083015182519394509192909190156121e7576000805b84518110156125e4576007548954604051634673ffa560e11b81526000926001600160a01b031691638ce7ff4a9161249b918c91879060040161373f565b604080518083038186803b1580156124b257600080fd5b505afa1580156124c6573d6000803e3d6000fd5b505050506040513d601f19601f820116820180604052508101906124ea9190612f79565b60000151905060008683815181106124fe57fe5b60200260200101519050600086848151811061251657fe5b60200260200101519050600086858151811061252e57fe5b602002602001015190508284108061254557508184115b156125d45773__Constants_____________________________633002c9ac6040518163ffffffff1660e01b815260040160206040518083038186803b15801561258e57600080fd5b505af41580156125a2573d6000803e3d6000fd5b505050506040513d601f19601f820116820180604052508101906125c69190612dfd565b8c816125ce57fe5b04860195505b50506001909201915061245d9050565b50801561269a578681116125f857806125fa565b865b885490915061264090612613898463ffffffff61232416565b6040518060400160405280600e81526020016d566f74696e672050656e616c747960901b8152508c612298565b600454612653818363ffffffff61236616565b60048190556040517ff7157643fd549e213a0105625da6b3bf58c86068ccb954a4449e18bf9427bff49161268c918d91859142906136f1565b60405180910390a1506126f0565b6005546126ad818963ffffffff61236616565b60058190556040517feee26d3c1e406e24904d3748e49da85096c92ac1a6ad38f3fe8a404f85212dd1916126e6918d91859142906136f1565b60405180910390a1505b50505050505050505050565b3390565b600082815260208190526040902061271e908263ffffffff61224116565b1561107d5761272b6126fc565b6001600160a01b0316816001600160a01b0316837f2f8788117e7eff1d82e926ec794901d17c78024a50270940304540a733656f0d60405160405180910390a45050565b600082815260208190526040902061278d908263ffffffff612aaa16565b1561107d5761279a6126fc565b6001600160a01b0316816001600160a01b0316837ff6391f5c32d9c69d2a47ea670b442974b53935d1edc7fd64eb21e047a839171b60405160405180910390a45050565b6000611b378383612abf565b6000611b37836001600160a01b038416612b04565b600061087082612b1c565b612815600082611039565b6040516001600160a01b038216907f6ff3aa2ea7b53070f6d9d07a445d338d89e8edef44250ffa8be19f53910d4a2e90600090a250565b612857600082611081565b6040516001600160a01b038216907f86e5bbceda94081c32220d685f37cc4e3ea7bb0be2dfbf0cb703579505a5390e90600090a250565b600061289a8383612b04565b6128d057508154600181810184556000848152602080822090930184905584548482528286019093526040902091909155610870565b506000610870565b600081836128f95760405162461bcd60e51b81526004016105359190613137565b50600083858161290557fe5b0495945050505050565b600081848411156129335760405162461bcd60e51b81526004016105359190613137565b505050900390565b612943612bdc565b5060008281526002602081815260408084208151610100810183528154815260018201546001600160a01b031693810193909352928301549082015260038201546060820181905260048301546080830152600583015460a08301819052600684015460c084015260079093015460e0830152909291116129c85781606001516129ce565b8160a001515b905060006129e2848363ffffffff61232416565b604084015190915060006129f683836106fd565b9050818110156121ea57612a3a85600001518260405180604001604052806012815260200171496e61637469766974792050656e616c747960701b81525089612298565b600454612a5f612a50848463ffffffff61232416565b6004549063ffffffff61236616565b60048190556040517ff7157643fd549e213a0105625da6b3bf58c86068ccb954a4449e18bf9427bff491612a98918a91859142906136f1565b60405180910390a15050505050505050565b6000611b37836001600160a01b038416612b20565b81546000908210612ae25760405162461bcd60e51b81526004016105359061314a565b826000018281548110612af157fe5b9060005260206000200154905092915050565b60009081526001919091016020526040902054151590565b5490565b6000818152600183016020526040812054801561086a5783546000198083019190810190600090879083908110612b5357fe5b9060005260206000200154905080876000018481548110612b7057fe5b600091825260208083209091019290925582815260018981019092526040902090840190558654879080612ba057fe5b60019003818190600052602060002001600090559055866001016000878152602001908152602001600020600090556001945050505050610870565b6040518061010001604052806000815260200160006001600160a01b031681526020016000815260200160008152602001600081526020016000815260200160008152602001600081525090565b604051806101000160405280600081526020016060815260200160608152602001606081526020016060815260200160008152602001600081526020016000151581525090565b80356001600160a01b038116811461087057600080fd5b600082601f830112612c98578081fd5b815167ffffffffffffffff811115612cae578182fd5b6020808202612cbe828201613755565b83815293508184018583018287018401881015612cda57600080fd5b600092505b84831015612cfd578051825260019290920191908301908301612cdf565b505050505092915050565b8051801515811461087057600080fd5b600060208284031215612d29578081fd5b611b378383612c71565b60008060008060808587031215612d48578283fd5b612d528686612c71565b9350612d618660208701612c71565b9250612d708660408701612c71565b9150612d7f8660608701612c71565b905092959194509250565b600060208284031215612d9b578081fd5b815167ffffffffffffffff811115612db1578182fd5b612dbd84828501612c88565b949350505050565b600060208284031215612dd6578081fd5b81518015158114611b37578182fd5b600060208284031215612df6578081fd5b5035919050565b600060208284031215612e0e578081fd5b5051919050565b60008060408385031215612e27578182fd5b8235915060208301356001600160a01b0381168114612e44578182fd5b809150509250929050565b60008060408385031215612e61578182fd5b50508035926020909101359150565b600060208284031215612e81578081fd5b815167ffffffffffffffff80821115612e98578283fd5b610100918401808603831315612eac578384fd5b612eb583613755565b815181526020820151935082841115612ecc578485fd5b612ed887858401612c88565b60208201526040820151935082841115612ef0578485fd5b612efc87858401612c88565b60408201526060820151935082841115612f14578485fd5b612f2087858401612c88565b60608201526080820151935082841115612f38578485fd5b612f4487858401612c88565b608082015260a082015160a082015260c082015160c0820152612f6a8760e08401612d08565b60e08201529695505050505050565b600060408284031215612f8a578081fd5b612f946040613755565b82518152602083015160208201528091505092915050565b600080600060608486031215612fc0578283fd5b83359250612fd18560208601612c71565b9150604084013590509250925092565b600080600080600060808688031215612ff8578283fd5b8535945060208601359350604086013567ffffffffffffffff8082111561301d578485fd5b81880189601f82011261302e578586fd5b803592508183111561303e578586fd5b89602084830101111561304f578586fd5b969995985050602090950195606001359392505050565b600060208284031215613077578081fd5b815160ff81168114611b37578182fd5b60008151808452815b818110156130ac57602081850181015186830182015201613090565b818111156130bd5782602083870101525b50601f01601f19169290920160200192915050565b6001600160a01b0391909116815260200190565b6001600160a01b039384168152919092166020820152604081019190915260600190565b6001600160a01b03929092168252602082015260400190565b901515815260200190565b90815260200190565b600060208252611b376020830184613087565b60208082526022908201527f456e756d657261626c655365743a20696e646578206f7574206f6620626f756e604082015261647360f01b606082015260800190565b6020808252602f908201527f416363657373436f6e74726f6c3a2073656e646572206d75737420626520616e60408201526e0818591b5a5b881d1bc819dc985b9d608a1b606082015260800190565b6020808252601a908201527f57697468647261772065706f6368206e6f742072656163686564000000000000604082015260600190565b6020808252601b908201527f536166654d6174683a206164646974696f6e206f766572666c6f770000000000604082015260600190565b60208082526019908201527f6661696c656420746f207472616e7366657220626f756e747900000000000000604082015260600190565b60208082526030908201527f416363657373436f6e74726f6c3a2073656e646572206d75737420626520616e60408201526f2061646d696e20746f207265766f6b6560801b606082015260800190565b6020808252601190820152704e6f6e706f736974697665207374616b6560781b604082015260600190565b6020808252601390820152721cd8da081d1c985b9cd9995c8819985a5b1959606a1b604082015260600190565b60208082526010908201526f31b7bab632373a103a3930b739b332b960811b604082015260600190565b60208082526021908201527f536166654d6174683a206d756c7469706c69636174696f6e206f766572666c6f6040820152607760f81b606082015260800190565b6020808252600f908201526e0d2dcc6dee4e4cac6e840cae0dec6d608b1b604082015260600190565b6020808252601a908201527f4469646e742072657665616c20696e206c6173742065706f6368000000000000604082015260600190565b6020808252601390820152721cdd185ad95c88191bd95cdb9d08195e1a5cdd606a1b604082015260600190565b6020808252600690820152651b1bd8dad95960d21b604082015260600190565b6020808252600d908201526c07374616b65722e6964203d203609c1b604082015260600190565b6020808252600f908201526e496e636f727265637420737461746560881b604082015260600190565b6020808252602a908201527f616c726561647920636f6d6d6974656420746869732065706f63682e2043616e6040820152697420776974686472617760b01b606082015260800190565b6020808252600f908201526e446964206e6f7420756e7374616b6560881b604082015260600190565b6020808252600f908201526e696e636f727265637420737461746560881b604082015260600190565b60208082526030908201527f577269746572526f6c653a2063616c6c657220646f6573206e6f74206861766560408201526f207468652057726974657220726f6c6560801b606082015260800190565b6020808252601190820152704e6f6e706f736974697665205374616b6560781b604082015260600190565b6020808252602f908201527f416363657373436f6e74726f6c3a2063616e206f6e6c792072656e6f756e636560408201526e103937b632b9903337b91039b2b63360891b606082015260800190565b60208082526031908201527f7374616b656420616d6f756e74206973206c657373207468616e206d696e696d6040820152701d5b481cdd185ad9481c995c5d5a5c9959607a1b606082015260800190565b815181526020808301516001600160a01b03169082015260408083015190820152606080830151908201526080808301519082015260a0808301519082015260c0808301519082015260e091820151918101919091526101000190565b9788526001600160a01b0396909616602088015260408701949094526060860192909252608085015260a084015260c083015260e08201526101000190565b918252602082015260400190565b93845260208401929092526040830152606082015260800190565b600086825285602083015260a0604083015261372b60a0830186613087565b606083019490945250608001529392505050565b9283526020830191909152604082015260600190565b60405181810167ffffffffffffffff8111828210171561377457600080fd5b60405291905056fea264697066735822122015be21ec8c5658452fff14b6ed6c09378f1fa8209b2ed4bf9bb789ae25ab964a64736f6c634300060b0033",
  "immutableReferences": {},
  "source": "// SPDX-License-Identifier: GPL-3.0\npragma solidity 0.6.11;\npragma experimental ABIEncoderV2;\nimport \"../SchellingCoin.sol\";\nimport \"./Utils.sol\";\nimport \"./WriterRole.sol\";\nimport \"./StakeStorage.sol\";\nimport \"./IStateManager.sol\";\nimport \"./IBlockManager.sol\";\nimport \"./IVoteManager.sol\";\nimport \"../lib/Constants.sol\";\nimport \"openzeppelin-solidity/contracts/math/SafeMath.sol\";\n\n/// @title StakeManager\n/// @notice StakeManager handles stake, unstake, withdraw, reward, functions\n/// for stakers\n\ncontract StakeManager is Utils, WriterRole, StakeStorage {\n    using SafeMath for uint256;\n    SchellingCoin public sch;\n    IVoteManager public voteManager;\n    IBlockManager public blockManager;\n    IStateManager public stateManager;\n\n    modifier checkEpoch (uint256 epoch) {\n        require(epoch == stateManager.getEpoch(), \"incorrect epoch\");\n        _;\n    }\n\n    modifier checkState (uint256 state) {\n        require(state == stateManager.getState(), \"incorrect state\");\n        _;\n    }\n\n    /// @param _schAddress The address of the Schelling token ERC20 contract\n    /// @param _voteManagerAddress The address of the VoteManager contract\n    /// @param _blockManagerAddress The address of the BlockManager contract\n    /// @param _stateManagerAddress The address of the StateManager contract\n    /// todo disable after init\n    function init (address _schAddress, address _voteManagerAddress,\n        address _blockManagerAddress, address _stateManagerAddress) external {\n        sch = SchellingCoin(_schAddress);\n        voteManager = IVoteManager(_voteManagerAddress);\n        blockManager = IBlockManager(_blockManagerAddress);\n        stateManager = IStateManager(_stateManagerAddress);\n    }\n\n    event StakeChange(uint256 indexed stakerId, uint256 previousStake, uint256 newStake,\n                    string reason, uint256 epoch, uint256 timestamp);\n\n    event RewardPoolChange(uint256 epoch, uint256 prevRewardPool, uint256 rewardPool, uint256 timestamp);\n    event StakeGettingRewardChange(uint256 epoch, uint256 prevStakeGettingReward, uint256 stakeGettingReward, uint256 timestamp);\n\n    /// @param _id The ID of the staker\n    /// @param _stake The amount of schelling tokens that staker stakes\n    function setStakerStake(uint256 _id, uint256 _stake, string calldata _reason, uint256 _epoch) external onlyWriter {\n        _setStakerStake(_id, _stake, _reason, _epoch);\n    }\n\n    /// @param _id The ID of the staker\n    /// @param _epochLastRevealed The number of epoch that staker revealed asset values\n    function setStakerEpochLastRevealed(uint256 _id, uint256 _epochLastRevealed) external onlyWriter {\n        stakers[_id].epochLastRevealed = _epochLastRevealed;\n    }\n\n    /// @param stakerId The ID of the staker\n    function updateCommitmentEpoch(uint256 stakerId) external onlyWriter {\n        stakers[stakerId].epochLastCommitted = stateManager.getEpoch();\n    }\n\n    event Staked(uint256 epoch, uint256 indexed stakerId, uint256 previousStake, uint256 newStake, uint256 timestamp);\n\n    /// @notice stake during commit state only\n    /// we check epoch during every transaction to avoid withholding and rebroadcasting attacks\n    /// @param epoch The Epoch value for which staker is requesting to stake\n    /// @param amount The amount of schelling tokens Staker stakes\n    function stake (uint256 epoch, uint256 amount) external checkEpoch(epoch) checkState(Constants.commit()) {\n        // not allowed during reveal period\n        require(stateManager.getState() != Constants.reveal(), \"Incorrect state\");\n        require(amount >= Constants.minStake(), \"staked amount is less than minimum stake required\");\n        require(sch.transferFrom(msg.sender, address(this), amount), \"sch transfer failed\");\n        uint256 stakerId = stakerIds[msg.sender];\n        uint256 previousStake = stakers[stakerId].stake;\n        if (stakerId == 0) {\n            numStakers = numStakers.add(1);\n            stakers[numStakers] = Structs.Staker(numStakers, msg.sender, amount, epoch, 0, 0,\n            epoch.add(Constants.unstakeLockPeriod()), 0);\n            stakerId = numStakers;\n            stakerIds[msg.sender] = stakerId;\n        } else {\n            //WARNING: ALLOWING STAKE TO BE ADDEDD AFTER WITHDRAW/SLASH. consequences unknown\n            // require(stakers[stakerId].stake > 0,\n            //         \"adding stake is not possible after withdrawal/slash. Please use a new address\");\n            // previousStake = stakers[stakerId].stake;\n            stakers[stakerId].stake = stakers[stakerId].stake.add(amount);\n            stakers[numStakers].unstakeAfter = epoch.add(Constants.unstakeLockPeriod());\n            stakers[numStakers].withdrawAfter = 0;\n        }\n        // totalStake = totalStake.add(amount);\n        emit Staked(epoch, stakerId, previousStake, stakers[stakerId].stake, now);\n    }\n\n    event Unstaked(uint256 epoch, uint256 indexed stakerId, uint256 amount, uint256 newStake, uint256 timestamp);\n\n    /// @notice staker must call unstake() and continue voting for Constants.WITHDRAW_LOCK_PERIOD\n    /// after which she can call withdraw() to finally Withdraw\n    /// @param epoch The Epoch value for which staker is requesting to unstake\n    function unstake (uint256 epoch) external checkEpoch(epoch)  checkState(Constants.commit()) {\n        uint256 stakerId = stakerIds[msg.sender];\n        Structs.Staker storage staker = stakers[stakerId];\n        require(staker.id != 0, \"staker.id = 0\");\n        require(staker.stake > 0, \"Nonpositive stake\");\n        require(staker.unstakeAfter <= epoch && staker.unstakeAfter != 0, \"locked\");\n        staker.unstakeAfter = 0;\n        staker.withdrawAfter = epoch.add(Constants.withdrawLockPeriod());\n        emit Unstaked(epoch, stakerId, staker.stake, staker.stake, now);\n    }\n\n    event Withdrew(uint256 epoch, uint256 indexed stakerId, uint256 amount, uint256 newStake, uint256 timestamp);\n\n    /// @notice Helps stakers withdraw their stake if previously unstaked\n    /// @param epoch The Epoch value for which staker is requesting a withdraw\n    function withdraw (uint256 epoch) external checkEpoch(epoch) checkState(Constants.commit()) {\n        uint256 stakerId = stakerIds[msg.sender];\n        Structs.Staker storage staker = stakers[stakerId];\n        require(staker.id != 0, \"staker doesnt exist\");\n        require(staker.epochLastRevealed == epoch.sub(1), \"Didnt reveal in last epoch\");\n        require(staker.unstakeAfter == 0, \"Did not unstake\");\n        require((staker.withdrawAfter <= epoch) && staker.withdrawAfter != 0, \"Withdraw epoch not reached\");\n        require(voteManager.getCommitment(epoch, stakerId) == 0x0, \"already commited this epoch. Cant withdraw\");\n        _givePenalties(staker.id, epoch);\n        require(staker.stake > 0, \"Nonpositive Stake\");\n        // SchellingCoin sch = SchellingCoin(schAddress);\n        // totalStake = totalStake.sub(stakers[stakerId].stake);\n        uint256 toTransfer = stakers[stakerId].stake;\n        stakers[stakerId].stake = 0;\n        emit Withdrew(epoch, stakerId, stakers[stakerId].stake, 0, now);\n        require(sch.transfer(msg.sender, toTransfer), \"couldnt transfer\");\n    }\n\n    /// @notice gives penalty to stakers for failing to reveal or\n    /// reveal value deviations\n    /// @param stakerId The id of staker currently in consideration\n    /// @param epoch the epoch value\n    /// todo reduce complexity\n    function givePenalties (uint256 stakerId, uint256 epoch) external onlyWriter {\n        _givePenalties(stakerId, epoch);\n    }\n\n    /// @notice The function gives block reward for one valid proposer in the\n    /// previous epoch by minting new tokens from the schelling token contract\n    /// called from confirmBlock function of BlockManager contract\n    /// @param stakerId The ID of the staker\n    function giveBlockReward(uint256 stakerId, uint256 epoch) external onlyWriter {\n        if (Constants.blockReward() > 0) {\n            uint256 newStake = stakers[stakerId].stake.add(Constants.blockReward());\n            _setStakerStake(stakerId, newStake, \"Block Reward\", epoch);\n            // stakers[proposerId].stake = stakers[proposerId].stake.add(Constants.blockReward());\n            // totalStake = totalStake.add(Constants.blockReward());\n            require(sch.mint(address(this), Constants.blockReward()));\n        }\n        uint256 prevStakeGettingReward = stakeGettingReward;\n        stakeGettingReward = 0;\n        emit StakeGettingRewardChange(epoch, prevStakeGettingReward, stakeGettingReward, now);\n\n    }\n\n    /// @notice This function is called in VoteManager reveal function to give\n    /// rewards to all the stakers who have correctly staked, committed, revealed\n    /// the Values of assets according to the razor protocol rules.\n    /// @param stakerId The staker id\n    /// @param epoch The epoch number for which reveal has been called\n    function giveRewards (uint256 stakerId, uint256 epoch) external onlyWriter {\n        if (stakeGettingReward == 0) return;\n        Structs.Staker memory thisStaker = stakers[stakerId];\n        uint256 epochLastRevealed = thisStaker.epochLastRevealed;\n\n        //never revealed\n        // if (epochLastRevealed < 1) return;\n\n        // no rewards if you didn't reveal last epoch\n        if ((epoch - epochLastRevealed) != 1) return;\n        uint256[] memory mediansLastEpoch = blockManager.getBlockMedians(epochLastRevealed);\n        uint256[] memory lowerCutoffsLastEpoch = blockManager.getLowerCutoffs(epochLastRevealed);\n        uint256[] memory higherCutoffsLastEpoch = blockManager.getHigherCutoffs(epochLastRevealed);\n\n        // require(mediansLastEpoch.length > 0);\n        if (lowerCutoffsLastEpoch.length > 0) {\n            //epoch->stakerid->assetid->vote\n            // mapping (uint256 => mapping (uint256 =>  mapping (uint256 => Structs.Vote))) public votes;\n            uint256 rewardable = 0;\n            for (uint256 i = 0; i < lowerCutoffsLastEpoch.length; i++) {\n                uint256 voteLastEpoch = voteManager.getVote(epochLastRevealed, thisStaker.id, i).value;\n                uint256 medianLastEpoch = mediansLastEpoch[i];\n                uint256 lowerCutoffLastEpoch = lowerCutoffsLastEpoch[i];\n                uint256 higherCutoffLastEpoch = higherCutoffsLastEpoch[i];\n\n                //give rewards if voted in zone\n                if ((voteLastEpoch == medianLastEpoch) ||\n                ((voteLastEpoch > lowerCutoffLastEpoch) ||\n                    (voteLastEpoch < higherCutoffLastEpoch))) {\n                    rewardable = rewardable + 1;\n                }\n            }\n            // emit DebugUint256(rewardable);\n            // emit DebugUint256(rewardPool);\n            //reward = S*RP*n/SR*N\n            uint256 reward = (thisStaker.stake*rewardPool*rewardable)/\n            (stakeGettingReward*lowerCutoffsLastEpoch.length);\n            if (reward > 0) {\n                uint256 prevStakeGettingReward = stakeGettingReward;\n                stakeGettingReward = stakeGettingReward >= thisStaker.stake ? stakeGettingReward.sub(thisStaker.stake) : 0;\n                emit StakeGettingRewardChange(epoch, prevStakeGettingReward, stakeGettingReward, now);\n                uint256 newStake = thisStaker.stake + reward;\n                uint256 prevRewardPool = rewardPool;\n                rewardPool = rewardPool.sub(reward);\n                emit RewardPoolChange(epoch, prevRewardPool, rewardPool, now);\n                _setStakerStake(thisStaker.id, newStake, \"Voting Rewards\", epoch);\n            }\n        }\n    }\n\n    /// @notice The function is used by the Votemanager reveal function\n    /// to penalise the staker who lost his secret and make his stake zero and\n    /// transfer to bounty hunter half the schelling tokens of the stakers stake\n    /// @param id The ID of the staker who is penalised\n    /// @param bountyHunter The address of the bounty hunter\n    function slash (uint256 id, address bountyHunter, uint256 epoch) external onlyWriter {\n        // SchellingCoin sch = SchellingCoin(schAddress);\n        uint256 halfStake = stakers[id].stake.div(2);\n        _setStakerStake(id, 0, \"Slashed\", epoch);\n        if (halfStake > 1) {\n            // totalStake = totalStake.sub(halfStake);\n            require(sch.transfer(bountyHunter, halfStake), \"failed to transfer bounty\");\n        }\n    }\n\n    /// @param _address Address of the staker\n    /// @return The staker ID\n    function getStakerId(address _address) external view returns(uint256) {\n        return(stakerIds[_address]);\n    }\n\n    /// @param _id The staker ID\n    /// @return staker The Struct of staker information\n    function getStaker(uint256 _id) external view returns(Structs.Staker memory staker) {\n        return(stakers[_id]);\n    }\n\n    /// @return The number of stakers in the razor network\n    function getNumStakers() external view returns(uint256) {\n        return(numStakers);\n    }\n\n    /// @return The rewardpool\n    function getRewardPool() external view returns(uint256) {\n        return(rewardPool);\n    }\n\n    /// @return The stakeGettingReward value\n    function getStakeGettingReward() external view returns(uint256) {\n        return(stakeGettingReward);\n    }\n\n    /// @notice Calculates the inactivity penalties of the staker\n    /// @param epochs The difference of epochs where the staker was inactive\n    /// @param stakeValue The Stake that staker had in last epoch\n    function calculateInactivityPenalties(uint256 epochs, uint256 stakeValue) public pure returns(uint256) {\n        //not really inactive. do nothing. give 10 epoch grace\n        if (epochs < 10) {\n            return(stakeValue);\n        }\n        // penalty =( epochs -1)*stakeValue*penNum/penDiv\n        uint256 penalty = (epochs.sub(1)).mul((stakeValue.mul(Constants.penaltyNotRevealNum())).div(\n        Constants.penaltyNotRevealDenom()));\n        if (penalty < stakeValue) {\n            return(stakeValue.sub(penalty));\n        } else {\n            return(0);\n        }\n    }\n\n    /// @notice internal function for setting stake of the staker\n    /// called in the giveRewards function\n    /// @param _id of the staker\n    /// @param _stake the amount of schelling tokens staked\n    function _setStakerStake(uint256 _id, uint256 _stake, string memory _reason, uint256 _epoch) internal {\n        uint256 previousStake = stakers[_id].stake;\n        stakers[_id].stake = _stake;\n        emit StakeChange(_id, previousStake, _stake, _reason, _epoch, now);\n    }\n\n    /// @notice The function gives out penalties to stakers during withdraw\n    /// and commit. The penalties are given for inactivity, failing to reveal\n    /// even though unstaked, deviation from the median value of particular asset\n    /// @param stakerId The staker id\n    /// @param epoch The Epoch value in consideration\n    function _giveInactivityPenalties(uint256 stakerId, uint256 epoch) internal {\n        Structs.Staker memory thisStaker = stakers[stakerId];\n\n        uint256 epochLastActive = thisStaker.epochStaked < thisStaker.epochLastRevealed ?\n                                thisStaker.epochLastRevealed :\n                                thisStaker.epochStaked;\n        // penalize or reward if last active more than epoch - 1\n        uint256 penalizeEpochs = epoch.sub(epochLastActive);\n        uint256 previousStake = thisStaker.stake;\n        // uint256 currentStake = previousStake;\n        uint256 currentStake = calculateInactivityPenalties(penalizeEpochs, previousStake);\n        if (currentStake < previousStake) {\n            _setStakerStake(thisStaker.id, currentStake, \"Inactivity Penalty\", epoch);\n            uint256 prevRewardPool = rewardPool;\n            rewardPool = rewardPool.add(previousStake.sub(currentStake));\n            emit RewardPoolChange(epoch, prevRewardPool, rewardPool, now);\n        }\n    }\n    function _givePenalties (uint256 stakerId, uint256 epoch) internal {\n        _giveInactivityPenalties(stakerId, epoch);\n        Structs.Staker storage thisStaker = stakers[stakerId];\n        uint256 previousStake = thisStaker.stake;\n        uint256 epochLastRevealed = thisStaker.epochLastRevealed;\n\n        Structs.Block memory _block = blockManager.getBlock(epochLastRevealed);\n\n        uint256[] memory lowerCutoffsLastEpoch = _block.lowerCutoffs;\n        uint256[] memory higherCutoffsLastEpoch = _block.higherCutoffs;\n        uint256[] memory mediansLastEpoch = _block.medians;\n\n        if (lowerCutoffsLastEpoch.length > 0) {\n            uint256 penalty = 0;\n            for (uint256 i = 0; i < lowerCutoffsLastEpoch.length; i++) {\n                uint256 voteLastEpoch = voteManager.getVote(epochLastRevealed, thisStaker.id, i).value;\n                uint256 lowerCutoffLastEpoch = lowerCutoffsLastEpoch[i];\n                uint256 higherCutoffLastEpoch = higherCutoffsLastEpoch[i];\n                uint256 medianLastEpoch = mediansLastEpoch[i];\n\n                if (((voteLastEpoch < lowerCutoffLastEpoch) ||\n                    (voteLastEpoch > higherCutoffLastEpoch))) {//} &&\n                    // (voteLastEpoch != medianLastEpoch)) {\n                    //WARNING: Potential security vulnerability. Could increase stake maliciously\n                    //WARNING: unchecked underflow\n                    penalty = penalty + (previousStake/Constants.exposureDenominator());\n                }\n            }\n\n            if (penalty > 0) {\n                penalty = (penalty > previousStake) ? previousStake : penalty;\n                _setStakerStake(thisStaker.id, (previousStake.sub(penalty)), \"Voting Penalty\", epoch);\n                uint256 prevRewardPool = rewardPool;\n                rewardPool = rewardPool.add(penalty);\n                emit RewardPoolChange(epoch, prevRewardPool, rewardPool, now);\n            } else {\n                //no penalty. only reward\n                uint256 prevStakeGettingReward = stakeGettingReward;\n                stakeGettingReward = stakeGettingReward.add(previousStake);//*(1 - y);\n                emit StakeGettingRewardChange(epoch, prevStakeGettingReward, stakeGettingReward, now);\n            }\n        }\n    }\n\n    // function stakeTransfer(uint256 fromId, address to, uint256 amount) internal{\n    //     // uint256 fromId = stakerIds[from];\n    //     require(fromId!=0);\n    //     require(stakers[fromId].stake >= amount);\n    //     uint256 toId = stakerIds[to];\n    //     stakers[fromId].stake = stakers[fromId].stake - amount;\n    //     if (toId == 0) {\n    //         numStakers = numStakers + 1;\n    //         stakers[numStakers] = Structs.Staker(numStakers, amount, 0, 0, 0);\n    //         stakerIds[to] = numStakers;\n    //     } else {\n    //         stakers[toId].stake = stakers[toId].stake + amount;\n    //     }\n    // }\n\n}\n",
  "sourcePath": "/home/user/Documents/Razor-Internship/contracts/contracts/Core/StakeManager.sol",
  "compiler": {
    "name": "solc",
    "version": "0.6.11+commit.5ef660b1.Emscripten.clang"
  },
  "schemaVersion": "3.2.2",
  "updatedAt": "2020-07-22T14:29:02.728Z",
  "devdoc": {
    "kind": "dev",
    "methods": {
      "calculateInactivityPenalties(uint256,uint256)": {
        "params": {
          "epochs": "The difference of epochs where the staker was inactive",
          "stakeValue": "The Stake that staker had in last epoch"
        }
      },
      "getNumStakers()": {
        "returns": {
          "_0": "The number of stakers in the razor network"
        }
      },
      "getRewardPool()": {
        "returns": {
          "_0": "The rewardpool"
        }
      },
      "getRoleAdmin(bytes32)": {
        "details": "Returns the admin role that controls `role`. See {grantRole} and {revokeRole}. To change a role's admin, use {_setRoleAdmin}."
      },
      "getRoleMember(bytes32,uint256)": {
        "details": "Returns one of the accounts that have `role`. `index` must be a value between 0 and {getRoleMemberCount}, non-inclusive. Role bearers are not sorted in any particular way, and their ordering may change at any point. WARNING: When using {getRoleMember} and {getRoleMemberCount}, make sure you perform all queries on the same block. See the following https://forum.openzeppelin.com/t/iterating-over-elements-on-enumerableset-in-openzeppelin-contracts/2296[forum post] for more information."
      },
      "getRoleMemberCount(bytes32)": {
        "details": "Returns the number of accounts that have `role`. Can be used together with {getRoleMember} to enumerate all bearers of a role."
      },
      "getStakeGettingReward()": {
        "returns": {
          "_0": "The stakeGettingReward value"
        }
      },
      "getStaker(uint256)": {
        "params": {
          "_id": "The staker ID"
        },
        "returns": {
          "staker": "The Struct of staker information"
        }
      },
      "getStakerId(address)": {
        "params": {
          "_address": "Address of the staker"
        },
        "returns": {
          "_0": "The staker ID"
        }
      },
      "giveBlockReward(uint256,uint256)": {
        "params": {
          "stakerId": "The ID of the staker"
        }
      },
      "givePenalties(uint256,uint256)": {
        "params": {
          "epoch": "the epoch value todo reduce complexity",
          "stakerId": "The id of staker currently in consideration"
        }
      },
      "giveRewards(uint256,uint256)": {
        "params": {
          "epoch": "The epoch number for which reveal has been called",
          "stakerId": "The staker id"
        }
      },
      "grantRole(bytes32,address)": {
        "details": "Grants `role` to `account`. If `account` had not been already granted `role`, emits a {RoleGranted} event. Requirements: - the caller must have ``role``'s admin role."
      },
      "hasRole(bytes32,address)": {
        "details": "Returns `true` if `account` has been granted `role`."
      },
      "init(address,address,address,address)": {
        "params": {
          "_blockManagerAddress": "The address of the BlockManager contract",
          "_schAddress": "The address of the Schelling token ERC20 contract",
          "_stateManagerAddress": "The address of the StateManager contract todo disable after init",
          "_voteManagerAddress": "The address of the VoteManager contract"
        }
      },
      "renounceRole(bytes32,address)": {
        "details": "Revokes `role` from the calling account. Roles are often managed via {grantRole} and {revokeRole}: this function's purpose is to provide a mechanism for accounts to lose their privileges if they are compromised (such as when a trusted device is misplaced). If the calling account had been granted `role`, emits a {RoleRevoked} event. Requirements: - the caller must be `account`."
      },
      "revokeRole(bytes32,address)": {
        "details": "Revokes `role` from `account`. If `account` had been granted `role`, emits a {RoleRevoked} event. Requirements: - the caller must have ``role``'s admin role."
      },
      "setStakerEpochLastRevealed(uint256,uint256)": {
        "params": {
          "_epochLastRevealed": "The number of epoch that staker revealed asset values",
          "_id": "The ID of the staker"
        }
      },
      "setStakerStake(uint256,uint256,string,uint256)": {
        "params": {
          "_id": "The ID of the staker",
          "_stake": "The amount of schelling tokens that staker stakes"
        }
      },
      "slash(uint256,address,uint256)": {
        "params": {
          "bountyHunter": "The address of the bounty hunter",
          "id": "The ID of the staker who is penalised"
        }
      },
      "stake(uint256,uint256)": {
        "params": {
          "amount": "The amount of schelling tokens Staker stakes",
          "epoch": "The Epoch value for which staker is requesting to stake"
        }
      },
      "unstake(uint256)": {
        "params": {
          "epoch": "The Epoch value for which staker is requesting to unstake"
        }
      },
      "updateCommitmentEpoch(uint256)": {
        "params": {
          "stakerId": "The ID of the staker"
        }
      },
      "withdraw(uint256)": {
        "params": {
          "epoch": "The Epoch value for which staker is requesting a withdraw"
        }
      }
    },
    "title": "StakeManager",
    "version": 1
  },
  "userdoc": {
    "kind": "user",
    "methods": {
      "calculateInactivityPenalties(uint256,uint256)": {
        "notice": "Calculates the inactivity penalties of the staker"
      },
      "giveBlockReward(uint256,uint256)": {
        "notice": "The function gives block reward for one valid proposer in the previous epoch by minting new tokens from the schelling token contract called from confirmBlock function of BlockManager contract"
      },
      "givePenalties(uint256,uint256)": {
        "notice": "gives penalty to stakers for failing to reveal or reveal value deviations"
      },
      "giveRewards(uint256,uint256)": {
        "notice": "This function is called in VoteManager reveal function to give rewards to all the stakers who have correctly staked, committed, revealed the Values of assets according to the razor protocol rules."
      },
      "slash(uint256,address,uint256)": {
        "notice": "The function is used by the Votemanager reveal function to penalise the staker who lost his secret and make his stake zero and transfer to bounty hunter half the schelling tokens of the stakers stake"
      },
      "stake(uint256,uint256)": {
        "notice": "stake during commit state only we check epoch during every transaction to avoid withholding and rebroadcasting attacks"
      },
      "unstake(uint256)": {
        "notice": "staker must call unstake() and continue voting for Constants.WITHDRAW_LOCK_PERIOD after which she can call withdraw() to finally Withdraw"
      },
      "withdraw(uint256)": {
        "notice": "Helps stakers withdraw their stake if previously unstaked"
      }
    },
    "notice": "StakeManager handles stake, unstake, withdraw, reward, functions for stakers",
    "version": 1
  }
}