{
  "contractName": "StateManager",
  "abi": [
    {
      "inputs": [],
      "name": "getEpoch",
      "outputs": [
        {
          "internalType": "uint256",
          "name": "",
          "type": "uint256"
        }
      ],
      "stateMutability": "view",
      "type": "function",
      "constant": true
    },
    {
      "inputs": [],
      "name": "getState",
      "outputs": [
        {
          "internalType": "uint256",
          "name": "",
          "type": "uint256"
        }
      ],
      "stateMutability": "view",
      "type": "function",
      "constant": true
    }
  ],
  "bytecode": "0x608060405234801561001057600080fd5b50610445806100206000396000f3fe608060405234801561001057600080fd5b50600436106100365760003560e01c80631865c57d1461003b578063757991a814610059575b600080fd5b610043610061565b6040516100509190610406565b60405180910390f35b610043610209565b60008061017573__Constants_____________________________63f4f29c5b6040518163ffffffff1660e01b815260040160206040518083038186803b1580156100ab57600080fd5b505af41580156100bf573d6000803e3d6000fd5b505050506040513d601f19601f820116820180604052508101906100e3919061039b565b73__Constants_____________________________6357d775f86040518163ffffffff1660e01b815260040160206040518083038186803b15801561012757600080fd5b505af415801561013b573d6000803e3d6000fd5b505050506040513d601f19601f8201168201806040525081019061015f919061039b565b8161016657fe5b4391900463ffffffff61029c16565b905061020373__Constants_____________________________63f4f29c5b6040518163ffffffff1660e01b815260040160206040518083038186803b1580156101be57600080fd5b505af41580156101d2573d6000803e3d6000fd5b505050506040513d601f19601f820116820180604052508101906101f6919061039b565b829063ffffffff6102e516565b91505090565b600061029773__Constants_____________________________6357d775f86040518163ffffffff1660e01b815260040160206040518083038186803b15801561025257600080fd5b505af4158015610266573d6000803e3d6000fd5b505050506040513d601f19601f8201168201806040525081019061028a919061039b565b439063ffffffff61029c16565b905090565b60006102de83836040518060400160405280601a81526020017f536166654d6174683a206469766973696f6e206279207a65726f000000000000815250610327565b9392505050565b60006102de83836040518060400160405280601881526020017f536166654d6174683a206d6f64756c6f206279207a65726f0000000000000000815250610367565b600081836103515760405162461bcd60e51b815260040161034891906103b3565b60405180910390fd5b50600083858161035d57fe5b0495945050505050565b600081836103885760405162461bcd60e51b815260040161034891906103b3565b5082848161039257fe5b06949350505050565b6000602082840312156103ac578081fd5b5051919050565b6000602080835283518082850152825b818110156103df578581018301518582016040015282016103c3565b818111156103f05783604083870101525b50601f01601f1916929092016040019392505050565b9081526020019056fea2646970667358221220891fd11f8390442367ad599e4dce7559a9ff24ccc0d6344fb9d8664cc7e181cf64736f6c634300060b0033",
  "immutableReferences": {},
  "source": "pragma solidity 0.6.11;\npragma experimental ABIEncoderV2;\nimport \"../lib/Constants.sol\";\n\nimport \"openzeppelin-solidity/contracts/math/SafeMath.sol\";\n\n\ncontract StateManager {\n    using SafeMath for uint256;\n    // for testing only. diable in prod\n    // uint256 public EPOCH;\n    // uint256 public STATE;\n    //\n    // function setEpoch (uint256 epoch) external { EPOCH = epoch;}\n    //\n    // function setState (uint256 state) external { STATE = state;}\n\n    function getEpoch () external view returns(uint256) {\n        // return(EPOCH);\n        return(block.number.div(Constants.epochLength()));\n    }\n\n    function getState () external view returns(uint256) {\n        // return (STATE);\n        uint256 state = (block.number.div(Constants.epochLength()/Constants.numStates()));\n        return (state.mod(Constants.numStates()));\n    }\n}\n",
  "sourcePath": "/Users/skanda/Projects/contracts/contracts/Core/StateManager.sol",
  "compiler": {
    "name": "solc",
    "version": "0.6.11+commit.5ef660b1.Emscripten.clang"
  },
  "schemaVersion": "3.3.2",
  "updatedAt": "2021-01-12T13:54:24.324Z",
  "networkType": "ethereum",
  "devdoc": {
    "kind": "dev",
    "methods": {},
    "version": 1
  },
  "userdoc": {
    "kind": "user",
    "methods": {},
    "version": 1
  }
}