{
  "contractName": "StateManager",
  "abi": [
    {
      "constant": true,
      "inputs": [],
      "name": "getEpoch",
      "outputs": [
        {
          "name": "",
          "type": "uint256"
        }
      ],
      "payable": false,
      "stateMutability": "view",
      "type": "function"
    },
    {
      "constant": true,
      "inputs": [],
      "name": "getState",
      "outputs": [
        {
          "name": "",
          "type": "uint256"
        }
      ],
      "payable": false,
      "stateMutability": "view",
      "type": "function"
    }
  ],
  "bytecode": "0x608060405234801561001057600080fd5b50610452806100206000396000f3fe608060405234801561001057600080fd5b50600436106100365760003560e01c80631865c57d1461003b578063757991a814610059575b600080fd5b610043610061565b60405161005091906103de565b60405180910390f35b610043610209565b60008061017573__Constants_____________________________63f4f29c5b6040518163ffffffff1660e01b815260040160206040518083038186803b1580156100ab57600080fd5b505af41580156100bf573d6000803e3d6000fd5b505050506040513d601f19601f820116820180604052506100e39190810190610317565b73__Constants_____________________________6357d775f86040518163ffffffff1660e01b815260040160206040518083038186803b15801561012757600080fd5b505af415801561013b573d6000803e3d6000fd5b505050506040513d601f19601f8201168201806040525061015f9190810190610317565b8161016657fe5b4391900463ffffffff61029c16565b905061020373__Constants_____________________________63f4f29c5b6040518163ffffffff1660e01b815260040160206040518083038186803b1580156101be57600080fd5b505af41580156101d2573d6000803e3d6000fd5b505050506040513d601f19601f820116820180604052506101f69190810190610317565b829063ffffffff6102dc16565b91505090565b600061029773__Constants_____________________________6357d775f86040518163ffffffff1660e01b815260040160206040518083038186803b15801561025257600080fd5b505af4158015610266573d6000803e3d6000fd5b505050506040513d601f19601f8201168201806040525061028a9190810190610317565b439063ffffffff61029c16565b905090565b60008082116102c65760405162461bcd60e51b81526004016102bd906103be565b60405180910390fd5b60008284816102d157fe5b049150505b92915050565b6000816102fb5760405162461bcd60e51b81526004016102bd906103ce565b81838161030457fe5b069392505050565b80516102d6816103f8565b60006020828403121561032957600080fd5b6000610335848461030c565b949350505050565b600061034a601a836103ec565b7f536166654d6174683a206469766973696f6e206279207a65726f000000000000815260200192915050565b60006103836018836103ec565b7f536166654d6174683a206d6f64756c6f206279207a65726f0000000000000000815260200192915050565b6103b8816103f5565b82525050565b602080825281016102d68161033d565b602080825281016102d681610376565b602081016102d682846103af565b90815260200190565b90565b610401816103f5565b811461040c57600080fd5b5056fea365627a7a723058208af65f56ca2fbbedc2ba08832f174449a250bb24e88b882da85c39f922b79db96c6578706572696d656e74616cf564736f6c634300050a0040",
  "source": "pragma solidity 0.5.10;\npragma experimental ABIEncoderV2;\nimport \"../lib/Constants.sol\";\n\nimport \"openzeppelin-solidity/contracts/math/SafeMath.sol\";\n\n\ncontract StateManager {\n    using SafeMath for uint256;\n    // for testing only. diable in prod\n    // uint256 public EPOCH;\n    // uint256 public STATE;\n    //\n    // function setEpoch (uint256 epoch) external { EPOCH = epoch;}\n    //\n    // function setState (uint256 state) external { STATE = state;}\n\n    function getEpoch () external view returns(uint256) {\n        // return(EPOCH);\n        return(block.number.div(Constants.epochLength()));\n    }\n\n    function getState () external view returns(uint256) {\n        // return (STATE);\n        uint256 state = (block.number.div(Constants.epochLength()/Constants.numStates()));\n        return (state.mod(Constants.numStates()));\n    }\n}\n",
  "sourcePath": "/Users/hrishi/contracts/contracts/Core/StateManager.sol",
  "compiler": {
    "name": "solc",
    "version": "0.5.10+commit.5a6ea5b1.Emscripten.clang"
  },
  "schemaVersion": "3.2.3",
  "updatedAt": "2020-08-01T07:40:16.653Z",
  "networkType": "ethereum",
  "devdoc": {
    "methods": {}
  },
  "userdoc": {
    "methods": {}
  }
}