{
  "contractName": "VoteManager",
  "abi": [
    {
      "anonymous": false,
      "inputs": [
        {
          "indexed": false,
          "internalType": "uint256",
          "name": "epoch",
          "type": "uint256"
        },
        {
          "indexed": false,
          "internalType": "uint256",
          "name": "stakerId",
          "type": "uint256"
        },
        {
          "indexed": false,
          "internalType": "bytes32",
          "name": "commitment",
          "type": "bytes32"
        },
        {
          "indexed": false,
          "internalType": "uint256",
          "name": "timestamp",
          "type": "uint256"
        }
      ],
      "name": "Committed",
      "type": "event"
    },
    {
      "anonymous": false,
      "inputs": [
        {
          "indexed": false,
          "internalType": "uint256",
          "name": "a",
          "type": "uint256"
        }
      ],
      "name": "DebugUint256",
      "type": "event"
    },
    {
      "anonymous": false,
      "inputs": [
        {
          "indexed": false,
          "internalType": "uint256",
          "name": "epoch",
          "type": "uint256"
        },
        {
          "indexed": false,
          "internalType": "uint256",
          "name": "stakerId",
          "type": "uint256"
        },
        {
          "indexed": false,
          "internalType": "uint256",
          "name": "stake",
          "type": "uint256"
        },
        {
          "indexed": false,
          "internalType": "uint256[]",
          "name": "values",
          "type": "uint256[]"
        },
        {
          "indexed": false,
          "internalType": "uint256",
          "name": "timestamp",
          "type": "uint256"
        }
      ],
      "name": "Revealed",
      "type": "event"
    },
    {
      "inputs": [],
      "name": "blockManager",
      "outputs": [
        {
          "internalType": "contract IBlockManager",
          "name": "",
          "type": "address"
        }
      ],
      "stateMutability": "view",
      "type": "function"
    },
    {
      "inputs": [
        {
          "internalType": "uint256",
          "name": "",
          "type": "uint256"
        },
        {
          "internalType": "uint256",
          "name": "",
          "type": "uint256"
        }
      ],
      "name": "commitments",
      "outputs": [
        {
          "internalType": "bytes32",
          "name": "",
          "type": "bytes32"
        }
      ],
      "stateMutability": "view",
      "type": "function"
    },
    {
      "inputs": [],
      "name": "stakeManager",
      "outputs": [
        {
          "internalType": "contract IStakeManager",
          "name": "",
          "type": "address"
        }
      ],
      "stateMutability": "view",
      "type": "function"
    },
    {
      "inputs": [],
      "name": "stateManager",
      "outputs": [
        {
          "internalType": "contract IStateManager",
          "name": "",
          "type": "address"
        }
      ],
      "stateMutability": "view",
      "type": "function"
    },
    {
      "inputs": [
        {
          "internalType": "uint256",
          "name": "",
          "type": "uint256"
        },
        {
          "internalType": "uint256",
          "name": "",
          "type": "uint256"
        }
      ],
      "name": "totalStakeRevealed",
      "outputs": [
        {
          "internalType": "uint256",
          "name": "",
          "type": "uint256"
        }
      ],
      "stateMutability": "view",
      "type": "function"
    },
    {
      "inputs": [
        {
          "internalType": "uint256",
          "name": "",
          "type": "uint256"
        },
        {
          "internalType": "uint256",
          "name": "",
          "type": "uint256"
        },
        {
          "internalType": "uint256",
          "name": "",
          "type": "uint256"
        }
      ],
      "name": "voteWeights",
      "outputs": [
        {
          "internalType": "uint256",
          "name": "",
          "type": "uint256"
        }
      ],
      "stateMutability": "view",
      "type": "function"
    },
    {
      "inputs": [
        {
          "internalType": "uint256",
          "name": "",
          "type": "uint256"
        },
        {
          "internalType": "uint256",
          "name": "",
          "type": "uint256"
        },
        {
          "internalType": "uint256",
          "name": "",
          "type": "uint256"
        }
      ],
      "name": "votes",
      "outputs": [
        {
          "internalType": "uint256",
          "name": "value",
          "type": "uint256"
        },
        {
          "internalType": "uint256",
          "name": "weight",
          "type": "uint256"
        }
      ],
      "stateMutability": "view",
      "type": "function"
    },
    {
      "inputs": [
        {
          "internalType": "address",
          "name": "_stakeManagerAddress",
          "type": "address"
        },
        {
          "internalType": "address",
          "name": "_stateManagerAddress",
          "type": "address"
        },
        {
          "internalType": "address",
          "name": "_blockManagerAddress",
          "type": "address"
        }
      ],
      "name": "init",
      "outputs": [],
      "stateMutability": "nonpayable",
      "type": "function"
    },
    {
      "inputs": [
        {
          "internalType": "uint256",
          "name": "epoch",
          "type": "uint256"
        },
        {
          "internalType": "uint256",
          "name": "stakerId",
          "type": "uint256"
        }
      ],
      "name": "getCommitment",
      "outputs": [
        {
          "internalType": "bytes32",
          "name": "",
          "type": "bytes32"
        }
      ],
      "stateMutability": "view",
      "type": "function"
    },
    {
      "inputs": [
        {
          "internalType": "uint256",
          "name": "epoch",
          "type": "uint256"
        },
        {
          "internalType": "uint256",
          "name": "stakerId",
          "type": "uint256"
        },
        {
          "internalType": "uint256",
          "name": "assetId",
          "type": "uint256"
        }
      ],
      "name": "getVote",
      "outputs": [
        {
          "components": [
            {
              "internalType": "uint256",
              "name": "value",
              "type": "uint256"
            },
            {
              "internalType": "uint256",
              "name": "weight",
              "type": "uint256"
            }
          ],
          "internalType": "struct Structs.Vote",
          "name": "vote",
          "type": "tuple"
        }
      ],
      "stateMutability": "view",
      "type": "function"
    },
    {
      "inputs": [
        {
          "internalType": "uint256",
          "name": "epoch",
          "type": "uint256"
        },
        {
          "internalType": "uint256",
          "name": "assetId",
          "type": "uint256"
        },
        {
          "internalType": "uint256",
          "name": "voteValue",
          "type": "uint256"
        }
      ],
      "name": "getVoteWeight",
      "outputs": [
        {
          "internalType": "uint256",
          "name": "",
          "type": "uint256"
        }
      ],
      "stateMutability": "view",
      "type": "function"
    },
    {
      "inputs": [
        {
          "internalType": "uint256",
          "name": "epoch",
          "type": "uint256"
        },
        {
          "internalType": "uint256",
          "name": "assetId",
          "type": "uint256"
        }
      ],
      "name": "getTotalStakeRevealed",
      "outputs": [
        {
          "internalType": "uint256",
          "name": "",
          "type": "uint256"
        }
      ],
      "stateMutability": "view",
      "type": "function"
    },
    {
      "inputs": [
        {
          "internalType": "uint256",
          "name": "epoch",
          "type": "uint256"
        },
        {
          "internalType": "uint256",
          "name": "assetId",
          "type": "uint256"
        },
        {
          "internalType": "uint256",
          "name": "voteValue",
          "type": "uint256"
        }
      ],
      "name": "getTotalStakeRevealed",
      "outputs": [
        {
          "internalType": "uint256",
          "name": "",
          "type": "uint256"
        }
      ],
      "stateMutability": "view",
      "type": "function"
    },
    {
      "inputs": [
        {
          "internalType": "uint256",
          "name": "epoch",
          "type": "uint256"
        },
        {
          "internalType": "bytes32",
          "name": "commitment",
          "type": "bytes32"
        }
      ],
      "name": "commit",
      "outputs": [],
      "stateMutability": "nonpayable",
      "type": "function"
    },
    {
      "inputs": [
        {
          "internalType": "uint256",
          "name": "epoch",
          "type": "uint256"
        },
        {
          "internalType": "bytes32",
          "name": "root",
          "type": "bytes32"
        },
        {
          "internalType": "uint256[]",
          "name": "values",
          "type": "uint256[]"
        },
        {
          "internalType": "bytes32[][]",
          "name": "proofs",
          "type": "bytes32[][]"
        },
        {
          "internalType": "bytes32",
          "name": "secret",
          "type": "bytes32"
        },
        {
          "internalType": "address",
          "name": "stakerAddress",
          "type": "address"
        }
      ],
      "name": "reveal",
      "outputs": [],
      "stateMutability": "nonpayable",
      "type": "function"
    }
  ],
  "bytecode": "0x608060405234801561001057600080fd5b506118e1806100206000396000f3fe608060405234801561001057600080fd5b50600436106100f55760003560e01c80638ce7ff4a11610097578063d13e2e6011610066578063d13e2e60146101f5578063d9169b3214610208578063f2f0387714610210578063f322bd7d146101cf576100f5565b80638ce7ff4a1461019c5780638fd5ff00146101bc5780639c66556f146101cf578063a6a145d9146101e2576100f5565b80632e716fb1116100d35780632e716fb11461014c5780637164f0d6146101615780637542ff95146101815780638a757ecc14610189576100f5565b8063125f68f1146100fa578063184b95591461010f578063283e290514610122575b600080fd5b61010d610108366004611428565b610223565b005b61010d61011d366004611328565b610a81565b61013561013036600461150e565b610ac0565b60405161014392919061155a565b60405180910390f35b610154610ae8565b6040516101439190611587565b61017461016f366004611407565b610af7565b6040516101439190611568565b610154610b16565b610174610197366004611407565b610b25565b6101af6101aa36600461150e565b610b42565b6040516101439190611797565b6101746101ca36600461150e565b610b88565b6101746101dd36600461150e565b610bab565b6101746101f0366004611407565b610bcf565b610174610203366004611407565b610bec565b610154610c06565b61010d61021e366004611407565b610c15565b60055460408051630eaf323560e31b8152905188926001600160a01b03169163757991a8916004808301926020929190829003018186803b15801561026757600080fd5b505afa15801561027b573d6000803e3d6000fd5b505050506040513d601f19601f8201168201806040525081019061029f91906113ef565b81146102c65760405162461bcd60e51b81526004016102bd906116e6565b60405180910390fd5b60048054604051636022a48560e01b81526000926001600160a01b0390921691636022a485916102f891879101611587565b60206040518083038186803b15801561031057600080fd5b505afa158015610324573d6000803e3d6000fd5b505050506040513d601f19601f8201168201806040525081019061034891906113ef565b90506000811161036a5760405162461bcd60e51b81526004016102bd906116af565b6103726111f2565b600480546040516371e4cc7f60e11b81526001600160a01b039091169163e3c998fe916103a191869101611568565b6101006040518083038186803b1580156103ba57600080fd5b505afa1580156103ce573d6000803e3d6000fd5b505050506040513d601f19601f820116820180604052508101906103f29190611372565b60008a8152602081815260408083208684529091529020549091506104295760405162461bcd60e51b81526004016102bd9061170f565b600089815260208181526040808320858452825291829020549151610454918c918c918a9101611571565b60405160208183030381529060405280519060200120146104875760405162461bcd60e51b81526004016102bd9061159b565b336001600160a01b03851614156108d35773__Constants_____________________________63a475b5dd6040518163ffffffff1660e01b815260040160206040518083038186803b1580156104dc57600080fd5b505af41580156104f0573d6000803e3d6000fd5b505050506040513d601f19601f820116820180604052508101906105149190611539565b60ff16600560009054906101000a90046001600160a01b03166001600160a01b0316631865c57d6040518163ffffffff1660e01b815260040160206040518083038186803b15801561056557600080fd5b505afa158015610579573d6000803e3d6000fd5b505050506040513d601f19601f8201168201806040525081019061059d91906113ef565b146105ba5760405162461bcd60e51b81526004016102bd90611624565b60008160400151116105de5760405162461bcd60e51b81526004016102bd906115cb565b60005b87518110156107a9576106418782815181106105f957fe5b60200260200101518a8a848151811061060e57fe5b60200260200101516040516020016106269190611568565b60405160208183030381529060405280519060200120611129565b61065d5760405162461bcd60e51b81526004016102bd906115f6565b604051806040016040528089838151811061067457fe5b6020908102919091018101518252604080860180519383019390935260008e8152600180845282822089835284528282208783528452828220865181559584015195019490945591518d8452600382528284208585529091529082208a5161070893908c90869081106106e357fe5b60200260200101518152602001908152602001600020546111c690919063ffffffff16565b60008b815260036020908152604080832085845290915281208a519091908b908590811061073257fe5b60200260200101518152602001908152602001600020819055506107878260400151600260008d81526020019081526020016000206000848152602001908152602001600020546111c690919063ffffffff16565b60008b81526002602090815260408083208584529091529020556001016105e1565b5060048054604051630fabb98960e41b81526001600160a01b039091169163fabb9890916107db9186918e910161155a565b600060405180830381600087803b1580156107f557600080fd5b505af1158015610809573d6000803e3d6000fd5b50505060008a81526020818152604080832086845290915280822091909155600480549151634c327b8560e11b81526001600160a01b039092169250639864f70a916108599186918e910161155a565b600060405180830381600087803b15801561087357600080fd5b505af1158015610887573d6000803e3d6000fd5b505050507f17f4759c403dfc3fa26ab75ce82d3d090a0bdbfe9977d8ee87445d6dd83c68a1898383604001518a426040516108c69594939291906117e8565b60405180910390a1610a76565b73__Constants_____________________________633c7a3aff6040518163ffffffff1660e01b815260040160206040518083038186803b15801561091757600080fd5b505af415801561092b573d6000803e3d6000fd5b505050506040513d601f19601f8201168201806040525081019061094f9190611539565b60ff16600560009054906101000a90046001600160a01b03166001600160a01b0316631865c57d6040518163ffffffff1660e01b815260040160206040518083038186803b1580156109a057600080fd5b505afa1580156109b4573d6000803e3d6000fd5b505050506040513d601f19601f820116820180604052508101906109d891906113ef565b146109f55760405162461bcd60e51b81526004016102bd90611685565b60008981526020818152604080832085845290915280822091909155600480549151630f91ce1960e01b81526001600160a01b0390921691630f91ce1991610a4391869133918f91016117ae565b600060405180830381600087803b158015610a5d57600080fd5b505af1158015610a71573d6000803e3d6000fd5b505050505b505050505050505050565b600480546001600160a01b039485166001600160a01b031991821617909155600580549385169382169390931790925560068054919093169116179055565b6001602081815260009485526040808620825293855283852090529083529120805491015482565b6005546001600160a01b031681565b6000828152602081815260408083208484529091529020545b92915050565b6004546001600160a01b031681565b600260209081526000928352604080842090915290825290205481565b610b4a611240565b506000838152600160208181526040808420868552825280842085855282529283902083518085019094528054845290910154908201529392505050565b600360209081526000938452604080852082529284528284209052825290205481565b60009283526003602090815260408085209385529281528284209184525290205490565b600091825260026020908152604080842092845291905290205490565b600060208181529281526040808220909352908152205481565b6006546001600160a01b031681565b60055460408051630eaf323560e31b8152905184926001600160a01b03169163757991a8916004808301926020929190829003018186803b158015610c5957600080fd5b505afa158015610c6d573d6000803e3d6000fd5b505050506040513d601f19601f82011682018060405250810190610c9191906113ef565b8114610caf5760405162461bcd60e51b81526004016102bd906116e6565b73__Constants_____________________________633c7a3aff6040518163ffffffff1660e01b815260040160206040518083038186803b158015610cf357600080fd5b505af4158015610d07573d6000803e3d6000fd5b505050506040513d601f19601f82011682018060405250810190610d2b9190611539565b60ff16600560009054906101000a90046001600160a01b03166001600160a01b0316631865c57d6040518163ffffffff1660e01b815260040160206040518083038186803b158015610d7c57600080fd5b505afa158015610d90573d6000803e3d6000fd5b505050506040513d601f19601f82011682018060405250810190610db491906113ef565b8114610dd25760405162461bcd60e51b81526004016102bd90611744565b60048054604051636022a48560e01b81526000926001600160a01b0390921691636022a48591610e0491339101611587565b60206040518083038186803b158015610e1c57600080fd5b505afa158015610e30573d6000803e3d6000fd5b505050506040513d601f19601f82011682018060405250810190610e5491906113ef565b60008681526020818152604080832084845290915290205490915015610e8c5760405162461bcd60e51b81526004016102bd9061176d565b610e946111f2565b600480546040516371e4cc7f60e11b81526001600160a01b039091169163e3c998fe91610ec391869101611568565b6101006040518083038186803b158015610edc57600080fd5b505afa158015610ef0573d6000803e3d6000fd5b505050506040513d601f19601f82011682018060405250810190610f149190611372565b9050600660009054906101000a90046001600160a01b03166001600160a01b0316639b87f6446040518163ffffffff1660e01b8152600401600060405180830381600087803b158015610f6657600080fd5b505af1158015610f7a573d6000803e3d6000fd5b505060048054604051632a7570af60e11b81526001600160a01b0390911693506354eae15e9250610faf9186918b910161155a565b600060405180830381600087803b158015610fc957600080fd5b505af1158015610fdd573d6000803e3d6000fd5b5050505073__Constants_____________________________63375b3c0a6040518163ffffffff1660e01b815260040160206040518083038186803b15801561102557600080fd5b505af4158015611039573d6000803e3d6000fd5b505050506040513d601f19601f8201168201806040525081019061105d91906113ef565b816040015110611121576000868152602081815260408083208584529091529081902086905560048054915163188dc83b60e01b81526001600160a01b039092169163188dc83b916110b191869101611568565b600060405180830381600087803b1580156110cb57600080fd5b505af11580156110df573d6000803e3d6000fd5b505050507f6ad04b07dbe80ee3971460ebc13808fb6dd0fa67fbf7d7ebc4de85811d2c99288683874260405161111894939291906117cd565b60405180910390a15b505050505050565b600081815b85518110156111bb57600086828151811061114557fe5b6020026020010151905080831161118657828160405160200161116992919061155a565b6040516020818303038152906040528051906020012092506111b2565b808360405160200161119992919061155a565b6040516020818303038152906040528051906020012092505b5060010161112e565b509092149392505050565b6000828201838110156111eb5760405162461bcd60e51b81526004016102bd9061164e565b9392505050565b6040518061010001604052806000815260200160006001600160a01b031681526020016000815260200160008152602001600081526020016000815260200160008152602001600081525090565b604051806040016040528060008152602001600081525090565b8035610b1081611893565b600082601f830112611275578081fd5b813561128861128382611873565b61184c565b818152915060208083019084810160005b8481101561131d578135870188603f8201126112b457600080fd5b838101356112c461128382611873565b818152858101906040848101888502860182018e10156112e357600080fd5b600095505b848610156113065780358452600195909501949288019288016112e8565b505087525050509282019290820190600101611299565b505050505092915050565b60008060006060848603121561133c578283fd5b833561134781611893565b9250602084013561135781611893565b9150604084013561136781611893565b809150509250925092565b6000610100808385031215611385578182fd5b61138e8161184c565b83518152602084015191506113a282611893565b81602082015260408401516040820152606084015160608201526080840151608082015260a084015160a082015260c084015160c082015260e084015160e0820152809250505092915050565b600060208284031215611400578081fd5b5051919050565b60008060408385031215611419578182fd5b50508035926020909101359150565b60008060008060008060c08789031215611440578182fd5b863595506020808801359550604088013567ffffffffffffffff80821115611466578485fd5b818a018b601f820112611477578586fd5b8035925061148761128384611873565b83815284810190828601868602840187018f10156114a3578889fd5b8893505b858410156114c55780358352600193909301929186019186016114a7565b509850505060608a01359250808311156114dd578485fd5b50506114eb89828a01611265565b935050608087013591506115028860a0890161125a565b90509295509295509295565b600080600060608486031215611522578283fd5b505081359360208301359350604090920135919050565b60006020828403121561154a578081fd5b815160ff811681146111eb578182fd5b918252602082015260400190565b90815260200190565b9283526020830191909152604082015260600190565b6001600160a01b0391909116815260200190565b602080825260169082015275696e636f7272656374207365637265742f76616c756560501b604082015260600190565b6020808252601190820152706e6f6e706f736974697665207374616b6560781b604082015260600190565b60208082526014908201527334b73b30b634b21036b2b935b63290383937b7b360611b604082015260600190565b60208082526010908201526f4e6f742072657665616c20737461746560801b604082015260600190565b6020808252601b908201527f536166654d6174683a206164646974696f6e206f766572666c6f770000000000604082015260600190565b60208082526010908201526f4e6f7420636f6d6d697420737461746560801b604082015260600190565b6020808252601d908201527f537472756374732e5374616b657220646f6573206e6f74206578697374000000604082015260600190565b6020808252600f908201526e0d2dcc6dee4e4cac6e840cae0dec6d608b1b604082015260600190565b6020808252818101527f6e6f7420636f6d6d69746564206f7220616c72656164792072657665616c6564604082015260600190565b6020808252600f908201526e696e636f727265637420737461746560881b604082015260600190565b60208082526010908201526f185b1c9958591e4818dbdb5b5a5d195960821b604082015260600190565b815181526020918201519181019190915260400190565b9283526001600160a01b03919091166020830152604082015260600190565b93845260208401929092526040830152606082015260800190565b600060a082018783526020878185015286604085015260a0606085015281865180845260c0860191508288019350845b8181101561183457845183529383019391830191600101611818565b50508093505050508260808301529695505050505050565b60405181810167ffffffffffffffff8111828210171561186b57600080fd5b604052919050565b600067ffffffffffffffff821115611889578081fd5b5060209081020190565b6001600160a01b03811681146118a857600080fd5b5056fea26469706673582212205fd72e78e1b66f11b4561392a902adad0c9435bc191705b83136c1edaf2df31364736f6c634300060b0033",
  "immutableReferences": {},
  "source": "pragma solidity 0.6.11;\npragma experimental ABIEncoderV2;\nimport \"./Utils.sol\";\nimport \"openzeppelin-solidity/contracts/math/SafeMath.sol\";\nimport \"./IStakeManager.sol\";\nimport \"./IStateManager.sol\";\nimport \"./IBlockManager.sol\";\nimport \"./VoteStorage.sol\";\nimport \"openzeppelin-solidity/contracts/cryptography/MerkleProof.sol\";\nimport \"../lib/Constants.sol\";\n\n// import \"openzeppelin-solidity/contracts/ownership/Ownable.sol\";\n\n\ncontract VoteManager is  Utils, VoteStorage {\n    using SafeMath for uint256;\n    IStakeManager public stakeManager;\n    IStateManager public stateManager;\n    IBlockManager public blockManager;\n\n    modifier checkEpoch (uint256 epoch) {\n        require(epoch == stateManager.getEpoch(), \"incorrect epoch\");\n        _;\n    }\n\n    modifier checkState (uint256 state) {\n        require(state == stateManager.getState(), \"incorrect state\");\n        _;\n    }\n\n    function init (address _stakeManagerAddress, address _stateManagerAddress, address _blockManagerAddress) public {\n        stakeManager = IStakeManager(_stakeManagerAddress);\n        stateManager = IStateManager(_stateManagerAddress);\n        blockManager = IBlockManager(_blockManagerAddress);\n    }\n\n    event Committed(uint256 epoch, uint256 stakerId, bytes32 commitment, uint256 timestamp);\n\n    function getCommitment(uint256 epoch, uint256 stakerId) public view returns(bytes32) {\n        //epoch->stakerid->commitment\n        // mapping (uint256 => mapping (uint256 => bytes32)) public commitments;\n        return(commitments[epoch][stakerId]);\n    }\n\n    function getVote(uint256 epoch, uint256 stakerId, uint256 assetId) public view returns(Structs.Vote memory vote) {\n        //epoch->stakerid->assetid->vote\n        // mapping (uint256 => mapping (uint256 =>  mapping (uint256 => Structs.Vote))) public votes;\n        return(votes[epoch][stakerId][assetId]);\n    }\n\n    function getVoteWeight(uint256 epoch, uint256 assetId, uint256 voteValue)\n    public view returns(uint256) {\n        //epoch->assetid->voteValue->weight\n        // mapping (uint256 => mapping (uint256 =>  mapping (uint256 => uint256))) public voteWeights;\n        return(voteWeights[epoch][assetId][voteValue]);\n    }\n\n    function getTotalStakeRevealed(uint256 epoch, uint256 assetId) public view returns(uint256) {\n        // epoch -> asset -> stakeWeight\n        // mapping (uint256 =>  mapping (uint256 => uint256)) public totalStakeRevealed;\n        return(totalStakeRevealed[epoch][assetId]);\n    }\n\n    function getTotalStakeRevealed(uint256 epoch, uint256 assetId, uint256 voteValue) public view returns(uint256) {\n        //epoch->assetid->voteValue->weight\n        // mapping (uint256 => mapping (uint256 =>  mapping (uint256 => uint256))) public voteWeights;\n        return(voteWeights[epoch][assetId][voteValue]);\n    }\n\n    function commit (uint256 epoch, bytes32 commitment) public checkEpoch(epoch) checkState(Constants.commit()) {\n        uint256 stakerId = stakeManager.getStakerId(msg.sender);\n        require(commitments[epoch][stakerId] == 0x0, \"already commited\");\n        Structs.Staker memory thisStaker = stakeManager.getStaker(stakerId);\n        blockManager.confirmBlock();\n\n        stakeManager.givePenalties(stakerId, epoch);\n        // emit DebugUint256(y);\n        if (thisStaker.stake >= Constants.minStake()) {\n            commitments[epoch][stakerId] = commitment;\n            stakeManager.updateCommitmentEpoch(stakerId);\n            // thisStaker.epochLastCommitted = epoch;\n            emit Committed(epoch, stakerId, commitment, now);\n        }\n    }\n\n    event Revealed(uint256 epoch, uint256 stakerId, uint256 stake, uint256[] values, uint256 timestamp);\n\n    function reveal (uint256 epoch, bytes32 root, uint256[] memory values,\n                    bytes32[][] memory proofs, bytes32 secret, address stakerAddress)\n    public\n    checkEpoch(epoch) {\n        uint256 thisStakerId = stakeManager.getStakerId(stakerAddress);\n        require(thisStakerId > 0, \"Structs.Staker does not exist\");\n        Structs.Staker memory thisStaker = stakeManager.getStaker(thisStakerId);\n        require(commitments[epoch][thisStakerId] != 0x0, \"not commited or already revealed\");\n        // require(value > 0, \"voted non positive value\");\n        require(keccak256(abi.encodePacked(epoch, root, secret)) == commitments[epoch][thisStakerId],\n                \"incorrect secret/value\");\n        //if revealing self\n        if (msg.sender == stakerAddress) {\n            require(stateManager.getState() == Constants.reveal(), \"Not reveal state\");\n            require(thisStaker.stake > 0, \"nonpositive stake\");\n            for (uint256 i = 0; i < values.length; i++) {\n                require(MerkleProof.verify(proofs[i], root, keccak256(abi.encodePacked(values[i]))),\n                \"invalid merkle proof\");\n                votes[epoch][thisStakerId][i] = Structs.Vote(values[i], thisStaker.stake);\n                voteWeights[epoch][i][values[i]] = voteWeights[epoch][i][values[i]].add(thisStaker.stake);\n                totalStakeRevealed[epoch][i] = totalStakeRevealed[epoch][i].add(thisStaker.stake);\n            }\n\n            stakeManager.giveRewards(thisStakerId, epoch);\n\n            commitments[epoch][thisStakerId] = 0x0;\n            // thisStaker.epochLastRevealed = epoch;\n            // stakeManager.setStakerStake(thisStakerId, thisStaker.stake);\n            stakeManager.setStakerEpochLastRevealed(thisStakerId, epoch);\n\n            emit Revealed(epoch, thisStakerId, thisStaker.stake, values, now);\n        } else {\n            //bounty hunter revealing someone else's secret in commit state\n            require(stateManager.getState() == Constants.commit(), \"Not commit state\");\n            commitments[epoch][thisStakerId] = 0x0;\n            stakeManager.slash(thisStakerId, msg.sender, epoch);\n        }\n    }\n}\n",
  "sourcePath": "/home/user/Documents/intern/contracts/contracts/Core/VoteManager.sol",
  "compiler": {
    "name": "solc",
    "version": "0.6.11+commit.5ef660b1.Emscripten.clang"
  },
  "schemaVersion": "3.2.2",
  "updatedAt": "2020-07-27T12:27:12.537Z",
  "devdoc": {
    "kind": "dev",
    "methods": {},
    "version": 1
  },
  "userdoc": {
    "kind": "user",
    "methods": {},
    "version": 1
  }
}