{
  "contractName": "VoteStorage",
  "abi": [
    {
      "constant": true,
      "inputs": [
        {
          "name": "",
          "type": "uint256"
        },
        {
          "name": "",
          "type": "uint256"
        },
        {
          "name": "",
          "type": "uint256"
        }
      ],
      "name": "votes",
      "outputs": [
        {
          "name": "value",
          "type": "uint256"
        },
        {
          "name": "weight",
          "type": "uint256"
        }
      ],
      "payable": false,
      "stateMutability": "view",
      "type": "function"
    },
    {
      "constant": true,
      "inputs": [
        {
          "name": "",
          "type": "uint256"
        },
        {
          "name": "",
          "type": "uint256"
        }
      ],
      "name": "totalStakeRevealed",
      "outputs": [
        {
          "name": "",
          "type": "uint256"
        }
      ],
      "payable": false,
      "stateMutability": "view",
      "type": "function"
    },
    {
      "constant": true,
      "inputs": [
        {
          "name": "",
          "type": "uint256"
        },
        {
          "name": "",
          "type": "uint256"
        },
        {
          "name": "",
          "type": "uint256"
        }
      ],
      "name": "voteWeights",
      "outputs": [
        {
          "name": "",
          "type": "uint256"
        }
      ],
      "payable": false,
      "stateMutability": "view",
      "type": "function"
    },
    {
      "constant": true,
      "inputs": [
        {
          "name": "",
          "type": "uint256"
        },
        {
          "name": "",
          "type": "uint256"
        }
      ],
      "name": "commitments",
      "outputs": [
        {
          "name": "",
          "type": "bytes32"
        }
      ],
      "payable": false,
      "stateMutability": "view",
      "type": "function"
    }
  ],
  "bytecode": "0x608060405234801561001057600080fd5b506101cb806100206000396000f3fe608060405234801561001057600080fd5b506004361061004c5760003560e01c8063283e2905146100515780638a757ecc146100935780638fd5ff00146100c8578063d13e2e60146100f1575b600080fd5b61007a6004803603606081101561006757600080fd5b5080359060208101359060400135610114565b6040805192835260208301919091528051918290030190f35b6100b6600480360360408110156100a957600080fd5b508035906020013561013c565b60408051918252519081900360200190f35b6100b6600480360360608110156100de57600080fd5b5080359060208101359060400135610159565b6100b66004803603604081101561010757600080fd5b508035906020013561017c565b6001602081815260009485526040808620825293855283852090529083529120805491015482565b600260209081526000928352604080842090915290825290205481565b600360209081526000938452604080852082529284528284209052825290205481565b60006020818152928152604080822090935290815220548156fea265627a7a72305820224bb8d622a7a7bf1246caf9fe0edcfb0ce083e650b7bc9b2b907476cbdb165c64736f6c634300050a0032",
  "source": "pragma solidity 0.5.10;\n\nimport \"../lib/Structs.sol\";\n\n\ncontract VoteStorage {\n    //epoch->stakerid->commitment\n    mapping (uint256 => mapping (uint256 => bytes32)) public commitments;\n    //epoch->stakerid->assetid->vote\n    mapping (uint256 => mapping (uint256 =>  mapping (uint256 => Structs.Vote))) public votes;\n    // epoch -> asset -> stakeWeight\n    mapping (uint256 =>  mapping (uint256 => uint256)) public totalStakeRevealed;\n    //epoch->assetid->voteValue->weight\n    mapping (uint256 => mapping (uint256 =>  mapping (uint256 => uint256))) public voteWeights;\n\n}\n",
  "sourcePath": "/Users/hrishi/contracts/contracts/Core/VoteStorage.sol",
  "compiler": {
    "name": "solc",
    "version": "0.5.10+commit.5a6ea5b1.Emscripten.clang"
  },
  "schemaVersion": "3.0.20",
  "updatedAt": "2019-12-25T04:19:39.222Z",
  "devdoc": {
    "methods": {}
  },
  "userdoc": {
    "methods": {}
  }
}