{
  "contractName": "VoteStorage",
  "abi": [
    {
      "inputs": [
        {
          "internalType": "uint256",
          "name": "",
          "type": "uint256"
        },
        {
          "internalType": "uint256",
          "name": "",
          "type": "uint256"
        }
      ],
      "name": "commitments",
      "outputs": [
        {
          "internalType": "bytes32",
          "name": "",
          "type": "bytes32"
        }
      ],
      "stateMutability": "view",
      "type": "function"
    },
    {
      "inputs": [
        {
          "internalType": "uint256",
          "name": "",
          "type": "uint256"
        },
        {
          "internalType": "uint256",
          "name": "",
          "type": "uint256"
        }
      ],
      "name": "totalStakeRevealed",
      "outputs": [
        {
          "internalType": "uint256",
          "name": "",
          "type": "uint256"
        }
      ],
      "stateMutability": "view",
      "type": "function"
    },
    {
      "inputs": [
        {
          "internalType": "uint256",
          "name": "",
          "type": "uint256"
        },
        {
          "internalType": "uint256",
          "name": "",
          "type": "uint256"
        },
        {
          "internalType": "uint256",
          "name": "",
          "type": "uint256"
        }
      ],
      "name": "voteWeights",
      "outputs": [
        {
          "internalType": "uint256",
          "name": "",
          "type": "uint256"
        }
      ],
      "stateMutability": "view",
      "type": "function"
    },
    {
      "inputs": [
        {
          "internalType": "uint256",
          "name": "",
          "type": "uint256"
        },
        {
          "internalType": "uint256",
          "name": "",
          "type": "uint256"
        },
        {
          "internalType": "uint256",
          "name": "",
          "type": "uint256"
        }
      ],
      "name": "votes",
      "outputs": [
        {
          "internalType": "uint256",
          "name": "value",
          "type": "uint256"
        },
        {
          "internalType": "uint256",
          "name": "weight",
          "type": "uint256"
        }
      ],
      "stateMutability": "view",
      "type": "function"
    }
  ],
  "bytecode": "0x608060405234801561001057600080fd5b506101cc806100206000396000f3fe608060405234801561001057600080fd5b506004361061004c5760003560e01c8063283e2905146100515780638a757ecc146100935780638fd5ff00146100c8578063d13e2e60146100f1575b600080fd5b61007a6004803603606081101561006757600080fd5b5080359060208101359060400135610114565b6040805192835260208301919091528051918290030190f35b6100b6600480360360408110156100a957600080fd5b508035906020013561013c565b60408051918252519081900360200190f35b6100b6600480360360608110156100de57600080fd5b5080359060208101359060400135610159565b6100b66004803603604081101561010757600080fd5b508035906020013561017c565b6001602081815260009485526040808620825293855283852090529083529120805491015482565b600260209081526000928352604080842090915290825290205481565b600360209081526000938452604080852082529284528284209052825290205481565b60006020818152928152604080822090935290815220548156fea26469706673582212209951a8898da6f7f528c1171fd9d62378bc68e7f88b8af476a299a64bd8bf9eb864736f6c634300060b0033",
  "immutableReferences": {},
  "source": "pragma solidity 0.6.11;\n\nimport \"../lib/Structs.sol\";\n\n\ncontract VoteStorage {\n    //epoch->stakerid->commitment\n    mapping (uint256 => mapping (uint256 => bytes32)) public commitments;\n    //epoch->stakerid->assetid->vote\n    mapping (uint256 => mapping (uint256 =>  mapping (uint256 => Structs.Vote))) public votes;\n    // epoch -> asset -> stakeWeight\n    mapping (uint256 =>  mapping (uint256 => uint256)) public totalStakeRevealed;\n    //epoch->assetid->voteValue->weight\n    mapping (uint256 => mapping (uint256 =>  mapping (uint256 => uint256))) public voteWeights;\n\n}\n",
  "sourcePath": "/Users/skanda/Projects/contracts/contracts/Core/VoteStorage.sol",
  "compiler": {
    "name": "solc",
    "version": "0.6.11+commit.5ef660b1.Emscripten.clang"
  },
  "schemaVersion": "3.3.2",
  "updatedAt": "2021-01-12T12:25:56.935Z",
  "devdoc": {
    "kind": "dev",
    "methods": {},
    "version": 1
  },
  "userdoc": {
    "kind": "user",
    "methods": {},
    "version": 1
  }
}